{
	"Carbon-Credits-Verification-with-Blockchain-main/contracts/lock-contract.sol": {
		"testLock": {
			"abi": [
				{
					"anonymous": false,
					"inputs": [
						{
							"indexed": false,
							"internalType": "uint256",
							"name": "amount",
							"type": "uint256"
						}
					],
					"name": "Bal",
					"type": "event"
				},
				{
					"inputs": [
						{
							"internalType": "uint256",
							"name": "repScore",
							"type": "uint256"
						}
					],
					"name": "depositCalculator",
					"outputs": [
						{
							"internalType": "uint256",
							"name": "",
							"type": "uint256"
						}
					],
					"stateMutability": "pure",
					"type": "function"
				},
				{
					"inputs": [
						{
							"internalType": "address",
							"name": "addr",
							"type": "address"
						}
					],
					"name": "getContractBalance",
					"outputs": [
						{
							"internalType": "uint256",
							"name": "",
							"type": "uint256"
						}
					],
					"stateMutability": "view",
					"type": "function"
				},
				{
					"inputs": [
						{
							"internalType": "address",
							"name": "addr",
							"type": "address"
						}
					],
					"name": "getProponent",
					"outputs": [
						{
							"components": [
								{
									"internalType": "string",
									"name": "name",
									"type": "string"
								},
								{
									"internalType": "uint256",
									"name": "repScore",
									"type": "uint256"
								},
								{
									"internalType": "uint256",
									"name": "balance",
									"type": "uint256"
								}
							],
							"internalType": "struct testLock.Proponents",
							"name": "",
							"type": "tuple"
						}
					],
					"stateMutability": "view",
					"type": "function"
				},
				{
					"inputs": [
						{
							"internalType": "string",
							"name": "_name",
							"type": "string"
						}
					],
					"name": "newProp",
					"outputs": [
						{
							"components": [
								{
									"internalType": "string",
									"name": "name",
									"type": "string"
								},
								{
									"internalType": "uint256",
									"name": "repScore",
									"type": "uint256"
								},
								{
									"internalType": "uint256",
									"name": "balance",
									"type": "uint256"
								}
							],
							"internalType": "struct testLock.Proponents",
							"name": "",
							"type": "tuple"
						}
					],
					"stateMutability": "payable",
					"type": "function"
				},
				{
					"inputs": [
						{
							"internalType": "address",
							"name": "",
							"type": "address"
						}
					],
					"name": "proponents",
					"outputs": [
						{
							"internalType": "string",
							"name": "name",
							"type": "string"
						},
						{
							"internalType": "uint256",
							"name": "repScore",
							"type": "uint256"
						},
						{
							"internalType": "uint256",
							"name": "balance",
							"type": "uint256"
						}
					],
					"stateMutability": "view",
					"type": "function"
				},
				{
					"inputs": [
						{
							"internalType": "uint256",
							"name": "depAmount",
							"type": "uint256"
						}
					],
					"name": "requestDeposit",
					"outputs": [
						{
							"internalType": "bool",
							"name": "",
							"type": "bool"
						}
					],
					"stateMutability": "pure",
					"type": "function"
				},
				{
					"inputs": [
						{
							"internalType": "address payable",
							"name": "proponent",
							"type": "address"
						},
						{
							"internalType": "uint256",
							"name": "depAmount",
							"type": "uint256"
						}
					],
					"name": "testSender",
					"outputs": [],
					"stateMutability": "payable",
					"type": "function"
				}
			],
			"devdoc": {
				"kind": "dev",
				"methods": {},
				"version": 1
			},
			"evm": {
				"assembly": "    /* \"Carbon-Credits-Verification-with-Blockchain-main/contracts/lock-contract.sol\":2713:5423  contract testLock {... */\n  mstore(0x40, 0x80)\n  callvalue\n  dup1\n  iszero\n  tag_1\n  jumpi\n  0x00\n  dup1\n  revert\ntag_1:\n  pop\n  dataSize(sub_0)\n  dup1\n  dataOffset(sub_0)\n  0x00\n  codecopy\n  0x00\n  return\nstop\n\nsub_0: assembly {\n        /* \"Carbon-Credits-Verification-with-Blockchain-main/contracts/lock-contract.sol\":2713:5423  contract testLock {... */\n      mstore(0x40, 0x80)\n      jumpi(tag_1, lt(calldatasize, 0x04))\n      shr(0xe0, calldataload(0x00))\n      dup1\n      0x4545ed9f\n      gt\n      tag_9\n      jumpi\n      dup1\n      0x4545ed9f\n      eq\n      tag_5\n      jumpi\n      dup1\n      0xc8ca85dc\n      eq\n      tag_6\n      jumpi\n      dup1\n      0xd4aef9ba\n      eq\n      tag_7\n      jumpi\n      dup1\n      0xddfc5cfe\n      eq\n      tag_8\n      jumpi\n      jump(tag_1)\n    tag_9:\n      dup1\n      0x0d1e6667\n      eq\n      tag_2\n      jumpi\n      dup1\n      0x43ab265f\n      eq\n      tag_3\n      jumpi\n      dup1\n      0x45115bd8\n      eq\n      tag_4\n      jumpi\n    tag_1:\n      0x00\n      dup1\n      revert\n        /* \"Carbon-Credits-Verification-with-Blockchain-main/contracts/lock-contract.sol\":4991:5414  function requestDeposit(uint256 depAmount) pure public returns (bool) {... */\n    tag_2:\n      callvalue\n      dup1\n      iszero\n      tag_10\n      jumpi\n      0x00\n      dup1\n      revert\n    tag_10:\n      pop\n      tag_11\n      0x04\n      dup1\n      calldatasize\n      sub\n      dup2\n      add\n      swap1\n      tag_12\n      swap2\n      swap1\n      tag_13\n      jump\t// in\n    tag_12:\n      tag_14\n      jump\t// in\n    tag_11:\n      mload(0x40)\n      tag_15\n      swap2\n      swap1\n      tag_16\n      jump\t// in\n    tag_15:\n      mload(0x40)\n      dup1\n      swap2\n      sub\n      swap1\n      return\n        /* \"Carbon-Credits-Verification-with-Blockchain-main/contracts/lock-contract.sol\":4378:4483  function getContractBalance(address addr) public view returns (uint) {... */\n    tag_3:\n      callvalue\n      dup1\n      iszero\n      tag_17\n      jumpi\n      0x00\n      dup1\n      revert\n    tag_17:\n      pop\n      tag_18\n      0x04\n      dup1\n      calldatasize\n      sub\n      dup2\n      add\n      swap1\n      tag_19\n      swap2\n      swap1\n      tag_20\n      jump\t// in\n    tag_19:\n      tag_21\n      jump\t// in\n    tag_18:\n      mload(0x40)\n      tag_22\n      swap2\n      swap1\n      tag_23\n      jump\t// in\n    tag_22:\n      mload(0x40)\n      dup1\n      swap2\n      sub\n      swap1\n      return\n        /* \"Carbon-Credits-Verification-with-Blockchain-main/contracts/lock-contract.sol\":3720:3995  function testSender(address payable proponent, uint256 depAmount) public payable {... */\n    tag_4:\n      tag_24\n      0x04\n      dup1\n      calldatasize\n      sub\n      dup2\n      add\n      swap1\n      tag_25\n      swap2\n      swap1\n      tag_26\n      jump\t// in\n    tag_25:\n      tag_27\n      jump\t// in\n    tag_24:\n      stop\n        /* \"Carbon-Credits-Verification-with-Blockchain-main/contracts/lock-contract.sol\":4489:4985  function depositCalculator(uint repScore) pure  public returns (uint256) {... */\n    tag_5:\n      callvalue\n      dup1\n      iszero\n      tag_28\n      jumpi\n      0x00\n      dup1\n      revert\n    tag_28:\n      pop\n      tag_29\n      0x04\n      dup1\n      calldatasize\n      sub\n      dup2\n      add\n      swap1\n      tag_30\n      swap2\n      swap1\n      tag_13\n      jump\t// in\n    tag_30:\n      tag_31\n      jump\t// in\n    tag_29:\n      mload(0x40)\n      tag_32\n      swap2\n      swap1\n      tag_23\n      jump\t// in\n    tag_32:\n      mload(0x40)\n      dup1\n      swap2\n      sub\n      swap1\n      return\n        /* \"Carbon-Credits-Verification-with-Blockchain-main/contracts/lock-contract.sol\":4001:4250  function newProp (string memory _name)  public payable  returns (Proponents memory) {... */\n    tag_6:\n      tag_33\n      0x04\n      dup1\n      calldatasize\n      sub\n      dup2\n      add\n      swap1\n      tag_34\n      swap2\n      swap1\n      tag_35\n      jump\t// in\n    tag_34:\n      tag_36\n      jump\t// in\n    tag_33:\n      mload(0x40)\n      tag_37\n      swap2\n      swap1\n      tag_38\n      jump\t// in\n    tag_37:\n      mload(0x40)\n      dup1\n      swap2\n      sub\n      swap1\n      return\n        /* \"Carbon-Credits-Verification-with-Blockchain-main/contracts/lock-contract.sol\":4256:4372  function getProponent(address addr) public view returns (Proponents memory) {... */\n    tag_7:\n      callvalue\n      dup1\n      iszero\n      tag_39\n      jumpi\n      0x00\n      dup1\n      revert\n    tag_39:\n      pop\n      tag_40\n      0x04\n      dup1\n      calldatasize\n      sub\n      dup2\n      add\n      swap1\n      tag_41\n      swap2\n      swap1\n      tag_20\n      jump\t// in\n    tag_41:\n      tag_42\n      jump\t// in\n    tag_40:\n      mload(0x40)\n      tag_43\n      swap2\n      swap1\n      tag_38\n      jump\t// in\n    tag_43:\n      mload(0x40)\n      dup1\n      swap2\n      sub\n      swap1\n      return\n        /* \"Carbon-Credits-Verification-with-Blockchain-main/contracts/lock-contract.sol\":3664:3713  mapping (address => Proponents) public proponents */\n    tag_8:\n      callvalue\n      dup1\n      iszero\n      tag_44\n      jumpi\n      0x00\n      dup1\n      revert\n    tag_44:\n      pop\n      tag_45\n      0x04\n      dup1\n      calldatasize\n      sub\n      dup2\n      add\n      swap1\n      tag_46\n      swap2\n      swap1\n      tag_20\n      jump\t// in\n    tag_46:\n      tag_47\n      jump\t// in\n    tag_45:\n      mload(0x40)\n      tag_48\n      swap4\n      swap3\n      swap2\n      swap1\n      tag_49\n      jump\t// in\n    tag_48:\n      mload(0x40)\n      dup1\n      swap2\n      sub\n      swap1\n      return\n        /* \"Carbon-Credits-Verification-with-Blockchain-main/contracts/lock-contract.sol\":4991:5414  function requestDeposit(uint256 depAmount) pure public returns (bool) {... */\n    tag_14:\n        /* \"Carbon-Credits-Verification-with-Blockchain-main/contracts/lock-contract.sol\":5055:5059  bool */\n      0x00\n        /* \"Carbon-Credits-Verification-with-Blockchain-main/contracts/lock-contract.sol\":5347:5348  0 */\n      dup1\n        /* \"Carbon-Credits-Verification-with-Blockchain-main/contracts/lock-contract.sol\":5335:5344  depAmount */\n      dup3\n        /* \"Carbon-Credits-Verification-with-Blockchain-main/contracts/lock-contract.sol\":5335:5348  depAmount > 0 */\n      gt\n        /* \"Carbon-Credits-Verification-with-Blockchain-main/contracts/lock-contract.sol\":5331:5386  if (depAmount > 0) {... */\n      iszero\n      tag_51\n      jumpi\n        /* \"Carbon-Credits-Verification-with-Blockchain-main/contracts/lock-contract.sol\":5371:5375  true */\n      0x01\n        /* \"Carbon-Credits-Verification-with-Blockchain-main/contracts/lock-contract.sol\":5364:5375  return true */\n      swap1\n      pop\n      jump(tag_50)\n        /* \"Carbon-Credits-Verification-with-Blockchain-main/contracts/lock-contract.sol\":5331:5386  if (depAmount > 0) {... */\n    tag_51:\n        /* \"Carbon-Credits-Verification-with-Blockchain-main/contracts/lock-contract.sol\":5402:5407  false */\n      0x00\n        /* \"Carbon-Credits-Verification-with-Blockchain-main/contracts/lock-contract.sol\":5395:5407  return false */\n      swap1\n      pop\n        /* \"Carbon-Credits-Verification-with-Blockchain-main/contracts/lock-contract.sol\":4991:5414  function requestDeposit(uint256 depAmount) pure public returns (bool) {... */\n    tag_50:\n      swap2\n      swap1\n      pop\n      jump\t// out\n        /* \"Carbon-Credits-Verification-with-Blockchain-main/contracts/lock-contract.sol\":4378:4483  function getContractBalance(address addr) public view returns (uint) {... */\n    tag_21:\n        /* \"Carbon-Credits-Verification-with-Blockchain-main/contracts/lock-contract.sol\":4441:4445  uint */\n      0x00\n        /* \"Carbon-Credits-Verification-with-Blockchain-main/contracts/lock-contract.sol\":4464:4468  addr */\n      dup2\n        /* \"Carbon-Credits-Verification-with-Blockchain-main/contracts/lock-contract.sol\":4464:4476  addr.balance */\n      0xffffffffffffffffffffffffffffffffffffffff\n      and\n      balance\n        /* \"Carbon-Credits-Verification-with-Blockchain-main/contracts/lock-contract.sol\":4457:4476  return addr.balance */\n      swap1\n      pop\n        /* \"Carbon-Credits-Verification-with-Blockchain-main/contracts/lock-contract.sol\":4378:4483  function getContractBalance(address addr) public view returns (uint) {... */\n      swap2\n      swap1\n      pop\n      jump\t// out\n        /* \"Carbon-Credits-Verification-with-Blockchain-main/contracts/lock-contract.sol\":3720:3995  function testSender(address payable proponent, uint256 depAmount) public payable {... */\n    tag_27:\n        /* \"Carbon-Credits-Verification-with-Blockchain-main/contracts/lock-contract.sol\":3812:3821  bool sent */\n      0x00\n        /* \"Carbon-Credits-Verification-with-Blockchain-main/contracts/lock-contract.sol\":3823:3840  bytes memory data */\n      dup1\n        /* \"Carbon-Credits-Verification-with-Blockchain-main/contracts/lock-contract.sol\":3844:3853  proponent */\n      dup4\n        /* \"Carbon-Credits-Verification-with-Blockchain-main/contracts/lock-contract.sol\":3844:3858  proponent.call */\n      0xffffffffffffffffffffffffffffffffffffffff\n      and\n        /* \"Carbon-Credits-Verification-with-Blockchain-main/contracts/lock-contract.sol\":3866:3875  msg.value */\n      callvalue\n        /* \"Carbon-Credits-Verification-with-Blockchain-main/contracts/lock-contract.sol\":3844:3880  proponent.call{value: msg.value}(\"\") */\n      mload(0x40)\n      tag_54\n      swap1\n      tag_55\n      jump\t// in\n    tag_54:\n      0x00\n      mload(0x40)\n      dup1\n      dup4\n      sub\n      dup2\n      dup6\n      dup8\n      gas\n      call\n      swap3\n      pop\n      pop\n      pop\n      returndatasize\n      dup1\n      0x00\n      dup2\n      eq\n      tag_58\n      jumpi\n      mload(0x40)\n      swap2\n      pop\n      and(add(returndatasize, 0x3f), not(0x1f))\n      dup3\n      add\n      0x40\n      mstore\n      returndatasize\n      dup3\n      mstore\n      returndatasize\n      0x00\n      0x20\n      dup5\n      add\n      returndatacopy\n      jump(tag_57)\n    tag_58:\n      0x60\n      swap2\n      pop\n    tag_57:\n      pop\n        /* \"Carbon-Credits-Verification-with-Blockchain-main/contracts/lock-contract.sol\":3811:3880  (bool sent, bytes memory data) = proponent.call{value: msg.value}(\"\") */\n      swap2\n      pop\n      swap2\n      pop\n        /* \"Carbon-Credits-Verification-with-Blockchain-main/contracts/lock-contract.sol\":3898:3902  sent */\n      dup2\n        /* \"Carbon-Credits-Verification-with-Blockchain-main/contracts/lock-contract.sol\":3890:3942  require(sent, \"Failed to send deposit to proponent\") */\n      tag_59\n      jumpi\n      mload(0x40)\n      0x08c379a000000000000000000000000000000000000000000000000000000000\n      dup2\n      mstore\n      0x04\n      add\n      tag_60\n      swap1\n      tag_61\n      jump\t// in\n    tag_60:\n      mload(0x40)\n      dup1\n      swap2\n      sub\n      swap1\n      revert\n    tag_59:\n        /* \"Carbon-Credits-Verification-with-Blockchain-main/contracts/lock-contract.sol\":3987:3988  1 */\n      0x01\n        /* \"Carbon-Credits-Verification-with-Blockchain-main/contracts/lock-contract.sol\":3952:3962  proponents */\n      0x00\n        /* \"Carbon-Credits-Verification-with-Blockchain-main/contracts/lock-contract.sol\":3952:3974  proponents[msg.sender] */\n      dup1\n        /* \"Carbon-Credits-Verification-with-Blockchain-main/contracts/lock-contract.sol\":3963:3973  msg.sender */\n      caller\n        /* \"Carbon-Credits-Verification-with-Blockchain-main/contracts/lock-contract.sol\":3952:3974  proponents[msg.sender] */\n      0xffffffffffffffffffffffffffffffffffffffff\n      and\n      0xffffffffffffffffffffffffffffffffffffffff\n      and\n      dup2\n      mstore\n      0x20\n      add\n      swap1\n      dup2\n      mstore\n      0x20\n      add\n      0x00\n      keccak256\n        /* \"Carbon-Credits-Verification-with-Blockchain-main/contracts/lock-contract.sol\":3952:3983  proponents[msg.sender].repScore */\n      0x01\n      add\n      0x00\n        /* \"Carbon-Credits-Verification-with-Blockchain-main/contracts/lock-contract.sol\":3952:3988  proponents[msg.sender].repScore += 1 */\n      dup3\n      dup3\n      sload\n      tag_62\n      swap2\n      swap1\n      tag_63\n      jump\t// in\n    tag_62:\n      swap3\n      pop\n      pop\n      dup2\n      swap1\n      sstore\n      pop\n        /* \"Carbon-Credits-Verification-with-Blockchain-main/contracts/lock-contract.sol\":3801:3995  {... */\n      pop\n      pop\n        /* \"Carbon-Credits-Verification-with-Blockchain-main/contracts/lock-contract.sol\":3720:3995  function testSender(address payable proponent, uint256 depAmount) public payable {... */\n      pop\n      pop\n      jump\t// out\n        /* \"Carbon-Credits-Verification-with-Blockchain-main/contracts/lock-contract.sol\":4489:4985  function depositCalculator(uint repScore) pure  public returns (uint256) {... */\n    tag_31:\n        /* \"Carbon-Credits-Verification-with-Blockchain-main/contracts/lock-contract.sol\":4553:4560  uint256 */\n      0x00\n        /* \"Carbon-Credits-Verification-with-Blockchain-main/contracts/lock-contract.sol\":4854:4855  1 */\n      0x01\n        /* \"Carbon-Credits-Verification-with-Blockchain-main/contracts/lock-contract.sol\":4843:4851  repScore */\n      dup3\n        /* \"Carbon-Credits-Verification-with-Blockchain-main/contracts/lock-contract.sol\":4843:4855  repScore >=1 */\n      lt\n      iszero\n        /* \"Carbon-Credits-Verification-with-Blockchain-main/contracts/lock-contract.sol\":4843:4872  repScore >=1 && repScore <=10 */\n      dup1\n      iszero\n      tag_65\n      jumpi\n      pop\n        /* \"Carbon-Credits-Verification-with-Blockchain-main/contracts/lock-contract.sol\":4870:4872  10 */\n      0x0a\n        /* \"Carbon-Credits-Verification-with-Blockchain-main/contracts/lock-contract.sol\":4859:4867  repScore */\n      dup3\n        /* \"Carbon-Credits-Verification-with-Blockchain-main/contracts/lock-contract.sol\":4859:4872  repScore <=10 */\n      gt\n      iszero\n        /* \"Carbon-Credits-Verification-with-Blockchain-main/contracts/lock-contract.sol\":4843:4872  repScore >=1 && repScore <=10 */\n    tag_65:\n        /* \"Carbon-Credits-Verification-with-Blockchain-main/contracts/lock-contract.sol\":4835:4905  require(repScore >=1 && repScore <=10, \"Not a valid reputation score\") */\n      tag_66\n      jumpi\n      mload(0x40)\n      0x08c379a000000000000000000000000000000000000000000000000000000000\n      dup2\n      mstore\n      0x04\n      add\n      tag_67\n      swap1\n      tag_68\n      jump\t// in\n    tag_67:\n      mload(0x40)\n      dup1\n      swap2\n      sub\n      swap1\n      revert\n    tag_66:\n        /* \"Carbon-Credits-Verification-with-Blockchain-main/contracts/lock-contract.sol\":4915:4930  uint256 deposit */\n      0x00\n        /* \"Carbon-Credits-Verification-with-Blockchain-main/contracts/lock-contract.sol\":4952:4953  8 */\n      0x08\n        /* \"Carbon-Credits-Verification-with-Blockchain-main/contracts/lock-contract.sol\":4941:4949  repScore */\n      dup4\n        /* \"Carbon-Credits-Verification-with-Blockchain-main/contracts/lock-contract.sol\":4941:4953  repScore * 8 */\n      tag_69\n      swap2\n      swap1\n      tag_70\n      jump\t// in\n    tag_69:\n        /* \"Carbon-Credits-Verification-with-Blockchain-main/contracts/lock-contract.sol\":4933:4937  2000 */\n      0x07d0\n        /* \"Carbon-Credits-Verification-with-Blockchain-main/contracts/lock-contract.sol\":4933:4954  2000 / (repScore * 8) */\n      tag_71\n      swap2\n      swap1\n      tag_72\n      jump\t// in\n    tag_71:\n        /* \"Carbon-Credits-Verification-with-Blockchain-main/contracts/lock-contract.sol\":4915:4954  uint256 deposit = 2000 / (repScore * 8) */\n      swap1\n      pop\n        /* \"Carbon-Credits-Verification-with-Blockchain-main/contracts/lock-contract.sol\":4971:4978  deposit */\n      dup1\n        /* \"Carbon-Credits-Verification-with-Blockchain-main/contracts/lock-contract.sol\":4964:4978  return deposit */\n      swap2\n      pop\n      pop\n        /* \"Carbon-Credits-Verification-with-Blockchain-main/contracts/lock-contract.sol\":4489:4985  function depositCalculator(uint repScore) pure  public returns (uint256) {... */\n      swap2\n      swap1\n      pop\n      jump\t// out\n        /* \"Carbon-Credits-Verification-with-Blockchain-main/contracts/lock-contract.sol\":4001:4250  function newProp (string memory _name)  public payable  returns (Proponents memory) {... */\n    tag_36:\n        /* \"Carbon-Credits-Verification-with-Blockchain-main/contracts/lock-contract.sol\":4066:4083  Proponents memory */\n      tag_73\n      tag_74\n      jump\t// in\n    tag_73:\n        /* \"Carbon-Credits-Verification-with-Blockchain-main/contracts/lock-contract.sol\":4095:4116  Proponents storage pr */\n      0x00\n        /* \"Carbon-Credits-Verification-with-Blockchain-main/contracts/lock-contract.sol\":4119:4129  proponents */\n      dup1\n        /* \"Carbon-Credits-Verification-with-Blockchain-main/contracts/lock-contract.sol\":4119:4141  proponents[msg.sender] */\n      0x00\n        /* \"Carbon-Credits-Verification-with-Blockchain-main/contracts/lock-contract.sol\":4130:4140  msg.sender */\n      caller\n        /* \"Carbon-Credits-Verification-with-Blockchain-main/contracts/lock-contract.sol\":4119:4141  proponents[msg.sender] */\n      0xffffffffffffffffffffffffffffffffffffffff\n      and\n      0xffffffffffffffffffffffffffffffffffffffff\n      and\n      dup2\n      mstore\n      0x20\n      add\n      swap1\n      dup2\n      mstore\n      0x20\n      add\n      0x00\n      keccak256\n        /* \"Carbon-Credits-Verification-with-Blockchain-main/contracts/lock-contract.sol\":4095:4141  Proponents storage pr = proponents[msg.sender] */\n      swap1\n      pop\n        /* \"Carbon-Credits-Verification-with-Blockchain-main/contracts/lock-contract.sol\":4161:4166  _name */\n      dup3\n        /* \"Carbon-Credits-Verification-with-Blockchain-main/contracts/lock-contract.sol\":4151:4153  pr */\n      dup2\n        /* \"Carbon-Credits-Verification-with-Blockchain-main/contracts/lock-contract.sol\":4151:4158  pr.name */\n      0x00\n      add\n        /* \"Carbon-Credits-Verification-with-Blockchain-main/contracts/lock-contract.sol\":4151:4166  pr.name = _name */\n      swap1\n      dup2\n      tag_76\n      swap2\n      swap1\n      tag_77\n      jump\t// in\n    tag_76:\n      pop\n        /* \"Carbon-Credits-Verification-with-Blockchain-main/contracts/lock-contract.sol\":4190:4192  10 */\n      0x0a\n        /* \"Carbon-Credits-Verification-with-Blockchain-main/contracts/lock-contract.sol\":4176:4178  pr */\n      dup2\n        /* \"Carbon-Credits-Verification-with-Blockchain-main/contracts/lock-contract.sol\":4176:4187  pr.repScore */\n      0x01\n      add\n        /* \"Carbon-Credits-Verification-with-Blockchain-main/contracts/lock-contract.sol\":4176:4192  pr.repScore = 10 */\n      dup2\n      swap1\n      sstore\n      pop\n        /* \"Carbon-Credits-Verification-with-Blockchain-main/contracts/lock-contract.sol\":4215:4224  msg.value */\n      callvalue\n        /* \"Carbon-Credits-Verification-with-Blockchain-main/contracts/lock-contract.sol\":4202:4204  pr */\n      dup2\n        /* \"Carbon-Credits-Verification-with-Blockchain-main/contracts/lock-contract.sol\":4202:4212  pr.balance */\n      0x02\n      add\n        /* \"Carbon-Credits-Verification-with-Blockchain-main/contracts/lock-contract.sol\":4202:4224  pr.balance = msg.value */\n      dup2\n      swap1\n      sstore\n      pop\n        /* \"Carbon-Credits-Verification-with-Blockchain-main/contracts/lock-contract.sol\":4241:4243  pr */\n      dup1\n        /* \"Carbon-Credits-Verification-with-Blockchain-main/contracts/lock-contract.sol\":4234:4243  return pr */\n      mload(0x40)\n      dup1\n      0x60\n      add\n      0x40\n      mstore\n      swap1\n      dup2\n      0x00\n      dup3\n      add\n      dup1\n      sload\n      tag_78\n      swap1\n      tag_79\n      jump\t// in\n    tag_78:\n      dup1\n      0x1f\n      add\n      0x20\n      dup1\n      swap2\n      div\n      mul\n      0x20\n      add\n      mload(0x40)\n      swap1\n      dup2\n      add\n      0x40\n      mstore\n      dup1\n      swap3\n      swap2\n      swap1\n      dup2\n      dup2\n      mstore\n      0x20\n      add\n      dup3\n      dup1\n      sload\n      tag_80\n      swap1\n      tag_79\n      jump\t// in\n    tag_80:\n      dup1\n      iszero\n      tag_81\n      jumpi\n      dup1\n      0x1f\n      lt\n      tag_82\n      jumpi\n      0x0100\n      dup1\n      dup4\n      sload\n      div\n      mul\n      dup4\n      mstore\n      swap2\n      0x20\n      add\n      swap2\n      jump(tag_81)\n    tag_82:\n      dup3\n      add\n      swap2\n      swap1\n      0x00\n      mstore\n      keccak256(0x00, 0x20)\n      swap1\n    tag_83:\n      dup2\n      sload\n      dup2\n      mstore\n      swap1\n      0x01\n      add\n      swap1\n      0x20\n      add\n      dup1\n      dup4\n      gt\n      tag_83\n      jumpi\n      dup3\n      swap1\n      sub\n      0x1f\n      and\n      dup3\n      add\n      swap2\n    tag_81:\n      pop\n      pop\n      pop\n      pop\n      pop\n      dup2\n      mstore\n      0x20\n      add\n      0x01\n      dup3\n      add\n      sload\n      dup2\n      mstore\n      0x20\n      add\n      0x02\n      dup3\n      add\n      sload\n      dup2\n      mstore\n      pop\n      pop\n      swap2\n      pop\n      pop\n        /* \"Carbon-Credits-Verification-with-Blockchain-main/contracts/lock-contract.sol\":4001:4250  function newProp (string memory _name)  public payable  returns (Proponents memory) {... */\n      swap2\n      swap1\n      pop\n      jump\t// out\n        /* \"Carbon-Credits-Verification-with-Blockchain-main/contracts/lock-contract.sol\":4256:4372  function getProponent(address addr) public view returns (Proponents memory) {... */\n    tag_42:\n        /* \"Carbon-Credits-Verification-with-Blockchain-main/contracts/lock-contract.sol\":4313:4330  Proponents memory */\n      tag_84\n      tag_74\n      jump\t// in\n    tag_84:\n        /* \"Carbon-Credits-Verification-with-Blockchain-main/contracts/lock-contract.sol\":4349:4359  proponents */\n      0x00\n        /* \"Carbon-Credits-Verification-with-Blockchain-main/contracts/lock-contract.sol\":4349:4365  proponents[addr] */\n      dup1\n        /* \"Carbon-Credits-Verification-with-Blockchain-main/contracts/lock-contract.sol\":4360:4364  addr */\n      dup4\n        /* \"Carbon-Credits-Verification-with-Blockchain-main/contracts/lock-contract.sol\":4349:4365  proponents[addr] */\n      0xffffffffffffffffffffffffffffffffffffffff\n      and\n      0xffffffffffffffffffffffffffffffffffffffff\n      and\n      dup2\n      mstore\n      0x20\n      add\n      swap1\n      dup2\n      mstore\n      0x20\n      add\n      0x00\n      keccak256\n        /* \"Carbon-Credits-Verification-with-Blockchain-main/contracts/lock-contract.sol\":4342:4365  return proponents[addr] */\n      mload(0x40)\n      dup1\n      0x60\n      add\n      0x40\n      mstore\n      swap1\n      dup2\n      0x00\n      dup3\n      add\n      dup1\n      sload\n      tag_86\n      swap1\n      tag_79\n      jump\t// in\n    tag_86:\n      dup1\n      0x1f\n      add\n      0x20\n      dup1\n      swap2\n      div\n      mul\n      0x20\n      add\n      mload(0x40)\n      swap1\n      dup2\n      add\n      0x40\n      mstore\n      dup1\n      swap3\n      swap2\n      swap1\n      dup2\n      dup2\n      mstore\n      0x20\n      add\n      dup3\n      dup1\n      sload\n      tag_87\n      swap1\n      tag_79\n      jump\t// in\n    tag_87:\n      dup1\n      iszero\n      tag_88\n      jumpi\n      dup1\n      0x1f\n      lt\n      tag_89\n      jumpi\n      0x0100\n      dup1\n      dup4\n      sload\n      div\n      mul\n      dup4\n      mstore\n      swap2\n      0x20\n      add\n      swap2\n      jump(tag_88)\n    tag_89:\n      dup3\n      add\n      swap2\n      swap1\n      0x00\n      mstore\n      keccak256(0x00, 0x20)\n      swap1\n    tag_90:\n      dup2\n      sload\n      dup2\n      mstore\n      swap1\n      0x01\n      add\n      swap1\n      0x20\n      add\n      dup1\n      dup4\n      gt\n      tag_90\n      jumpi\n      dup3\n      swap1\n      sub\n      0x1f\n      and\n      dup3\n      add\n      swap2\n    tag_88:\n      pop\n      pop\n      pop\n      pop\n      pop\n      dup2\n      mstore\n      0x20\n      add\n      0x01\n      dup3\n      add\n      sload\n      dup2\n      mstore\n      0x20\n      add\n      0x02\n      dup3\n      add\n      sload\n      dup2\n      mstore\n      pop\n      pop\n      swap1\n      pop\n        /* \"Carbon-Credits-Verification-with-Blockchain-main/contracts/lock-contract.sol\":4256:4372  function getProponent(address addr) public view returns (Proponents memory) {... */\n      swap2\n      swap1\n      pop\n      jump\t// out\n        /* \"Carbon-Credits-Verification-with-Blockchain-main/contracts/lock-contract.sol\":3664:3713  mapping (address => Proponents) public proponents */\n    tag_47:\n      mstore(0x20, 0x00)\n      dup1\n      0x00\n      mstore\n      keccak256(0x00, 0x40)\n      0x00\n      swap2\n      pop\n      swap1\n      pop\n      dup1\n      0x00\n      add\n      dup1\n      sload\n      tag_91\n      swap1\n      tag_79\n      jump\t// in\n    tag_91:\n      dup1\n      0x1f\n      add\n      0x20\n      dup1\n      swap2\n      div\n      mul\n      0x20\n      add\n      mload(0x40)\n      swap1\n      dup2\n      add\n      0x40\n      mstore\n      dup1\n      swap3\n      swap2\n      swap1\n      dup2\n      dup2\n      mstore\n      0x20\n      add\n      dup3\n      dup1\n      sload\n      tag_92\n      swap1\n      tag_79\n      jump\t// in\n    tag_92:\n      dup1\n      iszero\n      tag_93\n      jumpi\n      dup1\n      0x1f\n      lt\n      tag_94\n      jumpi\n      0x0100\n      dup1\n      dup4\n      sload\n      div\n      mul\n      dup4\n      mstore\n      swap2\n      0x20\n      add\n      swap2\n      jump(tag_93)\n    tag_94:\n      dup3\n      add\n      swap2\n      swap1\n      0x00\n      mstore\n      keccak256(0x00, 0x20)\n      swap1\n    tag_95:\n      dup2\n      sload\n      dup2\n      mstore\n      swap1\n      0x01\n      add\n      swap1\n      0x20\n      add\n      dup1\n      dup4\n      gt\n      tag_95\n      jumpi\n      dup3\n      swap1\n      sub\n      0x1f\n      and\n      dup3\n      add\n      swap2\n    tag_93:\n      pop\n      pop\n      pop\n      pop\n      pop\n      swap1\n      dup1\n      0x01\n      add\n      sload\n      swap1\n      dup1\n      0x02\n      add\n      sload\n      swap1\n      pop\n      dup4\n      jump\t// out\n    tag_74:\n      mload(0x40)\n      dup1\n      0x60\n      add\n      0x40\n      mstore\n      dup1\n      0x60\n      dup2\n      mstore\n      0x20\n      add\n      0x00\n      dup2\n      mstore\n      0x20\n      add\n      0x00\n      dup2\n      mstore\n      pop\n      swap1\n      jump\t// out\n        /* \"#utility.yul\":7:82   */\n    tag_96:\n        /* \"#utility.yul\":40:46   */\n      0x00\n        /* \"#utility.yul\":73:75   */\n      0x40\n        /* \"#utility.yul\":67:76   */\n      mload\n        /* \"#utility.yul\":57:76   */\n      swap1\n      pop\n        /* \"#utility.yul\":7:82   */\n      swap1\n      jump\t// out\n        /* \"#utility.yul\":88:205   */\n    tag_97:\n        /* \"#utility.yul\":197:198   */\n      0x00\n        /* \"#utility.yul\":194:195   */\n      dup1\n        /* \"#utility.yul\":187:199   */\n      revert\n        /* \"#utility.yul\":211:328   */\n    tag_98:\n        /* \"#utility.yul\":320:321   */\n      0x00\n        /* \"#utility.yul\":317:318   */\n      dup1\n        /* \"#utility.yul\":310:322   */\n      revert\n        /* \"#utility.yul\":334:411   */\n    tag_99:\n        /* \"#utility.yul\":371:378   */\n      0x00\n        /* \"#utility.yul\":400:405   */\n      dup2\n        /* \"#utility.yul\":389:405   */\n      swap1\n      pop\n        /* \"#utility.yul\":334:411   */\n      swap2\n      swap1\n      pop\n      jump\t// out\n        /* \"#utility.yul\":417:539   */\n    tag_100:\n        /* \"#utility.yul\":490:514   */\n      tag_161\n        /* \"#utility.yul\":508:513   */\n      dup2\n        /* \"#utility.yul\":490:514   */\n      tag_99\n      jump\t// in\n    tag_161:\n        /* \"#utility.yul\":483:488   */\n      dup2\n        /* \"#utility.yul\":480:515   */\n      eq\n        /* \"#utility.yul\":470:533   */\n      tag_162\n      jumpi\n        /* \"#utility.yul\":529:530   */\n      0x00\n        /* \"#utility.yul\":526:527   */\n      dup1\n        /* \"#utility.yul\":519:531   */\n      revert\n        /* \"#utility.yul\":470:533   */\n    tag_162:\n        /* \"#utility.yul\":417:539   */\n      pop\n      jump\t// out\n        /* \"#utility.yul\":545:684   */\n    tag_101:\n        /* \"#utility.yul\":591:596   */\n      0x00\n        /* \"#utility.yul\":629:635   */\n      dup2\n        /* \"#utility.yul\":616:636   */\n      calldataload\n        /* \"#utility.yul\":607:636   */\n      swap1\n      pop\n        /* \"#utility.yul\":645:678   */\n      tag_164\n        /* \"#utility.yul\":672:677   */\n      dup2\n        /* \"#utility.yul\":645:678   */\n      tag_100\n      jump\t// in\n    tag_164:\n        /* \"#utility.yul\":545:684   */\n      swap3\n      swap2\n      pop\n      pop\n      jump\t// out\n        /* \"#utility.yul\":690:1019   */\n    tag_13:\n        /* \"#utility.yul\":749:755   */\n      0x00\n        /* \"#utility.yul\":798:800   */\n      0x20\n        /* \"#utility.yul\":786:795   */\n      dup3\n        /* \"#utility.yul\":777:784   */\n      dup5\n        /* \"#utility.yul\":773:796   */\n      sub\n        /* \"#utility.yul\":769:801   */\n      slt\n        /* \"#utility.yul\":766:885   */\n      iszero\n      tag_166\n      jumpi\n        /* \"#utility.yul\":804:883   */\n      tag_167\n      tag_97\n      jump\t// in\n    tag_167:\n        /* \"#utility.yul\":766:885   */\n    tag_166:\n        /* \"#utility.yul\":924:925   */\n      0x00\n        /* \"#utility.yul\":949:1002   */\n      tag_168\n        /* \"#utility.yul\":994:1001   */\n      dup5\n        /* \"#utility.yul\":985:991   */\n      dup3\n        /* \"#utility.yul\":974:983   */\n      dup6\n        /* \"#utility.yul\":970:992   */\n      add\n        /* \"#utility.yul\":949:1002   */\n      tag_101\n      jump\t// in\n    tag_168:\n        /* \"#utility.yul\":939:1002   */\n      swap2\n      pop\n        /* \"#utility.yul\":895:1012   */\n      pop\n        /* \"#utility.yul\":690:1019   */\n      swap3\n      swap2\n      pop\n      pop\n      jump\t// out\n        /* \"#utility.yul\":1025:1115   */\n    tag_102:\n        /* \"#utility.yul\":1059:1066   */\n      0x00\n        /* \"#utility.yul\":1102:1107   */\n      dup2\n        /* \"#utility.yul\":1095:1108   */\n      iszero\n        /* \"#utility.yul\":1088:1109   */\n      iszero\n        /* \"#utility.yul\":1077:1109   */\n      swap1\n      pop\n        /* \"#utility.yul\":1025:1115   */\n      swap2\n      swap1\n      pop\n      jump\t// out\n        /* \"#utility.yul\":1121:1230   */\n    tag_103:\n        /* \"#utility.yul\":1202:1223   */\n      tag_171\n        /* \"#utility.yul\":1217:1222   */\n      dup2\n        /* \"#utility.yul\":1202:1223   */\n      tag_102\n      jump\t// in\n    tag_171:\n        /* \"#utility.yul\":1197:1200   */\n      dup3\n        /* \"#utility.yul\":1190:1224   */\n      mstore\n        /* \"#utility.yul\":1121:1230   */\n      pop\n      pop\n      jump\t// out\n        /* \"#utility.yul\":1236:1446   */\n    tag_16:\n        /* \"#utility.yul\":1323:1327   */\n      0x00\n        /* \"#utility.yul\":1361:1363   */\n      0x20\n        /* \"#utility.yul\":1350:1359   */\n      dup3\n        /* \"#utility.yul\":1346:1364   */\n      add\n        /* \"#utility.yul\":1338:1364   */\n      swap1\n      pop\n        /* \"#utility.yul\":1374:1439   */\n      tag_173\n        /* \"#utility.yul\":1436:1437   */\n      0x00\n        /* \"#utility.yul\":1425:1434   */\n      dup4\n        /* \"#utility.yul\":1421:1438   */\n      add\n        /* \"#utility.yul\":1412:1418   */\n      dup5\n        /* \"#utility.yul\":1374:1439   */\n      tag_103\n      jump\t// in\n    tag_173:\n        /* \"#utility.yul\":1236:1446   */\n      swap3\n      swap2\n      pop\n      pop\n      jump\t// out\n        /* \"#utility.yul\":1452:1578   */\n    tag_104:\n        /* \"#utility.yul\":1489:1496   */\n      0x00\n        /* \"#utility.yul\":1529:1571   */\n      0xffffffffffffffffffffffffffffffffffffffff\n        /* \"#utility.yul\":1522:1527   */\n      dup3\n        /* \"#utility.yul\":1518:1572   */\n      and\n        /* \"#utility.yul\":1507:1572   */\n      swap1\n      pop\n        /* \"#utility.yul\":1452:1578   */\n      swap2\n      swap1\n      pop\n      jump\t// out\n        /* \"#utility.yul\":1584:1680   */\n    tag_105:\n        /* \"#utility.yul\":1621:1628   */\n      0x00\n        /* \"#utility.yul\":1650:1674   */\n      tag_176\n        /* \"#utility.yul\":1668:1673   */\n      dup3\n        /* \"#utility.yul\":1650:1674   */\n      tag_104\n      jump\t// in\n    tag_176:\n        /* \"#utility.yul\":1639:1674   */\n      swap1\n      pop\n        /* \"#utility.yul\":1584:1680   */\n      swap2\n      swap1\n      pop\n      jump\t// out\n        /* \"#utility.yul\":1686:1808   */\n    tag_106:\n        /* \"#utility.yul\":1759:1783   */\n      tag_178\n        /* \"#utility.yul\":1777:1782   */\n      dup2\n        /* \"#utility.yul\":1759:1783   */\n      tag_105\n      jump\t// in\n    tag_178:\n        /* \"#utility.yul\":1752:1757   */\n      dup2\n        /* \"#utility.yul\":1749:1784   */\n      eq\n        /* \"#utility.yul\":1739:1802   */\n      tag_179\n      jumpi\n        /* \"#utility.yul\":1798:1799   */\n      0x00\n        /* \"#utility.yul\":1795:1796   */\n      dup1\n        /* \"#utility.yul\":1788:1800   */\n      revert\n        /* \"#utility.yul\":1739:1802   */\n    tag_179:\n        /* \"#utility.yul\":1686:1808   */\n      pop\n      jump\t// out\n        /* \"#utility.yul\":1814:1953   */\n    tag_107:\n        /* \"#utility.yul\":1860:1865   */\n      0x00\n        /* \"#utility.yul\":1898:1904   */\n      dup2\n        /* \"#utility.yul\":1885:1905   */\n      calldataload\n        /* \"#utility.yul\":1876:1905   */\n      swap1\n      pop\n        /* \"#utility.yul\":1914:1947   */\n      tag_181\n        /* \"#utility.yul\":1941:1946   */\n      dup2\n        /* \"#utility.yul\":1914:1947   */\n      tag_106\n      jump\t// in\n    tag_181:\n        /* \"#utility.yul\":1814:1953   */\n      swap3\n      swap2\n      pop\n      pop\n      jump\t// out\n        /* \"#utility.yul\":1959:2288   */\n    tag_20:\n        /* \"#utility.yul\":2018:2024   */\n      0x00\n        /* \"#utility.yul\":2067:2069   */\n      0x20\n        /* \"#utility.yul\":2055:2064   */\n      dup3\n        /* \"#utility.yul\":2046:2053   */\n      dup5\n        /* \"#utility.yul\":2042:2065   */\n      sub\n        /* \"#utility.yul\":2038:2070   */\n      slt\n        /* \"#utility.yul\":2035:2154   */\n      iszero\n      tag_183\n      jumpi\n        /* \"#utility.yul\":2073:2152   */\n      tag_184\n      tag_97\n      jump\t// in\n    tag_184:\n        /* \"#utility.yul\":2035:2154   */\n    tag_183:\n        /* \"#utility.yul\":2193:2194   */\n      0x00\n        /* \"#utility.yul\":2218:2271   */\n      tag_185\n        /* \"#utility.yul\":2263:2270   */\n      dup5\n        /* \"#utility.yul\":2254:2260   */\n      dup3\n        /* \"#utility.yul\":2243:2252   */\n      dup6\n        /* \"#utility.yul\":2239:2261   */\n      add\n        /* \"#utility.yul\":2218:2271   */\n      tag_107\n      jump\t// in\n    tag_185:\n        /* \"#utility.yul\":2208:2271   */\n      swap2\n      pop\n        /* \"#utility.yul\":2164:2281   */\n      pop\n        /* \"#utility.yul\":1959:2288   */\n      swap3\n      swap2\n      pop\n      pop\n      jump\t// out\n        /* \"#utility.yul\":2294:2412   */\n    tag_108:\n        /* \"#utility.yul\":2381:2405   */\n      tag_187\n        /* \"#utility.yul\":2399:2404   */\n      dup2\n        /* \"#utility.yul\":2381:2405   */\n      tag_99\n      jump\t// in\n    tag_187:\n        /* \"#utility.yul\":2376:2379   */\n      dup3\n        /* \"#utility.yul\":2369:2406   */\n      mstore\n        /* \"#utility.yul\":2294:2412   */\n      pop\n      pop\n      jump\t// out\n        /* \"#utility.yul\":2418:2640   */\n    tag_23:\n        /* \"#utility.yul\":2511:2515   */\n      0x00\n        /* \"#utility.yul\":2549:2551   */\n      0x20\n        /* \"#utility.yul\":2538:2547   */\n      dup3\n        /* \"#utility.yul\":2534:2552   */\n      add\n        /* \"#utility.yul\":2526:2552   */\n      swap1\n      pop\n        /* \"#utility.yul\":2562:2633   */\n      tag_189\n        /* \"#utility.yul\":2630:2631   */\n      0x00\n        /* \"#utility.yul\":2619:2628   */\n      dup4\n        /* \"#utility.yul\":2615:2632   */\n      add\n        /* \"#utility.yul\":2606:2612   */\n      dup5\n        /* \"#utility.yul\":2562:2633   */\n      tag_108\n      jump\t// in\n    tag_189:\n        /* \"#utility.yul\":2418:2640   */\n      swap3\n      swap2\n      pop\n      pop\n      jump\t// out\n        /* \"#utility.yul\":2646:2750   */\n    tag_109:\n        /* \"#utility.yul\":2691:2698   */\n      0x00\n        /* \"#utility.yul\":2720:2744   */\n      tag_191\n        /* \"#utility.yul\":2738:2743   */\n      dup3\n        /* \"#utility.yul\":2720:2744   */\n      tag_104\n      jump\t// in\n    tag_191:\n        /* \"#utility.yul\":2709:2744   */\n      swap1\n      pop\n        /* \"#utility.yul\":2646:2750   */\n      swap2\n      swap1\n      pop\n      jump\t// out\n        /* \"#utility.yul\":2756:2894   */\n    tag_110:\n        /* \"#utility.yul\":2837:2869   */\n      tag_193\n        /* \"#utility.yul\":2863:2868   */\n      dup2\n        /* \"#utility.yul\":2837:2869   */\n      tag_109\n      jump\t// in\n    tag_193:\n        /* \"#utility.yul\":2830:2835   */\n      dup2\n        /* \"#utility.yul\":2827:2870   */\n      eq\n        /* \"#utility.yul\":2817:2888   */\n      tag_194\n      jumpi\n        /* \"#utility.yul\":2884:2885   */\n      0x00\n        /* \"#utility.yul\":2881:2882   */\n      dup1\n        /* \"#utility.yul\":2874:2886   */\n      revert\n        /* \"#utility.yul\":2817:2888   */\n    tag_194:\n        /* \"#utility.yul\":2756:2894   */\n      pop\n      jump\t// out\n        /* \"#utility.yul\":2900:3055   */\n    tag_111:\n        /* \"#utility.yul\":2954:2959   */\n      0x00\n        /* \"#utility.yul\":2992:2998   */\n      dup2\n        /* \"#utility.yul\":2979:2999   */\n      calldataload\n        /* \"#utility.yul\":2970:2999   */\n      swap1\n      pop\n        /* \"#utility.yul\":3008:3049   */\n      tag_196\n        /* \"#utility.yul\":3043:3048   */\n      dup2\n        /* \"#utility.yul\":3008:3049   */\n      tag_110\n      jump\t// in\n    tag_196:\n        /* \"#utility.yul\":2900:3055   */\n      swap3\n      swap2\n      pop\n      pop\n      jump\t// out\n        /* \"#utility.yul\":3061:3551   */\n    tag_26:\n        /* \"#utility.yul\":3137:3143   */\n      0x00\n        /* \"#utility.yul\":3145:3151   */\n      dup1\n        /* \"#utility.yul\":3194:3196   */\n      0x40\n        /* \"#utility.yul\":3182:3191   */\n      dup4\n        /* \"#utility.yul\":3173:3180   */\n      dup6\n        /* \"#utility.yul\":3169:3192   */\n      sub\n        /* \"#utility.yul\":3165:3197   */\n      slt\n        /* \"#utility.yul\":3162:3281   */\n      iszero\n      tag_198\n      jumpi\n        /* \"#utility.yul\":3200:3279   */\n      tag_199\n      tag_97\n      jump\t// in\n    tag_199:\n        /* \"#utility.yul\":3162:3281   */\n    tag_198:\n        /* \"#utility.yul\":3320:3321   */\n      0x00\n        /* \"#utility.yul\":3345:3406   */\n      tag_200\n        /* \"#utility.yul\":3398:3405   */\n      dup6\n        /* \"#utility.yul\":3389:3395   */\n      dup3\n        /* \"#utility.yul\":3378:3387   */\n      dup7\n        /* \"#utility.yul\":3374:3396   */\n      add\n        /* \"#utility.yul\":3345:3406   */\n      tag_111\n      jump\t// in\n    tag_200:\n        /* \"#utility.yul\":3335:3406   */\n      swap3\n      pop\n        /* \"#utility.yul\":3291:3416   */\n      pop\n        /* \"#utility.yul\":3455:3457   */\n      0x20\n        /* \"#utility.yul\":3481:3534   */\n      tag_201\n        /* \"#utility.yul\":3526:3533   */\n      dup6\n        /* \"#utility.yul\":3517:3523   */\n      dup3\n        /* \"#utility.yul\":3506:3515   */\n      dup7\n        /* \"#utility.yul\":3502:3524   */\n      add\n        /* \"#utility.yul\":3481:3534   */\n      tag_101\n      jump\t// in\n    tag_201:\n        /* \"#utility.yul\":3471:3534   */\n      swap2\n      pop\n        /* \"#utility.yul\":3426:3544   */\n      pop\n        /* \"#utility.yul\":3061:3551   */\n      swap3\n      pop\n      swap3\n      swap1\n      pop\n      jump\t// out\n        /* \"#utility.yul\":3557:3674   */\n    tag_112:\n        /* \"#utility.yul\":3666:3667   */\n      0x00\n        /* \"#utility.yul\":3663:3664   */\n      dup1\n        /* \"#utility.yul\":3656:3668   */\n      revert\n        /* \"#utility.yul\":3680:3797   */\n    tag_113:\n        /* \"#utility.yul\":3789:3790   */\n      0x00\n        /* \"#utility.yul\":3786:3787   */\n      dup1\n        /* \"#utility.yul\":3779:3791   */\n      revert\n        /* \"#utility.yul\":3803:3905   */\n    tag_114:\n        /* \"#utility.yul\":3844:3850   */\n      0x00\n        /* \"#utility.yul\":3895:3897   */\n      0x1f\n        /* \"#utility.yul\":3891:3898   */\n      not\n        /* \"#utility.yul\":3886:3888   */\n      0x1f\n        /* \"#utility.yul\":3879:3884   */\n      dup4\n        /* \"#utility.yul\":3875:3889   */\n      add\n        /* \"#utility.yul\":3871:3899   */\n      and\n        /* \"#utility.yul\":3861:3899   */\n      swap1\n      pop\n        /* \"#utility.yul\":3803:3905   */\n      swap2\n      swap1\n      pop\n      jump\t// out\n        /* \"#utility.yul\":3911:4091   */\n    tag_115:\n        /* \"#utility.yul\":3959:4036   */\n      0x4e487b7100000000000000000000000000000000000000000000000000000000\n        /* \"#utility.yul\":3956:3957   */\n      0x00\n        /* \"#utility.yul\":3949:4037   */\n      mstore\n        /* \"#utility.yul\":4056:4060   */\n      0x41\n        /* \"#utility.yul\":4053:4054   */\n      0x04\n        /* \"#utility.yul\":4046:4061   */\n      mstore\n        /* \"#utility.yul\":4080:4084   */\n      0x24\n        /* \"#utility.yul\":4077:4078   */\n      0x00\n        /* \"#utility.yul\":4070:4085   */\n      revert\n        /* \"#utility.yul\":4097:4378   */\n    tag_116:\n        /* \"#utility.yul\":4180:4207   */\n      tag_207\n        /* \"#utility.yul\":4202:4206   */\n      dup3\n        /* \"#utility.yul\":4180:4207   */\n      tag_114\n      jump\t// in\n    tag_207:\n        /* \"#utility.yul\":4172:4178   */\n      dup2\n        /* \"#utility.yul\":4168:4208   */\n      add\n        /* \"#utility.yul\":4310:4316   */\n      dup2\n        /* \"#utility.yul\":4298:4308   */\n      dup2\n        /* \"#utility.yul\":4295:4317   */\n      lt\n        /* \"#utility.yul\":4274:4292   */\n      0xffffffffffffffff\n        /* \"#utility.yul\":4262:4272   */\n      dup3\n        /* \"#utility.yul\":4259:4293   */\n      gt\n        /* \"#utility.yul\":4256:4318   */\n      or\n        /* \"#utility.yul\":4253:4341   */\n      iszero\n      tag_208\n      jumpi\n        /* \"#utility.yul\":4321:4339   */\n      tag_209\n      tag_115\n      jump\t// in\n    tag_209:\n        /* \"#utility.yul\":4253:4341   */\n    tag_208:\n        /* \"#utility.yul\":4361:4371   */\n      dup1\n        /* \"#utility.yul\":4357:4359   */\n      0x40\n        /* \"#utility.yul\":4350:4372   */\n      mstore\n        /* \"#utility.yul\":4140:4378   */\n      pop\n        /* \"#utility.yul\":4097:4378   */\n      pop\n      pop\n      jump\t// out\n        /* \"#utility.yul\":4384:4513   */\n    tag_117:\n        /* \"#utility.yul\":4418:4424   */\n      0x00\n        /* \"#utility.yul\":4445:4465   */\n      tag_211\n      tag_96\n      jump\t// in\n    tag_211:\n        /* \"#utility.yul\":4435:4465   */\n      swap1\n      pop\n        /* \"#utility.yul\":4474:4507   */\n      tag_212\n        /* \"#utility.yul\":4502:4506   */\n      dup3\n        /* \"#utility.yul\":4494:4500   */\n      dup3\n        /* \"#utility.yul\":4474:4507   */\n      tag_116\n      jump\t// in\n    tag_212:\n        /* \"#utility.yul\":4384:4513   */\n      swap2\n      swap1\n      pop\n      jump\t// out\n        /* \"#utility.yul\":4519:4827   */\n    tag_118:\n        /* \"#utility.yul\":4581:4585   */\n      0x00\n        /* \"#utility.yul\":4671:4689   */\n      0xffffffffffffffff\n        /* \"#utility.yul\":4663:4669   */\n      dup3\n        /* \"#utility.yul\":4660:4690   */\n      gt\n        /* \"#utility.yul\":4657:4713   */\n      iszero\n      tag_214\n      jumpi\n        /* \"#utility.yul\":4693:4711   */\n      tag_215\n      tag_115\n      jump\t// in\n    tag_215:\n        /* \"#utility.yul\":4657:4713   */\n    tag_214:\n        /* \"#utility.yul\":4731:4760   */\n      tag_216\n        /* \"#utility.yul\":4753:4759   */\n      dup3\n        /* \"#utility.yul\":4731:4760   */\n      tag_114\n      jump\t// in\n    tag_216:\n        /* \"#utility.yul\":4723:4760   */\n      swap1\n      pop\n        /* \"#utility.yul\":4815:4819   */\n      0x20\n        /* \"#utility.yul\":4809:4813   */\n      dup2\n        /* \"#utility.yul\":4805:4820   */\n      add\n        /* \"#utility.yul\":4797:4820   */\n      swap1\n      pop\n        /* \"#utility.yul\":4519:4827   */\n      swap2\n      swap1\n      pop\n      jump\t// out\n        /* \"#utility.yul\":4833:4981   */\n    tag_119:\n        /* \"#utility.yul\":4931:4937   */\n      dup3\n        /* \"#utility.yul\":4926:4929   */\n      dup2\n        /* \"#utility.yul\":4921:4924   */\n      dup4\n        /* \"#utility.yul\":4908:4938   */\n      calldatacopy\n        /* \"#utility.yul\":4972:4973   */\n      0x00\n        /* \"#utility.yul\":4963:4969   */\n      dup4\n        /* \"#utility.yul\":4958:4961   */\n      dup4\n        /* \"#utility.yul\":4954:4970   */\n      add\n        /* \"#utility.yul\":4947:4974   */\n      mstore\n        /* \"#utility.yul\":4833:4981   */\n      pop\n      pop\n      pop\n      jump\t// out\n        /* \"#utility.yul\":4987:5412   */\n    tag_120:\n        /* \"#utility.yul\":5065:5070   */\n      0x00\n        /* \"#utility.yul\":5090:5156   */\n      tag_219\n        /* \"#utility.yul\":5106:5155   */\n      tag_220\n        /* \"#utility.yul\":5148:5154   */\n      dup5\n        /* \"#utility.yul\":5106:5155   */\n      tag_118\n      jump\t// in\n    tag_220:\n        /* \"#utility.yul\":5090:5156   */\n      tag_117\n      jump\t// in\n    tag_219:\n        /* \"#utility.yul\":5081:5156   */\n      swap1\n      pop\n        /* \"#utility.yul\":5179:5185   */\n      dup3\n        /* \"#utility.yul\":5172:5177   */\n      dup2\n        /* \"#utility.yul\":5165:5186   */\n      mstore\n        /* \"#utility.yul\":5217:5221   */\n      0x20\n        /* \"#utility.yul\":5210:5215   */\n      dup2\n        /* \"#utility.yul\":5206:5222   */\n      add\n        /* \"#utility.yul\":5255:5258   */\n      dup5\n        /* \"#utility.yul\":5246:5252   */\n      dup5\n        /* \"#utility.yul\":5241:5244   */\n      dup5\n        /* \"#utility.yul\":5237:5253   */\n      add\n        /* \"#utility.yul\":5234:5259   */\n      gt\n        /* \"#utility.yul\":5231:5343   */\n      iszero\n      tag_221\n      jumpi\n        /* \"#utility.yul\":5262:5341   */\n      tag_222\n      tag_113\n      jump\t// in\n    tag_222:\n        /* \"#utility.yul\":5231:5343   */\n    tag_221:\n        /* \"#utility.yul\":5352:5406   */\n      tag_223\n        /* \"#utility.yul\":5399:5405   */\n      dup5\n        /* \"#utility.yul\":5394:5397   */\n      dup3\n        /* \"#utility.yul\":5389:5392   */\n      dup6\n        /* \"#utility.yul\":5352:5406   */\n      tag_119\n      jump\t// in\n    tag_223:\n        /* \"#utility.yul\":5071:5412   */\n      pop\n        /* \"#utility.yul\":4987:5412   */\n      swap4\n      swap3\n      pop\n      pop\n      pop\n      jump\t// out\n        /* \"#utility.yul\":5432:5772   */\n    tag_121:\n        /* \"#utility.yul\":5488:5493   */\n      0x00\n        /* \"#utility.yul\":5537:5540   */\n      dup3\n        /* \"#utility.yul\":5530:5534   */\n      0x1f\n        /* \"#utility.yul\":5522:5528   */\n      dup4\n        /* \"#utility.yul\":5518:5535   */\n      add\n        /* \"#utility.yul\":5514:5541   */\n      slt\n        /* \"#utility.yul\":5504:5626   */\n      tag_225\n      jumpi\n        /* \"#utility.yul\":5545:5624   */\n      tag_226\n      tag_112\n      jump\t// in\n    tag_226:\n        /* \"#utility.yul\":5504:5626   */\n    tag_225:\n        /* \"#utility.yul\":5662:5668   */\n      dup2\n        /* \"#utility.yul\":5649:5669   */\n      calldataload\n        /* \"#utility.yul\":5687:5766   */\n      tag_227\n        /* \"#utility.yul\":5762:5765   */\n      dup5\n        /* \"#utility.yul\":5754:5760   */\n      dup3\n        /* \"#utility.yul\":5747:5751   */\n      0x20\n        /* \"#utility.yul\":5739:5745   */\n      dup7\n        /* \"#utility.yul\":5735:5752   */\n      add\n        /* \"#utility.yul\":5687:5766   */\n      tag_120\n      jump\t// in\n    tag_227:\n        /* \"#utility.yul\":5678:5766   */\n      swap2\n      pop\n        /* \"#utility.yul\":5494:5772   */\n      pop\n        /* \"#utility.yul\":5432:5772   */\n      swap3\n      swap2\n      pop\n      pop\n      jump\t// out\n        /* \"#utility.yul\":5778:6287   */\n    tag_35:\n        /* \"#utility.yul\":5847:5853   */\n      0x00\n        /* \"#utility.yul\":5896:5898   */\n      0x20\n        /* \"#utility.yul\":5884:5893   */\n      dup3\n        /* \"#utility.yul\":5875:5882   */\n      dup5\n        /* \"#utility.yul\":5871:5894   */\n      sub\n        /* \"#utility.yul\":5867:5899   */\n      slt\n        /* \"#utility.yul\":5864:5983   */\n      iszero\n      tag_229\n      jumpi\n        /* \"#utility.yul\":5902:5981   */\n      tag_230\n      tag_97\n      jump\t// in\n    tag_230:\n        /* \"#utility.yul\":5864:5983   */\n    tag_229:\n        /* \"#utility.yul\":6050:6051   */\n      0x00\n        /* \"#utility.yul\":6039:6048   */\n      dup3\n        /* \"#utility.yul\":6035:6052   */\n      add\n        /* \"#utility.yul\":6022:6053   */\n      calldataload\n        /* \"#utility.yul\":6080:6098   */\n      0xffffffffffffffff\n        /* \"#utility.yul\":6072:6078   */\n      dup2\n        /* \"#utility.yul\":6069:6099   */\n      gt\n        /* \"#utility.yul\":6066:6183   */\n      iszero\n      tag_231\n      jumpi\n        /* \"#utility.yul\":6102:6181   */\n      tag_232\n      tag_98\n      jump\t// in\n    tag_232:\n        /* \"#utility.yul\":6066:6183   */\n    tag_231:\n        /* \"#utility.yul\":6207:6270   */\n      tag_233\n        /* \"#utility.yul\":6262:6269   */\n      dup5\n        /* \"#utility.yul\":6253:6259   */\n      dup3\n        /* \"#utility.yul\":6242:6251   */\n      dup6\n        /* \"#utility.yul\":6238:6260   */\n      add\n        /* \"#utility.yul\":6207:6270   */\n      tag_121\n      jump\t// in\n    tag_233:\n        /* \"#utility.yul\":6197:6270   */\n      swap2\n      pop\n        /* \"#utility.yul\":5993:6280   */\n      pop\n        /* \"#utility.yul\":5778:6287   */\n      swap3\n      swap2\n      pop\n      pop\n      jump\t// out\n        /* \"#utility.yul\":6293:6392   */\n    tag_122:\n        /* \"#utility.yul\":6345:6351   */\n      0x00\n        /* \"#utility.yul\":6379:6384   */\n      dup2\n        /* \"#utility.yul\":6373:6385   */\n      mload\n        /* \"#utility.yul\":6363:6385   */\n      swap1\n      pop\n        /* \"#utility.yul\":6293:6392   */\n      swap2\n      swap1\n      pop\n      jump\t// out\n        /* \"#utility.yul\":6398:6557   */\n    tag_123:\n        /* \"#utility.yul\":6472:6483   */\n      0x00\n        /* \"#utility.yul\":6506:6512   */\n      dup3\n        /* \"#utility.yul\":6501:6504   */\n      dup3\n        /* \"#utility.yul\":6494:6513   */\n      mstore\n        /* \"#utility.yul\":6546:6550   */\n      0x20\n        /* \"#utility.yul\":6541:6544   */\n      dup3\n        /* \"#utility.yul\":6537:6551   */\n      add\n        /* \"#utility.yul\":6522:6551   */\n      swap1\n      pop\n        /* \"#utility.yul\":6398:6557   */\n      swap3\n      swap2\n      pop\n      pop\n      jump\t// out\n        /* \"#utility.yul\":6563:6702   */\n    tag_124:\n        /* \"#utility.yul\":6652:6658   */\n      dup3\n        /* \"#utility.yul\":6647:6650   */\n      dup2\n        /* \"#utility.yul\":6642:6645   */\n      dup4\n        /* \"#utility.yul\":6636:6659   */\n      mcopy\n        /* \"#utility.yul\":6693:6694   */\n      0x00\n        /* \"#utility.yul\":6684:6690   */\n      dup4\n        /* \"#utility.yul\":6679:6682   */\n      dup4\n        /* \"#utility.yul\":6675:6691   */\n      add\n        /* \"#utility.yul\":6668:6695   */\n      mstore\n        /* \"#utility.yul\":6563:6702   */\n      pop\n      pop\n      pop\n      jump\t// out\n        /* \"#utility.yul\":6708:7065   */\n    tag_125:\n        /* \"#utility.yul\":6786:6789   */\n      0x00\n        /* \"#utility.yul\":6814:6853   */\n      tag_238\n        /* \"#utility.yul\":6847:6852   */\n      dup3\n        /* \"#utility.yul\":6814:6853   */\n      tag_122\n      jump\t// in\n    tag_238:\n        /* \"#utility.yul\":6869:6930   */\n      tag_239\n        /* \"#utility.yul\":6923:6929   */\n      dup2\n        /* \"#utility.yul\":6918:6921   */\n      dup6\n        /* \"#utility.yul\":6869:6930   */\n      tag_123\n      jump\t// in\n    tag_239:\n        /* \"#utility.yul\":6862:6930   */\n      swap4\n      pop\n        /* \"#utility.yul\":6939:7004   */\n      tag_240\n        /* \"#utility.yul\":6997:7003   */\n      dup2\n        /* \"#utility.yul\":6992:6995   */\n      dup6\n        /* \"#utility.yul\":6985:6989   */\n      0x20\n        /* \"#utility.yul\":6978:6983   */\n      dup7\n        /* \"#utility.yul\":6974:6990   */\n      add\n        /* \"#utility.yul\":6939:7004   */\n      tag_124\n      jump\t// in\n    tag_240:\n        /* \"#utility.yul\":7029:7058   */\n      tag_241\n        /* \"#utility.yul\":7051:7057   */\n      dup2\n        /* \"#utility.yul\":7029:7058   */\n      tag_114\n      jump\t// in\n    tag_241:\n        /* \"#utility.yul\":7024:7027   */\n      dup5\n        /* \"#utility.yul\":7020:7059   */\n      add\n        /* \"#utility.yul\":7013:7059   */\n      swap2\n      pop\n        /* \"#utility.yul\":6790:7065   */\n      pop\n        /* \"#utility.yul\":6708:7065   */\n      swap3\n      swap2\n      pop\n      pop\n      jump\t// out\n        /* \"#utility.yul\":7071:7179   */\n    tag_126:\n        /* \"#utility.yul\":7148:7172   */\n      tag_243\n        /* \"#utility.yul\":7166:7171   */\n      dup2\n        /* \"#utility.yul\":7148:7172   */\n      tag_99\n      jump\t// in\n    tag_243:\n        /* \"#utility.yul\":7143:7146   */\n      dup3\n        /* \"#utility.yul\":7136:7173   */\n      mstore\n        /* \"#utility.yul\":7071:7179   */\n      pop\n      pop\n      jump\t// out\n        /* \"#utility.yul\":7249:8040   */\n    tag_127:\n        /* \"#utility.yul\":7372:7375   */\n      0x00\n        /* \"#utility.yul\":7408:7412   */\n      0x60\n        /* \"#utility.yul\":7403:7406   */\n      dup4\n        /* \"#utility.yul\":7399:7413   */\n      add\n        /* \"#utility.yul\":7495:7499   */\n      0x00\n        /* \"#utility.yul\":7488:7493   */\n      dup4\n        /* \"#utility.yul\":7484:7500   */\n      add\n        /* \"#utility.yul\":7478:7501   */\n      mload\n        /* \"#utility.yul\":7548:7551   */\n      dup5\n        /* \"#utility.yul\":7542:7546   */\n      dup3\n        /* \"#utility.yul\":7538:7552   */\n      sub\n        /* \"#utility.yul\":7531:7535   */\n      0x00\n        /* \"#utility.yul\":7526:7529   */\n      dup7\n        /* \"#utility.yul\":7522:7536   */\n      add\n        /* \"#utility.yul\":7515:7553   */\n      mstore\n        /* \"#utility.yul\":7574:7647   */\n      tag_245\n        /* \"#utility.yul\":7642:7646   */\n      dup3\n        /* \"#utility.yul\":7628:7640   */\n      dup3\n        /* \"#utility.yul\":7574:7647   */\n      tag_125\n      jump\t// in\n    tag_245:\n        /* \"#utility.yul\":7566:7647   */\n      swap2\n      pop\n        /* \"#utility.yul\":7423:7658   */\n      pop\n        /* \"#utility.yul\":7744:7748   */\n      0x20\n        /* \"#utility.yul\":7737:7742   */\n      dup4\n        /* \"#utility.yul\":7733:7749   */\n      add\n        /* \"#utility.yul\":7727:7750   */\n      mload\n        /* \"#utility.yul\":7763:7826   */\n      tag_246\n        /* \"#utility.yul\":7820:7824   */\n      0x20\n        /* \"#utility.yul\":7815:7818   */\n      dup7\n        /* \"#utility.yul\":7811:7825   */\n      add\n        /* \"#utility.yul\":7797:7809   */\n      dup3\n        /* \"#utility.yul\":7763:7826   */\n      tag_126\n      jump\t// in\n    tag_246:\n        /* \"#utility.yul\":7668:7836   */\n      pop\n        /* \"#utility.yul\":7921:7925   */\n      0x40\n        /* \"#utility.yul\":7914:7919   */\n      dup4\n        /* \"#utility.yul\":7910:7926   */\n      add\n        /* \"#utility.yul\":7904:7927   */\n      mload\n        /* \"#utility.yul\":7940:8003   */\n      tag_247\n        /* \"#utility.yul\":7997:8001   */\n      0x40\n        /* \"#utility.yul\":7992:7995   */\n      dup7\n        /* \"#utility.yul\":7988:8002   */\n      add\n        /* \"#utility.yul\":7974:7986   */\n      dup3\n        /* \"#utility.yul\":7940:8003   */\n      tag_126\n      jump\t// in\n    tag_247:\n        /* \"#utility.yul\":7846:8013   */\n      pop\n        /* \"#utility.yul\":8030:8034   */\n      dup1\n        /* \"#utility.yul\":8023:8034   */\n      swap2\n      pop\n        /* \"#utility.yul\":7377:8040   */\n      pop\n        /* \"#utility.yul\":7249:8040   */\n      swap3\n      swap2\n      pop\n      pop\n      jump\t// out\n        /* \"#utility.yul\":8046:8427   */\n    tag_38:\n        /* \"#utility.yul\":8193:8197   */\n      0x00\n        /* \"#utility.yul\":8231:8233   */\n      0x20\n        /* \"#utility.yul\":8220:8229   */\n      dup3\n        /* \"#utility.yul\":8216:8234   */\n      add\n        /* \"#utility.yul\":8208:8234   */\n      swap1\n      pop\n        /* \"#utility.yul\":8280:8289   */\n      dup2\n        /* \"#utility.yul\":8274:8278   */\n      dup2\n        /* \"#utility.yul\":8270:8290   */\n      sub\n        /* \"#utility.yul\":8266:8267   */\n      0x00\n        /* \"#utility.yul\":8255:8264   */\n      dup4\n        /* \"#utility.yul\":8251:8268   */\n      add\n        /* \"#utility.yul\":8244:8291   */\n      mstore\n        /* \"#utility.yul\":8308:8420   */\n      tag_249\n        /* \"#utility.yul\":8415:8419   */\n      dup2\n        /* \"#utility.yul\":8406:8412   */\n      dup5\n        /* \"#utility.yul\":8308:8420   */\n      tag_127\n      jump\t// in\n    tag_249:\n        /* \"#utility.yul\":8300:8420   */\n      swap1\n      pop\n        /* \"#utility.yul\":8046:8427   */\n      swap3\n      swap2\n      pop\n      pop\n      jump\t// out\n        /* \"#utility.yul\":8433:8602   */\n    tag_128:\n        /* \"#utility.yul\":8517:8528   */\n      0x00\n        /* \"#utility.yul\":8551:8557   */\n      dup3\n        /* \"#utility.yul\":8546:8549   */\n      dup3\n        /* \"#utility.yul\":8539:8558   */\n      mstore\n        /* \"#utility.yul\":8591:8595   */\n      0x20\n        /* \"#utility.yul\":8586:8589   */\n      dup3\n        /* \"#utility.yul\":8582:8596   */\n      add\n        /* \"#utility.yul\":8567:8596   */\n      swap1\n      pop\n        /* \"#utility.yul\":8433:8602   */\n      swap3\n      swap2\n      pop\n      pop\n      jump\t// out\n        /* \"#utility.yul\":8608:8985   */\n    tag_129:\n        /* \"#utility.yul\":8696:8699   */\n      0x00\n        /* \"#utility.yul\":8724:8763   */\n      tag_252\n        /* \"#utility.yul\":8757:8762   */\n      dup3\n        /* \"#utility.yul\":8724:8763   */\n      tag_122\n      jump\t// in\n    tag_252:\n        /* \"#utility.yul\":8779:8850   */\n      tag_253\n        /* \"#utility.yul\":8843:8849   */\n      dup2\n        /* \"#utility.yul\":8838:8841   */\n      dup6\n        /* \"#utility.yul\":8779:8850   */\n      tag_128\n      jump\t// in\n    tag_253:\n        /* \"#utility.yul\":8772:8850   */\n      swap4\n      pop\n        /* \"#utility.yul\":8859:8924   */\n      tag_254\n        /* \"#utility.yul\":8917:8923   */\n      dup2\n        /* \"#utility.yul\":8912:8915   */\n      dup6\n        /* \"#utility.yul\":8905:8909   */\n      0x20\n        /* \"#utility.yul\":8898:8903   */\n      dup7\n        /* \"#utility.yul\":8894:8910   */\n      add\n        /* \"#utility.yul\":8859:8924   */\n      tag_124\n      jump\t// in\n    tag_254:\n        /* \"#utility.yul\":8949:8978   */\n      tag_255\n        /* \"#utility.yul\":8971:8977   */\n      dup2\n        /* \"#utility.yul\":8949:8978   */\n      tag_114\n      jump\t// in\n    tag_255:\n        /* \"#utility.yul\":8944:8947   */\n      dup5\n        /* \"#utility.yul\":8940:8979   */\n      add\n        /* \"#utility.yul\":8933:8979   */\n      swap2\n      pop\n        /* \"#utility.yul\":8700:8985   */\n      pop\n        /* \"#utility.yul\":8608:8985   */\n      swap3\n      swap2\n      pop\n      pop\n      jump\t// out\n        /* \"#utility.yul\":8991:9524   */\n    tag_49:\n        /* \"#utility.yul\":9160:9164   */\n      0x00\n        /* \"#utility.yul\":9198:9200   */\n      0x60\n        /* \"#utility.yul\":9187:9196   */\n      dup3\n        /* \"#utility.yul\":9183:9201   */\n      add\n        /* \"#utility.yul\":9175:9201   */\n      swap1\n      pop\n        /* \"#utility.yul\":9247:9256   */\n      dup2\n        /* \"#utility.yul\":9241:9245   */\n      dup2\n        /* \"#utility.yul\":9237:9257   */\n      sub\n        /* \"#utility.yul\":9233:9234   */\n      0x00\n        /* \"#utility.yul\":9222:9231   */\n      dup4\n        /* \"#utility.yul\":9218:9235   */\n      add\n        /* \"#utility.yul\":9211:9258   */\n      mstore\n        /* \"#utility.yul\":9275:9353   */\n      tag_257\n        /* \"#utility.yul\":9348:9352   */\n      dup2\n        /* \"#utility.yul\":9339:9345   */\n      dup7\n        /* \"#utility.yul\":9275:9353   */\n      tag_129\n      jump\t// in\n    tag_257:\n        /* \"#utility.yul\":9267:9353   */\n      swap1\n      pop\n        /* \"#utility.yul\":9363:9435   */\n      tag_258\n        /* \"#utility.yul\":9431:9433   */\n      0x20\n        /* \"#utility.yul\":9420:9429   */\n      dup4\n        /* \"#utility.yul\":9416:9434   */\n      add\n        /* \"#utility.yul\":9407:9413   */\n      dup6\n        /* \"#utility.yul\":9363:9435   */\n      tag_108\n      jump\t// in\n    tag_258:\n        /* \"#utility.yul\":9445:9517   */\n      tag_259\n        /* \"#utility.yul\":9513:9515   */\n      0x40\n        /* \"#utility.yul\":9502:9511   */\n      dup4\n        /* \"#utility.yul\":9498:9516   */\n      add\n        /* \"#utility.yul\":9489:9495   */\n      dup5\n        /* \"#utility.yul\":9445:9517   */\n      tag_108\n      jump\t// in\n    tag_259:\n        /* \"#utility.yul\":8991:9524   */\n      swap5\n      swap4\n      pop\n      pop\n      pop\n      pop\n      jump\t// out\n        /* \"#utility.yul\":9530:9677   */\n    tag_130:\n        /* \"#utility.yul\":9631:9642   */\n      0x00\n        /* \"#utility.yul\":9668:9671   */\n      dup2\n        /* \"#utility.yul\":9653:9671   */\n      swap1\n      pop\n        /* \"#utility.yul\":9530:9677   */\n      swap3\n      swap2\n      pop\n      pop\n      jump\t// out\n        /* \"#utility.yul\":9683:9797   */\n    tag_131:\n      pop\n      jump\t// out\n        /* \"#utility.yul\":9803:10201   */\n    tag_132:\n        /* \"#utility.yul\":9962:9965   */\n      0x00\n        /* \"#utility.yul\":9983:10066   */\n      tag_263\n        /* \"#utility.yul\":10064:10065   */\n      0x00\n        /* \"#utility.yul\":10059:10062   */\n      dup4\n        /* \"#utility.yul\":9983:10066   */\n      tag_130\n      jump\t// in\n    tag_263:\n        /* \"#utility.yul\":9976:10066   */\n      swap2\n      pop\n        /* \"#utility.yul\":10075:10168   */\n      tag_264\n        /* \"#utility.yul\":10164:10167   */\n      dup3\n        /* \"#utility.yul\":10075:10168   */\n      tag_131\n      jump\t// in\n    tag_264:\n        /* \"#utility.yul\":10193:10194   */\n      0x00\n        /* \"#utility.yul\":10188:10191   */\n      dup3\n        /* \"#utility.yul\":10184:10195   */\n      add\n        /* \"#utility.yul\":10177:10195   */\n      swap1\n      pop\n        /* \"#utility.yul\":9803:10201   */\n      swap2\n      swap1\n      pop\n      jump\t// out\n        /* \"#utility.yul\":10207:10586   */\n    tag_55:\n        /* \"#utility.yul\":10391:10394   */\n      0x00\n        /* \"#utility.yul\":10413:10560   */\n      tag_266\n        /* \"#utility.yul\":10556:10559   */\n      dup3\n        /* \"#utility.yul\":10413:10560   */\n      tag_132\n      jump\t// in\n    tag_266:\n        /* \"#utility.yul\":10406:10560   */\n      swap2\n      pop\n        /* \"#utility.yul\":10577:10580   */\n      dup2\n        /* \"#utility.yul\":10570:10580   */\n      swap1\n      pop\n        /* \"#utility.yul\":10207:10586   */\n      swap2\n      swap1\n      pop\n      jump\t// out\n        /* \"#utility.yul\":10592:10814   */\n    tag_133:\n        /* \"#utility.yul\":10732:10766   */\n      0x4661696c656420746f2073656e64206465706f73697420746f2070726f706f6e\n        /* \"#utility.yul\":10728:10729   */\n      0x00\n        /* \"#utility.yul\":10720:10726   */\n      dup3\n        /* \"#utility.yul\":10716:10730   */\n      add\n        /* \"#utility.yul\":10709:10767   */\n      mstore\n        /* \"#utility.yul\":10801:10806   */\n      0x656e740000000000000000000000000000000000000000000000000000000000\n        /* \"#utility.yul\":10796:10798   */\n      0x20\n        /* \"#utility.yul\":10788:10794   */\n      dup3\n        /* \"#utility.yul\":10784:10799   */\n      add\n        /* \"#utility.yul\":10777:10807   */\n      mstore\n        /* \"#utility.yul\":10592:10814   */\n      pop\n      jump\t// out\n        /* \"#utility.yul\":10820:11186   */\n    tag_134:\n        /* \"#utility.yul\":10962:10965   */\n      0x00\n        /* \"#utility.yul\":10983:11050   */\n      tag_269\n        /* \"#utility.yul\":11047:11049   */\n      0x23\n        /* \"#utility.yul\":11042:11045   */\n      dup4\n        /* \"#utility.yul\":10983:11050   */\n      tag_128\n      jump\t// in\n    tag_269:\n        /* \"#utility.yul\":10976:11050   */\n      swap2\n      pop\n        /* \"#utility.yul\":11059:11152   */\n      tag_270\n        /* \"#utility.yul\":11148:11151   */\n      dup3\n        /* \"#utility.yul\":11059:11152   */\n      tag_133\n      jump\t// in\n    tag_270:\n        /* \"#utility.yul\":11177:11179   */\n      0x40\n        /* \"#utility.yul\":11172:11175   */\n      dup3\n        /* \"#utility.yul\":11168:11180   */\n      add\n        /* \"#utility.yul\":11161:11180   */\n      swap1\n      pop\n        /* \"#utility.yul\":10820:11186   */\n      swap2\n      swap1\n      pop\n      jump\t// out\n        /* \"#utility.yul\":11192:11611   */\n    tag_61:\n        /* \"#utility.yul\":11358:11362   */\n      0x00\n        /* \"#utility.yul\":11396:11398   */\n      0x20\n        /* \"#utility.yul\":11385:11394   */\n      dup3\n        /* \"#utility.yul\":11381:11399   */\n      add\n        /* \"#utility.yul\":11373:11399   */\n      swap1\n      pop\n        /* \"#utility.yul\":11445:11454   */\n      dup2\n        /* \"#utility.yul\":11439:11443   */\n      dup2\n        /* \"#utility.yul\":11435:11455   */\n      sub\n        /* \"#utility.yul\":11431:11432   */\n      0x00\n        /* \"#utility.yul\":11420:11429   */\n      dup4\n        /* \"#utility.yul\":11416:11433   */\n      add\n        /* \"#utility.yul\":11409:11456   */\n      mstore\n        /* \"#utility.yul\":11473:11604   */\n      tag_272\n        /* \"#utility.yul\":11599:11603   */\n      dup2\n        /* \"#utility.yul\":11473:11604   */\n      tag_134\n      jump\t// in\n    tag_272:\n        /* \"#utility.yul\":11465:11604   */\n      swap1\n      pop\n        /* \"#utility.yul\":11192:11611   */\n      swap2\n      swap1\n      pop\n      jump\t// out\n        /* \"#utility.yul\":11617:11797   */\n    tag_135:\n        /* \"#utility.yul\":11665:11742   */\n      0x4e487b7100000000000000000000000000000000000000000000000000000000\n        /* \"#utility.yul\":11662:11663   */\n      0x00\n        /* \"#utility.yul\":11655:11743   */\n      mstore\n        /* \"#utility.yul\":11762:11766   */\n      0x11\n        /* \"#utility.yul\":11759:11760   */\n      0x04\n        /* \"#utility.yul\":11752:11767   */\n      mstore\n        /* \"#utility.yul\":11786:11790   */\n      0x24\n        /* \"#utility.yul\":11783:11784   */\n      0x00\n        /* \"#utility.yul\":11776:11791   */\n      revert\n        /* \"#utility.yul\":11803:11994   */\n    tag_63:\n        /* \"#utility.yul\":11843:11846   */\n      0x00\n        /* \"#utility.yul\":11862:11882   */\n      tag_275\n        /* \"#utility.yul\":11880:11881   */\n      dup3\n        /* \"#utility.yul\":11862:11882   */\n      tag_99\n      jump\t// in\n    tag_275:\n        /* \"#utility.yul\":11857:11882   */\n      swap2\n      pop\n        /* \"#utility.yul\":11896:11916   */\n      tag_276\n        /* \"#utility.yul\":11914:11915   */\n      dup4\n        /* \"#utility.yul\":11896:11916   */\n      tag_99\n      jump\t// in\n    tag_276:\n        /* \"#utility.yul\":11891:11916   */\n      swap3\n      pop\n        /* \"#utility.yul\":11939:11940   */\n      dup3\n        /* \"#utility.yul\":11936:11937   */\n      dup3\n        /* \"#utility.yul\":11932:11941   */\n      add\n        /* \"#utility.yul\":11925:11941   */\n      swap1\n      pop\n        /* \"#utility.yul\":11960:11963   */\n      dup1\n        /* \"#utility.yul\":11957:11958   */\n      dup3\n        /* \"#utility.yul\":11954:11964   */\n      gt\n        /* \"#utility.yul\":11951:11987   */\n      iszero\n      tag_277\n      jumpi\n        /* \"#utility.yul\":11967:11985   */\n      tag_278\n      tag_135\n      jump\t// in\n    tag_278:\n        /* \"#utility.yul\":11951:11987   */\n    tag_277:\n        /* \"#utility.yul\":11803:11994   */\n      swap3\n      swap2\n      pop\n      pop\n      jump\t// out\n        /* \"#utility.yul\":12000:12178   */\n    tag_136:\n        /* \"#utility.yul\":12140:12170   */\n      0x4e6f7420612076616c69642072657075746174696f6e2073636f726500000000\n        /* \"#utility.yul\":12136:12137   */\n      0x00\n        /* \"#utility.yul\":12128:12134   */\n      dup3\n        /* \"#utility.yul\":12124:12138   */\n      add\n        /* \"#utility.yul\":12117:12171   */\n      mstore\n        /* \"#utility.yul\":12000:12178   */\n      pop\n      jump\t// out\n        /* \"#utility.yul\":12184:12550   */\n    tag_137:\n        /* \"#utility.yul\":12326:12329   */\n      0x00\n        /* \"#utility.yul\":12347:12414   */\n      tag_281\n        /* \"#utility.yul\":12411:12413   */\n      0x1c\n        /* \"#utility.yul\":12406:12409   */\n      dup4\n        /* \"#utility.yul\":12347:12414   */\n      tag_128\n      jump\t// in\n    tag_281:\n        /* \"#utility.yul\":12340:12414   */\n      swap2\n      pop\n        /* \"#utility.yul\":12423:12516   */\n      tag_282\n        /* \"#utility.yul\":12512:12515   */\n      dup3\n        /* \"#utility.yul\":12423:12516   */\n      tag_136\n      jump\t// in\n    tag_282:\n        /* \"#utility.yul\":12541:12543   */\n      0x20\n        /* \"#utility.yul\":12536:12539   */\n      dup3\n        /* \"#utility.yul\":12532:12544   */\n      add\n        /* \"#utility.yul\":12525:12544   */\n      swap1\n      pop\n        /* \"#utility.yul\":12184:12550   */\n      swap2\n      swap1\n      pop\n      jump\t// out\n        /* \"#utility.yul\":12556:12975   */\n    tag_68:\n        /* \"#utility.yul\":12722:12726   */\n      0x00\n        /* \"#utility.yul\":12760:12762   */\n      0x20\n        /* \"#utility.yul\":12749:12758   */\n      dup3\n        /* \"#utility.yul\":12745:12763   */\n      add\n        /* \"#utility.yul\":12737:12763   */\n      swap1\n      pop\n        /* \"#utility.yul\":12809:12818   */\n      dup2\n        /* \"#utility.yul\":12803:12807   */\n      dup2\n        /* \"#utility.yul\":12799:12819   */\n      sub\n        /* \"#utility.yul\":12795:12796   */\n      0x00\n        /* \"#utility.yul\":12784:12793   */\n      dup4\n        /* \"#utility.yul\":12780:12797   */\n      add\n        /* \"#utility.yul\":12773:12820   */\n      mstore\n        /* \"#utility.yul\":12837:12968   */\n      tag_284\n        /* \"#utility.yul\":12963:12967   */\n      dup2\n        /* \"#utility.yul\":12837:12968   */\n      tag_137\n      jump\t// in\n    tag_284:\n        /* \"#utility.yul\":12829:12968   */\n      swap1\n      pop\n        /* \"#utility.yul\":12556:12975   */\n      swap2\n      swap1\n      pop\n      jump\t// out\n        /* \"#utility.yul\":12981:13391   */\n    tag_70:\n        /* \"#utility.yul\":13021:13028   */\n      0x00\n        /* \"#utility.yul\":13044:13064   */\n      tag_286\n        /* \"#utility.yul\":13062:13063   */\n      dup3\n        /* \"#utility.yul\":13044:13064   */\n      tag_99\n      jump\t// in\n    tag_286:\n        /* \"#utility.yul\":13039:13064   */\n      swap2\n      pop\n        /* \"#utility.yul\":13078:13098   */\n      tag_287\n        /* \"#utility.yul\":13096:13097   */\n      dup4\n        /* \"#utility.yul\":13078:13098   */\n      tag_99\n      jump\t// in\n    tag_287:\n        /* \"#utility.yul\":13073:13098   */\n      swap3\n      pop\n        /* \"#utility.yul\":13133:13134   */\n      dup3\n        /* \"#utility.yul\":13130:13131   */\n      dup3\n        /* \"#utility.yul\":13126:13135   */\n      mul\n        /* \"#utility.yul\":13155:13185   */\n      tag_288\n        /* \"#utility.yul\":13173:13184   */\n      dup2\n        /* \"#utility.yul\":13155:13185   */\n      tag_99\n      jump\t// in\n    tag_288:\n        /* \"#utility.yul\":13144:13185   */\n      swap2\n      pop\n        /* \"#utility.yul\":13334:13335   */\n      dup3\n        /* \"#utility.yul\":13325:13332   */\n      dup3\n        /* \"#utility.yul\":13321:13336   */\n      div\n        /* \"#utility.yul\":13318:13319   */\n      dup5\n        /* \"#utility.yul\":13315:13337   */\n      eq\n        /* \"#utility.yul\":13295:13296   */\n      dup4\n        /* \"#utility.yul\":13288:13297   */\n      iszero\n        /* \"#utility.yul\":13268:13351   */\n      or\n        /* \"#utility.yul\":13245:13384   */\n      tag_289\n      jumpi\n        /* \"#utility.yul\":13364:13382   */\n      tag_290\n      tag_135\n      jump\t// in\n    tag_290:\n        /* \"#utility.yul\":13245:13384   */\n    tag_289:\n        /* \"#utility.yul\":13029:13391   */\n      pop\n        /* \"#utility.yul\":12981:13391   */\n      swap3\n      swap2\n      pop\n      pop\n      jump\t// out\n        /* \"#utility.yul\":13397:13577   */\n    tag_138:\n        /* \"#utility.yul\":13445:13522   */\n      0x4e487b7100000000000000000000000000000000000000000000000000000000\n        /* \"#utility.yul\":13442:13443   */\n      0x00\n        /* \"#utility.yul\":13435:13523   */\n      mstore\n        /* \"#utility.yul\":13542:13546   */\n      0x12\n        /* \"#utility.yul\":13539:13540   */\n      0x04\n        /* \"#utility.yul\":13532:13547   */\n      mstore\n        /* \"#utility.yul\":13566:13570   */\n      0x24\n        /* \"#utility.yul\":13563:13564   */\n      0x00\n        /* \"#utility.yul\":13556:13571   */\n      revert\n        /* \"#utility.yul\":13583:13768   */\n    tag_72:\n        /* \"#utility.yul\":13623:13624   */\n      0x00\n        /* \"#utility.yul\":13640:13660   */\n      tag_293\n        /* \"#utility.yul\":13658:13659   */\n      dup3\n        /* \"#utility.yul\":13640:13660   */\n      tag_99\n      jump\t// in\n    tag_293:\n        /* \"#utility.yul\":13635:13660   */\n      swap2\n      pop\n        /* \"#utility.yul\":13674:13694   */\n      tag_294\n        /* \"#utility.yul\":13692:13693   */\n      dup4\n        /* \"#utility.yul\":13674:13694   */\n      tag_99\n      jump\t// in\n    tag_294:\n        /* \"#utility.yul\":13669:13694   */\n      swap3\n      pop\n        /* \"#utility.yul\":13713:13714   */\n      dup3\n        /* \"#utility.yul\":13703:13738   */\n      tag_295\n      jumpi\n        /* \"#utility.yul\":13718:13736   */\n      tag_296\n      tag_138\n      jump\t// in\n    tag_296:\n        /* \"#utility.yul\":13703:13738   */\n    tag_295:\n        /* \"#utility.yul\":13760:13761   */\n      dup3\n        /* \"#utility.yul\":13757:13758   */\n      dup3\n        /* \"#utility.yul\":13753:13762   */\n      div\n        /* \"#utility.yul\":13748:13762   */\n      swap1\n      pop\n        /* \"#utility.yul\":13583:13768   */\n      swap3\n      swap2\n      pop\n      pop\n      jump\t// out\n        /* \"#utility.yul\":13774:13954   */\n    tag_139:\n        /* \"#utility.yul\":13822:13899   */\n      0x4e487b7100000000000000000000000000000000000000000000000000000000\n        /* \"#utility.yul\":13819:13820   */\n      0x00\n        /* \"#utility.yul\":13812:13900   */\n      mstore\n        /* \"#utility.yul\":13919:13923   */\n      0x22\n        /* \"#utility.yul\":13916:13917   */\n      0x04\n        /* \"#utility.yul\":13909:13924   */\n      mstore\n        /* \"#utility.yul\":13943:13947   */\n      0x24\n        /* \"#utility.yul\":13940:13941   */\n      0x00\n        /* \"#utility.yul\":13933:13948   */\n      revert\n        /* \"#utility.yul\":13960:14280   */\n    tag_79:\n        /* \"#utility.yul\":14004:14010   */\n      0x00\n        /* \"#utility.yul\":14041:14042   */\n      0x02\n        /* \"#utility.yul\":14035:14039   */\n      dup3\n        /* \"#utility.yul\":14031:14043   */\n      div\n        /* \"#utility.yul\":14021:14043   */\n      swap1\n      pop\n        /* \"#utility.yul\":14088:14089   */\n      0x01\n        /* \"#utility.yul\":14082:14086   */\n      dup3\n        /* \"#utility.yul\":14078:14090   */\n      and\n        /* \"#utility.yul\":14109:14127   */\n      dup1\n        /* \"#utility.yul\":14099:14180   */\n      tag_299\n      jumpi\n        /* \"#utility.yul\":14165:14169   */\n      0x7f\n        /* \"#utility.yul\":14157:14163   */\n      dup3\n        /* \"#utility.yul\":14153:14170   */\n      and\n        /* \"#utility.yul\":14143:14170   */\n      swap2\n      pop\n        /* \"#utility.yul\":14099:14180   */\n    tag_299:\n        /* \"#utility.yul\":14227:14229   */\n      0x20\n        /* \"#utility.yul\":14219:14225   */\n      dup3\n        /* \"#utility.yul\":14216:14230   */\n      lt\n        /* \"#utility.yul\":14196:14214   */\n      dup2\n        /* \"#utility.yul\":14193:14231   */\n      sub\n        /* \"#utility.yul\":14190:14274   */\n      tag_300\n      jumpi\n        /* \"#utility.yul\":14246:14264   */\n      tag_301\n      tag_139\n      jump\t// in\n    tag_301:\n        /* \"#utility.yul\":14190:14274   */\n    tag_300:\n        /* \"#utility.yul\":14011:14280   */\n      pop\n        /* \"#utility.yul\":13960:14280   */\n      swap2\n      swap1\n      pop\n      jump\t// out\n        /* \"#utility.yul\":14286:14427   */\n    tag_140:\n        /* \"#utility.yul\":14335:14339   */\n      0x00\n        /* \"#utility.yul\":14358:14361   */\n      dup2\n        /* \"#utility.yul\":14350:14361   */\n      swap1\n      pop\n        /* \"#utility.yul\":14381:14384   */\n      dup2\n        /* \"#utility.yul\":14378:14379   */\n      0x00\n        /* \"#utility.yul\":14371:14385   */\n      mstore\n        /* \"#utility.yul\":14415:14419   */\n      0x20\n        /* \"#utility.yul\":14412:14413   */\n      0x00\n        /* \"#utility.yul\":14402:14420   */\n      keccak256\n        /* \"#utility.yul\":14394:14420   */\n      swap1\n      pop\n        /* \"#utility.yul\":14286:14427   */\n      swap2\n      swap1\n      pop\n      jump\t// out\n        /* \"#utility.yul\":14433:14526   */\n    tag_141:\n        /* \"#utility.yul\":14470:14476   */\n      0x00\n        /* \"#utility.yul\":14517:14519   */\n      0x20\n        /* \"#utility.yul\":14512:14514   */\n      0x1f\n        /* \"#utility.yul\":14505:14510   */\n      dup4\n        /* \"#utility.yul\":14501:14515   */\n      add\n        /* \"#utility.yul\":14497:14520   */\n      div\n        /* \"#utility.yul\":14487:14520   */\n      swap1\n      pop\n        /* \"#utility.yul\":14433:14526   */\n      swap2\n      swap1\n      pop\n      jump\t// out\n        /* \"#utility.yul\":14532:14639   */\n    tag_142:\n        /* \"#utility.yul\":14576:14584   */\n      0x00\n        /* \"#utility.yul\":14626:14631   */\n      dup3\n        /* \"#utility.yul\":14620:14624   */\n      dup3\n        /* \"#utility.yul\":14616:14632   */\n      shl\n        /* \"#utility.yul\":14595:14632   */\n      swap1\n      pop\n        /* \"#utility.yul\":14532:14639   */\n      swap3\n      swap2\n      pop\n      pop\n      jump\t// out\n        /* \"#utility.yul\":14645:15038   */\n    tag_143:\n        /* \"#utility.yul\":14714:14720   */\n      0x00\n        /* \"#utility.yul\":14764:14765   */\n      0x08\n        /* \"#utility.yul\":14752:14762   */\n      dup4\n        /* \"#utility.yul\":14748:14766   */\n      mul\n        /* \"#utility.yul\":14787:14884   */\n      tag_306\n        /* \"#utility.yul\":14817:14883   */\n      0xffffffffffffffffffffffffffffffffffffffffffffffffffffffffffffffff\n        /* \"#utility.yul\":14806:14815   */\n      dup3\n        /* \"#utility.yul\":14787:14884   */\n      tag_142\n      jump\t// in\n    tag_306:\n        /* \"#utility.yul\":14905:14944   */\n      tag_307\n        /* \"#utility.yul\":14935:14943   */\n      dup7\n        /* \"#utility.yul\":14924:14933   */\n      dup4\n        /* \"#utility.yul\":14905:14944   */\n      tag_142\n      jump\t// in\n    tag_307:\n        /* \"#utility.yul\":14893:14944   */\n      swap6\n      pop\n        /* \"#utility.yul\":14977:14981   */\n      dup1\n        /* \"#utility.yul\":14973:14982   */\n      not\n        /* \"#utility.yul\":14966:14971   */\n      dup5\n        /* \"#utility.yul\":14962:14983   */\n      and\n        /* \"#utility.yul\":14953:14983   */\n      swap4\n      pop\n        /* \"#utility.yul\":15026:15030   */\n      dup1\n        /* \"#utility.yul\":15016:15024   */\n      dup7\n        /* \"#utility.yul\":15012:15031   */\n      and\n        /* \"#utility.yul\":15005:15010   */\n      dup5\n        /* \"#utility.yul\":15002:15032   */\n      or\n        /* \"#utility.yul\":14992:15032   */\n      swap3\n      pop\n        /* \"#utility.yul\":14721:15038   */\n      pop\n      pop\n        /* \"#utility.yul\":14645:15038   */\n      swap4\n      swap3\n      pop\n      pop\n      pop\n      jump\t// out\n        /* \"#utility.yul\":15044:15104   */\n    tag_144:\n        /* \"#utility.yul\":15072:15075   */\n      0x00\n        /* \"#utility.yul\":15093:15098   */\n      dup2\n        /* \"#utility.yul\":15086:15098   */\n      swap1\n      pop\n        /* \"#utility.yul\":15044:15104   */\n      swap2\n      swap1\n      pop\n      jump\t// out\n        /* \"#utility.yul\":15110:15252   */\n    tag_145:\n        /* \"#utility.yul\":15160:15169   */\n      0x00\n        /* \"#utility.yul\":15193:15246   */\n      tag_310\n        /* \"#utility.yul\":15211:15245   */\n      tag_311\n        /* \"#utility.yul\":15220:15244   */\n      tag_312\n        /* \"#utility.yul\":15238:15243   */\n      dup5\n        /* \"#utility.yul\":15220:15244   */\n      tag_99\n      jump\t// in\n    tag_312:\n        /* \"#utility.yul\":15211:15245   */\n      tag_144\n      jump\t// in\n    tag_311:\n        /* \"#utility.yul\":15193:15246   */\n      tag_99\n      jump\t// in\n    tag_310:\n        /* \"#utility.yul\":15180:15246   */\n      swap1\n      pop\n        /* \"#utility.yul\":15110:15252   */\n      swap2\n      swap1\n      pop\n      jump\t// out\n        /* \"#utility.yul\":15258:15333   */\n    tag_146:\n        /* \"#utility.yul\":15301:15304   */\n      0x00\n        /* \"#utility.yul\":15322:15327   */\n      dup2\n        /* \"#utility.yul\":15315:15327   */\n      swap1\n      pop\n        /* \"#utility.yul\":15258:15333   */\n      swap2\n      swap1\n      pop\n      jump\t// out\n        /* \"#utility.yul\":15339:15608   */\n    tag_147:\n        /* \"#utility.yul\":15449:15488   */\n      tag_315\n        /* \"#utility.yul\":15480:15487   */\n      dup4\n        /* \"#utility.yul\":15449:15488   */\n      tag_145\n      jump\t// in\n    tag_315:\n        /* \"#utility.yul\":15510:15601   */\n      tag_316\n        /* \"#utility.yul\":15559:15600   */\n      tag_317\n        /* \"#utility.yul\":15583:15599   */\n      dup3\n        /* \"#utility.yul\":15559:15600   */\n      tag_146\n      jump\t// in\n    tag_317:\n        /* \"#utility.yul\":15551:15557   */\n      dup5\n        /* \"#utility.yul\":15544:15548   */\n      dup5\n        /* \"#utility.yul\":15538:15549   */\n      sload\n        /* \"#utility.yul\":15510:15601   */\n      tag_143\n      jump\t// in\n    tag_316:\n        /* \"#utility.yul\":15504:15508   */\n      dup3\n        /* \"#utility.yul\":15497:15602   */\n      sstore\n        /* \"#utility.yul\":15415:15608   */\n      pop\n        /* \"#utility.yul\":15339:15608   */\n      pop\n      pop\n      pop\n      jump\t// out\n        /* \"#utility.yul\":15614:15687   */\n    tag_148:\n        /* \"#utility.yul\":15659:15662   */\n      0x00\n        /* \"#utility.yul\":15614:15687   */\n      swap1\n      jump\t// out\n        /* \"#utility.yul\":15693:15882   */\n    tag_149:\n        /* \"#utility.yul\":15770:15802   */\n      tag_320\n      tag_148\n      jump\t// in\n    tag_320:\n        /* \"#utility.yul\":15811:15876   */\n      tag_321\n        /* \"#utility.yul\":15869:15875   */\n      dup2\n        /* \"#utility.yul\":15861:15867   */\n      dup5\n        /* \"#utility.yul\":15855:15859   */\n      dup5\n        /* \"#utility.yul\":15811:15876   */\n      tag_147\n      jump\t// in\n    tag_321:\n        /* \"#utility.yul\":15746:15882   */\n      pop\n        /* \"#utility.yul\":15693:15882   */\n      pop\n      pop\n      jump\t// out\n        /* \"#utility.yul\":15888:16074   */\n    tag_150:\n        /* \"#utility.yul\":15948:16068   */\n    tag_323:\n        /* \"#utility.yul\":15965:15968   */\n      dup2\n        /* \"#utility.yul\":15958:15963   */\n      dup2\n        /* \"#utility.yul\":15955:15969   */\n      lt\n        /* \"#utility.yul\":15948:16068   */\n      iszero\n      tag_325\n      jumpi\n        /* \"#utility.yul\":16019:16058   */\n      tag_326\n        /* \"#utility.yul\":16056:16057   */\n      0x00\n        /* \"#utility.yul\":16049:16054   */\n      dup3\n        /* \"#utility.yul\":16019:16058   */\n      tag_149\n      jump\t// in\n    tag_326:\n        /* \"#utility.yul\":15992:15993   */\n      0x01\n        /* \"#utility.yul\":15985:15990   */\n      dup2\n        /* \"#utility.yul\":15981:15994   */\n      add\n        /* \"#utility.yul\":15972:15994   */\n      swap1\n      pop\n        /* \"#utility.yul\":15948:16068   */\n      jump(tag_323)\n    tag_325:\n        /* \"#utility.yul\":15888:16074   */\n      pop\n      pop\n      jump\t// out\n        /* \"#utility.yul\":16080:16623   */\n    tag_151:\n        /* \"#utility.yul\":16181:16183   */\n      0x1f\n        /* \"#utility.yul\":16176:16179   */\n      dup3\n        /* \"#utility.yul\":16173:16184   */\n      gt\n        /* \"#utility.yul\":16170:16616   */\n      iszero\n      tag_328\n      jumpi\n        /* \"#utility.yul\":16215:16253   */\n      tag_329\n        /* \"#utility.yul\":16247:16252   */\n      dup2\n        /* \"#utility.yul\":16215:16253   */\n      tag_140\n      jump\t// in\n    tag_329:\n        /* \"#utility.yul\":16299:16328   */\n      tag_330\n        /* \"#utility.yul\":16317:16327   */\n      dup5\n        /* \"#utility.yul\":16299:16328   */\n      tag_141\n      jump\t// in\n    tag_330:\n        /* \"#utility.yul\":16289:16297   */\n      dup2\n        /* \"#utility.yul\":16285:16329   */\n      add\n        /* \"#utility.yul\":16482:16484   */\n      0x20\n        /* \"#utility.yul\":16470:16480   */\n      dup6\n        /* \"#utility.yul\":16467:16485   */\n      lt\n        /* \"#utility.yul\":16464:16513   */\n      iszero\n      tag_331\n      jumpi\n        /* \"#utility.yul\":16503:16511   */\n      dup2\n        /* \"#utility.yul\":16488:16511   */\n      swap1\n      pop\n        /* \"#utility.yul\":16464:16513   */\n    tag_331:\n        /* \"#utility.yul\":16526:16606   */\n      tag_332\n        /* \"#utility.yul\":16582:16604   */\n      tag_333\n        /* \"#utility.yul\":16600:16603   */\n      dup6\n        /* \"#utility.yul\":16582:16604   */\n      tag_141\n      jump\t// in\n    tag_333:\n        /* \"#utility.yul\":16572:16580   */\n      dup4\n        /* \"#utility.yul\":16568:16605   */\n      add\n        /* \"#utility.yul\":16555:16566   */\n      dup3\n        /* \"#utility.yul\":16526:16606   */\n      tag_150\n      jump\t// in\n    tag_332:\n        /* \"#utility.yul\":16185:16616   */\n      pop\n      pop\n        /* \"#utility.yul\":16170:16616   */\n    tag_328:\n        /* \"#utility.yul\":16080:16623   */\n      pop\n      pop\n      pop\n      jump\t// out\n        /* \"#utility.yul\":16629:16746   */\n    tag_152:\n        /* \"#utility.yul\":16683:16691   */\n      0x00\n        /* \"#utility.yul\":16733:16738   */\n      dup3\n        /* \"#utility.yul\":16727:16731   */\n      dup3\n        /* \"#utility.yul\":16723:16739   */\n      shr\n        /* \"#utility.yul\":16702:16739   */\n      swap1\n      pop\n        /* \"#utility.yul\":16629:16746   */\n      swap3\n      swap2\n      pop\n      pop\n      jump\t// out\n        /* \"#utility.yul\":16752:16921   */\n    tag_153:\n        /* \"#utility.yul\":16796:16802   */\n      0x00\n        /* \"#utility.yul\":16829:16880   */\n      tag_336\n        /* \"#utility.yul\":16877:16878   */\n      0x00\n        /* \"#utility.yul\":16873:16879   */\n      not\n        /* \"#utility.yul\":16865:16870   */\n      dup5\n        /* \"#utility.yul\":16862:16863   */\n      0x08\n        /* \"#utility.yul\":16858:16871   */\n      mul\n        /* \"#utility.yul\":16829:16880   */\n      tag_152\n      jump\t// in\n    tag_336:\n        /* \"#utility.yul\":16825:16881   */\n      not\n        /* \"#utility.yul\":16910:16914   */\n      dup1\n        /* \"#utility.yul\":16904:16908   */\n      dup4\n        /* \"#utility.yul\":16900:16915   */\n      and\n        /* \"#utility.yul\":16890:16915   */\n      swap2\n      pop\n        /* \"#utility.yul\":16803:16921   */\n      pop\n        /* \"#utility.yul\":16752:16921   */\n      swap3\n      swap2\n      pop\n      pop\n      jump\t// out\n        /* \"#utility.yul\":16926:17221   */\n    tag_154:\n        /* \"#utility.yul\":17002:17006   */\n      0x00\n        /* \"#utility.yul\":17148:17177   */\n      tag_338\n        /* \"#utility.yul\":17173:17176   */\n      dup4\n        /* \"#utility.yul\":17167:17171   */\n      dup4\n        /* \"#utility.yul\":17148:17177   */\n      tag_153\n      jump\t// in\n    tag_338:\n        /* \"#utility.yul\":17140:17177   */\n      swap2\n      pop\n        /* \"#utility.yul\":17210:17213   */\n      dup3\n        /* \"#utility.yul\":17207:17208   */\n      0x02\n        /* \"#utility.yul\":17203:17214   */\n      mul\n        /* \"#utility.yul\":17197:17201   */\n      dup3\n        /* \"#utility.yul\":17194:17215   */\n      or\n        /* \"#utility.yul\":17186:17215   */\n      swap1\n      pop\n        /* \"#utility.yul\":16926:17221   */\n      swap3\n      swap2\n      pop\n      pop\n      jump\t// out\n        /* \"#utility.yul\":17226:18621   */\n    tag_77:\n        /* \"#utility.yul\":17343:17380   */\n      tag_340\n        /* \"#utility.yul\":17376:17379   */\n      dup3\n        /* \"#utility.yul\":17343:17380   */\n      tag_122\n      jump\t// in\n    tag_340:\n        /* \"#utility.yul\":17445:17463   */\n      0xffffffffffffffff\n        /* \"#utility.yul\":17437:17443   */\n      dup2\n        /* \"#utility.yul\":17434:17464   */\n      gt\n        /* \"#utility.yul\":17431:17487   */\n      iszero\n      tag_341\n      jumpi\n        /* \"#utility.yul\":17467:17485   */\n      tag_342\n      tag_115\n      jump\t// in\n    tag_342:\n        /* \"#utility.yul\":17431:17487   */\n    tag_341:\n        /* \"#utility.yul\":17511:17549   */\n      tag_343\n        /* \"#utility.yul\":17543:17547   */\n      dup3\n        /* \"#utility.yul\":17537:17548   */\n      sload\n        /* \"#utility.yul\":17511:17549   */\n      tag_79\n      jump\t// in\n    tag_343:\n        /* \"#utility.yul\":17596:17663   */\n      tag_344\n        /* \"#utility.yul\":17656:17662   */\n      dup3\n        /* \"#utility.yul\":17648:17654   */\n      dup3\n        /* \"#utility.yul\":17642:17646   */\n      dup6\n        /* \"#utility.yul\":17596:17663   */\n      tag_151\n      jump\t// in\n    tag_344:\n        /* \"#utility.yul\":17690:17691   */\n      0x00\n        /* \"#utility.yul\":17714:17718   */\n      0x20\n        /* \"#utility.yul\":17701:17718   */\n      swap1\n      pop\n        /* \"#utility.yul\":17746:17748   */\n      0x1f\n        /* \"#utility.yul\":17738:17744   */\n      dup4\n        /* \"#utility.yul\":17735:17749   */\n      gt\n        /* \"#utility.yul\":17763:17764   */\n      0x01\n        /* \"#utility.yul\":17758:18376   */\n      dup2\n      eq\n      tag_346\n      jumpi\n        /* \"#utility.yul\":18420:18421   */\n      0x00\n        /* \"#utility.yul\":18437:18443   */\n      dup5\n        /* \"#utility.yul\":18434:18511   */\n      iszero\n      tag_347\n      jumpi\n        /* \"#utility.yul\":18486:18495   */\n      dup3\n        /* \"#utility.yul\":18481:18484   */\n      dup8\n        /* \"#utility.yul\":18477:18496   */\n      add\n        /* \"#utility.yul\":18471:18497   */\n      mload\n        /* \"#utility.yul\":18462:18497   */\n      swap1\n      pop\n        /* \"#utility.yul\":18434:18511   */\n    tag_347:\n        /* \"#utility.yul\":18537:18604   */\n      tag_348\n        /* \"#utility.yul\":18597:18603   */\n      dup6\n        /* \"#utility.yul\":18590:18595   */\n      dup3\n        /* \"#utility.yul\":18537:18604   */\n      tag_154\n      jump\t// in\n    tag_348:\n        /* \"#utility.yul\":18531:18535   */\n      dup7\n        /* \"#utility.yul\":18524:18605   */\n      sstore\n        /* \"#utility.yul\":18393:18615   */\n      pop\n        /* \"#utility.yul\":17728:18615   */\n      jump(tag_345)\n        /* \"#utility.yul\":17758:18376   */\n    tag_346:\n        /* \"#utility.yul\":17810:17814   */\n      0x1f\n        /* \"#utility.yul\":17806:17815   */\n      not\n        /* \"#utility.yul\":17798:17804   */\n      dup5\n        /* \"#utility.yul\":17794:17816   */\n      and\n        /* \"#utility.yul\":17844:17881   */\n      tag_349\n        /* \"#utility.yul\":17876:17880   */\n      dup7\n        /* \"#utility.yul\":17844:17881   */\n      tag_140\n      jump\t// in\n    tag_349:\n        /* \"#utility.yul\":17903:17904   */\n      0x00\n        /* \"#utility.yul\":17917:18125   */\n    tag_350:\n        /* \"#utility.yul\":17931:17938   */\n      dup3\n        /* \"#utility.yul\":17928:17929   */\n      dup2\n        /* \"#utility.yul\":17925:17939   */\n      lt\n        /* \"#utility.yul\":17917:18125   */\n      iszero\n      tag_352\n      jumpi\n        /* \"#utility.yul\":18010:18019   */\n      dup5\n        /* \"#utility.yul\":18005:18008   */\n      dup10\n        /* \"#utility.yul\":18001:18020   */\n      add\n        /* \"#utility.yul\":17995:18021   */\n      mload\n        /* \"#utility.yul\":17987:17993   */\n      dup3\n        /* \"#utility.yul\":17980:18022   */\n      sstore\n        /* \"#utility.yul\":18061:18062   */\n      0x01\n        /* \"#utility.yul\":18053:18059   */\n      dup3\n        /* \"#utility.yul\":18049:18063   */\n      add\n        /* \"#utility.yul\":18039:18063   */\n      swap2\n      pop\n        /* \"#utility.yul\":18108:18110   */\n      0x20\n        /* \"#utility.yul\":18097:18106   */\n      dup6\n        /* \"#utility.yul\":18093:18111   */\n      add\n        /* \"#utility.yul\":18080:18111   */\n      swap5\n      pop\n        /* \"#utility.yul\":17954:17958   */\n      0x20\n        /* \"#utility.yul\":17951:17952   */\n      dup2\n        /* \"#utility.yul\":17947:17959   */\n      add\n        /* \"#utility.yul\":17942:17959   */\n      swap1\n      pop\n        /* \"#utility.yul\":17917:18125   */\n      jump(tag_350)\n    tag_352:\n        /* \"#utility.yul\":18153:18159   */\n      dup7\n        /* \"#utility.yul\":18144:18151   */\n      dup4\n        /* \"#utility.yul\":18141:18160   */\n      lt\n        /* \"#utility.yul\":18138:18317   */\n      iszero\n      tag_353\n      jumpi\n        /* \"#utility.yul\":18211:18220   */\n      dup5\n        /* \"#utility.yul\":18206:18209   */\n      dup10\n        /* \"#utility.yul\":18202:18221   */\n      add\n        /* \"#utility.yul\":18196:18222   */\n      mload\n        /* \"#utility.yul\":18254:18302   */\n      tag_354\n        /* \"#utility.yul\":18296:18300   */\n      0x1f\n        /* \"#utility.yul\":18288:18294   */\n      dup10\n        /* \"#utility.yul\":18284:18301   */\n      and\n        /* \"#utility.yul\":18273:18282   */\n      dup3\n        /* \"#utility.yul\":18254:18302   */\n      tag_153\n      jump\t// in\n    tag_354:\n        /* \"#utility.yul\":18246:18252   */\n      dup4\n        /* \"#utility.yul\":18239:18303   */\n      sstore\n        /* \"#utility.yul\":18161:18317   */\n      pop\n        /* \"#utility.yul\":18138:18317   */\n    tag_353:\n        /* \"#utility.yul\":18363:18364   */\n      0x01\n        /* \"#utility.yul\":18359:18360   */\n      0x02\n        /* \"#utility.yul\":18351:18357   */\n      dup9\n        /* \"#utility.yul\":18347:18361   */\n      mul\n        /* \"#utility.yul\":18343:18365   */\n      add\n        /* \"#utility.yul\":18337:18341   */\n      dup9\n        /* \"#utility.yul\":18330:18366   */\n      sstore\n        /* \"#utility.yul\":17765:18376   */\n      pop\n      pop\n      pop\n        /* \"#utility.yul\":17728:18615   */\n    tag_345:\n      pop\n        /* \"#utility.yul\":17318:18621   */\n      pop\n      pop\n      pop\n        /* \"#utility.yul\":17226:18621   */\n      pop\n      pop\n      jump\t// out\n\n    auxdata: 0xa2646970667358221220364a2b13bc3339aaddfb5b5c504f33837d387f736eb032daf626ed2eb099815164736f6c634300081a0033\n}\n",
				"bytecode": {
					"linkReferences": {},
					"object": "6080604052348015600e575f80fd5b5061106a8061001c5f395ff3fe60806040526004361061006f575f3560e01c80634545ed9f1161004d5780634545ed9f14610107578063c8ca85dc14610143578063d4aef9ba14610173578063ddfc5cfe146101af5761006f565b80630d1e66671461007357806343ab265f146100af57806345115bd8146100eb575b5f80fd5b34801561007e575f80fd5b50610099600480360381019061009491906106cf565b6101ed565b6040516100a69190610714565b60405180910390f35b3480156100ba575f80fd5b506100d560048036038101906100d09190610787565b610208565b6040516100e291906107c1565b60405180910390f35b61010560048036038101906101009190610815565b610228565b005b348015610112575f80fd5b5061012d600480360381019061012891906106cf565b61032e565b60405161013a91906107c1565b60405180910390f35b61015d6004803603810190610158919061098f565b6103a6565b60405161016a9190610a92565b60405180910390f35b34801561017e575f80fd5b5061019960048036038101906101949190610787565b6104c8565b6040516101a69190610a92565b60405180910390f35b3480156101ba575f80fd5b506101d560048036038101906101d09190610787565b6105c1565b6040516101e493929190610afa565b60405180910390f35b5f808211156101ff5760019050610203565b5f90505b919050565b5f8173ffffffffffffffffffffffffffffffffffffffff16319050919050565b5f808373ffffffffffffffffffffffffffffffffffffffff163460405161024e90610b63565b5f6040518083038185875af1925050503d805f8114610288576040519150601f19603f3d011682016040523d82523d5f602084013e61028d565b606091505b5091509150816102d2576040517f08c379a00000000000000000000000000000000000000000000000000000000081526004016102c990610be7565b60405180910390fd5b60015f803373ffffffffffffffffffffffffffffffffffffffff1673ffffffffffffffffffffffffffffffffffffffff1681526020019081526020015f206001015f8282546103219190610c32565b9250508190555050505050565b5f600182101580156103415750600a8211155b610380576040517f08c379a000000000000000000000000000000000000000000000000000000000815260040161037790610caf565b60405180910390fd5b5f60088361038e9190610ccd565b6107d061039b9190610d3b565b905080915050919050565b6103ae61066c565b5f805f3373ffffffffffffffffffffffffffffffffffffffff1673ffffffffffffffffffffffffffffffffffffffff1681526020019081526020015f20905082815f0190816103fd9190610f65565b50600a8160010181905550348160020181905550806040518060600160405290815f8201805461042c90610d98565b80601f016020809104026020016040519081016040528092919081815260200182805461045890610d98565b80156104a35780601f1061047a576101008083540402835291602001916104a3565b820191905f5260205f20905b81548152906001019060200180831161048657829003601f168201915b5050505050815260200160018201548152602001600282015481525050915050919050565b6104d061066c565b5f808373ffffffffffffffffffffffffffffffffffffffff1673ffffffffffffffffffffffffffffffffffffffff1681526020019081526020015f206040518060600160405290815f8201805461052690610d98565b80601f016020809104026020016040519081016040528092919081815260200182805461055290610d98565b801561059d5780601f106105745761010080835404028352916020019161059d565b820191905f5260205f20905b81548152906001019060200180831161058057829003601f168201915b50505050508152602001600182015481526020016002820154815250509050919050565b5f602052805f5260405f205f91509050805f0180546105df90610d98565b80601f016020809104026020016040519081016040528092919081815260200182805461060b90610d98565b80156106565780601f1061062d57610100808354040283529160200191610656565b820191905f5260205f20905b81548152906001019060200180831161063957829003601f168201915b5050505050908060010154908060020154905083565b6040518060600160405280606081526020015f81526020015f81525090565b5f604051905090565b5f80fd5b5f80fd5b5f819050919050565b6106ae8161069c565b81146106b8575f80fd5b50565b5f813590506106c9816106a5565b92915050565b5f602082840312156106e4576106e3610694565b5b5f6106f1848285016106bb565b91505092915050565b5f8115159050919050565b61070e816106fa565b82525050565b5f6020820190506107275f830184610705565b92915050565b5f73ffffffffffffffffffffffffffffffffffffffff82169050919050565b5f6107568261072d565b9050919050565b6107668161074c565b8114610770575f80fd5b50565b5f813590506107818161075d565b92915050565b5f6020828403121561079c5761079b610694565b5b5f6107a984828501610773565b91505092915050565b6107bb8161069c565b82525050565b5f6020820190506107d45f8301846107b2565b92915050565b5f6107e48261072d565b9050919050565b6107f4816107da565b81146107fe575f80fd5b50565b5f8135905061080f816107eb565b92915050565b5f806040838503121561082b5761082a610694565b5b5f61083885828601610801565b9250506020610849858286016106bb565b9150509250929050565b5f80fd5b5f80fd5b5f601f19601f8301169050919050565b7f4e487b71000000000000000000000000000000000000000000000000000000005f52604160045260245ffd5b6108a18261085b565b810181811067ffffffffffffffff821117156108c0576108bf61086b565b5b80604052505050565b5f6108d261068b565b90506108de8282610898565b919050565b5f67ffffffffffffffff8211156108fd576108fc61086b565b5b6109068261085b565b9050602081019050919050565b828183375f83830152505050565b5f61093361092e846108e3565b6108c9565b90508281526020810184848401111561094f5761094e610857565b5b61095a848285610913565b509392505050565b5f82601f83011261097657610975610853565b5b8135610986848260208601610921565b91505092915050565b5f602082840312156109a4576109a3610694565b5b5f82013567ffffffffffffffff8111156109c1576109c0610698565b5b6109cd84828501610962565b91505092915050565b5f81519050919050565b5f82825260208201905092915050565b8281835e5f83830152505050565b5f610a08826109d6565b610a1281856109e0565b9350610a228185602086016109f0565b610a2b8161085b565b840191505092915050565b610a3f8161069c565b82525050565b5f606083015f8301518482035f860152610a5f82826109fe565b9150506020830151610a746020860182610a36565b506040830151610a876040860182610a36565b508091505092915050565b5f6020820190508181035f830152610aaa8184610a45565b905092915050565b5f82825260208201905092915050565b5f610acc826109d6565b610ad68185610ab2565b9350610ae68185602086016109f0565b610aef8161085b565b840191505092915050565b5f6060820190508181035f830152610b128186610ac2565b9050610b2160208301856107b2565b610b2e60408301846107b2565b949350505050565b5f81905092915050565b50565b5f610b4e5f83610b36565b9150610b5982610b40565b5f82019050919050565b5f610b6d82610b43565b9150819050919050565b7f4661696c656420746f2073656e64206465706f73697420746f2070726f706f6e5f8201527f656e740000000000000000000000000000000000000000000000000000000000602082015250565b5f610bd1602383610ab2565b9150610bdc82610b77565b604082019050919050565b5f6020820190508181035f830152610bfe81610bc5565b9050919050565b7f4e487b71000000000000000000000000000000000000000000000000000000005f52601160045260245ffd5b5f610c3c8261069c565b9150610c478361069c565b9250828201905080821115610c5f57610c5e610c05565b5b92915050565b7f4e6f7420612076616c69642072657075746174696f6e2073636f7265000000005f82015250565b5f610c99601c83610ab2565b9150610ca482610c65565b602082019050919050565b5f6020820190508181035f830152610cc681610c8d565b9050919050565b5f610cd78261069c565b9150610ce28361069c565b9250828202610cf08161069c565b91508282048414831517610d0757610d06610c05565b5b5092915050565b7f4e487b71000000000000000000000000000000000000000000000000000000005f52601260045260245ffd5b5f610d458261069c565b9150610d508361069c565b925082610d6057610d5f610d0e565b5b828204905092915050565b7f4e487b71000000000000000000000000000000000000000000000000000000005f52602260045260245ffd5b5f6002820490506001821680610daf57607f821691505b602082108103610dc257610dc1610d6b565b5b50919050565b5f819050815f5260205f209050919050565b5f6020601f8301049050919050565b5f82821b905092915050565b5f60088302610e247fffffffffffffffffffffffffffffffffffffffffffffffffffffffffffffffff82610de9565b610e2e8683610de9565b95508019841693508086168417925050509392505050565b5f819050919050565b5f610e69610e64610e5f8461069c565b610e46565b61069c565b9050919050565b5f819050919050565b610e8283610e4f565b610e96610e8e82610e70565b848454610df5565b825550505050565b5f90565b610eaa610e9e565b610eb5818484610e79565b505050565b5b81811015610ed857610ecd5f82610ea2565b600181019050610ebb565b5050565b601f821115610f1d57610eee81610dc8565b610ef784610dda565b81016020851015610f06578190505b610f1a610f1285610dda565b830182610eba565b50505b505050565b5f82821c905092915050565b5f610f3d5f1984600802610f22565b1980831691505092915050565b5f610f558383610f2e565b9150826002028217905092915050565b610f6e826109d6565b67ffffffffffffffff811115610f8757610f8661086b565b5b610f918254610d98565b610f9c828285610edc565b5f60209050601f831160018114610fcd575f8415610fbb578287015190505b610fc58582610f4a565b86555061102c565b601f198416610fdb86610dc8565b5f5b8281101561100257848901518255600182019150602085019450602081019050610fdd565b8683101561101f578489015161101b601f891682610f2e565b8355505b6001600288020188555050505b50505050505056fea2646970667358221220364a2b13bc3339aaddfb5b5c504f33837d387f736eb032daf626ed2eb099815164736f6c634300081a0033",
					"opcodes": "PUSH1 0x80 PUSH1 0x40 MSTORE CALLVALUE DUP1 ISZERO PUSH1 0xE JUMPI PUSH0 DUP1 REVERT JUMPDEST POP PUSH2 0x106A DUP1 PUSH2 0x1C PUSH0 CODECOPY PUSH0 RETURN INVALID PUSH1 0x80 PUSH1 0x40 MSTORE PUSH1 0x4 CALLDATASIZE LT PUSH2 0x6F JUMPI PUSH0 CALLDATALOAD PUSH1 0xE0 SHR DUP1 PUSH4 0x4545ED9F GT PUSH2 0x4D JUMPI DUP1 PUSH4 0x4545ED9F EQ PUSH2 0x107 JUMPI DUP1 PUSH4 0xC8CA85DC EQ PUSH2 0x143 JUMPI DUP1 PUSH4 0xD4AEF9BA EQ PUSH2 0x173 JUMPI DUP1 PUSH4 0xDDFC5CFE EQ PUSH2 0x1AF JUMPI PUSH2 0x6F JUMP JUMPDEST DUP1 PUSH4 0xD1E6667 EQ PUSH2 0x73 JUMPI DUP1 PUSH4 0x43AB265F EQ PUSH2 0xAF JUMPI DUP1 PUSH4 0x45115BD8 EQ PUSH2 0xEB JUMPI JUMPDEST PUSH0 DUP1 REVERT JUMPDEST CALLVALUE DUP1 ISZERO PUSH2 0x7E JUMPI PUSH0 DUP1 REVERT JUMPDEST POP PUSH2 0x99 PUSH1 0x4 DUP1 CALLDATASIZE SUB DUP2 ADD SWAP1 PUSH2 0x94 SWAP2 SWAP1 PUSH2 0x6CF JUMP JUMPDEST PUSH2 0x1ED JUMP JUMPDEST PUSH1 0x40 MLOAD PUSH2 0xA6 SWAP2 SWAP1 PUSH2 0x714 JUMP JUMPDEST PUSH1 0x40 MLOAD DUP1 SWAP2 SUB SWAP1 RETURN JUMPDEST CALLVALUE DUP1 ISZERO PUSH2 0xBA JUMPI PUSH0 DUP1 REVERT JUMPDEST POP PUSH2 0xD5 PUSH1 0x4 DUP1 CALLDATASIZE SUB DUP2 ADD SWAP1 PUSH2 0xD0 SWAP2 SWAP1 PUSH2 0x787 JUMP JUMPDEST PUSH2 0x208 JUMP JUMPDEST PUSH1 0x40 MLOAD PUSH2 0xE2 SWAP2 SWAP1 PUSH2 0x7C1 JUMP JUMPDEST PUSH1 0x40 MLOAD DUP1 SWAP2 SUB SWAP1 RETURN JUMPDEST PUSH2 0x105 PUSH1 0x4 DUP1 CALLDATASIZE SUB DUP2 ADD SWAP1 PUSH2 0x100 SWAP2 SWAP1 PUSH2 0x815 JUMP JUMPDEST PUSH2 0x228 JUMP JUMPDEST STOP JUMPDEST CALLVALUE DUP1 ISZERO PUSH2 0x112 JUMPI PUSH0 DUP1 REVERT JUMPDEST POP PUSH2 0x12D PUSH1 0x4 DUP1 CALLDATASIZE SUB DUP2 ADD SWAP1 PUSH2 0x128 SWAP2 SWAP1 PUSH2 0x6CF JUMP JUMPDEST PUSH2 0x32E JUMP JUMPDEST PUSH1 0x40 MLOAD PUSH2 0x13A SWAP2 SWAP1 PUSH2 0x7C1 JUMP JUMPDEST PUSH1 0x40 MLOAD DUP1 SWAP2 SUB SWAP1 RETURN JUMPDEST PUSH2 0x15D PUSH1 0x4 DUP1 CALLDATASIZE SUB DUP2 ADD SWAP1 PUSH2 0x158 SWAP2 SWAP1 PUSH2 0x98F JUMP JUMPDEST PUSH2 0x3A6 JUMP JUMPDEST PUSH1 0x40 MLOAD PUSH2 0x16A SWAP2 SWAP1 PUSH2 0xA92 JUMP JUMPDEST PUSH1 0x40 MLOAD DUP1 SWAP2 SUB SWAP1 RETURN JUMPDEST CALLVALUE DUP1 ISZERO PUSH2 0x17E JUMPI PUSH0 DUP1 REVERT JUMPDEST POP PUSH2 0x199 PUSH1 0x4 DUP1 CALLDATASIZE SUB DUP2 ADD SWAP1 PUSH2 0x194 SWAP2 SWAP1 PUSH2 0x787 JUMP JUMPDEST PUSH2 0x4C8 JUMP JUMPDEST PUSH1 0x40 MLOAD PUSH2 0x1A6 SWAP2 SWAP1 PUSH2 0xA92 JUMP JUMPDEST PUSH1 0x40 MLOAD DUP1 SWAP2 SUB SWAP1 RETURN JUMPDEST CALLVALUE DUP1 ISZERO PUSH2 0x1BA JUMPI PUSH0 DUP1 REVERT JUMPDEST POP PUSH2 0x1D5 PUSH1 0x4 DUP1 CALLDATASIZE SUB DUP2 ADD SWAP1 PUSH2 0x1D0 SWAP2 SWAP1 PUSH2 0x787 JUMP JUMPDEST PUSH2 0x5C1 JUMP JUMPDEST PUSH1 0x40 MLOAD PUSH2 0x1E4 SWAP4 SWAP3 SWAP2 SWAP1 PUSH2 0xAFA JUMP JUMPDEST PUSH1 0x40 MLOAD DUP1 SWAP2 SUB SWAP1 RETURN JUMPDEST PUSH0 DUP1 DUP3 GT ISZERO PUSH2 0x1FF JUMPI PUSH1 0x1 SWAP1 POP PUSH2 0x203 JUMP JUMPDEST PUSH0 SWAP1 POP JUMPDEST SWAP2 SWAP1 POP JUMP JUMPDEST PUSH0 DUP2 PUSH20 0xFFFFFFFFFFFFFFFFFFFFFFFFFFFFFFFFFFFFFFFF AND BALANCE SWAP1 POP SWAP2 SWAP1 POP JUMP JUMPDEST PUSH0 DUP1 DUP4 PUSH20 0xFFFFFFFFFFFFFFFFFFFFFFFFFFFFFFFFFFFFFFFF AND CALLVALUE PUSH1 0x40 MLOAD PUSH2 0x24E SWAP1 PUSH2 0xB63 JUMP JUMPDEST PUSH0 PUSH1 0x40 MLOAD DUP1 DUP4 SUB DUP2 DUP6 DUP8 GAS CALL SWAP3 POP POP POP RETURNDATASIZE DUP1 PUSH0 DUP2 EQ PUSH2 0x288 JUMPI PUSH1 0x40 MLOAD SWAP2 POP PUSH1 0x1F NOT PUSH1 0x3F RETURNDATASIZE ADD AND DUP3 ADD PUSH1 0x40 MSTORE RETURNDATASIZE DUP3 MSTORE RETURNDATASIZE PUSH0 PUSH1 0x20 DUP5 ADD RETURNDATACOPY PUSH2 0x28D JUMP JUMPDEST PUSH1 0x60 SWAP2 POP JUMPDEST POP SWAP2 POP SWAP2 POP DUP2 PUSH2 0x2D2 JUMPI PUSH1 0x40 MLOAD PUSH32 0x8C379A000000000000000000000000000000000000000000000000000000000 DUP2 MSTORE PUSH1 0x4 ADD PUSH2 0x2C9 SWAP1 PUSH2 0xBE7 JUMP JUMPDEST PUSH1 0x40 MLOAD DUP1 SWAP2 SUB SWAP1 REVERT JUMPDEST PUSH1 0x1 PUSH0 DUP1 CALLER PUSH20 0xFFFFFFFFFFFFFFFFFFFFFFFFFFFFFFFFFFFFFFFF AND PUSH20 0xFFFFFFFFFFFFFFFFFFFFFFFFFFFFFFFFFFFFFFFF AND DUP2 MSTORE PUSH1 0x20 ADD SWAP1 DUP2 MSTORE PUSH1 0x20 ADD PUSH0 KECCAK256 PUSH1 0x1 ADD PUSH0 DUP3 DUP3 SLOAD PUSH2 0x321 SWAP2 SWAP1 PUSH2 0xC32 JUMP JUMPDEST SWAP3 POP POP DUP2 SWAP1 SSTORE POP POP POP POP POP JUMP JUMPDEST PUSH0 PUSH1 0x1 DUP3 LT ISZERO DUP1 ISZERO PUSH2 0x341 JUMPI POP PUSH1 0xA DUP3 GT ISZERO JUMPDEST PUSH2 0x380 JUMPI PUSH1 0x40 MLOAD PUSH32 0x8C379A000000000000000000000000000000000000000000000000000000000 DUP2 MSTORE PUSH1 0x4 ADD PUSH2 0x377 SWAP1 PUSH2 0xCAF JUMP JUMPDEST PUSH1 0x40 MLOAD DUP1 SWAP2 SUB SWAP1 REVERT JUMPDEST PUSH0 PUSH1 0x8 DUP4 PUSH2 0x38E SWAP2 SWAP1 PUSH2 0xCCD JUMP JUMPDEST PUSH2 0x7D0 PUSH2 0x39B SWAP2 SWAP1 PUSH2 0xD3B JUMP JUMPDEST SWAP1 POP DUP1 SWAP2 POP POP SWAP2 SWAP1 POP JUMP JUMPDEST PUSH2 0x3AE PUSH2 0x66C JUMP JUMPDEST PUSH0 DUP1 PUSH0 CALLER PUSH20 0xFFFFFFFFFFFFFFFFFFFFFFFFFFFFFFFFFFFFFFFF AND PUSH20 0xFFFFFFFFFFFFFFFFFFFFFFFFFFFFFFFFFFFFFFFF AND DUP2 MSTORE PUSH1 0x20 ADD SWAP1 DUP2 MSTORE PUSH1 0x20 ADD PUSH0 KECCAK256 SWAP1 POP DUP3 DUP2 PUSH0 ADD SWAP1 DUP2 PUSH2 0x3FD SWAP2 SWAP1 PUSH2 0xF65 JUMP JUMPDEST POP PUSH1 0xA DUP2 PUSH1 0x1 ADD DUP2 SWAP1 SSTORE POP CALLVALUE DUP2 PUSH1 0x2 ADD DUP2 SWAP1 SSTORE POP DUP1 PUSH1 0x40 MLOAD DUP1 PUSH1 0x60 ADD PUSH1 0x40 MSTORE SWAP1 DUP2 PUSH0 DUP3 ADD DUP1 SLOAD PUSH2 0x42C SWAP1 PUSH2 0xD98 JUMP JUMPDEST DUP1 PUSH1 0x1F ADD PUSH1 0x20 DUP1 SWAP2 DIV MUL PUSH1 0x20 ADD PUSH1 0x40 MLOAD SWAP1 DUP2 ADD PUSH1 0x40 MSTORE DUP1 SWAP3 SWAP2 SWAP1 DUP2 DUP2 MSTORE PUSH1 0x20 ADD DUP3 DUP1 SLOAD PUSH2 0x458 SWAP1 PUSH2 0xD98 JUMP JUMPDEST DUP1 ISZERO PUSH2 0x4A3 JUMPI DUP1 PUSH1 0x1F LT PUSH2 0x47A JUMPI PUSH2 0x100 DUP1 DUP4 SLOAD DIV MUL DUP4 MSTORE SWAP2 PUSH1 0x20 ADD SWAP2 PUSH2 0x4A3 JUMP JUMPDEST DUP3 ADD SWAP2 SWAP1 PUSH0 MSTORE PUSH1 0x20 PUSH0 KECCAK256 SWAP1 JUMPDEST DUP2 SLOAD DUP2 MSTORE SWAP1 PUSH1 0x1 ADD SWAP1 PUSH1 0x20 ADD DUP1 DUP4 GT PUSH2 0x486 JUMPI DUP3 SWAP1 SUB PUSH1 0x1F AND DUP3 ADD SWAP2 JUMPDEST POP POP POP POP POP DUP2 MSTORE PUSH1 0x20 ADD PUSH1 0x1 DUP3 ADD SLOAD DUP2 MSTORE PUSH1 0x20 ADD PUSH1 0x2 DUP3 ADD SLOAD DUP2 MSTORE POP POP SWAP2 POP POP SWAP2 SWAP1 POP JUMP JUMPDEST PUSH2 0x4D0 PUSH2 0x66C JUMP JUMPDEST PUSH0 DUP1 DUP4 PUSH20 0xFFFFFFFFFFFFFFFFFFFFFFFFFFFFFFFFFFFFFFFF AND PUSH20 0xFFFFFFFFFFFFFFFFFFFFFFFFFFFFFFFFFFFFFFFF AND DUP2 MSTORE PUSH1 0x20 ADD SWAP1 DUP2 MSTORE PUSH1 0x20 ADD PUSH0 KECCAK256 PUSH1 0x40 MLOAD DUP1 PUSH1 0x60 ADD PUSH1 0x40 MSTORE SWAP1 DUP2 PUSH0 DUP3 ADD DUP1 SLOAD PUSH2 0x526 SWAP1 PUSH2 0xD98 JUMP JUMPDEST DUP1 PUSH1 0x1F ADD PUSH1 0x20 DUP1 SWAP2 DIV MUL PUSH1 0x20 ADD PUSH1 0x40 MLOAD SWAP1 DUP2 ADD PUSH1 0x40 MSTORE DUP1 SWAP3 SWAP2 SWAP1 DUP2 DUP2 MSTORE PUSH1 0x20 ADD DUP3 DUP1 SLOAD PUSH2 0x552 SWAP1 PUSH2 0xD98 JUMP JUMPDEST DUP1 ISZERO PUSH2 0x59D JUMPI DUP1 PUSH1 0x1F LT PUSH2 0x574 JUMPI PUSH2 0x100 DUP1 DUP4 SLOAD DIV MUL DUP4 MSTORE SWAP2 PUSH1 0x20 ADD SWAP2 PUSH2 0x59D JUMP JUMPDEST DUP3 ADD SWAP2 SWAP1 PUSH0 MSTORE PUSH1 0x20 PUSH0 KECCAK256 SWAP1 JUMPDEST DUP2 SLOAD DUP2 MSTORE SWAP1 PUSH1 0x1 ADD SWAP1 PUSH1 0x20 ADD DUP1 DUP4 GT PUSH2 0x580 JUMPI DUP3 SWAP1 SUB PUSH1 0x1F AND DUP3 ADD SWAP2 JUMPDEST POP POP POP POP POP DUP2 MSTORE PUSH1 0x20 ADD PUSH1 0x1 DUP3 ADD SLOAD DUP2 MSTORE PUSH1 0x20 ADD PUSH1 0x2 DUP3 ADD SLOAD DUP2 MSTORE POP POP SWAP1 POP SWAP2 SWAP1 POP JUMP JUMPDEST PUSH0 PUSH1 0x20 MSTORE DUP1 PUSH0 MSTORE PUSH1 0x40 PUSH0 KECCAK256 PUSH0 SWAP2 POP SWAP1 POP DUP1 PUSH0 ADD DUP1 SLOAD PUSH2 0x5DF SWAP1 PUSH2 0xD98 JUMP JUMPDEST DUP1 PUSH1 0x1F ADD PUSH1 0x20 DUP1 SWAP2 DIV MUL PUSH1 0x20 ADD PUSH1 0x40 MLOAD SWAP1 DUP2 ADD PUSH1 0x40 MSTORE DUP1 SWAP3 SWAP2 SWAP1 DUP2 DUP2 MSTORE PUSH1 0x20 ADD DUP3 DUP1 SLOAD PUSH2 0x60B SWAP1 PUSH2 0xD98 JUMP JUMPDEST DUP1 ISZERO PUSH2 0x656 JUMPI DUP1 PUSH1 0x1F LT PUSH2 0x62D JUMPI PUSH2 0x100 DUP1 DUP4 SLOAD DIV MUL DUP4 MSTORE SWAP2 PUSH1 0x20 ADD SWAP2 PUSH2 0x656 JUMP JUMPDEST DUP3 ADD SWAP2 SWAP1 PUSH0 MSTORE PUSH1 0x20 PUSH0 KECCAK256 SWAP1 JUMPDEST DUP2 SLOAD DUP2 MSTORE SWAP1 PUSH1 0x1 ADD SWAP1 PUSH1 0x20 ADD DUP1 DUP4 GT PUSH2 0x639 JUMPI DUP3 SWAP1 SUB PUSH1 0x1F AND DUP3 ADD SWAP2 JUMPDEST POP POP POP POP POP SWAP1 DUP1 PUSH1 0x1 ADD SLOAD SWAP1 DUP1 PUSH1 0x2 ADD SLOAD SWAP1 POP DUP4 JUMP JUMPDEST PUSH1 0x40 MLOAD DUP1 PUSH1 0x60 ADD PUSH1 0x40 MSTORE DUP1 PUSH1 0x60 DUP2 MSTORE PUSH1 0x20 ADD PUSH0 DUP2 MSTORE PUSH1 0x20 ADD PUSH0 DUP2 MSTORE POP SWAP1 JUMP JUMPDEST PUSH0 PUSH1 0x40 MLOAD SWAP1 POP SWAP1 JUMP JUMPDEST PUSH0 DUP1 REVERT JUMPDEST PUSH0 DUP1 REVERT JUMPDEST PUSH0 DUP2 SWAP1 POP SWAP2 SWAP1 POP JUMP JUMPDEST PUSH2 0x6AE DUP2 PUSH2 0x69C JUMP JUMPDEST DUP2 EQ PUSH2 0x6B8 JUMPI PUSH0 DUP1 REVERT JUMPDEST POP JUMP JUMPDEST PUSH0 DUP2 CALLDATALOAD SWAP1 POP PUSH2 0x6C9 DUP2 PUSH2 0x6A5 JUMP JUMPDEST SWAP3 SWAP2 POP POP JUMP JUMPDEST PUSH0 PUSH1 0x20 DUP3 DUP5 SUB SLT ISZERO PUSH2 0x6E4 JUMPI PUSH2 0x6E3 PUSH2 0x694 JUMP JUMPDEST JUMPDEST PUSH0 PUSH2 0x6F1 DUP5 DUP3 DUP6 ADD PUSH2 0x6BB JUMP JUMPDEST SWAP2 POP POP SWAP3 SWAP2 POP POP JUMP JUMPDEST PUSH0 DUP2 ISZERO ISZERO SWAP1 POP SWAP2 SWAP1 POP JUMP JUMPDEST PUSH2 0x70E DUP2 PUSH2 0x6FA JUMP JUMPDEST DUP3 MSTORE POP POP JUMP JUMPDEST PUSH0 PUSH1 0x20 DUP3 ADD SWAP1 POP PUSH2 0x727 PUSH0 DUP4 ADD DUP5 PUSH2 0x705 JUMP JUMPDEST SWAP3 SWAP2 POP POP JUMP JUMPDEST PUSH0 PUSH20 0xFFFFFFFFFFFFFFFFFFFFFFFFFFFFFFFFFFFFFFFF DUP3 AND SWAP1 POP SWAP2 SWAP1 POP JUMP JUMPDEST PUSH0 PUSH2 0x756 DUP3 PUSH2 0x72D JUMP JUMPDEST SWAP1 POP SWAP2 SWAP1 POP JUMP JUMPDEST PUSH2 0x766 DUP2 PUSH2 0x74C JUMP JUMPDEST DUP2 EQ PUSH2 0x770 JUMPI PUSH0 DUP1 REVERT JUMPDEST POP JUMP JUMPDEST PUSH0 DUP2 CALLDATALOAD SWAP1 POP PUSH2 0x781 DUP2 PUSH2 0x75D JUMP JUMPDEST SWAP3 SWAP2 POP POP JUMP JUMPDEST PUSH0 PUSH1 0x20 DUP3 DUP5 SUB SLT ISZERO PUSH2 0x79C JUMPI PUSH2 0x79B PUSH2 0x694 JUMP JUMPDEST JUMPDEST PUSH0 PUSH2 0x7A9 DUP5 DUP3 DUP6 ADD PUSH2 0x773 JUMP JUMPDEST SWAP2 POP POP SWAP3 SWAP2 POP POP JUMP JUMPDEST PUSH2 0x7BB DUP2 PUSH2 0x69C JUMP JUMPDEST DUP3 MSTORE POP POP JUMP JUMPDEST PUSH0 PUSH1 0x20 DUP3 ADD SWAP1 POP PUSH2 0x7D4 PUSH0 DUP4 ADD DUP5 PUSH2 0x7B2 JUMP JUMPDEST SWAP3 SWAP2 POP POP JUMP JUMPDEST PUSH0 PUSH2 0x7E4 DUP3 PUSH2 0x72D JUMP JUMPDEST SWAP1 POP SWAP2 SWAP1 POP JUMP JUMPDEST PUSH2 0x7F4 DUP2 PUSH2 0x7DA JUMP JUMPDEST DUP2 EQ PUSH2 0x7FE JUMPI PUSH0 DUP1 REVERT JUMPDEST POP JUMP JUMPDEST PUSH0 DUP2 CALLDATALOAD SWAP1 POP PUSH2 0x80F DUP2 PUSH2 0x7EB JUMP JUMPDEST SWAP3 SWAP2 POP POP JUMP JUMPDEST PUSH0 DUP1 PUSH1 0x40 DUP4 DUP6 SUB SLT ISZERO PUSH2 0x82B JUMPI PUSH2 0x82A PUSH2 0x694 JUMP JUMPDEST JUMPDEST PUSH0 PUSH2 0x838 DUP6 DUP3 DUP7 ADD PUSH2 0x801 JUMP JUMPDEST SWAP3 POP POP PUSH1 0x20 PUSH2 0x849 DUP6 DUP3 DUP7 ADD PUSH2 0x6BB JUMP JUMPDEST SWAP2 POP POP SWAP3 POP SWAP3 SWAP1 POP JUMP JUMPDEST PUSH0 DUP1 REVERT JUMPDEST PUSH0 DUP1 REVERT JUMPDEST PUSH0 PUSH1 0x1F NOT PUSH1 0x1F DUP4 ADD AND SWAP1 POP SWAP2 SWAP1 POP JUMP JUMPDEST PUSH32 0x4E487B7100000000000000000000000000000000000000000000000000000000 PUSH0 MSTORE PUSH1 0x41 PUSH1 0x4 MSTORE PUSH1 0x24 PUSH0 REVERT JUMPDEST PUSH2 0x8A1 DUP3 PUSH2 0x85B JUMP JUMPDEST DUP2 ADD DUP2 DUP2 LT PUSH8 0xFFFFFFFFFFFFFFFF DUP3 GT OR ISZERO PUSH2 0x8C0 JUMPI PUSH2 0x8BF PUSH2 0x86B JUMP JUMPDEST JUMPDEST DUP1 PUSH1 0x40 MSTORE POP POP POP JUMP JUMPDEST PUSH0 PUSH2 0x8D2 PUSH2 0x68B JUMP JUMPDEST SWAP1 POP PUSH2 0x8DE DUP3 DUP3 PUSH2 0x898 JUMP JUMPDEST SWAP2 SWAP1 POP JUMP JUMPDEST PUSH0 PUSH8 0xFFFFFFFFFFFFFFFF DUP3 GT ISZERO PUSH2 0x8FD JUMPI PUSH2 0x8FC PUSH2 0x86B JUMP JUMPDEST JUMPDEST PUSH2 0x906 DUP3 PUSH2 0x85B JUMP JUMPDEST SWAP1 POP PUSH1 0x20 DUP2 ADD SWAP1 POP SWAP2 SWAP1 POP JUMP JUMPDEST DUP3 DUP2 DUP4 CALLDATACOPY PUSH0 DUP4 DUP4 ADD MSTORE POP POP POP JUMP JUMPDEST PUSH0 PUSH2 0x933 PUSH2 0x92E DUP5 PUSH2 0x8E3 JUMP JUMPDEST PUSH2 0x8C9 JUMP JUMPDEST SWAP1 POP DUP3 DUP2 MSTORE PUSH1 0x20 DUP2 ADD DUP5 DUP5 DUP5 ADD GT ISZERO PUSH2 0x94F JUMPI PUSH2 0x94E PUSH2 0x857 JUMP JUMPDEST JUMPDEST PUSH2 0x95A DUP5 DUP3 DUP6 PUSH2 0x913 JUMP JUMPDEST POP SWAP4 SWAP3 POP POP POP JUMP JUMPDEST PUSH0 DUP3 PUSH1 0x1F DUP4 ADD SLT PUSH2 0x976 JUMPI PUSH2 0x975 PUSH2 0x853 JUMP JUMPDEST JUMPDEST DUP2 CALLDATALOAD PUSH2 0x986 DUP5 DUP3 PUSH1 0x20 DUP7 ADD PUSH2 0x921 JUMP JUMPDEST SWAP2 POP POP SWAP3 SWAP2 POP POP JUMP JUMPDEST PUSH0 PUSH1 0x20 DUP3 DUP5 SUB SLT ISZERO PUSH2 0x9A4 JUMPI PUSH2 0x9A3 PUSH2 0x694 JUMP JUMPDEST JUMPDEST PUSH0 DUP3 ADD CALLDATALOAD PUSH8 0xFFFFFFFFFFFFFFFF DUP2 GT ISZERO PUSH2 0x9C1 JUMPI PUSH2 0x9C0 PUSH2 0x698 JUMP JUMPDEST JUMPDEST PUSH2 0x9CD DUP5 DUP3 DUP6 ADD PUSH2 0x962 JUMP JUMPDEST SWAP2 POP POP SWAP3 SWAP2 POP POP JUMP JUMPDEST PUSH0 DUP2 MLOAD SWAP1 POP SWAP2 SWAP1 POP JUMP JUMPDEST PUSH0 DUP3 DUP3 MSTORE PUSH1 0x20 DUP3 ADD SWAP1 POP SWAP3 SWAP2 POP POP JUMP JUMPDEST DUP3 DUP2 DUP4 MCOPY PUSH0 DUP4 DUP4 ADD MSTORE POP POP POP JUMP JUMPDEST PUSH0 PUSH2 0xA08 DUP3 PUSH2 0x9D6 JUMP JUMPDEST PUSH2 0xA12 DUP2 DUP6 PUSH2 0x9E0 JUMP JUMPDEST SWAP4 POP PUSH2 0xA22 DUP2 DUP6 PUSH1 0x20 DUP7 ADD PUSH2 0x9F0 JUMP JUMPDEST PUSH2 0xA2B DUP2 PUSH2 0x85B JUMP JUMPDEST DUP5 ADD SWAP2 POP POP SWAP3 SWAP2 POP POP JUMP JUMPDEST PUSH2 0xA3F DUP2 PUSH2 0x69C JUMP JUMPDEST DUP3 MSTORE POP POP JUMP JUMPDEST PUSH0 PUSH1 0x60 DUP4 ADD PUSH0 DUP4 ADD MLOAD DUP5 DUP3 SUB PUSH0 DUP7 ADD MSTORE PUSH2 0xA5F DUP3 DUP3 PUSH2 0x9FE JUMP JUMPDEST SWAP2 POP POP PUSH1 0x20 DUP4 ADD MLOAD PUSH2 0xA74 PUSH1 0x20 DUP7 ADD DUP3 PUSH2 0xA36 JUMP JUMPDEST POP PUSH1 0x40 DUP4 ADD MLOAD PUSH2 0xA87 PUSH1 0x40 DUP7 ADD DUP3 PUSH2 0xA36 JUMP JUMPDEST POP DUP1 SWAP2 POP POP SWAP3 SWAP2 POP POP JUMP JUMPDEST PUSH0 PUSH1 0x20 DUP3 ADD SWAP1 POP DUP2 DUP2 SUB PUSH0 DUP4 ADD MSTORE PUSH2 0xAAA DUP2 DUP5 PUSH2 0xA45 JUMP JUMPDEST SWAP1 POP SWAP3 SWAP2 POP POP JUMP JUMPDEST PUSH0 DUP3 DUP3 MSTORE PUSH1 0x20 DUP3 ADD SWAP1 POP SWAP3 SWAP2 POP POP JUMP JUMPDEST PUSH0 PUSH2 0xACC DUP3 PUSH2 0x9D6 JUMP JUMPDEST PUSH2 0xAD6 DUP2 DUP6 PUSH2 0xAB2 JUMP JUMPDEST SWAP4 POP PUSH2 0xAE6 DUP2 DUP6 PUSH1 0x20 DUP7 ADD PUSH2 0x9F0 JUMP JUMPDEST PUSH2 0xAEF DUP2 PUSH2 0x85B JUMP JUMPDEST DUP5 ADD SWAP2 POP POP SWAP3 SWAP2 POP POP JUMP JUMPDEST PUSH0 PUSH1 0x60 DUP3 ADD SWAP1 POP DUP2 DUP2 SUB PUSH0 DUP4 ADD MSTORE PUSH2 0xB12 DUP2 DUP7 PUSH2 0xAC2 JUMP JUMPDEST SWAP1 POP PUSH2 0xB21 PUSH1 0x20 DUP4 ADD DUP6 PUSH2 0x7B2 JUMP JUMPDEST PUSH2 0xB2E PUSH1 0x40 DUP4 ADD DUP5 PUSH2 0x7B2 JUMP JUMPDEST SWAP5 SWAP4 POP POP POP POP JUMP JUMPDEST PUSH0 DUP2 SWAP1 POP SWAP3 SWAP2 POP POP JUMP JUMPDEST POP JUMP JUMPDEST PUSH0 PUSH2 0xB4E PUSH0 DUP4 PUSH2 0xB36 JUMP JUMPDEST SWAP2 POP PUSH2 0xB59 DUP3 PUSH2 0xB40 JUMP JUMPDEST PUSH0 DUP3 ADD SWAP1 POP SWAP2 SWAP1 POP JUMP JUMPDEST PUSH0 PUSH2 0xB6D DUP3 PUSH2 0xB43 JUMP JUMPDEST SWAP2 POP DUP2 SWAP1 POP SWAP2 SWAP1 POP JUMP JUMPDEST PUSH32 0x4661696C656420746F2073656E64206465706F73697420746F2070726F706F6E PUSH0 DUP3 ADD MSTORE PUSH32 0x656E740000000000000000000000000000000000000000000000000000000000 PUSH1 0x20 DUP3 ADD MSTORE POP JUMP JUMPDEST PUSH0 PUSH2 0xBD1 PUSH1 0x23 DUP4 PUSH2 0xAB2 JUMP JUMPDEST SWAP2 POP PUSH2 0xBDC DUP3 PUSH2 0xB77 JUMP JUMPDEST PUSH1 0x40 DUP3 ADD SWAP1 POP SWAP2 SWAP1 POP JUMP JUMPDEST PUSH0 PUSH1 0x20 DUP3 ADD SWAP1 POP DUP2 DUP2 SUB PUSH0 DUP4 ADD MSTORE PUSH2 0xBFE DUP2 PUSH2 0xBC5 JUMP JUMPDEST SWAP1 POP SWAP2 SWAP1 POP JUMP JUMPDEST PUSH32 0x4E487B7100000000000000000000000000000000000000000000000000000000 PUSH0 MSTORE PUSH1 0x11 PUSH1 0x4 MSTORE PUSH1 0x24 PUSH0 REVERT JUMPDEST PUSH0 PUSH2 0xC3C DUP3 PUSH2 0x69C JUMP JUMPDEST SWAP2 POP PUSH2 0xC47 DUP4 PUSH2 0x69C JUMP JUMPDEST SWAP3 POP DUP3 DUP3 ADD SWAP1 POP DUP1 DUP3 GT ISZERO PUSH2 0xC5F JUMPI PUSH2 0xC5E PUSH2 0xC05 JUMP JUMPDEST JUMPDEST SWAP3 SWAP2 POP POP JUMP JUMPDEST PUSH32 0x4E6F7420612076616C69642072657075746174696F6E2073636F726500000000 PUSH0 DUP3 ADD MSTORE POP JUMP JUMPDEST PUSH0 PUSH2 0xC99 PUSH1 0x1C DUP4 PUSH2 0xAB2 JUMP JUMPDEST SWAP2 POP PUSH2 0xCA4 DUP3 PUSH2 0xC65 JUMP JUMPDEST PUSH1 0x20 DUP3 ADD SWAP1 POP SWAP2 SWAP1 POP JUMP JUMPDEST PUSH0 PUSH1 0x20 DUP3 ADD SWAP1 POP DUP2 DUP2 SUB PUSH0 DUP4 ADD MSTORE PUSH2 0xCC6 DUP2 PUSH2 0xC8D JUMP JUMPDEST SWAP1 POP SWAP2 SWAP1 POP JUMP JUMPDEST PUSH0 PUSH2 0xCD7 DUP3 PUSH2 0x69C JUMP JUMPDEST SWAP2 POP PUSH2 0xCE2 DUP4 PUSH2 0x69C JUMP JUMPDEST SWAP3 POP DUP3 DUP3 MUL PUSH2 0xCF0 DUP2 PUSH2 0x69C JUMP JUMPDEST SWAP2 POP DUP3 DUP3 DIV DUP5 EQ DUP4 ISZERO OR PUSH2 0xD07 JUMPI PUSH2 0xD06 PUSH2 0xC05 JUMP JUMPDEST JUMPDEST POP SWAP3 SWAP2 POP POP JUMP JUMPDEST PUSH32 0x4E487B7100000000000000000000000000000000000000000000000000000000 PUSH0 MSTORE PUSH1 0x12 PUSH1 0x4 MSTORE PUSH1 0x24 PUSH0 REVERT JUMPDEST PUSH0 PUSH2 0xD45 DUP3 PUSH2 0x69C JUMP JUMPDEST SWAP2 POP PUSH2 0xD50 DUP4 PUSH2 0x69C JUMP JUMPDEST SWAP3 POP DUP3 PUSH2 0xD60 JUMPI PUSH2 0xD5F PUSH2 0xD0E JUMP JUMPDEST JUMPDEST DUP3 DUP3 DIV SWAP1 POP SWAP3 SWAP2 POP POP JUMP JUMPDEST PUSH32 0x4E487B7100000000000000000000000000000000000000000000000000000000 PUSH0 MSTORE PUSH1 0x22 PUSH1 0x4 MSTORE PUSH1 0x24 PUSH0 REVERT JUMPDEST PUSH0 PUSH1 0x2 DUP3 DIV SWAP1 POP PUSH1 0x1 DUP3 AND DUP1 PUSH2 0xDAF JUMPI PUSH1 0x7F DUP3 AND SWAP2 POP JUMPDEST PUSH1 0x20 DUP3 LT DUP2 SUB PUSH2 0xDC2 JUMPI PUSH2 0xDC1 PUSH2 0xD6B JUMP JUMPDEST JUMPDEST POP SWAP2 SWAP1 POP JUMP JUMPDEST PUSH0 DUP2 SWAP1 POP DUP2 PUSH0 MSTORE PUSH1 0x20 PUSH0 KECCAK256 SWAP1 POP SWAP2 SWAP1 POP JUMP JUMPDEST PUSH0 PUSH1 0x20 PUSH1 0x1F DUP4 ADD DIV SWAP1 POP SWAP2 SWAP1 POP JUMP JUMPDEST PUSH0 DUP3 DUP3 SHL SWAP1 POP SWAP3 SWAP2 POP POP JUMP JUMPDEST PUSH0 PUSH1 0x8 DUP4 MUL PUSH2 0xE24 PUSH32 0xFFFFFFFFFFFFFFFFFFFFFFFFFFFFFFFFFFFFFFFFFFFFFFFFFFFFFFFFFFFFFFFF DUP3 PUSH2 0xDE9 JUMP JUMPDEST PUSH2 0xE2E DUP7 DUP4 PUSH2 0xDE9 JUMP JUMPDEST SWAP6 POP DUP1 NOT DUP5 AND SWAP4 POP DUP1 DUP7 AND DUP5 OR SWAP3 POP POP POP SWAP4 SWAP3 POP POP POP JUMP JUMPDEST PUSH0 DUP2 SWAP1 POP SWAP2 SWAP1 POP JUMP JUMPDEST PUSH0 PUSH2 0xE69 PUSH2 0xE64 PUSH2 0xE5F DUP5 PUSH2 0x69C JUMP JUMPDEST PUSH2 0xE46 JUMP JUMPDEST PUSH2 0x69C JUMP JUMPDEST SWAP1 POP SWAP2 SWAP1 POP JUMP JUMPDEST PUSH0 DUP2 SWAP1 POP SWAP2 SWAP1 POP JUMP JUMPDEST PUSH2 0xE82 DUP4 PUSH2 0xE4F JUMP JUMPDEST PUSH2 0xE96 PUSH2 0xE8E DUP3 PUSH2 0xE70 JUMP JUMPDEST DUP5 DUP5 SLOAD PUSH2 0xDF5 JUMP JUMPDEST DUP3 SSTORE POP POP POP POP JUMP JUMPDEST PUSH0 SWAP1 JUMP JUMPDEST PUSH2 0xEAA PUSH2 0xE9E JUMP JUMPDEST PUSH2 0xEB5 DUP2 DUP5 DUP5 PUSH2 0xE79 JUMP JUMPDEST POP POP POP JUMP JUMPDEST JUMPDEST DUP2 DUP2 LT ISZERO PUSH2 0xED8 JUMPI PUSH2 0xECD PUSH0 DUP3 PUSH2 0xEA2 JUMP JUMPDEST PUSH1 0x1 DUP2 ADD SWAP1 POP PUSH2 0xEBB JUMP JUMPDEST POP POP JUMP JUMPDEST PUSH1 0x1F DUP3 GT ISZERO PUSH2 0xF1D JUMPI PUSH2 0xEEE DUP2 PUSH2 0xDC8 JUMP JUMPDEST PUSH2 0xEF7 DUP5 PUSH2 0xDDA JUMP JUMPDEST DUP2 ADD PUSH1 0x20 DUP6 LT ISZERO PUSH2 0xF06 JUMPI DUP2 SWAP1 POP JUMPDEST PUSH2 0xF1A PUSH2 0xF12 DUP6 PUSH2 0xDDA JUMP JUMPDEST DUP4 ADD DUP3 PUSH2 0xEBA JUMP JUMPDEST POP POP JUMPDEST POP POP POP JUMP JUMPDEST PUSH0 DUP3 DUP3 SHR SWAP1 POP SWAP3 SWAP2 POP POP JUMP JUMPDEST PUSH0 PUSH2 0xF3D PUSH0 NOT DUP5 PUSH1 0x8 MUL PUSH2 0xF22 JUMP JUMPDEST NOT DUP1 DUP4 AND SWAP2 POP POP SWAP3 SWAP2 POP POP JUMP JUMPDEST PUSH0 PUSH2 0xF55 DUP4 DUP4 PUSH2 0xF2E JUMP JUMPDEST SWAP2 POP DUP3 PUSH1 0x2 MUL DUP3 OR SWAP1 POP SWAP3 SWAP2 POP POP JUMP JUMPDEST PUSH2 0xF6E DUP3 PUSH2 0x9D6 JUMP JUMPDEST PUSH8 0xFFFFFFFFFFFFFFFF DUP2 GT ISZERO PUSH2 0xF87 JUMPI PUSH2 0xF86 PUSH2 0x86B JUMP JUMPDEST JUMPDEST PUSH2 0xF91 DUP3 SLOAD PUSH2 0xD98 JUMP JUMPDEST PUSH2 0xF9C DUP3 DUP3 DUP6 PUSH2 0xEDC JUMP JUMPDEST PUSH0 PUSH1 0x20 SWAP1 POP PUSH1 0x1F DUP4 GT PUSH1 0x1 DUP2 EQ PUSH2 0xFCD JUMPI PUSH0 DUP5 ISZERO PUSH2 0xFBB JUMPI DUP3 DUP8 ADD MLOAD SWAP1 POP JUMPDEST PUSH2 0xFC5 DUP6 DUP3 PUSH2 0xF4A JUMP JUMPDEST DUP7 SSTORE POP PUSH2 0x102C JUMP JUMPDEST PUSH1 0x1F NOT DUP5 AND PUSH2 0xFDB DUP7 PUSH2 0xDC8 JUMP JUMPDEST PUSH0 JUMPDEST DUP3 DUP2 LT ISZERO PUSH2 0x1002 JUMPI DUP5 DUP10 ADD MLOAD DUP3 SSTORE PUSH1 0x1 DUP3 ADD SWAP2 POP PUSH1 0x20 DUP6 ADD SWAP5 POP PUSH1 0x20 DUP2 ADD SWAP1 POP PUSH2 0xFDD JUMP JUMPDEST DUP7 DUP4 LT ISZERO PUSH2 0x101F JUMPI DUP5 DUP10 ADD MLOAD PUSH2 0x101B PUSH1 0x1F DUP10 AND DUP3 PUSH2 0xF2E JUMP JUMPDEST DUP4 SSTORE POP JUMPDEST PUSH1 0x1 PUSH1 0x2 DUP9 MUL ADD DUP9 SSTORE POP POP POP JUMPDEST POP POP POP POP POP POP JUMP INVALID LOG2 PUSH5 0x6970667358 0x22 SLT KECCAK256 CALLDATASIZE BLOBBASEFEE 0x2B SGT 0xBC CALLER CODECOPY 0xAA 0xDD 0xFB JUMPDEST TLOAD POP 0x4F CALLER DUP4 PUSH30 0x387F736EB032DAF626ED2EB099815164736F6C634300081A003300000000 "
				},
				"gasEstimates": {
					"creation": {
						"codeDepositCost": "840400",
						"executionCost": "875",
						"totalCost": "841275"
					},
					"external": {
						"depositCalculator(uint256)": "infinite",
						"getContractBalance(address)": "3270",
						"getProponent(address)": "infinite",
						"newProp(string)": "infinite",
						"proponents(address)": "infinite",
						"requestDeposit(uint256)": "637",
						"testSender(address,uint256)": "infinite"
					}
				},
				"methodIdentifiers": {
					"depositCalculator(uint256)": "4545ed9f",
					"getContractBalance(address)": "43ab265f",
					"getProponent(address)": "d4aef9ba",
					"newProp(string)": "c8ca85dc",
					"proponents(address)": "ddfc5cfe",
					"requestDeposit(uint256)": "0d1e6667",
					"testSender(address,uint256)": "45115bd8"
				}
			},
			"storageLayout": {
				"storage": [
					{
						"astId": 226,
						"contract": "Carbon-Credits-Verification-with-Blockchain-main/contracts/lock-contract.sol:testLock",
						"label": "proponents",
						"offset": 0,
						"slot": "0",
						"type": "t_mapping(t_address,t_struct(Proponents)217_storage)"
					}
				],
				"types": {
					"t_address": {
						"encoding": "inplace",
						"label": "address",
						"numberOfBytes": "20"
					},
					"t_mapping(t_address,t_struct(Proponents)217_storage)": {
						"encoding": "mapping",
						"key": "t_address",
						"label": "mapping(address => struct testLock.Proponents)",
						"numberOfBytes": "32",
						"value": "t_struct(Proponents)217_storage"
					},
					"t_string_storage": {
						"encoding": "bytes",
						"label": "string",
						"numberOfBytes": "32"
					},
					"t_struct(Proponents)217_storage": {
						"encoding": "inplace",
						"label": "struct testLock.Proponents",
						"members": [
							{
								"astId": 212,
								"contract": "Carbon-Credits-Verification-with-Blockchain-main/contracts/lock-contract.sol:testLock",
								"label": "name",
								"offset": 0,
								"slot": "0",
								"type": "t_string_storage"
							},
							{
								"astId": 214,
								"contract": "Carbon-Credits-Verification-with-Blockchain-main/contracts/lock-contract.sol:testLock",
								"label": "repScore",
								"offset": 0,
								"slot": "1",
								"type": "t_uint256"
							},
							{
								"astId": 216,
								"contract": "Carbon-Credits-Verification-with-Blockchain-main/contracts/lock-contract.sol:testLock",
								"label": "balance",
								"offset": 0,
								"slot": "2",
								"type": "t_uint256"
							}
						],
						"numberOfBytes": "96"
					},
					"t_uint256": {
						"encoding": "inplace",
						"label": "uint256",
						"numberOfBytes": "32"
					}
				}
			},
			"userdoc": {
				"kind": "user",
				"methods": {},
				"version": 1
			}
		}
	}
}