{
	"Carbon-Credits-Verification-with-Blockchain-main/contracts/lock-contract.sol": {
		"Lock": {
			"abi": [
				{
					"anonymous": false,
					"inputs": [
						{
							"indexed": false,
							"internalType": "uint256",
							"name": "amount",
							"type": "uint256"
						}
					],
					"name": "Bal",
					"type": "event"
				},
				{
					"inputs": [
						{
							"internalType": "uint256",
							"name": "_repScore",
							"type": "uint256"
						}
					],
					"name": "calculateDeposit",
					"outputs": [
						{
							"internalType": "uint256",
							"name": "",
							"type": "uint256"
						},
						{
							"internalType": "uint256",
							"name": "",
							"type": "uint256"
						}
					],
					"stateMutability": "pure",
					"type": "function"
				},
				{
					"inputs": [
						{
							"internalType": "address",
							"name": "",
							"type": "address"
						}
					],
					"name": "proponents",
					"outputs": [
						{
							"internalType": "string",
							"name": "name",
							"type": "string"
						},
						{
							"internalType": "uint256",
							"name": "repScore",
							"type": "uint256"
						},
						{
							"internalType": "uint256",
							"name": "balance",
							"type": "uint256"
						}
					],
					"stateMutability": "view",
					"type": "function"
				},
				{
					"inputs": [
						{
							"internalType": "address",
							"name": "addr",
							"type": "address"
						},
						{
							"internalType": "uint256",
							"name": "deposit",
							"type": "uint256"
						}
					],
					"name": "returnDeposit",
					"outputs": [],
					"stateMutability": "payable",
					"type": "function"
				},
				{
					"inputs": [
						{
							"internalType": "address",
							"name": "proponent",
							"type": "address"
						},
						{
							"internalType": "bool",
							"name": "valResult",
							"type": "bool"
						},
						{
							"internalType": "bool",
							"name": "verResult",
							"type": "bool"
						},
						{
							"internalType": "address",
							"name": "verra",
							"type": "address"
						}
					],
					"name": "sendResult",
					"outputs": [
						{
							"internalType": "string",
							"name": "",
							"type": "string"
						}
					],
					"stateMutability": "nonpayable",
					"type": "function"
				},
				{
					"stateMutability": "payable",
					"type": "receive"
				}
			],
			"devdoc": {
				"kind": "dev",
				"methods": {},
				"version": 1
			},
			"evm": {
				"assembly": "    /* \"Carbon-Credits-Verification-with-Blockchain-main/contracts/lock-contract.sol\":67:1814  contract Lock {... */\n  mstore(0x40, 0x80)\n  callvalue\n  dup1\n  iszero\n  tag_1\n  jumpi\n  0x00\n  dup1\n  revert\ntag_1:\n  pop\n  dataSize(sub_0)\n  dup1\n  dataOffset(sub_0)\n  0x00\n  codecopy\n  0x00\n  return\nstop\n\nsub_0: assembly {\n        /* \"Carbon-Credits-Verification-with-Blockchain-main/contracts/lock-contract.sol\":67:1814  contract Lock {... */\n      mstore(0x40, 0x80)\n      jumpi(tag_1, lt(calldatasize, 0x04))\n      shr(0xe0, calldataload(0x00))\n      dup1\n      0x4ec508f9\n      eq\n      tag_3\n      jumpi\n      dup1\n      0xd29709fb\n      eq\n      tag_4\n      jumpi\n      dup1\n      0xddfc5cfe\n      eq\n      tag_5\n      jumpi\n      dup1\n      0xf056ac0c\n      eq\n      tag_6\n      jumpi\n      jump(tag_2)\n    tag_1:\n      jumpi(tag_2, calldatasize)\n        /* \"Carbon-Credits-Verification-with-Blockchain-main/contracts/lock-contract.sol\":866:870  3000 */\n      0x0bb8\n        /* \"Carbon-Credits-Verification-with-Blockchain-main/contracts/lock-contract.sol\":841:862  address(this).balance */\n      selfbalance\n        /* \"Carbon-Credits-Verification-with-Blockchain-main/contracts/lock-contract.sol\":841:870  address(this).balance == 3000 */\n      eq\n        /* \"Carbon-Credits-Verification-with-Blockchain-main/contracts/lock-contract.sol\":833:883  require(address(this).balance == 3000, \"Not paid\") */\n      tag_9\n      jumpi\n      mload(0x40)\n      0x08c379a000000000000000000000000000000000000000000000000000000000\n      dup2\n      mstore\n      0x04\n      add\n      tag_10\n      swap1\n      tag_11\n      jump\t// in\n    tag_10:\n      mload(0x40)\n      dup1\n      swap2\n      sub\n      swap1\n      revert\n    tag_9:\n        /* \"Carbon-Credits-Verification-with-Blockchain-main/contracts/lock-contract.sol\":67:1814  contract Lock {... */\n      stop\n    tag_2:\n      0x00\n      dup1\n      revert\n        /* \"Carbon-Credits-Verification-with-Blockchain-main/contracts/lock-contract.sol\":321:668  function calculateDeposit(uint256 _repScore) public pure returns(uint,uint) {... */\n    tag_3:\n      callvalue\n      dup1\n      iszero\n      tag_12\n      jumpi\n      0x00\n      dup1\n      revert\n    tag_12:\n      pop\n      tag_13\n      0x04\n      dup1\n      calldatasize\n      sub\n      dup2\n      add\n      swap1\n      tag_14\n      swap2\n      swap1\n      tag_15\n      jump\t// in\n    tag_14:\n      tag_16\n      jump\t// in\n    tag_13:\n      mload(0x40)\n      tag_17\n      swap3\n      swap2\n      swap1\n      tag_18\n      jump\t// in\n    tag_17:\n      mload(0x40)\n      dup1\n      swap2\n      sub\n      swap1\n      return\n        /* \"Carbon-Credits-Verification-with-Blockchain-main/contracts/lock-contract.sol\":993:1200  function returnDeposit(address addr, uint deposit) public payable {... */\n    tag_4:\n      tag_19\n      0x04\n      dup1\n      calldatasize\n      sub\n      dup2\n      add\n      swap1\n      tag_20\n      swap2\n      swap1\n      tag_21\n      jump\t// in\n    tag_20:\n      tag_22\n      jump\t// in\n    tag_19:\n      stop\n        /* \"Carbon-Credits-Verification-with-Blockchain-main/contracts/lock-contract.sol\":217:266  mapping (address => Proponents) public proponents */\n    tag_5:\n      callvalue\n      dup1\n      iszero\n      tag_23\n      jumpi\n      0x00\n      dup1\n      revert\n    tag_23:\n      pop\n      tag_24\n      0x04\n      dup1\n      calldatasize\n      sub\n      dup2\n      add\n      swap1\n      tag_25\n      swap2\n      swap1\n      tag_26\n      jump\t// in\n    tag_25:\n      tag_27\n      jump\t// in\n    tag_24:\n      mload(0x40)\n      tag_28\n      swap4\n      swap3\n      swap2\n      swap1\n      tag_29\n      jump\t// in\n    tag_28:\n      mload(0x40)\n      dup1\n      swap2\n      sub\n      swap1\n      return\n        /* \"Carbon-Credits-Verification-with-Blockchain-main/contracts/lock-contract.sol\":1307:1810  function sendResult(address proponent, bool valResult, bool verResult, address verra) public returns(string memory) {... */\n    tag_6:\n      callvalue\n      dup1\n      iszero\n      tag_30\n      jumpi\n      0x00\n      dup1\n      revert\n    tag_30:\n      pop\n      tag_31\n      0x04\n      dup1\n      calldatasize\n      sub\n      dup2\n      add\n      swap1\n      tag_32\n      swap2\n      swap1\n      tag_33\n      jump\t// in\n    tag_32:\n      tag_34\n      jump\t// in\n    tag_31:\n      mload(0x40)\n      tag_35\n      swap2\n      swap1\n      tag_36\n      jump\t// in\n    tag_35:\n      mload(0x40)\n      dup1\n      swap2\n      sub\n      swap1\n      return\n        /* \"Carbon-Credits-Verification-with-Blockchain-main/contracts/lock-contract.sol\":321:668  function calculateDeposit(uint256 _repScore) public pure returns(uint,uint) {... */\n    tag_16:\n        /* \"Carbon-Credits-Verification-with-Blockchain-main/contracts/lock-contract.sol\":386:390  uint */\n      0x00\n        /* \"Carbon-Credits-Verification-with-Blockchain-main/contracts/lock-contract.sol\":391:395  uint */\n      dup1\n        /* \"Carbon-Credits-Verification-with-Blockchain-main/contracts/lock-contract.sol\":553:565  uint propDep */\n      0x00\n        /* \"Carbon-Credits-Verification-with-Blockchain-main/contracts/lock-contract.sol\":586:587  5 */\n      0x05\n        /* \"Carbon-Credits-Verification-with-Blockchain-main/contracts/lock-contract.sol\":576:585  _repScore */\n      dup5\n        /* \"Carbon-Credits-Verification-with-Blockchain-main/contracts/lock-contract.sol\":576:587  _repScore*5 */\n      tag_38\n      swap2\n      swap1\n      tag_39\n      jump\t// in\n    tag_38:\n        /* \"Carbon-Credits-Verification-with-Blockchain-main/contracts/lock-contract.sol\":568:572  1000 */\n      0x03e8\n        /* \"Carbon-Credits-Verification-with-Blockchain-main/contracts/lock-contract.sol\":568:588  1000 / (_repScore*5) */\n      tag_40\n      swap2\n      swap1\n      tag_41\n      jump\t// in\n    tag_40:\n        /* \"Carbon-Credits-Verification-with-Blockchain-main/contracts/lock-contract.sol\":553:588  uint propDep = 1000 / (_repScore*5) */\n      swap1\n      pop\n        /* \"Carbon-Credits-Verification-with-Blockchain-main/contracts/lock-contract.sol\":598:610  uint verrDep */\n      0x00\n        /* \"Carbon-Credits-Verification-with-Blockchain-main/contracts/lock-contract.sol\":620:627  propDep */\n      dup2\n        /* \"Carbon-Credits-Verification-with-Blockchain-main/contracts/lock-contract.sol\":613:617  1000 */\n      0x03e8\n        /* \"Carbon-Credits-Verification-with-Blockchain-main/contracts/lock-contract.sol\":613:627  1000 - propDep */\n      tag_42\n      swap2\n      swap1\n      tag_43\n      jump\t// in\n    tag_42:\n        /* \"Carbon-Credits-Verification-with-Blockchain-main/contracts/lock-contract.sol\":598:627  uint verrDep = 1000 - propDep */\n      swap1\n      pop\n        /* \"Carbon-Credits-Verification-with-Blockchain-main/contracts/lock-contract.sol\":645:652  propDep */\n      dup2\n        /* \"Carbon-Credits-Verification-with-Blockchain-main/contracts/lock-contract.sol\":653:660  verrDep */\n      dup2\n        /* \"Carbon-Credits-Verification-with-Blockchain-main/contracts/lock-contract.sol\":637:661  return (propDep,verrDep) */\n      swap4\n      pop\n      swap4\n      pop\n      pop\n      pop\n        /* \"Carbon-Credits-Verification-with-Blockchain-main/contracts/lock-contract.sol\":321:668  function calculateDeposit(uint256 _repScore) public pure returns(uint,uint) {... */\n      swap2\n      pop\n      swap2\n      jump\t// out\n        /* \"Carbon-Credits-Verification-with-Blockchain-main/contracts/lock-contract.sol\":993:1200  function returnDeposit(address addr, uint deposit) public payable {... */\n    tag_22:\n        /* \"Carbon-Credits-Verification-with-Blockchain-main/contracts/lock-contract.sol\":1070:1079  bool sent */\n      0x00\n        /* \"Carbon-Credits-Verification-with-Blockchain-main/contracts/lock-contract.sol\":1081:1098  bytes memory data */\n      dup1\n        /* \"Carbon-Credits-Verification-with-Blockchain-main/contracts/lock-contract.sol\":1102:1106  addr */\n      dup4\n        /* \"Carbon-Credits-Verification-with-Blockchain-main/contracts/lock-contract.sol\":1102:1111  addr.call */\n      0xffffffffffffffffffffffffffffffffffffffff\n      and\n        /* \"Carbon-Credits-Verification-with-Blockchain-main/contracts/lock-contract.sol\":1119:1126  deposit */\n      dup4\n        /* \"Carbon-Credits-Verification-with-Blockchain-main/contracts/lock-contract.sol\":1102:1131  addr.call{value: deposit}(\"\") */\n      mload(0x40)\n      tag_45\n      swap1\n      tag_46\n      jump\t// in\n    tag_45:\n      0x00\n      mload(0x40)\n      dup1\n      dup4\n      sub\n      dup2\n      dup6\n      dup8\n      gas\n      call\n      swap3\n      pop\n      pop\n      pop\n      returndatasize\n      dup1\n      0x00\n      dup2\n      eq\n      tag_49\n      jumpi\n      mload(0x40)\n      swap2\n      pop\n      and(add(returndatasize, 0x3f), not(0x1f))\n      dup3\n      add\n      0x40\n      mstore\n      returndatasize\n      dup3\n      mstore\n      returndatasize\n      0x00\n      0x20\n      dup5\n      add\n      returndatacopy\n      jump(tag_48)\n    tag_49:\n      0x60\n      swap2\n      pop\n    tag_48:\n      pop\n        /* \"Carbon-Credits-Verification-with-Blockchain-main/contracts/lock-contract.sol\":1069:1131  (bool sent, bytes memory data) = addr.call{value: deposit}(\"\") */\n      swap2\n      pop\n      swap2\n      pop\n        /* \"Carbon-Credits-Verification-with-Blockchain-main/contracts/lock-contract.sol\":1149:1153  sent */\n      dup2\n        /* \"Carbon-Credits-Verification-with-Blockchain-main/contracts/lock-contract.sol\":1141:1193  require(sent, \"Failed to send deposit to proponent\") */\n      tag_50\n      jumpi\n      mload(0x40)\n      0x08c379a000000000000000000000000000000000000000000000000000000000\n      dup2\n      mstore\n      0x04\n      add\n      tag_51\n      swap1\n      tag_52\n      jump\t// in\n    tag_51:\n      mload(0x40)\n      dup1\n      swap2\n      sub\n      swap1\n      revert\n    tag_50:\n        /* \"Carbon-Credits-Verification-with-Blockchain-main/contracts/lock-contract.sol\":1059:1200  {... */\n      pop\n      pop\n        /* \"Carbon-Credits-Verification-with-Blockchain-main/contracts/lock-contract.sol\":993:1200  function returnDeposit(address addr, uint deposit) public payable {... */\n      pop\n      pop\n      jump\t// out\n        /* \"Carbon-Credits-Verification-with-Blockchain-main/contracts/lock-contract.sol\":217:266  mapping (address => Proponents) public proponents */\n    tag_27:\n      mstore(0x20, 0x00)\n      dup1\n      0x00\n      mstore\n      keccak256(0x00, 0x40)\n      0x00\n      swap2\n      pop\n      swap1\n      pop\n      dup1\n      0x00\n      add\n      dup1\n      sload\n      tag_53\n      swap1\n      tag_54\n      jump\t// in\n    tag_53:\n      dup1\n      0x1f\n      add\n      0x20\n      dup1\n      swap2\n      div\n      mul\n      0x20\n      add\n      mload(0x40)\n      swap1\n      dup2\n      add\n      0x40\n      mstore\n      dup1\n      swap3\n      swap2\n      swap1\n      dup2\n      dup2\n      mstore\n      0x20\n      add\n      dup3\n      dup1\n      sload\n      tag_55\n      swap1\n      tag_54\n      jump\t// in\n    tag_55:\n      dup1\n      iszero\n      tag_56\n      jumpi\n      dup1\n      0x1f\n      lt\n      tag_57\n      jumpi\n      0x0100\n      dup1\n      dup4\n      sload\n      div\n      mul\n      dup4\n      mstore\n      swap2\n      0x20\n      add\n      swap2\n      jump(tag_56)\n    tag_57:\n      dup3\n      add\n      swap2\n      swap1\n      0x00\n      mstore\n      keccak256(0x00, 0x20)\n      swap1\n    tag_58:\n      dup2\n      sload\n      dup2\n      mstore\n      swap1\n      0x01\n      add\n      swap1\n      0x20\n      add\n      dup1\n      dup4\n      gt\n      tag_58\n      jumpi\n      dup3\n      swap1\n      sub\n      0x1f\n      and\n      dup3\n      add\n      swap2\n    tag_56:\n      pop\n      pop\n      pop\n      pop\n      pop\n      swap1\n      dup1\n      0x01\n      add\n      sload\n      swap1\n      dup1\n      0x02\n      add\n      sload\n      swap1\n      pop\n      dup4\n      jump\t// out\n        /* \"Carbon-Credits-Verification-with-Blockchain-main/contracts/lock-contract.sol\":1307:1810  function sendResult(address proponent, bool valResult, bool verResult, address verra) public returns(string memory) {... */\n    tag_34:\n        /* \"Carbon-Credits-Verification-with-Blockchain-main/contracts/lock-contract.sol\":1408:1421  string memory */\n      0x60\n        /* \"Carbon-Credits-Verification-with-Blockchain-main/contracts/lock-contract.sol\":1434:1446  uint depProp */\n      0x00\n        /* \"Carbon-Credits-Verification-with-Blockchain-main/contracts/lock-contract.sol\":1448:1460  uint depVerr */\n      dup1\n        /* \"Carbon-Credits-Verification-with-Blockchain-main/contracts/lock-contract.sol\":1464:1512  calculateDeposit(proponents[proponent].repScore) */\n      tag_60\n        /* \"Carbon-Credits-Verification-with-Blockchain-main/contracts/lock-contract.sol\":1481:1491  proponents */\n      0x00\n        /* \"Carbon-Credits-Verification-with-Blockchain-main/contracts/lock-contract.sol\":1481:1502  proponents[proponent] */\n      dup1\n        /* \"Carbon-Credits-Verification-with-Blockchain-main/contracts/lock-contract.sol\":1492:1501  proponent */\n      dup10\n        /* \"Carbon-Credits-Verification-with-Blockchain-main/contracts/lock-contract.sol\":1481:1502  proponents[proponent] */\n      0xffffffffffffffffffffffffffffffffffffffff\n      and\n      0xffffffffffffffffffffffffffffffffffffffff\n      and\n      dup2\n      mstore\n      0x20\n      add\n      swap1\n      dup2\n      mstore\n      0x20\n      add\n      0x00\n      keccak256\n        /* \"Carbon-Credits-Verification-with-Blockchain-main/contracts/lock-contract.sol\":1481:1511  proponents[proponent].repScore */\n      0x01\n      add\n      sload\n        /* \"Carbon-Credits-Verification-with-Blockchain-main/contracts/lock-contract.sol\":1464:1480  calculateDeposit */\n      tag_16\n        /* \"Carbon-Credits-Verification-with-Blockchain-main/contracts/lock-contract.sol\":1464:1512  calculateDeposit(proponents[proponent].repScore) */\n      jump\t// in\n    tag_60:\n        /* \"Carbon-Credits-Verification-with-Blockchain-main/contracts/lock-contract.sol\":1433:1512  (uint depProp, uint depVerr) = calculateDeposit(proponents[proponent].repScore) */\n      swap2\n      pop\n      swap2\n      pop\n        /* \"Carbon-Credits-Verification-with-Blockchain-main/contracts/lock-contract.sol\":1567:1576  valResult */\n      dup6\n        /* \"Carbon-Credits-Verification-with-Blockchain-main/contracts/lock-contract.sol\":1567:1589  valResult && verResult */\n      dup1\n      iszero\n      tag_61\n      jumpi\n      pop\n        /* \"Carbon-Credits-Verification-with-Blockchain-main/contracts/lock-contract.sol\":1580:1589  verResult */\n      dup5\n        /* \"Carbon-Credits-Verification-with-Blockchain-main/contracts/lock-contract.sol\":1567:1589  valResult && verResult */\n    tag_61:\n        /* \"Carbon-Credits-Verification-with-Blockchain-main/contracts/lock-contract.sol\":1563:1778  if (valResult && verResult) {... */\n      iszero\n      tag_62\n      jumpi\n        /* \"Carbon-Credits-Verification-with-Blockchain-main/contracts/lock-contract.sol\":1605:1638  returnDeposit(proponent, depProp) */\n      tag_63\n        /* \"Carbon-Credits-Verification-with-Blockchain-main/contracts/lock-contract.sol\":1619:1628  proponent */\n      dup8\n        /* \"Carbon-Credits-Verification-with-Blockchain-main/contracts/lock-contract.sol\":1630:1637  depProp */\n      dup4\n        /* \"Carbon-Credits-Verification-with-Blockchain-main/contracts/lock-contract.sol\":1605:1618  returnDeposit */\n      tag_22\n        /* \"Carbon-Credits-Verification-with-Blockchain-main/contracts/lock-contract.sol\":1605:1638  returnDeposit(proponent, depProp) */\n      jump\t// in\n    tag_63:\n        /* \"Carbon-Credits-Verification-with-Blockchain-main/contracts/lock-contract.sol\":1652:1690  returnDeposit(verra, (depVerr + 2000)) */\n      tag_64\n        /* \"Carbon-Credits-Verification-with-Blockchain-main/contracts/lock-contract.sol\":1666:1671  verra */\n      dup5\n        /* \"Carbon-Credits-Verification-with-Blockchain-main/contracts/lock-contract.sol\":1684:1688  2000 */\n      0x07d0\n        /* \"Carbon-Credits-Verification-with-Blockchain-main/contracts/lock-contract.sol\":1674:1681  depVerr */\n      dup4\n        /* \"Carbon-Credits-Verification-with-Blockchain-main/contracts/lock-contract.sol\":1674:1688  depVerr + 2000 */\n      tag_65\n      swap2\n      swap1\n      tag_66\n      jump\t// in\n    tag_65:\n        /* \"Carbon-Credits-Verification-with-Blockchain-main/contracts/lock-contract.sol\":1652:1665  returnDeposit */\n      tag_22\n        /* \"Carbon-Credits-Verification-with-Blockchain-main/contracts/lock-contract.sol\":1652:1690  returnDeposit(verra, (depVerr + 2000)) */\n      jump\t// in\n    tag_64:\n        /* \"Carbon-Credits-Verification-with-Blockchain-main/contracts/lock-contract.sol\":1563:1778  if (valResult && verResult) {... */\n      jump(tag_67)\n    tag_62:\n        /* \"Carbon-Credits-Verification-with-Blockchain-main/contracts/lock-contract.sol\":1729:1767  returnDeposit(verra, (depVerr + 2000)) */\n      tag_68\n        /* \"Carbon-Credits-Verification-with-Blockchain-main/contracts/lock-contract.sol\":1743:1748  verra */\n      dup5\n        /* \"Carbon-Credits-Verification-with-Blockchain-main/contracts/lock-contract.sol\":1761:1765  2000 */\n      0x07d0\n        /* \"Carbon-Credits-Verification-with-Blockchain-main/contracts/lock-contract.sol\":1751:1758  depVerr */\n      dup4\n        /* \"Carbon-Credits-Verification-with-Blockchain-main/contracts/lock-contract.sol\":1751:1765  depVerr + 2000 */\n      tag_69\n      swap2\n      swap1\n      tag_66\n      jump\t// in\n    tag_69:\n        /* \"Carbon-Credits-Verification-with-Blockchain-main/contracts/lock-contract.sol\":1729:1742  returnDeposit */\n      tag_22\n        /* \"Carbon-Credits-Verification-with-Blockchain-main/contracts/lock-contract.sol\":1729:1767  returnDeposit(verra, (depVerr + 2000)) */\n      jump\t// in\n    tag_68:\n        /* \"Carbon-Credits-Verification-with-Blockchain-main/contracts/lock-contract.sol\":1563:1778  if (valResult && verResult) {... */\n    tag_67:\n        /* \"Carbon-Credits-Verification-with-Blockchain-main/contracts/lock-contract.sol\":1787:1803  return \"success\" */\n      mload(0x40)\n      dup1\n      0x40\n      add\n      0x40\n      mstore\n      dup1\n      0x07\n      dup2\n      mstore\n      0x20\n      add\n      0x7375636365737300000000000000000000000000000000000000000000000000\n      dup2\n      mstore\n      pop\n      swap3\n      pop\n      pop\n      pop\n        /* \"Carbon-Credits-Verification-with-Blockchain-main/contracts/lock-contract.sol\":1307:1810  function sendResult(address proponent, bool valResult, bool verResult, address verra) public returns(string memory) {... */\n      swap5\n      swap4\n      pop\n      pop\n      pop\n      pop\n      jump\t// out\n        /* \"#utility.yul\":7:176   */\n    tag_70:\n        /* \"#utility.yul\":91:102   */\n      0x00\n        /* \"#utility.yul\":125:131   */\n      dup3\n        /* \"#utility.yul\":120:123   */\n      dup3\n        /* \"#utility.yul\":113:132   */\n      mstore\n        /* \"#utility.yul\":165:169   */\n      0x20\n        /* \"#utility.yul\":160:163   */\n      dup3\n        /* \"#utility.yul\":156:170   */\n      add\n        /* \"#utility.yul\":141:170   */\n      swap1\n      pop\n        /* \"#utility.yul\":7:176   */\n      swap3\n      swap2\n      pop\n      pop\n      jump\t// out\n        /* \"#utility.yul\":182:340   */\n    tag_71:\n        /* \"#utility.yul\":322:332   */\n      0x4e6f742070616964000000000000000000000000000000000000000000000000\n        /* \"#utility.yul\":318:319   */\n      0x00\n        /* \"#utility.yul\":310:316   */\n      dup3\n        /* \"#utility.yul\":306:320   */\n      add\n        /* \"#utility.yul\":299:333   */\n      mstore\n        /* \"#utility.yul\":182:340   */\n      pop\n      jump\t// out\n        /* \"#utility.yul\":346:711   */\n    tag_72:\n        /* \"#utility.yul\":488:491   */\n      0x00\n        /* \"#utility.yul\":509:575   */\n      tag_103\n        /* \"#utility.yul\":573:574   */\n      0x08\n        /* \"#utility.yul\":568:571   */\n      dup4\n        /* \"#utility.yul\":509:575   */\n      tag_70\n      jump\t// in\n    tag_103:\n        /* \"#utility.yul\":502:575   */\n      swap2\n      pop\n        /* \"#utility.yul\":584:677   */\n      tag_104\n        /* \"#utility.yul\":673:676   */\n      dup3\n        /* \"#utility.yul\":584:677   */\n      tag_71\n      jump\t// in\n    tag_104:\n        /* \"#utility.yul\":702:704   */\n      0x20\n        /* \"#utility.yul\":697:700   */\n      dup3\n        /* \"#utility.yul\":693:705   */\n      add\n        /* \"#utility.yul\":686:705   */\n      swap1\n      pop\n        /* \"#utility.yul\":346:711   */\n      swap2\n      swap1\n      pop\n      jump\t// out\n        /* \"#utility.yul\":717:1136   */\n    tag_11:\n        /* \"#utility.yul\":883:887   */\n      0x00\n        /* \"#utility.yul\":921:923   */\n      0x20\n        /* \"#utility.yul\":910:919   */\n      dup3\n        /* \"#utility.yul\":906:924   */\n      add\n        /* \"#utility.yul\":898:924   */\n      swap1\n      pop\n        /* \"#utility.yul\":970:979   */\n      dup2\n        /* \"#utility.yul\":964:968   */\n      dup2\n        /* \"#utility.yul\":960:980   */\n      sub\n        /* \"#utility.yul\":956:957   */\n      0x00\n        /* \"#utility.yul\":945:954   */\n      dup4\n        /* \"#utility.yul\":941:958   */\n      add\n        /* \"#utility.yul\":934:981   */\n      mstore\n        /* \"#utility.yul\":998:1129   */\n      tag_106\n        /* \"#utility.yul\":1124:1128   */\n      dup2\n        /* \"#utility.yul\":998:1129   */\n      tag_72\n      jump\t// in\n    tag_106:\n        /* \"#utility.yul\":990:1129   */\n      swap1\n      pop\n        /* \"#utility.yul\":717:1136   */\n      swap2\n      swap1\n      pop\n      jump\t// out\n        /* \"#utility.yul\":1223:1340   */\n    tag_74:\n        /* \"#utility.yul\":1332:1333   */\n      0x00\n        /* \"#utility.yul\":1329:1330   */\n      dup1\n        /* \"#utility.yul\":1322:1334   */\n      revert\n        /* \"#utility.yul\":1469:1546   */\n    tag_76:\n        /* \"#utility.yul\":1506:1513   */\n      0x00\n        /* \"#utility.yul\":1535:1540   */\n      dup2\n        /* \"#utility.yul\":1524:1540   */\n      swap1\n      pop\n        /* \"#utility.yul\":1469:1546   */\n      swap2\n      swap1\n      pop\n      jump\t// out\n        /* \"#utility.yul\":1552:1674   */\n    tag_77:\n        /* \"#utility.yul\":1625:1649   */\n      tag_112\n        /* \"#utility.yul\":1643:1648   */\n      dup2\n        /* \"#utility.yul\":1625:1649   */\n      tag_76\n      jump\t// in\n    tag_112:\n        /* \"#utility.yul\":1618:1623   */\n      dup2\n        /* \"#utility.yul\":1615:1650   */\n      eq\n        /* \"#utility.yul\":1605:1668   */\n      tag_113\n      jumpi\n        /* \"#utility.yul\":1664:1665   */\n      0x00\n        /* \"#utility.yul\":1661:1662   */\n      dup1\n        /* \"#utility.yul\":1654:1666   */\n      revert\n        /* \"#utility.yul\":1605:1668   */\n    tag_113:\n        /* \"#utility.yul\":1552:1674   */\n      pop\n      jump\t// out\n        /* \"#utility.yul\":1680:1819   */\n    tag_78:\n        /* \"#utility.yul\":1726:1731   */\n      0x00\n        /* \"#utility.yul\":1764:1770   */\n      dup2\n        /* \"#utility.yul\":1751:1771   */\n      calldataload\n        /* \"#utility.yul\":1742:1771   */\n      swap1\n      pop\n        /* \"#utility.yul\":1780:1813   */\n      tag_115\n        /* \"#utility.yul\":1807:1812   */\n      dup2\n        /* \"#utility.yul\":1780:1813   */\n      tag_77\n      jump\t// in\n    tag_115:\n        /* \"#utility.yul\":1680:1819   */\n      swap3\n      swap2\n      pop\n      pop\n      jump\t// out\n        /* \"#utility.yul\":1825:2154   */\n    tag_15:\n        /* \"#utility.yul\":1884:1890   */\n      0x00\n        /* \"#utility.yul\":1933:1935   */\n      0x20\n        /* \"#utility.yul\":1921:1930   */\n      dup3\n        /* \"#utility.yul\":1912:1919   */\n      dup5\n        /* \"#utility.yul\":1908:1931   */\n      sub\n        /* \"#utility.yul\":1904:1936   */\n      slt\n        /* \"#utility.yul\":1901:2020   */\n      iszero\n      tag_117\n      jumpi\n        /* \"#utility.yul\":1939:2018   */\n      tag_118\n      tag_74\n      jump\t// in\n    tag_118:\n        /* \"#utility.yul\":1901:2020   */\n    tag_117:\n        /* \"#utility.yul\":2059:2060   */\n      0x00\n        /* \"#utility.yul\":2084:2137   */\n      tag_119\n        /* \"#utility.yul\":2129:2136   */\n      dup5\n        /* \"#utility.yul\":2120:2126   */\n      dup3\n        /* \"#utility.yul\":2109:2118   */\n      dup6\n        /* \"#utility.yul\":2105:2127   */\n      add\n        /* \"#utility.yul\":2084:2137   */\n      tag_78\n      jump\t// in\n    tag_119:\n        /* \"#utility.yul\":2074:2137   */\n      swap2\n      pop\n        /* \"#utility.yul\":2030:2147   */\n      pop\n        /* \"#utility.yul\":1825:2154   */\n      swap3\n      swap2\n      pop\n      pop\n      jump\t// out\n        /* \"#utility.yul\":2160:2278   */\n    tag_79:\n        /* \"#utility.yul\":2247:2271   */\n      tag_121\n        /* \"#utility.yul\":2265:2270   */\n      dup2\n        /* \"#utility.yul\":2247:2271   */\n      tag_76\n      jump\t// in\n    tag_121:\n        /* \"#utility.yul\":2242:2245   */\n      dup3\n        /* \"#utility.yul\":2235:2272   */\n      mstore\n        /* \"#utility.yul\":2160:2278   */\n      pop\n      pop\n      jump\t// out\n        /* \"#utility.yul\":2284:2616   */\n    tag_18:\n        /* \"#utility.yul\":2405:2409   */\n      0x00\n        /* \"#utility.yul\":2443:2445   */\n      0x40\n        /* \"#utility.yul\":2432:2441   */\n      dup3\n        /* \"#utility.yul\":2428:2446   */\n      add\n        /* \"#utility.yul\":2420:2446   */\n      swap1\n      pop\n        /* \"#utility.yul\":2456:2527   */\n      tag_123\n        /* \"#utility.yul\":2524:2525   */\n      0x00\n        /* \"#utility.yul\":2513:2522   */\n      dup4\n        /* \"#utility.yul\":2509:2526   */\n      add\n        /* \"#utility.yul\":2500:2506   */\n      dup6\n        /* \"#utility.yul\":2456:2527   */\n      tag_79\n      jump\t// in\n    tag_123:\n        /* \"#utility.yul\":2537:2609   */\n      tag_124\n        /* \"#utility.yul\":2605:2607   */\n      0x20\n        /* \"#utility.yul\":2594:2603   */\n      dup4\n        /* \"#utility.yul\":2590:2608   */\n      add\n        /* \"#utility.yul\":2581:2587   */\n      dup5\n        /* \"#utility.yul\":2537:2609   */\n      tag_79\n      jump\t// in\n    tag_124:\n        /* \"#utility.yul\":2284:2616   */\n      swap4\n      swap3\n      pop\n      pop\n      pop\n      jump\t// out\n        /* \"#utility.yul\":2622:2748   */\n    tag_80:\n        /* \"#utility.yul\":2659:2666   */\n      0x00\n        /* \"#utility.yul\":2699:2741   */\n      0xffffffffffffffffffffffffffffffffffffffff\n        /* \"#utility.yul\":2692:2697   */\n      dup3\n        /* \"#utility.yul\":2688:2742   */\n      and\n        /* \"#utility.yul\":2677:2742   */\n      swap1\n      pop\n        /* \"#utility.yul\":2622:2748   */\n      swap2\n      swap1\n      pop\n      jump\t// out\n        /* \"#utility.yul\":2754:2850   */\n    tag_81:\n        /* \"#utility.yul\":2791:2798   */\n      0x00\n        /* \"#utility.yul\":2820:2844   */\n      tag_127\n        /* \"#utility.yul\":2838:2843   */\n      dup3\n        /* \"#utility.yul\":2820:2844   */\n      tag_80\n      jump\t// in\n    tag_127:\n        /* \"#utility.yul\":2809:2844   */\n      swap1\n      pop\n        /* \"#utility.yul\":2754:2850   */\n      swap2\n      swap1\n      pop\n      jump\t// out\n        /* \"#utility.yul\":2856:2978   */\n    tag_82:\n        /* \"#utility.yul\":2929:2953   */\n      tag_129\n        /* \"#utility.yul\":2947:2952   */\n      dup2\n        /* \"#utility.yul\":2929:2953   */\n      tag_81\n      jump\t// in\n    tag_129:\n        /* \"#utility.yul\":2922:2927   */\n      dup2\n        /* \"#utility.yul\":2919:2954   */\n      eq\n        /* \"#utility.yul\":2909:2972   */\n      tag_130\n      jumpi\n        /* \"#utility.yul\":2968:2969   */\n      0x00\n        /* \"#utility.yul\":2965:2966   */\n      dup1\n        /* \"#utility.yul\":2958:2970   */\n      revert\n        /* \"#utility.yul\":2909:2972   */\n    tag_130:\n        /* \"#utility.yul\":2856:2978   */\n      pop\n      jump\t// out\n        /* \"#utility.yul\":2984:3123   */\n    tag_83:\n        /* \"#utility.yul\":3030:3035   */\n      0x00\n        /* \"#utility.yul\":3068:3074   */\n      dup2\n        /* \"#utility.yul\":3055:3075   */\n      calldataload\n        /* \"#utility.yul\":3046:3075   */\n      swap1\n      pop\n        /* \"#utility.yul\":3084:3117   */\n      tag_132\n        /* \"#utility.yul\":3111:3116   */\n      dup2\n        /* \"#utility.yul\":3084:3117   */\n      tag_82\n      jump\t// in\n    tag_132:\n        /* \"#utility.yul\":2984:3123   */\n      swap3\n      swap2\n      pop\n      pop\n      jump\t// out\n        /* \"#utility.yul\":3129:3603   */\n    tag_21:\n        /* \"#utility.yul\":3197:3203   */\n      0x00\n        /* \"#utility.yul\":3205:3211   */\n      dup1\n        /* \"#utility.yul\":3254:3256   */\n      0x40\n        /* \"#utility.yul\":3242:3251   */\n      dup4\n        /* \"#utility.yul\":3233:3240   */\n      dup6\n        /* \"#utility.yul\":3229:3252   */\n      sub\n        /* \"#utility.yul\":3225:3257   */\n      slt\n        /* \"#utility.yul\":3222:3341   */\n      iszero\n      tag_134\n      jumpi\n        /* \"#utility.yul\":3260:3339   */\n      tag_135\n      tag_74\n      jump\t// in\n    tag_135:\n        /* \"#utility.yul\":3222:3341   */\n    tag_134:\n        /* \"#utility.yul\":3380:3381   */\n      0x00\n        /* \"#utility.yul\":3405:3458   */\n      tag_136\n        /* \"#utility.yul\":3450:3457   */\n      dup6\n        /* \"#utility.yul\":3441:3447   */\n      dup3\n        /* \"#utility.yul\":3430:3439   */\n      dup7\n        /* \"#utility.yul\":3426:3448   */\n      add\n        /* \"#utility.yul\":3405:3458   */\n      tag_83\n      jump\t// in\n    tag_136:\n        /* \"#utility.yul\":3395:3458   */\n      swap3\n      pop\n        /* \"#utility.yul\":3351:3468   */\n      pop\n        /* \"#utility.yul\":3507:3509   */\n      0x20\n        /* \"#utility.yul\":3533:3586   */\n      tag_137\n        /* \"#utility.yul\":3578:3585   */\n      dup6\n        /* \"#utility.yul\":3569:3575   */\n      dup3\n        /* \"#utility.yul\":3558:3567   */\n      dup7\n        /* \"#utility.yul\":3554:3576   */\n      add\n        /* \"#utility.yul\":3533:3586   */\n      tag_78\n      jump\t// in\n    tag_137:\n        /* \"#utility.yul\":3523:3586   */\n      swap2\n      pop\n        /* \"#utility.yul\":3478:3596   */\n      pop\n        /* \"#utility.yul\":3129:3603   */\n      swap3\n      pop\n      swap3\n      swap1\n      pop\n      jump\t// out\n        /* \"#utility.yul\":3609:3938   */\n    tag_26:\n        /* \"#utility.yul\":3668:3674   */\n      0x00\n        /* \"#utility.yul\":3717:3719   */\n      0x20\n        /* \"#utility.yul\":3705:3714   */\n      dup3\n        /* \"#utility.yul\":3696:3703   */\n      dup5\n        /* \"#utility.yul\":3692:3715   */\n      sub\n        /* \"#utility.yul\":3688:3720   */\n      slt\n        /* \"#utility.yul\":3685:3804   */\n      iszero\n      tag_139\n      jumpi\n        /* \"#utility.yul\":3723:3802   */\n      tag_140\n      tag_74\n      jump\t// in\n    tag_140:\n        /* \"#utility.yul\":3685:3804   */\n    tag_139:\n        /* \"#utility.yul\":3843:3844   */\n      0x00\n        /* \"#utility.yul\":3868:3921   */\n      tag_141\n        /* \"#utility.yul\":3913:3920   */\n      dup5\n        /* \"#utility.yul\":3904:3910   */\n      dup3\n        /* \"#utility.yul\":3893:3902   */\n      dup6\n        /* \"#utility.yul\":3889:3911   */\n      add\n        /* \"#utility.yul\":3868:3921   */\n      tag_83\n      jump\t// in\n    tag_141:\n        /* \"#utility.yul\":3858:3921   */\n      swap2\n      pop\n        /* \"#utility.yul\":3814:3931   */\n      pop\n        /* \"#utility.yul\":3609:3938   */\n      swap3\n      swap2\n      pop\n      pop\n      jump\t// out\n        /* \"#utility.yul\":3944:4043   */\n    tag_84:\n        /* \"#utility.yul\":3996:4002   */\n      0x00\n        /* \"#utility.yul\":4030:4035   */\n      dup2\n        /* \"#utility.yul\":4024:4036   */\n      mload\n        /* \"#utility.yul\":4014:4036   */\n      swap1\n      pop\n        /* \"#utility.yul\":3944:4043   */\n      swap2\n      swap1\n      pop\n      jump\t// out\n        /* \"#utility.yul\":4049:4188   */\n    tag_85:\n        /* \"#utility.yul\":4138:4144   */\n      dup3\n        /* \"#utility.yul\":4133:4136   */\n      dup2\n        /* \"#utility.yul\":4128:4131   */\n      dup4\n        /* \"#utility.yul\":4122:4145   */\n      mcopy\n        /* \"#utility.yul\":4179:4180   */\n      0x00\n        /* \"#utility.yul\":4170:4176   */\n      dup4\n        /* \"#utility.yul\":4165:4168   */\n      dup4\n        /* \"#utility.yul\":4161:4177   */\n      add\n        /* \"#utility.yul\":4154:4181   */\n      mstore\n        /* \"#utility.yul\":4049:4188   */\n      pop\n      pop\n      pop\n      jump\t// out\n        /* \"#utility.yul\":4194:4296   */\n    tag_86:\n        /* \"#utility.yul\":4235:4241   */\n      0x00\n        /* \"#utility.yul\":4286:4288   */\n      0x1f\n        /* \"#utility.yul\":4282:4289   */\n      not\n        /* \"#utility.yul\":4277:4279   */\n      0x1f\n        /* \"#utility.yul\":4270:4275   */\n      dup4\n        /* \"#utility.yul\":4266:4280   */\n      add\n        /* \"#utility.yul\":4262:4290   */\n      and\n        /* \"#utility.yul\":4252:4290   */\n      swap1\n      pop\n        /* \"#utility.yul\":4194:4296   */\n      swap2\n      swap1\n      pop\n      jump\t// out\n        /* \"#utility.yul\":4302:4679   */\n    tag_87:\n        /* \"#utility.yul\":4390:4393   */\n      0x00\n        /* \"#utility.yul\":4418:4457   */\n      tag_146\n        /* \"#utility.yul\":4451:4456   */\n      dup3\n        /* \"#utility.yul\":4418:4457   */\n      tag_84\n      jump\t// in\n    tag_146:\n        /* \"#utility.yul\":4473:4544   */\n      tag_147\n        /* \"#utility.yul\":4537:4543   */\n      dup2\n        /* \"#utility.yul\":4532:4535   */\n      dup6\n        /* \"#utility.yul\":4473:4544   */\n      tag_70\n      jump\t// in\n    tag_147:\n        /* \"#utility.yul\":4466:4544   */\n      swap4\n      pop\n        /* \"#utility.yul\":4553:4618   */\n      tag_148\n        /* \"#utility.yul\":4611:4617   */\n      dup2\n        /* \"#utility.yul\":4606:4609   */\n      dup6\n        /* \"#utility.yul\":4599:4603   */\n      0x20\n        /* \"#utility.yul\":4592:4597   */\n      dup7\n        /* \"#utility.yul\":4588:4604   */\n      add\n        /* \"#utility.yul\":4553:4618   */\n      tag_85\n      jump\t// in\n    tag_148:\n        /* \"#utility.yul\":4643:4672   */\n      tag_149\n        /* \"#utility.yul\":4665:4671   */\n      dup2\n        /* \"#utility.yul\":4643:4672   */\n      tag_86\n      jump\t// in\n    tag_149:\n        /* \"#utility.yul\":4638:4641   */\n      dup5\n        /* \"#utility.yul\":4634:4673   */\n      add\n        /* \"#utility.yul\":4627:4673   */\n      swap2\n      pop\n        /* \"#utility.yul\":4394:4679   */\n      pop\n        /* \"#utility.yul\":4302:4679   */\n      swap3\n      swap2\n      pop\n      pop\n      jump\t// out\n        /* \"#utility.yul\":4685:5218   */\n    tag_29:\n        /* \"#utility.yul\":4854:4858   */\n      0x00\n        /* \"#utility.yul\":4892:4894   */\n      0x60\n        /* \"#utility.yul\":4881:4890   */\n      dup3\n        /* \"#utility.yul\":4877:4895   */\n      add\n        /* \"#utility.yul\":4869:4895   */\n      swap1\n      pop\n        /* \"#utility.yul\":4941:4950   */\n      dup2\n        /* \"#utility.yul\":4935:4939   */\n      dup2\n        /* \"#utility.yul\":4931:4951   */\n      sub\n        /* \"#utility.yul\":4927:4928   */\n      0x00\n        /* \"#utility.yul\":4916:4925   */\n      dup4\n        /* \"#utility.yul\":4912:4929   */\n      add\n        /* \"#utility.yul\":4905:4952   */\n      mstore\n        /* \"#utility.yul\":4969:5047   */\n      tag_151\n        /* \"#utility.yul\":5042:5046   */\n      dup2\n        /* \"#utility.yul\":5033:5039   */\n      dup7\n        /* \"#utility.yul\":4969:5047   */\n      tag_87\n      jump\t// in\n    tag_151:\n        /* \"#utility.yul\":4961:5047   */\n      swap1\n      pop\n        /* \"#utility.yul\":5057:5129   */\n      tag_152\n        /* \"#utility.yul\":5125:5127   */\n      0x20\n        /* \"#utility.yul\":5114:5123   */\n      dup4\n        /* \"#utility.yul\":5110:5128   */\n      add\n        /* \"#utility.yul\":5101:5107   */\n      dup6\n        /* \"#utility.yul\":5057:5129   */\n      tag_79\n      jump\t// in\n    tag_152:\n        /* \"#utility.yul\":5139:5211   */\n      tag_153\n        /* \"#utility.yul\":5207:5209   */\n      0x40\n        /* \"#utility.yul\":5196:5205   */\n      dup4\n        /* \"#utility.yul\":5192:5210   */\n      add\n        /* \"#utility.yul\":5183:5189   */\n      dup5\n        /* \"#utility.yul\":5139:5211   */\n      tag_79\n      jump\t// in\n    tag_153:\n        /* \"#utility.yul\":4685:5218   */\n      swap5\n      swap4\n      pop\n      pop\n      pop\n      pop\n      jump\t// out\n        /* \"#utility.yul\":5224:5314   */\n    tag_88:\n        /* \"#utility.yul\":5258:5265   */\n      0x00\n        /* \"#utility.yul\":5301:5306   */\n      dup2\n        /* \"#utility.yul\":5294:5307   */\n      iszero\n        /* \"#utility.yul\":5287:5308   */\n      iszero\n        /* \"#utility.yul\":5276:5308   */\n      swap1\n      pop\n        /* \"#utility.yul\":5224:5314   */\n      swap2\n      swap1\n      pop\n      jump\t// out\n        /* \"#utility.yul\":5320:5436   */\n    tag_89:\n        /* \"#utility.yul\":5390:5411   */\n      tag_156\n        /* \"#utility.yul\":5405:5410   */\n      dup2\n        /* \"#utility.yul\":5390:5411   */\n      tag_88\n      jump\t// in\n    tag_156:\n        /* \"#utility.yul\":5383:5388   */\n      dup2\n        /* \"#utility.yul\":5380:5412   */\n      eq\n        /* \"#utility.yul\":5370:5430   */\n      tag_157\n      jumpi\n        /* \"#utility.yul\":5426:5427   */\n      0x00\n        /* \"#utility.yul\":5423:5424   */\n      dup1\n        /* \"#utility.yul\":5416:5428   */\n      revert\n        /* \"#utility.yul\":5370:5430   */\n    tag_157:\n        /* \"#utility.yul\":5320:5436   */\n      pop\n      jump\t// out\n        /* \"#utility.yul\":5442:5575   */\n    tag_90:\n        /* \"#utility.yul\":5485:5490   */\n      0x00\n        /* \"#utility.yul\":5523:5529   */\n      dup2\n        /* \"#utility.yul\":5510:5530   */\n      calldataload\n        /* \"#utility.yul\":5501:5530   */\n      swap1\n      pop\n        /* \"#utility.yul\":5539:5569   */\n      tag_159\n        /* \"#utility.yul\":5563:5568   */\n      dup2\n        /* \"#utility.yul\":5539:5569   */\n      tag_89\n      jump\t// in\n    tag_159:\n        /* \"#utility.yul\":5442:5575   */\n      swap3\n      swap2\n      pop\n      pop\n      jump\t// out\n        /* \"#utility.yul\":5581:6334   */\n    tag_33:\n        /* \"#utility.yul\":5661:5667   */\n      0x00\n        /* \"#utility.yul\":5669:5675   */\n      dup1\n        /* \"#utility.yul\":5677:5683   */\n      0x00\n        /* \"#utility.yul\":5685:5691   */\n      dup1\n        /* \"#utility.yul\":5734:5737   */\n      0x80\n        /* \"#utility.yul\":5722:5731   */\n      dup6\n        /* \"#utility.yul\":5713:5720   */\n      dup8\n        /* \"#utility.yul\":5709:5732   */\n      sub\n        /* \"#utility.yul\":5705:5738   */\n      slt\n        /* \"#utility.yul\":5702:5822   */\n      iszero\n      tag_161\n      jumpi\n        /* \"#utility.yul\":5741:5820   */\n      tag_162\n      tag_74\n      jump\t// in\n    tag_162:\n        /* \"#utility.yul\":5702:5822   */\n    tag_161:\n        /* \"#utility.yul\":5861:5862   */\n      0x00\n        /* \"#utility.yul\":5886:5939   */\n      tag_163\n        /* \"#utility.yul\":5931:5938   */\n      dup8\n        /* \"#utility.yul\":5922:5928   */\n      dup3\n        /* \"#utility.yul\":5911:5920   */\n      dup9\n        /* \"#utility.yul\":5907:5929   */\n      add\n        /* \"#utility.yul\":5886:5939   */\n      tag_83\n      jump\t// in\n    tag_163:\n        /* \"#utility.yul\":5876:5939   */\n      swap5\n      pop\n        /* \"#utility.yul\":5832:5949   */\n      pop\n        /* \"#utility.yul\":5988:5990   */\n      0x20\n        /* \"#utility.yul\":6014:6064   */\n      tag_164\n        /* \"#utility.yul\":6056:6063   */\n      dup8\n        /* \"#utility.yul\":6047:6053   */\n      dup3\n        /* \"#utility.yul\":6036:6045   */\n      dup9\n        /* \"#utility.yul\":6032:6054   */\n      add\n        /* \"#utility.yul\":6014:6064   */\n      tag_90\n      jump\t// in\n    tag_164:\n        /* \"#utility.yul\":6004:6064   */\n      swap4\n      pop\n        /* \"#utility.yul\":5959:6074   */\n      pop\n        /* \"#utility.yul\":6113:6115   */\n      0x40\n        /* \"#utility.yul\":6139:6189   */\n      tag_165\n        /* \"#utility.yul\":6181:6188   */\n      dup8\n        /* \"#utility.yul\":6172:6178   */\n      dup3\n        /* \"#utility.yul\":6161:6170   */\n      dup9\n        /* \"#utility.yul\":6157:6179   */\n      add\n        /* \"#utility.yul\":6139:6189   */\n      tag_90\n      jump\t// in\n    tag_165:\n        /* \"#utility.yul\":6129:6189   */\n      swap3\n      pop\n        /* \"#utility.yul\":6084:6199   */\n      pop\n        /* \"#utility.yul\":6238:6240   */\n      0x60\n        /* \"#utility.yul\":6264:6317   */\n      tag_166\n        /* \"#utility.yul\":6309:6316   */\n      dup8\n        /* \"#utility.yul\":6300:6306   */\n      dup3\n        /* \"#utility.yul\":6289:6298   */\n      dup9\n        /* \"#utility.yul\":6285:6307   */\n      add\n        /* \"#utility.yul\":6264:6317   */\n      tag_83\n      jump\t// in\n    tag_166:\n        /* \"#utility.yul\":6254:6317   */\n      swap2\n      pop\n        /* \"#utility.yul\":6209:6327   */\n      pop\n        /* \"#utility.yul\":5581:6334   */\n      swap3\n      swap6\n      swap2\n      swap5\n      pop\n      swap3\n      pop\n      jump\t// out\n        /* \"#utility.yul\":6340:6653   */\n    tag_36:\n        /* \"#utility.yul\":6453:6457   */\n      0x00\n        /* \"#utility.yul\":6491:6493   */\n      0x20\n        /* \"#utility.yul\":6480:6489   */\n      dup3\n        /* \"#utility.yul\":6476:6494   */\n      add\n        /* \"#utility.yul\":6468:6494   */\n      swap1\n      pop\n        /* \"#utility.yul\":6540:6549   */\n      dup2\n        /* \"#utility.yul\":6534:6538   */\n      dup2\n        /* \"#utility.yul\":6530:6550   */\n      sub\n        /* \"#utility.yul\":6526:6527   */\n      0x00\n        /* \"#utility.yul\":6515:6524   */\n      dup4\n        /* \"#utility.yul\":6511:6528   */\n      add\n        /* \"#utility.yul\":6504:6551   */\n      mstore\n        /* \"#utility.yul\":6568:6646   */\n      tag_168\n        /* \"#utility.yul\":6641:6645   */\n      dup2\n        /* \"#utility.yul\":6632:6638   */\n      dup5\n        /* \"#utility.yul\":6568:6646   */\n      tag_87\n      jump\t// in\n    tag_168:\n        /* \"#utility.yul\":6560:6646   */\n      swap1\n      pop\n        /* \"#utility.yul\":6340:6653   */\n      swap3\n      swap2\n      pop\n      pop\n      jump\t// out\n        /* \"#utility.yul\":6659:6839   */\n    tag_91:\n        /* \"#utility.yul\":6707:6784   */\n      0x4e487b7100000000000000000000000000000000000000000000000000000000\n        /* \"#utility.yul\":6704:6705   */\n      0x00\n        /* \"#utility.yul\":6697:6785   */\n      mstore\n        /* \"#utility.yul\":6804:6808   */\n      0x11\n        /* \"#utility.yul\":6801:6802   */\n      0x04\n        /* \"#utility.yul\":6794:6809   */\n      mstore\n        /* \"#utility.yul\":6828:6832   */\n      0x24\n        /* \"#utility.yul\":6825:6826   */\n      0x00\n        /* \"#utility.yul\":6818:6833   */\n      revert\n        /* \"#utility.yul\":6845:7255   */\n    tag_39:\n        /* \"#utility.yul\":6885:6892   */\n      0x00\n        /* \"#utility.yul\":6908:6928   */\n      tag_171\n        /* \"#utility.yul\":6926:6927   */\n      dup3\n        /* \"#utility.yul\":6908:6928   */\n      tag_76\n      jump\t// in\n    tag_171:\n        /* \"#utility.yul\":6903:6928   */\n      swap2\n      pop\n        /* \"#utility.yul\":6942:6962   */\n      tag_172\n        /* \"#utility.yul\":6960:6961   */\n      dup4\n        /* \"#utility.yul\":6942:6962   */\n      tag_76\n      jump\t// in\n    tag_172:\n        /* \"#utility.yul\":6937:6962   */\n      swap3\n      pop\n        /* \"#utility.yul\":6997:6998   */\n      dup3\n        /* \"#utility.yul\":6994:6995   */\n      dup3\n        /* \"#utility.yul\":6990:6999   */\n      mul\n        /* \"#utility.yul\":7019:7049   */\n      tag_173\n        /* \"#utility.yul\":7037:7048   */\n      dup2\n        /* \"#utility.yul\":7019:7049   */\n      tag_76\n      jump\t// in\n    tag_173:\n        /* \"#utility.yul\":7008:7049   */\n      swap2\n      pop\n        /* \"#utility.yul\":7198:7199   */\n      dup3\n        /* \"#utility.yul\":7189:7196   */\n      dup3\n        /* \"#utility.yul\":7185:7200   */\n      div\n        /* \"#utility.yul\":7182:7183   */\n      dup5\n        /* \"#utility.yul\":7179:7201   */\n      eq\n        /* \"#utility.yul\":7159:7160   */\n      dup4\n        /* \"#utility.yul\":7152:7161   */\n      iszero\n        /* \"#utility.yul\":7132:7215   */\n      or\n        /* \"#utility.yul\":7109:7248   */\n      tag_174\n      jumpi\n        /* \"#utility.yul\":7228:7246   */\n      tag_175\n      tag_91\n      jump\t// in\n    tag_175:\n        /* \"#utility.yul\":7109:7248   */\n    tag_174:\n        /* \"#utility.yul\":6893:7255   */\n      pop\n        /* \"#utility.yul\":6845:7255   */\n      swap3\n      swap2\n      pop\n      pop\n      jump\t// out\n        /* \"#utility.yul\":7261:7441   */\n    tag_92:\n        /* \"#utility.yul\":7309:7386   */\n      0x4e487b7100000000000000000000000000000000000000000000000000000000\n        /* \"#utility.yul\":7306:7307   */\n      0x00\n        /* \"#utility.yul\":7299:7387   */\n      mstore\n        /* \"#utility.yul\":7406:7410   */\n      0x12\n        /* \"#utility.yul\":7403:7404   */\n      0x04\n        /* \"#utility.yul\":7396:7411   */\n      mstore\n        /* \"#utility.yul\":7430:7434   */\n      0x24\n        /* \"#utility.yul\":7427:7428   */\n      0x00\n        /* \"#utility.yul\":7420:7435   */\n      revert\n        /* \"#utility.yul\":7447:7632   */\n    tag_41:\n        /* \"#utility.yul\":7487:7488   */\n      0x00\n        /* \"#utility.yul\":7504:7524   */\n      tag_178\n        /* \"#utility.yul\":7522:7523   */\n      dup3\n        /* \"#utility.yul\":7504:7524   */\n      tag_76\n      jump\t// in\n    tag_178:\n        /* \"#utility.yul\":7499:7524   */\n      swap2\n      pop\n        /* \"#utility.yul\":7538:7558   */\n      tag_179\n        /* \"#utility.yul\":7556:7557   */\n      dup4\n        /* \"#utility.yul\":7538:7558   */\n      tag_76\n      jump\t// in\n    tag_179:\n        /* \"#utility.yul\":7533:7558   */\n      swap3\n      pop\n        /* \"#utility.yul\":7577:7578   */\n      dup3\n        /* \"#utility.yul\":7567:7602   */\n      tag_180\n      jumpi\n        /* \"#utility.yul\":7582:7600   */\n      tag_181\n      tag_92\n      jump\t// in\n    tag_181:\n        /* \"#utility.yul\":7567:7602   */\n    tag_180:\n        /* \"#utility.yul\":7624:7625   */\n      dup3\n        /* \"#utility.yul\":7621:7622   */\n      dup3\n        /* \"#utility.yul\":7617:7626   */\n      div\n        /* \"#utility.yul\":7612:7626   */\n      swap1\n      pop\n        /* \"#utility.yul\":7447:7632   */\n      swap3\n      swap2\n      pop\n      pop\n      jump\t// out\n        /* \"#utility.yul\":7638:7832   */\n    tag_43:\n        /* \"#utility.yul\":7678:7682   */\n      0x00\n        /* \"#utility.yul\":7698:7718   */\n      tag_183\n        /* \"#utility.yul\":7716:7717   */\n      dup3\n        /* \"#utility.yul\":7698:7718   */\n      tag_76\n      jump\t// in\n    tag_183:\n        /* \"#utility.yul\":7693:7718   */\n      swap2\n      pop\n        /* \"#utility.yul\":7732:7752   */\n      tag_184\n        /* \"#utility.yul\":7750:7751   */\n      dup4\n        /* \"#utility.yul\":7732:7752   */\n      tag_76\n      jump\t// in\n    tag_184:\n        /* \"#utility.yul\":7727:7752   */\n      swap3\n      pop\n        /* \"#utility.yul\":7776:7777   */\n      dup3\n        /* \"#utility.yul\":7773:7774   */\n      dup3\n        /* \"#utility.yul\":7769:7778   */\n      sub\n        /* \"#utility.yul\":7761:7778   */\n      swap1\n      pop\n        /* \"#utility.yul\":7800:7801   */\n      dup2\n        /* \"#utility.yul\":7794:7798   */\n      dup2\n        /* \"#utility.yul\":7791:7802   */\n      gt\n        /* \"#utility.yul\":7788:7825   */\n      iszero\n      tag_185\n      jumpi\n        /* \"#utility.yul\":7805:7823   */\n      tag_186\n      tag_91\n      jump\t// in\n    tag_186:\n        /* \"#utility.yul\":7788:7825   */\n    tag_185:\n        /* \"#utility.yul\":7638:7832   */\n      swap3\n      swap2\n      pop\n      pop\n      jump\t// out\n        /* \"#utility.yul\":7838:7985   */\n    tag_93:\n        /* \"#utility.yul\":7939:7950   */\n      0x00\n        /* \"#utility.yul\":7976:7979   */\n      dup2\n        /* \"#utility.yul\":7961:7979   */\n      swap1\n      pop\n        /* \"#utility.yul\":7838:7985   */\n      swap3\n      swap2\n      pop\n      pop\n      jump\t// out\n        /* \"#utility.yul\":7991:8105   */\n    tag_94:\n      pop\n      jump\t// out\n        /* \"#utility.yul\":8111:8509   */\n    tag_95:\n        /* \"#utility.yul\":8270:8273   */\n      0x00\n        /* \"#utility.yul\":8291:8374   */\n      tag_190\n        /* \"#utility.yul\":8372:8373   */\n      0x00\n        /* \"#utility.yul\":8367:8370   */\n      dup4\n        /* \"#utility.yul\":8291:8374   */\n      tag_93\n      jump\t// in\n    tag_190:\n        /* \"#utility.yul\":8284:8374   */\n      swap2\n      pop\n        /* \"#utility.yul\":8383:8476   */\n      tag_191\n        /* \"#utility.yul\":8472:8475   */\n      dup3\n        /* \"#utility.yul\":8383:8476   */\n      tag_94\n      jump\t// in\n    tag_191:\n        /* \"#utility.yul\":8501:8502   */\n      0x00\n        /* \"#utility.yul\":8496:8499   */\n      dup3\n        /* \"#utility.yul\":8492:8503   */\n      add\n        /* \"#utility.yul\":8485:8503   */\n      swap1\n      pop\n        /* \"#utility.yul\":8111:8509   */\n      swap2\n      swap1\n      pop\n      jump\t// out\n        /* \"#utility.yul\":8515:8894   */\n    tag_46:\n        /* \"#utility.yul\":8699:8702   */\n      0x00\n        /* \"#utility.yul\":8721:8868   */\n      tag_193\n        /* \"#utility.yul\":8864:8867   */\n      dup3\n        /* \"#utility.yul\":8721:8868   */\n      tag_95\n      jump\t// in\n    tag_193:\n        /* \"#utility.yul\":8714:8868   */\n      swap2\n      pop\n        /* \"#utility.yul\":8885:8888   */\n      dup2\n        /* \"#utility.yul\":8878:8888   */\n      swap1\n      pop\n        /* \"#utility.yul\":8515:8894   */\n      swap2\n      swap1\n      pop\n      jump\t// out\n        /* \"#utility.yul\":8900:9122   */\n    tag_96:\n        /* \"#utility.yul\":9040:9074   */\n      0x4661696c656420746f2073656e64206465706f73697420746f2070726f706f6e\n        /* \"#utility.yul\":9036:9037   */\n      0x00\n        /* \"#utility.yul\":9028:9034   */\n      dup3\n        /* \"#utility.yul\":9024:9038   */\n      add\n        /* \"#utility.yul\":9017:9075   */\n      mstore\n        /* \"#utility.yul\":9109:9114   */\n      0x656e740000000000000000000000000000000000000000000000000000000000\n        /* \"#utility.yul\":9104:9106   */\n      0x20\n        /* \"#utility.yul\":9096:9102   */\n      dup3\n        /* \"#utility.yul\":9092:9107   */\n      add\n        /* \"#utility.yul\":9085:9115   */\n      mstore\n        /* \"#utility.yul\":8900:9122   */\n      pop\n      jump\t// out\n        /* \"#utility.yul\":9128:9494   */\n    tag_97:\n        /* \"#utility.yul\":9270:9273   */\n      0x00\n        /* \"#utility.yul\":9291:9358   */\n      tag_196\n        /* \"#utility.yul\":9355:9357   */\n      0x23\n        /* \"#utility.yul\":9350:9353   */\n      dup4\n        /* \"#utility.yul\":9291:9358   */\n      tag_70\n      jump\t// in\n    tag_196:\n        /* \"#utility.yul\":9284:9358   */\n      swap2\n      pop\n        /* \"#utility.yul\":9367:9460   */\n      tag_197\n        /* \"#utility.yul\":9456:9459   */\n      dup3\n        /* \"#utility.yul\":9367:9460   */\n      tag_96\n      jump\t// in\n    tag_197:\n        /* \"#utility.yul\":9485:9487   */\n      0x40\n        /* \"#utility.yul\":9480:9483   */\n      dup3\n        /* \"#utility.yul\":9476:9488   */\n      add\n        /* \"#utility.yul\":9469:9488   */\n      swap1\n      pop\n        /* \"#utility.yul\":9128:9494   */\n      swap2\n      swap1\n      pop\n      jump\t// out\n        /* \"#utility.yul\":9500:9919   */\n    tag_52:\n        /* \"#utility.yul\":9666:9670   */\n      0x00\n        /* \"#utility.yul\":9704:9706   */\n      0x20\n        /* \"#utility.yul\":9693:9702   */\n      dup3\n        /* \"#utility.yul\":9689:9707   */\n      add\n        /* \"#utility.yul\":9681:9707   */\n      swap1\n      pop\n        /* \"#utility.yul\":9753:9762   */\n      dup2\n        /* \"#utility.yul\":9747:9751   */\n      dup2\n        /* \"#utility.yul\":9743:9763   */\n      sub\n        /* \"#utility.yul\":9739:9740   */\n      0x00\n        /* \"#utility.yul\":9728:9737   */\n      dup4\n        /* \"#utility.yul\":9724:9741   */\n      add\n        /* \"#utility.yul\":9717:9764   */\n      mstore\n        /* \"#utility.yul\":9781:9912   */\n      tag_199\n        /* \"#utility.yul\":9907:9911   */\n      dup2\n        /* \"#utility.yul\":9781:9912   */\n      tag_97\n      jump\t// in\n    tag_199:\n        /* \"#utility.yul\":9773:9912   */\n      swap1\n      pop\n        /* \"#utility.yul\":9500:9919   */\n      swap2\n      swap1\n      pop\n      jump\t// out\n        /* \"#utility.yul\":9925:10105   */\n    tag_98:\n        /* \"#utility.yul\":9973:10050   */\n      0x4e487b7100000000000000000000000000000000000000000000000000000000\n        /* \"#utility.yul\":9970:9971   */\n      0x00\n        /* \"#utility.yul\":9963:10051   */\n      mstore\n        /* \"#utility.yul\":10070:10074   */\n      0x22\n        /* \"#utility.yul\":10067:10068   */\n      0x04\n        /* \"#utility.yul\":10060:10075   */\n      mstore\n        /* \"#utility.yul\":10094:10098   */\n      0x24\n        /* \"#utility.yul\":10091:10092   */\n      0x00\n        /* \"#utility.yul\":10084:10099   */\n      revert\n        /* \"#utility.yul\":10111:10431   */\n    tag_54:\n        /* \"#utility.yul\":10155:10161   */\n      0x00\n        /* \"#utility.yul\":10192:10193   */\n      0x02\n        /* \"#utility.yul\":10186:10190   */\n      dup3\n        /* \"#utility.yul\":10182:10194   */\n      div\n        /* \"#utility.yul\":10172:10194   */\n      swap1\n      pop\n        /* \"#utility.yul\":10239:10240   */\n      0x01\n        /* \"#utility.yul\":10233:10237   */\n      dup3\n        /* \"#utility.yul\":10229:10241   */\n      and\n        /* \"#utility.yul\":10260:10278   */\n      dup1\n        /* \"#utility.yul\":10250:10331   */\n      tag_202\n      jumpi\n        /* \"#utility.yul\":10316:10320   */\n      0x7f\n        /* \"#utility.yul\":10308:10314   */\n      dup3\n        /* \"#utility.yul\":10304:10321   */\n      and\n        /* \"#utility.yul\":10294:10321   */\n      swap2\n      pop\n        /* \"#utility.yul\":10250:10331   */\n    tag_202:\n        /* \"#utility.yul\":10378:10380   */\n      0x20\n        /* \"#utility.yul\":10370:10376   */\n      dup3\n        /* \"#utility.yul\":10367:10381   */\n      lt\n        /* \"#utility.yul\":10347:10365   */\n      dup2\n        /* \"#utility.yul\":10344:10382   */\n      sub\n        /* \"#utility.yul\":10341:10425   */\n      tag_203\n      jumpi\n        /* \"#utility.yul\":10397:10415   */\n      tag_204\n      tag_98\n      jump\t// in\n    tag_204:\n        /* \"#utility.yul\":10341:10425   */\n    tag_203:\n        /* \"#utility.yul\":10162:10431   */\n      pop\n        /* \"#utility.yul\":10111:10431   */\n      swap2\n      swap1\n      pop\n      jump\t// out\n        /* \"#utility.yul\":10437:10628   */\n    tag_66:\n        /* \"#utility.yul\":10477:10480   */\n      0x00\n        /* \"#utility.yul\":10496:10516   */\n      tag_206\n        /* \"#utility.yul\":10514:10515   */\n      dup3\n        /* \"#utility.yul\":10496:10516   */\n      tag_76\n      jump\t// in\n    tag_206:\n        /* \"#utility.yul\":10491:10516   */\n      swap2\n      pop\n        /* \"#utility.yul\":10530:10550   */\n      tag_207\n        /* \"#utility.yul\":10548:10549   */\n      dup4\n        /* \"#utility.yul\":10530:10550   */\n      tag_76\n      jump\t// in\n    tag_207:\n        /* \"#utility.yul\":10525:10550   */\n      swap3\n      pop\n        /* \"#utility.yul\":10573:10574   */\n      dup3\n        /* \"#utility.yul\":10570:10571   */\n      dup3\n        /* \"#utility.yul\":10566:10575   */\n      add\n        /* \"#utility.yul\":10559:10575   */\n      swap1\n      pop\n        /* \"#utility.yul\":10594:10597   */\n      dup1\n        /* \"#utility.yul\":10591:10592   */\n      dup3\n        /* \"#utility.yul\":10588:10598   */\n      gt\n        /* \"#utility.yul\":10585:10621   */\n      iszero\n      tag_208\n      jumpi\n        /* \"#utility.yul\":10601:10619   */\n      tag_209\n      tag_91\n      jump\t// in\n    tag_209:\n        /* \"#utility.yul\":10585:10621   */\n    tag_208:\n        /* \"#utility.yul\":10437:10628   */\n      swap3\n      swap2\n      pop\n      pop\n      jump\t// out\n\n    auxdata: 0xa2646970667358221220e71e9dbc7e6f7d65d72211def334e199892d974e985fb78777bc24cb2e8da17764736f6c634300081a0033\n}\n",
				"bytecode": {
					"linkReferences": {},
					"object": "6080604052348015600e575f80fd5b506109968061001c5f395ff3fe608060405260043610610042575f3560e01c80634ec508f914610091578063d29709fb146100ce578063ddfc5cfe146100ea578063f056ac0c146101285761008d565b3661008d57610bb8471461008b576040517f08c379a000000000000000000000000000000000000000000000000000000000815260040161008290610435565b60405180910390fd5b005b5f80fd5b34801561009c575f80fd5b506100b760048036038101906100b2919061048a565b610164565b6040516100c59291906104c4565b60405180910390f35b6100e860048036038101906100e39190610545565b6101a1565b005b3480156100f5575f80fd5b50610110600480360381019061010b9190610583565b610251565b60405161011f9392919061060e565b60405180910390f35b348015610133575f80fd5b5061014e6004803603810190610149919061067f565b6102fc565b60405161015b91906106e3565b60405180910390f35b5f805f6005846101749190610730565b6103e8610181919061079e565b90505f816103e861019291906107ce565b90508181935093505050915091565b5f808373ffffffffffffffffffffffffffffffffffffffff16836040516101c79061082e565b5f6040518083038185875af1925050503d805f8114610201576040519150601f19603f3d011682016040523d82523d5f602084013e610206565b606091505b50915091508161024b576040517f08c379a0000000000000000000000000000000000000000000000000000000008152600401610242906108b2565b60405180910390fd5b50505050565b5f602052805f5260405f205f91509050805f01805461026f906108fd565b80601f016020809104026020016040519081016040528092919081815260200182805461029b906108fd565b80156102e65780601f106102bd576101008083540402835291602001916102e6565b820191905f5260205f20905b8154815290600101906020018083116102c957829003601f168201915b5050505050908060010154908060020154905083565b60605f806103485f808973ffffffffffffffffffffffffffffffffffffffff1673ffffffffffffffffffffffffffffffffffffffff1681526020019081526020015f2060010154610164565b915091508580156103565750845b156103815761036587836101a1565b61037c846107d083610377919061092d565b6101a1565b610399565b610398846107d083610393919061092d565b6101a1565b5b6040518060400160405280600781526020017f737563636573730000000000000000000000000000000000000000000000000081525092505050949350505050565b5f82825260208201905092915050565b7f4e6f7420706169640000000000000000000000000000000000000000000000005f82015250565b5f61041f6008836103db565b915061042a826103eb565b602082019050919050565b5f6020820190508181035f83015261044c81610413565b9050919050565b5f80fd5b5f819050919050565b61046981610457565b8114610473575f80fd5b50565b5f8135905061048481610460565b92915050565b5f6020828403121561049f5761049e610453565b5b5f6104ac84828501610476565b91505092915050565b6104be81610457565b82525050565b5f6040820190506104d75f8301856104b5565b6104e460208301846104b5565b9392505050565b5f73ffffffffffffffffffffffffffffffffffffffff82169050919050565b5f610514826104eb565b9050919050565b6105248161050a565b811461052e575f80fd5b50565b5f8135905061053f8161051b565b92915050565b5f806040838503121561055b5761055a610453565b5b5f61056885828601610531565b925050602061057985828601610476565b9150509250929050565b5f6020828403121561059857610597610453565b5b5f6105a584828501610531565b91505092915050565b5f81519050919050565b8281835e5f83830152505050565b5f601f19601f8301169050919050565b5f6105e0826105ae565b6105ea81856103db565b93506105fa8185602086016105b8565b610603816105c6565b840191505092915050565b5f6060820190508181035f83015261062681866105d6565b905061063560208301856104b5565b61064260408301846104b5565b949350505050565b5f8115159050919050565b61065e8161064a565b8114610668575f80fd5b50565b5f8135905061067981610655565b92915050565b5f805f806080858703121561069757610696610453565b5b5f6106a487828801610531565b94505060206106b58782880161066b565b93505060406106c68782880161066b565b92505060606106d787828801610531565b91505092959194509250565b5f6020820190508181035f8301526106fb81846105d6565b905092915050565b7f4e487b71000000000000000000000000000000000000000000000000000000005f52601160045260245ffd5b5f61073a82610457565b915061074583610457565b925082820261075381610457565b9150828204841483151761076a57610769610703565b5b5092915050565b7f4e487b71000000000000000000000000000000000000000000000000000000005f52601260045260245ffd5b5f6107a882610457565b91506107b383610457565b9250826107c3576107c2610771565b5b828204905092915050565b5f6107d882610457565b91506107e383610457565b92508282039050818111156107fb576107fa610703565b5b92915050565b5f81905092915050565b50565b5f6108195f83610801565b91506108248261080b565b5f82019050919050565b5f6108388261080e565b9150819050919050565b7f4661696c656420746f2073656e64206465706f73697420746f2070726f706f6e5f8201527f656e740000000000000000000000000000000000000000000000000000000000602082015250565b5f61089c6023836103db565b91506108a782610842565b604082019050919050565b5f6020820190508181035f8301526108c981610890565b9050919050565b7f4e487b71000000000000000000000000000000000000000000000000000000005f52602260045260245ffd5b5f600282049050600182168061091457607f821691505b602082108103610927576109266108d0565b5b50919050565b5f61093782610457565b915061094283610457565b925082820190508082111561095a57610959610703565b5b9291505056fea2646970667358221220e71e9dbc7e6f7d65d72211def334e199892d974e985fb78777bc24cb2e8da17764736f6c634300081a0033",
					"opcodes": "PUSH1 0x80 PUSH1 0x40 MSTORE CALLVALUE DUP1 ISZERO PUSH1 0xE JUMPI PUSH0 DUP1 REVERT JUMPDEST POP PUSH2 0x996 DUP1 PUSH2 0x1C PUSH0 CODECOPY PUSH0 RETURN INVALID PUSH1 0x80 PUSH1 0x40 MSTORE PUSH1 0x4 CALLDATASIZE LT PUSH2 0x42 JUMPI PUSH0 CALLDATALOAD PUSH1 0xE0 SHR DUP1 PUSH4 0x4EC508F9 EQ PUSH2 0x91 JUMPI DUP1 PUSH4 0xD29709FB EQ PUSH2 0xCE JUMPI DUP1 PUSH4 0xDDFC5CFE EQ PUSH2 0xEA JUMPI DUP1 PUSH4 0xF056AC0C EQ PUSH2 0x128 JUMPI PUSH2 0x8D JUMP JUMPDEST CALLDATASIZE PUSH2 0x8D JUMPI PUSH2 0xBB8 SELFBALANCE EQ PUSH2 0x8B JUMPI PUSH1 0x40 MLOAD PUSH32 0x8C379A000000000000000000000000000000000000000000000000000000000 DUP2 MSTORE PUSH1 0x4 ADD PUSH2 0x82 SWAP1 PUSH2 0x435 JUMP JUMPDEST PUSH1 0x40 MLOAD DUP1 SWAP2 SUB SWAP1 REVERT JUMPDEST STOP JUMPDEST PUSH0 DUP1 REVERT JUMPDEST CALLVALUE DUP1 ISZERO PUSH2 0x9C JUMPI PUSH0 DUP1 REVERT JUMPDEST POP PUSH2 0xB7 PUSH1 0x4 DUP1 CALLDATASIZE SUB DUP2 ADD SWAP1 PUSH2 0xB2 SWAP2 SWAP1 PUSH2 0x48A JUMP JUMPDEST PUSH2 0x164 JUMP JUMPDEST PUSH1 0x40 MLOAD PUSH2 0xC5 SWAP3 SWAP2 SWAP1 PUSH2 0x4C4 JUMP JUMPDEST PUSH1 0x40 MLOAD DUP1 SWAP2 SUB SWAP1 RETURN JUMPDEST PUSH2 0xE8 PUSH1 0x4 DUP1 CALLDATASIZE SUB DUP2 ADD SWAP1 PUSH2 0xE3 SWAP2 SWAP1 PUSH2 0x545 JUMP JUMPDEST PUSH2 0x1A1 JUMP JUMPDEST STOP JUMPDEST CALLVALUE DUP1 ISZERO PUSH2 0xF5 JUMPI PUSH0 DUP1 REVERT JUMPDEST POP PUSH2 0x110 PUSH1 0x4 DUP1 CALLDATASIZE SUB DUP2 ADD SWAP1 PUSH2 0x10B SWAP2 SWAP1 PUSH2 0x583 JUMP JUMPDEST PUSH2 0x251 JUMP JUMPDEST PUSH1 0x40 MLOAD PUSH2 0x11F SWAP4 SWAP3 SWAP2 SWAP1 PUSH2 0x60E JUMP JUMPDEST PUSH1 0x40 MLOAD DUP1 SWAP2 SUB SWAP1 RETURN JUMPDEST CALLVALUE DUP1 ISZERO PUSH2 0x133 JUMPI PUSH0 DUP1 REVERT JUMPDEST POP PUSH2 0x14E PUSH1 0x4 DUP1 CALLDATASIZE SUB DUP2 ADD SWAP1 PUSH2 0x149 SWAP2 SWAP1 PUSH2 0x67F JUMP JUMPDEST PUSH2 0x2FC JUMP JUMPDEST PUSH1 0x40 MLOAD PUSH2 0x15B SWAP2 SWAP1 PUSH2 0x6E3 JUMP JUMPDEST PUSH1 0x40 MLOAD DUP1 SWAP2 SUB SWAP1 RETURN JUMPDEST PUSH0 DUP1 PUSH0 PUSH1 0x5 DUP5 PUSH2 0x174 SWAP2 SWAP1 PUSH2 0x730 JUMP JUMPDEST PUSH2 0x3E8 PUSH2 0x181 SWAP2 SWAP1 PUSH2 0x79E JUMP JUMPDEST SWAP1 POP PUSH0 DUP2 PUSH2 0x3E8 PUSH2 0x192 SWAP2 SWAP1 PUSH2 0x7CE JUMP JUMPDEST SWAP1 POP DUP2 DUP2 SWAP4 POP SWAP4 POP POP POP SWAP2 POP SWAP2 JUMP JUMPDEST PUSH0 DUP1 DUP4 PUSH20 0xFFFFFFFFFFFFFFFFFFFFFFFFFFFFFFFFFFFFFFFF AND DUP4 PUSH1 0x40 MLOAD PUSH2 0x1C7 SWAP1 PUSH2 0x82E JUMP JUMPDEST PUSH0 PUSH1 0x40 MLOAD DUP1 DUP4 SUB DUP2 DUP6 DUP8 GAS CALL SWAP3 POP POP POP RETURNDATASIZE DUP1 PUSH0 DUP2 EQ PUSH2 0x201 JUMPI PUSH1 0x40 MLOAD SWAP2 POP PUSH1 0x1F NOT PUSH1 0x3F RETURNDATASIZE ADD AND DUP3 ADD PUSH1 0x40 MSTORE RETURNDATASIZE DUP3 MSTORE RETURNDATASIZE PUSH0 PUSH1 0x20 DUP5 ADD RETURNDATACOPY PUSH2 0x206 JUMP JUMPDEST PUSH1 0x60 SWAP2 POP JUMPDEST POP SWAP2 POP SWAP2 POP DUP2 PUSH2 0x24B JUMPI PUSH1 0x40 MLOAD PUSH32 0x8C379A000000000000000000000000000000000000000000000000000000000 DUP2 MSTORE PUSH1 0x4 ADD PUSH2 0x242 SWAP1 PUSH2 0x8B2 JUMP JUMPDEST PUSH1 0x40 MLOAD DUP1 SWAP2 SUB SWAP1 REVERT JUMPDEST POP POP POP POP JUMP JUMPDEST PUSH0 PUSH1 0x20 MSTORE DUP1 PUSH0 MSTORE PUSH1 0x40 PUSH0 KECCAK256 PUSH0 SWAP2 POP SWAP1 POP DUP1 PUSH0 ADD DUP1 SLOAD PUSH2 0x26F SWAP1 PUSH2 0x8FD JUMP JUMPDEST DUP1 PUSH1 0x1F ADD PUSH1 0x20 DUP1 SWAP2 DIV MUL PUSH1 0x20 ADD PUSH1 0x40 MLOAD SWAP1 DUP2 ADD PUSH1 0x40 MSTORE DUP1 SWAP3 SWAP2 SWAP1 DUP2 DUP2 MSTORE PUSH1 0x20 ADD DUP3 DUP1 SLOAD PUSH2 0x29B SWAP1 PUSH2 0x8FD JUMP JUMPDEST DUP1 ISZERO PUSH2 0x2E6 JUMPI DUP1 PUSH1 0x1F LT PUSH2 0x2BD JUMPI PUSH2 0x100 DUP1 DUP4 SLOAD DIV MUL DUP4 MSTORE SWAP2 PUSH1 0x20 ADD SWAP2 PUSH2 0x2E6 JUMP JUMPDEST DUP3 ADD SWAP2 SWAP1 PUSH0 MSTORE PUSH1 0x20 PUSH0 KECCAK256 SWAP1 JUMPDEST DUP2 SLOAD DUP2 MSTORE SWAP1 PUSH1 0x1 ADD SWAP1 PUSH1 0x20 ADD DUP1 DUP4 GT PUSH2 0x2C9 JUMPI DUP3 SWAP1 SUB PUSH1 0x1F AND DUP3 ADD SWAP2 JUMPDEST POP POP POP POP POP SWAP1 DUP1 PUSH1 0x1 ADD SLOAD SWAP1 DUP1 PUSH1 0x2 ADD SLOAD SWAP1 POP DUP4 JUMP JUMPDEST PUSH1 0x60 PUSH0 DUP1 PUSH2 0x348 PUSH0 DUP1 DUP10 PUSH20 0xFFFFFFFFFFFFFFFFFFFFFFFFFFFFFFFFFFFFFFFF AND PUSH20 0xFFFFFFFFFFFFFFFFFFFFFFFFFFFFFFFFFFFFFFFF AND DUP2 MSTORE PUSH1 0x20 ADD SWAP1 DUP2 MSTORE PUSH1 0x20 ADD PUSH0 KECCAK256 PUSH1 0x1 ADD SLOAD PUSH2 0x164 JUMP JUMPDEST SWAP2 POP SWAP2 POP DUP6 DUP1 ISZERO PUSH2 0x356 JUMPI POP DUP5 JUMPDEST ISZERO PUSH2 0x381 JUMPI PUSH2 0x365 DUP8 DUP4 PUSH2 0x1A1 JUMP JUMPDEST PUSH2 0x37C DUP5 PUSH2 0x7D0 DUP4 PUSH2 0x377 SWAP2 SWAP1 PUSH2 0x92D JUMP JUMPDEST PUSH2 0x1A1 JUMP JUMPDEST PUSH2 0x399 JUMP JUMPDEST PUSH2 0x398 DUP5 PUSH2 0x7D0 DUP4 PUSH2 0x393 SWAP2 SWAP1 PUSH2 0x92D JUMP JUMPDEST PUSH2 0x1A1 JUMP JUMPDEST JUMPDEST PUSH1 0x40 MLOAD DUP1 PUSH1 0x40 ADD PUSH1 0x40 MSTORE DUP1 PUSH1 0x7 DUP2 MSTORE PUSH1 0x20 ADD PUSH32 0x7375636365737300000000000000000000000000000000000000000000000000 DUP2 MSTORE POP SWAP3 POP POP POP SWAP5 SWAP4 POP POP POP POP JUMP JUMPDEST PUSH0 DUP3 DUP3 MSTORE PUSH1 0x20 DUP3 ADD SWAP1 POP SWAP3 SWAP2 POP POP JUMP JUMPDEST PUSH32 0x4E6F742070616964000000000000000000000000000000000000000000000000 PUSH0 DUP3 ADD MSTORE POP JUMP JUMPDEST PUSH0 PUSH2 0x41F PUSH1 0x8 DUP4 PUSH2 0x3DB JUMP JUMPDEST SWAP2 POP PUSH2 0x42A DUP3 PUSH2 0x3EB JUMP JUMPDEST PUSH1 0x20 DUP3 ADD SWAP1 POP SWAP2 SWAP1 POP JUMP JUMPDEST PUSH0 PUSH1 0x20 DUP3 ADD SWAP1 POP DUP2 DUP2 SUB PUSH0 DUP4 ADD MSTORE PUSH2 0x44C DUP2 PUSH2 0x413 JUMP JUMPDEST SWAP1 POP SWAP2 SWAP1 POP JUMP JUMPDEST PUSH0 DUP1 REVERT JUMPDEST PUSH0 DUP2 SWAP1 POP SWAP2 SWAP1 POP JUMP JUMPDEST PUSH2 0x469 DUP2 PUSH2 0x457 JUMP JUMPDEST DUP2 EQ PUSH2 0x473 JUMPI PUSH0 DUP1 REVERT JUMPDEST POP JUMP JUMPDEST PUSH0 DUP2 CALLDATALOAD SWAP1 POP PUSH2 0x484 DUP2 PUSH2 0x460 JUMP JUMPDEST SWAP3 SWAP2 POP POP JUMP JUMPDEST PUSH0 PUSH1 0x20 DUP3 DUP5 SUB SLT ISZERO PUSH2 0x49F JUMPI PUSH2 0x49E PUSH2 0x453 JUMP JUMPDEST JUMPDEST PUSH0 PUSH2 0x4AC DUP5 DUP3 DUP6 ADD PUSH2 0x476 JUMP JUMPDEST SWAP2 POP POP SWAP3 SWAP2 POP POP JUMP JUMPDEST PUSH2 0x4BE DUP2 PUSH2 0x457 JUMP JUMPDEST DUP3 MSTORE POP POP JUMP JUMPDEST PUSH0 PUSH1 0x40 DUP3 ADD SWAP1 POP PUSH2 0x4D7 PUSH0 DUP4 ADD DUP6 PUSH2 0x4B5 JUMP JUMPDEST PUSH2 0x4E4 PUSH1 0x20 DUP4 ADD DUP5 PUSH2 0x4B5 JUMP JUMPDEST SWAP4 SWAP3 POP POP POP JUMP JUMPDEST PUSH0 PUSH20 0xFFFFFFFFFFFFFFFFFFFFFFFFFFFFFFFFFFFFFFFF DUP3 AND SWAP1 POP SWAP2 SWAP1 POP JUMP JUMPDEST PUSH0 PUSH2 0x514 DUP3 PUSH2 0x4EB JUMP JUMPDEST SWAP1 POP SWAP2 SWAP1 POP JUMP JUMPDEST PUSH2 0x524 DUP2 PUSH2 0x50A JUMP JUMPDEST DUP2 EQ PUSH2 0x52E JUMPI PUSH0 DUP1 REVERT JUMPDEST POP JUMP JUMPDEST PUSH0 DUP2 CALLDATALOAD SWAP1 POP PUSH2 0x53F DUP2 PUSH2 0x51B JUMP JUMPDEST SWAP3 SWAP2 POP POP JUMP JUMPDEST PUSH0 DUP1 PUSH1 0x40 DUP4 DUP6 SUB SLT ISZERO PUSH2 0x55B JUMPI PUSH2 0x55A PUSH2 0x453 JUMP JUMPDEST JUMPDEST PUSH0 PUSH2 0x568 DUP6 DUP3 DUP7 ADD PUSH2 0x531 JUMP JUMPDEST SWAP3 POP POP PUSH1 0x20 PUSH2 0x579 DUP6 DUP3 DUP7 ADD PUSH2 0x476 JUMP JUMPDEST SWAP2 POP POP SWAP3 POP SWAP3 SWAP1 POP JUMP JUMPDEST PUSH0 PUSH1 0x20 DUP3 DUP5 SUB SLT ISZERO PUSH2 0x598 JUMPI PUSH2 0x597 PUSH2 0x453 JUMP JUMPDEST JUMPDEST PUSH0 PUSH2 0x5A5 DUP5 DUP3 DUP6 ADD PUSH2 0x531 JUMP JUMPDEST SWAP2 POP POP SWAP3 SWAP2 POP POP JUMP JUMPDEST PUSH0 DUP2 MLOAD SWAP1 POP SWAP2 SWAP1 POP JUMP JUMPDEST DUP3 DUP2 DUP4 MCOPY PUSH0 DUP4 DUP4 ADD MSTORE POP POP POP JUMP JUMPDEST PUSH0 PUSH1 0x1F NOT PUSH1 0x1F DUP4 ADD AND SWAP1 POP SWAP2 SWAP1 POP JUMP JUMPDEST PUSH0 PUSH2 0x5E0 DUP3 PUSH2 0x5AE JUMP JUMPDEST PUSH2 0x5EA DUP2 DUP6 PUSH2 0x3DB JUMP JUMPDEST SWAP4 POP PUSH2 0x5FA DUP2 DUP6 PUSH1 0x20 DUP7 ADD PUSH2 0x5B8 JUMP JUMPDEST PUSH2 0x603 DUP2 PUSH2 0x5C6 JUMP JUMPDEST DUP5 ADD SWAP2 POP POP SWAP3 SWAP2 POP POP JUMP JUMPDEST PUSH0 PUSH1 0x60 DUP3 ADD SWAP1 POP DUP2 DUP2 SUB PUSH0 DUP4 ADD MSTORE PUSH2 0x626 DUP2 DUP7 PUSH2 0x5D6 JUMP JUMPDEST SWAP1 POP PUSH2 0x635 PUSH1 0x20 DUP4 ADD DUP6 PUSH2 0x4B5 JUMP JUMPDEST PUSH2 0x642 PUSH1 0x40 DUP4 ADD DUP5 PUSH2 0x4B5 JUMP JUMPDEST SWAP5 SWAP4 POP POP POP POP JUMP JUMPDEST PUSH0 DUP2 ISZERO ISZERO SWAP1 POP SWAP2 SWAP1 POP JUMP JUMPDEST PUSH2 0x65E DUP2 PUSH2 0x64A JUMP JUMPDEST DUP2 EQ PUSH2 0x668 JUMPI PUSH0 DUP1 REVERT JUMPDEST POP JUMP JUMPDEST PUSH0 DUP2 CALLDATALOAD SWAP1 POP PUSH2 0x679 DUP2 PUSH2 0x655 JUMP JUMPDEST SWAP3 SWAP2 POP POP JUMP JUMPDEST PUSH0 DUP1 PUSH0 DUP1 PUSH1 0x80 DUP6 DUP8 SUB SLT ISZERO PUSH2 0x697 JUMPI PUSH2 0x696 PUSH2 0x453 JUMP JUMPDEST JUMPDEST PUSH0 PUSH2 0x6A4 DUP8 DUP3 DUP9 ADD PUSH2 0x531 JUMP JUMPDEST SWAP5 POP POP PUSH1 0x20 PUSH2 0x6B5 DUP8 DUP3 DUP9 ADD PUSH2 0x66B JUMP JUMPDEST SWAP4 POP POP PUSH1 0x40 PUSH2 0x6C6 DUP8 DUP3 DUP9 ADD PUSH2 0x66B JUMP JUMPDEST SWAP3 POP POP PUSH1 0x60 PUSH2 0x6D7 DUP8 DUP3 DUP9 ADD PUSH2 0x531 JUMP JUMPDEST SWAP2 POP POP SWAP3 SWAP6 SWAP2 SWAP5 POP SWAP3 POP JUMP JUMPDEST PUSH0 PUSH1 0x20 DUP3 ADD SWAP1 POP DUP2 DUP2 SUB PUSH0 DUP4 ADD MSTORE PUSH2 0x6FB DUP2 DUP5 PUSH2 0x5D6 JUMP JUMPDEST SWAP1 POP SWAP3 SWAP2 POP POP JUMP JUMPDEST PUSH32 0x4E487B7100000000000000000000000000000000000000000000000000000000 PUSH0 MSTORE PUSH1 0x11 PUSH1 0x4 MSTORE PUSH1 0x24 PUSH0 REVERT JUMPDEST PUSH0 PUSH2 0x73A DUP3 PUSH2 0x457 JUMP JUMPDEST SWAP2 POP PUSH2 0x745 DUP4 PUSH2 0x457 JUMP JUMPDEST SWAP3 POP DUP3 DUP3 MUL PUSH2 0x753 DUP2 PUSH2 0x457 JUMP JUMPDEST SWAP2 POP DUP3 DUP3 DIV DUP5 EQ DUP4 ISZERO OR PUSH2 0x76A JUMPI PUSH2 0x769 PUSH2 0x703 JUMP JUMPDEST JUMPDEST POP SWAP3 SWAP2 POP POP JUMP JUMPDEST PUSH32 0x4E487B7100000000000000000000000000000000000000000000000000000000 PUSH0 MSTORE PUSH1 0x12 PUSH1 0x4 MSTORE PUSH1 0x24 PUSH0 REVERT JUMPDEST PUSH0 PUSH2 0x7A8 DUP3 PUSH2 0x457 JUMP JUMPDEST SWAP2 POP PUSH2 0x7B3 DUP4 PUSH2 0x457 JUMP JUMPDEST SWAP3 POP DUP3 PUSH2 0x7C3 JUMPI PUSH2 0x7C2 PUSH2 0x771 JUMP JUMPDEST JUMPDEST DUP3 DUP3 DIV SWAP1 POP SWAP3 SWAP2 POP POP JUMP JUMPDEST PUSH0 PUSH2 0x7D8 DUP3 PUSH2 0x457 JUMP JUMPDEST SWAP2 POP PUSH2 0x7E3 DUP4 PUSH2 0x457 JUMP JUMPDEST SWAP3 POP DUP3 DUP3 SUB SWAP1 POP DUP2 DUP2 GT ISZERO PUSH2 0x7FB JUMPI PUSH2 0x7FA PUSH2 0x703 JUMP JUMPDEST JUMPDEST SWAP3 SWAP2 POP POP JUMP JUMPDEST PUSH0 DUP2 SWAP1 POP SWAP3 SWAP2 POP POP JUMP JUMPDEST POP JUMP JUMPDEST PUSH0 PUSH2 0x819 PUSH0 DUP4 PUSH2 0x801 JUMP JUMPDEST SWAP2 POP PUSH2 0x824 DUP3 PUSH2 0x80B JUMP JUMPDEST PUSH0 DUP3 ADD SWAP1 POP SWAP2 SWAP1 POP JUMP JUMPDEST PUSH0 PUSH2 0x838 DUP3 PUSH2 0x80E JUMP JUMPDEST SWAP2 POP DUP2 SWAP1 POP SWAP2 SWAP1 POP JUMP JUMPDEST PUSH32 0x4661696C656420746F2073656E64206465706F73697420746F2070726F706F6E PUSH0 DUP3 ADD MSTORE PUSH32 0x656E740000000000000000000000000000000000000000000000000000000000 PUSH1 0x20 DUP3 ADD MSTORE POP JUMP JUMPDEST PUSH0 PUSH2 0x89C PUSH1 0x23 DUP4 PUSH2 0x3DB JUMP JUMPDEST SWAP2 POP PUSH2 0x8A7 DUP3 PUSH2 0x842 JUMP JUMPDEST PUSH1 0x40 DUP3 ADD SWAP1 POP SWAP2 SWAP1 POP JUMP JUMPDEST PUSH0 PUSH1 0x20 DUP3 ADD SWAP1 POP DUP2 DUP2 SUB PUSH0 DUP4 ADD MSTORE PUSH2 0x8C9 DUP2 PUSH2 0x890 JUMP JUMPDEST SWAP1 POP SWAP2 SWAP1 POP JUMP JUMPDEST PUSH32 0x4E487B7100000000000000000000000000000000000000000000000000000000 PUSH0 MSTORE PUSH1 0x22 PUSH1 0x4 MSTORE PUSH1 0x24 PUSH0 REVERT JUMPDEST PUSH0 PUSH1 0x2 DUP3 DIV SWAP1 POP PUSH1 0x1 DUP3 AND DUP1 PUSH2 0x914 JUMPI PUSH1 0x7F DUP3 AND SWAP2 POP JUMPDEST PUSH1 0x20 DUP3 LT DUP2 SUB PUSH2 0x927 JUMPI PUSH2 0x926 PUSH2 0x8D0 JUMP JUMPDEST JUMPDEST POP SWAP2 SWAP1 POP JUMP JUMPDEST PUSH0 PUSH2 0x937 DUP3 PUSH2 0x457 JUMP JUMPDEST SWAP2 POP PUSH2 0x942 DUP4 PUSH2 0x457 JUMP JUMPDEST SWAP3 POP DUP3 DUP3 ADD SWAP1 POP DUP1 DUP3 GT ISZERO PUSH2 0x95A JUMPI PUSH2 0x959 PUSH2 0x703 JUMP JUMPDEST JUMPDEST SWAP3 SWAP2 POP POP JUMP INVALID LOG2 PUSH5 0x6970667358 0x22 SLT KECCAK256 0xE7 0x1E SWAP14 0xBC PUSH31 0x6F7D65D72211DEF334E199892D974E985FB78777BC24CB2E8DA17764736F6C PUSH4 0x4300081A STOP CALLER "
				},
				"gasEstimates": {
					"creation": {
						"codeDepositCost": "490800",
						"executionCost": "522",
						"totalCost": "491322"
					},
					"external": {
						"calculateDeposit(uint256)": "infinite",
						"proponents(address)": "infinite",
						"returnDeposit(address,uint256)": "infinite",
						"sendResult(address,bool,bool,address)": "infinite"
					}
				},
				"methodIdentifiers": {
					"calculateDeposit(uint256)": "4ec508f9",
					"proponents(address)": "ddfc5cfe",
					"returnDeposit(address,uint256)": "d29709fb",
					"sendResult(address,bool,bool,address)": "f056ac0c"
				}
			},
			"storageLayout": {
				"storage": [
					{
						"astId": 17,
						"contract": "Carbon-Credits-Verification-with-Blockchain-main/contracts/lock-contract.sol:Lock",
						"label": "proponents",
						"offset": 0,
						"slot": "0",
						"type": "t_mapping(t_address,t_struct(Proponents)8_storage)"
					}
				],
				"types": {
					"t_address": {
						"encoding": "inplace",
						"label": "address",
						"numberOfBytes": "20"
					},
					"t_mapping(t_address,t_struct(Proponents)8_storage)": {
						"encoding": "mapping",
						"key": "t_address",
						"label": "mapping(address => struct Lock.Proponents)",
						"numberOfBytes": "32",
						"value": "t_struct(Proponents)8_storage"
					},
					"t_string_storage": {
						"encoding": "bytes",
						"label": "string",
						"numberOfBytes": "32"
					},
					"t_struct(Proponents)8_storage": {
						"encoding": "inplace",
						"label": "struct Lock.Proponents",
						"members": [
							{
								"astId": 3,
								"contract": "Carbon-Credits-Verification-with-Blockchain-main/contracts/lock-contract.sol:Lock",
								"label": "name",
								"offset": 0,
								"slot": "0",
								"type": "t_string_storage"
							},
							{
								"astId": 5,
								"contract": "Carbon-Credits-Verification-with-Blockchain-main/contracts/lock-contract.sol:Lock",
								"label": "repScore",
								"offset": 0,
								"slot": "1",
								"type": "t_uint256"
							},
							{
								"astId": 7,
								"contract": "Carbon-Credits-Verification-with-Blockchain-main/contracts/lock-contract.sol:Lock",
								"label": "balance",
								"offset": 0,
								"slot": "2",
								"type": "t_uint256"
							}
						],
						"numberOfBytes": "96"
					},
					"t_uint256": {
						"encoding": "inplace",
						"label": "uint256",
						"numberOfBytes": "32"
					}
				}
			},
			"userdoc": {
				"kind": "user",
				"methods": {},
				"version": 1
			}
		}
	}
}