{
	"Carbon-Credits-Verification-with-Blockchain-main/contracts/automationNode.sol": {
		"AutomationNode": {
			"abi": [
				{
					"inputs": [
						{
							"internalType": "contract LinkTokenInterface",
							"name": "link",
							"type": "address"
						},
						{
							"internalType": "contract AutomationRegistrarInterface",
							"name": "registrar",
							"type": "address"
						}
					],
					"stateMutability": "nonpayable",
					"type": "constructor"
				},
				{
					"inputs": [],
					"name": "i_link",
					"outputs": [
						{
							"internalType": "contract LinkTokenInterface",
							"name": "",
							"type": "address"
						}
					],
					"stateMutability": "view",
					"type": "function"
				},
				{
					"inputs": [],
					"name": "i_registrar",
					"outputs": [
						{
							"internalType": "contract AutomationRegistrarInterface",
							"name": "",
							"type": "address"
						}
					],
					"stateMutability": "view",
					"type": "function"
				},
				{
					"inputs": [],
					"name": "registerAndPredictID",
					"outputs": [],
					"stateMutability": "nonpayable",
					"type": "function"
				}
			],
			"devdoc": {
				"kind": "dev",
				"methods": {},
				"version": 1
			},
			"evm": {
				"assembly": "    /* \"Carbon-Credits-Verification-with-Blockchain-main/contracts/automationNode.sol\":1672:2939  contract AutomationNode {... */\n  mstore(0x40, 0xc0)\n    /* \"Carbon-Credits-Verification-with-Blockchain-main/contracts/automationNode.sol\":1814:1976  constructor(... */\n  callvalue\n  dup1\n  iszero\n  tag_1\n  jumpi\n  revert(0x00, 0x00)\ntag_1:\n  pop\n  mload(0x40)\n  sub(codesize, bytecodeSize)\n  dup1\n  bytecodeSize\n  dup4\n  codecopy\n  dup2\n  dup2\n  add\n  0x40\n  mstore\n  dup2\n  add\n  swap1\n  tag_2\n  swap2\n  swap1\n  tag_3\n  jump\t// in\ntag_2:\n    /* \"Carbon-Credits-Verification-with-Blockchain-main/contracts/automationNode.sol\":1932:1936  link */\n  dup2\n    /* \"Carbon-Credits-Verification-with-Blockchain-main/contracts/automationNode.sol\":1923:1936  i_link = link */\n  0xffffffffffffffffffffffffffffffffffffffff\n  and\n  0x80\n  dup2\n  0xffffffffffffffffffffffffffffffffffffffff\n  and\n  dup2\n  mstore\n  pop\n  pop\n    /* \"Carbon-Credits-Verification-with-Blockchain-main/contracts/automationNode.sol\":1960:1969  registrar */\n  dup1\n    /* \"Carbon-Credits-Verification-with-Blockchain-main/contracts/automationNode.sol\":1946:1969  i_registrar = registrar */\n  0xffffffffffffffffffffffffffffffffffffffff\n  and\n  0xa0\n  dup2\n  0xffffffffffffffffffffffffffffffffffffffff\n  and\n  dup2\n  mstore\n  pop\n  pop\n    /* \"Carbon-Credits-Verification-with-Blockchain-main/contracts/automationNode.sol\":1814:1976  constructor(... */\n  pop\n  pop\n    /* \"Carbon-Credits-Verification-with-Blockchain-main/contracts/automationNode.sol\":1672:2939  contract AutomationNode {... */\n  jump(tag_6)\n    /* \"#utility.yul\":88:205   */\ntag_8:\n    /* \"#utility.yul\":197:198   */\n  0x00\n    /* \"#utility.yul\":194:195   */\n  0x00\n    /* \"#utility.yul\":187:199   */\n  revert\n    /* \"#utility.yul\":334:460   */\ntag_10:\n    /* \"#utility.yul\":371:378   */\n  0x00\n    /* \"#utility.yul\":411:453   */\n  0xffffffffffffffffffffffffffffffffffffffff\n    /* \"#utility.yul\":404:409   */\n  dup3\n    /* \"#utility.yul\":400:454   */\n  and\n    /* \"#utility.yul\":389:454   */\n  swap1\n  pop\n    /* \"#utility.yul\":334:460   */\n  swap2\n  swap1\n  pop\n  jump\t// out\n    /* \"#utility.yul\":466:562   */\ntag_11:\n    /* \"#utility.yul\":503:510   */\n  0x00\n    /* \"#utility.yul\":532:556   */\n  tag_24\n    /* \"#utility.yul\":550:555   */\n  dup3\n    /* \"#utility.yul\":532:556   */\n  tag_10\n  jump\t// in\ntag_24:\n    /* \"#utility.yul\":521:556   */\n  swap1\n  pop\n    /* \"#utility.yul\":466:562   */\n  swap2\n  swap1\n  pop\n  jump\t// out\n    /* \"#utility.yul\":568:689   */\ntag_12:\n    /* \"#utility.yul\":630:637   */\n  0x00\n    /* \"#utility.yul\":659:683   */\n  tag_26\n    /* \"#utility.yul\":677:682   */\n  dup3\n    /* \"#utility.yul\":659:683   */\n  tag_11\n  jump\t// in\ntag_26:\n    /* \"#utility.yul\":648:683   */\n  swap1\n  pop\n    /* \"#utility.yul\":568:689   */\n  swap2\n  swap1\n  pop\n  jump\t// out\n    /* \"#utility.yul\":695:867   */\ntag_13:\n    /* \"#utility.yul\":793:842   */\n  tag_28\n    /* \"#utility.yul\":836:841   */\n  dup2\n    /* \"#utility.yul\":793:842   */\n  tag_12\n  jump\t// in\ntag_28:\n    /* \"#utility.yul\":786:791   */\n  dup2\n    /* \"#utility.yul\":783:843   */\n  eq\n    /* \"#utility.yul\":773:861   */\n  tag_29\n  jumpi\n    /* \"#utility.yul\":857:858   */\n  0x00\n    /* \"#utility.yul\":854:855   */\n  0x00\n    /* \"#utility.yul\":847:859   */\n  revert\n    /* \"#utility.yul\":773:861   */\ntag_29:\n    /* \"#utility.yul\":695:867   */\n  pop\n  jump\t// out\n    /* \"#utility.yul\":873:1066   */\ntag_14:\n    /* \"#utility.yul\":955:960   */\n  0x00\n    /* \"#utility.yul\":986:992   */\n  dup2\n    /* \"#utility.yul\":980:993   */\n  mload\n    /* \"#utility.yul\":971:993   */\n  swap1\n  pop\n    /* \"#utility.yul\":1002:1060   */\n  tag_31\n    /* \"#utility.yul\":1054:1059   */\n  dup2\n    /* \"#utility.yul\":1002:1060   */\n  tag_13\n  jump\t// in\ntag_31:\n    /* \"#utility.yul\":873:1066   */\n  swap3\n  swap2\n  pop\n  pop\n  jump\t// out\n    /* \"#utility.yul\":1072:1204   */\ntag_15:\n    /* \"#utility.yul\":1145:1152   */\n  0x00\n    /* \"#utility.yul\":1174:1198   */\n  tag_33\n    /* \"#utility.yul\":1192:1197   */\n  dup3\n    /* \"#utility.yul\":1174:1198   */\n  tag_11\n  jump\t// in\ntag_33:\n    /* \"#utility.yul\":1163:1198   */\n  swap1\n  pop\n    /* \"#utility.yul\":1072:1204   */\n  swap2\n  swap1\n  pop\n  jump\t// out\n    /* \"#utility.yul\":1210:1404   */\ntag_16:\n    /* \"#utility.yul\":1319:1379   */\n  tag_35\n    /* \"#utility.yul\":1373:1378   */\n  dup2\n    /* \"#utility.yul\":1319:1379   */\n  tag_15\n  jump\t// in\ntag_35:\n    /* \"#utility.yul\":1312:1317   */\n  dup2\n    /* \"#utility.yul\":1309:1380   */\n  eq\n    /* \"#utility.yul\":1299:1398   */\n  tag_36\n  jumpi\n    /* \"#utility.yul\":1394:1395   */\n  0x00\n    /* \"#utility.yul\":1391:1392   */\n  0x00\n    /* \"#utility.yul\":1384:1396   */\n  revert\n    /* \"#utility.yul\":1299:1398   */\ntag_36:\n    /* \"#utility.yul\":1210:1404   */\n  pop\n  jump\t// out\n    /* \"#utility.yul\":1410:1625   */\ntag_17:\n    /* \"#utility.yul\":1503:1508   */\n  0x00\n    /* \"#utility.yul\":1534:1540   */\n  dup2\n    /* \"#utility.yul\":1528:1541   */\n  mload\n    /* \"#utility.yul\":1519:1541   */\n  swap1\n  pop\n    /* \"#utility.yul\":1550:1619   */\n  tag_38\n    /* \"#utility.yul\":1613:1618   */\n  dup2\n    /* \"#utility.yul\":1550:1619   */\n  tag_16\n  jump\t// in\ntag_38:\n    /* \"#utility.yul\":1410:1625   */\n  swap3\n  swap2\n  pop\n  pop\n  jump\t// out\n    /* \"#utility.yul\":1631:2260   */\ntag_3:\n    /* \"#utility.yul\":1771:1777   */\n  0x00\n    /* \"#utility.yul\":1779:1785   */\n  0x00\n    /* \"#utility.yul\":1828:1830   */\n  0x40\n    /* \"#utility.yul\":1816:1825   */\n  dup4\n    /* \"#utility.yul\":1807:1814   */\n  dup6\n    /* \"#utility.yul\":1803:1826   */\n  sub\n    /* \"#utility.yul\":1799:1831   */\n  slt\n    /* \"#utility.yul\":1796:1915   */\n  iszero\n  tag_40\n  jumpi\n    /* \"#utility.yul\":1834:1913   */\n  tag_41\n  tag_8\n  jump\t// in\ntag_41:\n    /* \"#utility.yul\":1796:1915   */\ntag_40:\n    /* \"#utility.yul\":1954:1955   */\n  0x00\n    /* \"#utility.yul\":1979:2068   */\n  tag_42\n    /* \"#utility.yul\":2060:2067   */\n  dup6\n    /* \"#utility.yul\":2051:2057   */\n  dup3\n    /* \"#utility.yul\":2040:2049   */\n  dup7\n    /* \"#utility.yul\":2036:2058   */\n  add\n    /* \"#utility.yul\":1979:2068   */\n  tag_14\n  jump\t// in\ntag_42:\n    /* \"#utility.yul\":1969:2068   */\n  swap3\n  pop\n    /* \"#utility.yul\":1925:2078   */\n  pop\n    /* \"#utility.yul\":2117:2119   */\n  0x20\n    /* \"#utility.yul\":2143:2243   */\n  tag_43\n    /* \"#utility.yul\":2235:2242   */\n  dup6\n    /* \"#utility.yul\":2226:2232   */\n  dup3\n    /* \"#utility.yul\":2215:2224   */\n  dup7\n    /* \"#utility.yul\":2211:2233   */\n  add\n    /* \"#utility.yul\":2143:2243   */\n  tag_17\n  jump\t// in\ntag_43:\n    /* \"#utility.yul\":2133:2243   */\n  swap2\n  pop\n    /* \"#utility.yul\":2088:2253   */\n  pop\n    /* \"#utility.yul\":1631:2260   */\n  swap3\n  pop\n  swap3\n  swap1\n  pop\n  jump\t// out\n    /* \"Carbon-Credits-Verification-with-Blockchain-main/contracts/automationNode.sol\":1672:2939  contract AutomationNode {... */\ntag_6:\n  mload(0x80)\n  mload(0xa0)\n  codecopy(0x00, dataOffset(sub_0), dataSize(sub_0))\n  0x00\n  assignImmutable(\"0x6fadbaf86d2aa9c9e34a85df385a2c9afa9509e09756634e72bbcf94a5ceb213\")\n  0x00\n  assignImmutable(\"0x2f5ccb30fa919306cd2899a81c7670a9b1be09e8c15a0b78b0fbbc777d15e97b\")\n  return(0x00, dataSize(sub_0))\nstop\n\nsub_0: assembly {\n        /* \"Carbon-Credits-Verification-with-Blockchain-main/contracts/automationNode.sol\":1672:2939  contract AutomationNode {... */\n      mstore(0x40, 0x80)\n      callvalue\n      dup1\n      iszero\n      tag_1\n      jumpi\n      revert(0x00, 0x00)\n    tag_1:\n      pop\n      jumpi(tag_2, lt(calldatasize, 0x04))\n      shr(0xe0, calldataload(0x00))\n      dup1\n      0x16deae71\n      eq\n      tag_3\n      jumpi\n      dup1\n      0x442b1278\n      eq\n      tag_4\n      jumpi\n      dup1\n      0x7d253aff\n      eq\n      tag_5\n      jumpi\n    tag_2:\n      revert(0x00, 0x00)\n        /* \"Carbon-Credits-Verification-with-Blockchain-main/contracts/automationNode.sol\":1982:2937  function registerAndPredictID() public {... */\n    tag_3:\n      tag_6\n      tag_7\n      jump\t// in\n    tag_6:\n      stop\n        /* \"Carbon-Credits-Verification-with-Blockchain-main/contracts/automationNode.sol\":1750:1807  AutomationRegistrarInterface public immutable i_registrar */\n    tag_4:\n      tag_8\n      tag_9\n      jump\t// in\n    tag_8:\n      mload(0x40)\n      tag_10\n      swap2\n      swap1\n      tag_11\n      jump\t// in\n    tag_10:\n      mload(0x40)\n      dup1\n      swap2\n      sub\n      swap1\n      return\n        /* \"Carbon-Credits-Verification-with-Blockchain-main/contracts/automationNode.sol\":1702:1744  LinkTokenInterface public immutable i_link */\n    tag_5:\n      tag_12\n      tag_13\n      jump\t// in\n    tag_12:\n      mload(0x40)\n      tag_14\n      swap2\n      swap1\n      tag_15\n      jump\t// in\n    tag_14:\n      mload(0x40)\n      dup1\n      swap2\n      sub\n      swap1\n      return\n        /* \"Carbon-Credits-Verification-with-Blockchain-main/contracts/automationNode.sol\":1982:2937  function registerAndPredictID() public {... */\n    tag_7:\n        /* \"Carbon-Credits-Verification-with-Blockchain-main/contracts/automationNode.sol\":2152:2184  RegistrationParams memory params */\n      0x00\n        /* \"Carbon-Credits-Verification-with-Blockchain-main/contracts/automationNode.sol\":2187:2647  RegistrationParams({... */\n      mload(0x40)\n      dup1\n      0x0140\n      add\n      0x40\n      mstore\n      dup1\n      mload(0x40)\n      dup1\n      0x40\n      add\n      0x40\n      mstore\n      dup1\n      0x08\n      dup2\n      mstore\n      0x20\n      add\n      0x74657374436f6465000000000000000000000000000000000000000000000000\n      dup2\n      mstore\n      pop\n      dup2\n      mstore\n      0x20\n      add\n      mload(0x40)\n      dup1\n      0x40\n      add\n      0x40\n      mstore\n      dup1\n      0x02\n      dup2\n      mstore\n      0x20\n      add\n      0x3078000000000000000000000000000000000000000000000000000000000000\n      dup2\n      mstore\n      pop\n      dup2\n      mstore\n      0x20\n      add\n        /* \"Carbon-Credits-Verification-with-Blockchain-main/contracts/automationNode.sol\":2300:2342  0x81D37887AAF0013A2de277406c1C9FFc1571b421 */\n      0x81d37887aaf0013a2de277406c1c9ffc1571b421\n        /* \"Carbon-Credits-Verification-with-Blockchain-main/contracts/automationNode.sol\":2187:2647  RegistrationParams({... */\n      0xffffffffffffffffffffffffffffffffffffffff\n      and\n      dup2\n      mstore\n      0x20\n      add\n        /* \"Carbon-Credits-Verification-with-Blockchain-main/contracts/automationNode.sol\":2366:2372  500000 */\n      0x07a120\n        /* \"Carbon-Credits-Verification-with-Blockchain-main/contracts/automationNode.sol\":2187:2647  RegistrationParams({... */\n      0xffffffff\n      and\n      dup2\n      mstore\n      0x20\n      add\n        /* \"Carbon-Credits-Verification-with-Blockchain-main/contracts/automationNode.sol\":2400:2410  msg.sender */\n      caller\n        /* \"Carbon-Credits-Verification-with-Blockchain-main/contracts/automationNode.sol\":2187:2647  RegistrationParams({... */\n      0xffffffffffffffffffffffffffffffffffffffff\n      and\n      dup2\n      mstore\n      0x20\n      add\n        /* \"Carbon-Credits-Verification-with-Blockchain-main/contracts/automationNode.sol\":2437:2438  1 */\n      0x01\n        /* \"Carbon-Credits-Verification-with-Blockchain-main/contracts/automationNode.sol\":2187:2647  RegistrationParams({... */\n      0xff\n      and\n      dup2\n      mstore\n      0x20\n      add\n      mload(0x40)\n      dup1\n      0x40\n      add\n      0x40\n      mstore\n      dup1\n      0x02\n      dup2\n      mstore\n      0x20\n      add\n      0x3078000000000000000000000000000000000000000000000000000000000000\n      dup2\n      mstore\n      pop\n      dup2\n      mstore\n      0x20\n      add\n      mload(0x40)\n      dup1\n      0x40\n      add\n      0x40\n      mstore\n      dup1\n      0x02\n      dup2\n      mstore\n      0x20\n      add\n      0x3078000000000000000000000000000000000000000000000000000000000000\n      dup2\n      mstore\n      pop\n      dup2\n      mstore\n      0x20\n      add\n      mload(0x40)\n      dup1\n      0x40\n      add\n      0x40\n      mstore\n      dup1\n      0x02\n      dup2\n      mstore\n      0x20\n      add\n      0x3078000000000000000000000000000000000000000000000000000000000000\n      dup2\n      mstore\n      pop\n      dup2\n      mstore\n      0x20\n      add\n        /* \"Carbon-Credits-Verification-with-Blockchain-main/contracts/automationNode.sol\":2634:2636  10 */\n      0x0a\n        /* \"Carbon-Credits-Verification-with-Blockchain-main/contracts/automationNode.sol\":2187:2647  RegistrationParams({... */\n      0xffffffffffffffffffffffff\n      and\n      dup2\n      mstore\n      pop\n        /* \"Carbon-Credits-Verification-with-Blockchain-main/contracts/automationNode.sol\":2152:2647  RegistrationParams memory params = RegistrationParams({... */\n      swap1\n      pop\n        /* \"Carbon-Credits-Verification-with-Blockchain-main/contracts/automationNode.sol\":2657:2663  i_link */\n      immutable(\"0x2f5ccb30fa919306cd2899a81c7670a9b1be09e8c15a0b78b0fbbc777d15e97b\")\n        /* \"Carbon-Credits-Verification-with-Blockchain-main/contracts/automationNode.sol\":2657:2671  i_link.approve */\n      0xffffffffffffffffffffffffffffffffffffffff\n      and\n      0x095ea7b3\n        /* \"Carbon-Credits-Verification-with-Blockchain-main/contracts/automationNode.sol\":2680:2691  i_registrar */\n      immutable(\"0x6fadbaf86d2aa9c9e34a85df385a2c9afa9509e09756634e72bbcf94a5ceb213\")\n        /* \"Carbon-Credits-Verification-with-Blockchain-main/contracts/automationNode.sol\":2694:2700  params */\n      dup4\n        /* \"Carbon-Credits-Verification-with-Blockchain-main/contracts/automationNode.sol\":2694:2707  params.amount */\n      0x0120\n      add\n      mload\n        /* \"Carbon-Credits-Verification-with-Blockchain-main/contracts/automationNode.sol\":2657:2708  i_link.approve(address(i_registrar), params.amount) */\n      mload(0x40)\n      dup4\n      0xffffffff\n      and\n      0xe0\n      shl\n      dup2\n      mstore\n      0x04\n      add\n      tag_17\n      swap3\n      swap2\n      swap1\n      tag_18\n      jump\t// in\n    tag_17:\n      0x20\n      mload(0x40)\n      dup1\n      dup4\n      sub\n      dup2\n      0x00\n      dup8\n      gas\n      call\n      iszero\n      dup1\n      iszero\n      tag_20\n      jumpi\n      returndatacopy(0x00, 0x00, returndatasize)\n      revert(0x00, returndatasize)\n    tag_20:\n      pop\n      pop\n      pop\n      pop\n      mload(0x40)\n      returndatasize\n      not(0x1f)\n      0x1f\n      dup3\n      add\n      and\n      dup3\n      add\n      dup1\n      0x40\n      mstore\n      pop\n      dup2\n      add\n      swap1\n      tag_21\n      swap2\n      swap1\n      tag_22\n      jump\t// in\n    tag_21:\n      pop\n        /* \"Carbon-Credits-Verification-with-Blockchain-main/contracts/automationNode.sol\":2718:2734  uint256 upkeepID */\n      0x00\n        /* \"Carbon-Credits-Verification-with-Blockchain-main/contracts/automationNode.sol\":2737:2748  i_registrar */\n      immutable(\"0x6fadbaf86d2aa9c9e34a85df385a2c9afa9509e09756634e72bbcf94a5ceb213\")\n        /* \"Carbon-Credits-Verification-with-Blockchain-main/contracts/automationNode.sol\":2737:2763  i_registrar.registerUpkeep */\n      0xffffffffffffffffffffffffffffffffffffffff\n      and\n      0x3f678e11\n        /* \"Carbon-Credits-Verification-with-Blockchain-main/contracts/automationNode.sol\":2764:2770  params */\n      dup4\n        /* \"Carbon-Credits-Verification-with-Blockchain-main/contracts/automationNode.sol\":2737:2771  i_registrar.registerUpkeep(params) */\n      mload(0x40)\n      dup3\n      0xffffffff\n      and\n      0xe0\n      shl\n      dup2\n      mstore\n      0x04\n      add\n      tag_23\n      swap2\n      swap1\n      tag_24\n      jump\t// in\n    tag_23:\n      0x20\n      mload(0x40)\n      dup1\n      dup4\n      sub\n      dup2\n      0x00\n      dup8\n      gas\n      call\n      iszero\n      dup1\n      iszero\n      tag_26\n      jumpi\n      returndatacopy(0x00, 0x00, returndatasize)\n      revert(0x00, returndatasize)\n    tag_26:\n      pop\n      pop\n      pop\n      pop\n      mload(0x40)\n      returndatasize\n      not(0x1f)\n      0x1f\n      dup3\n      add\n      and\n      dup3\n      add\n      dup1\n      0x40\n      mstore\n      pop\n      dup2\n      add\n      swap1\n      tag_27\n      swap2\n      swap1\n      tag_28\n      jump\t// in\n    tag_27:\n        /* \"Carbon-Credits-Verification-with-Blockchain-main/contracts/automationNode.sol\":2718:2771  uint256 upkeepID = i_registrar.registerUpkeep(params) */\n      swap1\n      pop\n        /* \"Carbon-Credits-Verification-with-Blockchain-main/contracts/automationNode.sol\":2797:2798  0 */\n      0x00\n        /* \"Carbon-Credits-Verification-with-Blockchain-main/contracts/automationNode.sol\":2785:2793  upkeepID */\n      dup2\n        /* \"Carbon-Credits-Verification-with-Blockchain-main/contracts/automationNode.sol\":2785:2798  upkeepID != 0 */\n      sub\n        /* \"Carbon-Credits-Verification-with-Blockchain-main/contracts/automationNode.sol\":2781:2931  if (upkeepID != 0) {... */\n      tag_30\n      jumpi\n        /* \"Carbon-Credits-Verification-with-Blockchain-main/contracts/automationNode.sol\":2889:2920  revert(\"auto-approve disabled\") */\n      mload(0x40)\n      0x08c379a000000000000000000000000000000000000000000000000000000000\n      dup2\n      mstore\n      0x04\n      add\n      tag_31\n      swap1\n      tag_32\n      jump\t// in\n    tag_31:\n      mload(0x40)\n      dup1\n      swap2\n      sub\n      swap1\n      revert\n        /* \"Carbon-Credits-Verification-with-Blockchain-main/contracts/automationNode.sol\":2781:2931  if (upkeepID != 0) {... */\n    tag_30:\n        /* \"Carbon-Credits-Verification-with-Blockchain-main/contracts/automationNode.sol\":2021:2937  {... */\n      pop\n      pop\n        /* \"Carbon-Credits-Verification-with-Blockchain-main/contracts/automationNode.sol\":1982:2937  function registerAndPredictID() public {... */\n      jump\t// out\n        /* \"Carbon-Credits-Verification-with-Blockchain-main/contracts/automationNode.sol\":1750:1807  AutomationRegistrarInterface public immutable i_registrar */\n    tag_9:\n      immutable(\"0x6fadbaf86d2aa9c9e34a85df385a2c9afa9509e09756634e72bbcf94a5ceb213\")\n      dup2\n      jump\t// out\n        /* \"Carbon-Credits-Verification-with-Blockchain-main/contracts/automationNode.sol\":1702:1744  LinkTokenInterface public immutable i_link */\n    tag_13:\n      immutable(\"0x2f5ccb30fa919306cd2899a81c7670a9b1be09e8c15a0b78b0fbbc777d15e97b\")\n      dup2\n      jump\t// out\n        /* \"#utility.yul\":7:133   */\n    tag_33:\n        /* \"#utility.yul\":44:51   */\n      0x00\n        /* \"#utility.yul\":84:126   */\n      0xffffffffffffffffffffffffffffffffffffffff\n        /* \"#utility.yul\":77:82   */\n      dup3\n        /* \"#utility.yul\":73:127   */\n      and\n        /* \"#utility.yul\":62:127   */\n      swap1\n      pop\n        /* \"#utility.yul\":7:133   */\n      swap2\n      swap1\n      pop\n      jump\t// out\n        /* \"#utility.yul\":139:199   */\n    tag_34:\n        /* \"#utility.yul\":167:170   */\n      0x00\n        /* \"#utility.yul\":188:193   */\n      dup2\n        /* \"#utility.yul\":181:193   */\n      swap1\n      pop\n        /* \"#utility.yul\":139:199   */\n      swap2\n      swap1\n      pop\n      jump\t// out\n        /* \"#utility.yul\":205:347   */\n    tag_35:\n        /* \"#utility.yul\":255:264   */\n      0x00\n        /* \"#utility.yul\":288:341   */\n      tag_77\n        /* \"#utility.yul\":306:340   */\n      tag_78\n        /* \"#utility.yul\":315:339   */\n      tag_79\n        /* \"#utility.yul\":333:338   */\n      dup5\n        /* \"#utility.yul\":315:339   */\n      tag_33\n      jump\t// in\n    tag_79:\n        /* \"#utility.yul\":306:340   */\n      tag_34\n      jump\t// in\n    tag_78:\n        /* \"#utility.yul\":288:341   */\n      tag_33\n      jump\t// in\n    tag_77:\n        /* \"#utility.yul\":275:341   */\n      swap1\n      pop\n        /* \"#utility.yul\":205:347   */\n      swap2\n      swap1\n      pop\n      jump\t// out\n        /* \"#utility.yul\":353:479   */\n    tag_36:\n        /* \"#utility.yul\":403:412   */\n      0x00\n        /* \"#utility.yul\":436:473   */\n      tag_81\n        /* \"#utility.yul\":467:472   */\n      dup3\n        /* \"#utility.yul\":436:473   */\n      tag_35\n      jump\t// in\n    tag_81:\n        /* \"#utility.yul\":423:473   */\n      swap1\n      pop\n        /* \"#utility.yul\":353:479   */\n      swap2\n      swap1\n      pop\n      jump\t// out\n        /* \"#utility.yul\":485:647   */\n    tag_37:\n        /* \"#utility.yul\":571:580   */\n      0x00\n        /* \"#utility.yul\":604:641   */\n      tag_83\n        /* \"#utility.yul\":635:640   */\n      dup3\n        /* \"#utility.yul\":604:641   */\n      tag_36\n      jump\t// in\n    tag_83:\n        /* \"#utility.yul\":591:641   */\n      swap1\n      pop\n        /* \"#utility.yul\":485:647   */\n      swap2\n      swap1\n      pop\n      jump\t// out\n        /* \"#utility.yul\":653:856   */\n    tag_38:\n        /* \"#utility.yul\":776:849   */\n      tag_85\n        /* \"#utility.yul\":843:848   */\n      dup2\n        /* \"#utility.yul\":776:849   */\n      tag_37\n      jump\t// in\n    tag_85:\n        /* \"#utility.yul\":771:774   */\n      dup3\n        /* \"#utility.yul\":764:850   */\n      mstore\n        /* \"#utility.yul\":653:856   */\n      pop\n      pop\n      jump\t// out\n        /* \"#utility.yul\":862:1156   */\n    tag_11:\n        /* \"#utility.yul\":991:995   */\n      0x00\n        /* \"#utility.yul\":1029:1031   */\n      0x20\n        /* \"#utility.yul\":1018:1027   */\n      dup3\n        /* \"#utility.yul\":1014:1032   */\n      add\n        /* \"#utility.yul\":1006:1032   */\n      swap1\n      pop\n        /* \"#utility.yul\":1042:1149   */\n      tag_87\n        /* \"#utility.yul\":1146:1147   */\n      0x00\n        /* \"#utility.yul\":1135:1144   */\n      dup4\n        /* \"#utility.yul\":1131:1148   */\n      add\n        /* \"#utility.yul\":1122:1128   */\n      dup5\n        /* \"#utility.yul\":1042:1149   */\n      tag_38\n      jump\t// in\n    tag_87:\n        /* \"#utility.yul\":862:1156   */\n      swap3\n      swap2\n      pop\n      pop\n      jump\t// out\n        /* \"#utility.yul\":1162:1313   */\n    tag_39:\n        /* \"#utility.yul\":1237:1246   */\n      0x00\n        /* \"#utility.yul\":1270:1307   */\n      tag_89\n        /* \"#utility.yul\":1301:1306   */\n      dup3\n        /* \"#utility.yul\":1270:1307   */\n      tag_36\n      jump\t// in\n    tag_89:\n        /* \"#utility.yul\":1257:1307   */\n      swap1\n      pop\n        /* \"#utility.yul\":1162:1313   */\n      swap2\n      swap1\n      pop\n      jump\t// out\n        /* \"#utility.yul\":1319:1500   */\n    tag_40:\n        /* \"#utility.yul\":1431:1493   */\n      tag_91\n        /* \"#utility.yul\":1487:1492   */\n      dup2\n        /* \"#utility.yul\":1431:1493   */\n      tag_39\n      jump\t// in\n    tag_91:\n        /* \"#utility.yul\":1426:1429   */\n      dup3\n        /* \"#utility.yul\":1419:1494   */\n      mstore\n        /* \"#utility.yul\":1319:1500   */\n      pop\n      pop\n      jump\t// out\n        /* \"#utility.yul\":1506:1778   */\n    tag_15:\n        /* \"#utility.yul\":1624:1628   */\n      0x00\n        /* \"#utility.yul\":1662:1664   */\n      0x20\n        /* \"#utility.yul\":1651:1660   */\n      dup3\n        /* \"#utility.yul\":1647:1665   */\n      add\n        /* \"#utility.yul\":1639:1665   */\n      swap1\n      pop\n        /* \"#utility.yul\":1675:1771   */\n      tag_93\n        /* \"#utility.yul\":1768:1769   */\n      0x00\n        /* \"#utility.yul\":1757:1766   */\n      dup4\n        /* \"#utility.yul\":1753:1770   */\n      add\n        /* \"#utility.yul\":1744:1750   */\n      dup5\n        /* \"#utility.yul\":1675:1771   */\n      tag_40\n      jump\t// in\n    tag_93:\n        /* \"#utility.yul\":1506:1778   */\n      swap3\n      swap2\n      pop\n      pop\n      jump\t// out\n        /* \"#utility.yul\":1784:1880   */\n    tag_41:\n        /* \"#utility.yul\":1821:1828   */\n      0x00\n        /* \"#utility.yul\":1850:1874   */\n      tag_95\n        /* \"#utility.yul\":1868:1873   */\n      dup3\n        /* \"#utility.yul\":1850:1874   */\n      tag_33\n      jump\t// in\n    tag_95:\n        /* \"#utility.yul\":1839:1874   */\n      swap1\n      pop\n        /* \"#utility.yul\":1784:1880   */\n      swap2\n      swap1\n      pop\n      jump\t// out\n        /* \"#utility.yul\":1886:2004   */\n    tag_42:\n        /* \"#utility.yul\":1973:1997   */\n      tag_97\n        /* \"#utility.yul\":1991:1996   */\n      dup2\n        /* \"#utility.yul\":1973:1997   */\n      tag_41\n      jump\t// in\n    tag_97:\n        /* \"#utility.yul\":1968:1971   */\n      dup3\n        /* \"#utility.yul\":1961:1998   */\n      mstore\n        /* \"#utility.yul\":1886:2004   */\n      pop\n      pop\n      jump\t// out\n        /* \"#utility.yul\":2010:2119   */\n    tag_43:\n        /* \"#utility.yul\":2046:2053   */\n      0x00\n        /* \"#utility.yul\":2086:2112   */\n      0xffffffffffffffffffffffff\n        /* \"#utility.yul\":2079:2084   */\n      dup3\n        /* \"#utility.yul\":2075:2113   */\n      and\n        /* \"#utility.yul\":2064:2113   */\n      swap1\n      pop\n        /* \"#utility.yul\":2010:2119   */\n      swap2\n      swap1\n      pop\n      jump\t// out\n        /* \"#utility.yul\":2125:2202   */\n    tag_44:\n        /* \"#utility.yul\":2162:2169   */\n      0x00\n        /* \"#utility.yul\":2191:2196   */\n      dup2\n        /* \"#utility.yul\":2180:2196   */\n      swap1\n      pop\n        /* \"#utility.yul\":2125:2202   */\n      swap2\n      swap1\n      pop\n      jump\t// out\n        /* \"#utility.yul\":2208:2348   */\n    tag_45:\n        /* \"#utility.yul\":2257:2266   */\n      0x00\n        /* \"#utility.yul\":2290:2342   */\n      tag_101\n        /* \"#utility.yul\":2308:2341   */\n      tag_102\n        /* \"#utility.yul\":2317:2340   */\n      tag_103\n        /* \"#utility.yul\":2334:2339   */\n      dup5\n        /* \"#utility.yul\":2317:2340   */\n      tag_43\n      jump\t// in\n    tag_103:\n        /* \"#utility.yul\":2308:2341   */\n      tag_34\n      jump\t// in\n    tag_102:\n        /* \"#utility.yul\":2290:2342   */\n      tag_44\n      jump\t// in\n    tag_101:\n        /* \"#utility.yul\":2277:2342   */\n      swap1\n      pop\n        /* \"#utility.yul\":2208:2348   */\n      swap2\n      swap1\n      pop\n      jump\t// out\n        /* \"#utility.yul\":2354:2483   */\n    tag_46:\n        /* \"#utility.yul\":2440:2476   */\n      tag_105\n        /* \"#utility.yul\":2470:2475   */\n      dup2\n        /* \"#utility.yul\":2440:2476   */\n      tag_45\n      jump\t// in\n    tag_105:\n        /* \"#utility.yul\":2435:2438   */\n      dup3\n        /* \"#utility.yul\":2428:2477   */\n      mstore\n        /* \"#utility.yul\":2354:2483   */\n      pop\n      pop\n      jump\t// out\n        /* \"#utility.yul\":2489:2819   */\n    tag_18:\n        /* \"#utility.yul\":2609:2613   */\n      0x00\n        /* \"#utility.yul\":2647:2649   */\n      0x40\n        /* \"#utility.yul\":2636:2645   */\n      dup3\n        /* \"#utility.yul\":2632:2650   */\n      add\n        /* \"#utility.yul\":2624:2650   */\n      swap1\n      pop\n        /* \"#utility.yul\":2660:2731   */\n      tag_107\n        /* \"#utility.yul\":2728:2729   */\n      0x00\n        /* \"#utility.yul\":2717:2726   */\n      dup4\n        /* \"#utility.yul\":2713:2730   */\n      add\n        /* \"#utility.yul\":2704:2710   */\n      dup6\n        /* \"#utility.yul\":2660:2731   */\n      tag_42\n      jump\t// in\n    tag_107:\n        /* \"#utility.yul\":2741:2812   */\n      tag_108\n        /* \"#utility.yul\":2808:2810   */\n      0x20\n        /* \"#utility.yul\":2797:2806   */\n      dup4\n        /* \"#utility.yul\":2793:2811   */\n      add\n        /* \"#utility.yul\":2784:2790   */\n      dup5\n        /* \"#utility.yul\":2741:2812   */\n      tag_46\n      jump\t// in\n    tag_108:\n        /* \"#utility.yul\":2489:2819   */\n      swap4\n      swap3\n      pop\n      pop\n      pop\n      jump\t// out\n        /* \"#utility.yul\":2906:3023   */\n    tag_48:\n        /* \"#utility.yul\":3015:3016   */\n      0x00\n        /* \"#utility.yul\":3012:3013   */\n      0x00\n        /* \"#utility.yul\":3005:3017   */\n      revert\n        /* \"#utility.yul\":3152:3242   */\n    tag_50:\n        /* \"#utility.yul\":3186:3193   */\n      0x00\n        /* \"#utility.yul\":3229:3234   */\n      dup2\n        /* \"#utility.yul\":3222:3235   */\n      iszero\n        /* \"#utility.yul\":3215:3236   */\n      iszero\n        /* \"#utility.yul\":3204:3236   */\n      swap1\n      pop\n        /* \"#utility.yul\":3152:3242   */\n      swap2\n      swap1\n      pop\n      jump\t// out\n        /* \"#utility.yul\":3248:3364   */\n    tag_51:\n        /* \"#utility.yul\":3318:3339   */\n      tag_114\n        /* \"#utility.yul\":3333:3338   */\n      dup2\n        /* \"#utility.yul\":3318:3339   */\n      tag_50\n      jump\t// in\n    tag_114:\n        /* \"#utility.yul\":3311:3316   */\n      dup2\n        /* \"#utility.yul\":3308:3340   */\n      eq\n        /* \"#utility.yul\":3298:3358   */\n      tag_115\n      jumpi\n        /* \"#utility.yul\":3354:3355   */\n      0x00\n        /* \"#utility.yul\":3351:3352   */\n      0x00\n        /* \"#utility.yul\":3344:3356   */\n      revert\n        /* \"#utility.yul\":3298:3358   */\n    tag_115:\n        /* \"#utility.yul\":3248:3364   */\n      pop\n      jump\t// out\n        /* \"#utility.yul\":3370:3507   */\n    tag_52:\n        /* \"#utility.yul\":3424:3429   */\n      0x00\n        /* \"#utility.yul\":3455:3461   */\n      dup2\n        /* \"#utility.yul\":3449:3462   */\n      mload\n        /* \"#utility.yul\":3440:3462   */\n      swap1\n      pop\n        /* \"#utility.yul\":3471:3501   */\n      tag_117\n        /* \"#utility.yul\":3495:3500   */\n      dup2\n        /* \"#utility.yul\":3471:3501   */\n      tag_51\n      jump\t// in\n    tag_117:\n        /* \"#utility.yul\":3370:3507   */\n      swap3\n      swap2\n      pop\n      pop\n      jump\t// out\n        /* \"#utility.yul\":3513:3858   */\n    tag_22:\n        /* \"#utility.yul\":3580:3586   */\n      0x00\n        /* \"#utility.yul\":3629:3631   */\n      0x20\n        /* \"#utility.yul\":3617:3626   */\n      dup3\n        /* \"#utility.yul\":3608:3615   */\n      dup5\n        /* \"#utility.yul\":3604:3627   */\n      sub\n        /* \"#utility.yul\":3600:3632   */\n      slt\n        /* \"#utility.yul\":3597:3716   */\n      iszero\n      tag_119\n      jumpi\n        /* \"#utility.yul\":3635:3714   */\n      tag_120\n      tag_48\n      jump\t// in\n    tag_120:\n        /* \"#utility.yul\":3597:3716   */\n    tag_119:\n        /* \"#utility.yul\":3755:3756   */\n      0x00\n        /* \"#utility.yul\":3780:3841   */\n      tag_121\n        /* \"#utility.yul\":3833:3840   */\n      dup5\n        /* \"#utility.yul\":3824:3830   */\n      dup3\n        /* \"#utility.yul\":3813:3822   */\n      dup6\n        /* \"#utility.yul\":3809:3831   */\n      add\n        /* \"#utility.yul\":3780:3841   */\n      tag_52\n      jump\t// in\n    tag_121:\n        /* \"#utility.yul\":3770:3841   */\n      swap2\n      pop\n        /* \"#utility.yul\":3726:3851   */\n      pop\n        /* \"#utility.yul\":3513:3858   */\n      swap3\n      swap2\n      pop\n      pop\n      jump\t// out\n        /* \"#utility.yul\":3864:3963   */\n    tag_53:\n        /* \"#utility.yul\":3916:3922   */\n      0x00\n        /* \"#utility.yul\":3950:3955   */\n      dup2\n        /* \"#utility.yul\":3944:3956   */\n      mload\n        /* \"#utility.yul\":3934:3956   */\n      swap1\n      pop\n        /* \"#utility.yul\":3864:3963   */\n      swap2\n      swap1\n      pop\n      jump\t// out\n        /* \"#utility.yul\":3969:4128   */\n    tag_54:\n        /* \"#utility.yul\":4043:4054   */\n      0x00\n        /* \"#utility.yul\":4077:4083   */\n      dup3\n        /* \"#utility.yul\":4072:4075   */\n      dup3\n        /* \"#utility.yul\":4065:4084   */\n      mstore\n        /* \"#utility.yul\":4117:4121   */\n      0x20\n        /* \"#utility.yul\":4112:4115   */\n      dup3\n        /* \"#utility.yul\":4108:4122   */\n      add\n        /* \"#utility.yul\":4093:4122   */\n      swap1\n      pop\n        /* \"#utility.yul\":3969:4128   */\n      swap3\n      swap2\n      pop\n      pop\n      jump\t// out\n        /* \"#utility.yul\":4134:4273   */\n    tag_55:\n        /* \"#utility.yul\":4223:4229   */\n      dup3\n        /* \"#utility.yul\":4218:4221   */\n      dup2\n        /* \"#utility.yul\":4213:4216   */\n      dup4\n        /* \"#utility.yul\":4207:4230   */\n      mcopy\n        /* \"#utility.yul\":4264:4265   */\n      0x00\n        /* \"#utility.yul\":4255:4261   */\n      dup4\n        /* \"#utility.yul\":4250:4253   */\n      dup4\n        /* \"#utility.yul\":4246:4262   */\n      add\n        /* \"#utility.yul\":4239:4266   */\n      mstore\n        /* \"#utility.yul\":4134:4273   */\n      pop\n      pop\n      pop\n      jump\t// out\n        /* \"#utility.yul\":4279:4381   */\n    tag_56:\n        /* \"#utility.yul\":4320:4326   */\n      0x00\n        /* \"#utility.yul\":4371:4373   */\n      0x1f\n        /* \"#utility.yul\":4367:4374   */\n      not\n        /* \"#utility.yul\":4362:4364   */\n      0x1f\n        /* \"#utility.yul\":4355:4360   */\n      dup4\n        /* \"#utility.yul\":4351:4365   */\n      add\n        /* \"#utility.yul\":4347:4375   */\n      and\n        /* \"#utility.yul\":4337:4375   */\n      swap1\n      pop\n        /* \"#utility.yul\":4279:4381   */\n      swap2\n      swap1\n      pop\n      jump\t// out\n        /* \"#utility.yul\":4387:4744   */\n    tag_57:\n        /* \"#utility.yul\":4465:4468   */\n      0x00\n        /* \"#utility.yul\":4493:4532   */\n      tag_127\n        /* \"#utility.yul\":4526:4531   */\n      dup3\n        /* \"#utility.yul\":4493:4532   */\n      tag_53\n      jump\t// in\n    tag_127:\n        /* \"#utility.yul\":4548:4609   */\n      tag_128\n        /* \"#utility.yul\":4602:4608   */\n      dup2\n        /* \"#utility.yul\":4597:4600   */\n      dup6\n        /* \"#utility.yul\":4548:4609   */\n      tag_54\n      jump\t// in\n    tag_128:\n        /* \"#utility.yul\":4541:4609   */\n      swap4\n      pop\n        /* \"#utility.yul\":4618:4683   */\n      tag_129\n        /* \"#utility.yul\":4676:4682   */\n      dup2\n        /* \"#utility.yul\":4671:4674   */\n      dup6\n        /* \"#utility.yul\":4664:4668   */\n      0x20\n        /* \"#utility.yul\":4657:4662   */\n      dup7\n        /* \"#utility.yul\":4653:4669   */\n      add\n        /* \"#utility.yul\":4618:4683   */\n      tag_55\n      jump\t// in\n    tag_129:\n        /* \"#utility.yul\":4708:4737   */\n      tag_130\n        /* \"#utility.yul\":4730:4736   */\n      dup2\n        /* \"#utility.yul\":4708:4737   */\n      tag_56\n      jump\t// in\n    tag_130:\n        /* \"#utility.yul\":4703:4706   */\n      dup5\n        /* \"#utility.yul\":4699:4738   */\n      add\n        /* \"#utility.yul\":4692:4738   */\n      swap2\n      pop\n        /* \"#utility.yul\":4469:4744   */\n      pop\n        /* \"#utility.yul\":4387:4744   */\n      swap3\n      swap2\n      pop\n      pop\n      jump\t// out\n        /* \"#utility.yul\":4750:4848   */\n    tag_58:\n        /* \"#utility.yul\":4801:4807   */\n      0x00\n        /* \"#utility.yul\":4835:4840   */\n      dup2\n        /* \"#utility.yul\":4829:4841   */\n      mload\n        /* \"#utility.yul\":4819:4841   */\n      swap1\n      pop\n        /* \"#utility.yul\":4750:4848   */\n      swap2\n      swap1\n      pop\n      jump\t// out\n        /* \"#utility.yul\":4854:5012   */\n    tag_59:\n        /* \"#utility.yul\":4927:4938   */\n      0x00\n        /* \"#utility.yul\":4961:4967   */\n      dup3\n        /* \"#utility.yul\":4956:4959   */\n      dup3\n        /* \"#utility.yul\":4949:4968   */\n      mstore\n        /* \"#utility.yul\":5001:5005   */\n      0x20\n        /* \"#utility.yul\":4996:4999   */\n      dup3\n        /* \"#utility.yul\":4992:5006   */\n      add\n        /* \"#utility.yul\":4977:5006   */\n      swap1\n      pop\n        /* \"#utility.yul\":4854:5012   */\n      swap3\n      swap2\n      pop\n      pop\n      jump\t// out\n        /* \"#utility.yul\":5018:5371   */\n    tag_60:\n        /* \"#utility.yul\":5094:5097   */\n      0x00\n        /* \"#utility.yul\":5122:5160   */\n      tag_134\n        /* \"#utility.yul\":5154:5159   */\n      dup3\n        /* \"#utility.yul\":5122:5160   */\n      tag_58\n      jump\t// in\n    tag_134:\n        /* \"#utility.yul\":5176:5236   */\n      tag_135\n        /* \"#utility.yul\":5229:5235   */\n      dup2\n        /* \"#utility.yul\":5224:5227   */\n      dup6\n        /* \"#utility.yul\":5176:5236   */\n      tag_59\n      jump\t// in\n    tag_135:\n        /* \"#utility.yul\":5169:5236   */\n      swap4\n      pop\n        /* \"#utility.yul\":5245:5310   */\n      tag_136\n        /* \"#utility.yul\":5303:5309   */\n      dup2\n        /* \"#utility.yul\":5298:5301   */\n      dup6\n        /* \"#utility.yul\":5291:5295   */\n      0x20\n        /* \"#utility.yul\":5284:5289   */\n      dup7\n        /* \"#utility.yul\":5280:5296   */\n      add\n        /* \"#utility.yul\":5245:5310   */\n      tag_55\n      jump\t// in\n    tag_136:\n        /* \"#utility.yul\":5335:5364   */\n      tag_137\n        /* \"#utility.yul\":5357:5363   */\n      dup2\n        /* \"#utility.yul\":5335:5364   */\n      tag_56\n      jump\t// in\n    tag_137:\n        /* \"#utility.yul\":5330:5333   */\n      dup5\n        /* \"#utility.yul\":5326:5365   */\n      add\n        /* \"#utility.yul\":5319:5365   */\n      swap2\n      pop\n        /* \"#utility.yul\":5098:5371   */\n      pop\n        /* \"#utility.yul\":5018:5371   */\n      swap3\n      swap2\n      pop\n      pop\n      jump\t// out\n        /* \"#utility.yul\":5377:5485   */\n    tag_61:\n        /* \"#utility.yul\":5454:5478   */\n      tag_139\n        /* \"#utility.yul\":5472:5477   */\n      dup2\n        /* \"#utility.yul\":5454:5478   */\n      tag_41\n      jump\t// in\n    tag_139:\n        /* \"#utility.yul\":5449:5452   */\n      dup3\n        /* \"#utility.yul\":5442:5479   */\n      mstore\n        /* \"#utility.yul\":5377:5485   */\n      pop\n      pop\n      jump\t// out\n        /* \"#utility.yul\":5491:5584   */\n    tag_62:\n        /* \"#utility.yul\":5527:5534   */\n      0x00\n        /* \"#utility.yul\":5567:5577   */\n      0xffffffff\n        /* \"#utility.yul\":5560:5565   */\n      dup3\n        /* \"#utility.yul\":5556:5578   */\n      and\n        /* \"#utility.yul\":5545:5578   */\n      swap1\n      pop\n        /* \"#utility.yul\":5491:5584   */\n      swap2\n      swap1\n      pop\n      jump\t// out\n        /* \"#utility.yul\":5590:5695   */\n    tag_63:\n        /* \"#utility.yul\":5665:5688   */\n      tag_142\n        /* \"#utility.yul\":5682:5687   */\n      dup2\n        /* \"#utility.yul\":5665:5688   */\n      tag_62\n      jump\t// in\n    tag_142:\n        /* \"#utility.yul\":5660:5663   */\n      dup3\n        /* \"#utility.yul\":5653:5689   */\n      mstore\n        /* \"#utility.yul\":5590:5695   */\n      pop\n      pop\n      jump\t// out\n        /* \"#utility.yul\":5701:5787   */\n    tag_64:\n        /* \"#utility.yul\":5736:5743   */\n      0x00\n        /* \"#utility.yul\":5776:5780   */\n      0xff\n        /* \"#utility.yul\":5769:5774   */\n      dup3\n        /* \"#utility.yul\":5765:5781   */\n      and\n        /* \"#utility.yul\":5754:5781   */\n      swap1\n      pop\n        /* \"#utility.yul\":5701:5787   */\n      swap2\n      swap1\n      pop\n      jump\t// out\n        /* \"#utility.yul\":5793:5895   */\n    tag_65:\n        /* \"#utility.yul\":5866:5888   */\n      tag_145\n        /* \"#utility.yul\":5882:5887   */\n      dup2\n        /* \"#utility.yul\":5866:5888   */\n      tag_64\n      jump\t// in\n    tag_145:\n        /* \"#utility.yul\":5861:5864   */\n      dup3\n        /* \"#utility.yul\":5854:5889   */\n      mstore\n        /* \"#utility.yul\":5793:5895   */\n      pop\n      pop\n      jump\t// out\n        /* \"#utility.yul\":5901:6006   */\n    tag_66:\n        /* \"#utility.yul\":5976:5999   */\n      tag_147\n        /* \"#utility.yul\":5993:5998   */\n      dup2\n        /* \"#utility.yul\":5976:5999   */\n      tag_43\n      jump\t// in\n    tag_147:\n        /* \"#utility.yul\":5971:5974   */\n      dup3\n        /* \"#utility.yul\":5964:6000   */\n      mstore\n        /* \"#utility.yul\":5901:6006   */\n      pop\n      pop\n      jump\t// out\n        /* \"#utility.yul\":6074:8435   */\n    tag_67:\n        /* \"#utility.yul\":6213:6216   */\n      0x00\n        /* \"#utility.yul\":6249:6255   */\n      0x0140\n        /* \"#utility.yul\":6244:6247   */\n      dup4\n        /* \"#utility.yul\":6240:6256   */\n      add\n        /* \"#utility.yul\":6338:6342   */\n      0x00\n        /* \"#utility.yul\":6331:6336   */\n      dup4\n        /* \"#utility.yul\":6327:6343   */\n      add\n        /* \"#utility.yul\":6321:6344   */\n      mload\n        /* \"#utility.yul\":6391:6394   */\n      dup5\n        /* \"#utility.yul\":6385:6389   */\n      dup3\n        /* \"#utility.yul\":6381:6395   */\n      sub\n        /* \"#utility.yul\":6374:6378   */\n      0x00\n        /* \"#utility.yul\":6369:6372   */\n      dup7\n        /* \"#utility.yul\":6365:6379   */\n      add\n        /* \"#utility.yul\":6358:6396   */\n      mstore\n        /* \"#utility.yul\":6417:6490   */\n      tag_149\n        /* \"#utility.yul\":6485:6489   */\n      dup3\n        /* \"#utility.yul\":6471:6483   */\n      dup3\n        /* \"#utility.yul\":6417:6490   */\n      tag_57\n      jump\t// in\n    tag_149:\n        /* \"#utility.yul\":6409:6490   */\n      swap2\n      pop\n        /* \"#utility.yul\":6266:6501   */\n      pop\n        /* \"#utility.yul\":6593:6597   */\n      0x20\n        /* \"#utility.yul\":6586:6591   */\n      dup4\n        /* \"#utility.yul\":6582:6598   */\n      add\n        /* \"#utility.yul\":6576:6599   */\n      mload\n        /* \"#utility.yul\":6646:6649   */\n      dup5\n        /* \"#utility.yul\":6640:6644   */\n      dup3\n        /* \"#utility.yul\":6636:6650   */\n      sub\n        /* \"#utility.yul\":6629:6633   */\n      0x20\n        /* \"#utility.yul\":6624:6627   */\n      dup7\n        /* \"#utility.yul\":6620:6634   */\n      add\n        /* \"#utility.yul\":6613:6651   */\n      mstore\n        /* \"#utility.yul\":6672:6743   */\n      tag_150\n        /* \"#utility.yul\":6738:6742   */\n      dup3\n        /* \"#utility.yul\":6724:6736   */\n      dup3\n        /* \"#utility.yul\":6672:6743   */\n      tag_60\n      jump\t// in\n    tag_150:\n        /* \"#utility.yul\":6664:6743   */\n      swap2\n      pop\n        /* \"#utility.yul\":6511:6754   */\n      pop\n        /* \"#utility.yul\":6846:6850   */\n      0x40\n        /* \"#utility.yul\":6839:6844   */\n      dup4\n        /* \"#utility.yul\":6835:6851   */\n      add\n        /* \"#utility.yul\":6829:6852   */\n      mload\n        /* \"#utility.yul\":6865:6928   */\n      tag_151\n        /* \"#utility.yul\":6922:6926   */\n      0x40\n        /* \"#utility.yul\":6917:6920   */\n      dup7\n        /* \"#utility.yul\":6913:6927   */\n      add\n        /* \"#utility.yul\":6899:6911   */\n      dup3\n        /* \"#utility.yul\":6865:6928   */\n      tag_61\n      jump\t// in\n    tag_151:\n        /* \"#utility.yul\":6764:6938   */\n      pop\n        /* \"#utility.yul\":7024:7028   */\n      0x60\n        /* \"#utility.yul\":7017:7022   */\n      dup4\n        /* \"#utility.yul\":7013:7029   */\n      add\n        /* \"#utility.yul\":7007:7030   */\n      mload\n        /* \"#utility.yul\":7043:7104   */\n      tag_152\n        /* \"#utility.yul\":7098:7102   */\n      0x60\n        /* \"#utility.yul\":7093:7096   */\n      dup7\n        /* \"#utility.yul\":7089:7103   */\n      add\n        /* \"#utility.yul\":7075:7087   */\n      dup3\n        /* \"#utility.yul\":7043:7104   */\n      tag_63\n      jump\t// in\n    tag_152:\n        /* \"#utility.yul\":6948:7114   */\n      pop\n        /* \"#utility.yul\":7204:7208   */\n      0x80\n        /* \"#utility.yul\":7197:7202   */\n      dup4\n        /* \"#utility.yul\":7193:7209   */\n      add\n        /* \"#utility.yul\":7187:7210   */\n      mload\n        /* \"#utility.yul\":7223:7286   */\n      tag_153\n        /* \"#utility.yul\":7280:7284   */\n      0x80\n        /* \"#utility.yul\":7275:7278   */\n      dup7\n        /* \"#utility.yul\":7271:7285   */\n      add\n        /* \"#utility.yul\":7257:7269   */\n      dup3\n        /* \"#utility.yul\":7223:7286   */\n      tag_61\n      jump\t// in\n    tag_153:\n        /* \"#utility.yul\":7124:7296   */\n      pop\n        /* \"#utility.yul\":7385:7389   */\n      0xa0\n        /* \"#utility.yul\":7378:7383   */\n      dup4\n        /* \"#utility.yul\":7374:7390   */\n      add\n        /* \"#utility.yul\":7368:7391   */\n      mload\n        /* \"#utility.yul\":7404:7463   */\n      tag_154\n        /* \"#utility.yul\":7457:7461   */\n      0xa0\n        /* \"#utility.yul\":7452:7455   */\n      dup7\n        /* \"#utility.yul\":7448:7462   */\n      add\n        /* \"#utility.yul\":7434:7446   */\n      dup3\n        /* \"#utility.yul\":7404:7463   */\n      tag_65\n      jump\t// in\n    tag_154:\n        /* \"#utility.yul\":7306:7473   */\n      pop\n        /* \"#utility.yul\":7560:7564   */\n      0xc0\n        /* \"#utility.yul\":7553:7558   */\n      dup4\n        /* \"#utility.yul\":7549:7565   */\n      add\n        /* \"#utility.yul\":7543:7566   */\n      mload\n        /* \"#utility.yul\":7613:7616   */\n      dup5\n        /* \"#utility.yul\":7607:7611   */\n      dup3\n        /* \"#utility.yul\":7603:7617   */\n      sub\n        /* \"#utility.yul\":7596:7600   */\n      0xc0\n        /* \"#utility.yul\":7591:7594   */\n      dup7\n        /* \"#utility.yul\":7587:7601   */\n      add\n        /* \"#utility.yul\":7580:7618   */\n      mstore\n        /* \"#utility.yul\":7639:7710   */\n      tag_155\n        /* \"#utility.yul\":7705:7709   */\n      dup3\n        /* \"#utility.yul\":7691:7703   */\n      dup3\n        /* \"#utility.yul\":7639:7710   */\n      tag_60\n      jump\t// in\n    tag_155:\n        /* \"#utility.yul\":7631:7710   */\n      swap2\n      pop\n        /* \"#utility.yul\":7483:7721   */\n      pop\n        /* \"#utility.yul\":7812:7816   */\n      0xe0\n        /* \"#utility.yul\":7805:7810   */\n      dup4\n        /* \"#utility.yul\":7801:7817   */\n      add\n        /* \"#utility.yul\":7795:7818   */\n      mload\n        /* \"#utility.yul\":7865:7868   */\n      dup5\n        /* \"#utility.yul\":7859:7863   */\n      dup3\n        /* \"#utility.yul\":7855:7869   */\n      sub\n        /* \"#utility.yul\":7848:7852   */\n      0xe0\n        /* \"#utility.yul\":7843:7846   */\n      dup7\n        /* \"#utility.yul\":7839:7853   */\n      add\n        /* \"#utility.yul\":7832:7870   */\n      mstore\n        /* \"#utility.yul\":7891:7962   */\n      tag_156\n        /* \"#utility.yul\":7957:7961   */\n      dup3\n        /* \"#utility.yul\":7943:7955   */\n      dup3\n        /* \"#utility.yul\":7891:7962   */\n      tag_60\n      jump\t// in\n    tag_156:\n        /* \"#utility.yul\":7883:7962   */\n      swap2\n      pop\n        /* \"#utility.yul\":7731:7973   */\n      pop\n        /* \"#utility.yul\":8065:8071   */\n      0x0100\n        /* \"#utility.yul\":8058:8063   */\n      dup4\n        /* \"#utility.yul\":8054:8072   */\n      add\n        /* \"#utility.yul\":8048:8073   */\n      mload\n        /* \"#utility.yul\":8122:8125   */\n      dup5\n        /* \"#utility.yul\":8116:8120   */\n      dup3\n        /* \"#utility.yul\":8112:8126   */\n      sub\n        /* \"#utility.yul\":8103:8109   */\n      0x0100\n        /* \"#utility.yul\":8098:8101   */\n      dup7\n        /* \"#utility.yul\":8094:8110   */\n      add\n        /* \"#utility.yul\":8087:8127   */\n      mstore\n        /* \"#utility.yul\":8148:8219   */\n      tag_157\n        /* \"#utility.yul\":8214:8218   */\n      dup3\n        /* \"#utility.yul\":8200:8212   */\n      dup3\n        /* \"#utility.yul\":8148:8219   */\n      tag_60\n      jump\t// in\n    tag_157:\n        /* \"#utility.yul\":8140:8219   */\n      swap2\n      pop\n        /* \"#utility.yul\":7983:8230   */\n      pop\n        /* \"#utility.yul\":8314:8320   */\n      0x0120\n        /* \"#utility.yul\":8307:8312   */\n      dup4\n        /* \"#utility.yul\":8303:8321   */\n      add\n        /* \"#utility.yul\":8297:8322   */\n      mload\n        /* \"#utility.yul\":8335:8398   */\n      tag_158\n        /* \"#utility.yul\":8390:8396   */\n      0x0120\n        /* \"#utility.yul\":8385:8388   */\n      dup7\n        /* \"#utility.yul\":8381:8397   */\n      add\n        /* \"#utility.yul\":8367:8379   */\n      dup3\n        /* \"#utility.yul\":8335:8398   */\n      tag_66\n      jump\t// in\n    tag_158:\n        /* \"#utility.yul\":8240:8408   */\n      pop\n        /* \"#utility.yul\":8425:8429   */\n      dup1\n        /* \"#utility.yul\":8418:8429   */\n      swap2\n      pop\n        /* \"#utility.yul\":6218:8435   */\n      pop\n        /* \"#utility.yul\":6074:8435   */\n      swap3\n      swap2\n      pop\n      pop\n      jump\t// out\n        /* \"#utility.yul\":8441:8854   */\n    tag_24:\n        /* \"#utility.yul\":8604:8608   */\n      0x00\n        /* \"#utility.yul\":8642:8644   */\n      0x20\n        /* \"#utility.yul\":8631:8640   */\n      dup3\n        /* \"#utility.yul\":8627:8645   */\n      add\n        /* \"#utility.yul\":8619:8645   */\n      swap1\n      pop\n        /* \"#utility.yul\":8691:8700   */\n      dup2\n        /* \"#utility.yul\":8685:8689   */\n      dup2\n        /* \"#utility.yul\":8681:8701   */\n      sub\n        /* \"#utility.yul\":8677:8678   */\n      0x00\n        /* \"#utility.yul\":8666:8675   */\n      dup4\n        /* \"#utility.yul\":8662:8679   */\n      add\n        /* \"#utility.yul\":8655:8702   */\n      mstore\n        /* \"#utility.yul\":8719:8847   */\n      tag_160\n        /* \"#utility.yul\":8842:8846   */\n      dup2\n        /* \"#utility.yul\":8833:8839   */\n      dup5\n        /* \"#utility.yul\":8719:8847   */\n      tag_67\n      jump\t// in\n    tag_160:\n        /* \"#utility.yul\":8711:8847   */\n      swap1\n      pop\n        /* \"#utility.yul\":8441:8854   */\n      swap3\n      swap2\n      pop\n      pop\n      jump\t// out\n        /* \"#utility.yul\":8860:8982   */\n    tag_68:\n        /* \"#utility.yul\":8933:8957   */\n      tag_162\n        /* \"#utility.yul\":8951:8956   */\n      dup2\n        /* \"#utility.yul\":8933:8957   */\n      tag_44\n      jump\t// in\n    tag_162:\n        /* \"#utility.yul\":8926:8931   */\n      dup2\n        /* \"#utility.yul\":8923:8958   */\n      eq\n        /* \"#utility.yul\":8913:8976   */\n      tag_163\n      jumpi\n        /* \"#utility.yul\":8972:8973   */\n      0x00\n        /* \"#utility.yul\":8969:8970   */\n      0x00\n        /* \"#utility.yul\":8962:8974   */\n      revert\n        /* \"#utility.yul\":8913:8976   */\n    tag_163:\n        /* \"#utility.yul\":8860:8982   */\n      pop\n      jump\t// out\n        /* \"#utility.yul\":8988:9131   */\n    tag_69:\n        /* \"#utility.yul\":9045:9050   */\n      0x00\n        /* \"#utility.yul\":9076:9082   */\n      dup2\n        /* \"#utility.yul\":9070:9083   */\n      mload\n        /* \"#utility.yul\":9061:9083   */\n      swap1\n      pop\n        /* \"#utility.yul\":9092:9125   */\n      tag_165\n        /* \"#utility.yul\":9119:9124   */\n      dup2\n        /* \"#utility.yul\":9092:9125   */\n      tag_68\n      jump\t// in\n    tag_165:\n        /* \"#utility.yul\":8988:9131   */\n      swap3\n      swap2\n      pop\n      pop\n      jump\t// out\n        /* \"#utility.yul\":9137:9488   */\n    tag_28:\n        /* \"#utility.yul\":9207:9213   */\n      0x00\n        /* \"#utility.yul\":9256:9258   */\n      0x20\n        /* \"#utility.yul\":9244:9253   */\n      dup3\n        /* \"#utility.yul\":9235:9242   */\n      dup5\n        /* \"#utility.yul\":9231:9254   */\n      sub\n        /* \"#utility.yul\":9227:9259   */\n      slt\n        /* \"#utility.yul\":9224:9343   */\n      iszero\n      tag_167\n      jumpi\n        /* \"#utility.yul\":9262:9341   */\n      tag_168\n      tag_48\n      jump\t// in\n    tag_168:\n        /* \"#utility.yul\":9224:9343   */\n    tag_167:\n        /* \"#utility.yul\":9382:9383   */\n      0x00\n        /* \"#utility.yul\":9407:9471   */\n      tag_169\n        /* \"#utility.yul\":9463:9470   */\n      dup5\n        /* \"#utility.yul\":9454:9460   */\n      dup3\n        /* \"#utility.yul\":9443:9452   */\n      dup6\n        /* \"#utility.yul\":9439:9461   */\n      add\n        /* \"#utility.yul\":9407:9471   */\n      tag_69\n      jump\t// in\n    tag_169:\n        /* \"#utility.yul\":9397:9471   */\n      swap2\n      pop\n        /* \"#utility.yul\":9353:9481   */\n      pop\n        /* \"#utility.yul\":9137:9488   */\n      swap3\n      swap2\n      pop\n      pop\n      jump\t// out\n        /* \"#utility.yul\":9494:9663   */\n    tag_70:\n        /* \"#utility.yul\":9578:9589   */\n      0x00\n        /* \"#utility.yul\":9612:9618   */\n      dup3\n        /* \"#utility.yul\":9607:9610   */\n      dup3\n        /* \"#utility.yul\":9600:9619   */\n      mstore\n        /* \"#utility.yul\":9652:9656   */\n      0x20\n        /* \"#utility.yul\":9647:9650   */\n      dup3\n        /* \"#utility.yul\":9643:9657   */\n      add\n        /* \"#utility.yul\":9628:9657   */\n      swap1\n      pop\n        /* \"#utility.yul\":9494:9663   */\n      swap3\n      swap2\n      pop\n      pop\n      jump\t// out\n        /* \"#utility.yul\":9669:9840   */\n    tag_71:\n        /* \"#utility.yul\":9809:9832   */\n      0x6175746f2d617070726f76652064697361626c65640000000000000000000000\n        /* \"#utility.yul\":9805:9806   */\n      0x00\n        /* \"#utility.yul\":9797:9803   */\n      dup3\n        /* \"#utility.yul\":9793:9807   */\n      add\n        /* \"#utility.yul\":9786:9833   */\n      mstore\n        /* \"#utility.yul\":9669:9840   */\n      pop\n      jump\t// out\n        /* \"#utility.yul\":9846:10212   */\n    tag_72:\n        /* \"#utility.yul\":9988:9991   */\n      0x00\n        /* \"#utility.yul\":10009:10076   */\n      tag_173\n        /* \"#utility.yul\":10073:10075   */\n      0x15\n        /* \"#utility.yul\":10068:10071   */\n      dup4\n        /* \"#utility.yul\":10009:10076   */\n      tag_70\n      jump\t// in\n    tag_173:\n        /* \"#utility.yul\":10002:10076   */\n      swap2\n      pop\n        /* \"#utility.yul\":10085:10178   */\n      tag_174\n        /* \"#utility.yul\":10174:10177   */\n      dup3\n        /* \"#utility.yul\":10085:10178   */\n      tag_71\n      jump\t// in\n    tag_174:\n        /* \"#utility.yul\":10203:10205   */\n      0x20\n        /* \"#utility.yul\":10198:10201   */\n      dup3\n        /* \"#utility.yul\":10194:10206   */\n      add\n        /* \"#utility.yul\":10187:10206   */\n      swap1\n      pop\n        /* \"#utility.yul\":9846:10212   */\n      swap2\n      swap1\n      pop\n      jump\t// out\n        /* \"#utility.yul\":10218:10637   */\n    tag_32:\n        /* \"#utility.yul\":10384:10388   */\n      0x00\n        /* \"#utility.yul\":10422:10424   */\n      0x20\n        /* \"#utility.yul\":10411:10420   */\n      dup3\n        /* \"#utility.yul\":10407:10425   */\n      add\n        /* \"#utility.yul\":10399:10425   */\n      swap1\n      pop\n        /* \"#utility.yul\":10471:10480   */\n      dup2\n        /* \"#utility.yul\":10465:10469   */\n      dup2\n        /* \"#utility.yul\":10461:10481   */\n      sub\n        /* \"#utility.yul\":10457:10458   */\n      0x00\n        /* \"#utility.yul\":10446:10455   */\n      dup4\n        /* \"#utility.yul\":10442:10459   */\n      add\n        /* \"#utility.yul\":10435:10482   */\n      mstore\n        /* \"#utility.yul\":10499:10630   */\n      tag_176\n        /* \"#utility.yul\":10625:10629   */\n      dup2\n        /* \"#utility.yul\":10499:10630   */\n      tag_72\n      jump\t// in\n    tag_176:\n        /* \"#utility.yul\":10491:10630   */\n      swap1\n      pop\n        /* \"#utility.yul\":10218:10637   */\n      swap2\n      swap1\n      pop\n      jump\t// out\n\n    auxdata: 0xa26469706673582212200a69028e995986bbbc332e2a8b4d606f075c6f02674e72d77e54bbb86a8997a264736f6c634300081d0033\n}\n",
				"bytecode": {
					"linkReferences": {},
					"object": "60c060405234801561000f575f5ffd5b50604051610ad6380380610ad68339818101604052810190610031919061014a565b8173ffffffffffffffffffffffffffffffffffffffff1660808173ffffffffffffffffffffffffffffffffffffffff16815250508073ffffffffffffffffffffffffffffffffffffffff1660a08173ffffffffffffffffffffffffffffffffffffffff16815250505050610188565b5f5ffd5b5f73ffffffffffffffffffffffffffffffffffffffff82169050919050565b5f6100cd826100a4565b9050919050565b5f6100de826100c3565b9050919050565b6100ee816100d4565b81146100f8575f5ffd5b50565b5f81519050610109816100e5565b92915050565b5f610119826100c3565b9050919050565b6101298161010f565b8114610133575f5ffd5b50565b5f8151905061014481610120565b92915050565b5f5f604083850312156101605761015f6100a0565b5b5f61016d858286016100fb565b925050602061017e85828601610136565b9150509250929050565b60805160a0516109186101be5f395f8181610275015281816102fb01526103dc01525f8181610239015261040001526109185ff3fe608060405234801561000f575f5ffd5b506004361061003f575f3560e01c806316deae7114610043578063442b12781461004d5780637d253aff1461006b575b5f5ffd5b61004b610089565b005b6100556103da565b604051610062919061049c565b60405180910390f35b6100736103fe565b60405161008091906104d5565b60405180910390f35b5f6040518061014001604052806040518060400160405280600881526020017f74657374436f646500000000000000000000000000000000000000000000000081525081526020016040518060400160405280600281526020017f307800000000000000000000000000000000000000000000000000000000000081525081526020017381d37887aaf0013a2de277406c1c9ffc1571b42173ffffffffffffffffffffffffffffffffffffffff1681526020016207a12063ffffffff1681526020013373ffffffffffffffffffffffffffffffffffffffff168152602001600160ff1681526020016040518060400160405280600281526020017f307800000000000000000000000000000000000000000000000000000000000081525081526020016040518060400160405280600281526020017f307800000000000000000000000000000000000000000000000000000000000081525081526020016040518060400160405280600281526020017f30780000000000000000000000000000000000000000000000000000000000008152508152602001600a6bffffffffffffffffffffffff1681525090507f000000000000000000000000000000000000000000000000000000000000000073ffffffffffffffffffffffffffffffffffffffff1663095ea7b37f00000000000000000000000000000000000000000000000000000000000000008361012001516040518363ffffffff1660e01b81526004016102b792919061055e565b6020604051808303815f875af11580156102d3573d5f5f3e3d5ffd5b505050506040513d601f19601f820116820180604052508101906102f791906105be565b505f7f000000000000000000000000000000000000000000000000000000000000000073ffffffffffffffffffffffffffffffffffffffff16633f678e11836040518263ffffffff1660e01b815260040161035291906107f5565b6020604051808303815f875af115801561036e573d5f5f3e3d5ffd5b505050506040513d601f19601f82011682018060405250810190610392919061083f565b90505f81036103d6576040517f08c379a00000000000000000000000000000000000000000000000000000000081526004016103cd906108c4565b60405180910390fd5b5050565b7f000000000000000000000000000000000000000000000000000000000000000081565b7f000000000000000000000000000000000000000000000000000000000000000081565b5f73ffffffffffffffffffffffffffffffffffffffff82169050919050565b5f819050919050565b5f61046461045f61045a84610422565b610441565b610422565b9050919050565b5f6104758261044a565b9050919050565b5f6104868261046b565b9050919050565b6104968161047c565b82525050565b5f6020820190506104af5f83018461048d565b92915050565b5f6104bf8261046b565b9050919050565b6104cf816104b5565b82525050565b5f6020820190506104e85f8301846104c6565b92915050565b5f6104f882610422565b9050919050565b610508816104ee565b82525050565b5f6bffffffffffffffffffffffff82169050919050565b5f819050919050565b5f61054861054361053e8461050e565b610441565b610525565b9050919050565b6105588161052e565b82525050565b5f6040820190506105715f8301856104ff565b61057e602083018461054f565b9392505050565b5f5ffd5b5f8115159050919050565b61059d81610589565b81146105a7575f5ffd5b50565b5f815190506105b881610594565b92915050565b5f602082840312156105d3576105d2610585565b5b5f6105e0848285016105aa565b91505092915050565b5f81519050919050565b5f82825260208201905092915050565b8281835e5f83830152505050565b5f601f19601f8301169050919050565b5f61062b826105e9565b61063581856105f3565b9350610645818560208601610603565b61064e81610611565b840191505092915050565b5f81519050919050565b5f82825260208201905092915050565b5f61067d82610659565b6106878185610663565b9350610697818560208601610603565b6106a081610611565b840191505092915050565b6106b4816104ee565b82525050565b5f63ffffffff82169050919050565b6106d2816106ba565b82525050565b5f60ff82169050919050565b6106ed816106d8565b82525050565b6106fc8161050e565b82525050565b5f61014083015f8301518482035f86015261071d8282610621565b915050602083015184820360208601526107378282610673565b915050604083015161074c60408601826106ab565b50606083015161075f60608601826106c9565b50608083015161077260808601826106ab565b5060a083015161078560a08601826106e4565b5060c083015184820360c086015261079d8282610673565b91505060e083015184820360e08601526107b78282610673565b9150506101008301518482036101008601526107d38282610673565b9150506101208301516107ea6101208601826106f3565b508091505092915050565b5f6020820190508181035f83015261080d8184610702565b905092915050565b61081e81610525565b8114610828575f5ffd5b50565b5f8151905061083981610815565b92915050565b5f6020828403121561085457610853610585565b5b5f6108618482850161082b565b91505092915050565b5f82825260208201905092915050565b7f6175746f2d617070726f76652064697361626c656400000000000000000000005f82015250565b5f6108ae60158361086a565b91506108b98261087a565b602082019050919050565b5f6020820190508181035f8301526108db816108a2565b905091905056fea26469706673582212200a69028e995986bbbc332e2a8b4d606f075c6f02674e72d77e54bbb86a8997a264736f6c634300081d0033",
					"opcodes": "PUSH1 0xC0 PUSH1 0x40 MSTORE CALLVALUE DUP1 ISZERO PUSH2 0xF JUMPI PUSH0 PUSH0 REVERT JUMPDEST POP PUSH1 0x40 MLOAD PUSH2 0xAD6 CODESIZE SUB DUP1 PUSH2 0xAD6 DUP4 CODECOPY DUP2 DUP2 ADD PUSH1 0x40 MSTORE DUP2 ADD SWAP1 PUSH2 0x31 SWAP2 SWAP1 PUSH2 0x14A JUMP JUMPDEST DUP2 PUSH20 0xFFFFFFFFFFFFFFFFFFFFFFFFFFFFFFFFFFFFFFFF AND PUSH1 0x80 DUP2 PUSH20 0xFFFFFFFFFFFFFFFFFFFFFFFFFFFFFFFFFFFFFFFF AND DUP2 MSTORE POP POP DUP1 PUSH20 0xFFFFFFFFFFFFFFFFFFFFFFFFFFFFFFFFFFFFFFFF AND PUSH1 0xA0 DUP2 PUSH20 0xFFFFFFFFFFFFFFFFFFFFFFFFFFFFFFFFFFFFFFFF AND DUP2 MSTORE POP POP POP POP PUSH2 0x188 JUMP JUMPDEST PUSH0 PUSH0 REVERT JUMPDEST PUSH0 PUSH20 0xFFFFFFFFFFFFFFFFFFFFFFFFFFFFFFFFFFFFFFFF DUP3 AND SWAP1 POP SWAP2 SWAP1 POP JUMP JUMPDEST PUSH0 PUSH2 0xCD DUP3 PUSH2 0xA4 JUMP JUMPDEST SWAP1 POP SWAP2 SWAP1 POP JUMP JUMPDEST PUSH0 PUSH2 0xDE DUP3 PUSH2 0xC3 JUMP JUMPDEST SWAP1 POP SWAP2 SWAP1 POP JUMP JUMPDEST PUSH2 0xEE DUP2 PUSH2 0xD4 JUMP JUMPDEST DUP2 EQ PUSH2 0xF8 JUMPI PUSH0 PUSH0 REVERT JUMPDEST POP JUMP JUMPDEST PUSH0 DUP2 MLOAD SWAP1 POP PUSH2 0x109 DUP2 PUSH2 0xE5 JUMP JUMPDEST SWAP3 SWAP2 POP POP JUMP JUMPDEST PUSH0 PUSH2 0x119 DUP3 PUSH2 0xC3 JUMP JUMPDEST SWAP1 POP SWAP2 SWAP1 POP JUMP JUMPDEST PUSH2 0x129 DUP2 PUSH2 0x10F JUMP JUMPDEST DUP2 EQ PUSH2 0x133 JUMPI PUSH0 PUSH0 REVERT JUMPDEST POP JUMP JUMPDEST PUSH0 DUP2 MLOAD SWAP1 POP PUSH2 0x144 DUP2 PUSH2 0x120 JUMP JUMPDEST SWAP3 SWAP2 POP POP JUMP JUMPDEST PUSH0 PUSH0 PUSH1 0x40 DUP4 DUP6 SUB SLT ISZERO PUSH2 0x160 JUMPI PUSH2 0x15F PUSH2 0xA0 JUMP JUMPDEST JUMPDEST PUSH0 PUSH2 0x16D DUP6 DUP3 DUP7 ADD PUSH2 0xFB JUMP JUMPDEST SWAP3 POP POP PUSH1 0x20 PUSH2 0x17E DUP6 DUP3 DUP7 ADD PUSH2 0x136 JUMP JUMPDEST SWAP2 POP POP SWAP3 POP SWAP3 SWAP1 POP JUMP JUMPDEST PUSH1 0x80 MLOAD PUSH1 0xA0 MLOAD PUSH2 0x918 PUSH2 0x1BE PUSH0 CODECOPY PUSH0 DUP2 DUP2 PUSH2 0x275 ADD MSTORE DUP2 DUP2 PUSH2 0x2FB ADD MSTORE PUSH2 0x3DC ADD MSTORE PUSH0 DUP2 DUP2 PUSH2 0x239 ADD MSTORE PUSH2 0x400 ADD MSTORE PUSH2 0x918 PUSH0 RETURN INVALID PUSH1 0x80 PUSH1 0x40 MSTORE CALLVALUE DUP1 ISZERO PUSH2 0xF JUMPI PUSH0 PUSH0 REVERT JUMPDEST POP PUSH1 0x4 CALLDATASIZE LT PUSH2 0x3F JUMPI PUSH0 CALLDATALOAD PUSH1 0xE0 SHR DUP1 PUSH4 0x16DEAE71 EQ PUSH2 0x43 JUMPI DUP1 PUSH4 0x442B1278 EQ PUSH2 0x4D JUMPI DUP1 PUSH4 0x7D253AFF EQ PUSH2 0x6B JUMPI JUMPDEST PUSH0 PUSH0 REVERT JUMPDEST PUSH2 0x4B PUSH2 0x89 JUMP JUMPDEST STOP JUMPDEST PUSH2 0x55 PUSH2 0x3DA JUMP JUMPDEST PUSH1 0x40 MLOAD PUSH2 0x62 SWAP2 SWAP1 PUSH2 0x49C JUMP JUMPDEST PUSH1 0x40 MLOAD DUP1 SWAP2 SUB SWAP1 RETURN JUMPDEST PUSH2 0x73 PUSH2 0x3FE JUMP JUMPDEST PUSH1 0x40 MLOAD PUSH2 0x80 SWAP2 SWAP1 PUSH2 0x4D5 JUMP JUMPDEST PUSH1 0x40 MLOAD DUP1 SWAP2 SUB SWAP1 RETURN JUMPDEST PUSH0 PUSH1 0x40 MLOAD DUP1 PUSH2 0x140 ADD PUSH1 0x40 MSTORE DUP1 PUSH1 0x40 MLOAD DUP1 PUSH1 0x40 ADD PUSH1 0x40 MSTORE DUP1 PUSH1 0x8 DUP2 MSTORE PUSH1 0x20 ADD PUSH32 0x74657374436F6465000000000000000000000000000000000000000000000000 DUP2 MSTORE POP DUP2 MSTORE PUSH1 0x20 ADD PUSH1 0x40 MLOAD DUP1 PUSH1 0x40 ADD PUSH1 0x40 MSTORE DUP1 PUSH1 0x2 DUP2 MSTORE PUSH1 0x20 ADD PUSH32 0x3078000000000000000000000000000000000000000000000000000000000000 DUP2 MSTORE POP DUP2 MSTORE PUSH1 0x20 ADD PUSH20 0x81D37887AAF0013A2DE277406C1C9FFC1571B421 PUSH20 0xFFFFFFFFFFFFFFFFFFFFFFFFFFFFFFFFFFFFFFFF AND DUP2 MSTORE PUSH1 0x20 ADD PUSH3 0x7A120 PUSH4 0xFFFFFFFF AND DUP2 MSTORE PUSH1 0x20 ADD CALLER PUSH20 0xFFFFFFFFFFFFFFFFFFFFFFFFFFFFFFFFFFFFFFFF AND DUP2 MSTORE PUSH1 0x20 ADD PUSH1 0x1 PUSH1 0xFF AND DUP2 MSTORE PUSH1 0x20 ADD PUSH1 0x40 MLOAD DUP1 PUSH1 0x40 ADD PUSH1 0x40 MSTORE DUP1 PUSH1 0x2 DUP2 MSTORE PUSH1 0x20 ADD PUSH32 0x3078000000000000000000000000000000000000000000000000000000000000 DUP2 MSTORE POP DUP2 MSTORE PUSH1 0x20 ADD PUSH1 0x40 MLOAD DUP1 PUSH1 0x40 ADD PUSH1 0x40 MSTORE DUP1 PUSH1 0x2 DUP2 MSTORE PUSH1 0x20 ADD PUSH32 0x3078000000000000000000000000000000000000000000000000000000000000 DUP2 MSTORE POP DUP2 MSTORE PUSH1 0x20 ADD PUSH1 0x40 MLOAD DUP1 PUSH1 0x40 ADD PUSH1 0x40 MSTORE DUP1 PUSH1 0x2 DUP2 MSTORE PUSH1 0x20 ADD PUSH32 0x3078000000000000000000000000000000000000000000000000000000000000 DUP2 MSTORE POP DUP2 MSTORE PUSH1 0x20 ADD PUSH1 0xA PUSH12 0xFFFFFFFFFFFFFFFFFFFFFFFF AND DUP2 MSTORE POP SWAP1 POP PUSH32 0x0 PUSH20 0xFFFFFFFFFFFFFFFFFFFFFFFFFFFFFFFFFFFFFFFF AND PUSH4 0x95EA7B3 PUSH32 0x0 DUP4 PUSH2 0x120 ADD MLOAD PUSH1 0x40 MLOAD DUP4 PUSH4 0xFFFFFFFF AND PUSH1 0xE0 SHL DUP2 MSTORE PUSH1 0x4 ADD PUSH2 0x2B7 SWAP3 SWAP2 SWAP1 PUSH2 0x55E JUMP JUMPDEST PUSH1 0x20 PUSH1 0x40 MLOAD DUP1 DUP4 SUB DUP2 PUSH0 DUP8 GAS CALL ISZERO DUP1 ISZERO PUSH2 0x2D3 JUMPI RETURNDATASIZE PUSH0 PUSH0 RETURNDATACOPY RETURNDATASIZE PUSH0 REVERT JUMPDEST POP POP POP POP PUSH1 0x40 MLOAD RETURNDATASIZE PUSH1 0x1F NOT PUSH1 0x1F DUP3 ADD AND DUP3 ADD DUP1 PUSH1 0x40 MSTORE POP DUP2 ADD SWAP1 PUSH2 0x2F7 SWAP2 SWAP1 PUSH2 0x5BE JUMP JUMPDEST POP PUSH0 PUSH32 0x0 PUSH20 0xFFFFFFFFFFFFFFFFFFFFFFFFFFFFFFFFFFFFFFFF AND PUSH4 0x3F678E11 DUP4 PUSH1 0x40 MLOAD DUP3 PUSH4 0xFFFFFFFF AND PUSH1 0xE0 SHL DUP2 MSTORE PUSH1 0x4 ADD PUSH2 0x352 SWAP2 SWAP1 PUSH2 0x7F5 JUMP JUMPDEST PUSH1 0x20 PUSH1 0x40 MLOAD DUP1 DUP4 SUB DUP2 PUSH0 DUP8 GAS CALL ISZERO DUP1 ISZERO PUSH2 0x36E JUMPI RETURNDATASIZE PUSH0 PUSH0 RETURNDATACOPY RETURNDATASIZE PUSH0 REVERT JUMPDEST POP POP POP POP PUSH1 0x40 MLOAD RETURNDATASIZE PUSH1 0x1F NOT PUSH1 0x1F DUP3 ADD AND DUP3 ADD DUP1 PUSH1 0x40 MSTORE POP DUP2 ADD SWAP1 PUSH2 0x392 SWAP2 SWAP1 PUSH2 0x83F JUMP JUMPDEST SWAP1 POP PUSH0 DUP2 SUB PUSH2 0x3D6 JUMPI PUSH1 0x40 MLOAD PUSH32 0x8C379A000000000000000000000000000000000000000000000000000000000 DUP2 MSTORE PUSH1 0x4 ADD PUSH2 0x3CD SWAP1 PUSH2 0x8C4 JUMP JUMPDEST PUSH1 0x40 MLOAD DUP1 SWAP2 SUB SWAP1 REVERT JUMPDEST POP POP JUMP JUMPDEST PUSH32 0x0 DUP2 JUMP JUMPDEST PUSH32 0x0 DUP2 JUMP JUMPDEST PUSH0 PUSH20 0xFFFFFFFFFFFFFFFFFFFFFFFFFFFFFFFFFFFFFFFF DUP3 AND SWAP1 POP SWAP2 SWAP1 POP JUMP JUMPDEST PUSH0 DUP2 SWAP1 POP SWAP2 SWAP1 POP JUMP JUMPDEST PUSH0 PUSH2 0x464 PUSH2 0x45F PUSH2 0x45A DUP5 PUSH2 0x422 JUMP JUMPDEST PUSH2 0x441 JUMP JUMPDEST PUSH2 0x422 JUMP JUMPDEST SWAP1 POP SWAP2 SWAP1 POP JUMP JUMPDEST PUSH0 PUSH2 0x475 DUP3 PUSH2 0x44A JUMP JUMPDEST SWAP1 POP SWAP2 SWAP1 POP JUMP JUMPDEST PUSH0 PUSH2 0x486 DUP3 PUSH2 0x46B JUMP JUMPDEST SWAP1 POP SWAP2 SWAP1 POP JUMP JUMPDEST PUSH2 0x496 DUP2 PUSH2 0x47C JUMP JUMPDEST DUP3 MSTORE POP POP JUMP JUMPDEST PUSH0 PUSH1 0x20 DUP3 ADD SWAP1 POP PUSH2 0x4AF PUSH0 DUP4 ADD DUP5 PUSH2 0x48D JUMP JUMPDEST SWAP3 SWAP2 POP POP JUMP JUMPDEST PUSH0 PUSH2 0x4BF DUP3 PUSH2 0x46B JUMP JUMPDEST SWAP1 POP SWAP2 SWAP1 POP JUMP JUMPDEST PUSH2 0x4CF DUP2 PUSH2 0x4B5 JUMP JUMPDEST DUP3 MSTORE POP POP JUMP JUMPDEST PUSH0 PUSH1 0x20 DUP3 ADD SWAP1 POP PUSH2 0x4E8 PUSH0 DUP4 ADD DUP5 PUSH2 0x4C6 JUMP JUMPDEST SWAP3 SWAP2 POP POP JUMP JUMPDEST PUSH0 PUSH2 0x4F8 DUP3 PUSH2 0x422 JUMP JUMPDEST SWAP1 POP SWAP2 SWAP1 POP JUMP JUMPDEST PUSH2 0x508 DUP2 PUSH2 0x4EE JUMP JUMPDEST DUP3 MSTORE POP POP JUMP JUMPDEST PUSH0 PUSH12 0xFFFFFFFFFFFFFFFFFFFFFFFF DUP3 AND SWAP1 POP SWAP2 SWAP1 POP JUMP JUMPDEST PUSH0 DUP2 SWAP1 POP SWAP2 SWAP1 POP JUMP JUMPDEST PUSH0 PUSH2 0x548 PUSH2 0x543 PUSH2 0x53E DUP5 PUSH2 0x50E JUMP JUMPDEST PUSH2 0x441 JUMP JUMPDEST PUSH2 0x525 JUMP JUMPDEST SWAP1 POP SWAP2 SWAP1 POP JUMP JUMPDEST PUSH2 0x558 DUP2 PUSH2 0x52E JUMP JUMPDEST DUP3 MSTORE POP POP JUMP JUMPDEST PUSH0 PUSH1 0x40 DUP3 ADD SWAP1 POP PUSH2 0x571 PUSH0 DUP4 ADD DUP6 PUSH2 0x4FF JUMP JUMPDEST PUSH2 0x57E PUSH1 0x20 DUP4 ADD DUP5 PUSH2 0x54F JUMP JUMPDEST SWAP4 SWAP3 POP POP POP JUMP JUMPDEST PUSH0 PUSH0 REVERT JUMPDEST PUSH0 DUP2 ISZERO ISZERO SWAP1 POP SWAP2 SWAP1 POP JUMP JUMPDEST PUSH2 0x59D DUP2 PUSH2 0x589 JUMP JUMPDEST DUP2 EQ PUSH2 0x5A7 JUMPI PUSH0 PUSH0 REVERT JUMPDEST POP JUMP JUMPDEST PUSH0 DUP2 MLOAD SWAP1 POP PUSH2 0x5B8 DUP2 PUSH2 0x594 JUMP JUMPDEST SWAP3 SWAP2 POP POP JUMP JUMPDEST PUSH0 PUSH1 0x20 DUP3 DUP5 SUB SLT ISZERO PUSH2 0x5D3 JUMPI PUSH2 0x5D2 PUSH2 0x585 JUMP JUMPDEST JUMPDEST PUSH0 PUSH2 0x5E0 DUP5 DUP3 DUP6 ADD PUSH2 0x5AA JUMP JUMPDEST SWAP2 POP POP SWAP3 SWAP2 POP POP JUMP JUMPDEST PUSH0 DUP2 MLOAD SWAP1 POP SWAP2 SWAP1 POP JUMP JUMPDEST PUSH0 DUP3 DUP3 MSTORE PUSH1 0x20 DUP3 ADD SWAP1 POP SWAP3 SWAP2 POP POP JUMP JUMPDEST DUP3 DUP2 DUP4 MCOPY PUSH0 DUP4 DUP4 ADD MSTORE POP POP POP JUMP JUMPDEST PUSH0 PUSH1 0x1F NOT PUSH1 0x1F DUP4 ADD AND SWAP1 POP SWAP2 SWAP1 POP JUMP JUMPDEST PUSH0 PUSH2 0x62B DUP3 PUSH2 0x5E9 JUMP JUMPDEST PUSH2 0x635 DUP2 DUP6 PUSH2 0x5F3 JUMP JUMPDEST SWAP4 POP PUSH2 0x645 DUP2 DUP6 PUSH1 0x20 DUP7 ADD PUSH2 0x603 JUMP JUMPDEST PUSH2 0x64E DUP2 PUSH2 0x611 JUMP JUMPDEST DUP5 ADD SWAP2 POP POP SWAP3 SWAP2 POP POP JUMP JUMPDEST PUSH0 DUP2 MLOAD SWAP1 POP SWAP2 SWAP1 POP JUMP JUMPDEST PUSH0 DUP3 DUP3 MSTORE PUSH1 0x20 DUP3 ADD SWAP1 POP SWAP3 SWAP2 POP POP JUMP JUMPDEST PUSH0 PUSH2 0x67D DUP3 PUSH2 0x659 JUMP JUMPDEST PUSH2 0x687 DUP2 DUP6 PUSH2 0x663 JUMP JUMPDEST SWAP4 POP PUSH2 0x697 DUP2 DUP6 PUSH1 0x20 DUP7 ADD PUSH2 0x603 JUMP JUMPDEST PUSH2 0x6A0 DUP2 PUSH2 0x611 JUMP JUMPDEST DUP5 ADD SWAP2 POP POP SWAP3 SWAP2 POP POP JUMP JUMPDEST PUSH2 0x6B4 DUP2 PUSH2 0x4EE JUMP JUMPDEST DUP3 MSTORE POP POP JUMP JUMPDEST PUSH0 PUSH4 0xFFFFFFFF DUP3 AND SWAP1 POP SWAP2 SWAP1 POP JUMP JUMPDEST PUSH2 0x6D2 DUP2 PUSH2 0x6BA JUMP JUMPDEST DUP3 MSTORE POP POP JUMP JUMPDEST PUSH0 PUSH1 0xFF DUP3 AND SWAP1 POP SWAP2 SWAP1 POP JUMP JUMPDEST PUSH2 0x6ED DUP2 PUSH2 0x6D8 JUMP JUMPDEST DUP3 MSTORE POP POP JUMP JUMPDEST PUSH2 0x6FC DUP2 PUSH2 0x50E JUMP JUMPDEST DUP3 MSTORE POP POP JUMP JUMPDEST PUSH0 PUSH2 0x140 DUP4 ADD PUSH0 DUP4 ADD MLOAD DUP5 DUP3 SUB PUSH0 DUP7 ADD MSTORE PUSH2 0x71D DUP3 DUP3 PUSH2 0x621 JUMP JUMPDEST SWAP2 POP POP PUSH1 0x20 DUP4 ADD MLOAD DUP5 DUP3 SUB PUSH1 0x20 DUP7 ADD MSTORE PUSH2 0x737 DUP3 DUP3 PUSH2 0x673 JUMP JUMPDEST SWAP2 POP POP PUSH1 0x40 DUP4 ADD MLOAD PUSH2 0x74C PUSH1 0x40 DUP7 ADD DUP3 PUSH2 0x6AB JUMP JUMPDEST POP PUSH1 0x60 DUP4 ADD MLOAD PUSH2 0x75F PUSH1 0x60 DUP7 ADD DUP3 PUSH2 0x6C9 JUMP JUMPDEST POP PUSH1 0x80 DUP4 ADD MLOAD PUSH2 0x772 PUSH1 0x80 DUP7 ADD DUP3 PUSH2 0x6AB JUMP JUMPDEST POP PUSH1 0xA0 DUP4 ADD MLOAD PUSH2 0x785 PUSH1 0xA0 DUP7 ADD DUP3 PUSH2 0x6E4 JUMP JUMPDEST POP PUSH1 0xC0 DUP4 ADD MLOAD DUP5 DUP3 SUB PUSH1 0xC0 DUP7 ADD MSTORE PUSH2 0x79D DUP3 DUP3 PUSH2 0x673 JUMP JUMPDEST SWAP2 POP POP PUSH1 0xE0 DUP4 ADD MLOAD DUP5 DUP3 SUB PUSH1 0xE0 DUP7 ADD MSTORE PUSH2 0x7B7 DUP3 DUP3 PUSH2 0x673 JUMP JUMPDEST SWAP2 POP POP PUSH2 0x100 DUP4 ADD MLOAD DUP5 DUP3 SUB PUSH2 0x100 DUP7 ADD MSTORE PUSH2 0x7D3 DUP3 DUP3 PUSH2 0x673 JUMP JUMPDEST SWAP2 POP POP PUSH2 0x120 DUP4 ADD MLOAD PUSH2 0x7EA PUSH2 0x120 DUP7 ADD DUP3 PUSH2 0x6F3 JUMP JUMPDEST POP DUP1 SWAP2 POP POP SWAP3 SWAP2 POP POP JUMP JUMPDEST PUSH0 PUSH1 0x20 DUP3 ADD SWAP1 POP DUP2 DUP2 SUB PUSH0 DUP4 ADD MSTORE PUSH2 0x80D DUP2 DUP5 PUSH2 0x702 JUMP JUMPDEST SWAP1 POP SWAP3 SWAP2 POP POP JUMP JUMPDEST PUSH2 0x81E DUP2 PUSH2 0x525 JUMP JUMPDEST DUP2 EQ PUSH2 0x828 JUMPI PUSH0 PUSH0 REVERT JUMPDEST POP JUMP JUMPDEST PUSH0 DUP2 MLOAD SWAP1 POP PUSH2 0x839 DUP2 PUSH2 0x815 JUMP JUMPDEST SWAP3 SWAP2 POP POP JUMP JUMPDEST PUSH0 PUSH1 0x20 DUP3 DUP5 SUB SLT ISZERO PUSH2 0x854 JUMPI PUSH2 0x853 PUSH2 0x585 JUMP JUMPDEST JUMPDEST PUSH0 PUSH2 0x861 DUP5 DUP3 DUP6 ADD PUSH2 0x82B JUMP JUMPDEST SWAP2 POP POP SWAP3 SWAP2 POP POP JUMP JUMPDEST PUSH0 DUP3 DUP3 MSTORE PUSH1 0x20 DUP3 ADD SWAP1 POP SWAP3 SWAP2 POP POP JUMP JUMPDEST PUSH32 0x6175746F2D617070726F76652064697361626C65640000000000000000000000 PUSH0 DUP3 ADD MSTORE POP JUMP JUMPDEST PUSH0 PUSH2 0x8AE PUSH1 0x15 DUP4 PUSH2 0x86A JUMP JUMPDEST SWAP2 POP PUSH2 0x8B9 DUP3 PUSH2 0x87A JUMP JUMPDEST PUSH1 0x20 DUP3 ADD SWAP1 POP SWAP2 SWAP1 POP JUMP JUMPDEST PUSH0 PUSH1 0x20 DUP3 ADD SWAP1 POP DUP2 DUP2 SUB PUSH0 DUP4 ADD MSTORE PUSH2 0x8DB DUP2 PUSH2 0x8A2 JUMP JUMPDEST SWAP1 POP SWAP2 SWAP1 POP JUMP INVALID LOG2 PUSH5 0x6970667358 0x22 SLT KECCAK256 EXP PUSH10 0x28E995986BBBC332E2A DUP12 0x4D PUSH1 0x6F SMOD TLOAD PUSH16 0x2674E72D77E54BBB86A8997A264736F PUSH13 0x634300081D0033000000000000 "
				},
				"gasEstimates": {
					"creation": {
						"codeDepositCost": "465600",
						"executionCost": "infinite",
						"totalCost": "infinite"
					},
					"external": {
						"i_link()": "infinite",
						"i_registrar()": "infinite",
						"registerAndPredictID()": "infinite"
					}
				},
				"methodIdentifiers": {
					"i_link()": "7d253aff",
					"i_registrar()": "442b1278",
					"registerAndPredictID()": "16deae71"
				}
			},
			"storageLayout": {
				"storage": [],
				"types": null
			},
			"userdoc": {
				"kind": "user",
				"methods": {},
				"version": 1
			}
		}
	}
}