{
	"Carbon-Credits-Verification-with-Blockchain-main/contracts/automationNode.sol": {
		"AutomationNode": {
			"abi": [
				{
					"inputs": [
						{
							"internalType": "contract LinkTokenInterface",
							"name": "link",
							"type": "address"
						},
						{
							"internalType": "contract AutomationRegistrarInterface",
							"name": "registrar",
							"type": "address"
						}
					],
					"stateMutability": "nonpayable",
					"type": "constructor"
				},
				{
					"inputs": [],
					"name": "i_link",
					"outputs": [
						{
							"internalType": "contract LinkTokenInterface",
							"name": "",
							"type": "address"
						}
					],
					"stateMutability": "view",
					"type": "function"
				},
				{
					"inputs": [],
					"name": "i_registrar",
					"outputs": [
						{
							"internalType": "contract AutomationRegistrarInterface",
							"name": "",
							"type": "address"
						}
					],
					"stateMutability": "view",
					"type": "function"
				},
				{
					"inputs": [],
					"name": "registerAndPredictID",
					"outputs": [],
					"stateMutability": "nonpayable",
					"type": "function"
				}
			],
			"devdoc": {
				"kind": "dev",
				"methods": {},
				"version": 1
			},
			"evm": {
				"assembly": "    /* \"Carbon-Credits-Verification-with-Blockchain-main/contracts/automationNode.sol\":1671:2938  contract AutomationNode {... */\n  mstore(0x40, 0xc0)\n    /* \"Carbon-Credits-Verification-with-Blockchain-main/contracts/automationNode.sol\":1813:1975  constructor(... */\n  callvalue\n  dup1\n  iszero\n  tag_1\n  jumpi\n  0x00\n  dup1\n  revert\ntag_1:\n  pop\n  mload(0x40)\n  sub(codesize, bytecodeSize)\n  dup1\n  bytecodeSize\n  dup4\n  codecopy\n  dup2\n  dup2\n  add\n  0x40\n  mstore\n  dup2\n  add\n  swap1\n  tag_2\n  swap2\n  swap1\n  tag_3\n  jump\t// in\ntag_2:\n    /* \"Carbon-Credits-Verification-with-Blockchain-main/contracts/automationNode.sol\":1931:1935  link */\n  dup2\n    /* \"Carbon-Credits-Verification-with-Blockchain-main/contracts/automationNode.sol\":1922:1935  i_link = link */\n  0xffffffffffffffffffffffffffffffffffffffff\n  and\n  0x80\n  dup2\n  0xffffffffffffffffffffffffffffffffffffffff\n  and\n  dup2\n  mstore\n  pop\n  pop\n    /* \"Carbon-Credits-Verification-with-Blockchain-main/contracts/automationNode.sol\":1959:1968  registrar */\n  dup1\n    /* \"Carbon-Credits-Verification-with-Blockchain-main/contracts/automationNode.sol\":1945:1968  i_registrar = registrar */\n  0xffffffffffffffffffffffffffffffffffffffff\n  and\n  0xa0\n  dup2\n  0xffffffffffffffffffffffffffffffffffffffff\n  and\n  dup2\n  mstore\n  pop\n  pop\n    /* \"Carbon-Credits-Verification-with-Blockchain-main/contracts/automationNode.sol\":1813:1975  constructor(... */\n  pop\n  pop\n    /* \"Carbon-Credits-Verification-with-Blockchain-main/contracts/automationNode.sol\":1671:2938  contract AutomationNode {... */\n  jump(tag_6)\n    /* \"#utility.yul\":88:205   */\ntag_8:\n    /* \"#utility.yul\":197:198   */\n  0x00\n    /* \"#utility.yul\":194:195   */\n  dup1\n    /* \"#utility.yul\":187:199   */\n  revert\n    /* \"#utility.yul\":334:460   */\ntag_10:\n    /* \"#utility.yul\":371:378   */\n  0x00\n    /* \"#utility.yul\":411:453   */\n  0xffffffffffffffffffffffffffffffffffffffff\n    /* \"#utility.yul\":404:409   */\n  dup3\n    /* \"#utility.yul\":400:454   */\n  and\n    /* \"#utility.yul\":389:454   */\n  swap1\n  pop\n    /* \"#utility.yul\":334:460   */\n  swap2\n  swap1\n  pop\n  jump\t// out\n    /* \"#utility.yul\":466:562   */\ntag_11:\n    /* \"#utility.yul\":503:510   */\n  0x00\n    /* \"#utility.yul\":532:556   */\n  tag_24\n    /* \"#utility.yul\":550:555   */\n  dup3\n    /* \"#utility.yul\":532:556   */\n  tag_10\n  jump\t// in\ntag_24:\n    /* \"#utility.yul\":521:556   */\n  swap1\n  pop\n    /* \"#utility.yul\":466:562   */\n  swap2\n  swap1\n  pop\n  jump\t// out\n    /* \"#utility.yul\":568:689   */\ntag_12:\n    /* \"#utility.yul\":630:637   */\n  0x00\n    /* \"#utility.yul\":659:683   */\n  tag_26\n    /* \"#utility.yul\":677:682   */\n  dup3\n    /* \"#utility.yul\":659:683   */\n  tag_11\n  jump\t// in\ntag_26:\n    /* \"#utility.yul\":648:683   */\n  swap1\n  pop\n    /* \"#utility.yul\":568:689   */\n  swap2\n  swap1\n  pop\n  jump\t// out\n    /* \"#utility.yul\":695:867   */\ntag_13:\n    /* \"#utility.yul\":793:842   */\n  tag_28\n    /* \"#utility.yul\":836:841   */\n  dup2\n    /* \"#utility.yul\":793:842   */\n  tag_12\n  jump\t// in\ntag_28:\n    /* \"#utility.yul\":786:791   */\n  dup2\n    /* \"#utility.yul\":783:843   */\n  eq\n    /* \"#utility.yul\":773:861   */\n  tag_29\n  jumpi\n    /* \"#utility.yul\":857:858   */\n  0x00\n    /* \"#utility.yul\":854:855   */\n  dup1\n    /* \"#utility.yul\":847:859   */\n  revert\n    /* \"#utility.yul\":773:861   */\ntag_29:\n    /* \"#utility.yul\":695:867   */\n  pop\n  jump\t// out\n    /* \"#utility.yul\":873:1066   */\ntag_14:\n    /* \"#utility.yul\":955:960   */\n  0x00\n    /* \"#utility.yul\":986:992   */\n  dup2\n    /* \"#utility.yul\":980:993   */\n  mload\n    /* \"#utility.yul\":971:993   */\n  swap1\n  pop\n    /* \"#utility.yul\":1002:1060   */\n  tag_31\n    /* \"#utility.yul\":1054:1059   */\n  dup2\n    /* \"#utility.yul\":1002:1060   */\n  tag_13\n  jump\t// in\ntag_31:\n    /* \"#utility.yul\":873:1066   */\n  swap3\n  swap2\n  pop\n  pop\n  jump\t// out\n    /* \"#utility.yul\":1072:1204   */\ntag_15:\n    /* \"#utility.yul\":1145:1152   */\n  0x00\n    /* \"#utility.yul\":1174:1198   */\n  tag_33\n    /* \"#utility.yul\":1192:1197   */\n  dup3\n    /* \"#utility.yul\":1174:1198   */\n  tag_11\n  jump\t// in\ntag_33:\n    /* \"#utility.yul\":1163:1198   */\n  swap1\n  pop\n    /* \"#utility.yul\":1072:1204   */\n  swap2\n  swap1\n  pop\n  jump\t// out\n    /* \"#utility.yul\":1210:1404   */\ntag_16:\n    /* \"#utility.yul\":1319:1379   */\n  tag_35\n    /* \"#utility.yul\":1373:1378   */\n  dup2\n    /* \"#utility.yul\":1319:1379   */\n  tag_15\n  jump\t// in\ntag_35:\n    /* \"#utility.yul\":1312:1317   */\n  dup2\n    /* \"#utility.yul\":1309:1380   */\n  eq\n    /* \"#utility.yul\":1299:1398   */\n  tag_36\n  jumpi\n    /* \"#utility.yul\":1394:1395   */\n  0x00\n    /* \"#utility.yul\":1391:1392   */\n  dup1\n    /* \"#utility.yul\":1384:1396   */\n  revert\n    /* \"#utility.yul\":1299:1398   */\ntag_36:\n    /* \"#utility.yul\":1210:1404   */\n  pop\n  jump\t// out\n    /* \"#utility.yul\":1410:1625   */\ntag_17:\n    /* \"#utility.yul\":1503:1508   */\n  0x00\n    /* \"#utility.yul\":1534:1540   */\n  dup2\n    /* \"#utility.yul\":1528:1541   */\n  mload\n    /* \"#utility.yul\":1519:1541   */\n  swap1\n  pop\n    /* \"#utility.yul\":1550:1619   */\n  tag_38\n    /* \"#utility.yul\":1613:1618   */\n  dup2\n    /* \"#utility.yul\":1550:1619   */\n  tag_16\n  jump\t// in\ntag_38:\n    /* \"#utility.yul\":1410:1625   */\n  swap3\n  swap2\n  pop\n  pop\n  jump\t// out\n    /* \"#utility.yul\":1631:2260   */\ntag_3:\n    /* \"#utility.yul\":1771:1777   */\n  0x00\n    /* \"#utility.yul\":1779:1785   */\n  dup1\n    /* \"#utility.yul\":1828:1830   */\n  0x40\n    /* \"#utility.yul\":1816:1825   */\n  dup4\n    /* \"#utility.yul\":1807:1814   */\n  dup6\n    /* \"#utility.yul\":1803:1826   */\n  sub\n    /* \"#utility.yul\":1799:1831   */\n  slt\n    /* \"#utility.yul\":1796:1915   */\n  iszero\n  tag_40\n  jumpi\n    /* \"#utility.yul\":1834:1913   */\n  tag_41\n  tag_8\n  jump\t// in\ntag_41:\n    /* \"#utility.yul\":1796:1915   */\ntag_40:\n    /* \"#utility.yul\":1954:1955   */\n  0x00\n    /* \"#utility.yul\":1979:2068   */\n  tag_42\n    /* \"#utility.yul\":2060:2067   */\n  dup6\n    /* \"#utility.yul\":2051:2057   */\n  dup3\n    /* \"#utility.yul\":2040:2049   */\n  dup7\n    /* \"#utility.yul\":2036:2058   */\n  add\n    /* \"#utility.yul\":1979:2068   */\n  tag_14\n  jump\t// in\ntag_42:\n    /* \"#utility.yul\":1969:2068   */\n  swap3\n  pop\n    /* \"#utility.yul\":1925:2078   */\n  pop\n    /* \"#utility.yul\":2117:2119   */\n  0x20\n    /* \"#utility.yul\":2143:2243   */\n  tag_43\n    /* \"#utility.yul\":2235:2242   */\n  dup6\n    /* \"#utility.yul\":2226:2232   */\n  dup3\n    /* \"#utility.yul\":2215:2224   */\n  dup7\n    /* \"#utility.yul\":2211:2233   */\n  add\n    /* \"#utility.yul\":2143:2243   */\n  tag_17\n  jump\t// in\ntag_43:\n    /* \"#utility.yul\":2133:2243   */\n  swap2\n  pop\n    /* \"#utility.yul\":2088:2253   */\n  pop\n    /* \"#utility.yul\":1631:2260   */\n  swap3\n  pop\n  swap3\n  swap1\n  pop\n  jump\t// out\n    /* \"Carbon-Credits-Verification-with-Blockchain-main/contracts/automationNode.sol\":1671:2938  contract AutomationNode {... */\ntag_6:\n  mload(0x80)\n  mload(0xa0)\n  codecopy(0x00, dataOffset(sub_0), dataSize(sub_0))\n  0x00\n  assignImmutable(\"0x9960ed3041b9945289da338fa273462c820f58427408d57789c0e1400ad5c9bb\")\n  0x00\n  assignImmutable(\"0xe7fcf89c34605f23590ff58513f1080dc375dd06cc5e256320151057827a258a\")\n  return(0x00, dataSize(sub_0))\nstop\n\nsub_0: assembly {\n        /* \"Carbon-Credits-Verification-with-Blockchain-main/contracts/automationNode.sol\":1671:2938  contract AutomationNode {... */\n      mstore(0x40, 0x80)\n      callvalue\n      dup1\n      iszero\n      tag_1\n      jumpi\n      0x00\n      dup1\n      revert\n    tag_1:\n      pop\n      jumpi(tag_2, lt(calldatasize, 0x04))\n      shr(0xe0, calldataload(0x00))\n      dup1\n      0x16deae71\n      eq\n      tag_3\n      jumpi\n      dup1\n      0x442b1278\n      eq\n      tag_4\n      jumpi\n      dup1\n      0x7d253aff\n      eq\n      tag_5\n      jumpi\n    tag_2:\n      0x00\n      dup1\n      revert\n        /* \"Carbon-Credits-Verification-with-Blockchain-main/contracts/automationNode.sol\":1981:2936  function registerAndPredictID() public {... */\n    tag_3:\n      tag_6\n      tag_7\n      jump\t// in\n    tag_6:\n      stop\n        /* \"Carbon-Credits-Verification-with-Blockchain-main/contracts/automationNode.sol\":1749:1806  AutomationRegistrarInterface public immutable i_registrar */\n    tag_4:\n      tag_8\n      tag_9\n      jump\t// in\n    tag_8:\n      mload(0x40)\n      tag_10\n      swap2\n      swap1\n      tag_11\n      jump\t// in\n    tag_10:\n      mload(0x40)\n      dup1\n      swap2\n      sub\n      swap1\n      return\n        /* \"Carbon-Credits-Verification-with-Blockchain-main/contracts/automationNode.sol\":1701:1743  LinkTokenInterface public immutable i_link */\n    tag_5:\n      tag_12\n      tag_13\n      jump\t// in\n    tag_12:\n      mload(0x40)\n      tag_14\n      swap2\n      swap1\n      tag_15\n      jump\t// in\n    tag_14:\n      mload(0x40)\n      dup1\n      swap2\n      sub\n      swap1\n      return\n        /* \"Carbon-Credits-Verification-with-Blockchain-main/contracts/automationNode.sol\":1981:2936  function registerAndPredictID() public {... */\n    tag_7:\n        /* \"Carbon-Credits-Verification-with-Blockchain-main/contracts/automationNode.sol\":2151:2183  RegistrationParams memory params */\n      0x00\n        /* \"Carbon-Credits-Verification-with-Blockchain-main/contracts/automationNode.sol\":2186:2646  RegistrationParams({... */\n      mload(0x40)\n      dup1\n      0x0140\n      add\n      0x40\n      mstore\n      dup1\n      mload(0x40)\n      dup1\n      0x40\n      add\n      0x40\n      mstore\n      dup1\n      0x08\n      dup2\n      mstore\n      0x20\n      add\n      0x74657374436f6465000000000000000000000000000000000000000000000000\n      dup2\n      mstore\n      pop\n      dup2\n      mstore\n      0x20\n      add\n      mload(0x40)\n      dup1\n      0x40\n      add\n      0x40\n      mstore\n      dup1\n      0x02\n      dup2\n      mstore\n      0x20\n      add\n      0x3078000000000000000000000000000000000000000000000000000000000000\n      dup2\n      mstore\n      pop\n      dup2\n      mstore\n      0x20\n      add\n        /* \"Carbon-Credits-Verification-with-Blockchain-main/contracts/automationNode.sol\":2299:2341  0x81D37887AAF0013A2de277406c1C9FFc1571b421 */\n      0x81d37887aaf0013a2de277406c1c9ffc1571b421\n        /* \"Carbon-Credits-Verification-with-Blockchain-main/contracts/automationNode.sol\":2186:2646  RegistrationParams({... */\n      0xffffffffffffffffffffffffffffffffffffffff\n      and\n      dup2\n      mstore\n      0x20\n      add\n        /* \"Carbon-Credits-Verification-with-Blockchain-main/contracts/automationNode.sol\":2365:2371  500000 */\n      0x07a120\n        /* \"Carbon-Credits-Verification-with-Blockchain-main/contracts/automationNode.sol\":2186:2646  RegistrationParams({... */\n      0xffffffff\n      and\n      dup2\n      mstore\n      0x20\n      add\n        /* \"Carbon-Credits-Verification-with-Blockchain-main/contracts/automationNode.sol\":2399:2409  msg.sender */\n      caller\n        /* \"Carbon-Credits-Verification-with-Blockchain-main/contracts/automationNode.sol\":2186:2646  RegistrationParams({... */\n      0xffffffffffffffffffffffffffffffffffffffff\n      and\n      dup2\n      mstore\n      0x20\n      add\n        /* \"Carbon-Credits-Verification-with-Blockchain-main/contracts/automationNode.sol\":2436:2437  1 */\n      0x01\n        /* \"Carbon-Credits-Verification-with-Blockchain-main/contracts/automationNode.sol\":2186:2646  RegistrationParams({... */\n      0xff\n      and\n      dup2\n      mstore\n      0x20\n      add\n      mload(0x40)\n      dup1\n      0x40\n      add\n      0x40\n      mstore\n      dup1\n      0x02\n      dup2\n      mstore\n      0x20\n      add\n      0x3078000000000000000000000000000000000000000000000000000000000000\n      dup2\n      mstore\n      pop\n      dup2\n      mstore\n      0x20\n      add\n      mload(0x40)\n      dup1\n      0x40\n      add\n      0x40\n      mstore\n      dup1\n      0x02\n      dup2\n      mstore\n      0x20\n      add\n      0x3078000000000000000000000000000000000000000000000000000000000000\n      dup2\n      mstore\n      pop\n      dup2\n      mstore\n      0x20\n      add\n      mload(0x40)\n      dup1\n      0x40\n      add\n      0x40\n      mstore\n      dup1\n      0x02\n      dup2\n      mstore\n      0x20\n      add\n      0x3078000000000000000000000000000000000000000000000000000000000000\n      dup2\n      mstore\n      pop\n      dup2\n      mstore\n      0x20\n      add\n        /* \"Carbon-Credits-Verification-with-Blockchain-main/contracts/automationNode.sol\":2633:2635  10 */\n      0x0a\n        /* \"Carbon-Credits-Verification-with-Blockchain-main/contracts/automationNode.sol\":2186:2646  RegistrationParams({... */\n      0xffffffffffffffffffffffff\n      and\n      dup2\n      mstore\n      pop\n        /* \"Carbon-Credits-Verification-with-Blockchain-main/contracts/automationNode.sol\":2151:2646  RegistrationParams memory params = RegistrationParams({... */\n      swap1\n      pop\n        /* \"Carbon-Credits-Verification-with-Blockchain-main/contracts/automationNode.sol\":2656:2662  i_link */\n      immutable(\"0xe7fcf89c34605f23590ff58513f1080dc375dd06cc5e256320151057827a258a\")\n        /* \"Carbon-Credits-Verification-with-Blockchain-main/contracts/automationNode.sol\":2656:2670  i_link.approve */\n      0xffffffffffffffffffffffffffffffffffffffff\n      and\n      0x095ea7b3\n        /* \"Carbon-Credits-Verification-with-Blockchain-main/contracts/automationNode.sol\":2679:2690  i_registrar */\n      immutable(\"0x9960ed3041b9945289da338fa273462c820f58427408d57789c0e1400ad5c9bb\")\n        /* \"Carbon-Credits-Verification-with-Blockchain-main/contracts/automationNode.sol\":2693:2699  params */\n      dup4\n        /* \"Carbon-Credits-Verification-with-Blockchain-main/contracts/automationNode.sol\":2693:2706  params.amount */\n      0x0120\n      add\n      mload\n        /* \"Carbon-Credits-Verification-with-Blockchain-main/contracts/automationNode.sol\":2656:2707  i_link.approve(address(i_registrar), params.amount) */\n      mload(0x40)\n      dup4\n      0xffffffff\n      and\n      0xe0\n      shl\n      dup2\n      mstore\n      0x04\n      add\n      tag_17\n      swap3\n      swap2\n      swap1\n      tag_18\n      jump\t// in\n    tag_17:\n      0x20\n      mload(0x40)\n      dup1\n      dup4\n      sub\n      dup2\n      0x00\n      dup8\n      gas\n      call\n      iszero\n      dup1\n      iszero\n      tag_20\n      jumpi\n      returndatasize\n      0x00\n      dup1\n      returndatacopy\n      revert(0x00, returndatasize)\n    tag_20:\n      pop\n      pop\n      pop\n      pop\n      mload(0x40)\n      returndatasize\n      not(0x1f)\n      0x1f\n      dup3\n      add\n      and\n      dup3\n      add\n      dup1\n      0x40\n      mstore\n      pop\n      dup2\n      add\n      swap1\n      tag_21\n      swap2\n      swap1\n      tag_22\n      jump\t// in\n    tag_21:\n      pop\n        /* \"Carbon-Credits-Verification-with-Blockchain-main/contracts/automationNode.sol\":2717:2733  uint256 upkeepID */\n      0x00\n        /* \"Carbon-Credits-Verification-with-Blockchain-main/contracts/automationNode.sol\":2736:2747  i_registrar */\n      immutable(\"0x9960ed3041b9945289da338fa273462c820f58427408d57789c0e1400ad5c9bb\")\n        /* \"Carbon-Credits-Verification-with-Blockchain-main/contracts/automationNode.sol\":2736:2762  i_registrar.registerUpkeep */\n      0xffffffffffffffffffffffffffffffffffffffff\n      and\n      0x3f678e11\n        /* \"Carbon-Credits-Verification-with-Blockchain-main/contracts/automationNode.sol\":2763:2769  params */\n      dup4\n        /* \"Carbon-Credits-Verification-with-Blockchain-main/contracts/automationNode.sol\":2736:2770  i_registrar.registerUpkeep(params) */\n      mload(0x40)\n      dup3\n      0xffffffff\n      and\n      0xe0\n      shl\n      dup2\n      mstore\n      0x04\n      add\n      tag_23\n      swap2\n      swap1\n      tag_24\n      jump\t// in\n    tag_23:\n      0x20\n      mload(0x40)\n      dup1\n      dup4\n      sub\n      dup2\n      0x00\n      dup8\n      gas\n      call\n      iszero\n      dup1\n      iszero\n      tag_26\n      jumpi\n      returndatasize\n      0x00\n      dup1\n      returndatacopy\n      revert(0x00, returndatasize)\n    tag_26:\n      pop\n      pop\n      pop\n      pop\n      mload(0x40)\n      returndatasize\n      not(0x1f)\n      0x1f\n      dup3\n      add\n      and\n      dup3\n      add\n      dup1\n      0x40\n      mstore\n      pop\n      dup2\n      add\n      swap1\n      tag_27\n      swap2\n      swap1\n      tag_28\n      jump\t// in\n    tag_27:\n        /* \"Carbon-Credits-Verification-with-Blockchain-main/contracts/automationNode.sol\":2717:2770  uint256 upkeepID = i_registrar.registerUpkeep(params) */\n      swap1\n      pop\n        /* \"Carbon-Credits-Verification-with-Blockchain-main/contracts/automationNode.sol\":2796:2797  0 */\n      0x00\n        /* \"Carbon-Credits-Verification-with-Blockchain-main/contracts/automationNode.sol\":2784:2792  upkeepID */\n      dup2\n        /* \"Carbon-Credits-Verification-with-Blockchain-main/contracts/automationNode.sol\":2784:2797  upkeepID != 0 */\n      sub\n        /* \"Carbon-Credits-Verification-with-Blockchain-main/contracts/automationNode.sol\":2780:2930  if (upkeepID != 0) {... */\n      tag_30\n      jumpi\n        /* \"Carbon-Credits-Verification-with-Blockchain-main/contracts/automationNode.sol\":2888:2919  revert(\"auto-approve disabled\") */\n      mload(0x40)\n      0x08c379a000000000000000000000000000000000000000000000000000000000\n      dup2\n      mstore\n      0x04\n      add\n      tag_31\n      swap1\n      tag_32\n      jump\t// in\n    tag_31:\n      mload(0x40)\n      dup1\n      swap2\n      sub\n      swap1\n      revert\n        /* \"Carbon-Credits-Verification-with-Blockchain-main/contracts/automationNode.sol\":2780:2930  if (upkeepID != 0) {... */\n    tag_30:\n        /* \"Carbon-Credits-Verification-with-Blockchain-main/contracts/automationNode.sol\":2020:2936  {... */\n      pop\n      pop\n        /* \"Carbon-Credits-Verification-with-Blockchain-main/contracts/automationNode.sol\":1981:2936  function registerAndPredictID() public {... */\n      jump\t// out\n        /* \"Carbon-Credits-Verification-with-Blockchain-main/contracts/automationNode.sol\":1749:1806  AutomationRegistrarInterface public immutable i_registrar */\n    tag_9:\n      immutable(\"0x9960ed3041b9945289da338fa273462c820f58427408d57789c0e1400ad5c9bb\")\n      dup2\n      jump\t// out\n        /* \"Carbon-Credits-Verification-with-Blockchain-main/contracts/automationNode.sol\":1701:1743  LinkTokenInterface public immutable i_link */\n    tag_13:\n      immutable(\"0xe7fcf89c34605f23590ff58513f1080dc375dd06cc5e256320151057827a258a\")\n      dup2\n      jump\t// out\n        /* \"#utility.yul\":7:133   */\n    tag_33:\n        /* \"#utility.yul\":44:51   */\n      0x00\n        /* \"#utility.yul\":84:126   */\n      0xffffffffffffffffffffffffffffffffffffffff\n        /* \"#utility.yul\":77:82   */\n      dup3\n        /* \"#utility.yul\":73:127   */\n      and\n        /* \"#utility.yul\":62:127   */\n      swap1\n      pop\n        /* \"#utility.yul\":7:133   */\n      swap2\n      swap1\n      pop\n      jump\t// out\n        /* \"#utility.yul\":139:199   */\n    tag_34:\n        /* \"#utility.yul\":167:170   */\n      0x00\n        /* \"#utility.yul\":188:193   */\n      dup2\n        /* \"#utility.yul\":181:193   */\n      swap1\n      pop\n        /* \"#utility.yul\":139:199   */\n      swap2\n      swap1\n      pop\n      jump\t// out\n        /* \"#utility.yul\":205:347   */\n    tag_35:\n        /* \"#utility.yul\":255:264   */\n      0x00\n        /* \"#utility.yul\":288:341   */\n      tag_77\n        /* \"#utility.yul\":306:340   */\n      tag_78\n        /* \"#utility.yul\":315:339   */\n      tag_79\n        /* \"#utility.yul\":333:338   */\n      dup5\n        /* \"#utility.yul\":315:339   */\n      tag_33\n      jump\t// in\n    tag_79:\n        /* \"#utility.yul\":306:340   */\n      tag_34\n      jump\t// in\n    tag_78:\n        /* \"#utility.yul\":288:341   */\n      tag_33\n      jump\t// in\n    tag_77:\n        /* \"#utility.yul\":275:341   */\n      swap1\n      pop\n        /* \"#utility.yul\":205:347   */\n      swap2\n      swap1\n      pop\n      jump\t// out\n        /* \"#utility.yul\":353:479   */\n    tag_36:\n        /* \"#utility.yul\":403:412   */\n      0x00\n        /* \"#utility.yul\":436:473   */\n      tag_81\n        /* \"#utility.yul\":467:472   */\n      dup3\n        /* \"#utility.yul\":436:473   */\n      tag_35\n      jump\t// in\n    tag_81:\n        /* \"#utility.yul\":423:473   */\n      swap1\n      pop\n        /* \"#utility.yul\":353:479   */\n      swap2\n      swap1\n      pop\n      jump\t// out\n        /* \"#utility.yul\":485:647   */\n    tag_37:\n        /* \"#utility.yul\":571:580   */\n      0x00\n        /* \"#utility.yul\":604:641   */\n      tag_83\n        /* \"#utility.yul\":635:640   */\n      dup3\n        /* \"#utility.yul\":604:641   */\n      tag_36\n      jump\t// in\n    tag_83:\n        /* \"#utility.yul\":591:641   */\n      swap1\n      pop\n        /* \"#utility.yul\":485:647   */\n      swap2\n      swap1\n      pop\n      jump\t// out\n        /* \"#utility.yul\":653:856   */\n    tag_38:\n        /* \"#utility.yul\":776:849   */\n      tag_85\n        /* \"#utility.yul\":843:848   */\n      dup2\n        /* \"#utility.yul\":776:849   */\n      tag_37\n      jump\t// in\n    tag_85:\n        /* \"#utility.yul\":771:774   */\n      dup3\n        /* \"#utility.yul\":764:850   */\n      mstore\n        /* \"#utility.yul\":653:856   */\n      pop\n      pop\n      jump\t// out\n        /* \"#utility.yul\":862:1156   */\n    tag_11:\n        /* \"#utility.yul\":991:995   */\n      0x00\n        /* \"#utility.yul\":1029:1031   */\n      0x20\n        /* \"#utility.yul\":1018:1027   */\n      dup3\n        /* \"#utility.yul\":1014:1032   */\n      add\n        /* \"#utility.yul\":1006:1032   */\n      swap1\n      pop\n        /* \"#utility.yul\":1042:1149   */\n      tag_87\n        /* \"#utility.yul\":1146:1147   */\n      0x00\n        /* \"#utility.yul\":1135:1144   */\n      dup4\n        /* \"#utility.yul\":1131:1148   */\n      add\n        /* \"#utility.yul\":1122:1128   */\n      dup5\n        /* \"#utility.yul\":1042:1149   */\n      tag_38\n      jump\t// in\n    tag_87:\n        /* \"#utility.yul\":862:1156   */\n      swap3\n      swap2\n      pop\n      pop\n      jump\t// out\n        /* \"#utility.yul\":1162:1313   */\n    tag_39:\n        /* \"#utility.yul\":1237:1246   */\n      0x00\n        /* \"#utility.yul\":1270:1307   */\n      tag_89\n        /* \"#utility.yul\":1301:1306   */\n      dup3\n        /* \"#utility.yul\":1270:1307   */\n      tag_36\n      jump\t// in\n    tag_89:\n        /* \"#utility.yul\":1257:1307   */\n      swap1\n      pop\n        /* \"#utility.yul\":1162:1313   */\n      swap2\n      swap1\n      pop\n      jump\t// out\n        /* \"#utility.yul\":1319:1500   */\n    tag_40:\n        /* \"#utility.yul\":1431:1493   */\n      tag_91\n        /* \"#utility.yul\":1487:1492   */\n      dup2\n        /* \"#utility.yul\":1431:1493   */\n      tag_39\n      jump\t// in\n    tag_91:\n        /* \"#utility.yul\":1426:1429   */\n      dup3\n        /* \"#utility.yul\":1419:1494   */\n      mstore\n        /* \"#utility.yul\":1319:1500   */\n      pop\n      pop\n      jump\t// out\n        /* \"#utility.yul\":1506:1778   */\n    tag_15:\n        /* \"#utility.yul\":1624:1628   */\n      0x00\n        /* \"#utility.yul\":1662:1664   */\n      0x20\n        /* \"#utility.yul\":1651:1660   */\n      dup3\n        /* \"#utility.yul\":1647:1665   */\n      add\n        /* \"#utility.yul\":1639:1665   */\n      swap1\n      pop\n        /* \"#utility.yul\":1675:1771   */\n      tag_93\n        /* \"#utility.yul\":1768:1769   */\n      0x00\n        /* \"#utility.yul\":1757:1766   */\n      dup4\n        /* \"#utility.yul\":1753:1770   */\n      add\n        /* \"#utility.yul\":1744:1750   */\n      dup5\n        /* \"#utility.yul\":1675:1771   */\n      tag_40\n      jump\t// in\n    tag_93:\n        /* \"#utility.yul\":1506:1778   */\n      swap3\n      swap2\n      pop\n      pop\n      jump\t// out\n        /* \"#utility.yul\":1784:1880   */\n    tag_41:\n        /* \"#utility.yul\":1821:1828   */\n      0x00\n        /* \"#utility.yul\":1850:1874   */\n      tag_95\n        /* \"#utility.yul\":1868:1873   */\n      dup3\n        /* \"#utility.yul\":1850:1874   */\n      tag_33\n      jump\t// in\n    tag_95:\n        /* \"#utility.yul\":1839:1874   */\n      swap1\n      pop\n        /* \"#utility.yul\":1784:1880   */\n      swap2\n      swap1\n      pop\n      jump\t// out\n        /* \"#utility.yul\":1886:2004   */\n    tag_42:\n        /* \"#utility.yul\":1973:1997   */\n      tag_97\n        /* \"#utility.yul\":1991:1996   */\n      dup2\n        /* \"#utility.yul\":1973:1997   */\n      tag_41\n      jump\t// in\n    tag_97:\n        /* \"#utility.yul\":1968:1971   */\n      dup3\n        /* \"#utility.yul\":1961:1998   */\n      mstore\n        /* \"#utility.yul\":1886:2004   */\n      pop\n      pop\n      jump\t// out\n        /* \"#utility.yul\":2010:2119   */\n    tag_43:\n        /* \"#utility.yul\":2046:2053   */\n      0x00\n        /* \"#utility.yul\":2086:2112   */\n      0xffffffffffffffffffffffff\n        /* \"#utility.yul\":2079:2084   */\n      dup3\n        /* \"#utility.yul\":2075:2113   */\n      and\n        /* \"#utility.yul\":2064:2113   */\n      swap1\n      pop\n        /* \"#utility.yul\":2010:2119   */\n      swap2\n      swap1\n      pop\n      jump\t// out\n        /* \"#utility.yul\":2125:2202   */\n    tag_44:\n        /* \"#utility.yul\":2162:2169   */\n      0x00\n        /* \"#utility.yul\":2191:2196   */\n      dup2\n        /* \"#utility.yul\":2180:2196   */\n      swap1\n      pop\n        /* \"#utility.yul\":2125:2202   */\n      swap2\n      swap1\n      pop\n      jump\t// out\n        /* \"#utility.yul\":2208:2348   */\n    tag_45:\n        /* \"#utility.yul\":2257:2266   */\n      0x00\n        /* \"#utility.yul\":2290:2342   */\n      tag_101\n        /* \"#utility.yul\":2308:2341   */\n      tag_102\n        /* \"#utility.yul\":2317:2340   */\n      tag_103\n        /* \"#utility.yul\":2334:2339   */\n      dup5\n        /* \"#utility.yul\":2317:2340   */\n      tag_43\n      jump\t// in\n    tag_103:\n        /* \"#utility.yul\":2308:2341   */\n      tag_34\n      jump\t// in\n    tag_102:\n        /* \"#utility.yul\":2290:2342   */\n      tag_44\n      jump\t// in\n    tag_101:\n        /* \"#utility.yul\":2277:2342   */\n      swap1\n      pop\n        /* \"#utility.yul\":2208:2348   */\n      swap2\n      swap1\n      pop\n      jump\t// out\n        /* \"#utility.yul\":2354:2483   */\n    tag_46:\n        /* \"#utility.yul\":2440:2476   */\n      tag_105\n        /* \"#utility.yul\":2470:2475   */\n      dup2\n        /* \"#utility.yul\":2440:2476   */\n      tag_45\n      jump\t// in\n    tag_105:\n        /* \"#utility.yul\":2435:2438   */\n      dup3\n        /* \"#utility.yul\":2428:2477   */\n      mstore\n        /* \"#utility.yul\":2354:2483   */\n      pop\n      pop\n      jump\t// out\n        /* \"#utility.yul\":2489:2819   */\n    tag_18:\n        /* \"#utility.yul\":2609:2613   */\n      0x00\n        /* \"#utility.yul\":2647:2649   */\n      0x40\n        /* \"#utility.yul\":2636:2645   */\n      dup3\n        /* \"#utility.yul\":2632:2650   */\n      add\n        /* \"#utility.yul\":2624:2650   */\n      swap1\n      pop\n        /* \"#utility.yul\":2660:2731   */\n      tag_107\n        /* \"#utility.yul\":2728:2729   */\n      0x00\n        /* \"#utility.yul\":2717:2726   */\n      dup4\n        /* \"#utility.yul\":2713:2730   */\n      add\n        /* \"#utility.yul\":2704:2710   */\n      dup6\n        /* \"#utility.yul\":2660:2731   */\n      tag_42\n      jump\t// in\n    tag_107:\n        /* \"#utility.yul\":2741:2812   */\n      tag_108\n        /* \"#utility.yul\":2808:2810   */\n      0x20\n        /* \"#utility.yul\":2797:2806   */\n      dup4\n        /* \"#utility.yul\":2793:2811   */\n      add\n        /* \"#utility.yul\":2784:2790   */\n      dup5\n        /* \"#utility.yul\":2741:2812   */\n      tag_46\n      jump\t// in\n    tag_108:\n        /* \"#utility.yul\":2489:2819   */\n      swap4\n      swap3\n      pop\n      pop\n      pop\n      jump\t// out\n        /* \"#utility.yul\":2906:3023   */\n    tag_48:\n        /* \"#utility.yul\":3015:3016   */\n      0x00\n        /* \"#utility.yul\":3012:3013   */\n      dup1\n        /* \"#utility.yul\":3005:3017   */\n      revert\n        /* \"#utility.yul\":3152:3242   */\n    tag_50:\n        /* \"#utility.yul\":3186:3193   */\n      0x00\n        /* \"#utility.yul\":3229:3234   */\n      dup2\n        /* \"#utility.yul\":3222:3235   */\n      iszero\n        /* \"#utility.yul\":3215:3236   */\n      iszero\n        /* \"#utility.yul\":3204:3236   */\n      swap1\n      pop\n        /* \"#utility.yul\":3152:3242   */\n      swap2\n      swap1\n      pop\n      jump\t// out\n        /* \"#utility.yul\":3248:3364   */\n    tag_51:\n        /* \"#utility.yul\":3318:3339   */\n      tag_114\n        /* \"#utility.yul\":3333:3338   */\n      dup2\n        /* \"#utility.yul\":3318:3339   */\n      tag_50\n      jump\t// in\n    tag_114:\n        /* \"#utility.yul\":3311:3316   */\n      dup2\n        /* \"#utility.yul\":3308:3340   */\n      eq\n        /* \"#utility.yul\":3298:3358   */\n      tag_115\n      jumpi\n        /* \"#utility.yul\":3354:3355   */\n      0x00\n        /* \"#utility.yul\":3351:3352   */\n      dup1\n        /* \"#utility.yul\":3344:3356   */\n      revert\n        /* \"#utility.yul\":3298:3358   */\n    tag_115:\n        /* \"#utility.yul\":3248:3364   */\n      pop\n      jump\t// out\n        /* \"#utility.yul\":3370:3507   */\n    tag_52:\n        /* \"#utility.yul\":3424:3429   */\n      0x00\n        /* \"#utility.yul\":3455:3461   */\n      dup2\n        /* \"#utility.yul\":3449:3462   */\n      mload\n        /* \"#utility.yul\":3440:3462   */\n      swap1\n      pop\n        /* \"#utility.yul\":3471:3501   */\n      tag_117\n        /* \"#utility.yul\":3495:3500   */\n      dup2\n        /* \"#utility.yul\":3471:3501   */\n      tag_51\n      jump\t// in\n    tag_117:\n        /* \"#utility.yul\":3370:3507   */\n      swap3\n      swap2\n      pop\n      pop\n      jump\t// out\n        /* \"#utility.yul\":3513:3858   */\n    tag_22:\n        /* \"#utility.yul\":3580:3586   */\n      0x00\n        /* \"#utility.yul\":3629:3631   */\n      0x20\n        /* \"#utility.yul\":3617:3626   */\n      dup3\n        /* \"#utility.yul\":3608:3615   */\n      dup5\n        /* \"#utility.yul\":3604:3627   */\n      sub\n        /* \"#utility.yul\":3600:3632   */\n      slt\n        /* \"#utility.yul\":3597:3716   */\n      iszero\n      tag_119\n      jumpi\n        /* \"#utility.yul\":3635:3714   */\n      tag_120\n      tag_48\n      jump\t// in\n    tag_120:\n        /* \"#utility.yul\":3597:3716   */\n    tag_119:\n        /* \"#utility.yul\":3755:3756   */\n      0x00\n        /* \"#utility.yul\":3780:3841   */\n      tag_121\n        /* \"#utility.yul\":3833:3840   */\n      dup5\n        /* \"#utility.yul\":3824:3830   */\n      dup3\n        /* \"#utility.yul\":3813:3822   */\n      dup6\n        /* \"#utility.yul\":3809:3831   */\n      add\n        /* \"#utility.yul\":3780:3841   */\n      tag_52\n      jump\t// in\n    tag_121:\n        /* \"#utility.yul\":3770:3841   */\n      swap2\n      pop\n        /* \"#utility.yul\":3726:3851   */\n      pop\n        /* \"#utility.yul\":3513:3858   */\n      swap3\n      swap2\n      pop\n      pop\n      jump\t// out\n        /* \"#utility.yul\":3864:3963   */\n    tag_53:\n        /* \"#utility.yul\":3916:3922   */\n      0x00\n        /* \"#utility.yul\":3950:3955   */\n      dup2\n        /* \"#utility.yul\":3944:3956   */\n      mload\n        /* \"#utility.yul\":3934:3956   */\n      swap1\n      pop\n        /* \"#utility.yul\":3864:3963   */\n      swap2\n      swap1\n      pop\n      jump\t// out\n        /* \"#utility.yul\":3969:4128   */\n    tag_54:\n        /* \"#utility.yul\":4043:4054   */\n      0x00\n        /* \"#utility.yul\":4077:4083   */\n      dup3\n        /* \"#utility.yul\":4072:4075   */\n      dup3\n        /* \"#utility.yul\":4065:4084   */\n      mstore\n        /* \"#utility.yul\":4117:4121   */\n      0x20\n        /* \"#utility.yul\":4112:4115   */\n      dup3\n        /* \"#utility.yul\":4108:4122   */\n      add\n        /* \"#utility.yul\":4093:4122   */\n      swap1\n      pop\n        /* \"#utility.yul\":3969:4128   */\n      swap3\n      swap2\n      pop\n      pop\n      jump\t// out\n        /* \"#utility.yul\":4134:4380   */\n    tag_55:\n        /* \"#utility.yul\":4215:4216   */\n      0x00\n        /* \"#utility.yul\":4225:4338   */\n    tag_125:\n        /* \"#utility.yul\":4239:4245   */\n      dup4\n        /* \"#utility.yul\":4236:4237   */\n      dup2\n        /* \"#utility.yul\":4233:4246   */\n      lt\n        /* \"#utility.yul\":4225:4338   */\n      iszero\n      tag_127\n      jumpi\n        /* \"#utility.yul\":4324:4325   */\n      dup1\n        /* \"#utility.yul\":4319:4322   */\n      dup3\n        /* \"#utility.yul\":4315:4326   */\n      add\n        /* \"#utility.yul\":4309:4327   */\n      mload\n        /* \"#utility.yul\":4305:4306   */\n      dup2\n        /* \"#utility.yul\":4300:4303   */\n      dup5\n        /* \"#utility.yul\":4296:4307   */\n      add\n        /* \"#utility.yul\":4289:4328   */\n      mstore\n        /* \"#utility.yul\":4261:4263   */\n      0x20\n        /* \"#utility.yul\":4258:4259   */\n      dup2\n        /* \"#utility.yul\":4254:4264   */\n      add\n        /* \"#utility.yul\":4249:4264   */\n      swap1\n      pop\n        /* \"#utility.yul\":4225:4338   */\n      jump(tag_125)\n    tag_127:\n        /* \"#utility.yul\":4372:4373   */\n      0x00\n        /* \"#utility.yul\":4363:4369   */\n      dup5\n        /* \"#utility.yul\":4358:4361   */\n      dup5\n        /* \"#utility.yul\":4354:4370   */\n      add\n        /* \"#utility.yul\":4347:4374   */\n      mstore\n        /* \"#utility.yul\":4196:4380   */\n      pop\n        /* \"#utility.yul\":4134:4380   */\n      pop\n      pop\n      pop\n      jump\t// out\n        /* \"#utility.yul\":4386:4488   */\n    tag_56:\n        /* \"#utility.yul\":4427:4433   */\n      0x00\n        /* \"#utility.yul\":4478:4480   */\n      0x1f\n        /* \"#utility.yul\":4474:4481   */\n      not\n        /* \"#utility.yul\":4469:4471   */\n      0x1f\n        /* \"#utility.yul\":4462:4467   */\n      dup4\n        /* \"#utility.yul\":4458:4472   */\n      add\n        /* \"#utility.yul\":4454:4482   */\n      and\n        /* \"#utility.yul\":4444:4482   */\n      swap1\n      pop\n        /* \"#utility.yul\":4386:4488   */\n      swap2\n      swap1\n      pop\n      jump\t// out\n        /* \"#utility.yul\":4494:4851   */\n    tag_57:\n        /* \"#utility.yul\":4572:4575   */\n      0x00\n        /* \"#utility.yul\":4600:4639   */\n      tag_130\n        /* \"#utility.yul\":4633:4638   */\n      dup3\n        /* \"#utility.yul\":4600:4639   */\n      tag_53\n      jump\t// in\n    tag_130:\n        /* \"#utility.yul\":4655:4716   */\n      tag_131\n        /* \"#utility.yul\":4709:4715   */\n      dup2\n        /* \"#utility.yul\":4704:4707   */\n      dup6\n        /* \"#utility.yul\":4655:4716   */\n      tag_54\n      jump\t// in\n    tag_131:\n        /* \"#utility.yul\":4648:4716   */\n      swap4\n      pop\n        /* \"#utility.yul\":4725:4790   */\n      tag_132\n        /* \"#utility.yul\":4783:4789   */\n      dup2\n        /* \"#utility.yul\":4778:4781   */\n      dup6\n        /* \"#utility.yul\":4771:4775   */\n      0x20\n        /* \"#utility.yul\":4764:4769   */\n      dup7\n        /* \"#utility.yul\":4760:4776   */\n      add\n        /* \"#utility.yul\":4725:4790   */\n      tag_55\n      jump\t// in\n    tag_132:\n        /* \"#utility.yul\":4815:4844   */\n      tag_133\n        /* \"#utility.yul\":4837:4843   */\n      dup2\n        /* \"#utility.yul\":4815:4844   */\n      tag_56\n      jump\t// in\n    tag_133:\n        /* \"#utility.yul\":4810:4813   */\n      dup5\n        /* \"#utility.yul\":4806:4845   */\n      add\n        /* \"#utility.yul\":4799:4845   */\n      swap2\n      pop\n        /* \"#utility.yul\":4576:4851   */\n      pop\n        /* \"#utility.yul\":4494:4851   */\n      swap3\n      swap2\n      pop\n      pop\n      jump\t// out\n        /* \"#utility.yul\":4857:4955   */\n    tag_58:\n        /* \"#utility.yul\":4908:4914   */\n      0x00\n        /* \"#utility.yul\":4942:4947   */\n      dup2\n        /* \"#utility.yul\":4936:4948   */\n      mload\n        /* \"#utility.yul\":4926:4948   */\n      swap1\n      pop\n        /* \"#utility.yul\":4857:4955   */\n      swap2\n      swap1\n      pop\n      jump\t// out\n        /* \"#utility.yul\":4961:5119   */\n    tag_59:\n        /* \"#utility.yul\":5034:5045   */\n      0x00\n        /* \"#utility.yul\":5068:5074   */\n      dup3\n        /* \"#utility.yul\":5063:5066   */\n      dup3\n        /* \"#utility.yul\":5056:5075   */\n      mstore\n        /* \"#utility.yul\":5108:5112   */\n      0x20\n        /* \"#utility.yul\":5103:5106   */\n      dup3\n        /* \"#utility.yul\":5099:5113   */\n      add\n        /* \"#utility.yul\":5084:5113   */\n      swap1\n      pop\n        /* \"#utility.yul\":4961:5119   */\n      swap3\n      swap2\n      pop\n      pop\n      jump\t// out\n        /* \"#utility.yul\":5125:5478   */\n    tag_60:\n        /* \"#utility.yul\":5201:5204   */\n      0x00\n        /* \"#utility.yul\":5229:5267   */\n      tag_137\n        /* \"#utility.yul\":5261:5266   */\n      dup3\n        /* \"#utility.yul\":5229:5267   */\n      tag_58\n      jump\t// in\n    tag_137:\n        /* \"#utility.yul\":5283:5343   */\n      tag_138\n        /* \"#utility.yul\":5336:5342   */\n      dup2\n        /* \"#utility.yul\":5331:5334   */\n      dup6\n        /* \"#utility.yul\":5283:5343   */\n      tag_59\n      jump\t// in\n    tag_138:\n        /* \"#utility.yul\":5276:5343   */\n      swap4\n      pop\n        /* \"#utility.yul\":5352:5417   */\n      tag_139\n        /* \"#utility.yul\":5410:5416   */\n      dup2\n        /* \"#utility.yul\":5405:5408   */\n      dup6\n        /* \"#utility.yul\":5398:5402   */\n      0x20\n        /* \"#utility.yul\":5391:5396   */\n      dup7\n        /* \"#utility.yul\":5387:5403   */\n      add\n        /* \"#utility.yul\":5352:5417   */\n      tag_55\n      jump\t// in\n    tag_139:\n        /* \"#utility.yul\":5442:5471   */\n      tag_140\n        /* \"#utility.yul\":5464:5470   */\n      dup2\n        /* \"#utility.yul\":5442:5471   */\n      tag_56\n      jump\t// in\n    tag_140:\n        /* \"#utility.yul\":5437:5440   */\n      dup5\n        /* \"#utility.yul\":5433:5472   */\n      add\n        /* \"#utility.yul\":5426:5472   */\n      swap2\n      pop\n        /* \"#utility.yul\":5205:5478   */\n      pop\n        /* \"#utility.yul\":5125:5478   */\n      swap3\n      swap2\n      pop\n      pop\n      jump\t// out\n        /* \"#utility.yul\":5484:5592   */\n    tag_61:\n        /* \"#utility.yul\":5561:5585   */\n      tag_142\n        /* \"#utility.yul\":5579:5584   */\n      dup2\n        /* \"#utility.yul\":5561:5585   */\n      tag_41\n      jump\t// in\n    tag_142:\n        /* \"#utility.yul\":5556:5559   */\n      dup3\n        /* \"#utility.yul\":5549:5586   */\n      mstore\n        /* \"#utility.yul\":5484:5592   */\n      pop\n      pop\n      jump\t// out\n        /* \"#utility.yul\":5598:5691   */\n    tag_62:\n        /* \"#utility.yul\":5634:5641   */\n      0x00\n        /* \"#utility.yul\":5674:5684   */\n      0xffffffff\n        /* \"#utility.yul\":5667:5672   */\n      dup3\n        /* \"#utility.yul\":5663:5685   */\n      and\n        /* \"#utility.yul\":5652:5685   */\n      swap1\n      pop\n        /* \"#utility.yul\":5598:5691   */\n      swap2\n      swap1\n      pop\n      jump\t// out\n        /* \"#utility.yul\":5697:5802   */\n    tag_63:\n        /* \"#utility.yul\":5772:5795   */\n      tag_145\n        /* \"#utility.yul\":5789:5794   */\n      dup2\n        /* \"#utility.yul\":5772:5795   */\n      tag_62\n      jump\t// in\n    tag_145:\n        /* \"#utility.yul\":5767:5770   */\n      dup3\n        /* \"#utility.yul\":5760:5796   */\n      mstore\n        /* \"#utility.yul\":5697:5802   */\n      pop\n      pop\n      jump\t// out\n        /* \"#utility.yul\":5808:5894   */\n    tag_64:\n        /* \"#utility.yul\":5843:5850   */\n      0x00\n        /* \"#utility.yul\":5883:5887   */\n      0xff\n        /* \"#utility.yul\":5876:5881   */\n      dup3\n        /* \"#utility.yul\":5872:5888   */\n      and\n        /* \"#utility.yul\":5861:5888   */\n      swap1\n      pop\n        /* \"#utility.yul\":5808:5894   */\n      swap2\n      swap1\n      pop\n      jump\t// out\n        /* \"#utility.yul\":5900:6002   */\n    tag_65:\n        /* \"#utility.yul\":5973:5995   */\n      tag_148\n        /* \"#utility.yul\":5989:5994   */\n      dup2\n        /* \"#utility.yul\":5973:5995   */\n      tag_64\n      jump\t// in\n    tag_148:\n        /* \"#utility.yul\":5968:5971   */\n      dup3\n        /* \"#utility.yul\":5961:5996   */\n      mstore\n        /* \"#utility.yul\":5900:6002   */\n      pop\n      pop\n      jump\t// out\n        /* \"#utility.yul\":6008:6113   */\n    tag_66:\n        /* \"#utility.yul\":6083:6106   */\n      tag_150\n        /* \"#utility.yul\":6100:6105   */\n      dup2\n        /* \"#utility.yul\":6083:6106   */\n      tag_43\n      jump\t// in\n    tag_150:\n        /* \"#utility.yul\":6078:6081   */\n      dup3\n        /* \"#utility.yul\":6071:6107   */\n      mstore\n        /* \"#utility.yul\":6008:6113   */\n      pop\n      pop\n      jump\t// out\n        /* \"#utility.yul\":6181:8542   */\n    tag_67:\n        /* \"#utility.yul\":6320:6323   */\n      0x00\n        /* \"#utility.yul\":6356:6362   */\n      0x0140\n        /* \"#utility.yul\":6351:6354   */\n      dup4\n        /* \"#utility.yul\":6347:6363   */\n      add\n        /* \"#utility.yul\":6445:6449   */\n      0x00\n        /* \"#utility.yul\":6438:6443   */\n      dup4\n        /* \"#utility.yul\":6434:6450   */\n      add\n        /* \"#utility.yul\":6428:6451   */\n      mload\n        /* \"#utility.yul\":6498:6501   */\n      dup5\n        /* \"#utility.yul\":6492:6496   */\n      dup3\n        /* \"#utility.yul\":6488:6502   */\n      sub\n        /* \"#utility.yul\":6481:6485   */\n      0x00\n        /* \"#utility.yul\":6476:6479   */\n      dup7\n        /* \"#utility.yul\":6472:6486   */\n      add\n        /* \"#utility.yul\":6465:6503   */\n      mstore\n        /* \"#utility.yul\":6524:6597   */\n      tag_152\n        /* \"#utility.yul\":6592:6596   */\n      dup3\n        /* \"#utility.yul\":6578:6590   */\n      dup3\n        /* \"#utility.yul\":6524:6597   */\n      tag_57\n      jump\t// in\n    tag_152:\n        /* \"#utility.yul\":6516:6597   */\n      swap2\n      pop\n        /* \"#utility.yul\":6373:6608   */\n      pop\n        /* \"#utility.yul\":6700:6704   */\n      0x20\n        /* \"#utility.yul\":6693:6698   */\n      dup4\n        /* \"#utility.yul\":6689:6705   */\n      add\n        /* \"#utility.yul\":6683:6706   */\n      mload\n        /* \"#utility.yul\":6753:6756   */\n      dup5\n        /* \"#utility.yul\":6747:6751   */\n      dup3\n        /* \"#utility.yul\":6743:6757   */\n      sub\n        /* \"#utility.yul\":6736:6740   */\n      0x20\n        /* \"#utility.yul\":6731:6734   */\n      dup7\n        /* \"#utility.yul\":6727:6741   */\n      add\n        /* \"#utility.yul\":6720:6758   */\n      mstore\n        /* \"#utility.yul\":6779:6850   */\n      tag_153\n        /* \"#utility.yul\":6845:6849   */\n      dup3\n        /* \"#utility.yul\":6831:6843   */\n      dup3\n        /* \"#utility.yul\":6779:6850   */\n      tag_60\n      jump\t// in\n    tag_153:\n        /* \"#utility.yul\":6771:6850   */\n      swap2\n      pop\n        /* \"#utility.yul\":6618:6861   */\n      pop\n        /* \"#utility.yul\":6953:6957   */\n      0x40\n        /* \"#utility.yul\":6946:6951   */\n      dup4\n        /* \"#utility.yul\":6942:6958   */\n      add\n        /* \"#utility.yul\":6936:6959   */\n      mload\n        /* \"#utility.yul\":6972:7035   */\n      tag_154\n        /* \"#utility.yul\":7029:7033   */\n      0x40\n        /* \"#utility.yul\":7024:7027   */\n      dup7\n        /* \"#utility.yul\":7020:7034   */\n      add\n        /* \"#utility.yul\":7006:7018   */\n      dup3\n        /* \"#utility.yul\":6972:7035   */\n      tag_61\n      jump\t// in\n    tag_154:\n        /* \"#utility.yul\":6871:7045   */\n      pop\n        /* \"#utility.yul\":7131:7135   */\n      0x60\n        /* \"#utility.yul\":7124:7129   */\n      dup4\n        /* \"#utility.yul\":7120:7136   */\n      add\n        /* \"#utility.yul\":7114:7137   */\n      mload\n        /* \"#utility.yul\":7150:7211   */\n      tag_155\n        /* \"#utility.yul\":7205:7209   */\n      0x60\n        /* \"#utility.yul\":7200:7203   */\n      dup7\n        /* \"#utility.yul\":7196:7210   */\n      add\n        /* \"#utility.yul\":7182:7194   */\n      dup3\n        /* \"#utility.yul\":7150:7211   */\n      tag_63\n      jump\t// in\n    tag_155:\n        /* \"#utility.yul\":7055:7221   */\n      pop\n        /* \"#utility.yul\":7311:7315   */\n      0x80\n        /* \"#utility.yul\":7304:7309   */\n      dup4\n        /* \"#utility.yul\":7300:7316   */\n      add\n        /* \"#utility.yul\":7294:7317   */\n      mload\n        /* \"#utility.yul\":7330:7393   */\n      tag_156\n        /* \"#utility.yul\":7387:7391   */\n      0x80\n        /* \"#utility.yul\":7382:7385   */\n      dup7\n        /* \"#utility.yul\":7378:7392   */\n      add\n        /* \"#utility.yul\":7364:7376   */\n      dup3\n        /* \"#utility.yul\":7330:7393   */\n      tag_61\n      jump\t// in\n    tag_156:\n        /* \"#utility.yul\":7231:7403   */\n      pop\n        /* \"#utility.yul\":7492:7496   */\n      0xa0\n        /* \"#utility.yul\":7485:7490   */\n      dup4\n        /* \"#utility.yul\":7481:7497   */\n      add\n        /* \"#utility.yul\":7475:7498   */\n      mload\n        /* \"#utility.yul\":7511:7570   */\n      tag_157\n        /* \"#utility.yul\":7564:7568   */\n      0xa0\n        /* \"#utility.yul\":7559:7562   */\n      dup7\n        /* \"#utility.yul\":7555:7569   */\n      add\n        /* \"#utility.yul\":7541:7553   */\n      dup3\n        /* \"#utility.yul\":7511:7570   */\n      tag_65\n      jump\t// in\n    tag_157:\n        /* \"#utility.yul\":7413:7580   */\n      pop\n        /* \"#utility.yul\":7667:7671   */\n      0xc0\n        /* \"#utility.yul\":7660:7665   */\n      dup4\n        /* \"#utility.yul\":7656:7672   */\n      add\n        /* \"#utility.yul\":7650:7673   */\n      mload\n        /* \"#utility.yul\":7720:7723   */\n      dup5\n        /* \"#utility.yul\":7714:7718   */\n      dup3\n        /* \"#utility.yul\":7710:7724   */\n      sub\n        /* \"#utility.yul\":7703:7707   */\n      0xc0\n        /* \"#utility.yul\":7698:7701   */\n      dup7\n        /* \"#utility.yul\":7694:7708   */\n      add\n        /* \"#utility.yul\":7687:7725   */\n      mstore\n        /* \"#utility.yul\":7746:7817   */\n      tag_158\n        /* \"#utility.yul\":7812:7816   */\n      dup3\n        /* \"#utility.yul\":7798:7810   */\n      dup3\n        /* \"#utility.yul\":7746:7817   */\n      tag_60\n      jump\t// in\n    tag_158:\n        /* \"#utility.yul\":7738:7817   */\n      swap2\n      pop\n        /* \"#utility.yul\":7590:7828   */\n      pop\n        /* \"#utility.yul\":7919:7923   */\n      0xe0\n        /* \"#utility.yul\":7912:7917   */\n      dup4\n        /* \"#utility.yul\":7908:7924   */\n      add\n        /* \"#utility.yul\":7902:7925   */\n      mload\n        /* \"#utility.yul\":7972:7975   */\n      dup5\n        /* \"#utility.yul\":7966:7970   */\n      dup3\n        /* \"#utility.yul\":7962:7976   */\n      sub\n        /* \"#utility.yul\":7955:7959   */\n      0xe0\n        /* \"#utility.yul\":7950:7953   */\n      dup7\n        /* \"#utility.yul\":7946:7960   */\n      add\n        /* \"#utility.yul\":7939:7977   */\n      mstore\n        /* \"#utility.yul\":7998:8069   */\n      tag_159\n        /* \"#utility.yul\":8064:8068   */\n      dup3\n        /* \"#utility.yul\":8050:8062   */\n      dup3\n        /* \"#utility.yul\":7998:8069   */\n      tag_60\n      jump\t// in\n    tag_159:\n        /* \"#utility.yul\":7990:8069   */\n      swap2\n      pop\n        /* \"#utility.yul\":7838:8080   */\n      pop\n        /* \"#utility.yul\":8172:8178   */\n      0x0100\n        /* \"#utility.yul\":8165:8170   */\n      dup4\n        /* \"#utility.yul\":8161:8179   */\n      add\n        /* \"#utility.yul\":8155:8180   */\n      mload\n        /* \"#utility.yul\":8229:8232   */\n      dup5\n        /* \"#utility.yul\":8223:8227   */\n      dup3\n        /* \"#utility.yul\":8219:8233   */\n      sub\n        /* \"#utility.yul\":8210:8216   */\n      0x0100\n        /* \"#utility.yul\":8205:8208   */\n      dup7\n        /* \"#utility.yul\":8201:8217   */\n      add\n        /* \"#utility.yul\":8194:8234   */\n      mstore\n        /* \"#utility.yul\":8255:8326   */\n      tag_160\n        /* \"#utility.yul\":8321:8325   */\n      dup3\n        /* \"#utility.yul\":8307:8319   */\n      dup3\n        /* \"#utility.yul\":8255:8326   */\n      tag_60\n      jump\t// in\n    tag_160:\n        /* \"#utility.yul\":8247:8326   */\n      swap2\n      pop\n        /* \"#utility.yul\":8090:8337   */\n      pop\n        /* \"#utility.yul\":8421:8427   */\n      0x0120\n        /* \"#utility.yul\":8414:8419   */\n      dup4\n        /* \"#utility.yul\":8410:8428   */\n      add\n        /* \"#utility.yul\":8404:8429   */\n      mload\n        /* \"#utility.yul\":8442:8505   */\n      tag_161\n        /* \"#utility.yul\":8497:8503   */\n      0x0120\n        /* \"#utility.yul\":8492:8495   */\n      dup7\n        /* \"#utility.yul\":8488:8504   */\n      add\n        /* \"#utility.yul\":8474:8486   */\n      dup3\n        /* \"#utility.yul\":8442:8505   */\n      tag_66\n      jump\t// in\n    tag_161:\n        /* \"#utility.yul\":8347:8515   */\n      pop\n        /* \"#utility.yul\":8532:8536   */\n      dup1\n        /* \"#utility.yul\":8525:8536   */\n      swap2\n      pop\n        /* \"#utility.yul\":6325:8542   */\n      pop\n        /* \"#utility.yul\":6181:8542   */\n      swap3\n      swap2\n      pop\n      pop\n      jump\t// out\n        /* \"#utility.yul\":8548:8961   */\n    tag_24:\n        /* \"#utility.yul\":8711:8715   */\n      0x00\n        /* \"#utility.yul\":8749:8751   */\n      0x20\n        /* \"#utility.yul\":8738:8747   */\n      dup3\n        /* \"#utility.yul\":8734:8752   */\n      add\n        /* \"#utility.yul\":8726:8752   */\n      swap1\n      pop\n        /* \"#utility.yul\":8798:8807   */\n      dup2\n        /* \"#utility.yul\":8792:8796   */\n      dup2\n        /* \"#utility.yul\":8788:8808   */\n      sub\n        /* \"#utility.yul\":8784:8785   */\n      0x00\n        /* \"#utility.yul\":8773:8782   */\n      dup4\n        /* \"#utility.yul\":8769:8786   */\n      add\n        /* \"#utility.yul\":8762:8809   */\n      mstore\n        /* \"#utility.yul\":8826:8954   */\n      tag_163\n        /* \"#utility.yul\":8949:8953   */\n      dup2\n        /* \"#utility.yul\":8940:8946   */\n      dup5\n        /* \"#utility.yul\":8826:8954   */\n      tag_67\n      jump\t// in\n    tag_163:\n        /* \"#utility.yul\":8818:8954   */\n      swap1\n      pop\n        /* \"#utility.yul\":8548:8961   */\n      swap3\n      swap2\n      pop\n      pop\n      jump\t// out\n        /* \"#utility.yul\":8967:9089   */\n    tag_68:\n        /* \"#utility.yul\":9040:9064   */\n      tag_165\n        /* \"#utility.yul\":9058:9063   */\n      dup2\n        /* \"#utility.yul\":9040:9064   */\n      tag_44\n      jump\t// in\n    tag_165:\n        /* \"#utility.yul\":9033:9038   */\n      dup2\n        /* \"#utility.yul\":9030:9065   */\n      eq\n        /* \"#utility.yul\":9020:9083   */\n      tag_166\n      jumpi\n        /* \"#utility.yul\":9079:9080   */\n      0x00\n        /* \"#utility.yul\":9076:9077   */\n      dup1\n        /* \"#utility.yul\":9069:9081   */\n      revert\n        /* \"#utility.yul\":9020:9083   */\n    tag_166:\n        /* \"#utility.yul\":8967:9089   */\n      pop\n      jump\t// out\n        /* \"#utility.yul\":9095:9238   */\n    tag_69:\n        /* \"#utility.yul\":9152:9157   */\n      0x00\n        /* \"#utility.yul\":9183:9189   */\n      dup2\n        /* \"#utility.yul\":9177:9190   */\n      mload\n        /* \"#utility.yul\":9168:9190   */\n      swap1\n      pop\n        /* \"#utility.yul\":9199:9232   */\n      tag_168\n        /* \"#utility.yul\":9226:9231   */\n      dup2\n        /* \"#utility.yul\":9199:9232   */\n      tag_68\n      jump\t// in\n    tag_168:\n        /* \"#utility.yul\":9095:9238   */\n      swap3\n      swap2\n      pop\n      pop\n      jump\t// out\n        /* \"#utility.yul\":9244:9595   */\n    tag_28:\n        /* \"#utility.yul\":9314:9320   */\n      0x00\n        /* \"#utility.yul\":9363:9365   */\n      0x20\n        /* \"#utility.yul\":9351:9360   */\n      dup3\n        /* \"#utility.yul\":9342:9349   */\n      dup5\n        /* \"#utility.yul\":9338:9361   */\n      sub\n        /* \"#utility.yul\":9334:9366   */\n      slt\n        /* \"#utility.yul\":9331:9450   */\n      iszero\n      tag_170\n      jumpi\n        /* \"#utility.yul\":9369:9448   */\n      tag_171\n      tag_48\n      jump\t// in\n    tag_171:\n        /* \"#utility.yul\":9331:9450   */\n    tag_170:\n        /* \"#utility.yul\":9489:9490   */\n      0x00\n        /* \"#utility.yul\":9514:9578   */\n      tag_172\n        /* \"#utility.yul\":9570:9577   */\n      dup5\n        /* \"#utility.yul\":9561:9567   */\n      dup3\n        /* \"#utility.yul\":9550:9559   */\n      dup6\n        /* \"#utility.yul\":9546:9568   */\n      add\n        /* \"#utility.yul\":9514:9578   */\n      tag_69\n      jump\t// in\n    tag_172:\n        /* \"#utility.yul\":9504:9578   */\n      swap2\n      pop\n        /* \"#utility.yul\":9460:9588   */\n      pop\n        /* \"#utility.yul\":9244:9595   */\n      swap3\n      swap2\n      pop\n      pop\n      jump\t// out\n        /* \"#utility.yul\":9601:9770   */\n    tag_70:\n        /* \"#utility.yul\":9685:9696   */\n      0x00\n        /* \"#utility.yul\":9719:9725   */\n      dup3\n        /* \"#utility.yul\":9714:9717   */\n      dup3\n        /* \"#utility.yul\":9707:9726   */\n      mstore\n        /* \"#utility.yul\":9759:9763   */\n      0x20\n        /* \"#utility.yul\":9754:9757   */\n      dup3\n        /* \"#utility.yul\":9750:9764   */\n      add\n        /* \"#utility.yul\":9735:9764   */\n      swap1\n      pop\n        /* \"#utility.yul\":9601:9770   */\n      swap3\n      swap2\n      pop\n      pop\n      jump\t// out\n        /* \"#utility.yul\":9776:9947   */\n    tag_71:\n        /* \"#utility.yul\":9916:9939   */\n      0x6175746f2d617070726f76652064697361626c65640000000000000000000000\n        /* \"#utility.yul\":9912:9913   */\n      0x00\n        /* \"#utility.yul\":9904:9910   */\n      dup3\n        /* \"#utility.yul\":9900:9914   */\n      add\n        /* \"#utility.yul\":9893:9940   */\n      mstore\n        /* \"#utility.yul\":9776:9947   */\n      pop\n      jump\t// out\n        /* \"#utility.yul\":9953:10319   */\n    tag_72:\n        /* \"#utility.yul\":10095:10098   */\n      0x00\n        /* \"#utility.yul\":10116:10183   */\n      tag_176\n        /* \"#utility.yul\":10180:10182   */\n      0x15\n        /* \"#utility.yul\":10175:10178   */\n      dup4\n        /* \"#utility.yul\":10116:10183   */\n      tag_70\n      jump\t// in\n    tag_176:\n        /* \"#utility.yul\":10109:10183   */\n      swap2\n      pop\n        /* \"#utility.yul\":10192:10285   */\n      tag_177\n        /* \"#utility.yul\":10281:10284   */\n      dup3\n        /* \"#utility.yul\":10192:10285   */\n      tag_71\n      jump\t// in\n    tag_177:\n        /* \"#utility.yul\":10310:10312   */\n      0x20\n        /* \"#utility.yul\":10305:10308   */\n      dup3\n        /* \"#utility.yul\":10301:10313   */\n      add\n        /* \"#utility.yul\":10294:10313   */\n      swap1\n      pop\n        /* \"#utility.yul\":9953:10319   */\n      swap2\n      swap1\n      pop\n      jump\t// out\n        /* \"#utility.yul\":10325:10744   */\n    tag_32:\n        /* \"#utility.yul\":10491:10495   */\n      0x00\n        /* \"#utility.yul\":10529:10531   */\n      0x20\n        /* \"#utility.yul\":10518:10527   */\n      dup3\n        /* \"#utility.yul\":10514:10532   */\n      add\n        /* \"#utility.yul\":10506:10532   */\n      swap1\n      pop\n        /* \"#utility.yul\":10578:10587   */\n      dup2\n        /* \"#utility.yul\":10572:10576   */\n      dup2\n        /* \"#utility.yul\":10568:10588   */\n      sub\n        /* \"#utility.yul\":10564:10565   */\n      0x00\n        /* \"#utility.yul\":10553:10562   */\n      dup4\n        /* \"#utility.yul\":10549:10566   */\n      add\n        /* \"#utility.yul\":10542:10589   */\n      mstore\n        /* \"#utility.yul\":10606:10737   */\n      tag_179\n        /* \"#utility.yul\":10732:10736   */\n      dup2\n        /* \"#utility.yul\":10606:10737   */\n      tag_72\n      jump\t// in\n    tag_179:\n        /* \"#utility.yul\":10598:10737   */\n      swap1\n      pop\n        /* \"#utility.yul\":10325:10744   */\n      swap2\n      swap1\n      pop\n      jump\t// out\n\n    auxdata: 0xa26469706673582212209983d384258137ff63dbac480fcc7f347bea50ce05a22c1e8cadf2023fb1bd9164736f6c63430008130033\n}\n",
				"bytecode": {
					"linkReferences": {},
					"object": "60c06040523480156200001157600080fd5b5060405162000b5938038062000b5983398181016040528101906200003791906200016a565b8173ffffffffffffffffffffffffffffffffffffffff1660808173ffffffffffffffffffffffffffffffffffffffff16815250508073ffffffffffffffffffffffffffffffffffffffff1660a08173ffffffffffffffffffffffffffffffffffffffff16815250505050620001b1565b600080fd5b600073ffffffffffffffffffffffffffffffffffffffff82169050919050565b6000620000d982620000ac565b9050919050565b6000620000ed82620000cc565b9050919050565b620000ff81620000e0565b81146200010b57600080fd5b50565b6000815190506200011f81620000f4565b92915050565b60006200013282620000cc565b9050919050565b620001448162000125565b81146200015057600080fd5b50565b600081519050620001648162000139565b92915050565b60008060408385031215620001845762000183620000a7565b5b600062000194858286016200010e565b9250506020620001a78582860162000153565b9150509250929050565b60805160a05161096d620001ec600039600081816102790152818161030301526103e801526000818161023d015261040c015261096d6000f3fe608060405234801561001057600080fd5b50600436106100415760003560e01c806316deae7114610046578063442b1278146100505780637d253aff1461006e575b600080fd5b61004e61008c565b005b6100586103e6565b60405161006591906104ad565b60405180910390f35b61007661040a565b60405161008391906104e9565b60405180910390f35b60006040518061014001604052806040518060400160405280600881526020017f74657374436f646500000000000000000000000000000000000000000000000081525081526020016040518060400160405280600281526020017f307800000000000000000000000000000000000000000000000000000000000081525081526020017381d37887aaf0013a2de277406c1c9ffc1571b42173ffffffffffffffffffffffffffffffffffffffff1681526020016207a12063ffffffff1681526020013373ffffffffffffffffffffffffffffffffffffffff168152602001600160ff1681526020016040518060400160405280600281526020017f307800000000000000000000000000000000000000000000000000000000000081525081526020016040518060400160405280600281526020017f307800000000000000000000000000000000000000000000000000000000000081525081526020016040518060400160405280600281526020017f30780000000000000000000000000000000000000000000000000000000000008152508152602001600a6bffffffffffffffffffffffff1681525090507f000000000000000000000000000000000000000000000000000000000000000073ffffffffffffffffffffffffffffffffffffffff1663095ea7b37f00000000000000000000000000000000000000000000000000000000000000008361012001516040518363ffffffff1660e01b81526004016102bb929190610578565b6020604051808303816000875af11580156102da573d6000803e3d6000fd5b505050506040513d601f19601f820116820180604052508101906102fe91906105de565b5060007f000000000000000000000000000000000000000000000000000000000000000073ffffffffffffffffffffffffffffffffffffffff16633f678e11836040518263ffffffff1660e01b815260040161035a919061083f565b6020604051808303816000875af1158015610379573d6000803e3d6000fd5b505050506040513d601f19601f8201168201806040525081019061039d919061088d565b9050600081036103e2576040517f08c379a00000000000000000000000000000000000000000000000000000000081526004016103d990610917565b60405180910390fd5b5050565b7f000000000000000000000000000000000000000000000000000000000000000081565b7f000000000000000000000000000000000000000000000000000000000000000081565b600073ffffffffffffffffffffffffffffffffffffffff82169050919050565b6000819050919050565b600061047361046e6104698461042e565b61044e565b61042e565b9050919050565b600061048582610458565b9050919050565b60006104978261047a565b9050919050565b6104a78161048c565b82525050565b60006020820190506104c2600083018461049e565b92915050565b60006104d38261047a565b9050919050565b6104e3816104c8565b82525050565b60006020820190506104fe60008301846104da565b92915050565b600061050f8261042e565b9050919050565b61051f81610504565b82525050565b60006bffffffffffffffffffffffff82169050919050565b6000819050919050565b600061056261055d61055884610525565b61044e565b61053d565b9050919050565b61057281610547565b82525050565b600060408201905061058d6000830185610516565b61059a6020830184610569565b9392505050565b600080fd5b60008115159050919050565b6105bb816105a6565b81146105c657600080fd5b50565b6000815190506105d8816105b2565b92915050565b6000602082840312156105f4576105f36105a1565b5b6000610602848285016105c9565b91505092915050565b600081519050919050565b600082825260208201905092915050565b60005b8381101561064557808201518184015260208101905061062a565b60008484015250505050565b6000601f19601f8301169050919050565b600061066d8261060b565b6106778185610616565b9350610687818560208601610627565b61069081610651565b840191505092915050565b600081519050919050565b600082825260208201905092915050565b60006106c28261069b565b6106cc81856106a6565b93506106dc818560208601610627565b6106e581610651565b840191505092915050565b6106f981610504565b82525050565b600063ffffffff82169050919050565b610718816106ff565b82525050565b600060ff82169050919050565b6107348161071e565b82525050565b61074381610525565b82525050565b60006101408301600083015184820360008601526107678282610662565b9150506020830151848203602086015261078182826106b7565b915050604083015161079660408601826106f0565b5060608301516107a9606086018261070f565b5060808301516107bc60808601826106f0565b5060a08301516107cf60a086018261072b565b5060c083015184820360c08601526107e782826106b7565b91505060e083015184820360e086015261080182826106b7565b91505061010083015184820361010086015261081d82826106b7565b91505061012083015161083461012086018261073a565b508091505092915050565b600060208201905081810360008301526108598184610749565b905092915050565b61086a8161053d565b811461087557600080fd5b50565b60008151905061088781610861565b92915050565b6000602082840312156108a3576108a26105a1565b5b60006108b184828501610878565b91505092915050565b600082825260208201905092915050565b7f6175746f2d617070726f76652064697361626c65640000000000000000000000600082015250565b60006109016015836108ba565b915061090c826108cb565b602082019050919050565b60006020820190508181036000830152610930816108f4565b905091905056fea26469706673582212209983d384258137ff63dbac480fcc7f347bea50ce05a22c1e8cadf2023fb1bd9164736f6c63430008130033",
					"opcodes": "PUSH1 0xC0 PUSH1 0x40 MSTORE CALLVALUE DUP1 ISZERO PUSH3 0x11 JUMPI PUSH1 0x0 DUP1 REVERT JUMPDEST POP PUSH1 0x40 MLOAD PUSH3 0xB59 CODESIZE SUB DUP1 PUSH3 0xB59 DUP4 CODECOPY DUP2 DUP2 ADD PUSH1 0x40 MSTORE DUP2 ADD SWAP1 PUSH3 0x37 SWAP2 SWAP1 PUSH3 0x16A JUMP JUMPDEST DUP2 PUSH20 0xFFFFFFFFFFFFFFFFFFFFFFFFFFFFFFFFFFFFFFFF AND PUSH1 0x80 DUP2 PUSH20 0xFFFFFFFFFFFFFFFFFFFFFFFFFFFFFFFFFFFFFFFF AND DUP2 MSTORE POP POP DUP1 PUSH20 0xFFFFFFFFFFFFFFFFFFFFFFFFFFFFFFFFFFFFFFFF AND PUSH1 0xA0 DUP2 PUSH20 0xFFFFFFFFFFFFFFFFFFFFFFFFFFFFFFFFFFFFFFFF AND DUP2 MSTORE POP POP POP POP PUSH3 0x1B1 JUMP JUMPDEST PUSH1 0x0 DUP1 REVERT JUMPDEST PUSH1 0x0 PUSH20 0xFFFFFFFFFFFFFFFFFFFFFFFFFFFFFFFFFFFFFFFF DUP3 AND SWAP1 POP SWAP2 SWAP1 POP JUMP JUMPDEST PUSH1 0x0 PUSH3 0xD9 DUP3 PUSH3 0xAC JUMP JUMPDEST SWAP1 POP SWAP2 SWAP1 POP JUMP JUMPDEST PUSH1 0x0 PUSH3 0xED DUP3 PUSH3 0xCC JUMP JUMPDEST SWAP1 POP SWAP2 SWAP1 POP JUMP JUMPDEST PUSH3 0xFF DUP2 PUSH3 0xE0 JUMP JUMPDEST DUP2 EQ PUSH3 0x10B JUMPI PUSH1 0x0 DUP1 REVERT JUMPDEST POP JUMP JUMPDEST PUSH1 0x0 DUP2 MLOAD SWAP1 POP PUSH3 0x11F DUP2 PUSH3 0xF4 JUMP JUMPDEST SWAP3 SWAP2 POP POP JUMP JUMPDEST PUSH1 0x0 PUSH3 0x132 DUP3 PUSH3 0xCC JUMP JUMPDEST SWAP1 POP SWAP2 SWAP1 POP JUMP JUMPDEST PUSH3 0x144 DUP2 PUSH3 0x125 JUMP JUMPDEST DUP2 EQ PUSH3 0x150 JUMPI PUSH1 0x0 DUP1 REVERT JUMPDEST POP JUMP JUMPDEST PUSH1 0x0 DUP2 MLOAD SWAP1 POP PUSH3 0x164 DUP2 PUSH3 0x139 JUMP JUMPDEST SWAP3 SWAP2 POP POP JUMP JUMPDEST PUSH1 0x0 DUP1 PUSH1 0x40 DUP4 DUP6 SUB SLT ISZERO PUSH3 0x184 JUMPI PUSH3 0x183 PUSH3 0xA7 JUMP JUMPDEST JUMPDEST PUSH1 0x0 PUSH3 0x194 DUP6 DUP3 DUP7 ADD PUSH3 0x10E JUMP JUMPDEST SWAP3 POP POP PUSH1 0x20 PUSH3 0x1A7 DUP6 DUP3 DUP7 ADD PUSH3 0x153 JUMP JUMPDEST SWAP2 POP POP SWAP3 POP SWAP3 SWAP1 POP JUMP JUMPDEST PUSH1 0x80 MLOAD PUSH1 0xA0 MLOAD PUSH2 0x96D PUSH3 0x1EC PUSH1 0x0 CODECOPY PUSH1 0x0 DUP2 DUP2 PUSH2 0x279 ADD MSTORE DUP2 DUP2 PUSH2 0x303 ADD MSTORE PUSH2 0x3E8 ADD MSTORE PUSH1 0x0 DUP2 DUP2 PUSH2 0x23D ADD MSTORE PUSH2 0x40C ADD MSTORE PUSH2 0x96D PUSH1 0x0 RETURN INVALID PUSH1 0x80 PUSH1 0x40 MSTORE CALLVALUE DUP1 ISZERO PUSH2 0x10 JUMPI PUSH1 0x0 DUP1 REVERT JUMPDEST POP PUSH1 0x4 CALLDATASIZE LT PUSH2 0x41 JUMPI PUSH1 0x0 CALLDATALOAD PUSH1 0xE0 SHR DUP1 PUSH4 0x16DEAE71 EQ PUSH2 0x46 JUMPI DUP1 PUSH4 0x442B1278 EQ PUSH2 0x50 JUMPI DUP1 PUSH4 0x7D253AFF EQ PUSH2 0x6E JUMPI JUMPDEST PUSH1 0x0 DUP1 REVERT JUMPDEST PUSH2 0x4E PUSH2 0x8C JUMP JUMPDEST STOP JUMPDEST PUSH2 0x58 PUSH2 0x3E6 JUMP JUMPDEST PUSH1 0x40 MLOAD PUSH2 0x65 SWAP2 SWAP1 PUSH2 0x4AD JUMP JUMPDEST PUSH1 0x40 MLOAD DUP1 SWAP2 SUB SWAP1 RETURN JUMPDEST PUSH2 0x76 PUSH2 0x40A JUMP JUMPDEST PUSH1 0x40 MLOAD PUSH2 0x83 SWAP2 SWAP1 PUSH2 0x4E9 JUMP JUMPDEST PUSH1 0x40 MLOAD DUP1 SWAP2 SUB SWAP1 RETURN JUMPDEST PUSH1 0x0 PUSH1 0x40 MLOAD DUP1 PUSH2 0x140 ADD PUSH1 0x40 MSTORE DUP1 PUSH1 0x40 MLOAD DUP1 PUSH1 0x40 ADD PUSH1 0x40 MSTORE DUP1 PUSH1 0x8 DUP2 MSTORE PUSH1 0x20 ADD PUSH32 0x74657374436F6465000000000000000000000000000000000000000000000000 DUP2 MSTORE POP DUP2 MSTORE PUSH1 0x20 ADD PUSH1 0x40 MLOAD DUP1 PUSH1 0x40 ADD PUSH1 0x40 MSTORE DUP1 PUSH1 0x2 DUP2 MSTORE PUSH1 0x20 ADD PUSH32 0x3078000000000000000000000000000000000000000000000000000000000000 DUP2 MSTORE POP DUP2 MSTORE PUSH1 0x20 ADD PUSH20 0x81D37887AAF0013A2DE277406C1C9FFC1571B421 PUSH20 0xFFFFFFFFFFFFFFFFFFFFFFFFFFFFFFFFFFFFFFFF AND DUP2 MSTORE PUSH1 0x20 ADD PUSH3 0x7A120 PUSH4 0xFFFFFFFF AND DUP2 MSTORE PUSH1 0x20 ADD CALLER PUSH20 0xFFFFFFFFFFFFFFFFFFFFFFFFFFFFFFFFFFFFFFFF AND DUP2 MSTORE PUSH1 0x20 ADD PUSH1 0x1 PUSH1 0xFF AND DUP2 MSTORE PUSH1 0x20 ADD PUSH1 0x40 MLOAD DUP1 PUSH1 0x40 ADD PUSH1 0x40 MSTORE DUP1 PUSH1 0x2 DUP2 MSTORE PUSH1 0x20 ADD PUSH32 0x3078000000000000000000000000000000000000000000000000000000000000 DUP2 MSTORE POP DUP2 MSTORE PUSH1 0x20 ADD PUSH1 0x40 MLOAD DUP1 PUSH1 0x40 ADD PUSH1 0x40 MSTORE DUP1 PUSH1 0x2 DUP2 MSTORE PUSH1 0x20 ADD PUSH32 0x3078000000000000000000000000000000000000000000000000000000000000 DUP2 MSTORE POP DUP2 MSTORE PUSH1 0x20 ADD PUSH1 0x40 MLOAD DUP1 PUSH1 0x40 ADD PUSH1 0x40 MSTORE DUP1 PUSH1 0x2 DUP2 MSTORE PUSH1 0x20 ADD PUSH32 0x3078000000000000000000000000000000000000000000000000000000000000 DUP2 MSTORE POP DUP2 MSTORE PUSH1 0x20 ADD PUSH1 0xA PUSH12 0xFFFFFFFFFFFFFFFFFFFFFFFF AND DUP2 MSTORE POP SWAP1 POP PUSH32 0x0 PUSH20 0xFFFFFFFFFFFFFFFFFFFFFFFFFFFFFFFFFFFFFFFF AND PUSH4 0x95EA7B3 PUSH32 0x0 DUP4 PUSH2 0x120 ADD MLOAD PUSH1 0x40 MLOAD DUP4 PUSH4 0xFFFFFFFF AND PUSH1 0xE0 SHL DUP2 MSTORE PUSH1 0x4 ADD PUSH2 0x2BB SWAP3 SWAP2 SWAP1 PUSH2 0x578 JUMP JUMPDEST PUSH1 0x20 PUSH1 0x40 MLOAD DUP1 DUP4 SUB DUP2 PUSH1 0x0 DUP8 GAS CALL ISZERO DUP1 ISZERO PUSH2 0x2DA JUMPI RETURNDATASIZE PUSH1 0x0 DUP1 RETURNDATACOPY RETURNDATASIZE PUSH1 0x0 REVERT JUMPDEST POP POP POP POP PUSH1 0x40 MLOAD RETURNDATASIZE PUSH1 0x1F NOT PUSH1 0x1F DUP3 ADD AND DUP3 ADD DUP1 PUSH1 0x40 MSTORE POP DUP2 ADD SWAP1 PUSH2 0x2FE SWAP2 SWAP1 PUSH2 0x5DE JUMP JUMPDEST POP PUSH1 0x0 PUSH32 0x0 PUSH20 0xFFFFFFFFFFFFFFFFFFFFFFFFFFFFFFFFFFFFFFFF AND PUSH4 0x3F678E11 DUP4 PUSH1 0x40 MLOAD DUP3 PUSH4 0xFFFFFFFF AND PUSH1 0xE0 SHL DUP2 MSTORE PUSH1 0x4 ADD PUSH2 0x35A SWAP2 SWAP1 PUSH2 0x83F JUMP JUMPDEST PUSH1 0x20 PUSH1 0x40 MLOAD DUP1 DUP4 SUB DUP2 PUSH1 0x0 DUP8 GAS CALL ISZERO DUP1 ISZERO PUSH2 0x379 JUMPI RETURNDATASIZE PUSH1 0x0 DUP1 RETURNDATACOPY RETURNDATASIZE PUSH1 0x0 REVERT JUMPDEST POP POP POP POP PUSH1 0x40 MLOAD RETURNDATASIZE PUSH1 0x1F NOT PUSH1 0x1F DUP3 ADD AND DUP3 ADD DUP1 PUSH1 0x40 MSTORE POP DUP2 ADD SWAP1 PUSH2 0x39D SWAP2 SWAP1 PUSH2 0x88D JUMP JUMPDEST SWAP1 POP PUSH1 0x0 DUP2 SUB PUSH2 0x3E2 JUMPI PUSH1 0x40 MLOAD PUSH32 0x8C379A000000000000000000000000000000000000000000000000000000000 DUP2 MSTORE PUSH1 0x4 ADD PUSH2 0x3D9 SWAP1 PUSH2 0x917 JUMP JUMPDEST PUSH1 0x40 MLOAD DUP1 SWAP2 SUB SWAP1 REVERT JUMPDEST POP POP JUMP JUMPDEST PUSH32 0x0 DUP2 JUMP JUMPDEST PUSH32 0x0 DUP2 JUMP JUMPDEST PUSH1 0x0 PUSH20 0xFFFFFFFFFFFFFFFFFFFFFFFFFFFFFFFFFFFFFFFF DUP3 AND SWAP1 POP SWAP2 SWAP1 POP JUMP JUMPDEST PUSH1 0x0 DUP2 SWAP1 POP SWAP2 SWAP1 POP JUMP JUMPDEST PUSH1 0x0 PUSH2 0x473 PUSH2 0x46E PUSH2 0x469 DUP5 PUSH2 0x42E JUMP JUMPDEST PUSH2 0x44E JUMP JUMPDEST PUSH2 0x42E JUMP JUMPDEST SWAP1 POP SWAP2 SWAP1 POP JUMP JUMPDEST PUSH1 0x0 PUSH2 0x485 DUP3 PUSH2 0x458 JUMP JUMPDEST SWAP1 POP SWAP2 SWAP1 POP JUMP JUMPDEST PUSH1 0x0 PUSH2 0x497 DUP3 PUSH2 0x47A JUMP JUMPDEST SWAP1 POP SWAP2 SWAP1 POP JUMP JUMPDEST PUSH2 0x4A7 DUP2 PUSH2 0x48C JUMP JUMPDEST DUP3 MSTORE POP POP JUMP JUMPDEST PUSH1 0x0 PUSH1 0x20 DUP3 ADD SWAP1 POP PUSH2 0x4C2 PUSH1 0x0 DUP4 ADD DUP5 PUSH2 0x49E JUMP JUMPDEST SWAP3 SWAP2 POP POP JUMP JUMPDEST PUSH1 0x0 PUSH2 0x4D3 DUP3 PUSH2 0x47A JUMP JUMPDEST SWAP1 POP SWAP2 SWAP1 POP JUMP JUMPDEST PUSH2 0x4E3 DUP2 PUSH2 0x4C8 JUMP JUMPDEST DUP3 MSTORE POP POP JUMP JUMPDEST PUSH1 0x0 PUSH1 0x20 DUP3 ADD SWAP1 POP PUSH2 0x4FE PUSH1 0x0 DUP4 ADD DUP5 PUSH2 0x4DA JUMP JUMPDEST SWAP3 SWAP2 POP POP JUMP JUMPDEST PUSH1 0x0 PUSH2 0x50F DUP3 PUSH2 0x42E JUMP JUMPDEST SWAP1 POP SWAP2 SWAP1 POP JUMP JUMPDEST PUSH2 0x51F DUP2 PUSH2 0x504 JUMP JUMPDEST DUP3 MSTORE POP POP JUMP JUMPDEST PUSH1 0x0 PUSH12 0xFFFFFFFFFFFFFFFFFFFFFFFF DUP3 AND SWAP1 POP SWAP2 SWAP1 POP JUMP JUMPDEST PUSH1 0x0 DUP2 SWAP1 POP SWAP2 SWAP1 POP JUMP JUMPDEST PUSH1 0x0 PUSH2 0x562 PUSH2 0x55D PUSH2 0x558 DUP5 PUSH2 0x525 JUMP JUMPDEST PUSH2 0x44E JUMP JUMPDEST PUSH2 0x53D JUMP JUMPDEST SWAP1 POP SWAP2 SWAP1 POP JUMP JUMPDEST PUSH2 0x572 DUP2 PUSH2 0x547 JUMP JUMPDEST DUP3 MSTORE POP POP JUMP JUMPDEST PUSH1 0x0 PUSH1 0x40 DUP3 ADD SWAP1 POP PUSH2 0x58D PUSH1 0x0 DUP4 ADD DUP6 PUSH2 0x516 JUMP JUMPDEST PUSH2 0x59A PUSH1 0x20 DUP4 ADD DUP5 PUSH2 0x569 JUMP JUMPDEST SWAP4 SWAP3 POP POP POP JUMP JUMPDEST PUSH1 0x0 DUP1 REVERT JUMPDEST PUSH1 0x0 DUP2 ISZERO ISZERO SWAP1 POP SWAP2 SWAP1 POP JUMP JUMPDEST PUSH2 0x5BB DUP2 PUSH2 0x5A6 JUMP JUMPDEST DUP2 EQ PUSH2 0x5C6 JUMPI PUSH1 0x0 DUP1 REVERT JUMPDEST POP JUMP JUMPDEST PUSH1 0x0 DUP2 MLOAD SWAP1 POP PUSH2 0x5D8 DUP2 PUSH2 0x5B2 JUMP JUMPDEST SWAP3 SWAP2 POP POP JUMP JUMPDEST PUSH1 0x0 PUSH1 0x20 DUP3 DUP5 SUB SLT ISZERO PUSH2 0x5F4 JUMPI PUSH2 0x5F3 PUSH2 0x5A1 JUMP JUMPDEST JUMPDEST PUSH1 0x0 PUSH2 0x602 DUP5 DUP3 DUP6 ADD PUSH2 0x5C9 JUMP JUMPDEST SWAP2 POP POP SWAP3 SWAP2 POP POP JUMP JUMPDEST PUSH1 0x0 DUP2 MLOAD SWAP1 POP SWAP2 SWAP1 POP JUMP JUMPDEST PUSH1 0x0 DUP3 DUP3 MSTORE PUSH1 0x20 DUP3 ADD SWAP1 POP SWAP3 SWAP2 POP POP JUMP JUMPDEST PUSH1 0x0 JUMPDEST DUP4 DUP2 LT ISZERO PUSH2 0x645 JUMPI DUP1 DUP3 ADD MLOAD DUP2 DUP5 ADD MSTORE PUSH1 0x20 DUP2 ADD SWAP1 POP PUSH2 0x62A JUMP JUMPDEST PUSH1 0x0 DUP5 DUP5 ADD MSTORE POP POP POP POP JUMP JUMPDEST PUSH1 0x0 PUSH1 0x1F NOT PUSH1 0x1F DUP4 ADD AND SWAP1 POP SWAP2 SWAP1 POP JUMP JUMPDEST PUSH1 0x0 PUSH2 0x66D DUP3 PUSH2 0x60B JUMP JUMPDEST PUSH2 0x677 DUP2 DUP6 PUSH2 0x616 JUMP JUMPDEST SWAP4 POP PUSH2 0x687 DUP2 DUP6 PUSH1 0x20 DUP7 ADD PUSH2 0x627 JUMP JUMPDEST PUSH2 0x690 DUP2 PUSH2 0x651 JUMP JUMPDEST DUP5 ADD SWAP2 POP POP SWAP3 SWAP2 POP POP JUMP JUMPDEST PUSH1 0x0 DUP2 MLOAD SWAP1 POP SWAP2 SWAP1 POP JUMP JUMPDEST PUSH1 0x0 DUP3 DUP3 MSTORE PUSH1 0x20 DUP3 ADD SWAP1 POP SWAP3 SWAP2 POP POP JUMP JUMPDEST PUSH1 0x0 PUSH2 0x6C2 DUP3 PUSH2 0x69B JUMP JUMPDEST PUSH2 0x6CC DUP2 DUP6 PUSH2 0x6A6 JUMP JUMPDEST SWAP4 POP PUSH2 0x6DC DUP2 DUP6 PUSH1 0x20 DUP7 ADD PUSH2 0x627 JUMP JUMPDEST PUSH2 0x6E5 DUP2 PUSH2 0x651 JUMP JUMPDEST DUP5 ADD SWAP2 POP POP SWAP3 SWAP2 POP POP JUMP JUMPDEST PUSH2 0x6F9 DUP2 PUSH2 0x504 JUMP JUMPDEST DUP3 MSTORE POP POP JUMP JUMPDEST PUSH1 0x0 PUSH4 0xFFFFFFFF DUP3 AND SWAP1 POP SWAP2 SWAP1 POP JUMP JUMPDEST PUSH2 0x718 DUP2 PUSH2 0x6FF JUMP JUMPDEST DUP3 MSTORE POP POP JUMP JUMPDEST PUSH1 0x0 PUSH1 0xFF DUP3 AND SWAP1 POP SWAP2 SWAP1 POP JUMP JUMPDEST PUSH2 0x734 DUP2 PUSH2 0x71E JUMP JUMPDEST DUP3 MSTORE POP POP JUMP JUMPDEST PUSH2 0x743 DUP2 PUSH2 0x525 JUMP JUMPDEST DUP3 MSTORE POP POP JUMP JUMPDEST PUSH1 0x0 PUSH2 0x140 DUP4 ADD PUSH1 0x0 DUP4 ADD MLOAD DUP5 DUP3 SUB PUSH1 0x0 DUP7 ADD MSTORE PUSH2 0x767 DUP3 DUP3 PUSH2 0x662 JUMP JUMPDEST SWAP2 POP POP PUSH1 0x20 DUP4 ADD MLOAD DUP5 DUP3 SUB PUSH1 0x20 DUP7 ADD MSTORE PUSH2 0x781 DUP3 DUP3 PUSH2 0x6B7 JUMP JUMPDEST SWAP2 POP POP PUSH1 0x40 DUP4 ADD MLOAD PUSH2 0x796 PUSH1 0x40 DUP7 ADD DUP3 PUSH2 0x6F0 JUMP JUMPDEST POP PUSH1 0x60 DUP4 ADD MLOAD PUSH2 0x7A9 PUSH1 0x60 DUP7 ADD DUP3 PUSH2 0x70F JUMP JUMPDEST POP PUSH1 0x80 DUP4 ADD MLOAD PUSH2 0x7BC PUSH1 0x80 DUP7 ADD DUP3 PUSH2 0x6F0 JUMP JUMPDEST POP PUSH1 0xA0 DUP4 ADD MLOAD PUSH2 0x7CF PUSH1 0xA0 DUP7 ADD DUP3 PUSH2 0x72B JUMP JUMPDEST POP PUSH1 0xC0 DUP4 ADD MLOAD DUP5 DUP3 SUB PUSH1 0xC0 DUP7 ADD MSTORE PUSH2 0x7E7 DUP3 DUP3 PUSH2 0x6B7 JUMP JUMPDEST SWAP2 POP POP PUSH1 0xE0 DUP4 ADD MLOAD DUP5 DUP3 SUB PUSH1 0xE0 DUP7 ADD MSTORE PUSH2 0x801 DUP3 DUP3 PUSH2 0x6B7 JUMP JUMPDEST SWAP2 POP POP PUSH2 0x100 DUP4 ADD MLOAD DUP5 DUP3 SUB PUSH2 0x100 DUP7 ADD MSTORE PUSH2 0x81D DUP3 DUP3 PUSH2 0x6B7 JUMP JUMPDEST SWAP2 POP POP PUSH2 0x120 DUP4 ADD MLOAD PUSH2 0x834 PUSH2 0x120 DUP7 ADD DUP3 PUSH2 0x73A JUMP JUMPDEST POP DUP1 SWAP2 POP POP SWAP3 SWAP2 POP POP JUMP JUMPDEST PUSH1 0x0 PUSH1 0x20 DUP3 ADD SWAP1 POP DUP2 DUP2 SUB PUSH1 0x0 DUP4 ADD MSTORE PUSH2 0x859 DUP2 DUP5 PUSH2 0x749 JUMP JUMPDEST SWAP1 POP SWAP3 SWAP2 POP POP JUMP JUMPDEST PUSH2 0x86A DUP2 PUSH2 0x53D JUMP JUMPDEST DUP2 EQ PUSH2 0x875 JUMPI PUSH1 0x0 DUP1 REVERT JUMPDEST POP JUMP JUMPDEST PUSH1 0x0 DUP2 MLOAD SWAP1 POP PUSH2 0x887 DUP2 PUSH2 0x861 JUMP JUMPDEST SWAP3 SWAP2 POP POP JUMP JUMPDEST PUSH1 0x0 PUSH1 0x20 DUP3 DUP5 SUB SLT ISZERO PUSH2 0x8A3 JUMPI PUSH2 0x8A2 PUSH2 0x5A1 JUMP JUMPDEST JUMPDEST PUSH1 0x0 PUSH2 0x8B1 DUP5 DUP3 DUP6 ADD PUSH2 0x878 JUMP JUMPDEST SWAP2 POP POP SWAP3 SWAP2 POP POP JUMP JUMPDEST PUSH1 0x0 DUP3 DUP3 MSTORE PUSH1 0x20 DUP3 ADD SWAP1 POP SWAP3 SWAP2 POP POP JUMP JUMPDEST PUSH32 0x6175746F2D617070726F76652064697361626C65640000000000000000000000 PUSH1 0x0 DUP3 ADD MSTORE POP JUMP JUMPDEST PUSH1 0x0 PUSH2 0x901 PUSH1 0x15 DUP4 PUSH2 0x8BA JUMP JUMPDEST SWAP2 POP PUSH2 0x90C DUP3 PUSH2 0x8CB JUMP JUMPDEST PUSH1 0x20 DUP3 ADD SWAP1 POP SWAP2 SWAP1 POP JUMP JUMPDEST PUSH1 0x0 PUSH1 0x20 DUP3 ADD SWAP1 POP DUP2 DUP2 SUB PUSH1 0x0 DUP4 ADD MSTORE PUSH2 0x930 DUP2 PUSH2 0x8F4 JUMP JUMPDEST SWAP1 POP SWAP2 SWAP1 POP JUMP INVALID LOG2 PUSH5 0x6970667358 0x22 SLT KECCAK256 SWAP10 DUP4 0xD3 DUP5 0x25 DUP2 CALLDATACOPY SELFDESTRUCT PUSH4 0xDBAC480F 0xCC PUSH32 0x347BEA50CE05A22C1E8CADF2023FB1BD9164736F6C6343000813003300000000 "
				},
				"gasEstimates": {
					"creation": {
						"codeDepositCost": "482600",
						"executionCost": "infinite",
						"totalCost": "infinite"
					},
					"external": {
						"i_link()": "infinite",
						"i_registrar()": "infinite",
						"registerAndPredictID()": "infinite"
					}
				},
				"methodIdentifiers": {
					"i_link()": "7d253aff",
					"i_registrar()": "442b1278",
					"registerAndPredictID()": "16deae71"
				}
			},
			"storageLayout": {
				"storage": [],
				"types": null
			},
			"userdoc": {
				"kind": "user",
				"methods": {},
				"version": 1
			}
		}
	}
}