{
	"Carbon-Credits-Verification-with-Blockchain-main/contracts/lock-contract.sol": {
		"Lock": {
			"abi": [
				{
					"inputs": [
						{
							"internalType": "uint256",
							"name": "repScore",
							"type": "uint256"
						}
					],
					"name": "depositCalculator",
					"outputs": [
						{
							"internalType": "uint256",
							"name": "",
							"type": "uint256"
						}
					],
					"stateMutability": "pure",
					"type": "function"
				},
				{
					"inputs": [
						{
							"internalType": "uint256",
							"name": "depAmount",
							"type": "uint256"
						}
					],
					"name": "requestDeposit",
					"outputs": [
						{
							"internalType": "bool",
							"name": "",
							"type": "bool"
						}
					],
					"stateMutability": "pure",
					"type": "function"
				}
			],
			"devdoc": {
				"kind": "dev",
				"methods": {},
				"version": 1
			},
			"evm": {
				"assembly": "    /* \"Carbon-Credits-Verification-with-Blockchain-main/contracts/lock-contract.sol\":90:1595  contract Lock {... */\n  mstore(0x40, 0x80)\n  callvalue\n  dup1\n  iszero\n  tag_1\n  jumpi\n  0x00\n  dup1\n  revert\ntag_1:\n  pop\n  dataSize(sub_0)\n  dup1\n  dataOffset(sub_0)\n  0x00\n  codecopy\n  0x00\n  return\nstop\n\nsub_0: assembly {\n        /* \"Carbon-Credits-Verification-with-Blockchain-main/contracts/lock-contract.sol\":90:1595  contract Lock {... */\n      mstore(0x40, 0x80)\n      callvalue\n      dup1\n      iszero\n      tag_1\n      jumpi\n      0x00\n      dup1\n      revert\n    tag_1:\n      pop\n      jumpi(tag_2, lt(calldatasize, 0x04))\n      shr(0xe0, calldataload(0x00))\n      dup1\n      0x0d1e6667\n      eq\n      tag_3\n      jumpi\n      dup1\n      0x4545ed9f\n      eq\n      tag_4\n      jumpi\n    tag_2:\n      0x00\n      dup1\n      revert\n        /* \"Carbon-Credits-Verification-with-Blockchain-main/contracts/lock-contract.sol\":1312:1592  function requestDeposit(uint256 depAmount) pure public returns (bool) {... */\n    tag_3:\n      tag_5\n      0x04\n      dup1\n      calldatasize\n      sub\n      dup2\n      add\n      swap1\n      tag_6\n      swap2\n      swap1\n      tag_7\n      jump\t// in\n    tag_6:\n      tag_8\n      jump\t// in\n    tag_5:\n      mload(0x40)\n      tag_9\n      swap2\n      swap1\n      tag_10\n      jump\t// in\n    tag_9:\n      mload(0x40)\n      dup1\n      swap2\n      sub\n      swap1\n      return\n        /* \"Carbon-Credits-Verification-with-Blockchain-main/contracts/lock-contract.sol\":810:1306  function depositCalculator(uint repScore) pure  public returns (uint256) {... */\n    tag_4:\n      tag_11\n      0x04\n      dup1\n      calldatasize\n      sub\n      dup2\n      add\n      swap1\n      tag_12\n      swap2\n      swap1\n      tag_7\n      jump\t// in\n    tag_12:\n      tag_13\n      jump\t// in\n    tag_11:\n      mload(0x40)\n      tag_14\n      swap2\n      swap1\n      tag_15\n      jump\t// in\n    tag_14:\n      mload(0x40)\n      dup1\n      swap2\n      sub\n      swap1\n      return\n        /* \"Carbon-Credits-Verification-with-Blockchain-main/contracts/lock-contract.sol\":1312:1592  function requestDeposit(uint256 depAmount) pure public returns (bool) {... */\n    tag_8:\n        /* \"Carbon-Credits-Verification-with-Blockchain-main/contracts/lock-contract.sol\":1376:1380  bool */\n      0x00\n        /* \"Carbon-Credits-Verification-with-Blockchain-main/contracts/lock-contract.sol\":1525:1526  0 */\n      dup1\n        /* \"Carbon-Credits-Verification-with-Blockchain-main/contracts/lock-contract.sol\":1513:1522  depAmount */\n      dup3\n        /* \"Carbon-Credits-Verification-with-Blockchain-main/contracts/lock-contract.sol\":1513:1526  depAmount > 0 */\n      gt\n        /* \"Carbon-Credits-Verification-with-Blockchain-main/contracts/lock-contract.sol\":1509:1564  if (depAmount > 0) {... */\n      iszero\n      tag_17\n      jumpi\n        /* \"Carbon-Credits-Verification-with-Blockchain-main/contracts/lock-contract.sol\":1549:1553  true */\n      0x01\n        /* \"Carbon-Credits-Verification-with-Blockchain-main/contracts/lock-contract.sol\":1542:1553  return true */\n      swap1\n      pop\n      jump(tag_16)\n        /* \"Carbon-Credits-Verification-with-Blockchain-main/contracts/lock-contract.sol\":1509:1564  if (depAmount > 0) {... */\n    tag_17:\n        /* \"Carbon-Credits-Verification-with-Blockchain-main/contracts/lock-contract.sol\":1580:1585  false */\n      0x00\n        /* \"Carbon-Credits-Verification-with-Blockchain-main/contracts/lock-contract.sol\":1573:1585  return false */\n      swap1\n      pop\n        /* \"Carbon-Credits-Verification-with-Blockchain-main/contracts/lock-contract.sol\":1312:1592  function requestDeposit(uint256 depAmount) pure public returns (bool) {... */\n    tag_16:\n      swap2\n      swap1\n      pop\n      jump\t// out\n        /* \"Carbon-Credits-Verification-with-Blockchain-main/contracts/lock-contract.sol\":810:1306  function depositCalculator(uint repScore) pure  public returns (uint256) {... */\n    tag_13:\n        /* \"Carbon-Credits-Verification-with-Blockchain-main/contracts/lock-contract.sol\":874:881  uint256 */\n      0x00\n        /* \"Carbon-Credits-Verification-with-Blockchain-main/contracts/lock-contract.sol\":1175:1176  1 */\n      0x01\n        /* \"Carbon-Credits-Verification-with-Blockchain-main/contracts/lock-contract.sol\":1164:1172  repScore */\n      dup3\n        /* \"Carbon-Credits-Verification-with-Blockchain-main/contracts/lock-contract.sol\":1164:1176  repScore >=1 */\n      lt\n      iszero\n        /* \"Carbon-Credits-Verification-with-Blockchain-main/contracts/lock-contract.sol\":1164:1193  repScore >=1 && repScore <=10 */\n      dup1\n      iszero\n      tag_19\n      jumpi\n      pop\n        /* \"Carbon-Credits-Verification-with-Blockchain-main/contracts/lock-contract.sol\":1191:1193  10 */\n      0x0a\n        /* \"Carbon-Credits-Verification-with-Blockchain-main/contracts/lock-contract.sol\":1180:1188  repScore */\n      dup3\n        /* \"Carbon-Credits-Verification-with-Blockchain-main/contracts/lock-contract.sol\":1180:1193  repScore <=10 */\n      gt\n      iszero\n        /* \"Carbon-Credits-Verification-with-Blockchain-main/contracts/lock-contract.sol\":1164:1193  repScore >=1 && repScore <=10 */\n    tag_19:\n        /* \"Carbon-Credits-Verification-with-Blockchain-main/contracts/lock-contract.sol\":1156:1226  require(repScore >=1 && repScore <=10, \"Not a valid reputation score\") */\n      tag_20\n      jumpi\n      mload(0x40)\n      0x08c379a000000000000000000000000000000000000000000000000000000000\n      dup2\n      mstore\n      0x04\n      add\n      tag_21\n      swap1\n      tag_22\n      jump\t// in\n    tag_21:\n      mload(0x40)\n      dup1\n      swap2\n      sub\n      swap1\n      revert\n    tag_20:\n        /* \"Carbon-Credits-Verification-with-Blockchain-main/contracts/lock-contract.sol\":1236:1251  uint256 deposit */\n      0x00\n        /* \"Carbon-Credits-Verification-with-Blockchain-main/contracts/lock-contract.sol\":1273:1274  8 */\n      0x08\n        /* \"Carbon-Credits-Verification-with-Blockchain-main/contracts/lock-contract.sol\":1262:1270  repScore */\n      dup4\n        /* \"Carbon-Credits-Verification-with-Blockchain-main/contracts/lock-contract.sol\":1262:1274  repScore * 8 */\n      tag_23\n      swap2\n      swap1\n      tag_24\n      jump\t// in\n    tag_23:\n        /* \"Carbon-Credits-Verification-with-Blockchain-main/contracts/lock-contract.sol\":1254:1258  2000 */\n      0x07d0\n        /* \"Carbon-Credits-Verification-with-Blockchain-main/contracts/lock-contract.sol\":1254:1275  2000 / (repScore * 8) */\n      tag_25\n      swap2\n      swap1\n      tag_26\n      jump\t// in\n    tag_25:\n        /* \"Carbon-Credits-Verification-with-Blockchain-main/contracts/lock-contract.sol\":1236:1275  uint256 deposit = 2000 / (repScore * 8) */\n      swap1\n      pop\n        /* \"Carbon-Credits-Verification-with-Blockchain-main/contracts/lock-contract.sol\":1292:1299  deposit */\n      dup1\n        /* \"Carbon-Credits-Verification-with-Blockchain-main/contracts/lock-contract.sol\":1285:1299  return deposit */\n      swap2\n      pop\n      pop\n        /* \"Carbon-Credits-Verification-with-Blockchain-main/contracts/lock-contract.sol\":810:1306  function depositCalculator(uint repScore) pure  public returns (uint256) {... */\n      swap2\n      swap1\n      pop\n      jump\t// out\n        /* \"#utility.yul\":88:205   */\n    tag_28:\n        /* \"#utility.yul\":197:198   */\n      0x00\n        /* \"#utility.yul\":194:195   */\n      dup1\n        /* \"#utility.yul\":187:199   */\n      revert\n        /* \"#utility.yul\":334:411   */\n    tag_30:\n        /* \"#utility.yul\":371:378   */\n      0x00\n        /* \"#utility.yul\":400:405   */\n      dup2\n        /* \"#utility.yul\":389:405   */\n      swap1\n      pop\n        /* \"#utility.yul\":334:411   */\n      swap2\n      swap1\n      pop\n      jump\t// out\n        /* \"#utility.yul\":417:539   */\n    tag_31:\n        /* \"#utility.yul\":490:514   */\n      tag_47\n        /* \"#utility.yul\":508:513   */\n      dup2\n        /* \"#utility.yul\":490:514   */\n      tag_30\n      jump\t// in\n    tag_47:\n        /* \"#utility.yul\":483:488   */\n      dup2\n        /* \"#utility.yul\":480:515   */\n      eq\n        /* \"#utility.yul\":470:533   */\n      tag_48\n      jumpi\n        /* \"#utility.yul\":529:530   */\n      0x00\n        /* \"#utility.yul\":526:527   */\n      dup1\n        /* \"#utility.yul\":519:531   */\n      revert\n        /* \"#utility.yul\":470:533   */\n    tag_48:\n        /* \"#utility.yul\":417:539   */\n      pop\n      jump\t// out\n        /* \"#utility.yul\":545:684   */\n    tag_32:\n        /* \"#utility.yul\":591:596   */\n      0x00\n        /* \"#utility.yul\":629:635   */\n      dup2\n        /* \"#utility.yul\":616:636   */\n      calldataload\n        /* \"#utility.yul\":607:636   */\n      swap1\n      pop\n        /* \"#utility.yul\":645:678   */\n      tag_50\n        /* \"#utility.yul\":672:677   */\n      dup2\n        /* \"#utility.yul\":645:678   */\n      tag_31\n      jump\t// in\n    tag_50:\n        /* \"#utility.yul\":545:684   */\n      swap3\n      swap2\n      pop\n      pop\n      jump\t// out\n        /* \"#utility.yul\":690:1019   */\n    tag_7:\n        /* \"#utility.yul\":749:755   */\n      0x00\n        /* \"#utility.yul\":798:800   */\n      0x20\n        /* \"#utility.yul\":786:795   */\n      dup3\n        /* \"#utility.yul\":777:784   */\n      dup5\n        /* \"#utility.yul\":773:796   */\n      sub\n        /* \"#utility.yul\":769:801   */\n      slt\n        /* \"#utility.yul\":766:885   */\n      iszero\n      tag_52\n      jumpi\n        /* \"#utility.yul\":804:883   */\n      tag_53\n      tag_28\n      jump\t// in\n    tag_53:\n        /* \"#utility.yul\":766:885   */\n    tag_52:\n        /* \"#utility.yul\":924:925   */\n      0x00\n        /* \"#utility.yul\":949:1002   */\n      tag_54\n        /* \"#utility.yul\":994:1001   */\n      dup5\n        /* \"#utility.yul\":985:991   */\n      dup3\n        /* \"#utility.yul\":974:983   */\n      dup6\n        /* \"#utility.yul\":970:992   */\n      add\n        /* \"#utility.yul\":949:1002   */\n      tag_32\n      jump\t// in\n    tag_54:\n        /* \"#utility.yul\":939:1002   */\n      swap2\n      pop\n        /* \"#utility.yul\":895:1012   */\n      pop\n        /* \"#utility.yul\":690:1019   */\n      swap3\n      swap2\n      pop\n      pop\n      jump\t// out\n        /* \"#utility.yul\":1025:1115   */\n    tag_33:\n        /* \"#utility.yul\":1059:1066   */\n      0x00\n        /* \"#utility.yul\":1102:1107   */\n      dup2\n        /* \"#utility.yul\":1095:1108   */\n      iszero\n        /* \"#utility.yul\":1088:1109   */\n      iszero\n        /* \"#utility.yul\":1077:1109   */\n      swap1\n      pop\n        /* \"#utility.yul\":1025:1115   */\n      swap2\n      swap1\n      pop\n      jump\t// out\n        /* \"#utility.yul\":1121:1230   */\n    tag_34:\n        /* \"#utility.yul\":1202:1223   */\n      tag_57\n        /* \"#utility.yul\":1217:1222   */\n      dup2\n        /* \"#utility.yul\":1202:1223   */\n      tag_33\n      jump\t// in\n    tag_57:\n        /* \"#utility.yul\":1197:1200   */\n      dup3\n        /* \"#utility.yul\":1190:1224   */\n      mstore\n        /* \"#utility.yul\":1121:1230   */\n      pop\n      pop\n      jump\t// out\n        /* \"#utility.yul\":1236:1446   */\n    tag_10:\n        /* \"#utility.yul\":1323:1327   */\n      0x00\n        /* \"#utility.yul\":1361:1363   */\n      0x20\n        /* \"#utility.yul\":1350:1359   */\n      dup3\n        /* \"#utility.yul\":1346:1364   */\n      add\n        /* \"#utility.yul\":1338:1364   */\n      swap1\n      pop\n        /* \"#utility.yul\":1374:1439   */\n      tag_59\n        /* \"#utility.yul\":1436:1437   */\n      0x00\n        /* \"#utility.yul\":1425:1434   */\n      dup4\n        /* \"#utility.yul\":1421:1438   */\n      add\n        /* \"#utility.yul\":1412:1418   */\n      dup5\n        /* \"#utility.yul\":1374:1439   */\n      tag_34\n      jump\t// in\n    tag_59:\n        /* \"#utility.yul\":1236:1446   */\n      swap3\n      swap2\n      pop\n      pop\n      jump\t// out\n        /* \"#utility.yul\":1452:1570   */\n    tag_35:\n        /* \"#utility.yul\":1539:1563   */\n      tag_61\n        /* \"#utility.yul\":1557:1562   */\n      dup2\n        /* \"#utility.yul\":1539:1563   */\n      tag_30\n      jump\t// in\n    tag_61:\n        /* \"#utility.yul\":1534:1537   */\n      dup3\n        /* \"#utility.yul\":1527:1564   */\n      mstore\n        /* \"#utility.yul\":1452:1570   */\n      pop\n      pop\n      jump\t// out\n        /* \"#utility.yul\":1576:1798   */\n    tag_15:\n        /* \"#utility.yul\":1669:1673   */\n      0x00\n        /* \"#utility.yul\":1707:1709   */\n      0x20\n        /* \"#utility.yul\":1696:1705   */\n      dup3\n        /* \"#utility.yul\":1692:1710   */\n      add\n        /* \"#utility.yul\":1684:1710   */\n      swap1\n      pop\n        /* \"#utility.yul\":1720:1791   */\n      tag_63\n        /* \"#utility.yul\":1788:1789   */\n      0x00\n        /* \"#utility.yul\":1777:1786   */\n      dup4\n        /* \"#utility.yul\":1773:1790   */\n      add\n        /* \"#utility.yul\":1764:1770   */\n      dup5\n        /* \"#utility.yul\":1720:1791   */\n      tag_35\n      jump\t// in\n    tag_63:\n        /* \"#utility.yul\":1576:1798   */\n      swap3\n      swap2\n      pop\n      pop\n      jump\t// out\n        /* \"#utility.yul\":1804:1973   */\n    tag_36:\n        /* \"#utility.yul\":1888:1899   */\n      0x00\n        /* \"#utility.yul\":1922:1928   */\n      dup3\n        /* \"#utility.yul\":1917:1920   */\n      dup3\n        /* \"#utility.yul\":1910:1929   */\n      mstore\n        /* \"#utility.yul\":1962:1966   */\n      0x20\n        /* \"#utility.yul\":1957:1960   */\n      dup3\n        /* \"#utility.yul\":1953:1967   */\n      add\n        /* \"#utility.yul\":1938:1967   */\n      swap1\n      pop\n        /* \"#utility.yul\":1804:1973   */\n      swap3\n      swap2\n      pop\n      pop\n      jump\t// out\n        /* \"#utility.yul\":1979:2157   */\n    tag_37:\n        /* \"#utility.yul\":2119:2149   */\n      0x4e6f7420612076616c69642072657075746174696f6e2073636f726500000000\n        /* \"#utility.yul\":2115:2116   */\n      0x00\n        /* \"#utility.yul\":2107:2113   */\n      dup3\n        /* \"#utility.yul\":2103:2117   */\n      add\n        /* \"#utility.yul\":2096:2150   */\n      mstore\n        /* \"#utility.yul\":1979:2157   */\n      pop\n      jump\t// out\n        /* \"#utility.yul\":2163:2529   */\n    tag_38:\n        /* \"#utility.yul\":2305:2308   */\n      0x00\n        /* \"#utility.yul\":2326:2393   */\n      tag_67\n        /* \"#utility.yul\":2390:2392   */\n      0x1c\n        /* \"#utility.yul\":2385:2388   */\n      dup4\n        /* \"#utility.yul\":2326:2393   */\n      tag_36\n      jump\t// in\n    tag_67:\n        /* \"#utility.yul\":2319:2393   */\n      swap2\n      pop\n        /* \"#utility.yul\":2402:2495   */\n      tag_68\n        /* \"#utility.yul\":2491:2494   */\n      dup3\n        /* \"#utility.yul\":2402:2495   */\n      tag_37\n      jump\t// in\n    tag_68:\n        /* \"#utility.yul\":2520:2522   */\n      0x20\n        /* \"#utility.yul\":2515:2518   */\n      dup3\n        /* \"#utility.yul\":2511:2523   */\n      add\n        /* \"#utility.yul\":2504:2523   */\n      swap1\n      pop\n        /* \"#utility.yul\":2163:2529   */\n      swap2\n      swap1\n      pop\n      jump\t// out\n        /* \"#utility.yul\":2535:2954   */\n    tag_22:\n        /* \"#utility.yul\":2701:2705   */\n      0x00\n        /* \"#utility.yul\":2739:2741   */\n      0x20\n        /* \"#utility.yul\":2728:2737   */\n      dup3\n        /* \"#utility.yul\":2724:2742   */\n      add\n        /* \"#utility.yul\":2716:2742   */\n      swap1\n      pop\n        /* \"#utility.yul\":2788:2797   */\n      dup2\n        /* \"#utility.yul\":2782:2786   */\n      dup2\n        /* \"#utility.yul\":2778:2798   */\n      sub\n        /* \"#utility.yul\":2774:2775   */\n      0x00\n        /* \"#utility.yul\":2763:2772   */\n      dup4\n        /* \"#utility.yul\":2759:2776   */\n      add\n        /* \"#utility.yul\":2752:2799   */\n      mstore\n        /* \"#utility.yul\":2816:2947   */\n      tag_70\n        /* \"#utility.yul\":2942:2946   */\n      dup2\n        /* \"#utility.yul\":2816:2947   */\n      tag_38\n      jump\t// in\n    tag_70:\n        /* \"#utility.yul\":2808:2947   */\n      swap1\n      pop\n        /* \"#utility.yul\":2535:2954   */\n      swap2\n      swap1\n      pop\n      jump\t// out\n        /* \"#utility.yul\":2960:3140   */\n    tag_39:\n        /* \"#utility.yul\":3008:3085   */\n      0x4e487b7100000000000000000000000000000000000000000000000000000000\n        /* \"#utility.yul\":3005:3006   */\n      0x00\n        /* \"#utility.yul\":2998:3086   */\n      mstore\n        /* \"#utility.yul\":3105:3109   */\n      0x11\n        /* \"#utility.yul\":3102:3103   */\n      0x04\n        /* \"#utility.yul\":3095:3110   */\n      mstore\n        /* \"#utility.yul\":3129:3133   */\n      0x24\n        /* \"#utility.yul\":3126:3127   */\n      0x00\n        /* \"#utility.yul\":3119:3134   */\n      revert\n        /* \"#utility.yul\":3146:3556   */\n    tag_24:\n        /* \"#utility.yul\":3186:3193   */\n      0x00\n        /* \"#utility.yul\":3209:3229   */\n      tag_73\n        /* \"#utility.yul\":3227:3228   */\n      dup3\n        /* \"#utility.yul\":3209:3229   */\n      tag_30\n      jump\t// in\n    tag_73:\n        /* \"#utility.yul\":3204:3229   */\n      swap2\n      pop\n        /* \"#utility.yul\":3243:3263   */\n      tag_74\n        /* \"#utility.yul\":3261:3262   */\n      dup4\n        /* \"#utility.yul\":3243:3263   */\n      tag_30\n      jump\t// in\n    tag_74:\n        /* \"#utility.yul\":3238:3263   */\n      swap3\n      pop\n        /* \"#utility.yul\":3298:3299   */\n      dup3\n        /* \"#utility.yul\":3295:3296   */\n      dup3\n        /* \"#utility.yul\":3291:3300   */\n      mul\n        /* \"#utility.yul\":3320:3350   */\n      tag_75\n        /* \"#utility.yul\":3338:3349   */\n      dup2\n        /* \"#utility.yul\":3320:3350   */\n      tag_30\n      jump\t// in\n    tag_75:\n        /* \"#utility.yul\":3309:3350   */\n      swap2\n      pop\n        /* \"#utility.yul\":3499:3500   */\n      dup3\n        /* \"#utility.yul\":3490:3497   */\n      dup3\n        /* \"#utility.yul\":3486:3501   */\n      div\n        /* \"#utility.yul\":3483:3484   */\n      dup5\n        /* \"#utility.yul\":3480:3502   */\n      eq\n        /* \"#utility.yul\":3460:3461   */\n      dup4\n        /* \"#utility.yul\":3453:3462   */\n      iszero\n        /* \"#utility.yul\":3433:3516   */\n      or\n        /* \"#utility.yul\":3410:3549   */\n      tag_76\n      jumpi\n        /* \"#utility.yul\":3529:3547   */\n      tag_77\n      tag_39\n      jump\t// in\n    tag_77:\n        /* \"#utility.yul\":3410:3549   */\n    tag_76:\n        /* \"#utility.yul\":3194:3556   */\n      pop\n        /* \"#utility.yul\":3146:3556   */\n      swap3\n      swap2\n      pop\n      pop\n      jump\t// out\n        /* \"#utility.yul\":3562:3742   */\n    tag_40:\n        /* \"#utility.yul\":3610:3687   */\n      0x4e487b7100000000000000000000000000000000000000000000000000000000\n        /* \"#utility.yul\":3607:3608   */\n      0x00\n        /* \"#utility.yul\":3600:3688   */\n      mstore\n        /* \"#utility.yul\":3707:3711   */\n      0x12\n        /* \"#utility.yul\":3704:3705   */\n      0x04\n        /* \"#utility.yul\":3697:3712   */\n      mstore\n        /* \"#utility.yul\":3731:3735   */\n      0x24\n        /* \"#utility.yul\":3728:3729   */\n      0x00\n        /* \"#utility.yul\":3721:3736   */\n      revert\n        /* \"#utility.yul\":3748:3933   */\n    tag_26:\n        /* \"#utility.yul\":3788:3789   */\n      0x00\n        /* \"#utility.yul\":3805:3825   */\n      tag_80\n        /* \"#utility.yul\":3823:3824   */\n      dup3\n        /* \"#utility.yul\":3805:3825   */\n      tag_30\n      jump\t// in\n    tag_80:\n        /* \"#utility.yul\":3800:3825   */\n      swap2\n      pop\n        /* \"#utility.yul\":3839:3859   */\n      tag_81\n        /* \"#utility.yul\":3857:3858   */\n      dup4\n        /* \"#utility.yul\":3839:3859   */\n      tag_30\n      jump\t// in\n    tag_81:\n        /* \"#utility.yul\":3834:3859   */\n      swap3\n      pop\n        /* \"#utility.yul\":3878:3879   */\n      dup3\n        /* \"#utility.yul\":3868:3903   */\n      tag_82\n      jumpi\n        /* \"#utility.yul\":3883:3901   */\n      tag_83\n      tag_40\n      jump\t// in\n    tag_83:\n        /* \"#utility.yul\":3868:3903   */\n    tag_82:\n        /* \"#utility.yul\":3925:3926   */\n      dup3\n        /* \"#utility.yul\":3922:3923   */\n      dup3\n        /* \"#utility.yul\":3918:3927   */\n      div\n        /* \"#utility.yul\":3913:3927   */\n      swap1\n      pop\n        /* \"#utility.yul\":3748:3933   */\n      swap3\n      swap2\n      pop\n      pop\n      jump\t// out\n\n    auxdata: 0xa26469706673582212204373addf4380ae524296a3a5b8b473c27d1a54c8f539e5f70b1538c8e53cca9864736f6c634300081a0033\n}\n",
				"bytecode": {
					"linkReferences": {},
					"object": "6080604052348015600e575f80fd5b506103618061001c5f395ff3fe608060405234801561000f575f80fd5b5060043610610034575f3560e01c80630d1e6667146100385780634545ed9f14610068575b5f80fd5b610052600480360381019061004d9190610162565b610098565b60405161005f91906101a7565b60405180910390f35b610082600480360381019061007d9190610162565b6100b3565b60405161008f91906101cf565b60405180910390f35b5f808211156100aa57600190506100ae565b5f90505b919050565b5f600182101580156100c65750600a8211155b610105576040517f08c379a00000000000000000000000000000000000000000000000000000000081526004016100fc90610242565b60405180910390fd5b5f600883610113919061028d565b6107d061012091906102fb565b905080915050919050565b5f80fd5b5f819050919050565b6101418161012f565b811461014b575f80fd5b50565b5f8135905061015c81610138565b92915050565b5f602082840312156101775761017661012b565b5b5f6101848482850161014e565b91505092915050565b5f8115159050919050565b6101a18161018d565b82525050565b5f6020820190506101ba5f830184610198565b92915050565b6101c98161012f565b82525050565b5f6020820190506101e25f8301846101c0565b92915050565b5f82825260208201905092915050565b7f4e6f7420612076616c69642072657075746174696f6e2073636f7265000000005f82015250565b5f61022c601c836101e8565b9150610237826101f8565b602082019050919050565b5f6020820190508181035f83015261025981610220565b9050919050565b7f4e487b71000000000000000000000000000000000000000000000000000000005f52601160045260245ffd5b5f6102978261012f565b91506102a28361012f565b92508282026102b08161012f565b915082820484148315176102c7576102c6610260565b5b5092915050565b7f4e487b71000000000000000000000000000000000000000000000000000000005f52601260045260245ffd5b5f6103058261012f565b91506103108361012f565b9250826103205761031f6102ce565b5b82820490509291505056fea26469706673582212204373addf4380ae524296a3a5b8b473c27d1a54c8f539e5f70b1538c8e53cca9864736f6c634300081a0033",
					"opcodes": "PUSH1 0x80 PUSH1 0x40 MSTORE CALLVALUE DUP1 ISZERO PUSH1 0xE JUMPI PUSH0 DUP1 REVERT JUMPDEST POP PUSH2 0x361 DUP1 PUSH2 0x1C PUSH0 CODECOPY PUSH0 RETURN INVALID PUSH1 0x80 PUSH1 0x40 MSTORE CALLVALUE DUP1 ISZERO PUSH2 0xF JUMPI PUSH0 DUP1 REVERT JUMPDEST POP PUSH1 0x4 CALLDATASIZE LT PUSH2 0x34 JUMPI PUSH0 CALLDATALOAD PUSH1 0xE0 SHR DUP1 PUSH4 0xD1E6667 EQ PUSH2 0x38 JUMPI DUP1 PUSH4 0x4545ED9F EQ PUSH2 0x68 JUMPI JUMPDEST PUSH0 DUP1 REVERT JUMPDEST PUSH2 0x52 PUSH1 0x4 DUP1 CALLDATASIZE SUB DUP2 ADD SWAP1 PUSH2 0x4D SWAP2 SWAP1 PUSH2 0x162 JUMP JUMPDEST PUSH2 0x98 JUMP JUMPDEST PUSH1 0x40 MLOAD PUSH2 0x5F SWAP2 SWAP1 PUSH2 0x1A7 JUMP JUMPDEST PUSH1 0x40 MLOAD DUP1 SWAP2 SUB SWAP1 RETURN JUMPDEST PUSH2 0x82 PUSH1 0x4 DUP1 CALLDATASIZE SUB DUP2 ADD SWAP1 PUSH2 0x7D SWAP2 SWAP1 PUSH2 0x162 JUMP JUMPDEST PUSH2 0xB3 JUMP JUMPDEST PUSH1 0x40 MLOAD PUSH2 0x8F SWAP2 SWAP1 PUSH2 0x1CF JUMP JUMPDEST PUSH1 0x40 MLOAD DUP1 SWAP2 SUB SWAP1 RETURN JUMPDEST PUSH0 DUP1 DUP3 GT ISZERO PUSH2 0xAA JUMPI PUSH1 0x1 SWAP1 POP PUSH2 0xAE JUMP JUMPDEST PUSH0 SWAP1 POP JUMPDEST SWAP2 SWAP1 POP JUMP JUMPDEST PUSH0 PUSH1 0x1 DUP3 LT ISZERO DUP1 ISZERO PUSH2 0xC6 JUMPI POP PUSH1 0xA DUP3 GT ISZERO JUMPDEST PUSH2 0x105 JUMPI PUSH1 0x40 MLOAD PUSH32 0x8C379A000000000000000000000000000000000000000000000000000000000 DUP2 MSTORE PUSH1 0x4 ADD PUSH2 0xFC SWAP1 PUSH2 0x242 JUMP JUMPDEST PUSH1 0x40 MLOAD DUP1 SWAP2 SUB SWAP1 REVERT JUMPDEST PUSH0 PUSH1 0x8 DUP4 PUSH2 0x113 SWAP2 SWAP1 PUSH2 0x28D JUMP JUMPDEST PUSH2 0x7D0 PUSH2 0x120 SWAP2 SWAP1 PUSH2 0x2FB JUMP JUMPDEST SWAP1 POP DUP1 SWAP2 POP POP SWAP2 SWAP1 POP JUMP JUMPDEST PUSH0 DUP1 REVERT JUMPDEST PUSH0 DUP2 SWAP1 POP SWAP2 SWAP1 POP JUMP JUMPDEST PUSH2 0x141 DUP2 PUSH2 0x12F JUMP JUMPDEST DUP2 EQ PUSH2 0x14B JUMPI PUSH0 DUP1 REVERT JUMPDEST POP JUMP JUMPDEST PUSH0 DUP2 CALLDATALOAD SWAP1 POP PUSH2 0x15C DUP2 PUSH2 0x138 JUMP JUMPDEST SWAP3 SWAP2 POP POP JUMP JUMPDEST PUSH0 PUSH1 0x20 DUP3 DUP5 SUB SLT ISZERO PUSH2 0x177 JUMPI PUSH2 0x176 PUSH2 0x12B JUMP JUMPDEST JUMPDEST PUSH0 PUSH2 0x184 DUP5 DUP3 DUP6 ADD PUSH2 0x14E JUMP JUMPDEST SWAP2 POP POP SWAP3 SWAP2 POP POP JUMP JUMPDEST PUSH0 DUP2 ISZERO ISZERO SWAP1 POP SWAP2 SWAP1 POP JUMP JUMPDEST PUSH2 0x1A1 DUP2 PUSH2 0x18D JUMP JUMPDEST DUP3 MSTORE POP POP JUMP JUMPDEST PUSH0 PUSH1 0x20 DUP3 ADD SWAP1 POP PUSH2 0x1BA PUSH0 DUP4 ADD DUP5 PUSH2 0x198 JUMP JUMPDEST SWAP3 SWAP2 POP POP JUMP JUMPDEST PUSH2 0x1C9 DUP2 PUSH2 0x12F JUMP JUMPDEST DUP3 MSTORE POP POP JUMP JUMPDEST PUSH0 PUSH1 0x20 DUP3 ADD SWAP1 POP PUSH2 0x1E2 PUSH0 DUP4 ADD DUP5 PUSH2 0x1C0 JUMP JUMPDEST SWAP3 SWAP2 POP POP JUMP JUMPDEST PUSH0 DUP3 DUP3 MSTORE PUSH1 0x20 DUP3 ADD SWAP1 POP SWAP3 SWAP2 POP POP JUMP JUMPDEST PUSH32 0x4E6F7420612076616C69642072657075746174696F6E2073636F726500000000 PUSH0 DUP3 ADD MSTORE POP JUMP JUMPDEST PUSH0 PUSH2 0x22C PUSH1 0x1C DUP4 PUSH2 0x1E8 JUMP JUMPDEST SWAP2 POP PUSH2 0x237 DUP3 PUSH2 0x1F8 JUMP JUMPDEST PUSH1 0x20 DUP3 ADD SWAP1 POP SWAP2 SWAP1 POP JUMP JUMPDEST PUSH0 PUSH1 0x20 DUP3 ADD SWAP1 POP DUP2 DUP2 SUB PUSH0 DUP4 ADD MSTORE PUSH2 0x259 DUP2 PUSH2 0x220 JUMP JUMPDEST SWAP1 POP SWAP2 SWAP1 POP JUMP JUMPDEST PUSH32 0x4E487B7100000000000000000000000000000000000000000000000000000000 PUSH0 MSTORE PUSH1 0x11 PUSH1 0x4 MSTORE PUSH1 0x24 PUSH0 REVERT JUMPDEST PUSH0 PUSH2 0x297 DUP3 PUSH2 0x12F JUMP JUMPDEST SWAP2 POP PUSH2 0x2A2 DUP4 PUSH2 0x12F JUMP JUMPDEST SWAP3 POP DUP3 DUP3 MUL PUSH2 0x2B0 DUP2 PUSH2 0x12F JUMP JUMPDEST SWAP2 POP DUP3 DUP3 DIV DUP5 EQ DUP4 ISZERO OR PUSH2 0x2C7 JUMPI PUSH2 0x2C6 PUSH2 0x260 JUMP JUMPDEST JUMPDEST POP SWAP3 SWAP2 POP POP JUMP JUMPDEST PUSH32 0x4E487B7100000000000000000000000000000000000000000000000000000000 PUSH0 MSTORE PUSH1 0x12 PUSH1 0x4 MSTORE PUSH1 0x24 PUSH0 REVERT JUMPDEST PUSH0 PUSH2 0x305 DUP3 PUSH2 0x12F JUMP JUMPDEST SWAP2 POP PUSH2 0x310 DUP4 PUSH2 0x12F JUMP JUMPDEST SWAP3 POP DUP3 PUSH2 0x320 JUMPI PUSH2 0x31F PUSH2 0x2CE JUMP JUMPDEST JUMPDEST DUP3 DUP3 DIV SWAP1 POP SWAP3 SWAP2 POP POP JUMP INVALID LOG2 PUSH5 0x6970667358 0x22 SLT KECCAK256 NUMBER PUSH20 0xADDF4380AE524296A3A5B8B473C27D1A54C8F539 0xE5 0xF7 SIGNEXTEND ISZERO CODESIZE 0xC8 0xE5 EXTCODECOPY 0xCA SWAP9 PUSH5 0x736F6C6343 STOP ADDMOD BYTE STOP CALLER "
				},
				"gasEstimates": {
					"creation": {
						"codeDepositCost": "173000",
						"executionCost": "218",
						"totalCost": "173218"
					},
					"external": {
						"depositCalculator(uint256)": "infinite",
						"requestDeposit(uint256)": "614"
					}
				},
				"methodIdentifiers": {
					"depositCalculator(uint256)": "4545ed9f",
					"requestDeposit(uint256)": "0d1e6667"
				}
			},
			"storageLayout": {
				"storage": [],
				"types": null
			},
			"userdoc": {
				"kind": "user",
				"methods": {},
				"version": 1
			}
		}
	}
}