{
	"Carbon-Credits-Verification-with-Blockchain-main/contracts/test.sol": {
		"Sender": {
			"abi": [
				{
					"inputs": [
						{
							"internalType": "address payable",
							"name": "receiverAddress",
							"type": "address"
						}
					],
					"name": "sendEther",
					"outputs": [],
					"stateMutability": "payable",
					"type": "function"
				}
			],
			"devdoc": {
				"kind": "dev",
				"methods": {},
				"version": 1
			},
			"evm": {
				"assembly": "    /* \"Carbon-Credits-Verification-with-Blockchain-main/contracts/test.sol\":2714:3036  contract Sender {... */\n  mstore(0x40, 0x80)\n  callvalue\n  dup1\n  iszero\n  tag_1\n  jumpi\n  0x00\n  dup1\n  revert\ntag_1:\n  pop\n  dataSize(sub_0)\n  dup1\n  dataOffset(sub_0)\n  0x00\n  codecopy\n  0x00\n  return\nstop\n\nsub_0: assembly {\n        /* \"Carbon-Credits-Verification-with-Blockchain-main/contracts/test.sol\":2714:3036  contract Sender {... */\n      mstore(0x40, 0x80)\n      jumpi(tag_1, lt(calldatasize, 0x04))\n      shr(0xe0, calldataload(0x00))\n      dup1\n      0x48c981e2\n      eq\n      tag_2\n      jumpi\n    tag_1:\n      0x00\n      dup1\n      revert\n        /* \"Carbon-Credits-Verification-with-Blockchain-main/contracts/test.sol\":2736:3034  function sendEther(address payable receiverAddress) public payable {... */\n    tag_2:\n      tag_3\n      0x04\n      dup1\n      calldatasize\n      sub\n      dup2\n      add\n      swap1\n      tag_4\n      swap2\n      swap1\n      tag_5\n      jump\t// in\n    tag_4:\n      tag_6\n      jump\t// in\n    tag_3:\n      stop\n    tag_6:\n        /* \"Carbon-Credits-Verification-with-Blockchain-main/contracts/test.sol\":2921:2933  bool success */\n      0x00\n        /* \"Carbon-Credits-Verification-with-Blockchain-main/contracts/test.sol\":2939:2954  receiverAddress */\n      dup2\n        /* \"Carbon-Credits-Verification-with-Blockchain-main/contracts/test.sol\":2939:2959  receiverAddress.call */\n      0xffffffffffffffffffffffffffffffffffffffff\n      and\n        /* \"Carbon-Credits-Verification-with-Blockchain-main/contracts/test.sol\":2967:2976  msg.value */\n      callvalue\n        /* \"Carbon-Credits-Verification-with-Blockchain-main/contracts/test.sol\":2939:2981  receiverAddress.call{value: msg.value}(\"\") */\n      mload(0x40)\n      tag_8\n      swap1\n      tag_9\n      jump\t// in\n    tag_8:\n      0x00\n      mload(0x40)\n      dup1\n      dup4\n      sub\n      dup2\n      dup6\n      dup8\n      gas\n      call\n      swap3\n      pop\n      pop\n      pop\n      returndatasize\n      dup1\n      0x00\n      dup2\n      eq\n      tag_12\n      jumpi\n      mload(0x40)\n      swap2\n      pop\n      and(add(returndatasize, 0x3f), not(0x1f))\n      dup3\n      add\n      0x40\n      mstore\n      returndatasize\n      dup3\n      mstore\n      returndatasize\n      0x00\n      0x20\n      dup5\n      add\n      returndatacopy\n      jump(tag_11)\n    tag_12:\n      0x60\n      swap2\n      pop\n    tag_11:\n      pop\n        /* \"Carbon-Credits-Verification-with-Blockchain-main/contracts/test.sol\":2920:2981  (bool success, ) = receiverAddress.call{value: msg.value}(\"\") */\n      pop\n      swap1\n      pop\n        /* \"Carbon-Credits-Verification-with-Blockchain-main/contracts/test.sol\":2999:3006  success */\n      dup1\n        /* \"Carbon-Credits-Verification-with-Blockchain-main/contracts/test.sol\":2991:3027  require(success, \"Transfer failed.\") */\n      tag_13\n      jumpi\n      mload(0x40)\n      0x08c379a000000000000000000000000000000000000000000000000000000000\n      dup2\n      mstore\n      0x04\n      add\n      tag_14\n      swap1\n      tag_15\n      jump\t// in\n    tag_14:\n      mload(0x40)\n      dup1\n      swap2\n      sub\n      swap1\n      revert\n    tag_13:\n        /* \"Carbon-Credits-Verification-with-Blockchain-main/contracts/test.sol\":2803:3034  {... */\n      pop\n        /* \"Carbon-Credits-Verification-with-Blockchain-main/contracts/test.sol\":2736:3034  function sendEther(address payable receiverAddress) public payable {... */\n      pop\n      jump\t// out\n        /* \"#utility.yul\":88:205   */\n    tag_17:\n        /* \"#utility.yul\":197:198   */\n      0x00\n        /* \"#utility.yul\":194:195   */\n      dup1\n        /* \"#utility.yul\":187:199   */\n      revert\n        /* \"#utility.yul\":334:460   */\n    tag_19:\n        /* \"#utility.yul\":371:378   */\n      0x00\n        /* \"#utility.yul\":411:453   */\n      0xffffffffffffffffffffffffffffffffffffffff\n        /* \"#utility.yul\":404:409   */\n      dup3\n        /* \"#utility.yul\":400:454   */\n      and\n        /* \"#utility.yul\":389:454   */\n      swap1\n      pop\n        /* \"#utility.yul\":334:460   */\n      swap2\n      swap1\n      pop\n      jump\t// out\n        /* \"#utility.yul\":466:570   */\n    tag_20:\n        /* \"#utility.yul\":511:518   */\n      0x00\n        /* \"#utility.yul\":540:564   */\n      tag_35\n        /* \"#utility.yul\":558:563   */\n      dup3\n        /* \"#utility.yul\":540:564   */\n      tag_19\n      jump\t// in\n    tag_35:\n        /* \"#utility.yul\":529:564   */\n      swap1\n      pop\n        /* \"#utility.yul\":466:570   */\n      swap2\n      swap1\n      pop\n      jump\t// out\n        /* \"#utility.yul\":576:714   */\n    tag_21:\n        /* \"#utility.yul\":657:689   */\n      tag_37\n        /* \"#utility.yul\":683:688   */\n      dup2\n        /* \"#utility.yul\":657:689   */\n      tag_20\n      jump\t// in\n    tag_37:\n        /* \"#utility.yul\":650:655   */\n      dup2\n        /* \"#utility.yul\":647:690   */\n      eq\n        /* \"#utility.yul\":637:708   */\n      tag_38\n      jumpi\n        /* \"#utility.yul\":704:705   */\n      0x00\n        /* \"#utility.yul\":701:702   */\n      dup1\n        /* \"#utility.yul\":694:706   */\n      revert\n        /* \"#utility.yul\":637:708   */\n    tag_38:\n        /* \"#utility.yul\":576:714   */\n      pop\n      jump\t// out\n        /* \"#utility.yul\":720:875   */\n    tag_22:\n        /* \"#utility.yul\":774:779   */\n      0x00\n        /* \"#utility.yul\":812:818   */\n      dup2\n        /* \"#utility.yul\":799:819   */\n      calldataload\n        /* \"#utility.yul\":790:819   */\n      swap1\n      pop\n        /* \"#utility.yul\":828:869   */\n      tag_40\n        /* \"#utility.yul\":863:868   */\n      dup2\n        /* \"#utility.yul\":828:869   */\n      tag_21\n      jump\t// in\n    tag_40:\n        /* \"#utility.yul\":720:875   */\n      swap3\n      swap2\n      pop\n      pop\n      jump\t// out\n        /* \"#utility.yul\":881:1226   */\n    tag_5:\n        /* \"#utility.yul\":948:954   */\n      0x00\n        /* \"#utility.yul\":997:999   */\n      0x20\n        /* \"#utility.yul\":985:994   */\n      dup3\n        /* \"#utility.yul\":976:983   */\n      dup5\n        /* \"#utility.yul\":972:995   */\n      sub\n        /* \"#utility.yul\":968:1000   */\n      slt\n        /* \"#utility.yul\":965:1084   */\n      iszero\n      tag_42\n      jumpi\n        /* \"#utility.yul\":1003:1082   */\n      tag_43\n      tag_17\n      jump\t// in\n    tag_43:\n        /* \"#utility.yul\":965:1084   */\n    tag_42:\n        /* \"#utility.yul\":1123:1124   */\n      0x00\n        /* \"#utility.yul\":1148:1209   */\n      tag_44\n        /* \"#utility.yul\":1201:1208   */\n      dup5\n        /* \"#utility.yul\":1192:1198   */\n      dup3\n        /* \"#utility.yul\":1181:1190   */\n      dup6\n        /* \"#utility.yul\":1177:1199   */\n      add\n        /* \"#utility.yul\":1148:1209   */\n      tag_22\n      jump\t// in\n    tag_44:\n        /* \"#utility.yul\":1138:1209   */\n      swap2\n      pop\n        /* \"#utility.yul\":1094:1219   */\n      pop\n        /* \"#utility.yul\":881:1226   */\n      swap3\n      swap2\n      pop\n      pop\n      jump\t// out\n        /* \"#utility.yul\":1232:1379   */\n    tag_23:\n        /* \"#utility.yul\":1333:1344   */\n      0x00\n        /* \"#utility.yul\":1370:1373   */\n      dup2\n        /* \"#utility.yul\":1355:1373   */\n      swap1\n      pop\n        /* \"#utility.yul\":1232:1379   */\n      swap3\n      swap2\n      pop\n      pop\n      jump\t// out\n        /* \"#utility.yul\":1385:1499   */\n    tag_24:\n      pop\n      jump\t// out\n        /* \"#utility.yul\":1505:1903   */\n    tag_25:\n        /* \"#utility.yul\":1664:1667   */\n      0x00\n        /* \"#utility.yul\":1685:1768   */\n      tag_48\n        /* \"#utility.yul\":1766:1767   */\n      0x00\n        /* \"#utility.yul\":1761:1764   */\n      dup4\n        /* \"#utility.yul\":1685:1768   */\n      tag_23\n      jump\t// in\n    tag_48:\n        /* \"#utility.yul\":1678:1768   */\n      swap2\n      pop\n        /* \"#utility.yul\":1777:1870   */\n      tag_49\n        /* \"#utility.yul\":1866:1869   */\n      dup3\n        /* \"#utility.yul\":1777:1870   */\n      tag_24\n      jump\t// in\n    tag_49:\n        /* \"#utility.yul\":1895:1896   */\n      0x00\n        /* \"#utility.yul\":1890:1893   */\n      dup3\n        /* \"#utility.yul\":1886:1897   */\n      add\n        /* \"#utility.yul\":1879:1897   */\n      swap1\n      pop\n        /* \"#utility.yul\":1505:1903   */\n      swap2\n      swap1\n      pop\n      jump\t// out\n        /* \"#utility.yul\":1909:2288   */\n    tag_9:\n        /* \"#utility.yul\":2093:2096   */\n      0x00\n        /* \"#utility.yul\":2115:2262   */\n      tag_51\n        /* \"#utility.yul\":2258:2261   */\n      dup3\n        /* \"#utility.yul\":2115:2262   */\n      tag_25\n      jump\t// in\n    tag_51:\n        /* \"#utility.yul\":2108:2262   */\n      swap2\n      pop\n        /* \"#utility.yul\":2279:2282   */\n      dup2\n        /* \"#utility.yul\":2272:2282   */\n      swap1\n      pop\n        /* \"#utility.yul\":1909:2288   */\n      swap2\n      swap1\n      pop\n      jump\t// out\n        /* \"#utility.yul\":2294:2463   */\n    tag_26:\n        /* \"#utility.yul\":2378:2389   */\n      0x00\n        /* \"#utility.yul\":2412:2418   */\n      dup3\n        /* \"#utility.yul\":2407:2410   */\n      dup3\n        /* \"#utility.yul\":2400:2419   */\n      mstore\n        /* \"#utility.yul\":2452:2456   */\n      0x20\n        /* \"#utility.yul\":2447:2450   */\n      dup3\n        /* \"#utility.yul\":2443:2457   */\n      add\n        /* \"#utility.yul\":2428:2457   */\n      swap1\n      pop\n        /* \"#utility.yul\":2294:2463   */\n      swap3\n      swap2\n      pop\n      pop\n      jump\t// out\n        /* \"#utility.yul\":2469:2635   */\n    tag_27:\n        /* \"#utility.yul\":2609:2627   */\n      0x5472616e73666572206661696c65642e00000000000000000000000000000000\n        /* \"#utility.yul\":2605:2606   */\n      0x00\n        /* \"#utility.yul\":2597:2603   */\n      dup3\n        /* \"#utility.yul\":2593:2607   */\n      add\n        /* \"#utility.yul\":2586:2628   */\n      mstore\n        /* \"#utility.yul\":2469:2635   */\n      pop\n      jump\t// out\n        /* \"#utility.yul\":2641:3007   */\n    tag_28:\n        /* \"#utility.yul\":2783:2786   */\n      0x00\n        /* \"#utility.yul\":2804:2871   */\n      tag_55\n        /* \"#utility.yul\":2868:2870   */\n      0x10\n        /* \"#utility.yul\":2863:2866   */\n      dup4\n        /* \"#utility.yul\":2804:2871   */\n      tag_26\n      jump\t// in\n    tag_55:\n        /* \"#utility.yul\":2797:2871   */\n      swap2\n      pop\n        /* \"#utility.yul\":2880:2973   */\n      tag_56\n        /* \"#utility.yul\":2969:2972   */\n      dup3\n        /* \"#utility.yul\":2880:2973   */\n      tag_27\n      jump\t// in\n    tag_56:\n        /* \"#utility.yul\":2998:3000   */\n      0x20\n        /* \"#utility.yul\":2993:2996   */\n      dup3\n        /* \"#utility.yul\":2989:3001   */\n      add\n        /* \"#utility.yul\":2982:3001   */\n      swap1\n      pop\n        /* \"#utility.yul\":2641:3007   */\n      swap2\n      swap1\n      pop\n      jump\t// out\n        /* \"#utility.yul\":3013:3432   */\n    tag_15:\n        /* \"#utility.yul\":3179:3183   */\n      0x00\n        /* \"#utility.yul\":3217:3219   */\n      0x20\n        /* \"#utility.yul\":3206:3215   */\n      dup3\n        /* \"#utility.yul\":3202:3220   */\n      add\n        /* \"#utility.yul\":3194:3220   */\n      swap1\n      pop\n        /* \"#utility.yul\":3266:3275   */\n      dup2\n        /* \"#utility.yul\":3260:3264   */\n      dup2\n        /* \"#utility.yul\":3256:3276   */\n      sub\n        /* \"#utility.yul\":3252:3253   */\n      0x00\n        /* \"#utility.yul\":3241:3250   */\n      dup4\n        /* \"#utility.yul\":3237:3254   */\n      add\n        /* \"#utility.yul\":3230:3277   */\n      mstore\n        /* \"#utility.yul\":3294:3425   */\n      tag_58\n        /* \"#utility.yul\":3420:3424   */\n      dup2\n        /* \"#utility.yul\":3294:3425   */\n      tag_28\n      jump\t// in\n    tag_58:\n        /* \"#utility.yul\":3286:3425   */\n      swap1\n      pop\n        /* \"#utility.yul\":3013:3432   */\n      swap2\n      swap1\n      pop\n      jump\t// out\n\n    auxdata: 0xa26469706673582212206ddfe3f0541136f17c69a5aada0d4fc1da76894af540b0f12843f497df25f33d64736f6c634300081a0033\n}\n",
				"bytecode": {
					"linkReferences": {},
					"object": "6080604052348015600e575f80fd5b506102618061001c5f395ff3fe60806040526004361061001d575f3560e01c806348c981e214610021575b5f80fd5b61003b60048036038101906100369190610147565b61003d565b005b5f8173ffffffffffffffffffffffffffffffffffffffff16346040516100629061019f565b5f6040518083038185875af1925050503d805f811461009c576040519150601f19603f3d011682016040523d82523d5f602084013e6100a1565b606091505b50509050806100e5576040517f08c379a00000000000000000000000000000000000000000000000000000000081526004016100dc9061020d565b60405180910390fd5b5050565b5f80fd5b5f73ffffffffffffffffffffffffffffffffffffffff82169050919050565b5f610116826100ed565b9050919050565b6101268161010c565b8114610130575f80fd5b50565b5f813590506101418161011d565b92915050565b5f6020828403121561015c5761015b6100e9565b5b5f61016984828501610133565b91505092915050565b5f81905092915050565b50565b5f61018a5f83610172565b91506101958261017c565b5f82019050919050565b5f6101a98261017f565b9150819050919050565b5f82825260208201905092915050565b7f5472616e73666572206661696c65642e000000000000000000000000000000005f82015250565b5f6101f76010836101b3565b9150610202826101c3565b602082019050919050565b5f6020820190508181035f830152610224816101eb565b905091905056fea26469706673582212206ddfe3f0541136f17c69a5aada0d4fc1da76894af540b0f12843f497df25f33d64736f6c634300081a0033",
					"opcodes": "PUSH1 0x80 PUSH1 0x40 MSTORE CALLVALUE DUP1 ISZERO PUSH1 0xE JUMPI PUSH0 DUP1 REVERT JUMPDEST POP PUSH2 0x261 DUP1 PUSH2 0x1C PUSH0 CODECOPY PUSH0 RETURN INVALID PUSH1 0x80 PUSH1 0x40 MSTORE PUSH1 0x4 CALLDATASIZE LT PUSH2 0x1D JUMPI PUSH0 CALLDATALOAD PUSH1 0xE0 SHR DUP1 PUSH4 0x48C981E2 EQ PUSH2 0x21 JUMPI JUMPDEST PUSH0 DUP1 REVERT JUMPDEST PUSH2 0x3B PUSH1 0x4 DUP1 CALLDATASIZE SUB DUP2 ADD SWAP1 PUSH2 0x36 SWAP2 SWAP1 PUSH2 0x147 JUMP JUMPDEST PUSH2 0x3D JUMP JUMPDEST STOP JUMPDEST PUSH0 DUP2 PUSH20 0xFFFFFFFFFFFFFFFFFFFFFFFFFFFFFFFFFFFFFFFF AND CALLVALUE PUSH1 0x40 MLOAD PUSH2 0x62 SWAP1 PUSH2 0x19F JUMP JUMPDEST PUSH0 PUSH1 0x40 MLOAD DUP1 DUP4 SUB DUP2 DUP6 DUP8 GAS CALL SWAP3 POP POP POP RETURNDATASIZE DUP1 PUSH0 DUP2 EQ PUSH2 0x9C JUMPI PUSH1 0x40 MLOAD SWAP2 POP PUSH1 0x1F NOT PUSH1 0x3F RETURNDATASIZE ADD AND DUP3 ADD PUSH1 0x40 MSTORE RETURNDATASIZE DUP3 MSTORE RETURNDATASIZE PUSH0 PUSH1 0x20 DUP5 ADD RETURNDATACOPY PUSH2 0xA1 JUMP JUMPDEST PUSH1 0x60 SWAP2 POP JUMPDEST POP POP SWAP1 POP DUP1 PUSH2 0xE5 JUMPI PUSH1 0x40 MLOAD PUSH32 0x8C379A000000000000000000000000000000000000000000000000000000000 DUP2 MSTORE PUSH1 0x4 ADD PUSH2 0xDC SWAP1 PUSH2 0x20D JUMP JUMPDEST PUSH1 0x40 MLOAD DUP1 SWAP2 SUB SWAP1 REVERT JUMPDEST POP POP JUMP JUMPDEST PUSH0 DUP1 REVERT JUMPDEST PUSH0 PUSH20 0xFFFFFFFFFFFFFFFFFFFFFFFFFFFFFFFFFFFFFFFF DUP3 AND SWAP1 POP SWAP2 SWAP1 POP JUMP JUMPDEST PUSH0 PUSH2 0x116 DUP3 PUSH2 0xED JUMP JUMPDEST SWAP1 POP SWAP2 SWAP1 POP JUMP JUMPDEST PUSH2 0x126 DUP2 PUSH2 0x10C JUMP JUMPDEST DUP2 EQ PUSH2 0x130 JUMPI PUSH0 DUP1 REVERT JUMPDEST POP JUMP JUMPDEST PUSH0 DUP2 CALLDATALOAD SWAP1 POP PUSH2 0x141 DUP2 PUSH2 0x11D JUMP JUMPDEST SWAP3 SWAP2 POP POP JUMP JUMPDEST PUSH0 PUSH1 0x20 DUP3 DUP5 SUB SLT ISZERO PUSH2 0x15C JUMPI PUSH2 0x15B PUSH2 0xE9 JUMP JUMPDEST JUMPDEST PUSH0 PUSH2 0x169 DUP5 DUP3 DUP6 ADD PUSH2 0x133 JUMP JUMPDEST SWAP2 POP POP SWAP3 SWAP2 POP POP JUMP JUMPDEST PUSH0 DUP2 SWAP1 POP SWAP3 SWAP2 POP POP JUMP JUMPDEST POP JUMP JUMPDEST PUSH0 PUSH2 0x18A PUSH0 DUP4 PUSH2 0x172 JUMP JUMPDEST SWAP2 POP PUSH2 0x195 DUP3 PUSH2 0x17C JUMP JUMPDEST PUSH0 DUP3 ADD SWAP1 POP SWAP2 SWAP1 POP JUMP JUMPDEST PUSH0 PUSH2 0x1A9 DUP3 PUSH2 0x17F JUMP JUMPDEST SWAP2 POP DUP2 SWAP1 POP SWAP2 SWAP1 POP JUMP JUMPDEST PUSH0 DUP3 DUP3 MSTORE PUSH1 0x20 DUP3 ADD SWAP1 POP SWAP3 SWAP2 POP POP JUMP JUMPDEST PUSH32 0x5472616E73666572206661696C65642E00000000000000000000000000000000 PUSH0 DUP3 ADD MSTORE POP JUMP JUMPDEST PUSH0 PUSH2 0x1F7 PUSH1 0x10 DUP4 PUSH2 0x1B3 JUMP JUMPDEST SWAP2 POP PUSH2 0x202 DUP3 PUSH2 0x1C3 JUMP JUMPDEST PUSH1 0x20 DUP3 ADD SWAP1 POP SWAP2 SWAP1 POP JUMP JUMPDEST PUSH0 PUSH1 0x20 DUP3 ADD SWAP1 POP DUP2 DUP2 SUB PUSH0 DUP4 ADD MSTORE PUSH2 0x224 DUP2 PUSH2 0x1EB JUMP JUMPDEST SWAP1 POP SWAP2 SWAP1 POP JUMP INVALID LOG2 PUSH5 0x6970667358 0x22 SLT KECCAK256 PUSH14 0xDFE3F0541136F17C69A5AADA0D4F 0xC1 0xDA PUSH23 0x894AF540B0F12843F497DF25F33D64736F6C634300081A STOP CALLER "
				},
				"gasEstimates": {
					"creation": {
						"codeDepositCost": "121800",
						"executionCost": "169",
						"totalCost": "121969"
					},
					"external": {
						"sendEther(address)": "infinite"
					}
				},
				"methodIdentifiers": {
					"sendEther(address)": "48c981e2"
				}
			},
			"storageLayout": {
				"storage": [],
				"types": null
			},
			"userdoc": {
				"kind": "user",
				"methods": {},
				"version": 1
			}
		}
	}
}