{
	"docs.chain.link/samples/APIRequests/MultiWordConsumer.sol": {
		"MultiWordConsumer": {
			"abi": [
				{
					"inputs": [],
					"stateMutability": "nonpayable",
					"type": "constructor"
				},
				{
					"anonymous": false,
					"inputs": [
						{
							"indexed": true,
							"internalType": "bytes32",
							"name": "id",
							"type": "bytes32"
						}
					],
					"name": "ChainlinkCancelled",
					"type": "event"
				},
				{
					"anonymous": false,
					"inputs": [
						{
							"indexed": true,
							"internalType": "bytes32",
							"name": "id",
							"type": "bytes32"
						}
					],
					"name": "ChainlinkFulfilled",
					"type": "event"
				},
				{
					"anonymous": false,
					"inputs": [
						{
							"indexed": true,
							"internalType": "bytes32",
							"name": "id",
							"type": "bytes32"
						}
					],
					"name": "ChainlinkRequested",
					"type": "event"
				},
				{
					"anonymous": false,
					"inputs": [
						{
							"indexed": true,
							"internalType": "address",
							"name": "from",
							"type": "address"
						},
						{
							"indexed": true,
							"internalType": "address",
							"name": "to",
							"type": "address"
						}
					],
					"name": "OwnershipTransferRequested",
					"type": "event"
				},
				{
					"anonymous": false,
					"inputs": [
						{
							"indexed": true,
							"internalType": "address",
							"name": "from",
							"type": "address"
						},
						{
							"indexed": true,
							"internalType": "address",
							"name": "to",
							"type": "address"
						}
					],
					"name": "OwnershipTransferred",
					"type": "event"
				},
				{
					"anonymous": false,
					"inputs": [
						{
							"indexed": true,
							"internalType": "bytes32",
							"name": "requestId",
							"type": "bytes32"
						},
						{
							"indexed": false,
							"internalType": "uint256",
							"name": "btc",
							"type": "uint256"
						},
						{
							"indexed": false,
							"internalType": "uint256",
							"name": "usd",
							"type": "uint256"
						},
						{
							"indexed": false,
							"internalType": "uint256",
							"name": "eur",
							"type": "uint256"
						}
					],
					"name": "RequestMultipleFulfilled",
					"type": "event"
				},
				{
					"inputs": [],
					"name": "acceptOwnership",
					"outputs": [],
					"stateMutability": "nonpayable",
					"type": "function"
				},
				{
					"inputs": [],
					"name": "btc",
					"outputs": [
						{
							"internalType": "uint256",
							"name": "",
							"type": "uint256"
						}
					],
					"stateMutability": "view",
					"type": "function"
				},
				{
					"inputs": [],
					"name": "eur",
					"outputs": [
						{
							"internalType": "uint256",
							"name": "",
							"type": "uint256"
						}
					],
					"stateMutability": "view",
					"type": "function"
				},
				{
					"inputs": [
						{
							"internalType": "bytes32",
							"name": "requestId",
							"type": "bytes32"
						},
						{
							"internalType": "uint256",
							"name": "btcResponse",
							"type": "uint256"
						},
						{
							"internalType": "uint256",
							"name": "usdResponse",
							"type": "uint256"
						},
						{
							"internalType": "uint256",
							"name": "eurResponse",
							"type": "uint256"
						}
					],
					"name": "fulfillMultipleParameters",
					"outputs": [],
					"stateMutability": "nonpayable",
					"type": "function"
				},
				{
					"inputs": [],
					"name": "owner",
					"outputs": [
						{
							"internalType": "address",
							"name": "",
							"type": "address"
						}
					],
					"stateMutability": "view",
					"type": "function"
				},
				{
					"inputs": [],
					"name": "requestMultipleParameters",
					"outputs": [],
					"stateMutability": "nonpayable",
					"type": "function"
				},
				{
					"inputs": [
						{
							"internalType": "address",
							"name": "to",
							"type": "address"
						}
					],
					"name": "transferOwnership",
					"outputs": [],
					"stateMutability": "nonpayable",
					"type": "function"
				},
				{
					"inputs": [],
					"name": "usd",
					"outputs": [
						{
							"internalType": "uint256",
							"name": "",
							"type": "uint256"
						}
					],
					"stateMutability": "view",
					"type": "function"
				},
				{
					"inputs": [],
					"name": "withdrawLink",
					"outputs": [],
					"stateMutability": "nonpayable",
					"type": "function"
				}
			],
			"devdoc": {
				"kind": "dev",
				"methods": {
					"constructor": {
						"details": "The oracle address must be an Operator contract for multiword response Sepolia Testnet details: Link Token: 0x779877A7B0D9E8603169DdbD7836e478b4624789 Oracle: 0x6090149792dAAeE9D1D568c9f9a6F6B46AA29eFD (Chainlink DevRel) jobId: 53f9755920cd451a8fe46f5087468395"
					},
					"fulfillMultipleParameters(bytes32,uint256,uint256,uint256)": {
						"details": "This is called by the oracle. recordChainlinkFulfillment must be used."
					}
				},
				"version": 1
			},
			"evm": {
				"assembly": "    /* \"docs.chain.link/samples/APIRequests/MultiWordConsumer.sol\":764:3767  contract MultiWordConsumer is ChainlinkClient, ConfirmedOwner {... */\n  mstore(0x40, 0x80)\n    /* \"@chainlink/contracts@1.3.0/src/v0.8/ChainlinkClient.sol\":1482:1483  1 */\n  0x01\n    /* \"@chainlink/contracts@1.3.0/src/v0.8/ChainlinkClient.sol\":1449:1483  uint256 private s_requestCount = 1 */\n  0x04\n  sstore\n    /* \"docs.chain.link/samples/APIRequests/MultiWordConsumer.sol\":1600:1933  constructor() ConfirmedOwner(msg.sender) {... */\n  callvalue\n  dup1\n  iszero\n  tag_1\n  jumpi\n  0x00\n  dup1\n  revert\ntag_1:\n  pop\n    /* \"docs.chain.link/samples/APIRequests/MultiWordConsumer.sol\":1629:1639  msg.sender */\n  caller\n    /* \"@chainlink/contracts@1.3.0/src/v0.8/shared/access/ConfirmedOwner.sol\":355:363  newOwner */\n  dup1\n    /* \"@chainlink/contracts@1.3.0/src/v0.8/shared/access/ConfirmedOwner.sol\":373:374  0 */\n  0x00\n    /* \"@chainlink/contracts@1.3.0/src/v0.8/shared/access/ConfirmedOwnerWithProposal.sol\":618:619  0 */\n  dup1\n    /* \"@chainlink/contracts@1.3.0/src/v0.8/shared/access/ConfirmedOwnerWithProposal.sol\":598:620  newOwner != address(0) */\n  0xffffffffffffffffffffffffffffffffffffffff\n  and\n    /* \"@chainlink/contracts@1.3.0/src/v0.8/shared/access/ConfirmedOwnerWithProposal.sol\":598:606  newOwner */\n  dup3\n    /* \"@chainlink/contracts@1.3.0/src/v0.8/shared/access/ConfirmedOwnerWithProposal.sol\":598:620  newOwner != address(0) */\n  0xffffffffffffffffffffffffffffffffffffffff\n  and\n  sub\n    /* \"@chainlink/contracts@1.3.0/src/v0.8/shared/access/ConfirmedOwnerWithProposal.sol\":590:649  require(newOwner != address(0), \"Cannot set owner to zero\") */\n  tag_6\n  jumpi\n  mload(0x40)\n  0x08c379a000000000000000000000000000000000000000000000000000000000\n  dup2\n  mstore\n  0x04\n  add\n  tag_7\n  swap1\n  tag_8\n  jump\t// in\ntag_7:\n  mload(0x40)\n  dup1\n  swap2\n  sub\n  swap1\n  revert\ntag_6:\n    /* \"@chainlink/contracts@1.3.0/src/v0.8/shared/access/ConfirmedOwnerWithProposal.sol\":666:674  newOwner */\n  dup2\n    /* \"@chainlink/contracts@1.3.0/src/v0.8/shared/access/ConfirmedOwnerWithProposal.sol\":656:663  s_owner */\n  0x06\n  0x00\n    /* \"@chainlink/contracts@1.3.0/src/v0.8/shared/access/ConfirmedOwnerWithProposal.sol\":656:674  s_owner = newOwner */\n  0x0100\n  exp\n  dup2\n  sload\n  dup2\n  0xffffffffffffffffffffffffffffffffffffffff\n  mul\n  not\n  and\n  swap1\n  dup4\n  0xffffffffffffffffffffffffffffffffffffffff\n  and\n  mul\n  or\n  swap1\n  sstore\n  pop\n    /* \"@chainlink/contracts@1.3.0/src/v0.8/shared/access/ConfirmedOwnerWithProposal.sol\":708:709  0 */\n  0x00\n    /* \"@chainlink/contracts@1.3.0/src/v0.8/shared/access/ConfirmedOwnerWithProposal.sol\":684:710  pendingOwner != address(0) */\n  0xffffffffffffffffffffffffffffffffffffffff\n  and\n    /* \"@chainlink/contracts@1.3.0/src/v0.8/shared/access/ConfirmedOwnerWithProposal.sol\":684:696  pendingOwner */\n  dup2\n    /* \"@chainlink/contracts@1.3.0/src/v0.8/shared/access/ConfirmedOwnerWithProposal.sol\":684:710  pendingOwner != address(0) */\n  0xffffffffffffffffffffffffffffffffffffffff\n  and\n  eq\n    /* \"@chainlink/contracts@1.3.0/src/v0.8/shared/access/ConfirmedOwnerWithProposal.sol\":680:759  if (pendingOwner != address(0)) {... */\n  tag_9\n  jumpi\n    /* \"@chainlink/contracts@1.3.0/src/v0.8/shared/access/ConfirmedOwnerWithProposal.sol\":720:752  _transferOwnership(pendingOwner) */\n  tag_10\n    /* \"@chainlink/contracts@1.3.0/src/v0.8/shared/access/ConfirmedOwnerWithProposal.sol\":739:751  pendingOwner */\n  dup2\n    /* \"@chainlink/contracts@1.3.0/src/v0.8/shared/access/ConfirmedOwnerWithProposal.sol\":720:738  _transferOwnership */\n  shl(0x20, tag_11)\n    /* \"@chainlink/contracts@1.3.0/src/v0.8/shared/access/ConfirmedOwnerWithProposal.sol\":720:752  _transferOwnership(pendingOwner) */\n  0x20\n  shr\n  jump\t// in\ntag_10:\n    /* \"@chainlink/contracts@1.3.0/src/v0.8/shared/access/ConfirmedOwnerWithProposal.sol\":680:759  if (pendingOwner != address(0)) {... */\ntag_9:\n    /* \"@chainlink/contracts@1.3.0/src/v0.8/shared/access/ConfirmedOwnerWithProposal.sol\":481:763  constructor(address newOwner, address pendingOwner) {... */\n  pop\n  pop\n    /* \"@chainlink/contracts@1.3.0/src/v0.8/shared/access/ConfirmedOwner.sol\":298:379  constructor(address newOwner) ConfirmedOwnerWithProposal(newOwner, address(0)) {} */\n  pop\n    /* \"docs.chain.link/samples/APIRequests/MultiWordConsumer.sol\":1651:1713  _setChainlinkToken(0x779877A7B0D9E8603169DdbD7836e478b4624789) */\n  tag_14\n    /* \"docs.chain.link/samples/APIRequests/MultiWordConsumer.sol\":1670:1712  0x779877A7B0D9E8603169DdbD7836e478b4624789 */\n  0x779877a7b0d9e8603169ddbd7836e478b4624789\n    /* \"docs.chain.link/samples/APIRequests/MultiWordConsumer.sol\":1651:1669  _setChainlinkToken */\n  shl(0x20, tag_15)\n    /* \"docs.chain.link/samples/APIRequests/MultiWordConsumer.sol\":1651:1713  _setChainlinkToken(0x779877A7B0D9E8603169DdbD7836e478b4624789) */\n  0x20\n  shr\n  jump\t// in\ntag_14:\n    /* \"docs.chain.link/samples/APIRequests/MultiWordConsumer.sol\":1723:1786  _setChainlinkOracle(0x6090149792dAAeE9D1D568c9f9a6F6B46AA29eFD) */\n  tag_16\n    /* \"docs.chain.link/samples/APIRequests/MultiWordConsumer.sol\":1743:1785  0x6090149792dAAeE9D1D568c9f9a6F6B46AA29eFD */\n  0x6090149792daaee9d1d568c9f9a6f6b46aa29efd\n    /* \"docs.chain.link/samples/APIRequests/MultiWordConsumer.sol\":1723:1742  _setChainlinkOracle */\n  shl(0x20, tag_17)\n    /* \"docs.chain.link/samples/APIRequests/MultiWordConsumer.sol\":1723:1786  _setChainlinkOracle(0x6090149792dAAeE9D1D568c9f9a6F6B46AA29eFD) */\n  0x20\n  shr\n  jump\t// in\ntag_16:\n    /* \"docs.chain.link/samples/APIRequests/MultiWordConsumer.sol\":1796:1838  jobId = \"53f9755920cd451a8fe46f5087468395\" */\n  0x3533663937353539323063643435316138666534366635303837343638333935\n    /* \"docs.chain.link/samples/APIRequests/MultiWordConsumer.sol\":1796:1801  jobId */\n  0x08\n    /* \"docs.chain.link/samples/APIRequests/MultiWordConsumer.sol\":1796:1838  jobId = \"53f9755920cd451a8fe46f5087468395\" */\n  dup2\n  swap1\n  sstore\n  pop\n    /* \"docs.chain.link/samples/APIRequests/MultiWordConsumer.sol\":1880:1882  10 */\n  0x0a\n    /* \"@chainlink/contracts@1.3.0/src/v0.8/ChainlinkClient.sol\":864:872  10 ** 18 */\n  0x0de0b6b3a7640000\n    /* \"docs.chain.link/samples/APIRequests/MultiWordConsumer.sol\":1855:1856  1 */\n  0x01\n    /* \"docs.chain.link/samples/APIRequests/MultiWordConsumer.sol\":1855:1876  1 * LINK_DIVISIBILITY */\n  tag_18\n  swap2\n  swap1\n  tag_19\n  jump\t// in\ntag_18:\n    /* \"docs.chain.link/samples/APIRequests/MultiWordConsumer.sol\":1854:1882  (1 * LINK_DIVISIBILITY) / 10 */\n  tag_20\n  swap2\n  swap1\n  tag_21\n  jump\t// in\ntag_20:\n    /* \"docs.chain.link/samples/APIRequests/MultiWordConsumer.sol\":1848:1851  fee */\n  0x09\n    /* \"docs.chain.link/samples/APIRequests/MultiWordConsumer.sol\":1848:1882  fee = (1 * LINK_DIVISIBILITY) / 10 */\n  dup2\n  swap1\n  sstore\n  pop\n    /* \"docs.chain.link/samples/APIRequests/MultiWordConsumer.sol\":764:3767  contract MultiWordConsumer is ChainlinkClient, ConfirmedOwner {... */\n  jump(tag_22)\n    /* \"@chainlink/contracts@1.3.0/src/v0.8/shared/access/ConfirmedOwnerWithProposal.sol\":1536:1775  function _transferOwnership(address to) private {... */\ntag_11:\n    /* \"@chainlink/contracts@1.3.0/src/v0.8/shared/access/ConfirmedOwnerWithProposal.sol\":1655:1665  msg.sender */\n  caller\n    /* \"@chainlink/contracts@1.3.0/src/v0.8/shared/access/ConfirmedOwnerWithProposal.sol\":1649:1665  to != msg.sender */\n  0xffffffffffffffffffffffffffffffffffffffff\n  and\n    /* \"@chainlink/contracts@1.3.0/src/v0.8/shared/access/ConfirmedOwnerWithProposal.sol\":1649:1651  to */\n  dup2\n    /* \"@chainlink/contracts@1.3.0/src/v0.8/shared/access/ConfirmedOwnerWithProposal.sol\":1649:1665  to != msg.sender */\n  0xffffffffffffffffffffffffffffffffffffffff\n  and\n  sub\n    /* \"@chainlink/contracts@1.3.0/src/v0.8/shared/access/ConfirmedOwnerWithProposal.sol\":1641:1693  require(to != msg.sender, \"Cannot transfer to self\") */\n  tag_24\n  jumpi\n  mload(0x40)\n  0x08c379a000000000000000000000000000000000000000000000000000000000\n  dup2\n  mstore\n  0x04\n  add\n  tag_25\n  swap1\n  tag_26\n  jump\t// in\ntag_25:\n  mload(0x40)\n  dup1\n  swap2\n  sub\n  swap1\n  revert\ntag_24:\n    /* \"@chainlink/contracts@1.3.0/src/v0.8/shared/access/ConfirmedOwnerWithProposal.sol\":1717:1719  to */\n  dup1\n    /* \"@chainlink/contracts@1.3.0/src/v0.8/shared/access/ConfirmedOwnerWithProposal.sol\":1700:1714  s_pendingOwner */\n  0x07\n  0x00\n    /* \"@chainlink/contracts@1.3.0/src/v0.8/shared/access/ConfirmedOwnerWithProposal.sol\":1700:1719  s_pendingOwner = to */\n  0x0100\n  exp\n  dup2\n  sload\n  dup2\n  0xffffffffffffffffffffffffffffffffffffffff\n  mul\n  not\n  and\n  swap1\n  dup4\n  0xffffffffffffffffffffffffffffffffffffffff\n  and\n  mul\n  or\n  swap1\n  sstore\n  pop\n    /* \"@chainlink/contracts@1.3.0/src/v0.8/shared/access/ConfirmedOwnerWithProposal.sol\":1767:1769  to */\n  dup1\n    /* \"@chainlink/contracts@1.3.0/src/v0.8/shared/access/ConfirmedOwnerWithProposal.sol\":1731:1770  OwnershipTransferRequested(s_owner, to) */\n  0xffffffffffffffffffffffffffffffffffffffff\n  and\n    /* \"@chainlink/contracts@1.3.0/src/v0.8/shared/access/ConfirmedOwnerWithProposal.sol\":1758:1765  s_owner */\n  0x06\n  0x00\n  swap1\n  sload\n  swap1\n  0x0100\n  exp\n  swap1\n  div\n  0xffffffffffffffffffffffffffffffffffffffff\n  and\n    /* \"@chainlink/contracts@1.3.0/src/v0.8/shared/access/ConfirmedOwnerWithProposal.sol\":1731:1770  OwnershipTransferRequested(s_owner, to) */\n  0xffffffffffffffffffffffffffffffffffffffff\n  and\n  0xed8889f560326eb138920d842192f0eb3dd22b4f139c87a2c57538e05bae1278\n  mload(0x40)\n  mload(0x40)\n  dup1\n  swap2\n  sub\n  swap1\n  log3\n    /* \"@chainlink/contracts@1.3.0/src/v0.8/shared/access/ConfirmedOwnerWithProposal.sol\":1536:1775  function _transferOwnership(address to) private {... */\n  pop\n  jump\t// out\n    /* \"@chainlink/contracts@1.3.0/src/v0.8/ChainlinkClient.sol\":8849:8958  function _setChainlinkToken(address linkAddress) internal {... */\ntag_15:\n    /* \"@chainlink/contracts@1.3.0/src/v0.8/ChainlinkClient.sol\":8941:8952  linkAddress */\n  dup1\n    /* \"@chainlink/contracts@1.3.0/src/v0.8/ChainlinkClient.sol\":8913:8919  s_link */\n  0x02\n  0x00\n    /* \"@chainlink/contracts@1.3.0/src/v0.8/ChainlinkClient.sol\":8913:8953  s_link = LinkTokenInterface(linkAddress) */\n  0x0100\n  exp\n  dup2\n  sload\n  dup2\n  0xffffffffffffffffffffffffffffffffffffffff\n  mul\n  not\n  and\n  swap1\n  dup4\n  0xffffffffffffffffffffffffffffffffffffffff\n  and\n  mul\n  or\n  swap1\n  sstore\n  pop\n    /* \"@chainlink/contracts@1.3.0/src/v0.8/ChainlinkClient.sol\":8849:8958  function _setChainlinkToken(address linkAddress) internal {... */\n  pop\n  jump\t// out\n    /* \"@chainlink/contracts@1.3.0/src/v0.8/ChainlinkClient.sol\":8614:8729  function _setChainlinkOracle(address oracleAddress) internal {... */\ntag_17:\n    /* \"@chainlink/contracts@1.3.0/src/v0.8/ChainlinkClient.sol\":8710:8723  oracleAddress */\n  dup1\n    /* \"@chainlink/contracts@1.3.0/src/v0.8/ChainlinkClient.sol\":8681:8689  s_oracle */\n  0x03\n  0x00\n    /* \"@chainlink/contracts@1.3.0/src/v0.8/ChainlinkClient.sol\":8681:8724  s_oracle = OperatorInterface(oracleAddress) */\n  0x0100\n  exp\n  dup2\n  sload\n  dup2\n  0xffffffffffffffffffffffffffffffffffffffff\n  mul\n  not\n  and\n  swap1\n  dup4\n  0xffffffffffffffffffffffffffffffffffffffff\n  and\n  mul\n  or\n  swap1\n  sstore\n  pop\n    /* \"@chainlink/contracts@1.3.0/src/v0.8/ChainlinkClient.sol\":8614:8729  function _setChainlinkOracle(address oracleAddress) internal {... */\n  pop\n  jump\t// out\n    /* \"#utility.yul\":7:176   */\ntag_29:\n    /* \"#utility.yul\":91:102   */\n  0x00\n    /* \"#utility.yul\":125:131   */\n  dup3\n    /* \"#utility.yul\":120:123   */\n  dup3\n    /* \"#utility.yul\":113:132   */\n  mstore\n    /* \"#utility.yul\":165:169   */\n  0x20\n    /* \"#utility.yul\":160:163   */\n  dup3\n    /* \"#utility.yul\":156:170   */\n  add\n    /* \"#utility.yul\":141:170   */\n  swap1\n  pop\n    /* \"#utility.yul\":7:176   */\n  swap3\n  swap2\n  pop\n  pop\n  jump\t// out\n    /* \"#utility.yul\":182:356   */\ntag_30:\n    /* \"#utility.yul\":322:348   */\n  0x43616e6e6f7420736574206f776e657220746f207a65726f0000000000000000\n    /* \"#utility.yul\":318:319   */\n  0x00\n    /* \"#utility.yul\":310:316   */\n  dup3\n    /* \"#utility.yul\":306:320   */\n  add\n    /* \"#utility.yul\":299:349   */\n  mstore\n    /* \"#utility.yul\":182:356   */\n  pop\n  jump\t// out\n    /* \"#utility.yul\":362:728   */\ntag_31:\n    /* \"#utility.yul\":504:507   */\n  0x00\n    /* \"#utility.yul\":525:592   */\n  tag_41\n    /* \"#utility.yul\":589:591   */\n  0x18\n    /* \"#utility.yul\":584:587   */\n  dup4\n    /* \"#utility.yul\":525:592   */\n  tag_29\n  jump\t// in\ntag_41:\n    /* \"#utility.yul\":518:592   */\n  swap2\n  pop\n    /* \"#utility.yul\":601:694   */\n  tag_42\n    /* \"#utility.yul\":690:693   */\n  dup3\n    /* \"#utility.yul\":601:694   */\n  tag_30\n  jump\t// in\ntag_42:\n    /* \"#utility.yul\":719:721   */\n  0x20\n    /* \"#utility.yul\":714:717   */\n  dup3\n    /* \"#utility.yul\":710:722   */\n  add\n    /* \"#utility.yul\":703:722   */\n  swap1\n  pop\n    /* \"#utility.yul\":362:728   */\n  swap2\n  swap1\n  pop\n  jump\t// out\n    /* \"#utility.yul\":734:1153   */\ntag_8:\n    /* \"#utility.yul\":900:904   */\n  0x00\n    /* \"#utility.yul\":938:940   */\n  0x20\n    /* \"#utility.yul\":927:936   */\n  dup3\n    /* \"#utility.yul\":923:941   */\n  add\n    /* \"#utility.yul\":915:941   */\n  swap1\n  pop\n    /* \"#utility.yul\":987:996   */\n  dup2\n    /* \"#utility.yul\":981:985   */\n  dup2\n    /* \"#utility.yul\":977:997   */\n  sub\n    /* \"#utility.yul\":973:974   */\n  0x00\n    /* \"#utility.yul\":962:971   */\n  dup4\n    /* \"#utility.yul\":958:975   */\n  add\n    /* \"#utility.yul\":951:998   */\n  mstore\n    /* \"#utility.yul\":1015:1146   */\n  tag_44\n    /* \"#utility.yul\":1141:1145   */\n  dup2\n    /* \"#utility.yul\":1015:1146   */\n  tag_31\n  jump\t// in\ntag_44:\n    /* \"#utility.yul\":1007:1146   */\n  swap1\n  pop\n    /* \"#utility.yul\":734:1153   */\n  swap2\n  swap1\n  pop\n  jump\t// out\n    /* \"#utility.yul\":1159:1236   */\ntag_32:\n    /* \"#utility.yul\":1196:1203   */\n  0x00\n    /* \"#utility.yul\":1225:1230   */\n  dup2\n    /* \"#utility.yul\":1214:1230   */\n  swap1\n  pop\n    /* \"#utility.yul\":1159:1236   */\n  swap2\n  swap1\n  pop\n  jump\t// out\n    /* \"#utility.yul\":1242:1422   */\ntag_33:\n    /* \"#utility.yul\":1290:1367   */\n  0x4e487b7100000000000000000000000000000000000000000000000000000000\n    /* \"#utility.yul\":1287:1288   */\n  0x00\n    /* \"#utility.yul\":1280:1368   */\n  mstore\n    /* \"#utility.yul\":1387:1391   */\n  0x11\n    /* \"#utility.yul\":1384:1385   */\n  0x04\n    /* \"#utility.yul\":1377:1392   */\n  mstore\n    /* \"#utility.yul\":1411:1415   */\n  0x24\n    /* \"#utility.yul\":1408:1409   */\n  0x00\n    /* \"#utility.yul\":1401:1416   */\n  revert\n    /* \"#utility.yul\":1428:1838   */\ntag_19:\n    /* \"#utility.yul\":1468:1475   */\n  0x00\n    /* \"#utility.yul\":1491:1511   */\n  tag_48\n    /* \"#utility.yul\":1509:1510   */\n  dup3\n    /* \"#utility.yul\":1491:1511   */\n  tag_32\n  jump\t// in\ntag_48:\n    /* \"#utility.yul\":1486:1511   */\n  swap2\n  pop\n    /* \"#utility.yul\":1525:1545   */\n  tag_49\n    /* \"#utility.yul\":1543:1544   */\n  dup4\n    /* \"#utility.yul\":1525:1545   */\n  tag_32\n  jump\t// in\ntag_49:\n    /* \"#utility.yul\":1520:1545   */\n  swap3\n  pop\n    /* \"#utility.yul\":1580:1581   */\n  dup3\n    /* \"#utility.yul\":1577:1578   */\n  dup3\n    /* \"#utility.yul\":1573:1582   */\n  mul\n    /* \"#utility.yul\":1602:1632   */\n  tag_50\n    /* \"#utility.yul\":1620:1631   */\n  dup2\n    /* \"#utility.yul\":1602:1632   */\n  tag_32\n  jump\t// in\ntag_50:\n    /* \"#utility.yul\":1591:1632   */\n  swap2\n  pop\n    /* \"#utility.yul\":1781:1782   */\n  dup3\n    /* \"#utility.yul\":1772:1779   */\n  dup3\n    /* \"#utility.yul\":1768:1783   */\n  div\n    /* \"#utility.yul\":1765:1766   */\n  dup5\n    /* \"#utility.yul\":1762:1784   */\n  eq\n    /* \"#utility.yul\":1742:1743   */\n  dup4\n    /* \"#utility.yul\":1735:1744   */\n  iszero\n    /* \"#utility.yul\":1715:1798   */\n  or\n    /* \"#utility.yul\":1692:1831   */\n  tag_51\n  jumpi\n    /* \"#utility.yul\":1811:1829   */\n  tag_52\n  tag_33\n  jump\t// in\ntag_52:\n    /* \"#utility.yul\":1692:1831   */\ntag_51:\n    /* \"#utility.yul\":1476:1838   */\n  pop\n    /* \"#utility.yul\":1428:1838   */\n  swap3\n  swap2\n  pop\n  pop\n  jump\t// out\n    /* \"#utility.yul\":1844:2024   */\ntag_34:\n    /* \"#utility.yul\":1892:1969   */\n  0x4e487b7100000000000000000000000000000000000000000000000000000000\n    /* \"#utility.yul\":1889:1890   */\n  0x00\n    /* \"#utility.yul\":1882:1970   */\n  mstore\n    /* \"#utility.yul\":1989:1993   */\n  0x12\n    /* \"#utility.yul\":1986:1987   */\n  0x04\n    /* \"#utility.yul\":1979:1994   */\n  mstore\n    /* \"#utility.yul\":2013:2017   */\n  0x24\n    /* \"#utility.yul\":2010:2011   */\n  0x00\n    /* \"#utility.yul\":2003:2018   */\n  revert\n    /* \"#utility.yul\":2030:2215   */\ntag_21:\n    /* \"#utility.yul\":2070:2071   */\n  0x00\n    /* \"#utility.yul\":2087:2107   */\n  tag_55\n    /* \"#utility.yul\":2105:2106   */\n  dup3\n    /* \"#utility.yul\":2087:2107   */\n  tag_32\n  jump\t// in\ntag_55:\n    /* \"#utility.yul\":2082:2107   */\n  swap2\n  pop\n    /* \"#utility.yul\":2121:2141   */\n  tag_56\n    /* \"#utility.yul\":2139:2140   */\n  dup4\n    /* \"#utility.yul\":2121:2141   */\n  tag_32\n  jump\t// in\ntag_56:\n    /* \"#utility.yul\":2116:2141   */\n  swap3\n  pop\n    /* \"#utility.yul\":2160:2161   */\n  dup3\n    /* \"#utility.yul\":2150:2185   */\n  tag_57\n  jumpi\n    /* \"#utility.yul\":2165:2183   */\n  tag_58\n  tag_34\n  jump\t// in\ntag_58:\n    /* \"#utility.yul\":2150:2185   */\ntag_57:\n    /* \"#utility.yul\":2207:2208   */\n  dup3\n    /* \"#utility.yul\":2204:2205   */\n  dup3\n    /* \"#utility.yul\":2200:2209   */\n  div\n    /* \"#utility.yul\":2195:2209   */\n  swap1\n  pop\n    /* \"#utility.yul\":2030:2215   */\n  swap3\n  swap2\n  pop\n  pop\n  jump\t// out\n    /* \"#utility.yul\":2221:2394   */\ntag_35:\n    /* \"#utility.yul\":2361:2386   */\n  0x43616e6e6f74207472616e7366657220746f2073656c66000000000000000000\n    /* \"#utility.yul\":2357:2358   */\n  0x00\n    /* \"#utility.yul\":2349:2355   */\n  dup3\n    /* \"#utility.yul\":2345:2359   */\n  add\n    /* \"#utility.yul\":2338:2387   */\n  mstore\n    /* \"#utility.yul\":2221:2394   */\n  pop\n  jump\t// out\n    /* \"#utility.yul\":2400:2766   */\ntag_36:\n    /* \"#utility.yul\":2542:2545   */\n  0x00\n    /* \"#utility.yul\":2563:2630   */\n  tag_61\n    /* \"#utility.yul\":2627:2629   */\n  0x17\n    /* \"#utility.yul\":2622:2625   */\n  dup4\n    /* \"#utility.yul\":2563:2630   */\n  tag_29\n  jump\t// in\ntag_61:\n    /* \"#utility.yul\":2556:2630   */\n  swap2\n  pop\n    /* \"#utility.yul\":2639:2732   */\n  tag_62\n    /* \"#utility.yul\":2728:2731   */\n  dup3\n    /* \"#utility.yul\":2639:2732   */\n  tag_35\n  jump\t// in\ntag_62:\n    /* \"#utility.yul\":2757:2759   */\n  0x20\n    /* \"#utility.yul\":2752:2755   */\n  dup3\n    /* \"#utility.yul\":2748:2760   */\n  add\n    /* \"#utility.yul\":2741:2760   */\n  swap1\n  pop\n    /* \"#utility.yul\":2400:2766   */\n  swap2\n  swap1\n  pop\n  jump\t// out\n    /* \"#utility.yul\":2772:3191   */\ntag_26:\n    /* \"#utility.yul\":2938:2942   */\n  0x00\n    /* \"#utility.yul\":2976:2978   */\n  0x20\n    /* \"#utility.yul\":2965:2974   */\n  dup3\n    /* \"#utility.yul\":2961:2979   */\n  add\n    /* \"#utility.yul\":2953:2979   */\n  swap1\n  pop\n    /* \"#utility.yul\":3025:3034   */\n  dup2\n    /* \"#utility.yul\":3019:3023   */\n  dup2\n    /* \"#utility.yul\":3015:3035   */\n  sub\n    /* \"#utility.yul\":3011:3012   */\n  0x00\n    /* \"#utility.yul\":3000:3009   */\n  dup4\n    /* \"#utility.yul\":2996:3013   */\n  add\n    /* \"#utility.yul\":2989:3036   */\n  mstore\n    /* \"#utility.yul\":3053:3184   */\n  tag_64\n    /* \"#utility.yul\":3179:3183   */\n  dup2\n    /* \"#utility.yul\":3053:3184   */\n  tag_36\n  jump\t// in\ntag_64:\n    /* \"#utility.yul\":3045:3184   */\n  swap1\n  pop\n    /* \"#utility.yul\":2772:3191   */\n  swap2\n  swap1\n  pop\n  jump\t// out\n    /* \"docs.chain.link/samples/APIRequests/MultiWordConsumer.sol\":764:3767  contract MultiWordConsumer is ChainlinkClient, ConfirmedOwner {... */\ntag_22:\n  dataSize(sub_0)\n  dup1\n  dataOffset(sub_0)\n  0x00\n  codecopy\n  0x00\n  return\nstop\n\nsub_0: assembly {\n        /* \"docs.chain.link/samples/APIRequests/MultiWordConsumer.sol\":764:3767  contract MultiWordConsumer is ChainlinkClient, ConfirmedOwner {... */\n      mstore(0x40, 0x80)\n      callvalue\n      dup1\n      iszero\n      tag_1\n      jumpi\n      0x00\n      dup1\n      revert\n    tag_1:\n      pop\n      jumpi(tag_2, lt(calldatasize, 0x04))\n      shr(0xe0, calldataload(0x00))\n      dup1\n      0x8dc654a2\n      gt\n      tag_12\n      jumpi\n      dup1\n      0x8dc654a2\n      eq\n      tag_7\n      jumpi\n      dup1\n      0xa28d57d8\n      eq\n      tag_8\n      jumpi\n      dup1\n      0xd63a6ccd\n      eq\n      tag_9\n      jumpi\n      dup1\n      0xf2fde38b\n      eq\n      tag_10\n      jumpi\n      dup1\n      0xfda4417b\n      eq\n      tag_11\n      jumpi\n      jump(tag_2)\n    tag_12:\n      dup1\n      0x4a3afb47\n      eq\n      tag_3\n      jumpi\n      dup1\n      0x7439ae59\n      eq\n      tag_4\n      jumpi\n      dup1\n      0x79ba5097\n      eq\n      tag_5\n      jumpi\n      dup1\n      0x8da5cb5b\n      eq\n      tag_6\n      jumpi\n    tag_2:\n      0x00\n      dup1\n      revert\n        /* \"docs.chain.link/samples/APIRequests/MultiWordConsumer.sol\":2038:2809  function requestMultipleParameters() public {... */\n    tag_3:\n      tag_13\n      tag_14\n      jump\t// in\n    tag_13:\n      stop\n        /* \"docs.chain.link/samples/APIRequests/MultiWordConsumer.sol\":1037:1055  uint256 public eur */\n    tag_4:\n      tag_15\n      tag_16\n      jump\t// in\n    tag_15:\n      mload(0x40)\n      tag_17\n      swap2\n      swap1\n      tag_18\n      jump\t// in\n    tag_17:\n      mload(0x40)\n      dup1\n      swap2\n      sub\n      swap1\n      return\n        /* \"@chainlink/contracts@1.3.0/src/v0.8/shared/access/ConfirmedOwnerWithProposal.sol\":1026:1342  function acceptOwnership() external override {... */\n    tag_5:\n      tag_19\n      tag_20\n      jump\t// in\n    tag_19:\n      stop\n        /* \"@chainlink/contracts@1.3.0/src/v0.8/shared/access/ConfirmedOwnerWithProposal.sol\":1382:1463  function owner() public view override returns (address) {... */\n    tag_6:\n      tag_21\n      tag_22\n      jump\t// in\n    tag_21:\n      mload(0x40)\n      tag_23\n      swap2\n      swap1\n      tag_24\n      jump\t// in\n    tag_23:\n      mload(0x40)\n      dup1\n      swap2\n      sub\n      swap1\n      return\n        /* \"docs.chain.link/samples/APIRequests/MultiWordConsumer.sol\":3506:3765  function withdrawLink() public onlyOwner {... */\n    tag_7:\n      tag_25\n      tag_26\n      jump\t// in\n    tag_25:\n      stop\n        /* \"docs.chain.link/samples/APIRequests/MultiWordConsumer.sol\":989:1007  uint256 public btc */\n    tag_8:\n      tag_27\n      tag_28\n      jump\t// in\n    tag_27:\n      mload(0x40)\n      tag_29\n      swap2\n      swap1\n      tag_18\n      jump\t// in\n    tag_29:\n      mload(0x40)\n      dup1\n      swap2\n      sub\n      swap1\n      return\n        /* \"docs.chain.link/samples/APIRequests/MultiWordConsumer.sol\":1013:1031  uint256 public usd */\n    tag_9:\n      tag_30\n      tag_31\n      jump\t// in\n    tag_30:\n      mload(0x40)\n      tag_32\n      swap2\n      swap1\n      tag_18\n      jump\t// in\n    tag_32:\n      mload(0x40)\n      dup1\n      swap2\n      sub\n      swap1\n      return\n        /* \"@chainlink/contracts@1.3.0/src/v0.8/shared/access/ConfirmedOwnerWithProposal.sol\":847:945  function transferOwnership(address to) public override onlyOwner {... */\n    tag_10:\n      tag_33\n      0x04\n      dup1\n      calldatasize\n      sub\n      dup2\n      add\n      swap1\n      tag_34\n      swap2\n      swap1\n      tag_35\n      jump\t// in\n    tag_34:\n      tag_36\n      jump\t// in\n    tag_33:\n      stop\n        /* \"docs.chain.link/samples/APIRequests/MultiWordConsumer.sol\":2994:3429  function fulfillMultipleParameters(... */\n    tag_11:\n      tag_37\n      0x04\n      dup1\n      calldatasize\n      sub\n      dup2\n      add\n      swap1\n      tag_38\n      swap2\n      swap1\n      tag_39\n      jump\t// in\n    tag_38:\n      tag_40\n      jump\t// in\n    tag_37:\n      stop\n        /* \"docs.chain.link/samples/APIRequests/MultiWordConsumer.sol\":2038:2809  function requestMultipleParameters() public {... */\n    tag_14:\n        /* \"docs.chain.link/samples/APIRequests/MultiWordConsumer.sol\":2092:2120  Chainlink.Request memory req */\n      0x00\n        /* \"docs.chain.link/samples/APIRequests/MultiWordConsumer.sol\":2123:2254  _buildChainlinkRequest(... */\n      tag_42\n        /* \"docs.chain.link/samples/APIRequests/MultiWordConsumer.sol\":2159:2164  jobId */\n      sload(0x08)\n        /* \"docs.chain.link/samples/APIRequests/MultiWordConsumer.sol\":2186:2190  this */\n      address\n        /* \"docs.chain.link/samples/APIRequests/MultiWordConsumer.sol\":2205:2244  this.fulfillMultipleParameters.selector */\n      shl(0xe0, 0xfda4417b)\n        /* \"docs.chain.link/samples/APIRequests/MultiWordConsumer.sol\":2123:2145  _buildChainlinkRequest */\n      tag_43\n        /* \"docs.chain.link/samples/APIRequests/MultiWordConsumer.sol\":2123:2254  _buildChainlinkRequest(... */\n      jump\t// in\n    tag_42:\n        /* \"docs.chain.link/samples/APIRequests/MultiWordConsumer.sol\":2092:2254  Chainlink.Request memory req = _buildChainlinkRequest(... */\n      swap1\n      pop\n        /* \"docs.chain.link/samples/APIRequests/MultiWordConsumer.sol\":2264:2383  req._add(... */\n      tag_44\n      mload(0x40)\n      dup1\n      0x40\n      add\n      0x40\n      mstore\n      dup1\n      0x06\n      dup2\n      mstore\n      0x20\n      add\n      0x75726c4254430000000000000000000000000000000000000000000000000000\n      dup2\n      mstore\n      pop\n      mload(0x40)\n      dup1\n      0x60\n      add\n      0x40\n      mstore\n      dup1\n      0x3f\n      dup2\n      mstore\n      0x20\n      add\n      data_a2630dc8b8b01765ab3d34b93877cfb66c1783a3f101f6c824cecbf74292f29d\n      0x3f\n      swap2\n      codecopy\n        /* \"docs.chain.link/samples/APIRequests/MultiWordConsumer.sol\":2264:2267  req */\n      dup4\n        /* \"docs.chain.link/samples/APIRequests/MultiWordConsumer.sol\":2264:2272  req._add */\n      tag_45\n      swap1\n        /* \"docs.chain.link/samples/APIRequests/MultiWordConsumer.sol\":2264:2383  req._add(... */\n      swap3\n      swap2\n      swap1\n      0xffffffff\n      and\n      jump\t// in\n    tag_44:\n        /* \"docs.chain.link/samples/APIRequests/MultiWordConsumer.sol\":2393:2419  req._add(\"pathBTC\", \"BTC\") */\n      tag_46\n      mload(0x40)\n      dup1\n      0x40\n      add\n      0x40\n      mstore\n      dup1\n      0x07\n      dup2\n      mstore\n      0x20\n      add\n      0x7061746842544300000000000000000000000000000000000000000000000000\n      dup2\n      mstore\n      pop\n      mload(0x40)\n      dup1\n      0x40\n      add\n      0x40\n      mstore\n      dup1\n      0x03\n      dup2\n      mstore\n      0x20\n      add\n      0x4254430000000000000000000000000000000000000000000000000000000000\n      dup2\n      mstore\n      pop\n        /* \"docs.chain.link/samples/APIRequests/MultiWordConsumer.sol\":2393:2396  req */\n      dup4\n        /* \"docs.chain.link/samples/APIRequests/MultiWordConsumer.sol\":2393:2401  req._add */\n      tag_45\n      swap1\n        /* \"docs.chain.link/samples/APIRequests/MultiWordConsumer.sol\":2393:2419  req._add(\"pathBTC\", \"BTC\") */\n      swap3\n      swap2\n      swap1\n      0xffffffff\n      and\n      jump\t// in\n    tag_46:\n        /* \"docs.chain.link/samples/APIRequests/MultiWordConsumer.sol\":2429:2548  req._add(... */\n      tag_47\n      mload(0x40)\n      dup1\n      0x40\n      add\n      0x40\n      mstore\n      dup1\n      0x06\n      dup2\n      mstore\n      0x20\n      add\n      0x75726c5553440000000000000000000000000000000000000000000000000000\n      dup2\n      mstore\n      pop\n      mload(0x40)\n      dup1\n      0x60\n      add\n      0x40\n      mstore\n      dup1\n      0x3f\n      dup2\n      mstore\n      0x20\n      add\n      data_444739292f65e0d84586af555ca805e0303948242aa5bbf9a7032603676a8ec3\n      0x3f\n      swap2\n      codecopy\n        /* \"docs.chain.link/samples/APIRequests/MultiWordConsumer.sol\":2429:2432  req */\n      dup4\n        /* \"docs.chain.link/samples/APIRequests/MultiWordConsumer.sol\":2429:2437  req._add */\n      tag_45\n      swap1\n        /* \"docs.chain.link/samples/APIRequests/MultiWordConsumer.sol\":2429:2548  req._add(... */\n      swap3\n      swap2\n      swap1\n      0xffffffff\n      and\n      jump\t// in\n    tag_47:\n        /* \"docs.chain.link/samples/APIRequests/MultiWordConsumer.sol\":2558:2584  req._add(\"pathUSD\", \"USD\") */\n      tag_48\n      mload(0x40)\n      dup1\n      0x40\n      add\n      0x40\n      mstore\n      dup1\n      0x07\n      dup2\n      mstore\n      0x20\n      add\n      0x7061746855534400000000000000000000000000000000000000000000000000\n      dup2\n      mstore\n      pop\n      mload(0x40)\n      dup1\n      0x40\n      add\n      0x40\n      mstore\n      dup1\n      0x03\n      dup2\n      mstore\n      0x20\n      add\n      0x5553440000000000000000000000000000000000000000000000000000000000\n      dup2\n      mstore\n      pop\n        /* \"docs.chain.link/samples/APIRequests/MultiWordConsumer.sol\":2558:2561  req */\n      dup4\n        /* \"docs.chain.link/samples/APIRequests/MultiWordConsumer.sol\":2558:2566  req._add */\n      tag_45\n      swap1\n        /* \"docs.chain.link/samples/APIRequests/MultiWordConsumer.sol\":2558:2584  req._add(\"pathUSD\", \"USD\") */\n      swap3\n      swap2\n      swap1\n      0xffffffff\n      and\n      jump\t// in\n    tag_48:\n        /* \"docs.chain.link/samples/APIRequests/MultiWordConsumer.sol\":2594:2713  req._add(... */\n      tag_49\n      mload(0x40)\n      dup1\n      0x40\n      add\n      0x40\n      mstore\n      dup1\n      0x06\n      dup2\n      mstore\n      0x20\n      add\n      0x75726c4555520000000000000000000000000000000000000000000000000000\n      dup2\n      mstore\n      pop\n      mload(0x40)\n      dup1\n      0x60\n      add\n      0x40\n      mstore\n      dup1\n      0x3f\n      dup2\n      mstore\n      0x20\n      add\n      data_a6cacffcf01dc1a328a3d9ce8ba4081161d35f6793cf7099d70659b7cd98bac5\n      0x3f\n      swap2\n      codecopy\n        /* \"docs.chain.link/samples/APIRequests/MultiWordConsumer.sol\":2594:2597  req */\n      dup4\n        /* \"docs.chain.link/samples/APIRequests/MultiWordConsumer.sol\":2594:2602  req._add */\n      tag_45\n      swap1\n        /* \"docs.chain.link/samples/APIRequests/MultiWordConsumer.sol\":2594:2713  req._add(... */\n      swap3\n      swap2\n      swap1\n      0xffffffff\n      and\n      jump\t// in\n    tag_49:\n        /* \"docs.chain.link/samples/APIRequests/MultiWordConsumer.sol\":2723:2749  req._add(\"pathEUR\", \"EUR\") */\n      tag_50\n      mload(0x40)\n      dup1\n      0x40\n      add\n      0x40\n      mstore\n      dup1\n      0x07\n      dup2\n      mstore\n      0x20\n      add\n      0x7061746845555200000000000000000000000000000000000000000000000000\n      dup2\n      mstore\n      pop\n      mload(0x40)\n      dup1\n      0x40\n      add\n      0x40\n      mstore\n      dup1\n      0x03\n      dup2\n      mstore\n      0x20\n      add\n      0x4555520000000000000000000000000000000000000000000000000000000000\n      dup2\n      mstore\n      pop\n        /* \"docs.chain.link/samples/APIRequests/MultiWordConsumer.sol\":2723:2726  req */\n      dup4\n        /* \"docs.chain.link/samples/APIRequests/MultiWordConsumer.sol\":2723:2731  req._add */\n      tag_45\n      swap1\n        /* \"docs.chain.link/samples/APIRequests/MultiWordConsumer.sol\":2723:2749  req._add(\"pathEUR\", \"EUR\") */\n      swap3\n      swap2\n      swap1\n      0xffffffff\n      and\n      jump\t// in\n    tag_50:\n        /* \"docs.chain.link/samples/APIRequests/MultiWordConsumer.sol\":2759:2790  _sendChainlinkRequest(req, fee) */\n      tag_51\n        /* \"docs.chain.link/samples/APIRequests/MultiWordConsumer.sol\":2781:2784  req */\n      dup2\n        /* \"docs.chain.link/samples/APIRequests/MultiWordConsumer.sol\":2786:2789  fee */\n      sload(0x09)\n        /* \"docs.chain.link/samples/APIRequests/MultiWordConsumer.sol\":2759:2780  _sendChainlinkRequest */\n      tag_52\n        /* \"docs.chain.link/samples/APIRequests/MultiWordConsumer.sol\":2759:2790  _sendChainlinkRequest(req, fee) */\n      jump\t// in\n    tag_51:\n      pop\n        /* \"docs.chain.link/samples/APIRequests/MultiWordConsumer.sol\":2082:2809  {... */\n      pop\n        /* \"docs.chain.link/samples/APIRequests/MultiWordConsumer.sol\":2038:2809  function requestMultipleParameters() public {... */\n      jump\t// out\n        /* \"docs.chain.link/samples/APIRequests/MultiWordConsumer.sol\":1037:1055  uint256 public eur */\n    tag_16:\n      sload(0x0c)\n      dup2\n      jump\t// out\n        /* \"@chainlink/contracts@1.3.0/src/v0.8/shared/access/ConfirmedOwnerWithProposal.sol\":1026:1342  function acceptOwnership() external override {... */\n    tag_20:\n        /* \"@chainlink/contracts@1.3.0/src/v0.8/shared/access/ConfirmedOwnerWithProposal.sol\":1150:1164  s_pendingOwner */\n      0x07\n      0x00\n      swap1\n      sload\n      swap1\n      0x0100\n      exp\n      swap1\n      div\n      0xffffffffffffffffffffffffffffffffffffffff\n      and\n        /* \"@chainlink/contracts@1.3.0/src/v0.8/shared/access/ConfirmedOwnerWithProposal.sol\":1136:1164  msg.sender == s_pendingOwner */\n      0xffffffffffffffffffffffffffffffffffffffff\n      and\n        /* \"@chainlink/contracts@1.3.0/src/v0.8/shared/access/ConfirmedOwnerWithProposal.sol\":1136:1146  msg.sender */\n      caller\n        /* \"@chainlink/contracts@1.3.0/src/v0.8/shared/access/ConfirmedOwnerWithProposal.sol\":1136:1164  msg.sender == s_pendingOwner */\n      0xffffffffffffffffffffffffffffffffffffffff\n      and\n      eq\n        /* \"@chainlink/contracts@1.3.0/src/v0.8/shared/access/ConfirmedOwnerWithProposal.sol\":1128:1191  require(msg.sender == s_pendingOwner, \"Must be proposed owner\") */\n      tag_54\n      jumpi\n      mload(0x40)\n      0x08c379a000000000000000000000000000000000000000000000000000000000\n      dup2\n      mstore\n      0x04\n      add\n      tag_55\n      swap1\n      tag_56\n      jump\t// in\n    tag_55:\n      mload(0x40)\n      dup1\n      swap2\n      sub\n      swap1\n      revert\n    tag_54:\n        /* \"@chainlink/contracts@1.3.0/src/v0.8/shared/access/ConfirmedOwnerWithProposal.sol\":1198:1214  address oldOwner */\n      0x00\n        /* \"@chainlink/contracts@1.3.0/src/v0.8/shared/access/ConfirmedOwnerWithProposal.sol\":1217:1224  s_owner */\n      0x06\n      0x00\n      swap1\n      sload\n      swap1\n      0x0100\n      exp\n      swap1\n      div\n      0xffffffffffffffffffffffffffffffffffffffff\n      and\n        /* \"@chainlink/contracts@1.3.0/src/v0.8/shared/access/ConfirmedOwnerWithProposal.sol\":1198:1224  address oldOwner = s_owner */\n      swap1\n      pop\n        /* \"@chainlink/contracts@1.3.0/src/v0.8/shared/access/ConfirmedOwnerWithProposal.sol\":1240:1250  msg.sender */\n      caller\n        /* \"@chainlink/contracts@1.3.0/src/v0.8/shared/access/ConfirmedOwnerWithProposal.sol\":1230:1237  s_owner */\n      0x06\n      0x00\n        /* \"@chainlink/contracts@1.3.0/src/v0.8/shared/access/ConfirmedOwnerWithProposal.sol\":1230:1250  s_owner = msg.sender */\n      0x0100\n      exp\n      dup2\n      sload\n      dup2\n      0xffffffffffffffffffffffffffffffffffffffff\n      mul\n      not\n      and\n      swap1\n      dup4\n      0xffffffffffffffffffffffffffffffffffffffff\n      and\n      mul\n      or\n      swap1\n      sstore\n      pop\n        /* \"@chainlink/contracts@1.3.0/src/v0.8/shared/access/ConfirmedOwnerWithProposal.sol\":1281:1282  0 */\n      0x00\n        /* \"@chainlink/contracts@1.3.0/src/v0.8/shared/access/ConfirmedOwnerWithProposal.sol\":1256:1270  s_pendingOwner */\n      0x07\n      0x00\n        /* \"@chainlink/contracts@1.3.0/src/v0.8/shared/access/ConfirmedOwnerWithProposal.sol\":1256:1283  s_pendingOwner = address(0) */\n      0x0100\n      exp\n      dup2\n      sload\n      dup2\n      0xffffffffffffffffffffffffffffffffffffffff\n      mul\n      not\n      and\n      swap1\n      dup4\n      0xffffffffffffffffffffffffffffffffffffffff\n      and\n      mul\n      or\n      swap1\n      sstore\n      pop\n        /* \"@chainlink/contracts@1.3.0/src/v0.8/shared/access/ConfirmedOwnerWithProposal.sol\":1326:1336  msg.sender */\n      caller\n        /* \"@chainlink/contracts@1.3.0/src/v0.8/shared/access/ConfirmedOwnerWithProposal.sol\":1295:1337  OwnershipTransferred(oldOwner, msg.sender) */\n      0xffffffffffffffffffffffffffffffffffffffff\n      and\n        /* \"@chainlink/contracts@1.3.0/src/v0.8/shared/access/ConfirmedOwnerWithProposal.sol\":1316:1324  oldOwner */\n      dup2\n        /* \"@chainlink/contracts@1.3.0/src/v0.8/shared/access/ConfirmedOwnerWithProposal.sol\":1295:1337  OwnershipTransferred(oldOwner, msg.sender) */\n      0xffffffffffffffffffffffffffffffffffffffff\n      and\n      0x8be0079c531659141344cd1fd0a4f28419497f9722a3daafe3b4186f6b6457e0\n      mload(0x40)\n      mload(0x40)\n      dup1\n      swap2\n      sub\n      swap1\n      log3\n        /* \"@chainlink/contracts@1.3.0/src/v0.8/shared/access/ConfirmedOwnerWithProposal.sol\":1071:1342  {... */\n      pop\n        /* \"@chainlink/contracts@1.3.0/src/v0.8/shared/access/ConfirmedOwnerWithProposal.sol\":1026:1342  function acceptOwnership() external override {... */\n      jump\t// out\n        /* \"@chainlink/contracts@1.3.0/src/v0.8/shared/access/ConfirmedOwnerWithProposal.sol\":1382:1463  function owner() public view override returns (address) {... */\n    tag_22:\n        /* \"@chainlink/contracts@1.3.0/src/v0.8/shared/access/ConfirmedOwnerWithProposal.sol\":1429:1436  address */\n      0x00\n        /* \"@chainlink/contracts@1.3.0/src/v0.8/shared/access/ConfirmedOwnerWithProposal.sol\":1451:1458  s_owner */\n      0x06\n      0x00\n      swap1\n      sload\n      swap1\n      0x0100\n      exp\n      swap1\n      div\n      0xffffffffffffffffffffffffffffffffffffffff\n      and\n        /* \"@chainlink/contracts@1.3.0/src/v0.8/shared/access/ConfirmedOwnerWithProposal.sol\":1444:1458  return s_owner */\n      swap1\n      pop\n        /* \"@chainlink/contracts@1.3.0/src/v0.8/shared/access/ConfirmedOwnerWithProposal.sol\":1382:1463  function owner() public view override returns (address) {... */\n      swap1\n      jump\t// out\n        /* \"docs.chain.link/samples/APIRequests/MultiWordConsumer.sol\":3506:3765  function withdrawLink() public onlyOwner {... */\n    tag_26:\n        /* \"@chainlink/contracts@1.3.0/src/v0.8/shared/access/ConfirmedOwnerWithProposal.sol\":2075:2095  _validateOwnership() */\n      tag_59\n        /* \"@chainlink/contracts@1.3.0/src/v0.8/shared/access/ConfirmedOwnerWithProposal.sol\":2075:2093  _validateOwnership */\n      tag_60\n        /* \"@chainlink/contracts@1.3.0/src/v0.8/shared/access/ConfirmedOwnerWithProposal.sol\":2075:2095  _validateOwnership() */\n      jump\t// in\n    tag_59:\n        /* \"docs.chain.link/samples/APIRequests/MultiWordConsumer.sol\":3557:3580  LinkTokenInterface link */\n      0x00\n        /* \"docs.chain.link/samples/APIRequests/MultiWordConsumer.sol\":3602:3626  _chainlinkTokenAddress() */\n      tag_62\n        /* \"docs.chain.link/samples/APIRequests/MultiWordConsumer.sol\":3602:3624  _chainlinkTokenAddress */\n      tag_63\n        /* \"docs.chain.link/samples/APIRequests/MultiWordConsumer.sol\":3602:3626  _chainlinkTokenAddress() */\n      jump\t// in\n    tag_62:\n        /* \"docs.chain.link/samples/APIRequests/MultiWordConsumer.sol\":3557:3627  LinkTokenInterface link = LinkTokenInterface(_chainlinkTokenAddress()) */\n      swap1\n      pop\n        /* \"docs.chain.link/samples/APIRequests/MultiWordConsumer.sol\":3658:3662  link */\n      dup1\n        /* \"docs.chain.link/samples/APIRequests/MultiWordConsumer.sol\":3658:3671  link.transfer */\n      0xffffffffffffffffffffffffffffffffffffffff\n      and\n      0xa9059cbb\n        /* \"docs.chain.link/samples/APIRequests/MultiWordConsumer.sol\":3672:3682  msg.sender */\n      caller\n        /* \"docs.chain.link/samples/APIRequests/MultiWordConsumer.sol\":3684:3688  link */\n      dup4\n        /* \"docs.chain.link/samples/APIRequests/MultiWordConsumer.sol\":3684:3698  link.balanceOf */\n      0xffffffffffffffffffffffffffffffffffffffff\n      and\n      0x70a08231\n        /* \"docs.chain.link/samples/APIRequests/MultiWordConsumer.sol\":3707:3711  this */\n      address\n        /* \"docs.chain.link/samples/APIRequests/MultiWordConsumer.sol\":3684:3713  link.balanceOf(address(this)) */\n      mload(0x40)\n      dup3\n      0xffffffff\n      and\n      0xe0\n      shl\n      dup2\n      mstore\n      0x04\n      add\n      tag_64\n      swap2\n      swap1\n      tag_24\n      jump\t// in\n    tag_64:\n      0x20\n      mload(0x40)\n      dup1\n      dup4\n      sub\n      dup2\n      dup7\n      gas\n      staticcall\n      iszero\n      dup1\n      iszero\n      tag_66\n      jumpi\n      returndatasize\n      0x00\n      dup1\n      returndatacopy\n      revert(0x00, returndatasize)\n    tag_66:\n      pop\n      pop\n      pop\n      pop\n      mload(0x40)\n      returndatasize\n      not(0x1f)\n      0x1f\n      dup3\n      add\n      and\n      dup3\n      add\n      dup1\n      0x40\n      mstore\n      pop\n      dup2\n      add\n      swap1\n      tag_67\n      swap2\n      swap1\n      tag_68\n      jump\t// in\n    tag_67:\n        /* \"docs.chain.link/samples/APIRequests/MultiWordConsumer.sol\":3658:3714  link.transfer(msg.sender, link.balanceOf(address(this))) */\n      mload(0x40)\n      dup4\n      0xffffffff\n      and\n      0xe0\n      shl\n      dup2\n      mstore\n      0x04\n      add\n      tag_69\n      swap3\n      swap2\n      swap1\n      tag_70\n      jump\t// in\n    tag_69:\n      0x20\n      mload(0x40)\n      dup1\n      dup4\n      sub\n      dup2\n      0x00\n      dup8\n      gas\n      call\n      iszero\n      dup1\n      iszero\n      tag_72\n      jumpi\n      returndatasize\n      0x00\n      dup1\n      returndatacopy\n      revert(0x00, returndatasize)\n    tag_72:\n      pop\n      pop\n      pop\n      pop\n      mload(0x40)\n      returndatasize\n      not(0x1f)\n      0x1f\n      dup3\n      add\n      and\n      dup3\n      add\n      dup1\n      0x40\n      mstore\n      pop\n      dup2\n      add\n      swap1\n      tag_73\n      swap2\n      swap1\n      tag_74\n      jump\t// in\n    tag_73:\n        /* \"docs.chain.link/samples/APIRequests/MultiWordConsumer.sol\":3637:3758  require(... */\n      tag_75\n      jumpi\n      mload(0x40)\n      0x08c379a000000000000000000000000000000000000000000000000000000000\n      dup2\n      mstore\n      0x04\n      add\n      tag_76\n      swap1\n      tag_77\n      jump\t// in\n    tag_76:\n      mload(0x40)\n      dup1\n      swap2\n      sub\n      swap1\n      revert\n    tag_75:\n        /* \"docs.chain.link/samples/APIRequests/MultiWordConsumer.sol\":3547:3765  {... */\n      pop\n        /* \"docs.chain.link/samples/APIRequests/MultiWordConsumer.sol\":3506:3765  function withdrawLink() public onlyOwner {... */\n      jump\t// out\n        /* \"docs.chain.link/samples/APIRequests/MultiWordConsumer.sol\":989:1007  uint256 public btc */\n    tag_28:\n      sload(0x0a)\n      dup2\n      jump\t// out\n        /* \"docs.chain.link/samples/APIRequests/MultiWordConsumer.sol\":1013:1031  uint256 public usd */\n    tag_31:\n      sload(0x0b)\n      dup2\n      jump\t// out\n        /* \"@chainlink/contracts@1.3.0/src/v0.8/shared/access/ConfirmedOwnerWithProposal.sol\":847:945  function transferOwnership(address to) public override onlyOwner {... */\n    tag_36:\n        /* \"@chainlink/contracts@1.3.0/src/v0.8/shared/access/ConfirmedOwnerWithProposal.sol\":2075:2095  _validateOwnership() */\n      tag_79\n        /* \"@chainlink/contracts@1.3.0/src/v0.8/shared/access/ConfirmedOwnerWithProposal.sol\":2075:2093  _validateOwnership */\n      tag_60\n        /* \"@chainlink/contracts@1.3.0/src/v0.8/shared/access/ConfirmedOwnerWithProposal.sol\":2075:2095  _validateOwnership() */\n      jump\t// in\n    tag_79:\n        /* \"@chainlink/contracts@1.3.0/src/v0.8/shared/access/ConfirmedOwnerWithProposal.sol\":918:940  _transferOwnership(to) */\n      tag_81\n        /* \"@chainlink/contracts@1.3.0/src/v0.8/shared/access/ConfirmedOwnerWithProposal.sol\":937:939  to */\n      dup2\n        /* \"@chainlink/contracts@1.3.0/src/v0.8/shared/access/ConfirmedOwnerWithProposal.sol\":918:936  _transferOwnership */\n      tag_82\n        /* \"@chainlink/contracts@1.3.0/src/v0.8/shared/access/ConfirmedOwnerWithProposal.sol\":918:940  _transferOwnership(to) */\n      jump\t// in\n    tag_81:\n        /* \"@chainlink/contracts@1.3.0/src/v0.8/shared/access/ConfirmedOwnerWithProposal.sol\":847:945  function transferOwnership(address to) public override onlyOwner {... */\n      pop\n      jump\t// out\n        /* \"docs.chain.link/samples/APIRequests/MultiWordConsumer.sol\":2994:3429  function fulfillMultipleParameters(... */\n    tag_40:\n        /* \"docs.chain.link/samples/APIRequests/MultiWordConsumer.sol\":3183:3192  requestId */\n      dup4\n        /* \"@chainlink/contracts@1.3.0/src/v0.8/ChainlinkClient.sol\":11913:11930  s_pendingRequests */\n      0x05\n        /* \"@chainlink/contracts@1.3.0/src/v0.8/ChainlinkClient.sol\":11913:11941  s_pendingRequests[requestId] */\n      0x00\n        /* \"@chainlink/contracts@1.3.0/src/v0.8/ChainlinkClient.sol\":11931:11940  requestId */\n      dup3\n        /* \"@chainlink/contracts@1.3.0/src/v0.8/ChainlinkClient.sol\":11913:11941  s_pendingRequests[requestId] */\n      dup2\n      mstore\n      0x20\n      add\n      swap1\n      dup2\n      mstore\n      0x20\n      add\n      0x00\n      keccak256\n      0x00\n      swap1\n      sload\n      swap1\n      0x0100\n      exp\n      swap1\n      div\n      0xffffffffffffffffffffffffffffffffffffffff\n      and\n        /* \"@chainlink/contracts@1.3.0/src/v0.8/ChainlinkClient.sol\":11899:11941  msg.sender == s_pendingRequests[requestId] */\n      0xffffffffffffffffffffffffffffffffffffffff\n      and\n        /* \"@chainlink/contracts@1.3.0/src/v0.8/ChainlinkClient.sol\":11899:11909  msg.sender */\n      caller\n        /* \"@chainlink/contracts@1.3.0/src/v0.8/ChainlinkClient.sol\":11899:11941  msg.sender == s_pendingRequests[requestId] */\n      0xffffffffffffffffffffffffffffffffffffffff\n      and\n      eq\n        /* \"@chainlink/contracts@1.3.0/src/v0.8/ChainlinkClient.sol\":11891:11986  require(msg.sender == s_pendingRequests[requestId], \"Source must be the oracle of the request\") */\n      tag_84\n      jumpi\n      mload(0x40)\n      0x08c379a000000000000000000000000000000000000000000000000000000000\n      dup2\n      mstore\n      0x04\n      add\n      tag_85\n      swap1\n      tag_86\n      jump\t// in\n    tag_85:\n      mload(0x40)\n      dup1\n      swap2\n      sub\n      swap1\n      revert\n    tag_84:\n        /* \"@chainlink/contracts@1.3.0/src/v0.8/ChainlinkClient.sol\":11999:12016  s_pendingRequests */\n      0x05\n        /* \"@chainlink/contracts@1.3.0/src/v0.8/ChainlinkClient.sol\":11999:12027  s_pendingRequests[requestId] */\n      0x00\n        /* \"@chainlink/contracts@1.3.0/src/v0.8/ChainlinkClient.sol\":12017:12026  requestId */\n      dup3\n        /* \"@chainlink/contracts@1.3.0/src/v0.8/ChainlinkClient.sol\":11999:12027  s_pendingRequests[requestId] */\n      dup2\n      mstore\n      0x20\n      add\n      swap1\n      dup2\n      mstore\n      0x20\n      add\n      0x00\n      keccak256\n      0x00\n        /* \"@chainlink/contracts@1.3.0/src/v0.8/ChainlinkClient.sol\":11992:12027  delete s_pendingRequests[requestId] */\n      0x0100\n      exp\n      dup2\n      sload\n      swap1\n      0xffffffffffffffffffffffffffffffffffffffff\n      mul\n      not\n      and\n      swap1\n      sstore\n        /* \"@chainlink/contracts@1.3.0/src/v0.8/ChainlinkClient.sol\":12057:12066  requestId */\n      dup1\n        /* \"@chainlink/contracts@1.3.0/src/v0.8/ChainlinkClient.sol\":12038:12067  ChainlinkFulfilled(requestId) */\n      0x7cc135e0cebb02c3480ae5d74d377283180a2601f8f644edf7987b009316c63a\n      mload(0x40)\n      mload(0x40)\n      dup1\n      swap2\n      sub\n      swap1\n      log2\n        /* \"docs.chain.link/samples/APIRequests/MultiWordConsumer.sol\":3247:3256  requestId */\n      dup5\n        /* \"docs.chain.link/samples/APIRequests/MultiWordConsumer.sol\":3209:3341  RequestMultipleFulfilled(... */\n      0xd8422588c680817fe4971ef8a5fe6a6b5df0d7cd4537eabef7fb17750e4187a7\n        /* \"docs.chain.link/samples/APIRequests/MultiWordConsumer.sol\":3270:3281  btcResponse */\n      dup6\n        /* \"docs.chain.link/samples/APIRequests/MultiWordConsumer.sol\":3295:3306  usdResponse */\n      dup6\n        /* \"docs.chain.link/samples/APIRequests/MultiWordConsumer.sol\":3320:3331  eurResponse */\n      dup6\n        /* \"docs.chain.link/samples/APIRequests/MultiWordConsumer.sol\":3209:3341  RequestMultipleFulfilled(... */\n      mload(0x40)\n      tag_88\n      swap4\n      swap3\n      swap2\n      swap1\n      tag_89\n      jump\t// in\n    tag_88:\n      mload(0x40)\n      dup1\n      swap2\n      sub\n      swap1\n      log2\n        /* \"docs.chain.link/samples/APIRequests/MultiWordConsumer.sol\":3357:3368  btcResponse */\n      dup4\n        /* \"docs.chain.link/samples/APIRequests/MultiWordConsumer.sol\":3351:3354  btc */\n      0x0a\n        /* \"docs.chain.link/samples/APIRequests/MultiWordConsumer.sol\":3351:3368  btc = btcResponse */\n      dup2\n      swap1\n      sstore\n      pop\n        /* \"docs.chain.link/samples/APIRequests/MultiWordConsumer.sol\":3384:3395  usdResponse */\n      dup3\n        /* \"docs.chain.link/samples/APIRequests/MultiWordConsumer.sol\":3378:3381  usd */\n      0x0b\n        /* \"docs.chain.link/samples/APIRequests/MultiWordConsumer.sol\":3378:3395  usd = usdResponse */\n      dup2\n      swap1\n      sstore\n      pop\n        /* \"docs.chain.link/samples/APIRequests/MultiWordConsumer.sol\":3411:3422  eurResponse */\n      dup2\n        /* \"docs.chain.link/samples/APIRequests/MultiWordConsumer.sol\":3405:3408  eur */\n      0x0c\n        /* \"docs.chain.link/samples/APIRequests/MultiWordConsumer.sol\":3405:3422  eur = eurResponse */\n      dup2\n      swap1\n      sstore\n      pop\n        /* \"docs.chain.link/samples/APIRequests/MultiWordConsumer.sol\":2994:3429  function fulfillMultipleParameters(... */\n      pop\n      pop\n      pop\n      pop\n      pop\n      jump\t// out\n        /* \"@chainlink/contracts@1.3.0/src/v0.8/ChainlinkClient.sol\":2041:2326  function _buildChainlinkRequest(... */\n    tag_43:\n        /* \"@chainlink/contracts@1.3.0/src/v0.8/ChainlinkClient.sol\":2184:2208  Chainlink.Request memory */\n      tag_90\n      tag_91\n      jump\t// in\n    tag_90:\n        /* \"@chainlink/contracts@1.3.0/src/v0.8/ChainlinkClient.sol\":2216:2244  Chainlink.Request memory req */\n      tag_93\n      tag_91\n      jump\t// in\n    tag_93:\n        /* \"@chainlink/contracts@1.3.0/src/v0.8/ChainlinkClient.sol\":2257:2321  req._initialize(specId, callbackAddr, callbackFunctionSignature) */\n      tag_94\n        /* \"@chainlink/contracts@1.3.0/src/v0.8/ChainlinkClient.sol\":2273:2279  specId */\n      dup6\n        /* \"@chainlink/contracts@1.3.0/src/v0.8/ChainlinkClient.sol\":2281:2293  callbackAddr */\n      dup6\n        /* \"@chainlink/contracts@1.3.0/src/v0.8/ChainlinkClient.sol\":2295:2320  callbackFunctionSignature */\n      dup6\n        /* \"@chainlink/contracts@1.3.0/src/v0.8/ChainlinkClient.sol\":2257:2260  req */\n      dup5\n        /* \"@chainlink/contracts@1.3.0/src/v0.8/ChainlinkClient.sol\":2257:2272  req._initialize */\n      tag_95\n      swap1\n        /* \"@chainlink/contracts@1.3.0/src/v0.8/ChainlinkClient.sol\":2257:2321  req._initialize(specId, callbackAddr, callbackFunctionSignature) */\n      swap4\n      swap3\n      swap2\n      swap1\n      0xffffffff\n      and\n      jump\t// in\n    tag_94:\n        /* \"@chainlink/contracts@1.3.0/src/v0.8/ChainlinkClient.sol\":2250:2321  return req._initialize(specId, callbackAddr, callbackFunctionSignature) */\n      swap2\n      pop\n      pop\n        /* \"@chainlink/contracts@1.3.0/src/v0.8/ChainlinkClient.sol\":2041:2326  function _buildChainlinkRequest(... */\n      swap4\n      swap3\n      pop\n      pop\n      pop\n      jump\t// out\n        /* \"@chainlink/contracts@1.3.0/src/v0.8/Chainlink.sol\":1994:2154  function _add(Request memory self, string memory key, string memory value) internal pure {... */\n    tag_45:\n        /* \"@chainlink/contracts@1.3.0/src/v0.8/Chainlink.sol\":2089:2115  self.buf.encodeString(key) */\n      tag_97\n        /* \"@chainlink/contracts@1.3.0/src/v0.8/Chainlink.sol\":2111:2114  key */\n      dup3\n        /* \"@chainlink/contracts@1.3.0/src/v0.8/Chainlink.sol\":2089:2093  self */\n      dup5\n        /* \"@chainlink/contracts@1.3.0/src/v0.8/Chainlink.sol\":2089:2097  self.buf */\n      0x80\n      add\n      mload\n        /* \"@chainlink/contracts@1.3.0/src/v0.8/Chainlink.sol\":2089:2110  self.buf.encodeString */\n      tag_98\n      swap1\n        /* \"@chainlink/contracts@1.3.0/src/v0.8/Chainlink.sol\":2089:2115  self.buf.encodeString(key) */\n      swap2\n      swap1\n      0xffffffff\n      and\n      jump\t// in\n    tag_97:\n        /* \"@chainlink/contracts@1.3.0/src/v0.8/Chainlink.sol\":2121:2149  self.buf.encodeString(value) */\n      tag_99\n        /* \"@chainlink/contracts@1.3.0/src/v0.8/Chainlink.sol\":2143:2148  value */\n      dup2\n        /* \"@chainlink/contracts@1.3.0/src/v0.8/Chainlink.sol\":2121:2125  self */\n      dup5\n        /* \"@chainlink/contracts@1.3.0/src/v0.8/Chainlink.sol\":2121:2129  self.buf */\n      0x80\n      add\n      mload\n        /* \"@chainlink/contracts@1.3.0/src/v0.8/Chainlink.sol\":2121:2142  self.buf.encodeString */\n      tag_98\n      swap1\n        /* \"@chainlink/contracts@1.3.0/src/v0.8/Chainlink.sol\":2121:2149  self.buf.encodeString(value) */\n      swap2\n      swap1\n      0xffffffff\n      and\n      jump\t// in\n    tag_99:\n        /* \"@chainlink/contracts@1.3.0/src/v0.8/Chainlink.sol\":1994:2154  function _add(Request memory self, string memory key, string memory value) internal pure {... */\n      pop\n      pop\n      pop\n      jump\t// out\n        /* \"@chainlink/contracts@1.3.0/src/v0.8/ChainlinkClient.sol\":3185:3364  function _sendChainlinkRequest(Chainlink.Request memory req, uint256 payment) internal returns (bytes32) {... */\n    tag_52:\n        /* \"@chainlink/contracts@1.3.0/src/v0.8/ChainlinkClient.sol\":3281:3288  bytes32 */\n      0x00\n        /* \"@chainlink/contracts@1.3.0/src/v0.8/ChainlinkClient.sol\":3303:3359  _sendChainlinkRequestTo(address(s_oracle), req, payment) */\n      tag_101\n        /* \"@chainlink/contracts@1.3.0/src/v0.8/ChainlinkClient.sol\":3335:3343  s_oracle */\n      0x03\n      0x00\n      swap1\n      sload\n      swap1\n      0x0100\n      exp\n      swap1\n      div\n      0xffffffffffffffffffffffffffffffffffffffff\n      and\n        /* \"@chainlink/contracts@1.3.0/src/v0.8/ChainlinkClient.sol\":3346:3349  req */\n      dup5\n        /* \"@chainlink/contracts@1.3.0/src/v0.8/ChainlinkClient.sol\":3351:3358  payment */\n      dup5\n        /* \"@chainlink/contracts@1.3.0/src/v0.8/ChainlinkClient.sol\":3303:3326  _sendChainlinkRequestTo */\n      tag_102\n        /* \"@chainlink/contracts@1.3.0/src/v0.8/ChainlinkClient.sol\":3303:3359  _sendChainlinkRequestTo(address(s_oracle), req, payment) */\n      jump\t// in\n    tag_101:\n        /* \"@chainlink/contracts@1.3.0/src/v0.8/ChainlinkClient.sol\":3296:3359  return _sendChainlinkRequestTo(address(s_oracle), req, payment) */\n      swap1\n      pop\n        /* \"@chainlink/contracts@1.3.0/src/v0.8/ChainlinkClient.sol\":3185:3364  function _sendChainlinkRequest(Chainlink.Request memory req, uint256 payment) internal returns (bytes32) {... */\n      swap3\n      swap2\n      pop\n      pop\n      jump\t// out\n        /* \"@chainlink/contracts@1.3.0/src/v0.8/shared/access/ConfirmedOwnerWithProposal.sol\":1809:1971  function _validateOwnership() internal view {... */\n    tag_60:\n        /* \"@chainlink/contracts@1.3.0/src/v0.8/shared/access/ConfirmedOwnerWithProposal.sol\":1932:1939  s_owner */\n      0x06\n      0x00\n      swap1\n      sload\n      swap1\n      0x0100\n      exp\n      swap1\n      div\n      0xffffffffffffffffffffffffffffffffffffffff\n      and\n        /* \"@chainlink/contracts@1.3.0/src/v0.8/shared/access/ConfirmedOwnerWithProposal.sol\":1918:1939  msg.sender == s_owner */\n      0xffffffffffffffffffffffffffffffffffffffff\n      and\n        /* \"@chainlink/contracts@1.3.0/src/v0.8/shared/access/ConfirmedOwnerWithProposal.sol\":1918:1928  msg.sender */\n      caller\n        /* \"@chainlink/contracts@1.3.0/src/v0.8/shared/access/ConfirmedOwnerWithProposal.sol\":1918:1939  msg.sender == s_owner */\n      0xffffffffffffffffffffffffffffffffffffffff\n      and\n      eq\n        /* \"@chainlink/contracts@1.3.0/src/v0.8/shared/access/ConfirmedOwnerWithProposal.sol\":1910:1966  require(msg.sender == s_owner, \"Only callable by owner\") */\n      tag_104\n      jumpi\n      mload(0x40)\n      0x08c379a000000000000000000000000000000000000000000000000000000000\n      dup2\n      mstore\n      0x04\n      add\n      tag_105\n      swap1\n      tag_106\n      jump\t// in\n    tag_105:\n      mload(0x40)\n      dup1\n      swap2\n      sub\n      swap1\n      revert\n    tag_104:\n        /* \"@chainlink/contracts@1.3.0/src/v0.8/shared/access/ConfirmedOwnerWithProposal.sol\":1809:1971  function _validateOwnership() internal view {... */\n      jump\t// out\n        /* \"@chainlink/contracts@1.3.0/src/v0.8/ChainlinkClient.sol\":9325:9424  function _chainlinkTokenAddress() internal view returns (address) {... */\n    tag_63:\n        /* \"@chainlink/contracts@1.3.0/src/v0.8/ChainlinkClient.sol\":9382:9389  address */\n      0x00\n        /* \"@chainlink/contracts@1.3.0/src/v0.8/ChainlinkClient.sol\":9412:9418  s_link */\n      0x02\n      0x00\n      swap1\n      sload\n      swap1\n      0x0100\n      exp\n      swap1\n      div\n      0xffffffffffffffffffffffffffffffffffffffff\n      and\n        /* \"@chainlink/contracts@1.3.0/src/v0.8/ChainlinkClient.sol\":9397:9419  return address(s_link) */\n      swap1\n      pop\n        /* \"@chainlink/contracts@1.3.0/src/v0.8/ChainlinkClient.sol\":9325:9424  function _chainlinkTokenAddress() internal view returns (address) {... */\n      swap1\n      jump\t// out\n        /* \"@chainlink/contracts@1.3.0/src/v0.8/shared/access/ConfirmedOwnerWithProposal.sol\":1536:1775  function _transferOwnership(address to) private {... */\n    tag_82:\n        /* \"@chainlink/contracts@1.3.0/src/v0.8/shared/access/ConfirmedOwnerWithProposal.sol\":1655:1665  msg.sender */\n      caller\n        /* \"@chainlink/contracts@1.3.0/src/v0.8/shared/access/ConfirmedOwnerWithProposal.sol\":1649:1665  to != msg.sender */\n      0xffffffffffffffffffffffffffffffffffffffff\n      and\n        /* \"@chainlink/contracts@1.3.0/src/v0.8/shared/access/ConfirmedOwnerWithProposal.sol\":1649:1651  to */\n      dup2\n        /* \"@chainlink/contracts@1.3.0/src/v0.8/shared/access/ConfirmedOwnerWithProposal.sol\":1649:1665  to != msg.sender */\n      0xffffffffffffffffffffffffffffffffffffffff\n      and\n      sub\n        /* \"@chainlink/contracts@1.3.0/src/v0.8/shared/access/ConfirmedOwnerWithProposal.sol\":1641:1693  require(to != msg.sender, \"Cannot transfer to self\") */\n      tag_109\n      jumpi\n      mload(0x40)\n      0x08c379a000000000000000000000000000000000000000000000000000000000\n      dup2\n      mstore\n      0x04\n      add\n      tag_110\n      swap1\n      tag_111\n      jump\t// in\n    tag_110:\n      mload(0x40)\n      dup1\n      swap2\n      sub\n      swap1\n      revert\n    tag_109:\n        /* \"@chainlink/contracts@1.3.0/src/v0.8/shared/access/ConfirmedOwnerWithProposal.sol\":1717:1719  to */\n      dup1\n        /* \"@chainlink/contracts@1.3.0/src/v0.8/shared/access/ConfirmedOwnerWithProposal.sol\":1700:1714  s_pendingOwner */\n      0x07\n      0x00\n        /* \"@chainlink/contracts@1.3.0/src/v0.8/shared/access/ConfirmedOwnerWithProposal.sol\":1700:1719  s_pendingOwner = to */\n      0x0100\n      exp\n      dup2\n      sload\n      dup2\n      0xffffffffffffffffffffffffffffffffffffffff\n      mul\n      not\n      and\n      swap1\n      dup4\n      0xffffffffffffffffffffffffffffffffffffffff\n      and\n      mul\n      or\n      swap1\n      sstore\n      pop\n        /* \"@chainlink/contracts@1.3.0/src/v0.8/shared/access/ConfirmedOwnerWithProposal.sol\":1767:1769  to */\n      dup1\n        /* \"@chainlink/contracts@1.3.0/src/v0.8/shared/access/ConfirmedOwnerWithProposal.sol\":1731:1770  OwnershipTransferRequested(s_owner, to) */\n      0xffffffffffffffffffffffffffffffffffffffff\n      and\n        /* \"@chainlink/contracts@1.3.0/src/v0.8/shared/access/ConfirmedOwnerWithProposal.sol\":1758:1765  s_owner */\n      0x06\n      0x00\n      swap1\n      sload\n      swap1\n      0x0100\n      exp\n      swap1\n      div\n      0xffffffffffffffffffffffffffffffffffffffff\n      and\n        /* \"@chainlink/contracts@1.3.0/src/v0.8/shared/access/ConfirmedOwnerWithProposal.sol\":1731:1770  OwnershipTransferRequested(s_owner, to) */\n      0xffffffffffffffffffffffffffffffffffffffff\n      and\n      0xed8889f560326eb138920d842192f0eb3dd22b4f139c87a2c57538e05bae1278\n      mload(0x40)\n      mload(0x40)\n      dup1\n      swap2\n      sub\n      swap1\n      log3\n        /* \"@chainlink/contracts@1.3.0/src/v0.8/shared/access/ConfirmedOwnerWithProposal.sol\":1536:1775  function _transferOwnership(address to) private {... */\n      pop\n      jump\t// out\n        /* \"@chainlink/contracts@1.3.0/src/v0.8/Chainlink.sol\":1028:1380  function _initialize(... */\n    tag_95:\n        /* \"@chainlink/contracts@1.3.0/src/v0.8/Chainlink.sol\":1171:1195  Chainlink.Request memory */\n      tag_112\n      tag_91\n      jump\t// in\n    tag_112:\n        /* \"@chainlink/contracts@1.3.0/src/v0.8/Chainlink.sol\":1203:1252  BufferChainlink.init(self.buf, defaultBufferSize) */\n      tag_114\n        /* \"@chainlink/contracts@1.3.0/src/v0.8/Chainlink.sol\":1224:1228  self */\n      dup6\n        /* \"@chainlink/contracts@1.3.0/src/v0.8/Chainlink.sol\":1224:1232  self.buf */\n      0x80\n      add\n      mload\n        /* \"@chainlink/contracts@1.3.0/src/v0.8/Chainlink.sol\":447:450  256 */\n      0x0100\n        /* \"@chainlink/contracts@1.3.0/src/v0.8/Chainlink.sol\":1203:1223  BufferChainlink.init */\n      tag_115\n        /* \"@chainlink/contracts@1.3.0/src/v0.8/Chainlink.sol\":1203:1252  BufferChainlink.init(self.buf, defaultBufferSize) */\n      jump\t// in\n    tag_114:\n      pop\n        /* \"@chainlink/contracts@1.3.0/src/v0.8/Chainlink.sol\":1268:1273  jobId */\n      dup4\n        /* \"@chainlink/contracts@1.3.0/src/v0.8/Chainlink.sol\":1258:1262  self */\n      dup6\n        /* \"@chainlink/contracts@1.3.0/src/v0.8/Chainlink.sol\":1258:1265  self.id */\n      0x00\n      add\n        /* \"@chainlink/contracts@1.3.0/src/v0.8/Chainlink.sol\":1258:1273  self.id = jobId */\n      dup2\n      dup2\n      mstore\n      pop\n      pop\n        /* \"@chainlink/contracts@1.3.0/src/v0.8/Chainlink.sol\":1302:1314  callbackAddr */\n      dup3\n        /* \"@chainlink/contracts@1.3.0/src/v0.8/Chainlink.sol\":1279:1283  self */\n      dup6\n        /* \"@chainlink/contracts@1.3.0/src/v0.8/Chainlink.sol\":1279:1299  self.callbackAddress */\n      0x20\n      add\n        /* \"@chainlink/contracts@1.3.0/src/v0.8/Chainlink.sol\":1279:1314  self.callbackAddress = callbackAddr */\n      swap1\n      0xffffffffffffffffffffffffffffffffffffffff\n      and\n      swap1\n      dup2\n      0xffffffffffffffffffffffffffffffffffffffff\n      and\n      dup2\n      mstore\n      pop\n      pop\n        /* \"@chainlink/contracts@1.3.0/src/v0.8/Chainlink.sol\":1346:1358  callbackFunc */\n      dup2\n        /* \"@chainlink/contracts@1.3.0/src/v0.8/Chainlink.sol\":1320:1324  self */\n      dup6\n        /* \"@chainlink/contracts@1.3.0/src/v0.8/Chainlink.sol\":1320:1343  self.callbackFunctionId */\n      0x40\n      add\n        /* \"@chainlink/contracts@1.3.0/src/v0.8/Chainlink.sol\":1320:1358  self.callbackFunctionId = callbackFunc */\n      swap1\n      not(0xffffffffffffffffffffffffffffffffffffffffffffffffffffffff)\n      and\n      swap1\n      dup2\n      not(0xffffffffffffffffffffffffffffffffffffffffffffffffffffffff)\n      and\n      dup2\n      mstore\n      pop\n      pop\n        /* \"@chainlink/contracts@1.3.0/src/v0.8/Chainlink.sol\":1371:1375  self */\n      dup5\n        /* \"@chainlink/contracts@1.3.0/src/v0.8/Chainlink.sol\":1364:1375  return self */\n      swap1\n      pop\n        /* \"@chainlink/contracts@1.3.0/src/v0.8/Chainlink.sol\":1028:1380  function _initialize(... */\n      swap5\n      swap4\n      pop\n      pop\n      pop\n      pop\n      jump\t// out\n        /* \"@chainlink/contracts@1.3.0/src/v0.8/vendor/CBORChainlink.sol\":2777:2981  function encodeString(BufferChainlink.buffer memory buf, string memory value) internal pure {... */\n    tag_98:\n        /* \"@chainlink/contracts@1.3.0/src/v0.8/vendor/CBORChainlink.sol\":2875:2946  encodeFixedNumeric(buf, MAJOR_TYPE_STRING, uint64(bytes(value).length)) */\n      tag_117\n        /* \"@chainlink/contracts@1.3.0/src/v0.8/vendor/CBORChainlink.sol\":2894:2897  buf */\n      dup3\n        /* \"@chainlink/contracts@1.3.0/src/v0.8/vendor/CBORChainlink.sol\":383:384  3 */\n      0x03\n        /* \"@chainlink/contracts@1.3.0/src/v0.8/vendor/CBORChainlink.sol\":2931:2936  value */\n      dup4\n        /* \"@chainlink/contracts@1.3.0/src/v0.8/vendor/CBORChainlink.sol\":2925:2944  bytes(value).length */\n      mload\n        /* \"@chainlink/contracts@1.3.0/src/v0.8/vendor/CBORChainlink.sol\":2875:2893  encodeFixedNumeric */\n      tag_118\n        /* \"@chainlink/contracts@1.3.0/src/v0.8/vendor/CBORChainlink.sol\":2875:2946  encodeFixedNumeric(buf, MAJOR_TYPE_STRING, uint64(bytes(value).length)) */\n      jump\t// in\n    tag_117:\n        /* \"@chainlink/contracts@1.3.0/src/v0.8/vendor/CBORChainlink.sol\":2952:2976  buf.append(bytes(value)) */\n      tag_119\n        /* \"@chainlink/contracts@1.3.0/src/v0.8/vendor/CBORChainlink.sol\":2969:2974  value */\n      dup2\n        /* \"@chainlink/contracts@1.3.0/src/v0.8/vendor/CBORChainlink.sol\":2952:2955  buf */\n      dup4\n        /* \"@chainlink/contracts@1.3.0/src/v0.8/vendor/CBORChainlink.sol\":2952:2962  buf.append */\n      tag_120\n      swap1\n        /* \"@chainlink/contracts@1.3.0/src/v0.8/vendor/CBORChainlink.sol\":2952:2976  buf.append(bytes(value)) */\n      swap2\n      swap1\n      0xffffffff\n      and\n      jump\t// in\n    tag_119:\n      pop\n        /* \"@chainlink/contracts@1.3.0/src/v0.8/vendor/CBORChainlink.sol\":2777:2981  function encodeString(BufferChainlink.buffer memory buf, string memory value) internal pure {... */\n      pop\n      pop\n      jump\t// out\n        /* \"@chainlink/contracts@1.3.0/src/v0.8/ChainlinkClient.sol\":3882:4639  function _sendChainlinkRequestTo(... */\n    tag_102:\n        /* \"@chainlink/contracts@1.3.0/src/v0.8/ChainlinkClient.sol\":4019:4036  bytes32 requestId */\n      0x00\n        /* \"@chainlink/contracts@1.3.0/src/v0.8/ChainlinkClient.sol\":4044:4057  uint256 nonce */\n      dup1\n        /* \"@chainlink/contracts@1.3.0/src/v0.8/ChainlinkClient.sol\":4060:4074  s_requestCount */\n      sload(0x04)\n        /* \"@chainlink/contracts@1.3.0/src/v0.8/ChainlinkClient.sol\":4044:4074  uint256 nonce = s_requestCount */\n      swap1\n      pop\n        /* \"@chainlink/contracts@1.3.0/src/v0.8/ChainlinkClient.sol\":4105:4106  1 */\n      0x01\n        /* \"@chainlink/contracts@1.3.0/src/v0.8/ChainlinkClient.sol\":4097:4102  nonce */\n      dup2\n        /* \"@chainlink/contracts@1.3.0/src/v0.8/ChainlinkClient.sol\":4097:4106  nonce + 1 */\n      tag_122\n      swap2\n      swap1\n      tag_123\n      jump\t// in\n    tag_122:\n        /* \"@chainlink/contracts@1.3.0/src/v0.8/ChainlinkClient.sol\":4080:4094  s_requestCount */\n      0x04\n        /* \"@chainlink/contracts@1.3.0/src/v0.8/ChainlinkClient.sol\":4080:4106  s_requestCount = nonce + 1 */\n      dup2\n      swap1\n      sstore\n      pop\n        /* \"@chainlink/contracts@1.3.0/src/v0.8/ChainlinkClient.sol\":4112:4139  bytes memory encodedRequest */\n      0x00\n        /* \"@chainlink/contracts@1.3.0/src/v0.8/ChainlinkClient.sol\":4172:4220  ChainlinkRequestInterface.oracleRequest.selector */\n      shl(0xe0, 0x40429946)\n        /* \"@chainlink/contracts@1.3.0/src/v0.8/ChainlinkClient.sol\":975:976  0 */\n      0x00\n        /* \"@chainlink/contracts@1.3.0/src/v0.8/ChainlinkClient.sol\":919:920  0 */\n      dup1\n        /* \"@chainlink/contracts@1.3.0/src/v0.8/ChainlinkClient.sol\":4441:4444  req */\n      dup8\n        /* \"@chainlink/contracts@1.3.0/src/v0.8/ChainlinkClient.sol\":4441:4447  req.id */\n      0x00\n      add\n      mload\n        /* \"@chainlink/contracts@1.3.0/src/v0.8/ChainlinkClient.sol\":4463:4467  this */\n      address\n        /* \"@chainlink/contracts@1.3.0/src/v0.8/ChainlinkClient.sol\":4476:4479  req */\n      dup10\n        /* \"@chainlink/contracts@1.3.0/src/v0.8/ChainlinkClient.sol\":4476:4498  req.callbackFunctionId */\n      0x40\n      add\n      mload\n        /* \"@chainlink/contracts@1.3.0/src/v0.8/ChainlinkClient.sol\":4506:4511  nonce */\n      dup8\n        /* \"@chainlink/contracts@1.3.0/src/v0.8/ChainlinkClient.sol\":1028:1029  1 */\n      0x01\n        /* \"@chainlink/contracts@1.3.0/src/v0.8/ChainlinkClient.sol\":4546:4549  req */\n      dup13\n        /* \"@chainlink/contracts@1.3.0/src/v0.8/ChainlinkClient.sol\":4546:4553  req.buf */\n      0x80\n      add\n      mload\n        /* \"@chainlink/contracts@1.3.0/src/v0.8/ChainlinkClient.sol\":4546:4557  req.buf.buf */\n      0x00\n      add\n      mload\n        /* \"@chainlink/contracts@1.3.0/src/v0.8/ChainlinkClient.sol\":4142:4563  abi.encodeWithSelector(... */\n      add(0x24, mload(0x40))\n      tag_124\n      swap9\n      swap8\n      swap7\n      swap6\n      swap5\n      swap4\n      swap3\n      swap2\n      swap1\n      tag_125\n      jump\t// in\n    tag_124:\n      mload(0x40)\n      0x20\n      dup2\n      dup4\n      sub\n      sub\n      dup2\n      mstore\n      swap1\n      0x40\n      mstore\n      swap1\n      not(0xffffffffffffffffffffffffffffffffffffffffffffffffffffffff)\n      and\n      0x20\n      dup3\n      add\n      dup1\n      mload\n      0xffffffffffffffffffffffffffffffffffffffffffffffffffffffff\n      dup4\n      dup2\n      dup4\n      and\n      or\n      dup4\n      mstore\n      pop\n      pop\n      pop\n      pop\n        /* \"@chainlink/contracts@1.3.0/src/v0.8/ChainlinkClient.sol\":4112:4563  bytes memory encodedRequest = abi.encodeWithSelector(... */\n      swap1\n      pop\n        /* \"@chainlink/contracts@1.3.0/src/v0.8/ChainlinkClient.sol\":4576:4634  _rawRequest(oracleAddress, nonce, payment, encodedRequest) */\n      tag_126\n        /* \"@chainlink/contracts@1.3.0/src/v0.8/ChainlinkClient.sol\":4588:4601  oracleAddress */\n      dup7\n        /* \"@chainlink/contracts@1.3.0/src/v0.8/ChainlinkClient.sol\":4603:4608  nonce */\n      dup4\n        /* \"@chainlink/contracts@1.3.0/src/v0.8/ChainlinkClient.sol\":4610:4617  payment */\n      dup7\n        /* \"@chainlink/contracts@1.3.0/src/v0.8/ChainlinkClient.sol\":4619:4633  encodedRequest */\n      dup5\n        /* \"@chainlink/contracts@1.3.0/src/v0.8/ChainlinkClient.sol\":4576:4587  _rawRequest */\n      tag_127\n        /* \"@chainlink/contracts@1.3.0/src/v0.8/ChainlinkClient.sol\":4576:4634  _rawRequest(oracleAddress, nonce, payment, encodedRequest) */\n      jump\t// in\n    tag_126:\n        /* \"@chainlink/contracts@1.3.0/src/v0.8/ChainlinkClient.sol\":4569:4634  return _rawRequest(oracleAddress, nonce, payment, encodedRequest) */\n      swap3\n      pop\n      pop\n      pop\n        /* \"@chainlink/contracts@1.3.0/src/v0.8/ChainlinkClient.sol\":3882:4639  function _sendChainlinkRequestTo(... */\n      swap4\n      swap3\n      pop\n      pop\n      pop\n      jump\t// out\n        /* \"@chainlink/contracts@1.3.0/src/v0.8/vendor/BufferChainlink.sol\":1001:1400  function init(buffer memory buf, uint256 capacity) internal pure returns (buffer memory) {... */\n    tag_115:\n        /* \"@chainlink/contracts@1.3.0/src/v0.8/vendor/BufferChainlink.sol\":1075:1088  buffer memory */\n      tag_128\n      tag_129\n      jump\t// in\n    tag_128:\n        /* \"@chainlink/contracts@1.3.0/src/v0.8/vendor/BufferChainlink.sol\":1117:1118  0 */\n      0x00\n        /* \"@chainlink/contracts@1.3.0/src/v0.8/vendor/BufferChainlink.sol\":1111:1113  32 */\n      0x20\n        /* \"@chainlink/contracts@1.3.0/src/v0.8/vendor/BufferChainlink.sol\":1100:1108  capacity */\n      dup4\n        /* \"@chainlink/contracts@1.3.0/src/v0.8/vendor/BufferChainlink.sol\":1100:1113  capacity % 32 */\n      tag_131\n      swap2\n      swap1\n      tag_132\n      jump\t// in\n    tag_131:\n        /* \"@chainlink/contracts@1.3.0/src/v0.8/vendor/BufferChainlink.sol\":1100:1118  capacity % 32 != 0 */\n      eq\n        /* \"@chainlink/contracts@1.3.0/src/v0.8/vendor/BufferChainlink.sol\":1096:1167  if (capacity % 32 != 0) {... */\n      tag_133\n      jumpi\n        /* \"@chainlink/contracts@1.3.0/src/v0.8/vendor/BufferChainlink.sol\":1157:1159  32 */\n      0x20\n        /* \"@chainlink/contracts@1.3.0/src/v0.8/vendor/BufferChainlink.sol\":1146:1154  capacity */\n      dup3\n        /* \"@chainlink/contracts@1.3.0/src/v0.8/vendor/BufferChainlink.sol\":1146:1159  capacity % 32 */\n      tag_134\n      swap2\n      swap1\n      tag_132\n      jump\t// in\n    tag_134:\n        /* \"@chainlink/contracts@1.3.0/src/v0.8/vendor/BufferChainlink.sol\":1140:1142  32 */\n      0x20\n        /* \"@chainlink/contracts@1.3.0/src/v0.8/vendor/BufferChainlink.sol\":1140:1160  32 - (capacity % 32) */\n      tag_135\n      swap2\n      swap1\n      tag_136\n      jump\t// in\n    tag_135:\n        /* \"@chainlink/contracts@1.3.0/src/v0.8/vendor/BufferChainlink.sol\":1128:1160  capacity += 32 - (capacity % 32) */\n      dup3\n      tag_137\n      swap2\n      swap1\n      tag_123\n      jump\t// in\n    tag_137:\n      swap2\n      pop\n        /* \"@chainlink/contracts@1.3.0/src/v0.8/vendor/BufferChainlink.sol\":1096:1167  if (capacity % 32 != 0) {... */\n    tag_133:\n        /* \"@chainlink/contracts@1.3.0/src/v0.8/vendor/BufferChainlink.sol\":1229:1237  capacity */\n      dup2\n        /* \"@chainlink/contracts@1.3.0/src/v0.8/vendor/BufferChainlink.sol\":1214:1217  buf */\n      dup4\n        /* \"@chainlink/contracts@1.3.0/src/v0.8/vendor/BufferChainlink.sol\":1214:1226  buf.capacity */\n      0x20\n      add\n        /* \"@chainlink/contracts@1.3.0/src/v0.8/vendor/BufferChainlink.sol\":1214:1237  buf.capacity = capacity */\n      dup2\n      dup2\n      mstore\n      pop\n      pop\n        /* \"@chainlink/contracts@1.3.0/src/v0.8/vendor/BufferChainlink.sol\":1277:1281  0x40 */\n      0x40\n        /* \"@chainlink/contracts@1.3.0/src/v0.8/vendor/BufferChainlink.sol\":1271:1282  mload(0x40) */\n      mload\n        /* \"@chainlink/contracts@1.3.0/src/v0.8/vendor/BufferChainlink.sol\":1301:1304  ptr */\n      dup1\n        /* \"@chainlink/contracts@1.3.0/src/v0.8/vendor/BufferChainlink.sol\":1296:1299  buf */\n      dup5\n        /* \"@chainlink/contracts@1.3.0/src/v0.8/vendor/BufferChainlink.sol\":1289:1305  mstore(buf, ptr) */\n      mstore\n        /* \"@chainlink/contracts@1.3.0/src/v0.8/vendor/BufferChainlink.sol\":1324:1325  0 */\n      0x00\n        /* \"@chainlink/contracts@1.3.0/src/v0.8/vendor/BufferChainlink.sol\":1319:1322  ptr */\n      dup2\n        /* \"@chainlink/contracts@1.3.0/src/v0.8/vendor/BufferChainlink.sol\":1312:1326  mstore(ptr, 0) */\n      mstore\n        /* \"@chainlink/contracts@1.3.0/src/v0.8/vendor/BufferChainlink.sol\":1363:1371  capacity */\n      dup3\n        /* \"@chainlink/contracts@1.3.0/src/v0.8/vendor/BufferChainlink.sol\":1358:1361  ptr */\n      dup2\n        /* \"@chainlink/contracts@1.3.0/src/v0.8/vendor/BufferChainlink.sol\":1354:1372  add(ptr, capacity) */\n      add\n        /* \"@chainlink/contracts@1.3.0/src/v0.8/vendor/BufferChainlink.sol\":1350:1352  32 */\n      0x20\n        /* \"@chainlink/contracts@1.3.0/src/v0.8/vendor/BufferChainlink.sol\":1346:1373  add(32, add(ptr, capacity)) */\n      add\n        /* \"@chainlink/contracts@1.3.0/src/v0.8/vendor/BufferChainlink.sol\":1340:1344  0x40 */\n      0x40\n        /* \"@chainlink/contracts@1.3.0/src/v0.8/vendor/BufferChainlink.sol\":1333:1374  mstore(0x40, add(32, add(ptr, capacity))) */\n      mstore\n        /* \"@chainlink/contracts@1.3.0/src/v0.8/vendor/BufferChainlink.sol\":1252:1380  {... */\n      pop\n        /* \"@chainlink/contracts@1.3.0/src/v0.8/vendor/BufferChainlink.sol\":1392:1395  buf */\n      dup3\n        /* \"@chainlink/contracts@1.3.0/src/v0.8/vendor/BufferChainlink.sol\":1385:1395  return buf */\n      swap1\n      pop\n        /* \"@chainlink/contracts@1.3.0/src/v0.8/vendor/BufferChainlink.sol\":1001:1400  function init(buffer memory buf, uint256 capacity) internal pure returns (buffer memory) {... */\n      swap3\n      swap2\n      pop\n      pop\n      jump\t// out\n        /* \"@chainlink/contracts@1.3.0/src/v0.8/vendor/CBORChainlink.sol\":682:1307  function encodeFixedNumeric(BufferChainlink.buffer memory buf, uint8 major, uint64 value) private pure {... */\n    tag_118:\n        /* \"@chainlink/contracts@1.3.0/src/v0.8/vendor/CBORChainlink.sol\":803:805  23 */\n      0x17\n        /* \"@chainlink/contracts@1.3.0/src/v0.8/vendor/CBORChainlink.sol\":794:799  value */\n      dup2\n        /* \"@chainlink/contracts@1.3.0/src/v0.8/vendor/CBORChainlink.sol\":794:805  value <= 23 */\n      0xffffffffffffffff\n      and\n      gt\n        /* \"@chainlink/contracts@1.3.0/src/v0.8/vendor/CBORChainlink.sol\":791:1303  if(value <= 23) {... */\n      tag_139\n      jumpi\n        /* \"@chainlink/contracts@1.3.0/src/v0.8/vendor/CBORChainlink.sol\":815:859  buf.appendUint8(uint8((major << 5) | value)) */\n      tag_140\n        /* \"@chainlink/contracts@1.3.0/src/v0.8/vendor/CBORChainlink.sol\":852:857  value */\n      dup2\n        /* \"@chainlink/contracts@1.3.0/src/v0.8/vendor/CBORChainlink.sol\":847:848  5 */\n      0x05\n        /* \"@chainlink/contracts@1.3.0/src/v0.8/vendor/CBORChainlink.sol\":838:843  major */\n      dup5\n        /* \"@chainlink/contracts@1.3.0/src/v0.8/vendor/CBORChainlink.sol\":838:848  major << 5 */\n      0xff\n      and\n      swap1\n      shl\n        /* \"@chainlink/contracts@1.3.0/src/v0.8/vendor/CBORChainlink.sol\":837:857  (major << 5) | value */\n      0xff\n      and\n      or\n        /* \"@chainlink/contracts@1.3.0/src/v0.8/vendor/CBORChainlink.sol\":815:818  buf */\n      dup5\n        /* \"@chainlink/contracts@1.3.0/src/v0.8/vendor/CBORChainlink.sol\":815:830  buf.appendUint8 */\n      tag_141\n      swap1\n        /* \"@chainlink/contracts@1.3.0/src/v0.8/vendor/CBORChainlink.sol\":815:859  buf.appendUint8(uint8((major << 5) | value)) */\n      swap2\n      swap1\n      0xffffffff\n      and\n      jump\t// in\n    tag_140:\n      pop\n        /* \"@chainlink/contracts@1.3.0/src/v0.8/vendor/CBORChainlink.sol\":791:1303  if(value <= 23) {... */\n      jump(tag_142)\n    tag_139:\n        /* \"@chainlink/contracts@1.3.0/src/v0.8/vendor/CBORChainlink.sol\":885:889  0xFF */\n      0xff\n        /* \"@chainlink/contracts@1.3.0/src/v0.8/vendor/CBORChainlink.sol\":876:881  value */\n      dup2\n        /* \"@chainlink/contracts@1.3.0/src/v0.8/vendor/CBORChainlink.sol\":876:889  value <= 0xFF */\n      0xffffffffffffffff\n      and\n      gt\n        /* \"@chainlink/contracts@1.3.0/src/v0.8/vendor/CBORChainlink.sol\":872:1303  if (value <= 0xFF) {... */\n      tag_143\n      jumpi\n        /* \"@chainlink/contracts@1.3.0/src/v0.8/vendor/CBORChainlink.sol\":899:940  buf.appendUint8(uint8((major << 5) | 24)) */\n      tag_144\n        /* \"@chainlink/contracts@1.3.0/src/v0.8/vendor/CBORChainlink.sol\":936:938  24 */\n      0x18\n        /* \"@chainlink/contracts@1.3.0/src/v0.8/vendor/CBORChainlink.sol\":931:932  5 */\n      0x05\n        /* \"@chainlink/contracts@1.3.0/src/v0.8/vendor/CBORChainlink.sol\":922:927  major */\n      dup5\n        /* \"@chainlink/contracts@1.3.0/src/v0.8/vendor/CBORChainlink.sol\":922:932  major << 5 */\n      0xff\n      and\n      swap1\n      shl\n        /* \"@chainlink/contracts@1.3.0/src/v0.8/vendor/CBORChainlink.sol\":921:938  (major << 5) | 24 */\n      or\n        /* \"@chainlink/contracts@1.3.0/src/v0.8/vendor/CBORChainlink.sol\":899:902  buf */\n      dup5\n        /* \"@chainlink/contracts@1.3.0/src/v0.8/vendor/CBORChainlink.sol\":899:914  buf.appendUint8 */\n      tag_141\n      swap1\n        /* \"@chainlink/contracts@1.3.0/src/v0.8/vendor/CBORChainlink.sol\":899:940  buf.appendUint8(uint8((major << 5) | 24)) */\n      swap2\n      swap1\n      0xffffffff\n      and\n      jump\t// in\n    tag_144:\n      pop\n        /* \"@chainlink/contracts@1.3.0/src/v0.8/vendor/CBORChainlink.sol\":948:971  buf.appendInt(value, 1) */\n      tag_145\n        /* \"@chainlink/contracts@1.3.0/src/v0.8/vendor/CBORChainlink.sol\":962:967  value */\n      dup2\n        /* \"@chainlink/contracts@1.3.0/src/v0.8/vendor/CBORChainlink.sol\":948:971  buf.appendInt(value, 1) */\n      0xffffffffffffffff\n      and\n        /* \"@chainlink/contracts@1.3.0/src/v0.8/vendor/CBORChainlink.sol\":969:970  1 */\n      0x01\n        /* \"@chainlink/contracts@1.3.0/src/v0.8/vendor/CBORChainlink.sol\":948:951  buf */\n      dup6\n        /* \"@chainlink/contracts@1.3.0/src/v0.8/vendor/CBORChainlink.sol\":948:961  buf.appendInt */\n      tag_146\n      swap1\n        /* \"@chainlink/contracts@1.3.0/src/v0.8/vendor/CBORChainlink.sol\":948:971  buf.appendInt(value, 1) */\n      swap3\n      swap2\n      swap1\n      0xffffffff\n      and\n      jump\t// in\n    tag_145:\n      pop\n        /* \"@chainlink/contracts@1.3.0/src/v0.8/vendor/CBORChainlink.sol\":872:1303  if (value <= 0xFF) {... */\n      jump(tag_147)\n    tag_143:\n        /* \"@chainlink/contracts@1.3.0/src/v0.8/vendor/CBORChainlink.sol\":997:1003  0xFFFF */\n      0xffff\n        /* \"@chainlink/contracts@1.3.0/src/v0.8/vendor/CBORChainlink.sol\":988:993  value */\n      dup2\n        /* \"@chainlink/contracts@1.3.0/src/v0.8/vendor/CBORChainlink.sol\":988:1003  value <= 0xFFFF */\n      0xffffffffffffffff\n      and\n      gt\n        /* \"@chainlink/contracts@1.3.0/src/v0.8/vendor/CBORChainlink.sol\":984:1303  if (value <= 0xFFFF) {... */\n      tag_148\n      jumpi\n        /* \"@chainlink/contracts@1.3.0/src/v0.8/vendor/CBORChainlink.sol\":1013:1054  buf.appendUint8(uint8((major << 5) | 25)) */\n      tag_149\n        /* \"@chainlink/contracts@1.3.0/src/v0.8/vendor/CBORChainlink.sol\":1050:1052  25 */\n      0x19\n        /* \"@chainlink/contracts@1.3.0/src/v0.8/vendor/CBORChainlink.sol\":1045:1046  5 */\n      0x05\n        /* \"@chainlink/contracts@1.3.0/src/v0.8/vendor/CBORChainlink.sol\":1036:1041  major */\n      dup5\n        /* \"@chainlink/contracts@1.3.0/src/v0.8/vendor/CBORChainlink.sol\":1036:1046  major << 5 */\n      0xff\n      and\n      swap1\n      shl\n        /* \"@chainlink/contracts@1.3.0/src/v0.8/vendor/CBORChainlink.sol\":1035:1052  (major << 5) | 25 */\n      or\n        /* \"@chainlink/contracts@1.3.0/src/v0.8/vendor/CBORChainlink.sol\":1013:1016  buf */\n      dup5\n        /* \"@chainlink/contracts@1.3.0/src/v0.8/vendor/CBORChainlink.sol\":1013:1028  buf.appendUint8 */\n      tag_141\n      swap1\n        /* \"@chainlink/contracts@1.3.0/src/v0.8/vendor/CBORChainlink.sol\":1013:1054  buf.appendUint8(uint8((major << 5) | 25)) */\n      swap2\n      swap1\n      0xffffffff\n      and\n      jump\t// in\n    tag_149:\n      pop\n        /* \"@chainlink/contracts@1.3.0/src/v0.8/vendor/CBORChainlink.sol\":1062:1085  buf.appendInt(value, 2) */\n      tag_150\n        /* \"@chainlink/contracts@1.3.0/src/v0.8/vendor/CBORChainlink.sol\":1076:1081  value */\n      dup2\n        /* \"@chainlink/contracts@1.3.0/src/v0.8/vendor/CBORChainlink.sol\":1062:1085  buf.appendInt(value, 2) */\n      0xffffffffffffffff\n      and\n        /* \"@chainlink/contracts@1.3.0/src/v0.8/vendor/CBORChainlink.sol\":1083:1084  2 */\n      0x02\n        /* \"@chainlink/contracts@1.3.0/src/v0.8/vendor/CBORChainlink.sol\":1062:1065  buf */\n      dup6\n        /* \"@chainlink/contracts@1.3.0/src/v0.8/vendor/CBORChainlink.sol\":1062:1075  buf.appendInt */\n      tag_146\n      swap1\n        /* \"@chainlink/contracts@1.3.0/src/v0.8/vendor/CBORChainlink.sol\":1062:1085  buf.appendInt(value, 2) */\n      swap3\n      swap2\n      swap1\n      0xffffffff\n      and\n      jump\t// in\n    tag_150:\n      pop\n        /* \"@chainlink/contracts@1.3.0/src/v0.8/vendor/CBORChainlink.sol\":984:1303  if (value <= 0xFFFF) {... */\n      jump(tag_151)\n    tag_148:\n        /* \"@chainlink/contracts@1.3.0/src/v0.8/vendor/CBORChainlink.sol\":1111:1121  0xFFFFFFFF */\n      0xffffffff\n        /* \"@chainlink/contracts@1.3.0/src/v0.8/vendor/CBORChainlink.sol\":1102:1107  value */\n      dup2\n        /* \"@chainlink/contracts@1.3.0/src/v0.8/vendor/CBORChainlink.sol\":1102:1121  value <= 0xFFFFFFFF */\n      0xffffffffffffffff\n      and\n      gt\n        /* \"@chainlink/contracts@1.3.0/src/v0.8/vendor/CBORChainlink.sol\":1098:1303  if (value <= 0xFFFFFFFF) {... */\n      tag_152\n      jumpi\n        /* \"@chainlink/contracts@1.3.0/src/v0.8/vendor/CBORChainlink.sol\":1131:1172  buf.appendUint8(uint8((major << 5) | 26)) */\n      tag_153\n        /* \"@chainlink/contracts@1.3.0/src/v0.8/vendor/CBORChainlink.sol\":1168:1170  26 */\n      0x1a\n        /* \"@chainlink/contracts@1.3.0/src/v0.8/vendor/CBORChainlink.sol\":1163:1164  5 */\n      0x05\n        /* \"@chainlink/contracts@1.3.0/src/v0.8/vendor/CBORChainlink.sol\":1154:1159  major */\n      dup5\n        /* \"@chainlink/contracts@1.3.0/src/v0.8/vendor/CBORChainlink.sol\":1154:1164  major << 5 */\n      0xff\n      and\n      swap1\n      shl\n        /* \"@chainlink/contracts@1.3.0/src/v0.8/vendor/CBORChainlink.sol\":1153:1170  (major << 5) | 26 */\n      or\n        /* \"@chainlink/contracts@1.3.0/src/v0.8/vendor/CBORChainlink.sol\":1131:1134  buf */\n      dup5\n        /* \"@chainlink/contracts@1.3.0/src/v0.8/vendor/CBORChainlink.sol\":1131:1146  buf.appendUint8 */\n      tag_141\n      swap1\n        /* \"@chainlink/contracts@1.3.0/src/v0.8/vendor/CBORChainlink.sol\":1131:1172  buf.appendUint8(uint8((major << 5) | 26)) */\n      swap2\n      swap1\n      0xffffffff\n      and\n      jump\t// in\n    tag_153:\n      pop\n        /* \"@chainlink/contracts@1.3.0/src/v0.8/vendor/CBORChainlink.sol\":1180:1203  buf.appendInt(value, 4) */\n      tag_154\n        /* \"@chainlink/contracts@1.3.0/src/v0.8/vendor/CBORChainlink.sol\":1194:1199  value */\n      dup2\n        /* \"@chainlink/contracts@1.3.0/src/v0.8/vendor/CBORChainlink.sol\":1180:1203  buf.appendInt(value, 4) */\n      0xffffffffffffffff\n      and\n        /* \"@chainlink/contracts@1.3.0/src/v0.8/vendor/CBORChainlink.sol\":1201:1202  4 */\n      0x04\n        /* \"@chainlink/contracts@1.3.0/src/v0.8/vendor/CBORChainlink.sol\":1180:1183  buf */\n      dup6\n        /* \"@chainlink/contracts@1.3.0/src/v0.8/vendor/CBORChainlink.sol\":1180:1193  buf.appendInt */\n      tag_146\n      swap1\n        /* \"@chainlink/contracts@1.3.0/src/v0.8/vendor/CBORChainlink.sol\":1180:1203  buf.appendInt(value, 4) */\n      swap3\n      swap2\n      swap1\n      0xffffffff\n      and\n      jump\t// in\n    tag_154:\n      pop\n        /* \"@chainlink/contracts@1.3.0/src/v0.8/vendor/CBORChainlink.sol\":1098:1303  if (value <= 0xFFFFFFFF) {... */\n      jump(tag_155)\n    tag_152:\n        /* \"@chainlink/contracts@1.3.0/src/v0.8/vendor/CBORChainlink.sol\":1224:1265  buf.appendUint8(uint8((major << 5) | 27)) */\n      tag_156\n        /* \"@chainlink/contracts@1.3.0/src/v0.8/vendor/CBORChainlink.sol\":1261:1263  27 */\n      0x1b\n        /* \"@chainlink/contracts@1.3.0/src/v0.8/vendor/CBORChainlink.sol\":1256:1257  5 */\n      0x05\n        /* \"@chainlink/contracts@1.3.0/src/v0.8/vendor/CBORChainlink.sol\":1247:1252  major */\n      dup5\n        /* \"@chainlink/contracts@1.3.0/src/v0.8/vendor/CBORChainlink.sol\":1247:1257  major << 5 */\n      0xff\n      and\n      swap1\n      shl\n        /* \"@chainlink/contracts@1.3.0/src/v0.8/vendor/CBORChainlink.sol\":1246:1263  (major << 5) | 27 */\n      or\n        /* \"@chainlink/contracts@1.3.0/src/v0.8/vendor/CBORChainlink.sol\":1224:1227  buf */\n      dup5\n        /* \"@chainlink/contracts@1.3.0/src/v0.8/vendor/CBORChainlink.sol\":1224:1239  buf.appendUint8 */\n      tag_141\n      swap1\n        /* \"@chainlink/contracts@1.3.0/src/v0.8/vendor/CBORChainlink.sol\":1224:1265  buf.appendUint8(uint8((major << 5) | 27)) */\n      swap2\n      swap1\n      0xffffffff\n      and\n      jump\t// in\n    tag_156:\n      pop\n        /* \"@chainlink/contracts@1.3.0/src/v0.8/vendor/CBORChainlink.sol\":1273:1296  buf.appendInt(value, 8) */\n      tag_157\n        /* \"@chainlink/contracts@1.3.0/src/v0.8/vendor/CBORChainlink.sol\":1287:1292  value */\n      dup2\n        /* \"@chainlink/contracts@1.3.0/src/v0.8/vendor/CBORChainlink.sol\":1273:1296  buf.appendInt(value, 8) */\n      0xffffffffffffffff\n      and\n        /* \"@chainlink/contracts@1.3.0/src/v0.8/vendor/CBORChainlink.sol\":1294:1295  8 */\n      0x08\n        /* \"@chainlink/contracts@1.3.0/src/v0.8/vendor/CBORChainlink.sol\":1273:1276  buf */\n      dup6\n        /* \"@chainlink/contracts@1.3.0/src/v0.8/vendor/CBORChainlink.sol\":1273:1286  buf.appendInt */\n      tag_146\n      swap1\n        /* \"@chainlink/contracts@1.3.0/src/v0.8/vendor/CBORChainlink.sol\":1273:1296  buf.appendInt(value, 8) */\n      swap3\n      swap2\n      swap1\n      0xffffffff\n      and\n      jump\t// in\n    tag_157:\n      pop\n        /* \"@chainlink/contracts@1.3.0/src/v0.8/vendor/CBORChainlink.sol\":1098:1303  if (value <= 0xFFFFFFFF) {... */\n    tag_155:\n        /* \"@chainlink/contracts@1.3.0/src/v0.8/vendor/CBORChainlink.sol\":984:1303  if (value <= 0xFFFF) {... */\n    tag_151:\n        /* \"@chainlink/contracts@1.3.0/src/v0.8/vendor/CBORChainlink.sol\":872:1303  if (value <= 0xFF) {... */\n    tag_147:\n        /* \"@chainlink/contracts@1.3.0/src/v0.8/vendor/CBORChainlink.sol\":791:1303  if(value <= 23) {... */\n    tag_142:\n        /* \"@chainlink/contracts@1.3.0/src/v0.8/vendor/CBORChainlink.sol\":682:1307  function encodeFixedNumeric(BufferChainlink.buffer memory buf, uint8 major, uint64 value) private pure {... */\n      pop\n      pop\n      pop\n      jump\t// out\n        /* \"@chainlink/contracts@1.3.0/src/v0.8/vendor/BufferChainlink.sol\":4692:4847  function append(buffer memory buf, bytes memory data) internal pure returns (buffer memory) {... */\n    tag_120:\n        /* \"@chainlink/contracts@1.3.0/src/v0.8/vendor/BufferChainlink.sol\":4769:4782  buffer memory */\n      tag_158\n      tag_129\n      jump\t// in\n    tag_158:\n        /* \"@chainlink/contracts@1.3.0/src/v0.8/vendor/BufferChainlink.sol\":4797:4842  write(buf, buf.buf.length, data, data.length) */\n      tag_160\n        /* \"@chainlink/contracts@1.3.0/src/v0.8/vendor/BufferChainlink.sol\":4803:4806  buf */\n      dup4\n        /* \"@chainlink/contracts@1.3.0/src/v0.8/vendor/BufferChainlink.sol\":4808:4811  buf */\n      dup5\n        /* \"@chainlink/contracts@1.3.0/src/v0.8/vendor/BufferChainlink.sol\":4808:4815  buf.buf */\n      0x00\n      add\n      mload\n        /* \"@chainlink/contracts@1.3.0/src/v0.8/vendor/BufferChainlink.sol\":4808:4822  buf.buf.length */\n      mload\n        /* \"@chainlink/contracts@1.3.0/src/v0.8/vendor/BufferChainlink.sol\":4824:4828  data */\n      dup5\n        /* \"@chainlink/contracts@1.3.0/src/v0.8/vendor/BufferChainlink.sol\":4830:4834  data */\n      dup6\n        /* \"@chainlink/contracts@1.3.0/src/v0.8/vendor/BufferChainlink.sol\":4830:4841  data.length */\n      mload\n        /* \"@chainlink/contracts@1.3.0/src/v0.8/vendor/BufferChainlink.sol\":4797:4802  write */\n      tag_161\n        /* \"@chainlink/contracts@1.3.0/src/v0.8/vendor/BufferChainlink.sol\":4797:4842  write(buf, buf.buf.length, data, data.length) */\n      jump\t// in\n    tag_160:\n        /* \"@chainlink/contracts@1.3.0/src/v0.8/vendor/BufferChainlink.sol\":4790:4842  return write(buf, buf.buf.length, data, data.length) */\n      swap1\n      pop\n        /* \"@chainlink/contracts@1.3.0/src/v0.8/vendor/BufferChainlink.sol\":4692:4847  function append(buffer memory buf, bytes memory data) internal pure returns (buffer memory) {... */\n      swap3\n      swap2\n      pop\n      pop\n      jump\t// out\n        /* \"@chainlink/contracts@1.3.0/src/v0.8/ChainlinkClient.sol\":6828:7280  function _rawRequest(... */\n    tag_127:\n        /* \"@chainlink/contracts@1.3.0/src/v0.8/ChainlinkClient.sol\":6970:6987  bytes32 requestId */\n      0x00\n        /* \"@chainlink/contracts@1.3.0/src/v0.8/ChainlinkClient.sol\":7034:7038  this */\n      address\n        /* \"@chainlink/contracts@1.3.0/src/v0.8/ChainlinkClient.sol\":7040:7045  nonce */\n      dup5\n        /* \"@chainlink/contracts@1.3.0/src/v0.8/ChainlinkClient.sol\":7017:7046  abi.encodePacked(this, nonce) */\n      add(0x20, mload(0x40))\n      tag_163\n      swap3\n      swap2\n      swap1\n      tag_164\n      jump\t// in\n    tag_163:\n      mload(0x40)\n      0x20\n      dup2\n      dup4\n      sub\n      sub\n      dup2\n      mstore\n      swap1\n      0x40\n      mstore\n        /* \"@chainlink/contracts@1.3.0/src/v0.8/ChainlinkClient.sol\":7007:7047  keccak256(abi.encodePacked(this, nonce)) */\n      dup1\n      mload\n      swap1\n      0x20\n      add\n      keccak256\n        /* \"@chainlink/contracts@1.3.0/src/v0.8/ChainlinkClient.sol\":6995:7047  requestId = keccak256(abi.encodePacked(this, nonce)) */\n      swap1\n      pop\n        /* \"@chainlink/contracts@1.3.0/src/v0.8/ChainlinkClient.sol\":7084:7097  oracleAddress */\n      dup5\n        /* \"@chainlink/contracts@1.3.0/src/v0.8/ChainlinkClient.sol\":7053:7070  s_pendingRequests */\n      0x05\n        /* \"@chainlink/contracts@1.3.0/src/v0.8/ChainlinkClient.sol\":7053:7081  s_pendingRequests[requestId] */\n      0x00\n        /* \"@chainlink/contracts@1.3.0/src/v0.8/ChainlinkClient.sol\":7071:7080  requestId */\n      dup4\n        /* \"@chainlink/contracts@1.3.0/src/v0.8/ChainlinkClient.sol\":7053:7081  s_pendingRequests[requestId] */\n      dup2\n      mstore\n      0x20\n      add\n      swap1\n      dup2\n      mstore\n      0x20\n      add\n      0x00\n      keccak256\n      0x00\n        /* \"@chainlink/contracts@1.3.0/src/v0.8/ChainlinkClient.sol\":7053:7097  s_pendingRequests[requestId] = oracleAddress */\n      0x0100\n      exp\n      dup2\n      sload\n      dup2\n      0xffffffffffffffffffffffffffffffffffffffff\n      mul\n      not\n      and\n      swap1\n      dup4\n      0xffffffffffffffffffffffffffffffffffffffff\n      and\n      mul\n      or\n      swap1\n      sstore\n      pop\n        /* \"@chainlink/contracts@1.3.0/src/v0.8/ChainlinkClient.sol\":7127:7136  requestId */\n      dup1\n        /* \"@chainlink/contracts@1.3.0/src/v0.8/ChainlinkClient.sol\":7108:7137  ChainlinkRequested(requestId) */\n      0xb5e6e01e79f91267dc17b4e6314d5d4d03593d2ceee0fbb452b750bd70ea5af9\n      mload(0x40)\n      mload(0x40)\n      dup1\n      swap2\n      sub\n      swap1\n      log2\n        /* \"@chainlink/contracts@1.3.0/src/v0.8/ChainlinkClient.sol\":7151:7157  s_link */\n      0x02\n      0x00\n      swap1\n      sload\n      swap1\n      0x0100\n      exp\n      swap1\n      div\n      0xffffffffffffffffffffffffffffffffffffffff\n      and\n        /* \"@chainlink/contracts@1.3.0/src/v0.8/ChainlinkClient.sol\":7151:7173  s_link.transferAndCall */\n      0xffffffffffffffffffffffffffffffffffffffff\n      and\n      0x4000aea0\n        /* \"@chainlink/contracts@1.3.0/src/v0.8/ChainlinkClient.sol\":7174:7187  oracleAddress */\n      dup7\n        /* \"@chainlink/contracts@1.3.0/src/v0.8/ChainlinkClient.sol\":7189:7196  payment */\n      dup6\n        /* \"@chainlink/contracts@1.3.0/src/v0.8/ChainlinkClient.sol\":7198:7212  encodedRequest */\n      dup6\n        /* \"@chainlink/contracts@1.3.0/src/v0.8/ChainlinkClient.sol\":7151:7213  s_link.transferAndCall(oracleAddress, payment, encodedRequest) */\n      mload(0x40)\n      dup5\n      0xffffffff\n      and\n      0xe0\n      shl\n      dup2\n      mstore\n      0x04\n      add\n      tag_165\n      swap4\n      swap3\n      swap2\n      swap1\n      tag_166\n      jump\t// in\n    tag_165:\n      0x20\n      mload(0x40)\n      dup1\n      dup4\n      sub\n      dup2\n      0x00\n      dup8\n      gas\n      call\n      iszero\n      dup1\n      iszero\n      tag_168\n      jumpi\n      returndatasize\n      0x00\n      dup1\n      returndatacopy\n      revert(0x00, returndatasize)\n    tag_168:\n      pop\n      pop\n      pop\n      pop\n      mload(0x40)\n      returndatasize\n      not(0x1f)\n      0x1f\n      dup3\n      add\n      and\n      dup3\n      add\n      dup1\n      0x40\n      mstore\n      pop\n      dup2\n      add\n      swap1\n      tag_169\n      swap2\n      swap1\n      tag_74\n      jump\t// in\n    tag_169:\n        /* \"@chainlink/contracts@1.3.0/src/v0.8/ChainlinkClient.sol\":7143:7253  require(s_link.transferAndCall(oracleAddress, payment, encodedRequest), \"unable to transferAndCall to oracle\") */\n      tag_170\n      jumpi\n      mload(0x40)\n      0x08c379a000000000000000000000000000000000000000000000000000000000\n      dup2\n      mstore\n      0x04\n      add\n      tag_171\n      swap1\n      tag_172\n      jump\t// in\n    tag_171:\n      mload(0x40)\n      dup1\n      swap2\n      sub\n      swap1\n      revert\n    tag_170:\n        /* \"@chainlink/contracts@1.3.0/src/v0.8/ChainlinkClient.sol\":6828:7280  function _rawRequest(... */\n      swap5\n      swap4\n      pop\n      pop\n      pop\n      pop\n      jump\t// out\n        /* \"@chainlink/contracts@1.3.0/src/v0.8/vendor/BufferChainlink.sol\":6040:6185  function appendUint8(buffer memory buf, uint8 data) internal pure returns (buffer memory) {... */\n    tag_141:\n        /* \"@chainlink/contracts@1.3.0/src/v0.8/vendor/BufferChainlink.sol\":6115:6128  buffer memory */\n      tag_173\n      tag_129\n      jump\t// in\n    tag_173:\n        /* \"@chainlink/contracts@1.3.0/src/v0.8/vendor/BufferChainlink.sol\":6143:6180  writeUint8(buf, buf.buf.length, data) */\n      tag_175\n        /* \"@chainlink/contracts@1.3.0/src/v0.8/vendor/BufferChainlink.sol\":6154:6157  buf */\n      dup4\n        /* \"@chainlink/contracts@1.3.0/src/v0.8/vendor/BufferChainlink.sol\":6159:6162  buf */\n      dup5\n        /* \"@chainlink/contracts@1.3.0/src/v0.8/vendor/BufferChainlink.sol\":6159:6166  buf.buf */\n      0x00\n      add\n      mload\n        /* \"@chainlink/contracts@1.3.0/src/v0.8/vendor/BufferChainlink.sol\":6159:6173  buf.buf.length */\n      mload\n        /* \"@chainlink/contracts@1.3.0/src/v0.8/vendor/BufferChainlink.sol\":6175:6179  data */\n      dup5\n        /* \"@chainlink/contracts@1.3.0/src/v0.8/vendor/BufferChainlink.sol\":6143:6153  writeUint8 */\n      tag_176\n        /* \"@chainlink/contracts@1.3.0/src/v0.8/vendor/BufferChainlink.sol\":6143:6180  writeUint8(buf, buf.buf.length, data) */\n      jump\t// in\n    tag_175:\n        /* \"@chainlink/contracts@1.3.0/src/v0.8/vendor/BufferChainlink.sol\":6136:6180  return writeUint8(buf, buf.buf.length, data) */\n      swap1\n      pop\n        /* \"@chainlink/contracts@1.3.0/src/v0.8/vendor/BufferChainlink.sol\":6040:6185  function appendUint8(buffer memory buf, uint8 data) internal pure returns (buffer memory) {... */\n      swap3\n      swap2\n      pop\n      pop\n      jump\t// out\n        /* \"@chainlink/contracts@1.3.0/src/v0.8/vendor/BufferChainlink.sol\":9894:10071  function appendInt(... */\n    tag_146:\n        /* \"@chainlink/contracts@1.3.0/src/v0.8/vendor/BufferChainlink.sol\":9998:10011  buffer memory */\n      tag_177\n      tag_129\n      jump\t// in\n    tag_177:\n        /* \"@chainlink/contracts@1.3.0/src/v0.8/vendor/BufferChainlink.sol\":10026:10066  writeInt(buf, buf.buf.length, data, len) */\n      tag_179\n        /* \"@chainlink/contracts@1.3.0/src/v0.8/vendor/BufferChainlink.sol\":10035:10038  buf */\n      dup5\n        /* \"@chainlink/contracts@1.3.0/src/v0.8/vendor/BufferChainlink.sol\":10040:10043  buf */\n      dup6\n        /* \"@chainlink/contracts@1.3.0/src/v0.8/vendor/BufferChainlink.sol\":10040:10047  buf.buf */\n      0x00\n      add\n      mload\n        /* \"@chainlink/contracts@1.3.0/src/v0.8/vendor/BufferChainlink.sol\":10040:10054  buf.buf.length */\n      mload\n        /* \"@chainlink/contracts@1.3.0/src/v0.8/vendor/BufferChainlink.sol\":10056:10060  data */\n      dup6\n        /* \"@chainlink/contracts@1.3.0/src/v0.8/vendor/BufferChainlink.sol\":10062:10065  len */\n      dup6\n        /* \"@chainlink/contracts@1.3.0/src/v0.8/vendor/BufferChainlink.sol\":10026:10034  writeInt */\n      tag_180\n        /* \"@chainlink/contracts@1.3.0/src/v0.8/vendor/BufferChainlink.sol\":10026:10066  writeInt(buf, buf.buf.length, data, len) */\n      jump\t// in\n    tag_179:\n        /* \"@chainlink/contracts@1.3.0/src/v0.8/vendor/BufferChainlink.sol\":10019:10066  return writeInt(buf, buf.buf.length, data, len) */\n      swap1\n      pop\n        /* \"@chainlink/contracts@1.3.0/src/v0.8/vendor/BufferChainlink.sol\":9894:10071  function appendInt(... */\n      swap4\n      swap3\n      pop\n      pop\n      pop\n      jump\t// out\n        /* \"@chainlink/contracts@1.3.0/src/v0.8/vendor/BufferChainlink.sol\":2745:3955  function write(... */\n    tag_161:\n        /* \"@chainlink/contracts@1.3.0/src/v0.8/vendor/BufferChainlink.sol\":2867:2880  buffer memory */\n      tag_181\n      tag_129\n      jump\t// in\n    tag_181:\n        /* \"@chainlink/contracts@1.3.0/src/v0.8/vendor/BufferChainlink.sol\":2903:2907  data */\n      dup3\n        /* \"@chainlink/contracts@1.3.0/src/v0.8/vendor/BufferChainlink.sol\":2903:2914  data.length */\n      mload\n        /* \"@chainlink/contracts@1.3.0/src/v0.8/vendor/BufferChainlink.sol\":2896:2899  len */\n      dup3\n        /* \"@chainlink/contracts@1.3.0/src/v0.8/vendor/BufferChainlink.sol\":2896:2914  len <= data.length */\n      gt\n      iszero\n        /* \"@chainlink/contracts@1.3.0/src/v0.8/vendor/BufferChainlink.sol\":2888:2915  require(len <= data.length) */\n      tag_183\n      jumpi\n      0x00\n      dup1\n      revert\n    tag_183:\n        /* \"@chainlink/contracts@1.3.0/src/v0.8/vendor/BufferChainlink.sol\":2938:2941  buf */\n      dup5\n        /* \"@chainlink/contracts@1.3.0/src/v0.8/vendor/BufferChainlink.sol\":2938:2950  buf.capacity */\n      0x20\n      add\n      mload\n        /* \"@chainlink/contracts@1.3.0/src/v0.8/vendor/BufferChainlink.sol\":2932:2935  len */\n      dup3\n        /* \"@chainlink/contracts@1.3.0/src/v0.8/vendor/BufferChainlink.sol\":2926:2929  off */\n      dup6\n        /* \"@chainlink/contracts@1.3.0/src/v0.8/vendor/BufferChainlink.sol\":2926:2935  off + len */\n      tag_184\n      swap2\n      swap1\n      tag_123\n      jump\t// in\n    tag_184:\n        /* \"@chainlink/contracts@1.3.0/src/v0.8/vendor/BufferChainlink.sol\":2926:2950  off + len > buf.capacity */\n      gt\n        /* \"@chainlink/contracts@1.3.0/src/v0.8/vendor/BufferChainlink.sol\":2922:3012  if (off + len > buf.capacity) {... */\n      iszero\n      tag_185\n      jumpi\n        /* \"@chainlink/contracts@1.3.0/src/v0.8/vendor/BufferChainlink.sol\":2960:3005  resize(buf, max(buf.capacity, len + off) * 2) */\n      tag_186\n        /* \"@chainlink/contracts@1.3.0/src/v0.8/vendor/BufferChainlink.sol\":2967:2970  buf */\n      dup6\n        /* \"@chainlink/contracts@1.3.0/src/v0.8/vendor/BufferChainlink.sol\":3003:3004  2 */\n      0x02\n        /* \"@chainlink/contracts@1.3.0/src/v0.8/vendor/BufferChainlink.sol\":2972:3000  max(buf.capacity, len + off) */\n      tag_187\n        /* \"@chainlink/contracts@1.3.0/src/v0.8/vendor/BufferChainlink.sol\":2976:2979  buf */\n      dup9\n        /* \"@chainlink/contracts@1.3.0/src/v0.8/vendor/BufferChainlink.sol\":2976:2988  buf.capacity */\n      0x20\n      add\n      mload\n        /* \"@chainlink/contracts@1.3.0/src/v0.8/vendor/BufferChainlink.sol\":2996:2999  off */\n      dup9\n        /* \"@chainlink/contracts@1.3.0/src/v0.8/vendor/BufferChainlink.sol\":2990:2993  len */\n      dup8\n        /* \"@chainlink/contracts@1.3.0/src/v0.8/vendor/BufferChainlink.sol\":2990:2999  len + off */\n      tag_188\n      swap2\n      swap1\n      tag_123\n      jump\t// in\n    tag_188:\n        /* \"@chainlink/contracts@1.3.0/src/v0.8/vendor/BufferChainlink.sol\":2972:2975  max */\n      tag_189\n        /* \"@chainlink/contracts@1.3.0/src/v0.8/vendor/BufferChainlink.sol\":2972:3000  max(buf.capacity, len + off) */\n      jump\t// in\n    tag_187:\n        /* \"@chainlink/contracts@1.3.0/src/v0.8/vendor/BufferChainlink.sol\":2972:3004  max(buf.capacity, len + off) * 2 */\n      tag_190\n      swap2\n      swap1\n      tag_191\n      jump\t// in\n    tag_190:\n        /* \"@chainlink/contracts@1.3.0/src/v0.8/vendor/BufferChainlink.sol\":2960:2966  resize */\n      tag_192\n        /* \"@chainlink/contracts@1.3.0/src/v0.8/vendor/BufferChainlink.sol\":2960:3005  resize(buf, max(buf.capacity, len + off) * 2) */\n      jump\t// in\n    tag_186:\n        /* \"@chainlink/contracts@1.3.0/src/v0.8/vendor/BufferChainlink.sol\":2922:3012  if (off + len > buf.capacity) {... */\n    tag_185:\n        /* \"@chainlink/contracts@1.3.0/src/v0.8/vendor/BufferChainlink.sol\":3018:3030  uint256 dest */\n      0x00\n        /* \"@chainlink/contracts@1.3.0/src/v0.8/vendor/BufferChainlink.sol\":3036:3047  uint256 src */\n      dup1\n        /* \"@chainlink/contracts@1.3.0/src/v0.8/vendor/BufferChainlink.sol\":3133:3136  buf */\n      dup7\n        /* \"@chainlink/contracts@1.3.0/src/v0.8/vendor/BufferChainlink.sol\":3127:3137  mload(buf) */\n      mload\n        /* \"@chainlink/contracts@1.3.0/src/v0.8/vendor/BufferChainlink.sol\":3204:3210  bufptr */\n      dup1\n        /* \"@chainlink/contracts@1.3.0/src/v0.8/vendor/BufferChainlink.sol\":3198:3211  mload(bufptr) */\n      mload\n        /* \"@chainlink/contracts@1.3.0/src/v0.8/vendor/BufferChainlink.sol\":3320:3323  off */\n      dup8\n        /* \"@chainlink/contracts@1.3.0/src/v0.8/vendor/BufferChainlink.sol\":3315:3317  32 */\n      0x20\n        /* \"@chainlink/contracts@1.3.0/src/v0.8/vendor/BufferChainlink.sol\":3307:3313  bufptr */\n      dup4\n        /* \"@chainlink/contracts@1.3.0/src/v0.8/vendor/BufferChainlink.sol\":3303:3318  add(bufptr, 32) */\n      add\n        /* \"@chainlink/contracts@1.3.0/src/v0.8/vendor/BufferChainlink.sol\":3299:3324  add(add(bufptr, 32), off) */\n      add\n        /* \"@chainlink/contracts@1.3.0/src/v0.8/vendor/BufferChainlink.sol\":3291:3324  dest := add(add(bufptr, 32), off) */\n      swap4\n      pop\n        /* \"@chainlink/contracts@1.3.0/src/v0.8/vendor/BufferChainlink.sol\":3404:3410  buflen */\n      dup1\n        /* \"@chainlink/contracts@1.3.0/src/v0.8/vendor/BufferChainlink.sol\":3398:3401  off */\n      dup9\n        /* \"@chainlink/contracts@1.3.0/src/v0.8/vendor/BufferChainlink.sol\":3393:3396  len */\n      dup8\n        /* \"@chainlink/contracts@1.3.0/src/v0.8/vendor/BufferChainlink.sol\":3389:3402  add(len, off) */\n      add\n        /* \"@chainlink/contracts@1.3.0/src/v0.8/vendor/BufferChainlink.sol\":3386:3411  gt(add(len, off), buflen) */\n      gt\n        /* \"@chainlink/contracts@1.3.0/src/v0.8/vendor/BufferChainlink.sol\":3383:3459  if gt(add(len, off), buflen) {... */\n      iszero\n      tag_193\n      jumpi\n        /* \"@chainlink/contracts@1.3.0/src/v0.8/vendor/BufferChainlink.sol\":3446:3449  off */\n      dup8\n        /* \"@chainlink/contracts@1.3.0/src/v0.8/vendor/BufferChainlink.sol\":3441:3444  len */\n      dup7\n        /* \"@chainlink/contracts@1.3.0/src/v0.8/vendor/BufferChainlink.sol\":3437:3450  add(len, off) */\n      add\n        /* \"@chainlink/contracts@1.3.0/src/v0.8/vendor/BufferChainlink.sol\":3429:3435  bufptr */\n      dup3\n        /* \"@chainlink/contracts@1.3.0/src/v0.8/vendor/BufferChainlink.sol\":3422:3451  mstore(bufptr, add(len, off)) */\n      mstore\n        /* \"@chainlink/contracts@1.3.0/src/v0.8/vendor/BufferChainlink.sol\":3383:3459  if gt(add(len, off), buflen) {... */\n    tag_193:\n        /* \"@chainlink/contracts@1.3.0/src/v0.8/vendor/BufferChainlink.sol\":3483:3485  32 */\n      0x20\n        /* \"@chainlink/contracts@1.3.0/src/v0.8/vendor/BufferChainlink.sol\":3477:3481  data */\n      dup8\n        /* \"@chainlink/contracts@1.3.0/src/v0.8/vendor/BufferChainlink.sol\":3473:3486  add(data, 32) */\n      add\n        /* \"@chainlink/contracts@1.3.0/src/v0.8/vendor/BufferChainlink.sol\":3466:3486  src := add(data, 32) */\n      swap3\n      pop\n        /* \"@chainlink/contracts@1.3.0/src/v0.8/vendor/BufferChainlink.sol\":3062:3492  {... */\n      pop\n      pop\n        /* \"@chainlink/contracts@1.3.0/src/v0.8/vendor/BufferChainlink.sol\":3544:3673  for (; len >= 32; len -= 32) {... */\n    tag_194:\n        /* \"@chainlink/contracts@1.3.0/src/v0.8/vendor/BufferChainlink.sol\":3558:3560  32 */\n      0x20\n        /* \"@chainlink/contracts@1.3.0/src/v0.8/vendor/BufferChainlink.sol\":3551:3554  len */\n      dup5\n        /* \"@chainlink/contracts@1.3.0/src/v0.8/vendor/BufferChainlink.sol\":3551:3560  len >= 32 */\n      lt\n        /* \"@chainlink/contracts@1.3.0/src/v0.8/vendor/BufferChainlink.sol\":3544:3673  for (; len >= 32; len -= 32) {... */\n      tag_195\n      jumpi\n        /* \"@chainlink/contracts@1.3.0/src/v0.8/vendor/BufferChainlink.sol\":3619:3622  src */\n      dup1\n        /* \"@chainlink/contracts@1.3.0/src/v0.8/vendor/BufferChainlink.sol\":3613:3623  mload(src) */\n      mload\n        /* \"@chainlink/contracts@1.3.0/src/v0.8/vendor/BufferChainlink.sol\":3607:3611  dest */\n      dup3\n        /* \"@chainlink/contracts@1.3.0/src/v0.8/vendor/BufferChainlink.sol\":3600:3624  mstore(dest, mload(src)) */\n      mstore\n        /* \"@chainlink/contracts@1.3.0/src/v0.8/vendor/BufferChainlink.sol\":3647:3649  32 */\n      0x20\n        /* \"@chainlink/contracts@1.3.0/src/v0.8/vendor/BufferChainlink.sol\":3639:3649  dest += 32 */\n      dup3\n      tag_197\n      swap2\n      swap1\n      tag_123\n      jump\t// in\n    tag_197:\n      swap2\n      pop\n        /* \"@chainlink/contracts@1.3.0/src/v0.8/vendor/BufferChainlink.sol\":3664:3666  32 */\n      0x20\n        /* \"@chainlink/contracts@1.3.0/src/v0.8/vendor/BufferChainlink.sol\":3657:3666  src += 32 */\n      dup2\n      tag_198\n      swap2\n      swap1\n      tag_123\n      jump\t// in\n    tag_198:\n      swap1\n      pop\n        /* \"@chainlink/contracts@1.3.0/src/v0.8/vendor/BufferChainlink.sol\":3569:3571  32 */\n      0x20\n        /* \"@chainlink/contracts@1.3.0/src/v0.8/vendor/BufferChainlink.sol\":3562:3571  len -= 32 */\n      dup5\n      tag_199\n      swap2\n      swap1\n      tag_136\n      jump\t// in\n    tag_199:\n      swap4\n      pop\n        /* \"@chainlink/contracts@1.3.0/src/v0.8/vendor/BufferChainlink.sol\":3544:3673  for (; len >= 32; len -= 32) {... */\n      jump(tag_194)\n    tag_195:\n        /* \"@chainlink/contracts@1.3.0/src/v0.8/vendor/BufferChainlink.sol\":3725:3737  uint256 mask */\n      0x00\n        /* \"@chainlink/contracts@1.3.0/src/v0.8/vendor/BufferChainlink.sol\":3760:3761  1 */\n      0x01\n        /* \"@chainlink/contracts@1.3.0/src/v0.8/vendor/BufferChainlink.sol\":3752:3755  len */\n      dup6\n        /* \"@chainlink/contracts@1.3.0/src/v0.8/vendor/BufferChainlink.sol\":3747:3749  32 */\n      0x20\n        /* \"@chainlink/contracts@1.3.0/src/v0.8/vendor/BufferChainlink.sol\":3747:3755  32 - len */\n      sub\n        /* \"@chainlink/contracts@1.3.0/src/v0.8/vendor/BufferChainlink.sol\":3741:3744  256 */\n      0x0100\n        /* \"@chainlink/contracts@1.3.0/src/v0.8/vendor/BufferChainlink.sol\":3741:3756  256**(32 - len) */\n      exp\n        /* \"@chainlink/contracts@1.3.0/src/v0.8/vendor/BufferChainlink.sol\":3740:3761  (256**(32 - len)) - 1 */\n      sub\n        /* \"@chainlink/contracts@1.3.0/src/v0.8/vendor/BufferChainlink.sol\":3725:3761  uint256 mask = (256**(32 - len)) - 1 */\n      swap1\n      pop\n        /* \"@chainlink/contracts@1.3.0/src/v0.8/vendor/BufferChainlink.sol\":3823:3827  mask */\n      dup1\n        /* \"@chainlink/contracts@1.3.0/src/v0.8/vendor/BufferChainlink.sol\":3819:3828  not(mask) */\n      not\n        /* \"@chainlink/contracts@1.3.0/src/v0.8/vendor/BufferChainlink.sol\":3813:3816  src */\n      dup3\n        /* \"@chainlink/contracts@1.3.0/src/v0.8/vendor/BufferChainlink.sol\":3807:3817  mload(src) */\n      mload\n        /* \"@chainlink/contracts@1.3.0/src/v0.8/vendor/BufferChainlink.sol\":3803:3829  and(mload(src), not(mask)) */\n      and\n        /* \"@chainlink/contracts@1.3.0/src/v0.8/vendor/BufferChainlink.sol\":3871:3875  mask */\n      dup2\n        /* \"@chainlink/contracts@1.3.0/src/v0.8/vendor/BufferChainlink.sol\":3864:3868  dest */\n      dup5\n        /* \"@chainlink/contracts@1.3.0/src/v0.8/vendor/BufferChainlink.sol\":3858:3869  mload(dest) */\n      mload\n        /* \"@chainlink/contracts@1.3.0/src/v0.8/vendor/BufferChainlink.sol\":3854:3876  and(mload(dest), mask) */\n      and\n        /* \"@chainlink/contracts@1.3.0/src/v0.8/vendor/BufferChainlink.sol\":3911:3918  srcpart */\n      dup2\n        /* \"@chainlink/contracts@1.3.0/src/v0.8/vendor/BufferChainlink.sol\":3901:3909  destpart */\n      dup2\n        /* \"@chainlink/contracts@1.3.0/src/v0.8/vendor/BufferChainlink.sol\":3898:3919  or(destpart, srcpart) */\n      or\n        /* \"@chainlink/contracts@1.3.0/src/v0.8/vendor/BufferChainlink.sol\":3892:3896  dest */\n      dup6\n        /* \"@chainlink/contracts@1.3.0/src/v0.8/vendor/BufferChainlink.sol\":3885:3920  mstore(dest, or(destpart, srcpart)) */\n      mstore\n        /* \"@chainlink/contracts@1.3.0/src/v0.8/vendor/BufferChainlink.sol\":3778:3928  {... */\n      pop\n      pop\n      pop\n        /* \"@chainlink/contracts@1.3.0/src/v0.8/vendor/BufferChainlink.sol\":3947:3950  buf */\n      dup7\n        /* \"@chainlink/contracts@1.3.0/src/v0.8/vendor/BufferChainlink.sol\":3940:3950  return buf */\n      swap3\n      pop\n      pop\n      pop\n        /* \"@chainlink/contracts@1.3.0/src/v0.8/vendor/BufferChainlink.sol\":2745:3955  function write(... */\n      swap5\n      swap4\n      pop\n      pop\n      pop\n      pop\n      jump\t// out\n        /* \"@chainlink/contracts@1.3.0/src/v0.8/vendor/BufferChainlink.sol\":5148:5787  function writeUint8(... */\n    tag_176:\n        /* \"@chainlink/contracts@1.3.0/src/v0.8/vendor/BufferChainlink.sol\":5251:5264  buffer memory */\n      tag_200\n      tag_129\n      jump\t// in\n    tag_200:\n        /* \"@chainlink/contracts@1.3.0/src/v0.8/vendor/BufferChainlink.sol\":5283:5286  buf */\n      dup4\n        /* \"@chainlink/contracts@1.3.0/src/v0.8/vendor/BufferChainlink.sol\":5283:5295  buf.capacity */\n      0x20\n      add\n      mload\n        /* \"@chainlink/contracts@1.3.0/src/v0.8/vendor/BufferChainlink.sol\":5276:5279  off */\n      dup4\n        /* \"@chainlink/contracts@1.3.0/src/v0.8/vendor/BufferChainlink.sol\":5276:5295  off >= buf.capacity */\n      lt\n        /* \"@chainlink/contracts@1.3.0/src/v0.8/vendor/BufferChainlink.sol\":5272:5341  if (off >= buf.capacity) {... */\n      tag_202\n      jumpi\n        /* \"@chainlink/contracts@1.3.0/src/v0.8/vendor/BufferChainlink.sol\":5305:5334  resize(buf, buf.capacity * 2) */\n      tag_203\n        /* \"@chainlink/contracts@1.3.0/src/v0.8/vendor/BufferChainlink.sol\":5312:5315  buf */\n      dup5\n        /* \"@chainlink/contracts@1.3.0/src/v0.8/vendor/BufferChainlink.sol\":5332:5333  2 */\n      0x02\n        /* \"@chainlink/contracts@1.3.0/src/v0.8/vendor/BufferChainlink.sol\":5317:5320  buf */\n      dup7\n        /* \"@chainlink/contracts@1.3.0/src/v0.8/vendor/BufferChainlink.sol\":5317:5329  buf.capacity */\n      0x20\n      add\n      mload\n        /* \"@chainlink/contracts@1.3.0/src/v0.8/vendor/BufferChainlink.sol\":5317:5333  buf.capacity * 2 */\n      tag_204\n      swap2\n      swap1\n      tag_191\n      jump\t// in\n    tag_204:\n        /* \"@chainlink/contracts@1.3.0/src/v0.8/vendor/BufferChainlink.sol\":5305:5311  resize */\n      tag_192\n        /* \"@chainlink/contracts@1.3.0/src/v0.8/vendor/BufferChainlink.sol\":5305:5334  resize(buf, buf.capacity * 2) */\n      jump\t// in\n    tag_203:\n        /* \"@chainlink/contracts@1.3.0/src/v0.8/vendor/BufferChainlink.sol\":5272:5341  if (off >= buf.capacity) {... */\n    tag_202:\n        /* \"@chainlink/contracts@1.3.0/src/v0.8/vendor/BufferChainlink.sol\":5427:5430  buf */\n      dup4\n        /* \"@chainlink/contracts@1.3.0/src/v0.8/vendor/BufferChainlink.sol\":5421:5431  mload(buf) */\n      mload\n        /* \"@chainlink/contracts@1.3.0/src/v0.8/vendor/BufferChainlink.sol\":5498:5504  bufptr */\n      dup1\n        /* \"@chainlink/contracts@1.3.0/src/v0.8/vendor/BufferChainlink.sol\":5492:5505  mload(bufptr) */\n      mload\n        /* \"@chainlink/contracts@1.3.0/src/v0.8/vendor/BufferChainlink.sol\":5610:5612  32 */\n      0x20\n        /* \"@chainlink/contracts@1.3.0/src/v0.8/vendor/BufferChainlink.sol\":5604:5607  off */\n      dup6\n        /* \"@chainlink/contracts@1.3.0/src/v0.8/vendor/BufferChainlink.sol\":5596:5602  bufptr */\n      dup4\n        /* \"@chainlink/contracts@1.3.0/src/v0.8/vendor/BufferChainlink.sol\":5592:5608  add(bufptr, off) */\n      add\n        /* \"@chainlink/contracts@1.3.0/src/v0.8/vendor/BufferChainlink.sol\":5588:5613  add(add(bufptr, off), 32) */\n      add\n        /* \"@chainlink/contracts@1.3.0/src/v0.8/vendor/BufferChainlink.sol\":5634:5638  data */\n      dup5\n        /* \"@chainlink/contracts@1.3.0/src/v0.8/vendor/BufferChainlink.sol\":5628:5632  dest */\n      dup2\n        /* \"@chainlink/contracts@1.3.0/src/v0.8/vendor/BufferChainlink.sol\":5620:5639  mstore8(dest, data) */\n      mstore8\n        /* \"@chainlink/contracts@1.3.0/src/v0.8/vendor/BufferChainlink.sol\":5705:5711  buflen */\n      dup2\n        /* \"@chainlink/contracts@1.3.0/src/v0.8/vendor/BufferChainlink.sol\":5700:5703  off */\n      dup7\n        /* \"@chainlink/contracts@1.3.0/src/v0.8/vendor/BufferChainlink.sol\":5697:5712  eq(off, buflen) */\n      sub\n        /* \"@chainlink/contracts@1.3.0/src/v0.8/vendor/BufferChainlink.sol\":5694:5761  if eq(off, buflen) {... */\n      tag_205\n      jumpi\n        /* \"@chainlink/contracts@1.3.0/src/v0.8/vendor/BufferChainlink.sol\":5750:5751  1 */\n      0x01\n        /* \"@chainlink/contracts@1.3.0/src/v0.8/vendor/BufferChainlink.sol\":5742:5748  buflen */\n      dup3\n        /* \"@chainlink/contracts@1.3.0/src/v0.8/vendor/BufferChainlink.sol\":5738:5752  add(buflen, 1) */\n      add\n        /* \"@chainlink/contracts@1.3.0/src/v0.8/vendor/BufferChainlink.sol\":5730:5736  bufptr */\n      dup4\n        /* \"@chainlink/contracts@1.3.0/src/v0.8/vendor/BufferChainlink.sol\":5723:5753  mstore(bufptr, add(buflen, 1)) */\n      mstore\n        /* \"@chainlink/contracts@1.3.0/src/v0.8/vendor/BufferChainlink.sol\":5694:5761  if eq(off, buflen) {... */\n    tag_205:\n        /* \"@chainlink/contracts@1.3.0/src/v0.8/vendor/BufferChainlink.sol\":5356:5767  {... */\n      pop\n      pop\n      pop\n        /* \"@chainlink/contracts@1.3.0/src/v0.8/vendor/BufferChainlink.sol\":5779:5782  buf */\n      dup4\n        /* \"@chainlink/contracts@1.3.0/src/v0.8/vendor/BufferChainlink.sol\":5772:5782  return buf */\n      swap1\n      pop\n        /* \"@chainlink/contracts@1.3.0/src/v0.8/vendor/BufferChainlink.sol\":5148:5787  function writeUint8(... */\n      swap4\n      swap3\n      pop\n      pop\n      pop\n      jump\t// out\n        /* \"@chainlink/contracts@1.3.0/src/v0.8/vendor/BufferChainlink.sol\":8974:9649  function writeInt(... */\n    tag_180:\n        /* \"@chainlink/contracts@1.3.0/src/v0.8/vendor/BufferChainlink.sol\":9093:9106  buffer memory */\n      tag_206\n      tag_129\n      jump\t// in\n    tag_206:\n        /* \"@chainlink/contracts@1.3.0/src/v0.8/vendor/BufferChainlink.sol\":9130:9133  buf */\n      dup5\n        /* \"@chainlink/contracts@1.3.0/src/v0.8/vendor/BufferChainlink.sol\":9130:9142  buf.capacity */\n      0x20\n      add\n      mload\n        /* \"@chainlink/contracts@1.3.0/src/v0.8/vendor/BufferChainlink.sol\":9124:9127  off */\n      dup5\n        /* \"@chainlink/contracts@1.3.0/src/v0.8/vendor/BufferChainlink.sol\":9118:9121  len */\n      dup4\n        /* \"@chainlink/contracts@1.3.0/src/v0.8/vendor/BufferChainlink.sol\":9118:9127  len + off */\n      tag_208\n      swap2\n      swap1\n      tag_123\n      jump\t// in\n    tag_208:\n        /* \"@chainlink/contracts@1.3.0/src/v0.8/vendor/BufferChainlink.sol\":9118:9142  len + off > buf.capacity */\n      gt\n        /* \"@chainlink/contracts@1.3.0/src/v0.8/vendor/BufferChainlink.sol\":9114:9187  if (len + off > buf.capacity) {... */\n      iszero\n      tag_209\n      jumpi\n        /* \"@chainlink/contracts@1.3.0/src/v0.8/vendor/BufferChainlink.sol\":9152:9180  resize(buf, (len + off) * 2) */\n      tag_210\n        /* \"@chainlink/contracts@1.3.0/src/v0.8/vendor/BufferChainlink.sol\":9159:9162  buf */\n      dup6\n        /* \"@chainlink/contracts@1.3.0/src/v0.8/vendor/BufferChainlink.sol\":9178:9179  2 */\n      0x02\n        /* \"@chainlink/contracts@1.3.0/src/v0.8/vendor/BufferChainlink.sol\":9171:9174  off */\n      dup7\n        /* \"@chainlink/contracts@1.3.0/src/v0.8/vendor/BufferChainlink.sol\":9165:9168  len */\n      dup6\n        /* \"@chainlink/contracts@1.3.0/src/v0.8/vendor/BufferChainlink.sol\":9165:9174  len + off */\n      tag_211\n      swap2\n      swap1\n      tag_123\n      jump\t// in\n    tag_211:\n        /* \"@chainlink/contracts@1.3.0/src/v0.8/vendor/BufferChainlink.sol\":9164:9179  (len + off) * 2 */\n      tag_212\n      swap2\n      swap1\n      tag_191\n      jump\t// in\n    tag_212:\n        /* \"@chainlink/contracts@1.3.0/src/v0.8/vendor/BufferChainlink.sol\":9152:9158  resize */\n      tag_192\n        /* \"@chainlink/contracts@1.3.0/src/v0.8/vendor/BufferChainlink.sol\":9152:9180  resize(buf, (len + off) * 2) */\n      jump\t// in\n    tag_210:\n        /* \"@chainlink/contracts@1.3.0/src/v0.8/vendor/BufferChainlink.sol\":9114:9187  if (len + off > buf.capacity) {... */\n    tag_209:\n        /* \"@chainlink/contracts@1.3.0/src/v0.8/vendor/BufferChainlink.sol\":9193:9205  uint256 mask */\n      0x00\n        /* \"@chainlink/contracts@1.3.0/src/v0.8/vendor/BufferChainlink.sol\":9221:9222  1 */\n      0x01\n        /* \"@chainlink/contracts@1.3.0/src/v0.8/vendor/BufferChainlink.sol\":9214:9217  len */\n      dup4\n        /* \"@chainlink/contracts@1.3.0/src/v0.8/vendor/BufferChainlink.sol\":9209:9212  256 */\n      0x0100\n        /* \"@chainlink/contracts@1.3.0/src/v0.8/vendor/BufferChainlink.sol\":9209:9217  256**len */\n      tag_213\n      swap2\n      swap1\n      tag_214\n      jump\t// in\n    tag_213:\n        /* \"@chainlink/contracts@1.3.0/src/v0.8/vendor/BufferChainlink.sol\":9208:9222  (256**len) - 1 */\n      tag_215\n      swap2\n      swap1\n      tag_136\n      jump\t// in\n    tag_215:\n        /* \"@chainlink/contracts@1.3.0/src/v0.8/vendor/BufferChainlink.sol\":9193:9222  uint256 mask = (256**len) - 1 */\n      swap1\n      pop\n        /* \"@chainlink/contracts@1.3.0/src/v0.8/vendor/BufferChainlink.sol\":9308:9311  buf */\n      dup6\n        /* \"@chainlink/contracts@1.3.0/src/v0.8/vendor/BufferChainlink.sol\":9302:9312  mload(buf) */\n      mload\n        /* \"@chainlink/contracts@1.3.0/src/v0.8/vendor/BufferChainlink.sol\":9423:9426  len */\n      dup4\n        /* \"@chainlink/contracts@1.3.0/src/v0.8/vendor/BufferChainlink.sol\":9417:9420  off */\n      dup7\n        /* \"@chainlink/contracts@1.3.0/src/v0.8/vendor/BufferChainlink.sol\":9409:9415  bufptr */\n      dup3\n        /* \"@chainlink/contracts@1.3.0/src/v0.8/vendor/BufferChainlink.sol\":9405:9421  add(bufptr, off) */\n      add\n        /* \"@chainlink/contracts@1.3.0/src/v0.8/vendor/BufferChainlink.sol\":9401:9427  add(add(bufptr, off), len) */\n      add\n        /* \"@chainlink/contracts@1.3.0/src/v0.8/vendor/BufferChainlink.sol\":9479:9483  data */\n      dup6\n        /* \"@chainlink/contracts@1.3.0/src/v0.8/vendor/BufferChainlink.sol\":9471:9475  mask */\n      dup4\n        /* \"@chainlink/contracts@1.3.0/src/v0.8/vendor/BufferChainlink.sol\":9467:9476  not(mask) */\n      not\n        /* \"@chainlink/contracts@1.3.0/src/v0.8/vendor/BufferChainlink.sol\":9460:9464  dest */\n      dup3\n        /* \"@chainlink/contracts@1.3.0/src/v0.8/vendor/BufferChainlink.sol\":9454:9465  mload(dest) */\n      mload\n        /* \"@chainlink/contracts@1.3.0/src/v0.8/vendor/BufferChainlink.sol\":9450:9477  and(mload(dest), not(mask)) */\n      and\n        /* \"@chainlink/contracts@1.3.0/src/v0.8/vendor/BufferChainlink.sol\":9447:9484  or(and(mload(dest), not(mask)), data) */\n      or\n        /* \"@chainlink/contracts@1.3.0/src/v0.8/vendor/BufferChainlink.sol\":9441:9445  dest */\n      dup2\n        /* \"@chainlink/contracts@1.3.0/src/v0.8/vendor/BufferChainlink.sol\":9434:9485  mstore(dest, or(and(mload(dest), not(mask)), data)) */\n      mstore\n        /* \"@chainlink/contracts@1.3.0/src/v0.8/vendor/BufferChainlink.sol\":9567:9573  bufptr */\n      dup2\n        /* \"@chainlink/contracts@1.3.0/src/v0.8/vendor/BufferChainlink.sol\":9561:9574  mload(bufptr) */\n      mload\n        /* \"@chainlink/contracts@1.3.0/src/v0.8/vendor/BufferChainlink.sol\":9555:9558  len */\n      dup6\n        /* \"@chainlink/contracts@1.3.0/src/v0.8/vendor/BufferChainlink.sol\":9550:9553  off */\n      dup9\n        /* \"@chainlink/contracts@1.3.0/src/v0.8/vendor/BufferChainlink.sol\":9546:9559  add(off, len) */\n      add\n        /* \"@chainlink/contracts@1.3.0/src/v0.8/vendor/BufferChainlink.sol\":9543:9575  gt(add(off, len), mload(bufptr)) */\n      gt\n        /* \"@chainlink/contracts@1.3.0/src/v0.8/vendor/BufferChainlink.sol\":9540:9623  if gt(add(off, len), mload(bufptr)) {... */\n      iszero\n      tag_216\n      jumpi\n        /* \"@chainlink/contracts@1.3.0/src/v0.8/vendor/BufferChainlink.sol\":9610:9613  len */\n      dup5\n        /* \"@chainlink/contracts@1.3.0/src/v0.8/vendor/BufferChainlink.sol\":9605:9608  off */\n      dup8\n        /* \"@chainlink/contracts@1.3.0/src/v0.8/vendor/BufferChainlink.sol\":9601:9614  add(off, len) */\n      add\n        /* \"@chainlink/contracts@1.3.0/src/v0.8/vendor/BufferChainlink.sol\":9593:9599  bufptr */\n      dup3\n        /* \"@chainlink/contracts@1.3.0/src/v0.8/vendor/BufferChainlink.sol\":9586:9615  mstore(bufptr, add(off, len)) */\n      mstore\n        /* \"@chainlink/contracts@1.3.0/src/v0.8/vendor/BufferChainlink.sol\":9540:9623  if gt(add(off, len), mload(bufptr)) {... */\n    tag_216:\n        /* \"@chainlink/contracts@1.3.0/src/v0.8/vendor/BufferChainlink.sol\":9237:9629  {... */\n      pop\n      pop\n        /* \"@chainlink/contracts@1.3.0/src/v0.8/vendor/BufferChainlink.sol\":9641:9644  buf */\n      dup6\n        /* \"@chainlink/contracts@1.3.0/src/v0.8/vendor/BufferChainlink.sol\":9634:9644  return buf */\n      swap2\n      pop\n      pop\n        /* \"@chainlink/contracts@1.3.0/src/v0.8/vendor/BufferChainlink.sol\":8974:9649  function writeInt(... */\n      swap5\n      swap4\n      pop\n      pop\n      pop\n      pop\n      jump\t// out\n        /* \"@chainlink/contracts@1.3.0/src/v0.8/vendor/BufferChainlink.sol\":1961:2085  function max(uint256 a, uint256 b) private pure returns (uint256) {... */\n    tag_189:\n        /* \"@chainlink/contracts@1.3.0/src/v0.8/vendor/BufferChainlink.sol\":2018:2025  uint256 */\n      0x00\n        /* \"@chainlink/contracts@1.3.0/src/v0.8/vendor/BufferChainlink.sol\":2041:2042  b */\n      dup2\n        /* \"@chainlink/contracts@1.3.0/src/v0.8/vendor/BufferChainlink.sol\":2037:2038  a */\n      dup4\n        /* \"@chainlink/contracts@1.3.0/src/v0.8/vendor/BufferChainlink.sol\":2037:2042  a > b */\n      gt\n        /* \"@chainlink/contracts@1.3.0/src/v0.8/vendor/BufferChainlink.sol\":2033:2067  if (a > b) {... */\n      iszero\n      tag_218\n      jumpi\n        /* \"@chainlink/contracts@1.3.0/src/v0.8/vendor/BufferChainlink.sol\":2059:2060  a */\n      dup3\n        /* \"@chainlink/contracts@1.3.0/src/v0.8/vendor/BufferChainlink.sol\":2052:2060  return a */\n      swap1\n      pop\n      jump(tag_217)\n        /* \"@chainlink/contracts@1.3.0/src/v0.8/vendor/BufferChainlink.sol\":2033:2067  if (a > b) {... */\n    tag_218:\n        /* \"@chainlink/contracts@1.3.0/src/v0.8/vendor/BufferChainlink.sol\":2079:2080  b */\n      dup2\n        /* \"@chainlink/contracts@1.3.0/src/v0.8/vendor/BufferChainlink.sol\":2072:2080  return b */\n      swap1\n      pop\n        /* \"@chainlink/contracts@1.3.0/src/v0.8/vendor/BufferChainlink.sol\":1961:2085  function max(uint256 a, uint256 b) private pure returns (uint256) {... */\n    tag_217:\n      swap3\n      swap2\n      pop\n      pop\n      jump\t// out\n        /* \"@chainlink/contracts@1.3.0/src/v0.8/vendor/BufferChainlink.sol\":1801:1957  function resize(buffer memory buf, uint256 capacity) private pure {... */\n    tag_192:\n        /* \"@chainlink/contracts@1.3.0/src/v0.8/vendor/BufferChainlink.sol\":1873:1892  bytes memory oldbuf */\n      0x00\n        /* \"@chainlink/contracts@1.3.0/src/v0.8/vendor/BufferChainlink.sol\":1895:1898  buf */\n      dup3\n        /* \"@chainlink/contracts@1.3.0/src/v0.8/vendor/BufferChainlink.sol\":1895:1902  buf.buf */\n      0x00\n      add\n      mload\n        /* \"@chainlink/contracts@1.3.0/src/v0.8/vendor/BufferChainlink.sol\":1873:1902  bytes memory oldbuf = buf.buf */\n      swap1\n      pop\n        /* \"@chainlink/contracts@1.3.0/src/v0.8/vendor/BufferChainlink.sol\":1908:1927  init(buf, capacity) */\n      tag_220\n        /* \"@chainlink/contracts@1.3.0/src/v0.8/vendor/BufferChainlink.sol\":1913:1916  buf */\n      dup4\n        /* \"@chainlink/contracts@1.3.0/src/v0.8/vendor/BufferChainlink.sol\":1918:1926  capacity */\n      dup4\n        /* \"@chainlink/contracts@1.3.0/src/v0.8/vendor/BufferChainlink.sol\":1908:1912  init */\n      tag_115\n        /* \"@chainlink/contracts@1.3.0/src/v0.8/vendor/BufferChainlink.sol\":1908:1927  init(buf, capacity) */\n      jump\t// in\n    tag_220:\n      pop\n        /* \"@chainlink/contracts@1.3.0/src/v0.8/vendor/BufferChainlink.sol\":1933:1952  append(buf, oldbuf) */\n      tag_221\n        /* \"@chainlink/contracts@1.3.0/src/v0.8/vendor/BufferChainlink.sol\":1940:1943  buf */\n      dup4\n        /* \"@chainlink/contracts@1.3.0/src/v0.8/vendor/BufferChainlink.sol\":1945:1951  oldbuf */\n      dup3\n        /* \"@chainlink/contracts@1.3.0/src/v0.8/vendor/BufferChainlink.sol\":1933:1939  append */\n      tag_120\n        /* \"@chainlink/contracts@1.3.0/src/v0.8/vendor/BufferChainlink.sol\":1933:1952  append(buf, oldbuf) */\n      jump\t// in\n    tag_221:\n      pop\n        /* \"@chainlink/contracts@1.3.0/src/v0.8/vendor/BufferChainlink.sol\":1867:1957  {... */\n      pop\n        /* \"@chainlink/contracts@1.3.0/src/v0.8/vendor/BufferChainlink.sol\":1801:1957  function resize(buffer memory buf, uint256 capacity) private pure {... */\n      pop\n      pop\n      jump\t// out\n    tag_91:\n      mload(0x40)\n      dup1\n      0xa0\n      add\n      0x40\n      mstore\n      dup1\n      0x00\n      dup1\n      not\n      and\n      dup2\n      mstore\n      0x20\n      add\n      and(0xffffffffffffffffffffffffffffffffffffffff, 0x00)\n      dup2\n      mstore\n      0x20\n      add\n      and(not(0xffffffffffffffffffffffffffffffffffffffffffffffffffffffff), 0x00)\n      dup2\n      mstore\n      0x20\n      add\n      0x00\n      dup2\n      mstore\n      0x20\n      add\n      tag_222\n      tag_129\n      jump\t// in\n    tag_222:\n      dup2\n      mstore\n      pop\n      swap1\n      jump\t// out\n    tag_129:\n      mload(0x40)\n      dup1\n      0x40\n      add\n      0x40\n      mstore\n      dup1\n      0x60\n      dup2\n      mstore\n      0x20\n      add\n      0x00\n      dup2\n      mstore\n      pop\n      swap1\n      jump\t// out\n        /* \"#utility.yul\":7:84   */\n    tag_223:\n        /* \"#utility.yul\":44:51   */\n      0x00\n        /* \"#utility.yul\":73:78   */\n      dup2\n        /* \"#utility.yul\":62:78   */\n      swap1\n      pop\n        /* \"#utility.yul\":7:84   */\n      swap2\n      swap1\n      pop\n      jump\t// out\n        /* \"#utility.yul\":90:208   */\n    tag_224:\n        /* \"#utility.yul\":177:201   */\n      tag_281\n        /* \"#utility.yul\":195:200   */\n      dup2\n        /* \"#utility.yul\":177:201   */\n      tag_223\n      jump\t// in\n    tag_281:\n        /* \"#utility.yul\":172:175   */\n      dup3\n        /* \"#utility.yul\":165:202   */\n      mstore\n        /* \"#utility.yul\":90:208   */\n      pop\n      pop\n      jump\t// out\n        /* \"#utility.yul\":214:436   */\n    tag_18:\n        /* \"#utility.yul\":307:311   */\n      0x00\n        /* \"#utility.yul\":345:347   */\n      0x20\n        /* \"#utility.yul\":334:343   */\n      dup3\n        /* \"#utility.yul\":330:348   */\n      add\n        /* \"#utility.yul\":322:348   */\n      swap1\n      pop\n        /* \"#utility.yul\":358:429   */\n      tag_283\n        /* \"#utility.yul\":426:427   */\n      0x00\n        /* \"#utility.yul\":415:424   */\n      dup4\n        /* \"#utility.yul\":411:428   */\n      add\n        /* \"#utility.yul\":402:408   */\n      dup5\n        /* \"#utility.yul\":358:429   */\n      tag_224\n      jump\t// in\n    tag_283:\n        /* \"#utility.yul\":214:436   */\n      swap3\n      swap2\n      pop\n      pop\n      jump\t// out\n        /* \"#utility.yul\":442:568   */\n    tag_225:\n        /* \"#utility.yul\":479:486   */\n      0x00\n        /* \"#utility.yul\":519:561   */\n      0xffffffffffffffffffffffffffffffffffffffff\n        /* \"#utility.yul\":512:517   */\n      dup3\n        /* \"#utility.yul\":508:562   */\n      and\n        /* \"#utility.yul\":497:562   */\n      swap1\n      pop\n        /* \"#utility.yul\":442:568   */\n      swap2\n      swap1\n      pop\n      jump\t// out\n        /* \"#utility.yul\":574:670   */\n    tag_226:\n        /* \"#utility.yul\":611:618   */\n      0x00\n        /* \"#utility.yul\":640:664   */\n      tag_286\n        /* \"#utility.yul\":658:663   */\n      dup3\n        /* \"#utility.yul\":640:664   */\n      tag_225\n      jump\t// in\n    tag_286:\n        /* \"#utility.yul\":629:664   */\n      swap1\n      pop\n        /* \"#utility.yul\":574:670   */\n      swap2\n      swap1\n      pop\n      jump\t// out\n        /* \"#utility.yul\":676:794   */\n    tag_227:\n        /* \"#utility.yul\":763:787   */\n      tag_288\n        /* \"#utility.yul\":781:786   */\n      dup2\n        /* \"#utility.yul\":763:787   */\n      tag_226\n      jump\t// in\n    tag_288:\n        /* \"#utility.yul\":758:761   */\n      dup3\n        /* \"#utility.yul\":751:788   */\n      mstore\n        /* \"#utility.yul\":676:794   */\n      pop\n      pop\n      jump\t// out\n        /* \"#utility.yul\":800:1022   */\n    tag_24:\n        /* \"#utility.yul\":893:897   */\n      0x00\n        /* \"#utility.yul\":931:933   */\n      0x20\n        /* \"#utility.yul\":920:929   */\n      dup3\n        /* \"#utility.yul\":916:934   */\n      add\n        /* \"#utility.yul\":908:934   */\n      swap1\n      pop\n        /* \"#utility.yul\":944:1015   */\n      tag_290\n        /* \"#utility.yul\":1012:1013   */\n      0x00\n        /* \"#utility.yul\":1001:1010   */\n      dup4\n        /* \"#utility.yul\":997:1014   */\n      add\n        /* \"#utility.yul\":988:994   */\n      dup5\n        /* \"#utility.yul\":944:1015   */\n      tag_227\n      jump\t// in\n    tag_290:\n        /* \"#utility.yul\":800:1022   */\n      swap3\n      swap2\n      pop\n      pop\n      jump\t// out\n        /* \"#utility.yul\":1109:1226   */\n    tag_229:\n        /* \"#utility.yul\":1218:1219   */\n      0x00\n        /* \"#utility.yul\":1215:1216   */\n      dup1\n        /* \"#utility.yul\":1208:1220   */\n      revert\n        /* \"#utility.yul\":1355:1477   */\n    tag_231:\n        /* \"#utility.yul\":1428:1452   */\n      tag_295\n        /* \"#utility.yul\":1446:1451   */\n      dup2\n        /* \"#utility.yul\":1428:1452   */\n      tag_226\n      jump\t// in\n    tag_295:\n        /* \"#utility.yul\":1421:1426   */\n      dup2\n        /* \"#utility.yul\":1418:1453   */\n      eq\n        /* \"#utility.yul\":1408:1471   */\n      tag_296\n      jumpi\n        /* \"#utility.yul\":1467:1468   */\n      0x00\n        /* \"#utility.yul\":1464:1465   */\n      dup1\n        /* \"#utility.yul\":1457:1469   */\n      revert\n        /* \"#utility.yul\":1408:1471   */\n    tag_296:\n        /* \"#utility.yul\":1355:1477   */\n      pop\n      jump\t// out\n        /* \"#utility.yul\":1483:1622   */\n    tag_232:\n        /* \"#utility.yul\":1529:1534   */\n      0x00\n        /* \"#utility.yul\":1567:1573   */\n      dup2\n        /* \"#utility.yul\":1554:1574   */\n      calldataload\n        /* \"#utility.yul\":1545:1574   */\n      swap1\n      pop\n        /* \"#utility.yul\":1583:1616   */\n      tag_298\n        /* \"#utility.yul\":1610:1615   */\n      dup2\n        /* \"#utility.yul\":1583:1616   */\n      tag_231\n      jump\t// in\n    tag_298:\n        /* \"#utility.yul\":1483:1622   */\n      swap3\n      swap2\n      pop\n      pop\n      jump\t// out\n        /* \"#utility.yul\":1628:1957   */\n    tag_35:\n        /* \"#utility.yul\":1687:1693   */\n      0x00\n        /* \"#utility.yul\":1736:1738   */\n      0x20\n        /* \"#utility.yul\":1724:1733   */\n      dup3\n        /* \"#utility.yul\":1715:1722   */\n      dup5\n        /* \"#utility.yul\":1711:1734   */\n      sub\n        /* \"#utility.yul\":1707:1739   */\n      slt\n        /* \"#utility.yul\":1704:1823   */\n      iszero\n      tag_300\n      jumpi\n        /* \"#utility.yul\":1742:1821   */\n      tag_301\n      tag_229\n      jump\t// in\n    tag_301:\n        /* \"#utility.yul\":1704:1823   */\n    tag_300:\n        /* \"#utility.yul\":1862:1863   */\n      0x00\n        /* \"#utility.yul\":1887:1940   */\n      tag_302\n        /* \"#utility.yul\":1932:1939   */\n      dup5\n        /* \"#utility.yul\":1923:1929   */\n      dup3\n        /* \"#utility.yul\":1912:1921   */\n      dup6\n        /* \"#utility.yul\":1908:1930   */\n      add\n        /* \"#utility.yul\":1887:1940   */\n      tag_232\n      jump\t// in\n    tag_302:\n        /* \"#utility.yul\":1877:1940   */\n      swap2\n      pop\n        /* \"#utility.yul\":1833:1950   */\n      pop\n        /* \"#utility.yul\":1628:1957   */\n      swap3\n      swap2\n      pop\n      pop\n      jump\t// out\n        /* \"#utility.yul\":1963:2040   */\n    tag_233:\n        /* \"#utility.yul\":2000:2007   */\n      0x00\n        /* \"#utility.yul\":2029:2034   */\n      dup2\n        /* \"#utility.yul\":2018:2034   */\n      swap1\n      pop\n        /* \"#utility.yul\":1963:2040   */\n      swap2\n      swap1\n      pop\n      jump\t// out\n        /* \"#utility.yul\":2046:2168   */\n    tag_234:\n        /* \"#utility.yul\":2119:2143   */\n      tag_305\n        /* \"#utility.yul\":2137:2142   */\n      dup2\n        /* \"#utility.yul\":2119:2143   */\n      tag_233\n      jump\t// in\n    tag_305:\n        /* \"#utility.yul\":2112:2117   */\n      dup2\n        /* \"#utility.yul\":2109:2144   */\n      eq\n        /* \"#utility.yul\":2099:2162   */\n      tag_306\n      jumpi\n        /* \"#utility.yul\":2158:2159   */\n      0x00\n        /* \"#utility.yul\":2155:2156   */\n      dup1\n        /* \"#utility.yul\":2148:2160   */\n      revert\n        /* \"#utility.yul\":2099:2162   */\n    tag_306:\n        /* \"#utility.yul\":2046:2168   */\n      pop\n      jump\t// out\n        /* \"#utility.yul\":2174:2313   */\n    tag_235:\n        /* \"#utility.yul\":2220:2225   */\n      0x00\n        /* \"#utility.yul\":2258:2264   */\n      dup2\n        /* \"#utility.yul\":2245:2265   */\n      calldataload\n        /* \"#utility.yul\":2236:2265   */\n      swap1\n      pop\n        /* \"#utility.yul\":2274:2307   */\n      tag_308\n        /* \"#utility.yul\":2301:2306   */\n      dup2\n        /* \"#utility.yul\":2274:2307   */\n      tag_234\n      jump\t// in\n    tag_308:\n        /* \"#utility.yul\":2174:2313   */\n      swap3\n      swap2\n      pop\n      pop\n      jump\t// out\n        /* \"#utility.yul\":2319:2441   */\n    tag_236:\n        /* \"#utility.yul\":2392:2416   */\n      tag_310\n        /* \"#utility.yul\":2410:2415   */\n      dup2\n        /* \"#utility.yul\":2392:2416   */\n      tag_223\n      jump\t// in\n    tag_310:\n        /* \"#utility.yul\":2385:2390   */\n      dup2\n        /* \"#utility.yul\":2382:2417   */\n      eq\n        /* \"#utility.yul\":2372:2435   */\n      tag_311\n      jumpi\n        /* \"#utility.yul\":2431:2432   */\n      0x00\n        /* \"#utility.yul\":2428:2429   */\n      dup1\n        /* \"#utility.yul\":2421:2433   */\n      revert\n        /* \"#utility.yul\":2372:2435   */\n    tag_311:\n        /* \"#utility.yul\":2319:2441   */\n      pop\n      jump\t// out\n        /* \"#utility.yul\":2447:2586   */\n    tag_237:\n        /* \"#utility.yul\":2493:2498   */\n      0x00\n        /* \"#utility.yul\":2531:2537   */\n      dup2\n        /* \"#utility.yul\":2518:2538   */\n      calldataload\n        /* \"#utility.yul\":2509:2538   */\n      swap1\n      pop\n        /* \"#utility.yul\":2547:2580   */\n      tag_313\n        /* \"#utility.yul\":2574:2579   */\n      dup2\n        /* \"#utility.yul\":2547:2580   */\n      tag_236\n      jump\t// in\n    tag_313:\n        /* \"#utility.yul\":2447:2586   */\n      swap3\n      swap2\n      pop\n      pop\n      jump\t// out\n        /* \"#utility.yul\":2592:3357   */\n    tag_39:\n        /* \"#utility.yul\":2678:2684   */\n      0x00\n        /* \"#utility.yul\":2686:2692   */\n      dup1\n        /* \"#utility.yul\":2694:2700   */\n      0x00\n        /* \"#utility.yul\":2702:2708   */\n      dup1\n        /* \"#utility.yul\":2751:2754   */\n      0x80\n        /* \"#utility.yul\":2739:2748   */\n      dup6\n        /* \"#utility.yul\":2730:2737   */\n      dup8\n        /* \"#utility.yul\":2726:2749   */\n      sub\n        /* \"#utility.yul\":2722:2755   */\n      slt\n        /* \"#utility.yul\":2719:2839   */\n      iszero\n      tag_315\n      jumpi\n        /* \"#utility.yul\":2758:2837   */\n      tag_316\n      tag_229\n      jump\t// in\n    tag_316:\n        /* \"#utility.yul\":2719:2839   */\n    tag_315:\n        /* \"#utility.yul\":2878:2879   */\n      0x00\n        /* \"#utility.yul\":2903:2956   */\n      tag_317\n        /* \"#utility.yul\":2948:2955   */\n      dup8\n        /* \"#utility.yul\":2939:2945   */\n      dup3\n        /* \"#utility.yul\":2928:2937   */\n      dup9\n        /* \"#utility.yul\":2924:2946   */\n      add\n        /* \"#utility.yul\":2903:2956   */\n      tag_235\n      jump\t// in\n    tag_317:\n        /* \"#utility.yul\":2893:2956   */\n      swap5\n      pop\n        /* \"#utility.yul\":2849:2966   */\n      pop\n        /* \"#utility.yul\":3005:3007   */\n      0x20\n        /* \"#utility.yul\":3031:3084   */\n      tag_318\n        /* \"#utility.yul\":3076:3083   */\n      dup8\n        /* \"#utility.yul\":3067:3073   */\n      dup3\n        /* \"#utility.yul\":3056:3065   */\n      dup9\n        /* \"#utility.yul\":3052:3074   */\n      add\n        /* \"#utility.yul\":3031:3084   */\n      tag_237\n      jump\t// in\n    tag_318:\n        /* \"#utility.yul\":3021:3084   */\n      swap4\n      pop\n        /* \"#utility.yul\":2976:3094   */\n      pop\n        /* \"#utility.yul\":3133:3135   */\n      0x40\n        /* \"#utility.yul\":3159:3212   */\n      tag_319\n        /* \"#utility.yul\":3204:3211   */\n      dup8\n        /* \"#utility.yul\":3195:3201   */\n      dup3\n        /* \"#utility.yul\":3184:3193   */\n      dup9\n        /* \"#utility.yul\":3180:3202   */\n      add\n        /* \"#utility.yul\":3159:3212   */\n      tag_237\n      jump\t// in\n    tag_319:\n        /* \"#utility.yul\":3149:3212   */\n      swap3\n      pop\n        /* \"#utility.yul\":3104:3222   */\n      pop\n        /* \"#utility.yul\":3261:3263   */\n      0x60\n        /* \"#utility.yul\":3287:3340   */\n      tag_320\n        /* \"#utility.yul\":3332:3339   */\n      dup8\n        /* \"#utility.yul\":3323:3329   */\n      dup3\n        /* \"#utility.yul\":3312:3321   */\n      dup9\n        /* \"#utility.yul\":3308:3330   */\n      add\n        /* \"#utility.yul\":3287:3340   */\n      tag_237\n      jump\t// in\n    tag_320:\n        /* \"#utility.yul\":3277:3340   */\n      swap2\n      pop\n        /* \"#utility.yul\":3232:3350   */\n      pop\n        /* \"#utility.yul\":2592:3357   */\n      swap3\n      swap6\n      swap2\n      swap5\n      pop\n      swap3\n      pop\n      jump\t// out\n        /* \"#utility.yul\":3363:3532   */\n    tag_238:\n        /* \"#utility.yul\":3447:3458   */\n      0x00\n        /* \"#utility.yul\":3481:3487   */\n      dup3\n        /* \"#utility.yul\":3476:3479   */\n      dup3\n        /* \"#utility.yul\":3469:3488   */\n      mstore\n        /* \"#utility.yul\":3521:3525   */\n      0x20\n        /* \"#utility.yul\":3516:3519   */\n      dup3\n        /* \"#utility.yul\":3512:3526   */\n      add\n        /* \"#utility.yul\":3497:3526   */\n      swap1\n      pop\n        /* \"#utility.yul\":3363:3532   */\n      swap3\n      swap2\n      pop\n      pop\n      jump\t// out\n        /* \"#utility.yul\":3538:3710   */\n    tag_239:\n        /* \"#utility.yul\":3678:3702   */\n      0x4d7573742062652070726f706f736564206f776e657200000000000000000000\n        /* \"#utility.yul\":3674:3675   */\n      0x00\n        /* \"#utility.yul\":3666:3672   */\n      dup3\n        /* \"#utility.yul\":3662:3676   */\n      add\n        /* \"#utility.yul\":3655:3703   */\n      mstore\n        /* \"#utility.yul\":3538:3710   */\n      pop\n      jump\t// out\n        /* \"#utility.yul\":3716:4082   */\n    tag_240:\n        /* \"#utility.yul\":3858:3861   */\n      0x00\n        /* \"#utility.yul\":3879:3946   */\n      tag_324\n        /* \"#utility.yul\":3943:3945   */\n      0x16\n        /* \"#utility.yul\":3938:3941   */\n      dup4\n        /* \"#utility.yul\":3879:3946   */\n      tag_238\n      jump\t// in\n    tag_324:\n        /* \"#utility.yul\":3872:3946   */\n      swap2\n      pop\n        /* \"#utility.yul\":3955:4048   */\n      tag_325\n        /* \"#utility.yul\":4044:4047   */\n      dup3\n        /* \"#utility.yul\":3955:4048   */\n      tag_239\n      jump\t// in\n    tag_325:\n        /* \"#utility.yul\":4073:4075   */\n      0x20\n        /* \"#utility.yul\":4068:4071   */\n      dup3\n        /* \"#utility.yul\":4064:4076   */\n      add\n        /* \"#utility.yul\":4057:4076   */\n      swap1\n      pop\n        /* \"#utility.yul\":3716:4082   */\n      swap2\n      swap1\n      pop\n      jump\t// out\n        /* \"#utility.yul\":4088:4507   */\n    tag_56:\n        /* \"#utility.yul\":4254:4258   */\n      0x00\n        /* \"#utility.yul\":4292:4294   */\n      0x20\n        /* \"#utility.yul\":4281:4290   */\n      dup3\n        /* \"#utility.yul\":4277:4295   */\n      add\n        /* \"#utility.yul\":4269:4295   */\n      swap1\n      pop\n        /* \"#utility.yul\":4341:4350   */\n      dup2\n        /* \"#utility.yul\":4335:4339   */\n      dup2\n        /* \"#utility.yul\":4331:4351   */\n      sub\n        /* \"#utility.yul\":4327:4328   */\n      0x00\n        /* \"#utility.yul\":4316:4325   */\n      dup4\n        /* \"#utility.yul\":4312:4329   */\n      add\n        /* \"#utility.yul\":4305:4352   */\n      mstore\n        /* \"#utility.yul\":4369:4500   */\n      tag_327\n        /* \"#utility.yul\":4495:4499   */\n      dup2\n        /* \"#utility.yul\":4369:4500   */\n      tag_240\n      jump\t// in\n    tag_327:\n        /* \"#utility.yul\":4361:4500   */\n      swap1\n      pop\n        /* \"#utility.yul\":4088:4507   */\n      swap2\n      swap1\n      pop\n      jump\t// out\n        /* \"#utility.yul\":4513:4656   */\n    tag_241:\n        /* \"#utility.yul\":4570:4575   */\n      0x00\n        /* \"#utility.yul\":4601:4607   */\n      dup2\n        /* \"#utility.yul\":4595:4608   */\n      mload\n        /* \"#utility.yul\":4586:4608   */\n      swap1\n      pop\n        /* \"#utility.yul\":4617:4650   */\n      tag_329\n        /* \"#utility.yul\":4644:4649   */\n      dup2\n        /* \"#utility.yul\":4617:4650   */\n      tag_236\n      jump\t// in\n    tag_329:\n        /* \"#utility.yul\":4513:4656   */\n      swap3\n      swap2\n      pop\n      pop\n      jump\t// out\n        /* \"#utility.yul\":4662:5013   */\n    tag_68:\n        /* \"#utility.yul\":4732:4738   */\n      0x00\n        /* \"#utility.yul\":4781:4783   */\n      0x20\n        /* \"#utility.yul\":4769:4778   */\n      dup3\n        /* \"#utility.yul\":4760:4767   */\n      dup5\n        /* \"#utility.yul\":4756:4779   */\n      sub\n        /* \"#utility.yul\":4752:4784   */\n      slt\n        /* \"#utility.yul\":4749:4868   */\n      iszero\n      tag_331\n      jumpi\n        /* \"#utility.yul\":4787:4866   */\n      tag_332\n      tag_229\n      jump\t// in\n    tag_332:\n        /* \"#utility.yul\":4749:4868   */\n    tag_331:\n        /* \"#utility.yul\":4907:4908   */\n      0x00\n        /* \"#utility.yul\":4932:4996   */\n      tag_333\n        /* \"#utility.yul\":4988:4995   */\n      dup5\n        /* \"#utility.yul\":4979:4985   */\n      dup3\n        /* \"#utility.yul\":4968:4977   */\n      dup6\n        /* \"#utility.yul\":4964:4986   */\n      add\n        /* \"#utility.yul\":4932:4996   */\n      tag_241\n      jump\t// in\n    tag_333:\n        /* \"#utility.yul\":4922:4996   */\n      swap2\n      pop\n        /* \"#utility.yul\":4878:5006   */\n      pop\n        /* \"#utility.yul\":4662:5013   */\n      swap3\n      swap2\n      pop\n      pop\n      jump\t// out\n        /* \"#utility.yul\":5019:5351   */\n    tag_70:\n        /* \"#utility.yul\":5140:5144   */\n      0x00\n        /* \"#utility.yul\":5178:5180   */\n      0x40\n        /* \"#utility.yul\":5167:5176   */\n      dup3\n        /* \"#utility.yul\":5163:5181   */\n      add\n        /* \"#utility.yul\":5155:5181   */\n      swap1\n      pop\n        /* \"#utility.yul\":5191:5262   */\n      tag_335\n        /* \"#utility.yul\":5259:5260   */\n      0x00\n        /* \"#utility.yul\":5248:5257   */\n      dup4\n        /* \"#utility.yul\":5244:5261   */\n      add\n        /* \"#utility.yul\":5235:5241   */\n      dup6\n        /* \"#utility.yul\":5191:5262   */\n      tag_227\n      jump\t// in\n    tag_335:\n        /* \"#utility.yul\":5272:5344   */\n      tag_336\n        /* \"#utility.yul\":5340:5342   */\n      0x20\n        /* \"#utility.yul\":5329:5338   */\n      dup4\n        /* \"#utility.yul\":5325:5343   */\n      add\n        /* \"#utility.yul\":5316:5322   */\n      dup5\n        /* \"#utility.yul\":5272:5344   */\n      tag_224\n      jump\t// in\n    tag_336:\n        /* \"#utility.yul\":5019:5351   */\n      swap4\n      swap3\n      pop\n      pop\n      pop\n      jump\t// out\n        /* \"#utility.yul\":5357:5447   */\n    tag_242:\n        /* \"#utility.yul\":5391:5398   */\n      0x00\n        /* \"#utility.yul\":5434:5439   */\n      dup2\n        /* \"#utility.yul\":5427:5440   */\n      iszero\n        /* \"#utility.yul\":5420:5441   */\n      iszero\n        /* \"#utility.yul\":5409:5441   */\n      swap1\n      pop\n        /* \"#utility.yul\":5357:5447   */\n      swap2\n      swap1\n      pop\n      jump\t// out\n        /* \"#utility.yul\":5453:5569   */\n    tag_243:\n        /* \"#utility.yul\":5523:5544   */\n      tag_339\n        /* \"#utility.yul\":5538:5543   */\n      dup2\n        /* \"#utility.yul\":5523:5544   */\n      tag_242\n      jump\t// in\n    tag_339:\n        /* \"#utility.yul\":5516:5521   */\n      dup2\n        /* \"#utility.yul\":5513:5545   */\n      eq\n        /* \"#utility.yul\":5503:5563   */\n      tag_340\n      jumpi\n        /* \"#utility.yul\":5559:5560   */\n      0x00\n        /* \"#utility.yul\":5556:5557   */\n      dup1\n        /* \"#utility.yul\":5549:5561   */\n      revert\n        /* \"#utility.yul\":5503:5563   */\n    tag_340:\n        /* \"#utility.yul\":5453:5569   */\n      pop\n      jump\t// out\n        /* \"#utility.yul\":5575:5712   */\n    tag_244:\n        /* \"#utility.yul\":5629:5634   */\n      0x00\n        /* \"#utility.yul\":5660:5666   */\n      dup2\n        /* \"#utility.yul\":5654:5667   */\n      mload\n        /* \"#utility.yul\":5645:5667   */\n      swap1\n      pop\n        /* \"#utility.yul\":5676:5706   */\n      tag_342\n        /* \"#utility.yul\":5700:5705   */\n      dup2\n        /* \"#utility.yul\":5676:5706   */\n      tag_243\n      jump\t// in\n    tag_342:\n        /* \"#utility.yul\":5575:5712   */\n      swap3\n      swap2\n      pop\n      pop\n      jump\t// out\n        /* \"#utility.yul\":5718:6063   */\n    tag_74:\n        /* \"#utility.yul\":5785:5791   */\n      0x00\n        /* \"#utility.yul\":5834:5836   */\n      0x20\n        /* \"#utility.yul\":5822:5831   */\n      dup3\n        /* \"#utility.yul\":5813:5820   */\n      dup5\n        /* \"#utility.yul\":5809:5832   */\n      sub\n        /* \"#utility.yul\":5805:5837   */\n      slt\n        /* \"#utility.yul\":5802:5921   */\n      iszero\n      tag_344\n      jumpi\n        /* \"#utility.yul\":5840:5919   */\n      tag_345\n      tag_229\n      jump\t// in\n    tag_345:\n        /* \"#utility.yul\":5802:5921   */\n    tag_344:\n        /* \"#utility.yul\":5960:5961   */\n      0x00\n        /* \"#utility.yul\":5985:6046   */\n      tag_346\n        /* \"#utility.yul\":6038:6045   */\n      dup5\n        /* \"#utility.yul\":6029:6035   */\n      dup3\n        /* \"#utility.yul\":6018:6027   */\n      dup6\n        /* \"#utility.yul\":6014:6036   */\n      add\n        /* \"#utility.yul\":5985:6046   */\n      tag_244\n      jump\t// in\n    tag_346:\n        /* \"#utility.yul\":5975:6046   */\n      swap2\n      pop\n        /* \"#utility.yul\":5931:6056   */\n      pop\n        /* \"#utility.yul\":5718:6063   */\n      swap3\n      swap2\n      pop\n      pop\n      jump\t// out\n        /* \"#utility.yul\":6069:6237   */\n    tag_245:\n        /* \"#utility.yul\":6209:6229   */\n      0x556e61626c6520746f207472616e736665720000000000000000000000000000\n        /* \"#utility.yul\":6205:6206   */\n      0x00\n        /* \"#utility.yul\":6197:6203   */\n      dup3\n        /* \"#utility.yul\":6193:6207   */\n      add\n        /* \"#utility.yul\":6186:6230   */\n      mstore\n        /* \"#utility.yul\":6069:6237   */\n      pop\n      jump\t// out\n        /* \"#utility.yul\":6243:6609   */\n    tag_246:\n        /* \"#utility.yul\":6385:6388   */\n      0x00\n        /* \"#utility.yul\":6406:6473   */\n      tag_349\n        /* \"#utility.yul\":6470:6472   */\n      0x12\n        /* \"#utility.yul\":6465:6468   */\n      dup4\n        /* \"#utility.yul\":6406:6473   */\n      tag_238\n      jump\t// in\n    tag_349:\n        /* \"#utility.yul\":6399:6473   */\n      swap2\n      pop\n        /* \"#utility.yul\":6482:6575   */\n      tag_350\n        /* \"#utility.yul\":6571:6574   */\n      dup3\n        /* \"#utility.yul\":6482:6575   */\n      tag_245\n      jump\t// in\n    tag_350:\n        /* \"#utility.yul\":6600:6602   */\n      0x20\n        /* \"#utility.yul\":6595:6598   */\n      dup3\n        /* \"#utility.yul\":6591:6603   */\n      add\n        /* \"#utility.yul\":6584:6603   */\n      swap1\n      pop\n        /* \"#utility.yul\":6243:6609   */\n      swap2\n      swap1\n      pop\n      jump\t// out\n        /* \"#utility.yul\":6615:7034   */\n    tag_77:\n        /* \"#utility.yul\":6781:6785   */\n      0x00\n        /* \"#utility.yul\":6819:6821   */\n      0x20\n        /* \"#utility.yul\":6808:6817   */\n      dup3\n        /* \"#utility.yul\":6804:6822   */\n      add\n        /* \"#utility.yul\":6796:6822   */\n      swap1\n      pop\n        /* \"#utility.yul\":6868:6877   */\n      dup2\n        /* \"#utility.yul\":6862:6866   */\n      dup2\n        /* \"#utility.yul\":6858:6878   */\n      sub\n        /* \"#utility.yul\":6854:6855   */\n      0x00\n        /* \"#utility.yul\":6843:6852   */\n      dup4\n        /* \"#utility.yul\":6839:6856   */\n      add\n        /* \"#utility.yul\":6832:6879   */\n      mstore\n        /* \"#utility.yul\":6896:7027   */\n      tag_352\n        /* \"#utility.yul\":7022:7026   */\n      dup2\n        /* \"#utility.yul\":6896:7027   */\n      tag_246\n      jump\t// in\n    tag_352:\n        /* \"#utility.yul\":6888:7027   */\n      swap1\n      pop\n        /* \"#utility.yul\":6615:7034   */\n      swap2\n      swap1\n      pop\n      jump\t// out\n        /* \"#utility.yul\":7040:7267   */\n    tag_247:\n        /* \"#utility.yul\":7180:7214   */\n      0x536f75726365206d75737420626520746865206f7261636c65206f6620746865\n        /* \"#utility.yul\":7176:7177   */\n      0x00\n        /* \"#utility.yul\":7168:7174   */\n      dup3\n        /* \"#utility.yul\":7164:7178   */\n      add\n        /* \"#utility.yul\":7157:7215   */\n      mstore\n        /* \"#utility.yul\":7249:7259   */\n      0x2072657175657374000000000000000000000000000000000000000000000000\n        /* \"#utility.yul\":7244:7246   */\n      0x20\n        /* \"#utility.yul\":7236:7242   */\n      dup3\n        /* \"#utility.yul\":7232:7247   */\n      add\n        /* \"#utility.yul\":7225:7260   */\n      mstore\n        /* \"#utility.yul\":7040:7267   */\n      pop\n      jump\t// out\n        /* \"#utility.yul\":7273:7639   */\n    tag_248:\n        /* \"#utility.yul\":7415:7418   */\n      0x00\n        /* \"#utility.yul\":7436:7503   */\n      tag_355\n        /* \"#utility.yul\":7500:7502   */\n      0x28\n        /* \"#utility.yul\":7495:7498   */\n      dup4\n        /* \"#utility.yul\":7436:7503   */\n      tag_238\n      jump\t// in\n    tag_355:\n        /* \"#utility.yul\":7429:7503   */\n      swap2\n      pop\n        /* \"#utility.yul\":7512:7605   */\n      tag_356\n        /* \"#utility.yul\":7601:7604   */\n      dup3\n        /* \"#utility.yul\":7512:7605   */\n      tag_247\n      jump\t// in\n    tag_356:\n        /* \"#utility.yul\":7630:7632   */\n      0x40\n        /* \"#utility.yul\":7625:7628   */\n      dup3\n        /* \"#utility.yul\":7621:7633   */\n      add\n        /* \"#utility.yul\":7614:7633   */\n      swap1\n      pop\n        /* \"#utility.yul\":7273:7639   */\n      swap2\n      swap1\n      pop\n      jump\t// out\n        /* \"#utility.yul\":7645:8064   */\n    tag_86:\n        /* \"#utility.yul\":7811:7815   */\n      0x00\n        /* \"#utility.yul\":7849:7851   */\n      0x20\n        /* \"#utility.yul\":7838:7847   */\n      dup3\n        /* \"#utility.yul\":7834:7852   */\n      add\n        /* \"#utility.yul\":7826:7852   */\n      swap1\n      pop\n        /* \"#utility.yul\":7898:7907   */\n      dup2\n        /* \"#utility.yul\":7892:7896   */\n      dup2\n        /* \"#utility.yul\":7888:7908   */\n      sub\n        /* \"#utility.yul\":7884:7885   */\n      0x00\n        /* \"#utility.yul\":7873:7882   */\n      dup4\n        /* \"#utility.yul\":7869:7886   */\n      add\n        /* \"#utility.yul\":7862:7909   */\n      mstore\n        /* \"#utility.yul\":7926:8057   */\n      tag_358\n        /* \"#utility.yul\":8052:8056   */\n      dup2\n        /* \"#utility.yul\":7926:8057   */\n      tag_248\n      jump\t// in\n    tag_358:\n        /* \"#utility.yul\":7918:8057   */\n      swap1\n      pop\n        /* \"#utility.yul\":7645:8064   */\n      swap2\n      swap1\n      pop\n      jump\t// out\n        /* \"#utility.yul\":8070:8512   */\n    tag_89:\n        /* \"#utility.yul\":8219:8223   */\n      0x00\n        /* \"#utility.yul\":8257:8259   */\n      0x60\n        /* \"#utility.yul\":8246:8255   */\n      dup3\n        /* \"#utility.yul\":8242:8260   */\n      add\n        /* \"#utility.yul\":8234:8260   */\n      swap1\n      pop\n        /* \"#utility.yul\":8270:8341   */\n      tag_360\n        /* \"#utility.yul\":8338:8339   */\n      0x00\n        /* \"#utility.yul\":8327:8336   */\n      dup4\n        /* \"#utility.yul\":8323:8340   */\n      add\n        /* \"#utility.yul\":8314:8320   */\n      dup7\n        /* \"#utility.yul\":8270:8341   */\n      tag_224\n      jump\t// in\n    tag_360:\n        /* \"#utility.yul\":8351:8423   */\n      tag_361\n        /* \"#utility.yul\":8419:8421   */\n      0x20\n        /* \"#utility.yul\":8408:8417   */\n      dup4\n        /* \"#utility.yul\":8404:8422   */\n      add\n        /* \"#utility.yul\":8395:8401   */\n      dup6\n        /* \"#utility.yul\":8351:8423   */\n      tag_224\n      jump\t// in\n    tag_361:\n        /* \"#utility.yul\":8433:8505   */\n      tag_362\n        /* \"#utility.yul\":8501:8503   */\n      0x40\n        /* \"#utility.yul\":8490:8499   */\n      dup4\n        /* \"#utility.yul\":8486:8504   */\n      add\n        /* \"#utility.yul\":8477:8483   */\n      dup5\n        /* \"#utility.yul\":8433:8505   */\n      tag_224\n      jump\t// in\n    tag_362:\n        /* \"#utility.yul\":8070:8512   */\n      swap5\n      swap4\n      pop\n      pop\n      pop\n      pop\n      jump\t// out\n        /* \"#utility.yul\":8518:8690   */\n    tag_249:\n        /* \"#utility.yul\":8658:8682   */\n      0x4f6e6c792063616c6c61626c65206279206f776e657200000000000000000000\n        /* \"#utility.yul\":8654:8655   */\n      0x00\n        /* \"#utility.yul\":8646:8652   */\n      dup3\n        /* \"#utility.yul\":8642:8656   */\n      add\n        /* \"#utility.yul\":8635:8683   */\n      mstore\n        /* \"#utility.yul\":8518:8690   */\n      pop\n      jump\t// out\n        /* \"#utility.yul\":8696:9062   */\n    tag_250:\n        /* \"#utility.yul\":8838:8841   */\n      0x00\n        /* \"#utility.yul\":8859:8926   */\n      tag_365\n        /* \"#utility.yul\":8923:8925   */\n      0x16\n        /* \"#utility.yul\":8918:8921   */\n      dup4\n        /* \"#utility.yul\":8859:8926   */\n      tag_238\n      jump\t// in\n    tag_365:\n        /* \"#utility.yul\":8852:8926   */\n      swap2\n      pop\n        /* \"#utility.yul\":8935:9028   */\n      tag_366\n        /* \"#utility.yul\":9024:9027   */\n      dup3\n        /* \"#utility.yul\":8935:9028   */\n      tag_249\n      jump\t// in\n    tag_366:\n        /* \"#utility.yul\":9053:9055   */\n      0x20\n        /* \"#utility.yul\":9048:9051   */\n      dup3\n        /* \"#utility.yul\":9044:9056   */\n      add\n        /* \"#utility.yul\":9037:9056   */\n      swap1\n      pop\n        /* \"#utility.yul\":8696:9062   */\n      swap2\n      swap1\n      pop\n      jump\t// out\n        /* \"#utility.yul\":9068:9487   */\n    tag_106:\n        /* \"#utility.yul\":9234:9238   */\n      0x00\n        /* \"#utility.yul\":9272:9274   */\n      0x20\n        /* \"#utility.yul\":9261:9270   */\n      dup3\n        /* \"#utility.yul\":9257:9275   */\n      add\n        /* \"#utility.yul\":9249:9275   */\n      swap1\n      pop\n        /* \"#utility.yul\":9321:9330   */\n      dup2\n        /* \"#utility.yul\":9315:9319   */\n      dup2\n        /* \"#utility.yul\":9311:9331   */\n      sub\n        /* \"#utility.yul\":9307:9308   */\n      0x00\n        /* \"#utility.yul\":9296:9305   */\n      dup4\n        /* \"#utility.yul\":9292:9309   */\n      add\n        /* \"#utility.yul\":9285:9332   */\n      mstore\n        /* \"#utility.yul\":9349:9480   */\n      tag_368\n        /* \"#utility.yul\":9475:9479   */\n      dup2\n        /* \"#utility.yul\":9349:9480   */\n      tag_250\n      jump\t// in\n    tag_368:\n        /* \"#utility.yul\":9341:9480   */\n      swap1\n      pop\n        /* \"#utility.yul\":9068:9487   */\n      swap2\n      swap1\n      pop\n      jump\t// out\n        /* \"#utility.yul\":9493:9666   */\n    tag_251:\n        /* \"#utility.yul\":9633:9658   */\n      0x43616e6e6f74207472616e7366657220746f2073656c66000000000000000000\n        /* \"#utility.yul\":9629:9630   */\n      0x00\n        /* \"#utility.yul\":9621:9627   */\n      dup3\n        /* \"#utility.yul\":9617:9631   */\n      add\n        /* \"#utility.yul\":9610:9659   */\n      mstore\n        /* \"#utility.yul\":9493:9666   */\n      pop\n      jump\t// out\n        /* \"#utility.yul\":9672:10038   */\n    tag_252:\n        /* \"#utility.yul\":9814:9817   */\n      0x00\n        /* \"#utility.yul\":9835:9902   */\n      tag_371\n        /* \"#utility.yul\":9899:9901   */\n      0x17\n        /* \"#utility.yul\":9894:9897   */\n      dup4\n        /* \"#utility.yul\":9835:9902   */\n      tag_238\n      jump\t// in\n    tag_371:\n        /* \"#utility.yul\":9828:9902   */\n      swap2\n      pop\n        /* \"#utility.yul\":9911:10004   */\n      tag_372\n        /* \"#utility.yul\":10000:10003   */\n      dup3\n        /* \"#utility.yul\":9911:10004   */\n      tag_251\n      jump\t// in\n    tag_372:\n        /* \"#utility.yul\":10029:10031   */\n      0x20\n        /* \"#utility.yul\":10024:10027   */\n      dup3\n        /* \"#utility.yul\":10020:10032   */\n      add\n        /* \"#utility.yul\":10013:10032   */\n      swap1\n      pop\n        /* \"#utility.yul\":9672:10038   */\n      swap2\n      swap1\n      pop\n      jump\t// out\n        /* \"#utility.yul\":10044:10463   */\n    tag_111:\n        /* \"#utility.yul\":10210:10214   */\n      0x00\n        /* \"#utility.yul\":10248:10250   */\n      0x20\n        /* \"#utility.yul\":10237:10246   */\n      dup3\n        /* \"#utility.yul\":10233:10251   */\n      add\n        /* \"#utility.yul\":10225:10251   */\n      swap1\n      pop\n        /* \"#utility.yul\":10297:10306   */\n      dup2\n        /* \"#utility.yul\":10291:10295   */\n      dup2\n        /* \"#utility.yul\":10287:10307   */\n      sub\n        /* \"#utility.yul\":10283:10284   */\n      0x00\n        /* \"#utility.yul\":10272:10281   */\n      dup4\n        /* \"#utility.yul\":10268:10285   */\n      add\n        /* \"#utility.yul\":10261:10308   */\n      mstore\n        /* \"#utility.yul\":10325:10456   */\n      tag_374\n        /* \"#utility.yul\":10451:10455   */\n      dup2\n        /* \"#utility.yul\":10325:10456   */\n      tag_252\n      jump\t// in\n    tag_374:\n        /* \"#utility.yul\":10317:10456   */\n      swap1\n      pop\n        /* \"#utility.yul\":10044:10463   */\n      swap2\n      swap1\n      pop\n      jump\t// out\n        /* \"#utility.yul\":10469:10649   */\n    tag_253:\n        /* \"#utility.yul\":10517:10594   */\n      0x4e487b7100000000000000000000000000000000000000000000000000000000\n        /* \"#utility.yul\":10514:10515   */\n      0x00\n        /* \"#utility.yul\":10507:10595   */\n      mstore\n        /* \"#utility.yul\":10614:10618   */\n      0x11\n        /* \"#utility.yul\":10611:10612   */\n      0x04\n        /* \"#utility.yul\":10604:10619   */\n      mstore\n        /* \"#utility.yul\":10638:10642   */\n      0x24\n        /* \"#utility.yul\":10635:10636   */\n      0x00\n        /* \"#utility.yul\":10628:10643   */\n      revert\n        /* \"#utility.yul\":10655:10846   */\n    tag_123:\n        /* \"#utility.yul\":10695:10698   */\n      0x00\n        /* \"#utility.yul\":10714:10734   */\n      tag_377\n        /* \"#utility.yul\":10732:10733   */\n      dup3\n        /* \"#utility.yul\":10714:10734   */\n      tag_223\n      jump\t// in\n    tag_377:\n        /* \"#utility.yul\":10709:10734   */\n      swap2\n      pop\n        /* \"#utility.yul\":10748:10768   */\n      tag_378\n        /* \"#utility.yul\":10766:10767   */\n      dup4\n        /* \"#utility.yul\":10748:10768   */\n      tag_223\n      jump\t// in\n    tag_378:\n        /* \"#utility.yul\":10743:10768   */\n      swap3\n      pop\n        /* \"#utility.yul\":10791:10792   */\n      dup3\n        /* \"#utility.yul\":10788:10789   */\n      dup3\n        /* \"#utility.yul\":10784:10793   */\n      add\n        /* \"#utility.yul\":10777:10793   */\n      swap1\n      pop\n        /* \"#utility.yul\":10812:10815   */\n      dup1\n        /* \"#utility.yul\":10809:10810   */\n      dup3\n        /* \"#utility.yul\":10806:10816   */\n      gt\n        /* \"#utility.yul\":10803:10839   */\n      iszero\n      tag_379\n      jumpi\n        /* \"#utility.yul\":10819:10837   */\n      tag_380\n      tag_253\n      jump\t// in\n    tag_380:\n        /* \"#utility.yul\":10803:10839   */\n    tag_379:\n        /* \"#utility.yul\":10655:10846   */\n      swap3\n      swap2\n      pop\n      pop\n      jump\t// out\n        /* \"#utility.yul\":10852:10970   */\n    tag_254:\n        /* \"#utility.yul\":10939:10963   */\n      tag_382\n        /* \"#utility.yul\":10957:10962   */\n      dup2\n        /* \"#utility.yul\":10939:10963   */\n      tag_233\n      jump\t// in\n    tag_382:\n        /* \"#utility.yul\":10934:10937   */\n      dup3\n        /* \"#utility.yul\":10927:10964   */\n      mstore\n        /* \"#utility.yul\":10852:10970   */\n      pop\n      pop\n      jump\t// out\n        /* \"#utility.yul\":10976:11125   */\n    tag_255:\n        /* \"#utility.yul\":11012:11019   */\n      0x00\n        /* \"#utility.yul\":11052:11118   */\n      0xffffffff00000000000000000000000000000000000000000000000000000000\n        /* \"#utility.yul\":11045:11050   */\n      dup3\n        /* \"#utility.yul\":11041:11119   */\n      and\n        /* \"#utility.yul\":11030:11119   */\n      swap1\n      pop\n        /* \"#utility.yul\":10976:11125   */\n      swap2\n      swap1\n      pop\n      jump\t// out\n        /* \"#utility.yul\":11131:11246   */\n    tag_256:\n        /* \"#utility.yul\":11216:11239   */\n      tag_385\n        /* \"#utility.yul\":11233:11238   */\n      dup2\n        /* \"#utility.yul\":11216:11239   */\n      tag_255\n      jump\t// in\n    tag_385:\n        /* \"#utility.yul\":11211:11214   */\n      dup3\n        /* \"#utility.yul\":11204:11240   */\n      mstore\n        /* \"#utility.yul\":11131:11246   */\n      pop\n      pop\n      jump\t// out\n        /* \"#utility.yul\":11252:11350   */\n    tag_257:\n        /* \"#utility.yul\":11303:11309   */\n      0x00\n        /* \"#utility.yul\":11337:11342   */\n      dup2\n        /* \"#utility.yul\":11331:11343   */\n      mload\n        /* \"#utility.yul\":11321:11343   */\n      swap1\n      pop\n        /* \"#utility.yul\":11252:11350   */\n      swap2\n      swap1\n      pop\n      jump\t// out\n        /* \"#utility.yul\":11356:11524   */\n    tag_258:\n        /* \"#utility.yul\":11439:11450   */\n      0x00\n        /* \"#utility.yul\":11473:11479   */\n      dup3\n        /* \"#utility.yul\":11468:11471   */\n      dup3\n        /* \"#utility.yul\":11461:11480   */\n      mstore\n        /* \"#utility.yul\":11513:11517   */\n      0x20\n        /* \"#utility.yul\":11508:11511   */\n      dup3\n        /* \"#utility.yul\":11504:11518   */\n      add\n        /* \"#utility.yul\":11489:11518   */\n      swap1\n      pop\n        /* \"#utility.yul\":11356:11524   */\n      swap3\n      swap2\n      pop\n      pop\n      jump\t// out\n        /* \"#utility.yul\":11530:11669   */\n    tag_259:\n        /* \"#utility.yul\":11619:11625   */\n      dup3\n        /* \"#utility.yul\":11614:11617   */\n      dup2\n        /* \"#utility.yul\":11609:11612   */\n      dup4\n        /* \"#utility.yul\":11603:11626   */\n      mcopy\n        /* \"#utility.yul\":11660:11661   */\n      0x00\n        /* \"#utility.yul\":11651:11657   */\n      dup4\n        /* \"#utility.yul\":11646:11649   */\n      dup4\n        /* \"#utility.yul\":11642:11658   */\n      add\n        /* \"#utility.yul\":11635:11662   */\n      mstore\n        /* \"#utility.yul\":11530:11669   */\n      pop\n      pop\n      pop\n      jump\t// out\n        /* \"#utility.yul\":11675:11777   */\n    tag_260:\n        /* \"#utility.yul\":11716:11722   */\n      0x00\n        /* \"#utility.yul\":11767:11769   */\n      0x1f\n        /* \"#utility.yul\":11763:11770   */\n      not\n        /* \"#utility.yul\":11758:11760   */\n      0x1f\n        /* \"#utility.yul\":11751:11756   */\n      dup4\n        /* \"#utility.yul\":11747:11761   */\n      add\n        /* \"#utility.yul\":11743:11771   */\n      and\n        /* \"#utility.yul\":11733:11771   */\n      swap1\n      pop\n        /* \"#utility.yul\":11675:11777   */\n      swap2\n      swap1\n      pop\n      jump\t// out\n        /* \"#utility.yul\":11783:12156   */\n    tag_261:\n        /* \"#utility.yul\":11869:11872   */\n      0x00\n        /* \"#utility.yul\":11897:11935   */\n      tag_391\n        /* \"#utility.yul\":11929:11934   */\n      dup3\n        /* \"#utility.yul\":11897:11935   */\n      tag_257\n      jump\t// in\n    tag_391:\n        /* \"#utility.yul\":11951:12021   */\n      tag_392\n        /* \"#utility.yul\":12014:12020   */\n      dup2\n        /* \"#utility.yul\":12009:12012   */\n      dup6\n        /* \"#utility.yul\":11951:12021   */\n      tag_258\n      jump\t// in\n    tag_392:\n        /* \"#utility.yul\":11944:12021   */\n      swap4\n      pop\n        /* \"#utility.yul\":12030:12095   */\n      tag_393\n        /* \"#utility.yul\":12088:12094   */\n      dup2\n        /* \"#utility.yul\":12083:12086   */\n      dup6\n        /* \"#utility.yul\":12076:12080   */\n      0x20\n        /* \"#utility.yul\":12069:12074   */\n      dup7\n        /* \"#utility.yul\":12065:12081   */\n      add\n        /* \"#utility.yul\":12030:12095   */\n      tag_259\n      jump\t// in\n    tag_393:\n        /* \"#utility.yul\":12120:12149   */\n      tag_394\n        /* \"#utility.yul\":12142:12148   */\n      dup2\n        /* \"#utility.yul\":12120:12149   */\n      tag_260\n      jump\t// in\n    tag_394:\n        /* \"#utility.yul\":12115:12118   */\n      dup5\n        /* \"#utility.yul\":12111:12150   */\n      add\n        /* \"#utility.yul\":12104:12150   */\n      swap2\n      pop\n        /* \"#utility.yul\":11873:12156   */\n      pop\n        /* \"#utility.yul\":11783:12156   */\n      swap3\n      swap2\n      pop\n      pop\n      jump\t// out\n        /* \"#utility.yul\":12162:13242   */\n    tag_125:\n        /* \"#utility.yul\":12467:12471   */\n      0x00\n        /* \"#utility.yul\":12505:12508   */\n      0x0100\n        /* \"#utility.yul\":12494:12503   */\n      dup3\n        /* \"#utility.yul\":12490:12509   */\n      add\n        /* \"#utility.yul\":12482:12509   */\n      swap1\n      pop\n        /* \"#utility.yul\":12519:12590   */\n      tag_396\n        /* \"#utility.yul\":12587:12588   */\n      0x00\n        /* \"#utility.yul\":12576:12585   */\n      dup4\n        /* \"#utility.yul\":12572:12589   */\n      add\n        /* \"#utility.yul\":12563:12569   */\n      dup12\n        /* \"#utility.yul\":12519:12590   */\n      tag_227\n      jump\t// in\n    tag_396:\n        /* \"#utility.yul\":12600:12672   */\n      tag_397\n        /* \"#utility.yul\":12668:12670   */\n      0x20\n        /* \"#utility.yul\":12657:12666   */\n      dup4\n        /* \"#utility.yul\":12653:12671   */\n      add\n        /* \"#utility.yul\":12644:12650   */\n      dup11\n        /* \"#utility.yul\":12600:12672   */\n      tag_224\n      jump\t// in\n    tag_397:\n        /* \"#utility.yul\":12682:12754   */\n      tag_398\n        /* \"#utility.yul\":12750:12752   */\n      0x40\n        /* \"#utility.yul\":12739:12748   */\n      dup4\n        /* \"#utility.yul\":12735:12753   */\n      add\n        /* \"#utility.yul\":12726:12732   */\n      dup10\n        /* \"#utility.yul\":12682:12754   */\n      tag_254\n      jump\t// in\n    tag_398:\n        /* \"#utility.yul\":12764:12836   */\n      tag_399\n        /* \"#utility.yul\":12832:12834   */\n      0x60\n        /* \"#utility.yul\":12821:12830   */\n      dup4\n        /* \"#utility.yul\":12817:12835   */\n      add\n        /* \"#utility.yul\":12808:12814   */\n      dup9\n        /* \"#utility.yul\":12764:12836   */\n      tag_227\n      jump\t// in\n    tag_399:\n        /* \"#utility.yul\":12846:12917   */\n      tag_400\n        /* \"#utility.yul\":12912:12915   */\n      0x80\n        /* \"#utility.yul\":12901:12910   */\n      dup4\n        /* \"#utility.yul\":12897:12916   */\n      add\n        /* \"#utility.yul\":12888:12894   */\n      dup8\n        /* \"#utility.yul\":12846:12917   */\n      tag_256\n      jump\t// in\n    tag_400:\n        /* \"#utility.yul\":12927:13000   */\n      tag_401\n        /* \"#utility.yul\":12995:12998   */\n      0xa0\n        /* \"#utility.yul\":12984:12993   */\n      dup4\n        /* \"#utility.yul\":12980:12999   */\n      add\n        /* \"#utility.yul\":12971:12977   */\n      dup7\n        /* \"#utility.yul\":12927:13000   */\n      tag_224\n      jump\t// in\n    tag_401:\n        /* \"#utility.yul\":13010:13083   */\n      tag_402\n        /* \"#utility.yul\":13078:13081   */\n      0xc0\n        /* \"#utility.yul\":13067:13076   */\n      dup4\n        /* \"#utility.yul\":13063:13082   */\n      add\n        /* \"#utility.yul\":13054:13060   */\n      dup6\n        /* \"#utility.yul\":13010:13083   */\n      tag_224\n      jump\t// in\n    tag_402:\n        /* \"#utility.yul\":13131:13140   */\n      dup2\n        /* \"#utility.yul\":13125:13129   */\n      dup2\n        /* \"#utility.yul\":13121:13141   */\n      sub\n        /* \"#utility.yul\":13115:13118   */\n      0xe0\n        /* \"#utility.yul\":13104:13113   */\n      dup4\n        /* \"#utility.yul\":13100:13119   */\n      add\n        /* \"#utility.yul\":13093:13142   */\n      mstore\n        /* \"#utility.yul\":13159:13235   */\n      tag_403\n        /* \"#utility.yul\":13230:13234   */\n      dup2\n        /* \"#utility.yul\":13221:13227   */\n      dup5\n        /* \"#utility.yul\":13159:13235   */\n      tag_261\n      jump\t// in\n    tag_403:\n        /* \"#utility.yul\":13151:13235   */\n      swap1\n      pop\n        /* \"#utility.yul\":12162:13242   */\n      swap10\n      swap9\n      pop\n      pop\n      pop\n      pop\n      pop\n      pop\n      pop\n      pop\n      pop\n      jump\t// out\n        /* \"#utility.yul\":13248:13428   */\n    tag_262:\n        /* \"#utility.yul\":13296:13373   */\n      0x4e487b7100000000000000000000000000000000000000000000000000000000\n        /* \"#utility.yul\":13293:13294   */\n      0x00\n        /* \"#utility.yul\":13286:13374   */\n      mstore\n        /* \"#utility.yul\":13393:13397   */\n      0x12\n        /* \"#utility.yul\":13390:13391   */\n      0x04\n        /* \"#utility.yul\":13383:13398   */\n      mstore\n        /* \"#utility.yul\":13417:13421   */\n      0x24\n        /* \"#utility.yul\":13414:13415   */\n      0x00\n        /* \"#utility.yul\":13407:13422   */\n      revert\n        /* \"#utility.yul\":13434:13610   */\n    tag_132:\n        /* \"#utility.yul\":13466:13467   */\n      0x00\n        /* \"#utility.yul\":13483:13503   */\n      tag_406\n        /* \"#utility.yul\":13501:13502   */\n      dup3\n        /* \"#utility.yul\":13483:13503   */\n      tag_223\n      jump\t// in\n    tag_406:\n        /* \"#utility.yul\":13478:13503   */\n      swap2\n      pop\n        /* \"#utility.yul\":13517:13537   */\n      tag_407\n        /* \"#utility.yul\":13535:13536   */\n      dup4\n        /* \"#utility.yul\":13517:13537   */\n      tag_223\n      jump\t// in\n    tag_407:\n        /* \"#utility.yul\":13512:13537   */\n      swap3\n      pop\n        /* \"#utility.yul\":13556:13557   */\n      dup3\n        /* \"#utility.yul\":13546:13581   */\n      tag_408\n      jumpi\n        /* \"#utility.yul\":13561:13579   */\n      tag_409\n      tag_262\n      jump\t// in\n    tag_409:\n        /* \"#utility.yul\":13546:13581   */\n    tag_408:\n        /* \"#utility.yul\":13602:13603   */\n      dup3\n        /* \"#utility.yul\":13599:13600   */\n      dup3\n        /* \"#utility.yul\":13595:13604   */\n      mod\n        /* \"#utility.yul\":13590:13604   */\n      swap1\n      pop\n        /* \"#utility.yul\":13434:13610   */\n      swap3\n      swap2\n      pop\n      pop\n      jump\t// out\n        /* \"#utility.yul\":13616:13810   */\n    tag_136:\n        /* \"#utility.yul\":13656:13660   */\n      0x00\n        /* \"#utility.yul\":13676:13696   */\n      tag_411\n        /* \"#utility.yul\":13694:13695   */\n      dup3\n        /* \"#utility.yul\":13676:13696   */\n      tag_223\n      jump\t// in\n    tag_411:\n        /* \"#utility.yul\":13671:13696   */\n      swap2\n      pop\n        /* \"#utility.yul\":13710:13730   */\n      tag_412\n        /* \"#utility.yul\":13728:13729   */\n      dup4\n        /* \"#utility.yul\":13710:13730   */\n      tag_223\n      jump\t// in\n    tag_412:\n        /* \"#utility.yul\":13705:13730   */\n      swap3\n      pop\n        /* \"#utility.yul\":13754:13755   */\n      dup3\n        /* \"#utility.yul\":13751:13752   */\n      dup3\n        /* \"#utility.yul\":13747:13756   */\n      sub\n        /* \"#utility.yul\":13739:13756   */\n      swap1\n      pop\n        /* \"#utility.yul\":13778:13779   */\n      dup2\n        /* \"#utility.yul\":13772:13776   */\n      dup2\n        /* \"#utility.yul\":13769:13780   */\n      gt\n        /* \"#utility.yul\":13766:13803   */\n      iszero\n      tag_413\n      jumpi\n        /* \"#utility.yul\":13783:13801   */\n      tag_414\n      tag_253\n      jump\t// in\n    tag_414:\n        /* \"#utility.yul\":13766:13803   */\n    tag_413:\n        /* \"#utility.yul\":13616:13810   */\n      swap3\n      swap2\n      pop\n      pop\n      jump\t// out\n        /* \"#utility.yul\":13816:13876   */\n    tag_263:\n        /* \"#utility.yul\":13844:13847   */\n      0x00\n        /* \"#utility.yul\":13865:13870   */\n      dup2\n        /* \"#utility.yul\":13858:13870   */\n      swap1\n      pop\n        /* \"#utility.yul\":13816:13876   */\n      swap2\n      swap1\n      pop\n      jump\t// out\n        /* \"#utility.yul\":13882:14024   */\n    tag_264:\n        /* \"#utility.yul\":13932:13941   */\n      0x00\n        /* \"#utility.yul\":13965:14018   */\n      tag_417\n        /* \"#utility.yul\":13983:14017   */\n      tag_418\n        /* \"#utility.yul\":13992:14016   */\n      tag_419\n        /* \"#utility.yul\":14010:14015   */\n      dup5\n        /* \"#utility.yul\":13992:14016   */\n      tag_225\n      jump\t// in\n    tag_419:\n        /* \"#utility.yul\":13983:14017   */\n      tag_263\n      jump\t// in\n    tag_418:\n        /* \"#utility.yul\":13965:14018   */\n      tag_225\n      jump\t// in\n    tag_417:\n        /* \"#utility.yul\":13952:14018   */\n      swap1\n      pop\n        /* \"#utility.yul\":13882:14024   */\n      swap2\n      swap1\n      pop\n      jump\t// out\n        /* \"#utility.yul\":14030:14156   */\n    tag_265:\n        /* \"#utility.yul\":14080:14089   */\n      0x00\n        /* \"#utility.yul\":14113:14150   */\n      tag_421\n        /* \"#utility.yul\":14144:14149   */\n      dup3\n        /* \"#utility.yul\":14113:14150   */\n      tag_264\n      jump\t// in\n    tag_421:\n        /* \"#utility.yul\":14100:14150   */\n      swap1\n      pop\n        /* \"#utility.yul\":14030:14156   */\n      swap2\n      swap1\n      pop\n      jump\t// out\n        /* \"#utility.yul\":14162:14311   */\n    tag_266:\n        /* \"#utility.yul\":14235:14244   */\n      0x00\n        /* \"#utility.yul\":14268:14305   */\n      tag_423\n        /* \"#utility.yul\":14299:14304   */\n      dup3\n        /* \"#utility.yul\":14268:14305   */\n      tag_265\n      jump\t// in\n    tag_423:\n        /* \"#utility.yul\":14255:14305   */\n      swap1\n      pop\n        /* \"#utility.yul\":14162:14311   */\n      swap2\n      swap1\n      pop\n      jump\t// out\n        /* \"#utility.yul\":14317:14411   */\n    tag_267:\n        /* \"#utility.yul\":14350:14358   */\n      0x00\n        /* \"#utility.yul\":14398:14403   */\n      dup2\n        /* \"#utility.yul\":14394:14396   */\n      0x60\n        /* \"#utility.yul\":14390:14404   */\n      shl\n        /* \"#utility.yul\":14369:14404   */\n      swap1\n      pop\n        /* \"#utility.yul\":14317:14411   */\n      swap2\n      swap1\n      pop\n      jump\t// out\n        /* \"#utility.yul\":14417:14511   */\n    tag_268:\n        /* \"#utility.yul\":14456:14463   */\n      0x00\n        /* \"#utility.yul\":14485:14505   */\n      tag_426\n        /* \"#utility.yul\":14499:14504   */\n      dup3\n        /* \"#utility.yul\":14485:14505   */\n      tag_267\n      jump\t// in\n    tag_426:\n        /* \"#utility.yul\":14474:14505   */\n      swap1\n      pop\n        /* \"#utility.yul\":14417:14511   */\n      swap2\n      swap1\n      pop\n      jump\t// out\n        /* \"#utility.yul\":14517:14617   */\n    tag_269:\n        /* \"#utility.yul\":14556:14563   */\n      0x00\n        /* \"#utility.yul\":14585:14611   */\n      tag_428\n        /* \"#utility.yul\":14605:14610   */\n      dup3\n        /* \"#utility.yul\":14585:14611   */\n      tag_268\n      jump\t// in\n    tag_428:\n        /* \"#utility.yul\":14574:14611   */\n      swap1\n      pop\n        /* \"#utility.yul\":14517:14617   */\n      swap2\n      swap1\n      pop\n      jump\t// out\n        /* \"#utility.yul\":14623:14839   */\n    tag_270:\n        /* \"#utility.yul\":14751:14832   */\n      tag_430\n        /* \"#utility.yul\":14771:14831   */\n      tag_431\n        /* \"#utility.yul\":14825:14830   */\n      dup3\n        /* \"#utility.yul\":14771:14831   */\n      tag_266\n      jump\t// in\n    tag_431:\n        /* \"#utility.yul\":14751:14832   */\n      tag_269\n      jump\t// in\n    tag_430:\n        /* \"#utility.yul\":14746:14749   */\n      dup3\n        /* \"#utility.yul\":14739:14833   */\n      mstore\n        /* \"#utility.yul\":14623:14839   */\n      pop\n      pop\n      jump\t// out\n        /* \"#utility.yul\":14845:14924   */\n    tag_271:\n        /* \"#utility.yul\":14884:14891   */\n      0x00\n        /* \"#utility.yul\":14913:14918   */\n      dup2\n        /* \"#utility.yul\":14902:14918   */\n      swap1\n      pop\n        /* \"#utility.yul\":14845:14924   */\n      swap2\n      swap1\n      pop\n      jump\t// out\n        /* \"#utility.yul\":14930:15087   */\n    tag_272:\n        /* \"#utility.yul\":15035:15080   */\n      tag_434\n        /* \"#utility.yul\":15055:15079   */\n      tag_435\n        /* \"#utility.yul\":15073:15078   */\n      dup3\n        /* \"#utility.yul\":15055:15079   */\n      tag_223\n      jump\t// in\n    tag_435:\n        /* \"#utility.yul\":15035:15080   */\n      tag_271\n      jump\t// in\n    tag_434:\n        /* \"#utility.yul\":15030:15033   */\n      dup3\n        /* \"#utility.yul\":15023:15081   */\n      mstore\n        /* \"#utility.yul\":14930:15087   */\n      pop\n      pop\n      jump\t// out\n        /* \"#utility.yul\":15093:15536   */\n    tag_164:\n        /* \"#utility.yul\":15256:15259   */\n      0x00\n        /* \"#utility.yul\":15271:15369   */\n      tag_437\n        /* \"#utility.yul\":15365:15368   */\n      dup3\n        /* \"#utility.yul\":15356:15362   */\n      dup6\n        /* \"#utility.yul\":15271:15369   */\n      tag_270\n      jump\t// in\n    tag_437:\n        /* \"#utility.yul\":15394:15396   */\n      0x14\n        /* \"#utility.yul\":15389:15392   */\n      dup3\n        /* \"#utility.yul\":15385:15397   */\n      add\n        /* \"#utility.yul\":15378:15397   */\n      swap2\n      pop\n        /* \"#utility.yul\":15407:15482   */\n      tag_438\n        /* \"#utility.yul\":15478:15481   */\n      dup3\n        /* \"#utility.yul\":15469:15475   */\n      dup5\n        /* \"#utility.yul\":15407:15482   */\n      tag_272\n      jump\t// in\n    tag_438:\n        /* \"#utility.yul\":15507:15509   */\n      0x20\n        /* \"#utility.yul\":15502:15505   */\n      dup3\n        /* \"#utility.yul\":15498:15510   */\n      add\n        /* \"#utility.yul\":15491:15510   */\n      swap2\n      pop\n        /* \"#utility.yul\":15527:15530   */\n      dup2\n        /* \"#utility.yul\":15520:15530   */\n      swap1\n      pop\n        /* \"#utility.yul\":15093:15536   */\n      swap4\n      swap3\n      pop\n      pop\n      pop\n      jump\t// out\n        /* \"#utility.yul\":15542:16071   */\n    tag_166:\n        /* \"#utility.yul\":15709:15713   */\n      0x00\n        /* \"#utility.yul\":15747:15749   */\n      0x60\n        /* \"#utility.yul\":15736:15745   */\n      dup3\n        /* \"#utility.yul\":15732:15750   */\n      add\n        /* \"#utility.yul\":15724:15750   */\n      swap1\n      pop\n        /* \"#utility.yul\":15760:15831   */\n      tag_440\n        /* \"#utility.yul\":15828:15829   */\n      0x00\n        /* \"#utility.yul\":15817:15826   */\n      dup4\n        /* \"#utility.yul\":15813:15830   */\n      add\n        /* \"#utility.yul\":15804:15810   */\n      dup7\n        /* \"#utility.yul\":15760:15831   */\n      tag_227\n      jump\t// in\n    tag_440:\n        /* \"#utility.yul\":15841:15913   */\n      tag_441\n        /* \"#utility.yul\":15909:15911   */\n      0x20\n        /* \"#utility.yul\":15898:15907   */\n      dup4\n        /* \"#utility.yul\":15894:15912   */\n      add\n        /* \"#utility.yul\":15885:15891   */\n      dup6\n        /* \"#utility.yul\":15841:15913   */\n      tag_224\n      jump\t// in\n    tag_441:\n        /* \"#utility.yul\":15960:15969   */\n      dup2\n        /* \"#utility.yul\":15954:15958   */\n      dup2\n        /* \"#utility.yul\":15950:15970   */\n      sub\n        /* \"#utility.yul\":15945:15947   */\n      0x40\n        /* \"#utility.yul\":15934:15943   */\n      dup4\n        /* \"#utility.yul\":15930:15948   */\n      add\n        /* \"#utility.yul\":15923:15971   */\n      mstore\n        /* \"#utility.yul\":15988:16064   */\n      tag_442\n        /* \"#utility.yul\":16059:16063   */\n      dup2\n        /* \"#utility.yul\":16050:16056   */\n      dup5\n        /* \"#utility.yul\":15988:16064   */\n      tag_261\n      jump\t// in\n    tag_442:\n        /* \"#utility.yul\":15980:16064   */\n      swap1\n      pop\n        /* \"#utility.yul\":15542:16071   */\n      swap5\n      swap4\n      pop\n      pop\n      pop\n      pop\n      jump\t// out\n        /* \"#utility.yul\":16077:16299   */\n    tag_273:\n        /* \"#utility.yul\":16217:16251   */\n      0x756e61626c6520746f207472616e73666572416e6443616c6c20746f206f7261\n        /* \"#utility.yul\":16213:16214   */\n      0x00\n        /* \"#utility.yul\":16205:16211   */\n      dup3\n        /* \"#utility.yul\":16201:16215   */\n      add\n        /* \"#utility.yul\":16194:16252   */\n      mstore\n        /* \"#utility.yul\":16286:16291   */\n      0x636c650000000000000000000000000000000000000000000000000000000000\n        /* \"#utility.yul\":16281:16283   */\n      0x20\n        /* \"#utility.yul\":16273:16279   */\n      dup3\n        /* \"#utility.yul\":16269:16284   */\n      add\n        /* \"#utility.yul\":16262:16292   */\n      mstore\n        /* \"#utility.yul\":16077:16299   */\n      pop\n      jump\t// out\n        /* \"#utility.yul\":16305:16671   */\n    tag_274:\n        /* \"#utility.yul\":16447:16450   */\n      0x00\n        /* \"#utility.yul\":16468:16535   */\n      tag_445\n        /* \"#utility.yul\":16532:16534   */\n      0x23\n        /* \"#utility.yul\":16527:16530   */\n      dup4\n        /* \"#utility.yul\":16468:16535   */\n      tag_238\n      jump\t// in\n    tag_445:\n        /* \"#utility.yul\":16461:16535   */\n      swap2\n      pop\n        /* \"#utility.yul\":16544:16637   */\n      tag_446\n        /* \"#utility.yul\":16633:16636   */\n      dup3\n        /* \"#utility.yul\":16544:16637   */\n      tag_273\n      jump\t// in\n    tag_446:\n        /* \"#utility.yul\":16662:16664   */\n      0x40\n        /* \"#utility.yul\":16657:16660   */\n      dup3\n        /* \"#utility.yul\":16653:16665   */\n      add\n        /* \"#utility.yul\":16646:16665   */\n      swap1\n      pop\n        /* \"#utility.yul\":16305:16671   */\n      swap2\n      swap1\n      pop\n      jump\t// out\n        /* \"#utility.yul\":16677:17096   */\n    tag_172:\n        /* \"#utility.yul\":16843:16847   */\n      0x00\n        /* \"#utility.yul\":16881:16883   */\n      0x20\n        /* \"#utility.yul\":16870:16879   */\n      dup3\n        /* \"#utility.yul\":16866:16884   */\n      add\n        /* \"#utility.yul\":16858:16884   */\n      swap1\n      pop\n        /* \"#utility.yul\":16930:16939   */\n      dup2\n        /* \"#utility.yul\":16924:16928   */\n      dup2\n        /* \"#utility.yul\":16920:16940   */\n      sub\n        /* \"#utility.yul\":16916:16917   */\n      0x00\n        /* \"#utility.yul\":16905:16914   */\n      dup4\n        /* \"#utility.yul\":16901:16918   */\n      add\n        /* \"#utility.yul\":16894:16941   */\n      mstore\n        /* \"#utility.yul\":16958:17089   */\n      tag_448\n        /* \"#utility.yul\":17084:17088   */\n      dup2\n        /* \"#utility.yul\":16958:17089   */\n      tag_274\n      jump\t// in\n    tag_448:\n        /* \"#utility.yul\":16950:17089   */\n      swap1\n      pop\n        /* \"#utility.yul\":16677:17096   */\n      swap2\n      swap1\n      pop\n      jump\t// out\n        /* \"#utility.yul\":17102:17512   */\n    tag_191:\n        /* \"#utility.yul\":17142:17149   */\n      0x00\n        /* \"#utility.yul\":17165:17185   */\n      tag_450\n        /* \"#utility.yul\":17183:17184   */\n      dup3\n        /* \"#utility.yul\":17165:17185   */\n      tag_223\n      jump\t// in\n    tag_450:\n        /* \"#utility.yul\":17160:17185   */\n      swap2\n      pop\n        /* \"#utility.yul\":17199:17219   */\n      tag_451\n        /* \"#utility.yul\":17217:17218   */\n      dup4\n        /* \"#utility.yul\":17199:17219   */\n      tag_223\n      jump\t// in\n    tag_451:\n        /* \"#utility.yul\":17194:17219   */\n      swap3\n      pop\n        /* \"#utility.yul\":17254:17255   */\n      dup3\n        /* \"#utility.yul\":17251:17252   */\n      dup3\n        /* \"#utility.yul\":17247:17256   */\n      mul\n        /* \"#utility.yul\":17276:17306   */\n      tag_452\n        /* \"#utility.yul\":17294:17305   */\n      dup2\n        /* \"#utility.yul\":17276:17306   */\n      tag_223\n      jump\t// in\n    tag_452:\n        /* \"#utility.yul\":17265:17306   */\n      swap2\n      pop\n        /* \"#utility.yul\":17455:17456   */\n      dup3\n        /* \"#utility.yul\":17446:17453   */\n      dup3\n        /* \"#utility.yul\":17442:17457   */\n      div\n        /* \"#utility.yul\":17439:17440   */\n      dup5\n        /* \"#utility.yul\":17436:17458   */\n      eq\n        /* \"#utility.yul\":17416:17417   */\n      dup4\n        /* \"#utility.yul\":17409:17418   */\n      iszero\n        /* \"#utility.yul\":17389:17472   */\n      or\n        /* \"#utility.yul\":17366:17505   */\n      tag_453\n      jumpi\n        /* \"#utility.yul\":17485:17503   */\n      tag_454\n      tag_253\n      jump\t// in\n    tag_454:\n        /* \"#utility.yul\":17366:17505   */\n    tag_453:\n        /* \"#utility.yul\":17150:17512   */\n      pop\n        /* \"#utility.yul\":17102:17512   */\n      swap3\n      swap2\n      pop\n      pop\n      jump\t// out\n        /* \"#utility.yul\":17518:17620   */\n    tag_275:\n        /* \"#utility.yul\":17560:17568   */\n      0x00\n        /* \"#utility.yul\":17607:17612   */\n      dup2\n        /* \"#utility.yul\":17604:17605   */\n      0x01\n        /* \"#utility.yul\":17600:17613   */\n      shr\n        /* \"#utility.yul\":17579:17613   */\n      swap1\n      pop\n        /* \"#utility.yul\":17518:17620   */\n      swap2\n      swap1\n      pop\n      jump\t// out\n        /* \"#utility.yul\":17626:18474   */\n    tag_276:\n        /* \"#utility.yul\":17687:17692   */\n      0x00\n        /* \"#utility.yul\":17694:17698   */\n      dup1\n        /* \"#utility.yul\":17718:17724   */\n      dup3\n        /* \"#utility.yul\":17709:17724   */\n      swap2\n      pop\n        /* \"#utility.yul\":17742:17747   */\n      dup4\n        /* \"#utility.yul\":17733:17747   */\n      swap1\n      pop\n        /* \"#utility.yul\":17756:18468   */\n    tag_457:\n        /* \"#utility.yul\":17777:17778   */\n      0x01\n        /* \"#utility.yul\":17767:17775   */\n      dup6\n        /* \"#utility.yul\":17764:17779   */\n      gt\n        /* \"#utility.yul\":17756:18468   */\n      iszero\n      tag_459\n      jumpi\n        /* \"#utility.yul\":17872:17876   */\n      dup1\n        /* \"#utility.yul\":17867:17870   */\n      dup7\n        /* \"#utility.yul\":17863:17877   */\n      div\n        /* \"#utility.yul\":17857:17861   */\n      dup2\n        /* \"#utility.yul\":17854:17878   */\n      gt\n        /* \"#utility.yul\":17851:17901   */\n      iszero\n      tag_460\n      jumpi\n        /* \"#utility.yul\":17881:17899   */\n      tag_461\n      tag_253\n      jump\t// in\n    tag_461:\n        /* \"#utility.yul\":17851:17901   */\n    tag_460:\n        /* \"#utility.yul\":17931:17932   */\n      0x01\n        /* \"#utility.yul\":17921:17929   */\n      dup6\n        /* \"#utility.yul\":17917:17933   */\n      and\n        /* \"#utility.yul\":17914:18365   */\n      iszero\n      tag_462\n      jumpi\n        /* \"#utility.yul\":18346:18350   */\n      dup1\n        /* \"#utility.yul\":18339:18344   */\n      dup3\n        /* \"#utility.yul\":18335:18351   */\n      mul\n        /* \"#utility.yul\":18326:18351   */\n      swap2\n      pop\n        /* \"#utility.yul\":17914:18365   */\n    tag_462:\n        /* \"#utility.yul\":18396:18400   */\n      dup1\n        /* \"#utility.yul\":18390:18394   */\n      dup2\n        /* \"#utility.yul\":18386:18401   */\n      mul\n        /* \"#utility.yul\":18378:18401   */\n      swap1\n      pop\n        /* \"#utility.yul\":18426:18458   */\n      tag_463\n        /* \"#utility.yul\":18449:18457   */\n      dup6\n        /* \"#utility.yul\":18426:18458   */\n      tag_275\n      jump\t// in\n    tag_463:\n        /* \"#utility.yul\":18414:18458   */\n      swap5\n      pop\n        /* \"#utility.yul\":17756:18468   */\n      jump(tag_457)\n    tag_459:\n        /* \"#utility.yul\":17626:18474   */\n      swap5\n      pop\n      swap5\n      swap3\n      pop\n      pop\n      pop\n      jump\t// out\n        /* \"#utility.yul\":18480:19553   */\n    tag_277:\n        /* \"#utility.yul\":18534:18539   */\n      0x00\n        /* \"#utility.yul\":18725:18733   */\n      dup3\n        /* \"#utility.yul\":18715:18755   */\n      tag_465\n      jumpi\n        /* \"#utility.yul\":18746:18747   */\n      0x01\n        /* \"#utility.yul\":18737:18747   */\n      swap1\n      pop\n        /* \"#utility.yul\":18748:18753   */\n      jump(tag_464)\n        /* \"#utility.yul\":18715:18755   */\n    tag_465:\n        /* \"#utility.yul\":18774:18778   */\n      dup2\n        /* \"#utility.yul\":18764:18800   */\n      tag_466\n      jumpi\n        /* \"#utility.yul\":18791:18792   */\n      0x00\n        /* \"#utility.yul\":18782:18792   */\n      swap1\n      pop\n        /* \"#utility.yul\":18793:18798   */\n      jump(tag_464)\n        /* \"#utility.yul\":18764:18800   */\n    tag_466:\n        /* \"#utility.yul\":18860:18864   */\n      dup2\n        /* \"#utility.yul\":18908:18909   */\n      0x01\n        /* \"#utility.yul\":18903:18930   */\n      dup2\n      eq\n      tag_468\n      jumpi\n        /* \"#utility.yul\":18944:18945   */\n      0x02\n        /* \"#utility.yul\":18939:19130   */\n      dup2\n      eq\n      tag_469\n      jumpi\n        /* \"#utility.yul\":18853:19130   */\n      jump(tag_467)\n        /* \"#utility.yul\":18903:18930   */\n    tag_468:\n        /* \"#utility.yul\":18921:18922   */\n      0x01\n        /* \"#utility.yul\":18912:18922   */\n      swap2\n      pop\n        /* \"#utility.yul\":18923:18928   */\n      pop\n      jump(tag_464)\n        /* \"#utility.yul\":18939:19130   */\n    tag_469:\n        /* \"#utility.yul\":18984:18987   */\n      0xff\n        /* \"#utility.yul\":18974:18982   */\n      dup5\n        /* \"#utility.yul\":18971:18988   */\n      gt\n        /* \"#utility.yul\":18968:19011   */\n      iszero\n      tag_470\n      jumpi\n        /* \"#utility.yul\":18991:19009   */\n      tag_471\n      tag_253\n      jump\t// in\n    tag_471:\n        /* \"#utility.yul\":18968:19011   */\n    tag_470:\n        /* \"#utility.yul\":19040:19048   */\n      dup4\n        /* \"#utility.yul\":19037:19038   */\n      0x02\n        /* \"#utility.yul\":19033:19049   */\n      exp\n        /* \"#utility.yul\":19024:19049   */\n      swap2\n      pop\n        /* \"#utility.yul\":19075:19078   */\n      dup5\n        /* \"#utility.yul\":19068:19073   */\n      dup3\n        /* \"#utility.yul\":19065:19079   */\n      gt\n        /* \"#utility.yul\":19062:19102   */\n      iszero\n      tag_472\n      jumpi\n        /* \"#utility.yul\":19082:19100   */\n      tag_473\n      tag_253\n      jump\t// in\n    tag_473:\n        /* \"#utility.yul\":19062:19102   */\n    tag_472:\n        /* \"#utility.yul\":19115:19120   */\n      pop\n      jump(tag_464)\n        /* \"#utility.yul\":18853:19130   */\n    tag_467:\n      pop\n        /* \"#utility.yul\":19239:19241   */\n      0x20\n        /* \"#utility.yul\":19229:19237   */\n      dup4\n        /* \"#utility.yul\":19226:19242   */\n      lt\n        /* \"#utility.yul\":19220:19223   */\n      0x0133\n        /* \"#utility.yul\":19214:19218   */\n      dup4\n        /* \"#utility.yul\":19211:19224   */\n      lt\n        /* \"#utility.yul\":19207:19243   */\n      and\n        /* \"#utility.yul\":19189:19191   */\n      0x4e\n        /* \"#utility.yul\":19179:19187   */\n      dup5\n        /* \"#utility.yul\":19176:19192   */\n      lt\n        /* \"#utility.yul\":19171:19173   */\n      0x0b\n        /* \"#utility.yul\":19165:19169   */\n      dup5\n        /* \"#utility.yul\":19162:19174   */\n      lt\n        /* \"#utility.yul\":19158:19193   */\n      and\n        /* \"#utility.yul\":19142:19253   */\n      or\n        /* \"#utility.yul\":19139:19385   */\n      iszero\n      tag_474\n      jumpi\n        /* \"#utility.yul\":19295:19303   */\n      dup3\n        /* \"#utility.yul\":19289:19293   */\n      dup3\n        /* \"#utility.yul\":19285:19304   */\n      exp\n        /* \"#utility.yul\":19276:19304   */\n      swap1\n      pop\n        /* \"#utility.yul\":19330:19333   */\n      dup4\n        /* \"#utility.yul\":19323:19328   */\n      dup2\n        /* \"#utility.yul\":19320:19334   */\n      gt\n        /* \"#utility.yul\":19317:19357   */\n      iszero\n      tag_475\n      jumpi\n        /* \"#utility.yul\":19337:19355   */\n      tag_476\n      tag_253\n      jump\t// in\n    tag_476:\n        /* \"#utility.yul\":19317:19357   */\n    tag_475:\n        /* \"#utility.yul\":19370:19375   */\n      jump(tag_464)\n        /* \"#utility.yul\":19139:19385   */\n    tag_474:\n        /* \"#utility.yul\":19410:19452   */\n      tag_477\n        /* \"#utility.yul\":19448:19451   */\n      dup5\n        /* \"#utility.yul\":19438:19446   */\n      dup5\n        /* \"#utility.yul\":19432:19436   */\n      dup5\n        /* \"#utility.yul\":19429:19430   */\n      0x01\n        /* \"#utility.yul\":19410:19452   */\n      tag_276\n      jump\t// in\n    tag_477:\n        /* \"#utility.yul\":19395:19452   */\n      swap3\n      pop\n      swap1\n      pop\n        /* \"#utility.yul\":19484:19488   */\n      dup2\n        /* \"#utility.yul\":19479:19482   */\n      dup5\n        /* \"#utility.yul\":19475:19489   */\n      div\n        /* \"#utility.yul\":19468:19473   */\n      dup2\n        /* \"#utility.yul\":19465:19490   */\n      gt\n        /* \"#utility.yul\":19462:19513   */\n      iszero\n      tag_478\n      jumpi\n        /* \"#utility.yul\":19493:19511   */\n      tag_479\n      tag_253\n      jump\t// in\n    tag_479:\n        /* \"#utility.yul\":19462:19513   */\n    tag_478:\n        /* \"#utility.yul\":19542:19546   */\n      dup2\n        /* \"#utility.yul\":19535:19540   */\n      dup2\n        /* \"#utility.yul\":19531:19547   */\n      mul\n        /* \"#utility.yul\":19522:19547   */\n      swap1\n      pop\n        /* \"#utility.yul\":18480:19553   */\n    tag_464:\n      swap4\n      swap3\n      pop\n      pop\n      pop\n      jump\t// out\n        /* \"#utility.yul\":19559:19844   */\n    tag_214:\n        /* \"#utility.yul\":19619:19624   */\n      0x00\n        /* \"#utility.yul\":19643:19666   */\n      tag_481\n        /* \"#utility.yul\":19661:19665   */\n      dup3\n        /* \"#utility.yul\":19643:19666   */\n      tag_223\n      jump\t// in\n    tag_481:\n        /* \"#utility.yul\":19635:19666   */\n      swap2\n      pop\n        /* \"#utility.yul\":19687:19714   */\n      tag_482\n        /* \"#utility.yul\":19705:19713   */\n      dup4\n        /* \"#utility.yul\":19687:19714   */\n      tag_223\n      jump\t// in\n    tag_482:\n        /* \"#utility.yul\":19675:19714   */\n      swap3\n      pop\n        /* \"#utility.yul\":19733:19837   */\n      tag_483\n        /* \"#utility.yul\":19770:19836   */\n      0xffffffffffffffffffffffffffffffffffffffffffffffffffffffffffffffff\n        /* \"#utility.yul\":19760:19768   */\n      dup5\n        /* \"#utility.yul\":19754:19758   */\n      dup5\n        /* \"#utility.yul\":19733:19837   */\n      tag_277\n      jump\t// in\n    tag_483:\n        /* \"#utility.yul\":19724:19837   */\n      swap1\n      pop\n        /* \"#utility.yul\":19559:19844   */\n      swap3\n      swap2\n      pop\n      pop\n      jump\t// out\n    stop\n    data_444739292f65e0d84586af555ca805e0303948242aa5bbf9a7032603676a8ec3 68747470733a2f2f6d696e2d6170692e63727970746f636f6d706172652e636f6d2f646174612f70726963653f6673796d3d455448267473796d733d555344\n    data_a2630dc8b8b01765ab3d34b93877cfb66c1783a3f101f6c824cecbf74292f29d 68747470733a2f2f6d696e2d6170692e63727970746f636f6d706172652e636f6d2f646174612f70726963653f6673796d3d455448267473796d733d425443\n    data_a6cacffcf01dc1a328a3d9ce8ba4081161d35f6793cf7099d70659b7cd98bac5 68747470733a2f2f6d696e2d6170692e63727970746f636f6d706172652e636f6d2f646174612f70726963653f6673796d3d455448267473796d733d455552\n\n    auxdata: 0xa26469706673582212200fea34eed408be77058a88f3c95919cd7d7fcf18ea4c60fceba78b1c2d5cdc5864736f6c634300081a0033\n}\n",
				"bytecode": {
					"linkReferences": {},
					"object": "60806040526001600455348015610014575f80fd5b5033805f8073ffffffffffffffffffffffffffffffffffffffff168273ffffffffffffffffffffffffffffffffffffffff1603610086576040517f08c379a000000000000000000000000000000000000000000000000000000000815260040161007d906103b1565b60405180910390fd5b8160065f6101000a81548173ffffffffffffffffffffffffffffffffffffffff021916908373ffffffffffffffffffffffffffffffffffffffff1602179055505f73ffffffffffffffffffffffffffffffffffffffff168173ffffffffffffffffffffffffffffffffffffffff161461010957610108816101a560201b60201c565b5b50505061012f73779877a7b0d9e8603169ddbd7836e478b46247896102d160201b60201c565b610152736090149792daaee9d1d568c9f9a6f6b46aa29efd61031460201b60201c565b7f3533663937353539323063643435316138666534366635303837343638333935600881905550600a670de0b6b3a764000060016101909190610405565b61019a9190610473565b60098190555061050b565b3373ffffffffffffffffffffffffffffffffffffffff168173ffffffffffffffffffffffffffffffffffffffff1603610213576040517f08c379a000000000000000000000000000000000000000000000000000000000815260040161020a906104ed565b60405180910390fd5b8060075f6101000a81548173ffffffffffffffffffffffffffffffffffffffff021916908373ffffffffffffffffffffffffffffffffffffffff1602179055508073ffffffffffffffffffffffffffffffffffffffff1660065f9054906101000a900473ffffffffffffffffffffffffffffffffffffffff1673ffffffffffffffffffffffffffffffffffffffff167fed8889f560326eb138920d842192f0eb3dd22b4f139c87a2c57538e05bae127860405160405180910390a350565b8060025f6101000a81548173ffffffffffffffffffffffffffffffffffffffff021916908373ffffffffffffffffffffffffffffffffffffffff16021790555050565b8060035f6101000a81548173ffffffffffffffffffffffffffffffffffffffff021916908373ffffffffffffffffffffffffffffffffffffffff16021790555050565b5f82825260208201905092915050565b7f43616e6e6f7420736574206f776e657220746f207a65726f00000000000000005f82015250565b5f61039b601883610357565b91506103a682610367565b602082019050919050565b5f6020820190508181035f8301526103c88161038f565b9050919050565b5f819050919050565b7f4e487b71000000000000000000000000000000000000000000000000000000005f52601160045260245ffd5b5f61040f826103cf565b915061041a836103cf565b9250828202610428816103cf565b9150828204841483151761043f5761043e6103d8565b5b5092915050565b7f4e487b71000000000000000000000000000000000000000000000000000000005f52601260045260245ffd5b5f61047d826103cf565b9150610488836103cf565b92508261049857610497610446565b5b828204905092915050565b7f43616e6e6f74207472616e7366657220746f2073656c660000000000000000005f82015250565b5f6104d7601783610357565b91506104e2826104a3565b602082019050919050565b5f6020820190508181035f830152610504816104cb565b9050919050565b611e87806105185f395ff3fe608060405234801561000f575f80fd5b5060043610610091575f3560e01c80638dc654a2116100645780638dc654a2146100e5578063a28d57d8146100ef578063d63a6ccd1461010d578063f2fde38b1461012b578063fda4417b1461014757610091565b80634a3afb47146100955780637439ae591461009f57806379ba5097146100bd5780638da5cb5b146100c7575b5f80fd5b61009d610163565b005b6100a761042d565b6040516100b49190611344565b60405180910390f35b6100c5610433565b005b6100cf6105c4565b6040516100dc919061139c565b60405180910390f35b6100ed6105ec565b005b6100f7610733565b6040516101049190611344565b60405180910390f35b610115610739565b6040516101229190611344565b60405180910390f35b610145600480360381019061014091906113e3565b61073f565b005b610161600480360381019061015c919061146b565b610753565b005b5f6101786008543063fda4417b60e01b6108aa565b90506101dc6040518060400160405280600681526020017f75726c42544300000000000000000000000000000000000000000000000000008152506040518060600160405280603f8152602001611dd4603f9139836108db9092919063ffffffff16565b61025b6040518060400160405280600781526020017f70617468425443000000000000000000000000000000000000000000000000008152506040518060400160405280600381526020017f4254430000000000000000000000000000000000000000000000000000000000815250836108db9092919063ffffffff16565b6102bd6040518060400160405280600681526020017f75726c55534400000000000000000000000000000000000000000000000000008152506040518060600160405280603f8152602001611d95603f9139836108db9092919063ffffffff16565b61033c6040518060400160405280600781526020017f70617468555344000000000000000000000000000000000000000000000000008152506040518060400160405280600381526020017f5553440000000000000000000000000000000000000000000000000000000000815250836108db9092919063ffffffff16565b61039e6040518060400160405280600681526020017f75726c45555200000000000000000000000000000000000000000000000000008152506040518060600160405280603f8152602001611e13603f9139836108db9092919063ffffffff16565b61041d6040518060400160405280600781526020017f70617468455552000000000000000000000000000000000000000000000000008152506040518060400160405280600381526020017f4555520000000000000000000000000000000000000000000000000000000000815250836108db9092919063ffffffff16565b6104298160095461090e565b5050565b600c5481565b60075f9054906101000a900473ffffffffffffffffffffffffffffffffffffffff1673ffffffffffffffffffffffffffffffffffffffff163373ffffffffffffffffffffffffffffffffffffffff16146104c2576040517f08c379a00000000000000000000000000000000000000000000000000000000081526004016104b990611529565b60405180910390fd5b5f60065f9054906101000a900473ffffffffffffffffffffffffffffffffffffffff1690503360065f6101000a81548173ffffffffffffffffffffffffffffffffffffffff021916908373ffffffffffffffffffffffffffffffffffffffff1602179055505f60075f6101000a81548173ffffffffffffffffffffffffffffffffffffffff021916908373ffffffffffffffffffffffffffffffffffffffff1602179055503373ffffffffffffffffffffffffffffffffffffffff168173ffffffffffffffffffffffffffffffffffffffff167f8be0079c531659141344cd1fd0a4f28419497f9722a3daafe3b4186f6b6457e060405160405180910390a350565b5f60065f9054906101000a900473ffffffffffffffffffffffffffffffffffffffff16905090565b6105f4610943565b5f6105fd6109d4565b90508073ffffffffffffffffffffffffffffffffffffffff1663a9059cbb338373ffffffffffffffffffffffffffffffffffffffff166370a08231306040518263ffffffff1660e01b8152600401610655919061139c565b602060405180830381865afa158015610670573d5f803e3d5ffd5b505050506040513d601f19601f82011682018060405250810190610694919061155b565b6040518363ffffffff1660e01b81526004016106b1929190611586565b6020604051808303815f875af11580156106cd573d5f803e3d5ffd5b505050506040513d601f19601f820116820180604052508101906106f191906115e2565b610730576040517f08c379a000000000000000000000000000000000000000000000000000000000815260040161072790611657565b60405180910390fd5b50565b600a5481565b600b5481565b610747610943565b610750816109fc565b50565b8360055f8281526020019081526020015f205f9054906101000a900473ffffffffffffffffffffffffffffffffffffffff1673ffffffffffffffffffffffffffffffffffffffff163373ffffffffffffffffffffffffffffffffffffffff16146107f2576040517f08c379a00000000000000000000000000000000000000000000000000000000081526004016107e9906116e5565b60405180910390fd5b60055f8281526020019081526020015f205f6101000a81549073ffffffffffffffffffffffffffffffffffffffff0219169055807f7cc135e0cebb02c3480ae5d74d377283180a2601f8f644edf7987b009316c63a60405160405180910390a2847fd8422588c680817fe4971ef8a5fe6a6b5df0d7cd4537eabef7fb17750e4187a785858560405161088693929190611703565b60405180910390a283600a8190555082600b8190555081600c819055505050505050565b6108b26112aa565b6108ba6112aa565b6108d185858584610b28909392919063ffffffff16565b9150509392505050565b6108f2828460800151610bd790919063ffffffff16565b610909818460800151610bd790919063ffffffff16565b505050565b5f61093b60035f9054906101000a900473ffffffffffffffffffffffffffffffffffffffff168484610bfc565b905092915050565b60065f9054906101000a900473ffffffffffffffffffffffffffffffffffffffff1673ffffffffffffffffffffffffffffffffffffffff163373ffffffffffffffffffffffffffffffffffffffff16146109d2576040517f08c379a00000000000000000000000000000000000000000000000000000000081526004016109c990611782565b60405180910390fd5b565b5f60025f9054906101000a900473ffffffffffffffffffffffffffffffffffffffff16905090565b3373ffffffffffffffffffffffffffffffffffffffff168173ffffffffffffffffffffffffffffffffffffffff1603610a6a576040517f08c379a0000000000000000000000000000000000000000000000000000000008152600401610a61906117ea565b60405180910390fd5b8060075f6101000a81548173ffffffffffffffffffffffffffffffffffffffff021916908373ffffffffffffffffffffffffffffffffffffffff1602179055508073ffffffffffffffffffffffffffffffffffffffff1660065f9054906101000a900473ffffffffffffffffffffffffffffffffffffffff1673ffffffffffffffffffffffffffffffffffffffff167fed8889f560326eb138920d842192f0eb3dd22b4f139c87a2c57538e05bae127860405160405180910390a350565b610b306112aa565b610b408560800151610100610cc3565b5083855f01818152505082856020019073ffffffffffffffffffffffffffffffffffffffff16908173ffffffffffffffffffffffffffffffffffffffff16815250508185604001907bffffffffffffffffffffffffffffffffffffffffffffffffffffffff191690817bffffffffffffffffffffffffffffffffffffffffffffffffffffffff191681525050849050949350505050565b610be48260038351610d2b565b610bf78183610eb090919063ffffffff16565b505050565b5f806004549050600181610c109190611835565b6004819055505f634042994660e01b5f80875f01513089604001518760018c608001515f0151604051602401610c4d989796959493929190611921565b604051602081830303815290604052907bffffffffffffffffffffffffffffffffffffffffffffffffffffffff19166020820180517bffffffffffffffffffffffffffffffffffffffffffffffffffffffff83818316178352505050509050610cb886838684610ed1565b925050509392505050565b610ccb611313565b5f602083610cd991906119d1565b14610d0557602082610ceb91906119d1565b6020610cf79190611a01565b82610d029190611835565b91505b818360200181815250506040518084525f81528281016020016040525082905092915050565b60178167ffffffffffffffff1611610d6257610d5c8160058460ff16901b60ff16178461105e90919063ffffffff16565b50610eab565b60ff8167ffffffffffffffff1611610db857610d91601860058460ff16901b178461105e90919063ffffffff16565b50610db28167ffffffffffffffff1660018561107d9092919063ffffffff16565b50610eaa565b61ffff8167ffffffffffffffff1611610e0f57610de8601960058460ff16901b178461105e90919063ffffffff16565b50610e098167ffffffffffffffff1660028561107d9092919063ffffffff16565b50610ea9565b63ffffffff8167ffffffffffffffff1611610e6857610e41601a60058460ff16901b178461105e90919063ffffffff16565b50610e628167ffffffffffffffff1660048561107d9092919063ffffffff16565b50610ea8565b610e85601b60058460ff16901b178461105e90919063ffffffff16565b50610ea68167ffffffffffffffff1660088561107d9092919063ffffffff16565b505b5b5b5b505050565b610eb8611313565b610ec983845f01515184855161109e565b905092915050565b5f3084604051602001610ee5929190611ae5565b6040516020818303038152906040528051906020012090508460055f8381526020019081526020015f205f6101000a81548173ffffffffffffffffffffffffffffffffffffffff021916908373ffffffffffffffffffffffffffffffffffffffff160217905550807fb5e6e01e79f91267dc17b4e6314d5d4d03593d2ceee0fbb452b750bd70ea5af960405160405180910390a260025f9054906101000a900473ffffffffffffffffffffffffffffffffffffffff1673ffffffffffffffffffffffffffffffffffffffff16634000aea08685856040518463ffffffff1660e01b8152600401610fd793929190611b10565b6020604051808303815f875af1158015610ff3573d5f803e3d5ffd5b505050506040513d601f19601f8201168201806040525081019061101791906115e2565b611056576040517f08c379a000000000000000000000000000000000000000000000000000000000815260040161104d90611bbc565b60405180910390fd5b949350505050565b611066611313565b61107583845f0151518461118a565b905092915050565b611085611313565b61109584855f01515185856111e0565b90509392505050565b6110a6611313565b82518211156110b3575f80fd5b846020015182856110c49190611835565b11156110f9576110f88560026110e9886020015188876110e49190611835565b61126d565b6110f39190611bda565b611288565b5b5f808651805187602083010193508088870111156111175787860182525b60208701925050505b6020841061115e57805182526020826111399190611835565b91506020816111489190611835565b90506020846111579190611a01565b9350611120565b5f6001856020036101000a03905080198251168184511681811785525050508692505050949350505050565b611192611313565b836020015183106111b8576111b784600286602001516111b29190611bda565b611288565b5b835180516020858301018481538186036111d3576001820183525b5050508390509392505050565b6111e8611313565b846020015184836111f99190611835565b11156112215761122085600286856112119190611835565b61121b9190611bda565b611288565b5b5f6001836101006112329190611d4a565b61123c9190611a01565b9050855183868201018583198251161781528151858801111561125f5784870182525b505085915050949350505050565b5f8183111561127e57829050611282565b8190505b92915050565b5f825f015190506112998383610cc3565b506112a48382610eb0565b50505050565b6040518060a001604052805f80191681526020015f73ffffffffffffffffffffffffffffffffffffffff1681526020015f7bffffffffffffffffffffffffffffffffffffffffffffffffffffffff191681526020015f815260200161130d611313565b81525090565b6040518060400160405280606081526020015f81525090565b5f819050919050565b61133e8161132c565b82525050565b5f6020820190506113575f830184611335565b92915050565b5f73ffffffffffffffffffffffffffffffffffffffff82169050919050565b5f6113868261135d565b9050919050565b6113968161137c565b82525050565b5f6020820190506113af5f83018461138d565b92915050565b5f80fd5b6113c28161137c565b81146113cc575f80fd5b50565b5f813590506113dd816113b9565b92915050565b5f602082840312156113f8576113f76113b5565b5b5f611405848285016113cf565b91505092915050565b5f819050919050565b6114208161140e565b811461142a575f80fd5b50565b5f8135905061143b81611417565b92915050565b61144a8161132c565b8114611454575f80fd5b50565b5f8135905061146581611441565b92915050565b5f805f8060808587031215611483576114826113b5565b5b5f6114908782880161142d565b94505060206114a187828801611457565b93505060406114b287828801611457565b92505060606114c387828801611457565b91505092959194509250565b5f82825260208201905092915050565b7f4d7573742062652070726f706f736564206f776e6572000000000000000000005f82015250565b5f6115136016836114cf565b915061151e826114df565b602082019050919050565b5f6020820190508181035f83015261154081611507565b9050919050565b5f8151905061155581611441565b92915050565b5f602082840312156115705761156f6113b5565b5b5f61157d84828501611547565b91505092915050565b5f6040820190506115995f83018561138d565b6115a66020830184611335565b9392505050565b5f8115159050919050565b6115c1816115ad565b81146115cb575f80fd5b50565b5f815190506115dc816115b8565b92915050565b5f602082840312156115f7576115f66113b5565b5b5f611604848285016115ce565b91505092915050565b7f556e61626c6520746f207472616e7366657200000000000000000000000000005f82015250565b5f6116416012836114cf565b915061164c8261160d565b602082019050919050565b5f6020820190508181035f83015261166e81611635565b9050919050565b7f536f75726365206d75737420626520746865206f7261636c65206f66207468655f8201527f2072657175657374000000000000000000000000000000000000000000000000602082015250565b5f6116cf6028836114cf565b91506116da82611675565b604082019050919050565b5f6020820190508181035f8301526116fc816116c3565b9050919050565b5f6060820190506117165f830186611335565b6117236020830185611335565b6117306040830184611335565b949350505050565b7f4f6e6c792063616c6c61626c65206279206f776e6572000000000000000000005f82015250565b5f61176c6016836114cf565b915061177782611738565b602082019050919050565b5f6020820190508181035f83015261179981611760565b9050919050565b7f43616e6e6f74207472616e7366657220746f2073656c660000000000000000005f82015250565b5f6117d46017836114cf565b91506117df826117a0565b602082019050919050565b5f6020820190508181035f830152611801816117c8565b9050919050565b7f4e487b71000000000000000000000000000000000000000000000000000000005f52601160045260245ffd5b5f61183f8261132c565b915061184a8361132c565b925082820190508082111561186257611861611808565b5b92915050565b6118718161140e565b82525050565b5f7fffffffff0000000000000000000000000000000000000000000000000000000082169050919050565b6118ab81611877565b82525050565b5f81519050919050565b5f82825260208201905092915050565b8281835e5f83830152505050565b5f601f19601f8301169050919050565b5f6118f3826118b1565b6118fd81856118bb565b935061190d8185602086016118cb565b611916816118d9565b840191505092915050565b5f610100820190506119355f83018b61138d565b611942602083018a611335565b61194f6040830189611868565b61195c606083018861138d565b61196960808301876118a2565b61197660a0830186611335565b61198360c0830185611335565b81810360e083015261199581846118e9565b90509998505050505050505050565b7f4e487b71000000000000000000000000000000000000000000000000000000005f52601260045260245ffd5b5f6119db8261132c565b91506119e68361132c565b9250826119f6576119f56119a4565b5b828206905092915050565b5f611a0b8261132c565b9150611a168361132c565b9250828203905081811115611a2e57611a2d611808565b5b92915050565b5f819050919050565b5f611a57611a52611a4d8461135d565b611a34565b61135d565b9050919050565b5f611a6882611a3d565b9050919050565b5f611a7982611a5e565b9050919050565b5f8160601b9050919050565b5f611a9682611a80565b9050919050565b5f611aa782611a8c565b9050919050565b611abf611aba82611a6f565b611a9d565b82525050565b5f819050919050565b611adf611ada8261132c565b611ac5565b82525050565b5f611af08285611aae565b601482019150611b008284611ace565b6020820191508190509392505050565b5f606082019050611b235f83018661138d565b611b306020830185611335565b8181036040830152611b4281846118e9565b9050949350505050565b7f756e61626c6520746f207472616e73666572416e6443616c6c20746f206f72615f8201527f636c650000000000000000000000000000000000000000000000000000000000602082015250565b5f611ba66023836114cf565b9150611bb182611b4c565b604082019050919050565b5f6020820190508181035f830152611bd381611b9a565b9050919050565b5f611be48261132c565b9150611bef8361132c565b9250828202611bfd8161132c565b91508282048414831517611c1457611c13611808565b5b5092915050565b5f8160011c9050919050565b5f808291508390505b6001851115611c7057808604811115611c4c57611c4b611808565b5b6001851615611c5b5780820291505b8081029050611c6985611c1b565b9450611c30565b94509492505050565b5f82611c885760019050611d43565b81611c95575f9050611d43565b8160018114611cab5760028114611cb557611ce4565b6001915050611d43565b60ff841115611cc757611cc6611808565b5b8360020a915084821115611cde57611cdd611808565b5b50611d43565b5060208310610133831016604e8410600b8410161715611d195782820a905083811115611d1457611d13611808565b5b611d43565b611d268484846001611c27565b92509050818404811115611d3d57611d3c611808565b5b81810290505b9392505050565b5f611d548261132c565b9150611d5f8361132c565b9250611d8c7fffffffffffffffffffffffffffffffffffffffffffffffffffffffffffffffff8484611c79565b90509291505056fe68747470733a2f2f6d696e2d6170692e63727970746f636f6d706172652e636f6d2f646174612f70726963653f6673796d3d455448267473796d733d55534468747470733a2f2f6d696e2d6170692e63727970746f636f6d706172652e636f6d2f646174612f70726963653f6673796d3d455448267473796d733d42544368747470733a2f2f6d696e2d6170692e63727970746f636f6d706172652e636f6d2f646174612f70726963653f6673796d3d455448267473796d733d455552a26469706673582212200fea34eed408be77058a88f3c95919cd7d7fcf18ea4c60fceba78b1c2d5cdc5864736f6c634300081a0033",
					"opcodes": "PUSH1 0x80 PUSH1 0x40 MSTORE PUSH1 0x1 PUSH1 0x4 SSTORE CALLVALUE DUP1 ISZERO PUSH2 0x14 JUMPI PUSH0 DUP1 REVERT JUMPDEST POP CALLER DUP1 PUSH0 DUP1 PUSH20 0xFFFFFFFFFFFFFFFFFFFFFFFFFFFFFFFFFFFFFFFF AND DUP3 PUSH20 0xFFFFFFFFFFFFFFFFFFFFFFFFFFFFFFFFFFFFFFFF AND SUB PUSH2 0x86 JUMPI PUSH1 0x40 MLOAD PUSH32 0x8C379A000000000000000000000000000000000000000000000000000000000 DUP2 MSTORE PUSH1 0x4 ADD PUSH2 0x7D SWAP1 PUSH2 0x3B1 JUMP JUMPDEST PUSH1 0x40 MLOAD DUP1 SWAP2 SUB SWAP1 REVERT JUMPDEST DUP2 PUSH1 0x6 PUSH0 PUSH2 0x100 EXP DUP2 SLOAD DUP2 PUSH20 0xFFFFFFFFFFFFFFFFFFFFFFFFFFFFFFFFFFFFFFFF MUL NOT AND SWAP1 DUP4 PUSH20 0xFFFFFFFFFFFFFFFFFFFFFFFFFFFFFFFFFFFFFFFF AND MUL OR SWAP1 SSTORE POP PUSH0 PUSH20 0xFFFFFFFFFFFFFFFFFFFFFFFFFFFFFFFFFFFFFFFF AND DUP2 PUSH20 0xFFFFFFFFFFFFFFFFFFFFFFFFFFFFFFFFFFFFFFFF AND EQ PUSH2 0x109 JUMPI PUSH2 0x108 DUP2 PUSH2 0x1A5 PUSH1 0x20 SHL PUSH1 0x20 SHR JUMP JUMPDEST JUMPDEST POP POP POP PUSH2 0x12F PUSH20 0x779877A7B0D9E8603169DDBD7836E478B4624789 PUSH2 0x2D1 PUSH1 0x20 SHL PUSH1 0x20 SHR JUMP JUMPDEST PUSH2 0x152 PUSH20 0x6090149792DAAEE9D1D568C9F9A6F6B46AA29EFD PUSH2 0x314 PUSH1 0x20 SHL PUSH1 0x20 SHR JUMP JUMPDEST PUSH32 0x3533663937353539323063643435316138666534366635303837343638333935 PUSH1 0x8 DUP2 SWAP1 SSTORE POP PUSH1 0xA PUSH8 0xDE0B6B3A7640000 PUSH1 0x1 PUSH2 0x190 SWAP2 SWAP1 PUSH2 0x405 JUMP JUMPDEST PUSH2 0x19A SWAP2 SWAP1 PUSH2 0x473 JUMP JUMPDEST PUSH1 0x9 DUP2 SWAP1 SSTORE POP PUSH2 0x50B JUMP JUMPDEST CALLER PUSH20 0xFFFFFFFFFFFFFFFFFFFFFFFFFFFFFFFFFFFFFFFF AND DUP2 PUSH20 0xFFFFFFFFFFFFFFFFFFFFFFFFFFFFFFFFFFFFFFFF AND SUB PUSH2 0x213 JUMPI PUSH1 0x40 MLOAD PUSH32 0x8C379A000000000000000000000000000000000000000000000000000000000 DUP2 MSTORE PUSH1 0x4 ADD PUSH2 0x20A SWAP1 PUSH2 0x4ED JUMP JUMPDEST PUSH1 0x40 MLOAD DUP1 SWAP2 SUB SWAP1 REVERT JUMPDEST DUP1 PUSH1 0x7 PUSH0 PUSH2 0x100 EXP DUP2 SLOAD DUP2 PUSH20 0xFFFFFFFFFFFFFFFFFFFFFFFFFFFFFFFFFFFFFFFF MUL NOT AND SWAP1 DUP4 PUSH20 0xFFFFFFFFFFFFFFFFFFFFFFFFFFFFFFFFFFFFFFFF AND MUL OR SWAP1 SSTORE POP DUP1 PUSH20 0xFFFFFFFFFFFFFFFFFFFFFFFFFFFFFFFFFFFFFFFF AND PUSH1 0x6 PUSH0 SWAP1 SLOAD SWAP1 PUSH2 0x100 EXP SWAP1 DIV PUSH20 0xFFFFFFFFFFFFFFFFFFFFFFFFFFFFFFFFFFFFFFFF AND PUSH20 0xFFFFFFFFFFFFFFFFFFFFFFFFFFFFFFFFFFFFFFFF AND PUSH32 0xED8889F560326EB138920D842192F0EB3DD22B4F139C87A2C57538E05BAE1278 PUSH1 0x40 MLOAD PUSH1 0x40 MLOAD DUP1 SWAP2 SUB SWAP1 LOG3 POP JUMP JUMPDEST DUP1 PUSH1 0x2 PUSH0 PUSH2 0x100 EXP DUP2 SLOAD DUP2 PUSH20 0xFFFFFFFFFFFFFFFFFFFFFFFFFFFFFFFFFFFFFFFF MUL NOT AND SWAP1 DUP4 PUSH20 0xFFFFFFFFFFFFFFFFFFFFFFFFFFFFFFFFFFFFFFFF AND MUL OR SWAP1 SSTORE POP POP JUMP JUMPDEST DUP1 PUSH1 0x3 PUSH0 PUSH2 0x100 EXP DUP2 SLOAD DUP2 PUSH20 0xFFFFFFFFFFFFFFFFFFFFFFFFFFFFFFFFFFFFFFFF MUL NOT AND SWAP1 DUP4 PUSH20 0xFFFFFFFFFFFFFFFFFFFFFFFFFFFFFFFFFFFFFFFF AND MUL OR SWAP1 SSTORE POP POP JUMP JUMPDEST PUSH0 DUP3 DUP3 MSTORE PUSH1 0x20 DUP3 ADD SWAP1 POP SWAP3 SWAP2 POP POP JUMP JUMPDEST PUSH32 0x43616E6E6F7420736574206F776E657220746F207A65726F0000000000000000 PUSH0 DUP3 ADD MSTORE POP JUMP JUMPDEST PUSH0 PUSH2 0x39B PUSH1 0x18 DUP4 PUSH2 0x357 JUMP JUMPDEST SWAP2 POP PUSH2 0x3A6 DUP3 PUSH2 0x367 JUMP JUMPDEST PUSH1 0x20 DUP3 ADD SWAP1 POP SWAP2 SWAP1 POP JUMP JUMPDEST PUSH0 PUSH1 0x20 DUP3 ADD SWAP1 POP DUP2 DUP2 SUB PUSH0 DUP4 ADD MSTORE PUSH2 0x3C8 DUP2 PUSH2 0x38F JUMP JUMPDEST SWAP1 POP SWAP2 SWAP1 POP JUMP JUMPDEST PUSH0 DUP2 SWAP1 POP SWAP2 SWAP1 POP JUMP JUMPDEST PUSH32 0x4E487B7100000000000000000000000000000000000000000000000000000000 PUSH0 MSTORE PUSH1 0x11 PUSH1 0x4 MSTORE PUSH1 0x24 PUSH0 REVERT JUMPDEST PUSH0 PUSH2 0x40F DUP3 PUSH2 0x3CF JUMP JUMPDEST SWAP2 POP PUSH2 0x41A DUP4 PUSH2 0x3CF JUMP JUMPDEST SWAP3 POP DUP3 DUP3 MUL PUSH2 0x428 DUP2 PUSH2 0x3CF JUMP JUMPDEST SWAP2 POP DUP3 DUP3 DIV DUP5 EQ DUP4 ISZERO OR PUSH2 0x43F JUMPI PUSH2 0x43E PUSH2 0x3D8 JUMP JUMPDEST JUMPDEST POP SWAP3 SWAP2 POP POP JUMP JUMPDEST PUSH32 0x4E487B7100000000000000000000000000000000000000000000000000000000 PUSH0 MSTORE PUSH1 0x12 PUSH1 0x4 MSTORE PUSH1 0x24 PUSH0 REVERT JUMPDEST PUSH0 PUSH2 0x47D DUP3 PUSH2 0x3CF JUMP JUMPDEST SWAP2 POP PUSH2 0x488 DUP4 PUSH2 0x3CF JUMP JUMPDEST SWAP3 POP DUP3 PUSH2 0x498 JUMPI PUSH2 0x497 PUSH2 0x446 JUMP JUMPDEST JUMPDEST DUP3 DUP3 DIV SWAP1 POP SWAP3 SWAP2 POP POP JUMP JUMPDEST PUSH32 0x43616E6E6F74207472616E7366657220746F2073656C66000000000000000000 PUSH0 DUP3 ADD MSTORE POP JUMP JUMPDEST PUSH0 PUSH2 0x4D7 PUSH1 0x17 DUP4 PUSH2 0x357 JUMP JUMPDEST SWAP2 POP PUSH2 0x4E2 DUP3 PUSH2 0x4A3 JUMP JUMPDEST PUSH1 0x20 DUP3 ADD SWAP1 POP SWAP2 SWAP1 POP JUMP JUMPDEST PUSH0 PUSH1 0x20 DUP3 ADD SWAP1 POP DUP2 DUP2 SUB PUSH0 DUP4 ADD MSTORE PUSH2 0x504 DUP2 PUSH2 0x4CB JUMP JUMPDEST SWAP1 POP SWAP2 SWAP1 POP JUMP JUMPDEST PUSH2 0x1E87 DUP1 PUSH2 0x518 PUSH0 CODECOPY PUSH0 RETURN INVALID PUSH1 0x80 PUSH1 0x40 MSTORE CALLVALUE DUP1 ISZERO PUSH2 0xF JUMPI PUSH0 DUP1 REVERT JUMPDEST POP PUSH1 0x4 CALLDATASIZE LT PUSH2 0x91 JUMPI PUSH0 CALLDATALOAD PUSH1 0xE0 SHR DUP1 PUSH4 0x8DC654A2 GT PUSH2 0x64 JUMPI DUP1 PUSH4 0x8DC654A2 EQ PUSH2 0xE5 JUMPI DUP1 PUSH4 0xA28D57D8 EQ PUSH2 0xEF JUMPI DUP1 PUSH4 0xD63A6CCD EQ PUSH2 0x10D JUMPI DUP1 PUSH4 0xF2FDE38B EQ PUSH2 0x12B JUMPI DUP1 PUSH4 0xFDA4417B EQ PUSH2 0x147 JUMPI PUSH2 0x91 JUMP JUMPDEST DUP1 PUSH4 0x4A3AFB47 EQ PUSH2 0x95 JUMPI DUP1 PUSH4 0x7439AE59 EQ PUSH2 0x9F JUMPI DUP1 PUSH4 0x79BA5097 EQ PUSH2 0xBD JUMPI DUP1 PUSH4 0x8DA5CB5B EQ PUSH2 0xC7 JUMPI JUMPDEST PUSH0 DUP1 REVERT JUMPDEST PUSH2 0x9D PUSH2 0x163 JUMP JUMPDEST STOP JUMPDEST PUSH2 0xA7 PUSH2 0x42D JUMP JUMPDEST PUSH1 0x40 MLOAD PUSH2 0xB4 SWAP2 SWAP1 PUSH2 0x1344 JUMP JUMPDEST PUSH1 0x40 MLOAD DUP1 SWAP2 SUB SWAP1 RETURN JUMPDEST PUSH2 0xC5 PUSH2 0x433 JUMP JUMPDEST STOP JUMPDEST PUSH2 0xCF PUSH2 0x5C4 JUMP JUMPDEST PUSH1 0x40 MLOAD PUSH2 0xDC SWAP2 SWAP1 PUSH2 0x139C JUMP JUMPDEST PUSH1 0x40 MLOAD DUP1 SWAP2 SUB SWAP1 RETURN JUMPDEST PUSH2 0xED PUSH2 0x5EC JUMP JUMPDEST STOP JUMPDEST PUSH2 0xF7 PUSH2 0x733 JUMP JUMPDEST PUSH1 0x40 MLOAD PUSH2 0x104 SWAP2 SWAP1 PUSH2 0x1344 JUMP JUMPDEST PUSH1 0x40 MLOAD DUP1 SWAP2 SUB SWAP1 RETURN JUMPDEST PUSH2 0x115 PUSH2 0x739 JUMP JUMPDEST PUSH1 0x40 MLOAD PUSH2 0x122 SWAP2 SWAP1 PUSH2 0x1344 JUMP JUMPDEST PUSH1 0x40 MLOAD DUP1 SWAP2 SUB SWAP1 RETURN JUMPDEST PUSH2 0x145 PUSH1 0x4 DUP1 CALLDATASIZE SUB DUP2 ADD SWAP1 PUSH2 0x140 SWAP2 SWAP1 PUSH2 0x13E3 JUMP JUMPDEST PUSH2 0x73F JUMP JUMPDEST STOP JUMPDEST PUSH2 0x161 PUSH1 0x4 DUP1 CALLDATASIZE SUB DUP2 ADD SWAP1 PUSH2 0x15C SWAP2 SWAP1 PUSH2 0x146B JUMP JUMPDEST PUSH2 0x753 JUMP JUMPDEST STOP JUMPDEST PUSH0 PUSH2 0x178 PUSH1 0x8 SLOAD ADDRESS PUSH4 0xFDA4417B PUSH1 0xE0 SHL PUSH2 0x8AA JUMP JUMPDEST SWAP1 POP PUSH2 0x1DC PUSH1 0x40 MLOAD DUP1 PUSH1 0x40 ADD PUSH1 0x40 MSTORE DUP1 PUSH1 0x6 DUP2 MSTORE PUSH1 0x20 ADD PUSH32 0x75726C4254430000000000000000000000000000000000000000000000000000 DUP2 MSTORE POP PUSH1 0x40 MLOAD DUP1 PUSH1 0x60 ADD PUSH1 0x40 MSTORE DUP1 PUSH1 0x3F DUP2 MSTORE PUSH1 0x20 ADD PUSH2 0x1DD4 PUSH1 0x3F SWAP2 CODECOPY DUP4 PUSH2 0x8DB SWAP1 SWAP3 SWAP2 SWAP1 PUSH4 0xFFFFFFFF AND JUMP JUMPDEST PUSH2 0x25B PUSH1 0x40 MLOAD DUP1 PUSH1 0x40 ADD PUSH1 0x40 MSTORE DUP1 PUSH1 0x7 DUP2 MSTORE PUSH1 0x20 ADD PUSH32 0x7061746842544300000000000000000000000000000000000000000000000000 DUP2 MSTORE POP PUSH1 0x40 MLOAD DUP1 PUSH1 0x40 ADD PUSH1 0x40 MSTORE DUP1 PUSH1 0x3 DUP2 MSTORE PUSH1 0x20 ADD PUSH32 0x4254430000000000000000000000000000000000000000000000000000000000 DUP2 MSTORE POP DUP4 PUSH2 0x8DB SWAP1 SWAP3 SWAP2 SWAP1 PUSH4 0xFFFFFFFF AND JUMP JUMPDEST PUSH2 0x2BD PUSH1 0x40 MLOAD DUP1 PUSH1 0x40 ADD PUSH1 0x40 MSTORE DUP1 PUSH1 0x6 DUP2 MSTORE PUSH1 0x20 ADD PUSH32 0x75726C5553440000000000000000000000000000000000000000000000000000 DUP2 MSTORE POP PUSH1 0x40 MLOAD DUP1 PUSH1 0x60 ADD PUSH1 0x40 MSTORE DUP1 PUSH1 0x3F DUP2 MSTORE PUSH1 0x20 ADD PUSH2 0x1D95 PUSH1 0x3F SWAP2 CODECOPY DUP4 PUSH2 0x8DB SWAP1 SWAP3 SWAP2 SWAP1 PUSH4 0xFFFFFFFF AND JUMP JUMPDEST PUSH2 0x33C PUSH1 0x40 MLOAD DUP1 PUSH1 0x40 ADD PUSH1 0x40 MSTORE DUP1 PUSH1 0x7 DUP2 MSTORE PUSH1 0x20 ADD PUSH32 0x7061746855534400000000000000000000000000000000000000000000000000 DUP2 MSTORE POP PUSH1 0x40 MLOAD DUP1 PUSH1 0x40 ADD PUSH1 0x40 MSTORE DUP1 PUSH1 0x3 DUP2 MSTORE PUSH1 0x20 ADD PUSH32 0x5553440000000000000000000000000000000000000000000000000000000000 DUP2 MSTORE POP DUP4 PUSH2 0x8DB SWAP1 SWAP3 SWAP2 SWAP1 PUSH4 0xFFFFFFFF AND JUMP JUMPDEST PUSH2 0x39E PUSH1 0x40 MLOAD DUP1 PUSH1 0x40 ADD PUSH1 0x40 MSTORE DUP1 PUSH1 0x6 DUP2 MSTORE PUSH1 0x20 ADD PUSH32 0x75726C4555520000000000000000000000000000000000000000000000000000 DUP2 MSTORE POP PUSH1 0x40 MLOAD DUP1 PUSH1 0x60 ADD PUSH1 0x40 MSTORE DUP1 PUSH1 0x3F DUP2 MSTORE PUSH1 0x20 ADD PUSH2 0x1E13 PUSH1 0x3F SWAP2 CODECOPY DUP4 PUSH2 0x8DB SWAP1 SWAP3 SWAP2 SWAP1 PUSH4 0xFFFFFFFF AND JUMP JUMPDEST PUSH2 0x41D PUSH1 0x40 MLOAD DUP1 PUSH1 0x40 ADD PUSH1 0x40 MSTORE DUP1 PUSH1 0x7 DUP2 MSTORE PUSH1 0x20 ADD PUSH32 0x7061746845555200000000000000000000000000000000000000000000000000 DUP2 MSTORE POP PUSH1 0x40 MLOAD DUP1 PUSH1 0x40 ADD PUSH1 0x40 MSTORE DUP1 PUSH1 0x3 DUP2 MSTORE PUSH1 0x20 ADD PUSH32 0x4555520000000000000000000000000000000000000000000000000000000000 DUP2 MSTORE POP DUP4 PUSH2 0x8DB SWAP1 SWAP3 SWAP2 SWAP1 PUSH4 0xFFFFFFFF AND JUMP JUMPDEST PUSH2 0x429 DUP2 PUSH1 0x9 SLOAD PUSH2 0x90E JUMP JUMPDEST POP POP JUMP JUMPDEST PUSH1 0xC SLOAD DUP2 JUMP JUMPDEST PUSH1 0x7 PUSH0 SWAP1 SLOAD SWAP1 PUSH2 0x100 EXP SWAP1 DIV PUSH20 0xFFFFFFFFFFFFFFFFFFFFFFFFFFFFFFFFFFFFFFFF AND PUSH20 0xFFFFFFFFFFFFFFFFFFFFFFFFFFFFFFFFFFFFFFFF AND CALLER PUSH20 0xFFFFFFFFFFFFFFFFFFFFFFFFFFFFFFFFFFFFFFFF AND EQ PUSH2 0x4C2 JUMPI PUSH1 0x40 MLOAD PUSH32 0x8C379A000000000000000000000000000000000000000000000000000000000 DUP2 MSTORE PUSH1 0x4 ADD PUSH2 0x4B9 SWAP1 PUSH2 0x1529 JUMP JUMPDEST PUSH1 0x40 MLOAD DUP1 SWAP2 SUB SWAP1 REVERT JUMPDEST PUSH0 PUSH1 0x6 PUSH0 SWAP1 SLOAD SWAP1 PUSH2 0x100 EXP SWAP1 DIV PUSH20 0xFFFFFFFFFFFFFFFFFFFFFFFFFFFFFFFFFFFFFFFF AND SWAP1 POP CALLER PUSH1 0x6 PUSH0 PUSH2 0x100 EXP DUP2 SLOAD DUP2 PUSH20 0xFFFFFFFFFFFFFFFFFFFFFFFFFFFFFFFFFFFFFFFF MUL NOT AND SWAP1 DUP4 PUSH20 0xFFFFFFFFFFFFFFFFFFFFFFFFFFFFFFFFFFFFFFFF AND MUL OR SWAP1 SSTORE POP PUSH0 PUSH1 0x7 PUSH0 PUSH2 0x100 EXP DUP2 SLOAD DUP2 PUSH20 0xFFFFFFFFFFFFFFFFFFFFFFFFFFFFFFFFFFFFFFFF MUL NOT AND SWAP1 DUP4 PUSH20 0xFFFFFFFFFFFFFFFFFFFFFFFFFFFFFFFFFFFFFFFF AND MUL OR SWAP1 SSTORE POP CALLER PUSH20 0xFFFFFFFFFFFFFFFFFFFFFFFFFFFFFFFFFFFFFFFF AND DUP2 PUSH20 0xFFFFFFFFFFFFFFFFFFFFFFFFFFFFFFFFFFFFFFFF AND PUSH32 0x8BE0079C531659141344CD1FD0A4F28419497F9722A3DAAFE3B4186F6B6457E0 PUSH1 0x40 MLOAD PUSH1 0x40 MLOAD DUP1 SWAP2 SUB SWAP1 LOG3 POP JUMP JUMPDEST PUSH0 PUSH1 0x6 PUSH0 SWAP1 SLOAD SWAP1 PUSH2 0x100 EXP SWAP1 DIV PUSH20 0xFFFFFFFFFFFFFFFFFFFFFFFFFFFFFFFFFFFFFFFF AND SWAP1 POP SWAP1 JUMP JUMPDEST PUSH2 0x5F4 PUSH2 0x943 JUMP JUMPDEST PUSH0 PUSH2 0x5FD PUSH2 0x9D4 JUMP JUMPDEST SWAP1 POP DUP1 PUSH20 0xFFFFFFFFFFFFFFFFFFFFFFFFFFFFFFFFFFFFFFFF AND PUSH4 0xA9059CBB CALLER DUP4 PUSH20 0xFFFFFFFFFFFFFFFFFFFFFFFFFFFFFFFFFFFFFFFF AND PUSH4 0x70A08231 ADDRESS PUSH1 0x40 MLOAD DUP3 PUSH4 0xFFFFFFFF AND PUSH1 0xE0 SHL DUP2 MSTORE PUSH1 0x4 ADD PUSH2 0x655 SWAP2 SWAP1 PUSH2 0x139C JUMP JUMPDEST PUSH1 0x20 PUSH1 0x40 MLOAD DUP1 DUP4 SUB DUP2 DUP7 GAS STATICCALL ISZERO DUP1 ISZERO PUSH2 0x670 JUMPI RETURNDATASIZE PUSH0 DUP1 RETURNDATACOPY RETURNDATASIZE PUSH0 REVERT JUMPDEST POP POP POP POP PUSH1 0x40 MLOAD RETURNDATASIZE PUSH1 0x1F NOT PUSH1 0x1F DUP3 ADD AND DUP3 ADD DUP1 PUSH1 0x40 MSTORE POP DUP2 ADD SWAP1 PUSH2 0x694 SWAP2 SWAP1 PUSH2 0x155B JUMP JUMPDEST PUSH1 0x40 MLOAD DUP4 PUSH4 0xFFFFFFFF AND PUSH1 0xE0 SHL DUP2 MSTORE PUSH1 0x4 ADD PUSH2 0x6B1 SWAP3 SWAP2 SWAP1 PUSH2 0x1586 JUMP JUMPDEST PUSH1 0x20 PUSH1 0x40 MLOAD DUP1 DUP4 SUB DUP2 PUSH0 DUP8 GAS CALL ISZERO DUP1 ISZERO PUSH2 0x6CD JUMPI RETURNDATASIZE PUSH0 DUP1 RETURNDATACOPY RETURNDATASIZE PUSH0 REVERT JUMPDEST POP POP POP POP PUSH1 0x40 MLOAD RETURNDATASIZE PUSH1 0x1F NOT PUSH1 0x1F DUP3 ADD AND DUP3 ADD DUP1 PUSH1 0x40 MSTORE POP DUP2 ADD SWAP1 PUSH2 0x6F1 SWAP2 SWAP1 PUSH2 0x15E2 JUMP JUMPDEST PUSH2 0x730 JUMPI PUSH1 0x40 MLOAD PUSH32 0x8C379A000000000000000000000000000000000000000000000000000000000 DUP2 MSTORE PUSH1 0x4 ADD PUSH2 0x727 SWAP1 PUSH2 0x1657 JUMP JUMPDEST PUSH1 0x40 MLOAD DUP1 SWAP2 SUB SWAP1 REVERT JUMPDEST POP JUMP JUMPDEST PUSH1 0xA SLOAD DUP2 JUMP JUMPDEST PUSH1 0xB SLOAD DUP2 JUMP JUMPDEST PUSH2 0x747 PUSH2 0x943 JUMP JUMPDEST PUSH2 0x750 DUP2 PUSH2 0x9FC JUMP JUMPDEST POP JUMP JUMPDEST DUP4 PUSH1 0x5 PUSH0 DUP3 DUP2 MSTORE PUSH1 0x20 ADD SWAP1 DUP2 MSTORE PUSH1 0x20 ADD PUSH0 KECCAK256 PUSH0 SWAP1 SLOAD SWAP1 PUSH2 0x100 EXP SWAP1 DIV PUSH20 0xFFFFFFFFFFFFFFFFFFFFFFFFFFFFFFFFFFFFFFFF AND PUSH20 0xFFFFFFFFFFFFFFFFFFFFFFFFFFFFFFFFFFFFFFFF AND CALLER PUSH20 0xFFFFFFFFFFFFFFFFFFFFFFFFFFFFFFFFFFFFFFFF AND EQ PUSH2 0x7F2 JUMPI PUSH1 0x40 MLOAD PUSH32 0x8C379A000000000000000000000000000000000000000000000000000000000 DUP2 MSTORE PUSH1 0x4 ADD PUSH2 0x7E9 SWAP1 PUSH2 0x16E5 JUMP JUMPDEST PUSH1 0x40 MLOAD DUP1 SWAP2 SUB SWAP1 REVERT JUMPDEST PUSH1 0x5 PUSH0 DUP3 DUP2 MSTORE PUSH1 0x20 ADD SWAP1 DUP2 MSTORE PUSH1 0x20 ADD PUSH0 KECCAK256 PUSH0 PUSH2 0x100 EXP DUP2 SLOAD SWAP1 PUSH20 0xFFFFFFFFFFFFFFFFFFFFFFFFFFFFFFFFFFFFFFFF MUL NOT AND SWAP1 SSTORE DUP1 PUSH32 0x7CC135E0CEBB02C3480AE5D74D377283180A2601F8F644EDF7987B009316C63A PUSH1 0x40 MLOAD PUSH1 0x40 MLOAD DUP1 SWAP2 SUB SWAP1 LOG2 DUP5 PUSH32 0xD8422588C680817FE4971EF8A5FE6A6B5DF0D7CD4537EABEF7FB17750E4187A7 DUP6 DUP6 DUP6 PUSH1 0x40 MLOAD PUSH2 0x886 SWAP4 SWAP3 SWAP2 SWAP1 PUSH2 0x1703 JUMP JUMPDEST PUSH1 0x40 MLOAD DUP1 SWAP2 SUB SWAP1 LOG2 DUP4 PUSH1 0xA DUP2 SWAP1 SSTORE POP DUP3 PUSH1 0xB DUP2 SWAP1 SSTORE POP DUP2 PUSH1 0xC DUP2 SWAP1 SSTORE POP POP POP POP POP POP JUMP JUMPDEST PUSH2 0x8B2 PUSH2 0x12AA JUMP JUMPDEST PUSH2 0x8BA PUSH2 0x12AA JUMP JUMPDEST PUSH2 0x8D1 DUP6 DUP6 DUP6 DUP5 PUSH2 0xB28 SWAP1 SWAP4 SWAP3 SWAP2 SWAP1 PUSH4 0xFFFFFFFF AND JUMP JUMPDEST SWAP2 POP POP SWAP4 SWAP3 POP POP POP JUMP JUMPDEST PUSH2 0x8F2 DUP3 DUP5 PUSH1 0x80 ADD MLOAD PUSH2 0xBD7 SWAP1 SWAP2 SWAP1 PUSH4 0xFFFFFFFF AND JUMP JUMPDEST PUSH2 0x909 DUP2 DUP5 PUSH1 0x80 ADD MLOAD PUSH2 0xBD7 SWAP1 SWAP2 SWAP1 PUSH4 0xFFFFFFFF AND JUMP JUMPDEST POP POP POP JUMP JUMPDEST PUSH0 PUSH2 0x93B PUSH1 0x3 PUSH0 SWAP1 SLOAD SWAP1 PUSH2 0x100 EXP SWAP1 DIV PUSH20 0xFFFFFFFFFFFFFFFFFFFFFFFFFFFFFFFFFFFFFFFF AND DUP5 DUP5 PUSH2 0xBFC JUMP JUMPDEST SWAP1 POP SWAP3 SWAP2 POP POP JUMP JUMPDEST PUSH1 0x6 PUSH0 SWAP1 SLOAD SWAP1 PUSH2 0x100 EXP SWAP1 DIV PUSH20 0xFFFFFFFFFFFFFFFFFFFFFFFFFFFFFFFFFFFFFFFF AND PUSH20 0xFFFFFFFFFFFFFFFFFFFFFFFFFFFFFFFFFFFFFFFF AND CALLER PUSH20 0xFFFFFFFFFFFFFFFFFFFFFFFFFFFFFFFFFFFFFFFF AND EQ PUSH2 0x9D2 JUMPI PUSH1 0x40 MLOAD PUSH32 0x8C379A000000000000000000000000000000000000000000000000000000000 DUP2 MSTORE PUSH1 0x4 ADD PUSH2 0x9C9 SWAP1 PUSH2 0x1782 JUMP JUMPDEST PUSH1 0x40 MLOAD DUP1 SWAP2 SUB SWAP1 REVERT JUMPDEST JUMP JUMPDEST PUSH0 PUSH1 0x2 PUSH0 SWAP1 SLOAD SWAP1 PUSH2 0x100 EXP SWAP1 DIV PUSH20 0xFFFFFFFFFFFFFFFFFFFFFFFFFFFFFFFFFFFFFFFF AND SWAP1 POP SWAP1 JUMP JUMPDEST CALLER PUSH20 0xFFFFFFFFFFFFFFFFFFFFFFFFFFFFFFFFFFFFFFFF AND DUP2 PUSH20 0xFFFFFFFFFFFFFFFFFFFFFFFFFFFFFFFFFFFFFFFF AND SUB PUSH2 0xA6A JUMPI PUSH1 0x40 MLOAD PUSH32 0x8C379A000000000000000000000000000000000000000000000000000000000 DUP2 MSTORE PUSH1 0x4 ADD PUSH2 0xA61 SWAP1 PUSH2 0x17EA JUMP JUMPDEST PUSH1 0x40 MLOAD DUP1 SWAP2 SUB SWAP1 REVERT JUMPDEST DUP1 PUSH1 0x7 PUSH0 PUSH2 0x100 EXP DUP2 SLOAD DUP2 PUSH20 0xFFFFFFFFFFFFFFFFFFFFFFFFFFFFFFFFFFFFFFFF MUL NOT AND SWAP1 DUP4 PUSH20 0xFFFFFFFFFFFFFFFFFFFFFFFFFFFFFFFFFFFFFFFF AND MUL OR SWAP1 SSTORE POP DUP1 PUSH20 0xFFFFFFFFFFFFFFFFFFFFFFFFFFFFFFFFFFFFFFFF AND PUSH1 0x6 PUSH0 SWAP1 SLOAD SWAP1 PUSH2 0x100 EXP SWAP1 DIV PUSH20 0xFFFFFFFFFFFFFFFFFFFFFFFFFFFFFFFFFFFFFFFF AND PUSH20 0xFFFFFFFFFFFFFFFFFFFFFFFFFFFFFFFFFFFFFFFF AND PUSH32 0xED8889F560326EB138920D842192F0EB3DD22B4F139C87A2C57538E05BAE1278 PUSH1 0x40 MLOAD PUSH1 0x40 MLOAD DUP1 SWAP2 SUB SWAP1 LOG3 POP JUMP JUMPDEST PUSH2 0xB30 PUSH2 0x12AA JUMP JUMPDEST PUSH2 0xB40 DUP6 PUSH1 0x80 ADD MLOAD PUSH2 0x100 PUSH2 0xCC3 JUMP JUMPDEST POP DUP4 DUP6 PUSH0 ADD DUP2 DUP2 MSTORE POP POP DUP3 DUP6 PUSH1 0x20 ADD SWAP1 PUSH20 0xFFFFFFFFFFFFFFFFFFFFFFFFFFFFFFFFFFFFFFFF AND SWAP1 DUP2 PUSH20 0xFFFFFFFFFFFFFFFFFFFFFFFFFFFFFFFFFFFFFFFF AND DUP2 MSTORE POP POP DUP2 DUP6 PUSH1 0x40 ADD SWAP1 PUSH28 0xFFFFFFFFFFFFFFFFFFFFFFFFFFFFFFFFFFFFFFFFFFFFFFFFFFFFFFFF NOT AND SWAP1 DUP2 PUSH28 0xFFFFFFFFFFFFFFFFFFFFFFFFFFFFFFFFFFFFFFFFFFFFFFFFFFFFFFFF NOT AND DUP2 MSTORE POP POP DUP5 SWAP1 POP SWAP5 SWAP4 POP POP POP POP JUMP JUMPDEST PUSH2 0xBE4 DUP3 PUSH1 0x3 DUP4 MLOAD PUSH2 0xD2B JUMP JUMPDEST PUSH2 0xBF7 DUP2 DUP4 PUSH2 0xEB0 SWAP1 SWAP2 SWAP1 PUSH4 0xFFFFFFFF AND JUMP JUMPDEST POP POP POP JUMP JUMPDEST PUSH0 DUP1 PUSH1 0x4 SLOAD SWAP1 POP PUSH1 0x1 DUP2 PUSH2 0xC10 SWAP2 SWAP1 PUSH2 0x1835 JUMP JUMPDEST PUSH1 0x4 DUP2 SWAP1 SSTORE POP PUSH0 PUSH4 0x40429946 PUSH1 0xE0 SHL PUSH0 DUP1 DUP8 PUSH0 ADD MLOAD ADDRESS DUP10 PUSH1 0x40 ADD MLOAD DUP8 PUSH1 0x1 DUP13 PUSH1 0x80 ADD MLOAD PUSH0 ADD MLOAD PUSH1 0x40 MLOAD PUSH1 0x24 ADD PUSH2 0xC4D SWAP9 SWAP8 SWAP7 SWAP6 SWAP5 SWAP4 SWAP3 SWAP2 SWAP1 PUSH2 0x1921 JUMP JUMPDEST PUSH1 0x40 MLOAD PUSH1 0x20 DUP2 DUP4 SUB SUB DUP2 MSTORE SWAP1 PUSH1 0x40 MSTORE SWAP1 PUSH28 0xFFFFFFFFFFFFFFFFFFFFFFFFFFFFFFFFFFFFFFFFFFFFFFFFFFFFFFFF NOT AND PUSH1 0x20 DUP3 ADD DUP1 MLOAD PUSH28 0xFFFFFFFFFFFFFFFFFFFFFFFFFFFFFFFFFFFFFFFFFFFFFFFFFFFFFFFF DUP4 DUP2 DUP4 AND OR DUP4 MSTORE POP POP POP POP SWAP1 POP PUSH2 0xCB8 DUP7 DUP4 DUP7 DUP5 PUSH2 0xED1 JUMP JUMPDEST SWAP3 POP POP POP SWAP4 SWAP3 POP POP POP JUMP JUMPDEST PUSH2 0xCCB PUSH2 0x1313 JUMP JUMPDEST PUSH0 PUSH1 0x20 DUP4 PUSH2 0xCD9 SWAP2 SWAP1 PUSH2 0x19D1 JUMP JUMPDEST EQ PUSH2 0xD05 JUMPI PUSH1 0x20 DUP3 PUSH2 0xCEB SWAP2 SWAP1 PUSH2 0x19D1 JUMP JUMPDEST PUSH1 0x20 PUSH2 0xCF7 SWAP2 SWAP1 PUSH2 0x1A01 JUMP JUMPDEST DUP3 PUSH2 0xD02 SWAP2 SWAP1 PUSH2 0x1835 JUMP JUMPDEST SWAP2 POP JUMPDEST DUP2 DUP4 PUSH1 0x20 ADD DUP2 DUP2 MSTORE POP POP PUSH1 0x40 MLOAD DUP1 DUP5 MSTORE PUSH0 DUP2 MSTORE DUP3 DUP2 ADD PUSH1 0x20 ADD PUSH1 0x40 MSTORE POP DUP3 SWAP1 POP SWAP3 SWAP2 POP POP JUMP JUMPDEST PUSH1 0x17 DUP2 PUSH8 0xFFFFFFFFFFFFFFFF AND GT PUSH2 0xD62 JUMPI PUSH2 0xD5C DUP2 PUSH1 0x5 DUP5 PUSH1 0xFF AND SWAP1 SHL PUSH1 0xFF AND OR DUP5 PUSH2 0x105E SWAP1 SWAP2 SWAP1 PUSH4 0xFFFFFFFF AND JUMP JUMPDEST POP PUSH2 0xEAB JUMP JUMPDEST PUSH1 0xFF DUP2 PUSH8 0xFFFFFFFFFFFFFFFF AND GT PUSH2 0xDB8 JUMPI PUSH2 0xD91 PUSH1 0x18 PUSH1 0x5 DUP5 PUSH1 0xFF AND SWAP1 SHL OR DUP5 PUSH2 0x105E SWAP1 SWAP2 SWAP1 PUSH4 0xFFFFFFFF AND JUMP JUMPDEST POP PUSH2 0xDB2 DUP2 PUSH8 0xFFFFFFFFFFFFFFFF AND PUSH1 0x1 DUP6 PUSH2 0x107D SWAP1 SWAP3 SWAP2 SWAP1 PUSH4 0xFFFFFFFF AND JUMP JUMPDEST POP PUSH2 0xEAA JUMP JUMPDEST PUSH2 0xFFFF DUP2 PUSH8 0xFFFFFFFFFFFFFFFF AND GT PUSH2 0xE0F JUMPI PUSH2 0xDE8 PUSH1 0x19 PUSH1 0x5 DUP5 PUSH1 0xFF AND SWAP1 SHL OR DUP5 PUSH2 0x105E SWAP1 SWAP2 SWAP1 PUSH4 0xFFFFFFFF AND JUMP JUMPDEST POP PUSH2 0xE09 DUP2 PUSH8 0xFFFFFFFFFFFFFFFF AND PUSH1 0x2 DUP6 PUSH2 0x107D SWAP1 SWAP3 SWAP2 SWAP1 PUSH4 0xFFFFFFFF AND JUMP JUMPDEST POP PUSH2 0xEA9 JUMP JUMPDEST PUSH4 0xFFFFFFFF DUP2 PUSH8 0xFFFFFFFFFFFFFFFF AND GT PUSH2 0xE68 JUMPI PUSH2 0xE41 PUSH1 0x1A PUSH1 0x5 DUP5 PUSH1 0xFF AND SWAP1 SHL OR DUP5 PUSH2 0x105E SWAP1 SWAP2 SWAP1 PUSH4 0xFFFFFFFF AND JUMP JUMPDEST POP PUSH2 0xE62 DUP2 PUSH8 0xFFFFFFFFFFFFFFFF AND PUSH1 0x4 DUP6 PUSH2 0x107D SWAP1 SWAP3 SWAP2 SWAP1 PUSH4 0xFFFFFFFF AND JUMP JUMPDEST POP PUSH2 0xEA8 JUMP JUMPDEST PUSH2 0xE85 PUSH1 0x1B PUSH1 0x5 DUP5 PUSH1 0xFF AND SWAP1 SHL OR DUP5 PUSH2 0x105E SWAP1 SWAP2 SWAP1 PUSH4 0xFFFFFFFF AND JUMP JUMPDEST POP PUSH2 0xEA6 DUP2 PUSH8 0xFFFFFFFFFFFFFFFF AND PUSH1 0x8 DUP6 PUSH2 0x107D SWAP1 SWAP3 SWAP2 SWAP1 PUSH4 0xFFFFFFFF AND JUMP JUMPDEST POP JUMPDEST JUMPDEST JUMPDEST JUMPDEST POP POP POP JUMP JUMPDEST PUSH2 0xEB8 PUSH2 0x1313 JUMP JUMPDEST PUSH2 0xEC9 DUP4 DUP5 PUSH0 ADD MLOAD MLOAD DUP5 DUP6 MLOAD PUSH2 0x109E JUMP JUMPDEST SWAP1 POP SWAP3 SWAP2 POP POP JUMP JUMPDEST PUSH0 ADDRESS DUP5 PUSH1 0x40 MLOAD PUSH1 0x20 ADD PUSH2 0xEE5 SWAP3 SWAP2 SWAP1 PUSH2 0x1AE5 JUMP JUMPDEST PUSH1 0x40 MLOAD PUSH1 0x20 DUP2 DUP4 SUB SUB DUP2 MSTORE SWAP1 PUSH1 0x40 MSTORE DUP1 MLOAD SWAP1 PUSH1 0x20 ADD KECCAK256 SWAP1 POP DUP5 PUSH1 0x5 PUSH0 DUP4 DUP2 MSTORE PUSH1 0x20 ADD SWAP1 DUP2 MSTORE PUSH1 0x20 ADD PUSH0 KECCAK256 PUSH0 PUSH2 0x100 EXP DUP2 SLOAD DUP2 PUSH20 0xFFFFFFFFFFFFFFFFFFFFFFFFFFFFFFFFFFFFFFFF MUL NOT AND SWAP1 DUP4 PUSH20 0xFFFFFFFFFFFFFFFFFFFFFFFFFFFFFFFFFFFFFFFF AND MUL OR SWAP1 SSTORE POP DUP1 PUSH32 0xB5E6E01E79F91267DC17B4E6314D5D4D03593D2CEEE0FBB452B750BD70EA5AF9 PUSH1 0x40 MLOAD PUSH1 0x40 MLOAD DUP1 SWAP2 SUB SWAP1 LOG2 PUSH1 0x2 PUSH0 SWAP1 SLOAD SWAP1 PUSH2 0x100 EXP SWAP1 DIV PUSH20 0xFFFFFFFFFFFFFFFFFFFFFFFFFFFFFFFFFFFFFFFF AND PUSH20 0xFFFFFFFFFFFFFFFFFFFFFFFFFFFFFFFFFFFFFFFF AND PUSH4 0x4000AEA0 DUP7 DUP6 DUP6 PUSH1 0x40 MLOAD DUP5 PUSH4 0xFFFFFFFF AND PUSH1 0xE0 SHL DUP2 MSTORE PUSH1 0x4 ADD PUSH2 0xFD7 SWAP4 SWAP3 SWAP2 SWAP1 PUSH2 0x1B10 JUMP JUMPDEST PUSH1 0x20 PUSH1 0x40 MLOAD DUP1 DUP4 SUB DUP2 PUSH0 DUP8 GAS CALL ISZERO DUP1 ISZERO PUSH2 0xFF3 JUMPI RETURNDATASIZE PUSH0 DUP1 RETURNDATACOPY RETURNDATASIZE PUSH0 REVERT JUMPDEST POP POP POP POP PUSH1 0x40 MLOAD RETURNDATASIZE PUSH1 0x1F NOT PUSH1 0x1F DUP3 ADD AND DUP3 ADD DUP1 PUSH1 0x40 MSTORE POP DUP2 ADD SWAP1 PUSH2 0x1017 SWAP2 SWAP1 PUSH2 0x15E2 JUMP JUMPDEST PUSH2 0x1056 JUMPI PUSH1 0x40 MLOAD PUSH32 0x8C379A000000000000000000000000000000000000000000000000000000000 DUP2 MSTORE PUSH1 0x4 ADD PUSH2 0x104D SWAP1 PUSH2 0x1BBC JUMP JUMPDEST PUSH1 0x40 MLOAD DUP1 SWAP2 SUB SWAP1 REVERT JUMPDEST SWAP5 SWAP4 POP POP POP POP JUMP JUMPDEST PUSH2 0x1066 PUSH2 0x1313 JUMP JUMPDEST PUSH2 0x1075 DUP4 DUP5 PUSH0 ADD MLOAD MLOAD DUP5 PUSH2 0x118A JUMP JUMPDEST SWAP1 POP SWAP3 SWAP2 POP POP JUMP JUMPDEST PUSH2 0x1085 PUSH2 0x1313 JUMP JUMPDEST PUSH2 0x1095 DUP5 DUP6 PUSH0 ADD MLOAD MLOAD DUP6 DUP6 PUSH2 0x11E0 JUMP JUMPDEST SWAP1 POP SWAP4 SWAP3 POP POP POP JUMP JUMPDEST PUSH2 0x10A6 PUSH2 0x1313 JUMP JUMPDEST DUP3 MLOAD DUP3 GT ISZERO PUSH2 0x10B3 JUMPI PUSH0 DUP1 REVERT JUMPDEST DUP5 PUSH1 0x20 ADD MLOAD DUP3 DUP6 PUSH2 0x10C4 SWAP2 SWAP1 PUSH2 0x1835 JUMP JUMPDEST GT ISZERO PUSH2 0x10F9 JUMPI PUSH2 0x10F8 DUP6 PUSH1 0x2 PUSH2 0x10E9 DUP9 PUSH1 0x20 ADD MLOAD DUP9 DUP8 PUSH2 0x10E4 SWAP2 SWAP1 PUSH2 0x1835 JUMP JUMPDEST PUSH2 0x126D JUMP JUMPDEST PUSH2 0x10F3 SWAP2 SWAP1 PUSH2 0x1BDA JUMP JUMPDEST PUSH2 0x1288 JUMP JUMPDEST JUMPDEST PUSH0 DUP1 DUP7 MLOAD DUP1 MLOAD DUP8 PUSH1 0x20 DUP4 ADD ADD SWAP4 POP DUP1 DUP9 DUP8 ADD GT ISZERO PUSH2 0x1117 JUMPI DUP8 DUP7 ADD DUP3 MSTORE JUMPDEST PUSH1 0x20 DUP8 ADD SWAP3 POP POP POP JUMPDEST PUSH1 0x20 DUP5 LT PUSH2 0x115E JUMPI DUP1 MLOAD DUP3 MSTORE PUSH1 0x20 DUP3 PUSH2 0x1139 SWAP2 SWAP1 PUSH2 0x1835 JUMP JUMPDEST SWAP2 POP PUSH1 0x20 DUP2 PUSH2 0x1148 SWAP2 SWAP1 PUSH2 0x1835 JUMP JUMPDEST SWAP1 POP PUSH1 0x20 DUP5 PUSH2 0x1157 SWAP2 SWAP1 PUSH2 0x1A01 JUMP JUMPDEST SWAP4 POP PUSH2 0x1120 JUMP JUMPDEST PUSH0 PUSH1 0x1 DUP6 PUSH1 0x20 SUB PUSH2 0x100 EXP SUB SWAP1 POP DUP1 NOT DUP3 MLOAD AND DUP2 DUP5 MLOAD AND DUP2 DUP2 OR DUP6 MSTORE POP POP POP DUP7 SWAP3 POP POP POP SWAP5 SWAP4 POP POP POP POP JUMP JUMPDEST PUSH2 0x1192 PUSH2 0x1313 JUMP JUMPDEST DUP4 PUSH1 0x20 ADD MLOAD DUP4 LT PUSH2 0x11B8 JUMPI PUSH2 0x11B7 DUP5 PUSH1 0x2 DUP7 PUSH1 0x20 ADD MLOAD PUSH2 0x11B2 SWAP2 SWAP1 PUSH2 0x1BDA JUMP JUMPDEST PUSH2 0x1288 JUMP JUMPDEST JUMPDEST DUP4 MLOAD DUP1 MLOAD PUSH1 0x20 DUP6 DUP4 ADD ADD DUP5 DUP2 MSTORE8 DUP2 DUP7 SUB PUSH2 0x11D3 JUMPI PUSH1 0x1 DUP3 ADD DUP4 MSTORE JUMPDEST POP POP POP DUP4 SWAP1 POP SWAP4 SWAP3 POP POP POP JUMP JUMPDEST PUSH2 0x11E8 PUSH2 0x1313 JUMP JUMPDEST DUP5 PUSH1 0x20 ADD MLOAD DUP5 DUP4 PUSH2 0x11F9 SWAP2 SWAP1 PUSH2 0x1835 JUMP JUMPDEST GT ISZERO PUSH2 0x1221 JUMPI PUSH2 0x1220 DUP6 PUSH1 0x2 DUP7 DUP6 PUSH2 0x1211 SWAP2 SWAP1 PUSH2 0x1835 JUMP JUMPDEST PUSH2 0x121B SWAP2 SWAP1 PUSH2 0x1BDA JUMP JUMPDEST PUSH2 0x1288 JUMP JUMPDEST JUMPDEST PUSH0 PUSH1 0x1 DUP4 PUSH2 0x100 PUSH2 0x1232 SWAP2 SWAP1 PUSH2 0x1D4A JUMP JUMPDEST PUSH2 0x123C SWAP2 SWAP1 PUSH2 0x1A01 JUMP JUMPDEST SWAP1 POP DUP6 MLOAD DUP4 DUP7 DUP3 ADD ADD DUP6 DUP4 NOT DUP3 MLOAD AND OR DUP2 MSTORE DUP2 MLOAD DUP6 DUP9 ADD GT ISZERO PUSH2 0x125F JUMPI DUP5 DUP8 ADD DUP3 MSTORE JUMPDEST POP POP DUP6 SWAP2 POP POP SWAP5 SWAP4 POP POP POP POP JUMP JUMPDEST PUSH0 DUP2 DUP4 GT ISZERO PUSH2 0x127E JUMPI DUP3 SWAP1 POP PUSH2 0x1282 JUMP JUMPDEST DUP2 SWAP1 POP JUMPDEST SWAP3 SWAP2 POP POP JUMP JUMPDEST PUSH0 DUP3 PUSH0 ADD MLOAD SWAP1 POP PUSH2 0x1299 DUP4 DUP4 PUSH2 0xCC3 JUMP JUMPDEST POP PUSH2 0x12A4 DUP4 DUP3 PUSH2 0xEB0 JUMP JUMPDEST POP POP POP POP JUMP JUMPDEST PUSH1 0x40 MLOAD DUP1 PUSH1 0xA0 ADD PUSH1 0x40 MSTORE DUP1 PUSH0 DUP1 NOT AND DUP2 MSTORE PUSH1 0x20 ADD PUSH0 PUSH20 0xFFFFFFFFFFFFFFFFFFFFFFFFFFFFFFFFFFFFFFFF AND DUP2 MSTORE PUSH1 0x20 ADD PUSH0 PUSH28 0xFFFFFFFFFFFFFFFFFFFFFFFFFFFFFFFFFFFFFFFFFFFFFFFFFFFFFFFF NOT AND DUP2 MSTORE PUSH1 0x20 ADD PUSH0 DUP2 MSTORE PUSH1 0x20 ADD PUSH2 0x130D PUSH2 0x1313 JUMP JUMPDEST DUP2 MSTORE POP SWAP1 JUMP JUMPDEST PUSH1 0x40 MLOAD DUP1 PUSH1 0x40 ADD PUSH1 0x40 MSTORE DUP1 PUSH1 0x60 DUP2 MSTORE PUSH1 0x20 ADD PUSH0 DUP2 MSTORE POP SWAP1 JUMP JUMPDEST PUSH0 DUP2 SWAP1 POP SWAP2 SWAP1 POP JUMP JUMPDEST PUSH2 0x133E DUP2 PUSH2 0x132C JUMP JUMPDEST DUP3 MSTORE POP POP JUMP JUMPDEST PUSH0 PUSH1 0x20 DUP3 ADD SWAP1 POP PUSH2 0x1357 PUSH0 DUP4 ADD DUP5 PUSH2 0x1335 JUMP JUMPDEST SWAP3 SWAP2 POP POP JUMP JUMPDEST PUSH0 PUSH20 0xFFFFFFFFFFFFFFFFFFFFFFFFFFFFFFFFFFFFFFFF DUP3 AND SWAP1 POP SWAP2 SWAP1 POP JUMP JUMPDEST PUSH0 PUSH2 0x1386 DUP3 PUSH2 0x135D JUMP JUMPDEST SWAP1 POP SWAP2 SWAP1 POP JUMP JUMPDEST PUSH2 0x1396 DUP2 PUSH2 0x137C JUMP JUMPDEST DUP3 MSTORE POP POP JUMP JUMPDEST PUSH0 PUSH1 0x20 DUP3 ADD SWAP1 POP PUSH2 0x13AF PUSH0 DUP4 ADD DUP5 PUSH2 0x138D JUMP JUMPDEST SWAP3 SWAP2 POP POP JUMP JUMPDEST PUSH0 DUP1 REVERT JUMPDEST PUSH2 0x13C2 DUP2 PUSH2 0x137C JUMP JUMPDEST DUP2 EQ PUSH2 0x13CC JUMPI PUSH0 DUP1 REVERT JUMPDEST POP JUMP JUMPDEST PUSH0 DUP2 CALLDATALOAD SWAP1 POP PUSH2 0x13DD DUP2 PUSH2 0x13B9 JUMP JUMPDEST SWAP3 SWAP2 POP POP JUMP JUMPDEST PUSH0 PUSH1 0x20 DUP3 DUP5 SUB SLT ISZERO PUSH2 0x13F8 JUMPI PUSH2 0x13F7 PUSH2 0x13B5 JUMP JUMPDEST JUMPDEST PUSH0 PUSH2 0x1405 DUP5 DUP3 DUP6 ADD PUSH2 0x13CF JUMP JUMPDEST SWAP2 POP POP SWAP3 SWAP2 POP POP JUMP JUMPDEST PUSH0 DUP2 SWAP1 POP SWAP2 SWAP1 POP JUMP JUMPDEST PUSH2 0x1420 DUP2 PUSH2 0x140E JUMP JUMPDEST DUP2 EQ PUSH2 0x142A JUMPI PUSH0 DUP1 REVERT JUMPDEST POP JUMP JUMPDEST PUSH0 DUP2 CALLDATALOAD SWAP1 POP PUSH2 0x143B DUP2 PUSH2 0x1417 JUMP JUMPDEST SWAP3 SWAP2 POP POP JUMP JUMPDEST PUSH2 0x144A DUP2 PUSH2 0x132C JUMP JUMPDEST DUP2 EQ PUSH2 0x1454 JUMPI PUSH0 DUP1 REVERT JUMPDEST POP JUMP JUMPDEST PUSH0 DUP2 CALLDATALOAD SWAP1 POP PUSH2 0x1465 DUP2 PUSH2 0x1441 JUMP JUMPDEST SWAP3 SWAP2 POP POP JUMP JUMPDEST PUSH0 DUP1 PUSH0 DUP1 PUSH1 0x80 DUP6 DUP8 SUB SLT ISZERO PUSH2 0x1483 JUMPI PUSH2 0x1482 PUSH2 0x13B5 JUMP JUMPDEST JUMPDEST PUSH0 PUSH2 0x1490 DUP8 DUP3 DUP9 ADD PUSH2 0x142D JUMP JUMPDEST SWAP5 POP POP PUSH1 0x20 PUSH2 0x14A1 DUP8 DUP3 DUP9 ADD PUSH2 0x1457 JUMP JUMPDEST SWAP4 POP POP PUSH1 0x40 PUSH2 0x14B2 DUP8 DUP3 DUP9 ADD PUSH2 0x1457 JUMP JUMPDEST SWAP3 POP POP PUSH1 0x60 PUSH2 0x14C3 DUP8 DUP3 DUP9 ADD PUSH2 0x1457 JUMP JUMPDEST SWAP2 POP POP SWAP3 SWAP6 SWAP2 SWAP5 POP SWAP3 POP JUMP JUMPDEST PUSH0 DUP3 DUP3 MSTORE PUSH1 0x20 DUP3 ADD SWAP1 POP SWAP3 SWAP2 POP POP JUMP JUMPDEST PUSH32 0x4D7573742062652070726F706F736564206F776E657200000000000000000000 PUSH0 DUP3 ADD MSTORE POP JUMP JUMPDEST PUSH0 PUSH2 0x1513 PUSH1 0x16 DUP4 PUSH2 0x14CF JUMP JUMPDEST SWAP2 POP PUSH2 0x151E DUP3 PUSH2 0x14DF JUMP JUMPDEST PUSH1 0x20 DUP3 ADD SWAP1 POP SWAP2 SWAP1 POP JUMP JUMPDEST PUSH0 PUSH1 0x20 DUP3 ADD SWAP1 POP DUP2 DUP2 SUB PUSH0 DUP4 ADD MSTORE PUSH2 0x1540 DUP2 PUSH2 0x1507 JUMP JUMPDEST SWAP1 POP SWAP2 SWAP1 POP JUMP JUMPDEST PUSH0 DUP2 MLOAD SWAP1 POP PUSH2 0x1555 DUP2 PUSH2 0x1441 JUMP JUMPDEST SWAP3 SWAP2 POP POP JUMP JUMPDEST PUSH0 PUSH1 0x20 DUP3 DUP5 SUB SLT ISZERO PUSH2 0x1570 JUMPI PUSH2 0x156F PUSH2 0x13B5 JUMP JUMPDEST JUMPDEST PUSH0 PUSH2 0x157D DUP5 DUP3 DUP6 ADD PUSH2 0x1547 JUMP JUMPDEST SWAP2 POP POP SWAP3 SWAP2 POP POP JUMP JUMPDEST PUSH0 PUSH1 0x40 DUP3 ADD SWAP1 POP PUSH2 0x1599 PUSH0 DUP4 ADD DUP6 PUSH2 0x138D JUMP JUMPDEST PUSH2 0x15A6 PUSH1 0x20 DUP4 ADD DUP5 PUSH2 0x1335 JUMP JUMPDEST SWAP4 SWAP3 POP POP POP JUMP JUMPDEST PUSH0 DUP2 ISZERO ISZERO SWAP1 POP SWAP2 SWAP1 POP JUMP JUMPDEST PUSH2 0x15C1 DUP2 PUSH2 0x15AD JUMP JUMPDEST DUP2 EQ PUSH2 0x15CB JUMPI PUSH0 DUP1 REVERT JUMPDEST POP JUMP JUMPDEST PUSH0 DUP2 MLOAD SWAP1 POP PUSH2 0x15DC DUP2 PUSH2 0x15B8 JUMP JUMPDEST SWAP3 SWAP2 POP POP JUMP JUMPDEST PUSH0 PUSH1 0x20 DUP3 DUP5 SUB SLT ISZERO PUSH2 0x15F7 JUMPI PUSH2 0x15F6 PUSH2 0x13B5 JUMP JUMPDEST JUMPDEST PUSH0 PUSH2 0x1604 DUP5 DUP3 DUP6 ADD PUSH2 0x15CE JUMP JUMPDEST SWAP2 POP POP SWAP3 SWAP2 POP POP JUMP JUMPDEST PUSH32 0x556E61626C6520746F207472616E736665720000000000000000000000000000 PUSH0 DUP3 ADD MSTORE POP JUMP JUMPDEST PUSH0 PUSH2 0x1641 PUSH1 0x12 DUP4 PUSH2 0x14CF JUMP JUMPDEST SWAP2 POP PUSH2 0x164C DUP3 PUSH2 0x160D JUMP JUMPDEST PUSH1 0x20 DUP3 ADD SWAP1 POP SWAP2 SWAP1 POP JUMP JUMPDEST PUSH0 PUSH1 0x20 DUP3 ADD SWAP1 POP DUP2 DUP2 SUB PUSH0 DUP4 ADD MSTORE PUSH2 0x166E DUP2 PUSH2 0x1635 JUMP JUMPDEST SWAP1 POP SWAP2 SWAP1 POP JUMP JUMPDEST PUSH32 0x536F75726365206D75737420626520746865206F7261636C65206F6620746865 PUSH0 DUP3 ADD MSTORE PUSH32 0x2072657175657374000000000000000000000000000000000000000000000000 PUSH1 0x20 DUP3 ADD MSTORE POP JUMP JUMPDEST PUSH0 PUSH2 0x16CF PUSH1 0x28 DUP4 PUSH2 0x14CF JUMP JUMPDEST SWAP2 POP PUSH2 0x16DA DUP3 PUSH2 0x1675 JUMP JUMPDEST PUSH1 0x40 DUP3 ADD SWAP1 POP SWAP2 SWAP1 POP JUMP JUMPDEST PUSH0 PUSH1 0x20 DUP3 ADD SWAP1 POP DUP2 DUP2 SUB PUSH0 DUP4 ADD MSTORE PUSH2 0x16FC DUP2 PUSH2 0x16C3 JUMP JUMPDEST SWAP1 POP SWAP2 SWAP1 POP JUMP JUMPDEST PUSH0 PUSH1 0x60 DUP3 ADD SWAP1 POP PUSH2 0x1716 PUSH0 DUP4 ADD DUP7 PUSH2 0x1335 JUMP JUMPDEST PUSH2 0x1723 PUSH1 0x20 DUP4 ADD DUP6 PUSH2 0x1335 JUMP JUMPDEST PUSH2 0x1730 PUSH1 0x40 DUP4 ADD DUP5 PUSH2 0x1335 JUMP JUMPDEST SWAP5 SWAP4 POP POP POP POP JUMP JUMPDEST PUSH32 0x4F6E6C792063616C6C61626C65206279206F776E657200000000000000000000 PUSH0 DUP3 ADD MSTORE POP JUMP JUMPDEST PUSH0 PUSH2 0x176C PUSH1 0x16 DUP4 PUSH2 0x14CF JUMP JUMPDEST SWAP2 POP PUSH2 0x1777 DUP3 PUSH2 0x1738 JUMP JUMPDEST PUSH1 0x20 DUP3 ADD SWAP1 POP SWAP2 SWAP1 POP JUMP JUMPDEST PUSH0 PUSH1 0x20 DUP3 ADD SWAP1 POP DUP2 DUP2 SUB PUSH0 DUP4 ADD MSTORE PUSH2 0x1799 DUP2 PUSH2 0x1760 JUMP JUMPDEST SWAP1 POP SWAP2 SWAP1 POP JUMP JUMPDEST PUSH32 0x43616E6E6F74207472616E7366657220746F2073656C66000000000000000000 PUSH0 DUP3 ADD MSTORE POP JUMP JUMPDEST PUSH0 PUSH2 0x17D4 PUSH1 0x17 DUP4 PUSH2 0x14CF JUMP JUMPDEST SWAP2 POP PUSH2 0x17DF DUP3 PUSH2 0x17A0 JUMP JUMPDEST PUSH1 0x20 DUP3 ADD SWAP1 POP SWAP2 SWAP1 POP JUMP JUMPDEST PUSH0 PUSH1 0x20 DUP3 ADD SWAP1 POP DUP2 DUP2 SUB PUSH0 DUP4 ADD MSTORE PUSH2 0x1801 DUP2 PUSH2 0x17C8 JUMP JUMPDEST SWAP1 POP SWAP2 SWAP1 POP JUMP JUMPDEST PUSH32 0x4E487B7100000000000000000000000000000000000000000000000000000000 PUSH0 MSTORE PUSH1 0x11 PUSH1 0x4 MSTORE PUSH1 0x24 PUSH0 REVERT JUMPDEST PUSH0 PUSH2 0x183F DUP3 PUSH2 0x132C JUMP JUMPDEST SWAP2 POP PUSH2 0x184A DUP4 PUSH2 0x132C JUMP JUMPDEST SWAP3 POP DUP3 DUP3 ADD SWAP1 POP DUP1 DUP3 GT ISZERO PUSH2 0x1862 JUMPI PUSH2 0x1861 PUSH2 0x1808 JUMP JUMPDEST JUMPDEST SWAP3 SWAP2 POP POP JUMP JUMPDEST PUSH2 0x1871 DUP2 PUSH2 0x140E JUMP JUMPDEST DUP3 MSTORE POP POP JUMP JUMPDEST PUSH0 PUSH32 0xFFFFFFFF00000000000000000000000000000000000000000000000000000000 DUP3 AND SWAP1 POP SWAP2 SWAP1 POP JUMP JUMPDEST PUSH2 0x18AB DUP2 PUSH2 0x1877 JUMP JUMPDEST DUP3 MSTORE POP POP JUMP JUMPDEST PUSH0 DUP2 MLOAD SWAP1 POP SWAP2 SWAP1 POP JUMP JUMPDEST PUSH0 DUP3 DUP3 MSTORE PUSH1 0x20 DUP3 ADD SWAP1 POP SWAP3 SWAP2 POP POP JUMP JUMPDEST DUP3 DUP2 DUP4 MCOPY PUSH0 DUP4 DUP4 ADD MSTORE POP POP POP JUMP JUMPDEST PUSH0 PUSH1 0x1F NOT PUSH1 0x1F DUP4 ADD AND SWAP1 POP SWAP2 SWAP1 POP JUMP JUMPDEST PUSH0 PUSH2 0x18F3 DUP3 PUSH2 0x18B1 JUMP JUMPDEST PUSH2 0x18FD DUP2 DUP6 PUSH2 0x18BB JUMP JUMPDEST SWAP4 POP PUSH2 0x190D DUP2 DUP6 PUSH1 0x20 DUP7 ADD PUSH2 0x18CB JUMP JUMPDEST PUSH2 0x1916 DUP2 PUSH2 0x18D9 JUMP JUMPDEST DUP5 ADD SWAP2 POP POP SWAP3 SWAP2 POP POP JUMP JUMPDEST PUSH0 PUSH2 0x100 DUP3 ADD SWAP1 POP PUSH2 0x1935 PUSH0 DUP4 ADD DUP12 PUSH2 0x138D JUMP JUMPDEST PUSH2 0x1942 PUSH1 0x20 DUP4 ADD DUP11 PUSH2 0x1335 JUMP JUMPDEST PUSH2 0x194F PUSH1 0x40 DUP4 ADD DUP10 PUSH2 0x1868 JUMP JUMPDEST PUSH2 0x195C PUSH1 0x60 DUP4 ADD DUP9 PUSH2 0x138D JUMP JUMPDEST PUSH2 0x1969 PUSH1 0x80 DUP4 ADD DUP8 PUSH2 0x18A2 JUMP JUMPDEST PUSH2 0x1976 PUSH1 0xA0 DUP4 ADD DUP7 PUSH2 0x1335 JUMP JUMPDEST PUSH2 0x1983 PUSH1 0xC0 DUP4 ADD DUP6 PUSH2 0x1335 JUMP JUMPDEST DUP2 DUP2 SUB PUSH1 0xE0 DUP4 ADD MSTORE PUSH2 0x1995 DUP2 DUP5 PUSH2 0x18E9 JUMP JUMPDEST SWAP1 POP SWAP10 SWAP9 POP POP POP POP POP POP POP POP POP JUMP JUMPDEST PUSH32 0x4E487B7100000000000000000000000000000000000000000000000000000000 PUSH0 MSTORE PUSH1 0x12 PUSH1 0x4 MSTORE PUSH1 0x24 PUSH0 REVERT JUMPDEST PUSH0 PUSH2 0x19DB DUP3 PUSH2 0x132C JUMP JUMPDEST SWAP2 POP PUSH2 0x19E6 DUP4 PUSH2 0x132C JUMP JUMPDEST SWAP3 POP DUP3 PUSH2 0x19F6 JUMPI PUSH2 0x19F5 PUSH2 0x19A4 JUMP JUMPDEST JUMPDEST DUP3 DUP3 MOD SWAP1 POP SWAP3 SWAP2 POP POP JUMP JUMPDEST PUSH0 PUSH2 0x1A0B DUP3 PUSH2 0x132C JUMP JUMPDEST SWAP2 POP PUSH2 0x1A16 DUP4 PUSH2 0x132C JUMP JUMPDEST SWAP3 POP DUP3 DUP3 SUB SWAP1 POP DUP2 DUP2 GT ISZERO PUSH2 0x1A2E JUMPI PUSH2 0x1A2D PUSH2 0x1808 JUMP JUMPDEST JUMPDEST SWAP3 SWAP2 POP POP JUMP JUMPDEST PUSH0 DUP2 SWAP1 POP SWAP2 SWAP1 POP JUMP JUMPDEST PUSH0 PUSH2 0x1A57 PUSH2 0x1A52 PUSH2 0x1A4D DUP5 PUSH2 0x135D JUMP JUMPDEST PUSH2 0x1A34 JUMP JUMPDEST PUSH2 0x135D JUMP JUMPDEST SWAP1 POP SWAP2 SWAP1 POP JUMP JUMPDEST PUSH0 PUSH2 0x1A68 DUP3 PUSH2 0x1A3D JUMP JUMPDEST SWAP1 POP SWAP2 SWAP1 POP JUMP JUMPDEST PUSH0 PUSH2 0x1A79 DUP3 PUSH2 0x1A5E JUMP JUMPDEST SWAP1 POP SWAP2 SWAP1 POP JUMP JUMPDEST PUSH0 DUP2 PUSH1 0x60 SHL SWAP1 POP SWAP2 SWAP1 POP JUMP JUMPDEST PUSH0 PUSH2 0x1A96 DUP3 PUSH2 0x1A80 JUMP JUMPDEST SWAP1 POP SWAP2 SWAP1 POP JUMP JUMPDEST PUSH0 PUSH2 0x1AA7 DUP3 PUSH2 0x1A8C JUMP JUMPDEST SWAP1 POP SWAP2 SWAP1 POP JUMP JUMPDEST PUSH2 0x1ABF PUSH2 0x1ABA DUP3 PUSH2 0x1A6F JUMP JUMPDEST PUSH2 0x1A9D JUMP JUMPDEST DUP3 MSTORE POP POP JUMP JUMPDEST PUSH0 DUP2 SWAP1 POP SWAP2 SWAP1 POP JUMP JUMPDEST PUSH2 0x1ADF PUSH2 0x1ADA DUP3 PUSH2 0x132C JUMP JUMPDEST PUSH2 0x1AC5 JUMP JUMPDEST DUP3 MSTORE POP POP JUMP JUMPDEST PUSH0 PUSH2 0x1AF0 DUP3 DUP6 PUSH2 0x1AAE JUMP JUMPDEST PUSH1 0x14 DUP3 ADD SWAP2 POP PUSH2 0x1B00 DUP3 DUP5 PUSH2 0x1ACE JUMP JUMPDEST PUSH1 0x20 DUP3 ADD SWAP2 POP DUP2 SWAP1 POP SWAP4 SWAP3 POP POP POP JUMP JUMPDEST PUSH0 PUSH1 0x60 DUP3 ADD SWAP1 POP PUSH2 0x1B23 PUSH0 DUP4 ADD DUP7 PUSH2 0x138D JUMP JUMPDEST PUSH2 0x1B30 PUSH1 0x20 DUP4 ADD DUP6 PUSH2 0x1335 JUMP JUMPDEST DUP2 DUP2 SUB PUSH1 0x40 DUP4 ADD MSTORE PUSH2 0x1B42 DUP2 DUP5 PUSH2 0x18E9 JUMP JUMPDEST SWAP1 POP SWAP5 SWAP4 POP POP POP POP JUMP JUMPDEST PUSH32 0x756E61626C6520746F207472616E73666572416E6443616C6C20746F206F7261 PUSH0 DUP3 ADD MSTORE PUSH32 0x636C650000000000000000000000000000000000000000000000000000000000 PUSH1 0x20 DUP3 ADD MSTORE POP JUMP JUMPDEST PUSH0 PUSH2 0x1BA6 PUSH1 0x23 DUP4 PUSH2 0x14CF JUMP JUMPDEST SWAP2 POP PUSH2 0x1BB1 DUP3 PUSH2 0x1B4C JUMP JUMPDEST PUSH1 0x40 DUP3 ADD SWAP1 POP SWAP2 SWAP1 POP JUMP JUMPDEST PUSH0 PUSH1 0x20 DUP3 ADD SWAP1 POP DUP2 DUP2 SUB PUSH0 DUP4 ADD MSTORE PUSH2 0x1BD3 DUP2 PUSH2 0x1B9A JUMP JUMPDEST SWAP1 POP SWAP2 SWAP1 POP JUMP JUMPDEST PUSH0 PUSH2 0x1BE4 DUP3 PUSH2 0x132C JUMP JUMPDEST SWAP2 POP PUSH2 0x1BEF DUP4 PUSH2 0x132C JUMP JUMPDEST SWAP3 POP DUP3 DUP3 MUL PUSH2 0x1BFD DUP2 PUSH2 0x132C JUMP JUMPDEST SWAP2 POP DUP3 DUP3 DIV DUP5 EQ DUP4 ISZERO OR PUSH2 0x1C14 JUMPI PUSH2 0x1C13 PUSH2 0x1808 JUMP JUMPDEST JUMPDEST POP SWAP3 SWAP2 POP POP JUMP JUMPDEST PUSH0 DUP2 PUSH1 0x1 SHR SWAP1 POP SWAP2 SWAP1 POP JUMP JUMPDEST PUSH0 DUP1 DUP3 SWAP2 POP DUP4 SWAP1 POP JUMPDEST PUSH1 0x1 DUP6 GT ISZERO PUSH2 0x1C70 JUMPI DUP1 DUP7 DIV DUP2 GT ISZERO PUSH2 0x1C4C JUMPI PUSH2 0x1C4B PUSH2 0x1808 JUMP JUMPDEST JUMPDEST PUSH1 0x1 DUP6 AND ISZERO PUSH2 0x1C5B JUMPI DUP1 DUP3 MUL SWAP2 POP JUMPDEST DUP1 DUP2 MUL SWAP1 POP PUSH2 0x1C69 DUP6 PUSH2 0x1C1B JUMP JUMPDEST SWAP5 POP PUSH2 0x1C30 JUMP JUMPDEST SWAP5 POP SWAP5 SWAP3 POP POP POP JUMP JUMPDEST PUSH0 DUP3 PUSH2 0x1C88 JUMPI PUSH1 0x1 SWAP1 POP PUSH2 0x1D43 JUMP JUMPDEST DUP2 PUSH2 0x1C95 JUMPI PUSH0 SWAP1 POP PUSH2 0x1D43 JUMP JUMPDEST DUP2 PUSH1 0x1 DUP2 EQ PUSH2 0x1CAB JUMPI PUSH1 0x2 DUP2 EQ PUSH2 0x1CB5 JUMPI PUSH2 0x1CE4 JUMP JUMPDEST PUSH1 0x1 SWAP2 POP POP PUSH2 0x1D43 JUMP JUMPDEST PUSH1 0xFF DUP5 GT ISZERO PUSH2 0x1CC7 JUMPI PUSH2 0x1CC6 PUSH2 0x1808 JUMP JUMPDEST JUMPDEST DUP4 PUSH1 0x2 EXP SWAP2 POP DUP5 DUP3 GT ISZERO PUSH2 0x1CDE JUMPI PUSH2 0x1CDD PUSH2 0x1808 JUMP JUMPDEST JUMPDEST POP PUSH2 0x1D43 JUMP JUMPDEST POP PUSH1 0x20 DUP4 LT PUSH2 0x133 DUP4 LT AND PUSH1 0x4E DUP5 LT PUSH1 0xB DUP5 LT AND OR ISZERO PUSH2 0x1D19 JUMPI DUP3 DUP3 EXP SWAP1 POP DUP4 DUP2 GT ISZERO PUSH2 0x1D14 JUMPI PUSH2 0x1D13 PUSH2 0x1808 JUMP JUMPDEST JUMPDEST PUSH2 0x1D43 JUMP JUMPDEST PUSH2 0x1D26 DUP5 DUP5 DUP5 PUSH1 0x1 PUSH2 0x1C27 JUMP JUMPDEST SWAP3 POP SWAP1 POP DUP2 DUP5 DIV DUP2 GT ISZERO PUSH2 0x1D3D JUMPI PUSH2 0x1D3C PUSH2 0x1808 JUMP JUMPDEST JUMPDEST DUP2 DUP2 MUL SWAP1 POP JUMPDEST SWAP4 SWAP3 POP POP POP JUMP JUMPDEST PUSH0 PUSH2 0x1D54 DUP3 PUSH2 0x132C JUMP JUMPDEST SWAP2 POP PUSH2 0x1D5F DUP4 PUSH2 0x132C JUMP JUMPDEST SWAP3 POP PUSH2 0x1D8C PUSH32 0xFFFFFFFFFFFFFFFFFFFFFFFFFFFFFFFFFFFFFFFFFFFFFFFFFFFFFFFFFFFFFFFF DUP5 DUP5 PUSH2 0x1C79 JUMP JUMPDEST SWAP1 POP SWAP3 SWAP2 POP POP JUMP INVALID PUSH9 0x747470733A2F2F6D69 PUSH15 0x2D6170692E63727970746F636F6D70 PUSH2 0x7265 0x2E PUSH4 0x6F6D2F64 PUSH2 0x7461 0x2F PUSH17 0x726963653F6673796D3D45544826747379 PUSH14 0x733D55534468747470733A2F2F6D PUSH10 0x6E2D6170692E63727970 PUSH21 0x6F636F6D706172652E636F6D2F646174612F707269 PUSH4 0x653F6673 PUSH26 0x6D3D455448267473796D733D42544368747470733A2F2F6D696E 0x2D PUSH2 0x7069 0x2E PUSH4 0x72797074 PUSH16 0x636F6D706172652E636F6D2F64617461 0x2F PUSH17 0x726963653F6673796D3D45544826747379 PUSH14 0x733D455552A26469706673582212 KECCAK256 0xF 0xEA CALLVALUE 0xEE 0xD4 ADDMOD 0xBE PUSH24 0x58A88F3C95919CD7D7FCF18EA4C60FCEBA78B1C2D5CDC58 PUSH5 0x736F6C6343 STOP ADDMOD BYTE STOP CALLER "
				},
				"gasEstimates": {
					"creation": {
						"codeDepositCost": "1563000",
						"executionCost": "infinite",
						"totalCost": "infinite"
					},
					"external": {
						"acceptOwnership()": "54578",
						"btc()": "2447",
						"eur()": "2448",
						"fulfillMultipleParameters(bytes32,uint256,uint256,uint256)": "infinite",
						"owner()": "2582",
						"requestMultipleParameters()": "infinite",
						"transferOwnership(address)": "30717",
						"usd()": "2469",
						"withdrawLink()": "infinite"
					}
				},
				"methodIdentifiers": {
					"acceptOwnership()": "79ba5097",
					"btc()": "a28d57d8",
					"eur()": "7439ae59",
					"fulfillMultipleParameters(bytes32,uint256,uint256,uint256)": "fda4417b",
					"owner()": "8da5cb5b",
					"requestMultipleParameters()": "4a3afb47",
					"transferOwnership(address)": "f2fde38b",
					"usd()": "d63a6ccd",
					"withdrawLink()": "8dc654a2"
				}
			},
			"storageLayout": {
				"storage": [
					{
						"astId": 325,
						"contract": "docs.chain.link/samples/APIRequests/MultiWordConsumer.sol:MultiWordConsumer",
						"label": "s_ens",
						"offset": 0,
						"slot": "0",
						"type": "t_contract(ENSInterface)982"
					},
					{
						"astId": 327,
						"contract": "docs.chain.link/samples/APIRequests/MultiWordConsumer.sol:MultiWordConsumer",
						"label": "s_ensNode",
						"offset": 0,
						"slot": "1",
						"type": "t_bytes32"
					},
					{
						"astId": 330,
						"contract": "docs.chain.link/samples/APIRequests/MultiWordConsumer.sol:MultiWordConsumer",
						"label": "s_link",
						"offset": 0,
						"slot": "2",
						"type": "t_contract(LinkTokenInterface)1382"
					},
					{
						"astId": 333,
						"contract": "docs.chain.link/samples/APIRequests/MultiWordConsumer.sol:MultiWordConsumer",
						"label": "s_oracle",
						"offset": 0,
						"slot": "3",
						"type": "t_contract(OperatorInterface)1047"
					},
					{
						"astId": 336,
						"contract": "docs.chain.link/samples/APIRequests/MultiWordConsumer.sol:MultiWordConsumer",
						"label": "s_requestCount",
						"offset": 0,
						"slot": "4",
						"type": "t_uint256"
					},
					{
						"astId": 340,
						"contract": "docs.chain.link/samples/APIRequests/MultiWordConsumer.sol:MultiWordConsumer",
						"label": "s_pendingRequests",
						"offset": 0,
						"slot": "5",
						"type": "t_mapping(t_bytes32,t_address)"
					},
					{
						"astId": 1117,
						"contract": "docs.chain.link/samples/APIRequests/MultiWordConsumer.sol:MultiWordConsumer",
						"label": "s_owner",
						"offset": 0,
						"slot": "6",
						"type": "t_address"
					},
					{
						"astId": 1119,
						"contract": "docs.chain.link/samples/APIRequests/MultiWordConsumer.sol:MultiWordConsumer",
						"label": "s_pendingOwner",
						"offset": 0,
						"slot": "7",
						"type": "t_address"
					},
					{
						"astId": 2382,
						"contract": "docs.chain.link/samples/APIRequests/MultiWordConsumer.sol:MultiWordConsumer",
						"label": "jobId",
						"offset": 0,
						"slot": "8",
						"type": "t_bytes32"
					},
					{
						"astId": 2384,
						"contract": "docs.chain.link/samples/APIRequests/MultiWordConsumer.sol:MultiWordConsumer",
						"label": "fee",
						"offset": 0,
						"slot": "9",
						"type": "t_uint256"
					},
					{
						"astId": 2386,
						"contract": "docs.chain.link/samples/APIRequests/MultiWordConsumer.sol:MultiWordConsumer",
						"label": "btc",
						"offset": 0,
						"slot": "10",
						"type": "t_uint256"
					},
					{
						"astId": 2388,
						"contract": "docs.chain.link/samples/APIRequests/MultiWordConsumer.sol:MultiWordConsumer",
						"label": "usd",
						"offset": 0,
						"slot": "11",
						"type": "t_uint256"
					},
					{
						"astId": 2390,
						"contract": "docs.chain.link/samples/APIRequests/MultiWordConsumer.sol:MultiWordConsumer",
						"label": "eur",
						"offset": 0,
						"slot": "12",
						"type": "t_uint256"
					}
				],
				"types": {
					"t_address": {
						"encoding": "inplace",
						"label": "address",
						"numberOfBytes": "20"
					},
					"t_bytes32": {
						"encoding": "inplace",
						"label": "bytes32",
						"numberOfBytes": "32"
					},
					"t_contract(ENSInterface)982": {
						"encoding": "inplace",
						"label": "contract ENSInterface",
						"numberOfBytes": "20"
					},
					"t_contract(LinkTokenInterface)1382": {
						"encoding": "inplace",
						"label": "contract LinkTokenInterface",
						"numberOfBytes": "20"
					},
					"t_contract(OperatorInterface)1047": {
						"encoding": "inplace",
						"label": "contract OperatorInterface",
						"numberOfBytes": "20"
					},
					"t_mapping(t_bytes32,t_address)": {
						"encoding": "mapping",
						"key": "t_bytes32",
						"label": "mapping(bytes32 => address)",
						"numberOfBytes": "32",
						"value": "t_address"
					},
					"t_uint256": {
						"encoding": "inplace",
						"label": "uint256",
						"numberOfBytes": "32"
					}
				}
			},
			"userdoc": {
				"kind": "user",
				"methods": {
					"acceptOwnership()": {
						"notice": "Allows an ownership transfer to be completed by the recipient."
					},
					"constructor": {
						"notice": "Initialize the link token and target oracle"
					},
					"fulfillMultipleParameters(bytes32,uint256,uint256,uint256)": {
						"notice": "Fulfillment function for multiple parameters in a single request"
					},
					"owner()": {
						"notice": "Get the current owner"
					},
					"requestMultipleParameters()": {
						"notice": "Request multiple parameters from the oracle in a single transaction"
					},
					"transferOwnership(address)": {
						"notice": "Allows an owner to begin transferring ownership to a new address."
					},
					"withdrawLink()": {
						"notice": "Allow withdraw of Link tokens from the contract"
					}
				},
				"notice": "THIS IS AN EXAMPLE CONTRACT THAT USES HARDCODED VALUES FOR CLARITY. THIS IS AN EXAMPLE CONTRACT THAT USES UN-AUDITED CODE. DO NOT USE THIS CODE IN PRODUCTION.",
				"version": 1
			}
		}
	}
}