{
	"Carbon-Credits-Verification-with-Blockchain-main/contracts/chainlinkOracle.sol": {
		"APIConsumer": {
			"abi": [
				{
					"inputs": [],
					"stateMutability": "nonpayable",
					"type": "constructor"
				},
				{
					"anonymous": false,
					"inputs": [
						{
							"indexed": true,
							"internalType": "bytes32",
							"name": "id",
							"type": "bytes32"
						}
					],
					"name": "ChainlinkCancelled",
					"type": "event"
				},
				{
					"anonymous": false,
					"inputs": [
						{
							"indexed": true,
							"internalType": "bytes32",
							"name": "id",
							"type": "bytes32"
						}
					],
					"name": "ChainlinkFulfilled",
					"type": "event"
				},
				{
					"anonymous": false,
					"inputs": [
						{
							"indexed": true,
							"internalType": "bytes32",
							"name": "id",
							"type": "bytes32"
						}
					],
					"name": "ChainlinkRequested",
					"type": "event"
				},
				{
					"anonymous": false,
					"inputs": [
						{
							"indexed": false,
							"internalType": "string",
							"name": "",
							"type": "string"
						}
					],
					"name": "Data",
					"type": "event"
				},
				{
					"anonymous": false,
					"inputs": [
						{
							"indexed": true,
							"internalType": "address",
							"name": "from",
							"type": "address"
						},
						{
							"indexed": true,
							"internalType": "address",
							"name": "to",
							"type": "address"
						}
					],
					"name": "OwnershipTransferRequested",
					"type": "event"
				},
				{
					"anonymous": false,
					"inputs": [
						{
							"indexed": true,
							"internalType": "address",
							"name": "from",
							"type": "address"
						},
						{
							"indexed": true,
							"internalType": "address",
							"name": "to",
							"type": "address"
						}
					],
					"name": "OwnershipTransferred",
					"type": "event"
				},
				{
					"anonymous": false,
					"inputs": [
						{
							"indexed": true,
							"internalType": "bytes32",
							"name": "requestId",
							"type": "bytes32"
						},
						{
							"indexed": false,
							"internalType": "uint256",
							"name": "volume",
							"type": "uint256"
						}
					],
					"name": "RequestVolume",
					"type": "event"
				},
				{
					"anonymous": false,
					"inputs": [
						{
							"indexed": false,
							"internalType": "string",
							"name": "",
							"type": "string"
						},
						{
							"indexed": false,
							"internalType": "uint256",
							"name": "",
							"type": "uint256"
						}
					],
					"name": "Result",
					"type": "event"
				},
				{
					"inputs": [],
					"name": "acceptOwnership",
					"outputs": [],
					"stateMutability": "nonpayable",
					"type": "function"
				},
				{
					"inputs": [
						{
							"internalType": "bytes32",
							"name": "_requestId",
							"type": "bytes32"
						},
						{
							"internalType": "uint256",
							"name": "_volume",
							"type": "uint256"
						}
					],
					"name": "fulfill",
					"outputs": [],
					"stateMutability": "nonpayable",
					"type": "function"
				},
				{
					"inputs": [],
					"name": "owner",
					"outputs": [
						{
							"internalType": "address",
							"name": "",
							"type": "address"
						}
					],
					"stateMutability": "view",
					"type": "function"
				},
				{
					"inputs": [
						{
							"internalType": "uint256",
							"name": "projectId",
							"type": "uint256"
						}
					],
					"name": "requestData",
					"outputs": [
						{
							"internalType": "bytes32",
							"name": "requestId",
							"type": "bytes32"
						}
					],
					"stateMutability": "nonpayable",
					"type": "function"
				},
				{
					"inputs": [
						{
							"internalType": "address",
							"name": "to",
							"type": "address"
						}
					],
					"name": "transferOwnership",
					"outputs": [],
					"stateMutability": "nonpayable",
					"type": "function"
				},
				{
					"inputs": [],
					"name": "volume",
					"outputs": [
						{
							"internalType": "uint256",
							"name": "",
							"type": "uint256"
						}
					],
					"stateMutability": "view",
					"type": "function"
				},
				{
					"inputs": [],
					"name": "withdrawLink",
					"outputs": [],
					"stateMutability": "nonpayable",
					"type": "function"
				}
			],
			"devdoc": {
				"kind": "dev",
				"methods": {},
				"version": 1
			},
			"evm": {
				"assembly": "    /* \"Carbon-Credits-Verification-with-Blockchain-main/contracts/chainlinkOracle.sol\":524:2045  contract APIConsumer is ChainlinkClient, ConfirmedOwner {... */\n  mstore(0x40, 0x80)\n    /* \"@chainlink/contracts/src/v0.8/ChainlinkClient.sol\":1482:1483  1 */\n  0x01\n    /* \"@chainlink/contracts/src/v0.8/ChainlinkClient.sol\":1449:1483  uint256 private s_requestCount = 1 */\n  0x04\n  sstore\n    /* \"Carbon-Credits-Verification-with-Blockchain-main/contracts/chainlinkOracle.sol\":779:1068  constructor() ConfirmedOwner(msg.sender) {... */\n  callvalue\n  dup1\n  iszero\n  tag_1\n  jumpi\n  revert(0x00, 0x00)\ntag_1:\n  pop\n    /* \"Carbon-Credits-Verification-with-Blockchain-main/contracts/chainlinkOracle.sol\":808:818  msg.sender */\n  caller\n    /* \"@chainlink/contracts/src/v0.8/shared/access/ConfirmedOwner.sol\":355:363  newOwner */\n  dup1\n    /* \"@chainlink/contracts/src/v0.8/shared/access/ConfirmedOwner.sol\":373:374  0 */\n  0x00\n    /* \"@chainlink/contracts/src/v0.8/shared/access/ConfirmedOwnerWithProposal.sol\":618:619  0 */\n  0x00\n    /* \"@chainlink/contracts/src/v0.8/shared/access/ConfirmedOwnerWithProposal.sol\":598:620  newOwner != address(0) */\n  0xffffffffffffffffffffffffffffffffffffffff\n  and\n    /* \"@chainlink/contracts/src/v0.8/shared/access/ConfirmedOwnerWithProposal.sol\":598:606  newOwner */\n  dup3\n    /* \"@chainlink/contracts/src/v0.8/shared/access/ConfirmedOwnerWithProposal.sol\":598:620  newOwner != address(0) */\n  0xffffffffffffffffffffffffffffffffffffffff\n  and\n  sub\n    /* \"@chainlink/contracts/src/v0.8/shared/access/ConfirmedOwnerWithProposal.sol\":590:649  require(newOwner != address(0), \"Cannot set owner to zero\") */\n  tag_6\n  jumpi\n  mload(0x40)\n  0x08c379a000000000000000000000000000000000000000000000000000000000\n  dup2\n  mstore\n  0x04\n  add\n  tag_7\n  swap1\n  tag_8\n  jump\t// in\ntag_7:\n  mload(0x40)\n  dup1\n  swap2\n  sub\n  swap1\n  revert\ntag_6:\n    /* \"@chainlink/contracts/src/v0.8/shared/access/ConfirmedOwnerWithProposal.sol\":666:674  newOwner */\n  dup2\n    /* \"@chainlink/contracts/src/v0.8/shared/access/ConfirmedOwnerWithProposal.sol\":656:663  s_owner */\n  0x06\n  0x00\n    /* \"@chainlink/contracts/src/v0.8/shared/access/ConfirmedOwnerWithProposal.sol\":656:674  s_owner = newOwner */\n  0x0100\n  exp\n  dup2\n  sload\n  dup2\n  0xffffffffffffffffffffffffffffffffffffffff\n  mul\n  not\n  and\n  swap1\n  dup4\n  0xffffffffffffffffffffffffffffffffffffffff\n  and\n  mul\n  or\n  swap1\n  sstore\n  pop\n    /* \"@chainlink/contracts/src/v0.8/shared/access/ConfirmedOwnerWithProposal.sol\":708:709  0 */\n  0x00\n    /* \"@chainlink/contracts/src/v0.8/shared/access/ConfirmedOwnerWithProposal.sol\":684:710  pendingOwner != address(0) */\n  0xffffffffffffffffffffffffffffffffffffffff\n  and\n    /* \"@chainlink/contracts/src/v0.8/shared/access/ConfirmedOwnerWithProposal.sol\":684:696  pendingOwner */\n  dup2\n    /* \"@chainlink/contracts/src/v0.8/shared/access/ConfirmedOwnerWithProposal.sol\":684:710  pendingOwner != address(0) */\n  0xffffffffffffffffffffffffffffffffffffffff\n  and\n  eq\n    /* \"@chainlink/contracts/src/v0.8/shared/access/ConfirmedOwnerWithProposal.sol\":680:759  if (pendingOwner != address(0)) {... */\n  tag_9\n  jumpi\n    /* \"@chainlink/contracts/src/v0.8/shared/access/ConfirmedOwnerWithProposal.sol\":720:752  _transferOwnership(pendingOwner) */\n  tag_10\n    /* \"@chainlink/contracts/src/v0.8/shared/access/ConfirmedOwnerWithProposal.sol\":739:751  pendingOwner */\n  dup2\n    /* \"@chainlink/contracts/src/v0.8/shared/access/ConfirmedOwnerWithProposal.sol\":720:738  _transferOwnership */\n  shl(0x20, tag_11)\n    /* \"@chainlink/contracts/src/v0.8/shared/access/ConfirmedOwnerWithProposal.sol\":720:752  _transferOwnership(pendingOwner) */\n  0x20\n  shr\n  jump\t// in\ntag_10:\n    /* \"@chainlink/contracts/src/v0.8/shared/access/ConfirmedOwnerWithProposal.sol\":680:759  if (pendingOwner != address(0)) {... */\ntag_9:\n    /* \"@chainlink/contracts/src/v0.8/shared/access/ConfirmedOwnerWithProposal.sol\":481:763  constructor(address newOwner, address pendingOwner) {... */\n  pop\n  pop\n    /* \"@chainlink/contracts/src/v0.8/shared/access/ConfirmedOwner.sol\":298:379  constructor(address newOwner) ConfirmedOwnerWithProposal(newOwner, address(0)) {} */\n  pop\n    /* \"Carbon-Credits-Verification-with-Blockchain-main/contracts/chainlinkOracle.sol\":830:892  _setChainlinkToken(0x779877A7B0D9E8603169DdbD7836e478b4624789) */\n  tag_14\n    /* \"Carbon-Credits-Verification-with-Blockchain-main/contracts/chainlinkOracle.sol\":849:891  0x779877A7B0D9E8603169DdbD7836e478b4624789 */\n  0x779877a7b0d9e8603169ddbd7836e478b4624789\n    /* \"Carbon-Credits-Verification-with-Blockchain-main/contracts/chainlinkOracle.sol\":830:848  _setChainlinkToken */\n  shl(0x20, tag_15)\n    /* \"Carbon-Credits-Verification-with-Blockchain-main/contracts/chainlinkOracle.sol\":830:892  _setChainlinkToken(0x779877A7B0D9E8603169DdbD7836e478b4624789) */\n  0x20\n  shr\n  jump\t// in\ntag_14:\n    /* \"Carbon-Credits-Verification-with-Blockchain-main/contracts/chainlinkOracle.sol\":902:965  _setChainlinkOracle(0x6090149792dAAeE9D1D568c9f9a6F6B46AA29eFD) */\n  tag_16\n    /* \"Carbon-Credits-Verification-with-Blockchain-main/contracts/chainlinkOracle.sol\":922:964  0x6090149792dAAeE9D1D568c9f9a6F6B46AA29eFD */\n  0x6090149792daaee9d1d568c9f9a6f6b46aa29efd\n    /* \"Carbon-Credits-Verification-with-Blockchain-main/contracts/chainlinkOracle.sol\":902:921  _setChainlinkOracle */\n  shl(0x20, tag_17)\n    /* \"Carbon-Credits-Verification-with-Blockchain-main/contracts/chainlinkOracle.sol\":902:965  _setChainlinkOracle(0x6090149792dAAeE9D1D568c9f9a6F6B46AA29eFD) */\n  0x20\n  shr\n  jump\t// in\ntag_16:\n    /* \"Carbon-Credits-Verification-with-Blockchain-main/contracts/chainlinkOracle.sol\":975:1017  jobId = \"ca98366cc7314957b8c012c72f05aeeb\" */\n  0x6361393833363663633733313439353762386330313263373266303561656562\n    /* \"Carbon-Credits-Verification-with-Blockchain-main/contracts/chainlinkOracle.sol\":975:980  jobId */\n  0x09\n    /* \"Carbon-Credits-Verification-with-Blockchain-main/contracts/chainlinkOracle.sol\":975:1017  jobId = \"ca98366cc7314957b8c012c72f05aeeb\" */\n  dup2\n  swap1\n  sstore\n  pop\n    /* \"Carbon-Credits-Verification-with-Blockchain-main/contracts/chainlinkOracle.sol\":1059:1061  10 */\n  0x0a\n    /* \"@chainlink/contracts/src/v0.8/ChainlinkClient.sol\":864:872  10 ** 18 */\n  0x0de0b6b3a7640000\n    /* \"Carbon-Credits-Verification-with-Blockchain-main/contracts/chainlinkOracle.sol\":1034:1035  1 */\n  0x01\n    /* \"Carbon-Credits-Verification-with-Blockchain-main/contracts/chainlinkOracle.sol\":1034:1055  1 * LINK_DIVISIBILITY */\n  tag_18\n  swap2\n  swap1\n  tag_19\n  jump\t// in\ntag_18:\n    /* \"Carbon-Credits-Verification-with-Blockchain-main/contracts/chainlinkOracle.sol\":1033:1061  (1 * LINK_DIVISIBILITY) / 10 */\n  tag_20\n  swap2\n  swap1\n  tag_21\n  jump\t// in\ntag_20:\n    /* \"Carbon-Credits-Verification-with-Blockchain-main/contracts/chainlinkOracle.sol\":1027:1030  fee */\n  0x0a\n    /* \"Carbon-Credits-Verification-with-Blockchain-main/contracts/chainlinkOracle.sol\":1027:1061  fee = (1 * LINK_DIVISIBILITY) / 10 */\n  dup2\n  swap1\n  sstore\n  pop\n    /* \"Carbon-Credits-Verification-with-Blockchain-main/contracts/chainlinkOracle.sol\":524:2045  contract APIConsumer is ChainlinkClient, ConfirmedOwner {... */\n  jump(tag_22)\n    /* \"@chainlink/contracts/src/v0.8/shared/access/ConfirmedOwnerWithProposal.sol\":1536:1775  function _transferOwnership(address to) private {... */\ntag_11:\n    /* \"@chainlink/contracts/src/v0.8/shared/access/ConfirmedOwnerWithProposal.sol\":1655:1665  msg.sender */\n  caller\n    /* \"@chainlink/contracts/src/v0.8/shared/access/ConfirmedOwnerWithProposal.sol\":1649:1665  to != msg.sender */\n  0xffffffffffffffffffffffffffffffffffffffff\n  and\n    /* \"@chainlink/contracts/src/v0.8/shared/access/ConfirmedOwnerWithProposal.sol\":1649:1651  to */\n  dup2\n    /* \"@chainlink/contracts/src/v0.8/shared/access/ConfirmedOwnerWithProposal.sol\":1649:1665  to != msg.sender */\n  0xffffffffffffffffffffffffffffffffffffffff\n  and\n  sub\n    /* \"@chainlink/contracts/src/v0.8/shared/access/ConfirmedOwnerWithProposal.sol\":1641:1693  require(to != msg.sender, \"Cannot transfer to self\") */\n  tag_24\n  jumpi\n  mload(0x40)\n  0x08c379a000000000000000000000000000000000000000000000000000000000\n  dup2\n  mstore\n  0x04\n  add\n  tag_25\n  swap1\n  tag_26\n  jump\t// in\ntag_25:\n  mload(0x40)\n  dup1\n  swap2\n  sub\n  swap1\n  revert\ntag_24:\n    /* \"@chainlink/contracts/src/v0.8/shared/access/ConfirmedOwnerWithProposal.sol\":1717:1719  to */\n  dup1\n    /* \"@chainlink/contracts/src/v0.8/shared/access/ConfirmedOwnerWithProposal.sol\":1700:1714  s_pendingOwner */\n  0x07\n  0x00\n    /* \"@chainlink/contracts/src/v0.8/shared/access/ConfirmedOwnerWithProposal.sol\":1700:1719  s_pendingOwner = to */\n  0x0100\n  exp\n  dup2\n  sload\n  dup2\n  0xffffffffffffffffffffffffffffffffffffffff\n  mul\n  not\n  and\n  swap1\n  dup4\n  0xffffffffffffffffffffffffffffffffffffffff\n  and\n  mul\n  or\n  swap1\n  sstore\n  pop\n    /* \"@chainlink/contracts/src/v0.8/shared/access/ConfirmedOwnerWithProposal.sol\":1767:1769  to */\n  dup1\n    /* \"@chainlink/contracts/src/v0.8/shared/access/ConfirmedOwnerWithProposal.sol\":1731:1770  OwnershipTransferRequested(s_owner, to) */\n  0xffffffffffffffffffffffffffffffffffffffff\n  and\n    /* \"@chainlink/contracts/src/v0.8/shared/access/ConfirmedOwnerWithProposal.sol\":1758:1765  s_owner */\n  0x06\n  0x00\n  swap1\n  sload\n  swap1\n  0x0100\n  exp\n  swap1\n  div\n  0xffffffffffffffffffffffffffffffffffffffff\n  and\n    /* \"@chainlink/contracts/src/v0.8/shared/access/ConfirmedOwnerWithProposal.sol\":1731:1770  OwnershipTransferRequested(s_owner, to) */\n  0xffffffffffffffffffffffffffffffffffffffff\n  and\n  0xed8889f560326eb138920d842192f0eb3dd22b4f139c87a2c57538e05bae1278\n  mload(0x40)\n  mload(0x40)\n  dup1\n  swap2\n  sub\n  swap1\n  log3\n    /* \"@chainlink/contracts/src/v0.8/shared/access/ConfirmedOwnerWithProposal.sol\":1536:1775  function _transferOwnership(address to) private {... */\n  pop\n  jump\t// out\n    /* \"@chainlink/contracts/src/v0.8/ChainlinkClient.sol\":8849:8958  function _setChainlinkToken(address linkAddress) internal {... */\ntag_15:\n    /* \"@chainlink/contracts/src/v0.8/ChainlinkClient.sol\":8941:8952  linkAddress */\n  dup1\n    /* \"@chainlink/contracts/src/v0.8/ChainlinkClient.sol\":8913:8919  s_link */\n  0x02\n  0x00\n    /* \"@chainlink/contracts/src/v0.8/ChainlinkClient.sol\":8913:8953  s_link = LinkTokenInterface(linkAddress) */\n  0x0100\n  exp\n  dup2\n  sload\n  dup2\n  0xffffffffffffffffffffffffffffffffffffffff\n  mul\n  not\n  and\n  swap1\n  dup4\n  0xffffffffffffffffffffffffffffffffffffffff\n  and\n  mul\n  or\n  swap1\n  sstore\n  pop\n    /* \"@chainlink/contracts/src/v0.8/ChainlinkClient.sol\":8849:8958  function _setChainlinkToken(address linkAddress) internal {... */\n  pop\n  jump\t// out\n    /* \"@chainlink/contracts/src/v0.8/ChainlinkClient.sol\":8614:8729  function _setChainlinkOracle(address oracleAddress) internal {... */\ntag_17:\n    /* \"@chainlink/contracts/src/v0.8/ChainlinkClient.sol\":8710:8723  oracleAddress */\n  dup1\n    /* \"@chainlink/contracts/src/v0.8/ChainlinkClient.sol\":8681:8689  s_oracle */\n  0x03\n  0x00\n    /* \"@chainlink/contracts/src/v0.8/ChainlinkClient.sol\":8681:8724  s_oracle = OperatorInterface(oracleAddress) */\n  0x0100\n  exp\n  dup2\n  sload\n  dup2\n  0xffffffffffffffffffffffffffffffffffffffff\n  mul\n  not\n  and\n  swap1\n  dup4\n  0xffffffffffffffffffffffffffffffffffffffff\n  and\n  mul\n  or\n  swap1\n  sstore\n  pop\n    /* \"@chainlink/contracts/src/v0.8/ChainlinkClient.sol\":8614:8729  function _setChainlinkOracle(address oracleAddress) internal {... */\n  pop\n  jump\t// out\n    /* \"#utility.yul\":7:176   */\ntag_29:\n    /* \"#utility.yul\":91:102   */\n  0x00\n    /* \"#utility.yul\":125:131   */\n  dup3\n    /* \"#utility.yul\":120:123   */\n  dup3\n    /* \"#utility.yul\":113:132   */\n  mstore\n    /* \"#utility.yul\":165:169   */\n  0x20\n    /* \"#utility.yul\":160:163   */\n  dup3\n    /* \"#utility.yul\":156:170   */\n  add\n    /* \"#utility.yul\":141:170   */\n  swap1\n  pop\n    /* \"#utility.yul\":7:176   */\n  swap3\n  swap2\n  pop\n  pop\n  jump\t// out\n    /* \"#utility.yul\":182:356   */\ntag_30:\n    /* \"#utility.yul\":322:348   */\n  0x43616e6e6f7420736574206f776e657220746f207a65726f0000000000000000\n    /* \"#utility.yul\":318:319   */\n  0x00\n    /* \"#utility.yul\":310:316   */\n  dup3\n    /* \"#utility.yul\":306:320   */\n  add\n    /* \"#utility.yul\":299:349   */\n  mstore\n    /* \"#utility.yul\":182:356   */\n  pop\n  jump\t// out\n    /* \"#utility.yul\":362:728   */\ntag_31:\n    /* \"#utility.yul\":504:507   */\n  0x00\n    /* \"#utility.yul\":525:592   */\n  tag_41\n    /* \"#utility.yul\":589:591   */\n  0x18\n    /* \"#utility.yul\":584:587   */\n  dup4\n    /* \"#utility.yul\":525:592   */\n  tag_29\n  jump\t// in\ntag_41:\n    /* \"#utility.yul\":518:592   */\n  swap2\n  pop\n    /* \"#utility.yul\":601:694   */\n  tag_42\n    /* \"#utility.yul\":690:693   */\n  dup3\n    /* \"#utility.yul\":601:694   */\n  tag_30\n  jump\t// in\ntag_42:\n    /* \"#utility.yul\":719:721   */\n  0x20\n    /* \"#utility.yul\":714:717   */\n  dup3\n    /* \"#utility.yul\":710:722   */\n  add\n    /* \"#utility.yul\":703:722   */\n  swap1\n  pop\n    /* \"#utility.yul\":362:728   */\n  swap2\n  swap1\n  pop\n  jump\t// out\n    /* \"#utility.yul\":734:1153   */\ntag_8:\n    /* \"#utility.yul\":900:904   */\n  0x00\n    /* \"#utility.yul\":938:940   */\n  0x20\n    /* \"#utility.yul\":927:936   */\n  dup3\n    /* \"#utility.yul\":923:941   */\n  add\n    /* \"#utility.yul\":915:941   */\n  swap1\n  pop\n    /* \"#utility.yul\":987:996   */\n  dup2\n    /* \"#utility.yul\":981:985   */\n  dup2\n    /* \"#utility.yul\":977:997   */\n  sub\n    /* \"#utility.yul\":973:974   */\n  0x00\n    /* \"#utility.yul\":962:971   */\n  dup4\n    /* \"#utility.yul\":958:975   */\n  add\n    /* \"#utility.yul\":951:998   */\n  mstore\n    /* \"#utility.yul\":1015:1146   */\n  tag_44\n    /* \"#utility.yul\":1141:1145   */\n  dup2\n    /* \"#utility.yul\":1015:1146   */\n  tag_31\n  jump\t// in\ntag_44:\n    /* \"#utility.yul\":1007:1146   */\n  swap1\n  pop\n    /* \"#utility.yul\":734:1153   */\n  swap2\n  swap1\n  pop\n  jump\t// out\n    /* \"#utility.yul\":1159:1236   */\ntag_32:\n    /* \"#utility.yul\":1196:1203   */\n  0x00\n    /* \"#utility.yul\":1225:1230   */\n  dup2\n    /* \"#utility.yul\":1214:1230   */\n  swap1\n  pop\n    /* \"#utility.yul\":1159:1236   */\n  swap2\n  swap1\n  pop\n  jump\t// out\n    /* \"#utility.yul\":1242:1422   */\ntag_33:\n    /* \"#utility.yul\":1290:1367   */\n  0x4e487b7100000000000000000000000000000000000000000000000000000000\n    /* \"#utility.yul\":1287:1288   */\n  0x00\n    /* \"#utility.yul\":1280:1368   */\n  mstore\n    /* \"#utility.yul\":1387:1391   */\n  0x11\n    /* \"#utility.yul\":1384:1385   */\n  0x04\n    /* \"#utility.yul\":1377:1392   */\n  mstore\n    /* \"#utility.yul\":1411:1415   */\n  0x24\n    /* \"#utility.yul\":1408:1409   */\n  0x00\n    /* \"#utility.yul\":1401:1416   */\n  revert\n    /* \"#utility.yul\":1428:1838   */\ntag_19:\n    /* \"#utility.yul\":1468:1475   */\n  0x00\n    /* \"#utility.yul\":1491:1511   */\n  tag_48\n    /* \"#utility.yul\":1509:1510   */\n  dup3\n    /* \"#utility.yul\":1491:1511   */\n  tag_32\n  jump\t// in\ntag_48:\n    /* \"#utility.yul\":1486:1511   */\n  swap2\n  pop\n    /* \"#utility.yul\":1525:1545   */\n  tag_49\n    /* \"#utility.yul\":1543:1544   */\n  dup4\n    /* \"#utility.yul\":1525:1545   */\n  tag_32\n  jump\t// in\ntag_49:\n    /* \"#utility.yul\":1520:1545   */\n  swap3\n  pop\n    /* \"#utility.yul\":1580:1581   */\n  dup3\n    /* \"#utility.yul\":1577:1578   */\n  dup3\n    /* \"#utility.yul\":1573:1582   */\n  mul\n    /* \"#utility.yul\":1602:1632   */\n  tag_50\n    /* \"#utility.yul\":1620:1631   */\n  dup2\n    /* \"#utility.yul\":1602:1632   */\n  tag_32\n  jump\t// in\ntag_50:\n    /* \"#utility.yul\":1591:1632   */\n  swap2\n  pop\n    /* \"#utility.yul\":1781:1782   */\n  dup3\n    /* \"#utility.yul\":1772:1779   */\n  dup3\n    /* \"#utility.yul\":1768:1783   */\n  div\n    /* \"#utility.yul\":1765:1766   */\n  dup5\n    /* \"#utility.yul\":1762:1784   */\n  eq\n    /* \"#utility.yul\":1742:1743   */\n  dup4\n    /* \"#utility.yul\":1735:1744   */\n  iszero\n    /* \"#utility.yul\":1715:1798   */\n  or\n    /* \"#utility.yul\":1692:1831   */\n  tag_51\n  jumpi\n    /* \"#utility.yul\":1811:1829   */\n  tag_52\n  tag_33\n  jump\t// in\ntag_52:\n    /* \"#utility.yul\":1692:1831   */\ntag_51:\n    /* \"#utility.yul\":1476:1838   */\n  pop\n    /* \"#utility.yul\":1428:1838   */\n  swap3\n  swap2\n  pop\n  pop\n  jump\t// out\n    /* \"#utility.yul\":1844:2024   */\ntag_34:\n    /* \"#utility.yul\":1892:1969   */\n  0x4e487b7100000000000000000000000000000000000000000000000000000000\n    /* \"#utility.yul\":1889:1890   */\n  0x00\n    /* \"#utility.yul\":1882:1970   */\n  mstore\n    /* \"#utility.yul\":1989:1993   */\n  0x12\n    /* \"#utility.yul\":1986:1987   */\n  0x04\n    /* \"#utility.yul\":1979:1994   */\n  mstore\n    /* \"#utility.yul\":2013:2017   */\n  0x24\n    /* \"#utility.yul\":2010:2011   */\n  0x00\n    /* \"#utility.yul\":2003:2018   */\n  revert\n    /* \"#utility.yul\":2030:2215   */\ntag_21:\n    /* \"#utility.yul\":2070:2071   */\n  0x00\n    /* \"#utility.yul\":2087:2107   */\n  tag_55\n    /* \"#utility.yul\":2105:2106   */\n  dup3\n    /* \"#utility.yul\":2087:2107   */\n  tag_32\n  jump\t// in\ntag_55:\n    /* \"#utility.yul\":2082:2107   */\n  swap2\n  pop\n    /* \"#utility.yul\":2121:2141   */\n  tag_56\n    /* \"#utility.yul\":2139:2140   */\n  dup4\n    /* \"#utility.yul\":2121:2141   */\n  tag_32\n  jump\t// in\ntag_56:\n    /* \"#utility.yul\":2116:2141   */\n  swap3\n  pop\n    /* \"#utility.yul\":2160:2161   */\n  dup3\n    /* \"#utility.yul\":2150:2185   */\n  tag_57\n  jumpi\n    /* \"#utility.yul\":2165:2183   */\n  tag_58\n  tag_34\n  jump\t// in\ntag_58:\n    /* \"#utility.yul\":2150:2185   */\ntag_57:\n    /* \"#utility.yul\":2207:2208   */\n  dup3\n    /* \"#utility.yul\":2204:2205   */\n  dup3\n    /* \"#utility.yul\":2200:2209   */\n  div\n    /* \"#utility.yul\":2195:2209   */\n  swap1\n  pop\n    /* \"#utility.yul\":2030:2215   */\n  swap3\n  swap2\n  pop\n  pop\n  jump\t// out\n    /* \"#utility.yul\":2221:2394   */\ntag_35:\n    /* \"#utility.yul\":2361:2386   */\n  0x43616e6e6f74207472616e7366657220746f2073656c66000000000000000000\n    /* \"#utility.yul\":2357:2358   */\n  0x00\n    /* \"#utility.yul\":2349:2355   */\n  dup3\n    /* \"#utility.yul\":2345:2359   */\n  add\n    /* \"#utility.yul\":2338:2387   */\n  mstore\n    /* \"#utility.yul\":2221:2394   */\n  pop\n  jump\t// out\n    /* \"#utility.yul\":2400:2766   */\ntag_36:\n    /* \"#utility.yul\":2542:2545   */\n  0x00\n    /* \"#utility.yul\":2563:2630   */\n  tag_61\n    /* \"#utility.yul\":2627:2629   */\n  0x17\n    /* \"#utility.yul\":2622:2625   */\n  dup4\n    /* \"#utility.yul\":2563:2630   */\n  tag_29\n  jump\t// in\ntag_61:\n    /* \"#utility.yul\":2556:2630   */\n  swap2\n  pop\n    /* \"#utility.yul\":2639:2732   */\n  tag_62\n    /* \"#utility.yul\":2728:2731   */\n  dup3\n    /* \"#utility.yul\":2639:2732   */\n  tag_35\n  jump\t// in\ntag_62:\n    /* \"#utility.yul\":2757:2759   */\n  0x20\n    /* \"#utility.yul\":2752:2755   */\n  dup3\n    /* \"#utility.yul\":2748:2760   */\n  add\n    /* \"#utility.yul\":2741:2760   */\n  swap1\n  pop\n    /* \"#utility.yul\":2400:2766   */\n  swap2\n  swap1\n  pop\n  jump\t// out\n    /* \"#utility.yul\":2772:3191   */\ntag_26:\n    /* \"#utility.yul\":2938:2942   */\n  0x00\n    /* \"#utility.yul\":2976:2978   */\n  0x20\n    /* \"#utility.yul\":2965:2974   */\n  dup3\n    /* \"#utility.yul\":2961:2979   */\n  add\n    /* \"#utility.yul\":2953:2979   */\n  swap1\n  pop\n    /* \"#utility.yul\":3025:3034   */\n  dup2\n    /* \"#utility.yul\":3019:3023   */\n  dup2\n    /* \"#utility.yul\":3015:3035   */\n  sub\n    /* \"#utility.yul\":3011:3012   */\n  0x00\n    /* \"#utility.yul\":3000:3009   */\n  dup4\n    /* \"#utility.yul\":2996:3013   */\n  add\n    /* \"#utility.yul\":2989:3036   */\n  mstore\n    /* \"#utility.yul\":3053:3184   */\n  tag_64\n    /* \"#utility.yul\":3179:3183   */\n  dup2\n    /* \"#utility.yul\":3053:3184   */\n  tag_36\n  jump\t// in\ntag_64:\n    /* \"#utility.yul\":3045:3184   */\n  swap1\n  pop\n    /* \"#utility.yul\":2772:3191   */\n  swap2\n  swap1\n  pop\n  jump\t// out\n    /* \"Carbon-Credits-Verification-with-Blockchain-main/contracts/chainlinkOracle.sol\":524:2045  contract APIConsumer is ChainlinkClient, ConfirmedOwner {... */\ntag_22:\n  dataSize(sub_0)\n  dup1\n  dataOffset(sub_0)\n  0x00\n  codecopy\n  0x00\n  return\nstop\n\nsub_0: assembly {\n        /* \"Carbon-Credits-Verification-with-Blockchain-main/contracts/chainlinkOracle.sol\":524:2045  contract APIConsumer is ChainlinkClient, ConfirmedOwner {... */\n      mstore(0x40, 0x80)\n      callvalue\n      dup1\n      iszero\n      tag_1\n      jumpi\n      revert(0x00, 0x00)\n    tag_1:\n      pop\n      jumpi(tag_2, lt(calldatasize, 0x04))\n      shr(0xe0, calldataload(0x00))\n      dup1\n      0x8da5cb5b\n      gt\n      tag_10\n      jumpi\n      dup1\n      0x8da5cb5b\n      eq\n      tag_6\n      jumpi\n      dup1\n      0x8dc654a2\n      eq\n      tag_7\n      jumpi\n      dup1\n      0xc618a1e4\n      eq\n      tag_8\n      jumpi\n      dup1\n      0xf2fde38b\n      eq\n      tag_9\n      jumpi\n      jump(tag_2)\n    tag_10:\n      dup1\n      0x2adb9e3c\n      eq\n      tag_3\n      jumpi\n      dup1\n      0x4357855e\n      eq\n      tag_4\n      jumpi\n      dup1\n      0x79ba5097\n      eq\n      tag_5\n      jumpi\n    tag_2:\n      revert(0x00, 0x00)\n        /* \"Carbon-Credits-Verification-with-Blockchain-main/contracts/chainlinkOracle.sol\":1131:1625  function requestData(uint projectId) public returns (bytes32 requestId) {... */\n    tag_3:\n      tag_11\n      0x04\n      dup1\n      calldatasize\n      sub\n      dup2\n      add\n      swap1\n      tag_12\n      swap2\n      swap1\n      tag_13\n      jump\t// in\n    tag_12:\n      tag_14\n      jump\t// in\n    tag_11:\n      mload(0x40)\n      tag_15\n      swap2\n      swap1\n      tag_16\n      jump\t// in\n    tag_15:\n      mload(0x40)\n      dup1\n      swap2\n      sub\n      swap1\n      return\n        /* \"Carbon-Credits-Verification-with-Blockchain-main/contracts/chainlinkOracle.sol\":1631:1813  function fulfill(bytes32 _requestId, uint256 _volume) public recordChainlinkFulfillment(_requestId) {... */\n    tag_4:\n      tag_17\n      0x04\n      dup1\n      calldatasize\n      sub\n      dup2\n      add\n      swap1\n      tag_18\n      swap2\n      swap1\n      tag_19\n      jump\t// in\n    tag_18:\n      tag_20\n      jump\t// in\n    tag_17:\n      stop\n        /* \"@chainlink/contracts/src/v0.8/shared/access/ConfirmedOwnerWithProposal.sol\":1026:1342  function acceptOwnership() external override {... */\n    tag_5:\n      tag_21\n      tag_22\n      jump\t// in\n    tag_21:\n      stop\n        /* \"@chainlink/contracts/src/v0.8/shared/access/ConfirmedOwnerWithProposal.sol\":1382:1463  function owner() public view override returns (address) {... */\n    tag_6:\n      tag_23\n      tag_24\n      jump\t// in\n    tag_23:\n      mload(0x40)\n      tag_25\n      swap2\n      swap1\n      tag_26\n      jump\t// in\n    tag_25:\n      mload(0x40)\n      dup1\n      swap2\n      sub\n      swap1\n      return\n        /* \"Carbon-Credits-Verification-with-Blockchain-main/contracts/chainlinkOracle.sol\":1819:2043  function withdrawLink() public onlyOwner {... */\n    tag_7:\n      tag_27\n      tag_28\n      jump\t// in\n    tag_27:\n      stop\n        /* \"Carbon-Credits-Verification-with-Blockchain-main/contracts/chainlinkOracle.sol\":630:651  uint256 public volume */\n    tag_8:\n      tag_29\n      tag_30\n      jump\t// in\n    tag_29:\n      mload(0x40)\n      tag_31\n      swap2\n      swap1\n      tag_32\n      jump\t// in\n    tag_31:\n      mload(0x40)\n      dup1\n      swap2\n      sub\n      swap1\n      return\n        /* \"@chainlink/contracts/src/v0.8/shared/access/ConfirmedOwnerWithProposal.sol\":847:945  function transferOwnership(address to) public override onlyOwner {... */\n    tag_9:\n      tag_33\n      0x04\n      dup1\n      calldatasize\n      sub\n      dup2\n      add\n      swap1\n      tag_34\n      swap2\n      swap1\n      tag_35\n      jump\t// in\n    tag_34:\n      tag_36\n      jump\t// in\n    tag_33:\n      stop\n        /* \"Carbon-Credits-Verification-with-Blockchain-main/contracts/chainlinkOracle.sol\":1131:1625  function requestData(uint projectId) public returns (bytes32 requestId) {... */\n    tag_14:\n        /* \"Carbon-Credits-Verification-with-Blockchain-main/contracts/chainlinkOracle.sol\":1184:1201  bytes32 requestId */\n      0x00\n        /* \"Carbon-Credits-Verification-with-Blockchain-main/contracts/chainlinkOracle.sol\":1213:1241  Chainlink.Request memory req */\n      0x00\n        /* \"Carbon-Credits-Verification-with-Blockchain-main/contracts/chainlinkOracle.sol\":1244:1311  _buildChainlinkRequest(jobId, address(this), this.fulfill.selector) */\n      tag_38\n        /* \"Carbon-Credits-Verification-with-Blockchain-main/contracts/chainlinkOracle.sol\":1267:1272  jobId */\n      sload(0x09)\n        /* \"Carbon-Credits-Verification-with-Blockchain-main/contracts/chainlinkOracle.sol\":1282:1286  this */\n      address\n        /* \"Carbon-Credits-Verification-with-Blockchain-main/contracts/chainlinkOracle.sol\":1289:1310  this.fulfill.selector */\n      shl(0xe0, 0x4357855e)\n        /* \"Carbon-Credits-Verification-with-Blockchain-main/contracts/chainlinkOracle.sol\":1244:1266  _buildChainlinkRequest */\n      tag_39\n        /* \"Carbon-Credits-Verification-with-Blockchain-main/contracts/chainlinkOracle.sol\":1244:1311  _buildChainlinkRequest(jobId, address(this), this.fulfill.selector) */\n      jump\t// in\n    tag_38:\n        /* \"Carbon-Credits-Verification-with-Blockchain-main/contracts/chainlinkOracle.sol\":1213:1311  Chainlink.Request memory req = _buildChainlinkRequest(jobId, address(this), this.fulfill.selector) */\n      swap1\n      pop\n        /* \"Carbon-Credits-Verification-with-Blockchain-main/contracts/chainlinkOracle.sol\":1321:1419  req._add(... */\n      tag_40\n      mload(0x40)\n      dup1\n      0x40\n      add\n      0x40\n      mstore\n      dup1\n      0x03\n      dup2\n      mstore\n      0x20\n      add\n      0x6765740000000000000000000000000000000000000000000000000000000000\n      dup2\n      mstore\n      pop\n      mload(0x40)\n      dup1\n      0x60\n      add\n      0x40\n      mstore\n      dup1\n      0x2d\n      dup2\n      mstore\n      0x20\n      add\n      data_19910a7b270f58dc4bb2a3b1f897be4e730dda68c59459df666ee941ecbdb155\n      0x2d\n      swap2\n      codecopy\n        /* \"Carbon-Credits-Verification-with-Blockchain-main/contracts/chainlinkOracle.sol\":1321:1324  req */\n      dup4\n        /* \"Carbon-Credits-Verification-with-Blockchain-main/contracts/chainlinkOracle.sol\":1321:1329  req._add */\n      tag_41\n      swap1\n        /* \"Carbon-Credits-Verification-with-Blockchain-main/contracts/chainlinkOracle.sol\":1321:1419  req._add(... */\n      swap3\n      swap2\n      swap1\n      0xffffffff\n      and\n      jump\t// in\n    tag_40:\n        /* \"Carbon-Credits-Verification-with-Blockchain-main/contracts/chainlinkOracle.sol\":1429:1452  req._add(\"path\", \"num\") */\n      tag_42\n      mload(0x40)\n      dup1\n      0x40\n      add\n      0x40\n      mstore\n      dup1\n      0x04\n      dup2\n      mstore\n      0x20\n      add\n      0x7061746800000000000000000000000000000000000000000000000000000000\n      dup2\n      mstore\n      pop\n      mload(0x40)\n      dup1\n      0x40\n      add\n      0x40\n      mstore\n      dup1\n      0x03\n      dup2\n      mstore\n      0x20\n      add\n      0x6e756d0000000000000000000000000000000000000000000000000000000000\n      dup2\n      mstore\n      pop\n        /* \"Carbon-Credits-Verification-with-Blockchain-main/contracts/chainlinkOracle.sol\":1429:1432  req */\n      dup4\n        /* \"Carbon-Credits-Verification-with-Blockchain-main/contracts/chainlinkOracle.sol\":1429:1437  req._add */\n      tag_41\n      swap1\n        /* \"Carbon-Credits-Verification-with-Blockchain-main/contracts/chainlinkOracle.sol\":1429:1452  req._add(\"path\", \"num\") */\n      swap3\n      swap2\n      swap1\n      0xffffffff\n      and\n      jump\t// in\n    tag_42:\n        /* \"Carbon-Credits-Verification-with-Blockchain-main/contracts/chainlinkOracle.sol\":1462:1480  int256 timesAmount */\n      0x00\n        /* \"Carbon-Credits-Verification-with-Blockchain-main/contracts/chainlinkOracle.sol\":1483:1484  1 */\n      0x01\n        /* \"Carbon-Credits-Verification-with-Blockchain-main/contracts/chainlinkOracle.sol\":1462:1484  int256 timesAmount = 1 */\n      swap1\n      pop\n        /* \"Carbon-Credits-Verification-with-Blockchain-main/contracts/chainlinkOracle.sol\":1494:1527  req._addInt(\"times\", timesAmount) */\n      tag_43\n      mload(0x40)\n      dup1\n      0x40\n      add\n      0x40\n      mstore\n      dup1\n      0x05\n      dup2\n      mstore\n      0x20\n      add\n      0x74696d6573000000000000000000000000000000000000000000000000000000\n      dup2\n      mstore\n      pop\n        /* \"Carbon-Credits-Verification-with-Blockchain-main/contracts/chainlinkOracle.sol\":1515:1526  timesAmount */\n      dup3\n        /* \"Carbon-Credits-Verification-with-Blockchain-main/contracts/chainlinkOracle.sol\":1494:1497  req */\n      dup5\n        /* \"Carbon-Credits-Verification-with-Blockchain-main/contracts/chainlinkOracle.sol\":1494:1505  req._addInt */\n      tag_44\n      swap1\n        /* \"Carbon-Credits-Verification-with-Blockchain-main/contracts/chainlinkOracle.sol\":1494:1527  req._addInt(\"times\", timesAmount) */\n      swap3\n      swap2\n      swap1\n      0xffffffff\n      and\n      jump\t// in\n    tag_43:\n        /* \"Carbon-Credits-Verification-with-Blockchain-main/contracts/chainlinkOracle.sol\":1542:1570  Data(\"Made the get request\") */\n      0xe8e349d9d60379b7e0a717f216d3d9efaf00b5dce8b634a63f24a5d76251059f\n      mload(0x40)\n      tag_45\n      swap1\n      tag_46\n      jump\t// in\n    tag_45:\n      mload(0x40)\n      dup1\n      swap2\n      sub\n      swap1\n      log1\n        /* \"Carbon-Credits-Verification-with-Blockchain-main/contracts/chainlinkOracle.sol\":1587:1618  _sendChainlinkRequest(req, fee) */\n      tag_47\n        /* \"Carbon-Credits-Verification-with-Blockchain-main/contracts/chainlinkOracle.sol\":1609:1612  req */\n      dup3\n        /* \"Carbon-Credits-Verification-with-Blockchain-main/contracts/chainlinkOracle.sol\":1614:1617  fee */\n      sload(0x0a)\n        /* \"Carbon-Credits-Verification-with-Blockchain-main/contracts/chainlinkOracle.sol\":1587:1608  _sendChainlinkRequest */\n      tag_48\n        /* \"Carbon-Credits-Verification-with-Blockchain-main/contracts/chainlinkOracle.sol\":1587:1618  _sendChainlinkRequest(req, fee) */\n      jump\t// in\n    tag_47:\n        /* \"Carbon-Credits-Verification-with-Blockchain-main/contracts/chainlinkOracle.sol\":1580:1618  return _sendChainlinkRequest(req, fee) */\n      swap3\n      pop\n      pop\n      pop\n        /* \"Carbon-Credits-Verification-with-Blockchain-main/contracts/chainlinkOracle.sol\":1131:1625  function requestData(uint projectId) public returns (bytes32 requestId) {... */\n      swap2\n      swap1\n      pop\n      jump\t// out\n        /* \"Carbon-Credits-Verification-with-Blockchain-main/contracts/chainlinkOracle.sol\":1631:1813  function fulfill(bytes32 _requestId, uint256 _volume) public recordChainlinkFulfillment(_requestId) {... */\n    tag_20:\n        /* \"Carbon-Credits-Verification-with-Blockchain-main/contracts/chainlinkOracle.sol\":1719:1729  _requestId */\n      dup2\n        /* \"@chainlink/contracts/src/v0.8/ChainlinkClient.sol\":11913:11930  s_pendingRequests */\n      0x05\n        /* \"@chainlink/contracts/src/v0.8/ChainlinkClient.sol\":11913:11941  s_pendingRequests[requestId] */\n      0x00\n        /* \"@chainlink/contracts/src/v0.8/ChainlinkClient.sol\":11931:11940  requestId */\n      dup3\n        /* \"@chainlink/contracts/src/v0.8/ChainlinkClient.sol\":11913:11941  s_pendingRequests[requestId] */\n      dup2\n      mstore\n      0x20\n      add\n      swap1\n      dup2\n      mstore\n      0x20\n      add\n      0x00\n      keccak256\n      0x00\n      swap1\n      sload\n      swap1\n      0x0100\n      exp\n      swap1\n      div\n      0xffffffffffffffffffffffffffffffffffffffff\n      and\n        /* \"@chainlink/contracts/src/v0.8/ChainlinkClient.sol\":11899:11941  msg.sender == s_pendingRequests[requestId] */\n      0xffffffffffffffffffffffffffffffffffffffff\n      and\n        /* \"@chainlink/contracts/src/v0.8/ChainlinkClient.sol\":11899:11909  msg.sender */\n      caller\n        /* \"@chainlink/contracts/src/v0.8/ChainlinkClient.sol\":11899:11941  msg.sender == s_pendingRequests[requestId] */\n      0xffffffffffffffffffffffffffffffffffffffff\n      and\n      eq\n        /* \"@chainlink/contracts/src/v0.8/ChainlinkClient.sol\":11891:11986  require(msg.sender == s_pendingRequests[requestId], \"Source must be the oracle of the request\") */\n      tag_50\n      jumpi\n      mload(0x40)\n      0x08c379a000000000000000000000000000000000000000000000000000000000\n      dup2\n      mstore\n      0x04\n      add\n      tag_51\n      swap1\n      tag_52\n      jump\t// in\n    tag_51:\n      mload(0x40)\n      dup1\n      swap2\n      sub\n      swap1\n      revert\n    tag_50:\n        /* \"@chainlink/contracts/src/v0.8/ChainlinkClient.sol\":11999:12016  s_pendingRequests */\n      0x05\n        /* \"@chainlink/contracts/src/v0.8/ChainlinkClient.sol\":11999:12027  s_pendingRequests[requestId] */\n      0x00\n        /* \"@chainlink/contracts/src/v0.8/ChainlinkClient.sol\":12017:12026  requestId */\n      dup3\n        /* \"@chainlink/contracts/src/v0.8/ChainlinkClient.sol\":11999:12027  s_pendingRequests[requestId] */\n      dup2\n      mstore\n      0x20\n      add\n      swap1\n      dup2\n      mstore\n      0x20\n      add\n      0x00\n      keccak256\n      0x00\n        /* \"@chainlink/contracts/src/v0.8/ChainlinkClient.sol\":11992:12027  delete s_pendingRequests[requestId] */\n      0x0100\n      exp\n      dup2\n      sload\n      swap1\n      0xffffffffffffffffffffffffffffffffffffffff\n      mul\n      not\n      and\n      swap1\n      sstore\n        /* \"@chainlink/contracts/src/v0.8/ChainlinkClient.sol\":12057:12066  requestId */\n      dup1\n        /* \"@chainlink/contracts/src/v0.8/ChainlinkClient.sol\":12038:12067  ChainlinkFulfilled(requestId) */\n      0x7cc135e0cebb02c3480ae5d74d377283180a2601f8f644edf7987b009316c63a\n      mload(0x40)\n      mload(0x40)\n      dup1\n      swap2\n      sub\n      swap1\n      log2\n        /* \"Carbon-Credits-Verification-with-Blockchain-main/contracts/chainlinkOracle.sol\":1760:1770  _requestId */\n      dup3\n        /* \"Carbon-Credits-Verification-with-Blockchain-main/contracts/chainlinkOracle.sol\":1746:1780  RequestVolume(_requestId, _volume) */\n      0x673b38182859a514d734bdfcb49d3a05c4a641dec9311d9894c9717bcb79af76\n        /* \"Carbon-Credits-Verification-with-Blockchain-main/contracts/chainlinkOracle.sol\":1772:1779  _volume */\n      dup4\n        /* \"Carbon-Credits-Verification-with-Blockchain-main/contracts/chainlinkOracle.sol\":1746:1780  RequestVolume(_requestId, _volume) */\n      mload(0x40)\n      tag_54\n      swap2\n      swap1\n      tag_32\n      jump\t// in\n    tag_54:\n      mload(0x40)\n      dup1\n      swap2\n      sub\n      swap1\n      log2\n        /* \"Carbon-Credits-Verification-with-Blockchain-main/contracts/chainlinkOracle.sol\":1799:1806  _volume */\n      dup2\n        /* \"Carbon-Credits-Verification-with-Blockchain-main/contracts/chainlinkOracle.sol\":1790:1796  volume */\n      0x08\n        /* \"Carbon-Credits-Verification-with-Blockchain-main/contracts/chainlinkOracle.sol\":1790:1806  volume = _volume */\n      dup2\n      swap1\n      sstore\n      pop\n        /* \"Carbon-Credits-Verification-with-Blockchain-main/contracts/chainlinkOracle.sol\":1631:1813  function fulfill(bytes32 _requestId, uint256 _volume) public recordChainlinkFulfillment(_requestId) {... */\n      pop\n      pop\n      pop\n      jump\t// out\n        /* \"@chainlink/contracts/src/v0.8/shared/access/ConfirmedOwnerWithProposal.sol\":1026:1342  function acceptOwnership() external override {... */\n    tag_22:\n        /* \"@chainlink/contracts/src/v0.8/shared/access/ConfirmedOwnerWithProposal.sol\":1150:1164  s_pendingOwner */\n      0x07\n      0x00\n      swap1\n      sload\n      swap1\n      0x0100\n      exp\n      swap1\n      div\n      0xffffffffffffffffffffffffffffffffffffffff\n      and\n        /* \"@chainlink/contracts/src/v0.8/shared/access/ConfirmedOwnerWithProposal.sol\":1136:1164  msg.sender == s_pendingOwner */\n      0xffffffffffffffffffffffffffffffffffffffff\n      and\n        /* \"@chainlink/contracts/src/v0.8/shared/access/ConfirmedOwnerWithProposal.sol\":1136:1146  msg.sender */\n      caller\n        /* \"@chainlink/contracts/src/v0.8/shared/access/ConfirmedOwnerWithProposal.sol\":1136:1164  msg.sender == s_pendingOwner */\n      0xffffffffffffffffffffffffffffffffffffffff\n      and\n      eq\n        /* \"@chainlink/contracts/src/v0.8/shared/access/ConfirmedOwnerWithProposal.sol\":1128:1191  require(msg.sender == s_pendingOwner, \"Must be proposed owner\") */\n      tag_56\n      jumpi\n      mload(0x40)\n      0x08c379a000000000000000000000000000000000000000000000000000000000\n      dup2\n      mstore\n      0x04\n      add\n      tag_57\n      swap1\n      tag_58\n      jump\t// in\n    tag_57:\n      mload(0x40)\n      dup1\n      swap2\n      sub\n      swap1\n      revert\n    tag_56:\n        /* \"@chainlink/contracts/src/v0.8/shared/access/ConfirmedOwnerWithProposal.sol\":1198:1214  address oldOwner */\n      0x00\n        /* \"@chainlink/contracts/src/v0.8/shared/access/ConfirmedOwnerWithProposal.sol\":1217:1224  s_owner */\n      0x06\n      0x00\n      swap1\n      sload\n      swap1\n      0x0100\n      exp\n      swap1\n      div\n      0xffffffffffffffffffffffffffffffffffffffff\n      and\n        /* \"@chainlink/contracts/src/v0.8/shared/access/ConfirmedOwnerWithProposal.sol\":1198:1224  address oldOwner = s_owner */\n      swap1\n      pop\n        /* \"@chainlink/contracts/src/v0.8/shared/access/ConfirmedOwnerWithProposal.sol\":1240:1250  msg.sender */\n      caller\n        /* \"@chainlink/contracts/src/v0.8/shared/access/ConfirmedOwnerWithProposal.sol\":1230:1237  s_owner */\n      0x06\n      0x00\n        /* \"@chainlink/contracts/src/v0.8/shared/access/ConfirmedOwnerWithProposal.sol\":1230:1250  s_owner = msg.sender */\n      0x0100\n      exp\n      dup2\n      sload\n      dup2\n      0xffffffffffffffffffffffffffffffffffffffff\n      mul\n      not\n      and\n      swap1\n      dup4\n      0xffffffffffffffffffffffffffffffffffffffff\n      and\n      mul\n      or\n      swap1\n      sstore\n      pop\n        /* \"@chainlink/contracts/src/v0.8/shared/access/ConfirmedOwnerWithProposal.sol\":1281:1282  0 */\n      0x00\n        /* \"@chainlink/contracts/src/v0.8/shared/access/ConfirmedOwnerWithProposal.sol\":1256:1270  s_pendingOwner */\n      0x07\n      0x00\n        /* \"@chainlink/contracts/src/v0.8/shared/access/ConfirmedOwnerWithProposal.sol\":1256:1283  s_pendingOwner = address(0) */\n      0x0100\n      exp\n      dup2\n      sload\n      dup2\n      0xffffffffffffffffffffffffffffffffffffffff\n      mul\n      not\n      and\n      swap1\n      dup4\n      0xffffffffffffffffffffffffffffffffffffffff\n      and\n      mul\n      or\n      swap1\n      sstore\n      pop\n        /* \"@chainlink/contracts/src/v0.8/shared/access/ConfirmedOwnerWithProposal.sol\":1326:1336  msg.sender */\n      caller\n        /* \"@chainlink/contracts/src/v0.8/shared/access/ConfirmedOwnerWithProposal.sol\":1295:1337  OwnershipTransferred(oldOwner, msg.sender) */\n      0xffffffffffffffffffffffffffffffffffffffff\n      and\n        /* \"@chainlink/contracts/src/v0.8/shared/access/ConfirmedOwnerWithProposal.sol\":1316:1324  oldOwner */\n      dup2\n        /* \"@chainlink/contracts/src/v0.8/shared/access/ConfirmedOwnerWithProposal.sol\":1295:1337  OwnershipTransferred(oldOwner, msg.sender) */\n      0xffffffffffffffffffffffffffffffffffffffff\n      and\n      0x8be0079c531659141344cd1fd0a4f28419497f9722a3daafe3b4186f6b6457e0\n      mload(0x40)\n      mload(0x40)\n      dup1\n      swap2\n      sub\n      swap1\n      log3\n        /* \"@chainlink/contracts/src/v0.8/shared/access/ConfirmedOwnerWithProposal.sol\":1071:1342  {... */\n      pop\n        /* \"@chainlink/contracts/src/v0.8/shared/access/ConfirmedOwnerWithProposal.sol\":1026:1342  function acceptOwnership() external override {... */\n      jump\t// out\n        /* \"@chainlink/contracts/src/v0.8/shared/access/ConfirmedOwnerWithProposal.sol\":1382:1463  function owner() public view override returns (address) {... */\n    tag_24:\n        /* \"@chainlink/contracts/src/v0.8/shared/access/ConfirmedOwnerWithProposal.sol\":1429:1436  address */\n      0x00\n        /* \"@chainlink/contracts/src/v0.8/shared/access/ConfirmedOwnerWithProposal.sol\":1451:1458  s_owner */\n      0x06\n      0x00\n      swap1\n      sload\n      swap1\n      0x0100\n      exp\n      swap1\n      div\n      0xffffffffffffffffffffffffffffffffffffffff\n      and\n        /* \"@chainlink/contracts/src/v0.8/shared/access/ConfirmedOwnerWithProposal.sol\":1444:1458  return s_owner */\n      swap1\n      pop\n        /* \"@chainlink/contracts/src/v0.8/shared/access/ConfirmedOwnerWithProposal.sol\":1382:1463  function owner() public view override returns (address) {... */\n      swap1\n      jump\t// out\n        /* \"Carbon-Credits-Verification-with-Blockchain-main/contracts/chainlinkOracle.sol\":1819:2043  function withdrawLink() public onlyOwner {... */\n    tag_28:\n        /* \"@chainlink/contracts/src/v0.8/shared/access/ConfirmedOwnerWithProposal.sol\":2075:2095  _validateOwnership() */\n      tag_61\n        /* \"@chainlink/contracts/src/v0.8/shared/access/ConfirmedOwnerWithProposal.sol\":2075:2093  _validateOwnership */\n      tag_62\n        /* \"@chainlink/contracts/src/v0.8/shared/access/ConfirmedOwnerWithProposal.sol\":2075:2095  _validateOwnership() */\n      jump\t// in\n    tag_61:\n        /* \"Carbon-Credits-Verification-with-Blockchain-main/contracts/chainlinkOracle.sol\":1870:1893  LinkTokenInterface link */\n      0x00\n        /* \"Carbon-Credits-Verification-with-Blockchain-main/contracts/chainlinkOracle.sol\":1915:1939  _chainlinkTokenAddress() */\n      tag_64\n        /* \"Carbon-Credits-Verification-with-Blockchain-main/contracts/chainlinkOracle.sol\":1915:1937  _chainlinkTokenAddress */\n      tag_65\n        /* \"Carbon-Credits-Verification-with-Blockchain-main/contracts/chainlinkOracle.sol\":1915:1939  _chainlinkTokenAddress() */\n      jump\t// in\n    tag_64:\n        /* \"Carbon-Credits-Verification-with-Blockchain-main/contracts/chainlinkOracle.sol\":1870:1940  LinkTokenInterface link = LinkTokenInterface(_chainlinkTokenAddress()) */\n      swap1\n      pop\n        /* \"Carbon-Credits-Verification-with-Blockchain-main/contracts/chainlinkOracle.sol\":1958:1962  link */\n      dup1\n        /* \"Carbon-Credits-Verification-with-Blockchain-main/contracts/chainlinkOracle.sol\":1958:1971  link.transfer */\n      0xffffffffffffffffffffffffffffffffffffffff\n      and\n      0xa9059cbb\n        /* \"Carbon-Credits-Verification-with-Blockchain-main/contracts/chainlinkOracle.sol\":1972:1982  msg.sender */\n      caller\n        /* \"Carbon-Credits-Verification-with-Blockchain-main/contracts/chainlinkOracle.sol\":1984:1988  link */\n      dup4\n        /* \"Carbon-Credits-Verification-with-Blockchain-main/contracts/chainlinkOracle.sol\":1984:1998  link.balanceOf */\n      0xffffffffffffffffffffffffffffffffffffffff\n      and\n      0x70a08231\n        /* \"Carbon-Credits-Verification-with-Blockchain-main/contracts/chainlinkOracle.sol\":2007:2011  this */\n      address\n        /* \"Carbon-Credits-Verification-with-Blockchain-main/contracts/chainlinkOracle.sol\":1984:2013  link.balanceOf(address(this)) */\n      mload(0x40)\n      dup3\n      0xffffffff\n      and\n      0xe0\n      shl\n      dup2\n      mstore\n      0x04\n      add\n      tag_66\n      swap2\n      swap1\n      tag_26\n      jump\t// in\n    tag_66:\n      0x20\n      mload(0x40)\n      dup1\n      dup4\n      sub\n      dup2\n      dup7\n      gas\n      staticcall\n      iszero\n      dup1\n      iszero\n      tag_68\n      jumpi\n      returndatacopy(0x00, 0x00, returndatasize)\n      revert(0x00, returndatasize)\n    tag_68:\n      pop\n      pop\n      pop\n      pop\n      mload(0x40)\n      returndatasize\n      not(0x1f)\n      0x1f\n      dup3\n      add\n      and\n      dup3\n      add\n      dup1\n      0x40\n      mstore\n      pop\n      dup2\n      add\n      swap1\n      tag_69\n      swap2\n      swap1\n      tag_70\n      jump\t// in\n    tag_69:\n        /* \"Carbon-Credits-Verification-with-Blockchain-main/contracts/chainlinkOracle.sol\":1958:2014  link.transfer(msg.sender, link.balanceOf(address(this))) */\n      mload(0x40)\n      dup4\n      0xffffffff\n      and\n      0xe0\n      shl\n      dup2\n      mstore\n      0x04\n      add\n      tag_71\n      swap3\n      swap2\n      swap1\n      tag_72\n      jump\t// in\n    tag_71:\n      0x20\n      mload(0x40)\n      dup1\n      dup4\n      sub\n      dup2\n      0x00\n      dup8\n      gas\n      call\n      iszero\n      dup1\n      iszero\n      tag_74\n      jumpi\n      returndatacopy(0x00, 0x00, returndatasize)\n      revert(0x00, returndatasize)\n    tag_74:\n      pop\n      pop\n      pop\n      pop\n      mload(0x40)\n      returndatasize\n      not(0x1f)\n      0x1f\n      dup3\n      add\n      and\n      dup3\n      add\n      dup1\n      0x40\n      mstore\n      pop\n      dup2\n      add\n      swap1\n      tag_75\n      swap2\n      swap1\n      tag_76\n      jump\t// in\n    tag_75:\n        /* \"Carbon-Credits-Verification-with-Blockchain-main/contracts/chainlinkOracle.sol\":1950:2036  require(link.transfer(msg.sender, link.balanceOf(address(this))),\"Unable to transfer\") */\n      tag_77\n      jumpi\n      mload(0x40)\n      0x08c379a000000000000000000000000000000000000000000000000000000000\n      dup2\n      mstore\n      0x04\n      add\n      tag_78\n      swap1\n      tag_79\n      jump\t// in\n    tag_78:\n      mload(0x40)\n      dup1\n      swap2\n      sub\n      swap1\n      revert\n    tag_77:\n        /* \"Carbon-Credits-Verification-with-Blockchain-main/contracts/chainlinkOracle.sol\":1860:2043  {... */\n      pop\n        /* \"Carbon-Credits-Verification-with-Blockchain-main/contracts/chainlinkOracle.sol\":1819:2043  function withdrawLink() public onlyOwner {... */\n      jump\t// out\n        /* \"Carbon-Credits-Verification-with-Blockchain-main/contracts/chainlinkOracle.sol\":630:651  uint256 public volume */\n    tag_30:\n      sload(0x08)\n      dup2\n      jump\t// out\n        /* \"@chainlink/contracts/src/v0.8/shared/access/ConfirmedOwnerWithProposal.sol\":847:945  function transferOwnership(address to) public override onlyOwner {... */\n    tag_36:\n        /* \"@chainlink/contracts/src/v0.8/shared/access/ConfirmedOwnerWithProposal.sol\":2075:2095  _validateOwnership() */\n      tag_81\n        /* \"@chainlink/contracts/src/v0.8/shared/access/ConfirmedOwnerWithProposal.sol\":2075:2093  _validateOwnership */\n      tag_62\n        /* \"@chainlink/contracts/src/v0.8/shared/access/ConfirmedOwnerWithProposal.sol\":2075:2095  _validateOwnership() */\n      jump\t// in\n    tag_81:\n        /* \"@chainlink/contracts/src/v0.8/shared/access/ConfirmedOwnerWithProposal.sol\":918:940  _transferOwnership(to) */\n      tag_83\n        /* \"@chainlink/contracts/src/v0.8/shared/access/ConfirmedOwnerWithProposal.sol\":937:939  to */\n      dup2\n        /* \"@chainlink/contracts/src/v0.8/shared/access/ConfirmedOwnerWithProposal.sol\":918:936  _transferOwnership */\n      tag_84\n        /* \"@chainlink/contracts/src/v0.8/shared/access/ConfirmedOwnerWithProposal.sol\":918:940  _transferOwnership(to) */\n      jump\t// in\n    tag_83:\n        /* \"@chainlink/contracts/src/v0.8/shared/access/ConfirmedOwnerWithProposal.sol\":847:945  function transferOwnership(address to) public override onlyOwner {... */\n      pop\n      jump\t// out\n        /* \"@chainlink/contracts/src/v0.8/ChainlinkClient.sol\":2041:2326  function _buildChainlinkRequest(... */\n    tag_39:\n        /* \"@chainlink/contracts/src/v0.8/ChainlinkClient.sol\":2184:2208  Chainlink.Request memory */\n      tag_85\n      tag_86\n      jump\t// in\n    tag_85:\n        /* \"@chainlink/contracts/src/v0.8/ChainlinkClient.sol\":2216:2244  Chainlink.Request memory req */\n      tag_88\n      tag_86\n      jump\t// in\n    tag_88:\n        /* \"@chainlink/contracts/src/v0.8/ChainlinkClient.sol\":2257:2321  req._initialize(specId, callbackAddr, callbackFunctionSignature) */\n      tag_89\n        /* \"@chainlink/contracts/src/v0.8/ChainlinkClient.sol\":2273:2279  specId */\n      dup6\n        /* \"@chainlink/contracts/src/v0.8/ChainlinkClient.sol\":2281:2293  callbackAddr */\n      dup6\n        /* \"@chainlink/contracts/src/v0.8/ChainlinkClient.sol\":2295:2320  callbackFunctionSignature */\n      dup6\n        /* \"@chainlink/contracts/src/v0.8/ChainlinkClient.sol\":2257:2260  req */\n      dup5\n        /* \"@chainlink/contracts/src/v0.8/ChainlinkClient.sol\":2257:2272  req._initialize */\n      tag_90\n      swap1\n        /* \"@chainlink/contracts/src/v0.8/ChainlinkClient.sol\":2257:2321  req._initialize(specId, callbackAddr, callbackFunctionSignature) */\n      swap4\n      swap3\n      swap2\n      swap1\n      0xffffffff\n      and\n      jump\t// in\n    tag_89:\n        /* \"@chainlink/contracts/src/v0.8/ChainlinkClient.sol\":2250:2321  return req._initialize(specId, callbackAddr, callbackFunctionSignature) */\n      swap2\n      pop\n      pop\n        /* \"@chainlink/contracts/src/v0.8/ChainlinkClient.sol\":2041:2326  function _buildChainlinkRequest(... */\n      swap4\n      swap3\n      pop\n      pop\n      pop\n      jump\t// out\n        /* \"@chainlink/contracts/src/v0.8/Chainlink.sol\":1994:2154  function _add(Request memory self, string memory key, string memory value) internal pure {... */\n    tag_41:\n        /* \"@chainlink/contracts/src/v0.8/Chainlink.sol\":2089:2115  self.buf.encodeString(key) */\n      tag_92\n        /* \"@chainlink/contracts/src/v0.8/Chainlink.sol\":2111:2114  key */\n      dup3\n        /* \"@chainlink/contracts/src/v0.8/Chainlink.sol\":2089:2093  self */\n      dup5\n        /* \"@chainlink/contracts/src/v0.8/Chainlink.sol\":2089:2097  self.buf */\n      0x80\n      add\n      mload\n        /* \"@chainlink/contracts/src/v0.8/Chainlink.sol\":2089:2110  self.buf.encodeString */\n      tag_93\n      swap1\n        /* \"@chainlink/contracts/src/v0.8/Chainlink.sol\":2089:2115  self.buf.encodeString(key) */\n      swap2\n      swap1\n      0xffffffff\n      and\n      jump\t// in\n    tag_92:\n        /* \"@chainlink/contracts/src/v0.8/Chainlink.sol\":2121:2149  self.buf.encodeString(value) */\n      tag_94\n        /* \"@chainlink/contracts/src/v0.8/Chainlink.sol\":2143:2148  value */\n      dup2\n        /* \"@chainlink/contracts/src/v0.8/Chainlink.sol\":2121:2125  self */\n      dup5\n        /* \"@chainlink/contracts/src/v0.8/Chainlink.sol\":2121:2129  self.buf */\n      0x80\n      add\n      mload\n        /* \"@chainlink/contracts/src/v0.8/Chainlink.sol\":2121:2142  self.buf.encodeString */\n      tag_93\n      swap1\n        /* \"@chainlink/contracts/src/v0.8/Chainlink.sol\":2121:2149  self.buf.encodeString(value) */\n      swap2\n      swap1\n      0xffffffff\n      and\n      jump\t// in\n    tag_94:\n        /* \"@chainlink/contracts/src/v0.8/Chainlink.sol\":1994:2154  function _add(Request memory self, string memory key, string memory value) internal pure {... */\n      pop\n      pop\n      pop\n      jump\t// out\n        /* \"@chainlink/contracts/src/v0.8/Chainlink.sol\":2725:2878  function _addInt(Request memory self, string memory key, int256 value) internal pure {... */\n    tag_44:\n        /* \"@chainlink/contracts/src/v0.8/Chainlink.sol\":2816:2842  self.buf.encodeString(key) */\n      tag_96\n        /* \"@chainlink/contracts/src/v0.8/Chainlink.sol\":2838:2841  key */\n      dup3\n        /* \"@chainlink/contracts/src/v0.8/Chainlink.sol\":2816:2820  self */\n      dup5\n        /* \"@chainlink/contracts/src/v0.8/Chainlink.sol\":2816:2824  self.buf */\n      0x80\n      add\n      mload\n        /* \"@chainlink/contracts/src/v0.8/Chainlink.sol\":2816:2837  self.buf.encodeString */\n      tag_93\n      swap1\n        /* \"@chainlink/contracts/src/v0.8/Chainlink.sol\":2816:2842  self.buf.encodeString(key) */\n      swap2\n      swap1\n      0xffffffff\n      and\n      jump\t// in\n    tag_96:\n        /* \"@chainlink/contracts/src/v0.8/Chainlink.sol\":2848:2873  self.buf.encodeInt(value) */\n      tag_97\n        /* \"@chainlink/contracts/src/v0.8/Chainlink.sol\":2867:2872  value */\n      dup2\n        /* \"@chainlink/contracts/src/v0.8/Chainlink.sol\":2848:2852  self */\n      dup5\n        /* \"@chainlink/contracts/src/v0.8/Chainlink.sol\":2848:2856  self.buf */\n      0x80\n      add\n      mload\n        /* \"@chainlink/contracts/src/v0.8/Chainlink.sol\":2848:2866  self.buf.encodeInt */\n      tag_98\n      swap1\n        /* \"@chainlink/contracts/src/v0.8/Chainlink.sol\":2848:2873  self.buf.encodeInt(value) */\n      swap2\n      swap1\n      0xffffffff\n      and\n      jump\t// in\n    tag_97:\n        /* \"@chainlink/contracts/src/v0.8/Chainlink.sol\":2725:2878  function _addInt(Request memory self, string memory key, int256 value) internal pure {... */\n      pop\n      pop\n      pop\n      jump\t// out\n        /* \"@chainlink/contracts/src/v0.8/ChainlinkClient.sol\":3185:3364  function _sendChainlinkRequest(Chainlink.Request memory req, uint256 payment) internal returns (bytes32) {... */\n    tag_48:\n        /* \"@chainlink/contracts/src/v0.8/ChainlinkClient.sol\":3281:3288  bytes32 */\n      0x00\n        /* \"@chainlink/contracts/src/v0.8/ChainlinkClient.sol\":3303:3359  _sendChainlinkRequestTo(address(s_oracle), req, payment) */\n      tag_100\n        /* \"@chainlink/contracts/src/v0.8/ChainlinkClient.sol\":3335:3343  s_oracle */\n      0x03\n      0x00\n      swap1\n      sload\n      swap1\n      0x0100\n      exp\n      swap1\n      div\n      0xffffffffffffffffffffffffffffffffffffffff\n      and\n        /* \"@chainlink/contracts/src/v0.8/ChainlinkClient.sol\":3346:3349  req */\n      dup5\n        /* \"@chainlink/contracts/src/v0.8/ChainlinkClient.sol\":3351:3358  payment */\n      dup5\n        /* \"@chainlink/contracts/src/v0.8/ChainlinkClient.sol\":3303:3326  _sendChainlinkRequestTo */\n      tag_101\n        /* \"@chainlink/contracts/src/v0.8/ChainlinkClient.sol\":3303:3359  _sendChainlinkRequestTo(address(s_oracle), req, payment) */\n      jump\t// in\n    tag_100:\n        /* \"@chainlink/contracts/src/v0.8/ChainlinkClient.sol\":3296:3359  return _sendChainlinkRequestTo(address(s_oracle), req, payment) */\n      swap1\n      pop\n        /* \"@chainlink/contracts/src/v0.8/ChainlinkClient.sol\":3185:3364  function _sendChainlinkRequest(Chainlink.Request memory req, uint256 payment) internal returns (bytes32) {... */\n      swap3\n      swap2\n      pop\n      pop\n      jump\t// out\n        /* \"@chainlink/contracts/src/v0.8/shared/access/ConfirmedOwnerWithProposal.sol\":1809:1971  function _validateOwnership() internal view {... */\n    tag_62:\n        /* \"@chainlink/contracts/src/v0.8/shared/access/ConfirmedOwnerWithProposal.sol\":1932:1939  s_owner */\n      0x06\n      0x00\n      swap1\n      sload\n      swap1\n      0x0100\n      exp\n      swap1\n      div\n      0xffffffffffffffffffffffffffffffffffffffff\n      and\n        /* \"@chainlink/contracts/src/v0.8/shared/access/ConfirmedOwnerWithProposal.sol\":1918:1939  msg.sender == s_owner */\n      0xffffffffffffffffffffffffffffffffffffffff\n      and\n        /* \"@chainlink/contracts/src/v0.8/shared/access/ConfirmedOwnerWithProposal.sol\":1918:1928  msg.sender */\n      caller\n        /* \"@chainlink/contracts/src/v0.8/shared/access/ConfirmedOwnerWithProposal.sol\":1918:1939  msg.sender == s_owner */\n      0xffffffffffffffffffffffffffffffffffffffff\n      and\n      eq\n        /* \"@chainlink/contracts/src/v0.8/shared/access/ConfirmedOwnerWithProposal.sol\":1910:1966  require(msg.sender == s_owner, \"Only callable by owner\") */\n      tag_103\n      jumpi\n      mload(0x40)\n      0x08c379a000000000000000000000000000000000000000000000000000000000\n      dup2\n      mstore\n      0x04\n      add\n      tag_104\n      swap1\n      tag_105\n      jump\t// in\n    tag_104:\n      mload(0x40)\n      dup1\n      swap2\n      sub\n      swap1\n      revert\n    tag_103:\n        /* \"@chainlink/contracts/src/v0.8/shared/access/ConfirmedOwnerWithProposal.sol\":1809:1971  function _validateOwnership() internal view {... */\n      jump\t// out\n        /* \"@chainlink/contracts/src/v0.8/ChainlinkClient.sol\":9325:9424  function _chainlinkTokenAddress() internal view returns (address) {... */\n    tag_65:\n        /* \"@chainlink/contracts/src/v0.8/ChainlinkClient.sol\":9382:9389  address */\n      0x00\n        /* \"@chainlink/contracts/src/v0.8/ChainlinkClient.sol\":9412:9418  s_link */\n      0x02\n      0x00\n      swap1\n      sload\n      swap1\n      0x0100\n      exp\n      swap1\n      div\n      0xffffffffffffffffffffffffffffffffffffffff\n      and\n        /* \"@chainlink/contracts/src/v0.8/ChainlinkClient.sol\":9397:9419  return address(s_link) */\n      swap1\n      pop\n        /* \"@chainlink/contracts/src/v0.8/ChainlinkClient.sol\":9325:9424  function _chainlinkTokenAddress() internal view returns (address) {... */\n      swap1\n      jump\t// out\n        /* \"@chainlink/contracts/src/v0.8/shared/access/ConfirmedOwnerWithProposal.sol\":1536:1775  function _transferOwnership(address to) private {... */\n    tag_84:\n        /* \"@chainlink/contracts/src/v0.8/shared/access/ConfirmedOwnerWithProposal.sol\":1655:1665  msg.sender */\n      caller\n        /* \"@chainlink/contracts/src/v0.8/shared/access/ConfirmedOwnerWithProposal.sol\":1649:1665  to != msg.sender */\n      0xffffffffffffffffffffffffffffffffffffffff\n      and\n        /* \"@chainlink/contracts/src/v0.8/shared/access/ConfirmedOwnerWithProposal.sol\":1649:1651  to */\n      dup2\n        /* \"@chainlink/contracts/src/v0.8/shared/access/ConfirmedOwnerWithProposal.sol\":1649:1665  to != msg.sender */\n      0xffffffffffffffffffffffffffffffffffffffff\n      and\n      sub\n        /* \"@chainlink/contracts/src/v0.8/shared/access/ConfirmedOwnerWithProposal.sol\":1641:1693  require(to != msg.sender, \"Cannot transfer to self\") */\n      tag_108\n      jumpi\n      mload(0x40)\n      0x08c379a000000000000000000000000000000000000000000000000000000000\n      dup2\n      mstore\n      0x04\n      add\n      tag_109\n      swap1\n      tag_110\n      jump\t// in\n    tag_109:\n      mload(0x40)\n      dup1\n      swap2\n      sub\n      swap1\n      revert\n    tag_108:\n        /* \"@chainlink/contracts/src/v0.8/shared/access/ConfirmedOwnerWithProposal.sol\":1717:1719  to */\n      dup1\n        /* \"@chainlink/contracts/src/v0.8/shared/access/ConfirmedOwnerWithProposal.sol\":1700:1714  s_pendingOwner */\n      0x07\n      0x00\n        /* \"@chainlink/contracts/src/v0.8/shared/access/ConfirmedOwnerWithProposal.sol\":1700:1719  s_pendingOwner = to */\n      0x0100\n      exp\n      dup2\n      sload\n      dup2\n      0xffffffffffffffffffffffffffffffffffffffff\n      mul\n      not\n      and\n      swap1\n      dup4\n      0xffffffffffffffffffffffffffffffffffffffff\n      and\n      mul\n      or\n      swap1\n      sstore\n      pop\n        /* \"@chainlink/contracts/src/v0.8/shared/access/ConfirmedOwnerWithProposal.sol\":1767:1769  to */\n      dup1\n        /* \"@chainlink/contracts/src/v0.8/shared/access/ConfirmedOwnerWithProposal.sol\":1731:1770  OwnershipTransferRequested(s_owner, to) */\n      0xffffffffffffffffffffffffffffffffffffffff\n      and\n        /* \"@chainlink/contracts/src/v0.8/shared/access/ConfirmedOwnerWithProposal.sol\":1758:1765  s_owner */\n      0x06\n      0x00\n      swap1\n      sload\n      swap1\n      0x0100\n      exp\n      swap1\n      div\n      0xffffffffffffffffffffffffffffffffffffffff\n      and\n        /* \"@chainlink/contracts/src/v0.8/shared/access/ConfirmedOwnerWithProposal.sol\":1731:1770  OwnershipTransferRequested(s_owner, to) */\n      0xffffffffffffffffffffffffffffffffffffffff\n      and\n      0xed8889f560326eb138920d842192f0eb3dd22b4f139c87a2c57538e05bae1278\n      mload(0x40)\n      mload(0x40)\n      dup1\n      swap2\n      sub\n      swap1\n      log3\n        /* \"@chainlink/contracts/src/v0.8/shared/access/ConfirmedOwnerWithProposal.sol\":1536:1775  function _transferOwnership(address to) private {... */\n      pop\n      jump\t// out\n        /* \"@chainlink/contracts/src/v0.8/Chainlink.sol\":1028:1380  function _initialize(... */\n    tag_90:\n        /* \"@chainlink/contracts/src/v0.8/Chainlink.sol\":1171:1195  Chainlink.Request memory */\n      tag_111\n      tag_86\n      jump\t// in\n    tag_111:\n        /* \"@chainlink/contracts/src/v0.8/Chainlink.sol\":1203:1252  BufferChainlink.init(self.buf, defaultBufferSize) */\n      tag_113\n        /* \"@chainlink/contracts/src/v0.8/Chainlink.sol\":1224:1228  self */\n      dup6\n        /* \"@chainlink/contracts/src/v0.8/Chainlink.sol\":1224:1232  self.buf */\n      0x80\n      add\n      mload\n        /* \"@chainlink/contracts/src/v0.8/Chainlink.sol\":447:450  256 */\n      0x0100\n        /* \"@chainlink/contracts/src/v0.8/Chainlink.sol\":1203:1223  BufferChainlink.init */\n      tag_114\n        /* \"@chainlink/contracts/src/v0.8/Chainlink.sol\":1203:1252  BufferChainlink.init(self.buf, defaultBufferSize) */\n      jump\t// in\n    tag_113:\n      pop\n        /* \"@chainlink/contracts/src/v0.8/Chainlink.sol\":1268:1273  jobId */\n      dup4\n        /* \"@chainlink/contracts/src/v0.8/Chainlink.sol\":1258:1262  self */\n      dup6\n        /* \"@chainlink/contracts/src/v0.8/Chainlink.sol\":1258:1265  self.id */\n      0x00\n      add\n        /* \"@chainlink/contracts/src/v0.8/Chainlink.sol\":1258:1273  self.id = jobId */\n      dup2\n      dup2\n      mstore\n      pop\n      pop\n        /* \"@chainlink/contracts/src/v0.8/Chainlink.sol\":1302:1314  callbackAddr */\n      dup3\n        /* \"@chainlink/contracts/src/v0.8/Chainlink.sol\":1279:1283  self */\n      dup6\n        /* \"@chainlink/contracts/src/v0.8/Chainlink.sol\":1279:1299  self.callbackAddress */\n      0x20\n      add\n        /* \"@chainlink/contracts/src/v0.8/Chainlink.sol\":1279:1314  self.callbackAddress = callbackAddr */\n      swap1\n      0xffffffffffffffffffffffffffffffffffffffff\n      and\n      swap1\n      dup2\n      0xffffffffffffffffffffffffffffffffffffffff\n      and\n      dup2\n      mstore\n      pop\n      pop\n        /* \"@chainlink/contracts/src/v0.8/Chainlink.sol\":1346:1358  callbackFunc */\n      dup2\n        /* \"@chainlink/contracts/src/v0.8/Chainlink.sol\":1320:1324  self */\n      dup6\n        /* \"@chainlink/contracts/src/v0.8/Chainlink.sol\":1320:1343  self.callbackFunctionId */\n      0x40\n      add\n        /* \"@chainlink/contracts/src/v0.8/Chainlink.sol\":1320:1358  self.callbackFunctionId = callbackFunc */\n      swap1\n      not(0xffffffffffffffffffffffffffffffffffffffffffffffffffffffff)\n      and\n      swap1\n      dup2\n      not(0xffffffffffffffffffffffffffffffffffffffffffffffffffffffff)\n      and\n      dup2\n      mstore\n      pop\n      pop\n        /* \"@chainlink/contracts/src/v0.8/Chainlink.sol\":1371:1375  self */\n      dup5\n        /* \"@chainlink/contracts/src/v0.8/Chainlink.sol\":1364:1375  return self */\n      swap1\n      pop\n        /* \"@chainlink/contracts/src/v0.8/Chainlink.sol\":1028:1380  function _initialize(... */\n      swap5\n      swap4\n      pop\n      pop\n      pop\n      pop\n      jump\t// out\n        /* \"@chainlink/contracts/src/v0.8/vendor/CBORChainlink.sol\":2777:2981  function encodeString(BufferChainlink.buffer memory buf, string memory value) internal pure {... */\n    tag_93:\n        /* \"@chainlink/contracts/src/v0.8/vendor/CBORChainlink.sol\":2875:2946  encodeFixedNumeric(buf, MAJOR_TYPE_STRING, uint64(bytes(value).length)) */\n      tag_116\n        /* \"@chainlink/contracts/src/v0.8/vendor/CBORChainlink.sol\":2894:2897  buf */\n      dup3\n        /* \"@chainlink/contracts/src/v0.8/vendor/CBORChainlink.sol\":383:384  3 */\n      0x03\n        /* \"@chainlink/contracts/src/v0.8/vendor/CBORChainlink.sol\":2931:2936  value */\n      dup4\n        /* \"@chainlink/contracts/src/v0.8/vendor/CBORChainlink.sol\":2925:2944  bytes(value).length */\n      mload\n        /* \"@chainlink/contracts/src/v0.8/vendor/CBORChainlink.sol\":2875:2893  encodeFixedNumeric */\n      tag_117\n        /* \"@chainlink/contracts/src/v0.8/vendor/CBORChainlink.sol\":2875:2946  encodeFixedNumeric(buf, MAJOR_TYPE_STRING, uint64(bytes(value).length)) */\n      jump\t// in\n    tag_116:\n        /* \"@chainlink/contracts/src/v0.8/vendor/CBORChainlink.sol\":2952:2976  buf.append(bytes(value)) */\n      tag_118\n        /* \"@chainlink/contracts/src/v0.8/vendor/CBORChainlink.sol\":2969:2974  value */\n      dup2\n        /* \"@chainlink/contracts/src/v0.8/vendor/CBORChainlink.sol\":2952:2955  buf */\n      dup4\n        /* \"@chainlink/contracts/src/v0.8/vendor/CBORChainlink.sol\":2952:2962  buf.append */\n      tag_119\n      swap1\n        /* \"@chainlink/contracts/src/v0.8/vendor/CBORChainlink.sol\":2952:2976  buf.append(bytes(value)) */\n      swap2\n      swap1\n      0xffffffff\n      and\n      jump\t// in\n    tag_118:\n      pop\n        /* \"@chainlink/contracts/src/v0.8/vendor/CBORChainlink.sol\":2777:2981  function encodeString(BufferChainlink.buffer memory buf, string memory value) internal pure {... */\n      pop\n      pop\n      jump\t// out\n        /* \"@chainlink/contracts/src/v0.8/vendor/CBORChainlink.sol\":1704:2150  function encodeInt(BufferChainlink.buffer memory buf, int value) internal pure {... */\n    tag_98:\n        /* \"@chainlink/contracts/src/v0.8/vendor/CBORChainlink.sol\":1800:1820  -0x10000000000000000 */\n      0xffffffffffffffffffffffffffffffffffffffffffffffff0000000000000000\n        /* \"@chainlink/contracts/src/v0.8/vendor/CBORChainlink.sol\":1792:1797  value */\n      dup2\n        /* \"@chainlink/contracts/src/v0.8/vendor/CBORChainlink.sol\":1792:1820  value < -0x10000000000000000 */\n      slt\n        /* \"@chainlink/contracts/src/v0.8/vendor/CBORChainlink.sol\":1789:2146  if(value < -0x10000000000000000) {... */\n      iszero\n      tag_121\n      jumpi\n        /* \"@chainlink/contracts/src/v0.8/vendor/CBORChainlink.sol\":1830:1860  encodeSignedBigNum(buf, value) */\n      tag_122\n        /* \"@chainlink/contracts/src/v0.8/vendor/CBORChainlink.sol\":1849:1852  buf */\n      dup3\n        /* \"@chainlink/contracts/src/v0.8/vendor/CBORChainlink.sol\":1854:1859  value */\n      dup3\n        /* \"@chainlink/contracts/src/v0.8/vendor/CBORChainlink.sol\":1830:1848  encodeSignedBigNum */\n      tag_123\n        /* \"@chainlink/contracts/src/v0.8/vendor/CBORChainlink.sol\":1830:1860  encodeSignedBigNum(buf, value) */\n      jump\t// in\n    tag_122:\n        /* \"@chainlink/contracts/src/v0.8/vendor/CBORChainlink.sol\":1789:2146  if(value < -0x10000000000000000) {... */\n      jump(tag_124)\n    tag_121:\n        /* \"@chainlink/contracts/src/v0.8/vendor/CBORChainlink.sol\":1884:1902  0xFFFFFFFFFFFFFFFF */\n      0xffffffffffffffff\n        /* \"@chainlink/contracts/src/v0.8/vendor/CBORChainlink.sol\":1876:1881  value */\n      dup2\n        /* \"@chainlink/contracts/src/v0.8/vendor/CBORChainlink.sol\":1876:1902  value > 0xFFFFFFFFFFFFFFFF */\n      sgt\n        /* \"@chainlink/contracts/src/v0.8/vendor/CBORChainlink.sol\":1873:2146  if(value > 0xFFFFFFFFFFFFFFFF) {... */\n      iszero\n      tag_125\n      jumpi\n        /* \"@chainlink/contracts/src/v0.8/vendor/CBORChainlink.sol\":1912:1942  encodeBigNum(buf, uint(value)) */\n      tag_126\n        /* \"@chainlink/contracts/src/v0.8/vendor/CBORChainlink.sol\":1925:1928  buf */\n      dup3\n        /* \"@chainlink/contracts/src/v0.8/vendor/CBORChainlink.sol\":1935:1940  value */\n      dup3\n        /* \"@chainlink/contracts/src/v0.8/vendor/CBORChainlink.sol\":1912:1924  encodeBigNum */\n      tag_127\n        /* \"@chainlink/contracts/src/v0.8/vendor/CBORChainlink.sol\":1912:1942  encodeBigNum(buf, uint(value)) */\n      jump\t// in\n    tag_126:\n        /* \"@chainlink/contracts/src/v0.8/vendor/CBORChainlink.sol\":1873:2146  if(value > 0xFFFFFFFFFFFFFFFF) {... */\n      jump(tag_128)\n    tag_125:\n        /* \"@chainlink/contracts/src/v0.8/vendor/CBORChainlink.sol\":1967:1968  0 */\n      0x00\n        /* \"@chainlink/contracts/src/v0.8/vendor/CBORChainlink.sol\":1958:1963  value */\n      dup2\n        /* \"@chainlink/contracts/src/v0.8/vendor/CBORChainlink.sol\":1958:1968  value >= 0 */\n      slt\n        /* \"@chainlink/contracts/src/v0.8/vendor/CBORChainlink.sol\":1955:2146  if(value >= 0) {... */\n      tag_129\n      jumpi\n        /* \"@chainlink/contracts/src/v0.8/vendor/CBORChainlink.sol\":1978:2041  encodeFixedNumeric(buf, MAJOR_TYPE_INT, uint64(uint256(value))) */\n      tag_130\n        /* \"@chainlink/contracts/src/v0.8/vendor/CBORChainlink.sol\":1997:2000  buf */\n      dup3\n        /* \"@chainlink/contracts/src/v0.8/vendor/CBORChainlink.sol\":234:235  0 */\n      0x00\n        /* \"@chainlink/contracts/src/v0.8/vendor/CBORChainlink.sol\":2033:2038  value */\n      dup4\n        /* \"@chainlink/contracts/src/v0.8/vendor/CBORChainlink.sol\":1978:1996  encodeFixedNumeric */\n      tag_117\n        /* \"@chainlink/contracts/src/v0.8/vendor/CBORChainlink.sol\":1978:2041  encodeFixedNumeric(buf, MAJOR_TYPE_INT, uint64(uint256(value))) */\n      jump\t// in\n    tag_130:\n        /* \"@chainlink/contracts/src/v0.8/vendor/CBORChainlink.sol\":1955:2146  if(value >= 0) {... */\n      jump(tag_131)\n    tag_129:\n        /* \"@chainlink/contracts/src/v0.8/vendor/CBORChainlink.sol\":2062:2139  encodeFixedNumeric(buf, MAJOR_TYPE_NEGATIVE_INT, uint64(uint256(-1 - value))) */\n      tag_132\n        /* \"@chainlink/contracts/src/v0.8/vendor/CBORChainlink.sol\":2081:2084  buf */\n      dup3\n        /* \"@chainlink/contracts/src/v0.8/vendor/CBORChainlink.sol\":288:289  1 */\n      0x01\n        /* \"@chainlink/contracts/src/v0.8/vendor/CBORChainlink.sol\":2131:2136  value */\n      dup4\n        /* \"@chainlink/contracts/src/v0.8/vendor/CBORChainlink.sol\":2126:2128  -1 */\n      0xffffffffffffffffffffffffffffffffffffffffffffffffffffffffffffffff\n        /* \"@chainlink/contracts/src/v0.8/vendor/CBORChainlink.sol\":2126:2136  -1 - value */\n      tag_133\n      swap2\n      swap1\n      tag_134\n      jump\t// in\n    tag_133:\n        /* \"@chainlink/contracts/src/v0.8/vendor/CBORChainlink.sol\":2062:2080  encodeFixedNumeric */\n      tag_117\n        /* \"@chainlink/contracts/src/v0.8/vendor/CBORChainlink.sol\":2062:2139  encodeFixedNumeric(buf, MAJOR_TYPE_NEGATIVE_INT, uint64(uint256(-1 - value))) */\n      jump\t// in\n    tag_132:\n        /* \"@chainlink/contracts/src/v0.8/vendor/CBORChainlink.sol\":1955:2146  if(value >= 0) {... */\n    tag_131:\n        /* \"@chainlink/contracts/src/v0.8/vendor/CBORChainlink.sol\":1873:2146  if(value > 0xFFFFFFFFFFFFFFFF) {... */\n    tag_128:\n        /* \"@chainlink/contracts/src/v0.8/vendor/CBORChainlink.sol\":1789:2146  if(value < -0x10000000000000000) {... */\n    tag_124:\n        /* \"@chainlink/contracts/src/v0.8/vendor/CBORChainlink.sol\":1704:2150  function encodeInt(BufferChainlink.buffer memory buf, int value) internal pure {... */\n      pop\n      pop\n      jump\t// out\n        /* \"@chainlink/contracts/src/v0.8/ChainlinkClient.sol\":3882:4639  function _sendChainlinkRequestTo(... */\n    tag_101:\n        /* \"@chainlink/contracts/src/v0.8/ChainlinkClient.sol\":4019:4036  bytes32 requestId */\n      0x00\n        /* \"@chainlink/contracts/src/v0.8/ChainlinkClient.sol\":4044:4057  uint256 nonce */\n      0x00\n        /* \"@chainlink/contracts/src/v0.8/ChainlinkClient.sol\":4060:4074  s_requestCount */\n      sload(0x04)\n        /* \"@chainlink/contracts/src/v0.8/ChainlinkClient.sol\":4044:4074  uint256 nonce = s_requestCount */\n      swap1\n      pop\n        /* \"@chainlink/contracts/src/v0.8/ChainlinkClient.sol\":4105:4106  1 */\n      0x01\n        /* \"@chainlink/contracts/src/v0.8/ChainlinkClient.sol\":4097:4102  nonce */\n      dup2\n        /* \"@chainlink/contracts/src/v0.8/ChainlinkClient.sol\":4097:4106  nonce + 1 */\n      tag_136\n      swap2\n      swap1\n      tag_137\n      jump\t// in\n    tag_136:\n        /* \"@chainlink/contracts/src/v0.8/ChainlinkClient.sol\":4080:4094  s_requestCount */\n      0x04\n        /* \"@chainlink/contracts/src/v0.8/ChainlinkClient.sol\":4080:4106  s_requestCount = nonce + 1 */\n      dup2\n      swap1\n      sstore\n      pop\n        /* \"@chainlink/contracts/src/v0.8/ChainlinkClient.sol\":4112:4139  bytes memory encodedRequest */\n      0x00\n        /* \"@chainlink/contracts/src/v0.8/ChainlinkClient.sol\":4172:4220  ChainlinkRequestInterface.oracleRequest.selector */\n      shl(0xe0, 0x40429946)\n        /* \"@chainlink/contracts/src/v0.8/ChainlinkClient.sol\":975:976  0 */\n      0x00\n        /* \"@chainlink/contracts/src/v0.8/ChainlinkClient.sol\":919:920  0 */\n      0x00\n        /* \"@chainlink/contracts/src/v0.8/ChainlinkClient.sol\":4441:4444  req */\n      dup8\n        /* \"@chainlink/contracts/src/v0.8/ChainlinkClient.sol\":4441:4447  req.id */\n      0x00\n      add\n      mload\n        /* \"@chainlink/contracts/src/v0.8/ChainlinkClient.sol\":4463:4467  this */\n      address\n        /* \"@chainlink/contracts/src/v0.8/ChainlinkClient.sol\":4476:4479  req */\n      dup10\n        /* \"@chainlink/contracts/src/v0.8/ChainlinkClient.sol\":4476:4498  req.callbackFunctionId */\n      0x40\n      add\n      mload\n        /* \"@chainlink/contracts/src/v0.8/ChainlinkClient.sol\":4506:4511  nonce */\n      dup8\n        /* \"@chainlink/contracts/src/v0.8/ChainlinkClient.sol\":1028:1029  1 */\n      0x01\n        /* \"@chainlink/contracts/src/v0.8/ChainlinkClient.sol\":4546:4549  req */\n      dup13\n        /* \"@chainlink/contracts/src/v0.8/ChainlinkClient.sol\":4546:4553  req.buf */\n      0x80\n      add\n      mload\n        /* \"@chainlink/contracts/src/v0.8/ChainlinkClient.sol\":4546:4557  req.buf.buf */\n      0x00\n      add\n      mload\n        /* \"@chainlink/contracts/src/v0.8/ChainlinkClient.sol\":4142:4563  abi.encodeWithSelector(... */\n      add(0x24, mload(0x40))\n      tag_138\n      swap9\n      swap8\n      swap7\n      swap6\n      swap5\n      swap4\n      swap3\n      swap2\n      swap1\n      tag_139\n      jump\t// in\n    tag_138:\n      mload(0x40)\n      0x20\n      dup2\n      dup4\n      sub\n      sub\n      dup2\n      mstore\n      swap1\n      0x40\n      mstore\n      swap1\n      not(0xffffffffffffffffffffffffffffffffffffffffffffffffffffffff)\n      and\n      0x20\n      dup3\n      add\n      dup1\n      mload\n      0xffffffffffffffffffffffffffffffffffffffffffffffffffffffff\n      dup4\n      dup2\n      dup4\n      and\n      or\n      dup4\n      mstore\n      pop\n      pop\n      pop\n      pop\n        /* \"@chainlink/contracts/src/v0.8/ChainlinkClient.sol\":4112:4563  bytes memory encodedRequest = abi.encodeWithSelector(... */\n      swap1\n      pop\n        /* \"@chainlink/contracts/src/v0.8/ChainlinkClient.sol\":4576:4634  _rawRequest(oracleAddress, nonce, payment, encodedRequest) */\n      tag_140\n        /* \"@chainlink/contracts/src/v0.8/ChainlinkClient.sol\":4588:4601  oracleAddress */\n      dup7\n        /* \"@chainlink/contracts/src/v0.8/ChainlinkClient.sol\":4603:4608  nonce */\n      dup4\n        /* \"@chainlink/contracts/src/v0.8/ChainlinkClient.sol\":4610:4617  payment */\n      dup7\n        /* \"@chainlink/contracts/src/v0.8/ChainlinkClient.sol\":4619:4633  encodedRequest */\n      dup5\n        /* \"@chainlink/contracts/src/v0.8/ChainlinkClient.sol\":4576:4587  _rawRequest */\n      tag_141\n        /* \"@chainlink/contracts/src/v0.8/ChainlinkClient.sol\":4576:4634  _rawRequest(oracleAddress, nonce, payment, encodedRequest) */\n      jump\t// in\n    tag_140:\n        /* \"@chainlink/contracts/src/v0.8/ChainlinkClient.sol\":4569:4634  return _rawRequest(oracleAddress, nonce, payment, encodedRequest) */\n      swap3\n      pop\n      pop\n      pop\n        /* \"@chainlink/contracts/src/v0.8/ChainlinkClient.sol\":3882:4639  function _sendChainlinkRequestTo(... */\n      swap4\n      swap3\n      pop\n      pop\n      pop\n      jump\t// out\n        /* \"@chainlink/contracts/src/v0.8/vendor/BufferChainlink.sol\":1001:1400  function init(buffer memory buf, uint256 capacity) internal pure returns (buffer memory) {... */\n    tag_114:\n        /* \"@chainlink/contracts/src/v0.8/vendor/BufferChainlink.sol\":1075:1088  buffer memory */\n      tag_142\n      tag_143\n      jump\t// in\n    tag_142:\n        /* \"@chainlink/contracts/src/v0.8/vendor/BufferChainlink.sol\":1117:1118  0 */\n      0x00\n        /* \"@chainlink/contracts/src/v0.8/vendor/BufferChainlink.sol\":1111:1113  32 */\n      0x20\n        /* \"@chainlink/contracts/src/v0.8/vendor/BufferChainlink.sol\":1100:1108  capacity */\n      dup4\n        /* \"@chainlink/contracts/src/v0.8/vendor/BufferChainlink.sol\":1100:1113  capacity % 32 */\n      tag_145\n      swap2\n      swap1\n      tag_146\n      jump\t// in\n    tag_145:\n        /* \"@chainlink/contracts/src/v0.8/vendor/BufferChainlink.sol\":1100:1118  capacity % 32 != 0 */\n      eq\n        /* \"@chainlink/contracts/src/v0.8/vendor/BufferChainlink.sol\":1096:1167  if (capacity % 32 != 0) {... */\n      tag_147\n      jumpi\n        /* \"@chainlink/contracts/src/v0.8/vendor/BufferChainlink.sol\":1157:1159  32 */\n      0x20\n        /* \"@chainlink/contracts/src/v0.8/vendor/BufferChainlink.sol\":1146:1154  capacity */\n      dup3\n        /* \"@chainlink/contracts/src/v0.8/vendor/BufferChainlink.sol\":1146:1159  capacity % 32 */\n      tag_148\n      swap2\n      swap1\n      tag_146\n      jump\t// in\n    tag_148:\n        /* \"@chainlink/contracts/src/v0.8/vendor/BufferChainlink.sol\":1140:1142  32 */\n      0x20\n        /* \"@chainlink/contracts/src/v0.8/vendor/BufferChainlink.sol\":1140:1160  32 - (capacity % 32) */\n      tag_149\n      swap2\n      swap1\n      tag_150\n      jump\t// in\n    tag_149:\n        /* \"@chainlink/contracts/src/v0.8/vendor/BufferChainlink.sol\":1128:1160  capacity += 32 - (capacity % 32) */\n      dup3\n      tag_151\n      swap2\n      swap1\n      tag_137\n      jump\t// in\n    tag_151:\n      swap2\n      pop\n        /* \"@chainlink/contracts/src/v0.8/vendor/BufferChainlink.sol\":1096:1167  if (capacity % 32 != 0) {... */\n    tag_147:\n        /* \"@chainlink/contracts/src/v0.8/vendor/BufferChainlink.sol\":1229:1237  capacity */\n      dup2\n        /* \"@chainlink/contracts/src/v0.8/vendor/BufferChainlink.sol\":1214:1217  buf */\n      dup4\n        /* \"@chainlink/contracts/src/v0.8/vendor/BufferChainlink.sol\":1214:1226  buf.capacity */\n      0x20\n      add\n        /* \"@chainlink/contracts/src/v0.8/vendor/BufferChainlink.sol\":1214:1237  buf.capacity = capacity */\n      dup2\n      dup2\n      mstore\n      pop\n      pop\n        /* \"@chainlink/contracts/src/v0.8/vendor/BufferChainlink.sol\":1277:1281  0x40 */\n      0x40\n        /* \"@chainlink/contracts/src/v0.8/vendor/BufferChainlink.sol\":1271:1282  mload(0x40) */\n      mload\n        /* \"@chainlink/contracts/src/v0.8/vendor/BufferChainlink.sol\":1301:1304  ptr */\n      dup1\n        /* \"@chainlink/contracts/src/v0.8/vendor/BufferChainlink.sol\":1296:1299  buf */\n      dup5\n        /* \"@chainlink/contracts/src/v0.8/vendor/BufferChainlink.sol\":1289:1305  mstore(buf, ptr) */\n      mstore\n        /* \"@chainlink/contracts/src/v0.8/vendor/BufferChainlink.sol\":1324:1325  0 */\n      0x00\n        /* \"@chainlink/contracts/src/v0.8/vendor/BufferChainlink.sol\":1319:1322  ptr */\n      dup2\n        /* \"@chainlink/contracts/src/v0.8/vendor/BufferChainlink.sol\":1312:1326  mstore(ptr, 0) */\n      mstore\n        /* \"@chainlink/contracts/src/v0.8/vendor/BufferChainlink.sol\":1363:1371  capacity */\n      dup3\n        /* \"@chainlink/contracts/src/v0.8/vendor/BufferChainlink.sol\":1358:1361  ptr */\n      dup2\n        /* \"@chainlink/contracts/src/v0.8/vendor/BufferChainlink.sol\":1354:1372  add(ptr, capacity) */\n      add\n        /* \"@chainlink/contracts/src/v0.8/vendor/BufferChainlink.sol\":1350:1352  32 */\n      0x20\n        /* \"@chainlink/contracts/src/v0.8/vendor/BufferChainlink.sol\":1346:1373  add(32, add(ptr, capacity)) */\n      add\n        /* \"@chainlink/contracts/src/v0.8/vendor/BufferChainlink.sol\":1340:1344  0x40 */\n      0x40\n        /* \"@chainlink/contracts/src/v0.8/vendor/BufferChainlink.sol\":1333:1374  mstore(0x40, add(32, add(ptr, capacity))) */\n      mstore\n        /* \"@chainlink/contracts/src/v0.8/vendor/BufferChainlink.sol\":1252:1380  {... */\n      pop\n        /* \"@chainlink/contracts/src/v0.8/vendor/BufferChainlink.sol\":1392:1395  buf */\n      dup3\n        /* \"@chainlink/contracts/src/v0.8/vendor/BufferChainlink.sol\":1385:1395  return buf */\n      swap1\n      pop\n        /* \"@chainlink/contracts/src/v0.8/vendor/BufferChainlink.sol\":1001:1400  function init(buffer memory buf, uint256 capacity) internal pure returns (buffer memory) {... */\n      swap3\n      swap2\n      pop\n      pop\n      jump\t// out\n        /* \"@chainlink/contracts/src/v0.8/vendor/CBORChainlink.sol\":682:1307  function encodeFixedNumeric(BufferChainlink.buffer memory buf, uint8 major, uint64 value) private pure {... */\n    tag_117:\n        /* \"@chainlink/contracts/src/v0.8/vendor/CBORChainlink.sol\":803:805  23 */\n      0x17\n        /* \"@chainlink/contracts/src/v0.8/vendor/CBORChainlink.sol\":794:799  value */\n      dup2\n        /* \"@chainlink/contracts/src/v0.8/vendor/CBORChainlink.sol\":794:805  value <= 23 */\n      0xffffffffffffffff\n      and\n      gt\n        /* \"@chainlink/contracts/src/v0.8/vendor/CBORChainlink.sol\":791:1303  if(value <= 23) {... */\n      tag_153\n      jumpi\n        /* \"@chainlink/contracts/src/v0.8/vendor/CBORChainlink.sol\":815:859  buf.appendUint8(uint8((major << 5) | value)) */\n      tag_154\n        /* \"@chainlink/contracts/src/v0.8/vendor/CBORChainlink.sol\":852:857  value */\n      dup2\n        /* \"@chainlink/contracts/src/v0.8/vendor/CBORChainlink.sol\":847:848  5 */\n      0x05\n        /* \"@chainlink/contracts/src/v0.8/vendor/CBORChainlink.sol\":838:843  major */\n      dup5\n        /* \"@chainlink/contracts/src/v0.8/vendor/CBORChainlink.sol\":838:848  major << 5 */\n      0xff\n      and\n      swap1\n      shl\n        /* \"@chainlink/contracts/src/v0.8/vendor/CBORChainlink.sol\":837:857  (major << 5) | value */\n      0xff\n      and\n      or\n        /* \"@chainlink/contracts/src/v0.8/vendor/CBORChainlink.sol\":815:818  buf */\n      dup5\n        /* \"@chainlink/contracts/src/v0.8/vendor/CBORChainlink.sol\":815:830  buf.appendUint8 */\n      tag_155\n      swap1\n        /* \"@chainlink/contracts/src/v0.8/vendor/CBORChainlink.sol\":815:859  buf.appendUint8(uint8((major << 5) | value)) */\n      swap2\n      swap1\n      0xffffffff\n      and\n      jump\t// in\n    tag_154:\n      pop\n        /* \"@chainlink/contracts/src/v0.8/vendor/CBORChainlink.sol\":791:1303  if(value <= 23) {... */\n      jump(tag_156)\n    tag_153:\n        /* \"@chainlink/contracts/src/v0.8/vendor/CBORChainlink.sol\":885:889  0xFF */\n      0xff\n        /* \"@chainlink/contracts/src/v0.8/vendor/CBORChainlink.sol\":876:881  value */\n      dup2\n        /* \"@chainlink/contracts/src/v0.8/vendor/CBORChainlink.sol\":876:889  value <= 0xFF */\n      0xffffffffffffffff\n      and\n      gt\n        /* \"@chainlink/contracts/src/v0.8/vendor/CBORChainlink.sol\":872:1303  if (value <= 0xFF) {... */\n      tag_157\n      jumpi\n        /* \"@chainlink/contracts/src/v0.8/vendor/CBORChainlink.sol\":899:940  buf.appendUint8(uint8((major << 5) | 24)) */\n      tag_158\n        /* \"@chainlink/contracts/src/v0.8/vendor/CBORChainlink.sol\":936:938  24 */\n      0x18\n        /* \"@chainlink/contracts/src/v0.8/vendor/CBORChainlink.sol\":931:932  5 */\n      0x05\n        /* \"@chainlink/contracts/src/v0.8/vendor/CBORChainlink.sol\":922:927  major */\n      dup5\n        /* \"@chainlink/contracts/src/v0.8/vendor/CBORChainlink.sol\":922:932  major << 5 */\n      0xff\n      and\n      swap1\n      shl\n        /* \"@chainlink/contracts/src/v0.8/vendor/CBORChainlink.sol\":921:938  (major << 5) | 24 */\n      or\n        /* \"@chainlink/contracts/src/v0.8/vendor/CBORChainlink.sol\":899:902  buf */\n      dup5\n        /* \"@chainlink/contracts/src/v0.8/vendor/CBORChainlink.sol\":899:914  buf.appendUint8 */\n      tag_155\n      swap1\n        /* \"@chainlink/contracts/src/v0.8/vendor/CBORChainlink.sol\":899:940  buf.appendUint8(uint8((major << 5) | 24)) */\n      swap2\n      swap1\n      0xffffffff\n      and\n      jump\t// in\n    tag_158:\n      pop\n        /* \"@chainlink/contracts/src/v0.8/vendor/CBORChainlink.sol\":948:971  buf.appendInt(value, 1) */\n      tag_159\n        /* \"@chainlink/contracts/src/v0.8/vendor/CBORChainlink.sol\":962:967  value */\n      dup2\n        /* \"@chainlink/contracts/src/v0.8/vendor/CBORChainlink.sol\":948:971  buf.appendInt(value, 1) */\n      0xffffffffffffffff\n      and\n        /* \"@chainlink/contracts/src/v0.8/vendor/CBORChainlink.sol\":969:970  1 */\n      0x01\n        /* \"@chainlink/contracts/src/v0.8/vendor/CBORChainlink.sol\":948:951  buf */\n      dup6\n        /* \"@chainlink/contracts/src/v0.8/vendor/CBORChainlink.sol\":948:961  buf.appendInt */\n      tag_160\n      swap1\n        /* \"@chainlink/contracts/src/v0.8/vendor/CBORChainlink.sol\":948:971  buf.appendInt(value, 1) */\n      swap3\n      swap2\n      swap1\n      0xffffffff\n      and\n      jump\t// in\n    tag_159:\n      pop\n        /* \"@chainlink/contracts/src/v0.8/vendor/CBORChainlink.sol\":872:1303  if (value <= 0xFF) {... */\n      jump(tag_161)\n    tag_157:\n        /* \"@chainlink/contracts/src/v0.8/vendor/CBORChainlink.sol\":997:1003  0xFFFF */\n      0xffff\n        /* \"@chainlink/contracts/src/v0.8/vendor/CBORChainlink.sol\":988:993  value */\n      dup2\n        /* \"@chainlink/contracts/src/v0.8/vendor/CBORChainlink.sol\":988:1003  value <= 0xFFFF */\n      0xffffffffffffffff\n      and\n      gt\n        /* \"@chainlink/contracts/src/v0.8/vendor/CBORChainlink.sol\":984:1303  if (value <= 0xFFFF) {... */\n      tag_162\n      jumpi\n        /* \"@chainlink/contracts/src/v0.8/vendor/CBORChainlink.sol\":1013:1054  buf.appendUint8(uint8((major << 5) | 25)) */\n      tag_163\n        /* \"@chainlink/contracts/src/v0.8/vendor/CBORChainlink.sol\":1050:1052  25 */\n      0x19\n        /* \"@chainlink/contracts/src/v0.8/vendor/CBORChainlink.sol\":1045:1046  5 */\n      0x05\n        /* \"@chainlink/contracts/src/v0.8/vendor/CBORChainlink.sol\":1036:1041  major */\n      dup5\n        /* \"@chainlink/contracts/src/v0.8/vendor/CBORChainlink.sol\":1036:1046  major << 5 */\n      0xff\n      and\n      swap1\n      shl\n        /* \"@chainlink/contracts/src/v0.8/vendor/CBORChainlink.sol\":1035:1052  (major << 5) | 25 */\n      or\n        /* \"@chainlink/contracts/src/v0.8/vendor/CBORChainlink.sol\":1013:1016  buf */\n      dup5\n        /* \"@chainlink/contracts/src/v0.8/vendor/CBORChainlink.sol\":1013:1028  buf.appendUint8 */\n      tag_155\n      swap1\n        /* \"@chainlink/contracts/src/v0.8/vendor/CBORChainlink.sol\":1013:1054  buf.appendUint8(uint8((major << 5) | 25)) */\n      swap2\n      swap1\n      0xffffffff\n      and\n      jump\t// in\n    tag_163:\n      pop\n        /* \"@chainlink/contracts/src/v0.8/vendor/CBORChainlink.sol\":1062:1085  buf.appendInt(value, 2) */\n      tag_164\n        /* \"@chainlink/contracts/src/v0.8/vendor/CBORChainlink.sol\":1076:1081  value */\n      dup2\n        /* \"@chainlink/contracts/src/v0.8/vendor/CBORChainlink.sol\":1062:1085  buf.appendInt(value, 2) */\n      0xffffffffffffffff\n      and\n        /* \"@chainlink/contracts/src/v0.8/vendor/CBORChainlink.sol\":1083:1084  2 */\n      0x02\n        /* \"@chainlink/contracts/src/v0.8/vendor/CBORChainlink.sol\":1062:1065  buf */\n      dup6\n        /* \"@chainlink/contracts/src/v0.8/vendor/CBORChainlink.sol\":1062:1075  buf.appendInt */\n      tag_160\n      swap1\n        /* \"@chainlink/contracts/src/v0.8/vendor/CBORChainlink.sol\":1062:1085  buf.appendInt(value, 2) */\n      swap3\n      swap2\n      swap1\n      0xffffffff\n      and\n      jump\t// in\n    tag_164:\n      pop\n        /* \"@chainlink/contracts/src/v0.8/vendor/CBORChainlink.sol\":984:1303  if (value <= 0xFFFF) {... */\n      jump(tag_165)\n    tag_162:\n        /* \"@chainlink/contracts/src/v0.8/vendor/CBORChainlink.sol\":1111:1121  0xFFFFFFFF */\n      0xffffffff\n        /* \"@chainlink/contracts/src/v0.8/vendor/CBORChainlink.sol\":1102:1107  value */\n      dup2\n        /* \"@chainlink/contracts/src/v0.8/vendor/CBORChainlink.sol\":1102:1121  value <= 0xFFFFFFFF */\n      0xffffffffffffffff\n      and\n      gt\n        /* \"@chainlink/contracts/src/v0.8/vendor/CBORChainlink.sol\":1098:1303  if (value <= 0xFFFFFFFF) {... */\n      tag_166\n      jumpi\n        /* \"@chainlink/contracts/src/v0.8/vendor/CBORChainlink.sol\":1131:1172  buf.appendUint8(uint8((major << 5) | 26)) */\n      tag_167\n        /* \"@chainlink/contracts/src/v0.8/vendor/CBORChainlink.sol\":1168:1170  26 */\n      0x1a\n        /* \"@chainlink/contracts/src/v0.8/vendor/CBORChainlink.sol\":1163:1164  5 */\n      0x05\n        /* \"@chainlink/contracts/src/v0.8/vendor/CBORChainlink.sol\":1154:1159  major */\n      dup5\n        /* \"@chainlink/contracts/src/v0.8/vendor/CBORChainlink.sol\":1154:1164  major << 5 */\n      0xff\n      and\n      swap1\n      shl\n        /* \"@chainlink/contracts/src/v0.8/vendor/CBORChainlink.sol\":1153:1170  (major << 5) | 26 */\n      or\n        /* \"@chainlink/contracts/src/v0.8/vendor/CBORChainlink.sol\":1131:1134  buf */\n      dup5\n        /* \"@chainlink/contracts/src/v0.8/vendor/CBORChainlink.sol\":1131:1146  buf.appendUint8 */\n      tag_155\n      swap1\n        /* \"@chainlink/contracts/src/v0.8/vendor/CBORChainlink.sol\":1131:1172  buf.appendUint8(uint8((major << 5) | 26)) */\n      swap2\n      swap1\n      0xffffffff\n      and\n      jump\t// in\n    tag_167:\n      pop\n        /* \"@chainlink/contracts/src/v0.8/vendor/CBORChainlink.sol\":1180:1203  buf.appendInt(value, 4) */\n      tag_168\n        /* \"@chainlink/contracts/src/v0.8/vendor/CBORChainlink.sol\":1194:1199  value */\n      dup2\n        /* \"@chainlink/contracts/src/v0.8/vendor/CBORChainlink.sol\":1180:1203  buf.appendInt(value, 4) */\n      0xffffffffffffffff\n      and\n        /* \"@chainlink/contracts/src/v0.8/vendor/CBORChainlink.sol\":1201:1202  4 */\n      0x04\n        /* \"@chainlink/contracts/src/v0.8/vendor/CBORChainlink.sol\":1180:1183  buf */\n      dup6\n        /* \"@chainlink/contracts/src/v0.8/vendor/CBORChainlink.sol\":1180:1193  buf.appendInt */\n      tag_160\n      swap1\n        /* \"@chainlink/contracts/src/v0.8/vendor/CBORChainlink.sol\":1180:1203  buf.appendInt(value, 4) */\n      swap3\n      swap2\n      swap1\n      0xffffffff\n      and\n      jump\t// in\n    tag_168:\n      pop\n        /* \"@chainlink/contracts/src/v0.8/vendor/CBORChainlink.sol\":1098:1303  if (value <= 0xFFFFFFFF) {... */\n      jump(tag_169)\n    tag_166:\n        /* \"@chainlink/contracts/src/v0.8/vendor/CBORChainlink.sol\":1224:1265  buf.appendUint8(uint8((major << 5) | 27)) */\n      tag_170\n        /* \"@chainlink/contracts/src/v0.8/vendor/CBORChainlink.sol\":1261:1263  27 */\n      0x1b\n        /* \"@chainlink/contracts/src/v0.8/vendor/CBORChainlink.sol\":1256:1257  5 */\n      0x05\n        /* \"@chainlink/contracts/src/v0.8/vendor/CBORChainlink.sol\":1247:1252  major */\n      dup5\n        /* \"@chainlink/contracts/src/v0.8/vendor/CBORChainlink.sol\":1247:1257  major << 5 */\n      0xff\n      and\n      swap1\n      shl\n        /* \"@chainlink/contracts/src/v0.8/vendor/CBORChainlink.sol\":1246:1263  (major << 5) | 27 */\n      or\n        /* \"@chainlink/contracts/src/v0.8/vendor/CBORChainlink.sol\":1224:1227  buf */\n      dup5\n        /* \"@chainlink/contracts/src/v0.8/vendor/CBORChainlink.sol\":1224:1239  buf.appendUint8 */\n      tag_155\n      swap1\n        /* \"@chainlink/contracts/src/v0.8/vendor/CBORChainlink.sol\":1224:1265  buf.appendUint8(uint8((major << 5) | 27)) */\n      swap2\n      swap1\n      0xffffffff\n      and\n      jump\t// in\n    tag_170:\n      pop\n        /* \"@chainlink/contracts/src/v0.8/vendor/CBORChainlink.sol\":1273:1296  buf.appendInt(value, 8) */\n      tag_171\n        /* \"@chainlink/contracts/src/v0.8/vendor/CBORChainlink.sol\":1287:1292  value */\n      dup2\n        /* \"@chainlink/contracts/src/v0.8/vendor/CBORChainlink.sol\":1273:1296  buf.appendInt(value, 8) */\n      0xffffffffffffffff\n      and\n        /* \"@chainlink/contracts/src/v0.8/vendor/CBORChainlink.sol\":1294:1295  8 */\n      0x08\n        /* \"@chainlink/contracts/src/v0.8/vendor/CBORChainlink.sol\":1273:1276  buf */\n      dup6\n        /* \"@chainlink/contracts/src/v0.8/vendor/CBORChainlink.sol\":1273:1286  buf.appendInt */\n      tag_160\n      swap1\n        /* \"@chainlink/contracts/src/v0.8/vendor/CBORChainlink.sol\":1273:1296  buf.appendInt(value, 8) */\n      swap3\n      swap2\n      swap1\n      0xffffffff\n      and\n      jump\t// in\n    tag_171:\n      pop\n        /* \"@chainlink/contracts/src/v0.8/vendor/CBORChainlink.sol\":1098:1303  if (value <= 0xFFFFFFFF) {... */\n    tag_169:\n        /* \"@chainlink/contracts/src/v0.8/vendor/CBORChainlink.sol\":984:1303  if (value <= 0xFFFF) {... */\n    tag_165:\n        /* \"@chainlink/contracts/src/v0.8/vendor/CBORChainlink.sol\":872:1303  if (value <= 0xFF) {... */\n    tag_161:\n        /* \"@chainlink/contracts/src/v0.8/vendor/CBORChainlink.sol\":791:1303  if(value <= 23) {... */\n    tag_156:\n        /* \"@chainlink/contracts/src/v0.8/vendor/CBORChainlink.sol\":682:1307  function encodeFixedNumeric(BufferChainlink.buffer memory buf, uint8 major, uint64 value) private pure {... */\n      pop\n      pop\n      pop\n      jump\t// out\n        /* \"@chainlink/contracts/src/v0.8/vendor/BufferChainlink.sol\":4692:4847  function append(buffer memory buf, bytes memory data) internal pure returns (buffer memory) {... */\n    tag_119:\n        /* \"@chainlink/contracts/src/v0.8/vendor/BufferChainlink.sol\":4769:4782  buffer memory */\n      tag_172\n      tag_143\n      jump\t// in\n    tag_172:\n        /* \"@chainlink/contracts/src/v0.8/vendor/BufferChainlink.sol\":4797:4842  write(buf, buf.buf.length, data, data.length) */\n      tag_174\n        /* \"@chainlink/contracts/src/v0.8/vendor/BufferChainlink.sol\":4803:4806  buf */\n      dup4\n        /* \"@chainlink/contracts/src/v0.8/vendor/BufferChainlink.sol\":4808:4811  buf */\n      dup5\n        /* \"@chainlink/contracts/src/v0.8/vendor/BufferChainlink.sol\":4808:4815  buf.buf */\n      0x00\n      add\n      mload\n        /* \"@chainlink/contracts/src/v0.8/vendor/BufferChainlink.sol\":4808:4822  buf.buf.length */\n      mload\n        /* \"@chainlink/contracts/src/v0.8/vendor/BufferChainlink.sol\":4824:4828  data */\n      dup5\n        /* \"@chainlink/contracts/src/v0.8/vendor/BufferChainlink.sol\":4830:4834  data */\n      dup6\n        /* \"@chainlink/contracts/src/v0.8/vendor/BufferChainlink.sol\":4830:4841  data.length */\n      mload\n        /* \"@chainlink/contracts/src/v0.8/vendor/BufferChainlink.sol\":4797:4802  write */\n      tag_175\n        /* \"@chainlink/contracts/src/v0.8/vendor/BufferChainlink.sol\":4797:4842  write(buf, buf.buf.length, data, data.length) */\n      jump\t// in\n    tag_174:\n        /* \"@chainlink/contracts/src/v0.8/vendor/BufferChainlink.sol\":4790:4842  return write(buf, buf.buf.length, data, data.length) */\n      swap1\n      pop\n        /* \"@chainlink/contracts/src/v0.8/vendor/BufferChainlink.sol\":4692:4847  function append(buffer memory buf, bytes memory data) internal pure returns (buffer memory) {... */\n      swap3\n      swap2\n      pop\n      pop\n      jump\t// out\n        /* \"@chainlink/contracts/src/v0.8/vendor/CBORChainlink.sol\":2547:2773  function encodeSignedBigNum(BufferChainlink.buffer memory buf, int input) internal pure {... */\n    tag_123:\n        /* \"@chainlink/contracts/src/v0.8/vendor/CBORChainlink.sol\":2641:2713  buf.appendUint8(uint8((MAJOR_TYPE_TAG << 5) | TAG_TYPE_NEGATIVE_BIGNUM)) */\n      tag_177\n        /* \"@chainlink/contracts/src/v0.8/vendor/CBORChainlink.sol\":676:677  3 */\n      0x03\n        /* \"@chainlink/contracts/src/v0.8/vendor/CBORChainlink.sol\":2682:2683  5 */\n      0x05\n        /* \"@chainlink/contracts/src/v0.8/vendor/CBORChainlink.sol\":520:521  6 */\n      0x06\n        /* \"@chainlink/contracts/src/v0.8/vendor/CBORChainlink.sol\":2664:2683  MAJOR_TYPE_TAG << 5 */\n      0xff\n      and\n      swap1\n      shl\n        /* \"@chainlink/contracts/src/v0.8/vendor/CBORChainlink.sol\":2663:2711  (MAJOR_TYPE_TAG << 5) | TAG_TYPE_NEGATIVE_BIGNUM */\n      or\n        /* \"@chainlink/contracts/src/v0.8/vendor/CBORChainlink.sol\":2641:2644  buf */\n      dup4\n        /* \"@chainlink/contracts/src/v0.8/vendor/CBORChainlink.sol\":2641:2656  buf.appendUint8 */\n      tag_155\n      swap1\n        /* \"@chainlink/contracts/src/v0.8/vendor/CBORChainlink.sol\":2641:2713  buf.appendUint8(uint8((MAJOR_TYPE_TAG << 5) | TAG_TYPE_NEGATIVE_BIGNUM)) */\n      swap2\n      swap1\n      0xffffffff\n      and\n      jump\t// in\n    tag_177:\n      pop\n        /* \"@chainlink/contracts/src/v0.8/vendor/CBORChainlink.sol\":2719:2768  encodeBytes(buf, abi.encode(uint256(-1 - input))) */\n      tag_178\n        /* \"@chainlink/contracts/src/v0.8/vendor/CBORChainlink.sol\":2731:2734  buf */\n      dup3\n        /* \"@chainlink/contracts/src/v0.8/vendor/CBORChainlink.sol\":2760:2765  input */\n      dup3\n        /* \"@chainlink/contracts/src/v0.8/vendor/CBORChainlink.sol\":2755:2757  -1 */\n      0xffffffffffffffffffffffffffffffffffffffffffffffffffffffffffffffff\n        /* \"@chainlink/contracts/src/v0.8/vendor/CBORChainlink.sol\":2755:2765  -1 - input */\n      tag_179\n      swap2\n      swap1\n      tag_134\n      jump\t// in\n    tag_179:\n        /* \"@chainlink/contracts/src/v0.8/vendor/CBORChainlink.sol\":2736:2767  abi.encode(uint256(-1 - input)) */\n      add(0x20, mload(0x40))\n      tag_180\n      swap2\n      swap1\n      tag_32\n      jump\t// in\n    tag_180:\n      mload(0x40)\n      0x20\n      dup2\n      dup4\n      sub\n      sub\n      dup2\n      mstore\n      swap1\n      0x40\n      mstore\n        /* \"@chainlink/contracts/src/v0.8/vendor/CBORChainlink.sol\":2719:2730  encodeBytes */\n      tag_181\n        /* \"@chainlink/contracts/src/v0.8/vendor/CBORChainlink.sol\":2719:2768  encodeBytes(buf, abi.encode(uint256(-1 - input))) */\n      jump\t// in\n    tag_178:\n        /* \"@chainlink/contracts/src/v0.8/vendor/CBORChainlink.sol\":2547:2773  function encodeSignedBigNum(BufferChainlink.buffer memory buf, int input) internal pure {... */\n      pop\n      pop\n      jump\t// out\n        /* \"@chainlink/contracts/src/v0.8/vendor/CBORChainlink.sol\":2345:2543  function encodeBigNum(BufferChainlink.buffer memory buf, uint value) internal pure {... */\n    tag_127:\n        /* \"@chainlink/contracts/src/v0.8/vendor/CBORChainlink.sol\":2434:2497  buf.appendUint8(uint8((MAJOR_TYPE_TAG << 5) | TAG_TYPE_BIGNUM)) */\n      tag_183\n        /* \"@chainlink/contracts/src/v0.8/vendor/CBORChainlink.sol\":621:622  2 */\n      0x02\n        /* \"@chainlink/contracts/src/v0.8/vendor/CBORChainlink.sol\":2475:2476  5 */\n      0x05\n        /* \"@chainlink/contracts/src/v0.8/vendor/CBORChainlink.sol\":520:521  6 */\n      0x06\n        /* \"@chainlink/contracts/src/v0.8/vendor/CBORChainlink.sol\":2457:2476  MAJOR_TYPE_TAG << 5 */\n      0xff\n      and\n      swap1\n      shl\n        /* \"@chainlink/contracts/src/v0.8/vendor/CBORChainlink.sol\":2456:2495  (MAJOR_TYPE_TAG << 5) | TAG_TYPE_BIGNUM */\n      or\n        /* \"@chainlink/contracts/src/v0.8/vendor/CBORChainlink.sol\":2434:2437  buf */\n      dup4\n        /* \"@chainlink/contracts/src/v0.8/vendor/CBORChainlink.sol\":2434:2449  buf.appendUint8 */\n      tag_155\n      swap1\n        /* \"@chainlink/contracts/src/v0.8/vendor/CBORChainlink.sol\":2434:2497  buf.appendUint8(uint8((MAJOR_TYPE_TAG << 5) | TAG_TYPE_BIGNUM)) */\n      swap2\n      swap1\n      0xffffffff\n      and\n      jump\t// in\n    tag_183:\n      pop\n        /* \"@chainlink/contracts/src/v0.8/vendor/CBORChainlink.sol\":2503:2538  encodeBytes(buf, abi.encode(value)) */\n      tag_184\n        /* \"@chainlink/contracts/src/v0.8/vendor/CBORChainlink.sol\":2515:2518  buf */\n      dup3\n        /* \"@chainlink/contracts/src/v0.8/vendor/CBORChainlink.sol\":2531:2536  value */\n      dup3\n        /* \"@chainlink/contracts/src/v0.8/vendor/CBORChainlink.sol\":2520:2537  abi.encode(value) */\n      add(0x20, mload(0x40))\n      tag_185\n      swap2\n      swap1\n      tag_32\n      jump\t// in\n    tag_185:\n      mload(0x40)\n      0x20\n      dup2\n      dup4\n      sub\n      sub\n      dup2\n      mstore\n      swap1\n      0x40\n      mstore\n        /* \"@chainlink/contracts/src/v0.8/vendor/CBORChainlink.sol\":2503:2514  encodeBytes */\n      tag_181\n        /* \"@chainlink/contracts/src/v0.8/vendor/CBORChainlink.sol\":2503:2538  encodeBytes(buf, abi.encode(value)) */\n      jump\t// in\n    tag_184:\n        /* \"@chainlink/contracts/src/v0.8/vendor/CBORChainlink.sol\":2345:2543  function encodeBigNum(BufferChainlink.buffer memory buf, uint value) internal pure {... */\n      pop\n      pop\n      jump\t// out\n        /* \"@chainlink/contracts/src/v0.8/ChainlinkClient.sol\":6828:7280  function _rawRequest(... */\n    tag_141:\n        /* \"@chainlink/contracts/src/v0.8/ChainlinkClient.sol\":6970:6987  bytes32 requestId */\n      0x00\n        /* \"@chainlink/contracts/src/v0.8/ChainlinkClient.sol\":7034:7038  this */\n      address\n        /* \"@chainlink/contracts/src/v0.8/ChainlinkClient.sol\":7040:7045  nonce */\n      dup5\n        /* \"@chainlink/contracts/src/v0.8/ChainlinkClient.sol\":7017:7046  abi.encodePacked(this, nonce) */\n      add(0x20, mload(0x40))\n      tag_187\n      swap3\n      swap2\n      swap1\n      tag_188\n      jump\t// in\n    tag_187:\n      mload(0x40)\n      0x20\n      dup2\n      dup4\n      sub\n      sub\n      dup2\n      mstore\n      swap1\n      0x40\n      mstore\n        /* \"@chainlink/contracts/src/v0.8/ChainlinkClient.sol\":7007:7047  keccak256(abi.encodePacked(this, nonce)) */\n      dup1\n      mload\n      swap1\n      0x20\n      add\n      keccak256\n        /* \"@chainlink/contracts/src/v0.8/ChainlinkClient.sol\":6995:7047  requestId = keccak256(abi.encodePacked(this, nonce)) */\n      swap1\n      pop\n        /* \"@chainlink/contracts/src/v0.8/ChainlinkClient.sol\":7084:7097  oracleAddress */\n      dup5\n        /* \"@chainlink/contracts/src/v0.8/ChainlinkClient.sol\":7053:7070  s_pendingRequests */\n      0x05\n        /* \"@chainlink/contracts/src/v0.8/ChainlinkClient.sol\":7053:7081  s_pendingRequests[requestId] */\n      0x00\n        /* \"@chainlink/contracts/src/v0.8/ChainlinkClient.sol\":7071:7080  requestId */\n      dup4\n        /* \"@chainlink/contracts/src/v0.8/ChainlinkClient.sol\":7053:7081  s_pendingRequests[requestId] */\n      dup2\n      mstore\n      0x20\n      add\n      swap1\n      dup2\n      mstore\n      0x20\n      add\n      0x00\n      keccak256\n      0x00\n        /* \"@chainlink/contracts/src/v0.8/ChainlinkClient.sol\":7053:7097  s_pendingRequests[requestId] = oracleAddress */\n      0x0100\n      exp\n      dup2\n      sload\n      dup2\n      0xffffffffffffffffffffffffffffffffffffffff\n      mul\n      not\n      and\n      swap1\n      dup4\n      0xffffffffffffffffffffffffffffffffffffffff\n      and\n      mul\n      or\n      swap1\n      sstore\n      pop\n        /* \"@chainlink/contracts/src/v0.8/ChainlinkClient.sol\":7127:7136  requestId */\n      dup1\n        /* \"@chainlink/contracts/src/v0.8/ChainlinkClient.sol\":7108:7137  ChainlinkRequested(requestId) */\n      0xb5e6e01e79f91267dc17b4e6314d5d4d03593d2ceee0fbb452b750bd70ea5af9\n      mload(0x40)\n      mload(0x40)\n      dup1\n      swap2\n      sub\n      swap1\n      log2\n        /* \"@chainlink/contracts/src/v0.8/ChainlinkClient.sol\":7151:7157  s_link */\n      0x02\n      0x00\n      swap1\n      sload\n      swap1\n      0x0100\n      exp\n      swap1\n      div\n      0xffffffffffffffffffffffffffffffffffffffff\n      and\n        /* \"@chainlink/contracts/src/v0.8/ChainlinkClient.sol\":7151:7173  s_link.transferAndCall */\n      0xffffffffffffffffffffffffffffffffffffffff\n      and\n      0x4000aea0\n        /* \"@chainlink/contracts/src/v0.8/ChainlinkClient.sol\":7174:7187  oracleAddress */\n      dup7\n        /* \"@chainlink/contracts/src/v0.8/ChainlinkClient.sol\":7189:7196  payment */\n      dup6\n        /* \"@chainlink/contracts/src/v0.8/ChainlinkClient.sol\":7198:7212  encodedRequest */\n      dup6\n        /* \"@chainlink/contracts/src/v0.8/ChainlinkClient.sol\":7151:7213  s_link.transferAndCall(oracleAddress, payment, encodedRequest) */\n      mload(0x40)\n      dup5\n      0xffffffff\n      and\n      0xe0\n      shl\n      dup2\n      mstore\n      0x04\n      add\n      tag_189\n      swap4\n      swap3\n      swap2\n      swap1\n      tag_190\n      jump\t// in\n    tag_189:\n      0x20\n      mload(0x40)\n      dup1\n      dup4\n      sub\n      dup2\n      0x00\n      dup8\n      gas\n      call\n      iszero\n      dup1\n      iszero\n      tag_192\n      jumpi\n      returndatacopy(0x00, 0x00, returndatasize)\n      revert(0x00, returndatasize)\n    tag_192:\n      pop\n      pop\n      pop\n      pop\n      mload(0x40)\n      returndatasize\n      not(0x1f)\n      0x1f\n      dup3\n      add\n      and\n      dup3\n      add\n      dup1\n      0x40\n      mstore\n      pop\n      dup2\n      add\n      swap1\n      tag_193\n      swap2\n      swap1\n      tag_76\n      jump\t// in\n    tag_193:\n        /* \"@chainlink/contracts/src/v0.8/ChainlinkClient.sol\":7143:7253  require(s_link.transferAndCall(oracleAddress, payment, encodedRequest), \"unable to transferAndCall to oracle\") */\n      tag_194\n      jumpi\n      mload(0x40)\n      0x08c379a000000000000000000000000000000000000000000000000000000000\n      dup2\n      mstore\n      0x04\n      add\n      tag_195\n      swap1\n      tag_196\n      jump\t// in\n    tag_195:\n      mload(0x40)\n      dup1\n      swap2\n      sub\n      swap1\n      revert\n    tag_194:\n        /* \"@chainlink/contracts/src/v0.8/ChainlinkClient.sol\":6828:7280  function _rawRequest(... */\n      swap5\n      swap4\n      pop\n      pop\n      pop\n      pop\n      jump\t// out\n        /* \"@chainlink/contracts/src/v0.8/vendor/BufferChainlink.sol\":6040:6185  function appendUint8(buffer memory buf, uint8 data) internal pure returns (buffer memory) {... */\n    tag_155:\n        /* \"@chainlink/contracts/src/v0.8/vendor/BufferChainlink.sol\":6115:6128  buffer memory */\n      tag_197\n      tag_143\n      jump\t// in\n    tag_197:\n        /* \"@chainlink/contracts/src/v0.8/vendor/BufferChainlink.sol\":6143:6180  writeUint8(buf, buf.buf.length, data) */\n      tag_199\n        /* \"@chainlink/contracts/src/v0.8/vendor/BufferChainlink.sol\":6154:6157  buf */\n      dup4\n        /* \"@chainlink/contracts/src/v0.8/vendor/BufferChainlink.sol\":6159:6162  buf */\n      dup5\n        /* \"@chainlink/contracts/src/v0.8/vendor/BufferChainlink.sol\":6159:6166  buf.buf */\n      0x00\n      add\n      mload\n        /* \"@chainlink/contracts/src/v0.8/vendor/BufferChainlink.sol\":6159:6173  buf.buf.length */\n      mload\n        /* \"@chainlink/contracts/src/v0.8/vendor/BufferChainlink.sol\":6175:6179  data */\n      dup5\n        /* \"@chainlink/contracts/src/v0.8/vendor/BufferChainlink.sol\":6143:6153  writeUint8 */\n      tag_200\n        /* \"@chainlink/contracts/src/v0.8/vendor/BufferChainlink.sol\":6143:6180  writeUint8(buf, buf.buf.length, data) */\n      jump\t// in\n    tag_199:\n        /* \"@chainlink/contracts/src/v0.8/vendor/BufferChainlink.sol\":6136:6180  return writeUint8(buf, buf.buf.length, data) */\n      swap1\n      pop\n        /* \"@chainlink/contracts/src/v0.8/vendor/BufferChainlink.sol\":6040:6185  function appendUint8(buffer memory buf, uint8 data) internal pure returns (buffer memory) {... */\n      swap3\n      swap2\n      pop\n      pop\n      jump\t// out\n        /* \"@chainlink/contracts/src/v0.8/vendor/BufferChainlink.sol\":9894:10071  function appendInt(... */\n    tag_160:\n        /* \"@chainlink/contracts/src/v0.8/vendor/BufferChainlink.sol\":9998:10011  buffer memory */\n      tag_201\n      tag_143\n      jump\t// in\n    tag_201:\n        /* \"@chainlink/contracts/src/v0.8/vendor/BufferChainlink.sol\":10026:10066  writeInt(buf, buf.buf.length, data, len) */\n      tag_203\n        /* \"@chainlink/contracts/src/v0.8/vendor/BufferChainlink.sol\":10035:10038  buf */\n      dup5\n        /* \"@chainlink/contracts/src/v0.8/vendor/BufferChainlink.sol\":10040:10043  buf */\n      dup6\n        /* \"@chainlink/contracts/src/v0.8/vendor/BufferChainlink.sol\":10040:10047  buf.buf */\n      0x00\n      add\n      mload\n        /* \"@chainlink/contracts/src/v0.8/vendor/BufferChainlink.sol\":10040:10054  buf.buf.length */\n      mload\n        /* \"@chainlink/contracts/src/v0.8/vendor/BufferChainlink.sol\":10056:10060  data */\n      dup6\n        /* \"@chainlink/contracts/src/v0.8/vendor/BufferChainlink.sol\":10062:10065  len */\n      dup6\n        /* \"@chainlink/contracts/src/v0.8/vendor/BufferChainlink.sol\":10026:10034  writeInt */\n      tag_204\n        /* \"@chainlink/contracts/src/v0.8/vendor/BufferChainlink.sol\":10026:10066  writeInt(buf, buf.buf.length, data, len) */\n      jump\t// in\n    tag_203:\n        /* \"@chainlink/contracts/src/v0.8/vendor/BufferChainlink.sol\":10019:10066  return writeInt(buf, buf.buf.length, data, len) */\n      swap1\n      pop\n        /* \"@chainlink/contracts/src/v0.8/vendor/BufferChainlink.sol\":9894:10071  function appendInt(... */\n      swap4\n      swap3\n      pop\n      pop\n      pop\n      jump\t// out\n        /* \"@chainlink/contracts/src/v0.8/vendor/BufferChainlink.sol\":2745:3955  function write(... */\n    tag_175:\n        /* \"@chainlink/contracts/src/v0.8/vendor/BufferChainlink.sol\":2867:2880  buffer memory */\n      tag_205\n      tag_143\n      jump\t// in\n    tag_205:\n        /* \"@chainlink/contracts/src/v0.8/vendor/BufferChainlink.sol\":2903:2907  data */\n      dup3\n        /* \"@chainlink/contracts/src/v0.8/vendor/BufferChainlink.sol\":2903:2914  data.length */\n      mload\n        /* \"@chainlink/contracts/src/v0.8/vendor/BufferChainlink.sol\":2896:2899  len */\n      dup3\n        /* \"@chainlink/contracts/src/v0.8/vendor/BufferChainlink.sol\":2896:2914  len <= data.length */\n      gt\n      iszero\n        /* \"@chainlink/contracts/src/v0.8/vendor/BufferChainlink.sol\":2888:2915  require(len <= data.length) */\n      tag_207\n      jumpi\n      revert(0x00, 0x00)\n    tag_207:\n        /* \"@chainlink/contracts/src/v0.8/vendor/BufferChainlink.sol\":2938:2941  buf */\n      dup5\n        /* \"@chainlink/contracts/src/v0.8/vendor/BufferChainlink.sol\":2938:2950  buf.capacity */\n      0x20\n      add\n      mload\n        /* \"@chainlink/contracts/src/v0.8/vendor/BufferChainlink.sol\":2932:2935  len */\n      dup3\n        /* \"@chainlink/contracts/src/v0.8/vendor/BufferChainlink.sol\":2926:2929  off */\n      dup6\n        /* \"@chainlink/contracts/src/v0.8/vendor/BufferChainlink.sol\":2926:2935  off + len */\n      tag_208\n      swap2\n      swap1\n      tag_137\n      jump\t// in\n    tag_208:\n        /* \"@chainlink/contracts/src/v0.8/vendor/BufferChainlink.sol\":2926:2950  off + len > buf.capacity */\n      gt\n        /* \"@chainlink/contracts/src/v0.8/vendor/BufferChainlink.sol\":2922:3012  if (off + len > buf.capacity) {... */\n      iszero\n      tag_209\n      jumpi\n        /* \"@chainlink/contracts/src/v0.8/vendor/BufferChainlink.sol\":2960:3005  resize(buf, max(buf.capacity, len + off) * 2) */\n      tag_210\n        /* \"@chainlink/contracts/src/v0.8/vendor/BufferChainlink.sol\":2967:2970  buf */\n      dup6\n        /* \"@chainlink/contracts/src/v0.8/vendor/BufferChainlink.sol\":3003:3004  2 */\n      0x02\n        /* \"@chainlink/contracts/src/v0.8/vendor/BufferChainlink.sol\":2972:3000  max(buf.capacity, len + off) */\n      tag_211\n        /* \"@chainlink/contracts/src/v0.8/vendor/BufferChainlink.sol\":2976:2979  buf */\n      dup9\n        /* \"@chainlink/contracts/src/v0.8/vendor/BufferChainlink.sol\":2976:2988  buf.capacity */\n      0x20\n      add\n      mload\n        /* \"@chainlink/contracts/src/v0.8/vendor/BufferChainlink.sol\":2996:2999  off */\n      dup9\n        /* \"@chainlink/contracts/src/v0.8/vendor/BufferChainlink.sol\":2990:2993  len */\n      dup8\n        /* \"@chainlink/contracts/src/v0.8/vendor/BufferChainlink.sol\":2990:2999  len + off */\n      tag_212\n      swap2\n      swap1\n      tag_137\n      jump\t// in\n    tag_212:\n        /* \"@chainlink/contracts/src/v0.8/vendor/BufferChainlink.sol\":2972:2975  max */\n      tag_213\n        /* \"@chainlink/contracts/src/v0.8/vendor/BufferChainlink.sol\":2972:3000  max(buf.capacity, len + off) */\n      jump\t// in\n    tag_211:\n        /* \"@chainlink/contracts/src/v0.8/vendor/BufferChainlink.sol\":2972:3004  max(buf.capacity, len + off) * 2 */\n      tag_214\n      swap2\n      swap1\n      tag_215\n      jump\t// in\n    tag_214:\n        /* \"@chainlink/contracts/src/v0.8/vendor/BufferChainlink.sol\":2960:2966  resize */\n      tag_216\n        /* \"@chainlink/contracts/src/v0.8/vendor/BufferChainlink.sol\":2960:3005  resize(buf, max(buf.capacity, len + off) * 2) */\n      jump\t// in\n    tag_210:\n        /* \"@chainlink/contracts/src/v0.8/vendor/BufferChainlink.sol\":2922:3012  if (off + len > buf.capacity) {... */\n    tag_209:\n        /* \"@chainlink/contracts/src/v0.8/vendor/BufferChainlink.sol\":3018:3030  uint256 dest */\n      0x00\n        /* \"@chainlink/contracts/src/v0.8/vendor/BufferChainlink.sol\":3036:3047  uint256 src */\n      0x00\n        /* \"@chainlink/contracts/src/v0.8/vendor/BufferChainlink.sol\":3133:3136  buf */\n      dup7\n        /* \"@chainlink/contracts/src/v0.8/vendor/BufferChainlink.sol\":3127:3137  mload(buf) */\n      mload\n        /* \"@chainlink/contracts/src/v0.8/vendor/BufferChainlink.sol\":3204:3210  bufptr */\n      dup1\n        /* \"@chainlink/contracts/src/v0.8/vendor/BufferChainlink.sol\":3198:3211  mload(bufptr) */\n      mload\n        /* \"@chainlink/contracts/src/v0.8/vendor/BufferChainlink.sol\":3320:3323  off */\n      dup8\n        /* \"@chainlink/contracts/src/v0.8/vendor/BufferChainlink.sol\":3315:3317  32 */\n      0x20\n        /* \"@chainlink/contracts/src/v0.8/vendor/BufferChainlink.sol\":3307:3313  bufptr */\n      dup4\n        /* \"@chainlink/contracts/src/v0.8/vendor/BufferChainlink.sol\":3303:3318  add(bufptr, 32) */\n      add\n        /* \"@chainlink/contracts/src/v0.8/vendor/BufferChainlink.sol\":3299:3324  add(add(bufptr, 32), off) */\n      add\n        /* \"@chainlink/contracts/src/v0.8/vendor/BufferChainlink.sol\":3291:3324  dest := add(add(bufptr, 32), off) */\n      swap4\n      pop\n        /* \"@chainlink/contracts/src/v0.8/vendor/BufferChainlink.sol\":3404:3410  buflen */\n      dup1\n        /* \"@chainlink/contracts/src/v0.8/vendor/BufferChainlink.sol\":3398:3401  off */\n      dup9\n        /* \"@chainlink/contracts/src/v0.8/vendor/BufferChainlink.sol\":3393:3396  len */\n      dup8\n        /* \"@chainlink/contracts/src/v0.8/vendor/BufferChainlink.sol\":3389:3402  add(len, off) */\n      add\n        /* \"@chainlink/contracts/src/v0.8/vendor/BufferChainlink.sol\":3386:3411  gt(add(len, off), buflen) */\n      gt\n        /* \"@chainlink/contracts/src/v0.8/vendor/BufferChainlink.sol\":3383:3459  if gt(add(len, off), buflen) {... */\n      iszero\n      tag_217\n      jumpi\n        /* \"@chainlink/contracts/src/v0.8/vendor/BufferChainlink.sol\":3446:3449  off */\n      dup8\n        /* \"@chainlink/contracts/src/v0.8/vendor/BufferChainlink.sol\":3441:3444  len */\n      dup7\n        /* \"@chainlink/contracts/src/v0.8/vendor/BufferChainlink.sol\":3437:3450  add(len, off) */\n      add\n        /* \"@chainlink/contracts/src/v0.8/vendor/BufferChainlink.sol\":3429:3435  bufptr */\n      dup3\n        /* \"@chainlink/contracts/src/v0.8/vendor/BufferChainlink.sol\":3422:3451  mstore(bufptr, add(len, off)) */\n      mstore\n        /* \"@chainlink/contracts/src/v0.8/vendor/BufferChainlink.sol\":3383:3459  if gt(add(len, off), buflen) {... */\n    tag_217:\n        /* \"@chainlink/contracts/src/v0.8/vendor/BufferChainlink.sol\":3483:3485  32 */\n      0x20\n        /* \"@chainlink/contracts/src/v0.8/vendor/BufferChainlink.sol\":3477:3481  data */\n      dup8\n        /* \"@chainlink/contracts/src/v0.8/vendor/BufferChainlink.sol\":3473:3486  add(data, 32) */\n      add\n        /* \"@chainlink/contracts/src/v0.8/vendor/BufferChainlink.sol\":3466:3486  src := add(data, 32) */\n      swap3\n      pop\n        /* \"@chainlink/contracts/src/v0.8/vendor/BufferChainlink.sol\":3062:3492  {... */\n      pop\n      pop\n        /* \"@chainlink/contracts/src/v0.8/vendor/BufferChainlink.sol\":3544:3673  for (; len >= 32; len -= 32) {... */\n    tag_218:\n        /* \"@chainlink/contracts/src/v0.8/vendor/BufferChainlink.sol\":3558:3560  32 */\n      0x20\n        /* \"@chainlink/contracts/src/v0.8/vendor/BufferChainlink.sol\":3551:3554  len */\n      dup5\n        /* \"@chainlink/contracts/src/v0.8/vendor/BufferChainlink.sol\":3551:3560  len >= 32 */\n      lt\n        /* \"@chainlink/contracts/src/v0.8/vendor/BufferChainlink.sol\":3544:3673  for (; len >= 32; len -= 32) {... */\n      tag_219\n      jumpi\n        /* \"@chainlink/contracts/src/v0.8/vendor/BufferChainlink.sol\":3619:3622  src */\n      dup1\n        /* \"@chainlink/contracts/src/v0.8/vendor/BufferChainlink.sol\":3613:3623  mload(src) */\n      mload\n        /* \"@chainlink/contracts/src/v0.8/vendor/BufferChainlink.sol\":3607:3611  dest */\n      dup3\n        /* \"@chainlink/contracts/src/v0.8/vendor/BufferChainlink.sol\":3600:3624  mstore(dest, mload(src)) */\n      mstore\n        /* \"@chainlink/contracts/src/v0.8/vendor/BufferChainlink.sol\":3647:3649  32 */\n      0x20\n        /* \"@chainlink/contracts/src/v0.8/vendor/BufferChainlink.sol\":3639:3649  dest += 32 */\n      dup3\n      tag_221\n      swap2\n      swap1\n      tag_137\n      jump\t// in\n    tag_221:\n      swap2\n      pop\n        /* \"@chainlink/contracts/src/v0.8/vendor/BufferChainlink.sol\":3664:3666  32 */\n      0x20\n        /* \"@chainlink/contracts/src/v0.8/vendor/BufferChainlink.sol\":3657:3666  src += 32 */\n      dup2\n      tag_222\n      swap2\n      swap1\n      tag_137\n      jump\t// in\n    tag_222:\n      swap1\n      pop\n        /* \"@chainlink/contracts/src/v0.8/vendor/BufferChainlink.sol\":3569:3571  32 */\n      0x20\n        /* \"@chainlink/contracts/src/v0.8/vendor/BufferChainlink.sol\":3562:3571  len -= 32 */\n      dup5\n      tag_223\n      swap2\n      swap1\n      tag_150\n      jump\t// in\n    tag_223:\n      swap4\n      pop\n        /* \"@chainlink/contracts/src/v0.8/vendor/BufferChainlink.sol\":3544:3673  for (; len >= 32; len -= 32) {... */\n      jump(tag_218)\n    tag_219:\n        /* \"@chainlink/contracts/src/v0.8/vendor/BufferChainlink.sol\":3725:3737  uint256 mask */\n      0x00\n        /* \"@chainlink/contracts/src/v0.8/vendor/BufferChainlink.sol\":3760:3761  1 */\n      0x01\n        /* \"@chainlink/contracts/src/v0.8/vendor/BufferChainlink.sol\":3752:3755  len */\n      dup6\n        /* \"@chainlink/contracts/src/v0.8/vendor/BufferChainlink.sol\":3747:3749  32 */\n      0x20\n        /* \"@chainlink/contracts/src/v0.8/vendor/BufferChainlink.sol\":3747:3755  32 - len */\n      sub\n        /* \"@chainlink/contracts/src/v0.8/vendor/BufferChainlink.sol\":3741:3744  256 */\n      0x0100\n        /* \"@chainlink/contracts/src/v0.8/vendor/BufferChainlink.sol\":3741:3756  256**(32 - len) */\n      exp\n        /* \"@chainlink/contracts/src/v0.8/vendor/BufferChainlink.sol\":3740:3761  (256**(32 - len)) - 1 */\n      sub\n        /* \"@chainlink/contracts/src/v0.8/vendor/BufferChainlink.sol\":3725:3761  uint256 mask = (256**(32 - len)) - 1 */\n      swap1\n      pop\n        /* \"@chainlink/contracts/src/v0.8/vendor/BufferChainlink.sol\":3823:3827  mask */\n      dup1\n        /* \"@chainlink/contracts/src/v0.8/vendor/BufferChainlink.sol\":3819:3828  not(mask) */\n      not\n        /* \"@chainlink/contracts/src/v0.8/vendor/BufferChainlink.sol\":3813:3816  src */\n      dup3\n        /* \"@chainlink/contracts/src/v0.8/vendor/BufferChainlink.sol\":3807:3817  mload(src) */\n      mload\n        /* \"@chainlink/contracts/src/v0.8/vendor/BufferChainlink.sol\":3803:3829  and(mload(src), not(mask)) */\n      and\n        /* \"@chainlink/contracts/src/v0.8/vendor/BufferChainlink.sol\":3871:3875  mask */\n      dup2\n        /* \"@chainlink/contracts/src/v0.8/vendor/BufferChainlink.sol\":3864:3868  dest */\n      dup5\n        /* \"@chainlink/contracts/src/v0.8/vendor/BufferChainlink.sol\":3858:3869  mload(dest) */\n      mload\n        /* \"@chainlink/contracts/src/v0.8/vendor/BufferChainlink.sol\":3854:3876  and(mload(dest), mask) */\n      and\n        /* \"@chainlink/contracts/src/v0.8/vendor/BufferChainlink.sol\":3911:3918  srcpart */\n      dup2\n        /* \"@chainlink/contracts/src/v0.8/vendor/BufferChainlink.sol\":3901:3909  destpart */\n      dup2\n        /* \"@chainlink/contracts/src/v0.8/vendor/BufferChainlink.sol\":3898:3919  or(destpart, srcpart) */\n      or\n        /* \"@chainlink/contracts/src/v0.8/vendor/BufferChainlink.sol\":3892:3896  dest */\n      dup6\n        /* \"@chainlink/contracts/src/v0.8/vendor/BufferChainlink.sol\":3885:3920  mstore(dest, or(destpart, srcpart)) */\n      mstore\n        /* \"@chainlink/contracts/src/v0.8/vendor/BufferChainlink.sol\":3778:3928  {... */\n      pop\n      pop\n      pop\n        /* \"@chainlink/contracts/src/v0.8/vendor/BufferChainlink.sol\":3947:3950  buf */\n      dup7\n        /* \"@chainlink/contracts/src/v0.8/vendor/BufferChainlink.sol\":3940:3950  return buf */\n      swap3\n      pop\n      pop\n      pop\n        /* \"@chainlink/contracts/src/v0.8/vendor/BufferChainlink.sol\":2745:3955  function write(... */\n      swap5\n      swap4\n      pop\n      pop\n      pop\n      pop\n      jump\t// out\n        /* \"@chainlink/contracts/src/v0.8/vendor/CBORChainlink.sol\":2154:2341  function encodeBytes(BufferChainlink.buffer memory buf, bytes memory value) internal pure {... */\n    tag_181:\n        /* \"@chainlink/contracts/src/v0.8/vendor/CBORChainlink.sol\":2250:2313  encodeFixedNumeric(buf, MAJOR_TYPE_BYTES, uint64(value.length)) */\n      tag_225\n        /* \"@chainlink/contracts/src/v0.8/vendor/CBORChainlink.sol\":2269:2272  buf */\n      dup3\n        /* \"@chainlink/contracts/src/v0.8/vendor/CBORChainlink.sol\":335:336  2 */\n      0x02\n        /* \"@chainlink/contracts/src/v0.8/vendor/CBORChainlink.sol\":2299:2304  value */\n      dup4\n        /* \"@chainlink/contracts/src/v0.8/vendor/CBORChainlink.sol\":2299:2311  value.length */\n      mload\n        /* \"@chainlink/contracts/src/v0.8/vendor/CBORChainlink.sol\":2250:2268  encodeFixedNumeric */\n      tag_117\n        /* \"@chainlink/contracts/src/v0.8/vendor/CBORChainlink.sol\":2250:2313  encodeFixedNumeric(buf, MAJOR_TYPE_BYTES, uint64(value.length)) */\n      jump\t// in\n    tag_225:\n        /* \"@chainlink/contracts/src/v0.8/vendor/CBORChainlink.sol\":2319:2336  buf.append(value) */\n      tag_226\n        /* \"@chainlink/contracts/src/v0.8/vendor/CBORChainlink.sol\":2330:2335  value */\n      dup2\n        /* \"@chainlink/contracts/src/v0.8/vendor/CBORChainlink.sol\":2319:2322  buf */\n      dup4\n        /* \"@chainlink/contracts/src/v0.8/vendor/CBORChainlink.sol\":2319:2329  buf.append */\n      tag_119\n      swap1\n        /* \"@chainlink/contracts/src/v0.8/vendor/CBORChainlink.sol\":2319:2336  buf.append(value) */\n      swap2\n      swap1\n      0xffffffff\n      and\n      jump\t// in\n    tag_226:\n      pop\n        /* \"@chainlink/contracts/src/v0.8/vendor/CBORChainlink.sol\":2154:2341  function encodeBytes(BufferChainlink.buffer memory buf, bytes memory value) internal pure {... */\n      pop\n      pop\n      jump\t// out\n        /* \"@chainlink/contracts/src/v0.8/vendor/BufferChainlink.sol\":5148:5787  function writeUint8(... */\n    tag_200:\n        /* \"@chainlink/contracts/src/v0.8/vendor/BufferChainlink.sol\":5251:5264  buffer memory */\n      tag_227\n      tag_143\n      jump\t// in\n    tag_227:\n        /* \"@chainlink/contracts/src/v0.8/vendor/BufferChainlink.sol\":5283:5286  buf */\n      dup4\n        /* \"@chainlink/contracts/src/v0.8/vendor/BufferChainlink.sol\":5283:5295  buf.capacity */\n      0x20\n      add\n      mload\n        /* \"@chainlink/contracts/src/v0.8/vendor/BufferChainlink.sol\":5276:5279  off */\n      dup4\n        /* \"@chainlink/contracts/src/v0.8/vendor/BufferChainlink.sol\":5276:5295  off >= buf.capacity */\n      lt\n        /* \"@chainlink/contracts/src/v0.8/vendor/BufferChainlink.sol\":5272:5341  if (off >= buf.capacity) {... */\n      tag_229\n      jumpi\n        /* \"@chainlink/contracts/src/v0.8/vendor/BufferChainlink.sol\":5305:5334  resize(buf, buf.capacity * 2) */\n      tag_230\n        /* \"@chainlink/contracts/src/v0.8/vendor/BufferChainlink.sol\":5312:5315  buf */\n      dup5\n        /* \"@chainlink/contracts/src/v0.8/vendor/BufferChainlink.sol\":5332:5333  2 */\n      0x02\n        /* \"@chainlink/contracts/src/v0.8/vendor/BufferChainlink.sol\":5317:5320  buf */\n      dup7\n        /* \"@chainlink/contracts/src/v0.8/vendor/BufferChainlink.sol\":5317:5329  buf.capacity */\n      0x20\n      add\n      mload\n        /* \"@chainlink/contracts/src/v0.8/vendor/BufferChainlink.sol\":5317:5333  buf.capacity * 2 */\n      tag_231\n      swap2\n      swap1\n      tag_215\n      jump\t// in\n    tag_231:\n        /* \"@chainlink/contracts/src/v0.8/vendor/BufferChainlink.sol\":5305:5311  resize */\n      tag_216\n        /* \"@chainlink/contracts/src/v0.8/vendor/BufferChainlink.sol\":5305:5334  resize(buf, buf.capacity * 2) */\n      jump\t// in\n    tag_230:\n        /* \"@chainlink/contracts/src/v0.8/vendor/BufferChainlink.sol\":5272:5341  if (off >= buf.capacity) {... */\n    tag_229:\n        /* \"@chainlink/contracts/src/v0.8/vendor/BufferChainlink.sol\":5427:5430  buf */\n      dup4\n        /* \"@chainlink/contracts/src/v0.8/vendor/BufferChainlink.sol\":5421:5431  mload(buf) */\n      mload\n        /* \"@chainlink/contracts/src/v0.8/vendor/BufferChainlink.sol\":5498:5504  bufptr */\n      dup1\n        /* \"@chainlink/contracts/src/v0.8/vendor/BufferChainlink.sol\":5492:5505  mload(bufptr) */\n      mload\n        /* \"@chainlink/contracts/src/v0.8/vendor/BufferChainlink.sol\":5610:5612  32 */\n      0x20\n        /* \"@chainlink/contracts/src/v0.8/vendor/BufferChainlink.sol\":5604:5607  off */\n      dup6\n        /* \"@chainlink/contracts/src/v0.8/vendor/BufferChainlink.sol\":5596:5602  bufptr */\n      dup4\n        /* \"@chainlink/contracts/src/v0.8/vendor/BufferChainlink.sol\":5592:5608  add(bufptr, off) */\n      add\n        /* \"@chainlink/contracts/src/v0.8/vendor/BufferChainlink.sol\":5588:5613  add(add(bufptr, off), 32) */\n      add\n        /* \"@chainlink/contracts/src/v0.8/vendor/BufferChainlink.sol\":5634:5638  data */\n      dup5\n        /* \"@chainlink/contracts/src/v0.8/vendor/BufferChainlink.sol\":5628:5632  dest */\n      dup2\n        /* \"@chainlink/contracts/src/v0.8/vendor/BufferChainlink.sol\":5620:5639  mstore8(dest, data) */\n      mstore8\n        /* \"@chainlink/contracts/src/v0.8/vendor/BufferChainlink.sol\":5705:5711  buflen */\n      dup2\n        /* \"@chainlink/contracts/src/v0.8/vendor/BufferChainlink.sol\":5700:5703  off */\n      dup7\n        /* \"@chainlink/contracts/src/v0.8/vendor/BufferChainlink.sol\":5697:5712  eq(off, buflen) */\n      sub\n        /* \"@chainlink/contracts/src/v0.8/vendor/BufferChainlink.sol\":5694:5761  if eq(off, buflen) {... */\n      tag_232\n      jumpi\n        /* \"@chainlink/contracts/src/v0.8/vendor/BufferChainlink.sol\":5750:5751  1 */\n      0x01\n        /* \"@chainlink/contracts/src/v0.8/vendor/BufferChainlink.sol\":5742:5748  buflen */\n      dup3\n        /* \"@chainlink/contracts/src/v0.8/vendor/BufferChainlink.sol\":5738:5752  add(buflen, 1) */\n      add\n        /* \"@chainlink/contracts/src/v0.8/vendor/BufferChainlink.sol\":5730:5736  bufptr */\n      dup4\n        /* \"@chainlink/contracts/src/v0.8/vendor/BufferChainlink.sol\":5723:5753  mstore(bufptr, add(buflen, 1)) */\n      mstore\n        /* \"@chainlink/contracts/src/v0.8/vendor/BufferChainlink.sol\":5694:5761  if eq(off, buflen) {... */\n    tag_232:\n        /* \"@chainlink/contracts/src/v0.8/vendor/BufferChainlink.sol\":5356:5767  {... */\n      pop\n      pop\n      pop\n        /* \"@chainlink/contracts/src/v0.8/vendor/BufferChainlink.sol\":5779:5782  buf */\n      dup4\n        /* \"@chainlink/contracts/src/v0.8/vendor/BufferChainlink.sol\":5772:5782  return buf */\n      swap1\n      pop\n        /* \"@chainlink/contracts/src/v0.8/vendor/BufferChainlink.sol\":5148:5787  function writeUint8(... */\n      swap4\n      swap3\n      pop\n      pop\n      pop\n      jump\t// out\n        /* \"@chainlink/contracts/src/v0.8/vendor/BufferChainlink.sol\":8974:9649  function writeInt(... */\n    tag_204:\n        /* \"@chainlink/contracts/src/v0.8/vendor/BufferChainlink.sol\":9093:9106  buffer memory */\n      tag_233\n      tag_143\n      jump\t// in\n    tag_233:\n        /* \"@chainlink/contracts/src/v0.8/vendor/BufferChainlink.sol\":9130:9133  buf */\n      dup5\n        /* \"@chainlink/contracts/src/v0.8/vendor/BufferChainlink.sol\":9130:9142  buf.capacity */\n      0x20\n      add\n      mload\n        /* \"@chainlink/contracts/src/v0.8/vendor/BufferChainlink.sol\":9124:9127  off */\n      dup5\n        /* \"@chainlink/contracts/src/v0.8/vendor/BufferChainlink.sol\":9118:9121  len */\n      dup4\n        /* \"@chainlink/contracts/src/v0.8/vendor/BufferChainlink.sol\":9118:9127  len + off */\n      tag_235\n      swap2\n      swap1\n      tag_137\n      jump\t// in\n    tag_235:\n        /* \"@chainlink/contracts/src/v0.8/vendor/BufferChainlink.sol\":9118:9142  len + off > buf.capacity */\n      gt\n        /* \"@chainlink/contracts/src/v0.8/vendor/BufferChainlink.sol\":9114:9187  if (len + off > buf.capacity) {... */\n      iszero\n      tag_236\n      jumpi\n        /* \"@chainlink/contracts/src/v0.8/vendor/BufferChainlink.sol\":9152:9180  resize(buf, (len + off) * 2) */\n      tag_237\n        /* \"@chainlink/contracts/src/v0.8/vendor/BufferChainlink.sol\":9159:9162  buf */\n      dup6\n        /* \"@chainlink/contracts/src/v0.8/vendor/BufferChainlink.sol\":9178:9179  2 */\n      0x02\n        /* \"@chainlink/contracts/src/v0.8/vendor/BufferChainlink.sol\":9171:9174  off */\n      dup7\n        /* \"@chainlink/contracts/src/v0.8/vendor/BufferChainlink.sol\":9165:9168  len */\n      dup6\n        /* \"@chainlink/contracts/src/v0.8/vendor/BufferChainlink.sol\":9165:9174  len + off */\n      tag_238\n      swap2\n      swap1\n      tag_137\n      jump\t// in\n    tag_238:\n        /* \"@chainlink/contracts/src/v0.8/vendor/BufferChainlink.sol\":9164:9179  (len + off) * 2 */\n      tag_239\n      swap2\n      swap1\n      tag_215\n      jump\t// in\n    tag_239:\n        /* \"@chainlink/contracts/src/v0.8/vendor/BufferChainlink.sol\":9152:9158  resize */\n      tag_216\n        /* \"@chainlink/contracts/src/v0.8/vendor/BufferChainlink.sol\":9152:9180  resize(buf, (len + off) * 2) */\n      jump\t// in\n    tag_237:\n        /* \"@chainlink/contracts/src/v0.8/vendor/BufferChainlink.sol\":9114:9187  if (len + off > buf.capacity) {... */\n    tag_236:\n        /* \"@chainlink/contracts/src/v0.8/vendor/BufferChainlink.sol\":9193:9205  uint256 mask */\n      0x00\n        /* \"@chainlink/contracts/src/v0.8/vendor/BufferChainlink.sol\":9221:9222  1 */\n      0x01\n        /* \"@chainlink/contracts/src/v0.8/vendor/BufferChainlink.sol\":9214:9217  len */\n      dup4\n        /* \"@chainlink/contracts/src/v0.8/vendor/BufferChainlink.sol\":9209:9212  256 */\n      0x0100\n        /* \"@chainlink/contracts/src/v0.8/vendor/BufferChainlink.sol\":9209:9217  256**len */\n      tag_240\n      swap2\n      swap1\n      tag_241\n      jump\t// in\n    tag_240:\n        /* \"@chainlink/contracts/src/v0.8/vendor/BufferChainlink.sol\":9208:9222  (256**len) - 1 */\n      tag_242\n      swap2\n      swap1\n      tag_150\n      jump\t// in\n    tag_242:\n        /* \"@chainlink/contracts/src/v0.8/vendor/BufferChainlink.sol\":9193:9222  uint256 mask = (256**len) - 1 */\n      swap1\n      pop\n        /* \"@chainlink/contracts/src/v0.8/vendor/BufferChainlink.sol\":9308:9311  buf */\n      dup6\n        /* \"@chainlink/contracts/src/v0.8/vendor/BufferChainlink.sol\":9302:9312  mload(buf) */\n      mload\n        /* \"@chainlink/contracts/src/v0.8/vendor/BufferChainlink.sol\":9423:9426  len */\n      dup4\n        /* \"@chainlink/contracts/src/v0.8/vendor/BufferChainlink.sol\":9417:9420  off */\n      dup7\n        /* \"@chainlink/contracts/src/v0.8/vendor/BufferChainlink.sol\":9409:9415  bufptr */\n      dup3\n        /* \"@chainlink/contracts/src/v0.8/vendor/BufferChainlink.sol\":9405:9421  add(bufptr, off) */\n      add\n        /* \"@chainlink/contracts/src/v0.8/vendor/BufferChainlink.sol\":9401:9427  add(add(bufptr, off), len) */\n      add\n        /* \"@chainlink/contracts/src/v0.8/vendor/BufferChainlink.sol\":9479:9483  data */\n      dup6\n        /* \"@chainlink/contracts/src/v0.8/vendor/BufferChainlink.sol\":9471:9475  mask */\n      dup4\n        /* \"@chainlink/contracts/src/v0.8/vendor/BufferChainlink.sol\":9467:9476  not(mask) */\n      not\n        /* \"@chainlink/contracts/src/v0.8/vendor/BufferChainlink.sol\":9460:9464  dest */\n      dup3\n        /* \"@chainlink/contracts/src/v0.8/vendor/BufferChainlink.sol\":9454:9465  mload(dest) */\n      mload\n        /* \"@chainlink/contracts/src/v0.8/vendor/BufferChainlink.sol\":9450:9477  and(mload(dest), not(mask)) */\n      and\n        /* \"@chainlink/contracts/src/v0.8/vendor/BufferChainlink.sol\":9447:9484  or(and(mload(dest), not(mask)), data) */\n      or\n        /* \"@chainlink/contracts/src/v0.8/vendor/BufferChainlink.sol\":9441:9445  dest */\n      dup2\n        /* \"@chainlink/contracts/src/v0.8/vendor/BufferChainlink.sol\":9434:9485  mstore(dest, or(and(mload(dest), not(mask)), data)) */\n      mstore\n        /* \"@chainlink/contracts/src/v0.8/vendor/BufferChainlink.sol\":9567:9573  bufptr */\n      dup2\n        /* \"@chainlink/contracts/src/v0.8/vendor/BufferChainlink.sol\":9561:9574  mload(bufptr) */\n      mload\n        /* \"@chainlink/contracts/src/v0.8/vendor/BufferChainlink.sol\":9555:9558  len */\n      dup6\n        /* \"@chainlink/contracts/src/v0.8/vendor/BufferChainlink.sol\":9550:9553  off */\n      dup9\n        /* \"@chainlink/contracts/src/v0.8/vendor/BufferChainlink.sol\":9546:9559  add(off, len) */\n      add\n        /* \"@chainlink/contracts/src/v0.8/vendor/BufferChainlink.sol\":9543:9575  gt(add(off, len), mload(bufptr)) */\n      gt\n        /* \"@chainlink/contracts/src/v0.8/vendor/BufferChainlink.sol\":9540:9623  if gt(add(off, len), mload(bufptr)) {... */\n      iszero\n      tag_243\n      jumpi\n        /* \"@chainlink/contracts/src/v0.8/vendor/BufferChainlink.sol\":9610:9613  len */\n      dup5\n        /* \"@chainlink/contracts/src/v0.8/vendor/BufferChainlink.sol\":9605:9608  off */\n      dup8\n        /* \"@chainlink/contracts/src/v0.8/vendor/BufferChainlink.sol\":9601:9614  add(off, len) */\n      add\n        /* \"@chainlink/contracts/src/v0.8/vendor/BufferChainlink.sol\":9593:9599  bufptr */\n      dup3\n        /* \"@chainlink/contracts/src/v0.8/vendor/BufferChainlink.sol\":9586:9615  mstore(bufptr, add(off, len)) */\n      mstore\n        /* \"@chainlink/contracts/src/v0.8/vendor/BufferChainlink.sol\":9540:9623  if gt(add(off, len), mload(bufptr)) {... */\n    tag_243:\n        /* \"@chainlink/contracts/src/v0.8/vendor/BufferChainlink.sol\":9237:9629  {... */\n      pop\n      pop\n        /* \"@chainlink/contracts/src/v0.8/vendor/BufferChainlink.sol\":9641:9644  buf */\n      dup6\n        /* \"@chainlink/contracts/src/v0.8/vendor/BufferChainlink.sol\":9634:9644  return buf */\n      swap2\n      pop\n      pop\n        /* \"@chainlink/contracts/src/v0.8/vendor/BufferChainlink.sol\":8974:9649  function writeInt(... */\n      swap5\n      swap4\n      pop\n      pop\n      pop\n      pop\n      jump\t// out\n        /* \"@chainlink/contracts/src/v0.8/vendor/BufferChainlink.sol\":1961:2085  function max(uint256 a, uint256 b) private pure returns (uint256) {... */\n    tag_213:\n        /* \"@chainlink/contracts/src/v0.8/vendor/BufferChainlink.sol\":2018:2025  uint256 */\n      0x00\n        /* \"@chainlink/contracts/src/v0.8/vendor/BufferChainlink.sol\":2041:2042  b */\n      dup2\n        /* \"@chainlink/contracts/src/v0.8/vendor/BufferChainlink.sol\":2037:2038  a */\n      dup4\n        /* \"@chainlink/contracts/src/v0.8/vendor/BufferChainlink.sol\":2037:2042  a > b */\n      gt\n        /* \"@chainlink/contracts/src/v0.8/vendor/BufferChainlink.sol\":2033:2067  if (a > b) {... */\n      iszero\n      tag_245\n      jumpi\n        /* \"@chainlink/contracts/src/v0.8/vendor/BufferChainlink.sol\":2059:2060  a */\n      dup3\n        /* \"@chainlink/contracts/src/v0.8/vendor/BufferChainlink.sol\":2052:2060  return a */\n      swap1\n      pop\n      jump(tag_244)\n        /* \"@chainlink/contracts/src/v0.8/vendor/BufferChainlink.sol\":2033:2067  if (a > b) {... */\n    tag_245:\n        /* \"@chainlink/contracts/src/v0.8/vendor/BufferChainlink.sol\":2079:2080  b */\n      dup2\n        /* \"@chainlink/contracts/src/v0.8/vendor/BufferChainlink.sol\":2072:2080  return b */\n      swap1\n      pop\n        /* \"@chainlink/contracts/src/v0.8/vendor/BufferChainlink.sol\":1961:2085  function max(uint256 a, uint256 b) private pure returns (uint256) {... */\n    tag_244:\n      swap3\n      swap2\n      pop\n      pop\n      jump\t// out\n        /* \"@chainlink/contracts/src/v0.8/vendor/BufferChainlink.sol\":1801:1957  function resize(buffer memory buf, uint256 capacity) private pure {... */\n    tag_216:\n        /* \"@chainlink/contracts/src/v0.8/vendor/BufferChainlink.sol\":1873:1892  bytes memory oldbuf */\n      0x00\n        /* \"@chainlink/contracts/src/v0.8/vendor/BufferChainlink.sol\":1895:1898  buf */\n      dup3\n        /* \"@chainlink/contracts/src/v0.8/vendor/BufferChainlink.sol\":1895:1902  buf.buf */\n      0x00\n      add\n      mload\n        /* \"@chainlink/contracts/src/v0.8/vendor/BufferChainlink.sol\":1873:1902  bytes memory oldbuf = buf.buf */\n      swap1\n      pop\n        /* \"@chainlink/contracts/src/v0.8/vendor/BufferChainlink.sol\":1908:1927  init(buf, capacity) */\n      tag_247\n        /* \"@chainlink/contracts/src/v0.8/vendor/BufferChainlink.sol\":1913:1916  buf */\n      dup4\n        /* \"@chainlink/contracts/src/v0.8/vendor/BufferChainlink.sol\":1918:1926  capacity */\n      dup4\n        /* \"@chainlink/contracts/src/v0.8/vendor/BufferChainlink.sol\":1908:1912  init */\n      tag_114\n        /* \"@chainlink/contracts/src/v0.8/vendor/BufferChainlink.sol\":1908:1927  init(buf, capacity) */\n      jump\t// in\n    tag_247:\n      pop\n        /* \"@chainlink/contracts/src/v0.8/vendor/BufferChainlink.sol\":1933:1952  append(buf, oldbuf) */\n      tag_248\n        /* \"@chainlink/contracts/src/v0.8/vendor/BufferChainlink.sol\":1940:1943  buf */\n      dup4\n        /* \"@chainlink/contracts/src/v0.8/vendor/BufferChainlink.sol\":1945:1951  oldbuf */\n      dup3\n        /* \"@chainlink/contracts/src/v0.8/vendor/BufferChainlink.sol\":1933:1939  append */\n      tag_119\n        /* \"@chainlink/contracts/src/v0.8/vendor/BufferChainlink.sol\":1933:1952  append(buf, oldbuf) */\n      jump\t// in\n    tag_248:\n      pop\n        /* \"@chainlink/contracts/src/v0.8/vendor/BufferChainlink.sol\":1867:1957  {... */\n      pop\n        /* \"@chainlink/contracts/src/v0.8/vendor/BufferChainlink.sol\":1801:1957  function resize(buffer memory buf, uint256 capacity) private pure {... */\n      pop\n      pop\n      jump\t// out\n    tag_86:\n      mload(0x40)\n      dup1\n      0xa0\n      add\n      0x40\n      mstore\n      dup1\n      0x00\n      dup2\n      mstore\n      0x20\n      add\n      and(0xffffffffffffffffffffffffffffffffffffffff, 0x00)\n      dup2\n      mstore\n      0x20\n      add\n      and(not(0xffffffffffffffffffffffffffffffffffffffffffffffffffffffff), 0x00)\n      dup2\n      mstore\n      0x20\n      add\n      0x00\n      dup2\n      mstore\n      0x20\n      add\n      tag_249\n      tag_143\n      jump\t// in\n    tag_249:\n      dup2\n      mstore\n      pop\n      swap1\n      jump\t// out\n    tag_143:\n      mload(0x40)\n      dup1\n      0x40\n      add\n      0x40\n      mstore\n      dup1\n      0x60\n      dup2\n      mstore\n      0x20\n      add\n      0x00\n      dup2\n      mstore\n      pop\n      swap1\n      jump\t// out\n        /* \"#utility.yul\":88:205   */\n    tag_251:\n        /* \"#utility.yul\":197:198   */\n      0x00\n        /* \"#utility.yul\":194:195   */\n      0x00\n        /* \"#utility.yul\":187:199   */\n      revert\n        /* \"#utility.yul\":334:411   */\n    tag_253:\n        /* \"#utility.yul\":371:378   */\n      0x00\n        /* \"#utility.yul\":400:405   */\n      dup2\n        /* \"#utility.yul\":389:405   */\n      swap1\n      pop\n        /* \"#utility.yul\":334:411   */\n      swap2\n      swap1\n      pop\n      jump\t// out\n        /* \"#utility.yul\":417:539   */\n    tag_254:\n        /* \"#utility.yul\":490:514   */\n      tag_314\n        /* \"#utility.yul\":508:513   */\n      dup2\n        /* \"#utility.yul\":490:514   */\n      tag_253\n      jump\t// in\n    tag_314:\n        /* \"#utility.yul\":483:488   */\n      dup2\n        /* \"#utility.yul\":480:515   */\n      eq\n        /* \"#utility.yul\":470:533   */\n      tag_315\n      jumpi\n        /* \"#utility.yul\":529:530   */\n      0x00\n        /* \"#utility.yul\":526:527   */\n      0x00\n        /* \"#utility.yul\":519:531   */\n      revert\n        /* \"#utility.yul\":470:533   */\n    tag_315:\n        /* \"#utility.yul\":417:539   */\n      pop\n      jump\t// out\n        /* \"#utility.yul\":545:684   */\n    tag_255:\n        /* \"#utility.yul\":591:596   */\n      0x00\n        /* \"#utility.yul\":629:635   */\n      dup2\n        /* \"#utility.yul\":616:636   */\n      calldataload\n        /* \"#utility.yul\":607:636   */\n      swap1\n      pop\n        /* \"#utility.yul\":645:678   */\n      tag_317\n        /* \"#utility.yul\":672:677   */\n      dup2\n        /* \"#utility.yul\":645:678   */\n      tag_254\n      jump\t// in\n    tag_317:\n        /* \"#utility.yul\":545:684   */\n      swap3\n      swap2\n      pop\n      pop\n      jump\t// out\n        /* \"#utility.yul\":690:1019   */\n    tag_13:\n        /* \"#utility.yul\":749:755   */\n      0x00\n        /* \"#utility.yul\":798:800   */\n      0x20\n        /* \"#utility.yul\":786:795   */\n      dup3\n        /* \"#utility.yul\":777:784   */\n      dup5\n        /* \"#utility.yul\":773:796   */\n      sub\n        /* \"#utility.yul\":769:801   */\n      slt\n        /* \"#utility.yul\":766:885   */\n      iszero\n      tag_319\n      jumpi\n        /* \"#utility.yul\":804:883   */\n      tag_320\n      tag_251\n      jump\t// in\n    tag_320:\n        /* \"#utility.yul\":766:885   */\n    tag_319:\n        /* \"#utility.yul\":924:925   */\n      0x00\n        /* \"#utility.yul\":949:1002   */\n      tag_321\n        /* \"#utility.yul\":994:1001   */\n      dup5\n        /* \"#utility.yul\":985:991   */\n      dup3\n        /* \"#utility.yul\":974:983   */\n      dup6\n        /* \"#utility.yul\":970:992   */\n      add\n        /* \"#utility.yul\":949:1002   */\n      tag_255\n      jump\t// in\n    tag_321:\n        /* \"#utility.yul\":939:1002   */\n      swap2\n      pop\n        /* \"#utility.yul\":895:1012   */\n      pop\n        /* \"#utility.yul\":690:1019   */\n      swap3\n      swap2\n      pop\n      pop\n      jump\t// out\n        /* \"#utility.yul\":1025:1102   */\n    tag_256:\n        /* \"#utility.yul\":1062:1069   */\n      0x00\n        /* \"#utility.yul\":1091:1096   */\n      dup2\n        /* \"#utility.yul\":1080:1096   */\n      swap1\n      pop\n        /* \"#utility.yul\":1025:1102   */\n      swap2\n      swap1\n      pop\n      jump\t// out\n        /* \"#utility.yul\":1108:1226   */\n    tag_257:\n        /* \"#utility.yul\":1195:1219   */\n      tag_324\n        /* \"#utility.yul\":1213:1218   */\n      dup2\n        /* \"#utility.yul\":1195:1219   */\n      tag_256\n      jump\t// in\n    tag_324:\n        /* \"#utility.yul\":1190:1193   */\n      dup3\n        /* \"#utility.yul\":1183:1220   */\n      mstore\n        /* \"#utility.yul\":1108:1226   */\n      pop\n      pop\n      jump\t// out\n        /* \"#utility.yul\":1232:1454   */\n    tag_16:\n        /* \"#utility.yul\":1325:1329   */\n      0x00\n        /* \"#utility.yul\":1363:1365   */\n      0x20\n        /* \"#utility.yul\":1352:1361   */\n      dup3\n        /* \"#utility.yul\":1348:1366   */\n      add\n        /* \"#utility.yul\":1340:1366   */\n      swap1\n      pop\n        /* \"#utility.yul\":1376:1447   */\n      tag_326\n        /* \"#utility.yul\":1444:1445   */\n      0x00\n        /* \"#utility.yul\":1433:1442   */\n      dup4\n        /* \"#utility.yul\":1429:1446   */\n      add\n        /* \"#utility.yul\":1420:1426   */\n      dup5\n        /* \"#utility.yul\":1376:1447   */\n      tag_257\n      jump\t// in\n    tag_326:\n        /* \"#utility.yul\":1232:1454   */\n      swap3\n      swap2\n      pop\n      pop\n      jump\t// out\n        /* \"#utility.yul\":1460:1582   */\n    tag_258:\n        /* \"#utility.yul\":1533:1557   */\n      tag_328\n        /* \"#utility.yul\":1551:1556   */\n      dup2\n        /* \"#utility.yul\":1533:1557   */\n      tag_256\n      jump\t// in\n    tag_328:\n        /* \"#utility.yul\":1526:1531   */\n      dup2\n        /* \"#utility.yul\":1523:1558   */\n      eq\n        /* \"#utility.yul\":1513:1576   */\n      tag_329\n      jumpi\n        /* \"#utility.yul\":1572:1573   */\n      0x00\n        /* \"#utility.yul\":1569:1570   */\n      0x00\n        /* \"#utility.yul\":1562:1574   */\n      revert\n        /* \"#utility.yul\":1513:1576   */\n    tag_329:\n        /* \"#utility.yul\":1460:1582   */\n      pop\n      jump\t// out\n        /* \"#utility.yul\":1588:1727   */\n    tag_259:\n        /* \"#utility.yul\":1634:1639   */\n      0x00\n        /* \"#utility.yul\":1672:1678   */\n      dup2\n        /* \"#utility.yul\":1659:1679   */\n      calldataload\n        /* \"#utility.yul\":1650:1679   */\n      swap1\n      pop\n        /* \"#utility.yul\":1688:1721   */\n      tag_331\n        /* \"#utility.yul\":1715:1720   */\n      dup2\n        /* \"#utility.yul\":1688:1721   */\n      tag_258\n      jump\t// in\n    tag_331:\n        /* \"#utility.yul\":1588:1727   */\n      swap3\n      swap2\n      pop\n      pop\n      jump\t// out\n        /* \"#utility.yul\":1733:2207   */\n    tag_19:\n        /* \"#utility.yul\":1801:1807   */\n      0x00\n        /* \"#utility.yul\":1809:1815   */\n      0x00\n        /* \"#utility.yul\":1858:1860   */\n      0x40\n        /* \"#utility.yul\":1846:1855   */\n      dup4\n        /* \"#utility.yul\":1837:1844   */\n      dup6\n        /* \"#utility.yul\":1833:1856   */\n      sub\n        /* \"#utility.yul\":1829:1861   */\n      slt\n        /* \"#utility.yul\":1826:1945   */\n      iszero\n      tag_333\n      jumpi\n        /* \"#utility.yul\":1864:1943   */\n      tag_334\n      tag_251\n      jump\t// in\n    tag_334:\n        /* \"#utility.yul\":1826:1945   */\n    tag_333:\n        /* \"#utility.yul\":1984:1985   */\n      0x00\n        /* \"#utility.yul\":2009:2062   */\n      tag_335\n        /* \"#utility.yul\":2054:2061   */\n      dup6\n        /* \"#utility.yul\":2045:2051   */\n      dup3\n        /* \"#utility.yul\":2034:2043   */\n      dup7\n        /* \"#utility.yul\":2030:2052   */\n      add\n        /* \"#utility.yul\":2009:2062   */\n      tag_259\n      jump\t// in\n    tag_335:\n        /* \"#utility.yul\":1999:2062   */\n      swap3\n      pop\n        /* \"#utility.yul\":1955:2072   */\n      pop\n        /* \"#utility.yul\":2111:2113   */\n      0x20\n        /* \"#utility.yul\":2137:2190   */\n      tag_336\n        /* \"#utility.yul\":2182:2189   */\n      dup6\n        /* \"#utility.yul\":2173:2179   */\n      dup3\n        /* \"#utility.yul\":2162:2171   */\n      dup7\n        /* \"#utility.yul\":2158:2180   */\n      add\n        /* \"#utility.yul\":2137:2190   */\n      tag_255\n      jump\t// in\n    tag_336:\n        /* \"#utility.yul\":2127:2190   */\n      swap2\n      pop\n        /* \"#utility.yul\":2082:2200   */\n      pop\n        /* \"#utility.yul\":1733:2207   */\n      swap3\n      pop\n      swap3\n      swap1\n      pop\n      jump\t// out\n        /* \"#utility.yul\":2213:2339   */\n    tag_260:\n        /* \"#utility.yul\":2250:2257   */\n      0x00\n        /* \"#utility.yul\":2290:2332   */\n      0xffffffffffffffffffffffffffffffffffffffff\n        /* \"#utility.yul\":2283:2288   */\n      dup3\n        /* \"#utility.yul\":2279:2333   */\n      and\n        /* \"#utility.yul\":2268:2333   */\n      swap1\n      pop\n        /* \"#utility.yul\":2213:2339   */\n      swap2\n      swap1\n      pop\n      jump\t// out\n        /* \"#utility.yul\":2345:2441   */\n    tag_261:\n        /* \"#utility.yul\":2382:2389   */\n      0x00\n        /* \"#utility.yul\":2411:2435   */\n      tag_339\n        /* \"#utility.yul\":2429:2434   */\n      dup3\n        /* \"#utility.yul\":2411:2435   */\n      tag_260\n      jump\t// in\n    tag_339:\n        /* \"#utility.yul\":2400:2435   */\n      swap1\n      pop\n        /* \"#utility.yul\":2345:2441   */\n      swap2\n      swap1\n      pop\n      jump\t// out\n        /* \"#utility.yul\":2447:2565   */\n    tag_262:\n        /* \"#utility.yul\":2534:2558   */\n      tag_341\n        /* \"#utility.yul\":2552:2557   */\n      dup2\n        /* \"#utility.yul\":2534:2558   */\n      tag_261\n      jump\t// in\n    tag_341:\n        /* \"#utility.yul\":2529:2532   */\n      dup3\n        /* \"#utility.yul\":2522:2559   */\n      mstore\n        /* \"#utility.yul\":2447:2565   */\n      pop\n      pop\n      jump\t// out\n        /* \"#utility.yul\":2571:2793   */\n    tag_26:\n        /* \"#utility.yul\":2664:2668   */\n      0x00\n        /* \"#utility.yul\":2702:2704   */\n      0x20\n        /* \"#utility.yul\":2691:2700   */\n      dup3\n        /* \"#utility.yul\":2687:2705   */\n      add\n        /* \"#utility.yul\":2679:2705   */\n      swap1\n      pop\n        /* \"#utility.yul\":2715:2786   */\n      tag_343\n        /* \"#utility.yul\":2783:2784   */\n      0x00\n        /* \"#utility.yul\":2772:2781   */\n      dup4\n        /* \"#utility.yul\":2768:2785   */\n      add\n        /* \"#utility.yul\":2759:2765   */\n      dup5\n        /* \"#utility.yul\":2715:2786   */\n      tag_262\n      jump\t// in\n    tag_343:\n        /* \"#utility.yul\":2571:2793   */\n      swap3\n      swap2\n      pop\n      pop\n      jump\t// out\n        /* \"#utility.yul\":2799:2917   */\n    tag_263:\n        /* \"#utility.yul\":2886:2910   */\n      tag_345\n        /* \"#utility.yul\":2904:2909   */\n      dup2\n        /* \"#utility.yul\":2886:2910   */\n      tag_253\n      jump\t// in\n    tag_345:\n        /* \"#utility.yul\":2881:2884   */\n      dup3\n        /* \"#utility.yul\":2874:2911   */\n      mstore\n        /* \"#utility.yul\":2799:2917   */\n      pop\n      pop\n      jump\t// out\n        /* \"#utility.yul\":2923:3145   */\n    tag_32:\n        /* \"#utility.yul\":3016:3020   */\n      0x00\n        /* \"#utility.yul\":3054:3056   */\n      0x20\n        /* \"#utility.yul\":3043:3052   */\n      dup3\n        /* \"#utility.yul\":3039:3057   */\n      add\n        /* \"#utility.yul\":3031:3057   */\n      swap1\n      pop\n        /* \"#utility.yul\":3067:3138   */\n      tag_347\n        /* \"#utility.yul\":3135:3136   */\n      0x00\n        /* \"#utility.yul\":3124:3133   */\n      dup4\n        /* \"#utility.yul\":3120:3137   */\n      add\n        /* \"#utility.yul\":3111:3117   */\n      dup5\n        /* \"#utility.yul\":3067:3138   */\n      tag_263\n      jump\t// in\n    tag_347:\n        /* \"#utility.yul\":2923:3145   */\n      swap3\n      swap2\n      pop\n      pop\n      jump\t// out\n        /* \"#utility.yul\":3151:3273   */\n    tag_264:\n        /* \"#utility.yul\":3224:3248   */\n      tag_349\n        /* \"#utility.yul\":3242:3247   */\n      dup2\n        /* \"#utility.yul\":3224:3248   */\n      tag_261\n      jump\t// in\n    tag_349:\n        /* \"#utility.yul\":3217:3222   */\n      dup2\n        /* \"#utility.yul\":3214:3249   */\n      eq\n        /* \"#utility.yul\":3204:3267   */\n      tag_350\n      jumpi\n        /* \"#utility.yul\":3263:3264   */\n      0x00\n        /* \"#utility.yul\":3260:3261   */\n      0x00\n        /* \"#utility.yul\":3253:3265   */\n      revert\n        /* \"#utility.yul\":3204:3267   */\n    tag_350:\n        /* \"#utility.yul\":3151:3273   */\n      pop\n      jump\t// out\n        /* \"#utility.yul\":3279:3418   */\n    tag_265:\n        /* \"#utility.yul\":3325:3330   */\n      0x00\n        /* \"#utility.yul\":3363:3369   */\n      dup2\n        /* \"#utility.yul\":3350:3370   */\n      calldataload\n        /* \"#utility.yul\":3341:3370   */\n      swap1\n      pop\n        /* \"#utility.yul\":3379:3412   */\n      tag_352\n        /* \"#utility.yul\":3406:3411   */\n      dup2\n        /* \"#utility.yul\":3379:3412   */\n      tag_264\n      jump\t// in\n    tag_352:\n        /* \"#utility.yul\":3279:3418   */\n      swap3\n      swap2\n      pop\n      pop\n      jump\t// out\n        /* \"#utility.yul\":3424:3753   */\n    tag_35:\n        /* \"#utility.yul\":3483:3489   */\n      0x00\n        /* \"#utility.yul\":3532:3534   */\n      0x20\n        /* \"#utility.yul\":3520:3529   */\n      dup3\n        /* \"#utility.yul\":3511:3518   */\n      dup5\n        /* \"#utility.yul\":3507:3530   */\n      sub\n        /* \"#utility.yul\":3503:3535   */\n      slt\n        /* \"#utility.yul\":3500:3619   */\n      iszero\n      tag_354\n      jumpi\n        /* \"#utility.yul\":3538:3617   */\n      tag_355\n      tag_251\n      jump\t// in\n    tag_355:\n        /* \"#utility.yul\":3500:3619   */\n    tag_354:\n        /* \"#utility.yul\":3658:3659   */\n      0x00\n        /* \"#utility.yul\":3683:3736   */\n      tag_356\n        /* \"#utility.yul\":3728:3735   */\n      dup5\n        /* \"#utility.yul\":3719:3725   */\n      dup3\n        /* \"#utility.yul\":3708:3717   */\n      dup6\n        /* \"#utility.yul\":3704:3726   */\n      add\n        /* \"#utility.yul\":3683:3736   */\n      tag_265\n      jump\t// in\n    tag_356:\n        /* \"#utility.yul\":3673:3736   */\n      swap2\n      pop\n        /* \"#utility.yul\":3629:3746   */\n      pop\n        /* \"#utility.yul\":3424:3753   */\n      swap3\n      swap2\n      pop\n      pop\n      jump\t// out\n        /* \"#utility.yul\":3759:3928   */\n    tag_266:\n        /* \"#utility.yul\":3843:3854   */\n      0x00\n        /* \"#utility.yul\":3877:3883   */\n      dup3\n        /* \"#utility.yul\":3872:3875   */\n      dup3\n        /* \"#utility.yul\":3865:3884   */\n      mstore\n        /* \"#utility.yul\":3917:3921   */\n      0x20\n        /* \"#utility.yul\":3912:3915   */\n      dup3\n        /* \"#utility.yul\":3908:3922   */\n      add\n        /* \"#utility.yul\":3893:3922   */\n      swap1\n      pop\n        /* \"#utility.yul\":3759:3928   */\n      swap3\n      swap2\n      pop\n      pop\n      jump\t// out\n        /* \"#utility.yul\":3934:4104   */\n    tag_267:\n        /* \"#utility.yul\":4074:4096   */\n      0x4d61646520746865206765742072657175657374000000000000000000000000\n        /* \"#utility.yul\":4070:4071   */\n      0x00\n        /* \"#utility.yul\":4062:4068   */\n      dup3\n        /* \"#utility.yul\":4058:4072   */\n      add\n        /* \"#utility.yul\":4051:4097   */\n      mstore\n        /* \"#utility.yul\":3934:4104   */\n      pop\n      jump\t// out\n        /* \"#utility.yul\":4110:4476   */\n    tag_268:\n        /* \"#utility.yul\":4252:4255   */\n      0x00\n        /* \"#utility.yul\":4273:4340   */\n      tag_360\n        /* \"#utility.yul\":4337:4339   */\n      0x14\n        /* \"#utility.yul\":4332:4335   */\n      dup4\n        /* \"#utility.yul\":4273:4340   */\n      tag_266\n      jump\t// in\n    tag_360:\n        /* \"#utility.yul\":4266:4340   */\n      swap2\n      pop\n        /* \"#utility.yul\":4349:4442   */\n      tag_361\n        /* \"#utility.yul\":4438:4441   */\n      dup3\n        /* \"#utility.yul\":4349:4442   */\n      tag_267\n      jump\t// in\n    tag_361:\n        /* \"#utility.yul\":4467:4469   */\n      0x20\n        /* \"#utility.yul\":4462:4465   */\n      dup3\n        /* \"#utility.yul\":4458:4470   */\n      add\n        /* \"#utility.yul\":4451:4470   */\n      swap1\n      pop\n        /* \"#utility.yul\":4110:4476   */\n      swap2\n      swap1\n      pop\n      jump\t// out\n        /* \"#utility.yul\":4482:4901   */\n    tag_46:\n        /* \"#utility.yul\":4648:4652   */\n      0x00\n        /* \"#utility.yul\":4686:4688   */\n      0x20\n        /* \"#utility.yul\":4675:4684   */\n      dup3\n        /* \"#utility.yul\":4671:4689   */\n      add\n        /* \"#utility.yul\":4663:4689   */\n      swap1\n      pop\n        /* \"#utility.yul\":4735:4744   */\n      dup2\n        /* \"#utility.yul\":4729:4733   */\n      dup2\n        /* \"#utility.yul\":4725:4745   */\n      sub\n        /* \"#utility.yul\":4721:4722   */\n      0x00\n        /* \"#utility.yul\":4710:4719   */\n      dup4\n        /* \"#utility.yul\":4706:4723   */\n      add\n        /* \"#utility.yul\":4699:4746   */\n      mstore\n        /* \"#utility.yul\":4763:4894   */\n      tag_363\n        /* \"#utility.yul\":4889:4893   */\n      dup2\n        /* \"#utility.yul\":4763:4894   */\n      tag_268\n      jump\t// in\n    tag_363:\n        /* \"#utility.yul\":4755:4894   */\n      swap1\n      pop\n        /* \"#utility.yul\":4482:4901   */\n      swap2\n      swap1\n      pop\n      jump\t// out\n        /* \"#utility.yul\":4907:5134   */\n    tag_269:\n        /* \"#utility.yul\":5047:5081   */\n      0x536f75726365206d75737420626520746865206f7261636c65206f6620746865\n        /* \"#utility.yul\":5043:5044   */\n      0x00\n        /* \"#utility.yul\":5035:5041   */\n      dup3\n        /* \"#utility.yul\":5031:5045   */\n      add\n        /* \"#utility.yul\":5024:5082   */\n      mstore\n        /* \"#utility.yul\":5116:5126   */\n      0x2072657175657374000000000000000000000000000000000000000000000000\n        /* \"#utility.yul\":5111:5113   */\n      0x20\n        /* \"#utility.yul\":5103:5109   */\n      dup3\n        /* \"#utility.yul\":5099:5114   */\n      add\n        /* \"#utility.yul\":5092:5127   */\n      mstore\n        /* \"#utility.yul\":4907:5134   */\n      pop\n      jump\t// out\n        /* \"#utility.yul\":5140:5506   */\n    tag_270:\n        /* \"#utility.yul\":5282:5285   */\n      0x00\n        /* \"#utility.yul\":5303:5370   */\n      tag_366\n        /* \"#utility.yul\":5367:5369   */\n      0x28\n        /* \"#utility.yul\":5362:5365   */\n      dup4\n        /* \"#utility.yul\":5303:5370   */\n      tag_266\n      jump\t// in\n    tag_366:\n        /* \"#utility.yul\":5296:5370   */\n      swap2\n      pop\n        /* \"#utility.yul\":5379:5472   */\n      tag_367\n        /* \"#utility.yul\":5468:5471   */\n      dup3\n        /* \"#utility.yul\":5379:5472   */\n      tag_269\n      jump\t// in\n    tag_367:\n        /* \"#utility.yul\":5497:5499   */\n      0x40\n        /* \"#utility.yul\":5492:5495   */\n      dup3\n        /* \"#utility.yul\":5488:5500   */\n      add\n        /* \"#utility.yul\":5481:5500   */\n      swap1\n      pop\n        /* \"#utility.yul\":5140:5506   */\n      swap2\n      swap1\n      pop\n      jump\t// out\n        /* \"#utility.yul\":5512:5931   */\n    tag_52:\n        /* \"#utility.yul\":5678:5682   */\n      0x00\n        /* \"#utility.yul\":5716:5718   */\n      0x20\n        /* \"#utility.yul\":5705:5714   */\n      dup3\n        /* \"#utility.yul\":5701:5719   */\n      add\n        /* \"#utility.yul\":5693:5719   */\n      swap1\n      pop\n        /* \"#utility.yul\":5765:5774   */\n      dup2\n        /* \"#utility.yul\":5759:5763   */\n      dup2\n        /* \"#utility.yul\":5755:5775   */\n      sub\n        /* \"#utility.yul\":5751:5752   */\n      0x00\n        /* \"#utility.yul\":5740:5749   */\n      dup4\n        /* \"#utility.yul\":5736:5753   */\n      add\n        /* \"#utility.yul\":5729:5776   */\n      mstore\n        /* \"#utility.yul\":5793:5924   */\n      tag_369\n        /* \"#utility.yul\":5919:5923   */\n      dup2\n        /* \"#utility.yul\":5793:5924   */\n      tag_270\n      jump\t// in\n    tag_369:\n        /* \"#utility.yul\":5785:5924   */\n      swap1\n      pop\n        /* \"#utility.yul\":5512:5931   */\n      swap2\n      swap1\n      pop\n      jump\t// out\n        /* \"#utility.yul\":5937:6109   */\n    tag_271:\n        /* \"#utility.yul\":6077:6101   */\n      0x4d7573742062652070726f706f736564206f776e657200000000000000000000\n        /* \"#utility.yul\":6073:6074   */\n      0x00\n        /* \"#utility.yul\":6065:6071   */\n      dup3\n        /* \"#utility.yul\":6061:6075   */\n      add\n        /* \"#utility.yul\":6054:6102   */\n      mstore\n        /* \"#utility.yul\":5937:6109   */\n      pop\n      jump\t// out\n        /* \"#utility.yul\":6115:6481   */\n    tag_272:\n        /* \"#utility.yul\":6257:6260   */\n      0x00\n        /* \"#utility.yul\":6278:6345   */\n      tag_372\n        /* \"#utility.yul\":6342:6344   */\n      0x16\n        /* \"#utility.yul\":6337:6340   */\n      dup4\n        /* \"#utility.yul\":6278:6345   */\n      tag_266\n      jump\t// in\n    tag_372:\n        /* \"#utility.yul\":6271:6345   */\n      swap2\n      pop\n        /* \"#utility.yul\":6354:6447   */\n      tag_373\n        /* \"#utility.yul\":6443:6446   */\n      dup3\n        /* \"#utility.yul\":6354:6447   */\n      tag_271\n      jump\t// in\n    tag_373:\n        /* \"#utility.yul\":6472:6474   */\n      0x20\n        /* \"#utility.yul\":6467:6470   */\n      dup3\n        /* \"#utility.yul\":6463:6475   */\n      add\n        /* \"#utility.yul\":6456:6475   */\n      swap1\n      pop\n        /* \"#utility.yul\":6115:6481   */\n      swap2\n      swap1\n      pop\n      jump\t// out\n        /* \"#utility.yul\":6487:6906   */\n    tag_58:\n        /* \"#utility.yul\":6653:6657   */\n      0x00\n        /* \"#utility.yul\":6691:6693   */\n      0x20\n        /* \"#utility.yul\":6680:6689   */\n      dup3\n        /* \"#utility.yul\":6676:6694   */\n      add\n        /* \"#utility.yul\":6668:6694   */\n      swap1\n      pop\n        /* \"#utility.yul\":6740:6749   */\n      dup2\n        /* \"#utility.yul\":6734:6738   */\n      dup2\n        /* \"#utility.yul\":6730:6750   */\n      sub\n        /* \"#utility.yul\":6726:6727   */\n      0x00\n        /* \"#utility.yul\":6715:6724   */\n      dup4\n        /* \"#utility.yul\":6711:6728   */\n      add\n        /* \"#utility.yul\":6704:6751   */\n      mstore\n        /* \"#utility.yul\":6768:6899   */\n      tag_375\n        /* \"#utility.yul\":6894:6898   */\n      dup2\n        /* \"#utility.yul\":6768:6899   */\n      tag_272\n      jump\t// in\n    tag_375:\n        /* \"#utility.yul\":6760:6899   */\n      swap1\n      pop\n        /* \"#utility.yul\":6487:6906   */\n      swap2\n      swap1\n      pop\n      jump\t// out\n        /* \"#utility.yul\":6912:7055   */\n    tag_273:\n        /* \"#utility.yul\":6969:6974   */\n      0x00\n        /* \"#utility.yul\":7000:7006   */\n      dup2\n        /* \"#utility.yul\":6994:7007   */\n      mload\n        /* \"#utility.yul\":6985:7007   */\n      swap1\n      pop\n        /* \"#utility.yul\":7016:7049   */\n      tag_377\n        /* \"#utility.yul\":7043:7048   */\n      dup2\n        /* \"#utility.yul\":7016:7049   */\n      tag_254\n      jump\t// in\n    tag_377:\n        /* \"#utility.yul\":6912:7055   */\n      swap3\n      swap2\n      pop\n      pop\n      jump\t// out\n        /* \"#utility.yul\":7061:7412   */\n    tag_70:\n        /* \"#utility.yul\":7131:7137   */\n      0x00\n        /* \"#utility.yul\":7180:7182   */\n      0x20\n        /* \"#utility.yul\":7168:7177   */\n      dup3\n        /* \"#utility.yul\":7159:7166   */\n      dup5\n        /* \"#utility.yul\":7155:7178   */\n      sub\n        /* \"#utility.yul\":7151:7183   */\n      slt\n        /* \"#utility.yul\":7148:7267   */\n      iszero\n      tag_379\n      jumpi\n        /* \"#utility.yul\":7186:7265   */\n      tag_380\n      tag_251\n      jump\t// in\n    tag_380:\n        /* \"#utility.yul\":7148:7267   */\n    tag_379:\n        /* \"#utility.yul\":7306:7307   */\n      0x00\n        /* \"#utility.yul\":7331:7395   */\n      tag_381\n        /* \"#utility.yul\":7387:7394   */\n      dup5\n        /* \"#utility.yul\":7378:7384   */\n      dup3\n        /* \"#utility.yul\":7367:7376   */\n      dup6\n        /* \"#utility.yul\":7363:7385   */\n      add\n        /* \"#utility.yul\":7331:7395   */\n      tag_273\n      jump\t// in\n    tag_381:\n        /* \"#utility.yul\":7321:7395   */\n      swap2\n      pop\n        /* \"#utility.yul\":7277:7405   */\n      pop\n        /* \"#utility.yul\":7061:7412   */\n      swap3\n      swap2\n      pop\n      pop\n      jump\t// out\n        /* \"#utility.yul\":7418:7750   */\n    tag_72:\n        /* \"#utility.yul\":7539:7543   */\n      0x00\n        /* \"#utility.yul\":7577:7579   */\n      0x40\n        /* \"#utility.yul\":7566:7575   */\n      dup3\n        /* \"#utility.yul\":7562:7580   */\n      add\n        /* \"#utility.yul\":7554:7580   */\n      swap1\n      pop\n        /* \"#utility.yul\":7590:7661   */\n      tag_383\n        /* \"#utility.yul\":7658:7659   */\n      0x00\n        /* \"#utility.yul\":7647:7656   */\n      dup4\n        /* \"#utility.yul\":7643:7660   */\n      add\n        /* \"#utility.yul\":7634:7640   */\n      dup6\n        /* \"#utility.yul\":7590:7661   */\n      tag_262\n      jump\t// in\n    tag_383:\n        /* \"#utility.yul\":7671:7743   */\n      tag_384\n        /* \"#utility.yul\":7739:7741   */\n      0x20\n        /* \"#utility.yul\":7728:7737   */\n      dup4\n        /* \"#utility.yul\":7724:7742   */\n      add\n        /* \"#utility.yul\":7715:7721   */\n      dup5\n        /* \"#utility.yul\":7671:7743   */\n      tag_263\n      jump\t// in\n    tag_384:\n        /* \"#utility.yul\":7418:7750   */\n      swap4\n      swap3\n      pop\n      pop\n      pop\n      jump\t// out\n        /* \"#utility.yul\":7756:7846   */\n    tag_274:\n        /* \"#utility.yul\":7790:7797   */\n      0x00\n        /* \"#utility.yul\":7833:7838   */\n      dup2\n        /* \"#utility.yul\":7826:7839   */\n      iszero\n        /* \"#utility.yul\":7819:7840   */\n      iszero\n        /* \"#utility.yul\":7808:7840   */\n      swap1\n      pop\n        /* \"#utility.yul\":7756:7846   */\n      swap2\n      swap1\n      pop\n      jump\t// out\n        /* \"#utility.yul\":7852:7968   */\n    tag_275:\n        /* \"#utility.yul\":7922:7943   */\n      tag_387\n        /* \"#utility.yul\":7937:7942   */\n      dup2\n        /* \"#utility.yul\":7922:7943   */\n      tag_274\n      jump\t// in\n    tag_387:\n        /* \"#utility.yul\":7915:7920   */\n      dup2\n        /* \"#utility.yul\":7912:7944   */\n      eq\n        /* \"#utility.yul\":7902:7962   */\n      tag_388\n      jumpi\n        /* \"#utility.yul\":7958:7959   */\n      0x00\n        /* \"#utility.yul\":7955:7956   */\n      0x00\n        /* \"#utility.yul\":7948:7960   */\n      revert\n        /* \"#utility.yul\":7902:7962   */\n    tag_388:\n        /* \"#utility.yul\":7852:7968   */\n      pop\n      jump\t// out\n        /* \"#utility.yul\":7974:8111   */\n    tag_276:\n        /* \"#utility.yul\":8028:8033   */\n      0x00\n        /* \"#utility.yul\":8059:8065   */\n      dup2\n        /* \"#utility.yul\":8053:8066   */\n      mload\n        /* \"#utility.yul\":8044:8066   */\n      swap1\n      pop\n        /* \"#utility.yul\":8075:8105   */\n      tag_390\n        /* \"#utility.yul\":8099:8104   */\n      dup2\n        /* \"#utility.yul\":8075:8105   */\n      tag_275\n      jump\t// in\n    tag_390:\n        /* \"#utility.yul\":7974:8111   */\n      swap3\n      swap2\n      pop\n      pop\n      jump\t// out\n        /* \"#utility.yul\":8117:8462   */\n    tag_76:\n        /* \"#utility.yul\":8184:8190   */\n      0x00\n        /* \"#utility.yul\":8233:8235   */\n      0x20\n        /* \"#utility.yul\":8221:8230   */\n      dup3\n        /* \"#utility.yul\":8212:8219   */\n      dup5\n        /* \"#utility.yul\":8208:8231   */\n      sub\n        /* \"#utility.yul\":8204:8236   */\n      slt\n        /* \"#utility.yul\":8201:8320   */\n      iszero\n      tag_392\n      jumpi\n        /* \"#utility.yul\":8239:8318   */\n      tag_393\n      tag_251\n      jump\t// in\n    tag_393:\n        /* \"#utility.yul\":8201:8320   */\n    tag_392:\n        /* \"#utility.yul\":8359:8360   */\n      0x00\n        /* \"#utility.yul\":8384:8445   */\n      tag_394\n        /* \"#utility.yul\":8437:8444   */\n      dup5\n        /* \"#utility.yul\":8428:8434   */\n      dup3\n        /* \"#utility.yul\":8417:8426   */\n      dup6\n        /* \"#utility.yul\":8413:8435   */\n      add\n        /* \"#utility.yul\":8384:8445   */\n      tag_276\n      jump\t// in\n    tag_394:\n        /* \"#utility.yul\":8374:8445   */\n      swap2\n      pop\n        /* \"#utility.yul\":8330:8455   */\n      pop\n        /* \"#utility.yul\":8117:8462   */\n      swap3\n      swap2\n      pop\n      pop\n      jump\t// out\n        /* \"#utility.yul\":8468:8636   */\n    tag_277:\n        /* \"#utility.yul\":8608:8628   */\n      0x556e61626c6520746f207472616e736665720000000000000000000000000000\n        /* \"#utility.yul\":8604:8605   */\n      0x00\n        /* \"#utility.yul\":8596:8602   */\n      dup3\n        /* \"#utility.yul\":8592:8606   */\n      add\n        /* \"#utility.yul\":8585:8629   */\n      mstore\n        /* \"#utility.yul\":8468:8636   */\n      pop\n      jump\t// out\n        /* \"#utility.yul\":8642:9008   */\n    tag_278:\n        /* \"#utility.yul\":8784:8787   */\n      0x00\n        /* \"#utility.yul\":8805:8872   */\n      tag_397\n        /* \"#utility.yul\":8869:8871   */\n      0x12\n        /* \"#utility.yul\":8864:8867   */\n      dup4\n        /* \"#utility.yul\":8805:8872   */\n      tag_266\n      jump\t// in\n    tag_397:\n        /* \"#utility.yul\":8798:8872   */\n      swap2\n      pop\n        /* \"#utility.yul\":8881:8974   */\n      tag_398\n        /* \"#utility.yul\":8970:8973   */\n      dup3\n        /* \"#utility.yul\":8881:8974   */\n      tag_277\n      jump\t// in\n    tag_398:\n        /* \"#utility.yul\":8999:9001   */\n      0x20\n        /* \"#utility.yul\":8994:8997   */\n      dup3\n        /* \"#utility.yul\":8990:9002   */\n      add\n        /* \"#utility.yul\":8983:9002   */\n      swap1\n      pop\n        /* \"#utility.yul\":8642:9008   */\n      swap2\n      swap1\n      pop\n      jump\t// out\n        /* \"#utility.yul\":9014:9433   */\n    tag_79:\n        /* \"#utility.yul\":9180:9184   */\n      0x00\n        /* \"#utility.yul\":9218:9220   */\n      0x20\n        /* \"#utility.yul\":9207:9216   */\n      dup3\n        /* \"#utility.yul\":9203:9221   */\n      add\n        /* \"#utility.yul\":9195:9221   */\n      swap1\n      pop\n        /* \"#utility.yul\":9267:9276   */\n      dup2\n        /* \"#utility.yul\":9261:9265   */\n      dup2\n        /* \"#utility.yul\":9257:9277   */\n      sub\n        /* \"#utility.yul\":9253:9254   */\n      0x00\n        /* \"#utility.yul\":9242:9251   */\n      dup4\n        /* \"#utility.yul\":9238:9255   */\n      add\n        /* \"#utility.yul\":9231:9278   */\n      mstore\n        /* \"#utility.yul\":9295:9426   */\n      tag_400\n        /* \"#utility.yul\":9421:9425   */\n      dup2\n        /* \"#utility.yul\":9295:9426   */\n      tag_278\n      jump\t// in\n    tag_400:\n        /* \"#utility.yul\":9287:9426   */\n      swap1\n      pop\n        /* \"#utility.yul\":9014:9433   */\n      swap2\n      swap1\n      pop\n      jump\t// out\n        /* \"#utility.yul\":9439:9611   */\n    tag_279:\n        /* \"#utility.yul\":9579:9603   */\n      0x4f6e6c792063616c6c61626c65206279206f776e657200000000000000000000\n        /* \"#utility.yul\":9575:9576   */\n      0x00\n        /* \"#utility.yul\":9567:9573   */\n      dup3\n        /* \"#utility.yul\":9563:9577   */\n      add\n        /* \"#utility.yul\":9556:9604   */\n      mstore\n        /* \"#utility.yul\":9439:9611   */\n      pop\n      jump\t// out\n        /* \"#utility.yul\":9617:9983   */\n    tag_280:\n        /* \"#utility.yul\":9759:9762   */\n      0x00\n        /* \"#utility.yul\":9780:9847   */\n      tag_403\n        /* \"#utility.yul\":9844:9846   */\n      0x16\n        /* \"#utility.yul\":9839:9842   */\n      dup4\n        /* \"#utility.yul\":9780:9847   */\n      tag_266\n      jump\t// in\n    tag_403:\n        /* \"#utility.yul\":9773:9847   */\n      swap2\n      pop\n        /* \"#utility.yul\":9856:9949   */\n      tag_404\n        /* \"#utility.yul\":9945:9948   */\n      dup3\n        /* \"#utility.yul\":9856:9949   */\n      tag_279\n      jump\t// in\n    tag_404:\n        /* \"#utility.yul\":9974:9976   */\n      0x20\n        /* \"#utility.yul\":9969:9972   */\n      dup3\n        /* \"#utility.yul\":9965:9977   */\n      add\n        /* \"#utility.yul\":9958:9977   */\n      swap1\n      pop\n        /* \"#utility.yul\":9617:9983   */\n      swap2\n      swap1\n      pop\n      jump\t// out\n        /* \"#utility.yul\":9989:10408   */\n    tag_105:\n        /* \"#utility.yul\":10155:10159   */\n      0x00\n        /* \"#utility.yul\":10193:10195   */\n      0x20\n        /* \"#utility.yul\":10182:10191   */\n      dup3\n        /* \"#utility.yul\":10178:10196   */\n      add\n        /* \"#utility.yul\":10170:10196   */\n      swap1\n      pop\n        /* \"#utility.yul\":10242:10251   */\n      dup2\n        /* \"#utility.yul\":10236:10240   */\n      dup2\n        /* \"#utility.yul\":10232:10252   */\n      sub\n        /* \"#utility.yul\":10228:10229   */\n      0x00\n        /* \"#utility.yul\":10217:10226   */\n      dup4\n        /* \"#utility.yul\":10213:10230   */\n      add\n        /* \"#utility.yul\":10206:10253   */\n      mstore\n        /* \"#utility.yul\":10270:10401   */\n      tag_406\n        /* \"#utility.yul\":10396:10400   */\n      dup2\n        /* \"#utility.yul\":10270:10401   */\n      tag_280\n      jump\t// in\n    tag_406:\n        /* \"#utility.yul\":10262:10401   */\n      swap1\n      pop\n        /* \"#utility.yul\":9989:10408   */\n      swap2\n      swap1\n      pop\n      jump\t// out\n        /* \"#utility.yul\":10414:10587   */\n    tag_281:\n        /* \"#utility.yul\":10554:10579   */\n      0x43616e6e6f74207472616e7366657220746f2073656c66000000000000000000\n        /* \"#utility.yul\":10550:10551   */\n      0x00\n        /* \"#utility.yul\":10542:10548   */\n      dup3\n        /* \"#utility.yul\":10538:10552   */\n      add\n        /* \"#utility.yul\":10531:10580   */\n      mstore\n        /* \"#utility.yul\":10414:10587   */\n      pop\n      jump\t// out\n        /* \"#utility.yul\":10593:10959   */\n    tag_282:\n        /* \"#utility.yul\":10735:10738   */\n      0x00\n        /* \"#utility.yul\":10756:10823   */\n      tag_409\n        /* \"#utility.yul\":10820:10822   */\n      0x17\n        /* \"#utility.yul\":10815:10818   */\n      dup4\n        /* \"#utility.yul\":10756:10823   */\n      tag_266\n      jump\t// in\n    tag_409:\n        /* \"#utility.yul\":10749:10823   */\n      swap2\n      pop\n        /* \"#utility.yul\":10832:10925   */\n      tag_410\n        /* \"#utility.yul\":10921:10924   */\n      dup3\n        /* \"#utility.yul\":10832:10925   */\n      tag_281\n      jump\t// in\n    tag_410:\n        /* \"#utility.yul\":10950:10952   */\n      0x20\n        /* \"#utility.yul\":10945:10948   */\n      dup3\n        /* \"#utility.yul\":10941:10953   */\n      add\n        /* \"#utility.yul\":10934:10953   */\n      swap1\n      pop\n        /* \"#utility.yul\":10593:10959   */\n      swap2\n      swap1\n      pop\n      jump\t// out\n        /* \"#utility.yul\":10965:11384   */\n    tag_110:\n        /* \"#utility.yul\":11131:11135   */\n      0x00\n        /* \"#utility.yul\":11169:11171   */\n      0x20\n        /* \"#utility.yul\":11158:11167   */\n      dup3\n        /* \"#utility.yul\":11154:11172   */\n      add\n        /* \"#utility.yul\":11146:11172   */\n      swap1\n      pop\n        /* \"#utility.yul\":11218:11227   */\n      dup2\n        /* \"#utility.yul\":11212:11216   */\n      dup2\n        /* \"#utility.yul\":11208:11228   */\n      sub\n        /* \"#utility.yul\":11204:11205   */\n      0x00\n        /* \"#utility.yul\":11193:11202   */\n      dup4\n        /* \"#utility.yul\":11189:11206   */\n      add\n        /* \"#utility.yul\":11182:11229   */\n      mstore\n        /* \"#utility.yul\":11246:11377   */\n      tag_412\n        /* \"#utility.yul\":11372:11376   */\n      dup2\n        /* \"#utility.yul\":11246:11377   */\n      tag_282\n      jump\t// in\n    tag_412:\n        /* \"#utility.yul\":11238:11377   */\n      swap1\n      pop\n        /* \"#utility.yul\":10965:11384   */\n      swap2\n      swap1\n      pop\n      jump\t// out\n        /* \"#utility.yul\":11390:11466   */\n    tag_283:\n        /* \"#utility.yul\":11426:11433   */\n      0x00\n        /* \"#utility.yul\":11455:11460   */\n      dup2\n        /* \"#utility.yul\":11444:11460   */\n      swap1\n      pop\n        /* \"#utility.yul\":11390:11466   */\n      swap2\n      swap1\n      pop\n      jump\t// out\n        /* \"#utility.yul\":11472:11652   */\n    tag_284:\n        /* \"#utility.yul\":11520:11597   */\n      0x4e487b7100000000000000000000000000000000000000000000000000000000\n        /* \"#utility.yul\":11517:11518   */\n      0x00\n        /* \"#utility.yul\":11510:11598   */\n      mstore\n        /* \"#utility.yul\":11617:11621   */\n      0x11\n        /* \"#utility.yul\":11614:11615   */\n      0x04\n        /* \"#utility.yul\":11607:11622   */\n      mstore\n        /* \"#utility.yul\":11641:11645   */\n      0x24\n        /* \"#utility.yul\":11638:11639   */\n      0x00\n        /* \"#utility.yul\":11631:11646   */\n      revert\n        /* \"#utility.yul\":11658:12030   */\n    tag_134:\n        /* \"#utility.yul\":11697:11701   */\n      0x00\n        /* \"#utility.yul\":11717:11736   */\n      tag_416\n        /* \"#utility.yul\":11734:11735   */\n      dup3\n        /* \"#utility.yul\":11717:11736   */\n      tag_283\n      jump\t// in\n    tag_416:\n        /* \"#utility.yul\":11712:11736   */\n      swap2\n      pop\n        /* \"#utility.yul\":11750:11769   */\n      tag_417\n        /* \"#utility.yul\":11767:11768   */\n      dup4\n        /* \"#utility.yul\":11750:11769   */\n      tag_283\n      jump\t// in\n    tag_417:\n        /* \"#utility.yul\":11745:11769   */\n      swap3\n      pop\n        /* \"#utility.yul\":11793:11794   */\n      dup3\n        /* \"#utility.yul\":11790:11791   */\n      dup3\n        /* \"#utility.yul\":11786:11795   */\n      sub\n        /* \"#utility.yul\":11778:11795   */\n      swap1\n      pop\n        /* \"#utility.yul\":11987:11988   */\n      dup2\n        /* \"#utility.yul\":11981:11985   */\n      dup2\n        /* \"#utility.yul\":11977:11989   */\n      slt\n        /* \"#utility.yul\":11973:11974   */\n      0x00\n        /* \"#utility.yul\":11970:11971   */\n      dup5\n        /* \"#utility.yul\":11966:11975   */\n      slt\n        /* \"#utility.yul\":11962:11990   */\n      and\n        /* \"#utility.yul\":11945:11946   */\n      dup3\n        /* \"#utility.yul\":11939:11943   */\n      dup3\n        /* \"#utility.yul\":11935:11947   */\n      sgt\n        /* \"#utility.yul\":11930:11931   */\n      0x00\n        /* \"#utility.yul\":11927:11928   */\n      dup6\n        /* \"#utility.yul\":11923:11932   */\n      slt\n        /* \"#utility.yul\":11916:11933   */\n      iszero\n        /* \"#utility.yul\":11912:11948   */\n      and\n        /* \"#utility.yul\":11896:12000   */\n      or\n        /* \"#utility.yul\":11893:12023   */\n      iszero\n      tag_418\n      jumpi\n        /* \"#utility.yul\":12003:12021   */\n      tag_419\n      tag_284\n      jump\t// in\n    tag_419:\n        /* \"#utility.yul\":11893:12023   */\n    tag_418:\n        /* \"#utility.yul\":11658:12030   */\n      swap3\n      swap2\n      pop\n      pop\n      jump\t// out\n        /* \"#utility.yul\":12036:12227   */\n    tag_137:\n        /* \"#utility.yul\":12076:12079   */\n      0x00\n        /* \"#utility.yul\":12095:12115   */\n      tag_421\n        /* \"#utility.yul\":12113:12114   */\n      dup3\n        /* \"#utility.yul\":12095:12115   */\n      tag_253\n      jump\t// in\n    tag_421:\n        /* \"#utility.yul\":12090:12115   */\n      swap2\n      pop\n        /* \"#utility.yul\":12129:12149   */\n      tag_422\n        /* \"#utility.yul\":12147:12148   */\n      dup4\n        /* \"#utility.yul\":12129:12149   */\n      tag_253\n      jump\t// in\n    tag_422:\n        /* \"#utility.yul\":12124:12149   */\n      swap3\n      pop\n        /* \"#utility.yul\":12172:12173   */\n      dup3\n        /* \"#utility.yul\":12169:12170   */\n      dup3\n        /* \"#utility.yul\":12165:12174   */\n      add\n        /* \"#utility.yul\":12158:12174   */\n      swap1\n      pop\n        /* \"#utility.yul\":12193:12196   */\n      dup1\n        /* \"#utility.yul\":12190:12191   */\n      dup3\n        /* \"#utility.yul\":12187:12197   */\n      gt\n        /* \"#utility.yul\":12184:12220   */\n      iszero\n      tag_423\n      jumpi\n        /* \"#utility.yul\":12200:12218   */\n      tag_424\n      tag_284\n      jump\t// in\n    tag_424:\n        /* \"#utility.yul\":12184:12220   */\n    tag_423:\n        /* \"#utility.yul\":12036:12227   */\n      swap3\n      swap2\n      pop\n      pop\n      jump\t// out\n        /* \"#utility.yul\":12233:12382   */\n    tag_285:\n        /* \"#utility.yul\":12269:12276   */\n      0x00\n        /* \"#utility.yul\":12309:12375   */\n      0xffffffff00000000000000000000000000000000000000000000000000000000\n        /* \"#utility.yul\":12302:12307   */\n      dup3\n        /* \"#utility.yul\":12298:12376   */\n      and\n        /* \"#utility.yul\":12287:12376   */\n      swap1\n      pop\n        /* \"#utility.yul\":12233:12382   */\n      swap2\n      swap1\n      pop\n      jump\t// out\n        /* \"#utility.yul\":12388:12503   */\n    tag_286:\n        /* \"#utility.yul\":12473:12496   */\n      tag_427\n        /* \"#utility.yul\":12490:12495   */\n      dup2\n        /* \"#utility.yul\":12473:12496   */\n      tag_285\n      jump\t// in\n    tag_427:\n        /* \"#utility.yul\":12468:12471   */\n      dup3\n        /* \"#utility.yul\":12461:12497   */\n      mstore\n        /* \"#utility.yul\":12388:12503   */\n      pop\n      pop\n      jump\t// out\n        /* \"#utility.yul\":12509:12607   */\n    tag_287:\n        /* \"#utility.yul\":12560:12566   */\n      0x00\n        /* \"#utility.yul\":12594:12599   */\n      dup2\n        /* \"#utility.yul\":12588:12600   */\n      mload\n        /* \"#utility.yul\":12578:12600   */\n      swap1\n      pop\n        /* \"#utility.yul\":12509:12607   */\n      swap2\n      swap1\n      pop\n      jump\t// out\n        /* \"#utility.yul\":12613:12781   */\n    tag_288:\n        /* \"#utility.yul\":12696:12707   */\n      0x00\n        /* \"#utility.yul\":12730:12736   */\n      dup3\n        /* \"#utility.yul\":12725:12728   */\n      dup3\n        /* \"#utility.yul\":12718:12737   */\n      mstore\n        /* \"#utility.yul\":12770:12774   */\n      0x20\n        /* \"#utility.yul\":12765:12768   */\n      dup3\n        /* \"#utility.yul\":12761:12775   */\n      add\n        /* \"#utility.yul\":12746:12775   */\n      swap1\n      pop\n        /* \"#utility.yul\":12613:12781   */\n      swap3\n      swap2\n      pop\n      pop\n      jump\t// out\n        /* \"#utility.yul\":12787:12926   */\n    tag_289:\n        /* \"#utility.yul\":12876:12882   */\n      dup3\n        /* \"#utility.yul\":12871:12874   */\n      dup2\n        /* \"#utility.yul\":12866:12869   */\n      dup4\n        /* \"#utility.yul\":12860:12883   */\n      mcopy\n        /* \"#utility.yul\":12917:12918   */\n      0x00\n        /* \"#utility.yul\":12908:12914   */\n      dup4\n        /* \"#utility.yul\":12903:12906   */\n      dup4\n        /* \"#utility.yul\":12899:12915   */\n      add\n        /* \"#utility.yul\":12892:12919   */\n      mstore\n        /* \"#utility.yul\":12787:12926   */\n      pop\n      pop\n      pop\n      jump\t// out\n        /* \"#utility.yul\":12932:13034   */\n    tag_290:\n        /* \"#utility.yul\":12973:12979   */\n      0x00\n        /* \"#utility.yul\":13024:13026   */\n      0x1f\n        /* \"#utility.yul\":13020:13027   */\n      not\n        /* \"#utility.yul\":13015:13017   */\n      0x1f\n        /* \"#utility.yul\":13008:13013   */\n      dup4\n        /* \"#utility.yul\":13004:13018   */\n      add\n        /* \"#utility.yul\":13000:13028   */\n      and\n        /* \"#utility.yul\":12990:13028   */\n      swap1\n      pop\n        /* \"#utility.yul\":12932:13034   */\n      swap2\n      swap1\n      pop\n      jump\t// out\n        /* \"#utility.yul\":13040:13413   */\n    tag_291:\n        /* \"#utility.yul\":13126:13129   */\n      0x00\n        /* \"#utility.yul\":13154:13192   */\n      tag_433\n        /* \"#utility.yul\":13186:13191   */\n      dup3\n        /* \"#utility.yul\":13154:13192   */\n      tag_287\n      jump\t// in\n    tag_433:\n        /* \"#utility.yul\":13208:13278   */\n      tag_434\n        /* \"#utility.yul\":13271:13277   */\n      dup2\n        /* \"#utility.yul\":13266:13269   */\n      dup6\n        /* \"#utility.yul\":13208:13278   */\n      tag_288\n      jump\t// in\n    tag_434:\n        /* \"#utility.yul\":13201:13278   */\n      swap4\n      pop\n        /* \"#utility.yul\":13287:13352   */\n      tag_435\n        /* \"#utility.yul\":13345:13351   */\n      dup2\n        /* \"#utility.yul\":13340:13343   */\n      dup6\n        /* \"#utility.yul\":13333:13337   */\n      0x20\n        /* \"#utility.yul\":13326:13331   */\n      dup7\n        /* \"#utility.yul\":13322:13338   */\n      add\n        /* \"#utility.yul\":13287:13352   */\n      tag_289\n      jump\t// in\n    tag_435:\n        /* \"#utility.yul\":13377:13406   */\n      tag_436\n        /* \"#utility.yul\":13399:13405   */\n      dup2\n        /* \"#utility.yul\":13377:13406   */\n      tag_290\n      jump\t// in\n    tag_436:\n        /* \"#utility.yul\":13372:13375   */\n      dup5\n        /* \"#utility.yul\":13368:13407   */\n      add\n        /* \"#utility.yul\":13361:13407   */\n      swap2\n      pop\n        /* \"#utility.yul\":13130:13413   */\n      pop\n        /* \"#utility.yul\":13040:13413   */\n      swap3\n      swap2\n      pop\n      pop\n      jump\t// out\n        /* \"#utility.yul\":13419:14499   */\n    tag_139:\n        /* \"#utility.yul\":13724:13728   */\n      0x00\n        /* \"#utility.yul\":13762:13765   */\n      0x0100\n        /* \"#utility.yul\":13751:13760   */\n      dup3\n        /* \"#utility.yul\":13747:13766   */\n      add\n        /* \"#utility.yul\":13739:13766   */\n      swap1\n      pop\n        /* \"#utility.yul\":13776:13847   */\n      tag_438\n        /* \"#utility.yul\":13844:13845   */\n      0x00\n        /* \"#utility.yul\":13833:13842   */\n      dup4\n        /* \"#utility.yul\":13829:13846   */\n      add\n        /* \"#utility.yul\":13820:13826   */\n      dup12\n        /* \"#utility.yul\":13776:13847   */\n      tag_262\n      jump\t// in\n    tag_438:\n        /* \"#utility.yul\":13857:13929   */\n      tag_439\n        /* \"#utility.yul\":13925:13927   */\n      0x20\n        /* \"#utility.yul\":13914:13923   */\n      dup4\n        /* \"#utility.yul\":13910:13928   */\n      add\n        /* \"#utility.yul\":13901:13907   */\n      dup11\n        /* \"#utility.yul\":13857:13929   */\n      tag_263\n      jump\t// in\n    tag_439:\n        /* \"#utility.yul\":13939:14011   */\n      tag_440\n        /* \"#utility.yul\":14007:14009   */\n      0x40\n        /* \"#utility.yul\":13996:14005   */\n      dup4\n        /* \"#utility.yul\":13992:14010   */\n      add\n        /* \"#utility.yul\":13983:13989   */\n      dup10\n        /* \"#utility.yul\":13939:14011   */\n      tag_257\n      jump\t// in\n    tag_440:\n        /* \"#utility.yul\":14021:14093   */\n      tag_441\n        /* \"#utility.yul\":14089:14091   */\n      0x60\n        /* \"#utility.yul\":14078:14087   */\n      dup4\n        /* \"#utility.yul\":14074:14092   */\n      add\n        /* \"#utility.yul\":14065:14071   */\n      dup9\n        /* \"#utility.yul\":14021:14093   */\n      tag_262\n      jump\t// in\n    tag_441:\n        /* \"#utility.yul\":14103:14174   */\n      tag_442\n        /* \"#utility.yul\":14169:14172   */\n      0x80\n        /* \"#utility.yul\":14158:14167   */\n      dup4\n        /* \"#utility.yul\":14154:14173   */\n      add\n        /* \"#utility.yul\":14145:14151   */\n      dup8\n        /* \"#utility.yul\":14103:14174   */\n      tag_286\n      jump\t// in\n    tag_442:\n        /* \"#utility.yul\":14184:14257   */\n      tag_443\n        /* \"#utility.yul\":14252:14255   */\n      0xa0\n        /* \"#utility.yul\":14241:14250   */\n      dup4\n        /* \"#utility.yul\":14237:14256   */\n      add\n        /* \"#utility.yul\":14228:14234   */\n      dup7\n        /* \"#utility.yul\":14184:14257   */\n      tag_263\n      jump\t// in\n    tag_443:\n        /* \"#utility.yul\":14267:14340   */\n      tag_444\n        /* \"#utility.yul\":14335:14338   */\n      0xc0\n        /* \"#utility.yul\":14324:14333   */\n      dup4\n        /* \"#utility.yul\":14320:14339   */\n      add\n        /* \"#utility.yul\":14311:14317   */\n      dup6\n        /* \"#utility.yul\":14267:14340   */\n      tag_263\n      jump\t// in\n    tag_444:\n        /* \"#utility.yul\":14388:14397   */\n      dup2\n        /* \"#utility.yul\":14382:14386   */\n      dup2\n        /* \"#utility.yul\":14378:14398   */\n      sub\n        /* \"#utility.yul\":14372:14375   */\n      0xe0\n        /* \"#utility.yul\":14361:14370   */\n      dup4\n        /* \"#utility.yul\":14357:14376   */\n      add\n        /* \"#utility.yul\":14350:14399   */\n      mstore\n        /* \"#utility.yul\":14416:14492   */\n      tag_445\n        /* \"#utility.yul\":14487:14491   */\n      dup2\n        /* \"#utility.yul\":14478:14484   */\n      dup5\n        /* \"#utility.yul\":14416:14492   */\n      tag_291\n      jump\t// in\n    tag_445:\n        /* \"#utility.yul\":14408:14492   */\n      swap1\n      pop\n        /* \"#utility.yul\":13419:14499   */\n      swap10\n      swap9\n      pop\n      pop\n      pop\n      pop\n      pop\n      pop\n      pop\n      pop\n      pop\n      jump\t// out\n        /* \"#utility.yul\":14505:14685   */\n    tag_292:\n        /* \"#utility.yul\":14553:14630   */\n      0x4e487b7100000000000000000000000000000000000000000000000000000000\n        /* \"#utility.yul\":14550:14551   */\n      0x00\n        /* \"#utility.yul\":14543:14631   */\n      mstore\n        /* \"#utility.yul\":14650:14654   */\n      0x12\n        /* \"#utility.yul\":14647:14648   */\n      0x04\n        /* \"#utility.yul\":14640:14655   */\n      mstore\n        /* \"#utility.yul\":14674:14678   */\n      0x24\n        /* \"#utility.yul\":14671:14672   */\n      0x00\n        /* \"#utility.yul\":14664:14679   */\n      revert\n        /* \"#utility.yul\":14691:14867   */\n    tag_146:\n        /* \"#utility.yul\":14723:14724   */\n      0x00\n        /* \"#utility.yul\":14740:14760   */\n      tag_448\n        /* \"#utility.yul\":14758:14759   */\n      dup3\n        /* \"#utility.yul\":14740:14760   */\n      tag_253\n      jump\t// in\n    tag_448:\n        /* \"#utility.yul\":14735:14760   */\n      swap2\n      pop\n        /* \"#utility.yul\":14774:14794   */\n      tag_449\n        /* \"#utility.yul\":14792:14793   */\n      dup4\n        /* \"#utility.yul\":14774:14794   */\n      tag_253\n      jump\t// in\n    tag_449:\n        /* \"#utility.yul\":14769:14794   */\n      swap3\n      pop\n        /* \"#utility.yul\":14813:14814   */\n      dup3\n        /* \"#utility.yul\":14803:14838   */\n      tag_450\n      jumpi\n        /* \"#utility.yul\":14818:14836   */\n      tag_451\n      tag_292\n      jump\t// in\n    tag_451:\n        /* \"#utility.yul\":14803:14838   */\n    tag_450:\n        /* \"#utility.yul\":14859:14860   */\n      dup3\n        /* \"#utility.yul\":14856:14857   */\n      dup3\n        /* \"#utility.yul\":14852:14861   */\n      mod\n        /* \"#utility.yul\":14847:14861   */\n      swap1\n      pop\n        /* \"#utility.yul\":14691:14867   */\n      swap3\n      swap2\n      pop\n      pop\n      jump\t// out\n        /* \"#utility.yul\":14873:15067   */\n    tag_150:\n        /* \"#utility.yul\":14913:14917   */\n      0x00\n        /* \"#utility.yul\":14933:14953   */\n      tag_453\n        /* \"#utility.yul\":14951:14952   */\n      dup3\n        /* \"#utility.yul\":14933:14953   */\n      tag_253\n      jump\t// in\n    tag_453:\n        /* \"#utility.yul\":14928:14953   */\n      swap2\n      pop\n        /* \"#utility.yul\":14967:14987   */\n      tag_454\n        /* \"#utility.yul\":14985:14986   */\n      dup4\n        /* \"#utility.yul\":14967:14987   */\n      tag_253\n      jump\t// in\n    tag_454:\n        /* \"#utility.yul\":14962:14987   */\n      swap3\n      pop\n        /* \"#utility.yul\":15011:15012   */\n      dup3\n        /* \"#utility.yul\":15008:15009   */\n      dup3\n        /* \"#utility.yul\":15004:15013   */\n      sub\n        /* \"#utility.yul\":14996:15013   */\n      swap1\n      pop\n        /* \"#utility.yul\":15035:15036   */\n      dup2\n        /* \"#utility.yul\":15029:15033   */\n      dup2\n        /* \"#utility.yul\":15026:15037   */\n      gt\n        /* \"#utility.yul\":15023:15060   */\n      iszero\n      tag_455\n      jumpi\n        /* \"#utility.yul\":15040:15058   */\n      tag_456\n      tag_284\n      jump\t// in\n    tag_456:\n        /* \"#utility.yul\":15023:15060   */\n    tag_455:\n        /* \"#utility.yul\":14873:15067   */\n      swap3\n      swap2\n      pop\n      pop\n      jump\t// out\n        /* \"#utility.yul\":15073:15133   */\n    tag_293:\n        /* \"#utility.yul\":15101:15104   */\n      0x00\n        /* \"#utility.yul\":15122:15127   */\n      dup2\n        /* \"#utility.yul\":15115:15127   */\n      swap1\n      pop\n        /* \"#utility.yul\":15073:15133   */\n      swap2\n      swap1\n      pop\n      jump\t// out\n        /* \"#utility.yul\":15139:15281   */\n    tag_294:\n        /* \"#utility.yul\":15189:15198   */\n      0x00\n        /* \"#utility.yul\":15222:15275   */\n      tag_459\n        /* \"#utility.yul\":15240:15274   */\n      tag_460\n        /* \"#utility.yul\":15249:15273   */\n      tag_461\n        /* \"#utility.yul\":15267:15272   */\n      dup5\n        /* \"#utility.yul\":15249:15273   */\n      tag_260\n      jump\t// in\n    tag_461:\n        /* \"#utility.yul\":15240:15274   */\n      tag_293\n      jump\t// in\n    tag_460:\n        /* \"#utility.yul\":15222:15275   */\n      tag_260\n      jump\t// in\n    tag_459:\n        /* \"#utility.yul\":15209:15275   */\n      swap1\n      pop\n        /* \"#utility.yul\":15139:15281   */\n      swap2\n      swap1\n      pop\n      jump\t// out\n        /* \"#utility.yul\":15287:15413   */\n    tag_295:\n        /* \"#utility.yul\":15337:15346   */\n      0x00\n        /* \"#utility.yul\":15370:15407   */\n      tag_463\n        /* \"#utility.yul\":15401:15406   */\n      dup3\n        /* \"#utility.yul\":15370:15407   */\n      tag_294\n      jump\t// in\n    tag_463:\n        /* \"#utility.yul\":15357:15407   */\n      swap1\n      pop\n        /* \"#utility.yul\":15287:15413   */\n      swap2\n      swap1\n      pop\n      jump\t// out\n        /* \"#utility.yul\":15419:15568   */\n    tag_296:\n        /* \"#utility.yul\":15492:15501   */\n      0x00\n        /* \"#utility.yul\":15525:15562   */\n      tag_465\n        /* \"#utility.yul\":15556:15561   */\n      dup3\n        /* \"#utility.yul\":15525:15562   */\n      tag_295\n      jump\t// in\n    tag_465:\n        /* \"#utility.yul\":15512:15562   */\n      swap1\n      pop\n        /* \"#utility.yul\":15419:15568   */\n      swap2\n      swap1\n      pop\n      jump\t// out\n        /* \"#utility.yul\":15574:15668   */\n    tag_297:\n        /* \"#utility.yul\":15607:15615   */\n      0x00\n        /* \"#utility.yul\":15655:15660   */\n      dup2\n        /* \"#utility.yul\":15651:15653   */\n      0x60\n        /* \"#utility.yul\":15647:15661   */\n      shl\n        /* \"#utility.yul\":15626:15661   */\n      swap1\n      pop\n        /* \"#utility.yul\":15574:15668   */\n      swap2\n      swap1\n      pop\n      jump\t// out\n        /* \"#utility.yul\":15674:15768   */\n    tag_298:\n        /* \"#utility.yul\":15713:15720   */\n      0x00\n        /* \"#utility.yul\":15742:15762   */\n      tag_468\n        /* \"#utility.yul\":15756:15761   */\n      dup3\n        /* \"#utility.yul\":15742:15762   */\n      tag_297\n      jump\t// in\n    tag_468:\n        /* \"#utility.yul\":15731:15762   */\n      swap1\n      pop\n        /* \"#utility.yul\":15674:15768   */\n      swap2\n      swap1\n      pop\n      jump\t// out\n        /* \"#utility.yul\":15774:15874   */\n    tag_299:\n        /* \"#utility.yul\":15813:15820   */\n      0x00\n        /* \"#utility.yul\":15842:15868   */\n      tag_470\n        /* \"#utility.yul\":15862:15867   */\n      dup3\n        /* \"#utility.yul\":15842:15868   */\n      tag_298\n      jump\t// in\n    tag_470:\n        /* \"#utility.yul\":15831:15868   */\n      swap1\n      pop\n        /* \"#utility.yul\":15774:15874   */\n      swap2\n      swap1\n      pop\n      jump\t// out\n        /* \"#utility.yul\":15880:16096   */\n    tag_300:\n        /* \"#utility.yul\":16008:16089   */\n      tag_472\n        /* \"#utility.yul\":16028:16088   */\n      tag_473\n        /* \"#utility.yul\":16082:16087   */\n      dup3\n        /* \"#utility.yul\":16028:16088   */\n      tag_296\n      jump\t// in\n    tag_473:\n        /* \"#utility.yul\":16008:16089   */\n      tag_299\n      jump\t// in\n    tag_472:\n        /* \"#utility.yul\":16003:16006   */\n      dup3\n        /* \"#utility.yul\":15996:16090   */\n      mstore\n        /* \"#utility.yul\":15880:16096   */\n      pop\n      pop\n      jump\t// out\n        /* \"#utility.yul\":16102:16181   */\n    tag_301:\n        /* \"#utility.yul\":16141:16148   */\n      0x00\n        /* \"#utility.yul\":16170:16175   */\n      dup2\n        /* \"#utility.yul\":16159:16175   */\n      swap1\n      pop\n        /* \"#utility.yul\":16102:16181   */\n      swap2\n      swap1\n      pop\n      jump\t// out\n        /* \"#utility.yul\":16187:16344   */\n    tag_302:\n        /* \"#utility.yul\":16292:16337   */\n      tag_476\n        /* \"#utility.yul\":16312:16336   */\n      tag_477\n        /* \"#utility.yul\":16330:16335   */\n      dup3\n        /* \"#utility.yul\":16312:16336   */\n      tag_253\n      jump\t// in\n    tag_477:\n        /* \"#utility.yul\":16292:16337   */\n      tag_301\n      jump\t// in\n    tag_476:\n        /* \"#utility.yul\":16287:16290   */\n      dup3\n        /* \"#utility.yul\":16280:16338   */\n      mstore\n        /* \"#utility.yul\":16187:16344   */\n      pop\n      pop\n      jump\t// out\n        /* \"#utility.yul\":16350:16793   */\n    tag_188:\n        /* \"#utility.yul\":16513:16516   */\n      0x00\n        /* \"#utility.yul\":16528:16626   */\n      tag_479\n        /* \"#utility.yul\":16622:16625   */\n      dup3\n        /* \"#utility.yul\":16613:16619   */\n      dup6\n        /* \"#utility.yul\":16528:16626   */\n      tag_300\n      jump\t// in\n    tag_479:\n        /* \"#utility.yul\":16651:16653   */\n      0x14\n        /* \"#utility.yul\":16646:16649   */\n      dup3\n        /* \"#utility.yul\":16642:16654   */\n      add\n        /* \"#utility.yul\":16635:16654   */\n      swap2\n      pop\n        /* \"#utility.yul\":16664:16739   */\n      tag_480\n        /* \"#utility.yul\":16735:16738   */\n      dup3\n        /* \"#utility.yul\":16726:16732   */\n      dup5\n        /* \"#utility.yul\":16664:16739   */\n      tag_302\n      jump\t// in\n    tag_480:\n        /* \"#utility.yul\":16764:16766   */\n      0x20\n        /* \"#utility.yul\":16759:16762   */\n      dup3\n        /* \"#utility.yul\":16755:16767   */\n      add\n        /* \"#utility.yul\":16748:16767   */\n      swap2\n      pop\n        /* \"#utility.yul\":16784:16787   */\n      dup2\n        /* \"#utility.yul\":16777:16787   */\n      swap1\n      pop\n        /* \"#utility.yul\":16350:16793   */\n      swap4\n      swap3\n      pop\n      pop\n      pop\n      jump\t// out\n        /* \"#utility.yul\":16799:17328   */\n    tag_190:\n        /* \"#utility.yul\":16966:16970   */\n      0x00\n        /* \"#utility.yul\":17004:17006   */\n      0x60\n        /* \"#utility.yul\":16993:17002   */\n      dup3\n        /* \"#utility.yul\":16989:17007   */\n      add\n        /* \"#utility.yul\":16981:17007   */\n      swap1\n      pop\n        /* \"#utility.yul\":17017:17088   */\n      tag_482\n        /* \"#utility.yul\":17085:17086   */\n      0x00\n        /* \"#utility.yul\":17074:17083   */\n      dup4\n        /* \"#utility.yul\":17070:17087   */\n      add\n        /* \"#utility.yul\":17061:17067   */\n      dup7\n        /* \"#utility.yul\":17017:17088   */\n      tag_262\n      jump\t// in\n    tag_482:\n        /* \"#utility.yul\":17098:17170   */\n      tag_483\n        /* \"#utility.yul\":17166:17168   */\n      0x20\n        /* \"#utility.yul\":17155:17164   */\n      dup4\n        /* \"#utility.yul\":17151:17169   */\n      add\n        /* \"#utility.yul\":17142:17148   */\n      dup6\n        /* \"#utility.yul\":17098:17170   */\n      tag_263\n      jump\t// in\n    tag_483:\n        /* \"#utility.yul\":17217:17226   */\n      dup2\n        /* \"#utility.yul\":17211:17215   */\n      dup2\n        /* \"#utility.yul\":17207:17227   */\n      sub\n        /* \"#utility.yul\":17202:17204   */\n      0x40\n        /* \"#utility.yul\":17191:17200   */\n      dup4\n        /* \"#utility.yul\":17187:17205   */\n      add\n        /* \"#utility.yul\":17180:17228   */\n      mstore\n        /* \"#utility.yul\":17245:17321   */\n      tag_484\n        /* \"#utility.yul\":17316:17320   */\n      dup2\n        /* \"#utility.yul\":17307:17313   */\n      dup5\n        /* \"#utility.yul\":17245:17321   */\n      tag_291\n      jump\t// in\n    tag_484:\n        /* \"#utility.yul\":17237:17321   */\n      swap1\n      pop\n        /* \"#utility.yul\":16799:17328   */\n      swap5\n      swap4\n      pop\n      pop\n      pop\n      pop\n      jump\t// out\n        /* \"#utility.yul\":17334:17556   */\n    tag_303:\n        /* \"#utility.yul\":17474:17508   */\n      0x756e61626c6520746f207472616e73666572416e6443616c6c20746f206f7261\n        /* \"#utility.yul\":17470:17471   */\n      0x00\n        /* \"#utility.yul\":17462:17468   */\n      dup3\n        /* \"#utility.yul\":17458:17472   */\n      add\n        /* \"#utility.yul\":17451:17509   */\n      mstore\n        /* \"#utility.yul\":17543:17548   */\n      0x636c650000000000000000000000000000000000000000000000000000000000\n        /* \"#utility.yul\":17538:17540   */\n      0x20\n        /* \"#utility.yul\":17530:17536   */\n      dup3\n        /* \"#utility.yul\":17526:17541   */\n      add\n        /* \"#utility.yul\":17519:17549   */\n      mstore\n        /* \"#utility.yul\":17334:17556   */\n      pop\n      jump\t// out\n        /* \"#utility.yul\":17562:17928   */\n    tag_304:\n        /* \"#utility.yul\":17704:17707   */\n      0x00\n        /* \"#utility.yul\":17725:17792   */\n      tag_487\n        /* \"#utility.yul\":17789:17791   */\n      0x23\n        /* \"#utility.yul\":17784:17787   */\n      dup4\n        /* \"#utility.yul\":17725:17792   */\n      tag_266\n      jump\t// in\n    tag_487:\n        /* \"#utility.yul\":17718:17792   */\n      swap2\n      pop\n        /* \"#utility.yul\":17801:17894   */\n      tag_488\n        /* \"#utility.yul\":17890:17893   */\n      dup3\n        /* \"#utility.yul\":17801:17894   */\n      tag_303\n      jump\t// in\n    tag_488:\n        /* \"#utility.yul\":17919:17921   */\n      0x40\n        /* \"#utility.yul\":17914:17917   */\n      dup3\n        /* \"#utility.yul\":17910:17922   */\n      add\n        /* \"#utility.yul\":17903:17922   */\n      swap1\n      pop\n        /* \"#utility.yul\":17562:17928   */\n      swap2\n      swap1\n      pop\n      jump\t// out\n        /* \"#utility.yul\":17934:18353   */\n    tag_196:\n        /* \"#utility.yul\":18100:18104   */\n      0x00\n        /* \"#utility.yul\":18138:18140   */\n      0x20\n        /* \"#utility.yul\":18127:18136   */\n      dup3\n        /* \"#utility.yul\":18123:18141   */\n      add\n        /* \"#utility.yul\":18115:18141   */\n      swap1\n      pop\n        /* \"#utility.yul\":18187:18196   */\n      dup2\n        /* \"#utility.yul\":18181:18185   */\n      dup2\n        /* \"#utility.yul\":18177:18197   */\n      sub\n        /* \"#utility.yul\":18173:18174   */\n      0x00\n        /* \"#utility.yul\":18162:18171   */\n      dup4\n        /* \"#utility.yul\":18158:18175   */\n      add\n        /* \"#utility.yul\":18151:18198   */\n      mstore\n        /* \"#utility.yul\":18215:18346   */\n      tag_490\n        /* \"#utility.yul\":18341:18345   */\n      dup2\n        /* \"#utility.yul\":18215:18346   */\n      tag_304\n      jump\t// in\n    tag_490:\n        /* \"#utility.yul\":18207:18346   */\n      swap1\n      pop\n        /* \"#utility.yul\":17934:18353   */\n      swap2\n      swap1\n      pop\n      jump\t// out\n        /* \"#utility.yul\":18359:18769   */\n    tag_215:\n        /* \"#utility.yul\":18399:18406   */\n      0x00\n        /* \"#utility.yul\":18422:18442   */\n      tag_492\n        /* \"#utility.yul\":18440:18441   */\n      dup3\n        /* \"#utility.yul\":18422:18442   */\n      tag_253\n      jump\t// in\n    tag_492:\n        /* \"#utility.yul\":18417:18442   */\n      swap2\n      pop\n        /* \"#utility.yul\":18456:18476   */\n      tag_493\n        /* \"#utility.yul\":18474:18475   */\n      dup4\n        /* \"#utility.yul\":18456:18476   */\n      tag_253\n      jump\t// in\n    tag_493:\n        /* \"#utility.yul\":18451:18476   */\n      swap3\n      pop\n        /* \"#utility.yul\":18511:18512   */\n      dup3\n        /* \"#utility.yul\":18508:18509   */\n      dup3\n        /* \"#utility.yul\":18504:18513   */\n      mul\n        /* \"#utility.yul\":18533:18563   */\n      tag_494\n        /* \"#utility.yul\":18551:18562   */\n      dup2\n        /* \"#utility.yul\":18533:18563   */\n      tag_253\n      jump\t// in\n    tag_494:\n        /* \"#utility.yul\":18522:18563   */\n      swap2\n      pop\n        /* \"#utility.yul\":18712:18713   */\n      dup3\n        /* \"#utility.yul\":18703:18710   */\n      dup3\n        /* \"#utility.yul\":18699:18714   */\n      div\n        /* \"#utility.yul\":18696:18697   */\n      dup5\n        /* \"#utility.yul\":18693:18715   */\n      eq\n        /* \"#utility.yul\":18673:18674   */\n      dup4\n        /* \"#utility.yul\":18666:18675   */\n      iszero\n        /* \"#utility.yul\":18646:18729   */\n      or\n        /* \"#utility.yul\":18623:18762   */\n      tag_495\n      jumpi\n        /* \"#utility.yul\":18742:18760   */\n      tag_496\n      tag_284\n      jump\t// in\n    tag_496:\n        /* \"#utility.yul\":18623:18762   */\n    tag_495:\n        /* \"#utility.yul\":18407:18769   */\n      pop\n        /* \"#utility.yul\":18359:18769   */\n      swap3\n      swap2\n      pop\n      pop\n      jump\t// out\n        /* \"#utility.yul\":18775:18877   */\n    tag_305:\n        /* \"#utility.yul\":18817:18825   */\n      0x00\n        /* \"#utility.yul\":18864:18869   */\n      dup2\n        /* \"#utility.yul\":18861:18862   */\n      0x01\n        /* \"#utility.yul\":18857:18870   */\n      shr\n        /* \"#utility.yul\":18836:18870   */\n      swap1\n      pop\n        /* \"#utility.yul\":18775:18877   */\n      swap2\n      swap1\n      pop\n      jump\t// out\n        /* \"#utility.yul\":18883:19731   */\n    tag_306:\n        /* \"#utility.yul\":18944:18949   */\n      0x00\n        /* \"#utility.yul\":18951:18955   */\n      0x00\n        /* \"#utility.yul\":18975:18981   */\n      dup3\n        /* \"#utility.yul\":18966:18981   */\n      swap2\n      pop\n        /* \"#utility.yul\":18999:19004   */\n      dup4\n        /* \"#utility.yul\":18990:19004   */\n      swap1\n      pop\n        /* \"#utility.yul\":19013:19725   */\n    tag_499:\n        /* \"#utility.yul\":19034:19035   */\n      0x01\n        /* \"#utility.yul\":19024:19032   */\n      dup6\n        /* \"#utility.yul\":19021:19036   */\n      gt\n        /* \"#utility.yul\":19013:19725   */\n      iszero\n      tag_501\n      jumpi\n        /* \"#utility.yul\":19129:19133   */\n      dup1\n        /* \"#utility.yul\":19124:19127   */\n      dup7\n        /* \"#utility.yul\":19120:19134   */\n      div\n        /* \"#utility.yul\":19114:19118   */\n      dup2\n        /* \"#utility.yul\":19111:19135   */\n      gt\n        /* \"#utility.yul\":19108:19158   */\n      iszero\n      tag_502\n      jumpi\n        /* \"#utility.yul\":19138:19156   */\n      tag_503\n      tag_284\n      jump\t// in\n    tag_503:\n        /* \"#utility.yul\":19108:19158   */\n    tag_502:\n        /* \"#utility.yul\":19188:19189   */\n      0x01\n        /* \"#utility.yul\":19178:19186   */\n      dup6\n        /* \"#utility.yul\":19174:19190   */\n      and\n        /* \"#utility.yul\":19171:19622   */\n      iszero\n      tag_504\n      jumpi\n        /* \"#utility.yul\":19603:19607   */\n      dup1\n        /* \"#utility.yul\":19596:19601   */\n      dup3\n        /* \"#utility.yul\":19592:19608   */\n      mul\n        /* \"#utility.yul\":19583:19608   */\n      swap2\n      pop\n        /* \"#utility.yul\":19171:19622   */\n    tag_504:\n        /* \"#utility.yul\":19653:19657   */\n      dup1\n        /* \"#utility.yul\":19647:19651   */\n      dup2\n        /* \"#utility.yul\":19643:19658   */\n      mul\n        /* \"#utility.yul\":19635:19658   */\n      swap1\n      pop\n        /* \"#utility.yul\":19683:19715   */\n      tag_505\n        /* \"#utility.yul\":19706:19714   */\n      dup6\n        /* \"#utility.yul\":19683:19715   */\n      tag_305\n      jump\t// in\n    tag_505:\n        /* \"#utility.yul\":19671:19715   */\n      swap5\n      pop\n        /* \"#utility.yul\":19013:19725   */\n      jump(tag_499)\n    tag_501:\n        /* \"#utility.yul\":18883:19731   */\n      swap5\n      pop\n      swap5\n      swap3\n      pop\n      pop\n      pop\n      jump\t// out\n        /* \"#utility.yul\":19737:20810   */\n    tag_307:\n        /* \"#utility.yul\":19791:19796   */\n      0x00\n        /* \"#utility.yul\":19982:19990   */\n      dup3\n        /* \"#utility.yul\":19972:20012   */\n      tag_507\n      jumpi\n        /* \"#utility.yul\":20003:20004   */\n      0x01\n        /* \"#utility.yul\":19994:20004   */\n      swap1\n      pop\n        /* \"#utility.yul\":20005:20010   */\n      jump(tag_506)\n        /* \"#utility.yul\":19972:20012   */\n    tag_507:\n        /* \"#utility.yul\":20031:20035   */\n      dup2\n        /* \"#utility.yul\":20021:20057   */\n      tag_508\n      jumpi\n        /* \"#utility.yul\":20048:20049   */\n      0x00\n        /* \"#utility.yul\":20039:20049   */\n      swap1\n      pop\n        /* \"#utility.yul\":20050:20055   */\n      jump(tag_506)\n        /* \"#utility.yul\":20021:20057   */\n    tag_508:\n        /* \"#utility.yul\":20117:20121   */\n      dup2\n        /* \"#utility.yul\":20165:20166   */\n      0x01\n        /* \"#utility.yul\":20160:20187   */\n      dup2\n      eq\n      tag_510\n      jumpi\n        /* \"#utility.yul\":20201:20202   */\n      0x02\n        /* \"#utility.yul\":20196:20387   */\n      dup2\n      eq\n      tag_511\n      jumpi\n        /* \"#utility.yul\":20110:20387   */\n      jump(tag_509)\n        /* \"#utility.yul\":20160:20187   */\n    tag_510:\n        /* \"#utility.yul\":20178:20179   */\n      0x01\n        /* \"#utility.yul\":20169:20179   */\n      swap2\n      pop\n        /* \"#utility.yul\":20180:20185   */\n      pop\n      jump(tag_506)\n        /* \"#utility.yul\":20196:20387   */\n    tag_511:\n        /* \"#utility.yul\":20241:20244   */\n      0xff\n        /* \"#utility.yul\":20231:20239   */\n      dup5\n        /* \"#utility.yul\":20228:20245   */\n      gt\n        /* \"#utility.yul\":20225:20268   */\n      iszero\n      tag_512\n      jumpi\n        /* \"#utility.yul\":20248:20266   */\n      tag_513\n      tag_284\n      jump\t// in\n    tag_513:\n        /* \"#utility.yul\":20225:20268   */\n    tag_512:\n        /* \"#utility.yul\":20297:20305   */\n      dup4\n        /* \"#utility.yul\":20294:20295   */\n      0x02\n        /* \"#utility.yul\":20290:20306   */\n      exp\n        /* \"#utility.yul\":20281:20306   */\n      swap2\n      pop\n        /* \"#utility.yul\":20332:20335   */\n      dup5\n        /* \"#utility.yul\":20325:20330   */\n      dup3\n        /* \"#utility.yul\":20322:20336   */\n      gt\n        /* \"#utility.yul\":20319:20359   */\n      iszero\n      tag_514\n      jumpi\n        /* \"#utility.yul\":20339:20357   */\n      tag_515\n      tag_284\n      jump\t// in\n    tag_515:\n        /* \"#utility.yul\":20319:20359   */\n    tag_514:\n        /* \"#utility.yul\":20372:20377   */\n      pop\n      jump(tag_506)\n        /* \"#utility.yul\":20110:20387   */\n    tag_509:\n      pop\n        /* \"#utility.yul\":20496:20498   */\n      0x20\n        /* \"#utility.yul\":20486:20494   */\n      dup4\n        /* \"#utility.yul\":20483:20499   */\n      lt\n        /* \"#utility.yul\":20477:20480   */\n      0x0133\n        /* \"#utility.yul\":20471:20475   */\n      dup4\n        /* \"#utility.yul\":20468:20481   */\n      lt\n        /* \"#utility.yul\":20464:20500   */\n      and\n        /* \"#utility.yul\":20446:20448   */\n      0x4e\n        /* \"#utility.yul\":20436:20444   */\n      dup5\n        /* \"#utility.yul\":20433:20449   */\n      lt\n        /* \"#utility.yul\":20428:20430   */\n      0x0b\n        /* \"#utility.yul\":20422:20426   */\n      dup5\n        /* \"#utility.yul\":20419:20431   */\n      lt\n        /* \"#utility.yul\":20415:20450   */\n      and\n        /* \"#utility.yul\":20399:20510   */\n      or\n        /* \"#utility.yul\":20396:20642   */\n      iszero\n      tag_516\n      jumpi\n        /* \"#utility.yul\":20552:20560   */\n      dup3\n        /* \"#utility.yul\":20546:20550   */\n      dup3\n        /* \"#utility.yul\":20542:20561   */\n      exp\n        /* \"#utility.yul\":20533:20561   */\n      swap1\n      pop\n        /* \"#utility.yul\":20587:20590   */\n      dup4\n        /* \"#utility.yul\":20580:20585   */\n      dup2\n        /* \"#utility.yul\":20577:20591   */\n      gt\n        /* \"#utility.yul\":20574:20614   */\n      iszero\n      tag_517\n      jumpi\n        /* \"#utility.yul\":20594:20612   */\n      tag_518\n      tag_284\n      jump\t// in\n    tag_518:\n        /* \"#utility.yul\":20574:20614   */\n    tag_517:\n        /* \"#utility.yul\":20627:20632   */\n      jump(tag_506)\n        /* \"#utility.yul\":20396:20642   */\n    tag_516:\n        /* \"#utility.yul\":20667:20709   */\n      tag_519\n        /* \"#utility.yul\":20705:20708   */\n      dup5\n        /* \"#utility.yul\":20695:20703   */\n      dup5\n        /* \"#utility.yul\":20689:20693   */\n      dup5\n        /* \"#utility.yul\":20686:20687   */\n      0x01\n        /* \"#utility.yul\":20667:20709   */\n      tag_306\n      jump\t// in\n    tag_519:\n        /* \"#utility.yul\":20652:20709   */\n      swap3\n      pop\n      swap1\n      pop\n        /* \"#utility.yul\":20741:20745   */\n      dup2\n        /* \"#utility.yul\":20736:20739   */\n      dup5\n        /* \"#utility.yul\":20732:20746   */\n      div\n        /* \"#utility.yul\":20725:20730   */\n      dup2\n        /* \"#utility.yul\":20722:20747   */\n      gt\n        /* \"#utility.yul\":20719:20770   */\n      iszero\n      tag_520\n      jumpi\n        /* \"#utility.yul\":20750:20768   */\n      tag_521\n      tag_284\n      jump\t// in\n    tag_521:\n        /* \"#utility.yul\":20719:20770   */\n    tag_520:\n        /* \"#utility.yul\":20799:20803   */\n      dup2\n        /* \"#utility.yul\":20792:20797   */\n      dup2\n        /* \"#utility.yul\":20788:20804   */\n      mul\n        /* \"#utility.yul\":20779:20804   */\n      swap1\n      pop\n        /* \"#utility.yul\":19737:20810   */\n    tag_506:\n      swap4\n      swap3\n      pop\n      pop\n      pop\n      jump\t// out\n        /* \"#utility.yul\":20816:21101   */\n    tag_241:\n        /* \"#utility.yul\":20876:20881   */\n      0x00\n        /* \"#utility.yul\":20900:20923   */\n      tag_523\n        /* \"#utility.yul\":20918:20922   */\n      dup3\n        /* \"#utility.yul\":20900:20923   */\n      tag_253\n      jump\t// in\n    tag_523:\n        /* \"#utility.yul\":20892:20923   */\n      swap2\n      pop\n        /* \"#utility.yul\":20944:20971   */\n      tag_524\n        /* \"#utility.yul\":20962:20970   */\n      dup4\n        /* \"#utility.yul\":20944:20971   */\n      tag_253\n      jump\t// in\n    tag_524:\n        /* \"#utility.yul\":20932:20971   */\n      swap3\n      pop\n        /* \"#utility.yul\":20990:21094   */\n      tag_525\n        /* \"#utility.yul\":21027:21093   */\n      0xffffffffffffffffffffffffffffffffffffffffffffffffffffffffffffffff\n        /* \"#utility.yul\":21017:21025   */\n      dup5\n        /* \"#utility.yul\":21011:21015   */\n      dup5\n        /* \"#utility.yul\":20990:21094   */\n      tag_307\n      jump\t// in\n    tag_525:\n        /* \"#utility.yul\":20981:21094   */\n      swap1\n      pop\n        /* \"#utility.yul\":20816:21101   */\n      swap3\n      swap2\n      pop\n      pop\n      jump\t// out\n    stop\n    data_19910a7b270f58dc4bb2a3b1f897be4e730dda68c59459df666ee941ecbdb155 68747470733a2f2f303835332d31342d3230302d37352d35342e6e67726f6b2d667265652e6170702f64617461\n\n    auxdata: 0xa2646970667358221220e869fa49e5e29f49c12cbc00b3c0d46bc3d0e83adcfa4d7ea2991f70b485425564736f6c634300081d0033\n}\n",
				"bytecode": {
					"linkReferences": {},
					"object": "60806040526001600455348015610014575f5ffd5b5033805f5f73ffffffffffffffffffffffffffffffffffffffff168273ffffffffffffffffffffffffffffffffffffffff1603610086576040517f08c379a000000000000000000000000000000000000000000000000000000000815260040161007d906103b1565b60405180910390fd5b8160065f6101000a81548173ffffffffffffffffffffffffffffffffffffffff021916908373ffffffffffffffffffffffffffffffffffffffff1602179055505f73ffffffffffffffffffffffffffffffffffffffff168173ffffffffffffffffffffffffffffffffffffffff161461010957610108816101a560201b60201c565b5b50505061012f73779877a7b0d9e8603169ddbd7836e478b46247896102d160201b60201c565b610152736090149792daaee9d1d568c9f9a6f6b46aa29efd61031460201b60201c565b7f6361393833363663633733313439353762386330313263373266303561656562600981905550600a670de0b6b3a764000060016101909190610405565b61019a9190610473565b600a8190555061050b565b3373ffffffffffffffffffffffffffffffffffffffff168173ffffffffffffffffffffffffffffffffffffffff1603610213576040517f08c379a000000000000000000000000000000000000000000000000000000000815260040161020a906104ed565b60405180910390fd5b8060075f6101000a81548173ffffffffffffffffffffffffffffffffffffffff021916908373ffffffffffffffffffffffffffffffffffffffff1602179055508073ffffffffffffffffffffffffffffffffffffffff1660065f9054906101000a900473ffffffffffffffffffffffffffffffffffffffff1673ffffffffffffffffffffffffffffffffffffffff167fed8889f560326eb138920d842192f0eb3dd22b4f139c87a2c57538e05bae127860405160405180910390a350565b8060025f6101000a81548173ffffffffffffffffffffffffffffffffffffffff021916908373ffffffffffffffffffffffffffffffffffffffff16021790555050565b8060035f6101000a81548173ffffffffffffffffffffffffffffffffffffffff021916908373ffffffffffffffffffffffffffffffffffffffff16021790555050565b5f82825260208201905092915050565b7f43616e6e6f7420736574206f776e657220746f207a65726f00000000000000005f82015250565b5f61039b601883610357565b91506103a682610367565b602082019050919050565b5f6020820190508181035f8301526103c88161038f565b9050919050565b5f819050919050565b7f4e487b71000000000000000000000000000000000000000000000000000000005f52601160045260245ffd5b5f61040f826103cf565b915061041a836103cf565b9250828202610428816103cf565b9150828204841483151761043f5761043e6103d8565b5b5092915050565b7f4e487b71000000000000000000000000000000000000000000000000000000005f52601260045260245ffd5b5f61047d826103cf565b9150610488836103cf565b92508261049857610497610446565b5b828204905092915050565b7f43616e6e6f74207472616e7366657220746f2073656c660000000000000000005f82015250565b5f6104d7601783610357565b91506104e2826104a3565b602082019050919050565b5f6020820190508181035f830152610504816104cb565b9050919050565b611ed0806105185f395ff3fe608060405234801561000f575f5ffd5b506004361061007b575f3560e01c80638da5cb5b116100595780638da5cb5b146100d55780638dc654a2146100f3578063c618a1e4146100fd578063f2fde38b1461011b5761007b565b80632adb9e3c1461007f5780634357855e146100af57806379ba5097146100cb575b5f5ffd5b610099600480360381019061009491906113a2565b610137565b6040516100a691906113e5565b60405180910390f35b6100c960048036038101906100c49190611428565b6102c9565b005b6100d361040c565b005b6100dd61059d565b6040516100ea91906114a5565b60405180910390f35b6100fb6105c5565b005b61010561070c565b60405161011291906114cd565b60405180910390f35b61013560048036038101906101309190611510565b610712565b005b5f5f61014d60095430634357855e60e01b610726565b90506101b16040518060400160405280600381526020017f67657400000000000000000000000000000000000000000000000000000000008152506040518060600160405280602d8152602001611e6e602d9139836107579092919063ffffffff16565b6102306040518060400160405280600481526020017f70617468000000000000000000000000000000000000000000000000000000008152506040518060400160405280600381526020017f6e756d0000000000000000000000000000000000000000000000000000000000815250836107579092919063ffffffff16565b5f6001905061027f6040518060400160405280600581526020017f74696d6573000000000000000000000000000000000000000000000000000000815250828461078a9092919063ffffffff16565b7fe8e349d9d60379b7e0a717f216d3d9efaf00b5dce8b634a63f24a5d76251059f6040516102ac90611595565b60405180910390a16102c082600a546107bd565b92505050919050565b8160055f8281526020019081526020015f205f9054906101000a900473ffffffffffffffffffffffffffffffffffffffff1673ffffffffffffffffffffffffffffffffffffffff163373ffffffffffffffffffffffffffffffffffffffff1614610368576040517f08c379a000000000000000000000000000000000000000000000000000000000815260040161035f90611623565b60405180910390fd5b60055f8281526020019081526020015f205f6101000a81549073ffffffffffffffffffffffffffffffffffffffff0219169055807f7cc135e0cebb02c3480ae5d74d377283180a2601f8f644edf7987b009316c63a60405160405180910390a2827f673b38182859a514d734bdfcb49d3a05c4a641dec9311d9894c9717bcb79af76836040516103f891906114cd565b60405180910390a281600881905550505050565b60075f9054906101000a900473ffffffffffffffffffffffffffffffffffffffff1673ffffffffffffffffffffffffffffffffffffffff163373ffffffffffffffffffffffffffffffffffffffff161461049b576040517f08c379a00000000000000000000000000000000000000000000000000000000081526004016104929061168b565b60405180910390fd5b5f60065f9054906101000a900473ffffffffffffffffffffffffffffffffffffffff1690503360065f6101000a81548173ffffffffffffffffffffffffffffffffffffffff021916908373ffffffffffffffffffffffffffffffffffffffff1602179055505f60075f6101000a81548173ffffffffffffffffffffffffffffffffffffffff021916908373ffffffffffffffffffffffffffffffffffffffff1602179055503373ffffffffffffffffffffffffffffffffffffffff168173ffffffffffffffffffffffffffffffffffffffff167f8be0079c531659141344cd1fd0a4f28419497f9722a3daafe3b4186f6b6457e060405160405180910390a350565b5f60065f9054906101000a900473ffffffffffffffffffffffffffffffffffffffff16905090565b6105cd6107f2565b5f6105d6610883565b90508073ffffffffffffffffffffffffffffffffffffffff1663a9059cbb338373ffffffffffffffffffffffffffffffffffffffff166370a08231306040518263ffffffff1660e01b815260040161062e91906114a5565b602060405180830381865afa158015610649573d5f5f3e3d5ffd5b505050506040513d601f19601f8201168201806040525081019061066d91906116bd565b6040518363ffffffff1660e01b815260040161068a9291906116e8565b6020604051808303815f875af11580156106a6573d5f5f3e3d5ffd5b505050506040513d601f19601f820116820180604052508101906106ca9190611744565b610709576040517f08c379a0000000000000000000000000000000000000000000000000000000008152600401610700906117b9565b60405180910390fd5b50565b60085481565b61071a6107f2565b610723816108ab565b50565b61072e6112ec565b6107366112ec565b61074d858585846109d7909392919063ffffffff16565b9150509392505050565b61076e828460800151610a8690919063ffffffff16565b610785818460800151610a8690919063ffffffff16565b505050565b6107a1828460800151610a8690919063ffffffff16565b6107b8818460800151610aab90919063ffffffff16565b505050565b5f6107ea60035f9054906101000a900473ffffffffffffffffffffffffffffffffffffffff168484610b56565b905092915050565b60065f9054906101000a900473ffffffffffffffffffffffffffffffffffffffff1673ffffffffffffffffffffffffffffffffffffffff163373ffffffffffffffffffffffffffffffffffffffff1614610881576040517f08c379a000000000000000000000000000000000000000000000000000000000815260040161087890611821565b60405180910390fd5b565b5f60025f9054906101000a900473ffffffffffffffffffffffffffffffffffffffff16905090565b3373ffffffffffffffffffffffffffffffffffffffff168173ffffffffffffffffffffffffffffffffffffffff1603610919576040517f08c379a000000000000000000000000000000000000000000000000000000000815260040161091090611889565b60405180910390fd5b8060075f6101000a81548173ffffffffffffffffffffffffffffffffffffffff021916908373ffffffffffffffffffffffffffffffffffffffff1602179055508073ffffffffffffffffffffffffffffffffffffffff1660065f9054906101000a900473ffffffffffffffffffffffffffffffffffffffff1673ffffffffffffffffffffffffffffffffffffffff167fed8889f560326eb138920d842192f0eb3dd22b4f139c87a2c57538e05bae127860405160405180910390a350565b6109df6112ec565b6109ef8560800151610100610c1d565b5083855f01818152505082856020019073ffffffffffffffffffffffffffffffffffffffff16908173ffffffffffffffffffffffffffffffffffffffff16815250508185604001907bffffffffffffffffffffffffffffffffffffffffffffffffffffffff191690817bffffffffffffffffffffffffffffffffffffffffffffffffffffffff191681525050849050949350505050565b610a938260038351610c85565b610aa68183610e0a90919063ffffffff16565b505050565b7fffffffffffffffffffffffffffffffffffffffffffffffff0000000000000000811215610ae257610add8282610e2b565b610b52565b67ffffffffffffffff811315610b0157610afc8282610ea2565b610b51565b5f8112610b1857610b13825f83610c85565b610b50565b610b4f826001837fffffffffffffffffffffffffffffffffffffffffffffffffffffffffffffffff610b4a91906118dd565b610c85565b5b5b5b5050565b5f5f6004549050600181610b6a919061191d565b6004819055505f634042994660e01b5f5f875f01513089604001518760018c608001515f0151604051602401610ba79897969594939291906119fa565b604051602081830303815290604052907bffffffffffffffffffffffffffffffffffffffffffffffffffffffff19166020820180517bffffffffffffffffffffffffffffffffffffffffffffffffffffffff83818316178352505050509050610c1286838684610eee565b925050509392505050565b610c25611352565b5f602083610c339190611aaa565b14610c5f57602082610c459190611aaa565b6020610c519190611ada565b82610c5c919061191d565b91505b818360200181815250506040518084525f81528281016020016040525082905092915050565b60178167ffffffffffffffff1611610cbc57610cb68160058460ff16901b60ff16178461107b90919063ffffffff16565b50610e05565b60ff8167ffffffffffffffff1611610d1257610ceb601860058460ff16901b178461107b90919063ffffffff16565b50610d0c8167ffffffffffffffff1660018561109a9092919063ffffffff16565b50610e04565b61ffff8167ffffffffffffffff1611610d6957610d42601960058460ff16901b178461107b90919063ffffffff16565b50610d638167ffffffffffffffff1660028561109a9092919063ffffffff16565b50610e03565b63ffffffff8167ffffffffffffffff1611610dc257610d9b601a60058460ff16901b178461107b90919063ffffffff16565b50610dbc8167ffffffffffffffff1660048561109a9092919063ffffffff16565b50610e02565b610ddf601b60058460ff16901b178461107b90919063ffffffff16565b50610e008167ffffffffffffffff1660088561109a9092919063ffffffff16565b505b5b5b5b505050565b610e12611352565b610e2383845f0151518485516110bb565b905092915050565b610e4960036005600660ff16901b178361107b90919063ffffffff16565b50610e9e82827fffffffffffffffffffffffffffffffffffffffffffffffffffffffffffffffff610e7a91906118dd565b604051602001610e8a91906114cd565b6040516020818303038152906040526111a7565b5050565b610ec060026005600660ff16901b178361107b90919063ffffffff16565b50610eea8282604051602001610ed691906114cd565b6040516020818303038152906040526111a7565b5050565b5f3084604051602001610f02929190611bbe565b6040516020818303038152906040528051906020012090508460055f8381526020019081526020015f205f6101000a81548173ffffffffffffffffffffffffffffffffffffffff021916908373ffffffffffffffffffffffffffffffffffffffff160217905550807fb5e6e01e79f91267dc17b4e6314d5d4d03593d2ceee0fbb452b750bd70ea5af960405160405180910390a260025f9054906101000a900473ffffffffffffffffffffffffffffffffffffffff1673ffffffffffffffffffffffffffffffffffffffff16634000aea08685856040518463ffffffff1660e01b8152600401610ff493929190611be9565b6020604051808303815f875af1158015611010573d5f5f3e3d5ffd5b505050506040513d601f19601f820116820180604052508101906110349190611744565b611073576040517f08c379a000000000000000000000000000000000000000000000000000000000815260040161106a90611c95565b60405180910390fd5b949350505050565b611083611352565b61109283845f015151846111cc565b905092915050565b6110a2611352565b6110b284855f0151518585611222565b90509392505050565b6110c3611352565b82518211156110d0575f5ffd5b846020015182856110e1919061191d565b11156111165761111585600261110688602001518887611101919061191d565b6112af565b6111109190611cb3565b6112ca565b5b5f5f8651805187602083010193508088870111156111345787860182525b60208701925050505b6020841061117b5780518252602082611156919061191d565b9150602081611165919061191d565b90506020846111749190611ada565b935061113d565b5f6001856020036101000a03905080198251168184511681811785525050508692505050949350505050565b6111b48260028351610c85565b6111c78183610e0a90919063ffffffff16565b505050565b6111d4611352565b836020015183106111fa576111f984600286602001516111f49190611cb3565b6112ca565b5b83518051602085830101848153818603611215576001820183525b5050508390509392505050565b61122a611352565b8460200151848361123b919061191d565b1115611263576112628560028685611253919061191d565b61125d9190611cb3565b6112ca565b5b5f6001836101006112749190611e23565b61127e9190611ada565b905085518386820101858319825116178152815185880111156112a15784870182525b505085915050949350505050565b5f818311156112c0578290506112c4565b8190505b92915050565b5f825f015190506112db8383610c1d565b506112e68382610e0a565b50505050565b6040518060a001604052805f81526020015f73ffffffffffffffffffffffffffffffffffffffff1681526020015f7bffffffffffffffffffffffffffffffffffffffffffffffffffffffff191681526020015f815260200161134c611352565b81525090565b6040518060400160405280606081526020015f81525090565b5f5ffd5b5f819050919050565b6113818161136f565b811461138b575f5ffd5b50565b5f8135905061139c81611378565b92915050565b5f602082840312156113b7576113b661136b565b5b5f6113c48482850161138e565b91505092915050565b5f819050919050565b6113df816113cd565b82525050565b5f6020820190506113f85f8301846113d6565b92915050565b611407816113cd565b8114611411575f5ffd5b50565b5f81359050611422816113fe565b92915050565b5f5f6040838503121561143e5761143d61136b565b5b5f61144b85828601611414565b925050602061145c8582860161138e565b9150509250929050565b5f73ffffffffffffffffffffffffffffffffffffffff82169050919050565b5f61148f82611466565b9050919050565b61149f81611485565b82525050565b5f6020820190506114b85f830184611496565b92915050565b6114c78161136f565b82525050565b5f6020820190506114e05f8301846114be565b92915050565b6114ef81611485565b81146114f9575f5ffd5b50565b5f8135905061150a816114e6565b92915050565b5f602082840312156115255761152461136b565b5b5f611532848285016114fc565b91505092915050565b5f82825260208201905092915050565b7f4d616465207468652067657420726571756573740000000000000000000000005f82015250565b5f61157f60148361153b565b915061158a8261154b565b602082019050919050565b5f6020820190508181035f8301526115ac81611573565b9050919050565b7f536f75726365206d75737420626520746865206f7261636c65206f66207468655f8201527f2072657175657374000000000000000000000000000000000000000000000000602082015250565b5f61160d60288361153b565b9150611618826115b3565b604082019050919050565b5f6020820190508181035f83015261163a81611601565b9050919050565b7f4d7573742062652070726f706f736564206f776e6572000000000000000000005f82015250565b5f61167560168361153b565b915061168082611641565b602082019050919050565b5f6020820190508181035f8301526116a281611669565b9050919050565b5f815190506116b781611378565b92915050565b5f602082840312156116d2576116d161136b565b5b5f6116df848285016116a9565b91505092915050565b5f6040820190506116fb5f830185611496565b61170860208301846114be565b9392505050565b5f8115159050919050565b6117238161170f565b811461172d575f5ffd5b50565b5f8151905061173e8161171a565b92915050565b5f602082840312156117595761175861136b565b5b5f61176684828501611730565b91505092915050565b7f556e61626c6520746f207472616e7366657200000000000000000000000000005f82015250565b5f6117a360128361153b565b91506117ae8261176f565b602082019050919050565b5f6020820190508181035f8301526117d081611797565b9050919050565b7f4f6e6c792063616c6c61626c65206279206f776e6572000000000000000000005f82015250565b5f61180b60168361153b565b9150611816826117d7565b602082019050919050565b5f6020820190508181035f830152611838816117ff565b9050919050565b7f43616e6e6f74207472616e7366657220746f2073656c660000000000000000005f82015250565b5f61187360178361153b565b915061187e8261183f565b602082019050919050565b5f6020820190508181035f8301526118a081611867565b9050919050565b5f819050919050565b7f4e487b71000000000000000000000000000000000000000000000000000000005f52601160045260245ffd5b5f6118e7826118a7565b91506118f2836118a7565b925082820390508181125f8412168282135f851215161715611917576119166118b0565b5b92915050565b5f6119278261136f565b91506119328361136f565b925082820190508082111561194a576119496118b0565b5b92915050565b5f7fffffffff0000000000000000000000000000000000000000000000000000000082169050919050565b61198481611950565b82525050565b5f81519050919050565b5f82825260208201905092915050565b8281835e5f83830152505050565b5f601f19601f8301169050919050565b5f6119cc8261198a565b6119d68185611994565b93506119e68185602086016119a4565b6119ef816119b2565b840191505092915050565b5f61010082019050611a0e5f83018b611496565b611a1b602083018a6114be565b611a2860408301896113d6565b611a356060830188611496565b611a42608083018761197b565b611a4f60a08301866114be565b611a5c60c08301856114be565b81810360e0830152611a6e81846119c2565b90509998505050505050505050565b7f4e487b71000000000000000000000000000000000000000000000000000000005f52601260045260245ffd5b5f611ab48261136f565b9150611abf8361136f565b925082611acf57611ace611a7d565b5b828206905092915050565b5f611ae48261136f565b9150611aef8361136f565b9250828203905081811115611b0757611b066118b0565b5b92915050565b5f819050919050565b5f611b30611b2b611b2684611466565b611b0d565b611466565b9050919050565b5f611b4182611b16565b9050919050565b5f611b5282611b37565b9050919050565b5f8160601b9050919050565b5f611b6f82611b59565b9050919050565b5f611b8082611b65565b9050919050565b611b98611b9382611b48565b611b76565b82525050565b5f819050919050565b611bb8611bb38261136f565b611b9e565b82525050565b5f611bc98285611b87565b601482019150611bd98284611ba7565b6020820191508190509392505050565b5f606082019050611bfc5f830186611496565b611c0960208301856114be565b8181036040830152611c1b81846119c2565b9050949350505050565b7f756e61626c6520746f207472616e73666572416e6443616c6c20746f206f72615f8201527f636c650000000000000000000000000000000000000000000000000000000000602082015250565b5f611c7f60238361153b565b9150611c8a82611c25565b604082019050919050565b5f6020820190508181035f830152611cac81611c73565b9050919050565b5f611cbd8261136f565b9150611cc88361136f565b9250828202611cd68161136f565b91508282048414831517611ced57611cec6118b0565b5b5092915050565b5f8160011c9050919050565b5f5f8291508390505b6001851115611d4957808604811115611d2557611d246118b0565b5b6001851615611d345780820291505b8081029050611d4285611cf4565b9450611d09565b94509492505050565b5f82611d615760019050611e1c565b81611d6e575f9050611e1c565b8160018114611d845760028114611d8e57611dbd565b6001915050611e1c565b60ff841115611da057611d9f6118b0565b5b8360020a915084821115611db757611db66118b0565b5b50611e1c565b5060208310610133831016604e8410600b8410161715611df25782820a905083811115611ded57611dec6118b0565b5b611e1c565b611dff8484846001611d00565b92509050818404811115611e1657611e156118b0565b5b81810290505b9392505050565b5f611e2d8261136f565b9150611e388361136f565b9250611e657fffffffffffffffffffffffffffffffffffffffffffffffffffffffffffffffff8484611d52565b90509291505056fe68747470733a2f2f303835332d31342d3230302d37352d35342e6e67726f6b2d667265652e6170702f64617461a2646970667358221220e869fa49e5e29f49c12cbc00b3c0d46bc3d0e83adcfa4d7ea2991f70b485425564736f6c634300081d0033",
					"opcodes": "PUSH1 0x80 PUSH1 0x40 MSTORE PUSH1 0x1 PUSH1 0x4 SSTORE CALLVALUE DUP1 ISZERO PUSH2 0x14 JUMPI PUSH0 PUSH0 REVERT JUMPDEST POP CALLER DUP1 PUSH0 PUSH0 PUSH20 0xFFFFFFFFFFFFFFFFFFFFFFFFFFFFFFFFFFFFFFFF AND DUP3 PUSH20 0xFFFFFFFFFFFFFFFFFFFFFFFFFFFFFFFFFFFFFFFF AND SUB PUSH2 0x86 JUMPI PUSH1 0x40 MLOAD PUSH32 0x8C379A000000000000000000000000000000000000000000000000000000000 DUP2 MSTORE PUSH1 0x4 ADD PUSH2 0x7D SWAP1 PUSH2 0x3B1 JUMP JUMPDEST PUSH1 0x40 MLOAD DUP1 SWAP2 SUB SWAP1 REVERT JUMPDEST DUP2 PUSH1 0x6 PUSH0 PUSH2 0x100 EXP DUP2 SLOAD DUP2 PUSH20 0xFFFFFFFFFFFFFFFFFFFFFFFFFFFFFFFFFFFFFFFF MUL NOT AND SWAP1 DUP4 PUSH20 0xFFFFFFFFFFFFFFFFFFFFFFFFFFFFFFFFFFFFFFFF AND MUL OR SWAP1 SSTORE POP PUSH0 PUSH20 0xFFFFFFFFFFFFFFFFFFFFFFFFFFFFFFFFFFFFFFFF AND DUP2 PUSH20 0xFFFFFFFFFFFFFFFFFFFFFFFFFFFFFFFFFFFFFFFF AND EQ PUSH2 0x109 JUMPI PUSH2 0x108 DUP2 PUSH2 0x1A5 PUSH1 0x20 SHL PUSH1 0x20 SHR JUMP JUMPDEST JUMPDEST POP POP POP PUSH2 0x12F PUSH20 0x779877A7B0D9E8603169DDBD7836E478B4624789 PUSH2 0x2D1 PUSH1 0x20 SHL PUSH1 0x20 SHR JUMP JUMPDEST PUSH2 0x152 PUSH20 0x6090149792DAAEE9D1D568C9F9A6F6B46AA29EFD PUSH2 0x314 PUSH1 0x20 SHL PUSH1 0x20 SHR JUMP JUMPDEST PUSH32 0x6361393833363663633733313439353762386330313263373266303561656562 PUSH1 0x9 DUP2 SWAP1 SSTORE POP PUSH1 0xA PUSH8 0xDE0B6B3A7640000 PUSH1 0x1 PUSH2 0x190 SWAP2 SWAP1 PUSH2 0x405 JUMP JUMPDEST PUSH2 0x19A SWAP2 SWAP1 PUSH2 0x473 JUMP JUMPDEST PUSH1 0xA DUP2 SWAP1 SSTORE POP PUSH2 0x50B JUMP JUMPDEST CALLER PUSH20 0xFFFFFFFFFFFFFFFFFFFFFFFFFFFFFFFFFFFFFFFF AND DUP2 PUSH20 0xFFFFFFFFFFFFFFFFFFFFFFFFFFFFFFFFFFFFFFFF AND SUB PUSH2 0x213 JUMPI PUSH1 0x40 MLOAD PUSH32 0x8C379A000000000000000000000000000000000000000000000000000000000 DUP2 MSTORE PUSH1 0x4 ADD PUSH2 0x20A SWAP1 PUSH2 0x4ED JUMP JUMPDEST PUSH1 0x40 MLOAD DUP1 SWAP2 SUB SWAP1 REVERT JUMPDEST DUP1 PUSH1 0x7 PUSH0 PUSH2 0x100 EXP DUP2 SLOAD DUP2 PUSH20 0xFFFFFFFFFFFFFFFFFFFFFFFFFFFFFFFFFFFFFFFF MUL NOT AND SWAP1 DUP4 PUSH20 0xFFFFFFFFFFFFFFFFFFFFFFFFFFFFFFFFFFFFFFFF AND MUL OR SWAP1 SSTORE POP DUP1 PUSH20 0xFFFFFFFFFFFFFFFFFFFFFFFFFFFFFFFFFFFFFFFF AND PUSH1 0x6 PUSH0 SWAP1 SLOAD SWAP1 PUSH2 0x100 EXP SWAP1 DIV PUSH20 0xFFFFFFFFFFFFFFFFFFFFFFFFFFFFFFFFFFFFFFFF AND PUSH20 0xFFFFFFFFFFFFFFFFFFFFFFFFFFFFFFFFFFFFFFFF AND PUSH32 0xED8889F560326EB138920D842192F0EB3DD22B4F139C87A2C57538E05BAE1278 PUSH1 0x40 MLOAD PUSH1 0x40 MLOAD DUP1 SWAP2 SUB SWAP1 LOG3 POP JUMP JUMPDEST DUP1 PUSH1 0x2 PUSH0 PUSH2 0x100 EXP DUP2 SLOAD DUP2 PUSH20 0xFFFFFFFFFFFFFFFFFFFFFFFFFFFFFFFFFFFFFFFF MUL NOT AND SWAP1 DUP4 PUSH20 0xFFFFFFFFFFFFFFFFFFFFFFFFFFFFFFFFFFFFFFFF AND MUL OR SWAP1 SSTORE POP POP JUMP JUMPDEST DUP1 PUSH1 0x3 PUSH0 PUSH2 0x100 EXP DUP2 SLOAD DUP2 PUSH20 0xFFFFFFFFFFFFFFFFFFFFFFFFFFFFFFFFFFFFFFFF MUL NOT AND SWAP1 DUP4 PUSH20 0xFFFFFFFFFFFFFFFFFFFFFFFFFFFFFFFFFFFFFFFF AND MUL OR SWAP1 SSTORE POP POP JUMP JUMPDEST PUSH0 DUP3 DUP3 MSTORE PUSH1 0x20 DUP3 ADD SWAP1 POP SWAP3 SWAP2 POP POP JUMP JUMPDEST PUSH32 0x43616E6E6F7420736574206F776E657220746F207A65726F0000000000000000 PUSH0 DUP3 ADD MSTORE POP JUMP JUMPDEST PUSH0 PUSH2 0x39B PUSH1 0x18 DUP4 PUSH2 0x357 JUMP JUMPDEST SWAP2 POP PUSH2 0x3A6 DUP3 PUSH2 0x367 JUMP JUMPDEST PUSH1 0x20 DUP3 ADD SWAP1 POP SWAP2 SWAP1 POP JUMP JUMPDEST PUSH0 PUSH1 0x20 DUP3 ADD SWAP1 POP DUP2 DUP2 SUB PUSH0 DUP4 ADD MSTORE PUSH2 0x3C8 DUP2 PUSH2 0x38F JUMP JUMPDEST SWAP1 POP SWAP2 SWAP1 POP JUMP JUMPDEST PUSH0 DUP2 SWAP1 POP SWAP2 SWAP1 POP JUMP JUMPDEST PUSH32 0x4E487B7100000000000000000000000000000000000000000000000000000000 PUSH0 MSTORE PUSH1 0x11 PUSH1 0x4 MSTORE PUSH1 0x24 PUSH0 REVERT JUMPDEST PUSH0 PUSH2 0x40F DUP3 PUSH2 0x3CF JUMP JUMPDEST SWAP2 POP PUSH2 0x41A DUP4 PUSH2 0x3CF JUMP JUMPDEST SWAP3 POP DUP3 DUP3 MUL PUSH2 0x428 DUP2 PUSH2 0x3CF JUMP JUMPDEST SWAP2 POP DUP3 DUP3 DIV DUP5 EQ DUP4 ISZERO OR PUSH2 0x43F JUMPI PUSH2 0x43E PUSH2 0x3D8 JUMP JUMPDEST JUMPDEST POP SWAP3 SWAP2 POP POP JUMP JUMPDEST PUSH32 0x4E487B7100000000000000000000000000000000000000000000000000000000 PUSH0 MSTORE PUSH1 0x12 PUSH1 0x4 MSTORE PUSH1 0x24 PUSH0 REVERT JUMPDEST PUSH0 PUSH2 0x47D DUP3 PUSH2 0x3CF JUMP JUMPDEST SWAP2 POP PUSH2 0x488 DUP4 PUSH2 0x3CF JUMP JUMPDEST SWAP3 POP DUP3 PUSH2 0x498 JUMPI PUSH2 0x497 PUSH2 0x446 JUMP JUMPDEST JUMPDEST DUP3 DUP3 DIV SWAP1 POP SWAP3 SWAP2 POP POP JUMP JUMPDEST PUSH32 0x43616E6E6F74207472616E7366657220746F2073656C66000000000000000000 PUSH0 DUP3 ADD MSTORE POP JUMP JUMPDEST PUSH0 PUSH2 0x4D7 PUSH1 0x17 DUP4 PUSH2 0x357 JUMP JUMPDEST SWAP2 POP PUSH2 0x4E2 DUP3 PUSH2 0x4A3 JUMP JUMPDEST PUSH1 0x20 DUP3 ADD SWAP1 POP SWAP2 SWAP1 POP JUMP JUMPDEST PUSH0 PUSH1 0x20 DUP3 ADD SWAP1 POP DUP2 DUP2 SUB PUSH0 DUP4 ADD MSTORE PUSH2 0x504 DUP2 PUSH2 0x4CB JUMP JUMPDEST SWAP1 POP SWAP2 SWAP1 POP JUMP JUMPDEST PUSH2 0x1ED0 DUP1 PUSH2 0x518 PUSH0 CODECOPY PUSH0 RETURN INVALID PUSH1 0x80 PUSH1 0x40 MSTORE CALLVALUE DUP1 ISZERO PUSH2 0xF JUMPI PUSH0 PUSH0 REVERT JUMPDEST POP PUSH1 0x4 CALLDATASIZE LT PUSH2 0x7B JUMPI PUSH0 CALLDATALOAD PUSH1 0xE0 SHR DUP1 PUSH4 0x8DA5CB5B GT PUSH2 0x59 JUMPI DUP1 PUSH4 0x8DA5CB5B EQ PUSH2 0xD5 JUMPI DUP1 PUSH4 0x8DC654A2 EQ PUSH2 0xF3 JUMPI DUP1 PUSH4 0xC618A1E4 EQ PUSH2 0xFD JUMPI DUP1 PUSH4 0xF2FDE38B EQ PUSH2 0x11B JUMPI PUSH2 0x7B JUMP JUMPDEST DUP1 PUSH4 0x2ADB9E3C EQ PUSH2 0x7F JUMPI DUP1 PUSH4 0x4357855E EQ PUSH2 0xAF JUMPI DUP1 PUSH4 0x79BA5097 EQ PUSH2 0xCB JUMPI JUMPDEST PUSH0 PUSH0 REVERT JUMPDEST PUSH2 0x99 PUSH1 0x4 DUP1 CALLDATASIZE SUB DUP2 ADD SWAP1 PUSH2 0x94 SWAP2 SWAP1 PUSH2 0x13A2 JUMP JUMPDEST PUSH2 0x137 JUMP JUMPDEST PUSH1 0x40 MLOAD PUSH2 0xA6 SWAP2 SWAP1 PUSH2 0x13E5 JUMP JUMPDEST PUSH1 0x40 MLOAD DUP1 SWAP2 SUB SWAP1 RETURN JUMPDEST PUSH2 0xC9 PUSH1 0x4 DUP1 CALLDATASIZE SUB DUP2 ADD SWAP1 PUSH2 0xC4 SWAP2 SWAP1 PUSH2 0x1428 JUMP JUMPDEST PUSH2 0x2C9 JUMP JUMPDEST STOP JUMPDEST PUSH2 0xD3 PUSH2 0x40C JUMP JUMPDEST STOP JUMPDEST PUSH2 0xDD PUSH2 0x59D JUMP JUMPDEST PUSH1 0x40 MLOAD PUSH2 0xEA SWAP2 SWAP1 PUSH2 0x14A5 JUMP JUMPDEST PUSH1 0x40 MLOAD DUP1 SWAP2 SUB SWAP1 RETURN JUMPDEST PUSH2 0xFB PUSH2 0x5C5 JUMP JUMPDEST STOP JUMPDEST PUSH2 0x105 PUSH2 0x70C JUMP JUMPDEST PUSH1 0x40 MLOAD PUSH2 0x112 SWAP2 SWAP1 PUSH2 0x14CD JUMP JUMPDEST PUSH1 0x40 MLOAD DUP1 SWAP2 SUB SWAP1 RETURN JUMPDEST PUSH2 0x135 PUSH1 0x4 DUP1 CALLDATASIZE SUB DUP2 ADD SWAP1 PUSH2 0x130 SWAP2 SWAP1 PUSH2 0x1510 JUMP JUMPDEST PUSH2 0x712 JUMP JUMPDEST STOP JUMPDEST PUSH0 PUSH0 PUSH2 0x14D PUSH1 0x9 SLOAD ADDRESS PUSH4 0x4357855E PUSH1 0xE0 SHL PUSH2 0x726 JUMP JUMPDEST SWAP1 POP PUSH2 0x1B1 PUSH1 0x40 MLOAD DUP1 PUSH1 0x40 ADD PUSH1 0x40 MSTORE DUP1 PUSH1 0x3 DUP2 MSTORE PUSH1 0x20 ADD PUSH32 0x6765740000000000000000000000000000000000000000000000000000000000 DUP2 MSTORE POP PUSH1 0x40 MLOAD DUP1 PUSH1 0x60 ADD PUSH1 0x40 MSTORE DUP1 PUSH1 0x2D DUP2 MSTORE PUSH1 0x20 ADD PUSH2 0x1E6E PUSH1 0x2D SWAP2 CODECOPY DUP4 PUSH2 0x757 SWAP1 SWAP3 SWAP2 SWAP1 PUSH4 0xFFFFFFFF AND JUMP JUMPDEST PUSH2 0x230 PUSH1 0x40 MLOAD DUP1 PUSH1 0x40 ADD PUSH1 0x40 MSTORE DUP1 PUSH1 0x4 DUP2 MSTORE PUSH1 0x20 ADD PUSH32 0x7061746800000000000000000000000000000000000000000000000000000000 DUP2 MSTORE POP PUSH1 0x40 MLOAD DUP1 PUSH1 0x40 ADD PUSH1 0x40 MSTORE DUP1 PUSH1 0x3 DUP2 MSTORE PUSH1 0x20 ADD PUSH32 0x6E756D0000000000000000000000000000000000000000000000000000000000 DUP2 MSTORE POP DUP4 PUSH2 0x757 SWAP1 SWAP3 SWAP2 SWAP1 PUSH4 0xFFFFFFFF AND JUMP JUMPDEST PUSH0 PUSH1 0x1 SWAP1 POP PUSH2 0x27F PUSH1 0x40 MLOAD DUP1 PUSH1 0x40 ADD PUSH1 0x40 MSTORE DUP1 PUSH1 0x5 DUP2 MSTORE PUSH1 0x20 ADD PUSH32 0x74696D6573000000000000000000000000000000000000000000000000000000 DUP2 MSTORE POP DUP3 DUP5 PUSH2 0x78A SWAP1 SWAP3 SWAP2 SWAP1 PUSH4 0xFFFFFFFF AND JUMP JUMPDEST PUSH32 0xE8E349D9D60379B7E0A717F216D3D9EFAF00B5DCE8B634A63F24A5D76251059F PUSH1 0x40 MLOAD PUSH2 0x2AC SWAP1 PUSH2 0x1595 JUMP JUMPDEST PUSH1 0x40 MLOAD DUP1 SWAP2 SUB SWAP1 LOG1 PUSH2 0x2C0 DUP3 PUSH1 0xA SLOAD PUSH2 0x7BD JUMP JUMPDEST SWAP3 POP POP POP SWAP2 SWAP1 POP JUMP JUMPDEST DUP2 PUSH1 0x5 PUSH0 DUP3 DUP2 MSTORE PUSH1 0x20 ADD SWAP1 DUP2 MSTORE PUSH1 0x20 ADD PUSH0 KECCAK256 PUSH0 SWAP1 SLOAD SWAP1 PUSH2 0x100 EXP SWAP1 DIV PUSH20 0xFFFFFFFFFFFFFFFFFFFFFFFFFFFFFFFFFFFFFFFF AND PUSH20 0xFFFFFFFFFFFFFFFFFFFFFFFFFFFFFFFFFFFFFFFF AND CALLER PUSH20 0xFFFFFFFFFFFFFFFFFFFFFFFFFFFFFFFFFFFFFFFF AND EQ PUSH2 0x368 JUMPI PUSH1 0x40 MLOAD PUSH32 0x8C379A000000000000000000000000000000000000000000000000000000000 DUP2 MSTORE PUSH1 0x4 ADD PUSH2 0x35F SWAP1 PUSH2 0x1623 JUMP JUMPDEST PUSH1 0x40 MLOAD DUP1 SWAP2 SUB SWAP1 REVERT JUMPDEST PUSH1 0x5 PUSH0 DUP3 DUP2 MSTORE PUSH1 0x20 ADD SWAP1 DUP2 MSTORE PUSH1 0x20 ADD PUSH0 KECCAK256 PUSH0 PUSH2 0x100 EXP DUP2 SLOAD SWAP1 PUSH20 0xFFFFFFFFFFFFFFFFFFFFFFFFFFFFFFFFFFFFFFFF MUL NOT AND SWAP1 SSTORE DUP1 PUSH32 0x7CC135E0CEBB02C3480AE5D74D377283180A2601F8F644EDF7987B009316C63A PUSH1 0x40 MLOAD PUSH1 0x40 MLOAD DUP1 SWAP2 SUB SWAP1 LOG2 DUP3 PUSH32 0x673B38182859A514D734BDFCB49D3A05C4A641DEC9311D9894C9717BCB79AF76 DUP4 PUSH1 0x40 MLOAD PUSH2 0x3F8 SWAP2 SWAP1 PUSH2 0x14CD JUMP JUMPDEST PUSH1 0x40 MLOAD DUP1 SWAP2 SUB SWAP1 LOG2 DUP2 PUSH1 0x8 DUP2 SWAP1 SSTORE POP POP POP POP JUMP JUMPDEST PUSH1 0x7 PUSH0 SWAP1 SLOAD SWAP1 PUSH2 0x100 EXP SWAP1 DIV PUSH20 0xFFFFFFFFFFFFFFFFFFFFFFFFFFFFFFFFFFFFFFFF AND PUSH20 0xFFFFFFFFFFFFFFFFFFFFFFFFFFFFFFFFFFFFFFFF AND CALLER PUSH20 0xFFFFFFFFFFFFFFFFFFFFFFFFFFFFFFFFFFFFFFFF AND EQ PUSH2 0x49B JUMPI PUSH1 0x40 MLOAD PUSH32 0x8C379A000000000000000000000000000000000000000000000000000000000 DUP2 MSTORE PUSH1 0x4 ADD PUSH2 0x492 SWAP1 PUSH2 0x168B JUMP JUMPDEST PUSH1 0x40 MLOAD DUP1 SWAP2 SUB SWAP1 REVERT JUMPDEST PUSH0 PUSH1 0x6 PUSH0 SWAP1 SLOAD SWAP1 PUSH2 0x100 EXP SWAP1 DIV PUSH20 0xFFFFFFFFFFFFFFFFFFFFFFFFFFFFFFFFFFFFFFFF AND SWAP1 POP CALLER PUSH1 0x6 PUSH0 PUSH2 0x100 EXP DUP2 SLOAD DUP2 PUSH20 0xFFFFFFFFFFFFFFFFFFFFFFFFFFFFFFFFFFFFFFFF MUL NOT AND SWAP1 DUP4 PUSH20 0xFFFFFFFFFFFFFFFFFFFFFFFFFFFFFFFFFFFFFFFF AND MUL OR SWAP1 SSTORE POP PUSH0 PUSH1 0x7 PUSH0 PUSH2 0x100 EXP DUP2 SLOAD DUP2 PUSH20 0xFFFFFFFFFFFFFFFFFFFFFFFFFFFFFFFFFFFFFFFF MUL NOT AND SWAP1 DUP4 PUSH20 0xFFFFFFFFFFFFFFFFFFFFFFFFFFFFFFFFFFFFFFFF AND MUL OR SWAP1 SSTORE POP CALLER PUSH20 0xFFFFFFFFFFFFFFFFFFFFFFFFFFFFFFFFFFFFFFFF AND DUP2 PUSH20 0xFFFFFFFFFFFFFFFFFFFFFFFFFFFFFFFFFFFFFFFF AND PUSH32 0x8BE0079C531659141344CD1FD0A4F28419497F9722A3DAAFE3B4186F6B6457E0 PUSH1 0x40 MLOAD PUSH1 0x40 MLOAD DUP1 SWAP2 SUB SWAP1 LOG3 POP JUMP JUMPDEST PUSH0 PUSH1 0x6 PUSH0 SWAP1 SLOAD SWAP1 PUSH2 0x100 EXP SWAP1 DIV PUSH20 0xFFFFFFFFFFFFFFFFFFFFFFFFFFFFFFFFFFFFFFFF AND SWAP1 POP SWAP1 JUMP JUMPDEST PUSH2 0x5CD PUSH2 0x7F2 JUMP JUMPDEST PUSH0 PUSH2 0x5D6 PUSH2 0x883 JUMP JUMPDEST SWAP1 POP DUP1 PUSH20 0xFFFFFFFFFFFFFFFFFFFFFFFFFFFFFFFFFFFFFFFF AND PUSH4 0xA9059CBB CALLER DUP4 PUSH20 0xFFFFFFFFFFFFFFFFFFFFFFFFFFFFFFFFFFFFFFFF AND PUSH4 0x70A08231 ADDRESS PUSH1 0x40 MLOAD DUP3 PUSH4 0xFFFFFFFF AND PUSH1 0xE0 SHL DUP2 MSTORE PUSH1 0x4 ADD PUSH2 0x62E SWAP2 SWAP1 PUSH2 0x14A5 JUMP JUMPDEST PUSH1 0x20 PUSH1 0x40 MLOAD DUP1 DUP4 SUB DUP2 DUP7 GAS STATICCALL ISZERO DUP1 ISZERO PUSH2 0x649 JUMPI RETURNDATASIZE PUSH0 PUSH0 RETURNDATACOPY RETURNDATASIZE PUSH0 REVERT JUMPDEST POP POP POP POP PUSH1 0x40 MLOAD RETURNDATASIZE PUSH1 0x1F NOT PUSH1 0x1F DUP3 ADD AND DUP3 ADD DUP1 PUSH1 0x40 MSTORE POP DUP2 ADD SWAP1 PUSH2 0x66D SWAP2 SWAP1 PUSH2 0x16BD JUMP JUMPDEST PUSH1 0x40 MLOAD DUP4 PUSH4 0xFFFFFFFF AND PUSH1 0xE0 SHL DUP2 MSTORE PUSH1 0x4 ADD PUSH2 0x68A SWAP3 SWAP2 SWAP1 PUSH2 0x16E8 JUMP JUMPDEST PUSH1 0x20 PUSH1 0x40 MLOAD DUP1 DUP4 SUB DUP2 PUSH0 DUP8 GAS CALL ISZERO DUP1 ISZERO PUSH2 0x6A6 JUMPI RETURNDATASIZE PUSH0 PUSH0 RETURNDATACOPY RETURNDATASIZE PUSH0 REVERT JUMPDEST POP POP POP POP PUSH1 0x40 MLOAD RETURNDATASIZE PUSH1 0x1F NOT PUSH1 0x1F DUP3 ADD AND DUP3 ADD DUP1 PUSH1 0x40 MSTORE POP DUP2 ADD SWAP1 PUSH2 0x6CA SWAP2 SWAP1 PUSH2 0x1744 JUMP JUMPDEST PUSH2 0x709 JUMPI PUSH1 0x40 MLOAD PUSH32 0x8C379A000000000000000000000000000000000000000000000000000000000 DUP2 MSTORE PUSH1 0x4 ADD PUSH2 0x700 SWAP1 PUSH2 0x17B9 JUMP JUMPDEST PUSH1 0x40 MLOAD DUP1 SWAP2 SUB SWAP1 REVERT JUMPDEST POP JUMP JUMPDEST PUSH1 0x8 SLOAD DUP2 JUMP JUMPDEST PUSH2 0x71A PUSH2 0x7F2 JUMP JUMPDEST PUSH2 0x723 DUP2 PUSH2 0x8AB JUMP JUMPDEST POP JUMP JUMPDEST PUSH2 0x72E PUSH2 0x12EC JUMP JUMPDEST PUSH2 0x736 PUSH2 0x12EC JUMP JUMPDEST PUSH2 0x74D DUP6 DUP6 DUP6 DUP5 PUSH2 0x9D7 SWAP1 SWAP4 SWAP3 SWAP2 SWAP1 PUSH4 0xFFFFFFFF AND JUMP JUMPDEST SWAP2 POP POP SWAP4 SWAP3 POP POP POP JUMP JUMPDEST PUSH2 0x76E DUP3 DUP5 PUSH1 0x80 ADD MLOAD PUSH2 0xA86 SWAP1 SWAP2 SWAP1 PUSH4 0xFFFFFFFF AND JUMP JUMPDEST PUSH2 0x785 DUP2 DUP5 PUSH1 0x80 ADD MLOAD PUSH2 0xA86 SWAP1 SWAP2 SWAP1 PUSH4 0xFFFFFFFF AND JUMP JUMPDEST POP POP POP JUMP JUMPDEST PUSH2 0x7A1 DUP3 DUP5 PUSH1 0x80 ADD MLOAD PUSH2 0xA86 SWAP1 SWAP2 SWAP1 PUSH4 0xFFFFFFFF AND JUMP JUMPDEST PUSH2 0x7B8 DUP2 DUP5 PUSH1 0x80 ADD MLOAD PUSH2 0xAAB SWAP1 SWAP2 SWAP1 PUSH4 0xFFFFFFFF AND JUMP JUMPDEST POP POP POP JUMP JUMPDEST PUSH0 PUSH2 0x7EA PUSH1 0x3 PUSH0 SWAP1 SLOAD SWAP1 PUSH2 0x100 EXP SWAP1 DIV PUSH20 0xFFFFFFFFFFFFFFFFFFFFFFFFFFFFFFFFFFFFFFFF AND DUP5 DUP5 PUSH2 0xB56 JUMP JUMPDEST SWAP1 POP SWAP3 SWAP2 POP POP JUMP JUMPDEST PUSH1 0x6 PUSH0 SWAP1 SLOAD SWAP1 PUSH2 0x100 EXP SWAP1 DIV PUSH20 0xFFFFFFFFFFFFFFFFFFFFFFFFFFFFFFFFFFFFFFFF AND PUSH20 0xFFFFFFFFFFFFFFFFFFFFFFFFFFFFFFFFFFFFFFFF AND CALLER PUSH20 0xFFFFFFFFFFFFFFFFFFFFFFFFFFFFFFFFFFFFFFFF AND EQ PUSH2 0x881 JUMPI PUSH1 0x40 MLOAD PUSH32 0x8C379A000000000000000000000000000000000000000000000000000000000 DUP2 MSTORE PUSH1 0x4 ADD PUSH2 0x878 SWAP1 PUSH2 0x1821 JUMP JUMPDEST PUSH1 0x40 MLOAD DUP1 SWAP2 SUB SWAP1 REVERT JUMPDEST JUMP JUMPDEST PUSH0 PUSH1 0x2 PUSH0 SWAP1 SLOAD SWAP1 PUSH2 0x100 EXP SWAP1 DIV PUSH20 0xFFFFFFFFFFFFFFFFFFFFFFFFFFFFFFFFFFFFFFFF AND SWAP1 POP SWAP1 JUMP JUMPDEST CALLER PUSH20 0xFFFFFFFFFFFFFFFFFFFFFFFFFFFFFFFFFFFFFFFF AND DUP2 PUSH20 0xFFFFFFFFFFFFFFFFFFFFFFFFFFFFFFFFFFFFFFFF AND SUB PUSH2 0x919 JUMPI PUSH1 0x40 MLOAD PUSH32 0x8C379A000000000000000000000000000000000000000000000000000000000 DUP2 MSTORE PUSH1 0x4 ADD PUSH2 0x910 SWAP1 PUSH2 0x1889 JUMP JUMPDEST PUSH1 0x40 MLOAD DUP1 SWAP2 SUB SWAP1 REVERT JUMPDEST DUP1 PUSH1 0x7 PUSH0 PUSH2 0x100 EXP DUP2 SLOAD DUP2 PUSH20 0xFFFFFFFFFFFFFFFFFFFFFFFFFFFFFFFFFFFFFFFF MUL NOT AND SWAP1 DUP4 PUSH20 0xFFFFFFFFFFFFFFFFFFFFFFFFFFFFFFFFFFFFFFFF AND MUL OR SWAP1 SSTORE POP DUP1 PUSH20 0xFFFFFFFFFFFFFFFFFFFFFFFFFFFFFFFFFFFFFFFF AND PUSH1 0x6 PUSH0 SWAP1 SLOAD SWAP1 PUSH2 0x100 EXP SWAP1 DIV PUSH20 0xFFFFFFFFFFFFFFFFFFFFFFFFFFFFFFFFFFFFFFFF AND PUSH20 0xFFFFFFFFFFFFFFFFFFFFFFFFFFFFFFFFFFFFFFFF AND PUSH32 0xED8889F560326EB138920D842192F0EB3DD22B4F139C87A2C57538E05BAE1278 PUSH1 0x40 MLOAD PUSH1 0x40 MLOAD DUP1 SWAP2 SUB SWAP1 LOG3 POP JUMP JUMPDEST PUSH2 0x9DF PUSH2 0x12EC JUMP JUMPDEST PUSH2 0x9EF DUP6 PUSH1 0x80 ADD MLOAD PUSH2 0x100 PUSH2 0xC1D JUMP JUMPDEST POP DUP4 DUP6 PUSH0 ADD DUP2 DUP2 MSTORE POP POP DUP3 DUP6 PUSH1 0x20 ADD SWAP1 PUSH20 0xFFFFFFFFFFFFFFFFFFFFFFFFFFFFFFFFFFFFFFFF AND SWAP1 DUP2 PUSH20 0xFFFFFFFFFFFFFFFFFFFFFFFFFFFFFFFFFFFFFFFF AND DUP2 MSTORE POP POP DUP2 DUP6 PUSH1 0x40 ADD SWAP1 PUSH28 0xFFFFFFFFFFFFFFFFFFFFFFFFFFFFFFFFFFFFFFFFFFFFFFFFFFFFFFFF NOT AND SWAP1 DUP2 PUSH28 0xFFFFFFFFFFFFFFFFFFFFFFFFFFFFFFFFFFFFFFFFFFFFFFFFFFFFFFFF NOT AND DUP2 MSTORE POP POP DUP5 SWAP1 POP SWAP5 SWAP4 POP POP POP POP JUMP JUMPDEST PUSH2 0xA93 DUP3 PUSH1 0x3 DUP4 MLOAD PUSH2 0xC85 JUMP JUMPDEST PUSH2 0xAA6 DUP2 DUP4 PUSH2 0xE0A SWAP1 SWAP2 SWAP1 PUSH4 0xFFFFFFFF AND JUMP JUMPDEST POP POP POP JUMP JUMPDEST PUSH32 0xFFFFFFFFFFFFFFFFFFFFFFFFFFFFFFFFFFFFFFFFFFFFFFFF0000000000000000 DUP2 SLT ISZERO PUSH2 0xAE2 JUMPI PUSH2 0xADD DUP3 DUP3 PUSH2 0xE2B JUMP JUMPDEST PUSH2 0xB52 JUMP JUMPDEST PUSH8 0xFFFFFFFFFFFFFFFF DUP2 SGT ISZERO PUSH2 0xB01 JUMPI PUSH2 0xAFC DUP3 DUP3 PUSH2 0xEA2 JUMP JUMPDEST PUSH2 0xB51 JUMP JUMPDEST PUSH0 DUP2 SLT PUSH2 0xB18 JUMPI PUSH2 0xB13 DUP3 PUSH0 DUP4 PUSH2 0xC85 JUMP JUMPDEST PUSH2 0xB50 JUMP JUMPDEST PUSH2 0xB4F DUP3 PUSH1 0x1 DUP4 PUSH32 0xFFFFFFFFFFFFFFFFFFFFFFFFFFFFFFFFFFFFFFFFFFFFFFFFFFFFFFFFFFFFFFFF PUSH2 0xB4A SWAP2 SWAP1 PUSH2 0x18DD JUMP JUMPDEST PUSH2 0xC85 JUMP JUMPDEST JUMPDEST JUMPDEST JUMPDEST POP POP JUMP JUMPDEST PUSH0 PUSH0 PUSH1 0x4 SLOAD SWAP1 POP PUSH1 0x1 DUP2 PUSH2 0xB6A SWAP2 SWAP1 PUSH2 0x191D JUMP JUMPDEST PUSH1 0x4 DUP2 SWAP1 SSTORE POP PUSH0 PUSH4 0x40429946 PUSH1 0xE0 SHL PUSH0 PUSH0 DUP8 PUSH0 ADD MLOAD ADDRESS DUP10 PUSH1 0x40 ADD MLOAD DUP8 PUSH1 0x1 DUP13 PUSH1 0x80 ADD MLOAD PUSH0 ADD MLOAD PUSH1 0x40 MLOAD PUSH1 0x24 ADD PUSH2 0xBA7 SWAP9 SWAP8 SWAP7 SWAP6 SWAP5 SWAP4 SWAP3 SWAP2 SWAP1 PUSH2 0x19FA JUMP JUMPDEST PUSH1 0x40 MLOAD PUSH1 0x20 DUP2 DUP4 SUB SUB DUP2 MSTORE SWAP1 PUSH1 0x40 MSTORE SWAP1 PUSH28 0xFFFFFFFFFFFFFFFFFFFFFFFFFFFFFFFFFFFFFFFFFFFFFFFFFFFFFFFF NOT AND PUSH1 0x20 DUP3 ADD DUP1 MLOAD PUSH28 0xFFFFFFFFFFFFFFFFFFFFFFFFFFFFFFFFFFFFFFFFFFFFFFFFFFFFFFFF DUP4 DUP2 DUP4 AND OR DUP4 MSTORE POP POP POP POP SWAP1 POP PUSH2 0xC12 DUP7 DUP4 DUP7 DUP5 PUSH2 0xEEE JUMP JUMPDEST SWAP3 POP POP POP SWAP4 SWAP3 POP POP POP JUMP JUMPDEST PUSH2 0xC25 PUSH2 0x1352 JUMP JUMPDEST PUSH0 PUSH1 0x20 DUP4 PUSH2 0xC33 SWAP2 SWAP1 PUSH2 0x1AAA JUMP JUMPDEST EQ PUSH2 0xC5F JUMPI PUSH1 0x20 DUP3 PUSH2 0xC45 SWAP2 SWAP1 PUSH2 0x1AAA JUMP JUMPDEST PUSH1 0x20 PUSH2 0xC51 SWAP2 SWAP1 PUSH2 0x1ADA JUMP JUMPDEST DUP3 PUSH2 0xC5C SWAP2 SWAP1 PUSH2 0x191D JUMP JUMPDEST SWAP2 POP JUMPDEST DUP2 DUP4 PUSH1 0x20 ADD DUP2 DUP2 MSTORE POP POP PUSH1 0x40 MLOAD DUP1 DUP5 MSTORE PUSH0 DUP2 MSTORE DUP3 DUP2 ADD PUSH1 0x20 ADD PUSH1 0x40 MSTORE POP DUP3 SWAP1 POP SWAP3 SWAP2 POP POP JUMP JUMPDEST PUSH1 0x17 DUP2 PUSH8 0xFFFFFFFFFFFFFFFF AND GT PUSH2 0xCBC JUMPI PUSH2 0xCB6 DUP2 PUSH1 0x5 DUP5 PUSH1 0xFF AND SWAP1 SHL PUSH1 0xFF AND OR DUP5 PUSH2 0x107B SWAP1 SWAP2 SWAP1 PUSH4 0xFFFFFFFF AND JUMP JUMPDEST POP PUSH2 0xE05 JUMP JUMPDEST PUSH1 0xFF DUP2 PUSH8 0xFFFFFFFFFFFFFFFF AND GT PUSH2 0xD12 JUMPI PUSH2 0xCEB PUSH1 0x18 PUSH1 0x5 DUP5 PUSH1 0xFF AND SWAP1 SHL OR DUP5 PUSH2 0x107B SWAP1 SWAP2 SWAP1 PUSH4 0xFFFFFFFF AND JUMP JUMPDEST POP PUSH2 0xD0C DUP2 PUSH8 0xFFFFFFFFFFFFFFFF AND PUSH1 0x1 DUP6 PUSH2 0x109A SWAP1 SWAP3 SWAP2 SWAP1 PUSH4 0xFFFFFFFF AND JUMP JUMPDEST POP PUSH2 0xE04 JUMP JUMPDEST PUSH2 0xFFFF DUP2 PUSH8 0xFFFFFFFFFFFFFFFF AND GT PUSH2 0xD69 JUMPI PUSH2 0xD42 PUSH1 0x19 PUSH1 0x5 DUP5 PUSH1 0xFF AND SWAP1 SHL OR DUP5 PUSH2 0x107B SWAP1 SWAP2 SWAP1 PUSH4 0xFFFFFFFF AND JUMP JUMPDEST POP PUSH2 0xD63 DUP2 PUSH8 0xFFFFFFFFFFFFFFFF AND PUSH1 0x2 DUP6 PUSH2 0x109A SWAP1 SWAP3 SWAP2 SWAP1 PUSH4 0xFFFFFFFF AND JUMP JUMPDEST POP PUSH2 0xE03 JUMP JUMPDEST PUSH4 0xFFFFFFFF DUP2 PUSH8 0xFFFFFFFFFFFFFFFF AND GT PUSH2 0xDC2 JUMPI PUSH2 0xD9B PUSH1 0x1A PUSH1 0x5 DUP5 PUSH1 0xFF AND SWAP1 SHL OR DUP5 PUSH2 0x107B SWAP1 SWAP2 SWAP1 PUSH4 0xFFFFFFFF AND JUMP JUMPDEST POP PUSH2 0xDBC DUP2 PUSH8 0xFFFFFFFFFFFFFFFF AND PUSH1 0x4 DUP6 PUSH2 0x109A SWAP1 SWAP3 SWAP2 SWAP1 PUSH4 0xFFFFFFFF AND JUMP JUMPDEST POP PUSH2 0xE02 JUMP JUMPDEST PUSH2 0xDDF PUSH1 0x1B PUSH1 0x5 DUP5 PUSH1 0xFF AND SWAP1 SHL OR DUP5 PUSH2 0x107B SWAP1 SWAP2 SWAP1 PUSH4 0xFFFFFFFF AND JUMP JUMPDEST POP PUSH2 0xE00 DUP2 PUSH8 0xFFFFFFFFFFFFFFFF AND PUSH1 0x8 DUP6 PUSH2 0x109A SWAP1 SWAP3 SWAP2 SWAP1 PUSH4 0xFFFFFFFF AND JUMP JUMPDEST POP JUMPDEST JUMPDEST JUMPDEST JUMPDEST POP POP POP JUMP JUMPDEST PUSH2 0xE12 PUSH2 0x1352 JUMP JUMPDEST PUSH2 0xE23 DUP4 DUP5 PUSH0 ADD MLOAD MLOAD DUP5 DUP6 MLOAD PUSH2 0x10BB JUMP JUMPDEST SWAP1 POP SWAP3 SWAP2 POP POP JUMP JUMPDEST PUSH2 0xE49 PUSH1 0x3 PUSH1 0x5 PUSH1 0x6 PUSH1 0xFF AND SWAP1 SHL OR DUP4 PUSH2 0x107B SWAP1 SWAP2 SWAP1 PUSH4 0xFFFFFFFF AND JUMP JUMPDEST POP PUSH2 0xE9E DUP3 DUP3 PUSH32 0xFFFFFFFFFFFFFFFFFFFFFFFFFFFFFFFFFFFFFFFFFFFFFFFFFFFFFFFFFFFFFFFF PUSH2 0xE7A SWAP2 SWAP1 PUSH2 0x18DD JUMP JUMPDEST PUSH1 0x40 MLOAD PUSH1 0x20 ADD PUSH2 0xE8A SWAP2 SWAP1 PUSH2 0x14CD JUMP JUMPDEST PUSH1 0x40 MLOAD PUSH1 0x20 DUP2 DUP4 SUB SUB DUP2 MSTORE SWAP1 PUSH1 0x40 MSTORE PUSH2 0x11A7 JUMP JUMPDEST POP POP JUMP JUMPDEST PUSH2 0xEC0 PUSH1 0x2 PUSH1 0x5 PUSH1 0x6 PUSH1 0xFF AND SWAP1 SHL OR DUP4 PUSH2 0x107B SWAP1 SWAP2 SWAP1 PUSH4 0xFFFFFFFF AND JUMP JUMPDEST POP PUSH2 0xEEA DUP3 DUP3 PUSH1 0x40 MLOAD PUSH1 0x20 ADD PUSH2 0xED6 SWAP2 SWAP1 PUSH2 0x14CD JUMP JUMPDEST PUSH1 0x40 MLOAD PUSH1 0x20 DUP2 DUP4 SUB SUB DUP2 MSTORE SWAP1 PUSH1 0x40 MSTORE PUSH2 0x11A7 JUMP JUMPDEST POP POP JUMP JUMPDEST PUSH0 ADDRESS DUP5 PUSH1 0x40 MLOAD PUSH1 0x20 ADD PUSH2 0xF02 SWAP3 SWAP2 SWAP1 PUSH2 0x1BBE JUMP JUMPDEST PUSH1 0x40 MLOAD PUSH1 0x20 DUP2 DUP4 SUB SUB DUP2 MSTORE SWAP1 PUSH1 0x40 MSTORE DUP1 MLOAD SWAP1 PUSH1 0x20 ADD KECCAK256 SWAP1 POP DUP5 PUSH1 0x5 PUSH0 DUP4 DUP2 MSTORE PUSH1 0x20 ADD SWAP1 DUP2 MSTORE PUSH1 0x20 ADD PUSH0 KECCAK256 PUSH0 PUSH2 0x100 EXP DUP2 SLOAD DUP2 PUSH20 0xFFFFFFFFFFFFFFFFFFFFFFFFFFFFFFFFFFFFFFFF MUL NOT AND SWAP1 DUP4 PUSH20 0xFFFFFFFFFFFFFFFFFFFFFFFFFFFFFFFFFFFFFFFF AND MUL OR SWAP1 SSTORE POP DUP1 PUSH32 0xB5E6E01E79F91267DC17B4E6314D5D4D03593D2CEEE0FBB452B750BD70EA5AF9 PUSH1 0x40 MLOAD PUSH1 0x40 MLOAD DUP1 SWAP2 SUB SWAP1 LOG2 PUSH1 0x2 PUSH0 SWAP1 SLOAD SWAP1 PUSH2 0x100 EXP SWAP1 DIV PUSH20 0xFFFFFFFFFFFFFFFFFFFFFFFFFFFFFFFFFFFFFFFF AND PUSH20 0xFFFFFFFFFFFFFFFFFFFFFFFFFFFFFFFFFFFFFFFF AND PUSH4 0x4000AEA0 DUP7 DUP6 DUP6 PUSH1 0x40 MLOAD DUP5 PUSH4 0xFFFFFFFF AND PUSH1 0xE0 SHL DUP2 MSTORE PUSH1 0x4 ADD PUSH2 0xFF4 SWAP4 SWAP3 SWAP2 SWAP1 PUSH2 0x1BE9 JUMP JUMPDEST PUSH1 0x20 PUSH1 0x40 MLOAD DUP1 DUP4 SUB DUP2 PUSH0 DUP8 GAS CALL ISZERO DUP1 ISZERO PUSH2 0x1010 JUMPI RETURNDATASIZE PUSH0 PUSH0 RETURNDATACOPY RETURNDATASIZE PUSH0 REVERT JUMPDEST POP POP POP POP PUSH1 0x40 MLOAD RETURNDATASIZE PUSH1 0x1F NOT PUSH1 0x1F DUP3 ADD AND DUP3 ADD DUP1 PUSH1 0x40 MSTORE POP DUP2 ADD SWAP1 PUSH2 0x1034 SWAP2 SWAP1 PUSH2 0x1744 JUMP JUMPDEST PUSH2 0x1073 JUMPI PUSH1 0x40 MLOAD PUSH32 0x8C379A000000000000000000000000000000000000000000000000000000000 DUP2 MSTORE PUSH1 0x4 ADD PUSH2 0x106A SWAP1 PUSH2 0x1C95 JUMP JUMPDEST PUSH1 0x40 MLOAD DUP1 SWAP2 SUB SWAP1 REVERT JUMPDEST SWAP5 SWAP4 POP POP POP POP JUMP JUMPDEST PUSH2 0x1083 PUSH2 0x1352 JUMP JUMPDEST PUSH2 0x1092 DUP4 DUP5 PUSH0 ADD MLOAD MLOAD DUP5 PUSH2 0x11CC JUMP JUMPDEST SWAP1 POP SWAP3 SWAP2 POP POP JUMP JUMPDEST PUSH2 0x10A2 PUSH2 0x1352 JUMP JUMPDEST PUSH2 0x10B2 DUP5 DUP6 PUSH0 ADD MLOAD MLOAD DUP6 DUP6 PUSH2 0x1222 JUMP JUMPDEST SWAP1 POP SWAP4 SWAP3 POP POP POP JUMP JUMPDEST PUSH2 0x10C3 PUSH2 0x1352 JUMP JUMPDEST DUP3 MLOAD DUP3 GT ISZERO PUSH2 0x10D0 JUMPI PUSH0 PUSH0 REVERT JUMPDEST DUP5 PUSH1 0x20 ADD MLOAD DUP3 DUP6 PUSH2 0x10E1 SWAP2 SWAP1 PUSH2 0x191D JUMP JUMPDEST GT ISZERO PUSH2 0x1116 JUMPI PUSH2 0x1115 DUP6 PUSH1 0x2 PUSH2 0x1106 DUP9 PUSH1 0x20 ADD MLOAD DUP9 DUP8 PUSH2 0x1101 SWAP2 SWAP1 PUSH2 0x191D JUMP JUMPDEST PUSH2 0x12AF JUMP JUMPDEST PUSH2 0x1110 SWAP2 SWAP1 PUSH2 0x1CB3 JUMP JUMPDEST PUSH2 0x12CA JUMP JUMPDEST JUMPDEST PUSH0 PUSH0 DUP7 MLOAD DUP1 MLOAD DUP8 PUSH1 0x20 DUP4 ADD ADD SWAP4 POP DUP1 DUP9 DUP8 ADD GT ISZERO PUSH2 0x1134 JUMPI DUP8 DUP7 ADD DUP3 MSTORE JUMPDEST PUSH1 0x20 DUP8 ADD SWAP3 POP POP POP JUMPDEST PUSH1 0x20 DUP5 LT PUSH2 0x117B JUMPI DUP1 MLOAD DUP3 MSTORE PUSH1 0x20 DUP3 PUSH2 0x1156 SWAP2 SWAP1 PUSH2 0x191D JUMP JUMPDEST SWAP2 POP PUSH1 0x20 DUP2 PUSH2 0x1165 SWAP2 SWAP1 PUSH2 0x191D JUMP JUMPDEST SWAP1 POP PUSH1 0x20 DUP5 PUSH2 0x1174 SWAP2 SWAP1 PUSH2 0x1ADA JUMP JUMPDEST SWAP4 POP PUSH2 0x113D JUMP JUMPDEST PUSH0 PUSH1 0x1 DUP6 PUSH1 0x20 SUB PUSH2 0x100 EXP SUB SWAP1 POP DUP1 NOT DUP3 MLOAD AND DUP2 DUP5 MLOAD AND DUP2 DUP2 OR DUP6 MSTORE POP POP POP DUP7 SWAP3 POP POP POP SWAP5 SWAP4 POP POP POP POP JUMP JUMPDEST PUSH2 0x11B4 DUP3 PUSH1 0x2 DUP4 MLOAD PUSH2 0xC85 JUMP JUMPDEST PUSH2 0x11C7 DUP2 DUP4 PUSH2 0xE0A SWAP1 SWAP2 SWAP1 PUSH4 0xFFFFFFFF AND JUMP JUMPDEST POP POP POP JUMP JUMPDEST PUSH2 0x11D4 PUSH2 0x1352 JUMP JUMPDEST DUP4 PUSH1 0x20 ADD MLOAD DUP4 LT PUSH2 0x11FA JUMPI PUSH2 0x11F9 DUP5 PUSH1 0x2 DUP7 PUSH1 0x20 ADD MLOAD PUSH2 0x11F4 SWAP2 SWAP1 PUSH2 0x1CB3 JUMP JUMPDEST PUSH2 0x12CA JUMP JUMPDEST JUMPDEST DUP4 MLOAD DUP1 MLOAD PUSH1 0x20 DUP6 DUP4 ADD ADD DUP5 DUP2 MSTORE8 DUP2 DUP7 SUB PUSH2 0x1215 JUMPI PUSH1 0x1 DUP3 ADD DUP4 MSTORE JUMPDEST POP POP POP DUP4 SWAP1 POP SWAP4 SWAP3 POP POP POP JUMP JUMPDEST PUSH2 0x122A PUSH2 0x1352 JUMP JUMPDEST DUP5 PUSH1 0x20 ADD MLOAD DUP5 DUP4 PUSH2 0x123B SWAP2 SWAP1 PUSH2 0x191D JUMP JUMPDEST GT ISZERO PUSH2 0x1263 JUMPI PUSH2 0x1262 DUP6 PUSH1 0x2 DUP7 DUP6 PUSH2 0x1253 SWAP2 SWAP1 PUSH2 0x191D JUMP JUMPDEST PUSH2 0x125D SWAP2 SWAP1 PUSH2 0x1CB3 JUMP JUMPDEST PUSH2 0x12CA JUMP JUMPDEST JUMPDEST PUSH0 PUSH1 0x1 DUP4 PUSH2 0x100 PUSH2 0x1274 SWAP2 SWAP1 PUSH2 0x1E23 JUMP JUMPDEST PUSH2 0x127E SWAP2 SWAP1 PUSH2 0x1ADA JUMP JUMPDEST SWAP1 POP DUP6 MLOAD DUP4 DUP7 DUP3 ADD ADD DUP6 DUP4 NOT DUP3 MLOAD AND OR DUP2 MSTORE DUP2 MLOAD DUP6 DUP9 ADD GT ISZERO PUSH2 0x12A1 JUMPI DUP5 DUP8 ADD DUP3 MSTORE JUMPDEST POP POP DUP6 SWAP2 POP POP SWAP5 SWAP4 POP POP POP POP JUMP JUMPDEST PUSH0 DUP2 DUP4 GT ISZERO PUSH2 0x12C0 JUMPI DUP3 SWAP1 POP PUSH2 0x12C4 JUMP JUMPDEST DUP2 SWAP1 POP JUMPDEST SWAP3 SWAP2 POP POP JUMP JUMPDEST PUSH0 DUP3 PUSH0 ADD MLOAD SWAP1 POP PUSH2 0x12DB DUP4 DUP4 PUSH2 0xC1D JUMP JUMPDEST POP PUSH2 0x12E6 DUP4 DUP3 PUSH2 0xE0A JUMP JUMPDEST POP POP POP POP JUMP JUMPDEST PUSH1 0x40 MLOAD DUP1 PUSH1 0xA0 ADD PUSH1 0x40 MSTORE DUP1 PUSH0 DUP2 MSTORE PUSH1 0x20 ADD PUSH0 PUSH20 0xFFFFFFFFFFFFFFFFFFFFFFFFFFFFFFFFFFFFFFFF AND DUP2 MSTORE PUSH1 0x20 ADD PUSH0 PUSH28 0xFFFFFFFFFFFFFFFFFFFFFFFFFFFFFFFFFFFFFFFFFFFFFFFFFFFFFFFF NOT AND DUP2 MSTORE PUSH1 0x20 ADD PUSH0 DUP2 MSTORE PUSH1 0x20 ADD PUSH2 0x134C PUSH2 0x1352 JUMP JUMPDEST DUP2 MSTORE POP SWAP1 JUMP JUMPDEST PUSH1 0x40 MLOAD DUP1 PUSH1 0x40 ADD PUSH1 0x40 MSTORE DUP1 PUSH1 0x60 DUP2 MSTORE PUSH1 0x20 ADD PUSH0 DUP2 MSTORE POP SWAP1 JUMP JUMPDEST PUSH0 PUSH0 REVERT JUMPDEST PUSH0 DUP2 SWAP1 POP SWAP2 SWAP1 POP JUMP JUMPDEST PUSH2 0x1381 DUP2 PUSH2 0x136F JUMP JUMPDEST DUP2 EQ PUSH2 0x138B JUMPI PUSH0 PUSH0 REVERT JUMPDEST POP JUMP JUMPDEST PUSH0 DUP2 CALLDATALOAD SWAP1 POP PUSH2 0x139C DUP2 PUSH2 0x1378 JUMP JUMPDEST SWAP3 SWAP2 POP POP JUMP JUMPDEST PUSH0 PUSH1 0x20 DUP3 DUP5 SUB SLT ISZERO PUSH2 0x13B7 JUMPI PUSH2 0x13B6 PUSH2 0x136B JUMP JUMPDEST JUMPDEST PUSH0 PUSH2 0x13C4 DUP5 DUP3 DUP6 ADD PUSH2 0x138E JUMP JUMPDEST SWAP2 POP POP SWAP3 SWAP2 POP POP JUMP JUMPDEST PUSH0 DUP2 SWAP1 POP SWAP2 SWAP1 POP JUMP JUMPDEST PUSH2 0x13DF DUP2 PUSH2 0x13CD JUMP JUMPDEST DUP3 MSTORE POP POP JUMP JUMPDEST PUSH0 PUSH1 0x20 DUP3 ADD SWAP1 POP PUSH2 0x13F8 PUSH0 DUP4 ADD DUP5 PUSH2 0x13D6 JUMP JUMPDEST SWAP3 SWAP2 POP POP JUMP JUMPDEST PUSH2 0x1407 DUP2 PUSH2 0x13CD JUMP JUMPDEST DUP2 EQ PUSH2 0x1411 JUMPI PUSH0 PUSH0 REVERT JUMPDEST POP JUMP JUMPDEST PUSH0 DUP2 CALLDATALOAD SWAP1 POP PUSH2 0x1422 DUP2 PUSH2 0x13FE JUMP JUMPDEST SWAP3 SWAP2 POP POP JUMP JUMPDEST PUSH0 PUSH0 PUSH1 0x40 DUP4 DUP6 SUB SLT ISZERO PUSH2 0x143E JUMPI PUSH2 0x143D PUSH2 0x136B JUMP JUMPDEST JUMPDEST PUSH0 PUSH2 0x144B DUP6 DUP3 DUP7 ADD PUSH2 0x1414 JUMP JUMPDEST SWAP3 POP POP PUSH1 0x20 PUSH2 0x145C DUP6 DUP3 DUP7 ADD PUSH2 0x138E JUMP JUMPDEST SWAP2 POP POP SWAP3 POP SWAP3 SWAP1 POP JUMP JUMPDEST PUSH0 PUSH20 0xFFFFFFFFFFFFFFFFFFFFFFFFFFFFFFFFFFFFFFFF DUP3 AND SWAP1 POP SWAP2 SWAP1 POP JUMP JUMPDEST PUSH0 PUSH2 0x148F DUP3 PUSH2 0x1466 JUMP JUMPDEST SWAP1 POP SWAP2 SWAP1 POP JUMP JUMPDEST PUSH2 0x149F DUP2 PUSH2 0x1485 JUMP JUMPDEST DUP3 MSTORE POP POP JUMP JUMPDEST PUSH0 PUSH1 0x20 DUP3 ADD SWAP1 POP PUSH2 0x14B8 PUSH0 DUP4 ADD DUP5 PUSH2 0x1496 JUMP JUMPDEST SWAP3 SWAP2 POP POP JUMP JUMPDEST PUSH2 0x14C7 DUP2 PUSH2 0x136F JUMP JUMPDEST DUP3 MSTORE POP POP JUMP JUMPDEST PUSH0 PUSH1 0x20 DUP3 ADD SWAP1 POP PUSH2 0x14E0 PUSH0 DUP4 ADD DUP5 PUSH2 0x14BE JUMP JUMPDEST SWAP3 SWAP2 POP POP JUMP JUMPDEST PUSH2 0x14EF DUP2 PUSH2 0x1485 JUMP JUMPDEST DUP2 EQ PUSH2 0x14F9 JUMPI PUSH0 PUSH0 REVERT JUMPDEST POP JUMP JUMPDEST PUSH0 DUP2 CALLDATALOAD SWAP1 POP PUSH2 0x150A DUP2 PUSH2 0x14E6 JUMP JUMPDEST SWAP3 SWAP2 POP POP JUMP JUMPDEST PUSH0 PUSH1 0x20 DUP3 DUP5 SUB SLT ISZERO PUSH2 0x1525 JUMPI PUSH2 0x1524 PUSH2 0x136B JUMP JUMPDEST JUMPDEST PUSH0 PUSH2 0x1532 DUP5 DUP3 DUP6 ADD PUSH2 0x14FC JUMP JUMPDEST SWAP2 POP POP SWAP3 SWAP2 POP POP JUMP JUMPDEST PUSH0 DUP3 DUP3 MSTORE PUSH1 0x20 DUP3 ADD SWAP1 POP SWAP3 SWAP2 POP POP JUMP JUMPDEST PUSH32 0x4D61646520746865206765742072657175657374000000000000000000000000 PUSH0 DUP3 ADD MSTORE POP JUMP JUMPDEST PUSH0 PUSH2 0x157F PUSH1 0x14 DUP4 PUSH2 0x153B JUMP JUMPDEST SWAP2 POP PUSH2 0x158A DUP3 PUSH2 0x154B JUMP JUMPDEST PUSH1 0x20 DUP3 ADD SWAP1 POP SWAP2 SWAP1 POP JUMP JUMPDEST PUSH0 PUSH1 0x20 DUP3 ADD SWAP1 POP DUP2 DUP2 SUB PUSH0 DUP4 ADD MSTORE PUSH2 0x15AC DUP2 PUSH2 0x1573 JUMP JUMPDEST SWAP1 POP SWAP2 SWAP1 POP JUMP JUMPDEST PUSH32 0x536F75726365206D75737420626520746865206F7261636C65206F6620746865 PUSH0 DUP3 ADD MSTORE PUSH32 0x2072657175657374000000000000000000000000000000000000000000000000 PUSH1 0x20 DUP3 ADD MSTORE POP JUMP JUMPDEST PUSH0 PUSH2 0x160D PUSH1 0x28 DUP4 PUSH2 0x153B JUMP JUMPDEST SWAP2 POP PUSH2 0x1618 DUP3 PUSH2 0x15B3 JUMP JUMPDEST PUSH1 0x40 DUP3 ADD SWAP1 POP SWAP2 SWAP1 POP JUMP JUMPDEST PUSH0 PUSH1 0x20 DUP3 ADD SWAP1 POP DUP2 DUP2 SUB PUSH0 DUP4 ADD MSTORE PUSH2 0x163A DUP2 PUSH2 0x1601 JUMP JUMPDEST SWAP1 POP SWAP2 SWAP1 POP JUMP JUMPDEST PUSH32 0x4D7573742062652070726F706F736564206F776E657200000000000000000000 PUSH0 DUP3 ADD MSTORE POP JUMP JUMPDEST PUSH0 PUSH2 0x1675 PUSH1 0x16 DUP4 PUSH2 0x153B JUMP JUMPDEST SWAP2 POP PUSH2 0x1680 DUP3 PUSH2 0x1641 JUMP JUMPDEST PUSH1 0x20 DUP3 ADD SWAP1 POP SWAP2 SWAP1 POP JUMP JUMPDEST PUSH0 PUSH1 0x20 DUP3 ADD SWAP1 POP DUP2 DUP2 SUB PUSH0 DUP4 ADD MSTORE PUSH2 0x16A2 DUP2 PUSH2 0x1669 JUMP JUMPDEST SWAP1 POP SWAP2 SWAP1 POP JUMP JUMPDEST PUSH0 DUP2 MLOAD SWAP1 POP PUSH2 0x16B7 DUP2 PUSH2 0x1378 JUMP JUMPDEST SWAP3 SWAP2 POP POP JUMP JUMPDEST PUSH0 PUSH1 0x20 DUP3 DUP5 SUB SLT ISZERO PUSH2 0x16D2 JUMPI PUSH2 0x16D1 PUSH2 0x136B JUMP JUMPDEST JUMPDEST PUSH0 PUSH2 0x16DF DUP5 DUP3 DUP6 ADD PUSH2 0x16A9 JUMP JUMPDEST SWAP2 POP POP SWAP3 SWAP2 POP POP JUMP JUMPDEST PUSH0 PUSH1 0x40 DUP3 ADD SWAP1 POP PUSH2 0x16FB PUSH0 DUP4 ADD DUP6 PUSH2 0x1496 JUMP JUMPDEST PUSH2 0x1708 PUSH1 0x20 DUP4 ADD DUP5 PUSH2 0x14BE JUMP JUMPDEST SWAP4 SWAP3 POP POP POP JUMP JUMPDEST PUSH0 DUP2 ISZERO ISZERO SWAP1 POP SWAP2 SWAP1 POP JUMP JUMPDEST PUSH2 0x1723 DUP2 PUSH2 0x170F JUMP JUMPDEST DUP2 EQ PUSH2 0x172D JUMPI PUSH0 PUSH0 REVERT JUMPDEST POP JUMP JUMPDEST PUSH0 DUP2 MLOAD SWAP1 POP PUSH2 0x173E DUP2 PUSH2 0x171A JUMP JUMPDEST SWAP3 SWAP2 POP POP JUMP JUMPDEST PUSH0 PUSH1 0x20 DUP3 DUP5 SUB SLT ISZERO PUSH2 0x1759 JUMPI PUSH2 0x1758 PUSH2 0x136B JUMP JUMPDEST JUMPDEST PUSH0 PUSH2 0x1766 DUP5 DUP3 DUP6 ADD PUSH2 0x1730 JUMP JUMPDEST SWAP2 POP POP SWAP3 SWAP2 POP POP JUMP JUMPDEST PUSH32 0x556E61626C6520746F207472616E736665720000000000000000000000000000 PUSH0 DUP3 ADD MSTORE POP JUMP JUMPDEST PUSH0 PUSH2 0x17A3 PUSH1 0x12 DUP4 PUSH2 0x153B JUMP JUMPDEST SWAP2 POP PUSH2 0x17AE DUP3 PUSH2 0x176F JUMP JUMPDEST PUSH1 0x20 DUP3 ADD SWAP1 POP SWAP2 SWAP1 POP JUMP JUMPDEST PUSH0 PUSH1 0x20 DUP3 ADD SWAP1 POP DUP2 DUP2 SUB PUSH0 DUP4 ADD MSTORE PUSH2 0x17D0 DUP2 PUSH2 0x1797 JUMP JUMPDEST SWAP1 POP SWAP2 SWAP1 POP JUMP JUMPDEST PUSH32 0x4F6E6C792063616C6C61626C65206279206F776E657200000000000000000000 PUSH0 DUP3 ADD MSTORE POP JUMP JUMPDEST PUSH0 PUSH2 0x180B PUSH1 0x16 DUP4 PUSH2 0x153B JUMP JUMPDEST SWAP2 POP PUSH2 0x1816 DUP3 PUSH2 0x17D7 JUMP JUMPDEST PUSH1 0x20 DUP3 ADD SWAP1 POP SWAP2 SWAP1 POP JUMP JUMPDEST PUSH0 PUSH1 0x20 DUP3 ADD SWAP1 POP DUP2 DUP2 SUB PUSH0 DUP4 ADD MSTORE PUSH2 0x1838 DUP2 PUSH2 0x17FF JUMP JUMPDEST SWAP1 POP SWAP2 SWAP1 POP JUMP JUMPDEST PUSH32 0x43616E6E6F74207472616E7366657220746F2073656C66000000000000000000 PUSH0 DUP3 ADD MSTORE POP JUMP JUMPDEST PUSH0 PUSH2 0x1873 PUSH1 0x17 DUP4 PUSH2 0x153B JUMP JUMPDEST SWAP2 POP PUSH2 0x187E DUP3 PUSH2 0x183F JUMP JUMPDEST PUSH1 0x20 DUP3 ADD SWAP1 POP SWAP2 SWAP1 POP JUMP JUMPDEST PUSH0 PUSH1 0x20 DUP3 ADD SWAP1 POP DUP2 DUP2 SUB PUSH0 DUP4 ADD MSTORE PUSH2 0x18A0 DUP2 PUSH2 0x1867 JUMP JUMPDEST SWAP1 POP SWAP2 SWAP1 POP JUMP JUMPDEST PUSH0 DUP2 SWAP1 POP SWAP2 SWAP1 POP JUMP JUMPDEST PUSH32 0x4E487B7100000000000000000000000000000000000000000000000000000000 PUSH0 MSTORE PUSH1 0x11 PUSH1 0x4 MSTORE PUSH1 0x24 PUSH0 REVERT JUMPDEST PUSH0 PUSH2 0x18E7 DUP3 PUSH2 0x18A7 JUMP JUMPDEST SWAP2 POP PUSH2 0x18F2 DUP4 PUSH2 0x18A7 JUMP JUMPDEST SWAP3 POP DUP3 DUP3 SUB SWAP1 POP DUP2 DUP2 SLT PUSH0 DUP5 SLT AND DUP3 DUP3 SGT PUSH0 DUP6 SLT ISZERO AND OR ISZERO PUSH2 0x1917 JUMPI PUSH2 0x1916 PUSH2 0x18B0 JUMP JUMPDEST JUMPDEST SWAP3 SWAP2 POP POP JUMP JUMPDEST PUSH0 PUSH2 0x1927 DUP3 PUSH2 0x136F JUMP JUMPDEST SWAP2 POP PUSH2 0x1932 DUP4 PUSH2 0x136F JUMP JUMPDEST SWAP3 POP DUP3 DUP3 ADD SWAP1 POP DUP1 DUP3 GT ISZERO PUSH2 0x194A JUMPI PUSH2 0x1949 PUSH2 0x18B0 JUMP JUMPDEST JUMPDEST SWAP3 SWAP2 POP POP JUMP JUMPDEST PUSH0 PUSH32 0xFFFFFFFF00000000000000000000000000000000000000000000000000000000 DUP3 AND SWAP1 POP SWAP2 SWAP1 POP JUMP JUMPDEST PUSH2 0x1984 DUP2 PUSH2 0x1950 JUMP JUMPDEST DUP3 MSTORE POP POP JUMP JUMPDEST PUSH0 DUP2 MLOAD SWAP1 POP SWAP2 SWAP1 POP JUMP JUMPDEST PUSH0 DUP3 DUP3 MSTORE PUSH1 0x20 DUP3 ADD SWAP1 POP SWAP3 SWAP2 POP POP JUMP JUMPDEST DUP3 DUP2 DUP4 MCOPY PUSH0 DUP4 DUP4 ADD MSTORE POP POP POP JUMP JUMPDEST PUSH0 PUSH1 0x1F NOT PUSH1 0x1F DUP4 ADD AND SWAP1 POP SWAP2 SWAP1 POP JUMP JUMPDEST PUSH0 PUSH2 0x19CC DUP3 PUSH2 0x198A JUMP JUMPDEST PUSH2 0x19D6 DUP2 DUP6 PUSH2 0x1994 JUMP JUMPDEST SWAP4 POP PUSH2 0x19E6 DUP2 DUP6 PUSH1 0x20 DUP7 ADD PUSH2 0x19A4 JUMP JUMPDEST PUSH2 0x19EF DUP2 PUSH2 0x19B2 JUMP JUMPDEST DUP5 ADD SWAP2 POP POP SWAP3 SWAP2 POP POP JUMP JUMPDEST PUSH0 PUSH2 0x100 DUP3 ADD SWAP1 POP PUSH2 0x1A0E PUSH0 DUP4 ADD DUP12 PUSH2 0x1496 JUMP JUMPDEST PUSH2 0x1A1B PUSH1 0x20 DUP4 ADD DUP11 PUSH2 0x14BE JUMP JUMPDEST PUSH2 0x1A28 PUSH1 0x40 DUP4 ADD DUP10 PUSH2 0x13D6 JUMP JUMPDEST PUSH2 0x1A35 PUSH1 0x60 DUP4 ADD DUP9 PUSH2 0x1496 JUMP JUMPDEST PUSH2 0x1A42 PUSH1 0x80 DUP4 ADD DUP8 PUSH2 0x197B JUMP JUMPDEST PUSH2 0x1A4F PUSH1 0xA0 DUP4 ADD DUP7 PUSH2 0x14BE JUMP JUMPDEST PUSH2 0x1A5C PUSH1 0xC0 DUP4 ADD DUP6 PUSH2 0x14BE JUMP JUMPDEST DUP2 DUP2 SUB PUSH1 0xE0 DUP4 ADD MSTORE PUSH2 0x1A6E DUP2 DUP5 PUSH2 0x19C2 JUMP JUMPDEST SWAP1 POP SWAP10 SWAP9 POP POP POP POP POP POP POP POP POP JUMP JUMPDEST PUSH32 0x4E487B7100000000000000000000000000000000000000000000000000000000 PUSH0 MSTORE PUSH1 0x12 PUSH1 0x4 MSTORE PUSH1 0x24 PUSH0 REVERT JUMPDEST PUSH0 PUSH2 0x1AB4 DUP3 PUSH2 0x136F JUMP JUMPDEST SWAP2 POP PUSH2 0x1ABF DUP4 PUSH2 0x136F JUMP JUMPDEST SWAP3 POP DUP3 PUSH2 0x1ACF JUMPI PUSH2 0x1ACE PUSH2 0x1A7D JUMP JUMPDEST JUMPDEST DUP3 DUP3 MOD SWAP1 POP SWAP3 SWAP2 POP POP JUMP JUMPDEST PUSH0 PUSH2 0x1AE4 DUP3 PUSH2 0x136F JUMP JUMPDEST SWAP2 POP PUSH2 0x1AEF DUP4 PUSH2 0x136F JUMP JUMPDEST SWAP3 POP DUP3 DUP3 SUB SWAP1 POP DUP2 DUP2 GT ISZERO PUSH2 0x1B07 JUMPI PUSH2 0x1B06 PUSH2 0x18B0 JUMP JUMPDEST JUMPDEST SWAP3 SWAP2 POP POP JUMP JUMPDEST PUSH0 DUP2 SWAP1 POP SWAP2 SWAP1 POP JUMP JUMPDEST PUSH0 PUSH2 0x1B30 PUSH2 0x1B2B PUSH2 0x1B26 DUP5 PUSH2 0x1466 JUMP JUMPDEST PUSH2 0x1B0D JUMP JUMPDEST PUSH2 0x1466 JUMP JUMPDEST SWAP1 POP SWAP2 SWAP1 POP JUMP JUMPDEST PUSH0 PUSH2 0x1B41 DUP3 PUSH2 0x1B16 JUMP JUMPDEST SWAP1 POP SWAP2 SWAP1 POP JUMP JUMPDEST PUSH0 PUSH2 0x1B52 DUP3 PUSH2 0x1B37 JUMP JUMPDEST SWAP1 POP SWAP2 SWAP1 POP JUMP JUMPDEST PUSH0 DUP2 PUSH1 0x60 SHL SWAP1 POP SWAP2 SWAP1 POP JUMP JUMPDEST PUSH0 PUSH2 0x1B6F DUP3 PUSH2 0x1B59 JUMP JUMPDEST SWAP1 POP SWAP2 SWAP1 POP JUMP JUMPDEST PUSH0 PUSH2 0x1B80 DUP3 PUSH2 0x1B65 JUMP JUMPDEST SWAP1 POP SWAP2 SWAP1 POP JUMP JUMPDEST PUSH2 0x1B98 PUSH2 0x1B93 DUP3 PUSH2 0x1B48 JUMP JUMPDEST PUSH2 0x1B76 JUMP JUMPDEST DUP3 MSTORE POP POP JUMP JUMPDEST PUSH0 DUP2 SWAP1 POP SWAP2 SWAP1 POP JUMP JUMPDEST PUSH2 0x1BB8 PUSH2 0x1BB3 DUP3 PUSH2 0x136F JUMP JUMPDEST PUSH2 0x1B9E JUMP JUMPDEST DUP3 MSTORE POP POP JUMP JUMPDEST PUSH0 PUSH2 0x1BC9 DUP3 DUP6 PUSH2 0x1B87 JUMP JUMPDEST PUSH1 0x14 DUP3 ADD SWAP2 POP PUSH2 0x1BD9 DUP3 DUP5 PUSH2 0x1BA7 JUMP JUMPDEST PUSH1 0x20 DUP3 ADD SWAP2 POP DUP2 SWAP1 POP SWAP4 SWAP3 POP POP POP JUMP JUMPDEST PUSH0 PUSH1 0x60 DUP3 ADD SWAP1 POP PUSH2 0x1BFC PUSH0 DUP4 ADD DUP7 PUSH2 0x1496 JUMP JUMPDEST PUSH2 0x1C09 PUSH1 0x20 DUP4 ADD DUP6 PUSH2 0x14BE JUMP JUMPDEST DUP2 DUP2 SUB PUSH1 0x40 DUP4 ADD MSTORE PUSH2 0x1C1B DUP2 DUP5 PUSH2 0x19C2 JUMP JUMPDEST SWAP1 POP SWAP5 SWAP4 POP POP POP POP JUMP JUMPDEST PUSH32 0x756E61626C6520746F207472616E73666572416E6443616C6C20746F206F7261 PUSH0 DUP3 ADD MSTORE PUSH32 0x636C650000000000000000000000000000000000000000000000000000000000 PUSH1 0x20 DUP3 ADD MSTORE POP JUMP JUMPDEST PUSH0 PUSH2 0x1C7F PUSH1 0x23 DUP4 PUSH2 0x153B JUMP JUMPDEST SWAP2 POP PUSH2 0x1C8A DUP3 PUSH2 0x1C25 JUMP JUMPDEST PUSH1 0x40 DUP3 ADD SWAP1 POP SWAP2 SWAP1 POP JUMP JUMPDEST PUSH0 PUSH1 0x20 DUP3 ADD SWAP1 POP DUP2 DUP2 SUB PUSH0 DUP4 ADD MSTORE PUSH2 0x1CAC DUP2 PUSH2 0x1C73 JUMP JUMPDEST SWAP1 POP SWAP2 SWAP1 POP JUMP JUMPDEST PUSH0 PUSH2 0x1CBD DUP3 PUSH2 0x136F JUMP JUMPDEST SWAP2 POP PUSH2 0x1CC8 DUP4 PUSH2 0x136F JUMP JUMPDEST SWAP3 POP DUP3 DUP3 MUL PUSH2 0x1CD6 DUP2 PUSH2 0x136F JUMP JUMPDEST SWAP2 POP DUP3 DUP3 DIV DUP5 EQ DUP4 ISZERO OR PUSH2 0x1CED JUMPI PUSH2 0x1CEC PUSH2 0x18B0 JUMP JUMPDEST JUMPDEST POP SWAP3 SWAP2 POP POP JUMP JUMPDEST PUSH0 DUP2 PUSH1 0x1 SHR SWAP1 POP SWAP2 SWAP1 POP JUMP JUMPDEST PUSH0 PUSH0 DUP3 SWAP2 POP DUP4 SWAP1 POP JUMPDEST PUSH1 0x1 DUP6 GT ISZERO PUSH2 0x1D49 JUMPI DUP1 DUP7 DIV DUP2 GT ISZERO PUSH2 0x1D25 JUMPI PUSH2 0x1D24 PUSH2 0x18B0 JUMP JUMPDEST JUMPDEST PUSH1 0x1 DUP6 AND ISZERO PUSH2 0x1D34 JUMPI DUP1 DUP3 MUL SWAP2 POP JUMPDEST DUP1 DUP2 MUL SWAP1 POP PUSH2 0x1D42 DUP6 PUSH2 0x1CF4 JUMP JUMPDEST SWAP5 POP PUSH2 0x1D09 JUMP JUMPDEST SWAP5 POP SWAP5 SWAP3 POP POP POP JUMP JUMPDEST PUSH0 DUP3 PUSH2 0x1D61 JUMPI PUSH1 0x1 SWAP1 POP PUSH2 0x1E1C JUMP JUMPDEST DUP2 PUSH2 0x1D6E JUMPI PUSH0 SWAP1 POP PUSH2 0x1E1C JUMP JUMPDEST DUP2 PUSH1 0x1 DUP2 EQ PUSH2 0x1D84 JUMPI PUSH1 0x2 DUP2 EQ PUSH2 0x1D8E JUMPI PUSH2 0x1DBD JUMP JUMPDEST PUSH1 0x1 SWAP2 POP POP PUSH2 0x1E1C JUMP JUMPDEST PUSH1 0xFF DUP5 GT ISZERO PUSH2 0x1DA0 JUMPI PUSH2 0x1D9F PUSH2 0x18B0 JUMP JUMPDEST JUMPDEST DUP4 PUSH1 0x2 EXP SWAP2 POP DUP5 DUP3 GT ISZERO PUSH2 0x1DB7 JUMPI PUSH2 0x1DB6 PUSH2 0x18B0 JUMP JUMPDEST JUMPDEST POP PUSH2 0x1E1C JUMP JUMPDEST POP PUSH1 0x20 DUP4 LT PUSH2 0x133 DUP4 LT AND PUSH1 0x4E DUP5 LT PUSH1 0xB DUP5 LT AND OR ISZERO PUSH2 0x1DF2 JUMPI DUP3 DUP3 EXP SWAP1 POP DUP4 DUP2 GT ISZERO PUSH2 0x1DED JUMPI PUSH2 0x1DEC PUSH2 0x18B0 JUMP JUMPDEST JUMPDEST PUSH2 0x1E1C JUMP JUMPDEST PUSH2 0x1DFF DUP5 DUP5 DUP5 PUSH1 0x1 PUSH2 0x1D00 JUMP JUMPDEST SWAP3 POP SWAP1 POP DUP2 DUP5 DIV DUP2 GT ISZERO PUSH2 0x1E16 JUMPI PUSH2 0x1E15 PUSH2 0x18B0 JUMP JUMPDEST JUMPDEST DUP2 DUP2 MUL SWAP1 POP JUMPDEST SWAP4 SWAP3 POP POP POP JUMP JUMPDEST PUSH0 PUSH2 0x1E2D DUP3 PUSH2 0x136F JUMP JUMPDEST SWAP2 POP PUSH2 0x1E38 DUP4 PUSH2 0x136F JUMP JUMPDEST SWAP3 POP PUSH2 0x1E65 PUSH32 0xFFFFFFFFFFFFFFFFFFFFFFFFFFFFFFFFFFFFFFFFFFFFFFFFFFFFFFFFFFFFFFFF DUP5 DUP5 PUSH2 0x1D52 JUMP JUMPDEST SWAP1 POP SWAP3 SWAP2 POP POP JUMP INVALID PUSH9 0x747470733A2F2F3038 CALLDATALOAD CALLER 0x2D BALANCE CALLVALUE 0x2D ORIGIN ADDRESS ADDRESS 0x2D CALLDATACOPY CALLDATALOAD 0x2D CALLDATALOAD CALLVALUE 0x2E PUSH15 0x67726F6B2D667265652E6170702F64 PUSH2 0x7461 LOG2 PUSH5 0x6970667358 0x22 SLT KECCAK256 0xE8 PUSH10 0xFA49E5E29F49C12CBC00 0xB3 0xC0 0xD4 PUSH12 0xC3D0E83ADCFA4D7EA2991F70 0xB4 DUP6 TIMESTAMP SSTORE PUSH5 0x736F6C6343 STOP ADDMOD SAR STOP CALLER "
				},
				"gasEstimates": {
					"creation": {
						"codeDepositCost": "1577600",
						"executionCost": "infinite",
						"totalCost": "infinite"
					},
					"external": {
						"acceptOwnership()": "54578",
						"fulfill(bytes32,uint256)": "infinite",
						"owner()": "2515",
						"requestData(uint256)": "infinite",
						"transferOwnership(address)": "30717",
						"volume()": "2469",
						"withdrawLink()": "infinite"
					}
				},
				"methodIdentifiers": {
					"acceptOwnership()": "79ba5097",
					"fulfill(bytes32,uint256)": "4357855e",
					"owner()": "8da5cb5b",
					"requestData(uint256)": "2adb9e3c",
					"transferOwnership(address)": "f2fde38b",
					"volume()": "c618a1e4",
					"withdrawLink()": "8dc654a2"
				}
			},
			"storageLayout": {
				"storage": [
					{
						"astId": 325,
						"contract": "Carbon-Credits-Verification-with-Blockchain-main/contracts/chainlinkOracle.sol:APIConsumer",
						"label": "s_ens",
						"offset": 0,
						"slot": "0",
						"type": "t_contract(ENSInterface)982"
					},
					{
						"astId": 327,
						"contract": "Carbon-Credits-Verification-with-Blockchain-main/contracts/chainlinkOracle.sol:APIConsumer",
						"label": "s_ensNode",
						"offset": 0,
						"slot": "1",
						"type": "t_bytes32"
					},
					{
						"astId": 330,
						"contract": "Carbon-Credits-Verification-with-Blockchain-main/contracts/chainlinkOracle.sol:APIConsumer",
						"label": "s_link",
						"offset": 0,
						"slot": "2",
						"type": "t_contract(LinkTokenInterface)1382"
					},
					{
						"astId": 333,
						"contract": "Carbon-Credits-Verification-with-Blockchain-main/contracts/chainlinkOracle.sol:APIConsumer",
						"label": "s_oracle",
						"offset": 0,
						"slot": "3",
						"type": "t_contract(OperatorInterface)1047"
					},
					{
						"astId": 336,
						"contract": "Carbon-Credits-Verification-with-Blockchain-main/contracts/chainlinkOracle.sol:APIConsumer",
						"label": "s_requestCount",
						"offset": 0,
						"slot": "4",
						"type": "t_uint256"
					},
					{
						"astId": 340,
						"contract": "Carbon-Credits-Verification-with-Blockchain-main/contracts/chainlinkOracle.sol:APIConsumer",
						"label": "s_pendingRequests",
						"offset": 0,
						"slot": "5",
						"type": "t_mapping(t_bytes32,t_address)"
					},
					{
						"astId": 1117,
						"contract": "Carbon-Credits-Verification-with-Blockchain-main/contracts/chainlinkOracle.sol:APIConsumer",
						"label": "s_owner",
						"offset": 0,
						"slot": "6",
						"type": "t_address"
					},
					{
						"astId": 1119,
						"contract": "Carbon-Credits-Verification-with-Blockchain-main/contracts/chainlinkOracle.sol:APIConsumer",
						"label": "s_pendingOwner",
						"offset": 0,
						"slot": "7",
						"type": "t_address"
					},
					{
						"astId": 2376,
						"contract": "Carbon-Credits-Verification-with-Blockchain-main/contracts/chainlinkOracle.sol:APIConsumer",
						"label": "volume",
						"offset": 0,
						"slot": "8",
						"type": "t_uint256"
					},
					{
						"astId": 2378,
						"contract": "Carbon-Credits-Verification-with-Blockchain-main/contracts/chainlinkOracle.sol:APIConsumer",
						"label": "jobId",
						"offset": 0,
						"slot": "9",
						"type": "t_bytes32"
					},
					{
						"astId": 2380,
						"contract": "Carbon-Credits-Verification-with-Blockchain-main/contracts/chainlinkOracle.sol:APIConsumer",
						"label": "fee",
						"offset": 0,
						"slot": "10",
						"type": "t_uint256"
					}
				],
				"types": {
					"t_address": {
						"encoding": "inplace",
						"label": "address",
						"numberOfBytes": "20"
					},
					"t_bytes32": {
						"encoding": "inplace",
						"label": "bytes32",
						"numberOfBytes": "32"
					},
					"t_contract(ENSInterface)982": {
						"encoding": "inplace",
						"label": "contract ENSInterface",
						"numberOfBytes": "20"
					},
					"t_contract(LinkTokenInterface)1382": {
						"encoding": "inplace",
						"label": "contract LinkTokenInterface",
						"numberOfBytes": "20"
					},
					"t_contract(OperatorInterface)1047": {
						"encoding": "inplace",
						"label": "contract OperatorInterface",
						"numberOfBytes": "20"
					},
					"t_mapping(t_bytes32,t_address)": {
						"encoding": "mapping",
						"key": "t_bytes32",
						"label": "mapping(bytes32 => address)",
						"numberOfBytes": "32",
						"value": "t_address"
					},
					"t_uint256": {
						"encoding": "inplace",
						"label": "uint256",
						"numberOfBytes": "32"
					}
				}
			},
			"userdoc": {
				"kind": "user",
				"methods": {
					"acceptOwnership()": {
						"notice": "Allows an ownership transfer to be completed by the recipient."
					},
					"owner()": {
						"notice": "Get the current owner"
					},
					"transferOwnership(address)": {
						"notice": "Allows an owner to begin transferring ownership to a new address."
					}
				},
				"version": 1
			}
		}
	}
}