{
	"@chainlink/contracts/src/v0.8/mocks/VRFCoordinatorV2Mock.sol": {
		"VRFCoordinatorV2Mock": {
			"abi": [
				{
					"inputs": [
						{
							"internalType": "uint96",
							"name": "_baseFee",
							"type": "uint96"
						},
						{
							"internalType": "uint96",
							"name": "_gasPriceLink",
							"type": "uint96"
						}
					],
					"stateMutability": "nonpayable",
					"type": "constructor"
				},
				{
					"inputs": [],
					"name": "InsufficientBalance",
					"type": "error"
				},
				{
					"inputs": [],
					"name": "InvalidConsumer",
					"type": "error"
				},
				{
					"inputs": [],
					"name": "InvalidRandomWords",
					"type": "error"
				},
				{
					"inputs": [],
					"name": "InvalidSubscription",
					"type": "error"
				},
				{
					"inputs": [
						{
							"internalType": "address",
							"name": "owner",
							"type": "address"
						}
					],
					"name": "MustBeSubOwner",
					"type": "error"
				},
				{
					"inputs": [],
					"name": "TooManyConsumers",
					"type": "error"
				},
				{
					"anonymous": false,
					"inputs": [
						{
							"indexed": true,
							"internalType": "uint64",
							"name": "subId",
							"type": "uint64"
						},
						{
							"indexed": false,
							"internalType": "address",
							"name": "consumer",
							"type": "address"
						}
					],
					"name": "ConsumerAdded",
					"type": "event"
				},
				{
					"anonymous": false,
					"inputs": [
						{
							"indexed": true,
							"internalType": "uint64",
							"name": "subId",
							"type": "uint64"
						},
						{
							"indexed": false,
							"internalType": "address",
							"name": "consumer",
							"type": "address"
						}
					],
					"name": "ConsumerRemoved",
					"type": "event"
				},
				{
					"anonymous": false,
					"inputs": [
						{
							"indexed": true,
							"internalType": "uint256",
							"name": "requestId",
							"type": "uint256"
						},
						{
							"indexed": false,
							"internalType": "uint256",
							"name": "outputSeed",
							"type": "uint256"
						},
						{
							"indexed": false,
							"internalType": "uint96",
							"name": "payment",
							"type": "uint96"
						},
						{
							"indexed": false,
							"internalType": "bool",
							"name": "success",
							"type": "bool"
						}
					],
					"name": "RandomWordsFulfilled",
					"type": "event"
				},
				{
					"anonymous": false,
					"inputs": [
						{
							"indexed": true,
							"internalType": "bytes32",
							"name": "keyHash",
							"type": "bytes32"
						},
						{
							"indexed": false,
							"internalType": "uint256",
							"name": "requestId",
							"type": "uint256"
						},
						{
							"indexed": false,
							"internalType": "uint256",
							"name": "preSeed",
							"type": "uint256"
						},
						{
							"indexed": true,
							"internalType": "uint64",
							"name": "subId",
							"type": "uint64"
						},
						{
							"indexed": false,
							"internalType": "uint16",
							"name": "minimumRequestConfirmations",
							"type": "uint16"
						},
						{
							"indexed": false,
							"internalType": "uint32",
							"name": "callbackGasLimit",
							"type": "uint32"
						},
						{
							"indexed": false,
							"internalType": "uint32",
							"name": "numWords",
							"type": "uint32"
						},
						{
							"indexed": true,
							"internalType": "address",
							"name": "sender",
							"type": "address"
						}
					],
					"name": "RandomWordsRequested",
					"type": "event"
				},
				{
					"anonymous": false,
					"inputs": [
						{
							"indexed": true,
							"internalType": "uint64",
							"name": "subId",
							"type": "uint64"
						},
						{
							"indexed": false,
							"internalType": "address",
							"name": "to",
							"type": "address"
						},
						{
							"indexed": false,
							"internalType": "uint256",
							"name": "amount",
							"type": "uint256"
						}
					],
					"name": "SubscriptionCanceled",
					"type": "event"
				},
				{
					"anonymous": false,
					"inputs": [
						{
							"indexed": true,
							"internalType": "uint64",
							"name": "subId",
							"type": "uint64"
						},
						{
							"indexed": false,
							"internalType": "address",
							"name": "owner",
							"type": "address"
						}
					],
					"name": "SubscriptionCreated",
					"type": "event"
				},
				{
					"anonymous": false,
					"inputs": [
						{
							"indexed": true,
							"internalType": "uint64",
							"name": "subId",
							"type": "uint64"
						},
						{
							"indexed": false,
							"internalType": "uint256",
							"name": "oldBalance",
							"type": "uint256"
						},
						{
							"indexed": false,
							"internalType": "uint256",
							"name": "newBalance",
							"type": "uint256"
						}
					],
					"name": "SubscriptionFunded",
					"type": "event"
				},
				{
					"inputs": [],
					"name": "BASE_FEE",
					"outputs": [
						{
							"internalType": "uint96",
							"name": "",
							"type": "uint96"
						}
					],
					"stateMutability": "view",
					"type": "function"
				},
				{
					"inputs": [],
					"name": "GAS_PRICE_LINK",
					"outputs": [
						{
							"internalType": "uint96",
							"name": "",
							"type": "uint96"
						}
					],
					"stateMutability": "view",
					"type": "function"
				},
				{
					"inputs": [],
					"name": "MAX_CONSUMERS",
					"outputs": [
						{
							"internalType": "uint16",
							"name": "",
							"type": "uint16"
						}
					],
					"stateMutability": "view",
					"type": "function"
				},
				{
					"inputs": [
						{
							"internalType": "uint64",
							"name": "_subId",
							"type": "uint64"
						}
					],
					"name": "acceptSubscriptionOwnerTransfer",
					"outputs": [],
					"stateMutability": "pure",
					"type": "function"
				},
				{
					"inputs": [
						{
							"internalType": "uint64",
							"name": "_subId",
							"type": "uint64"
						},
						{
							"internalType": "address",
							"name": "_consumer",
							"type": "address"
						}
					],
					"name": "addConsumer",
					"outputs": [],
					"stateMutability": "nonpayable",
					"type": "function"
				},
				{
					"inputs": [
						{
							"internalType": "uint64",
							"name": "_subId",
							"type": "uint64"
						},
						{
							"internalType": "address",
							"name": "_to",
							"type": "address"
						}
					],
					"name": "cancelSubscription",
					"outputs": [],
					"stateMutability": "nonpayable",
					"type": "function"
				},
				{
					"inputs": [
						{
							"internalType": "uint64",
							"name": "_subId",
							"type": "uint64"
						},
						{
							"internalType": "address",
							"name": "_consumer",
							"type": "address"
						}
					],
					"name": "consumerIsAdded",
					"outputs": [
						{
							"internalType": "bool",
							"name": "",
							"type": "bool"
						}
					],
					"stateMutability": "view",
					"type": "function"
				},
				{
					"inputs": [],
					"name": "createSubscription",
					"outputs": [
						{
							"internalType": "uint64",
							"name": "_subId",
							"type": "uint64"
						}
					],
					"stateMutability": "nonpayable",
					"type": "function"
				},
				{
					"inputs": [
						{
							"internalType": "uint256",
							"name": "_requestId",
							"type": "uint256"
						},
						{
							"internalType": "address",
							"name": "_consumer",
							"type": "address"
						}
					],
					"name": "fulfillRandomWords",
					"outputs": [],
					"stateMutability": "nonpayable",
					"type": "function"
				},
				{
					"inputs": [
						{
							"internalType": "uint256",
							"name": "_requestId",
							"type": "uint256"
						},
						{
							"internalType": "address",
							"name": "_consumer",
							"type": "address"
						},
						{
							"internalType": "uint256[]",
							"name": "_words",
							"type": "uint256[]"
						}
					],
					"name": "fulfillRandomWordsWithOverride",
					"outputs": [],
					"stateMutability": "nonpayable",
					"type": "function"
				},
				{
					"inputs": [
						{
							"internalType": "uint64",
							"name": "_subId",
							"type": "uint64"
						},
						{
							"internalType": "uint96",
							"name": "_amount",
							"type": "uint96"
						}
					],
					"name": "fundSubscription",
					"outputs": [],
					"stateMutability": "nonpayable",
					"type": "function"
				},
				{
					"inputs": [],
					"name": "getConfig",
					"outputs": [
						{
							"internalType": "uint16",
							"name": "minimumRequestConfirmations",
							"type": "uint16"
						},
						{
							"internalType": "uint32",
							"name": "maxGasLimit",
							"type": "uint32"
						},
						{
							"internalType": "uint32",
							"name": "stalenessSeconds",
							"type": "uint32"
						},
						{
							"internalType": "uint32",
							"name": "gasAfterPaymentCalculation",
							"type": "uint32"
						}
					],
					"stateMutability": "view",
					"type": "function"
				},
				{
					"inputs": [],
					"name": "getFallbackWeiPerUnitLink",
					"outputs": [
						{
							"internalType": "int256",
							"name": "",
							"type": "int256"
						}
					],
					"stateMutability": "view",
					"type": "function"
				},
				{
					"inputs": [],
					"name": "getFeeConfig",
					"outputs": [
						{
							"internalType": "uint32",
							"name": "fulfillmentFlatFeeLinkPPMTier1",
							"type": "uint32"
						},
						{
							"internalType": "uint32",
							"name": "fulfillmentFlatFeeLinkPPMTier2",
							"type": "uint32"
						},
						{
							"internalType": "uint32",
							"name": "fulfillmentFlatFeeLinkPPMTier3",
							"type": "uint32"
						},
						{
							"internalType": "uint32",
							"name": "fulfillmentFlatFeeLinkPPMTier4",
							"type": "uint32"
						},
						{
							"internalType": "uint32",
							"name": "fulfillmentFlatFeeLinkPPMTier5",
							"type": "uint32"
						},
						{
							"internalType": "uint24",
							"name": "reqsForTier2",
							"type": "uint24"
						},
						{
							"internalType": "uint24",
							"name": "reqsForTier3",
							"type": "uint24"
						},
						{
							"internalType": "uint24",
							"name": "reqsForTier4",
							"type": "uint24"
						},
						{
							"internalType": "uint24",
							"name": "reqsForTier5",
							"type": "uint24"
						}
					],
					"stateMutability": "view",
					"type": "function"
				},
				{
					"inputs": [],
					"name": "getRequestConfig",
					"outputs": [
						{
							"internalType": "uint16",
							"name": "",
							"type": "uint16"
						},
						{
							"internalType": "uint32",
							"name": "",
							"type": "uint32"
						},
						{
							"internalType": "bytes32[]",
							"name": "",
							"type": "bytes32[]"
						}
					],
					"stateMutability": "pure",
					"type": "function"
				},
				{
					"inputs": [
						{
							"internalType": "uint64",
							"name": "_subId",
							"type": "uint64"
						}
					],
					"name": "getSubscription",
					"outputs": [
						{
							"internalType": "uint96",
							"name": "balance",
							"type": "uint96"
						},
						{
							"internalType": "uint64",
							"name": "reqCount",
							"type": "uint64"
						},
						{
							"internalType": "address",
							"name": "owner",
							"type": "address"
						},
						{
							"internalType": "address[]",
							"name": "consumers",
							"type": "address[]"
						}
					],
					"stateMutability": "view",
					"type": "function"
				},
				{
					"inputs": [
						{
							"internalType": "uint64",
							"name": "subId",
							"type": "uint64"
						}
					],
					"name": "pendingRequestExists",
					"outputs": [
						{
							"internalType": "bool",
							"name": "",
							"type": "bool"
						}
					],
					"stateMutability": "view",
					"type": "function"
				},
				{
					"inputs": [
						{
							"internalType": "uint64",
							"name": "_subId",
							"type": "uint64"
						},
						{
							"internalType": "address",
							"name": "_consumer",
							"type": "address"
						}
					],
					"name": "removeConsumer",
					"outputs": [],
					"stateMutability": "nonpayable",
					"type": "function"
				},
				{
					"inputs": [
						{
							"internalType": "bytes32",
							"name": "_keyHash",
							"type": "bytes32"
						},
						{
							"internalType": "uint64",
							"name": "_subId",
							"type": "uint64"
						},
						{
							"internalType": "uint16",
							"name": "_minimumRequestConfirmations",
							"type": "uint16"
						},
						{
							"internalType": "uint32",
							"name": "_callbackGasLimit",
							"type": "uint32"
						},
						{
							"internalType": "uint32",
							"name": "_numWords",
							"type": "uint32"
						}
					],
					"name": "requestRandomWords",
					"outputs": [
						{
							"internalType": "uint256",
							"name": "",
							"type": "uint256"
						}
					],
					"stateMutability": "nonpayable",
					"type": "function"
				},
				{
					"inputs": [
						{
							"internalType": "uint64",
							"name": "_subId",
							"type": "uint64"
						},
						{
							"internalType": "address",
							"name": "_newOwner",
							"type": "address"
						}
					],
					"name": "requestSubscriptionOwnerTransfer",
					"outputs": [],
					"stateMutability": "pure",
					"type": "function"
				}
			],
			"devdoc": {
				"kind": "dev",
				"methods": {
					"createSubscription()": {
						"details": "You can manage the consumer set dynamically with addConsumer/removeConsumer.Note to fund the subscription, use transferAndCall. For exampleLINKTOKEN.transferAndCall(address(COORDINATOR),amount,abi.encode(subId));",
						"returns": {
							"_subId": "- A unique subscription id."
						}
					},
					"fulfillRandomWords(uint256,address)": {
						"details": "This mock uses a simplified formula for calculating payment amount and gas usage, and doesnot account for all edge cases handled in the real VRF coordinator. When making requestsagainst the real coordinator a small amount of additional LINK is required.",
						"params": {
							"_consumer": "the VRF randomness consumer to send the result to",
							"_requestId": "the request to fulfill"
						}
					},
					"fulfillRandomWordsWithOverride(uint256,address,uint256[])": {
						"params": {
							"_consumer": "the VRF randomness consumer to send the result to",
							"_requestId": "the request to fulfill",
							"_words": "user-provided random words"
						}
					},
					"fundSubscription(uint64,uint96)": {
						"params": {
							"_amount": "the amount to fund",
							"_subId": "the subscription to fund"
						}
					},
					"getRequestConfig()": {
						"returns": {
							"_0": "minimumRequestConfirmations global min for request confirmations",
							"_1": "maxGasLimit global max for request gas limit",
							"_2": "s_provingKeyHashes list of registered key hashes"
						}
					}
				},
				"version": 1
			},
			"evm": {
				"assembly": "    /* \"@chainlink/contracts/src/v0.8/mocks/VRFCoordinatorV2Mock.sol\":254:9361  contract VRFCoordinatorV2Mock is VRFCoordinatorV2Interface {... */\n  mstore(0x40, 0xe0)\n    /* \"@chainlink/contracts/src/v0.8/mocks/VRFCoordinatorV2Mock.sol\":435:438  100 */\n  0x64\n    /* \"@chainlink/contracts/src/v0.8/mocks/VRFCoordinatorV2Mock.sol\":395:438  uint16 public immutable MAX_CONSUMERS = 100 */\n  0xffff\n  and\n  0xc0\n  swap1\n  0xffff\n  and\n  dup2\n  mstore\n  pop\n    /* \"@chainlink/contracts/src/v0.8/mocks/VRFCoordinatorV2Mock.sol\":1404:1405  1 */\n  0x01\n    /* \"@chainlink/contracts/src/v0.8/mocks/VRFCoordinatorV2Mock.sol\":1378:1405  uint256 s_nextRequestId = 1 */\n  dup1\n  sstore\n    /* \"@chainlink/contracts/src/v0.8/mocks/VRFCoordinatorV2Mock.sol\":1433:1436  100 */\n  0x64\n    /* \"@chainlink/contracts/src/v0.8/mocks/VRFCoordinatorV2Mock.sol\":1409:1436  uint256 s_nextPreSeed = 100 */\n  0x02\n  sstore\n    /* \"@chainlink/contracts/src/v0.8/mocks/VRFCoordinatorV2Mock.sol\":1826:1943  constructor(uint96 _baseFee, uint96 _gasPriceLink) {... */\n  callvalue\n  dup1\n  iszero\n  tag_1\n  jumpi\n  0x00\n  dup1\n  revert\ntag_1:\n  pop\n  mload(0x40)\n  sub(codesize, bytecodeSize)\n  dup1\n  bytecodeSize\n  dup4\n  codecopy\n  dup2\n  dup2\n  add\n  0x40\n  mstore\n  dup2\n  add\n  swap1\n  tag_2\n  swap2\n  swap1\n  tag_3\n  jump\t// in\ntag_2:\n    /* \"@chainlink/contracts/src/v0.8/mocks/VRFCoordinatorV2Mock.sol\":1894:1902  _baseFee */\n  dup2\n    /* \"@chainlink/contracts/src/v0.8/mocks/VRFCoordinatorV2Mock.sol\":1883:1902  BASE_FEE = _baseFee */\n  0xffffffffffffffffffffffff\n  and\n  0x80\n  dup2\n  0xffffffffffffffffffffffff\n  and\n  dup2\n  mstore\n  pop\n  pop\n    /* \"@chainlink/contracts/src/v0.8/mocks/VRFCoordinatorV2Mock.sol\":1925:1938  _gasPriceLink */\n  dup1\n    /* \"@chainlink/contracts/src/v0.8/mocks/VRFCoordinatorV2Mock.sol\":1908:1938  GAS_PRICE_LINK = _gasPriceLink */\n  0xffffffffffffffffffffffff\n  and\n  0xa0\n  dup2\n  0xffffffffffffffffffffffff\n  and\n  dup2\n  mstore\n  pop\n  pop\n    /* \"@chainlink/contracts/src/v0.8/mocks/VRFCoordinatorV2Mock.sol\":1826:1943  constructor(uint96 _baseFee, uint96 _gasPriceLink) {... */\n  pop\n  pop\n    /* \"@chainlink/contracts/src/v0.8/mocks/VRFCoordinatorV2Mock.sol\":254:9361  contract VRFCoordinatorV2Mock is VRFCoordinatorV2Interface {... */\n  jump(tag_6)\n    /* \"#utility.yul\":88:205   */\ntag_8:\n    /* \"#utility.yul\":197:198   */\n  0x00\n    /* \"#utility.yul\":194:195   */\n  dup1\n    /* \"#utility.yul\":187:199   */\n  revert\n    /* \"#utility.yul\":334:443   */\ntag_10:\n    /* \"#utility.yul\":370:377   */\n  0x00\n    /* \"#utility.yul\":410:436   */\n  0xffffffffffffffffffffffff\n    /* \"#utility.yul\":403:408   */\n  dup3\n    /* \"#utility.yul\":399:437   */\n  and\n    /* \"#utility.yul\":388:437   */\n  swap1\n  pop\n    /* \"#utility.yul\":334:443   */\n  swap2\n  swap1\n  pop\n  jump\t// out\n    /* \"#utility.yul\":449:569   */\ntag_11:\n    /* \"#utility.yul\":521:544   */\n  tag_19\n    /* \"#utility.yul\":538:543   */\n  dup2\n    /* \"#utility.yul\":521:544   */\n  tag_10\n  jump\t// in\ntag_19:\n    /* \"#utility.yul\":514:519   */\n  dup2\n    /* \"#utility.yul\":511:545   */\n  eq\n    /* \"#utility.yul\":501:563   */\n  tag_20\n  jumpi\n    /* \"#utility.yul\":559:560   */\n  0x00\n    /* \"#utility.yul\":556:557   */\n  dup1\n    /* \"#utility.yul\":549:561   */\n  revert\n    /* \"#utility.yul\":501:563   */\ntag_20:\n    /* \"#utility.yul\":449:569   */\n  pop\n  jump\t// out\n    /* \"#utility.yul\":575:716   */\ntag_12:\n    /* \"#utility.yul\":631:636   */\n  0x00\n    /* \"#utility.yul\":662:668   */\n  dup2\n    /* \"#utility.yul\":656:669   */\n  mload\n    /* \"#utility.yul\":647:669   */\n  swap1\n  pop\n    /* \"#utility.yul\":678:710   */\n  tag_22\n    /* \"#utility.yul\":704:709   */\n  dup2\n    /* \"#utility.yul\":678:710   */\n  tag_11\n  jump\t// in\ntag_22:\n    /* \"#utility.yul\":575:716   */\n  swap3\n  swap2\n  pop\n  pop\n  jump\t// out\n    /* \"#utility.yul\":722:1225   */\ntag_3:\n    /* \"#utility.yul\":799:805   */\n  0x00\n    /* \"#utility.yul\":807:813   */\n  dup1\n    /* \"#utility.yul\":856:858   */\n  0x40\n    /* \"#utility.yul\":844:853   */\n  dup4\n    /* \"#utility.yul\":835:842   */\n  dup6\n    /* \"#utility.yul\":831:854   */\n  sub\n    /* \"#utility.yul\":827:859   */\n  slt\n    /* \"#utility.yul\":824:943   */\n  iszero\n  tag_24\n  jumpi\n    /* \"#utility.yul\":862:941   */\n  tag_25\n  tag_8\n  jump\t// in\ntag_25:\n    /* \"#utility.yul\":824:943   */\ntag_24:\n    /* \"#utility.yul\":982:983   */\n  0x00\n    /* \"#utility.yul\":1007:1070   */\n  tag_26\n    /* \"#utility.yul\":1062:1069   */\n  dup6\n    /* \"#utility.yul\":1053:1059   */\n  dup3\n    /* \"#utility.yul\":1042:1051   */\n  dup7\n    /* \"#utility.yul\":1038:1060   */\n  add\n    /* \"#utility.yul\":1007:1070   */\n  tag_12\n  jump\t// in\ntag_26:\n    /* \"#utility.yul\":997:1070   */\n  swap3\n  pop\n    /* \"#utility.yul\":953:1080   */\n  pop\n    /* \"#utility.yul\":1119:1121   */\n  0x20\n    /* \"#utility.yul\":1145:1208   */\n  tag_27\n    /* \"#utility.yul\":1200:1207   */\n  dup6\n    /* \"#utility.yul\":1191:1197   */\n  dup3\n    /* \"#utility.yul\":1180:1189   */\n  dup7\n    /* \"#utility.yul\":1176:1198   */\n  add\n    /* \"#utility.yul\":1145:1208   */\n  tag_12\n  jump\t// in\ntag_27:\n    /* \"#utility.yul\":1135:1208   */\n  swap2\n  pop\n    /* \"#utility.yul\":1090:1218   */\n  pop\n    /* \"#utility.yul\":722:1225   */\n  swap3\n  pop\n  swap3\n  swap1\n  pop\n  jump\t// out\n    /* \"@chainlink/contracts/src/v0.8/mocks/VRFCoordinatorV2Mock.sol\":254:9361  contract VRFCoordinatorV2Mock is VRFCoordinatorV2Interface {... */\ntag_6:\n  mload(0x80)\n  mload(0xa0)\n  mload(0xc0)\n  codecopy(0x00, dataOffset(sub_0), dataSize(sub_0))\n  0x00\n  assignImmutable(\"0x4b4b9efaff899efa2095e6e12f4c7ffa5d130c6cf88a562d7f7bbc11486ed4fb\")\n  0x00\n  assignImmutable(\"0x88a32c6dd03906ed0b4cd657b3c8f0eead37f709d7c7adabd129c27e0b9dbe0c\")\n  0x00\n  assignImmutable(\"0x745789b92be07c687207fcaa646243fe1826e3e7b5b33f386ac4f1c64a8b009a\")\n  return(0x00, dataSize(sub_0))\nstop\n\nsub_0: assembly {\n        /* \"@chainlink/contracts/src/v0.8/mocks/VRFCoordinatorV2Mock.sol\":254:9361  contract VRFCoordinatorV2Mock is VRFCoordinatorV2Interface {... */\n      mstore(0x40, 0x80)\n      callvalue\n      dup1\n      iszero\n      tag_1\n      jumpi\n      0x00\n      dup1\n      revert\n    tag_1:\n      pop\n      jumpi(tag_2, lt(calldatasize, 0x04))\n      shr(0xe0, calldataload(0x00))\n      dup1\n      0x82359740\n      gt\n      tag_23\n      jumpi\n      dup1\n      0xafc69b53\n      gt\n      tag_24\n      jumpi\n      dup1\n      0xafc69b53\n      eq\n      tag_18\n      jumpi\n      dup1\n      0xc3f909d4\n      eq\n      tag_19\n      jumpi\n      dup1\n      0xd7ae1d30\n      eq\n      tag_20\n      jumpi\n      dup1\n      0xe82ad7d4\n      eq\n      tag_21\n      jumpi\n      dup1\n      0xed5eb06d\n      eq\n      tag_22\n      jumpi\n      jump(tag_2)\n    tag_24:\n      dup1\n      0x82359740\n      eq\n      tag_13\n      jumpi\n      dup1\n      0x9f87fad7\n      eq\n      tag_14\n      jumpi\n      dup1\n      0xa21a23e4\n      eq\n      tag_15\n      jumpi\n      dup1\n      0xa410347f\n      eq\n      tag_16\n      jumpi\n      dup1\n      0xa47c7696\n      eq\n      tag_17\n      jumpi\n      jump(tag_2)\n    tag_23:\n      dup1\n      0x5d3b1d30\n      gt\n      tag_25\n      jumpi\n      dup1\n      0x5d3b1d30\n      eq\n      tag_8\n      jumpi\n      dup1\n      0x5fbbc0d2\n      eq\n      tag_9\n      jumpi\n      dup1\n      0x64d51a2a\n      eq\n      tag_10\n      jumpi\n      dup1\n      0x7341c10c\n      eq\n      tag_11\n      jumpi\n      dup1\n      0x808974ff\n      eq\n      tag_12\n      jumpi\n      jump(tag_2)\n    tag_25:\n      dup1\n      0x012291\n      eq\n      tag_3\n      jumpi\n      dup1\n      0x04c357cb\n      eq\n      tag_4\n      jumpi\n      dup1\n      0x08e3898e\n      eq\n      tag_5\n      jumpi\n      dup1\n      0x356dac71\n      eq\n      tag_6\n      jumpi\n      dup1\n      0x3d18651e\n      eq\n      tag_7\n      jumpi\n    tag_2:\n      0x00\n      dup1\n      revert\n        /* \"@chainlink/contracts/src/v0.8/mocks/VRFCoordinatorV2Mock.sol\":6986:7170  function getRequestConfig()... */\n    tag_3:\n      tag_26\n      tag_27\n      jump\t// in\n    tag_26:\n      mload(0x40)\n      tag_28\n      swap4\n      swap3\n      swap2\n      swap1\n      tag_29\n      jump\t// in\n    tag_28:\n      mload(0x40)\n      dup1\n      swap2\n      sub\n      swap1\n      return\n        /* \"@chainlink/contracts/src/v0.8/mocks/VRFCoordinatorV2Mock.sol\":8985:9120  function requestSubscriptionOwnerTransfer(uint64 _subId, address _newOwner) external pure override {... */\n    tag_4:\n      tag_30\n      0x04\n      dup1\n      calldatasize\n      sub\n      dup2\n      add\n      swap1\n      tag_31\n      swap2\n      swap1\n      tag_32\n      jump\t// in\n    tag_31:\n      tag_33\n      jump\t// in\n    tag_30:\n      stop\n        /* \"@chainlink/contracts/src/v0.8/mocks/VRFCoordinatorV2Mock.sol\":3391:4533  function fulfillRandomWordsWithOverride(... */\n    tag_5:\n      tag_34\n      0x04\n      dup1\n      calldatasize\n      sub\n      dup2\n      add\n      swap1\n      tag_35\n      swap2\n      swap1\n      tag_36\n      jump\t// in\n    tag_35:\n      tag_37\n      jump\t// in\n    tag_34:\n      stop\n        /* \"@chainlink/contracts/src/v0.8/mocks/VRFCoordinatorV2Mock.sol\":8864:8981  function getFallbackWeiPerUnitLink() external view returns (int256) {... */\n    tag_6:\n      tag_38\n      tag_39\n      jump\t// in\n    tag_38:\n      mload(0x40)\n      tag_40\n      swap2\n      swap1\n      tag_41\n      jump\t// in\n    tag_40:\n      mload(0x40)\n      dup1\n      swap2\n      sub\n      swap1\n      return\n        /* \"@chainlink/contracts/src/v0.8/mocks/VRFCoordinatorV2Mock.sol\":317:349  uint96 public immutable BASE_FEE */\n    tag_7:\n      tag_42\n      tag_43\n      jump\t// in\n    tag_42:\n      mload(0x40)\n      tag_44\n      swap2\n      swap1\n      tag_45\n      jump\t// in\n    tag_44:\n      mload(0x40)\n      dup1\n      swap2\n      sub\n      swap1\n      return\n        /* \"@chainlink/contracts/src/v0.8/mocks/VRFCoordinatorV2Mock.sol\":5081:5837  function requestRandomWords(... */\n    tag_8:\n      tag_46\n      0x04\n      dup1\n      calldatasize\n      sub\n      dup2\n      add\n      swap1\n      tag_47\n      swap2\n      swap1\n      tag_48\n      jump\t// in\n    tag_47:\n      tag_49\n      jump\t// in\n    tag_46:\n      mload(0x40)\n      tag_50\n      swap2\n      swap1\n      tag_51\n      jump\t// in\n    tag_50:\n      mload(0x40)\n      dup1\n      swap2\n      sub\n      swap1\n      return\n        /* \"@chainlink/contracts/src/v0.8/mocks/VRFCoordinatorV2Mock.sol\":8270:8860  function getFeeConfig()... */\n    tag_9:\n      tag_52\n      tag_53\n      jump\t// in\n    tag_52:\n      mload(0x40)\n      tag_54\n      swap10\n      swap9\n      swap8\n      swap7\n      swap6\n      swap5\n      swap4\n      swap3\n      swap2\n      swap1\n      tag_55\n      jump\t// in\n    tag_54:\n      mload(0x40)\n      dup1\n      swap2\n      sub\n      swap1\n      return\n        /* \"@chainlink/contracts/src/v0.8/mocks/VRFCoordinatorV2Mock.sol\":395:438  uint16 public immutable MAX_CONSUMERS = 100 */\n    tag_10:\n      tag_56\n      tag_57\n      jump\t// in\n    tag_56:\n      mload(0x40)\n      tag_58\n      swap2\n      swap1\n      tag_59\n      jump\t// in\n    tag_58:\n      mload(0x40)\n      dup1\n      swap2\n      sub\n      swap1\n      return\n        /* \"@chainlink/contracts/src/v0.8/mocks/VRFCoordinatorV2Mock.sol\":7174:7519  function addConsumer(uint64 _subId, address _consumer) external override onlySubOwner(_subId) {... */\n    tag_11:\n      tag_60\n      0x04\n      dup1\n      calldatasize\n      sub\n      dup2\n      add\n      swap1\n      tag_61\n      swap2\n      swap1\n      tag_32\n      jump\t// in\n    tag_61:\n      tag_62\n      jump\t// in\n    tag_60:\n      stop\n        /* \"@chainlink/contracts/src/v0.8/mocks/VRFCoordinatorV2Mock.sol\":2953:3111  function fulfillRandomWords(uint256 _requestId, address _consumer) external {... */\n    tag_12:\n      tag_63\n      0x04\n      dup1\n      calldatasize\n      sub\n      dup2\n      add\n      swap1\n      tag_64\n      swap2\n      swap1\n      tag_65\n      jump\t// in\n    tag_64:\n      tag_66\n      jump\t// in\n    tag_63:\n      stop\n        /* \"@chainlink/contracts/src/v0.8/mocks/VRFCoordinatorV2Mock.sol\":9124:9239  function acceptSubscriptionOwnerTransfer(uint64 _subId) external pure override {... */\n    tag_13:\n      tag_67\n      0x04\n      dup1\n      calldatasize\n      sub\n      dup2\n      add\n      swap1\n      tag_68\n      swap2\n      swap1\n      tag_69\n      jump\t// in\n    tag_68:\n      tag_70\n      jump\t// in\n    tag_67:\n      stop\n        /* \"@chainlink/contracts/src/v0.8/mocks/VRFCoordinatorV2Mock.sol\":7523:8012  function removeConsumer(uint64 _subId, address _consumer)... */\n    tag_14:\n      tag_71\n      0x04\n      dup1\n      calldatasize\n      sub\n      dup2\n      add\n      swap1\n      tag_72\n      swap2\n      swap1\n      tag_32\n      jump\t// in\n    tag_72:\n      tag_73\n      jump\t// in\n    tag_71:\n      stop\n        /* \"@chainlink/contracts/src/v0.8/mocks/VRFCoordinatorV2Mock.sol\":5841:6110  function createSubscription() external override returns (uint64 _subId) {... */\n    tag_15:\n      tag_74\n      tag_75\n      jump\t// in\n    tag_74:\n      mload(0x40)\n      tag_76\n      swap2\n      swap1\n      tag_77\n      jump\t// in\n    tag_76:\n      mload(0x40)\n      dup1\n      swap2\n      sub\n      swap1\n      return\n        /* \"@chainlink/contracts/src/v0.8/mocks/VRFCoordinatorV2Mock.sol\":353:391  uint96 public immutable GAS_PRICE_LINK */\n    tag_16:\n      tag_78\n      tag_79\n      jump\t// in\n    tag_78:\n      mload(0x40)\n      tag_80\n      swap2\n      swap1\n      tag_45\n      jump\t// in\n    tag_80:\n      mload(0x40)\n      dup1\n      swap2\n      sub\n      swap1\n      return\n        /* \"@chainlink/contracts/src/v0.8/mocks/VRFCoordinatorV2Mock.sol\":6114:6513  function getSubscription(uint64 _subId)... */\n    tag_17:\n      tag_81\n      0x04\n      dup1\n      calldatasize\n      sub\n      dup2\n      add\n      swap1\n      tag_82\n      swap2\n      swap1\n      tag_69\n      jump\t// in\n    tag_82:\n      tag_83\n      jump\t// in\n    tag_81:\n      mload(0x40)\n      tag_84\n      swap5\n      swap4\n      swap3\n      swap2\n      swap1\n      tag_85\n      jump\t// in\n    tag_84:\n      mload(0x40)\n      dup1\n      swap2\n      sub\n      swap1\n      return\n        /* \"@chainlink/contracts/src/v0.8/mocks/VRFCoordinatorV2Mock.sol\":4735:5077  function fundSubscription(uint64 _subId, uint96 _amount) public {... */\n    tag_18:\n      tag_86\n      0x04\n      dup1\n      calldatasize\n      sub\n      dup2\n      add\n      swap1\n      tag_87\n      swap2\n      swap1\n      tag_88\n      jump\t// in\n    tag_87:\n      tag_89\n      jump\t// in\n    tag_86:\n      stop\n        /* \"@chainlink/contracts/src/v0.8/mocks/VRFCoordinatorV2Mock.sol\":8016:8266  function getConfig()... */\n    tag_19:\n      tag_90\n      tag_91\n      jump\t// in\n    tag_90:\n      mload(0x40)\n      tag_92\n      swap5\n      swap4\n      swap3\n      swap2\n      swap1\n      tag_93\n      jump\t// in\n    tag_92:\n      mload(0x40)\n      dup1\n      swap2\n      sub\n      swap1\n      return\n        /* \"@chainlink/contracts/src/v0.8/mocks/VRFCoordinatorV2Mock.sol\":6517:6732  function cancelSubscription(uint64 _subId, address _to) external override onlySubOwner(_subId) {... */\n    tag_20:\n      tag_94\n      0x04\n      dup1\n      calldatasize\n      sub\n      dup2\n      add\n      swap1\n      tag_95\n      swap2\n      swap1\n      tag_32\n      jump\t// in\n    tag_95:\n      tag_96\n      jump\t// in\n    tag_94:\n      stop\n        /* \"@chainlink/contracts/src/v0.8/mocks/VRFCoordinatorV2Mock.sol\":9243:9359  function pendingRequestExists(uint64 subId) public view override returns (bool) {... */\n    tag_21:\n      tag_97\n      0x04\n      dup1\n      calldatasize\n      sub\n      dup2\n      add\n      swap1\n      tag_98\n      swap2\n      swap1\n      tag_69\n      jump\t// in\n    tag_98:\n      tag_99\n      jump\t// in\n    tag_97:\n      mload(0x40)\n      tag_100\n      swap2\n      swap1\n      tag_101\n      jump\t// in\n    tag_100:\n      mload(0x40)\n      dup1\n      swap2\n      sub\n      swap1\n      return\n        /* \"@chainlink/contracts/src/v0.8/mocks/VRFCoordinatorV2Mock.sol\":1947:2237  function consumerIsAdded(uint64 _subId, address _consumer) public view returns (bool) {... */\n    tag_22:\n      tag_102\n      0x04\n      dup1\n      calldatasize\n      sub\n      dup2\n      add\n      swap1\n      tag_103\n      swap2\n      swap1\n      tag_32\n      jump\t// in\n    tag_103:\n      tag_104\n      jump\t// in\n    tag_102:\n      mload(0x40)\n      tag_105\n      swap2\n      swap1\n      tag_101\n      jump\t// in\n    tag_105:\n      mload(0x40)\n      dup1\n      swap2\n      sub\n      swap1\n      return\n        /* \"@chainlink/contracts/src/v0.8/mocks/VRFCoordinatorV2Mock.sol\":6986:7170  function getRequestConfig()... */\n    tag_27:\n        /* \"@chainlink/contracts/src/v0.8/mocks/VRFCoordinatorV2Mock.sol\":7069:7075  uint16 */\n      0x00\n        /* \"@chainlink/contracts/src/v0.8/mocks/VRFCoordinatorV2Mock.sol\":7083:7089  uint32 */\n      dup1\n        /* \"@chainlink/contracts/src/v0.8/mocks/VRFCoordinatorV2Mock.sol\":7097:7113  bytes32[] memory */\n      0x60\n        /* \"@chainlink/contracts/src/v0.8/mocks/VRFCoordinatorV2Mock.sol\":7136:7137  3 */\n      0x03\n        /* \"@chainlink/contracts/src/v0.8/mocks/VRFCoordinatorV2Mock.sol\":7139:7146  2000000 */\n      0x1e8480\n        /* \"@chainlink/contracts/src/v0.8/mocks/VRFCoordinatorV2Mock.sol\":7162:7163  0 */\n      0x00\n        /* \"@chainlink/contracts/src/v0.8/mocks/VRFCoordinatorV2Mock.sol\":7148:7164  new bytes32[](0) */\n      0xffffffffffffffff\n      dup2\n      gt\n      iszero\n      tag_107\n      jumpi\n      tag_108\n      tag_109\n      jump\t// in\n    tag_108:\n    tag_107:\n      mload(0x40)\n      swap1\n      dup1\n      dup3\n      mstore\n      dup1\n      0x20\n      mul\n      0x20\n      add\n      dup3\n      add\n      0x40\n      mstore\n      dup1\n      iszero\n      tag_110\n      jumpi\n      dup2\n      0x20\n      add\n      0x20\n      dup3\n      mul\n      dup1\n      calldatasize\n      dup4\n      calldatacopy\n      dup1\n      dup3\n      add\n      swap2\n      pop\n      pop\n      swap1\n      pop\n    tag_110:\n      pop\n        /* \"@chainlink/contracts/src/v0.8/mocks/VRFCoordinatorV2Mock.sol\":7128:7165  return (3, 2000000, new bytes32[](0)) */\n      swap3\n      pop\n      swap3\n      pop\n      swap3\n      pop\n        /* \"@chainlink/contracts/src/v0.8/mocks/VRFCoordinatorV2Mock.sol\":6986:7170  function getRequestConfig()... */\n      swap1\n      swap2\n      swap3\n      jump\t// out\n        /* \"@chainlink/contracts/src/v0.8/mocks/VRFCoordinatorV2Mock.sol\":8985:9120  function requestSubscriptionOwnerTransfer(uint64 _subId, address _newOwner) external pure override {... */\n    tag_33:\n        /* \"@chainlink/contracts/src/v0.8/mocks/VRFCoordinatorV2Mock.sol\":9090:9115  revert(\"not implemented\") */\n      mload(0x40)\n      0x08c379a000000000000000000000000000000000000000000000000000000000\n      dup2\n      mstore\n      0x04\n      add\n      tag_112\n      swap1\n      tag_113\n      jump\t// in\n    tag_112:\n      mload(0x40)\n      dup1\n      swap2\n      sub\n      swap1\n      revert\n        /* \"@chainlink/contracts/src/v0.8/mocks/VRFCoordinatorV2Mock.sol\":3391:4533  function fulfillRandomWordsWithOverride(... */\n    tag_37:\n        /* \"@chainlink/contracts/src/v0.8/mocks/VRFCoordinatorV2Mock.sol\":3524:3540  uint256 startGas */\n      0x00\n        /* \"@chainlink/contracts/src/v0.8/mocks/VRFCoordinatorV2Mock.sol\":3543:3552  gasleft() */\n      gas\n        /* \"@chainlink/contracts/src/v0.8/mocks/VRFCoordinatorV2Mock.sol\":3524:3552  uint256 startGas = gasleft() */\n      swap1\n      pop\n        /* \"@chainlink/contracts/src/v0.8/mocks/VRFCoordinatorV2Mock.sol\":3594:3595  0 */\n      0x00\n        /* \"@chainlink/contracts/src/v0.8/mocks/VRFCoordinatorV2Mock.sol\":3562:3572  s_requests */\n      0x05\n        /* \"@chainlink/contracts/src/v0.8/mocks/VRFCoordinatorV2Mock.sol\":3562:3584  s_requests[_requestId] */\n      0x00\n        /* \"@chainlink/contracts/src/v0.8/mocks/VRFCoordinatorV2Mock.sol\":3573:3583  _requestId */\n      dup7\n        /* \"@chainlink/contracts/src/v0.8/mocks/VRFCoordinatorV2Mock.sol\":3562:3584  s_requests[_requestId] */\n      dup2\n      mstore\n      0x20\n      add\n      swap1\n      dup2\n      mstore\n      0x20\n      add\n      0x00\n      keccak256\n        /* \"@chainlink/contracts/src/v0.8/mocks/VRFCoordinatorV2Mock.sol\":3562:3590  s_requests[_requestId].subId */\n      0x00\n      add\n      0x00\n      swap1\n      sload\n      swap1\n      0x0100\n      exp\n      swap1\n      div\n      0xffffffffffffffff\n      and\n        /* \"@chainlink/contracts/src/v0.8/mocks/VRFCoordinatorV2Mock.sol\":3562:3595  s_requests[_requestId].subId == 0 */\n      0xffffffffffffffff\n      and\n      sub\n        /* \"@chainlink/contracts/src/v0.8/mocks/VRFCoordinatorV2Mock.sol\":3558:3641  if (s_requests[_requestId].subId == 0) {... */\n      tag_115\n      jumpi\n        /* \"@chainlink/contracts/src/v0.8/mocks/VRFCoordinatorV2Mock.sol\":3605:3634  revert(\"nonexistent request\") */\n      mload(0x40)\n      0x08c379a000000000000000000000000000000000000000000000000000000000\n      dup2\n      mstore\n      0x04\n      add\n      tag_116\n      swap1\n      tag_117\n      jump\t// in\n    tag_116:\n      mload(0x40)\n      dup1\n      swap2\n      sub\n      swap1\n      revert\n        /* \"@chainlink/contracts/src/v0.8/mocks/VRFCoordinatorV2Mock.sol\":3558:3641  if (s_requests[_requestId].subId == 0) {... */\n    tag_115:\n        /* \"@chainlink/contracts/src/v0.8/mocks/VRFCoordinatorV2Mock.sol\":3646:3664  Request memory req */\n      0x00\n        /* \"@chainlink/contracts/src/v0.8/mocks/VRFCoordinatorV2Mock.sol\":3667:3677  s_requests */\n      0x05\n        /* \"@chainlink/contracts/src/v0.8/mocks/VRFCoordinatorV2Mock.sol\":3667:3689  s_requests[_requestId] */\n      0x00\n        /* \"@chainlink/contracts/src/v0.8/mocks/VRFCoordinatorV2Mock.sol\":3678:3688  _requestId */\n      dup7\n        /* \"@chainlink/contracts/src/v0.8/mocks/VRFCoordinatorV2Mock.sol\":3667:3689  s_requests[_requestId] */\n      dup2\n      mstore\n      0x20\n      add\n      swap1\n      dup2\n      mstore\n      0x20\n      add\n      0x00\n      keccak256\n        /* \"@chainlink/contracts/src/v0.8/mocks/VRFCoordinatorV2Mock.sol\":3646:3689  Request memory req = s_requests[_requestId] */\n      mload(0x40)\n      dup1\n      0x60\n      add\n      0x40\n      mstore\n      swap1\n      dup2\n      0x00\n      dup3\n      add\n      0x00\n      swap1\n      sload\n      swap1\n      0x0100\n      exp\n      swap1\n      div\n      0xffffffffffffffff\n      and\n      0xffffffffffffffff\n      and\n      0xffffffffffffffff\n      and\n      dup2\n      mstore\n      0x20\n      add\n      0x00\n      dup3\n      add\n      0x08\n      swap1\n      sload\n      swap1\n      0x0100\n      exp\n      swap1\n      div\n      0xffffffff\n      and\n      0xffffffff\n      and\n      0xffffffff\n      and\n      dup2\n      mstore\n      0x20\n      add\n      0x00\n      dup3\n      add\n      0x0c\n      swap1\n      sload\n      swap1\n      0x0100\n      exp\n      swap1\n      div\n      0xffffffff\n      and\n      0xffffffff\n      and\n      0xffffffff\n      and\n      dup2\n      mstore\n      pop\n      pop\n      swap1\n      pop\n        /* \"@chainlink/contracts/src/v0.8/mocks/VRFCoordinatorV2Mock.sol\":3717:3718  0 */\n      0x00\n        /* \"@chainlink/contracts/src/v0.8/mocks/VRFCoordinatorV2Mock.sol\":3700:3706  _words */\n      dup4\n        /* \"@chainlink/contracts/src/v0.8/mocks/VRFCoordinatorV2Mock.sol\":3700:3713  _words.length */\n      mload\n        /* \"@chainlink/contracts/src/v0.8/mocks/VRFCoordinatorV2Mock.sol\":3700:3718  _words.length == 0 */\n      sub\n        /* \"@chainlink/contracts/src/v0.8/mocks/VRFCoordinatorV2Mock.sol\":3696:3980  if (_words.length == 0) {... */\n      tag_118\n      jumpi\n        /* \"@chainlink/contracts/src/v0.8/mocks/VRFCoordinatorV2Mock.sol\":3751:3754  req */\n      dup1\n        /* \"@chainlink/contracts/src/v0.8/mocks/VRFCoordinatorV2Mock.sol\":3751:3763  req.numWords */\n      0x40\n      add\n      mload\n        /* \"@chainlink/contracts/src/v0.8/mocks/VRFCoordinatorV2Mock.sol\":3737:3764  new uint256[](req.numWords) */\n      0xffffffff\n      and\n      0xffffffffffffffff\n      dup2\n      gt\n      iszero\n      tag_119\n      jumpi\n      tag_120\n      tag_109\n      jump\t// in\n    tag_120:\n    tag_119:\n      mload(0x40)\n      swap1\n      dup1\n      dup3\n      mstore\n      dup1\n      0x20\n      mul\n      0x20\n      add\n      dup3\n      add\n      0x40\n      mstore\n      dup1\n      iszero\n      tag_121\n      jumpi\n      dup2\n      0x20\n      add\n      0x20\n      dup3\n      mul\n      dup1\n      calldatasize\n      dup4\n      calldatacopy\n      dup1\n      dup3\n      add\n      swap2\n      pop\n      pop\n      swap1\n      pop\n    tag_121:\n      pop\n        /* \"@chainlink/contracts/src/v0.8/mocks/VRFCoordinatorV2Mock.sol\":3728:3764  _words = new uint256[](req.numWords) */\n      swap3\n      pop\n        /* \"@chainlink/contracts/src/v0.8/mocks/VRFCoordinatorV2Mock.sol\":3777:3786  uint256 i */\n      0x00\n        /* \"@chainlink/contracts/src/v0.8/mocks/VRFCoordinatorV2Mock.sol\":3772:3891  for (uint256 i = 0; i < req.numWords; i++) {... */\n    tag_122:\n        /* \"@chainlink/contracts/src/v0.8/mocks/VRFCoordinatorV2Mock.sol\":3796:3799  req */\n      dup2\n        /* \"@chainlink/contracts/src/v0.8/mocks/VRFCoordinatorV2Mock.sol\":3796:3808  req.numWords */\n      0x40\n      add\n      mload\n        /* \"@chainlink/contracts/src/v0.8/mocks/VRFCoordinatorV2Mock.sol\":3792:3808  i < req.numWords */\n      0xffffffff\n      and\n        /* \"@chainlink/contracts/src/v0.8/mocks/VRFCoordinatorV2Mock.sol\":3792:3793  i */\n      dup2\n        /* \"@chainlink/contracts/src/v0.8/mocks/VRFCoordinatorV2Mock.sol\":3792:3808  i < req.numWords */\n      lt\n        /* \"@chainlink/contracts/src/v0.8/mocks/VRFCoordinatorV2Mock.sol\":3772:3891  for (uint256 i = 0; i < req.numWords; i++) {... */\n      iszero\n      tag_123\n      jumpi\n        /* \"@chainlink/contracts/src/v0.8/mocks/VRFCoordinatorV2Mock.sol\":3866:3876  _requestId */\n      dup6\n        /* \"@chainlink/contracts/src/v0.8/mocks/VRFCoordinatorV2Mock.sol\":3878:3879  i */\n      dup2\n        /* \"@chainlink/contracts/src/v0.8/mocks/VRFCoordinatorV2Mock.sol\":3855:3880  abi.encode(_requestId, i) */\n      add(0x20, mload(0x40))\n      tag_125\n      swap3\n      swap2\n      swap1\n      tag_126\n      jump\t// in\n    tag_125:\n      mload(0x40)\n      0x20\n      dup2\n      dup4\n      sub\n      sub\n      dup2\n      mstore\n      swap1\n      0x40\n      mstore\n        /* \"@chainlink/contracts/src/v0.8/mocks/VRFCoordinatorV2Mock.sol\":3845:3881  keccak256(abi.encode(_requestId, i)) */\n      dup1\n      mload\n      swap1\n      0x20\n      add\n      keccak256\n        /* \"@chainlink/contracts/src/v0.8/mocks/VRFCoordinatorV2Mock.sol\":3837:3882  uint256(keccak256(abi.encode(_requestId, i))) */\n      0x00\n      shr\n        /* \"@chainlink/contracts/src/v0.8/mocks/VRFCoordinatorV2Mock.sol\":3825:3831  _words */\n      dup5\n        /* \"@chainlink/contracts/src/v0.8/mocks/VRFCoordinatorV2Mock.sol\":3832:3833  i */\n      dup3\n        /* \"@chainlink/contracts/src/v0.8/mocks/VRFCoordinatorV2Mock.sol\":3825:3834  _words[i] */\n      dup2\n      mload\n      dup2\n      lt\n      tag_127\n      jumpi\n      tag_128\n      tag_129\n      jump\t// in\n    tag_128:\n    tag_127:\n      0x20\n      mul\n      0x20\n      add\n      add\n        /* \"@chainlink/contracts/src/v0.8/mocks/VRFCoordinatorV2Mock.sol\":3825:3882  _words[i] = uint256(keccak256(abi.encode(_requestId, i))) */\n      dup2\n      dup2\n      mstore\n      pop\n      pop\n        /* \"@chainlink/contracts/src/v0.8/mocks/VRFCoordinatorV2Mock.sol\":3810:3813  i++ */\n      dup1\n      dup1\n      0x01\n      add\n      swap2\n      pop\n      pop\n        /* \"@chainlink/contracts/src/v0.8/mocks/VRFCoordinatorV2Mock.sol\":3772:3891  for (uint256 i = 0; i < req.numWords; i++) {... */\n      jump(tag_122)\n    tag_123:\n      pop\n        /* \"@chainlink/contracts/src/v0.8/mocks/VRFCoordinatorV2Mock.sol\":3696:3980  if (_words.length == 0) {... */\n      jump(tag_130)\n    tag_118:\n        /* \"@chainlink/contracts/src/v0.8/mocks/VRFCoordinatorV2Mock.sol\":3924:3927  req */\n      dup1\n        /* \"@chainlink/contracts/src/v0.8/mocks/VRFCoordinatorV2Mock.sol\":3924:3936  req.numWords */\n      0x40\n      add\n      mload\n        /* \"@chainlink/contracts/src/v0.8/mocks/VRFCoordinatorV2Mock.sol\":3907:3936  _words.length != req.numWords */\n      0xffffffff\n      and\n        /* \"@chainlink/contracts/src/v0.8/mocks/VRFCoordinatorV2Mock.sol\":3907:3913  _words */\n      dup4\n        /* \"@chainlink/contracts/src/v0.8/mocks/VRFCoordinatorV2Mock.sol\":3907:3920  _words.length */\n      mload\n        /* \"@chainlink/contracts/src/v0.8/mocks/VRFCoordinatorV2Mock.sol\":3907:3936  _words.length != req.numWords */\n      eq\n        /* \"@chainlink/contracts/src/v0.8/mocks/VRFCoordinatorV2Mock.sol\":3903:3980  if (_words.length != req.numWords) {... */\n      tag_131\n      jumpi\n        /* \"@chainlink/contracts/src/v0.8/mocks/VRFCoordinatorV2Mock.sol\":3953:3973  InvalidRandomWords() */\n      mload(0x40)\n      0x3f3df5b600000000000000000000000000000000000000000000000000000000\n      dup2\n      mstore\n      0x04\n      add\n      mload(0x40)\n      dup1\n      swap2\n      sub\n      swap1\n      revert\n        /* \"@chainlink/contracts/src/v0.8/mocks/VRFCoordinatorV2Mock.sol\":3903:3980  if (_words.length != req.numWords) {... */\n    tag_131:\n        /* \"@chainlink/contracts/src/v0.8/mocks/VRFCoordinatorV2Mock.sol\":3696:3980  if (_words.length == 0) {... */\n    tag_130:\n        /* \"@chainlink/contracts/src/v0.8/mocks/VRFCoordinatorV2Mock.sol\":3986:4005  VRFConsumerBaseV2 v */\n      0x00\n        /* \"@chainlink/contracts/src/v0.8/mocks/VRFCoordinatorV2Mock.sol\":4011:4031  bytes memory callReq */\n      dup1\n        /* \"@chainlink/contracts/src/v0.8/mocks/VRFCoordinatorV2Mock.sol\":4057:4089  v.rawFulfillRandomWords.selector */\n      shl(0xe0, 0x1fe543e3)\n        /* \"@chainlink/contracts/src/v0.8/mocks/VRFCoordinatorV2Mock.sol\":4091:4101  _requestId */\n      dup8\n        /* \"@chainlink/contracts/src/v0.8/mocks/VRFCoordinatorV2Mock.sol\":4103:4109  _words */\n      dup7\n        /* \"@chainlink/contracts/src/v0.8/mocks/VRFCoordinatorV2Mock.sol\":4034:4110  abi.encodeWithSelector(v.rawFulfillRandomWords.selector, _requestId, _words) */\n      add(0x24, mload(0x40))\n      tag_132\n      swap3\n      swap2\n      swap1\n      tag_133\n      jump\t// in\n    tag_132:\n      mload(0x40)\n      0x20\n      dup2\n      dup4\n      sub\n      sub\n      dup2\n      mstore\n      swap1\n      0x40\n      mstore\n      swap1\n      not(0xffffffffffffffffffffffffffffffffffffffffffffffffffffffff)\n      and\n      0x20\n      dup3\n      add\n      dup1\n      mload\n      0xffffffffffffffffffffffffffffffffffffffffffffffffffffffff\n      dup4\n      dup2\n      dup4\n      and\n      or\n      dup4\n      mstore\n      pop\n      pop\n      pop\n      pop\n        /* \"@chainlink/contracts/src/v0.8/mocks/VRFCoordinatorV2Mock.sol\":4011:4110  bytes memory callReq = abi.encodeWithSelector(v.rawFulfillRandomWords.selector, _requestId, _words) */\n      swap1\n      pop\n        /* \"@chainlink/contracts/src/v0.8/mocks/VRFCoordinatorV2Mock.sol\":4117:4129  bool success */\n      0x00\n        /* \"@chainlink/contracts/src/v0.8/mocks/VRFCoordinatorV2Mock.sol\":4135:4144  _consumer */\n      dup7\n        /* \"@chainlink/contracts/src/v0.8/mocks/VRFCoordinatorV2Mock.sol\":4135:4149  _consumer.call */\n      0xffffffffffffffffffffffffffffffffffffffff\n      and\n        /* \"@chainlink/contracts/src/v0.8/mocks/VRFCoordinatorV2Mock.sol\":4155:4158  req */\n      dup5\n        /* \"@chainlink/contracts/src/v0.8/mocks/VRFCoordinatorV2Mock.sol\":4155:4175  req.callbackGasLimit */\n      0x20\n      add\n      mload\n        /* \"@chainlink/contracts/src/v0.8/mocks/VRFCoordinatorV2Mock.sol\":4135:4185  _consumer.call{gas: req.callbackGasLimit}(callReq) */\n      0xffffffff\n      and\n        /* \"@chainlink/contracts/src/v0.8/mocks/VRFCoordinatorV2Mock.sol\":4177:4184  callReq */\n      dup4\n        /* \"@chainlink/contracts/src/v0.8/mocks/VRFCoordinatorV2Mock.sol\":4135:4185  _consumer.call{gas: req.callbackGasLimit}(callReq) */\n      mload(0x40)\n      tag_134\n      swap2\n      swap1\n      tag_135\n      jump\t// in\n    tag_134:\n      0x00\n      mload(0x40)\n      dup1\n      dup4\n      sub\n      dup2\n      0x00\n      dup8\n      dup8\n      call\n      swap3\n      pop\n      pop\n      pop\n      returndatasize\n      dup1\n      0x00\n      dup2\n      eq\n      tag_138\n      jumpi\n      mload(0x40)\n      swap2\n      pop\n      and(add(returndatasize, 0x3f), not(0x1f))\n      dup3\n      add\n      0x40\n      mstore\n      returndatasize\n      dup3\n      mstore\n      returndatasize\n      0x00\n      0x20\n      dup5\n      add\n      returndatacopy\n      jump(tag_137)\n    tag_138:\n      0x60\n      swap2\n      pop\n    tag_137:\n      pop\n        /* \"@chainlink/contracts/src/v0.8/mocks/VRFCoordinatorV2Mock.sol\":4116:4185  (bool success, ) = _consumer.call{gas: req.callbackGasLimit}(callReq) */\n      pop\n      swap1\n      pop\n        /* \"@chainlink/contracts/src/v0.8/mocks/VRFCoordinatorV2Mock.sol\":4192:4206  uint96 payment */\n      0x00\n        /* \"@chainlink/contracts/src/v0.8/mocks/VRFCoordinatorV2Mock.sol\":4253:4267  GAS_PRICE_LINK */\n      immutable(\"0x88a32c6dd03906ed0b4cd657b3c8f0eead37f709d7c7adabd129c27e0b9dbe0c\")\n        /* \"@chainlink/contracts/src/v0.8/mocks/VRFCoordinatorV2Mock.sol\":4228:4267  (startGas - gasleft()) * GAS_PRICE_LINK */\n      0xffffffffffffffffffffffff\n      and\n        /* \"@chainlink/contracts/src/v0.8/mocks/VRFCoordinatorV2Mock.sol\":4240:4249  gasleft() */\n      gas\n        /* \"@chainlink/contracts/src/v0.8/mocks/VRFCoordinatorV2Mock.sol\":4229:4237  startGas */\n      dup8\n        /* \"@chainlink/contracts/src/v0.8/mocks/VRFCoordinatorV2Mock.sol\":4229:4249  startGas - gasleft() */\n      tag_139\n      swap2\n      swap1\n      tag_140\n      jump\t// in\n    tag_139:\n        /* \"@chainlink/contracts/src/v0.8/mocks/VRFCoordinatorV2Mock.sol\":4228:4267  (startGas - gasleft()) * GAS_PRICE_LINK */\n      tag_141\n      swap2\n      swap1\n      tag_142\n      jump\t// in\n    tag_141:\n        /* \"@chainlink/contracts/src/v0.8/mocks/VRFCoordinatorV2Mock.sol\":4216:4224  BASE_FEE */\n      immutable(\"0x745789b92be07c687207fcaa646243fe1826e3e7b5b33f386ac4f1c64a8b009a\")\n        /* \"@chainlink/contracts/src/v0.8/mocks/VRFCoordinatorV2Mock.sol\":4216:4268  BASE_FEE + ((startGas - gasleft()) * GAS_PRICE_LINK) */\n      0xffffffffffffffffffffffff\n      and\n      tag_143\n      swap2\n      swap1\n      tag_144\n      jump\t// in\n    tag_143:\n        /* \"@chainlink/contracts/src/v0.8/mocks/VRFCoordinatorV2Mock.sol\":4192:4269  uint96 payment = uint96(BASE_FEE + ((startGas - gasleft()) * GAS_PRICE_LINK)) */\n      swap1\n      pop\n        /* \"@chainlink/contracts/src/v0.8/mocks/VRFCoordinatorV2Mock.sol\":4316:4323  payment */\n      dup1\n        /* \"@chainlink/contracts/src/v0.8/mocks/VRFCoordinatorV2Mock.sol\":4279:4323  s_subscriptions[req.subId].balance < payment */\n      0xffffffffffffffffffffffff\n      and\n        /* \"@chainlink/contracts/src/v0.8/mocks/VRFCoordinatorV2Mock.sol\":4279:4294  s_subscriptions */\n      0x03\n        /* \"@chainlink/contracts/src/v0.8/mocks/VRFCoordinatorV2Mock.sol\":4279:4305  s_subscriptions[req.subId] */\n      0x00\n        /* \"@chainlink/contracts/src/v0.8/mocks/VRFCoordinatorV2Mock.sol\":4295:4298  req */\n      dup8\n        /* \"@chainlink/contracts/src/v0.8/mocks/VRFCoordinatorV2Mock.sol\":4295:4304  req.subId */\n      0x00\n      add\n      mload\n        /* \"@chainlink/contracts/src/v0.8/mocks/VRFCoordinatorV2Mock.sol\":4279:4305  s_subscriptions[req.subId] */\n      0xffffffffffffffff\n      and\n      0xffffffffffffffff\n      and\n      dup2\n      mstore\n      0x20\n      add\n      swap1\n      dup2\n      mstore\n      0x20\n      add\n      0x00\n      keccak256\n        /* \"@chainlink/contracts/src/v0.8/mocks/VRFCoordinatorV2Mock.sol\":4279:4313  s_subscriptions[req.subId].balance */\n      0x00\n      add\n      0x14\n      swap1\n      sload\n      swap1\n      0x0100\n      exp\n      swap1\n      div\n      0xffffffffffffffffffffffff\n      and\n        /* \"@chainlink/contracts/src/v0.8/mocks/VRFCoordinatorV2Mock.sol\":4279:4323  s_subscriptions[req.subId].balance < payment */\n      0xffffffffffffffffffffffff\n      and\n      lt\n        /* \"@chainlink/contracts/src/v0.8/mocks/VRFCoordinatorV2Mock.sol\":4275:4368  if (s_subscriptions[req.subId].balance < payment) {... */\n      iszero\n      tag_145\n      jumpi\n        /* \"@chainlink/contracts/src/v0.8/mocks/VRFCoordinatorV2Mock.sol\":4340:4361  InsufficientBalance() */\n      mload(0x40)\n      0xf4d678b800000000000000000000000000000000000000000000000000000000\n      dup2\n      mstore\n      0x04\n      add\n      mload(0x40)\n      dup1\n      swap2\n      sub\n      swap1\n      revert\n        /* \"@chainlink/contracts/src/v0.8/mocks/VRFCoordinatorV2Mock.sol\":4275:4368  if (s_subscriptions[req.subId].balance < payment) {... */\n    tag_145:\n        /* \"@chainlink/contracts/src/v0.8/mocks/VRFCoordinatorV2Mock.sol\":4411:4418  payment */\n      dup1\n        /* \"@chainlink/contracts/src/v0.8/mocks/VRFCoordinatorV2Mock.sol\":4373:4388  s_subscriptions */\n      0x03\n        /* \"@chainlink/contracts/src/v0.8/mocks/VRFCoordinatorV2Mock.sol\":4373:4399  s_subscriptions[req.subId] */\n      0x00\n        /* \"@chainlink/contracts/src/v0.8/mocks/VRFCoordinatorV2Mock.sol\":4389:4392  req */\n      dup8\n        /* \"@chainlink/contracts/src/v0.8/mocks/VRFCoordinatorV2Mock.sol\":4389:4398  req.subId */\n      0x00\n      add\n      mload\n        /* \"@chainlink/contracts/src/v0.8/mocks/VRFCoordinatorV2Mock.sol\":4373:4399  s_subscriptions[req.subId] */\n      0xffffffffffffffff\n      and\n      0xffffffffffffffff\n      and\n      dup2\n      mstore\n      0x20\n      add\n      swap1\n      dup2\n      mstore\n      0x20\n      add\n      0x00\n      keccak256\n        /* \"@chainlink/contracts/src/v0.8/mocks/VRFCoordinatorV2Mock.sol\":4373:4407  s_subscriptions[req.subId].balance */\n      0x00\n      add\n      0x14\n        /* \"@chainlink/contracts/src/v0.8/mocks/VRFCoordinatorV2Mock.sol\":4373:4418  s_subscriptions[req.subId].balance -= payment */\n      dup3\n      dup3\n      dup3\n      swap1\n      sload\n      swap1\n      0x0100\n      exp\n      swap1\n      div\n      0xffffffffffffffffffffffff\n      and\n      tag_146\n      swap2\n      swap1\n      tag_147\n      jump\t// in\n    tag_146:\n      swap3\n      pop\n      0x0100\n      exp\n      dup2\n      sload\n      dup2\n      0xffffffffffffffffffffffff\n      mul\n      not\n      and\n      swap1\n      dup4\n      0xffffffffffffffffffffffff\n      and\n      mul\n      or\n      swap1\n      sstore\n      pop\n        /* \"@chainlink/contracts/src/v0.8/mocks/VRFCoordinatorV2Mock.sol\":4432:4442  s_requests */\n      0x05\n        /* \"@chainlink/contracts/src/v0.8/mocks/VRFCoordinatorV2Mock.sol\":4432:4454  s_requests[_requestId] */\n      0x00\n        /* \"@chainlink/contracts/src/v0.8/mocks/VRFCoordinatorV2Mock.sol\":4443:4453  _requestId */\n      dup11\n        /* \"@chainlink/contracts/src/v0.8/mocks/VRFCoordinatorV2Mock.sol\":4432:4454  s_requests[_requestId] */\n      dup2\n      mstore\n      0x20\n      add\n      swap1\n      dup2\n      mstore\n      0x20\n      add\n      0x00\n      keccak256\n      0x00\n        /* \"@chainlink/contracts/src/v0.8/mocks/VRFCoordinatorV2Mock.sol\":4424:4455  delete (s_requests[_requestId]) */\n      dup1\n      dup3\n      add\n      exp(0x0100, 0x00)\n      dup2\n      sload\n      swap1\n      0xffffffffffffffff\n      mul\n      not\n      and\n      swap1\n      sstore\n      0x00\n      dup3\n      add\n      exp(0x0100, 0x08)\n      dup2\n      sload\n      swap1\n      0xffffffff\n      mul\n      not\n      and\n      swap1\n      sstore\n      0x00\n      dup3\n      add\n      exp(0x0100, 0x0c)\n      dup2\n      sload\n      swap1\n      0xffffffff\n      mul\n      not\n      and\n      swap1\n      sstore\n      pop\n      pop\n        /* \"@chainlink/contracts/src/v0.8/mocks/VRFCoordinatorV2Mock.sol\":4487:4497  _requestId */\n      dup9\n        /* \"@chainlink/contracts/src/v0.8/mocks/VRFCoordinatorV2Mock.sol\":4466:4528  RandomWordsFulfilled(_requestId, _requestId, payment, success) */\n      0x7dffc5ae5ee4e2e4df1651cf6ad329a73cebdb728f37ea0187b9b17e036756e4\n        /* \"@chainlink/contracts/src/v0.8/mocks/VRFCoordinatorV2Mock.sol\":4499:4509  _requestId */\n      dup11\n        /* \"@chainlink/contracts/src/v0.8/mocks/VRFCoordinatorV2Mock.sol\":4511:4518  payment */\n      dup4\n        /* \"@chainlink/contracts/src/v0.8/mocks/VRFCoordinatorV2Mock.sol\":4520:4527  success */\n      dup6\n        /* \"@chainlink/contracts/src/v0.8/mocks/VRFCoordinatorV2Mock.sol\":4466:4528  RandomWordsFulfilled(_requestId, _requestId, payment, success) */\n      mload(0x40)\n      tag_148\n      swap4\n      swap3\n      swap2\n      swap1\n      tag_149\n      jump\t// in\n    tag_148:\n      mload(0x40)\n      dup1\n      swap2\n      sub\n      swap1\n      log2\n        /* \"@chainlink/contracts/src/v0.8/mocks/VRFCoordinatorV2Mock.sol\":3518:4533  {... */\n      pop\n      pop\n      pop\n      pop\n      pop\n      pop\n        /* \"@chainlink/contracts/src/v0.8/mocks/VRFCoordinatorV2Mock.sol\":3391:4533  function fulfillRandomWordsWithOverride(... */\n      pop\n      pop\n      pop\n      jump\t// out\n        /* \"@chainlink/contracts/src/v0.8/mocks/VRFCoordinatorV2Mock.sol\":8864:8981  function getFallbackWeiPerUnitLink() external view returns (int256) {... */\n    tag_39:\n        /* \"@chainlink/contracts/src/v0.8/mocks/VRFCoordinatorV2Mock.sol\":8924:8930  int256 */\n      0x00\n        /* \"@chainlink/contracts/src/v0.8/mocks/VRFCoordinatorV2Mock.sol\":8945:8961  4000000000000000 */\n      0x0e35fa931a0000\n        /* \"@chainlink/contracts/src/v0.8/mocks/VRFCoordinatorV2Mock.sol\":8938:8961  return 4000000000000000 */\n      swap1\n      pop\n        /* \"@chainlink/contracts/src/v0.8/mocks/VRFCoordinatorV2Mock.sol\":8864:8981  function getFallbackWeiPerUnitLink() external view returns (int256) {... */\n      swap1\n      jump\t// out\n        /* \"@chainlink/contracts/src/v0.8/mocks/VRFCoordinatorV2Mock.sol\":317:349  uint96 public immutable BASE_FEE */\n    tag_43:\n      immutable(\"0x745789b92be07c687207fcaa646243fe1826e3e7b5b33f386ac4f1c64a8b009a\")\n      dup2\n      jump\t// out\n        /* \"@chainlink/contracts/src/v0.8/mocks/VRFCoordinatorV2Mock.sol\":5081:5837  function requestRandomWords(... */\n    tag_49:\n        /* \"@chainlink/contracts/src/v0.8/mocks/VRFCoordinatorV2Mock.sol\":5312:5319  uint256 */\n      0x00\n        /* \"@chainlink/contracts/src/v0.8/mocks/VRFCoordinatorV2Mock.sol\":5283:5289  _subId */\n      dup5\n        /* \"@chainlink/contracts/src/v0.8/mocks/VRFCoordinatorV2Mock.sol\":5291:5301  msg.sender */\n      caller\n        /* \"@chainlink/contracts/src/v0.8/mocks/VRFCoordinatorV2Mock.sol\":2313:2347  consumerIsAdded(_subId, _consumer) */\n      tag_152\n        /* \"@chainlink/contracts/src/v0.8/mocks/VRFCoordinatorV2Mock.sol\":2329:2335  _subId */\n      dup3\n        /* \"@chainlink/contracts/src/v0.8/mocks/VRFCoordinatorV2Mock.sol\":2337:2346  _consumer */\n      dup3\n        /* \"@chainlink/contracts/src/v0.8/mocks/VRFCoordinatorV2Mock.sol\":2313:2328  consumerIsAdded */\n      tag_104\n        /* \"@chainlink/contracts/src/v0.8/mocks/VRFCoordinatorV2Mock.sol\":2313:2347  consumerIsAdded(_subId, _consumer) */\n      jump\t// in\n    tag_152:\n        /* \"@chainlink/contracts/src/v0.8/mocks/VRFCoordinatorV2Mock.sol\":2308:2388  if (!consumerIsAdded(_subId, _consumer)) {... */\n      tag_153\n      jumpi\n        /* \"@chainlink/contracts/src/v0.8/mocks/VRFCoordinatorV2Mock.sol\":2364:2381  InvalidConsumer() */\n      mload(0x40)\n      0x71e8313700000000000000000000000000000000000000000000000000000000\n      dup2\n      mstore\n      0x04\n      add\n      mload(0x40)\n      dup1\n      swap2\n      sub\n      swap1\n      revert\n        /* \"@chainlink/contracts/src/v0.8/mocks/VRFCoordinatorV2Mock.sol\":2308:2388  if (!consumerIsAdded(_subId, _consumer)) {... */\n    tag_153:\n        /* \"@chainlink/contracts/src/v0.8/mocks/VRFCoordinatorV2Mock.sol\":5372:5373  0 */\n      0x00\n        /* \"@chainlink/contracts/src/v0.8/mocks/VRFCoordinatorV2Mock.sol\":5331:5374  s_subscriptions[_subId].owner == address(0) */\n      0xffffffffffffffffffffffffffffffffffffffff\n      and\n        /* \"@chainlink/contracts/src/v0.8/mocks/VRFCoordinatorV2Mock.sol\":5331:5346  s_subscriptions */\n      0x03\n        /* \"@chainlink/contracts/src/v0.8/mocks/VRFCoordinatorV2Mock.sol\":5331:5354  s_subscriptions[_subId] */\n      0x00\n        /* \"@chainlink/contracts/src/v0.8/mocks/VRFCoordinatorV2Mock.sol\":5347:5353  _subId */\n      dup10\n        /* \"@chainlink/contracts/src/v0.8/mocks/VRFCoordinatorV2Mock.sol\":5331:5354  s_subscriptions[_subId] */\n      0xffffffffffffffff\n      and\n      0xffffffffffffffff\n      and\n      dup2\n      mstore\n      0x20\n      add\n      swap1\n      dup2\n      mstore\n      0x20\n      add\n      0x00\n      keccak256\n        /* \"@chainlink/contracts/src/v0.8/mocks/VRFCoordinatorV2Mock.sol\":5331:5360  s_subscriptions[_subId].owner */\n      0x00\n      add\n      0x00\n      swap1\n      sload\n      swap1\n      0x0100\n      exp\n      swap1\n      div\n      0xffffffffffffffffffffffffffffffffffffffff\n      and\n        /* \"@chainlink/contracts/src/v0.8/mocks/VRFCoordinatorV2Mock.sol\":5331:5374  s_subscriptions[_subId].owner == address(0) */\n      0xffffffffffffffffffffffffffffffffffffffff\n      and\n      sub\n        /* \"@chainlink/contracts/src/v0.8/mocks/VRFCoordinatorV2Mock.sol\":5327:5419  if (s_subscriptions[_subId].owner == address(0)) {... */\n      tag_155\n      jumpi\n        /* \"@chainlink/contracts/src/v0.8/mocks/VRFCoordinatorV2Mock.sol\":5391:5412  InvalidSubscription() */\n      mload(0x40)\n      0x1f6a65b600000000000000000000000000000000000000000000000000000000\n      dup2\n      mstore\n      0x04\n      add\n      mload(0x40)\n      dup1\n      swap2\n      sub\n      swap1\n      revert\n        /* \"@chainlink/contracts/src/v0.8/mocks/VRFCoordinatorV2Mock.sol\":5327:5419  if (s_subscriptions[_subId].owner == address(0)) {... */\n    tag_155:\n        /* \"@chainlink/contracts/src/v0.8/mocks/VRFCoordinatorV2Mock.sol\":5425:5442  uint256 requestId */\n      0x00\n        /* \"@chainlink/contracts/src/v0.8/mocks/VRFCoordinatorV2Mock.sol\":5445:5460  s_nextRequestId */\n      0x01\n      0x00\n        /* \"@chainlink/contracts/src/v0.8/mocks/VRFCoordinatorV2Mock.sol\":5445:5462  s_nextRequestId++ */\n      dup2\n      sload\n      dup1\n      swap3\n      swap2\n      swap1\n      tag_156\n      swap1\n      tag_157\n      jump\t// in\n    tag_156:\n      swap2\n      swap1\n      pop\n      sstore\n        /* \"@chainlink/contracts/src/v0.8/mocks/VRFCoordinatorV2Mock.sol\":5425:5462  uint256 requestId = s_nextRequestId++ */\n      swap1\n      pop\n        /* \"@chainlink/contracts/src/v0.8/mocks/VRFCoordinatorV2Mock.sol\":5468:5483  uint256 preSeed */\n      0x00\n        /* \"@chainlink/contracts/src/v0.8/mocks/VRFCoordinatorV2Mock.sol\":5486:5499  s_nextPreSeed */\n      0x02\n      0x00\n        /* \"@chainlink/contracts/src/v0.8/mocks/VRFCoordinatorV2Mock.sol\":5486:5501  s_nextPreSeed++ */\n      dup2\n      sload\n      dup1\n      swap3\n      swap2\n      swap1\n      tag_158\n      swap1\n      tag_157\n      jump\t// in\n    tag_158:\n      swap2\n      swap1\n      pop\n      sstore\n        /* \"@chainlink/contracts/src/v0.8/mocks/VRFCoordinatorV2Mock.sol\":5468:5501  uint256 preSeed = s_nextPreSeed++ */\n      swap1\n      pop\n        /* \"@chainlink/contracts/src/v0.8/mocks/VRFCoordinatorV2Mock.sol\":5532:5614  Request({subId: _subId, callbackGasLimit: _callbackGasLimit, numWords: _numWords}) */\n      mload(0x40)\n      dup1\n      0x60\n      add\n      0x40\n      mstore\n      dup1\n        /* \"@chainlink/contracts/src/v0.8/mocks/VRFCoordinatorV2Mock.sol\":5548:5554  _subId */\n      dup11\n        /* \"@chainlink/contracts/src/v0.8/mocks/VRFCoordinatorV2Mock.sol\":5532:5614  Request({subId: _subId, callbackGasLimit: _callbackGasLimit, numWords: _numWords}) */\n      0xffffffffffffffff\n      and\n      dup2\n      mstore\n      0x20\n      add\n        /* \"@chainlink/contracts/src/v0.8/mocks/VRFCoordinatorV2Mock.sol\":5574:5591  _callbackGasLimit */\n      dup9\n        /* \"@chainlink/contracts/src/v0.8/mocks/VRFCoordinatorV2Mock.sol\":5532:5614  Request({subId: _subId, callbackGasLimit: _callbackGasLimit, numWords: _numWords}) */\n      0xffffffff\n      and\n      dup2\n      mstore\n      0x20\n      add\n        /* \"@chainlink/contracts/src/v0.8/mocks/VRFCoordinatorV2Mock.sol\":5603:5612  _numWords */\n      dup8\n        /* \"@chainlink/contracts/src/v0.8/mocks/VRFCoordinatorV2Mock.sol\":5532:5614  Request({subId: _subId, callbackGasLimit: _callbackGasLimit, numWords: _numWords}) */\n      0xffffffff\n      and\n      dup2\n      mstore\n      pop\n        /* \"@chainlink/contracts/src/v0.8/mocks/VRFCoordinatorV2Mock.sol\":5508:5518  s_requests */\n      0x05\n        /* \"@chainlink/contracts/src/v0.8/mocks/VRFCoordinatorV2Mock.sol\":5508:5529  s_requests[requestId] */\n      0x00\n        /* \"@chainlink/contracts/src/v0.8/mocks/VRFCoordinatorV2Mock.sol\":5519:5528  requestId */\n      dup5\n        /* \"@chainlink/contracts/src/v0.8/mocks/VRFCoordinatorV2Mock.sol\":5508:5529  s_requests[requestId] */\n      dup2\n      mstore\n      0x20\n      add\n      swap1\n      dup2\n      mstore\n      0x20\n      add\n      0x00\n      keccak256\n        /* \"@chainlink/contracts/src/v0.8/mocks/VRFCoordinatorV2Mock.sol\":5508:5614  s_requests[requestId] = Request({subId: _subId, callbackGasLimit: _callbackGasLimit, numWords: _numWords}) */\n      0x00\n      dup3\n      add\n      mload\n      dup2\n      0x00\n      add\n      exp(0x0100, 0x00)\n      dup2\n      sload\n      dup2\n      0xffffffffffffffff\n      mul\n      not\n      and\n      swap1\n      dup4\n      0xffffffffffffffff\n      and\n      mul\n      or\n      swap1\n      sstore\n      pop\n      0x20\n      dup3\n      add\n      mload\n      dup2\n      0x00\n      add\n      exp(0x0100, 0x08)\n      dup2\n      sload\n      dup2\n      0xffffffff\n      mul\n      not\n      and\n      swap1\n      dup4\n      0xffffffff\n      and\n      mul\n      or\n      swap1\n      sstore\n      pop\n      0x40\n      dup3\n      add\n      mload\n      dup2\n      0x00\n      add\n      exp(0x0100, 0x0c)\n      dup2\n      sload\n      dup2\n      0xffffffff\n      mul\n      not\n      and\n      swap1\n      dup4\n      0xffffffff\n      and\n      mul\n      or\n      swap1\n      sstore\n      pop\n      swap1\n      pop\n      pop\n        /* \"@chainlink/contracts/src/v0.8/mocks/VRFCoordinatorV2Mock.sol\":5794:5804  msg.sender */\n      caller\n        /* \"@chainlink/contracts/src/v0.8/mocks/VRFCoordinatorV2Mock.sol\":5626:5810  RandomWordsRequested(... */\n      0xffffffffffffffffffffffffffffffffffffffff\n      and\n        /* \"@chainlink/contracts/src/v0.8/mocks/VRFCoordinatorV2Mock.sol\":5702:5708  _subId */\n      dup10\n        /* \"@chainlink/contracts/src/v0.8/mocks/VRFCoordinatorV2Mock.sol\":5626:5810  RandomWordsRequested(... */\n      0xffffffffffffffff\n      and\n        /* \"@chainlink/contracts/src/v0.8/mocks/VRFCoordinatorV2Mock.sol\":5654:5662  _keyHash */\n      dup12\n        /* \"@chainlink/contracts/src/v0.8/mocks/VRFCoordinatorV2Mock.sol\":5626:5810  RandomWordsRequested(... */\n      0x63373d1c4696214b898952999c9aaec57dac1ee2723cec59bea6888f489a9772\n        /* \"@chainlink/contracts/src/v0.8/mocks/VRFCoordinatorV2Mock.sol\":5670:5679  requestId */\n      dup6\n        /* \"@chainlink/contracts/src/v0.8/mocks/VRFCoordinatorV2Mock.sol\":5687:5694  preSeed */\n      dup6\n        /* \"@chainlink/contracts/src/v0.8/mocks/VRFCoordinatorV2Mock.sol\":5716:5744  _minimumRequestConfirmations */\n      dup14\n        /* \"@chainlink/contracts/src/v0.8/mocks/VRFCoordinatorV2Mock.sol\":5752:5769  _callbackGasLimit */\n      dup14\n        /* \"@chainlink/contracts/src/v0.8/mocks/VRFCoordinatorV2Mock.sol\":5777:5786  _numWords */\n      dup14\n        /* \"@chainlink/contracts/src/v0.8/mocks/VRFCoordinatorV2Mock.sol\":5626:5810  RandomWordsRequested(... */\n      mload(0x40)\n      tag_159\n      swap6\n      swap5\n      swap4\n      swap3\n      swap2\n      swap1\n      tag_160\n      jump\t// in\n    tag_159:\n      mload(0x40)\n      dup1\n      swap2\n      sub\n      swap1\n      log4\n        /* \"@chainlink/contracts/src/v0.8/mocks/VRFCoordinatorV2Mock.sol\":5823:5832  requestId */\n      dup2\n        /* \"@chainlink/contracts/src/v0.8/mocks/VRFCoordinatorV2Mock.sol\":5816:5832  return requestId */\n      swap5\n      pop\n      pop\n      pop\n        /* \"@chainlink/contracts/src/v0.8/mocks/VRFCoordinatorV2Mock.sol\":5081:5837  function requestRandomWords(... */\n      pop\n      pop\n      swap6\n      swap5\n      pop\n      pop\n      pop\n      pop\n      pop\n      jump\t// out\n        /* \"@chainlink/contracts/src/v0.8/mocks/VRFCoordinatorV2Mock.sol\":8270:8860  function getFeeConfig()... */\n    tag_53:\n        /* \"@chainlink/contracts/src/v0.8/mocks/VRFCoordinatorV2Mock.sol\":8336:8373  uint32 fulfillmentFlatFeeLinkPPMTier1 */\n      0x00\n        /* \"@chainlink/contracts/src/v0.8/mocks/VRFCoordinatorV2Mock.sol\":8381:8418  uint32 fulfillmentFlatFeeLinkPPMTier2 */\n      dup1\n        /* \"@chainlink/contracts/src/v0.8/mocks/VRFCoordinatorV2Mock.sol\":8426:8463  uint32 fulfillmentFlatFeeLinkPPMTier3 */\n      0x00\n        /* \"@chainlink/contracts/src/v0.8/mocks/VRFCoordinatorV2Mock.sol\":8471:8508  uint32 fulfillmentFlatFeeLinkPPMTier4 */\n      dup1\n        /* \"@chainlink/contracts/src/v0.8/mocks/VRFCoordinatorV2Mock.sol\":8516:8553  uint32 fulfillmentFlatFeeLinkPPMTier5 */\n      0x00\n        /* \"@chainlink/contracts/src/v0.8/mocks/VRFCoordinatorV2Mock.sol\":8561:8580  uint24 reqsForTier2 */\n      dup1\n        /* \"@chainlink/contracts/src/v0.8/mocks/VRFCoordinatorV2Mock.sol\":8588:8607  uint24 reqsForTier3 */\n      0x00\n        /* \"@chainlink/contracts/src/v0.8/mocks/VRFCoordinatorV2Mock.sol\":8615:8634  uint24 reqsForTier4 */\n      dup1\n        /* \"@chainlink/contracts/src/v0.8/mocks/VRFCoordinatorV2Mock.sol\":8642:8661  uint24 reqsForTier5 */\n      0x00\n        /* \"@chainlink/contracts/src/v0.8/mocks/VRFCoordinatorV2Mock.sol\":8691:8697  100000 */\n      0x0186a0\n        /* \"@chainlink/contracts/src/v0.8/mocks/VRFCoordinatorV2Mock.sol\":8717:8723  100000 */\n      dup1\n        /* \"@chainlink/contracts/src/v0.8/mocks/VRFCoordinatorV2Mock.sol\":8743:8749  100000 */\n      0x0186a0\n        /* \"@chainlink/contracts/src/v0.8/mocks/VRFCoordinatorV2Mock.sol\":8769:8775  100000 */\n      dup1\n        /* \"@chainlink/contracts/src/v0.8/mocks/VRFCoordinatorV2Mock.sol\":8795:8801  100000 */\n      0x0186a0\n        /* \"@chainlink/contracts/src/v0.8/mocks/VRFCoordinatorV2Mock.sol\":8821:8822  0 */\n      0x00\n        /* \"@chainlink/contracts/src/v0.8/mocks/VRFCoordinatorV2Mock.sol\":8830:8831  0 */\n      dup1\n        /* \"@chainlink/contracts/src/v0.8/mocks/VRFCoordinatorV2Mock.sol\":8839:8840  0 */\n      0x00\n        /* \"@chainlink/contracts/src/v0.8/mocks/VRFCoordinatorV2Mock.sol\":8848:8849  0 */\n      dup1\n        /* \"@chainlink/contracts/src/v0.8/mocks/VRFCoordinatorV2Mock.sol\":8676:8855  return (... */\n      swap9\n      pop\n      swap9\n      pop\n      swap9\n      pop\n      swap9\n      pop\n      swap9\n      pop\n      swap9\n      pop\n      swap9\n      pop\n      swap9\n      pop\n      swap9\n      pop\n        /* \"@chainlink/contracts/src/v0.8/mocks/VRFCoordinatorV2Mock.sol\":8270:8860  function getFeeConfig()... */\n      swap1\n      swap2\n      swap3\n      swap4\n      swap5\n      swap6\n      swap7\n      swap8\n      swap9\n      jump\t// out\n        /* \"@chainlink/contracts/src/v0.8/mocks/VRFCoordinatorV2Mock.sol\":395:438  uint16 public immutable MAX_CONSUMERS = 100 */\n    tag_57:\n      immutable(\"0x4b4b9efaff899efa2095e6e12f4c7ffa5d130c6cf88a562d7f7bbc11486ed4fb\")\n      dup2\n      jump\t// out\n        /* \"@chainlink/contracts/src/v0.8/mocks/VRFCoordinatorV2Mock.sol\":7174:7519  function addConsumer(uint64 _subId, address _consumer) external override onlySubOwner(_subId) {... */\n    tag_62:\n        /* \"@chainlink/contracts/src/v0.8/mocks/VRFCoordinatorV2Mock.sol\":7260:7266  _subId */\n      dup2\n        /* \"@chainlink/contracts/src/v0.8/mocks/VRFCoordinatorV2Mock.sol\":6779:6792  address owner */\n      0x00\n        /* \"@chainlink/contracts/src/v0.8/mocks/VRFCoordinatorV2Mock.sol\":6795:6810  s_subscriptions */\n      0x03\n        /* \"@chainlink/contracts/src/v0.8/mocks/VRFCoordinatorV2Mock.sol\":6795:6818  s_subscriptions[_subId] */\n      0x00\n        /* \"@chainlink/contracts/src/v0.8/mocks/VRFCoordinatorV2Mock.sol\":6811:6817  _subId */\n      dup4\n        /* \"@chainlink/contracts/src/v0.8/mocks/VRFCoordinatorV2Mock.sol\":6795:6818  s_subscriptions[_subId] */\n      0xffffffffffffffff\n      and\n      0xffffffffffffffff\n      and\n      dup2\n      mstore\n      0x20\n      add\n      swap1\n      dup2\n      mstore\n      0x20\n      add\n      0x00\n      keccak256\n        /* \"@chainlink/contracts/src/v0.8/mocks/VRFCoordinatorV2Mock.sol\":6795:6824  s_subscriptions[_subId].owner */\n      0x00\n      add\n      0x00\n      swap1\n      sload\n      swap1\n      0x0100\n      exp\n      swap1\n      div\n      0xffffffffffffffffffffffffffffffffffffffff\n      and\n        /* \"@chainlink/contracts/src/v0.8/mocks/VRFCoordinatorV2Mock.sol\":6779:6824  address owner = s_subscriptions[_subId].owner */\n      swap1\n      pop\n        /* \"@chainlink/contracts/src/v0.8/mocks/VRFCoordinatorV2Mock.sol\":6851:6852  0 */\n      0x00\n        /* \"@chainlink/contracts/src/v0.8/mocks/VRFCoordinatorV2Mock.sol\":6834:6853  owner == address(0) */\n      0xffffffffffffffffffffffffffffffffffffffff\n      and\n        /* \"@chainlink/contracts/src/v0.8/mocks/VRFCoordinatorV2Mock.sol\":6834:6839  owner */\n      dup2\n        /* \"@chainlink/contracts/src/v0.8/mocks/VRFCoordinatorV2Mock.sol\":6834:6853  owner == address(0) */\n      0xffffffffffffffffffffffffffffffffffffffff\n      and\n      sub\n        /* \"@chainlink/contracts/src/v0.8/mocks/VRFCoordinatorV2Mock.sol\":6830:6898  if (owner == address(0)) {... */\n      tag_163\n      jumpi\n        /* \"@chainlink/contracts/src/v0.8/mocks/VRFCoordinatorV2Mock.sol\":6870:6891  InvalidSubscription() */\n      mload(0x40)\n      0x1f6a65b600000000000000000000000000000000000000000000000000000000\n      dup2\n      mstore\n      0x04\n      add\n      mload(0x40)\n      dup1\n      swap2\n      sub\n      swap1\n      revert\n        /* \"@chainlink/contracts/src/v0.8/mocks/VRFCoordinatorV2Mock.sol\":6830:6898  if (owner == address(0)) {... */\n    tag_163:\n        /* \"@chainlink/contracts/src/v0.8/mocks/VRFCoordinatorV2Mock.sol\":6921:6926  owner */\n      dup1\n        /* \"@chainlink/contracts/src/v0.8/mocks/VRFCoordinatorV2Mock.sol\":6907:6926  msg.sender != owner */\n      0xffffffffffffffffffffffffffffffffffffffff\n      and\n        /* \"@chainlink/contracts/src/v0.8/mocks/VRFCoordinatorV2Mock.sol\":6907:6917  msg.sender */\n      caller\n        /* \"@chainlink/contracts/src/v0.8/mocks/VRFCoordinatorV2Mock.sol\":6907:6926  msg.sender != owner */\n      0xffffffffffffffffffffffffffffffffffffffff\n      and\n      eq\n        /* \"@chainlink/contracts/src/v0.8/mocks/VRFCoordinatorV2Mock.sol\":6903:6971  if (msg.sender != owner) {... */\n      tag_164\n      jumpi\n        /* \"@chainlink/contracts/src/v0.8/mocks/VRFCoordinatorV2Mock.sol\":6958:6963  owner */\n      dup1\n        /* \"@chainlink/contracts/src/v0.8/mocks/VRFCoordinatorV2Mock.sol\":6943:6964  MustBeSubOwner(owner) */\n      mload(0x40)\n      0xd8a3fb5200000000000000000000000000000000000000000000000000000000\n      dup2\n      mstore\n      0x04\n      add\n      tag_165\n      swap2\n      swap1\n      tag_166\n      jump\t// in\n    tag_165:\n      mload(0x40)\n      dup1\n      swap2\n      sub\n      swap1\n      revert\n        /* \"@chainlink/contracts/src/v0.8/mocks/VRFCoordinatorV2Mock.sol\":6903:6971  if (msg.sender != owner) {... */\n    tag_164:\n        /* \"@chainlink/contracts/src/v0.8/mocks/VRFCoordinatorV2Mock.sol\":7308:7321  MAX_CONSUMERS */\n      immutable(\"0x4b4b9efaff899efa2095e6e12f4c7ffa5d130c6cf88a562d7f7bbc11486ed4fb\")\n        /* \"@chainlink/contracts/src/v0.8/mocks/VRFCoordinatorV2Mock.sol\":7278:7321  s_consumers[_subId].length == MAX_CONSUMERS */\n      0xffff\n      and\n        /* \"@chainlink/contracts/src/v0.8/mocks/VRFCoordinatorV2Mock.sol\":7278:7289  s_consumers */\n      0x04\n        /* \"@chainlink/contracts/src/v0.8/mocks/VRFCoordinatorV2Mock.sol\":7278:7297  s_consumers[_subId] */\n      0x00\n        /* \"@chainlink/contracts/src/v0.8/mocks/VRFCoordinatorV2Mock.sol\":7290:7296  _subId */\n      dup7\n        /* \"@chainlink/contracts/src/v0.8/mocks/VRFCoordinatorV2Mock.sol\":7278:7297  s_consumers[_subId] */\n      0xffffffffffffffff\n      and\n      0xffffffffffffffff\n      and\n      dup2\n      mstore\n      0x20\n      add\n      swap1\n      dup2\n      mstore\n      0x20\n      add\n      0x00\n      keccak256\n        /* \"@chainlink/contracts/src/v0.8/mocks/VRFCoordinatorV2Mock.sol\":7278:7304  s_consumers[_subId].length */\n      dup1\n      sload\n      swap1\n      pop\n        /* \"@chainlink/contracts/src/v0.8/mocks/VRFCoordinatorV2Mock.sol\":7278:7321  s_consumers[_subId].length == MAX_CONSUMERS */\n      sub\n        /* \"@chainlink/contracts/src/v0.8/mocks/VRFCoordinatorV2Mock.sol\":7274:7363  if (s_consumers[_subId].length == MAX_CONSUMERS) {... */\n      tag_168\n      jumpi\n        /* \"@chainlink/contracts/src/v0.8/mocks/VRFCoordinatorV2Mock.sol\":7338:7356  TooManyConsumers() */\n      mload(0x40)\n      0x05a48e0f00000000000000000000000000000000000000000000000000000000\n      dup2\n      mstore\n      0x04\n      add\n      mload(0x40)\n      dup1\n      swap2\n      sub\n      swap1\n      revert\n        /* \"@chainlink/contracts/src/v0.8/mocks/VRFCoordinatorV2Mock.sol\":7274:7363  if (s_consumers[_subId].length == MAX_CONSUMERS) {... */\n    tag_168:\n        /* \"@chainlink/contracts/src/v0.8/mocks/VRFCoordinatorV2Mock.sol\":7373:7407  consumerIsAdded(_subId, _consumer) */\n      tag_169\n        /* \"@chainlink/contracts/src/v0.8/mocks/VRFCoordinatorV2Mock.sol\":7389:7395  _subId */\n      dup5\n        /* \"@chainlink/contracts/src/v0.8/mocks/VRFCoordinatorV2Mock.sol\":7397:7406  _consumer */\n      dup5\n        /* \"@chainlink/contracts/src/v0.8/mocks/VRFCoordinatorV2Mock.sol\":7373:7388  consumerIsAdded */\n      tag_104\n        /* \"@chainlink/contracts/src/v0.8/mocks/VRFCoordinatorV2Mock.sol\":7373:7407  consumerIsAdded(_subId, _consumer) */\n      jump\t// in\n    tag_169:\n        /* \"@chainlink/contracts/src/v0.8/mocks/VRFCoordinatorV2Mock.sol\":7417:7424  return; */\n      tag_167\n        /* \"@chainlink/contracts/src/v0.8/mocks/VRFCoordinatorV2Mock.sol\":7369:7430  if (consumerIsAdded(_subId, _consumer)) {... */\n      jumpi\n        /* \"@chainlink/contracts/src/v0.8/mocks/VRFCoordinatorV2Mock.sol\":7436:7447  s_consumers */\n      0x04\n        /* \"@chainlink/contracts/src/v0.8/mocks/VRFCoordinatorV2Mock.sol\":7436:7455  s_consumers[_subId] */\n      0x00\n        /* \"@chainlink/contracts/src/v0.8/mocks/VRFCoordinatorV2Mock.sol\":7448:7454  _subId */\n      dup6\n        /* \"@chainlink/contracts/src/v0.8/mocks/VRFCoordinatorV2Mock.sol\":7436:7455  s_consumers[_subId] */\n      0xffffffffffffffff\n      and\n      0xffffffffffffffff\n      and\n      dup2\n      mstore\n      0x20\n      add\n      swap1\n      dup2\n      mstore\n      0x20\n      add\n      0x00\n      keccak256\n        /* \"@chainlink/contracts/src/v0.8/mocks/VRFCoordinatorV2Mock.sol\":7461:7470  _consumer */\n      dup4\n        /* \"@chainlink/contracts/src/v0.8/mocks/VRFCoordinatorV2Mock.sol\":7436:7471  s_consumers[_subId].push(_consumer) */\n      swap1\n      dup1\n      0x01\n      dup2\n      sload\n      add\n      dup1\n      dup3\n      sstore\n      dup1\n      swap2\n      pop\n      pop\n      0x01\n      swap1\n      sub\n      swap1\n      0x00\n      mstore\n      keccak256(0x00, 0x20)\n      add\n      0x00\n      swap1\n      swap2\n      swap1\n      swap2\n      swap1\n      swap2\n      0x0100\n      exp\n      dup2\n      sload\n      dup2\n      0xffffffffffffffffffffffffffffffffffffffff\n      mul\n      not\n      and\n      swap1\n      dup4\n      0xffffffffffffffffffffffffffffffffffffffff\n      and\n      mul\n      or\n      swap1\n      sstore\n      pop\n        /* \"@chainlink/contracts/src/v0.8/mocks/VRFCoordinatorV2Mock.sol\":7496:7502  _subId */\n      dup4\n        /* \"@chainlink/contracts/src/v0.8/mocks/VRFCoordinatorV2Mock.sol\":7482:7514  ConsumerAdded(_subId, _consumer) */\n      0xffffffffffffffff\n      and\n      0x752ead9f4536ec1319ee3a5a604e1d65eded22e0924251552ba14ae4faa1bbc3\n        /* \"@chainlink/contracts/src/v0.8/mocks/VRFCoordinatorV2Mock.sol\":7504:7513  _consumer */\n      dup5\n        /* \"@chainlink/contracts/src/v0.8/mocks/VRFCoordinatorV2Mock.sol\":7482:7514  ConsumerAdded(_subId, _consumer) */\n      mload(0x40)\n      tag_172\n      swap2\n      swap1\n      tag_166\n      jump\t// in\n    tag_172:\n      mload(0x40)\n      dup1\n      swap2\n      sub\n      swap1\n      log2\n        /* \"@chainlink/contracts/src/v0.8/mocks/VRFCoordinatorV2Mock.sol\":6976:6977  _ */\n    tag_167:\n        /* \"@chainlink/contracts/src/v0.8/mocks/VRFCoordinatorV2Mock.sol\":6773:6982  {... */\n      pop\n        /* \"@chainlink/contracts/src/v0.8/mocks/VRFCoordinatorV2Mock.sol\":7174:7519  function addConsumer(uint64 _subId, address _consumer) external override onlySubOwner(_subId) {... */\n      pop\n      pop\n      pop\n      jump\t// out\n        /* \"@chainlink/contracts/src/v0.8/mocks/VRFCoordinatorV2Mock.sol\":2953:3111  function fulfillRandomWords(uint256 _requestId, address _consumer) external {... */\n    tag_66:\n        /* \"@chainlink/contracts/src/v0.8/mocks/VRFCoordinatorV2Mock.sol\":3035:3106  fulfillRandomWordsWithOverride(_requestId, _consumer, new uint256[](0)) */\n      tag_174\n        /* \"@chainlink/contracts/src/v0.8/mocks/VRFCoordinatorV2Mock.sol\":3066:3076  _requestId */\n      dup3\n        /* \"@chainlink/contracts/src/v0.8/mocks/VRFCoordinatorV2Mock.sol\":3078:3087  _consumer */\n      dup3\n        /* \"@chainlink/contracts/src/v0.8/mocks/VRFCoordinatorV2Mock.sol\":3103:3104  0 */\n      0x00\n        /* \"@chainlink/contracts/src/v0.8/mocks/VRFCoordinatorV2Mock.sol\":3089:3105  new uint256[](0) */\n      0xffffffffffffffff\n      dup2\n      gt\n      iszero\n      tag_175\n      jumpi\n      tag_176\n      tag_109\n      jump\t// in\n    tag_176:\n    tag_175:\n      mload(0x40)\n      swap1\n      dup1\n      dup3\n      mstore\n      dup1\n      0x20\n      mul\n      0x20\n      add\n      dup3\n      add\n      0x40\n      mstore\n      dup1\n      iszero\n      tag_177\n      jumpi\n      dup2\n      0x20\n      add\n      0x20\n      dup3\n      mul\n      dup1\n      calldatasize\n      dup4\n      calldatacopy\n      dup1\n      dup3\n      add\n      swap2\n      pop\n      pop\n      swap1\n      pop\n    tag_177:\n      pop\n        /* \"@chainlink/contracts/src/v0.8/mocks/VRFCoordinatorV2Mock.sol\":3035:3065  fulfillRandomWordsWithOverride */\n      tag_37\n        /* \"@chainlink/contracts/src/v0.8/mocks/VRFCoordinatorV2Mock.sol\":3035:3106  fulfillRandomWordsWithOverride(_requestId, _consumer, new uint256[](0)) */\n      jump\t// in\n    tag_174:\n        /* \"@chainlink/contracts/src/v0.8/mocks/VRFCoordinatorV2Mock.sol\":2953:3111  function fulfillRandomWords(uint256 _requestId, address _consumer) external {... */\n      pop\n      pop\n      jump\t// out\n        /* \"@chainlink/contracts/src/v0.8/mocks/VRFCoordinatorV2Mock.sol\":9124:9239  function acceptSubscriptionOwnerTransfer(uint64 _subId) external pure override {... */\n    tag_70:\n        /* \"@chainlink/contracts/src/v0.8/mocks/VRFCoordinatorV2Mock.sol\":9209:9234  revert(\"not implemented\") */\n      mload(0x40)\n      0x08c379a000000000000000000000000000000000000000000000000000000000\n      dup2\n      mstore\n      0x04\n      add\n      tag_179\n      swap1\n      tag_113\n      jump\t// in\n    tag_179:\n      mload(0x40)\n      dup1\n      swap2\n      sub\n      swap1\n      revert\n        /* \"@chainlink/contracts/src/v0.8/mocks/VRFCoordinatorV2Mock.sol\":7523:8012  function removeConsumer(uint64 _subId, address _consumer)... */\n    tag_73:\n        /* \"@chainlink/contracts/src/v0.8/mocks/VRFCoordinatorV2Mock.sol\":7624:7630  _subId */\n      dup2\n        /* \"@chainlink/contracts/src/v0.8/mocks/VRFCoordinatorV2Mock.sol\":6779:6792  address owner */\n      0x00\n        /* \"@chainlink/contracts/src/v0.8/mocks/VRFCoordinatorV2Mock.sol\":6795:6810  s_subscriptions */\n      0x03\n        /* \"@chainlink/contracts/src/v0.8/mocks/VRFCoordinatorV2Mock.sol\":6795:6818  s_subscriptions[_subId] */\n      0x00\n        /* \"@chainlink/contracts/src/v0.8/mocks/VRFCoordinatorV2Mock.sol\":6811:6817  _subId */\n      dup4\n        /* \"@chainlink/contracts/src/v0.8/mocks/VRFCoordinatorV2Mock.sol\":6795:6818  s_subscriptions[_subId] */\n      0xffffffffffffffff\n      and\n      0xffffffffffffffff\n      and\n      dup2\n      mstore\n      0x20\n      add\n      swap1\n      dup2\n      mstore\n      0x20\n      add\n      0x00\n      keccak256\n        /* \"@chainlink/contracts/src/v0.8/mocks/VRFCoordinatorV2Mock.sol\":6795:6824  s_subscriptions[_subId].owner */\n      0x00\n      add\n      0x00\n      swap1\n      sload\n      swap1\n      0x0100\n      exp\n      swap1\n      div\n      0xffffffffffffffffffffffffffffffffffffffff\n      and\n        /* \"@chainlink/contracts/src/v0.8/mocks/VRFCoordinatorV2Mock.sol\":6779:6824  address owner = s_subscriptions[_subId].owner */\n      swap1\n      pop\n        /* \"@chainlink/contracts/src/v0.8/mocks/VRFCoordinatorV2Mock.sol\":6851:6852  0 */\n      0x00\n        /* \"@chainlink/contracts/src/v0.8/mocks/VRFCoordinatorV2Mock.sol\":6834:6853  owner == address(0) */\n      0xffffffffffffffffffffffffffffffffffffffff\n      and\n        /* \"@chainlink/contracts/src/v0.8/mocks/VRFCoordinatorV2Mock.sol\":6834:6839  owner */\n      dup2\n        /* \"@chainlink/contracts/src/v0.8/mocks/VRFCoordinatorV2Mock.sol\":6834:6853  owner == address(0) */\n      0xffffffffffffffffffffffffffffffffffffffff\n      and\n      sub\n        /* \"@chainlink/contracts/src/v0.8/mocks/VRFCoordinatorV2Mock.sol\":6830:6898  if (owner == address(0)) {... */\n      tag_181\n      jumpi\n        /* \"@chainlink/contracts/src/v0.8/mocks/VRFCoordinatorV2Mock.sol\":6870:6891  InvalidSubscription() */\n      mload(0x40)\n      0x1f6a65b600000000000000000000000000000000000000000000000000000000\n      dup2\n      mstore\n      0x04\n      add\n      mload(0x40)\n      dup1\n      swap2\n      sub\n      swap1\n      revert\n        /* \"@chainlink/contracts/src/v0.8/mocks/VRFCoordinatorV2Mock.sol\":6830:6898  if (owner == address(0)) {... */\n    tag_181:\n        /* \"@chainlink/contracts/src/v0.8/mocks/VRFCoordinatorV2Mock.sol\":6921:6926  owner */\n      dup1\n        /* \"@chainlink/contracts/src/v0.8/mocks/VRFCoordinatorV2Mock.sol\":6907:6926  msg.sender != owner */\n      0xffffffffffffffffffffffffffffffffffffffff\n      and\n        /* \"@chainlink/contracts/src/v0.8/mocks/VRFCoordinatorV2Mock.sol\":6907:6917  msg.sender */\n      caller\n        /* \"@chainlink/contracts/src/v0.8/mocks/VRFCoordinatorV2Mock.sol\":6907:6926  msg.sender != owner */\n      0xffffffffffffffffffffffffffffffffffffffff\n      and\n      eq\n        /* \"@chainlink/contracts/src/v0.8/mocks/VRFCoordinatorV2Mock.sol\":6903:6971  if (msg.sender != owner) {... */\n      tag_182\n      jumpi\n        /* \"@chainlink/contracts/src/v0.8/mocks/VRFCoordinatorV2Mock.sol\":6958:6963  owner */\n      dup1\n        /* \"@chainlink/contracts/src/v0.8/mocks/VRFCoordinatorV2Mock.sol\":6943:6964  MustBeSubOwner(owner) */\n      mload(0x40)\n      0xd8a3fb5200000000000000000000000000000000000000000000000000000000\n      dup2\n      mstore\n      0x04\n      add\n      tag_183\n      swap2\n      swap1\n      tag_166\n      jump\t// in\n    tag_183:\n      mload(0x40)\n      dup1\n      swap2\n      sub\n      swap1\n      revert\n        /* \"@chainlink/contracts/src/v0.8/mocks/VRFCoordinatorV2Mock.sol\":6903:6971  if (msg.sender != owner) {... */\n    tag_182:\n        /* \"@chainlink/contracts/src/v0.8/mocks/VRFCoordinatorV2Mock.sol\":7654:7660  _subId */\n      dup4\n        /* \"@chainlink/contracts/src/v0.8/mocks/VRFCoordinatorV2Mock.sol\":7662:7671  _consumer */\n      dup4\n        /* \"@chainlink/contracts/src/v0.8/mocks/VRFCoordinatorV2Mock.sol\":2313:2347  consumerIsAdded(_subId, _consumer) */\n      tag_185\n        /* \"@chainlink/contracts/src/v0.8/mocks/VRFCoordinatorV2Mock.sol\":2329:2335  _subId */\n      dup3\n        /* \"@chainlink/contracts/src/v0.8/mocks/VRFCoordinatorV2Mock.sol\":2337:2346  _consumer */\n      dup3\n        /* \"@chainlink/contracts/src/v0.8/mocks/VRFCoordinatorV2Mock.sol\":2313:2328  consumerIsAdded */\n      tag_104\n        /* \"@chainlink/contracts/src/v0.8/mocks/VRFCoordinatorV2Mock.sol\":2313:2347  consumerIsAdded(_subId, _consumer) */\n      jump\t// in\n    tag_185:\n        /* \"@chainlink/contracts/src/v0.8/mocks/VRFCoordinatorV2Mock.sol\":2308:2388  if (!consumerIsAdded(_subId, _consumer)) {... */\n      tag_186\n      jumpi\n        /* \"@chainlink/contracts/src/v0.8/mocks/VRFCoordinatorV2Mock.sol\":2364:2381  InvalidConsumer() */\n      mload(0x40)\n      0x71e8313700000000000000000000000000000000000000000000000000000000\n      dup2\n      mstore\n      0x04\n      add\n      mload(0x40)\n      dup1\n      swap2\n      sub\n      swap1\n      revert\n        /* \"@chainlink/contracts/src/v0.8/mocks/VRFCoordinatorV2Mock.sol\":2308:2388  if (!consumerIsAdded(_subId, _consumer)) {... */\n    tag_186:\n        /* \"@chainlink/contracts/src/v0.8/mocks/VRFCoordinatorV2Mock.sol\":7681:7708  address[] storage consumers */\n      0x00\n        /* \"@chainlink/contracts/src/v0.8/mocks/VRFCoordinatorV2Mock.sol\":7711:7722  s_consumers */\n      0x04\n        /* \"@chainlink/contracts/src/v0.8/mocks/VRFCoordinatorV2Mock.sol\":7711:7730  s_consumers[_subId] */\n      0x00\n        /* \"@chainlink/contracts/src/v0.8/mocks/VRFCoordinatorV2Mock.sol\":7723:7729  _subId */\n      dup9\n        /* \"@chainlink/contracts/src/v0.8/mocks/VRFCoordinatorV2Mock.sol\":7711:7730  s_consumers[_subId] */\n      0xffffffffffffffff\n      and\n      0xffffffffffffffff\n      and\n      dup2\n      mstore\n      0x20\n      add\n      swap1\n      dup2\n      mstore\n      0x20\n      add\n      0x00\n      keccak256\n        /* \"@chainlink/contracts/src/v0.8/mocks/VRFCoordinatorV2Mock.sol\":7681:7730  address[] storage consumers = s_consumers[_subId] */\n      swap1\n      pop\n        /* \"@chainlink/contracts/src/v0.8/mocks/VRFCoordinatorV2Mock.sol\":7741:7750  uint256 i */\n      0x00\n        /* \"@chainlink/contracts/src/v0.8/mocks/VRFCoordinatorV2Mock.sol\":7736:7962  for (uint256 i = 0; i < consumers.length; i++) {... */\n    tag_188:\n        /* \"@chainlink/contracts/src/v0.8/mocks/VRFCoordinatorV2Mock.sol\":7760:7769  consumers */\n      dup2\n        /* \"@chainlink/contracts/src/v0.8/mocks/VRFCoordinatorV2Mock.sol\":7760:7776  consumers.length */\n      dup1\n      sload\n      swap1\n      pop\n        /* \"@chainlink/contracts/src/v0.8/mocks/VRFCoordinatorV2Mock.sol\":7756:7757  i */\n      dup2\n        /* \"@chainlink/contracts/src/v0.8/mocks/VRFCoordinatorV2Mock.sol\":7756:7776  i < consumers.length */\n      lt\n        /* \"@chainlink/contracts/src/v0.8/mocks/VRFCoordinatorV2Mock.sol\":7736:7962  for (uint256 i = 0; i < consumers.length; i++) {... */\n      iszero\n      tag_189\n      jumpi\n        /* \"@chainlink/contracts/src/v0.8/mocks/VRFCoordinatorV2Mock.sol\":7811:7820  _consumer */\n      dup7\n        /* \"@chainlink/contracts/src/v0.8/mocks/VRFCoordinatorV2Mock.sol\":7795:7820  consumers[i] == _consumer */\n      0xffffffffffffffffffffffffffffffffffffffff\n      and\n        /* \"@chainlink/contracts/src/v0.8/mocks/VRFCoordinatorV2Mock.sol\":7795:7804  consumers */\n      dup3\n        /* \"@chainlink/contracts/src/v0.8/mocks/VRFCoordinatorV2Mock.sol\":7805:7806  i */\n      dup3\n        /* \"@chainlink/contracts/src/v0.8/mocks/VRFCoordinatorV2Mock.sol\":7795:7807  consumers[i] */\n      dup2\n      sload\n      dup2\n      lt\n      tag_191\n      jumpi\n      tag_192\n      tag_129\n      jump\t// in\n    tag_192:\n    tag_191:\n      swap1\n      0x00\n      mstore\n      keccak256(0x00, 0x20)\n      add\n      0x00\n      swap1\n      sload\n      swap1\n      0x0100\n      exp\n      swap1\n      div\n      0xffffffffffffffffffffffffffffffffffffffff\n      and\n        /* \"@chainlink/contracts/src/v0.8/mocks/VRFCoordinatorV2Mock.sol\":7795:7820  consumers[i] == _consumer */\n      0xffffffffffffffffffffffffffffffffffffffff\n      and\n      sub\n        /* \"@chainlink/contracts/src/v0.8/mocks/VRFCoordinatorV2Mock.sol\":7791:7956  if (consumers[i] == _consumer) {... */\n      tag_194\n      jumpi\n        /* \"@chainlink/contracts/src/v0.8/mocks/VRFCoordinatorV2Mock.sol\":7832:7844  address last */\n      0x00\n        /* \"@chainlink/contracts/src/v0.8/mocks/VRFCoordinatorV2Mock.sol\":7847:7856  consumers */\n      dup3\n        /* \"@chainlink/contracts/src/v0.8/mocks/VRFCoordinatorV2Mock.sol\":7876:7877  1 */\n      0x01\n        /* \"@chainlink/contracts/src/v0.8/mocks/VRFCoordinatorV2Mock.sol\":7857:7866  consumers */\n      dup5\n        /* \"@chainlink/contracts/src/v0.8/mocks/VRFCoordinatorV2Mock.sol\":7857:7873  consumers.length */\n      dup1\n      sload\n      swap1\n      pop\n        /* \"@chainlink/contracts/src/v0.8/mocks/VRFCoordinatorV2Mock.sol\":7857:7877  consumers.length - 1 */\n      tag_195\n      swap2\n      swap1\n      tag_140\n      jump\t// in\n    tag_195:\n        /* \"@chainlink/contracts/src/v0.8/mocks/VRFCoordinatorV2Mock.sol\":7847:7878  consumers[consumers.length - 1] */\n      dup2\n      sload\n      dup2\n      lt\n      tag_196\n      jumpi\n      tag_197\n      tag_129\n      jump\t// in\n    tag_197:\n    tag_196:\n      swap1\n      0x00\n      mstore\n      keccak256(0x00, 0x20)\n      add\n      0x00\n      swap1\n      sload\n      swap1\n      0x0100\n      exp\n      swap1\n      div\n      0xffffffffffffffffffffffffffffffffffffffff\n      and\n        /* \"@chainlink/contracts/src/v0.8/mocks/VRFCoordinatorV2Mock.sol\":7832:7878  address last = consumers[consumers.length - 1] */\n      swap1\n      pop\n        /* \"@chainlink/contracts/src/v0.8/mocks/VRFCoordinatorV2Mock.sol\":7903:7907  last */\n      dup1\n        /* \"@chainlink/contracts/src/v0.8/mocks/VRFCoordinatorV2Mock.sol\":7888:7897  consumers */\n      dup4\n        /* \"@chainlink/contracts/src/v0.8/mocks/VRFCoordinatorV2Mock.sol\":7898:7899  i */\n      dup4\n        /* \"@chainlink/contracts/src/v0.8/mocks/VRFCoordinatorV2Mock.sol\":7888:7900  consumers[i] */\n      dup2\n      sload\n      dup2\n      lt\n      tag_199\n      jumpi\n      tag_200\n      tag_129\n      jump\t// in\n    tag_200:\n    tag_199:\n      swap1\n      0x00\n      mstore\n      keccak256(0x00, 0x20)\n      add\n      0x00\n        /* \"@chainlink/contracts/src/v0.8/mocks/VRFCoordinatorV2Mock.sol\":7888:7907  consumers[i] = last */\n      0x0100\n      exp\n      dup2\n      sload\n      dup2\n      0xffffffffffffffffffffffffffffffffffffffff\n      mul\n      not\n      and\n      swap1\n      dup4\n      0xffffffffffffffffffffffffffffffffffffffff\n      and\n      mul\n      or\n      swap1\n      sstore\n      pop\n        /* \"@chainlink/contracts/src/v0.8/mocks/VRFCoordinatorV2Mock.sol\":7917:7926  consumers */\n      dup3\n        /* \"@chainlink/contracts/src/v0.8/mocks/VRFCoordinatorV2Mock.sol\":7917:7932  consumers.pop() */\n      dup1\n      sload\n      dup1\n      tag_202\n      jumpi\n      tag_203\n      tag_204\n      jump\t// in\n    tag_203:\n    tag_202:\n      0x01\n      swap1\n      sub\n      dup2\n      dup2\n      swap1\n      0x00\n      mstore\n      keccak256(0x00, 0x20)\n      add\n      exp(0x0100, 0x00)\n      dup2\n      sload\n      swap1\n      0xffffffffffffffffffffffffffffffffffffffff\n      mul\n      not\n      and\n      swap1\n      sstore\n      swap1\n      sstore\n        /* \"@chainlink/contracts/src/v0.8/mocks/VRFCoordinatorV2Mock.sol\":7942:7947  break */\n      pop\n      jump(tag_189)\n        /* \"@chainlink/contracts/src/v0.8/mocks/VRFCoordinatorV2Mock.sol\":7791:7956  if (consumers[i] == _consumer) {... */\n    tag_194:\n        /* \"@chainlink/contracts/src/v0.8/mocks/VRFCoordinatorV2Mock.sol\":7778:7781  i++ */\n      dup1\n      dup1\n      0x01\n      add\n      swap2\n      pop\n      pop\n        /* \"@chainlink/contracts/src/v0.8/mocks/VRFCoordinatorV2Mock.sol\":7736:7962  for (uint256 i = 0; i < consumers.length; i++) {... */\n      jump(tag_188)\n    tag_189:\n      pop\n        /* \"@chainlink/contracts/src/v0.8/mocks/VRFCoordinatorV2Mock.sol\":7989:7995  _subId */\n      dup7\n        /* \"@chainlink/contracts/src/v0.8/mocks/VRFCoordinatorV2Mock.sol\":7973:8007  ConsumerRemoved(_subId, _consumer) */\n      0xffffffffffffffff\n      and\n      0xf9bc9d5b5733d904409def43a5ecc888dbdac9a95687780d8fd489d3bb3813fc\n        /* \"@chainlink/contracts/src/v0.8/mocks/VRFCoordinatorV2Mock.sol\":7997:8006  _consumer */\n      dup8\n        /* \"@chainlink/contracts/src/v0.8/mocks/VRFCoordinatorV2Mock.sol\":7973:8007  ConsumerRemoved(_subId, _consumer) */\n      mload(0x40)\n      tag_206\n      swap2\n      swap1\n      tag_166\n      jump\t// in\n    tag_206:\n      mload(0x40)\n      dup1\n      swap2\n      sub\n      swap1\n      log2\n        /* \"@chainlink/contracts/src/v0.8/mocks/VRFCoordinatorV2Mock.sol\":7675:8012  {... */\n      pop\n        /* \"@chainlink/contracts/src/v0.8/mocks/VRFCoordinatorV2Mock.sol\":6976:6977  _ */\n      pop\n      pop\n        /* \"@chainlink/contracts/src/v0.8/mocks/VRFCoordinatorV2Mock.sol\":6773:6982  {... */\n      pop\n        /* \"@chainlink/contracts/src/v0.8/mocks/VRFCoordinatorV2Mock.sol\":7523:8012  function removeConsumer(uint64 _subId, address _consumer)... */\n      pop\n      pop\n      pop\n      jump\t// out\n        /* \"@chainlink/contracts/src/v0.8/mocks/VRFCoordinatorV2Mock.sol\":5841:6110  function createSubscription() external override returns (uint64 _subId) {... */\n    tag_75:\n        /* \"@chainlink/contracts/src/v0.8/mocks/VRFCoordinatorV2Mock.sol\":5898:5911  uint64 _subId */\n      0x00\n        /* \"@chainlink/contracts/src/v0.8/mocks/VRFCoordinatorV2Mock.sol\":5919:5933  s_currentSubId */\n      dup1\n      0x00\n        /* \"@chainlink/contracts/src/v0.8/mocks/VRFCoordinatorV2Mock.sol\":5919:5935  s_currentSubId++ */\n      dup2\n      dup2\n      swap1\n      sload\n      swap1\n      0x0100\n      exp\n      swap1\n      div\n      0xffffffffffffffff\n      and\n      dup1\n      swap3\n      swap2\n      swap1\n      tag_208\n      swap1\n      tag_209\n      jump\t// in\n    tag_208:\n      swap2\n      swap1\n      0x0100\n      exp\n      dup2\n      sload\n      dup2\n      0xffffffffffffffff\n      mul\n      not\n      and\n      swap1\n      dup4\n      0xffffffffffffffff\n      and\n      mul\n      or\n      swap1\n      sstore\n      pop\n      pop\n        /* \"@chainlink/contracts/src/v0.8/mocks/VRFCoordinatorV2Mock.sol\":5975:6020  Subscription({owner: msg.sender, balance: 0}) */\n      mload(0x40)\n      dup1\n      0x40\n      add\n      0x40\n      mstore\n      dup1\n        /* \"@chainlink/contracts/src/v0.8/mocks/VRFCoordinatorV2Mock.sol\":5996:6006  msg.sender */\n      caller\n        /* \"@chainlink/contracts/src/v0.8/mocks/VRFCoordinatorV2Mock.sol\":5975:6020  Subscription({owner: msg.sender, balance: 0}) */\n      0xffffffffffffffffffffffffffffffffffffffff\n      and\n      dup2\n      mstore\n      0x20\n      add\n        /* \"@chainlink/contracts/src/v0.8/mocks/VRFCoordinatorV2Mock.sol\":6017:6018  0 */\n      0x00\n        /* \"@chainlink/contracts/src/v0.8/mocks/VRFCoordinatorV2Mock.sol\":5975:6020  Subscription({owner: msg.sender, balance: 0}) */\n      0xffffffffffffffffffffffff\n      and\n      dup2\n      mstore\n      pop\n        /* \"@chainlink/contracts/src/v0.8/mocks/VRFCoordinatorV2Mock.sol\":5941:5956  s_subscriptions */\n      0x03\n        /* \"@chainlink/contracts/src/v0.8/mocks/VRFCoordinatorV2Mock.sol\":5941:5972  s_subscriptions[s_currentSubId] */\n      0x00\n        /* \"@chainlink/contracts/src/v0.8/mocks/VRFCoordinatorV2Mock.sol\":5957:5971  s_currentSubId */\n      dup1\n      0x00\n      swap1\n      sload\n      swap1\n      0x0100\n      exp\n      swap1\n      div\n      0xffffffffffffffff\n      and\n        /* \"@chainlink/contracts/src/v0.8/mocks/VRFCoordinatorV2Mock.sol\":5941:5972  s_subscriptions[s_currentSubId] */\n      0xffffffffffffffff\n      and\n      0xffffffffffffffff\n      and\n      dup2\n      mstore\n      0x20\n      add\n      swap1\n      dup2\n      mstore\n      0x20\n      add\n      0x00\n      keccak256\n        /* \"@chainlink/contracts/src/v0.8/mocks/VRFCoordinatorV2Mock.sol\":5941:6020  s_subscriptions[s_currentSubId] = Subscription({owner: msg.sender, balance: 0}) */\n      0x00\n      dup3\n      add\n      mload\n      dup2\n      0x00\n      add\n      exp(0x0100, 0x00)\n      dup2\n      sload\n      dup2\n      0xffffffffffffffffffffffffffffffffffffffff\n      mul\n      not\n      and\n      swap1\n      dup4\n      0xffffffffffffffffffffffffffffffffffffffff\n      and\n      mul\n      or\n      swap1\n      sstore\n      pop\n      0x20\n      dup3\n      add\n      mload\n      dup2\n      0x00\n      add\n      exp(0x0100, 0x14)\n      dup2\n      sload\n      dup2\n      0xffffffffffffffffffffffff\n      mul\n      not\n      and\n      swap1\n      dup4\n      0xffffffffffffffffffffffff\n      and\n      mul\n      or\n      swap1\n      sstore\n      pop\n      swap1\n      pop\n      pop\n        /* \"@chainlink/contracts/src/v0.8/mocks/VRFCoordinatorV2Mock.sol\":6051:6065  s_currentSubId */\n      0x00\n      dup1\n      sload\n      swap1\n      0x0100\n      exp\n      swap1\n      div\n      0xffffffffffffffff\n      and\n        /* \"@chainlink/contracts/src/v0.8/mocks/VRFCoordinatorV2Mock.sol\":6031:6078  SubscriptionCreated(s_currentSubId, msg.sender) */\n      0xffffffffffffffff\n      and\n      0x464722b4166576d3dcbba877b999bc35cf911f4eaf434b7eba68fa113951d0bf\n        /* \"@chainlink/contracts/src/v0.8/mocks/VRFCoordinatorV2Mock.sol\":6067:6077  msg.sender */\n      caller\n        /* \"@chainlink/contracts/src/v0.8/mocks/VRFCoordinatorV2Mock.sol\":6031:6078  SubscriptionCreated(s_currentSubId, msg.sender) */\n      mload(0x40)\n      tag_210\n      swap2\n      swap1\n      tag_166\n      jump\t// in\n    tag_210:\n      mload(0x40)\n      dup1\n      swap2\n      sub\n      swap1\n      log2\n        /* \"@chainlink/contracts/src/v0.8/mocks/VRFCoordinatorV2Mock.sol\":6091:6105  s_currentSubId */\n      0x00\n      dup1\n      sload\n      swap1\n      0x0100\n      exp\n      swap1\n      div\n      0xffffffffffffffff\n      and\n        /* \"@chainlink/contracts/src/v0.8/mocks/VRFCoordinatorV2Mock.sol\":6084:6105  return s_currentSubId */\n      swap1\n      pop\n        /* \"@chainlink/contracts/src/v0.8/mocks/VRFCoordinatorV2Mock.sol\":5841:6110  function createSubscription() external override returns (uint64 _subId) {... */\n      swap1\n      jump\t// out\n        /* \"@chainlink/contracts/src/v0.8/mocks/VRFCoordinatorV2Mock.sol\":353:391  uint96 public immutable GAS_PRICE_LINK */\n    tag_79:\n      immutable(\"0x88a32c6dd03906ed0b4cd657b3c8f0eead37f709d7c7adabd129c27e0b9dbe0c\")\n      dup2\n      jump\t// out\n        /* \"@chainlink/contracts/src/v0.8/mocks/VRFCoordinatorV2Mock.sol\":6114:6513  function getSubscription(uint64 _subId)... */\n    tag_83:\n        /* \"@chainlink/contracts/src/v0.8/mocks/VRFCoordinatorV2Mock.sol\":6209:6223  uint96 balance */\n      0x00\n        /* \"@chainlink/contracts/src/v0.8/mocks/VRFCoordinatorV2Mock.sol\":6231:6246  uint64 reqCount */\n      dup1\n        /* \"@chainlink/contracts/src/v0.8/mocks/VRFCoordinatorV2Mock.sol\":6254:6267  address owner */\n      0x00\n        /* \"@chainlink/contracts/src/v0.8/mocks/VRFCoordinatorV2Mock.sol\":6275:6301  address[] memory consumers */\n      0x60\n        /* \"@chainlink/contracts/src/v0.8/mocks/VRFCoordinatorV2Mock.sol\":6361:6362  0 */\n      0x00\n        /* \"@chainlink/contracts/src/v0.8/mocks/VRFCoordinatorV2Mock.sol\":6320:6363  s_subscriptions[_subId].owner == address(0) */\n      0xffffffffffffffffffffffffffffffffffffffff\n      and\n        /* \"@chainlink/contracts/src/v0.8/mocks/VRFCoordinatorV2Mock.sol\":6320:6335  s_subscriptions */\n      0x03\n        /* \"@chainlink/contracts/src/v0.8/mocks/VRFCoordinatorV2Mock.sol\":6320:6343  s_subscriptions[_subId] */\n      0x00\n        /* \"@chainlink/contracts/src/v0.8/mocks/VRFCoordinatorV2Mock.sol\":6336:6342  _subId */\n      dup8\n        /* \"@chainlink/contracts/src/v0.8/mocks/VRFCoordinatorV2Mock.sol\":6320:6343  s_subscriptions[_subId] */\n      0xffffffffffffffff\n      and\n      0xffffffffffffffff\n      and\n      dup2\n      mstore\n      0x20\n      add\n      swap1\n      dup2\n      mstore\n      0x20\n      add\n      0x00\n      keccak256\n        /* \"@chainlink/contracts/src/v0.8/mocks/VRFCoordinatorV2Mock.sol\":6320:6349  s_subscriptions[_subId].owner */\n      0x00\n      add\n      0x00\n      swap1\n      sload\n      swap1\n      0x0100\n      exp\n      swap1\n      div\n      0xffffffffffffffffffffffffffffffffffffffff\n      and\n        /* \"@chainlink/contracts/src/v0.8/mocks/VRFCoordinatorV2Mock.sol\":6320:6363  s_subscriptions[_subId].owner == address(0) */\n      0xffffffffffffffffffffffffffffffffffffffff\n      and\n      sub\n        /* \"@chainlink/contracts/src/v0.8/mocks/VRFCoordinatorV2Mock.sol\":6316:6408  if (s_subscriptions[_subId].owner == address(0)) {... */\n      tag_212\n      jumpi\n        /* \"@chainlink/contracts/src/v0.8/mocks/VRFCoordinatorV2Mock.sol\":6380:6401  InvalidSubscription() */\n      mload(0x40)\n      0x1f6a65b600000000000000000000000000000000000000000000000000000000\n      dup2\n      mstore\n      0x04\n      add\n      mload(0x40)\n      dup1\n      swap2\n      sub\n      swap1\n      revert\n        /* \"@chainlink/contracts/src/v0.8/mocks/VRFCoordinatorV2Mock.sol\":6316:6408  if (s_subscriptions[_subId].owner == address(0)) {... */\n    tag_212:\n        /* \"@chainlink/contracts/src/v0.8/mocks/VRFCoordinatorV2Mock.sol\":6421:6436  s_subscriptions */\n      0x03\n        /* \"@chainlink/contracts/src/v0.8/mocks/VRFCoordinatorV2Mock.sol\":6421:6444  s_subscriptions[_subId] */\n      0x00\n        /* \"@chainlink/contracts/src/v0.8/mocks/VRFCoordinatorV2Mock.sol\":6437:6443  _subId */\n      dup7\n        /* \"@chainlink/contracts/src/v0.8/mocks/VRFCoordinatorV2Mock.sol\":6421:6444  s_subscriptions[_subId] */\n      0xffffffffffffffff\n      and\n      0xffffffffffffffff\n      and\n      dup2\n      mstore\n      0x20\n      add\n      swap1\n      dup2\n      mstore\n      0x20\n      add\n      0x00\n      keccak256\n        /* \"@chainlink/contracts/src/v0.8/mocks/VRFCoordinatorV2Mock.sol\":6421:6452  s_subscriptions[_subId].balance */\n      0x00\n      add\n      0x14\n      swap1\n      sload\n      swap1\n      0x0100\n      exp\n      swap1\n      div\n      0xffffffffffffffffffffffff\n      and\n        /* \"@chainlink/contracts/src/v0.8/mocks/VRFCoordinatorV2Mock.sol\":6454:6455  0 */\n      0x00\n        /* \"@chainlink/contracts/src/v0.8/mocks/VRFCoordinatorV2Mock.sol\":6457:6472  s_subscriptions */\n      0x03\n        /* \"@chainlink/contracts/src/v0.8/mocks/VRFCoordinatorV2Mock.sol\":6457:6480  s_subscriptions[_subId] */\n      0x00\n        /* \"@chainlink/contracts/src/v0.8/mocks/VRFCoordinatorV2Mock.sol\":6473:6479  _subId */\n      dup9\n        /* \"@chainlink/contracts/src/v0.8/mocks/VRFCoordinatorV2Mock.sol\":6457:6480  s_subscriptions[_subId] */\n      0xffffffffffffffff\n      and\n      0xffffffffffffffff\n      and\n      dup2\n      mstore\n      0x20\n      add\n      swap1\n      dup2\n      mstore\n      0x20\n      add\n      0x00\n      keccak256\n        /* \"@chainlink/contracts/src/v0.8/mocks/VRFCoordinatorV2Mock.sol\":6457:6486  s_subscriptions[_subId].owner */\n      0x00\n      add\n      0x00\n      swap1\n      sload\n      swap1\n      0x0100\n      exp\n      swap1\n      div\n      0xffffffffffffffffffffffffffffffffffffffff\n      and\n        /* \"@chainlink/contracts/src/v0.8/mocks/VRFCoordinatorV2Mock.sol\":6488:6499  s_consumers */\n      0x04\n        /* \"@chainlink/contracts/src/v0.8/mocks/VRFCoordinatorV2Mock.sol\":6488:6507  s_consumers[_subId] */\n      0x00\n        /* \"@chainlink/contracts/src/v0.8/mocks/VRFCoordinatorV2Mock.sol\":6500:6506  _subId */\n      dup10\n        /* \"@chainlink/contracts/src/v0.8/mocks/VRFCoordinatorV2Mock.sol\":6488:6507  s_consumers[_subId] */\n      0xffffffffffffffff\n      and\n      0xffffffffffffffff\n      and\n      dup2\n      mstore\n      0x20\n      add\n      swap1\n      dup2\n      mstore\n      0x20\n      add\n      0x00\n      keccak256\n        /* \"@chainlink/contracts/src/v0.8/mocks/VRFCoordinatorV2Mock.sol\":6413:6508  return (s_subscriptions[_subId].balance, 0, s_subscriptions[_subId].owner, s_consumers[_subId]) */\n      dup1\n      dup1\n      sload\n      dup1\n      0x20\n      mul\n      0x20\n      add\n      mload(0x40)\n      swap1\n      dup2\n      add\n      0x40\n      mstore\n      dup1\n      swap3\n      swap2\n      swap1\n      dup2\n      dup2\n      mstore\n      0x20\n      add\n      dup3\n      dup1\n      sload\n      dup1\n      iszero\n      tag_213\n      jumpi\n      0x20\n      mul\n      dup3\n      add\n      swap2\n      swap1\n      0x00\n      mstore\n      keccak256(0x00, 0x20)\n      swap1\n    tag_214:\n      dup2\n      0x00\n      swap1\n      sload\n      swap1\n      0x0100\n      exp\n      swap1\n      div\n      0xffffffffffffffffffffffffffffffffffffffff\n      and\n      0xffffffffffffffffffffffffffffffffffffffff\n      and\n      dup2\n      mstore\n      0x20\n      add\n      swap1\n      0x01\n      add\n      swap1\n      dup1\n      dup4\n      gt\n      tag_214\n      jumpi\n    tag_213:\n      pop\n      pop\n      pop\n      pop\n      pop\n      swap1\n      pop\n      swap4\n      pop\n      swap4\n      pop\n      swap4\n      pop\n      swap4\n      pop\n        /* \"@chainlink/contracts/src/v0.8/mocks/VRFCoordinatorV2Mock.sol\":6114:6513  function getSubscription(uint64 _subId)... */\n      swap2\n      swap4\n      pop\n      swap2\n      swap4\n      jump\t// out\n        /* \"@chainlink/contracts/src/v0.8/mocks/VRFCoordinatorV2Mock.sol\":4735:5077  function fundSubscription(uint64 _subId, uint96 _amount) public {... */\n    tag_89:\n        /* \"@chainlink/contracts/src/v0.8/mocks/VRFCoordinatorV2Mock.sol\":4850:4851  0 */\n      0x00\n        /* \"@chainlink/contracts/src/v0.8/mocks/VRFCoordinatorV2Mock.sol\":4809:4852  s_subscriptions[_subId].owner == address(0) */\n      0xffffffffffffffffffffffffffffffffffffffff\n      and\n        /* \"@chainlink/contracts/src/v0.8/mocks/VRFCoordinatorV2Mock.sol\":4809:4824  s_subscriptions */\n      0x03\n        /* \"@chainlink/contracts/src/v0.8/mocks/VRFCoordinatorV2Mock.sol\":4809:4832  s_subscriptions[_subId] */\n      0x00\n        /* \"@chainlink/contracts/src/v0.8/mocks/VRFCoordinatorV2Mock.sol\":4825:4831  _subId */\n      dup5\n        /* \"@chainlink/contracts/src/v0.8/mocks/VRFCoordinatorV2Mock.sol\":4809:4832  s_subscriptions[_subId] */\n      0xffffffffffffffff\n      and\n      0xffffffffffffffff\n      and\n      dup2\n      mstore\n      0x20\n      add\n      swap1\n      dup2\n      mstore\n      0x20\n      add\n      0x00\n      keccak256\n        /* \"@chainlink/contracts/src/v0.8/mocks/VRFCoordinatorV2Mock.sol\":4809:4838  s_subscriptions[_subId].owner */\n      0x00\n      add\n      0x00\n      swap1\n      sload\n      swap1\n      0x0100\n      exp\n      swap1\n      div\n      0xffffffffffffffffffffffffffffffffffffffff\n      and\n        /* \"@chainlink/contracts/src/v0.8/mocks/VRFCoordinatorV2Mock.sol\":4809:4852  s_subscriptions[_subId].owner == address(0) */\n      0xffffffffffffffffffffffffffffffffffffffff\n      and\n      sub\n        /* \"@chainlink/contracts/src/v0.8/mocks/VRFCoordinatorV2Mock.sol\":4805:4897  if (s_subscriptions[_subId].owner == address(0)) {... */\n      tag_216\n      jumpi\n        /* \"@chainlink/contracts/src/v0.8/mocks/VRFCoordinatorV2Mock.sol\":4869:4890  InvalidSubscription() */\n      mload(0x40)\n      0x1f6a65b600000000000000000000000000000000000000000000000000000000\n      dup2\n      mstore\n      0x04\n      add\n      mload(0x40)\n      dup1\n      swap2\n      sub\n      swap1\n      revert\n        /* \"@chainlink/contracts/src/v0.8/mocks/VRFCoordinatorV2Mock.sol\":4805:4897  if (s_subscriptions[_subId].owner == address(0)) {... */\n    tag_216:\n        /* \"@chainlink/contracts/src/v0.8/mocks/VRFCoordinatorV2Mock.sol\":4902:4919  uint96 oldBalance */\n      0x00\n        /* \"@chainlink/contracts/src/v0.8/mocks/VRFCoordinatorV2Mock.sol\":4922:4937  s_subscriptions */\n      0x03\n        /* \"@chainlink/contracts/src/v0.8/mocks/VRFCoordinatorV2Mock.sol\":4922:4945  s_subscriptions[_subId] */\n      0x00\n        /* \"@chainlink/contracts/src/v0.8/mocks/VRFCoordinatorV2Mock.sol\":4938:4944  _subId */\n      dup5\n        /* \"@chainlink/contracts/src/v0.8/mocks/VRFCoordinatorV2Mock.sol\":4922:4945  s_subscriptions[_subId] */\n      0xffffffffffffffff\n      and\n      0xffffffffffffffff\n      and\n      dup2\n      mstore\n      0x20\n      add\n      swap1\n      dup2\n      mstore\n      0x20\n      add\n      0x00\n      keccak256\n        /* \"@chainlink/contracts/src/v0.8/mocks/VRFCoordinatorV2Mock.sol\":4922:4953  s_subscriptions[_subId].balance */\n      0x00\n      add\n      0x14\n      swap1\n      sload\n      swap1\n      0x0100\n      exp\n      swap1\n      div\n      0xffffffffffffffffffffffff\n      and\n        /* \"@chainlink/contracts/src/v0.8/mocks/VRFCoordinatorV2Mock.sol\":4902:4953  uint96 oldBalance = s_subscriptions[_subId].balance */\n      swap1\n      pop\n        /* \"@chainlink/contracts/src/v0.8/mocks/VRFCoordinatorV2Mock.sol\":4994:5001  _amount */\n      dup2\n        /* \"@chainlink/contracts/src/v0.8/mocks/VRFCoordinatorV2Mock.sol\":4959:4974  s_subscriptions */\n      0x03\n        /* \"@chainlink/contracts/src/v0.8/mocks/VRFCoordinatorV2Mock.sol\":4959:4982  s_subscriptions[_subId] */\n      0x00\n        /* \"@chainlink/contracts/src/v0.8/mocks/VRFCoordinatorV2Mock.sol\":4975:4981  _subId */\n      dup6\n        /* \"@chainlink/contracts/src/v0.8/mocks/VRFCoordinatorV2Mock.sol\":4959:4982  s_subscriptions[_subId] */\n      0xffffffffffffffff\n      and\n      0xffffffffffffffff\n      and\n      dup2\n      mstore\n      0x20\n      add\n      swap1\n      dup2\n      mstore\n      0x20\n      add\n      0x00\n      keccak256\n        /* \"@chainlink/contracts/src/v0.8/mocks/VRFCoordinatorV2Mock.sol\":4959:4990  s_subscriptions[_subId].balance */\n      0x00\n      add\n      0x14\n        /* \"@chainlink/contracts/src/v0.8/mocks/VRFCoordinatorV2Mock.sol\":4959:5001  s_subscriptions[_subId].balance += _amount */\n      dup3\n      dup3\n      dup3\n      swap1\n      sload\n      swap1\n      0x0100\n      exp\n      swap1\n      div\n      0xffffffffffffffffffffffff\n      and\n      tag_217\n      swap2\n      swap1\n      tag_218\n      jump\t// in\n    tag_217:\n      swap3\n      pop\n      0x0100\n      exp\n      dup2\n      sload\n      dup2\n      0xffffffffffffffffffffffff\n      mul\n      not\n      and\n      swap1\n      dup4\n      0xffffffffffffffffffffffff\n      and\n      mul\n      or\n      swap1\n      sstore\n      pop\n        /* \"@chainlink/contracts/src/v0.8/mocks/VRFCoordinatorV2Mock.sol\":5031:5037  _subId */\n      dup3\n        /* \"@chainlink/contracts/src/v0.8/mocks/VRFCoordinatorV2Mock.sol\":5012:5072  SubscriptionFunded(_subId, oldBalance, oldBalance + _amount) */\n      0xffffffffffffffff\n      and\n      0xd39ec07f4e209f627a4c427971473820dc129761ba28de8906bd56f57101d4f8\n        /* \"@chainlink/contracts/src/v0.8/mocks/VRFCoordinatorV2Mock.sol\":5039:5049  oldBalance */\n      dup3\n        /* \"@chainlink/contracts/src/v0.8/mocks/VRFCoordinatorV2Mock.sol\":5064:5071  _amount */\n      dup5\n        /* \"@chainlink/contracts/src/v0.8/mocks/VRFCoordinatorV2Mock.sol\":5051:5061  oldBalance */\n      dup5\n        /* \"@chainlink/contracts/src/v0.8/mocks/VRFCoordinatorV2Mock.sol\":5051:5071  oldBalance + _amount */\n      tag_219\n      swap2\n      swap1\n      tag_218\n      jump\t// in\n    tag_219:\n        /* \"@chainlink/contracts/src/v0.8/mocks/VRFCoordinatorV2Mock.sol\":5012:5072  SubscriptionFunded(_subId, oldBalance, oldBalance + _amount) */\n      mload(0x40)\n      tag_220\n      swap3\n      swap2\n      swap1\n      tag_221\n      jump\t// in\n    tag_220:\n      mload(0x40)\n      dup1\n      swap2\n      sub\n      swap1\n      log2\n        /* \"@chainlink/contracts/src/v0.8/mocks/VRFCoordinatorV2Mock.sol\":4799:5077  {... */\n      pop\n        /* \"@chainlink/contracts/src/v0.8/mocks/VRFCoordinatorV2Mock.sol\":4735:5077  function fundSubscription(uint64 _subId, uint96 _amount) public {... */\n      pop\n      pop\n      jump\t// out\n        /* \"@chainlink/contracts/src/v0.8/mocks/VRFCoordinatorV2Mock.sol\":8016:8266  function getConfig()... */\n    tag_91:\n        /* \"@chainlink/contracts/src/v0.8/mocks/VRFCoordinatorV2Mock.sol\":8079:8113  uint16 minimumRequestConfirmations */\n      0x00\n        /* \"@chainlink/contracts/src/v0.8/mocks/VRFCoordinatorV2Mock.sol\":8121:8139  uint32 maxGasLimit */\n      dup1\n        /* \"@chainlink/contracts/src/v0.8/mocks/VRFCoordinatorV2Mock.sol\":8147:8170  uint32 stalenessSeconds */\n      0x00\n        /* \"@chainlink/contracts/src/v0.8/mocks/VRFCoordinatorV2Mock.sol\":8178:8211  uint32 gasAfterPaymentCalculation */\n      dup1\n        /* \"@chainlink/contracts/src/v0.8/mocks/VRFCoordinatorV2Mock.sol\":8234:8235  4 */\n      0x04\n        /* \"@chainlink/contracts/src/v0.8/mocks/VRFCoordinatorV2Mock.sol\":8237:8246  2_500_000 */\n      0x2625a0\n        /* \"@chainlink/contracts/src/v0.8/mocks/VRFCoordinatorV2Mock.sol\":8248:8253  2_700 */\n      0x0a8c\n        /* \"@chainlink/contracts/src/v0.8/mocks/VRFCoordinatorV2Mock.sol\":8255:8260  33285 */\n      0x8205\n        /* \"@chainlink/contracts/src/v0.8/mocks/VRFCoordinatorV2Mock.sol\":8226:8261  return (4, 2_500_000, 2_700, 33285) */\n      swap4\n      pop\n      swap4\n      pop\n      swap4\n      pop\n      swap4\n      pop\n        /* \"@chainlink/contracts/src/v0.8/mocks/VRFCoordinatorV2Mock.sol\":8016:8266  function getConfig()... */\n      swap1\n      swap2\n      swap3\n      swap4\n      jump\t// out\n        /* \"@chainlink/contracts/src/v0.8/mocks/VRFCoordinatorV2Mock.sol\":6517:6732  function cancelSubscription(uint64 _subId, address _to) external override onlySubOwner(_subId) {... */\n    tag_96:\n        /* \"@chainlink/contracts/src/v0.8/mocks/VRFCoordinatorV2Mock.sol\":6604:6610  _subId */\n      dup2\n        /* \"@chainlink/contracts/src/v0.8/mocks/VRFCoordinatorV2Mock.sol\":6779:6792  address owner */\n      0x00\n        /* \"@chainlink/contracts/src/v0.8/mocks/VRFCoordinatorV2Mock.sol\":6795:6810  s_subscriptions */\n      0x03\n        /* \"@chainlink/contracts/src/v0.8/mocks/VRFCoordinatorV2Mock.sol\":6795:6818  s_subscriptions[_subId] */\n      0x00\n        /* \"@chainlink/contracts/src/v0.8/mocks/VRFCoordinatorV2Mock.sol\":6811:6817  _subId */\n      dup4\n        /* \"@chainlink/contracts/src/v0.8/mocks/VRFCoordinatorV2Mock.sol\":6795:6818  s_subscriptions[_subId] */\n      0xffffffffffffffff\n      and\n      0xffffffffffffffff\n      and\n      dup2\n      mstore\n      0x20\n      add\n      swap1\n      dup2\n      mstore\n      0x20\n      add\n      0x00\n      keccak256\n        /* \"@chainlink/contracts/src/v0.8/mocks/VRFCoordinatorV2Mock.sol\":6795:6824  s_subscriptions[_subId].owner */\n      0x00\n      add\n      0x00\n      swap1\n      sload\n      swap1\n      0x0100\n      exp\n      swap1\n      div\n      0xffffffffffffffffffffffffffffffffffffffff\n      and\n        /* \"@chainlink/contracts/src/v0.8/mocks/VRFCoordinatorV2Mock.sol\":6779:6824  address owner = s_subscriptions[_subId].owner */\n      swap1\n      pop\n        /* \"@chainlink/contracts/src/v0.8/mocks/VRFCoordinatorV2Mock.sol\":6851:6852  0 */\n      0x00\n        /* \"@chainlink/contracts/src/v0.8/mocks/VRFCoordinatorV2Mock.sol\":6834:6853  owner == address(0) */\n      0xffffffffffffffffffffffffffffffffffffffff\n      and\n        /* \"@chainlink/contracts/src/v0.8/mocks/VRFCoordinatorV2Mock.sol\":6834:6839  owner */\n      dup2\n        /* \"@chainlink/contracts/src/v0.8/mocks/VRFCoordinatorV2Mock.sol\":6834:6853  owner == address(0) */\n      0xffffffffffffffffffffffffffffffffffffffff\n      and\n      sub\n        /* \"@chainlink/contracts/src/v0.8/mocks/VRFCoordinatorV2Mock.sol\":6830:6898  if (owner == address(0)) {... */\n      tag_224\n      jumpi\n        /* \"@chainlink/contracts/src/v0.8/mocks/VRFCoordinatorV2Mock.sol\":6870:6891  InvalidSubscription() */\n      mload(0x40)\n      0x1f6a65b600000000000000000000000000000000000000000000000000000000\n      dup2\n      mstore\n      0x04\n      add\n      mload(0x40)\n      dup1\n      swap2\n      sub\n      swap1\n      revert\n        /* \"@chainlink/contracts/src/v0.8/mocks/VRFCoordinatorV2Mock.sol\":6830:6898  if (owner == address(0)) {... */\n    tag_224:\n        /* \"@chainlink/contracts/src/v0.8/mocks/VRFCoordinatorV2Mock.sol\":6921:6926  owner */\n      dup1\n        /* \"@chainlink/contracts/src/v0.8/mocks/VRFCoordinatorV2Mock.sol\":6907:6926  msg.sender != owner */\n      0xffffffffffffffffffffffffffffffffffffffff\n      and\n        /* \"@chainlink/contracts/src/v0.8/mocks/VRFCoordinatorV2Mock.sol\":6907:6917  msg.sender */\n      caller\n        /* \"@chainlink/contracts/src/v0.8/mocks/VRFCoordinatorV2Mock.sol\":6907:6926  msg.sender != owner */\n      0xffffffffffffffffffffffffffffffffffffffff\n      and\n      eq\n        /* \"@chainlink/contracts/src/v0.8/mocks/VRFCoordinatorV2Mock.sol\":6903:6971  if (msg.sender != owner) {... */\n      tag_225\n      jumpi\n        /* \"@chainlink/contracts/src/v0.8/mocks/VRFCoordinatorV2Mock.sol\":6958:6963  owner */\n      dup1\n        /* \"@chainlink/contracts/src/v0.8/mocks/VRFCoordinatorV2Mock.sol\":6943:6964  MustBeSubOwner(owner) */\n      mload(0x40)\n      0xd8a3fb5200000000000000000000000000000000000000000000000000000000\n      dup2\n      mstore\n      0x04\n      add\n      tag_226\n      swap2\n      swap1\n      tag_166\n      jump\t// in\n    tag_226:\n      mload(0x40)\n      dup1\n      swap2\n      sub\n      swap1\n      revert\n        /* \"@chainlink/contracts/src/v0.8/mocks/VRFCoordinatorV2Mock.sol\":6903:6971  if (msg.sender != owner) {... */\n    tag_225:\n        /* \"@chainlink/contracts/src/v0.8/mocks/VRFCoordinatorV2Mock.sol\":6644:6650  _subId */\n      dup4\n        /* \"@chainlink/contracts/src/v0.8/mocks/VRFCoordinatorV2Mock.sol\":6623:6689  SubscriptionCanceled(_subId, _to, s_subscriptions[_subId].balance) */\n      0xffffffffffffffff\n      and\n      0xe8ed5b475a5b5987aa9165e8731bb78043f39eee32ec5a1169a89e27fcd49815\n        /* \"@chainlink/contracts/src/v0.8/mocks/VRFCoordinatorV2Mock.sol\":6652:6655  _to */\n      dup5\n        /* \"@chainlink/contracts/src/v0.8/mocks/VRFCoordinatorV2Mock.sol\":6657:6672  s_subscriptions */\n      0x03\n        /* \"@chainlink/contracts/src/v0.8/mocks/VRFCoordinatorV2Mock.sol\":6657:6680  s_subscriptions[_subId] */\n      0x00\n        /* \"@chainlink/contracts/src/v0.8/mocks/VRFCoordinatorV2Mock.sol\":6673:6679  _subId */\n      dup9\n        /* \"@chainlink/contracts/src/v0.8/mocks/VRFCoordinatorV2Mock.sol\":6657:6680  s_subscriptions[_subId] */\n      0xffffffffffffffff\n      and\n      0xffffffffffffffff\n      and\n      dup2\n      mstore\n      0x20\n      add\n      swap1\n      dup2\n      mstore\n      0x20\n      add\n      0x00\n      keccak256\n        /* \"@chainlink/contracts/src/v0.8/mocks/VRFCoordinatorV2Mock.sol\":6657:6688  s_subscriptions[_subId].balance */\n      0x00\n      add\n      0x14\n      swap1\n      sload\n      swap1\n      0x0100\n      exp\n      swap1\n      div\n      0xffffffffffffffffffffffff\n      and\n        /* \"@chainlink/contracts/src/v0.8/mocks/VRFCoordinatorV2Mock.sol\":6623:6689  SubscriptionCanceled(_subId, _to, s_subscriptions[_subId].balance) */\n      mload(0x40)\n      tag_228\n      swap3\n      swap2\n      swap1\n      tag_229\n      jump\t// in\n    tag_228:\n      mload(0x40)\n      dup1\n      swap2\n      sub\n      swap1\n      log2\n        /* \"@chainlink/contracts/src/v0.8/mocks/VRFCoordinatorV2Mock.sol\":6703:6718  s_subscriptions */\n      0x03\n        /* \"@chainlink/contracts/src/v0.8/mocks/VRFCoordinatorV2Mock.sol\":6703:6726  s_subscriptions[_subId] */\n      0x00\n        /* \"@chainlink/contracts/src/v0.8/mocks/VRFCoordinatorV2Mock.sol\":6719:6725  _subId */\n      dup6\n        /* \"@chainlink/contracts/src/v0.8/mocks/VRFCoordinatorV2Mock.sol\":6703:6726  s_subscriptions[_subId] */\n      0xffffffffffffffff\n      and\n      0xffffffffffffffff\n      and\n      dup2\n      mstore\n      0x20\n      add\n      swap1\n      dup2\n      mstore\n      0x20\n      add\n      0x00\n      keccak256\n      0x00\n        /* \"@chainlink/contracts/src/v0.8/mocks/VRFCoordinatorV2Mock.sol\":6695:6727  delete (s_subscriptions[_subId]) */\n      dup1\n      dup3\n      add\n      exp(0x0100, 0x00)\n      dup2\n      sload\n      swap1\n      0xffffffffffffffffffffffffffffffffffffffff\n      mul\n      not\n      and\n      swap1\n      sstore\n      0x00\n      dup3\n      add\n      exp(0x0100, 0x14)\n      dup2\n      sload\n      swap1\n      0xffffffffffffffffffffffff\n      mul\n      not\n      and\n      swap1\n      sstore\n      pop\n      pop\n        /* \"@chainlink/contracts/src/v0.8/mocks/VRFCoordinatorV2Mock.sol\":6773:6982  {... */\n      pop\n        /* \"@chainlink/contracts/src/v0.8/mocks/VRFCoordinatorV2Mock.sol\":6517:6732  function cancelSubscription(uint64 _subId, address _to) external override onlySubOwner(_subId) {... */\n      pop\n      pop\n      pop\n      jump\t// out\n        /* \"@chainlink/contracts/src/v0.8/mocks/VRFCoordinatorV2Mock.sol\":9243:9359  function pendingRequestExists(uint64 subId) public view override returns (bool) {... */\n    tag_99:\n        /* \"@chainlink/contracts/src/v0.8/mocks/VRFCoordinatorV2Mock.sol\":9317:9321  bool */\n      0x00\n        /* \"@chainlink/contracts/src/v0.8/mocks/VRFCoordinatorV2Mock.sol\":9329:9354  revert(\"not implemented\") */\n      mload(0x40)\n      0x08c379a000000000000000000000000000000000000000000000000000000000\n      dup2\n      mstore\n      0x04\n      add\n      tag_231\n      swap1\n      tag_113\n      jump\t// in\n    tag_231:\n      mload(0x40)\n      dup1\n      swap2\n      sub\n      swap1\n      revert\n        /* \"@chainlink/contracts/src/v0.8/mocks/VRFCoordinatorV2Mock.sol\":1947:2237  function consumerIsAdded(uint64 _subId, address _consumer) public view returns (bool) {... */\n    tag_104:\n        /* \"@chainlink/contracts/src/v0.8/mocks/VRFCoordinatorV2Mock.sol\":2027:2031  bool */\n      0x00\n        /* \"@chainlink/contracts/src/v0.8/mocks/VRFCoordinatorV2Mock.sol\":2039:2065  address[] memory consumers */\n      dup1\n        /* \"@chainlink/contracts/src/v0.8/mocks/VRFCoordinatorV2Mock.sol\":2068:2079  s_consumers */\n      0x04\n        /* \"@chainlink/contracts/src/v0.8/mocks/VRFCoordinatorV2Mock.sol\":2068:2087  s_consumers[_subId] */\n      0x00\n        /* \"@chainlink/contracts/src/v0.8/mocks/VRFCoordinatorV2Mock.sol\":2080:2086  _subId */\n      dup6\n        /* \"@chainlink/contracts/src/v0.8/mocks/VRFCoordinatorV2Mock.sol\":2068:2087  s_consumers[_subId] */\n      0xffffffffffffffff\n      and\n      0xffffffffffffffff\n      and\n      dup2\n      mstore\n      0x20\n      add\n      swap1\n      dup2\n      mstore\n      0x20\n      add\n      0x00\n      keccak256\n        /* \"@chainlink/contracts/src/v0.8/mocks/VRFCoordinatorV2Mock.sol\":2039:2087  address[] memory consumers = s_consumers[_subId] */\n      dup1\n      sload\n      dup1\n      0x20\n      mul\n      0x20\n      add\n      mload(0x40)\n      swap1\n      dup2\n      add\n      0x40\n      mstore\n      dup1\n      swap3\n      swap2\n      swap1\n      dup2\n      dup2\n      mstore\n      0x20\n      add\n      dup3\n      dup1\n      sload\n      dup1\n      iszero\n      tag_233\n      jumpi\n      0x20\n      mul\n      dup3\n      add\n      swap2\n      swap1\n      0x00\n      mstore\n      keccak256(0x00, 0x20)\n      swap1\n    tag_234:\n      dup2\n      0x00\n      swap1\n      sload\n      swap1\n      0x0100\n      exp\n      swap1\n      div\n      0xffffffffffffffffffffffffffffffffffffffff\n      and\n      0xffffffffffffffffffffffffffffffffffffffff\n      and\n      dup2\n      mstore\n      0x20\n      add\n      swap1\n      0x01\n      add\n      swap1\n      dup1\n      dup4\n      gt\n      tag_234\n      jumpi\n    tag_233:\n      pop\n      pop\n      pop\n      pop\n      pop\n      swap1\n      pop\n        /* \"@chainlink/contracts/src/v0.8/mocks/VRFCoordinatorV2Mock.sol\":2098:2107  uint256 i */\n      0x00\n        /* \"@chainlink/contracts/src/v0.8/mocks/VRFCoordinatorV2Mock.sol\":2093:2215  for (uint256 i = 0; i < consumers.length; i++) {... */\n    tag_235:\n        /* \"@chainlink/contracts/src/v0.8/mocks/VRFCoordinatorV2Mock.sol\":2117:2126  consumers */\n      dup2\n        /* \"@chainlink/contracts/src/v0.8/mocks/VRFCoordinatorV2Mock.sol\":2117:2133  consumers.length */\n      mload\n        /* \"@chainlink/contracts/src/v0.8/mocks/VRFCoordinatorV2Mock.sol\":2113:2114  i */\n      dup2\n        /* \"@chainlink/contracts/src/v0.8/mocks/VRFCoordinatorV2Mock.sol\":2113:2133  i < consumers.length */\n      lt\n        /* \"@chainlink/contracts/src/v0.8/mocks/VRFCoordinatorV2Mock.sol\":2093:2215  for (uint256 i = 0; i < consumers.length; i++) {... */\n      iszero\n      tag_236\n      jumpi\n        /* \"@chainlink/contracts/src/v0.8/mocks/VRFCoordinatorV2Mock.sol\":2168:2177  _consumer */\n      dup4\n        /* \"@chainlink/contracts/src/v0.8/mocks/VRFCoordinatorV2Mock.sol\":2152:2177  consumers[i] == _consumer */\n      0xffffffffffffffffffffffffffffffffffffffff\n      and\n        /* \"@chainlink/contracts/src/v0.8/mocks/VRFCoordinatorV2Mock.sol\":2152:2161  consumers */\n      dup3\n        /* \"@chainlink/contracts/src/v0.8/mocks/VRFCoordinatorV2Mock.sol\":2162:2163  i */\n      dup3\n        /* \"@chainlink/contracts/src/v0.8/mocks/VRFCoordinatorV2Mock.sol\":2152:2164  consumers[i] */\n      dup2\n      mload\n      dup2\n      lt\n      tag_238\n      jumpi\n      tag_239\n      tag_129\n      jump\t// in\n    tag_239:\n    tag_238:\n      0x20\n      mul\n      0x20\n      add\n      add\n      mload\n        /* \"@chainlink/contracts/src/v0.8/mocks/VRFCoordinatorV2Mock.sol\":2152:2177  consumers[i] == _consumer */\n      0xffffffffffffffffffffffffffffffffffffffff\n      and\n      sub\n        /* \"@chainlink/contracts/src/v0.8/mocks/VRFCoordinatorV2Mock.sol\":2148:2209  if (consumers[i] == _consumer) {... */\n      tag_240\n      jumpi\n        /* \"@chainlink/contracts/src/v0.8/mocks/VRFCoordinatorV2Mock.sol\":2196:2200  true */\n      0x01\n        /* \"@chainlink/contracts/src/v0.8/mocks/VRFCoordinatorV2Mock.sol\":2189:2200  return true */\n      swap3\n      pop\n      pop\n      pop\n      jump(tag_232)\n        /* \"@chainlink/contracts/src/v0.8/mocks/VRFCoordinatorV2Mock.sol\":2148:2209  if (consumers[i] == _consumer) {... */\n    tag_240:\n        /* \"@chainlink/contracts/src/v0.8/mocks/VRFCoordinatorV2Mock.sol\":2135:2138  i++ */\n      dup1\n      dup1\n      0x01\n      add\n      swap2\n      pop\n      pop\n        /* \"@chainlink/contracts/src/v0.8/mocks/VRFCoordinatorV2Mock.sol\":2093:2215  for (uint256 i = 0; i < consumers.length; i++) {... */\n      jump(tag_235)\n    tag_236:\n      pop\n        /* \"@chainlink/contracts/src/v0.8/mocks/VRFCoordinatorV2Mock.sol\":2227:2232  false */\n      0x00\n        /* \"@chainlink/contracts/src/v0.8/mocks/VRFCoordinatorV2Mock.sol\":2220:2232  return false */\n      swap2\n      pop\n      pop\n        /* \"@chainlink/contracts/src/v0.8/mocks/VRFCoordinatorV2Mock.sol\":1947:2237  function consumerIsAdded(uint64 _subId, address _consumer) public view returns (bool) {... */\n    tag_232:\n      swap3\n      swap2\n      pop\n      pop\n      jump\t// out\n        /* \"#utility.yul\":7:96   */\n    tag_241:\n        /* \"#utility.yul\":43:50   */\n      0x00\n        /* \"#utility.yul\":83:89   */\n      0xffff\n        /* \"#utility.yul\":76:81   */\n      dup3\n        /* \"#utility.yul\":72:90   */\n      and\n        /* \"#utility.yul\":61:90   */\n      swap1\n      pop\n        /* \"#utility.yul\":7:96   */\n      swap2\n      swap1\n      pop\n      jump\t// out\n        /* \"#utility.yul\":102:217   */\n    tag_242:\n        /* \"#utility.yul\":187:210   */\n      tag_323\n        /* \"#utility.yul\":204:209   */\n      dup2\n        /* \"#utility.yul\":187:210   */\n      tag_241\n      jump\t// in\n    tag_323:\n        /* \"#utility.yul\":182:185   */\n      dup3\n        /* \"#utility.yul\":175:211   */\n      mstore\n        /* \"#utility.yul\":102:217   */\n      pop\n      pop\n      jump\t// out\n        /* \"#utility.yul\":223:316   */\n    tag_243:\n        /* \"#utility.yul\":259:266   */\n      0x00\n        /* \"#utility.yul\":299:309   */\n      0xffffffff\n        /* \"#utility.yul\":292:297   */\n      dup3\n        /* \"#utility.yul\":288:310   */\n      and\n        /* \"#utility.yul\":277:310   */\n      swap1\n      pop\n        /* \"#utility.yul\":223:316   */\n      swap2\n      swap1\n      pop\n      jump\t// out\n        /* \"#utility.yul\":322:437   */\n    tag_244:\n        /* \"#utility.yul\":407:430   */\n      tag_326\n        /* \"#utility.yul\":424:429   */\n      dup2\n        /* \"#utility.yul\":407:430   */\n      tag_243\n      jump\t// in\n    tag_326:\n        /* \"#utility.yul\":402:405   */\n      dup3\n        /* \"#utility.yul\":395:431   */\n      mstore\n        /* \"#utility.yul\":322:437   */\n      pop\n      pop\n      jump\t// out\n        /* \"#utility.yul\":443:557   */\n    tag_245:\n        /* \"#utility.yul\":510:516   */\n      0x00\n        /* \"#utility.yul\":544:549   */\n      dup2\n        /* \"#utility.yul\":538:550   */\n      mload\n        /* \"#utility.yul\":528:550   */\n      swap1\n      pop\n        /* \"#utility.yul\":443:557   */\n      swap2\n      swap1\n      pop\n      jump\t// out\n        /* \"#utility.yul\":563:747   */\n    tag_246:\n        /* \"#utility.yul\":662:673   */\n      0x00\n        /* \"#utility.yul\":696:702   */\n      dup3\n        /* \"#utility.yul\":691:694   */\n      dup3\n        /* \"#utility.yul\":684:703   */\n      mstore\n        /* \"#utility.yul\":736:740   */\n      0x20\n        /* \"#utility.yul\":731:734   */\n      dup3\n        /* \"#utility.yul\":727:741   */\n      add\n        /* \"#utility.yul\":712:741   */\n      swap1\n      pop\n        /* \"#utility.yul\":563:747   */\n      swap3\n      swap2\n      pop\n      pop\n      jump\t// out\n        /* \"#utility.yul\":753:885   */\n    tag_247:\n        /* \"#utility.yul\":820:824   */\n      0x00\n        /* \"#utility.yul\":843:846   */\n      dup2\n        /* \"#utility.yul\":835:846   */\n      swap1\n      pop\n        /* \"#utility.yul\":873:877   */\n      0x20\n        /* \"#utility.yul\":868:871   */\n      dup3\n        /* \"#utility.yul\":864:878   */\n      add\n        /* \"#utility.yul\":856:878   */\n      swap1\n      pop\n        /* \"#utility.yul\":753:885   */\n      swap2\n      swap1\n      pop\n      jump\t// out\n        /* \"#utility.yul\":891:968   */\n    tag_248:\n        /* \"#utility.yul\":928:935   */\n      0x00\n        /* \"#utility.yul\":957:962   */\n      dup2\n        /* \"#utility.yul\":946:962   */\n      swap1\n      pop\n        /* \"#utility.yul\":891:968   */\n      swap2\n      swap1\n      pop\n      jump\t// out\n        /* \"#utility.yul\":974:1082   */\n    tag_249:\n        /* \"#utility.yul\":1051:1075   */\n      tag_332\n        /* \"#utility.yul\":1069:1074   */\n      dup2\n        /* \"#utility.yul\":1051:1075   */\n      tag_248\n      jump\t// in\n    tag_332:\n        /* \"#utility.yul\":1046:1049   */\n      dup3\n        /* \"#utility.yul\":1039:1076   */\n      mstore\n        /* \"#utility.yul\":974:1082   */\n      pop\n      pop\n      jump\t// out\n        /* \"#utility.yul\":1088:1267   */\n    tag_250:\n        /* \"#utility.yul\":1157:1167   */\n      0x00\n        /* \"#utility.yul\":1178:1224   */\n      tag_334\n        /* \"#utility.yul\":1220:1223   */\n      dup4\n        /* \"#utility.yul\":1212:1218   */\n      dup4\n        /* \"#utility.yul\":1178:1224   */\n      tag_249\n      jump\t// in\n    tag_334:\n        /* \"#utility.yul\":1256:1260   */\n      0x20\n        /* \"#utility.yul\":1251:1254   */\n      dup4\n        /* \"#utility.yul\":1247:1261   */\n      add\n        /* \"#utility.yul\":1233:1261   */\n      swap1\n      pop\n        /* \"#utility.yul\":1088:1267   */\n      swap3\n      swap2\n      pop\n      pop\n      jump\t// out\n        /* \"#utility.yul\":1273:1386   */\n    tag_251:\n        /* \"#utility.yul\":1343:1347   */\n      0x00\n        /* \"#utility.yul\":1375:1379   */\n      0x20\n        /* \"#utility.yul\":1370:1373   */\n      dup3\n        /* \"#utility.yul\":1366:1380   */\n      add\n        /* \"#utility.yul\":1358:1380   */\n      swap1\n      pop\n        /* \"#utility.yul\":1273:1386   */\n      swap2\n      swap1\n      pop\n      jump\t// out\n        /* \"#utility.yul\":1422:2154   */\n    tag_252:\n        /* \"#utility.yul\":1541:1544   */\n      0x00\n        /* \"#utility.yul\":1570:1624   */\n      tag_337\n        /* \"#utility.yul\":1618:1623   */\n      dup3\n        /* \"#utility.yul\":1570:1624   */\n      tag_245\n      jump\t// in\n    tag_337:\n        /* \"#utility.yul\":1640:1726   */\n      tag_338\n        /* \"#utility.yul\":1719:1725   */\n      dup2\n        /* \"#utility.yul\":1714:1717   */\n      dup6\n        /* \"#utility.yul\":1640:1726   */\n      tag_246\n      jump\t// in\n    tag_338:\n        /* \"#utility.yul\":1633:1726   */\n      swap4\n      pop\n        /* \"#utility.yul\":1750:1806   */\n      tag_339\n        /* \"#utility.yul\":1800:1805   */\n      dup4\n        /* \"#utility.yul\":1750:1806   */\n      tag_247\n      jump\t// in\n    tag_339:\n        /* \"#utility.yul\":1829:1836   */\n      dup1\n        /* \"#utility.yul\":1860:1861   */\n      0x00\n        /* \"#utility.yul\":1845:2129   */\n    tag_340:\n        /* \"#utility.yul\":1870:1876   */\n      dup4\n        /* \"#utility.yul\":1867:1868   */\n      dup2\n        /* \"#utility.yul\":1864:1877   */\n      lt\n        /* \"#utility.yul\":1845:2129   */\n      iszero\n      tag_342\n      jumpi\n        /* \"#utility.yul\":1946:1952   */\n      dup2\n        /* \"#utility.yul\":1940:1953   */\n      mload\n        /* \"#utility.yul\":1973:2036   */\n      tag_343\n        /* \"#utility.yul\":2032:2035   */\n      dup9\n        /* \"#utility.yul\":2017:2030   */\n      dup3\n        /* \"#utility.yul\":1973:2036   */\n      tag_250\n      jump\t// in\n    tag_343:\n        /* \"#utility.yul\":1966:2036   */\n      swap8\n      pop\n        /* \"#utility.yul\":2059:2119   */\n      tag_344\n        /* \"#utility.yul\":2112:2118   */\n      dup4\n        /* \"#utility.yul\":2059:2119   */\n      tag_251\n      jump\t// in\n    tag_344:\n        /* \"#utility.yul\":2049:2119   */\n      swap3\n      pop\n        /* \"#utility.yul\":1905:2129   */\n      pop\n        /* \"#utility.yul\":1892:1893   */\n      0x01\n        /* \"#utility.yul\":1889:1890   */\n      dup2\n        /* \"#utility.yul\":1885:1894   */\n      add\n        /* \"#utility.yul\":1880:1894   */\n      swap1\n      pop\n        /* \"#utility.yul\":1845:2129   */\n      jump(tag_340)\n    tag_342:\n        /* \"#utility.yul\":1849:1863   */\n      pop\n        /* \"#utility.yul\":2145:2148   */\n      dup6\n        /* \"#utility.yul\":2138:2148   */\n      swap4\n      pop\n        /* \"#utility.yul\":1546:2154   */\n      pop\n      pop\n      pop\n        /* \"#utility.yul\":1422:2154   */\n      swap3\n      swap2\n      pop\n      pop\n      jump\t// out\n        /* \"#utility.yul\":2160:2745   */\n    tag_29:\n        /* \"#utility.yul\":2355:2359   */\n      0x00\n        /* \"#utility.yul\":2393:2395   */\n      0x60\n        /* \"#utility.yul\":2382:2391   */\n      dup3\n        /* \"#utility.yul\":2378:2396   */\n      add\n        /* \"#utility.yul\":2370:2396   */\n      swap1\n      pop\n        /* \"#utility.yul\":2406:2475   */\n      tag_346\n        /* \"#utility.yul\":2472:2473   */\n      0x00\n        /* \"#utility.yul\":2461:2470   */\n      dup4\n        /* \"#utility.yul\":2457:2474   */\n      add\n        /* \"#utility.yul\":2448:2454   */\n      dup7\n        /* \"#utility.yul\":2406:2475   */\n      tag_242\n      jump\t// in\n    tag_346:\n        /* \"#utility.yul\":2485:2555   */\n      tag_347\n        /* \"#utility.yul\":2551:2553   */\n      0x20\n        /* \"#utility.yul\":2540:2549   */\n      dup4\n        /* \"#utility.yul\":2536:2554   */\n      add\n        /* \"#utility.yul\":2527:2533   */\n      dup6\n        /* \"#utility.yul\":2485:2555   */\n      tag_244\n      jump\t// in\n    tag_347:\n        /* \"#utility.yul\":2602:2611   */\n      dup2\n        /* \"#utility.yul\":2596:2600   */\n      dup2\n        /* \"#utility.yul\":2592:2612   */\n      sub\n        /* \"#utility.yul\":2587:2589   */\n      0x40\n        /* \"#utility.yul\":2576:2585   */\n      dup4\n        /* \"#utility.yul\":2572:2590   */\n      add\n        /* \"#utility.yul\":2565:2613   */\n      mstore\n        /* \"#utility.yul\":2630:2738   */\n      tag_348\n        /* \"#utility.yul\":2733:2737   */\n      dup2\n        /* \"#utility.yul\":2724:2730   */\n      dup5\n        /* \"#utility.yul\":2630:2738   */\n      tag_252\n      jump\t// in\n    tag_348:\n        /* \"#utility.yul\":2622:2738   */\n      swap1\n      pop\n        /* \"#utility.yul\":2160:2745   */\n      swap5\n      swap4\n      pop\n      pop\n      pop\n      pop\n      jump\t// out\n        /* \"#utility.yul\":2751:2826   */\n    tag_253:\n        /* \"#utility.yul\":2784:2790   */\n      0x00\n        /* \"#utility.yul\":2817:2819   */\n      0x40\n        /* \"#utility.yul\":2811:2820   */\n      mload\n        /* \"#utility.yul\":2801:2820   */\n      swap1\n      pop\n        /* \"#utility.yul\":2751:2826   */\n      swap1\n      jump\t// out\n        /* \"#utility.yul\":2832:2949   */\n    tag_254:\n        /* \"#utility.yul\":2941:2942   */\n      0x00\n        /* \"#utility.yul\":2938:2939   */\n      dup1\n        /* \"#utility.yul\":2931:2943   */\n      revert\n        /* \"#utility.yul\":2955:3072   */\n    tag_255:\n        /* \"#utility.yul\":3064:3065   */\n      0x00\n        /* \"#utility.yul\":3061:3062   */\n      dup1\n        /* \"#utility.yul\":3054:3066   */\n      revert\n        /* \"#utility.yul\":3078:3179   */\n    tag_256:\n        /* \"#utility.yul\":3114:3121   */\n      0x00\n        /* \"#utility.yul\":3154:3172   */\n      0xffffffffffffffff\n        /* \"#utility.yul\":3147:3152   */\n      dup3\n        /* \"#utility.yul\":3143:3173   */\n      and\n        /* \"#utility.yul\":3132:3173   */\n      swap1\n      pop\n        /* \"#utility.yul\":3078:3179   */\n      swap2\n      swap1\n      pop\n      jump\t// out\n        /* \"#utility.yul\":3185:3305   */\n    tag_257:\n        /* \"#utility.yul\":3257:3280   */\n      tag_354\n        /* \"#utility.yul\":3274:3279   */\n      dup2\n        /* \"#utility.yul\":3257:3280   */\n      tag_256\n      jump\t// in\n    tag_354:\n        /* \"#utility.yul\":3250:3255   */\n      dup2\n        /* \"#utility.yul\":3247:3281   */\n      eq\n        /* \"#utility.yul\":3237:3299   */\n      tag_355\n      jumpi\n        /* \"#utility.yul\":3295:3296   */\n      0x00\n        /* \"#utility.yul\":3292:3293   */\n      dup1\n        /* \"#utility.yul\":3285:3297   */\n      revert\n        /* \"#utility.yul\":3237:3299   */\n    tag_355:\n        /* \"#utility.yul\":3185:3305   */\n      pop\n      jump\t// out\n        /* \"#utility.yul\":3311:3448   */\n    tag_258:\n        /* \"#utility.yul\":3356:3361   */\n      0x00\n        /* \"#utility.yul\":3394:3400   */\n      dup2\n        /* \"#utility.yul\":3381:3401   */\n      calldataload\n        /* \"#utility.yul\":3372:3401   */\n      swap1\n      pop\n        /* \"#utility.yul\":3410:3442   */\n      tag_357\n        /* \"#utility.yul\":3436:3441   */\n      dup2\n        /* \"#utility.yul\":3410:3442   */\n      tag_257\n      jump\t// in\n    tag_357:\n        /* \"#utility.yul\":3311:3448   */\n      swap3\n      swap2\n      pop\n      pop\n      jump\t// out\n        /* \"#utility.yul\":3454:3580   */\n    tag_259:\n        /* \"#utility.yul\":3491:3498   */\n      0x00\n        /* \"#utility.yul\":3531:3573   */\n      0xffffffffffffffffffffffffffffffffffffffff\n        /* \"#utility.yul\":3524:3529   */\n      dup3\n        /* \"#utility.yul\":3520:3574   */\n      and\n        /* \"#utility.yul\":3509:3574   */\n      swap1\n      pop\n        /* \"#utility.yul\":3454:3580   */\n      swap2\n      swap1\n      pop\n      jump\t// out\n        /* \"#utility.yul\":3586:3682   */\n    tag_260:\n        /* \"#utility.yul\":3623:3630   */\n      0x00\n        /* \"#utility.yul\":3652:3676   */\n      tag_360\n        /* \"#utility.yul\":3670:3675   */\n      dup3\n        /* \"#utility.yul\":3652:3676   */\n      tag_259\n      jump\t// in\n    tag_360:\n        /* \"#utility.yul\":3641:3676   */\n      swap1\n      pop\n        /* \"#utility.yul\":3586:3682   */\n      swap2\n      swap1\n      pop\n      jump\t// out\n        /* \"#utility.yul\":3688:3810   */\n    tag_261:\n        /* \"#utility.yul\":3761:3785   */\n      tag_362\n        /* \"#utility.yul\":3779:3784   */\n      dup2\n        /* \"#utility.yul\":3761:3785   */\n      tag_260\n      jump\t// in\n    tag_362:\n        /* \"#utility.yul\":3754:3759   */\n      dup2\n        /* \"#utility.yul\":3751:3786   */\n      eq\n        /* \"#utility.yul\":3741:3804   */\n      tag_363\n      jumpi\n        /* \"#utility.yul\":3800:3801   */\n      0x00\n        /* \"#utility.yul\":3797:3798   */\n      dup1\n        /* \"#utility.yul\":3790:3802   */\n      revert\n        /* \"#utility.yul\":3741:3804   */\n    tag_363:\n        /* \"#utility.yul\":3688:3810   */\n      pop\n      jump\t// out\n        /* \"#utility.yul\":3816:3955   */\n    tag_262:\n        /* \"#utility.yul\":3862:3867   */\n      0x00\n        /* \"#utility.yul\":3900:3906   */\n      dup2\n        /* \"#utility.yul\":3887:3907   */\n      calldataload\n        /* \"#utility.yul\":3878:3907   */\n      swap1\n      pop\n        /* \"#utility.yul\":3916:3949   */\n      tag_365\n        /* \"#utility.yul\":3943:3948   */\n      dup2\n        /* \"#utility.yul\":3916:3949   */\n      tag_261\n      jump\t// in\n    tag_365:\n        /* \"#utility.yul\":3816:3955   */\n      swap3\n      swap2\n      pop\n      pop\n      jump\t// out\n        /* \"#utility.yul\":3961:4433   */\n    tag_32:\n        /* \"#utility.yul\":4028:4034   */\n      0x00\n        /* \"#utility.yul\":4036:4042   */\n      dup1\n        /* \"#utility.yul\":4085:4087   */\n      0x40\n        /* \"#utility.yul\":4073:4082   */\n      dup4\n        /* \"#utility.yul\":4064:4071   */\n      dup6\n        /* \"#utility.yul\":4060:4083   */\n      sub\n        /* \"#utility.yul\":4056:4088   */\n      slt\n        /* \"#utility.yul\":4053:4172   */\n      iszero\n      tag_367\n      jumpi\n        /* \"#utility.yul\":4091:4170   */\n      tag_368\n      tag_254\n      jump\t// in\n    tag_368:\n        /* \"#utility.yul\":4053:4172   */\n    tag_367:\n        /* \"#utility.yul\":4211:4212   */\n      0x00\n        /* \"#utility.yul\":4236:4288   */\n      tag_369\n        /* \"#utility.yul\":4280:4287   */\n      dup6\n        /* \"#utility.yul\":4271:4277   */\n      dup3\n        /* \"#utility.yul\":4260:4269   */\n      dup7\n        /* \"#utility.yul\":4256:4278   */\n      add\n        /* \"#utility.yul\":4236:4288   */\n      tag_258\n      jump\t// in\n    tag_369:\n        /* \"#utility.yul\":4226:4288   */\n      swap3\n      pop\n        /* \"#utility.yul\":4182:4298   */\n      pop\n        /* \"#utility.yul\":4337:4339   */\n      0x20\n        /* \"#utility.yul\":4363:4416   */\n      tag_370\n        /* \"#utility.yul\":4408:4415   */\n      dup6\n        /* \"#utility.yul\":4399:4405   */\n      dup3\n        /* \"#utility.yul\":4388:4397   */\n      dup7\n        /* \"#utility.yul\":4384:4406   */\n      add\n        /* \"#utility.yul\":4363:4416   */\n      tag_262\n      jump\t// in\n    tag_370:\n        /* \"#utility.yul\":4353:4416   */\n      swap2\n      pop\n        /* \"#utility.yul\":4308:4426   */\n      pop\n        /* \"#utility.yul\":3961:4433   */\n      swap3\n      pop\n      swap3\n      swap1\n      pop\n      jump\t// out\n        /* \"#utility.yul\":4439:4516   */\n    tag_263:\n        /* \"#utility.yul\":4476:4483   */\n      0x00\n        /* \"#utility.yul\":4505:4510   */\n      dup2\n        /* \"#utility.yul\":4494:4510   */\n      swap1\n      pop\n        /* \"#utility.yul\":4439:4516   */\n      swap2\n      swap1\n      pop\n      jump\t// out\n        /* \"#utility.yul\":4522:4644   */\n    tag_264:\n        /* \"#utility.yul\":4595:4619   */\n      tag_373\n        /* \"#utility.yul\":4613:4618   */\n      dup2\n        /* \"#utility.yul\":4595:4619   */\n      tag_263\n      jump\t// in\n    tag_373:\n        /* \"#utility.yul\":4588:4593   */\n      dup2\n        /* \"#utility.yul\":4585:4620   */\n      eq\n        /* \"#utility.yul\":4575:4638   */\n      tag_374\n      jumpi\n        /* \"#utility.yul\":4634:4635   */\n      0x00\n        /* \"#utility.yul\":4631:4632   */\n      dup1\n        /* \"#utility.yul\":4624:4636   */\n      revert\n        /* \"#utility.yul\":4575:4638   */\n    tag_374:\n        /* \"#utility.yul\":4522:4644   */\n      pop\n      jump\t// out\n        /* \"#utility.yul\":4650:4789   */\n    tag_265:\n        /* \"#utility.yul\":4696:4701   */\n      0x00\n        /* \"#utility.yul\":4734:4740   */\n      dup2\n        /* \"#utility.yul\":4721:4741   */\n      calldataload\n        /* \"#utility.yul\":4712:4741   */\n      swap1\n      pop\n        /* \"#utility.yul\":4750:4783   */\n      tag_376\n        /* \"#utility.yul\":4777:4782   */\n      dup2\n        /* \"#utility.yul\":4750:4783   */\n      tag_264\n      jump\t// in\n    tag_376:\n        /* \"#utility.yul\":4650:4789   */\n      swap3\n      swap2\n      pop\n      pop\n      jump\t// out\n        /* \"#utility.yul\":4795:4912   */\n    tag_266:\n        /* \"#utility.yul\":4904:4905   */\n      0x00\n        /* \"#utility.yul\":4901:4902   */\n      dup1\n        /* \"#utility.yul\":4894:4906   */\n      revert\n        /* \"#utility.yul\":4918:5020   */\n    tag_267:\n        /* \"#utility.yul\":4959:4965   */\n      0x00\n        /* \"#utility.yul\":5010:5012   */\n      0x1f\n        /* \"#utility.yul\":5006:5013   */\n      not\n        /* \"#utility.yul\":5001:5003   */\n      0x1f\n        /* \"#utility.yul\":4994:4999   */\n      dup4\n        /* \"#utility.yul\":4990:5004   */\n      add\n        /* \"#utility.yul\":4986:5014   */\n      and\n        /* \"#utility.yul\":4976:5014   */\n      swap1\n      pop\n        /* \"#utility.yul\":4918:5020   */\n      swap2\n      swap1\n      pop\n      jump\t// out\n        /* \"#utility.yul\":5026:5206   */\n    tag_109:\n        /* \"#utility.yul\":5074:5151   */\n      0x4e487b7100000000000000000000000000000000000000000000000000000000\n        /* \"#utility.yul\":5071:5072   */\n      0x00\n        /* \"#utility.yul\":5064:5152   */\n      mstore\n        /* \"#utility.yul\":5171:5175   */\n      0x41\n        /* \"#utility.yul\":5168:5169   */\n      0x04\n        /* \"#utility.yul\":5161:5176   */\n      mstore\n        /* \"#utility.yul\":5195:5199   */\n      0x24\n        /* \"#utility.yul\":5192:5193   */\n      0x00\n        /* \"#utility.yul\":5185:5200   */\n      revert\n        /* \"#utility.yul\":5212:5493   */\n    tag_268:\n        /* \"#utility.yul\":5295:5322   */\n      tag_381\n        /* \"#utility.yul\":5317:5321   */\n      dup3\n        /* \"#utility.yul\":5295:5322   */\n      tag_267\n      jump\t// in\n    tag_381:\n        /* \"#utility.yul\":5287:5293   */\n      dup2\n        /* \"#utility.yul\":5283:5323   */\n      add\n        /* \"#utility.yul\":5425:5431   */\n      dup2\n        /* \"#utility.yul\":5413:5423   */\n      dup2\n        /* \"#utility.yul\":5410:5432   */\n      lt\n        /* \"#utility.yul\":5389:5407   */\n      0xffffffffffffffff\n        /* \"#utility.yul\":5377:5387   */\n      dup3\n        /* \"#utility.yul\":5374:5408   */\n      gt\n        /* \"#utility.yul\":5371:5433   */\n      or\n        /* \"#utility.yul\":5368:5456   */\n      iszero\n      tag_382\n      jumpi\n        /* \"#utility.yul\":5436:5454   */\n      tag_383\n      tag_109\n      jump\t// in\n    tag_383:\n        /* \"#utility.yul\":5368:5456   */\n    tag_382:\n        /* \"#utility.yul\":5476:5486   */\n      dup1\n        /* \"#utility.yul\":5472:5474   */\n      0x40\n        /* \"#utility.yul\":5465:5487   */\n      mstore\n        /* \"#utility.yul\":5255:5493   */\n      pop\n        /* \"#utility.yul\":5212:5493   */\n      pop\n      pop\n      jump\t// out\n        /* \"#utility.yul\":5499:5628   */\n    tag_269:\n        /* \"#utility.yul\":5533:5539   */\n      0x00\n        /* \"#utility.yul\":5560:5580   */\n      tag_385\n      tag_253\n      jump\t// in\n    tag_385:\n        /* \"#utility.yul\":5550:5580   */\n      swap1\n      pop\n        /* \"#utility.yul\":5589:5622   */\n      tag_386\n        /* \"#utility.yul\":5617:5621   */\n      dup3\n        /* \"#utility.yul\":5609:5615   */\n      dup3\n        /* \"#utility.yul\":5589:5622   */\n      tag_268\n      jump\t// in\n    tag_386:\n        /* \"#utility.yul\":5499:5628   */\n      swap2\n      swap1\n      pop\n      jump\t// out\n        /* \"#utility.yul\":5634:5945   */\n    tag_270:\n        /* \"#utility.yul\":5711:5715   */\n      0x00\n        /* \"#utility.yul\":5801:5819   */\n      0xffffffffffffffff\n        /* \"#utility.yul\":5793:5799   */\n      dup3\n        /* \"#utility.yul\":5790:5820   */\n      gt\n        /* \"#utility.yul\":5787:5843   */\n      iszero\n      tag_388\n      jumpi\n        /* \"#utility.yul\":5823:5841   */\n      tag_389\n      tag_109\n      jump\t// in\n    tag_389:\n        /* \"#utility.yul\":5787:5843   */\n    tag_388:\n        /* \"#utility.yul\":5873:5877   */\n      0x20\n        /* \"#utility.yul\":5865:5871   */\n      dup3\n        /* \"#utility.yul\":5861:5878   */\n      mul\n        /* \"#utility.yul\":5853:5878   */\n      swap1\n      pop\n        /* \"#utility.yul\":5933:5937   */\n      0x20\n        /* \"#utility.yul\":5927:5931   */\n      dup2\n        /* \"#utility.yul\":5923:5938   */\n      add\n        /* \"#utility.yul\":5915:5938   */\n      swap1\n      pop\n        /* \"#utility.yul\":5634:5945   */\n      swap2\n      swap1\n      pop\n      jump\t// out\n        /* \"#utility.yul\":5951:6068   */\n    tag_271:\n        /* \"#utility.yul\":6060:6061   */\n      0x00\n        /* \"#utility.yul\":6057:6058   */\n      dup1\n        /* \"#utility.yul\":6050:6062   */\n      revert\n        /* \"#utility.yul\":6091:6801   */\n    tag_272:\n        /* \"#utility.yul\":6187:6192   */\n      0x00\n        /* \"#utility.yul\":6212:6293   */\n      tag_392\n        /* \"#utility.yul\":6228:6292   */\n      tag_393\n        /* \"#utility.yul\":6285:6291   */\n      dup5\n        /* \"#utility.yul\":6228:6292   */\n      tag_270\n      jump\t// in\n    tag_393:\n        /* \"#utility.yul\":6212:6293   */\n      tag_269\n      jump\t// in\n    tag_392:\n        /* \"#utility.yul\":6203:6293   */\n      swap1\n      pop\n        /* \"#utility.yul\":6313:6318   */\n      dup1\n        /* \"#utility.yul\":6342:6348   */\n      dup4\n        /* \"#utility.yul\":6335:6340   */\n      dup3\n        /* \"#utility.yul\":6328:6349   */\n      mstore\n        /* \"#utility.yul\":6376:6380   */\n      0x20\n        /* \"#utility.yul\":6369:6374   */\n      dup3\n        /* \"#utility.yul\":6365:6381   */\n      add\n        /* \"#utility.yul\":6358:6381   */\n      swap1\n      pop\n        /* \"#utility.yul\":6429:6433   */\n      0x20\n        /* \"#utility.yul\":6421:6427   */\n      dup5\n        /* \"#utility.yul\":6417:6434   */\n      mul\n        /* \"#utility.yul\":6409:6415   */\n      dup4\n        /* \"#utility.yul\":6405:6435   */\n      add\n        /* \"#utility.yul\":6458:6461   */\n      dup6\n        /* \"#utility.yul\":6450:6456   */\n      dup2\n        /* \"#utility.yul\":6447:6462   */\n      gt\n        /* \"#utility.yul\":6444:6566   */\n      iszero\n      tag_394\n      jumpi\n        /* \"#utility.yul\":6477:6556   */\n      tag_395\n      tag_271\n      jump\t// in\n    tag_395:\n        /* \"#utility.yul\":6444:6566   */\n    tag_394:\n        /* \"#utility.yul\":6592:6598   */\n      dup4\n        /* \"#utility.yul\":6575:6795   */\n    tag_396:\n        /* \"#utility.yul\":6609:6615   */\n      dup2\n        /* \"#utility.yul\":6604:6607   */\n      dup2\n        /* \"#utility.yul\":6601:6616   */\n      lt\n        /* \"#utility.yul\":6575:6795   */\n      iszero\n      tag_398\n      jumpi\n        /* \"#utility.yul\":6684:6687   */\n      dup1\n        /* \"#utility.yul\":6713:6750   */\n      tag_399\n        /* \"#utility.yul\":6746:6749   */\n      dup9\n        /* \"#utility.yul\":6734:6744   */\n      dup3\n        /* \"#utility.yul\":6713:6750   */\n      tag_265\n      jump\t// in\n    tag_399:\n        /* \"#utility.yul\":6708:6711   */\n      dup5\n        /* \"#utility.yul\":6701:6751   */\n      mstore\n        /* \"#utility.yul\":6780:6784   */\n      0x20\n        /* \"#utility.yul\":6775:6778   */\n      dup5\n        /* \"#utility.yul\":6771:6785   */\n      add\n        /* \"#utility.yul\":6764:6785   */\n      swap4\n      pop\n        /* \"#utility.yul\":6651:6795   */\n      pop\n        /* \"#utility.yul\":6635:6639   */\n      0x20\n        /* \"#utility.yul\":6630:6633   */\n      dup2\n        /* \"#utility.yul\":6626:6640   */\n      add\n        /* \"#utility.yul\":6619:6640   */\n      swap1\n      pop\n        /* \"#utility.yul\":6575:6795   */\n      jump(tag_396)\n    tag_398:\n        /* \"#utility.yul\":6579:6600   */\n      pop\n        /* \"#utility.yul\":6193:6801   */\n      pop\n      pop\n        /* \"#utility.yul\":6091:6801   */\n      swap4\n      swap3\n      pop\n      pop\n      pop\n      jump\t// out\n        /* \"#utility.yul\":6824:7194   */\n    tag_273:\n        /* \"#utility.yul\":6895:6900   */\n      0x00\n        /* \"#utility.yul\":6944:6947   */\n      dup3\n        /* \"#utility.yul\":6937:6941   */\n      0x1f\n        /* \"#utility.yul\":6929:6935   */\n      dup4\n        /* \"#utility.yul\":6925:6942   */\n      add\n        /* \"#utility.yul\":6921:6948   */\n      slt\n        /* \"#utility.yul\":6911:7033   */\n      tag_401\n      jumpi\n        /* \"#utility.yul\":6952:7031   */\n      tag_402\n      tag_266\n      jump\t// in\n    tag_402:\n        /* \"#utility.yul\":6911:7033   */\n    tag_401:\n        /* \"#utility.yul\":7069:7075   */\n      dup2\n        /* \"#utility.yul\":7056:7076   */\n      calldataload\n        /* \"#utility.yul\":7094:7188   */\n      tag_403\n        /* \"#utility.yul\":7184:7187   */\n      dup5\n        /* \"#utility.yul\":7176:7182   */\n      dup3\n        /* \"#utility.yul\":7169:7173   */\n      0x20\n        /* \"#utility.yul\":7161:7167   */\n      dup7\n        /* \"#utility.yul\":7157:7174   */\n      add\n        /* \"#utility.yul\":7094:7188   */\n      tag_272\n      jump\t// in\n    tag_403:\n        /* \"#utility.yul\":7085:7188   */\n      swap2\n      pop\n        /* \"#utility.yul\":6901:7194   */\n      pop\n        /* \"#utility.yul\":6824:7194   */\n      swap3\n      swap2\n      pop\n      pop\n      jump\t// out\n        /* \"#utility.yul\":7200:8029   */\n    tag_36:\n        /* \"#utility.yul\":7302:7308   */\n      0x00\n        /* \"#utility.yul\":7310:7316   */\n      dup1\n        /* \"#utility.yul\":7318:7324   */\n      0x00\n        /* \"#utility.yul\":7367:7369   */\n      0x60\n        /* \"#utility.yul\":7355:7364   */\n      dup5\n        /* \"#utility.yul\":7346:7353   */\n      dup7\n        /* \"#utility.yul\":7342:7365   */\n      sub\n        /* \"#utility.yul\":7338:7370   */\n      slt\n        /* \"#utility.yul\":7335:7454   */\n      iszero\n      tag_405\n      jumpi\n        /* \"#utility.yul\":7373:7452   */\n      tag_406\n      tag_254\n      jump\t// in\n    tag_406:\n        /* \"#utility.yul\":7335:7454   */\n    tag_405:\n        /* \"#utility.yul\":7493:7494   */\n      0x00\n        /* \"#utility.yul\":7518:7571   */\n      tag_407\n        /* \"#utility.yul\":7563:7570   */\n      dup7\n        /* \"#utility.yul\":7554:7560   */\n      dup3\n        /* \"#utility.yul\":7543:7552   */\n      dup8\n        /* \"#utility.yul\":7539:7561   */\n      add\n        /* \"#utility.yul\":7518:7571   */\n      tag_265\n      jump\t// in\n    tag_407:\n        /* \"#utility.yul\":7508:7571   */\n      swap4\n      pop\n        /* \"#utility.yul\":7464:7581   */\n      pop\n        /* \"#utility.yul\":7620:7622   */\n      0x20\n        /* \"#utility.yul\":7646:7699   */\n      tag_408\n        /* \"#utility.yul\":7691:7698   */\n      dup7\n        /* \"#utility.yul\":7682:7688   */\n      dup3\n        /* \"#utility.yul\":7671:7680   */\n      dup8\n        /* \"#utility.yul\":7667:7689   */\n      add\n        /* \"#utility.yul\":7646:7699   */\n      tag_262\n      jump\t// in\n    tag_408:\n        /* \"#utility.yul\":7636:7699   */\n      swap3\n      pop\n        /* \"#utility.yul\":7591:7709   */\n      pop\n        /* \"#utility.yul\":7776:7778   */\n      0x40\n        /* \"#utility.yul\":7765:7774   */\n      dup5\n        /* \"#utility.yul\":7761:7779   */\n      add\n        /* \"#utility.yul\":7748:7780   */\n      calldataload\n        /* \"#utility.yul\":7807:7825   */\n      0xffffffffffffffff\n        /* \"#utility.yul\":7799:7805   */\n      dup2\n        /* \"#utility.yul\":7796:7826   */\n      gt\n        /* \"#utility.yul\":7793:7910   */\n      iszero\n      tag_409\n      jumpi\n        /* \"#utility.yul\":7829:7908   */\n      tag_410\n      tag_255\n      jump\t// in\n    tag_410:\n        /* \"#utility.yul\":7793:7910   */\n    tag_409:\n        /* \"#utility.yul\":7934:8012   */\n      tag_411\n        /* \"#utility.yul\":8004:8011   */\n      dup7\n        /* \"#utility.yul\":7995:8001   */\n      dup3\n        /* \"#utility.yul\":7984:7993   */\n      dup8\n        /* \"#utility.yul\":7980:8002   */\n      add\n        /* \"#utility.yul\":7934:8012   */\n      tag_273\n      jump\t// in\n    tag_411:\n        /* \"#utility.yul\":7924:8012   */\n      swap2\n      pop\n        /* \"#utility.yul\":7719:8022   */\n      pop\n        /* \"#utility.yul\":7200:8029   */\n      swap3\n      pop\n      swap3\n      pop\n      swap3\n      jump\t// out\n        /* \"#utility.yul\":8035:8111   */\n    tag_274:\n        /* \"#utility.yul\":8071:8078   */\n      0x00\n        /* \"#utility.yul\":8100:8105   */\n      dup2\n        /* \"#utility.yul\":8089:8105   */\n      swap1\n      pop\n        /* \"#utility.yul\":8035:8111   */\n      swap2\n      swap1\n      pop\n      jump\t// out\n        /* \"#utility.yul\":8117:8232   */\n    tag_275:\n        /* \"#utility.yul\":8202:8225   */\n      tag_414\n        /* \"#utility.yul\":8219:8224   */\n      dup2\n        /* \"#utility.yul\":8202:8225   */\n      tag_274\n      jump\t// in\n    tag_414:\n        /* \"#utility.yul\":8197:8200   */\n      dup3\n        /* \"#utility.yul\":8190:8226   */\n      mstore\n        /* \"#utility.yul\":8117:8232   */\n      pop\n      pop\n      jump\t// out\n        /* \"#utility.yul\":8238:8456   */\n    tag_41:\n        /* \"#utility.yul\":8329:8333   */\n      0x00\n        /* \"#utility.yul\":8367:8369   */\n      0x20\n        /* \"#utility.yul\":8356:8365   */\n      dup3\n        /* \"#utility.yul\":8352:8370   */\n      add\n        /* \"#utility.yul\":8344:8370   */\n      swap1\n      pop\n        /* \"#utility.yul\":8380:8449   */\n      tag_416\n        /* \"#utility.yul\":8446:8447   */\n      0x00\n        /* \"#utility.yul\":8435:8444   */\n      dup4\n        /* \"#utility.yul\":8431:8448   */\n      add\n        /* \"#utility.yul\":8422:8428   */\n      dup5\n        /* \"#utility.yul\":8380:8449   */\n      tag_275\n      jump\t// in\n    tag_416:\n        /* \"#utility.yul\":8238:8456   */\n      swap3\n      swap2\n      pop\n      pop\n      jump\t// out\n        /* \"#utility.yul\":8462:8571   */\n    tag_276:\n        /* \"#utility.yul\":8498:8505   */\n      0x00\n        /* \"#utility.yul\":8538:8564   */\n      0xffffffffffffffffffffffff\n        /* \"#utility.yul\":8531:8536   */\n      dup3\n        /* \"#utility.yul\":8527:8565   */\n      and\n        /* \"#utility.yul\":8516:8565   */\n      swap1\n      pop\n        /* \"#utility.yul\":8462:8571   */\n      swap2\n      swap1\n      pop\n      jump\t// out\n        /* \"#utility.yul\":8577:8692   */\n    tag_277:\n        /* \"#utility.yul\":8662:8685   */\n      tag_419\n        /* \"#utility.yul\":8679:8684   */\n      dup2\n        /* \"#utility.yul\":8662:8685   */\n      tag_276\n      jump\t// in\n    tag_419:\n        /* \"#utility.yul\":8657:8660   */\n      dup3\n        /* \"#utility.yul\":8650:8686   */\n      mstore\n        /* \"#utility.yul\":8577:8692   */\n      pop\n      pop\n      jump\t// out\n        /* \"#utility.yul\":8698:8916   */\n    tag_45:\n        /* \"#utility.yul\":8789:8793   */\n      0x00\n        /* \"#utility.yul\":8827:8829   */\n      0x20\n        /* \"#utility.yul\":8816:8825   */\n      dup3\n        /* \"#utility.yul\":8812:8830   */\n      add\n        /* \"#utility.yul\":8804:8830   */\n      swap1\n      pop\n        /* \"#utility.yul\":8840:8909   */\n      tag_421\n        /* \"#utility.yul\":8906:8907   */\n      0x00\n        /* \"#utility.yul\":8895:8904   */\n      dup4\n        /* \"#utility.yul\":8891:8908   */\n      add\n        /* \"#utility.yul\":8882:8888   */\n      dup5\n        /* \"#utility.yul\":8840:8909   */\n      tag_277\n      jump\t// in\n    tag_421:\n        /* \"#utility.yul\":8698:8916   */\n      swap3\n      swap2\n      pop\n      pop\n      jump\t// out\n        /* \"#utility.yul\":8922:9044   */\n    tag_278:\n        /* \"#utility.yul\":8995:9019   */\n      tag_423\n        /* \"#utility.yul\":9013:9018   */\n      dup2\n        /* \"#utility.yul\":8995:9019   */\n      tag_248\n      jump\t// in\n    tag_423:\n        /* \"#utility.yul\":8988:8993   */\n      dup2\n        /* \"#utility.yul\":8985:9020   */\n      eq\n        /* \"#utility.yul\":8975:9038   */\n      tag_424\n      jumpi\n        /* \"#utility.yul\":9034:9035   */\n      0x00\n        /* \"#utility.yul\":9031:9032   */\n      dup1\n        /* \"#utility.yul\":9024:9036   */\n      revert\n        /* \"#utility.yul\":8975:9038   */\n    tag_424:\n        /* \"#utility.yul\":8922:9044   */\n      pop\n      jump\t// out\n        /* \"#utility.yul\":9050:9189   */\n    tag_279:\n        /* \"#utility.yul\":9096:9101   */\n      0x00\n        /* \"#utility.yul\":9134:9140   */\n      dup2\n        /* \"#utility.yul\":9121:9141   */\n      calldataload\n        /* \"#utility.yul\":9112:9141   */\n      swap1\n      pop\n        /* \"#utility.yul\":9150:9183   */\n      tag_426\n        /* \"#utility.yul\":9177:9182   */\n      dup2\n        /* \"#utility.yul\":9150:9183   */\n      tag_278\n      jump\t// in\n    tag_426:\n        /* \"#utility.yul\":9050:9189   */\n      swap3\n      swap2\n      pop\n      pop\n      jump\t// out\n        /* \"#utility.yul\":9195:9315   */\n    tag_280:\n        /* \"#utility.yul\":9267:9290   */\n      tag_428\n        /* \"#utility.yul\":9284:9289   */\n      dup2\n        /* \"#utility.yul\":9267:9290   */\n      tag_241\n      jump\t// in\n    tag_428:\n        /* \"#utility.yul\":9260:9265   */\n      dup2\n        /* \"#utility.yul\":9257:9291   */\n      eq\n        /* \"#utility.yul\":9247:9309   */\n      tag_429\n      jumpi\n        /* \"#utility.yul\":9305:9306   */\n      0x00\n        /* \"#utility.yul\":9302:9303   */\n      dup1\n        /* \"#utility.yul\":9295:9307   */\n      revert\n        /* \"#utility.yul\":9247:9309   */\n    tag_429:\n        /* \"#utility.yul\":9195:9315   */\n      pop\n      jump\t// out\n        /* \"#utility.yul\":9321:9458   */\n    tag_281:\n        /* \"#utility.yul\":9366:9371   */\n      0x00\n        /* \"#utility.yul\":9404:9410   */\n      dup2\n        /* \"#utility.yul\":9391:9411   */\n      calldataload\n        /* \"#utility.yul\":9382:9411   */\n      swap1\n      pop\n        /* \"#utility.yul\":9420:9452   */\n      tag_431\n        /* \"#utility.yul\":9446:9451   */\n      dup2\n        /* \"#utility.yul\":9420:9452   */\n      tag_280\n      jump\t// in\n    tag_431:\n        /* \"#utility.yul\":9321:9458   */\n      swap3\n      swap2\n      pop\n      pop\n      jump\t// out\n        /* \"#utility.yul\":9464:9584   */\n    tag_282:\n        /* \"#utility.yul\":9536:9559   */\n      tag_433\n        /* \"#utility.yul\":9553:9558   */\n      dup2\n        /* \"#utility.yul\":9536:9559   */\n      tag_243\n      jump\t// in\n    tag_433:\n        /* \"#utility.yul\":9529:9534   */\n      dup2\n        /* \"#utility.yul\":9526:9560   */\n      eq\n        /* \"#utility.yul\":9516:9578   */\n      tag_434\n      jumpi\n        /* \"#utility.yul\":9574:9575   */\n      0x00\n        /* \"#utility.yul\":9571:9572   */\n      dup1\n        /* \"#utility.yul\":9564:9576   */\n      revert\n        /* \"#utility.yul\":9516:9578   */\n    tag_434:\n        /* \"#utility.yul\":9464:9584   */\n      pop\n      jump\t// out\n        /* \"#utility.yul\":9590:9727   */\n    tag_283:\n        /* \"#utility.yul\":9635:9640   */\n      0x00\n        /* \"#utility.yul\":9673:9679   */\n      dup2\n        /* \"#utility.yul\":9660:9680   */\n      calldataload\n        /* \"#utility.yul\":9651:9680   */\n      swap1\n      pop\n        /* \"#utility.yul\":9689:9721   */\n      tag_436\n        /* \"#utility.yul\":9715:9720   */\n      dup2\n        /* \"#utility.yul\":9689:9721   */\n      tag_282\n      jump\t// in\n    tag_436:\n        /* \"#utility.yul\":9590:9727   */\n      swap3\n      swap2\n      pop\n      pop\n      jump\t// out\n        /* \"#utility.yul\":9733:10636   */\n    tag_48:\n        /* \"#utility.yul\":9824:9830   */\n      0x00\n        /* \"#utility.yul\":9832:9838   */\n      dup1\n        /* \"#utility.yul\":9840:9846   */\n      0x00\n        /* \"#utility.yul\":9848:9854   */\n      dup1\n        /* \"#utility.yul\":9856:9862   */\n      0x00\n        /* \"#utility.yul\":9905:9908   */\n      0xa0\n        /* \"#utility.yul\":9893:9902   */\n      dup7\n        /* \"#utility.yul\":9884:9891   */\n      dup9\n        /* \"#utility.yul\":9880:9903   */\n      sub\n        /* \"#utility.yul\":9876:9909   */\n      slt\n        /* \"#utility.yul\":9873:9993   */\n      iszero\n      tag_438\n      jumpi\n        /* \"#utility.yul\":9912:9991   */\n      tag_439\n      tag_254\n      jump\t// in\n    tag_439:\n        /* \"#utility.yul\":9873:9993   */\n    tag_438:\n        /* \"#utility.yul\":10032:10033   */\n      0x00\n        /* \"#utility.yul\":10057:10110   */\n      tag_440\n        /* \"#utility.yul\":10102:10109   */\n      dup9\n        /* \"#utility.yul\":10093:10099   */\n      dup3\n        /* \"#utility.yul\":10082:10091   */\n      dup10\n        /* \"#utility.yul\":10078:10100   */\n      add\n        /* \"#utility.yul\":10057:10110   */\n      tag_279\n      jump\t// in\n    tag_440:\n        /* \"#utility.yul\":10047:10110   */\n      swap6\n      pop\n        /* \"#utility.yul\":10003:10120   */\n      pop\n        /* \"#utility.yul\":10159:10161   */\n      0x20\n        /* \"#utility.yul\":10185:10237   */\n      tag_441\n        /* \"#utility.yul\":10229:10236   */\n      dup9\n        /* \"#utility.yul\":10220:10226   */\n      dup3\n        /* \"#utility.yul\":10209:10218   */\n      dup10\n        /* \"#utility.yul\":10205:10227   */\n      add\n        /* \"#utility.yul\":10185:10237   */\n      tag_258\n      jump\t// in\n    tag_441:\n        /* \"#utility.yul\":10175:10237   */\n      swap5\n      pop\n        /* \"#utility.yul\":10130:10247   */\n      pop\n        /* \"#utility.yul\":10286:10288   */\n      0x40\n        /* \"#utility.yul\":10312:10364   */\n      tag_442\n        /* \"#utility.yul\":10356:10363   */\n      dup9\n        /* \"#utility.yul\":10347:10353   */\n      dup3\n        /* \"#utility.yul\":10336:10345   */\n      dup10\n        /* \"#utility.yul\":10332:10354   */\n      add\n        /* \"#utility.yul\":10312:10364   */\n      tag_281\n      jump\t// in\n    tag_442:\n        /* \"#utility.yul\":10302:10364   */\n      swap4\n      pop\n        /* \"#utility.yul\":10257:10374   */\n      pop\n        /* \"#utility.yul\":10413:10415   */\n      0x60\n        /* \"#utility.yul\":10439:10491   */\n      tag_443\n        /* \"#utility.yul\":10483:10490   */\n      dup9\n        /* \"#utility.yul\":10474:10480   */\n      dup3\n        /* \"#utility.yul\":10463:10472   */\n      dup10\n        /* \"#utility.yul\":10459:10481   */\n      add\n        /* \"#utility.yul\":10439:10491   */\n      tag_283\n      jump\t// in\n    tag_443:\n        /* \"#utility.yul\":10429:10491   */\n      swap3\n      pop\n        /* \"#utility.yul\":10384:10501   */\n      pop\n        /* \"#utility.yul\":10540:10543   */\n      0x80\n        /* \"#utility.yul\":10567:10619   */\n      tag_444\n        /* \"#utility.yul\":10611:10618   */\n      dup9\n        /* \"#utility.yul\":10602:10608   */\n      dup3\n        /* \"#utility.yul\":10591:10600   */\n      dup10\n        /* \"#utility.yul\":10587:10609   */\n      add\n        /* \"#utility.yul\":10567:10619   */\n      tag_283\n      jump\t// in\n    tag_444:\n        /* \"#utility.yul\":10557:10619   */\n      swap2\n      pop\n        /* \"#utility.yul\":10511:10629   */\n      pop\n        /* \"#utility.yul\":9733:10636   */\n      swap3\n      swap6\n      pop\n      swap3\n      swap6\n      swap1\n      swap4\n      pop\n      jump\t// out\n        /* \"#utility.yul\":10642:10760   */\n    tag_284:\n        /* \"#utility.yul\":10729:10753   */\n      tag_446\n        /* \"#utility.yul\":10747:10752   */\n      dup2\n        /* \"#utility.yul\":10729:10753   */\n      tag_263\n      jump\t// in\n    tag_446:\n        /* \"#utility.yul\":10724:10727   */\n      dup3\n        /* \"#utility.yul\":10717:10754   */\n      mstore\n        /* \"#utility.yul\":10642:10760   */\n      pop\n      pop\n      jump\t// out\n        /* \"#utility.yul\":10766:10988   */\n    tag_51:\n        /* \"#utility.yul\":10859:10863   */\n      0x00\n        /* \"#utility.yul\":10897:10899   */\n      0x20\n        /* \"#utility.yul\":10886:10895   */\n      dup3\n        /* \"#utility.yul\":10882:10900   */\n      add\n        /* \"#utility.yul\":10874:10900   */\n      swap1\n      pop\n        /* \"#utility.yul\":10910:10981   */\n      tag_448\n        /* \"#utility.yul\":10978:10979   */\n      0x00\n        /* \"#utility.yul\":10967:10976   */\n      dup4\n        /* \"#utility.yul\":10963:10980   */\n      add\n        /* \"#utility.yul\":10954:10960   */\n      dup5\n        /* \"#utility.yul\":10910:10981   */\n      tag_284\n      jump\t// in\n    tag_448:\n        /* \"#utility.yul\":10766:10988   */\n      swap3\n      swap2\n      pop\n      pop\n      jump\t// out\n        /* \"#utility.yul\":10994:11085   */\n    tag_285:\n        /* \"#utility.yul\":11030:11037   */\n      0x00\n        /* \"#utility.yul\":11070:11078   */\n      0xffffff\n        /* \"#utility.yul\":11063:11068   */\n      dup3\n        /* \"#utility.yul\":11059:11079   */\n      and\n        /* \"#utility.yul\":11048:11079   */\n      swap1\n      pop\n        /* \"#utility.yul\":10994:11085   */\n      swap2\n      swap1\n      pop\n      jump\t// out\n        /* \"#utility.yul\":11091:11206   */\n    tag_286:\n        /* \"#utility.yul\":11176:11199   */\n      tag_451\n        /* \"#utility.yul\":11193:11198   */\n      dup2\n        /* \"#utility.yul\":11176:11199   */\n      tag_285\n      jump\t// in\n    tag_451:\n        /* \"#utility.yul\":11171:11174   */\n      dup3\n        /* \"#utility.yul\":11164:11200   */\n      mstore\n        /* \"#utility.yul\":11091:11206   */\n      pop\n      pop\n      jump\t// out\n        /* \"#utility.yul\":11212:12284   */\n    tag_55:\n        /* \"#utility.yul\":11511:11515   */\n      0x00\n        /* \"#utility.yul\":11549:11552   */\n      0x0120\n        /* \"#utility.yul\":11538:11547   */\n      dup3\n        /* \"#utility.yul\":11534:11553   */\n      add\n        /* \"#utility.yul\":11526:11553   */\n      swap1\n      pop\n        /* \"#utility.yul\":11563:11632   */\n      tag_453\n        /* \"#utility.yul\":11629:11630   */\n      0x00\n        /* \"#utility.yul\":11618:11627   */\n      dup4\n        /* \"#utility.yul\":11614:11631   */\n      add\n        /* \"#utility.yul\":11605:11611   */\n      dup13\n        /* \"#utility.yul\":11563:11632   */\n      tag_244\n      jump\t// in\n    tag_453:\n        /* \"#utility.yul\":11642:11712   */\n      tag_454\n        /* \"#utility.yul\":11708:11710   */\n      0x20\n        /* \"#utility.yul\":11697:11706   */\n      dup4\n        /* \"#utility.yul\":11693:11711   */\n      add\n        /* \"#utility.yul\":11684:11690   */\n      dup12\n        /* \"#utility.yul\":11642:11712   */\n      tag_244\n      jump\t// in\n    tag_454:\n        /* \"#utility.yul\":11722:11792   */\n      tag_455\n        /* \"#utility.yul\":11788:11790   */\n      0x40\n        /* \"#utility.yul\":11777:11786   */\n      dup4\n        /* \"#utility.yul\":11773:11791   */\n      add\n        /* \"#utility.yul\":11764:11770   */\n      dup11\n        /* \"#utility.yul\":11722:11792   */\n      tag_244\n      jump\t// in\n    tag_455:\n        /* \"#utility.yul\":11802:11872   */\n      tag_456\n        /* \"#utility.yul\":11868:11870   */\n      0x60\n        /* \"#utility.yul\":11857:11866   */\n      dup4\n        /* \"#utility.yul\":11853:11871   */\n      add\n        /* \"#utility.yul\":11844:11850   */\n      dup10\n        /* \"#utility.yul\":11802:11872   */\n      tag_244\n      jump\t// in\n    tag_456:\n        /* \"#utility.yul\":11882:11953   */\n      tag_457\n        /* \"#utility.yul\":11948:11951   */\n      0x80\n        /* \"#utility.yul\":11937:11946   */\n      dup4\n        /* \"#utility.yul\":11933:11952   */\n      add\n        /* \"#utility.yul\":11924:11930   */\n      dup9\n        /* \"#utility.yul\":11882:11953   */\n      tag_244\n      jump\t// in\n    tag_457:\n        /* \"#utility.yul\":11963:12034   */\n      tag_458\n        /* \"#utility.yul\":12029:12032   */\n      0xa0\n        /* \"#utility.yul\":12018:12027   */\n      dup4\n        /* \"#utility.yul\":12014:12033   */\n      add\n        /* \"#utility.yul\":12005:12011   */\n      dup8\n        /* \"#utility.yul\":11963:12034   */\n      tag_286\n      jump\t// in\n    tag_458:\n        /* \"#utility.yul\":12044:12115   */\n      tag_459\n        /* \"#utility.yul\":12110:12113   */\n      0xc0\n        /* \"#utility.yul\":12099:12108   */\n      dup4\n        /* \"#utility.yul\":12095:12114   */\n      add\n        /* \"#utility.yul\":12086:12092   */\n      dup7\n        /* \"#utility.yul\":12044:12115   */\n      tag_286\n      jump\t// in\n    tag_459:\n        /* \"#utility.yul\":12125:12196   */\n      tag_460\n        /* \"#utility.yul\":12191:12194   */\n      0xe0\n        /* \"#utility.yul\":12180:12189   */\n      dup4\n        /* \"#utility.yul\":12176:12195   */\n      add\n        /* \"#utility.yul\":12167:12173   */\n      dup6\n        /* \"#utility.yul\":12125:12196   */\n      tag_286\n      jump\t// in\n    tag_460:\n        /* \"#utility.yul\":12206:12277   */\n      tag_461\n        /* \"#utility.yul\":12272:12275   */\n      0x0100\n        /* \"#utility.yul\":12261:12270   */\n      dup4\n        /* \"#utility.yul\":12257:12276   */\n      add\n        /* \"#utility.yul\":12248:12254   */\n      dup5\n        /* \"#utility.yul\":12206:12277   */\n      tag_286\n      jump\t// in\n    tag_461:\n        /* \"#utility.yul\":11212:12284   */\n      swap11\n      swap10\n      pop\n      pop\n      pop\n      pop\n      pop\n      pop\n      pop\n      pop\n      pop\n      pop\n      jump\t// out\n        /* \"#utility.yul\":12290:12508   */\n    tag_59:\n        /* \"#utility.yul\":12381:12385   */\n      0x00\n        /* \"#utility.yul\":12419:12421   */\n      0x20\n        /* \"#utility.yul\":12408:12417   */\n      dup3\n        /* \"#utility.yul\":12404:12422   */\n      add\n        /* \"#utility.yul\":12396:12422   */\n      swap1\n      pop\n        /* \"#utility.yul\":12432:12501   */\n      tag_463\n        /* \"#utility.yul\":12498:12499   */\n      0x00\n        /* \"#utility.yul\":12487:12496   */\n      dup4\n        /* \"#utility.yul\":12483:12500   */\n      add\n        /* \"#utility.yul\":12474:12480   */\n      dup5\n        /* \"#utility.yul\":12432:12501   */\n      tag_242\n      jump\t// in\n    tag_463:\n        /* \"#utility.yul\":12290:12508   */\n      swap3\n      swap2\n      pop\n      pop\n      jump\t// out\n        /* \"#utility.yul\":12514:12988   */\n    tag_65:\n        /* \"#utility.yul\":12582:12588   */\n      0x00\n        /* \"#utility.yul\":12590:12596   */\n      dup1\n        /* \"#utility.yul\":12639:12641   */\n      0x40\n        /* \"#utility.yul\":12627:12636   */\n      dup4\n        /* \"#utility.yul\":12618:12625   */\n      dup6\n        /* \"#utility.yul\":12614:12637   */\n      sub\n        /* \"#utility.yul\":12610:12642   */\n      slt\n        /* \"#utility.yul\":12607:12726   */\n      iszero\n      tag_465\n      jumpi\n        /* \"#utility.yul\":12645:12724   */\n      tag_466\n      tag_254\n      jump\t// in\n    tag_466:\n        /* \"#utility.yul\":12607:12726   */\n    tag_465:\n        /* \"#utility.yul\":12765:12766   */\n      0x00\n        /* \"#utility.yul\":12790:12843   */\n      tag_467\n        /* \"#utility.yul\":12835:12842   */\n      dup6\n        /* \"#utility.yul\":12826:12832   */\n      dup3\n        /* \"#utility.yul\":12815:12824   */\n      dup7\n        /* \"#utility.yul\":12811:12833   */\n      add\n        /* \"#utility.yul\":12790:12843   */\n      tag_265\n      jump\t// in\n    tag_467:\n        /* \"#utility.yul\":12780:12843   */\n      swap3\n      pop\n        /* \"#utility.yul\":12736:12853   */\n      pop\n        /* \"#utility.yul\":12892:12894   */\n      0x20\n        /* \"#utility.yul\":12918:12971   */\n      tag_468\n        /* \"#utility.yul\":12963:12970   */\n      dup6\n        /* \"#utility.yul\":12954:12960   */\n      dup3\n        /* \"#utility.yul\":12943:12952   */\n      dup7\n        /* \"#utility.yul\":12939:12961   */\n      add\n        /* \"#utility.yul\":12918:12971   */\n      tag_262\n      jump\t// in\n    tag_468:\n        /* \"#utility.yul\":12908:12971   */\n      swap2\n      pop\n        /* \"#utility.yul\":12863:12981   */\n      pop\n        /* \"#utility.yul\":12514:12988   */\n      swap3\n      pop\n      swap3\n      swap1\n      pop\n      jump\t// out\n        /* \"#utility.yul\":12994:13321   */\n    tag_69:\n        /* \"#utility.yul\":13052:13058   */\n      0x00\n        /* \"#utility.yul\":13101:13103   */\n      0x20\n        /* \"#utility.yul\":13089:13098   */\n      dup3\n        /* \"#utility.yul\":13080:13087   */\n      dup5\n        /* \"#utility.yul\":13076:13099   */\n      sub\n        /* \"#utility.yul\":13072:13104   */\n      slt\n        /* \"#utility.yul\":13069:13188   */\n      iszero\n      tag_470\n      jumpi\n        /* \"#utility.yul\":13107:13186   */\n      tag_471\n      tag_254\n      jump\t// in\n    tag_471:\n        /* \"#utility.yul\":13069:13188   */\n    tag_470:\n        /* \"#utility.yul\":13227:13228   */\n      0x00\n        /* \"#utility.yul\":13252:13304   */\n      tag_472\n        /* \"#utility.yul\":13296:13303   */\n      dup5\n        /* \"#utility.yul\":13287:13293   */\n      dup3\n        /* \"#utility.yul\":13276:13285   */\n      dup6\n        /* \"#utility.yul\":13272:13294   */\n      add\n        /* \"#utility.yul\":13252:13304   */\n      tag_258\n      jump\t// in\n    tag_472:\n        /* \"#utility.yul\":13242:13304   */\n      swap2\n      pop\n        /* \"#utility.yul\":13198:13314   */\n      pop\n        /* \"#utility.yul\":12994:13321   */\n      swap3\n      swap2\n      pop\n      pop\n      jump\t// out\n        /* \"#utility.yul\":13327:13442   */\n    tag_287:\n        /* \"#utility.yul\":13412:13435   */\n      tag_474\n        /* \"#utility.yul\":13429:13434   */\n      dup2\n        /* \"#utility.yul\":13412:13435   */\n      tag_256\n      jump\t// in\n    tag_474:\n        /* \"#utility.yul\":13407:13410   */\n      dup3\n        /* \"#utility.yul\":13400:13436   */\n      mstore\n        /* \"#utility.yul\":13327:13442   */\n      pop\n      pop\n      jump\t// out\n        /* \"#utility.yul\":13448:13666   */\n    tag_77:\n        /* \"#utility.yul\":13539:13543   */\n      0x00\n        /* \"#utility.yul\":13577:13579   */\n      0x20\n        /* \"#utility.yul\":13566:13575   */\n      dup3\n        /* \"#utility.yul\":13562:13580   */\n      add\n        /* \"#utility.yul\":13554:13580   */\n      swap1\n      pop\n        /* \"#utility.yul\":13590:13659   */\n      tag_476\n        /* \"#utility.yul\":13656:13657   */\n      0x00\n        /* \"#utility.yul\":13645:13654   */\n      dup4\n        /* \"#utility.yul\":13641:13658   */\n      add\n        /* \"#utility.yul\":13632:13638   */\n      dup5\n        /* \"#utility.yul\":13590:13659   */\n      tag_287\n      jump\t// in\n    tag_476:\n        /* \"#utility.yul\":13448:13666   */\n      swap3\n      swap2\n      pop\n      pop\n      jump\t// out\n        /* \"#utility.yul\":13672:13790   */\n    tag_288:\n        /* \"#utility.yul\":13759:13783   */\n      tag_478\n        /* \"#utility.yul\":13777:13782   */\n      dup2\n        /* \"#utility.yul\":13759:13783   */\n      tag_260\n      jump\t// in\n    tag_478:\n        /* \"#utility.yul\":13754:13757   */\n      dup3\n        /* \"#utility.yul\":13747:13784   */\n      mstore\n        /* \"#utility.yul\":13672:13790   */\n      pop\n      pop\n      jump\t// out\n        /* \"#utility.yul\":13796:13910   */\n    tag_289:\n        /* \"#utility.yul\":13863:13869   */\n      0x00\n        /* \"#utility.yul\":13897:13902   */\n      dup2\n        /* \"#utility.yul\":13891:13903   */\n      mload\n        /* \"#utility.yul\":13881:13903   */\n      swap1\n      pop\n        /* \"#utility.yul\":13796:13910   */\n      swap2\n      swap1\n      pop\n      jump\t// out\n        /* \"#utility.yul\":13916:14100   */\n    tag_290:\n        /* \"#utility.yul\":14015:14026   */\n      0x00\n        /* \"#utility.yul\":14049:14055   */\n      dup3\n        /* \"#utility.yul\":14044:14047   */\n      dup3\n        /* \"#utility.yul\":14037:14056   */\n      mstore\n        /* \"#utility.yul\":14089:14093   */\n      0x20\n        /* \"#utility.yul\":14084:14087   */\n      dup3\n        /* \"#utility.yul\":14080:14094   */\n      add\n        /* \"#utility.yul\":14065:14094   */\n      swap1\n      pop\n        /* \"#utility.yul\":13916:14100   */\n      swap3\n      swap2\n      pop\n      pop\n      jump\t// out\n        /* \"#utility.yul\":14106:14238   */\n    tag_291:\n        /* \"#utility.yul\":14173:14177   */\n      0x00\n        /* \"#utility.yul\":14196:14199   */\n      dup2\n        /* \"#utility.yul\":14188:14199   */\n      swap1\n      pop\n        /* \"#utility.yul\":14226:14230   */\n      0x20\n        /* \"#utility.yul\":14221:14224   */\n      dup3\n        /* \"#utility.yul\":14217:14231   */\n      add\n        /* \"#utility.yul\":14209:14231   */\n      swap1\n      pop\n        /* \"#utility.yul\":14106:14238   */\n      swap2\n      swap1\n      pop\n      jump\t// out\n        /* \"#utility.yul\":14244:14352   */\n    tag_292:\n        /* \"#utility.yul\":14321:14345   */\n      tag_483\n        /* \"#utility.yul\":14339:14344   */\n      dup2\n        /* \"#utility.yul\":14321:14345   */\n      tag_260\n      jump\t// in\n    tag_483:\n        /* \"#utility.yul\":14316:14319   */\n      dup3\n        /* \"#utility.yul\":14309:14346   */\n      mstore\n        /* \"#utility.yul\":14244:14352   */\n      pop\n      pop\n      jump\t// out\n        /* \"#utility.yul\":14358:14537   */\n    tag_293:\n        /* \"#utility.yul\":14427:14437   */\n      0x00\n        /* \"#utility.yul\":14448:14494   */\n      tag_485\n        /* \"#utility.yul\":14490:14493   */\n      dup4\n        /* \"#utility.yul\":14482:14488   */\n      dup4\n        /* \"#utility.yul\":14448:14494   */\n      tag_292\n      jump\t// in\n    tag_485:\n        /* \"#utility.yul\":14526:14530   */\n      0x20\n        /* \"#utility.yul\":14521:14524   */\n      dup4\n        /* \"#utility.yul\":14517:14531   */\n      add\n        /* \"#utility.yul\":14503:14531   */\n      swap1\n      pop\n        /* \"#utility.yul\":14358:14537   */\n      swap3\n      swap2\n      pop\n      pop\n      jump\t// out\n        /* \"#utility.yul\":14543:14656   */\n    tag_294:\n        /* \"#utility.yul\":14613:14617   */\n      0x00\n        /* \"#utility.yul\":14645:14649   */\n      0x20\n        /* \"#utility.yul\":14640:14643   */\n      dup3\n        /* \"#utility.yul\":14636:14650   */\n      add\n        /* \"#utility.yul\":14628:14650   */\n      swap1\n      pop\n        /* \"#utility.yul\":14543:14656   */\n      swap2\n      swap1\n      pop\n      jump\t// out\n        /* \"#utility.yul\":14692:15424   */\n    tag_295:\n        /* \"#utility.yul\":14811:14814   */\n      0x00\n        /* \"#utility.yul\":14840:14894   */\n      tag_488\n        /* \"#utility.yul\":14888:14893   */\n      dup3\n        /* \"#utility.yul\":14840:14894   */\n      tag_289\n      jump\t// in\n    tag_488:\n        /* \"#utility.yul\":14910:14996   */\n      tag_489\n        /* \"#utility.yul\":14989:14995   */\n      dup2\n        /* \"#utility.yul\":14984:14987   */\n      dup6\n        /* \"#utility.yul\":14910:14996   */\n      tag_290\n      jump\t// in\n    tag_489:\n        /* \"#utility.yul\":14903:14996   */\n      swap4\n      pop\n        /* \"#utility.yul\":15020:15076   */\n      tag_490\n        /* \"#utility.yul\":15070:15075   */\n      dup4\n        /* \"#utility.yul\":15020:15076   */\n      tag_291\n      jump\t// in\n    tag_490:\n        /* \"#utility.yul\":15099:15106   */\n      dup1\n        /* \"#utility.yul\":15130:15131   */\n      0x00\n        /* \"#utility.yul\":15115:15399   */\n    tag_491:\n        /* \"#utility.yul\":15140:15146   */\n      dup4\n        /* \"#utility.yul\":15137:15138   */\n      dup2\n        /* \"#utility.yul\":15134:15147   */\n      lt\n        /* \"#utility.yul\":15115:15399   */\n      iszero\n      tag_493\n      jumpi\n        /* \"#utility.yul\":15216:15222   */\n      dup2\n        /* \"#utility.yul\":15210:15223   */\n      mload\n        /* \"#utility.yul\":15243:15306   */\n      tag_494\n        /* \"#utility.yul\":15302:15305   */\n      dup9\n        /* \"#utility.yul\":15287:15300   */\n      dup3\n        /* \"#utility.yul\":15243:15306   */\n      tag_293\n      jump\t// in\n    tag_494:\n        /* \"#utility.yul\":15236:15306   */\n      swap8\n      pop\n        /* \"#utility.yul\":15329:15389   */\n      tag_495\n        /* \"#utility.yul\":15382:15388   */\n      dup4\n        /* \"#utility.yul\":15329:15389   */\n      tag_294\n      jump\t// in\n    tag_495:\n        /* \"#utility.yul\":15319:15389   */\n      swap3\n      pop\n        /* \"#utility.yul\":15175:15399   */\n      pop\n        /* \"#utility.yul\":15162:15163   */\n      0x01\n        /* \"#utility.yul\":15159:15160   */\n      dup2\n        /* \"#utility.yul\":15155:15164   */\n      add\n        /* \"#utility.yul\":15150:15164   */\n      swap1\n      pop\n        /* \"#utility.yul\":15115:15399   */\n      jump(tag_491)\n    tag_493:\n        /* \"#utility.yul\":15119:15133   */\n      pop\n        /* \"#utility.yul\":15415:15418   */\n      dup6\n        /* \"#utility.yul\":15408:15418   */\n      swap4\n      pop\n        /* \"#utility.yul\":14816:15424   */\n      pop\n      pop\n      pop\n        /* \"#utility.yul\":14692:15424   */\n      swap3\n      swap2\n      pop\n      pop\n      jump\t// out\n        /* \"#utility.yul\":15430:16126   */\n    tag_85:\n        /* \"#utility.yul\":15653:15657   */\n      0x00\n        /* \"#utility.yul\":15691:15694   */\n      0x80\n        /* \"#utility.yul\":15680:15689   */\n      dup3\n        /* \"#utility.yul\":15676:15695   */\n      add\n        /* \"#utility.yul\":15668:15695   */\n      swap1\n      pop\n        /* \"#utility.yul\":15705:15774   */\n      tag_497\n        /* \"#utility.yul\":15771:15772   */\n      0x00\n        /* \"#utility.yul\":15760:15769   */\n      dup4\n        /* \"#utility.yul\":15756:15773   */\n      add\n        /* \"#utility.yul\":15747:15753   */\n      dup8\n        /* \"#utility.yul\":15705:15774   */\n      tag_277\n      jump\t// in\n    tag_497:\n        /* \"#utility.yul\":15784:15854   */\n      tag_498\n        /* \"#utility.yul\":15850:15852   */\n      0x20\n        /* \"#utility.yul\":15839:15848   */\n      dup4\n        /* \"#utility.yul\":15835:15853   */\n      add\n        /* \"#utility.yul\":15826:15832   */\n      dup7\n        /* \"#utility.yul\":15784:15854   */\n      tag_287\n      jump\t// in\n    tag_498:\n        /* \"#utility.yul\":15864:15936   */\n      tag_499\n        /* \"#utility.yul\":15932:15934   */\n      0x40\n        /* \"#utility.yul\":15921:15930   */\n      dup4\n        /* \"#utility.yul\":15917:15935   */\n      add\n        /* \"#utility.yul\":15908:15914   */\n      dup6\n        /* \"#utility.yul\":15864:15936   */\n      tag_288\n      jump\t// in\n    tag_499:\n        /* \"#utility.yul\":15983:15992   */\n      dup2\n        /* \"#utility.yul\":15977:15981   */\n      dup2\n        /* \"#utility.yul\":15973:15993   */\n      sub\n        /* \"#utility.yul\":15968:15970   */\n      0x60\n        /* \"#utility.yul\":15957:15966   */\n      dup4\n        /* \"#utility.yul\":15953:15971   */\n      add\n        /* \"#utility.yul\":15946:15994   */\n      mstore\n        /* \"#utility.yul\":16011:16119   */\n      tag_500\n        /* \"#utility.yul\":16114:16118   */\n      dup2\n        /* \"#utility.yul\":16105:16111   */\n      dup5\n        /* \"#utility.yul\":16011:16119   */\n      tag_295\n      jump\t// in\n    tag_500:\n        /* \"#utility.yul\":16003:16119   */\n      swap1\n      pop\n        /* \"#utility.yul\":15430:16126   */\n      swap6\n      swap5\n      pop\n      pop\n      pop\n      pop\n      pop\n      jump\t// out\n        /* \"#utility.yul\":16132:16252   */\n    tag_296:\n        /* \"#utility.yul\":16204:16227   */\n      tag_502\n        /* \"#utility.yul\":16221:16226   */\n      dup2\n        /* \"#utility.yul\":16204:16227   */\n      tag_276\n      jump\t// in\n    tag_502:\n        /* \"#utility.yul\":16197:16202   */\n      dup2\n        /* \"#utility.yul\":16194:16228   */\n      eq\n        /* \"#utility.yul\":16184:16246   */\n      tag_503\n      jumpi\n        /* \"#utility.yul\":16242:16243   */\n      0x00\n        /* \"#utility.yul\":16239:16240   */\n      dup1\n        /* \"#utility.yul\":16232:16244   */\n      revert\n        /* \"#utility.yul\":16184:16246   */\n    tag_503:\n        /* \"#utility.yul\":16132:16252   */\n      pop\n      jump\t// out\n        /* \"#utility.yul\":16258:16395   */\n    tag_297:\n        /* \"#utility.yul\":16303:16308   */\n      0x00\n        /* \"#utility.yul\":16341:16347   */\n      dup2\n        /* \"#utility.yul\":16328:16348   */\n      calldataload\n        /* \"#utility.yul\":16319:16348   */\n      swap1\n      pop\n        /* \"#utility.yul\":16357:16389   */\n      tag_505\n        /* \"#utility.yul\":16383:16388   */\n      dup2\n        /* \"#utility.yul\":16357:16389   */\n      tag_296\n      jump\t// in\n    tag_505:\n        /* \"#utility.yul\":16258:16395   */\n      swap3\n      swap2\n      pop\n      pop\n      jump\t// out\n        /* \"#utility.yul\":16401:16871   */\n    tag_88:\n        /* \"#utility.yul\":16467:16473   */\n      0x00\n        /* \"#utility.yul\":16475:16481   */\n      dup1\n        /* \"#utility.yul\":16524:16526   */\n      0x40\n        /* \"#utility.yul\":16512:16521   */\n      dup4\n        /* \"#utility.yul\":16503:16510   */\n      dup6\n        /* \"#utility.yul\":16499:16522   */\n      sub\n        /* \"#utility.yul\":16495:16527   */\n      slt\n        /* \"#utility.yul\":16492:16611   */\n      iszero\n      tag_507\n      jumpi\n        /* \"#utility.yul\":16530:16609   */\n      tag_508\n      tag_254\n      jump\t// in\n    tag_508:\n        /* \"#utility.yul\":16492:16611   */\n    tag_507:\n        /* \"#utility.yul\":16650:16651   */\n      0x00\n        /* \"#utility.yul\":16675:16727   */\n      tag_509\n        /* \"#utility.yul\":16719:16726   */\n      dup6\n        /* \"#utility.yul\":16710:16716   */\n      dup3\n        /* \"#utility.yul\":16699:16708   */\n      dup7\n        /* \"#utility.yul\":16695:16717   */\n      add\n        /* \"#utility.yul\":16675:16727   */\n      tag_258\n      jump\t// in\n    tag_509:\n        /* \"#utility.yul\":16665:16727   */\n      swap3\n      pop\n        /* \"#utility.yul\":16621:16737   */\n      pop\n        /* \"#utility.yul\":16776:16778   */\n      0x20\n        /* \"#utility.yul\":16802:16854   */\n      tag_510\n        /* \"#utility.yul\":16846:16853   */\n      dup6\n        /* \"#utility.yul\":16837:16843   */\n      dup3\n        /* \"#utility.yul\":16826:16835   */\n      dup7\n        /* \"#utility.yul\":16822:16844   */\n      add\n        /* \"#utility.yul\":16802:16854   */\n      tag_297\n      jump\t// in\n    tag_510:\n        /* \"#utility.yul\":16792:16854   */\n      swap2\n      pop\n        /* \"#utility.yul\":16747:16864   */\n      pop\n        /* \"#utility.yul\":16401:16871   */\n      swap3\n      pop\n      swap3\n      swap1\n      pop\n      jump\t// out\n        /* \"#utility.yul\":16877:17414   */\n    tag_93:\n        /* \"#utility.yul\":17046:17050   */\n      0x00\n        /* \"#utility.yul\":17084:17087   */\n      0x80\n        /* \"#utility.yul\":17073:17082   */\n      dup3\n        /* \"#utility.yul\":17069:17088   */\n      add\n        /* \"#utility.yul\":17061:17088   */\n      swap1\n      pop\n        /* \"#utility.yul\":17098:17167   */\n      tag_512\n        /* \"#utility.yul\":17164:17165   */\n      0x00\n        /* \"#utility.yul\":17153:17162   */\n      dup4\n        /* \"#utility.yul\":17149:17166   */\n      add\n        /* \"#utility.yul\":17140:17146   */\n      dup8\n        /* \"#utility.yul\":17098:17167   */\n      tag_242\n      jump\t// in\n    tag_512:\n        /* \"#utility.yul\":17177:17247   */\n      tag_513\n        /* \"#utility.yul\":17243:17245   */\n      0x20\n        /* \"#utility.yul\":17232:17241   */\n      dup4\n        /* \"#utility.yul\":17228:17246   */\n      add\n        /* \"#utility.yul\":17219:17225   */\n      dup7\n        /* \"#utility.yul\":17177:17247   */\n      tag_244\n      jump\t// in\n    tag_513:\n        /* \"#utility.yul\":17257:17327   */\n      tag_514\n        /* \"#utility.yul\":17323:17325   */\n      0x40\n        /* \"#utility.yul\":17312:17321   */\n      dup4\n        /* \"#utility.yul\":17308:17326   */\n      add\n        /* \"#utility.yul\":17299:17305   */\n      dup6\n        /* \"#utility.yul\":17257:17327   */\n      tag_244\n      jump\t// in\n    tag_514:\n        /* \"#utility.yul\":17337:17407   */\n      tag_515\n        /* \"#utility.yul\":17403:17405   */\n      0x60\n        /* \"#utility.yul\":17392:17401   */\n      dup4\n        /* \"#utility.yul\":17388:17406   */\n      add\n        /* \"#utility.yul\":17379:17385   */\n      dup5\n        /* \"#utility.yul\":17337:17407   */\n      tag_244\n      jump\t// in\n    tag_515:\n        /* \"#utility.yul\":16877:17414   */\n      swap6\n      swap5\n      pop\n      pop\n      pop\n      pop\n      pop\n      jump\t// out\n        /* \"#utility.yul\":17420:17510   */\n    tag_298:\n        /* \"#utility.yul\":17454:17461   */\n      0x00\n        /* \"#utility.yul\":17497:17502   */\n      dup2\n        /* \"#utility.yul\":17490:17503   */\n      iszero\n        /* \"#utility.yul\":17483:17504   */\n      iszero\n        /* \"#utility.yul\":17472:17504   */\n      swap1\n      pop\n        /* \"#utility.yul\":17420:17510   */\n      swap2\n      swap1\n      pop\n      jump\t// out\n        /* \"#utility.yul\":17516:17625   */\n    tag_299:\n        /* \"#utility.yul\":17597:17618   */\n      tag_518\n        /* \"#utility.yul\":17612:17617   */\n      dup2\n        /* \"#utility.yul\":17597:17618   */\n      tag_298\n      jump\t// in\n    tag_518:\n        /* \"#utility.yul\":17592:17595   */\n      dup3\n        /* \"#utility.yul\":17585:17619   */\n      mstore\n        /* \"#utility.yul\":17516:17625   */\n      pop\n      pop\n      jump\t// out\n        /* \"#utility.yul\":17631:17841   */\n    tag_101:\n        /* \"#utility.yul\":17718:17722   */\n      0x00\n        /* \"#utility.yul\":17756:17758   */\n      0x20\n        /* \"#utility.yul\":17745:17754   */\n      dup3\n        /* \"#utility.yul\":17741:17759   */\n      add\n        /* \"#utility.yul\":17733:17759   */\n      swap1\n      pop\n        /* \"#utility.yul\":17769:17834   */\n      tag_520\n        /* \"#utility.yul\":17831:17832   */\n      0x00\n        /* \"#utility.yul\":17820:17829   */\n      dup4\n        /* \"#utility.yul\":17816:17833   */\n      add\n        /* \"#utility.yul\":17807:17813   */\n      dup5\n        /* \"#utility.yul\":17769:17834   */\n      tag_299\n      jump\t// in\n    tag_520:\n        /* \"#utility.yul\":17631:17841   */\n      swap3\n      swap2\n      pop\n      pop\n      jump\t// out\n        /* \"#utility.yul\":17847:18016   */\n    tag_300:\n        /* \"#utility.yul\":17931:17942   */\n      0x00\n        /* \"#utility.yul\":17965:17971   */\n      dup3\n        /* \"#utility.yul\":17960:17963   */\n      dup3\n        /* \"#utility.yul\":17953:17972   */\n      mstore\n        /* \"#utility.yul\":18005:18009   */\n      0x20\n        /* \"#utility.yul\":18000:18003   */\n      dup3\n        /* \"#utility.yul\":17996:18010   */\n      add\n        /* \"#utility.yul\":17981:18010   */\n      swap1\n      pop\n        /* \"#utility.yul\":17847:18016   */\n      swap3\n      swap2\n      pop\n      pop\n      jump\t// out\n        /* \"#utility.yul\":18022:18187   */\n    tag_301:\n        /* \"#utility.yul\":18162:18179   */\n      0x6e6f7420696d706c656d656e7465640000000000000000000000000000000000\n        /* \"#utility.yul\":18158:18159   */\n      0x00\n        /* \"#utility.yul\":18150:18156   */\n      dup3\n        /* \"#utility.yul\":18146:18160   */\n      add\n        /* \"#utility.yul\":18139:18180   */\n      mstore\n        /* \"#utility.yul\":18022:18187   */\n      pop\n      jump\t// out\n        /* \"#utility.yul\":18193:18559   */\n    tag_302:\n        /* \"#utility.yul\":18335:18338   */\n      0x00\n        /* \"#utility.yul\":18356:18423   */\n      tag_524\n        /* \"#utility.yul\":18420:18422   */\n      0x0f\n        /* \"#utility.yul\":18415:18418   */\n      dup4\n        /* \"#utility.yul\":18356:18423   */\n      tag_300\n      jump\t// in\n    tag_524:\n        /* \"#utility.yul\":18349:18423   */\n      swap2\n      pop\n        /* \"#utility.yul\":18432:18525   */\n      tag_525\n        /* \"#utility.yul\":18521:18524   */\n      dup3\n        /* \"#utility.yul\":18432:18525   */\n      tag_301\n      jump\t// in\n    tag_525:\n        /* \"#utility.yul\":18550:18552   */\n      0x20\n        /* \"#utility.yul\":18545:18548   */\n      dup3\n        /* \"#utility.yul\":18541:18553   */\n      add\n        /* \"#utility.yul\":18534:18553   */\n      swap1\n      pop\n        /* \"#utility.yul\":18193:18559   */\n      swap2\n      swap1\n      pop\n      jump\t// out\n        /* \"#utility.yul\":18565:18984   */\n    tag_113:\n        /* \"#utility.yul\":18731:18735   */\n      0x00\n        /* \"#utility.yul\":18769:18771   */\n      0x20\n        /* \"#utility.yul\":18758:18767   */\n      dup3\n        /* \"#utility.yul\":18754:18772   */\n      add\n        /* \"#utility.yul\":18746:18772   */\n      swap1\n      pop\n        /* \"#utility.yul\":18818:18827   */\n      dup2\n        /* \"#utility.yul\":18812:18816   */\n      dup2\n        /* \"#utility.yul\":18808:18828   */\n      sub\n        /* \"#utility.yul\":18804:18805   */\n      0x00\n        /* \"#utility.yul\":18793:18802   */\n      dup4\n        /* \"#utility.yul\":18789:18806   */\n      add\n        /* \"#utility.yul\":18782:18829   */\n      mstore\n        /* \"#utility.yul\":18846:18977   */\n      tag_527\n        /* \"#utility.yul\":18972:18976   */\n      dup2\n        /* \"#utility.yul\":18846:18977   */\n      tag_302\n      jump\t// in\n    tag_527:\n        /* \"#utility.yul\":18838:18977   */\n      swap1\n      pop\n        /* \"#utility.yul\":18565:18984   */\n      swap2\n      swap1\n      pop\n      jump\t// out\n        /* \"#utility.yul\":18990:19159   */\n    tag_303:\n        /* \"#utility.yul\":19130:19151   */\n      0x6e6f6e6578697374656e74207265717565737400000000000000000000000000\n        /* \"#utility.yul\":19126:19127   */\n      0x00\n        /* \"#utility.yul\":19118:19124   */\n      dup3\n        /* \"#utility.yul\":19114:19128   */\n      add\n        /* \"#utility.yul\":19107:19152   */\n      mstore\n        /* \"#utility.yul\":18990:19159   */\n      pop\n      jump\t// out\n        /* \"#utility.yul\":19165:19531   */\n    tag_304:\n        /* \"#utility.yul\":19307:19310   */\n      0x00\n        /* \"#utility.yul\":19328:19395   */\n      tag_530\n        /* \"#utility.yul\":19392:19394   */\n      0x13\n        /* \"#utility.yul\":19387:19390   */\n      dup4\n        /* \"#utility.yul\":19328:19395   */\n      tag_300\n      jump\t// in\n    tag_530:\n        /* \"#utility.yul\":19321:19395   */\n      swap2\n      pop\n        /* \"#utility.yul\":19404:19497   */\n      tag_531\n        /* \"#utility.yul\":19493:19496   */\n      dup3\n        /* \"#utility.yul\":19404:19497   */\n      tag_303\n      jump\t// in\n    tag_531:\n        /* \"#utility.yul\":19522:19524   */\n      0x20\n        /* \"#utility.yul\":19517:19520   */\n      dup3\n        /* \"#utility.yul\":19513:19525   */\n      add\n        /* \"#utility.yul\":19506:19525   */\n      swap1\n      pop\n        /* \"#utility.yul\":19165:19531   */\n      swap2\n      swap1\n      pop\n      jump\t// out\n        /* \"#utility.yul\":19537:19956   */\n    tag_117:\n        /* \"#utility.yul\":19703:19707   */\n      0x00\n        /* \"#utility.yul\":19741:19743   */\n      0x20\n        /* \"#utility.yul\":19730:19739   */\n      dup3\n        /* \"#utility.yul\":19726:19744   */\n      add\n        /* \"#utility.yul\":19718:19744   */\n      swap1\n      pop\n        /* \"#utility.yul\":19790:19799   */\n      dup2\n        /* \"#utility.yul\":19784:19788   */\n      dup2\n        /* \"#utility.yul\":19780:19800   */\n      sub\n        /* \"#utility.yul\":19776:19777   */\n      0x00\n        /* \"#utility.yul\":19765:19774   */\n      dup4\n        /* \"#utility.yul\":19761:19778   */\n      add\n        /* \"#utility.yul\":19754:19801   */\n      mstore\n        /* \"#utility.yul\":19818:19949   */\n      tag_533\n        /* \"#utility.yul\":19944:19948   */\n      dup2\n        /* \"#utility.yul\":19818:19949   */\n      tag_304\n      jump\t// in\n    tag_533:\n        /* \"#utility.yul\":19810:19949   */\n      swap1\n      pop\n        /* \"#utility.yul\":19537:19956   */\n      swap2\n      swap1\n      pop\n      jump\t// out\n        /* \"#utility.yul\":19962:20294   */\n    tag_126:\n        /* \"#utility.yul\":20083:20087   */\n      0x00\n        /* \"#utility.yul\":20121:20123   */\n      0x40\n        /* \"#utility.yul\":20110:20119   */\n      dup3\n        /* \"#utility.yul\":20106:20124   */\n      add\n        /* \"#utility.yul\":20098:20124   */\n      swap1\n      pop\n        /* \"#utility.yul\":20134:20205   */\n      tag_535\n        /* \"#utility.yul\":20202:20203   */\n      0x00\n        /* \"#utility.yul\":20191:20200   */\n      dup4\n        /* \"#utility.yul\":20187:20204   */\n      add\n        /* \"#utility.yul\":20178:20184   */\n      dup6\n        /* \"#utility.yul\":20134:20205   */\n      tag_284\n      jump\t// in\n    tag_535:\n        /* \"#utility.yul\":20215:20287   */\n      tag_536\n        /* \"#utility.yul\":20283:20285   */\n      0x20\n        /* \"#utility.yul\":20272:20281   */\n      dup4\n        /* \"#utility.yul\":20268:20286   */\n      add\n        /* \"#utility.yul\":20259:20265   */\n      dup5\n        /* \"#utility.yul\":20215:20287   */\n      tag_284\n      jump\t// in\n    tag_536:\n        /* \"#utility.yul\":19962:20294   */\n      swap4\n      swap3\n      pop\n      pop\n      pop\n      jump\t// out\n        /* \"#utility.yul\":20300:20480   */\n    tag_129:\n        /* \"#utility.yul\":20348:20425   */\n      0x4e487b7100000000000000000000000000000000000000000000000000000000\n        /* \"#utility.yul\":20345:20346   */\n      0x00\n        /* \"#utility.yul\":20338:20426   */\n      mstore\n        /* \"#utility.yul\":20445:20449   */\n      0x32\n        /* \"#utility.yul\":20442:20443   */\n      0x04\n        /* \"#utility.yul\":20435:20450   */\n      mstore\n        /* \"#utility.yul\":20469:20473   */\n      0x24\n        /* \"#utility.yul\":20466:20467   */\n      0x00\n        /* \"#utility.yul\":20459:20474   */\n      revert\n        /* \"#utility.yul\":20486:20600   */\n    tag_305:\n        /* \"#utility.yul\":20553:20559   */\n      0x00\n        /* \"#utility.yul\":20587:20592   */\n      dup2\n        /* \"#utility.yul\":20581:20593   */\n      mload\n        /* \"#utility.yul\":20571:20593   */\n      swap1\n      pop\n        /* \"#utility.yul\":20486:20600   */\n      swap2\n      swap1\n      pop\n      jump\t// out\n        /* \"#utility.yul\":20606:20790   */\n    tag_306:\n        /* \"#utility.yul\":20705:20716   */\n      0x00\n        /* \"#utility.yul\":20739:20745   */\n      dup3\n        /* \"#utility.yul\":20734:20737   */\n      dup3\n        /* \"#utility.yul\":20727:20746   */\n      mstore\n        /* \"#utility.yul\":20779:20783   */\n      0x20\n        /* \"#utility.yul\":20774:20777   */\n      dup3\n        /* \"#utility.yul\":20770:20784   */\n      add\n        /* \"#utility.yul\":20755:20784   */\n      swap1\n      pop\n        /* \"#utility.yul\":20606:20790   */\n      swap3\n      swap2\n      pop\n      pop\n      jump\t// out\n        /* \"#utility.yul\":20796:20928   */\n    tag_307:\n        /* \"#utility.yul\":20863:20867   */\n      0x00\n        /* \"#utility.yul\":20886:20889   */\n      dup2\n        /* \"#utility.yul\":20878:20889   */\n      swap1\n      pop\n        /* \"#utility.yul\":20916:20920   */\n      0x20\n        /* \"#utility.yul\":20911:20914   */\n      dup3\n        /* \"#utility.yul\":20907:20921   */\n      add\n        /* \"#utility.yul\":20899:20921   */\n      swap1\n      pop\n        /* \"#utility.yul\":20796:20928   */\n      swap2\n      swap1\n      pop\n      jump\t// out\n        /* \"#utility.yul\":20934:21042   */\n    tag_308:\n        /* \"#utility.yul\":21011:21035   */\n      tag_542\n        /* \"#utility.yul\":21029:21034   */\n      dup2\n        /* \"#utility.yul\":21011:21035   */\n      tag_263\n      jump\t// in\n    tag_542:\n        /* \"#utility.yul\":21006:21009   */\n      dup3\n        /* \"#utility.yul\":20999:21036   */\n      mstore\n        /* \"#utility.yul\":20934:21042   */\n      pop\n      pop\n      jump\t// out\n        /* \"#utility.yul\":21048:21227   */\n    tag_309:\n        /* \"#utility.yul\":21117:21127   */\n      0x00\n        /* \"#utility.yul\":21138:21184   */\n      tag_544\n        /* \"#utility.yul\":21180:21183   */\n      dup4\n        /* \"#utility.yul\":21172:21178   */\n      dup4\n        /* \"#utility.yul\":21138:21184   */\n      tag_308\n      jump\t// in\n    tag_544:\n        /* \"#utility.yul\":21216:21220   */\n      0x20\n        /* \"#utility.yul\":21211:21214   */\n      dup4\n        /* \"#utility.yul\":21207:21221   */\n      add\n        /* \"#utility.yul\":21193:21221   */\n      swap1\n      pop\n        /* \"#utility.yul\":21048:21227   */\n      swap3\n      swap2\n      pop\n      pop\n      jump\t// out\n        /* \"#utility.yul\":21233:21346   */\n    tag_310:\n        /* \"#utility.yul\":21303:21307   */\n      0x00\n        /* \"#utility.yul\":21335:21339   */\n      0x20\n        /* \"#utility.yul\":21330:21333   */\n      dup3\n        /* \"#utility.yul\":21326:21340   */\n      add\n        /* \"#utility.yul\":21318:21340   */\n      swap1\n      pop\n        /* \"#utility.yul\":21233:21346   */\n      swap2\n      swap1\n      pop\n      jump\t// out\n        /* \"#utility.yul\":21382:22114   */\n    tag_311:\n        /* \"#utility.yul\":21501:21504   */\n      0x00\n        /* \"#utility.yul\":21530:21584   */\n      tag_547\n        /* \"#utility.yul\":21578:21583   */\n      dup3\n        /* \"#utility.yul\":21530:21584   */\n      tag_305\n      jump\t// in\n    tag_547:\n        /* \"#utility.yul\":21600:21686   */\n      tag_548\n        /* \"#utility.yul\":21679:21685   */\n      dup2\n        /* \"#utility.yul\":21674:21677   */\n      dup6\n        /* \"#utility.yul\":21600:21686   */\n      tag_306\n      jump\t// in\n    tag_548:\n        /* \"#utility.yul\":21593:21686   */\n      swap4\n      pop\n        /* \"#utility.yul\":21710:21766   */\n      tag_549\n        /* \"#utility.yul\":21760:21765   */\n      dup4\n        /* \"#utility.yul\":21710:21766   */\n      tag_307\n      jump\t// in\n    tag_549:\n        /* \"#utility.yul\":21789:21796   */\n      dup1\n        /* \"#utility.yul\":21820:21821   */\n      0x00\n        /* \"#utility.yul\":21805:22089   */\n    tag_550:\n        /* \"#utility.yul\":21830:21836   */\n      dup4\n        /* \"#utility.yul\":21827:21828   */\n      dup2\n        /* \"#utility.yul\":21824:21837   */\n      lt\n        /* \"#utility.yul\":21805:22089   */\n      iszero\n      tag_552\n      jumpi\n        /* \"#utility.yul\":21906:21912   */\n      dup2\n        /* \"#utility.yul\":21900:21913   */\n      mload\n        /* \"#utility.yul\":21933:21996   */\n      tag_553\n        /* \"#utility.yul\":21992:21995   */\n      dup9\n        /* \"#utility.yul\":21977:21990   */\n      dup3\n        /* \"#utility.yul\":21933:21996   */\n      tag_309\n      jump\t// in\n    tag_553:\n        /* \"#utility.yul\":21926:21996   */\n      swap8\n      pop\n        /* \"#utility.yul\":22019:22079   */\n      tag_554\n        /* \"#utility.yul\":22072:22078   */\n      dup4\n        /* \"#utility.yul\":22019:22079   */\n      tag_310\n      jump\t// in\n    tag_554:\n        /* \"#utility.yul\":22009:22079   */\n      swap3\n      pop\n        /* \"#utility.yul\":21865:22089   */\n      pop\n        /* \"#utility.yul\":21852:21853   */\n      0x01\n        /* \"#utility.yul\":21849:21850   */\n      dup2\n        /* \"#utility.yul\":21845:21854   */\n      add\n        /* \"#utility.yul\":21840:21854   */\n      swap1\n      pop\n        /* \"#utility.yul\":21805:22089   */\n      jump(tag_550)\n    tag_552:\n        /* \"#utility.yul\":21809:21823   */\n      pop\n        /* \"#utility.yul\":22105:22108   */\n      dup6\n        /* \"#utility.yul\":22098:22108   */\n      swap4\n      pop\n        /* \"#utility.yul\":21506:22114   */\n      pop\n      pop\n      pop\n        /* \"#utility.yul\":21382:22114   */\n      swap3\n      swap2\n      pop\n      pop\n      jump\t// out\n        /* \"#utility.yul\":22120:22603   */\n    tag_133:\n        /* \"#utility.yul\":22291:22295   */\n      0x00\n        /* \"#utility.yul\":22329:22331   */\n      0x40\n        /* \"#utility.yul\":22318:22327   */\n      dup3\n        /* \"#utility.yul\":22314:22332   */\n      add\n        /* \"#utility.yul\":22306:22332   */\n      swap1\n      pop\n        /* \"#utility.yul\":22342:22413   */\n      tag_556\n        /* \"#utility.yul\":22410:22411   */\n      0x00\n        /* \"#utility.yul\":22399:22408   */\n      dup4\n        /* \"#utility.yul\":22395:22412   */\n      add\n        /* \"#utility.yul\":22386:22392   */\n      dup6\n        /* \"#utility.yul\":22342:22413   */\n      tag_284\n      jump\t// in\n    tag_556:\n        /* \"#utility.yul\":22460:22469   */\n      dup2\n        /* \"#utility.yul\":22454:22458   */\n      dup2\n        /* \"#utility.yul\":22450:22470   */\n      sub\n        /* \"#utility.yul\":22445:22447   */\n      0x20\n        /* \"#utility.yul\":22434:22443   */\n      dup4\n        /* \"#utility.yul\":22430:22448   */\n      add\n        /* \"#utility.yul\":22423:22471   */\n      mstore\n        /* \"#utility.yul\":22488:22596   */\n      tag_557\n        /* \"#utility.yul\":22591:22595   */\n      dup2\n        /* \"#utility.yul\":22582:22588   */\n      dup5\n        /* \"#utility.yul\":22488:22596   */\n      tag_311\n      jump\t// in\n    tag_557:\n        /* \"#utility.yul\":22480:22596   */\n      swap1\n      pop\n        /* \"#utility.yul\":22120:22603   */\n      swap4\n      swap3\n      pop\n      pop\n      pop\n      jump\t// out\n        /* \"#utility.yul\":22609:22707   */\n    tag_312:\n        /* \"#utility.yul\":22660:22666   */\n      0x00\n        /* \"#utility.yul\":22694:22699   */\n      dup2\n        /* \"#utility.yul\":22688:22700   */\n      mload\n        /* \"#utility.yul\":22678:22700   */\n      swap1\n      pop\n        /* \"#utility.yul\":22609:22707   */\n      swap2\n      swap1\n      pop\n      jump\t// out\n        /* \"#utility.yul\":22713:22860   */\n    tag_313:\n        /* \"#utility.yul\":22814:22825   */\n      0x00\n        /* \"#utility.yul\":22851:22854   */\n      dup2\n        /* \"#utility.yul\":22836:22854   */\n      swap1\n      pop\n        /* \"#utility.yul\":22713:22860   */\n      swap3\n      swap2\n      pop\n      pop\n      jump\t// out\n        /* \"#utility.yul\":22866:23005   */\n    tag_314:\n        /* \"#utility.yul\":22955:22961   */\n      dup3\n        /* \"#utility.yul\":22950:22953   */\n      dup2\n        /* \"#utility.yul\":22945:22948   */\n      dup4\n        /* \"#utility.yul\":22939:22962   */\n      mcopy\n        /* \"#utility.yul\":22996:22997   */\n      0x00\n        /* \"#utility.yul\":22987:22993   */\n      dup4\n        /* \"#utility.yul\":22982:22985   */\n      dup4\n        /* \"#utility.yul\":22978:22994   */\n      add\n        /* \"#utility.yul\":22971:22998   */\n      mstore\n        /* \"#utility.yul\":22866:23005   */\n      pop\n      pop\n      pop\n      jump\t// out\n        /* \"#utility.yul\":23011:23397   */\n    tag_315:\n        /* \"#utility.yul\":23115:23118   */\n      0x00\n        /* \"#utility.yul\":23143:23181   */\n      tag_562\n        /* \"#utility.yul\":23175:23180   */\n      dup3\n        /* \"#utility.yul\":23143:23181   */\n      tag_312\n      jump\t// in\n    tag_562:\n        /* \"#utility.yul\":23197:23285   */\n      tag_563\n        /* \"#utility.yul\":23278:23284   */\n      dup2\n        /* \"#utility.yul\":23273:23276   */\n      dup6\n        /* \"#utility.yul\":23197:23285   */\n      tag_313\n      jump\t// in\n    tag_563:\n        /* \"#utility.yul\":23190:23285   */\n      swap4\n      pop\n        /* \"#utility.yul\":23294:23359   */\n      tag_564\n        /* \"#utility.yul\":23352:23358   */\n      dup2\n        /* \"#utility.yul\":23347:23350   */\n      dup6\n        /* \"#utility.yul\":23340:23344   */\n      0x20\n        /* \"#utility.yul\":23333:23338   */\n      dup7\n        /* \"#utility.yul\":23329:23345   */\n      add\n        /* \"#utility.yul\":23294:23359   */\n      tag_314\n      jump\t// in\n    tag_564:\n        /* \"#utility.yul\":23384:23390   */\n      dup1\n        /* \"#utility.yul\":23379:23382   */\n      dup5\n        /* \"#utility.yul\":23375:23391   */\n      add\n        /* \"#utility.yul\":23368:23391   */\n      swap2\n      pop\n        /* \"#utility.yul\":23119:23397   */\n      pop\n        /* \"#utility.yul\":23011:23397   */\n      swap3\n      swap2\n      pop\n      pop\n      jump\t// out\n        /* \"#utility.yul\":23403:23674   */\n    tag_135:\n        /* \"#utility.yul\":23533:23536   */\n      0x00\n        /* \"#utility.yul\":23555:23648   */\n      tag_566\n        /* \"#utility.yul\":23644:23647   */\n      dup3\n        /* \"#utility.yul\":23635:23641   */\n      dup5\n        /* \"#utility.yul\":23555:23648   */\n      tag_315\n      jump\t// in\n    tag_566:\n        /* \"#utility.yul\":23548:23648   */\n      swap2\n      pop\n        /* \"#utility.yul\":23665:23668   */\n      dup2\n        /* \"#utility.yul\":23658:23668   */\n      swap1\n      pop\n        /* \"#utility.yul\":23403:23674   */\n      swap3\n      swap2\n      pop\n      pop\n      jump\t// out\n        /* \"#utility.yul\":23680:23860   */\n    tag_316:\n        /* \"#utility.yul\":23728:23805   */\n      0x4e487b7100000000000000000000000000000000000000000000000000000000\n        /* \"#utility.yul\":23725:23726   */\n      0x00\n        /* \"#utility.yul\":23718:23806   */\n      mstore\n        /* \"#utility.yul\":23825:23829   */\n      0x11\n        /* \"#utility.yul\":23822:23823   */\n      0x04\n        /* \"#utility.yul\":23815:23830   */\n      mstore\n        /* \"#utility.yul\":23849:23853   */\n      0x24\n        /* \"#utility.yul\":23846:23847   */\n      0x00\n        /* \"#utility.yul\":23839:23854   */\n      revert\n        /* \"#utility.yul\":23866:24060   */\n    tag_140:\n        /* \"#utility.yul\":23906:23910   */\n      0x00\n        /* \"#utility.yul\":23926:23946   */\n      tag_569\n        /* \"#utility.yul\":23944:23945   */\n      dup3\n        /* \"#utility.yul\":23926:23946   */\n      tag_263\n      jump\t// in\n    tag_569:\n        /* \"#utility.yul\":23921:23946   */\n      swap2\n      pop\n        /* \"#utility.yul\":23960:23980   */\n      tag_570\n        /* \"#utility.yul\":23978:23979   */\n      dup4\n        /* \"#utility.yul\":23960:23980   */\n      tag_263\n      jump\t// in\n    tag_570:\n        /* \"#utility.yul\":23955:23980   */\n      swap3\n      pop\n        /* \"#utility.yul\":24004:24005   */\n      dup3\n        /* \"#utility.yul\":24001:24002   */\n      dup3\n        /* \"#utility.yul\":23997:24006   */\n      sub\n        /* \"#utility.yul\":23989:24006   */\n      swap1\n      pop\n        /* \"#utility.yul\":24028:24029   */\n      dup2\n        /* \"#utility.yul\":24022:24026   */\n      dup2\n        /* \"#utility.yul\":24019:24030   */\n      gt\n        /* \"#utility.yul\":24016:24053   */\n      iszero\n      tag_571\n      jumpi\n        /* \"#utility.yul\":24033:24051   */\n      tag_572\n      tag_316\n      jump\t// in\n    tag_572:\n        /* \"#utility.yul\":24016:24053   */\n    tag_571:\n        /* \"#utility.yul\":23866:24060   */\n      swap3\n      swap2\n      pop\n      pop\n      jump\t// out\n        /* \"#utility.yul\":24066:24476   */\n    tag_142:\n        /* \"#utility.yul\":24106:24113   */\n      0x00\n        /* \"#utility.yul\":24129:24149   */\n      tag_574\n        /* \"#utility.yul\":24147:24148   */\n      dup3\n        /* \"#utility.yul\":24129:24149   */\n      tag_263\n      jump\t// in\n    tag_574:\n        /* \"#utility.yul\":24124:24149   */\n      swap2\n      pop\n        /* \"#utility.yul\":24163:24183   */\n      tag_575\n        /* \"#utility.yul\":24181:24182   */\n      dup4\n        /* \"#utility.yul\":24163:24183   */\n      tag_263\n      jump\t// in\n    tag_575:\n        /* \"#utility.yul\":24158:24183   */\n      swap3\n      pop\n        /* \"#utility.yul\":24218:24219   */\n      dup3\n        /* \"#utility.yul\":24215:24216   */\n      dup3\n        /* \"#utility.yul\":24211:24220   */\n      mul\n        /* \"#utility.yul\":24240:24270   */\n      tag_576\n        /* \"#utility.yul\":24258:24269   */\n      dup2\n        /* \"#utility.yul\":24240:24270   */\n      tag_263\n      jump\t// in\n    tag_576:\n        /* \"#utility.yul\":24229:24270   */\n      swap2\n      pop\n        /* \"#utility.yul\":24419:24420   */\n      dup3\n        /* \"#utility.yul\":24410:24417   */\n      dup3\n        /* \"#utility.yul\":24406:24421   */\n      div\n        /* \"#utility.yul\":24403:24404   */\n      dup5\n        /* \"#utility.yul\":24400:24422   */\n      eq\n        /* \"#utility.yul\":24380:24381   */\n      dup4\n        /* \"#utility.yul\":24373:24382   */\n      iszero\n        /* \"#utility.yul\":24353:24436   */\n      or\n        /* \"#utility.yul\":24330:24469   */\n      tag_577\n      jumpi\n        /* \"#utility.yul\":24449:24467   */\n      tag_578\n      tag_316\n      jump\t// in\n    tag_578:\n        /* \"#utility.yul\":24330:24469   */\n    tag_577:\n        /* \"#utility.yul\":24114:24476   */\n      pop\n        /* \"#utility.yul\":24066:24476   */\n      swap3\n      swap2\n      pop\n      pop\n      jump\t// out\n        /* \"#utility.yul\":24482:24673   */\n    tag_144:\n        /* \"#utility.yul\":24522:24525   */\n      0x00\n        /* \"#utility.yul\":24541:24561   */\n      tag_580\n        /* \"#utility.yul\":24559:24560   */\n      dup3\n        /* \"#utility.yul\":24541:24561   */\n      tag_263\n      jump\t// in\n    tag_580:\n        /* \"#utility.yul\":24536:24561   */\n      swap2\n      pop\n        /* \"#utility.yul\":24575:24595   */\n      tag_581\n        /* \"#utility.yul\":24593:24594   */\n      dup4\n        /* \"#utility.yul\":24575:24595   */\n      tag_263\n      jump\t// in\n    tag_581:\n        /* \"#utility.yul\":24570:24595   */\n      swap3\n      pop\n        /* \"#utility.yul\":24618:24619   */\n      dup3\n        /* \"#utility.yul\":24615:24616   */\n      dup3\n        /* \"#utility.yul\":24611:24620   */\n      add\n        /* \"#utility.yul\":24604:24620   */\n      swap1\n      pop\n        /* \"#utility.yul\":24639:24642   */\n      dup1\n        /* \"#utility.yul\":24636:24637   */\n      dup3\n        /* \"#utility.yul\":24633:24643   */\n      gt\n        /* \"#utility.yul\":24630:24666   */\n      iszero\n      tag_582\n      jumpi\n        /* \"#utility.yul\":24646:24664   */\n      tag_583\n      tag_316\n      jump\t// in\n    tag_583:\n        /* \"#utility.yul\":24630:24666   */\n    tag_582:\n        /* \"#utility.yul\":24482:24673   */\n      swap3\n      swap2\n      pop\n      pop\n      jump\t// out\n        /* \"#utility.yul\":24679:24895   */\n    tag_147:\n        /* \"#utility.yul\":24718:24722   */\n      0x00\n        /* \"#utility.yul\":24738:24757   */\n      tag_585\n        /* \"#utility.yul\":24755:24756   */\n      dup3\n        /* \"#utility.yul\":24738:24757   */\n      tag_276\n      jump\t// in\n    tag_585:\n        /* \"#utility.yul\":24733:24757   */\n      swap2\n      pop\n        /* \"#utility.yul\":24771:24790   */\n      tag_586\n        /* \"#utility.yul\":24788:24789   */\n      dup4\n        /* \"#utility.yul\":24771:24790   */\n      tag_276\n      jump\t// in\n    tag_586:\n        /* \"#utility.yul\":24766:24790   */\n      swap3\n      pop\n        /* \"#utility.yul\":24814:24815   */\n      dup3\n        /* \"#utility.yul\":24811:24812   */\n      dup3\n        /* \"#utility.yul\":24807:24816   */\n      sub\n        /* \"#utility.yul\":24799:24816   */\n      swap1\n      pop\n        /* \"#utility.yul\":24838:24864   */\n      0xffffffffffffffffffffffff\n        /* \"#utility.yul\":24832:24836   */\n      dup2\n        /* \"#utility.yul\":24829:24865   */\n      gt\n        /* \"#utility.yul\":24826:24888   */\n      iszero\n      tag_587\n      jumpi\n        /* \"#utility.yul\":24868:24886   */\n      tag_588\n      tag_316\n      jump\t// in\n    tag_588:\n        /* \"#utility.yul\":24826:24888   */\n    tag_587:\n        /* \"#utility.yul\":24679:24895   */\n      swap3\n      swap2\n      pop\n      pop\n      jump\t// out\n        /* \"#utility.yul\":24901:25327   */\n    tag_149:\n        /* \"#utility.yul\":25042:25046   */\n      0x00\n        /* \"#utility.yul\":25080:25082   */\n      0x60\n        /* \"#utility.yul\":25069:25078   */\n      dup3\n        /* \"#utility.yul\":25065:25083   */\n      add\n        /* \"#utility.yul\":25057:25083   */\n      swap1\n      pop\n        /* \"#utility.yul\":25093:25164   */\n      tag_590\n        /* \"#utility.yul\":25161:25162   */\n      0x00\n        /* \"#utility.yul\":25150:25159   */\n      dup4\n        /* \"#utility.yul\":25146:25163   */\n      add\n        /* \"#utility.yul\":25137:25143   */\n      dup7\n        /* \"#utility.yul\":25093:25164   */\n      tag_284\n      jump\t// in\n    tag_590:\n        /* \"#utility.yul\":25174:25244   */\n      tag_591\n        /* \"#utility.yul\":25240:25242   */\n      0x20\n        /* \"#utility.yul\":25229:25238   */\n      dup4\n        /* \"#utility.yul\":25225:25243   */\n      add\n        /* \"#utility.yul\":25216:25222   */\n      dup6\n        /* \"#utility.yul\":25174:25244   */\n      tag_277\n      jump\t// in\n    tag_591:\n        /* \"#utility.yul\":25254:25320   */\n      tag_592\n        /* \"#utility.yul\":25316:25318   */\n      0x40\n        /* \"#utility.yul\":25305:25314   */\n      dup4\n        /* \"#utility.yul\":25301:25319   */\n      add\n        /* \"#utility.yul\":25292:25298   */\n      dup5\n        /* \"#utility.yul\":25254:25320   */\n      tag_299\n      jump\t// in\n    tag_592:\n        /* \"#utility.yul\":24901:25327   */\n      swap5\n      swap4\n      pop\n      pop\n      pop\n      pop\n      jump\t// out\n        /* \"#utility.yul\":25333:25566   */\n    tag_157:\n        /* \"#utility.yul\":25372:25375   */\n      0x00\n        /* \"#utility.yul\":25395:25419   */\n      tag_594\n        /* \"#utility.yul\":25413:25418   */\n      dup3\n        /* \"#utility.yul\":25395:25419   */\n      tag_263\n      jump\t// in\n    tag_594:\n        /* \"#utility.yul\":25386:25419   */\n      swap2\n      pop\n        /* \"#utility.yul\":25441:25507   */\n      0xffffffffffffffffffffffffffffffffffffffffffffffffffffffffffffffff\n        /* \"#utility.yul\":25434:25439   */\n      dup3\n        /* \"#utility.yul\":25431:25508   */\n      sub\n        /* \"#utility.yul\":25428:25531   */\n      tag_595\n      jumpi\n        /* \"#utility.yul\":25511:25529   */\n      tag_596\n      tag_316\n      jump\t// in\n    tag_596:\n        /* \"#utility.yul\":25428:25531   */\n    tag_595:\n        /* \"#utility.yul\":25558:25559   */\n      0x01\n        /* \"#utility.yul\":25551:25556   */\n      dup3\n        /* \"#utility.yul\":25547:25560   */\n      add\n        /* \"#utility.yul\":25540:25560   */\n      swap1\n      pop\n        /* \"#utility.yul\":25333:25566   */\n      swap2\n      swap1\n      pop\n      jump\t// out\n        /* \"#utility.yul\":25572:26224   */\n    tag_160:\n        /* \"#utility.yul\":25771:25775   */\n      0x00\n        /* \"#utility.yul\":25809:25812   */\n      0xa0\n        /* \"#utility.yul\":25798:25807   */\n      dup3\n        /* \"#utility.yul\":25794:25813   */\n      add\n        /* \"#utility.yul\":25786:25813   */\n      swap1\n      pop\n        /* \"#utility.yul\":25823:25894   */\n      tag_598\n        /* \"#utility.yul\":25891:25892   */\n      0x00\n        /* \"#utility.yul\":25880:25889   */\n      dup4\n        /* \"#utility.yul\":25876:25893   */\n      add\n        /* \"#utility.yul\":25867:25873   */\n      dup9\n        /* \"#utility.yul\":25823:25894   */\n      tag_284\n      jump\t// in\n    tag_598:\n        /* \"#utility.yul\":25904:25976   */\n      tag_599\n        /* \"#utility.yul\":25972:25974   */\n      0x20\n        /* \"#utility.yul\":25961:25970   */\n      dup4\n        /* \"#utility.yul\":25957:25975   */\n      add\n        /* \"#utility.yul\":25948:25954   */\n      dup8\n        /* \"#utility.yul\":25904:25976   */\n      tag_284\n      jump\t// in\n    tag_599:\n        /* \"#utility.yul\":25986:26056   */\n      tag_600\n        /* \"#utility.yul\":26052:26054   */\n      0x40\n        /* \"#utility.yul\":26041:26050   */\n      dup4\n        /* \"#utility.yul\":26037:26055   */\n      add\n        /* \"#utility.yul\":26028:26034   */\n      dup7\n        /* \"#utility.yul\":25986:26056   */\n      tag_242\n      jump\t// in\n    tag_600:\n        /* \"#utility.yul\":26066:26136   */\n      tag_601\n        /* \"#utility.yul\":26132:26134   */\n      0x60\n        /* \"#utility.yul\":26121:26130   */\n      dup4\n        /* \"#utility.yul\":26117:26135   */\n      add\n        /* \"#utility.yul\":26108:26114   */\n      dup6\n        /* \"#utility.yul\":26066:26136   */\n      tag_244\n      jump\t// in\n    tag_601:\n        /* \"#utility.yul\":26146:26217   */\n      tag_602\n        /* \"#utility.yul\":26212:26215   */\n      0x80\n        /* \"#utility.yul\":26201:26210   */\n      dup4\n        /* \"#utility.yul\":26197:26216   */\n      add\n        /* \"#utility.yul\":26188:26194   */\n      dup5\n        /* \"#utility.yul\":26146:26217   */\n      tag_244\n      jump\t// in\n    tag_602:\n        /* \"#utility.yul\":25572:26224   */\n      swap7\n      swap6\n      pop\n      pop\n      pop\n      pop\n      pop\n      pop\n      jump\t// out\n        /* \"#utility.yul\":26230:26452   */\n    tag_166:\n        /* \"#utility.yul\":26323:26327   */\n      0x00\n        /* \"#utility.yul\":26361:26363   */\n      0x20\n        /* \"#utility.yul\":26350:26359   */\n      dup3\n        /* \"#utility.yul\":26346:26364   */\n      add\n        /* \"#utility.yul\":26338:26364   */\n      swap1\n      pop\n        /* \"#utility.yul\":26374:26445   */\n      tag_604\n        /* \"#utility.yul\":26442:26443   */\n      0x00\n        /* \"#utility.yul\":26431:26440   */\n      dup4\n        /* \"#utility.yul\":26427:26444   */\n      add\n        /* \"#utility.yul\":26418:26424   */\n      dup5\n        /* \"#utility.yul\":26374:26445   */\n      tag_288\n      jump\t// in\n    tag_604:\n        /* \"#utility.yul\":26230:26452   */\n      swap3\n      swap2\n      pop\n      pop\n      jump\t// out\n        /* \"#utility.yul\":26458:26638   */\n    tag_204:\n        /* \"#utility.yul\":26506:26583   */\n      0x4e487b7100000000000000000000000000000000000000000000000000000000\n        /* \"#utility.yul\":26503:26504   */\n      0x00\n        /* \"#utility.yul\":26496:26584   */\n      mstore\n        /* \"#utility.yul\":26603:26607   */\n      0x31\n        /* \"#utility.yul\":26600:26601   */\n      0x04\n        /* \"#utility.yul\":26593:26608   */\n      mstore\n        /* \"#utility.yul\":26627:26631   */\n      0x24\n        /* \"#utility.yul\":26624:26625   */\n      0x00\n        /* \"#utility.yul\":26617:26632   */\n      revert\n        /* \"#utility.yul\":26644:26827   */\n    tag_209:\n        /* \"#utility.yul\":26682:26685   */\n      0x00\n        /* \"#utility.yul\":26705:26728   */\n      tag_607\n        /* \"#utility.yul\":26722:26727   */\n      dup3\n        /* \"#utility.yul\":26705:26728   */\n      tag_256\n      jump\t// in\n    tag_607:\n        /* \"#utility.yul\":26696:26728   */\n      swap2\n      pop\n        /* \"#utility.yul\":26750:26768   */\n      0xffffffffffffffff\n        /* \"#utility.yul\":26743:26748   */\n      dup3\n        /* \"#utility.yul\":26740:26769   */\n      sub\n        /* \"#utility.yul\":26737:26792   */\n      tag_608\n      jumpi\n        /* \"#utility.yul\":26772:26790   */\n      tag_609\n      tag_316\n      jump\t// in\n    tag_609:\n        /* \"#utility.yul\":26737:26792   */\n    tag_608:\n        /* \"#utility.yul\":26819:26820   */\n      0x01\n        /* \"#utility.yul\":26812:26817   */\n      dup3\n        /* \"#utility.yul\":26808:26821   */\n      add\n        /* \"#utility.yul\":26801:26821   */\n      swap1\n      pop\n        /* \"#utility.yul\":26644:26827   */\n      swap2\n      swap1\n      pop\n      jump\t// out\n        /* \"#utility.yul\":26833:27046   */\n    tag_218:\n        /* \"#utility.yul\":26872:26875   */\n      0x00\n        /* \"#utility.yul\":26891:26910   */\n      tag_611\n        /* \"#utility.yul\":26908:26909   */\n      dup3\n        /* \"#utility.yul\":26891:26910   */\n      tag_276\n      jump\t// in\n    tag_611:\n        /* \"#utility.yul\":26886:26910   */\n      swap2\n      pop\n        /* \"#utility.yul\":26924:26943   */\n      tag_612\n        /* \"#utility.yul\":26941:26942   */\n      dup4\n        /* \"#utility.yul\":26924:26943   */\n      tag_276\n      jump\t// in\n    tag_612:\n        /* \"#utility.yul\":26919:26943   */\n      swap3\n      pop\n        /* \"#utility.yul\":26966:26967   */\n      dup3\n        /* \"#utility.yul\":26963:26964   */\n      dup3\n        /* \"#utility.yul\":26959:26968   */\n      add\n        /* \"#utility.yul\":26952:26968   */\n      swap1\n      pop\n        /* \"#utility.yul\":26989:27015   */\n      0xffffffffffffffffffffffff\n        /* \"#utility.yul\":26984:26987   */\n      dup2\n        /* \"#utility.yul\":26981:27016   */\n      gt\n        /* \"#utility.yul\":26978:27039   */\n      iszero\n      tag_613\n      jumpi\n        /* \"#utility.yul\":27019:27037   */\n      tag_614\n      tag_316\n      jump\t// in\n    tag_614:\n        /* \"#utility.yul\":26978:27039   */\n    tag_613:\n        /* \"#utility.yul\":26833:27046   */\n      swap3\n      swap2\n      pop\n      pop\n      jump\t// out\n        /* \"#utility.yul\":27052:27112   */\n    tag_317:\n        /* \"#utility.yul\":27080:27083   */\n      0x00\n        /* \"#utility.yul\":27101:27106   */\n      dup2\n        /* \"#utility.yul\":27094:27106   */\n      swap1\n      pop\n        /* \"#utility.yul\":27052:27112   */\n      swap2\n      swap1\n      pop\n      jump\t// out\n        /* \"#utility.yul\":27118:27258   */\n    tag_318:\n        /* \"#utility.yul\":27167:27176   */\n      0x00\n        /* \"#utility.yul\":27200:27252   */\n      tag_617\n        /* \"#utility.yul\":27218:27251   */\n      tag_618\n        /* \"#utility.yul\":27227:27250   */\n      tag_619\n        /* \"#utility.yul\":27244:27249   */\n      dup5\n        /* \"#utility.yul\":27227:27250   */\n      tag_276\n      jump\t// in\n    tag_619:\n        /* \"#utility.yul\":27218:27251   */\n      tag_317\n      jump\t// in\n    tag_618:\n        /* \"#utility.yul\":27200:27252   */\n      tag_263\n      jump\t// in\n    tag_617:\n        /* \"#utility.yul\":27187:27252   */\n      swap1\n      pop\n        /* \"#utility.yul\":27118:27258   */\n      swap2\n      swap1\n      pop\n      jump\t// out\n        /* \"#utility.yul\":27264:27393   */\n    tag_319:\n        /* \"#utility.yul\":27350:27386   */\n      tag_621\n        /* \"#utility.yul\":27380:27385   */\n      dup2\n        /* \"#utility.yul\":27350:27386   */\n      tag_318\n      jump\t// in\n    tag_621:\n        /* \"#utility.yul\":27345:27348   */\n      dup3\n        /* \"#utility.yul\":27338:27387   */\n      mstore\n        /* \"#utility.yul\":27264:27393   */\n      pop\n      pop\n      jump\t// out\n        /* \"#utility.yul\":27399:27727   */\n    tag_221:\n        /* \"#utility.yul\":27518:27522   */\n      0x00\n        /* \"#utility.yul\":27556:27558   */\n      0x40\n        /* \"#utility.yul\":27545:27554   */\n      dup3\n        /* \"#utility.yul\":27541:27559   */\n      add\n        /* \"#utility.yul\":27533:27559   */\n      swap1\n      pop\n        /* \"#utility.yul\":27569:27639   */\n      tag_623\n        /* \"#utility.yul\":27636:27637   */\n      0x00\n        /* \"#utility.yul\":27625:27634   */\n      dup4\n        /* \"#utility.yul\":27621:27638   */\n      add\n        /* \"#utility.yul\":27612:27618   */\n      dup6\n        /* \"#utility.yul\":27569:27639   */\n      tag_319\n      jump\t// in\n    tag_623:\n        /* \"#utility.yul\":27649:27720   */\n      tag_624\n        /* \"#utility.yul\":27716:27718   */\n      0x20\n        /* \"#utility.yul\":27705:27714   */\n      dup4\n        /* \"#utility.yul\":27701:27719   */\n      add\n        /* \"#utility.yul\":27692:27698   */\n      dup5\n        /* \"#utility.yul\":27649:27720   */\n      tag_319\n      jump\t// in\n    tag_624:\n        /* \"#utility.yul\":27399:27727   */\n      swap4\n      swap3\n      pop\n      pop\n      pop\n      jump\t// out\n        /* \"#utility.yul\":27733:28063   */\n    tag_229:\n        /* \"#utility.yul\":27853:27857   */\n      0x00\n        /* \"#utility.yul\":27891:27893   */\n      0x40\n        /* \"#utility.yul\":27880:27889   */\n      dup3\n        /* \"#utility.yul\":27876:27894   */\n      add\n        /* \"#utility.yul\":27868:27894   */\n      swap1\n      pop\n        /* \"#utility.yul\":27904:27975   */\n      tag_626\n        /* \"#utility.yul\":27972:27973   */\n      0x00\n        /* \"#utility.yul\":27961:27970   */\n      dup4\n        /* \"#utility.yul\":27957:27974   */\n      add\n        /* \"#utility.yul\":27948:27954   */\n      dup6\n        /* \"#utility.yul\":27904:27975   */\n      tag_288\n      jump\t// in\n    tag_626:\n        /* \"#utility.yul\":27985:28056   */\n      tag_627\n        /* \"#utility.yul\":28052:28054   */\n      0x20\n        /* \"#utility.yul\":28041:28050   */\n      dup4\n        /* \"#utility.yul\":28037:28055   */\n      add\n        /* \"#utility.yul\":28028:28034   */\n      dup5\n        /* \"#utility.yul\":27985:28056   */\n      tag_319\n      jump\t// in\n    tag_627:\n        /* \"#utility.yul\":27733:28063   */\n      swap4\n      swap3\n      pop\n      pop\n      pop\n      jump\t// out\n\n    auxdata: 0xa26469706673582212202a457929a405de0166bccfbcb790f88e46db18846f88eb5d9802259eac118c2f64736f6c634300081a0033\n}\n",
				"bytecode": {
					"linkReferences": {},
					"object": "60e0604052606461ffff1660c09061ffff16815250600180556064600255348015610028575f80fd5b50604051612c02380380612c02833981810160405281019061004a91906100de565b816bffffffffffffffffffffffff166080816bffffffffffffffffffffffff1681525050806bffffffffffffffffffffffff1660a0816bffffffffffffffffffffffff1681525050505061011c565b5f80fd5b5f6bffffffffffffffffffffffff82169050919050565b6100bd8161009d565b81146100c7575f80fd5b50565b5f815190506100d8816100b4565b92915050565b5f80604083850312156100f4576100f3610099565b5b5f610101858286016100ca565b9250506020610112858286016100ca565b9150509250929050565b60805160a05160c051612aa761015b5f395f8181610c6b0152610daf01525f818161077b015261149701525f81816107c001526109c00152612aa75ff3fe608060405234801561000f575f80fd5b5060043610610129575f3560e01c806382359740116100ab578063afc69b531161006f578063afc69b5314610314578063c3f909d414610330578063d7ae1d3014610351578063e82ad7d41461036d578063ed5eb06d1461039d57610129565b8063823597401461026d5780639f87fad714610289578063a21a23e4146102a5578063a410347f146102c3578063a47c7696146102e157610129565b80635d3b1d30116100f25780635d3b1d30146101c15780635fbbc0d2146101f157806364d51a2a146102175780637341c10c14610235578063808974ff1461025157610129565b80620122911461012d57806304c357cb1461014d57806308e3898e14610169578063356dac71146101855780633d18651e146101a3575b5f80fd5b6101356103cd565b60405161014493929190611cf7565b60405180910390f35b61016760048036038101906101629190611ddb565b61042b565b005b610183600480360381019061017e9190611f9c565b610466565b005b61018d6109b0565b60405161019a9190612020565b60405180910390f35b6101ab6109be565b6040516101b8919061205f565b60405180910390f35b6101db60048036038101906101d691906120f6565b6109e2565b6040516101e8919061217c565b60405180910390f35b6101f9610c31565b60405161020e999897969594939291906121b2565b60405180910390f35b61021f610c69565b60405161022c919061223d565b60405180910390f35b61024f600480360381019061024a9190611ddb565b610c8d565b005b61026b60048036038101906102669190612256565b610f0c565b005b61028760048036038101906102829190612294565b610f63565b005b6102a3600480360381019061029e9190611ddb565b610f9e565b005b6102ad6112ec565b6040516102ba91906122ce565b60405180910390f35b6102cb611495565b6040516102d8919061205f565b60405180910390f35b6102fb60048036038101906102f69190612294565b6114b9565b60405161030b94939291906123ad565b60405180910390f35b61032e60048036038101906103299190612421565b6116aa565b005b610338611868565b604051610348949392919061245f565b60405180910390f35b61036b60048036038101906103669190611ddb565b611886565b005b61038760048036038101906103829190612294565b611a9a565b60405161039491906124bc565b60405180910390f35b6103b760048036038101906103b29190611ddb565b611ad6565b6040516103c491906124bc565b60405180910390f35b5f8060606003621e84805f67ffffffffffffffff8111156103f1576103f0611e60565b5b60405190808252806020026020018201604052801561041f5781602001602082028036833780820191505090505b50925092509250909192565b6040517f08c379a000000000000000000000000000000000000000000000000000000000815260040161045d9061252f565b60405180910390fd5b5f5a90505f60055f8681526020019081526020015f205f015f9054906101000a900467ffffffffffffffff1667ffffffffffffffff16036104dc576040517f08c379a00000000000000000000000000000000000000000000000000000000081526004016104d390612597565b60405180910390fd5b5f60055f8681526020019081526020015f206040518060600160405290815f82015f9054906101000a900467ffffffffffffffff1667ffffffffffffffff1667ffffffffffffffff1681526020015f820160089054906101000a900463ffffffff1663ffffffff1663ffffffff1681526020015f8201600c9054906101000a900463ffffffff1663ffffffff1663ffffffff168152505090505f83510361064357806040015163ffffffff1667ffffffffffffffff8111156105a1576105a0611e60565b5b6040519080825280602002602001820160405280156105cf5781602001602082028036833780820191505090505b5092505f5b816040015163ffffffff1681101561063d5785816040516020016105f99291906125b5565b604051602081830303815290604052805190602001205f1c848281518110610624576106236125dc565b5b60200260200101818152505080806001019150506105d4565b50610688565b806040015163ffffffff16835114610687576040517f3f3df5b600000000000000000000000000000000000000000000000000000000815260040160405180910390fd5b5b5f80631fe543e360e01b87866040516024016106a59291906126c0565b604051602081830303815290604052907bffffffffffffffffffffffffffffffffffffffffffffffffffffffff19166020820180517bffffffffffffffffffffffffffffffffffffffffffffffffffffffff838183161783525050505090505f8673ffffffffffffffffffffffffffffffffffffffff16846020015163ffffffff16836040516107359190612740565b5f604051808303815f8787f1925050503d805f811461076f576040519150601f19603f3d011682016040523d82523d5f602084013e610774565b606091505b505090505f7f00000000000000000000000000000000000000000000000000000000000000006bffffffffffffffffffffffff165a876107b49190612783565b6107be91906127b6565b7f00000000000000000000000000000000000000000000000000000000000000006bffffffffffffffffffffffff166107f791906127f7565b9050806bffffffffffffffffffffffff1660035f875f015167ffffffffffffffff1667ffffffffffffffff1681526020019081526020015f205f0160149054906101000a90046bffffffffffffffffffffffff166bffffffffffffffffffffffff161015610891576040517ff4d678b800000000000000000000000000000000000000000000000000000000815260040160405180910390fd5b8060035f875f015167ffffffffffffffff1667ffffffffffffffff1681526020019081526020015f205f0160148282829054906101000a90046bffffffffffffffffffffffff166108e2919061282a565b92506101000a8154816bffffffffffffffffffffffff02191690836bffffffffffffffffffffffff16021790555060055f8a81526020019081526020015f205f8082015f6101000a81549067ffffffffffffffff02191690555f820160086101000a81549063ffffffff02191690555f8201600c6101000a81549063ffffffff02191690555050887f7dffc5ae5ee4e2e4df1651cf6ad329a73cebdb728f37ea0187b9b17e036756e48a838560405161099d93929190612869565b60405180910390a2505050505050505050565b5f660e35fa931a0000905090565b7f000000000000000000000000000000000000000000000000000000000000000081565b5f84336109ef8282611ad6565b610a25576040517f71e8313700000000000000000000000000000000000000000000000000000000815260040160405180910390fd5b5f73ffffffffffffffffffffffffffffffffffffffff1660035f8967ffffffffffffffff1667ffffffffffffffff1681526020019081526020015f205f015f9054906101000a900473ffffffffffffffffffffffffffffffffffffffff1673ffffffffffffffffffffffffffffffffffffffff1603610ad0576040517f1f6a65b600000000000000000000000000000000000000000000000000000000815260040160405180910390fd5b5f60015f815480929190610ae39061289e565b9190505590505f60025f815480929190610afc9061289e565b91905055905060405180606001604052808a67ffffffffffffffff1681526020018863ffffffff1681526020018763ffffffff1681525060055f8481526020019081526020015f205f820151815f015f6101000a81548167ffffffffffffffff021916908367ffffffffffffffff1602179055506020820151815f0160086101000a81548163ffffffff021916908363ffffffff1602179055506040820151815f01600c6101000a81548163ffffffff021916908363ffffffff1602179055509050503373ffffffffffffffffffffffffffffffffffffffff168967ffffffffffffffff168b7f63373d1c4696214b898952999c9aaec57dac1ee2723cec59bea6888f489a977285858d8d8d604051610c199594939291906128e5565b60405180910390a48194505050505095945050505050565b5f805f805f805f805f620186a080620186a080620186a05f805f80985098509850985098509850985098509850909192939495969798565b7f000000000000000000000000000000000000000000000000000000000000000081565b815f60035f8367ffffffffffffffff1667ffffffffffffffff1681526020019081526020015f205f015f9054906101000a900473ffffffffffffffffffffffffffffffffffffffff1690505f73ffffffffffffffffffffffffffffffffffffffff168173ffffffffffffffffffffffffffffffffffffffff1603610d3d576040517f1f6a65b600000000000000000000000000000000000000000000000000000000815260040160405180910390fd5b8073ffffffffffffffffffffffffffffffffffffffff163373ffffffffffffffffffffffffffffffffffffffff1614610dad57806040517fd8a3fb52000000000000000000000000000000000000000000000000000000008152600401610da49190612936565b60405180910390fd5b7f000000000000000000000000000000000000000000000000000000000000000061ffff1660045f8667ffffffffffffffff1667ffffffffffffffff1681526020019081526020015f208054905003610e32576040517f05a48e0f00000000000000000000000000000000000000000000000000000000815260040160405180910390fd5b610e3c8484611ad6565b610f065760045f8567ffffffffffffffff1667ffffffffffffffff1681526020019081526020015f2083908060018154018082558091505060019003905f5260205f20015f9091909190916101000a81548173ffffffffffffffffffffffffffffffffffffffff021916908373ffffffffffffffffffffffffffffffffffffffff1602179055508367ffffffffffffffff167f752ead9f4536ec1319ee3a5a604e1d65eded22e0924251552ba14ae4faa1bbc384604051610efd9190612936565b60405180910390a25b50505050565b610f5f82825f67ffffffffffffffff811115610f2b57610f2a611e60565b5b604051908082528060200260200182016040528015610f595781602001602082028036833780820191505090505b50610466565b5050565b6040517f08c379a0000000000000000000000000000000000000000000000000000000008152600401610f959061252f565b60405180910390fd5b815f60035f8367ffffffffffffffff1667ffffffffffffffff1681526020019081526020015f205f015f9054906101000a900473ffffffffffffffffffffffffffffffffffffffff1690505f73ffffffffffffffffffffffffffffffffffffffff168173ffffffffffffffffffffffffffffffffffffffff160361104e576040517f1f6a65b600000000000000000000000000000000000000000000000000000000815260040160405180910390fd5b8073ffffffffffffffffffffffffffffffffffffffff163373ffffffffffffffffffffffffffffffffffffffff16146110be57806040517fd8a3fb520000000000000000000000000000000000000000000000000000000081526004016110b59190612936565b60405180910390fd5b83836110ca8282611ad6565b611100576040517f71e8313700000000000000000000000000000000000000000000000000000000815260040160405180910390fd5b5f60045f8867ffffffffffffffff1667ffffffffffffffff1681526020019081526020015f2090505f5b81805490508110156112a0578673ffffffffffffffffffffffffffffffffffffffff168282815481106111605761115f6125dc565b5b905f5260205f20015f9054906101000a900473ffffffffffffffffffffffffffffffffffffffff1673ffffffffffffffffffffffffffffffffffffffff1603611293575f82600184805490506111b69190612783565b815481106111c7576111c66125dc565b5b905f5260205f20015f9054906101000a900473ffffffffffffffffffffffffffffffffffffffff16905080838381548110611205576112046125dc565b5b905f5260205f20015f6101000a81548173ffffffffffffffffffffffffffffffffffffffff021916908373ffffffffffffffffffffffffffffffffffffffff1602179055508280548061125b5761125a61294f565b5b600190038181905f5260205f20015f6101000a81549073ffffffffffffffffffffffffffffffffffffffff02191690559055506112a0565b808060010191505061112a565b508667ffffffffffffffff167ff9bc9d5b5733d904409def43a5ecc888dbdac9a95687780d8fd489d3bb3813fc876040516112db9190612936565b60405180910390a250505050505050565b5f805f81819054906101000a900467ffffffffffffffff16809291906113119061297c565b91906101000a81548167ffffffffffffffff021916908367ffffffffffffffff1602179055505060405180604001604052803373ffffffffffffffffffffffffffffffffffffffff1681526020015f6bffffffffffffffffffffffff1681525060035f805f9054906101000a900467ffffffffffffffff1667ffffffffffffffff1667ffffffffffffffff1681526020019081526020015f205f820151815f015f6101000a81548173ffffffffffffffffffffffffffffffffffffffff021916908373ffffffffffffffffffffffffffffffffffffffff1602179055506020820151815f0160146101000a8154816bffffffffffffffffffffffff02191690836bffffffffffffffffffffffff1602179055509050505f8054906101000a900467ffffffffffffffff1667ffffffffffffffff167f464722b4166576d3dcbba877b999bc35cf911f4eaf434b7eba68fa113951d0bf336040516114749190612936565b60405180910390a25f8054906101000a900467ffffffffffffffff16905090565b7f000000000000000000000000000000000000000000000000000000000000000081565b5f805f60605f73ffffffffffffffffffffffffffffffffffffffff1660035f8767ffffffffffffffff1667ffffffffffffffff1681526020019081526020015f205f015f9054906101000a900473ffffffffffffffffffffffffffffffffffffffff1673ffffffffffffffffffffffffffffffffffffffff1603611569576040517f1f6a65b600000000000000000000000000000000000000000000000000000000815260040160405180910390fd5b60035f8667ffffffffffffffff1667ffffffffffffffff1681526020019081526020015f205f0160149054906101000a90046bffffffffffffffffffffffff165f60035f8867ffffffffffffffff1667ffffffffffffffff1681526020019081526020015f205f015f9054906101000a900473ffffffffffffffffffffffffffffffffffffffff1660045f8967ffffffffffffffff1667ffffffffffffffff1681526020019081526020015f208080548060200260200160405190810160405280929190818152602001828054801561169457602002820191905f5260205f20905b815f9054906101000a900473ffffffffffffffffffffffffffffffffffffffff1673ffffffffffffffffffffffffffffffffffffffff168152602001906001019080831161164b575b5050505050905093509350935093509193509193565b5f73ffffffffffffffffffffffffffffffffffffffff1660035f8467ffffffffffffffff1667ffffffffffffffff1681526020019081526020015f205f015f9054906101000a900473ffffffffffffffffffffffffffffffffffffffff1673ffffffffffffffffffffffffffffffffffffffff1603611755576040517f1f6a65b600000000000000000000000000000000000000000000000000000000815260040160405180910390fd5b5f60035f8467ffffffffffffffff1667ffffffffffffffff1681526020019081526020015f205f0160149054906101000a90046bffffffffffffffffffffffff1690508160035f8567ffffffffffffffff1667ffffffffffffffff1681526020019081526020015f205f0160148282829054906101000a90046bffffffffffffffffffffffff166117e691906129ab565b92506101000a8154816bffffffffffffffffffffffff02191690836bffffffffffffffffffffffff1602179055508267ffffffffffffffff167fd39ec07f4e209f627a4c427971473820dc129761ba28de8906bd56f57101d4f882848461184d91906129ab565b60405161185b929190612a23565b60405180910390a2505050565b5f805f806004622625a0610a8c618205935093509350935090919293565b815f60035f8367ffffffffffffffff1667ffffffffffffffff1681526020019081526020015f205f015f9054906101000a900473ffffffffffffffffffffffffffffffffffffffff1690505f73ffffffffffffffffffffffffffffffffffffffff168173ffffffffffffffffffffffffffffffffffffffff1603611936576040517f1f6a65b600000000000000000000000000000000000000000000000000000000815260040160405180910390fd5b8073ffffffffffffffffffffffffffffffffffffffff163373ffffffffffffffffffffffffffffffffffffffff16146119a657806040517fd8a3fb5200000000000000000000000000000000000000000000000000000000815260040161199d9190612936565b60405180910390fd5b8367ffffffffffffffff167fe8ed5b475a5b5987aa9165e8731bb78043f39eee32ec5a1169a89e27fcd498158460035f8867ffffffffffffffff1667ffffffffffffffff1681526020019081526020015f205f0160149054906101000a90046bffffffffffffffffffffffff16604051611a21929190612a4a565b60405180910390a260035f8567ffffffffffffffff1667ffffffffffffffff1681526020019081526020015f205f8082015f6101000a81549073ffffffffffffffffffffffffffffffffffffffff02191690555f820160146101000a8154906bffffffffffffffffffffffff0219169055505050505050565b5f6040517f08c379a0000000000000000000000000000000000000000000000000000000008152600401611acd9061252f565b60405180910390fd5b5f8060045f8567ffffffffffffffff1667ffffffffffffffff1681526020019081526020015f20805480602002602001604051908101604052809291908181526020018280548015611b7a57602002820191905f5260205f20905b815f9054906101000a900473ffffffffffffffffffffffffffffffffffffffff1673ffffffffffffffffffffffffffffffffffffffff1681526020019060010190808311611b31575b505050505090505f5b8151811015611bf1578373ffffffffffffffffffffffffffffffffffffffff16828281518110611bb657611bb56125dc565b5b602002602001015173ffffffffffffffffffffffffffffffffffffffff1603611be457600192505050611bf7565b8080600101915050611b83565b505f9150505b92915050565b5f61ffff82169050919050565b611c1381611bfd565b82525050565b5f63ffffffff82169050919050565b611c3181611c19565b82525050565b5f81519050919050565b5f82825260208201905092915050565b5f819050602082019050919050565b5f819050919050565b611c7281611c60565b82525050565b5f611c838383611c69565b60208301905092915050565b5f602082019050919050565b5f611ca582611c37565b611caf8185611c41565b9350611cba83611c51565b805f5b83811015611cea578151611cd18882611c78565b9750611cdc83611c8f565b925050600181019050611cbd565b5085935050505092915050565b5f606082019050611d0a5f830186611c0a565b611d176020830185611c28565b8181036040830152611d298184611c9b565b9050949350505050565b5f604051905090565b5f80fd5b5f80fd5b5f67ffffffffffffffff82169050919050565b611d6081611d44565b8114611d6a575f80fd5b50565b5f81359050611d7b81611d57565b92915050565b5f73ffffffffffffffffffffffffffffffffffffffff82169050919050565b5f611daa82611d81565b9050919050565b611dba81611da0565b8114611dc4575f80fd5b50565b5f81359050611dd581611db1565b92915050565b5f8060408385031215611df157611df0611d3c565b5b5f611dfe85828601611d6d565b9250506020611e0f85828601611dc7565b9150509250929050565b5f819050919050565b611e2b81611e19565b8114611e35575f80fd5b50565b5f81359050611e4681611e22565b92915050565b5f80fd5b5f601f19601f8301169050919050565b7f4e487b71000000000000000000000000000000000000000000000000000000005f52604160045260245ffd5b611e9682611e50565b810181811067ffffffffffffffff82111715611eb557611eb4611e60565b5b80604052505050565b5f611ec7611d33565b9050611ed38282611e8d565b919050565b5f67ffffffffffffffff821115611ef257611ef1611e60565b5b602082029050602081019050919050565b5f80fd5b5f611f19611f1484611ed8565b611ebe565b90508083825260208201905060208402830185811115611f3c57611f3b611f03565b5b835b81811015611f655780611f518882611e38565b845260208401935050602081019050611f3e565b5050509392505050565b5f82601f830112611f8357611f82611e4c565b5b8135611f93848260208601611f07565b91505092915050565b5f805f60608486031215611fb357611fb2611d3c565b5b5f611fc086828701611e38565b9350506020611fd186828701611dc7565b925050604084013567ffffffffffffffff811115611ff257611ff1611d40565b5b611ffe86828701611f6f565b9150509250925092565b5f819050919050565b61201a81612008565b82525050565b5f6020820190506120335f830184612011565b92915050565b5f6bffffffffffffffffffffffff82169050919050565b61205981612039565b82525050565b5f6020820190506120725f830184612050565b92915050565b61208181611c60565b811461208b575f80fd5b50565b5f8135905061209c81612078565b92915050565b6120ab81611bfd565b81146120b5575f80fd5b50565b5f813590506120c6816120a2565b92915050565b6120d581611c19565b81146120df575f80fd5b50565b5f813590506120f0816120cc565b92915050565b5f805f805f60a0868803121561210f5761210e611d3c565b5b5f61211c8882890161208e565b955050602061212d88828901611d6d565b945050604061213e888289016120b8565b935050606061214f888289016120e2565b9250506080612160888289016120e2565b9150509295509295909350565b61217681611e19565b82525050565b5f60208201905061218f5f83018461216d565b92915050565b5f62ffffff82169050919050565b6121ac81612195565b82525050565b5f610120820190506121c65f83018c611c28565b6121d3602083018b611c28565b6121e0604083018a611c28565b6121ed6060830189611c28565b6121fa6080830188611c28565b61220760a08301876121a3565b61221460c08301866121a3565b61222160e08301856121a3565b61222f6101008301846121a3565b9a9950505050505050505050565b5f6020820190506122505f830184611c0a565b92915050565b5f806040838503121561226c5761226b611d3c565b5b5f61227985828601611e38565b925050602061228a85828601611dc7565b9150509250929050565b5f602082840312156122a9576122a8611d3c565b5b5f6122b684828501611d6d565b91505092915050565b6122c881611d44565b82525050565b5f6020820190506122e15f8301846122bf565b92915050565b6122f081611da0565b82525050565b5f81519050919050565b5f82825260208201905092915050565b5f819050602082019050919050565b61232881611da0565b82525050565b5f612339838361231f565b60208301905092915050565b5f602082019050919050565b5f61235b826122f6565b6123658185612300565b935061237083612310565b805f5b838110156123a0578151612387888261232e565b975061239283612345565b925050600181019050612373565b5085935050505092915050565b5f6080820190506123c05f830187612050565b6123cd60208301866122bf565b6123da60408301856122e7565b81810360608301526123ec8184612351565b905095945050505050565b61240081612039565b811461240a575f80fd5b50565b5f8135905061241b816123f7565b92915050565b5f806040838503121561243757612436611d3c565b5b5f61244485828601611d6d565b92505060206124558582860161240d565b9150509250929050565b5f6080820190506124725f830187611c0a565b61247f6020830186611c28565b61248c6040830185611c28565b6124996060830184611c28565b95945050505050565b5f8115159050919050565b6124b6816124a2565b82525050565b5f6020820190506124cf5f8301846124ad565b92915050565b5f82825260208201905092915050565b7f6e6f7420696d706c656d656e74656400000000000000000000000000000000005f82015250565b5f612519600f836124d5565b9150612524826124e5565b602082019050919050565b5f6020820190508181035f8301526125468161250d565b9050919050565b7f6e6f6e6578697374656e742072657175657374000000000000000000000000005f82015250565b5f6125816013836124d5565b915061258c8261254d565b602082019050919050565b5f6020820190508181035f8301526125ae81612575565b9050919050565b5f6040820190506125c85f83018561216d565b6125d5602083018461216d565b9392505050565b7f4e487b71000000000000000000000000000000000000000000000000000000005f52603260045260245ffd5b5f81519050919050565b5f82825260208201905092915050565b5f819050602082019050919050565b61263b81611e19565b82525050565b5f61264c8383612632565b60208301905092915050565b5f602082019050919050565b5f61266e82612609565b6126788185612613565b935061268383612623565b805f5b838110156126b357815161269a8882612641565b97506126a583612658565b925050600181019050612686565b5085935050505092915050565b5f6040820190506126d35f83018561216d565b81810360208301526126e58184612664565b90509392505050565b5f81519050919050565b5f81905092915050565b8281835e5f83830152505050565b5f61271a826126ee565b61272481856126f8565b9350612734818560208601612702565b80840191505092915050565b5f61274b8284612710565b915081905092915050565b7f4e487b71000000000000000000000000000000000000000000000000000000005f52601160045260245ffd5b5f61278d82611e19565b915061279883611e19565b92508282039050818111156127b0576127af612756565b5b92915050565b5f6127c082611e19565b91506127cb83611e19565b92508282026127d981611e19565b915082820484148315176127f0576127ef612756565b5b5092915050565b5f61280182611e19565b915061280c83611e19565b925082820190508082111561282457612823612756565b5b92915050565b5f61283482612039565b915061283f83612039565b925082820390506bffffffffffffffffffffffff81111561286357612862612756565b5b92915050565b5f60608201905061287c5f83018661216d565b6128896020830185612050565b61289660408301846124ad565b949350505050565b5f6128a882611e19565b91507fffffffffffffffffffffffffffffffffffffffffffffffffffffffffffffffff82036128da576128d9612756565b5b600182019050919050565b5f60a0820190506128f85f83018861216d565b612905602083018761216d565b6129126040830186611c0a565b61291f6060830185611c28565b61292c6080830184611c28565b9695505050505050565b5f6020820190506129495f8301846122e7565b92915050565b7f4e487b71000000000000000000000000000000000000000000000000000000005f52603160045260245ffd5b5f61298682611d44565b915067ffffffffffffffff82036129a05761299f612756565b5b600182019050919050565b5f6129b582612039565b91506129c083612039565b925082820190506bffffffffffffffffffffffff8111156129e4576129e3612756565b5b92915050565b5f819050919050565b5f612a0d612a08612a0384612039565b6129ea565b611e19565b9050919050565b612a1d816129f3565b82525050565b5f604082019050612a365f830185612a14565b612a436020830184612a14565b9392505050565b5f604082019050612a5d5f8301856122e7565b612a6a6020830184612a14565b939250505056fea26469706673582212202a457929a405de0166bccfbcb790f88e46db18846f88eb5d9802259eac118c2f64736f6c634300081a0033",
					"opcodes": "PUSH1 0xE0 PUSH1 0x40 MSTORE PUSH1 0x64 PUSH2 0xFFFF AND PUSH1 0xC0 SWAP1 PUSH2 0xFFFF AND DUP2 MSTORE POP PUSH1 0x1 DUP1 SSTORE PUSH1 0x64 PUSH1 0x2 SSTORE CALLVALUE DUP1 ISZERO PUSH2 0x28 JUMPI PUSH0 DUP1 REVERT JUMPDEST POP PUSH1 0x40 MLOAD PUSH2 0x2C02 CODESIZE SUB DUP1 PUSH2 0x2C02 DUP4 CODECOPY DUP2 DUP2 ADD PUSH1 0x40 MSTORE DUP2 ADD SWAP1 PUSH2 0x4A SWAP2 SWAP1 PUSH2 0xDE JUMP JUMPDEST DUP2 PUSH12 0xFFFFFFFFFFFFFFFFFFFFFFFF AND PUSH1 0x80 DUP2 PUSH12 0xFFFFFFFFFFFFFFFFFFFFFFFF AND DUP2 MSTORE POP POP DUP1 PUSH12 0xFFFFFFFFFFFFFFFFFFFFFFFF AND PUSH1 0xA0 DUP2 PUSH12 0xFFFFFFFFFFFFFFFFFFFFFFFF AND DUP2 MSTORE POP POP POP POP PUSH2 0x11C JUMP JUMPDEST PUSH0 DUP1 REVERT JUMPDEST PUSH0 PUSH12 0xFFFFFFFFFFFFFFFFFFFFFFFF DUP3 AND SWAP1 POP SWAP2 SWAP1 POP JUMP JUMPDEST PUSH2 0xBD DUP2 PUSH2 0x9D JUMP JUMPDEST DUP2 EQ PUSH2 0xC7 JUMPI PUSH0 DUP1 REVERT JUMPDEST POP JUMP JUMPDEST PUSH0 DUP2 MLOAD SWAP1 POP PUSH2 0xD8 DUP2 PUSH2 0xB4 JUMP JUMPDEST SWAP3 SWAP2 POP POP JUMP JUMPDEST PUSH0 DUP1 PUSH1 0x40 DUP4 DUP6 SUB SLT ISZERO PUSH2 0xF4 JUMPI PUSH2 0xF3 PUSH2 0x99 JUMP JUMPDEST JUMPDEST PUSH0 PUSH2 0x101 DUP6 DUP3 DUP7 ADD PUSH2 0xCA JUMP JUMPDEST SWAP3 POP POP PUSH1 0x20 PUSH2 0x112 DUP6 DUP3 DUP7 ADD PUSH2 0xCA JUMP JUMPDEST SWAP2 POP POP SWAP3 POP SWAP3 SWAP1 POP JUMP JUMPDEST PUSH1 0x80 MLOAD PUSH1 0xA0 MLOAD PUSH1 0xC0 MLOAD PUSH2 0x2AA7 PUSH2 0x15B PUSH0 CODECOPY PUSH0 DUP2 DUP2 PUSH2 0xC6B ADD MSTORE PUSH2 0xDAF ADD MSTORE PUSH0 DUP2 DUP2 PUSH2 0x77B ADD MSTORE PUSH2 0x1497 ADD MSTORE PUSH0 DUP2 DUP2 PUSH2 0x7C0 ADD MSTORE PUSH2 0x9C0 ADD MSTORE PUSH2 0x2AA7 PUSH0 RETURN INVALID PUSH1 0x80 PUSH1 0x40 MSTORE CALLVALUE DUP1 ISZERO PUSH2 0xF JUMPI PUSH0 DUP1 REVERT JUMPDEST POP PUSH1 0x4 CALLDATASIZE LT PUSH2 0x129 JUMPI PUSH0 CALLDATALOAD PUSH1 0xE0 SHR DUP1 PUSH4 0x82359740 GT PUSH2 0xAB JUMPI DUP1 PUSH4 0xAFC69B53 GT PUSH2 0x6F JUMPI DUP1 PUSH4 0xAFC69B53 EQ PUSH2 0x314 JUMPI DUP1 PUSH4 0xC3F909D4 EQ PUSH2 0x330 JUMPI DUP1 PUSH4 0xD7AE1D30 EQ PUSH2 0x351 JUMPI DUP1 PUSH4 0xE82AD7D4 EQ PUSH2 0x36D JUMPI DUP1 PUSH4 0xED5EB06D EQ PUSH2 0x39D JUMPI PUSH2 0x129 JUMP JUMPDEST DUP1 PUSH4 0x82359740 EQ PUSH2 0x26D JUMPI DUP1 PUSH4 0x9F87FAD7 EQ PUSH2 0x289 JUMPI DUP1 PUSH4 0xA21A23E4 EQ PUSH2 0x2A5 JUMPI DUP1 PUSH4 0xA410347F EQ PUSH2 0x2C3 JUMPI DUP1 PUSH4 0xA47C7696 EQ PUSH2 0x2E1 JUMPI PUSH2 0x129 JUMP JUMPDEST DUP1 PUSH4 0x5D3B1D30 GT PUSH2 0xF2 JUMPI DUP1 PUSH4 0x5D3B1D30 EQ PUSH2 0x1C1 JUMPI DUP1 PUSH4 0x5FBBC0D2 EQ PUSH2 0x1F1 JUMPI DUP1 PUSH4 0x64D51A2A EQ PUSH2 0x217 JUMPI DUP1 PUSH4 0x7341C10C EQ PUSH2 0x235 JUMPI DUP1 PUSH4 0x808974FF EQ PUSH2 0x251 JUMPI PUSH2 0x129 JUMP JUMPDEST DUP1 PUSH3 0x12291 EQ PUSH2 0x12D JUMPI DUP1 PUSH4 0x4C357CB EQ PUSH2 0x14D JUMPI DUP1 PUSH4 0x8E3898E EQ PUSH2 0x169 JUMPI DUP1 PUSH4 0x356DAC71 EQ PUSH2 0x185 JUMPI DUP1 PUSH4 0x3D18651E EQ PUSH2 0x1A3 JUMPI JUMPDEST PUSH0 DUP1 REVERT JUMPDEST PUSH2 0x135 PUSH2 0x3CD JUMP JUMPDEST PUSH1 0x40 MLOAD PUSH2 0x144 SWAP4 SWAP3 SWAP2 SWAP1 PUSH2 0x1CF7 JUMP JUMPDEST PUSH1 0x40 MLOAD DUP1 SWAP2 SUB SWAP1 RETURN JUMPDEST PUSH2 0x167 PUSH1 0x4 DUP1 CALLDATASIZE SUB DUP2 ADD SWAP1 PUSH2 0x162 SWAP2 SWAP1 PUSH2 0x1DDB JUMP JUMPDEST PUSH2 0x42B JUMP JUMPDEST STOP JUMPDEST PUSH2 0x183 PUSH1 0x4 DUP1 CALLDATASIZE SUB DUP2 ADD SWAP1 PUSH2 0x17E SWAP2 SWAP1 PUSH2 0x1F9C JUMP JUMPDEST PUSH2 0x466 JUMP JUMPDEST STOP JUMPDEST PUSH2 0x18D PUSH2 0x9B0 JUMP JUMPDEST PUSH1 0x40 MLOAD PUSH2 0x19A SWAP2 SWAP1 PUSH2 0x2020 JUMP JUMPDEST PUSH1 0x40 MLOAD DUP1 SWAP2 SUB SWAP1 RETURN JUMPDEST PUSH2 0x1AB PUSH2 0x9BE JUMP JUMPDEST PUSH1 0x40 MLOAD PUSH2 0x1B8 SWAP2 SWAP1 PUSH2 0x205F JUMP JUMPDEST PUSH1 0x40 MLOAD DUP1 SWAP2 SUB SWAP1 RETURN JUMPDEST PUSH2 0x1DB PUSH1 0x4 DUP1 CALLDATASIZE SUB DUP2 ADD SWAP1 PUSH2 0x1D6 SWAP2 SWAP1 PUSH2 0x20F6 JUMP JUMPDEST PUSH2 0x9E2 JUMP JUMPDEST PUSH1 0x40 MLOAD PUSH2 0x1E8 SWAP2 SWAP1 PUSH2 0x217C JUMP JUMPDEST PUSH1 0x40 MLOAD DUP1 SWAP2 SUB SWAP1 RETURN JUMPDEST PUSH2 0x1F9 PUSH2 0xC31 JUMP JUMPDEST PUSH1 0x40 MLOAD PUSH2 0x20E SWAP10 SWAP9 SWAP8 SWAP7 SWAP6 SWAP5 SWAP4 SWAP3 SWAP2 SWAP1 PUSH2 0x21B2 JUMP JUMPDEST PUSH1 0x40 MLOAD DUP1 SWAP2 SUB SWAP1 RETURN JUMPDEST PUSH2 0x21F PUSH2 0xC69 JUMP JUMPDEST PUSH1 0x40 MLOAD PUSH2 0x22C SWAP2 SWAP1 PUSH2 0x223D JUMP JUMPDEST PUSH1 0x40 MLOAD DUP1 SWAP2 SUB SWAP1 RETURN JUMPDEST PUSH2 0x24F PUSH1 0x4 DUP1 CALLDATASIZE SUB DUP2 ADD SWAP1 PUSH2 0x24A SWAP2 SWAP1 PUSH2 0x1DDB JUMP JUMPDEST PUSH2 0xC8D JUMP JUMPDEST STOP JUMPDEST PUSH2 0x26B PUSH1 0x4 DUP1 CALLDATASIZE SUB DUP2 ADD SWAP1 PUSH2 0x266 SWAP2 SWAP1 PUSH2 0x2256 JUMP JUMPDEST PUSH2 0xF0C JUMP JUMPDEST STOP JUMPDEST PUSH2 0x287 PUSH1 0x4 DUP1 CALLDATASIZE SUB DUP2 ADD SWAP1 PUSH2 0x282 SWAP2 SWAP1 PUSH2 0x2294 JUMP JUMPDEST PUSH2 0xF63 JUMP JUMPDEST STOP JUMPDEST PUSH2 0x2A3 PUSH1 0x4 DUP1 CALLDATASIZE SUB DUP2 ADD SWAP1 PUSH2 0x29E SWAP2 SWAP1 PUSH2 0x1DDB JUMP JUMPDEST PUSH2 0xF9E JUMP JUMPDEST STOP JUMPDEST PUSH2 0x2AD PUSH2 0x12EC JUMP JUMPDEST PUSH1 0x40 MLOAD PUSH2 0x2BA SWAP2 SWAP1 PUSH2 0x22CE JUMP JUMPDEST PUSH1 0x40 MLOAD DUP1 SWAP2 SUB SWAP1 RETURN JUMPDEST PUSH2 0x2CB PUSH2 0x1495 JUMP JUMPDEST PUSH1 0x40 MLOAD PUSH2 0x2D8 SWAP2 SWAP1 PUSH2 0x205F JUMP JUMPDEST PUSH1 0x40 MLOAD DUP1 SWAP2 SUB SWAP1 RETURN JUMPDEST PUSH2 0x2FB PUSH1 0x4 DUP1 CALLDATASIZE SUB DUP2 ADD SWAP1 PUSH2 0x2F6 SWAP2 SWAP1 PUSH2 0x2294 JUMP JUMPDEST PUSH2 0x14B9 JUMP JUMPDEST PUSH1 0x40 MLOAD PUSH2 0x30B SWAP5 SWAP4 SWAP3 SWAP2 SWAP1 PUSH2 0x23AD JUMP JUMPDEST PUSH1 0x40 MLOAD DUP1 SWAP2 SUB SWAP1 RETURN JUMPDEST PUSH2 0x32E PUSH1 0x4 DUP1 CALLDATASIZE SUB DUP2 ADD SWAP1 PUSH2 0x329 SWAP2 SWAP1 PUSH2 0x2421 JUMP JUMPDEST PUSH2 0x16AA JUMP JUMPDEST STOP JUMPDEST PUSH2 0x338 PUSH2 0x1868 JUMP JUMPDEST PUSH1 0x40 MLOAD PUSH2 0x348 SWAP5 SWAP4 SWAP3 SWAP2 SWAP1 PUSH2 0x245F JUMP JUMPDEST PUSH1 0x40 MLOAD DUP1 SWAP2 SUB SWAP1 RETURN JUMPDEST PUSH2 0x36B PUSH1 0x4 DUP1 CALLDATASIZE SUB DUP2 ADD SWAP1 PUSH2 0x366 SWAP2 SWAP1 PUSH2 0x1DDB JUMP JUMPDEST PUSH2 0x1886 JUMP JUMPDEST STOP JUMPDEST PUSH2 0x387 PUSH1 0x4 DUP1 CALLDATASIZE SUB DUP2 ADD SWAP1 PUSH2 0x382 SWAP2 SWAP1 PUSH2 0x2294 JUMP JUMPDEST PUSH2 0x1A9A JUMP JUMPDEST PUSH1 0x40 MLOAD PUSH2 0x394 SWAP2 SWAP1 PUSH2 0x24BC JUMP JUMPDEST PUSH1 0x40 MLOAD DUP1 SWAP2 SUB SWAP1 RETURN JUMPDEST PUSH2 0x3B7 PUSH1 0x4 DUP1 CALLDATASIZE SUB DUP2 ADD SWAP1 PUSH2 0x3B2 SWAP2 SWAP1 PUSH2 0x1DDB JUMP JUMPDEST PUSH2 0x1AD6 JUMP JUMPDEST PUSH1 0x40 MLOAD PUSH2 0x3C4 SWAP2 SWAP1 PUSH2 0x24BC JUMP JUMPDEST PUSH1 0x40 MLOAD DUP1 SWAP2 SUB SWAP1 RETURN JUMPDEST PUSH0 DUP1 PUSH1 0x60 PUSH1 0x3 PUSH3 0x1E8480 PUSH0 PUSH8 0xFFFFFFFFFFFFFFFF DUP2 GT ISZERO PUSH2 0x3F1 JUMPI PUSH2 0x3F0 PUSH2 0x1E60 JUMP JUMPDEST JUMPDEST PUSH1 0x40 MLOAD SWAP1 DUP1 DUP3 MSTORE DUP1 PUSH1 0x20 MUL PUSH1 0x20 ADD DUP3 ADD PUSH1 0x40 MSTORE DUP1 ISZERO PUSH2 0x41F JUMPI DUP2 PUSH1 0x20 ADD PUSH1 0x20 DUP3 MUL DUP1 CALLDATASIZE DUP4 CALLDATACOPY DUP1 DUP3 ADD SWAP2 POP POP SWAP1 POP JUMPDEST POP SWAP3 POP SWAP3 POP SWAP3 POP SWAP1 SWAP2 SWAP3 JUMP JUMPDEST PUSH1 0x40 MLOAD PUSH32 0x8C379A000000000000000000000000000000000000000000000000000000000 DUP2 MSTORE PUSH1 0x4 ADD PUSH2 0x45D SWAP1 PUSH2 0x252F JUMP JUMPDEST PUSH1 0x40 MLOAD DUP1 SWAP2 SUB SWAP1 REVERT JUMPDEST PUSH0 GAS SWAP1 POP PUSH0 PUSH1 0x5 PUSH0 DUP7 DUP2 MSTORE PUSH1 0x20 ADD SWAP1 DUP2 MSTORE PUSH1 0x20 ADD PUSH0 KECCAK256 PUSH0 ADD PUSH0 SWAP1 SLOAD SWAP1 PUSH2 0x100 EXP SWAP1 DIV PUSH8 0xFFFFFFFFFFFFFFFF AND PUSH8 0xFFFFFFFFFFFFFFFF AND SUB PUSH2 0x4DC JUMPI PUSH1 0x40 MLOAD PUSH32 0x8C379A000000000000000000000000000000000000000000000000000000000 DUP2 MSTORE PUSH1 0x4 ADD PUSH2 0x4D3 SWAP1 PUSH2 0x2597 JUMP JUMPDEST PUSH1 0x40 MLOAD DUP1 SWAP2 SUB SWAP1 REVERT JUMPDEST PUSH0 PUSH1 0x5 PUSH0 DUP7 DUP2 MSTORE PUSH1 0x20 ADD SWAP1 DUP2 MSTORE PUSH1 0x20 ADD PUSH0 KECCAK256 PUSH1 0x40 MLOAD DUP1 PUSH1 0x60 ADD PUSH1 0x40 MSTORE SWAP1 DUP2 PUSH0 DUP3 ADD PUSH0 SWAP1 SLOAD SWAP1 PUSH2 0x100 EXP SWAP1 DIV PUSH8 0xFFFFFFFFFFFFFFFF AND PUSH8 0xFFFFFFFFFFFFFFFF AND PUSH8 0xFFFFFFFFFFFFFFFF AND DUP2 MSTORE PUSH1 0x20 ADD PUSH0 DUP3 ADD PUSH1 0x8 SWAP1 SLOAD SWAP1 PUSH2 0x100 EXP SWAP1 DIV PUSH4 0xFFFFFFFF AND PUSH4 0xFFFFFFFF AND PUSH4 0xFFFFFFFF AND DUP2 MSTORE PUSH1 0x20 ADD PUSH0 DUP3 ADD PUSH1 0xC SWAP1 SLOAD SWAP1 PUSH2 0x100 EXP SWAP1 DIV PUSH4 0xFFFFFFFF AND PUSH4 0xFFFFFFFF AND PUSH4 0xFFFFFFFF AND DUP2 MSTORE POP POP SWAP1 POP PUSH0 DUP4 MLOAD SUB PUSH2 0x643 JUMPI DUP1 PUSH1 0x40 ADD MLOAD PUSH4 0xFFFFFFFF AND PUSH8 0xFFFFFFFFFFFFFFFF DUP2 GT ISZERO PUSH2 0x5A1 JUMPI PUSH2 0x5A0 PUSH2 0x1E60 JUMP JUMPDEST JUMPDEST PUSH1 0x40 MLOAD SWAP1 DUP1 DUP3 MSTORE DUP1 PUSH1 0x20 MUL PUSH1 0x20 ADD DUP3 ADD PUSH1 0x40 MSTORE DUP1 ISZERO PUSH2 0x5CF JUMPI DUP2 PUSH1 0x20 ADD PUSH1 0x20 DUP3 MUL DUP1 CALLDATASIZE DUP4 CALLDATACOPY DUP1 DUP3 ADD SWAP2 POP POP SWAP1 POP JUMPDEST POP SWAP3 POP PUSH0 JUMPDEST DUP2 PUSH1 0x40 ADD MLOAD PUSH4 0xFFFFFFFF AND DUP2 LT ISZERO PUSH2 0x63D JUMPI DUP6 DUP2 PUSH1 0x40 MLOAD PUSH1 0x20 ADD PUSH2 0x5F9 SWAP3 SWAP2 SWAP1 PUSH2 0x25B5 JUMP JUMPDEST PUSH1 0x40 MLOAD PUSH1 0x20 DUP2 DUP4 SUB SUB DUP2 MSTORE SWAP1 PUSH1 0x40 MSTORE DUP1 MLOAD SWAP1 PUSH1 0x20 ADD KECCAK256 PUSH0 SHR DUP5 DUP3 DUP2 MLOAD DUP2 LT PUSH2 0x624 JUMPI PUSH2 0x623 PUSH2 0x25DC JUMP JUMPDEST JUMPDEST PUSH1 0x20 MUL PUSH1 0x20 ADD ADD DUP2 DUP2 MSTORE POP POP DUP1 DUP1 PUSH1 0x1 ADD SWAP2 POP POP PUSH2 0x5D4 JUMP JUMPDEST POP PUSH2 0x688 JUMP JUMPDEST DUP1 PUSH1 0x40 ADD MLOAD PUSH4 0xFFFFFFFF AND DUP4 MLOAD EQ PUSH2 0x687 JUMPI PUSH1 0x40 MLOAD PUSH32 0x3F3DF5B600000000000000000000000000000000000000000000000000000000 DUP2 MSTORE PUSH1 0x4 ADD PUSH1 0x40 MLOAD DUP1 SWAP2 SUB SWAP1 REVERT JUMPDEST JUMPDEST PUSH0 DUP1 PUSH4 0x1FE543E3 PUSH1 0xE0 SHL DUP8 DUP7 PUSH1 0x40 MLOAD PUSH1 0x24 ADD PUSH2 0x6A5 SWAP3 SWAP2 SWAP1 PUSH2 0x26C0 JUMP JUMPDEST PUSH1 0x40 MLOAD PUSH1 0x20 DUP2 DUP4 SUB SUB DUP2 MSTORE SWAP1 PUSH1 0x40 MSTORE SWAP1 PUSH28 0xFFFFFFFFFFFFFFFFFFFFFFFFFFFFFFFFFFFFFFFFFFFFFFFFFFFFFFFF NOT AND PUSH1 0x20 DUP3 ADD DUP1 MLOAD PUSH28 0xFFFFFFFFFFFFFFFFFFFFFFFFFFFFFFFFFFFFFFFFFFFFFFFFFFFFFFFF DUP4 DUP2 DUP4 AND OR DUP4 MSTORE POP POP POP POP SWAP1 POP PUSH0 DUP7 PUSH20 0xFFFFFFFFFFFFFFFFFFFFFFFFFFFFFFFFFFFFFFFF AND DUP5 PUSH1 0x20 ADD MLOAD PUSH4 0xFFFFFFFF AND DUP4 PUSH1 0x40 MLOAD PUSH2 0x735 SWAP2 SWAP1 PUSH2 0x2740 JUMP JUMPDEST PUSH0 PUSH1 0x40 MLOAD DUP1 DUP4 SUB DUP2 PUSH0 DUP8 DUP8 CALL SWAP3 POP POP POP RETURNDATASIZE DUP1 PUSH0 DUP2 EQ PUSH2 0x76F JUMPI PUSH1 0x40 MLOAD SWAP2 POP PUSH1 0x1F NOT PUSH1 0x3F RETURNDATASIZE ADD AND DUP3 ADD PUSH1 0x40 MSTORE RETURNDATASIZE DUP3 MSTORE RETURNDATASIZE PUSH0 PUSH1 0x20 DUP5 ADD RETURNDATACOPY PUSH2 0x774 JUMP JUMPDEST PUSH1 0x60 SWAP2 POP JUMPDEST POP POP SWAP1 POP PUSH0 PUSH32 0x0 PUSH12 0xFFFFFFFFFFFFFFFFFFFFFFFF AND GAS DUP8 PUSH2 0x7B4 SWAP2 SWAP1 PUSH2 0x2783 JUMP JUMPDEST PUSH2 0x7BE SWAP2 SWAP1 PUSH2 0x27B6 JUMP JUMPDEST PUSH32 0x0 PUSH12 0xFFFFFFFFFFFFFFFFFFFFFFFF AND PUSH2 0x7F7 SWAP2 SWAP1 PUSH2 0x27F7 JUMP JUMPDEST SWAP1 POP DUP1 PUSH12 0xFFFFFFFFFFFFFFFFFFFFFFFF AND PUSH1 0x3 PUSH0 DUP8 PUSH0 ADD MLOAD PUSH8 0xFFFFFFFFFFFFFFFF AND PUSH8 0xFFFFFFFFFFFFFFFF AND DUP2 MSTORE PUSH1 0x20 ADD SWAP1 DUP2 MSTORE PUSH1 0x20 ADD PUSH0 KECCAK256 PUSH0 ADD PUSH1 0x14 SWAP1 SLOAD SWAP1 PUSH2 0x100 EXP SWAP1 DIV PUSH12 0xFFFFFFFFFFFFFFFFFFFFFFFF AND PUSH12 0xFFFFFFFFFFFFFFFFFFFFFFFF AND LT ISZERO PUSH2 0x891 JUMPI PUSH1 0x40 MLOAD PUSH32 0xF4D678B800000000000000000000000000000000000000000000000000000000 DUP2 MSTORE PUSH1 0x4 ADD PUSH1 0x40 MLOAD DUP1 SWAP2 SUB SWAP1 REVERT JUMPDEST DUP1 PUSH1 0x3 PUSH0 DUP8 PUSH0 ADD MLOAD PUSH8 0xFFFFFFFFFFFFFFFF AND PUSH8 0xFFFFFFFFFFFFFFFF AND DUP2 MSTORE PUSH1 0x20 ADD SWAP1 DUP2 MSTORE PUSH1 0x20 ADD PUSH0 KECCAK256 PUSH0 ADD PUSH1 0x14 DUP3 DUP3 DUP3 SWAP1 SLOAD SWAP1 PUSH2 0x100 EXP SWAP1 DIV PUSH12 0xFFFFFFFFFFFFFFFFFFFFFFFF AND PUSH2 0x8E2 SWAP2 SWAP1 PUSH2 0x282A JUMP JUMPDEST SWAP3 POP PUSH2 0x100 EXP DUP2 SLOAD DUP2 PUSH12 0xFFFFFFFFFFFFFFFFFFFFFFFF MUL NOT AND SWAP1 DUP4 PUSH12 0xFFFFFFFFFFFFFFFFFFFFFFFF AND MUL OR SWAP1 SSTORE POP PUSH1 0x5 PUSH0 DUP11 DUP2 MSTORE PUSH1 0x20 ADD SWAP1 DUP2 MSTORE PUSH1 0x20 ADD PUSH0 KECCAK256 PUSH0 DUP1 DUP3 ADD PUSH0 PUSH2 0x100 EXP DUP2 SLOAD SWAP1 PUSH8 0xFFFFFFFFFFFFFFFF MUL NOT AND SWAP1 SSTORE PUSH0 DUP3 ADD PUSH1 0x8 PUSH2 0x100 EXP DUP2 SLOAD SWAP1 PUSH4 0xFFFFFFFF MUL NOT AND SWAP1 SSTORE PUSH0 DUP3 ADD PUSH1 0xC PUSH2 0x100 EXP DUP2 SLOAD SWAP1 PUSH4 0xFFFFFFFF MUL NOT AND SWAP1 SSTORE POP POP DUP9 PUSH32 0x7DFFC5AE5EE4E2E4DF1651CF6AD329A73CEBDB728F37EA0187B9B17E036756E4 DUP11 DUP4 DUP6 PUSH1 0x40 MLOAD PUSH2 0x99D SWAP4 SWAP3 SWAP2 SWAP1 PUSH2 0x2869 JUMP JUMPDEST PUSH1 0x40 MLOAD DUP1 SWAP2 SUB SWAP1 LOG2 POP POP POP POP POP POP POP POP POP JUMP JUMPDEST PUSH0 PUSH7 0xE35FA931A0000 SWAP1 POP SWAP1 JUMP JUMPDEST PUSH32 0x0 DUP2 JUMP JUMPDEST PUSH0 DUP5 CALLER PUSH2 0x9EF DUP3 DUP3 PUSH2 0x1AD6 JUMP JUMPDEST PUSH2 0xA25 JUMPI PUSH1 0x40 MLOAD PUSH32 0x71E8313700000000000000000000000000000000000000000000000000000000 DUP2 MSTORE PUSH1 0x4 ADD PUSH1 0x40 MLOAD DUP1 SWAP2 SUB SWAP1 REVERT JUMPDEST PUSH0 PUSH20 0xFFFFFFFFFFFFFFFFFFFFFFFFFFFFFFFFFFFFFFFF AND PUSH1 0x3 PUSH0 DUP10 PUSH8 0xFFFFFFFFFFFFFFFF AND PUSH8 0xFFFFFFFFFFFFFFFF AND DUP2 MSTORE PUSH1 0x20 ADD SWAP1 DUP2 MSTORE PUSH1 0x20 ADD PUSH0 KECCAK256 PUSH0 ADD PUSH0 SWAP1 SLOAD SWAP1 PUSH2 0x100 EXP SWAP1 DIV PUSH20 0xFFFFFFFFFFFFFFFFFFFFFFFFFFFFFFFFFFFFFFFF AND PUSH20 0xFFFFFFFFFFFFFFFFFFFFFFFFFFFFFFFFFFFFFFFF AND SUB PUSH2 0xAD0 JUMPI PUSH1 0x40 MLOAD PUSH32 0x1F6A65B600000000000000000000000000000000000000000000000000000000 DUP2 MSTORE PUSH1 0x4 ADD PUSH1 0x40 MLOAD DUP1 SWAP2 SUB SWAP1 REVERT JUMPDEST PUSH0 PUSH1 0x1 PUSH0 DUP2 SLOAD DUP1 SWAP3 SWAP2 SWAP1 PUSH2 0xAE3 SWAP1 PUSH2 0x289E JUMP JUMPDEST SWAP2 SWAP1 POP SSTORE SWAP1 POP PUSH0 PUSH1 0x2 PUSH0 DUP2 SLOAD DUP1 SWAP3 SWAP2 SWAP1 PUSH2 0xAFC SWAP1 PUSH2 0x289E JUMP JUMPDEST SWAP2 SWAP1 POP SSTORE SWAP1 POP PUSH1 0x40 MLOAD DUP1 PUSH1 0x60 ADD PUSH1 0x40 MSTORE DUP1 DUP11 PUSH8 0xFFFFFFFFFFFFFFFF AND DUP2 MSTORE PUSH1 0x20 ADD DUP9 PUSH4 0xFFFFFFFF AND DUP2 MSTORE PUSH1 0x20 ADD DUP8 PUSH4 0xFFFFFFFF AND DUP2 MSTORE POP PUSH1 0x5 PUSH0 DUP5 DUP2 MSTORE PUSH1 0x20 ADD SWAP1 DUP2 MSTORE PUSH1 0x20 ADD PUSH0 KECCAK256 PUSH0 DUP3 ADD MLOAD DUP2 PUSH0 ADD PUSH0 PUSH2 0x100 EXP DUP2 SLOAD DUP2 PUSH8 0xFFFFFFFFFFFFFFFF MUL NOT AND SWAP1 DUP4 PUSH8 0xFFFFFFFFFFFFFFFF AND MUL OR SWAP1 SSTORE POP PUSH1 0x20 DUP3 ADD MLOAD DUP2 PUSH0 ADD PUSH1 0x8 PUSH2 0x100 EXP DUP2 SLOAD DUP2 PUSH4 0xFFFFFFFF MUL NOT AND SWAP1 DUP4 PUSH4 0xFFFFFFFF AND MUL OR SWAP1 SSTORE POP PUSH1 0x40 DUP3 ADD MLOAD DUP2 PUSH0 ADD PUSH1 0xC PUSH2 0x100 EXP DUP2 SLOAD DUP2 PUSH4 0xFFFFFFFF MUL NOT AND SWAP1 DUP4 PUSH4 0xFFFFFFFF AND MUL OR SWAP1 SSTORE POP SWAP1 POP POP CALLER PUSH20 0xFFFFFFFFFFFFFFFFFFFFFFFFFFFFFFFFFFFFFFFF AND DUP10 PUSH8 0xFFFFFFFFFFFFFFFF AND DUP12 PUSH32 0x63373D1C4696214B898952999C9AAEC57DAC1EE2723CEC59BEA6888F489A9772 DUP6 DUP6 DUP14 DUP14 DUP14 PUSH1 0x40 MLOAD PUSH2 0xC19 SWAP6 SWAP5 SWAP4 SWAP3 SWAP2 SWAP1 PUSH2 0x28E5 JUMP JUMPDEST PUSH1 0x40 MLOAD DUP1 SWAP2 SUB SWAP1 LOG4 DUP2 SWAP5 POP POP POP POP POP SWAP6 SWAP5 POP POP POP POP POP JUMP JUMPDEST PUSH0 DUP1 PUSH0 DUP1 PUSH0 DUP1 PUSH0 DUP1 PUSH0 PUSH3 0x186A0 DUP1 PUSH3 0x186A0 DUP1 PUSH3 0x186A0 PUSH0 DUP1 PUSH0 DUP1 SWAP9 POP SWAP9 POP SWAP9 POP SWAP9 POP SWAP9 POP SWAP9 POP SWAP9 POP SWAP9 POP SWAP9 POP SWAP1 SWAP2 SWAP3 SWAP4 SWAP5 SWAP6 SWAP7 SWAP8 SWAP9 JUMP JUMPDEST PUSH32 0x0 DUP2 JUMP JUMPDEST DUP2 PUSH0 PUSH1 0x3 PUSH0 DUP4 PUSH8 0xFFFFFFFFFFFFFFFF AND PUSH8 0xFFFFFFFFFFFFFFFF AND DUP2 MSTORE PUSH1 0x20 ADD SWAP1 DUP2 MSTORE PUSH1 0x20 ADD PUSH0 KECCAK256 PUSH0 ADD PUSH0 SWAP1 SLOAD SWAP1 PUSH2 0x100 EXP SWAP1 DIV PUSH20 0xFFFFFFFFFFFFFFFFFFFFFFFFFFFFFFFFFFFFFFFF AND SWAP1 POP PUSH0 PUSH20 0xFFFFFFFFFFFFFFFFFFFFFFFFFFFFFFFFFFFFFFFF AND DUP2 PUSH20 0xFFFFFFFFFFFFFFFFFFFFFFFFFFFFFFFFFFFFFFFF AND SUB PUSH2 0xD3D JUMPI PUSH1 0x40 MLOAD PUSH32 0x1F6A65B600000000000000000000000000000000000000000000000000000000 DUP2 MSTORE PUSH1 0x4 ADD PUSH1 0x40 MLOAD DUP1 SWAP2 SUB SWAP1 REVERT JUMPDEST DUP1 PUSH20 0xFFFFFFFFFFFFFFFFFFFFFFFFFFFFFFFFFFFFFFFF AND CALLER PUSH20 0xFFFFFFFFFFFFFFFFFFFFFFFFFFFFFFFFFFFFFFFF AND EQ PUSH2 0xDAD JUMPI DUP1 PUSH1 0x40 MLOAD PUSH32 0xD8A3FB5200000000000000000000000000000000000000000000000000000000 DUP2 MSTORE PUSH1 0x4 ADD PUSH2 0xDA4 SWAP2 SWAP1 PUSH2 0x2936 JUMP JUMPDEST PUSH1 0x40 MLOAD DUP1 SWAP2 SUB SWAP1 REVERT JUMPDEST PUSH32 0x0 PUSH2 0xFFFF AND PUSH1 0x4 PUSH0 DUP7 PUSH8 0xFFFFFFFFFFFFFFFF AND PUSH8 0xFFFFFFFFFFFFFFFF AND DUP2 MSTORE PUSH1 0x20 ADD SWAP1 DUP2 MSTORE PUSH1 0x20 ADD PUSH0 KECCAK256 DUP1 SLOAD SWAP1 POP SUB PUSH2 0xE32 JUMPI PUSH1 0x40 MLOAD PUSH32 0x5A48E0F00000000000000000000000000000000000000000000000000000000 DUP2 MSTORE PUSH1 0x4 ADD PUSH1 0x40 MLOAD DUP1 SWAP2 SUB SWAP1 REVERT JUMPDEST PUSH2 0xE3C DUP5 DUP5 PUSH2 0x1AD6 JUMP JUMPDEST PUSH2 0xF06 JUMPI PUSH1 0x4 PUSH0 DUP6 PUSH8 0xFFFFFFFFFFFFFFFF AND PUSH8 0xFFFFFFFFFFFFFFFF AND DUP2 MSTORE PUSH1 0x20 ADD SWAP1 DUP2 MSTORE PUSH1 0x20 ADD PUSH0 KECCAK256 DUP4 SWAP1 DUP1 PUSH1 0x1 DUP2 SLOAD ADD DUP1 DUP3 SSTORE DUP1 SWAP2 POP POP PUSH1 0x1 SWAP1 SUB SWAP1 PUSH0 MSTORE PUSH1 0x20 PUSH0 KECCAK256 ADD PUSH0 SWAP1 SWAP2 SWAP1 SWAP2 SWAP1 SWAP2 PUSH2 0x100 EXP DUP2 SLOAD DUP2 PUSH20 0xFFFFFFFFFFFFFFFFFFFFFFFFFFFFFFFFFFFFFFFF MUL NOT AND SWAP1 DUP4 PUSH20 0xFFFFFFFFFFFFFFFFFFFFFFFFFFFFFFFFFFFFFFFF AND MUL OR SWAP1 SSTORE POP DUP4 PUSH8 0xFFFFFFFFFFFFFFFF AND PUSH32 0x752EAD9F4536EC1319EE3A5A604E1D65EDED22E0924251552BA14AE4FAA1BBC3 DUP5 PUSH1 0x40 MLOAD PUSH2 0xEFD SWAP2 SWAP1 PUSH2 0x2936 JUMP JUMPDEST PUSH1 0x40 MLOAD DUP1 SWAP2 SUB SWAP1 LOG2 JUMPDEST POP POP POP POP JUMP JUMPDEST PUSH2 0xF5F DUP3 DUP3 PUSH0 PUSH8 0xFFFFFFFFFFFFFFFF DUP2 GT ISZERO PUSH2 0xF2B JUMPI PUSH2 0xF2A PUSH2 0x1E60 JUMP JUMPDEST JUMPDEST PUSH1 0x40 MLOAD SWAP1 DUP1 DUP3 MSTORE DUP1 PUSH1 0x20 MUL PUSH1 0x20 ADD DUP3 ADD PUSH1 0x40 MSTORE DUP1 ISZERO PUSH2 0xF59 JUMPI DUP2 PUSH1 0x20 ADD PUSH1 0x20 DUP3 MUL DUP1 CALLDATASIZE DUP4 CALLDATACOPY DUP1 DUP3 ADD SWAP2 POP POP SWAP1 POP JUMPDEST POP PUSH2 0x466 JUMP JUMPDEST POP POP JUMP JUMPDEST PUSH1 0x40 MLOAD PUSH32 0x8C379A000000000000000000000000000000000000000000000000000000000 DUP2 MSTORE PUSH1 0x4 ADD PUSH2 0xF95 SWAP1 PUSH2 0x252F JUMP JUMPDEST PUSH1 0x40 MLOAD DUP1 SWAP2 SUB SWAP1 REVERT JUMPDEST DUP2 PUSH0 PUSH1 0x3 PUSH0 DUP4 PUSH8 0xFFFFFFFFFFFFFFFF AND PUSH8 0xFFFFFFFFFFFFFFFF AND DUP2 MSTORE PUSH1 0x20 ADD SWAP1 DUP2 MSTORE PUSH1 0x20 ADD PUSH0 KECCAK256 PUSH0 ADD PUSH0 SWAP1 SLOAD SWAP1 PUSH2 0x100 EXP SWAP1 DIV PUSH20 0xFFFFFFFFFFFFFFFFFFFFFFFFFFFFFFFFFFFFFFFF AND SWAP1 POP PUSH0 PUSH20 0xFFFFFFFFFFFFFFFFFFFFFFFFFFFFFFFFFFFFFFFF AND DUP2 PUSH20 0xFFFFFFFFFFFFFFFFFFFFFFFFFFFFFFFFFFFFFFFF AND SUB PUSH2 0x104E JUMPI PUSH1 0x40 MLOAD PUSH32 0x1F6A65B600000000000000000000000000000000000000000000000000000000 DUP2 MSTORE PUSH1 0x4 ADD PUSH1 0x40 MLOAD DUP1 SWAP2 SUB SWAP1 REVERT JUMPDEST DUP1 PUSH20 0xFFFFFFFFFFFFFFFFFFFFFFFFFFFFFFFFFFFFFFFF AND CALLER PUSH20 0xFFFFFFFFFFFFFFFFFFFFFFFFFFFFFFFFFFFFFFFF AND EQ PUSH2 0x10BE JUMPI DUP1 PUSH1 0x40 MLOAD PUSH32 0xD8A3FB5200000000000000000000000000000000000000000000000000000000 DUP2 MSTORE PUSH1 0x4 ADD PUSH2 0x10B5 SWAP2 SWAP1 PUSH2 0x2936 JUMP JUMPDEST PUSH1 0x40 MLOAD DUP1 SWAP2 SUB SWAP1 REVERT JUMPDEST DUP4 DUP4 PUSH2 0x10CA DUP3 DUP3 PUSH2 0x1AD6 JUMP JUMPDEST PUSH2 0x1100 JUMPI PUSH1 0x40 MLOAD PUSH32 0x71E8313700000000000000000000000000000000000000000000000000000000 DUP2 MSTORE PUSH1 0x4 ADD PUSH1 0x40 MLOAD DUP1 SWAP2 SUB SWAP1 REVERT JUMPDEST PUSH0 PUSH1 0x4 PUSH0 DUP9 PUSH8 0xFFFFFFFFFFFFFFFF AND PUSH8 0xFFFFFFFFFFFFFFFF AND DUP2 MSTORE PUSH1 0x20 ADD SWAP1 DUP2 MSTORE PUSH1 0x20 ADD PUSH0 KECCAK256 SWAP1 POP PUSH0 JUMPDEST DUP2 DUP1 SLOAD SWAP1 POP DUP2 LT ISZERO PUSH2 0x12A0 JUMPI DUP7 PUSH20 0xFFFFFFFFFFFFFFFFFFFFFFFFFFFFFFFFFFFFFFFF AND DUP3 DUP3 DUP2 SLOAD DUP2 LT PUSH2 0x1160 JUMPI PUSH2 0x115F PUSH2 0x25DC JUMP JUMPDEST JUMPDEST SWAP1 PUSH0 MSTORE PUSH1 0x20 PUSH0 KECCAK256 ADD PUSH0 SWAP1 SLOAD SWAP1 PUSH2 0x100 EXP SWAP1 DIV PUSH20 0xFFFFFFFFFFFFFFFFFFFFFFFFFFFFFFFFFFFFFFFF AND PUSH20 0xFFFFFFFFFFFFFFFFFFFFFFFFFFFFFFFFFFFFFFFF AND SUB PUSH2 0x1293 JUMPI PUSH0 DUP3 PUSH1 0x1 DUP5 DUP1 SLOAD SWAP1 POP PUSH2 0x11B6 SWAP2 SWAP1 PUSH2 0x2783 JUMP JUMPDEST DUP2 SLOAD DUP2 LT PUSH2 0x11C7 JUMPI PUSH2 0x11C6 PUSH2 0x25DC JUMP JUMPDEST JUMPDEST SWAP1 PUSH0 MSTORE PUSH1 0x20 PUSH0 KECCAK256 ADD PUSH0 SWAP1 SLOAD SWAP1 PUSH2 0x100 EXP SWAP1 DIV PUSH20 0xFFFFFFFFFFFFFFFFFFFFFFFFFFFFFFFFFFFFFFFF AND SWAP1 POP DUP1 DUP4 DUP4 DUP2 SLOAD DUP2 LT PUSH2 0x1205 JUMPI PUSH2 0x1204 PUSH2 0x25DC JUMP JUMPDEST JUMPDEST SWAP1 PUSH0 MSTORE PUSH1 0x20 PUSH0 KECCAK256 ADD PUSH0 PUSH2 0x100 EXP DUP2 SLOAD DUP2 PUSH20 0xFFFFFFFFFFFFFFFFFFFFFFFFFFFFFFFFFFFFFFFF MUL NOT AND SWAP1 DUP4 PUSH20 0xFFFFFFFFFFFFFFFFFFFFFFFFFFFFFFFFFFFFFFFF AND MUL OR SWAP1 SSTORE POP DUP3 DUP1 SLOAD DUP1 PUSH2 0x125B JUMPI PUSH2 0x125A PUSH2 0x294F JUMP JUMPDEST JUMPDEST PUSH1 0x1 SWAP1 SUB DUP2 DUP2 SWAP1 PUSH0 MSTORE PUSH1 0x20 PUSH0 KECCAK256 ADD PUSH0 PUSH2 0x100 EXP DUP2 SLOAD SWAP1 PUSH20 0xFFFFFFFFFFFFFFFFFFFFFFFFFFFFFFFFFFFFFFFF MUL NOT AND SWAP1 SSTORE SWAP1 SSTORE POP PUSH2 0x12A0 JUMP JUMPDEST DUP1 DUP1 PUSH1 0x1 ADD SWAP2 POP POP PUSH2 0x112A JUMP JUMPDEST POP DUP7 PUSH8 0xFFFFFFFFFFFFFFFF AND PUSH32 0xF9BC9D5B5733D904409DEF43A5ECC888DBDAC9A95687780D8FD489D3BB3813FC DUP8 PUSH1 0x40 MLOAD PUSH2 0x12DB SWAP2 SWAP1 PUSH2 0x2936 JUMP JUMPDEST PUSH1 0x40 MLOAD DUP1 SWAP2 SUB SWAP1 LOG2 POP POP POP POP POP POP POP JUMP JUMPDEST PUSH0 DUP1 PUSH0 DUP2 DUP2 SWAP1 SLOAD SWAP1 PUSH2 0x100 EXP SWAP1 DIV PUSH8 0xFFFFFFFFFFFFFFFF AND DUP1 SWAP3 SWAP2 SWAP1 PUSH2 0x1311 SWAP1 PUSH2 0x297C JUMP JUMPDEST SWAP2 SWAP1 PUSH2 0x100 EXP DUP2 SLOAD DUP2 PUSH8 0xFFFFFFFFFFFFFFFF MUL NOT AND SWAP1 DUP4 PUSH8 0xFFFFFFFFFFFFFFFF AND MUL OR SWAP1 SSTORE POP POP PUSH1 0x40 MLOAD DUP1 PUSH1 0x40 ADD PUSH1 0x40 MSTORE DUP1 CALLER PUSH20 0xFFFFFFFFFFFFFFFFFFFFFFFFFFFFFFFFFFFFFFFF AND DUP2 MSTORE PUSH1 0x20 ADD PUSH0 PUSH12 0xFFFFFFFFFFFFFFFFFFFFFFFF AND DUP2 MSTORE POP PUSH1 0x3 PUSH0 DUP1 PUSH0 SWAP1 SLOAD SWAP1 PUSH2 0x100 EXP SWAP1 DIV PUSH8 0xFFFFFFFFFFFFFFFF AND PUSH8 0xFFFFFFFFFFFFFFFF AND PUSH8 0xFFFFFFFFFFFFFFFF AND DUP2 MSTORE PUSH1 0x20 ADD SWAP1 DUP2 MSTORE PUSH1 0x20 ADD PUSH0 KECCAK256 PUSH0 DUP3 ADD MLOAD DUP2 PUSH0 ADD PUSH0 PUSH2 0x100 EXP DUP2 SLOAD DUP2 PUSH20 0xFFFFFFFFFFFFFFFFFFFFFFFFFFFFFFFFFFFFFFFF MUL NOT AND SWAP1 DUP4 PUSH20 0xFFFFFFFFFFFFFFFFFFFFFFFFFFFFFFFFFFFFFFFF AND MUL OR SWAP1 SSTORE POP PUSH1 0x20 DUP3 ADD MLOAD DUP2 PUSH0 ADD PUSH1 0x14 PUSH2 0x100 EXP DUP2 SLOAD DUP2 PUSH12 0xFFFFFFFFFFFFFFFFFFFFFFFF MUL NOT AND SWAP1 DUP4 PUSH12 0xFFFFFFFFFFFFFFFFFFFFFFFF AND MUL OR SWAP1 SSTORE POP SWAP1 POP POP PUSH0 DUP1 SLOAD SWAP1 PUSH2 0x100 EXP SWAP1 DIV PUSH8 0xFFFFFFFFFFFFFFFF AND PUSH8 0xFFFFFFFFFFFFFFFF AND PUSH32 0x464722B4166576D3DCBBA877B999BC35CF911F4EAF434B7EBA68FA113951D0BF CALLER PUSH1 0x40 MLOAD PUSH2 0x1474 SWAP2 SWAP1 PUSH2 0x2936 JUMP JUMPDEST PUSH1 0x40 MLOAD DUP1 SWAP2 SUB SWAP1 LOG2 PUSH0 DUP1 SLOAD SWAP1 PUSH2 0x100 EXP SWAP1 DIV PUSH8 0xFFFFFFFFFFFFFFFF AND SWAP1 POP SWAP1 JUMP JUMPDEST PUSH32 0x0 DUP2 JUMP JUMPDEST PUSH0 DUP1 PUSH0 PUSH1 0x60 PUSH0 PUSH20 0xFFFFFFFFFFFFFFFFFFFFFFFFFFFFFFFFFFFFFFFF AND PUSH1 0x3 PUSH0 DUP8 PUSH8 0xFFFFFFFFFFFFFFFF AND PUSH8 0xFFFFFFFFFFFFFFFF AND DUP2 MSTORE PUSH1 0x20 ADD SWAP1 DUP2 MSTORE PUSH1 0x20 ADD PUSH0 KECCAK256 PUSH0 ADD PUSH0 SWAP1 SLOAD SWAP1 PUSH2 0x100 EXP SWAP1 DIV PUSH20 0xFFFFFFFFFFFFFFFFFFFFFFFFFFFFFFFFFFFFFFFF AND PUSH20 0xFFFFFFFFFFFFFFFFFFFFFFFFFFFFFFFFFFFFFFFF AND SUB PUSH2 0x1569 JUMPI PUSH1 0x40 MLOAD PUSH32 0x1F6A65B600000000000000000000000000000000000000000000000000000000 DUP2 MSTORE PUSH1 0x4 ADD PUSH1 0x40 MLOAD DUP1 SWAP2 SUB SWAP1 REVERT JUMPDEST PUSH1 0x3 PUSH0 DUP7 PUSH8 0xFFFFFFFFFFFFFFFF AND PUSH8 0xFFFFFFFFFFFFFFFF AND DUP2 MSTORE PUSH1 0x20 ADD SWAP1 DUP2 MSTORE PUSH1 0x20 ADD PUSH0 KECCAK256 PUSH0 ADD PUSH1 0x14 SWAP1 SLOAD SWAP1 PUSH2 0x100 EXP SWAP1 DIV PUSH12 0xFFFFFFFFFFFFFFFFFFFFFFFF AND PUSH0 PUSH1 0x3 PUSH0 DUP9 PUSH8 0xFFFFFFFFFFFFFFFF AND PUSH8 0xFFFFFFFFFFFFFFFF AND DUP2 MSTORE PUSH1 0x20 ADD SWAP1 DUP2 MSTORE PUSH1 0x20 ADD PUSH0 KECCAK256 PUSH0 ADD PUSH0 SWAP1 SLOAD SWAP1 PUSH2 0x100 EXP SWAP1 DIV PUSH20 0xFFFFFFFFFFFFFFFFFFFFFFFFFFFFFFFFFFFFFFFF AND PUSH1 0x4 PUSH0 DUP10 PUSH8 0xFFFFFFFFFFFFFFFF AND PUSH8 0xFFFFFFFFFFFFFFFF AND DUP2 MSTORE PUSH1 0x20 ADD SWAP1 DUP2 MSTORE PUSH1 0x20 ADD PUSH0 KECCAK256 DUP1 DUP1 SLOAD DUP1 PUSH1 0x20 MUL PUSH1 0x20 ADD PUSH1 0x40 MLOAD SWAP1 DUP2 ADD PUSH1 0x40 MSTORE DUP1 SWAP3 SWAP2 SWAP1 DUP2 DUP2 MSTORE PUSH1 0x20 ADD DUP3 DUP1 SLOAD DUP1 ISZERO PUSH2 0x1694 JUMPI PUSH1 0x20 MUL DUP3 ADD SWAP2 SWAP1 PUSH0 MSTORE PUSH1 0x20 PUSH0 KECCAK256 SWAP1 JUMPDEST DUP2 PUSH0 SWAP1 SLOAD SWAP1 PUSH2 0x100 EXP SWAP1 DIV PUSH20 0xFFFFFFFFFFFFFFFFFFFFFFFFFFFFFFFFFFFFFFFF AND PUSH20 0xFFFFFFFFFFFFFFFFFFFFFFFFFFFFFFFFFFFFFFFF AND DUP2 MSTORE PUSH1 0x20 ADD SWAP1 PUSH1 0x1 ADD SWAP1 DUP1 DUP4 GT PUSH2 0x164B JUMPI JUMPDEST POP POP POP POP POP SWAP1 POP SWAP4 POP SWAP4 POP SWAP4 POP SWAP4 POP SWAP2 SWAP4 POP SWAP2 SWAP4 JUMP JUMPDEST PUSH0 PUSH20 0xFFFFFFFFFFFFFFFFFFFFFFFFFFFFFFFFFFFFFFFF AND PUSH1 0x3 PUSH0 DUP5 PUSH8 0xFFFFFFFFFFFFFFFF AND PUSH8 0xFFFFFFFFFFFFFFFF AND DUP2 MSTORE PUSH1 0x20 ADD SWAP1 DUP2 MSTORE PUSH1 0x20 ADD PUSH0 KECCAK256 PUSH0 ADD PUSH0 SWAP1 SLOAD SWAP1 PUSH2 0x100 EXP SWAP1 DIV PUSH20 0xFFFFFFFFFFFFFFFFFFFFFFFFFFFFFFFFFFFFFFFF AND PUSH20 0xFFFFFFFFFFFFFFFFFFFFFFFFFFFFFFFFFFFFFFFF AND SUB PUSH2 0x1755 JUMPI PUSH1 0x40 MLOAD PUSH32 0x1F6A65B600000000000000000000000000000000000000000000000000000000 DUP2 MSTORE PUSH1 0x4 ADD PUSH1 0x40 MLOAD DUP1 SWAP2 SUB SWAP1 REVERT JUMPDEST PUSH0 PUSH1 0x3 PUSH0 DUP5 PUSH8 0xFFFFFFFFFFFFFFFF AND PUSH8 0xFFFFFFFFFFFFFFFF AND DUP2 MSTORE PUSH1 0x20 ADD SWAP1 DUP2 MSTORE PUSH1 0x20 ADD PUSH0 KECCAK256 PUSH0 ADD PUSH1 0x14 SWAP1 SLOAD SWAP1 PUSH2 0x100 EXP SWAP1 DIV PUSH12 0xFFFFFFFFFFFFFFFFFFFFFFFF AND SWAP1 POP DUP2 PUSH1 0x3 PUSH0 DUP6 PUSH8 0xFFFFFFFFFFFFFFFF AND PUSH8 0xFFFFFFFFFFFFFFFF AND DUP2 MSTORE PUSH1 0x20 ADD SWAP1 DUP2 MSTORE PUSH1 0x20 ADD PUSH0 KECCAK256 PUSH0 ADD PUSH1 0x14 DUP3 DUP3 DUP3 SWAP1 SLOAD SWAP1 PUSH2 0x100 EXP SWAP1 DIV PUSH12 0xFFFFFFFFFFFFFFFFFFFFFFFF AND PUSH2 0x17E6 SWAP2 SWAP1 PUSH2 0x29AB JUMP JUMPDEST SWAP3 POP PUSH2 0x100 EXP DUP2 SLOAD DUP2 PUSH12 0xFFFFFFFFFFFFFFFFFFFFFFFF MUL NOT AND SWAP1 DUP4 PUSH12 0xFFFFFFFFFFFFFFFFFFFFFFFF AND MUL OR SWAP1 SSTORE POP DUP3 PUSH8 0xFFFFFFFFFFFFFFFF AND PUSH32 0xD39EC07F4E209F627A4C427971473820DC129761BA28DE8906BD56F57101D4F8 DUP3 DUP5 DUP5 PUSH2 0x184D SWAP2 SWAP1 PUSH2 0x29AB JUMP JUMPDEST PUSH1 0x40 MLOAD PUSH2 0x185B SWAP3 SWAP2 SWAP1 PUSH2 0x2A23 JUMP JUMPDEST PUSH1 0x40 MLOAD DUP1 SWAP2 SUB SWAP1 LOG2 POP POP POP JUMP JUMPDEST PUSH0 DUP1 PUSH0 DUP1 PUSH1 0x4 PUSH3 0x2625A0 PUSH2 0xA8C PUSH2 0x8205 SWAP4 POP SWAP4 POP SWAP4 POP SWAP4 POP SWAP1 SWAP2 SWAP3 SWAP4 JUMP JUMPDEST DUP2 PUSH0 PUSH1 0x3 PUSH0 DUP4 PUSH8 0xFFFFFFFFFFFFFFFF AND PUSH8 0xFFFFFFFFFFFFFFFF AND DUP2 MSTORE PUSH1 0x20 ADD SWAP1 DUP2 MSTORE PUSH1 0x20 ADD PUSH0 KECCAK256 PUSH0 ADD PUSH0 SWAP1 SLOAD SWAP1 PUSH2 0x100 EXP SWAP1 DIV PUSH20 0xFFFFFFFFFFFFFFFFFFFFFFFFFFFFFFFFFFFFFFFF AND SWAP1 POP PUSH0 PUSH20 0xFFFFFFFFFFFFFFFFFFFFFFFFFFFFFFFFFFFFFFFF AND DUP2 PUSH20 0xFFFFFFFFFFFFFFFFFFFFFFFFFFFFFFFFFFFFFFFF AND SUB PUSH2 0x1936 JUMPI PUSH1 0x40 MLOAD PUSH32 0x1F6A65B600000000000000000000000000000000000000000000000000000000 DUP2 MSTORE PUSH1 0x4 ADD PUSH1 0x40 MLOAD DUP1 SWAP2 SUB SWAP1 REVERT JUMPDEST DUP1 PUSH20 0xFFFFFFFFFFFFFFFFFFFFFFFFFFFFFFFFFFFFFFFF AND CALLER PUSH20 0xFFFFFFFFFFFFFFFFFFFFFFFFFFFFFFFFFFFFFFFF AND EQ PUSH2 0x19A6 JUMPI DUP1 PUSH1 0x40 MLOAD PUSH32 0xD8A3FB5200000000000000000000000000000000000000000000000000000000 DUP2 MSTORE PUSH1 0x4 ADD PUSH2 0x199D SWAP2 SWAP1 PUSH2 0x2936 JUMP JUMPDEST PUSH1 0x40 MLOAD DUP1 SWAP2 SUB SWAP1 REVERT JUMPDEST DUP4 PUSH8 0xFFFFFFFFFFFFFFFF AND PUSH32 0xE8ED5B475A5B5987AA9165E8731BB78043F39EEE32EC5A1169A89E27FCD49815 DUP5 PUSH1 0x3 PUSH0 DUP9 PUSH8 0xFFFFFFFFFFFFFFFF AND PUSH8 0xFFFFFFFFFFFFFFFF AND DUP2 MSTORE PUSH1 0x20 ADD SWAP1 DUP2 MSTORE PUSH1 0x20 ADD PUSH0 KECCAK256 PUSH0 ADD PUSH1 0x14 SWAP1 SLOAD SWAP1 PUSH2 0x100 EXP SWAP1 DIV PUSH12 0xFFFFFFFFFFFFFFFFFFFFFFFF AND PUSH1 0x40 MLOAD PUSH2 0x1A21 SWAP3 SWAP2 SWAP1 PUSH2 0x2A4A JUMP JUMPDEST PUSH1 0x40 MLOAD DUP1 SWAP2 SUB SWAP1 LOG2 PUSH1 0x3 PUSH0 DUP6 PUSH8 0xFFFFFFFFFFFFFFFF AND PUSH8 0xFFFFFFFFFFFFFFFF AND DUP2 MSTORE PUSH1 0x20 ADD SWAP1 DUP2 MSTORE PUSH1 0x20 ADD PUSH0 KECCAK256 PUSH0 DUP1 DUP3 ADD PUSH0 PUSH2 0x100 EXP DUP2 SLOAD SWAP1 PUSH20 0xFFFFFFFFFFFFFFFFFFFFFFFFFFFFFFFFFFFFFFFF MUL NOT AND SWAP1 SSTORE PUSH0 DUP3 ADD PUSH1 0x14 PUSH2 0x100 EXP DUP2 SLOAD SWAP1 PUSH12 0xFFFFFFFFFFFFFFFFFFFFFFFF MUL NOT AND SWAP1 SSTORE POP POP POP POP POP POP JUMP JUMPDEST PUSH0 PUSH1 0x40 MLOAD PUSH32 0x8C379A000000000000000000000000000000000000000000000000000000000 DUP2 MSTORE PUSH1 0x4 ADD PUSH2 0x1ACD SWAP1 PUSH2 0x252F JUMP JUMPDEST PUSH1 0x40 MLOAD DUP1 SWAP2 SUB SWAP1 REVERT JUMPDEST PUSH0 DUP1 PUSH1 0x4 PUSH0 DUP6 PUSH8 0xFFFFFFFFFFFFFFFF AND PUSH8 0xFFFFFFFFFFFFFFFF AND DUP2 MSTORE PUSH1 0x20 ADD SWAP1 DUP2 MSTORE PUSH1 0x20 ADD PUSH0 KECCAK256 DUP1 SLOAD DUP1 PUSH1 0x20 MUL PUSH1 0x20 ADD PUSH1 0x40 MLOAD SWAP1 DUP2 ADD PUSH1 0x40 MSTORE DUP1 SWAP3 SWAP2 SWAP1 DUP2 DUP2 MSTORE PUSH1 0x20 ADD DUP3 DUP1 SLOAD DUP1 ISZERO PUSH2 0x1B7A JUMPI PUSH1 0x20 MUL DUP3 ADD SWAP2 SWAP1 PUSH0 MSTORE PUSH1 0x20 PUSH0 KECCAK256 SWAP1 JUMPDEST DUP2 PUSH0 SWAP1 SLOAD SWAP1 PUSH2 0x100 EXP SWAP1 DIV PUSH20 0xFFFFFFFFFFFFFFFFFFFFFFFFFFFFFFFFFFFFFFFF AND PUSH20 0xFFFFFFFFFFFFFFFFFFFFFFFFFFFFFFFFFFFFFFFF AND DUP2 MSTORE PUSH1 0x20 ADD SWAP1 PUSH1 0x1 ADD SWAP1 DUP1 DUP4 GT PUSH2 0x1B31 JUMPI JUMPDEST POP POP POP POP POP SWAP1 POP PUSH0 JUMPDEST DUP2 MLOAD DUP2 LT ISZERO PUSH2 0x1BF1 JUMPI DUP4 PUSH20 0xFFFFFFFFFFFFFFFFFFFFFFFFFFFFFFFFFFFFFFFF AND DUP3 DUP3 DUP2 MLOAD DUP2 LT PUSH2 0x1BB6 JUMPI PUSH2 0x1BB5 PUSH2 0x25DC JUMP JUMPDEST JUMPDEST PUSH1 0x20 MUL PUSH1 0x20 ADD ADD MLOAD PUSH20 0xFFFFFFFFFFFFFFFFFFFFFFFFFFFFFFFFFFFFFFFF AND SUB PUSH2 0x1BE4 JUMPI PUSH1 0x1 SWAP3 POP POP POP PUSH2 0x1BF7 JUMP JUMPDEST DUP1 DUP1 PUSH1 0x1 ADD SWAP2 POP POP PUSH2 0x1B83 JUMP JUMPDEST POP PUSH0 SWAP2 POP POP JUMPDEST SWAP3 SWAP2 POP POP JUMP JUMPDEST PUSH0 PUSH2 0xFFFF DUP3 AND SWAP1 POP SWAP2 SWAP1 POP JUMP JUMPDEST PUSH2 0x1C13 DUP2 PUSH2 0x1BFD JUMP JUMPDEST DUP3 MSTORE POP POP JUMP JUMPDEST PUSH0 PUSH4 0xFFFFFFFF DUP3 AND SWAP1 POP SWAP2 SWAP1 POP JUMP JUMPDEST PUSH2 0x1C31 DUP2 PUSH2 0x1C19 JUMP JUMPDEST DUP3 MSTORE POP POP JUMP JUMPDEST PUSH0 DUP2 MLOAD SWAP1 POP SWAP2 SWAP1 POP JUMP JUMPDEST PUSH0 DUP3 DUP3 MSTORE PUSH1 0x20 DUP3 ADD SWAP1 POP SWAP3 SWAP2 POP POP JUMP JUMPDEST PUSH0 DUP2 SWAP1 POP PUSH1 0x20 DUP3 ADD SWAP1 POP SWAP2 SWAP1 POP JUMP JUMPDEST PUSH0 DUP2 SWAP1 POP SWAP2 SWAP1 POP JUMP JUMPDEST PUSH2 0x1C72 DUP2 PUSH2 0x1C60 JUMP JUMPDEST DUP3 MSTORE POP POP JUMP JUMPDEST PUSH0 PUSH2 0x1C83 DUP4 DUP4 PUSH2 0x1C69 JUMP JUMPDEST PUSH1 0x20 DUP4 ADD SWAP1 POP SWAP3 SWAP2 POP POP JUMP JUMPDEST PUSH0 PUSH1 0x20 DUP3 ADD SWAP1 POP SWAP2 SWAP1 POP JUMP JUMPDEST PUSH0 PUSH2 0x1CA5 DUP3 PUSH2 0x1C37 JUMP JUMPDEST PUSH2 0x1CAF DUP2 DUP6 PUSH2 0x1C41 JUMP JUMPDEST SWAP4 POP PUSH2 0x1CBA DUP4 PUSH2 0x1C51 JUMP JUMPDEST DUP1 PUSH0 JUMPDEST DUP4 DUP2 LT ISZERO PUSH2 0x1CEA JUMPI DUP2 MLOAD PUSH2 0x1CD1 DUP9 DUP3 PUSH2 0x1C78 JUMP JUMPDEST SWAP8 POP PUSH2 0x1CDC DUP4 PUSH2 0x1C8F JUMP JUMPDEST SWAP3 POP POP PUSH1 0x1 DUP2 ADD SWAP1 POP PUSH2 0x1CBD JUMP JUMPDEST POP DUP6 SWAP4 POP POP POP POP SWAP3 SWAP2 POP POP JUMP JUMPDEST PUSH0 PUSH1 0x60 DUP3 ADD SWAP1 POP PUSH2 0x1D0A PUSH0 DUP4 ADD DUP7 PUSH2 0x1C0A JUMP JUMPDEST PUSH2 0x1D17 PUSH1 0x20 DUP4 ADD DUP6 PUSH2 0x1C28 JUMP JUMPDEST DUP2 DUP2 SUB PUSH1 0x40 DUP4 ADD MSTORE PUSH2 0x1D29 DUP2 DUP5 PUSH2 0x1C9B JUMP JUMPDEST SWAP1 POP SWAP5 SWAP4 POP POP POP POP JUMP JUMPDEST PUSH0 PUSH1 0x40 MLOAD SWAP1 POP SWAP1 JUMP JUMPDEST PUSH0 DUP1 REVERT JUMPDEST PUSH0 DUP1 REVERT JUMPDEST PUSH0 PUSH8 0xFFFFFFFFFFFFFFFF DUP3 AND SWAP1 POP SWAP2 SWAP1 POP JUMP JUMPDEST PUSH2 0x1D60 DUP2 PUSH2 0x1D44 JUMP JUMPDEST DUP2 EQ PUSH2 0x1D6A JUMPI PUSH0 DUP1 REVERT JUMPDEST POP JUMP JUMPDEST PUSH0 DUP2 CALLDATALOAD SWAP1 POP PUSH2 0x1D7B DUP2 PUSH2 0x1D57 JUMP JUMPDEST SWAP3 SWAP2 POP POP JUMP JUMPDEST PUSH0 PUSH20 0xFFFFFFFFFFFFFFFFFFFFFFFFFFFFFFFFFFFFFFFF DUP3 AND SWAP1 POP SWAP2 SWAP1 POP JUMP JUMPDEST PUSH0 PUSH2 0x1DAA DUP3 PUSH2 0x1D81 JUMP JUMPDEST SWAP1 POP SWAP2 SWAP1 POP JUMP JUMPDEST PUSH2 0x1DBA DUP2 PUSH2 0x1DA0 JUMP JUMPDEST DUP2 EQ PUSH2 0x1DC4 JUMPI PUSH0 DUP1 REVERT JUMPDEST POP JUMP JUMPDEST PUSH0 DUP2 CALLDATALOAD SWAP1 POP PUSH2 0x1DD5 DUP2 PUSH2 0x1DB1 JUMP JUMPDEST SWAP3 SWAP2 POP POP JUMP JUMPDEST PUSH0 DUP1 PUSH1 0x40 DUP4 DUP6 SUB SLT ISZERO PUSH2 0x1DF1 JUMPI PUSH2 0x1DF0 PUSH2 0x1D3C JUMP JUMPDEST JUMPDEST PUSH0 PUSH2 0x1DFE DUP6 DUP3 DUP7 ADD PUSH2 0x1D6D JUMP JUMPDEST SWAP3 POP POP PUSH1 0x20 PUSH2 0x1E0F DUP6 DUP3 DUP7 ADD PUSH2 0x1DC7 JUMP JUMPDEST SWAP2 POP POP SWAP3 POP SWAP3 SWAP1 POP JUMP JUMPDEST PUSH0 DUP2 SWAP1 POP SWAP2 SWAP1 POP JUMP JUMPDEST PUSH2 0x1E2B DUP2 PUSH2 0x1E19 JUMP JUMPDEST DUP2 EQ PUSH2 0x1E35 JUMPI PUSH0 DUP1 REVERT JUMPDEST POP JUMP JUMPDEST PUSH0 DUP2 CALLDATALOAD SWAP1 POP PUSH2 0x1E46 DUP2 PUSH2 0x1E22 JUMP JUMPDEST SWAP3 SWAP2 POP POP JUMP JUMPDEST PUSH0 DUP1 REVERT JUMPDEST PUSH0 PUSH1 0x1F NOT PUSH1 0x1F DUP4 ADD AND SWAP1 POP SWAP2 SWAP1 POP JUMP JUMPDEST PUSH32 0x4E487B7100000000000000000000000000000000000000000000000000000000 PUSH0 MSTORE PUSH1 0x41 PUSH1 0x4 MSTORE PUSH1 0x24 PUSH0 REVERT JUMPDEST PUSH2 0x1E96 DUP3 PUSH2 0x1E50 JUMP JUMPDEST DUP2 ADD DUP2 DUP2 LT PUSH8 0xFFFFFFFFFFFFFFFF DUP3 GT OR ISZERO PUSH2 0x1EB5 JUMPI PUSH2 0x1EB4 PUSH2 0x1E60 JUMP JUMPDEST JUMPDEST DUP1 PUSH1 0x40 MSTORE POP POP POP JUMP JUMPDEST PUSH0 PUSH2 0x1EC7 PUSH2 0x1D33 JUMP JUMPDEST SWAP1 POP PUSH2 0x1ED3 DUP3 DUP3 PUSH2 0x1E8D JUMP JUMPDEST SWAP2 SWAP1 POP JUMP JUMPDEST PUSH0 PUSH8 0xFFFFFFFFFFFFFFFF DUP3 GT ISZERO PUSH2 0x1EF2 JUMPI PUSH2 0x1EF1 PUSH2 0x1E60 JUMP JUMPDEST JUMPDEST PUSH1 0x20 DUP3 MUL SWAP1 POP PUSH1 0x20 DUP2 ADD SWAP1 POP SWAP2 SWAP1 POP JUMP JUMPDEST PUSH0 DUP1 REVERT JUMPDEST PUSH0 PUSH2 0x1F19 PUSH2 0x1F14 DUP5 PUSH2 0x1ED8 JUMP JUMPDEST PUSH2 0x1EBE JUMP JUMPDEST SWAP1 POP DUP1 DUP4 DUP3 MSTORE PUSH1 0x20 DUP3 ADD SWAP1 POP PUSH1 0x20 DUP5 MUL DUP4 ADD DUP6 DUP2 GT ISZERO PUSH2 0x1F3C JUMPI PUSH2 0x1F3B PUSH2 0x1F03 JUMP JUMPDEST JUMPDEST DUP4 JUMPDEST DUP2 DUP2 LT ISZERO PUSH2 0x1F65 JUMPI DUP1 PUSH2 0x1F51 DUP9 DUP3 PUSH2 0x1E38 JUMP JUMPDEST DUP5 MSTORE PUSH1 0x20 DUP5 ADD SWAP4 POP POP PUSH1 0x20 DUP2 ADD SWAP1 POP PUSH2 0x1F3E JUMP JUMPDEST POP POP POP SWAP4 SWAP3 POP POP POP JUMP JUMPDEST PUSH0 DUP3 PUSH1 0x1F DUP4 ADD SLT PUSH2 0x1F83 JUMPI PUSH2 0x1F82 PUSH2 0x1E4C JUMP JUMPDEST JUMPDEST DUP2 CALLDATALOAD PUSH2 0x1F93 DUP5 DUP3 PUSH1 0x20 DUP7 ADD PUSH2 0x1F07 JUMP JUMPDEST SWAP2 POP POP SWAP3 SWAP2 POP POP JUMP JUMPDEST PUSH0 DUP1 PUSH0 PUSH1 0x60 DUP5 DUP7 SUB SLT ISZERO PUSH2 0x1FB3 JUMPI PUSH2 0x1FB2 PUSH2 0x1D3C JUMP JUMPDEST JUMPDEST PUSH0 PUSH2 0x1FC0 DUP7 DUP3 DUP8 ADD PUSH2 0x1E38 JUMP JUMPDEST SWAP4 POP POP PUSH1 0x20 PUSH2 0x1FD1 DUP7 DUP3 DUP8 ADD PUSH2 0x1DC7 JUMP JUMPDEST SWAP3 POP POP PUSH1 0x40 DUP5 ADD CALLDATALOAD PUSH8 0xFFFFFFFFFFFFFFFF DUP2 GT ISZERO PUSH2 0x1FF2 JUMPI PUSH2 0x1FF1 PUSH2 0x1D40 JUMP JUMPDEST JUMPDEST PUSH2 0x1FFE DUP7 DUP3 DUP8 ADD PUSH2 0x1F6F JUMP JUMPDEST SWAP2 POP POP SWAP3 POP SWAP3 POP SWAP3 JUMP JUMPDEST PUSH0 DUP2 SWAP1 POP SWAP2 SWAP1 POP JUMP JUMPDEST PUSH2 0x201A DUP2 PUSH2 0x2008 JUMP JUMPDEST DUP3 MSTORE POP POP JUMP JUMPDEST PUSH0 PUSH1 0x20 DUP3 ADD SWAP1 POP PUSH2 0x2033 PUSH0 DUP4 ADD DUP5 PUSH2 0x2011 JUMP JUMPDEST SWAP3 SWAP2 POP POP JUMP JUMPDEST PUSH0 PUSH12 0xFFFFFFFFFFFFFFFFFFFFFFFF DUP3 AND SWAP1 POP SWAP2 SWAP1 POP JUMP JUMPDEST PUSH2 0x2059 DUP2 PUSH2 0x2039 JUMP JUMPDEST DUP3 MSTORE POP POP JUMP JUMPDEST PUSH0 PUSH1 0x20 DUP3 ADD SWAP1 POP PUSH2 0x2072 PUSH0 DUP4 ADD DUP5 PUSH2 0x2050 JUMP JUMPDEST SWAP3 SWAP2 POP POP JUMP JUMPDEST PUSH2 0x2081 DUP2 PUSH2 0x1C60 JUMP JUMPDEST DUP2 EQ PUSH2 0x208B JUMPI PUSH0 DUP1 REVERT JUMPDEST POP JUMP JUMPDEST PUSH0 DUP2 CALLDATALOAD SWAP1 POP PUSH2 0x209C DUP2 PUSH2 0x2078 JUMP JUMPDEST SWAP3 SWAP2 POP POP JUMP JUMPDEST PUSH2 0x20AB DUP2 PUSH2 0x1BFD JUMP JUMPDEST DUP2 EQ PUSH2 0x20B5 JUMPI PUSH0 DUP1 REVERT JUMPDEST POP JUMP JUMPDEST PUSH0 DUP2 CALLDATALOAD SWAP1 POP PUSH2 0x20C6 DUP2 PUSH2 0x20A2 JUMP JUMPDEST SWAP3 SWAP2 POP POP JUMP JUMPDEST PUSH2 0x20D5 DUP2 PUSH2 0x1C19 JUMP JUMPDEST DUP2 EQ PUSH2 0x20DF JUMPI PUSH0 DUP1 REVERT JUMPDEST POP JUMP JUMPDEST PUSH0 DUP2 CALLDATALOAD SWAP1 POP PUSH2 0x20F0 DUP2 PUSH2 0x20CC JUMP JUMPDEST SWAP3 SWAP2 POP POP JUMP JUMPDEST PUSH0 DUP1 PUSH0 DUP1 PUSH0 PUSH1 0xA0 DUP7 DUP9 SUB SLT ISZERO PUSH2 0x210F JUMPI PUSH2 0x210E PUSH2 0x1D3C JUMP JUMPDEST JUMPDEST PUSH0 PUSH2 0x211C DUP9 DUP3 DUP10 ADD PUSH2 0x208E JUMP JUMPDEST SWAP6 POP POP PUSH1 0x20 PUSH2 0x212D DUP9 DUP3 DUP10 ADD PUSH2 0x1D6D JUMP JUMPDEST SWAP5 POP POP PUSH1 0x40 PUSH2 0x213E DUP9 DUP3 DUP10 ADD PUSH2 0x20B8 JUMP JUMPDEST SWAP4 POP POP PUSH1 0x60 PUSH2 0x214F DUP9 DUP3 DUP10 ADD PUSH2 0x20E2 JUMP JUMPDEST SWAP3 POP POP PUSH1 0x80 PUSH2 0x2160 DUP9 DUP3 DUP10 ADD PUSH2 0x20E2 JUMP JUMPDEST SWAP2 POP POP SWAP3 SWAP6 POP SWAP3 SWAP6 SWAP1 SWAP4 POP JUMP JUMPDEST PUSH2 0x2176 DUP2 PUSH2 0x1E19 JUMP JUMPDEST DUP3 MSTORE POP POP JUMP JUMPDEST PUSH0 PUSH1 0x20 DUP3 ADD SWAP1 POP PUSH2 0x218F PUSH0 DUP4 ADD DUP5 PUSH2 0x216D JUMP JUMPDEST SWAP3 SWAP2 POP POP JUMP JUMPDEST PUSH0 PUSH3 0xFFFFFF DUP3 AND SWAP1 POP SWAP2 SWAP1 POP JUMP JUMPDEST PUSH2 0x21AC DUP2 PUSH2 0x2195 JUMP JUMPDEST DUP3 MSTORE POP POP JUMP JUMPDEST PUSH0 PUSH2 0x120 DUP3 ADD SWAP1 POP PUSH2 0x21C6 PUSH0 DUP4 ADD DUP13 PUSH2 0x1C28 JUMP JUMPDEST PUSH2 0x21D3 PUSH1 0x20 DUP4 ADD DUP12 PUSH2 0x1C28 JUMP JUMPDEST PUSH2 0x21E0 PUSH1 0x40 DUP4 ADD DUP11 PUSH2 0x1C28 JUMP JUMPDEST PUSH2 0x21ED PUSH1 0x60 DUP4 ADD DUP10 PUSH2 0x1C28 JUMP JUMPDEST PUSH2 0x21FA PUSH1 0x80 DUP4 ADD DUP9 PUSH2 0x1C28 JUMP JUMPDEST PUSH2 0x2207 PUSH1 0xA0 DUP4 ADD DUP8 PUSH2 0x21A3 JUMP JUMPDEST PUSH2 0x2214 PUSH1 0xC0 DUP4 ADD DUP7 PUSH2 0x21A3 JUMP JUMPDEST PUSH2 0x2221 PUSH1 0xE0 DUP4 ADD DUP6 PUSH2 0x21A3 JUMP JUMPDEST PUSH2 0x222F PUSH2 0x100 DUP4 ADD DUP5 PUSH2 0x21A3 JUMP JUMPDEST SWAP11 SWAP10 POP POP POP POP POP POP POP POP POP POP JUMP JUMPDEST PUSH0 PUSH1 0x20 DUP3 ADD SWAP1 POP PUSH2 0x2250 PUSH0 DUP4 ADD DUP5 PUSH2 0x1C0A JUMP JUMPDEST SWAP3 SWAP2 POP POP JUMP JUMPDEST PUSH0 DUP1 PUSH1 0x40 DUP4 DUP6 SUB SLT ISZERO PUSH2 0x226C JUMPI PUSH2 0x226B PUSH2 0x1D3C JUMP JUMPDEST JUMPDEST PUSH0 PUSH2 0x2279 DUP6 DUP3 DUP7 ADD PUSH2 0x1E38 JUMP JUMPDEST SWAP3 POP POP PUSH1 0x20 PUSH2 0x228A DUP6 DUP3 DUP7 ADD PUSH2 0x1DC7 JUMP JUMPDEST SWAP2 POP POP SWAP3 POP SWAP3 SWAP1 POP JUMP JUMPDEST PUSH0 PUSH1 0x20 DUP3 DUP5 SUB SLT ISZERO PUSH2 0x22A9 JUMPI PUSH2 0x22A8 PUSH2 0x1D3C JUMP JUMPDEST JUMPDEST PUSH0 PUSH2 0x22B6 DUP5 DUP3 DUP6 ADD PUSH2 0x1D6D JUMP JUMPDEST SWAP2 POP POP SWAP3 SWAP2 POP POP JUMP JUMPDEST PUSH2 0x22C8 DUP2 PUSH2 0x1D44 JUMP JUMPDEST DUP3 MSTORE POP POP JUMP JUMPDEST PUSH0 PUSH1 0x20 DUP3 ADD SWAP1 POP PUSH2 0x22E1 PUSH0 DUP4 ADD DUP5 PUSH2 0x22BF JUMP JUMPDEST SWAP3 SWAP2 POP POP JUMP JUMPDEST PUSH2 0x22F0 DUP2 PUSH2 0x1DA0 JUMP JUMPDEST DUP3 MSTORE POP POP JUMP JUMPDEST PUSH0 DUP2 MLOAD SWAP1 POP SWAP2 SWAP1 POP JUMP JUMPDEST PUSH0 DUP3 DUP3 MSTORE PUSH1 0x20 DUP3 ADD SWAP1 POP SWAP3 SWAP2 POP POP JUMP JUMPDEST PUSH0 DUP2 SWAP1 POP PUSH1 0x20 DUP3 ADD SWAP1 POP SWAP2 SWAP1 POP JUMP JUMPDEST PUSH2 0x2328 DUP2 PUSH2 0x1DA0 JUMP JUMPDEST DUP3 MSTORE POP POP JUMP JUMPDEST PUSH0 PUSH2 0x2339 DUP4 DUP4 PUSH2 0x231F JUMP JUMPDEST PUSH1 0x20 DUP4 ADD SWAP1 POP SWAP3 SWAP2 POP POP JUMP JUMPDEST PUSH0 PUSH1 0x20 DUP3 ADD SWAP1 POP SWAP2 SWAP1 POP JUMP JUMPDEST PUSH0 PUSH2 0x235B DUP3 PUSH2 0x22F6 JUMP JUMPDEST PUSH2 0x2365 DUP2 DUP6 PUSH2 0x2300 JUMP JUMPDEST SWAP4 POP PUSH2 0x2370 DUP4 PUSH2 0x2310 JUMP JUMPDEST DUP1 PUSH0 JUMPDEST DUP4 DUP2 LT ISZERO PUSH2 0x23A0 JUMPI DUP2 MLOAD PUSH2 0x2387 DUP9 DUP3 PUSH2 0x232E JUMP JUMPDEST SWAP8 POP PUSH2 0x2392 DUP4 PUSH2 0x2345 JUMP JUMPDEST SWAP3 POP POP PUSH1 0x1 DUP2 ADD SWAP1 POP PUSH2 0x2373 JUMP JUMPDEST POP DUP6 SWAP4 POP POP POP POP SWAP3 SWAP2 POP POP JUMP JUMPDEST PUSH0 PUSH1 0x80 DUP3 ADD SWAP1 POP PUSH2 0x23C0 PUSH0 DUP4 ADD DUP8 PUSH2 0x2050 JUMP JUMPDEST PUSH2 0x23CD PUSH1 0x20 DUP4 ADD DUP7 PUSH2 0x22BF JUMP JUMPDEST PUSH2 0x23DA PUSH1 0x40 DUP4 ADD DUP6 PUSH2 0x22E7 JUMP JUMPDEST DUP2 DUP2 SUB PUSH1 0x60 DUP4 ADD MSTORE PUSH2 0x23EC DUP2 DUP5 PUSH2 0x2351 JUMP JUMPDEST SWAP1 POP SWAP6 SWAP5 POP POP POP POP POP JUMP JUMPDEST PUSH2 0x2400 DUP2 PUSH2 0x2039 JUMP JUMPDEST DUP2 EQ PUSH2 0x240A JUMPI PUSH0 DUP1 REVERT JUMPDEST POP JUMP JUMPDEST PUSH0 DUP2 CALLDATALOAD SWAP1 POP PUSH2 0x241B DUP2 PUSH2 0x23F7 JUMP JUMPDEST SWAP3 SWAP2 POP POP JUMP JUMPDEST PUSH0 DUP1 PUSH1 0x40 DUP4 DUP6 SUB SLT ISZERO PUSH2 0x2437 JUMPI PUSH2 0x2436 PUSH2 0x1D3C JUMP JUMPDEST JUMPDEST PUSH0 PUSH2 0x2444 DUP6 DUP3 DUP7 ADD PUSH2 0x1D6D JUMP JUMPDEST SWAP3 POP POP PUSH1 0x20 PUSH2 0x2455 DUP6 DUP3 DUP7 ADD PUSH2 0x240D JUMP JUMPDEST SWAP2 POP POP SWAP3 POP SWAP3 SWAP1 POP JUMP JUMPDEST PUSH0 PUSH1 0x80 DUP3 ADD SWAP1 POP PUSH2 0x2472 PUSH0 DUP4 ADD DUP8 PUSH2 0x1C0A JUMP JUMPDEST PUSH2 0x247F PUSH1 0x20 DUP4 ADD DUP7 PUSH2 0x1C28 JUMP JUMPDEST PUSH2 0x248C PUSH1 0x40 DUP4 ADD DUP6 PUSH2 0x1C28 JUMP JUMPDEST PUSH2 0x2499 PUSH1 0x60 DUP4 ADD DUP5 PUSH2 0x1C28 JUMP JUMPDEST SWAP6 SWAP5 POP POP POP POP POP JUMP JUMPDEST PUSH0 DUP2 ISZERO ISZERO SWAP1 POP SWAP2 SWAP1 POP JUMP JUMPDEST PUSH2 0x24B6 DUP2 PUSH2 0x24A2 JUMP JUMPDEST DUP3 MSTORE POP POP JUMP JUMPDEST PUSH0 PUSH1 0x20 DUP3 ADD SWAP1 POP PUSH2 0x24CF PUSH0 DUP4 ADD DUP5 PUSH2 0x24AD JUMP JUMPDEST SWAP3 SWAP2 POP POP JUMP JUMPDEST PUSH0 DUP3 DUP3 MSTORE PUSH1 0x20 DUP3 ADD SWAP1 POP SWAP3 SWAP2 POP POP JUMP JUMPDEST PUSH32 0x6E6F7420696D706C656D656E7465640000000000000000000000000000000000 PUSH0 DUP3 ADD MSTORE POP JUMP JUMPDEST PUSH0 PUSH2 0x2519 PUSH1 0xF DUP4 PUSH2 0x24D5 JUMP JUMPDEST SWAP2 POP PUSH2 0x2524 DUP3 PUSH2 0x24E5 JUMP JUMPDEST PUSH1 0x20 DUP3 ADD SWAP1 POP SWAP2 SWAP1 POP JUMP JUMPDEST PUSH0 PUSH1 0x20 DUP3 ADD SWAP1 POP DUP2 DUP2 SUB PUSH0 DUP4 ADD MSTORE PUSH2 0x2546 DUP2 PUSH2 0x250D JUMP JUMPDEST SWAP1 POP SWAP2 SWAP1 POP JUMP JUMPDEST PUSH32 0x6E6F6E6578697374656E74207265717565737400000000000000000000000000 PUSH0 DUP3 ADD MSTORE POP JUMP JUMPDEST PUSH0 PUSH2 0x2581 PUSH1 0x13 DUP4 PUSH2 0x24D5 JUMP JUMPDEST SWAP2 POP PUSH2 0x258C DUP3 PUSH2 0x254D JUMP JUMPDEST PUSH1 0x20 DUP3 ADD SWAP1 POP SWAP2 SWAP1 POP JUMP JUMPDEST PUSH0 PUSH1 0x20 DUP3 ADD SWAP1 POP DUP2 DUP2 SUB PUSH0 DUP4 ADD MSTORE PUSH2 0x25AE DUP2 PUSH2 0x2575 JUMP JUMPDEST SWAP1 POP SWAP2 SWAP1 POP JUMP JUMPDEST PUSH0 PUSH1 0x40 DUP3 ADD SWAP1 POP PUSH2 0x25C8 PUSH0 DUP4 ADD DUP6 PUSH2 0x216D JUMP JUMPDEST PUSH2 0x25D5 PUSH1 0x20 DUP4 ADD DUP5 PUSH2 0x216D JUMP JUMPDEST SWAP4 SWAP3 POP POP POP JUMP JUMPDEST PUSH32 0x4E487B7100000000000000000000000000000000000000000000000000000000 PUSH0 MSTORE PUSH1 0x32 PUSH1 0x4 MSTORE PUSH1 0x24 PUSH0 REVERT JUMPDEST PUSH0 DUP2 MLOAD SWAP1 POP SWAP2 SWAP1 POP JUMP JUMPDEST PUSH0 DUP3 DUP3 MSTORE PUSH1 0x20 DUP3 ADD SWAP1 POP SWAP3 SWAP2 POP POP JUMP JUMPDEST PUSH0 DUP2 SWAP1 POP PUSH1 0x20 DUP3 ADD SWAP1 POP SWAP2 SWAP1 POP JUMP JUMPDEST PUSH2 0x263B DUP2 PUSH2 0x1E19 JUMP JUMPDEST DUP3 MSTORE POP POP JUMP JUMPDEST PUSH0 PUSH2 0x264C DUP4 DUP4 PUSH2 0x2632 JUMP JUMPDEST PUSH1 0x20 DUP4 ADD SWAP1 POP SWAP3 SWAP2 POP POP JUMP JUMPDEST PUSH0 PUSH1 0x20 DUP3 ADD SWAP1 POP SWAP2 SWAP1 POP JUMP JUMPDEST PUSH0 PUSH2 0x266E DUP3 PUSH2 0x2609 JUMP JUMPDEST PUSH2 0x2678 DUP2 DUP6 PUSH2 0x2613 JUMP JUMPDEST SWAP4 POP PUSH2 0x2683 DUP4 PUSH2 0x2623 JUMP JUMPDEST DUP1 PUSH0 JUMPDEST DUP4 DUP2 LT ISZERO PUSH2 0x26B3 JUMPI DUP2 MLOAD PUSH2 0x269A DUP9 DUP3 PUSH2 0x2641 JUMP JUMPDEST SWAP8 POP PUSH2 0x26A5 DUP4 PUSH2 0x2658 JUMP JUMPDEST SWAP3 POP POP PUSH1 0x1 DUP2 ADD SWAP1 POP PUSH2 0x2686 JUMP JUMPDEST POP DUP6 SWAP4 POP POP POP POP SWAP3 SWAP2 POP POP JUMP JUMPDEST PUSH0 PUSH1 0x40 DUP3 ADD SWAP1 POP PUSH2 0x26D3 PUSH0 DUP4 ADD DUP6 PUSH2 0x216D JUMP JUMPDEST DUP2 DUP2 SUB PUSH1 0x20 DUP4 ADD MSTORE PUSH2 0x26E5 DUP2 DUP5 PUSH2 0x2664 JUMP JUMPDEST SWAP1 POP SWAP4 SWAP3 POP POP POP JUMP JUMPDEST PUSH0 DUP2 MLOAD SWAP1 POP SWAP2 SWAP1 POP JUMP JUMPDEST PUSH0 DUP2 SWAP1 POP SWAP3 SWAP2 POP POP JUMP JUMPDEST DUP3 DUP2 DUP4 MCOPY PUSH0 DUP4 DUP4 ADD MSTORE POP POP POP JUMP JUMPDEST PUSH0 PUSH2 0x271A DUP3 PUSH2 0x26EE JUMP JUMPDEST PUSH2 0x2724 DUP2 DUP6 PUSH2 0x26F8 JUMP JUMPDEST SWAP4 POP PUSH2 0x2734 DUP2 DUP6 PUSH1 0x20 DUP7 ADD PUSH2 0x2702 JUMP JUMPDEST DUP1 DUP5 ADD SWAP2 POP POP SWAP3 SWAP2 POP POP JUMP JUMPDEST PUSH0 PUSH2 0x274B DUP3 DUP5 PUSH2 0x2710 JUMP JUMPDEST SWAP2 POP DUP2 SWAP1 POP SWAP3 SWAP2 POP POP JUMP JUMPDEST PUSH32 0x4E487B7100000000000000000000000000000000000000000000000000000000 PUSH0 MSTORE PUSH1 0x11 PUSH1 0x4 MSTORE PUSH1 0x24 PUSH0 REVERT JUMPDEST PUSH0 PUSH2 0x278D DUP3 PUSH2 0x1E19 JUMP JUMPDEST SWAP2 POP PUSH2 0x2798 DUP4 PUSH2 0x1E19 JUMP JUMPDEST SWAP3 POP DUP3 DUP3 SUB SWAP1 POP DUP2 DUP2 GT ISZERO PUSH2 0x27B0 JUMPI PUSH2 0x27AF PUSH2 0x2756 JUMP JUMPDEST JUMPDEST SWAP3 SWAP2 POP POP JUMP JUMPDEST PUSH0 PUSH2 0x27C0 DUP3 PUSH2 0x1E19 JUMP JUMPDEST SWAP2 POP PUSH2 0x27CB DUP4 PUSH2 0x1E19 JUMP JUMPDEST SWAP3 POP DUP3 DUP3 MUL PUSH2 0x27D9 DUP2 PUSH2 0x1E19 JUMP JUMPDEST SWAP2 POP DUP3 DUP3 DIV DUP5 EQ DUP4 ISZERO OR PUSH2 0x27F0 JUMPI PUSH2 0x27EF PUSH2 0x2756 JUMP JUMPDEST JUMPDEST POP SWAP3 SWAP2 POP POP JUMP JUMPDEST PUSH0 PUSH2 0x2801 DUP3 PUSH2 0x1E19 JUMP JUMPDEST SWAP2 POP PUSH2 0x280C DUP4 PUSH2 0x1E19 JUMP JUMPDEST SWAP3 POP DUP3 DUP3 ADD SWAP1 POP DUP1 DUP3 GT ISZERO PUSH2 0x2824 JUMPI PUSH2 0x2823 PUSH2 0x2756 JUMP JUMPDEST JUMPDEST SWAP3 SWAP2 POP POP JUMP JUMPDEST PUSH0 PUSH2 0x2834 DUP3 PUSH2 0x2039 JUMP JUMPDEST SWAP2 POP PUSH2 0x283F DUP4 PUSH2 0x2039 JUMP JUMPDEST SWAP3 POP DUP3 DUP3 SUB SWAP1 POP PUSH12 0xFFFFFFFFFFFFFFFFFFFFFFFF DUP2 GT ISZERO PUSH2 0x2863 JUMPI PUSH2 0x2862 PUSH2 0x2756 JUMP JUMPDEST JUMPDEST SWAP3 SWAP2 POP POP JUMP JUMPDEST PUSH0 PUSH1 0x60 DUP3 ADD SWAP1 POP PUSH2 0x287C PUSH0 DUP4 ADD DUP7 PUSH2 0x216D JUMP JUMPDEST PUSH2 0x2889 PUSH1 0x20 DUP4 ADD DUP6 PUSH2 0x2050 JUMP JUMPDEST PUSH2 0x2896 PUSH1 0x40 DUP4 ADD DUP5 PUSH2 0x24AD JUMP JUMPDEST SWAP5 SWAP4 POP POP POP POP JUMP JUMPDEST PUSH0 PUSH2 0x28A8 DUP3 PUSH2 0x1E19 JUMP JUMPDEST SWAP2 POP PUSH32 0xFFFFFFFFFFFFFFFFFFFFFFFFFFFFFFFFFFFFFFFFFFFFFFFFFFFFFFFFFFFFFFFF DUP3 SUB PUSH2 0x28DA JUMPI PUSH2 0x28D9 PUSH2 0x2756 JUMP JUMPDEST JUMPDEST PUSH1 0x1 DUP3 ADD SWAP1 POP SWAP2 SWAP1 POP JUMP JUMPDEST PUSH0 PUSH1 0xA0 DUP3 ADD SWAP1 POP PUSH2 0x28F8 PUSH0 DUP4 ADD DUP9 PUSH2 0x216D JUMP JUMPDEST PUSH2 0x2905 PUSH1 0x20 DUP4 ADD DUP8 PUSH2 0x216D JUMP JUMPDEST PUSH2 0x2912 PUSH1 0x40 DUP4 ADD DUP7 PUSH2 0x1C0A JUMP JUMPDEST PUSH2 0x291F PUSH1 0x60 DUP4 ADD DUP6 PUSH2 0x1C28 JUMP JUMPDEST PUSH2 0x292C PUSH1 0x80 DUP4 ADD DUP5 PUSH2 0x1C28 JUMP JUMPDEST SWAP7 SWAP6 POP POP POP POP POP POP JUMP JUMPDEST PUSH0 PUSH1 0x20 DUP3 ADD SWAP1 POP PUSH2 0x2949 PUSH0 DUP4 ADD DUP5 PUSH2 0x22E7 JUMP JUMPDEST SWAP3 SWAP2 POP POP JUMP JUMPDEST PUSH32 0x4E487B7100000000000000000000000000000000000000000000000000000000 PUSH0 MSTORE PUSH1 0x31 PUSH1 0x4 MSTORE PUSH1 0x24 PUSH0 REVERT JUMPDEST PUSH0 PUSH2 0x2986 DUP3 PUSH2 0x1D44 JUMP JUMPDEST SWAP2 POP PUSH8 0xFFFFFFFFFFFFFFFF DUP3 SUB PUSH2 0x29A0 JUMPI PUSH2 0x299F PUSH2 0x2756 JUMP JUMPDEST JUMPDEST PUSH1 0x1 DUP3 ADD SWAP1 POP SWAP2 SWAP1 POP JUMP JUMPDEST PUSH0 PUSH2 0x29B5 DUP3 PUSH2 0x2039 JUMP JUMPDEST SWAP2 POP PUSH2 0x29C0 DUP4 PUSH2 0x2039 JUMP JUMPDEST SWAP3 POP DUP3 DUP3 ADD SWAP1 POP PUSH12 0xFFFFFFFFFFFFFFFFFFFFFFFF DUP2 GT ISZERO PUSH2 0x29E4 JUMPI PUSH2 0x29E3 PUSH2 0x2756 JUMP JUMPDEST JUMPDEST SWAP3 SWAP2 POP POP JUMP JUMPDEST PUSH0 DUP2 SWAP1 POP SWAP2 SWAP1 POP JUMP JUMPDEST PUSH0 PUSH2 0x2A0D PUSH2 0x2A08 PUSH2 0x2A03 DUP5 PUSH2 0x2039 JUMP JUMPDEST PUSH2 0x29EA JUMP JUMPDEST PUSH2 0x1E19 JUMP JUMPDEST SWAP1 POP SWAP2 SWAP1 POP JUMP JUMPDEST PUSH2 0x2A1D DUP2 PUSH2 0x29F3 JUMP JUMPDEST DUP3 MSTORE POP POP JUMP JUMPDEST PUSH0 PUSH1 0x40 DUP3 ADD SWAP1 POP PUSH2 0x2A36 PUSH0 DUP4 ADD DUP6 PUSH2 0x2A14 JUMP JUMPDEST PUSH2 0x2A43 PUSH1 0x20 DUP4 ADD DUP5 PUSH2 0x2A14 JUMP JUMPDEST SWAP4 SWAP3 POP POP POP JUMP JUMPDEST PUSH0 PUSH1 0x40 DUP3 ADD SWAP1 POP PUSH2 0x2A5D PUSH0 DUP4 ADD DUP6 PUSH2 0x22E7 JUMP JUMPDEST PUSH2 0x2A6A PUSH1 0x20 DUP4 ADD DUP5 PUSH2 0x2A14 JUMP JUMPDEST SWAP4 SWAP3 POP POP POP JUMP INVALID LOG2 PUSH5 0x6970667358 0x22 SLT KECCAK256 0x2A GASLIMIT PUSH26 0x29A405DE0166BCCFBCB790F88E46DB18846F88EB5D9802259EAC GT DUP13 0x2F PUSH5 0x736F6C6343 STOP ADDMOD BYTE STOP CALLER "
				},
				"gasEstimates": {
					"creation": {
						"codeDepositCost": "2183800",
						"executionCost": "infinite",
						"totalCost": "infinite"
					},
					"external": {
						"BASE_FEE()": "infinite",
						"GAS_PRICE_LINK()": "infinite",
						"MAX_CONSUMERS()": "infinite",
						"acceptSubscriptionOwnerTransfer(uint64)": "713",
						"addConsumer(uint64,address)": "infinite",
						"cancelSubscription(uint64,address)": "infinite",
						"consumerIsAdded(uint64,address)": "infinite",
						"createSubscription()": "infinite",
						"fulfillRandomWords(uint256,address)": "infinite",
						"fulfillRandomWordsWithOverride(uint256,address,uint256[])": "infinite",
						"fundSubscription(uint64,uint96)": "infinite",
						"getConfig()": "infinite",
						"getFallbackWeiPerUnitLink()": "422",
						"getFeeConfig()": "infinite",
						"getRequestConfig()": "896",
						"getSubscription(uint64)": "infinite",
						"pendingRequestExists(uint64)": "780",
						"removeConsumer(uint64,address)": "infinite",
						"requestRandomWords(bytes32,uint64,uint16,uint32,uint32)": "infinite",
						"requestSubscriptionOwnerTransfer(uint64,address)": "953"
					}
				},
				"methodIdentifiers": {
					"BASE_FEE()": "3d18651e",
					"GAS_PRICE_LINK()": "a410347f",
					"MAX_CONSUMERS()": "64d51a2a",
					"acceptSubscriptionOwnerTransfer(uint64)": "82359740",
					"addConsumer(uint64,address)": "7341c10c",
					"cancelSubscription(uint64,address)": "d7ae1d30",
					"consumerIsAdded(uint64,address)": "ed5eb06d",
					"createSubscription()": "a21a23e4",
					"fulfillRandomWords(uint256,address)": "808974ff",
					"fulfillRandomWordsWithOverride(uint256,address,uint256[])": "08e3898e",
					"fundSubscription(uint64,uint96)": "afc69b53",
					"getConfig()": "c3f909d4",
					"getFallbackWeiPerUnitLink()": "356dac71",
					"getFeeConfig()": "5fbbc0d2",
					"getRequestConfig()": "00012291",
					"getSubscription(uint64)": "a47c7696",
					"pendingRequestExists(uint64)": "e82ad7d4",
					"removeConsumer(uint64,address)": "9f87fad7",
					"requestRandomWords(bytes32,uint64,uint16,uint32,uint32)": "5d3b1d30",
					"requestSubscriptionOwnerTransfer(uint64,address)": "04c357cb"
				}
			},
			"storageLayout": {
				"storage": [
					{
						"astId": 340,
						"contract": "@chainlink/contracts/src/v0.8/mocks/VRFCoordinatorV2Mock.sol:VRFCoordinatorV2Mock",
						"label": "s_currentSubId",
						"offset": 0,
						"slot": "0",
						"type": "t_uint64"
					},
					{
						"astId": 343,
						"contract": "@chainlink/contracts/src/v0.8/mocks/VRFCoordinatorV2Mock.sol:VRFCoordinatorV2Mock",
						"label": "s_nextRequestId",
						"offset": 0,
						"slot": "1",
						"type": "t_uint256"
					},
					{
						"astId": 346,
						"contract": "@chainlink/contracts/src/v0.8/mocks/VRFCoordinatorV2Mock.sol:VRFCoordinatorV2Mock",
						"label": "s_nextPreSeed",
						"offset": 0,
						"slot": "2",
						"type": "t_uint256"
					},
					{
						"astId": 356,
						"contract": "@chainlink/contracts/src/v0.8/mocks/VRFCoordinatorV2Mock.sol:VRFCoordinatorV2Mock",
						"label": "s_subscriptions",
						"offset": 0,
						"slot": "3",
						"type": "t_mapping(t_uint64,t_struct(Subscription)351_storage)"
					},
					{
						"astId": 361,
						"contract": "@chainlink/contracts/src/v0.8/mocks/VRFCoordinatorV2Mock.sol:VRFCoordinatorV2Mock",
						"label": "s_consumers",
						"offset": 0,
						"slot": "4",
						"type": "t_mapping(t_uint64,t_array(t_address)dyn_storage)"
					},
					{
						"astId": 373,
						"contract": "@chainlink/contracts/src/v0.8/mocks/VRFCoordinatorV2Mock.sol:VRFCoordinatorV2Mock",
						"label": "s_requests",
						"offset": 0,
						"slot": "5",
						"type": "t_mapping(t_uint256,t_struct(Request)368_storage)"
					}
				],
				"types": {
					"t_address": {
						"encoding": "inplace",
						"label": "address",
						"numberOfBytes": "20"
					},
					"t_array(t_address)dyn_storage": {
						"base": "t_address",
						"encoding": "dynamic_array",
						"label": "address[]",
						"numberOfBytes": "32"
					},
					"t_mapping(t_uint256,t_struct(Request)368_storage)": {
						"encoding": "mapping",
						"key": "t_uint256",
						"label": "mapping(uint256 => struct VRFCoordinatorV2Mock.Request)",
						"numberOfBytes": "32",
						"value": "t_struct(Request)368_storage"
					},
					"t_mapping(t_uint64,t_array(t_address)dyn_storage)": {
						"encoding": "mapping",
						"key": "t_uint64",
						"label": "mapping(uint64 => address[])",
						"numberOfBytes": "32",
						"value": "t_array(t_address)dyn_storage"
					},
					"t_mapping(t_uint64,t_struct(Subscription)351_storage)": {
						"encoding": "mapping",
						"key": "t_uint64",
						"label": "mapping(uint64 => struct VRFCoordinatorV2Mock.Subscription)",
						"numberOfBytes": "32",
						"value": "t_struct(Subscription)351_storage"
					},
					"t_struct(Request)368_storage": {
						"encoding": "inplace",
						"label": "struct VRFCoordinatorV2Mock.Request",
						"members": [
							{
								"astId": 363,
								"contract": "@chainlink/contracts/src/v0.8/mocks/VRFCoordinatorV2Mock.sol:VRFCoordinatorV2Mock",
								"label": "subId",
								"offset": 0,
								"slot": "0",
								"type": "t_uint64"
							},
							{
								"astId": 365,
								"contract": "@chainlink/contracts/src/v0.8/mocks/VRFCoordinatorV2Mock.sol:VRFCoordinatorV2Mock",
								"label": "callbackGasLimit",
								"offset": 8,
								"slot": "0",
								"type": "t_uint32"
							},
							{
								"astId": 367,
								"contract": "@chainlink/contracts/src/v0.8/mocks/VRFCoordinatorV2Mock.sol:VRFCoordinatorV2Mock",
								"label": "numWords",
								"offset": 12,
								"slot": "0",
								"type": "t_uint32"
							}
						],
						"numberOfBytes": "32"
					},
					"t_struct(Subscription)351_storage": {
						"encoding": "inplace",
						"label": "struct VRFCoordinatorV2Mock.Subscription",
						"members": [
							{
								"astId": 348,
								"contract": "@chainlink/contracts/src/v0.8/mocks/VRFCoordinatorV2Mock.sol:VRFCoordinatorV2Mock",
								"label": "owner",
								"offset": 0,
								"slot": "0",
								"type": "t_address"
							},
							{
								"astId": 350,
								"contract": "@chainlink/contracts/src/v0.8/mocks/VRFCoordinatorV2Mock.sol:VRFCoordinatorV2Mock",
								"label": "balance",
								"offset": 20,
								"slot": "0",
								"type": "t_uint96"
							}
						],
						"numberOfBytes": "32"
					},
					"t_uint256": {
						"encoding": "inplace",
						"label": "uint256",
						"numberOfBytes": "32"
					},
					"t_uint32": {
						"encoding": "inplace",
						"label": "uint32",
						"numberOfBytes": "4"
					},
					"t_uint64": {
						"encoding": "inplace",
						"label": "uint64",
						"numberOfBytes": "8"
					},
					"t_uint96": {
						"encoding": "inplace",
						"label": "uint96",
						"numberOfBytes": "12"
					}
				}
			},
			"userdoc": {
				"kind": "user",
				"methods": {
					"createSubscription()": {
						"notice": "Create a VRF subscription."
					},
					"fulfillRandomWords(uint256,address)": {
						"notice": "fulfillRandomWords fulfills the given request, sending the random words to the suppliedconsumer."
					},
					"fulfillRandomWordsWithOverride(uint256,address,uint256[])": {
						"notice": "fulfillRandomWordsWithOverride allows the user to pass in their own random words."
					},
					"fundSubscription(uint64,uint96)": {
						"notice": "fundSubscription allows funding a subscription with an arbitrary amount for testing."
					},
					"getRequestConfig()": {
						"notice": "Get configuration relevant for making requests"
					}
				},
				"version": 1
			}
		}
	}
}