{
	"data": {
		"bytecode": {
			"linkReferences": {},
			"object": "6080604052348015600e575f5ffd5b506114918061001c5f395ff3fe608060405234801561000f575f5ffd5b506004361061003f575f3560e01c8063242ab0211461004357806351d3c99b14610071578063f8a8fd6d1461007b575b5f5ffd5b5f54610055906001600160a01b031681565b6040516001600160a01b03909116815260200160405180910390f35b610079610083565b005b6100796100ca565b60405161008f9061011c565b604051809103905ff0801580156100a8573d5f5f3e3d5ffd5b505f80546001600160a01b0319166001600160a01b0392909216919091179055565b7ecb39d6c2c520f0597db0021367767c48fef2964cf402d3c9e9d4df12e43964604051610112906020808252600790820152665375636365737360c81b604082015260600190565b60405180910390a1565b6113328061012a8339019056fe60806040526001600455348015610014575f5ffd5b5033805f8161006a5760405162461bcd60e51b815260206004820152601860248201527f43616e6e6f7420736574206f776e657220746f207a65726f000000000000000060448201526064015b60405180910390fd5b600680546001600160a01b0319166001600160a01b038481169190911790915581161561009a5761009a81610131565b5050506100c073779877a7b0d9e8603169ddbd7836e478b46247896101da60201b60201c565b600380546001600160a01b031916736090149792daaee9d1d568c9f9a6f6b46aa29efd1790557f6361393833363663633733313439353762386330313263373266303561656562600955600a61011f670de0b6b3a764000060016101fc565b6101299190610225565b600a55610244565b336001600160a01b038216036101895760405162461bcd60e51b815260206004820152601760248201527f43616e6e6f74207472616e7366657220746f2073656c660000000000000000006044820152606401610061565b600780546001600160a01b0319166001600160a01b03838116918217909255600654604051919216907fed8889f560326eb138920d842192f0eb3dd22b4f139c87a2c57538e05bae1278905f90a350565b600280546001600160a01b0319166001600160a01b0392909216919091179055565b808202811582820484141761021f57634e487b7160e01b5f52601160045260245ffd5b92915050565b5f8261023f57634e487b7160e01b5f52601260045260245ffd5b500490565b6110e1806102515f395ff3fe608060405234801561000f575f5ffd5b506004361061006b575f3560e01c80632adb9e3c1461006f5780634357855e1461009557806379ba5097146100aa5780638da5cb5b146100b25780638dc654a2146100cb578063c618a1e4146100d3578063f2fde38b146100dc575b5f5ffd5b61008261007d366004610d8f565b6100ef565b6040519081526020015b60405180910390f35b6100a86100a3366004610da6565b61022f565b005b6100a861032f565b6006546001600160a01b031660405161008c9190610dc6565b6100a86103dc565b61008260085481565b6100a86100ea366004610dda565b610524565b5f5f61010560095430634357855e60e01b610535565b90506101476040518060400160405280600381526020016219d95d60ea1b81525060405180606001604052806030815260200161107c6030913983919061055a565b610193604051806040016040528060048152602001630e0c2e8d60e31b815250604051806040016040528060038152602001626e756d60e81b8152508361055a9092919063ffffffff16565b60408051808201909152600581526474696d657360d81b60208201526001906101be9083908361057d565b604080518181526014818301527313585919481d1a194819d95d081c995c5d595cdd60621b60608201526020810186905290517f4953e1e253d3404572e66d2be3e7889846db195dfc203305a4810d16100dfd119181900360800190a161022782600a5461059b565b949350505050565b5f8281526005602052604090205482906001600160a01b031633146102ac5760405162461bcd60e51b815260206004820152602860248201527f536f75726365206d75737420626520746865206f7261636c65206f6620746865604482015267081c995c5d595cdd60c21b60648201526084015b60405180910390fd5b5f8181526005602052604080822080546001600160a01b03191690555182917f7cc135e0cebb02c3480ae5d74d377283180a2601f8f644edf7987b009316c63a91a2827f673b38182859a514d734bdfcb49d3a05c4a641dec9311d9894c9717bcb79af768360405161032091815260200190565b60405180910390a25060085550565b6007546001600160a01b031633146103825760405162461bcd60e51b815260206004820152601660248201527526bab9ba10313290383937b837b9b2b21037bbb732b960511b60448201526064016102a3565b600680546001600160a01b0319808216339081179093556007805490911690556040516001600160a01b03909116919082907f8be0079c531659141344cd1fd0a4f28419497f9722a3daafe3b4186f6b6457e0905f90a350565b6103e46105bd565b5f6103f76002546001600160a01b031690565b9050806001600160a01b031663a9059cbb33836001600160a01b03166370a08231306040518263ffffffff1660e01b81526004016104359190610dc6565b602060405180830381865afa158015610450573d5f5f3e3d5ffd5b505050506040513d601f19601f820116820180604052508101906104749190610e07565b6040516001600160e01b031960e085901b1681526001600160a01b03909216600483015260248201526044016020604051808303815f875af11580156104bc573d5f5f3e3d5ffd5b505050506040513d601f19601f820116820180604052508101906104e09190610e1e565b6105215760405162461bcd60e51b81526020600482015260126024820152712ab730b13632903a37903a3930b739b332b960711b60448201526064016102a3565b50565b61052c6105bd565b61052181610612565b61053d610d33565b610545610d33565b610551818686866106b5565b95945050505050565b608083015161056990836106f2565b608083015161057890826106f2565b505050565b608083015161058c90836106f2565b60808301516105789082610709565b6003545f906105b4906001600160a01b03168484610769565b90505b92915050565b6006546001600160a01b031633146106105760405162461bcd60e51b815260206004820152601660248201527527b7363c9031b0b63630b1363290313c9037bbb732b960511b60448201526064016102a3565b565b336001600160a01b038216036106645760405162461bcd60e51b815260206004820152601760248201527621b0b73737ba103a3930b739b332b9103a379039b2b63360491b60448201526064016102a3565b600780546001600160a01b0319166001600160a01b03838116918217909255600654604051919216907fed8889f560326eb138920d842192f0eb3dd22b4f139c87a2c57538e05bae1278905f90a350565b6106bd610d33565b6106cd85608001516101006107fa565b50509183526001600160a01b031660208301526001600160e01b031916604082015290565b6106ff8260038351610851565b610578828261095e565b67ffffffffffffffff19811215610728576107248282610977565b5050565b6001600160401b038113156107415761072482826109b8565b5f811261075357610724825f83610851565b610724826001610764845f19610e51565b610851565b6004545f90610779816001610e77565b600455835160408086015160808701515191515f936320214ca360e11b936107b09386938493923092918a91600191602401610eb8565b60408051601f198184030181529190526020810180516001600160e01b03166001600160e01b03199093169290921790915290506107f0868386846109db565b9695505050505050565b610802610d76565b61080d602083610f1e565b156108355761081d602083610f1e565b610828906020610f3d565b6108329083610e77565b91505b506020828101829052604080518085525f815290920101905290565b6017816001600160401b03161161087b576108758360e0600585901b168317610b2f565b50505050565b60ff816001600160401b0316116108b7576108a1836018611fe0600586901b1617610b2f565b50610875836001600160401b0383166001610b46565b61ffff816001600160401b0316116108f4576108de836019611fe0600586901b1617610b2f565b50610875836001600160401b0383166002610b46565b63ffffffff816001600160401b0316116109335761091d83601a611fe0600586901b1617610b2f565b50610875836001600160401b0383166004610b46565b61094883601b611fe0600586901b1617610b2f565b50610875836001600160401b0383166008610b46565b610966610d76565b6105b483845f015151848551610b5e565b6109828260c3610b2f565b5061072482610992835f19610e51565b6040516020016109a491815260200190565b604051602081830303815290604052610c38565b6109c38260c2610b2f565b5061072482826040516020016109a491815260200190565b6040516001600160601b03193060601b166020820152603481018490525f9060540160408051808303601f1901815282825280516020918201205f818152600590925291812080546001600160a01b0319166001600160a01b038a1617905590925082917fb5e6e01e79f91267dc17b4e6314d5d4d03593d2ceee0fbb452b750bd70ea5af99190a2600254604051630200057560e51b81526001600160a01b0390911690634000aea090610a9790889087908790600401610f50565b6020604051808303815f875af1158015610ab3573d5f5f3e3d5ffd5b505050506040513d601f19601f82011682018060405250810190610ad79190610e1e565b6102275760405162461bcd60e51b815260206004820152602360248201527f756e61626c6520746f207472616e73666572416e6443616c6c20746f206f7261604482015262636c6560e81b60648201526084016102a3565b610b37610d76565b6105b483845f01515184610c45565b610b4e610d76565b61022784855f0151518585610c93565b610b66610d76565b8251821115610b73575f5ffd5b6020850151610b828386610e77565b1115610bb557610bb585610ba587602001518786610ba09190610e77565b610d06565b610bb0906002610f76565b610d1c565b5f5f865180518760208301019350808887011115610bd35787860182525b505050602084015b60208410610c135780518252610bf2602083610e77565b9150610bff602082610e77565b9050610c0c602085610f3d565b9350610bdb565b5181515f1960208690036101000a019081169019919091161790525083949350505050565b6106ff8260028351610851565b610c4d610d76565b83602001518310610c6d57610c6d8485602001516002610bb09190610f76565b8351805160208583010184815350808503610c89576001810182525b5093949350505050565b610c9b610d76565b6020850151610caa8584610e77565b1115610cbe57610cbe85610ba58685610e77565b5f6001610ccd84610100611070565b610cd79190610f3d565b9050855183868201018583198251161781525080518487011115610cfb5783860181525b509495945050505050565b5f81831115610d165750816105b7565b50919050565b8151610d2883836107fa565b50610875838261095e565b6040518060a001604052805f81526020015f6001600160a01b031681526020015f6001600160e01b03191681526020015f8152602001610d71610d76565b905290565b6040518060400160405280606081526020015f81525090565b5f60208284031215610d9f575f5ffd5b5035919050565b5f5f60408385031215610db7575f5ffd5b50508035926020909101359150565b6001600160a01b0391909116815260200190565b5f60208284031215610dea575f5ffd5b81356001600160a01b0381168114610e00575f5ffd5b9392505050565b5f60208284031215610e17575f5ffd5b5051919050565b5f60208284031215610e2e575f5ffd5b81518015158114610e00575f5ffd5b634e487b7160e01b5f52601160045260245ffd5b8181035f831280158383131683831282161715610e7057610e70610e3d565b5092915050565b808201808211156105b7576105b7610e3d565b5f81518084528060208401602086015e5f602082860101526020601f19601f83011685010191505092915050565b6001600160a01b0389811682526020820189905260408201889052861660608201526001600160e01b03198516608082015260a0810184905260c0810183905261010060e082018190525f90610f1090830184610e8a565b9a9950505050505050505050565b5f82610f3857634e487b7160e01b5f52601260045260245ffd5b500690565b818103818111156105b7576105b7610e3d565b60018060a01b0384168152826020820152606060408201525f6105516060830184610e8a565b80820281158282048414176105b7576105b7610e3d565b6001815b6001841115610fc857808504811115610fac57610fac610e3d565b6001841615610fba57908102905b60019390931c928002610f91565b935093915050565b5f82610fde575060016105b7565b81610fea57505f6105b7565b8160018114611000576002811461100a57611026565b60019150506105b7565b60ff84111561101b5761101b610e3d565b50506001821b6105b7565b5060208310610133831016604e8410600b8410161715611049575081810a6105b7565b6110555f198484610f8d565b805f190482111561106857611068610e3d565b029392505050565b5f6105b48383610fd056fe68747470733a2f2f613334622d3130312d3131352d31392d3136362e6e67726f6b2d667265652e6170702f636865636ba2646970667358221220c21be8e29e2dbb8c23c23adf318105655debc5bf0361308df684b42c744f205764736f6c634300081d0033a26469706673582212207383dbe637c4b23346073b67683ca52085a2d060f54cabb3b3a9355a716c00bb64736f6c634300081d0033",
			"opcodes": "PUSH1 0x80 PUSH1 0x40 MSTORE CALLVALUE DUP1 ISZERO PUSH1 0xE JUMPI PUSH0 PUSH0 REVERT JUMPDEST POP PUSH2 0x1491 DUP1 PUSH2 0x1C PUSH0 CODECOPY PUSH0 RETURN INVALID PUSH1 0x80 PUSH1 0x40 MSTORE CALLVALUE DUP1 ISZERO PUSH2 0xF JUMPI PUSH0 PUSH0 REVERT JUMPDEST POP PUSH1 0x4 CALLDATASIZE LT PUSH2 0x3F JUMPI PUSH0 CALLDATALOAD PUSH1 0xE0 SHR DUP1 PUSH4 0x242AB021 EQ PUSH2 0x43 JUMPI DUP1 PUSH4 0x51D3C99B EQ PUSH2 0x71 JUMPI DUP1 PUSH4 0xF8A8FD6D EQ PUSH2 0x7B JUMPI JUMPDEST PUSH0 PUSH0 REVERT JUMPDEST PUSH0 SLOAD PUSH2 0x55 SWAP1 PUSH1 0x1 PUSH1 0x1 PUSH1 0xA0 SHL SUB AND DUP2 JUMP JUMPDEST PUSH1 0x40 MLOAD PUSH1 0x1 PUSH1 0x1 PUSH1 0xA0 SHL SUB SWAP1 SWAP2 AND DUP2 MSTORE PUSH1 0x20 ADD PUSH1 0x40 MLOAD DUP1 SWAP2 SUB SWAP1 RETURN JUMPDEST PUSH2 0x79 PUSH2 0x83 JUMP JUMPDEST STOP JUMPDEST PUSH2 0x79 PUSH2 0xCA JUMP JUMPDEST PUSH1 0x40 MLOAD PUSH2 0x8F SWAP1 PUSH2 0x11C JUMP JUMPDEST PUSH1 0x40 MLOAD DUP1 SWAP2 SUB SWAP1 PUSH0 CREATE DUP1 ISZERO DUP1 ISZERO PUSH2 0xA8 JUMPI RETURNDATASIZE PUSH0 PUSH0 RETURNDATACOPY RETURNDATASIZE PUSH0 REVERT JUMPDEST POP PUSH0 DUP1 SLOAD PUSH1 0x1 PUSH1 0x1 PUSH1 0xA0 SHL SUB NOT AND PUSH1 0x1 PUSH1 0x1 PUSH1 0xA0 SHL SUB SWAP3 SWAP1 SWAP3 AND SWAP2 SWAP1 SWAP2 OR SWAP1 SSTORE JUMP JUMPDEST PUSH31 0xCB39D6C2C520F0597DB0021367767C48FEF2964CF402D3C9E9D4DF12E43964 PUSH1 0x40 MLOAD PUSH2 0x112 SWAP1 PUSH1 0x20 DUP1 DUP3 MSTORE PUSH1 0x7 SWAP1 DUP3 ADD MSTORE PUSH7 0x53756363657373 PUSH1 0xC8 SHL PUSH1 0x40 DUP3 ADD MSTORE PUSH1 0x60 ADD SWAP1 JUMP JUMPDEST PUSH1 0x40 MLOAD DUP1 SWAP2 SUB SWAP1 LOG1 JUMP JUMPDEST PUSH2 0x1332 DUP1 PUSH2 0x12A DUP4 CODECOPY ADD SWAP1 JUMP INVALID PUSH1 0x80 PUSH1 0x40 MSTORE PUSH1 0x1 PUSH1 0x4 SSTORE CALLVALUE DUP1 ISZERO PUSH2 0x14 JUMPI PUSH0 PUSH0 REVERT JUMPDEST POP CALLER DUP1 PUSH0 DUP2 PUSH2 0x6A JUMPI PUSH1 0x40 MLOAD PUSH3 0x461BCD PUSH1 0xE5 SHL DUP2 MSTORE PUSH1 0x20 PUSH1 0x4 DUP3 ADD MSTORE PUSH1 0x18 PUSH1 0x24 DUP3 ADD MSTORE PUSH32 0x43616E6E6F7420736574206F776E657220746F207A65726F0000000000000000 PUSH1 0x44 DUP3 ADD MSTORE PUSH1 0x64 ADD JUMPDEST PUSH1 0x40 MLOAD DUP1 SWAP2 SUB SWAP1 REVERT JUMPDEST PUSH1 0x6 DUP1 SLOAD PUSH1 0x1 PUSH1 0x1 PUSH1 0xA0 SHL SUB NOT AND PUSH1 0x1 PUSH1 0x1 PUSH1 0xA0 SHL SUB DUP5 DUP2 AND SWAP2 SWAP1 SWAP2 OR SWAP1 SWAP2 SSTORE DUP2 AND ISZERO PUSH2 0x9A JUMPI PUSH2 0x9A DUP2 PUSH2 0x131 JUMP JUMPDEST POP POP POP PUSH2 0xC0 PUSH20 0x779877A7B0D9E8603169DDBD7836E478B4624789 PUSH2 0x1DA PUSH1 0x20 SHL PUSH1 0x20 SHR JUMP JUMPDEST PUSH1 0x3 DUP1 SLOAD PUSH1 0x1 PUSH1 0x1 PUSH1 0xA0 SHL SUB NOT AND PUSH20 0x6090149792DAAEE9D1D568C9F9A6F6B46AA29EFD OR SWAP1 SSTORE PUSH32 0x6361393833363663633733313439353762386330313263373266303561656562 PUSH1 0x9 SSTORE PUSH1 0xA PUSH2 0x11F PUSH8 0xDE0B6B3A7640000 PUSH1 0x1 PUSH2 0x1FC JUMP JUMPDEST PUSH2 0x129 SWAP2 SWAP1 PUSH2 0x225 JUMP JUMPDEST PUSH1 0xA SSTORE PUSH2 0x244 JUMP JUMPDEST CALLER PUSH1 0x1 PUSH1 0x1 PUSH1 0xA0 SHL SUB DUP3 AND SUB PUSH2 0x189 JUMPI PUSH1 0x40 MLOAD PUSH3 0x461BCD PUSH1 0xE5 SHL DUP2 MSTORE PUSH1 0x20 PUSH1 0x4 DUP3 ADD MSTORE PUSH1 0x17 PUSH1 0x24 DUP3 ADD MSTORE PUSH32 0x43616E6E6F74207472616E7366657220746F2073656C66000000000000000000 PUSH1 0x44 DUP3 ADD MSTORE PUSH1 0x64 ADD PUSH2 0x61 JUMP JUMPDEST PUSH1 0x7 DUP1 SLOAD PUSH1 0x1 PUSH1 0x1 PUSH1 0xA0 SHL SUB NOT AND PUSH1 0x1 PUSH1 0x1 PUSH1 0xA0 SHL SUB DUP4 DUP2 AND SWAP2 DUP3 OR SWAP1 SWAP3 SSTORE PUSH1 0x6 SLOAD PUSH1 0x40 MLOAD SWAP2 SWAP3 AND SWAP1 PUSH32 0xED8889F560326EB138920D842192F0EB3DD22B4F139C87A2C57538E05BAE1278 SWAP1 PUSH0 SWAP1 LOG3 POP JUMP JUMPDEST PUSH1 0x2 DUP1 SLOAD PUSH1 0x1 PUSH1 0x1 PUSH1 0xA0 SHL SUB NOT AND PUSH1 0x1 PUSH1 0x1 PUSH1 0xA0 SHL SUB SWAP3 SWAP1 SWAP3 AND SWAP2 SWAP1 SWAP2 OR SWAP1 SSTORE JUMP JUMPDEST DUP1 DUP3 MUL DUP2 ISZERO DUP3 DUP3 DIV DUP5 EQ OR PUSH2 0x21F JUMPI PUSH4 0x4E487B71 PUSH1 0xE0 SHL PUSH0 MSTORE PUSH1 0x11 PUSH1 0x4 MSTORE PUSH1 0x24 PUSH0 REVERT JUMPDEST SWAP3 SWAP2 POP POP JUMP JUMPDEST PUSH0 DUP3 PUSH2 0x23F JUMPI PUSH4 0x4E487B71 PUSH1 0xE0 SHL PUSH0 MSTORE PUSH1 0x12 PUSH1 0x4 MSTORE PUSH1 0x24 PUSH0 REVERT JUMPDEST POP DIV SWAP1 JUMP JUMPDEST PUSH2 0x10E1 DUP1 PUSH2 0x251 PUSH0 CODECOPY PUSH0 RETURN INVALID PUSH1 0x80 PUSH1 0x40 MSTORE CALLVALUE DUP1 ISZERO PUSH2 0xF JUMPI PUSH0 PUSH0 REVERT JUMPDEST POP PUSH1 0x4 CALLDATASIZE LT PUSH2 0x6B JUMPI PUSH0 CALLDATALOAD PUSH1 0xE0 SHR DUP1 PUSH4 0x2ADB9E3C EQ PUSH2 0x6F JUMPI DUP1 PUSH4 0x4357855E EQ PUSH2 0x95 JUMPI DUP1 PUSH4 0x79BA5097 EQ PUSH2 0xAA JUMPI DUP1 PUSH4 0x8DA5CB5B EQ PUSH2 0xB2 JUMPI DUP1 PUSH4 0x8DC654A2 EQ PUSH2 0xCB JUMPI DUP1 PUSH4 0xC618A1E4 EQ PUSH2 0xD3 JUMPI DUP1 PUSH4 0xF2FDE38B EQ PUSH2 0xDC JUMPI JUMPDEST PUSH0 PUSH0 REVERT JUMPDEST PUSH2 0x82 PUSH2 0x7D CALLDATASIZE PUSH1 0x4 PUSH2 0xD8F JUMP JUMPDEST PUSH2 0xEF JUMP JUMPDEST PUSH1 0x40 MLOAD SWAP1 DUP2 MSTORE PUSH1 0x20 ADD JUMPDEST PUSH1 0x40 MLOAD DUP1 SWAP2 SUB SWAP1 RETURN JUMPDEST PUSH2 0xA8 PUSH2 0xA3 CALLDATASIZE PUSH1 0x4 PUSH2 0xDA6 JUMP JUMPDEST PUSH2 0x22F JUMP JUMPDEST STOP JUMPDEST PUSH2 0xA8 PUSH2 0x32F JUMP JUMPDEST PUSH1 0x6 SLOAD PUSH1 0x1 PUSH1 0x1 PUSH1 0xA0 SHL SUB AND PUSH1 0x40 MLOAD PUSH2 0x8C SWAP2 SWAP1 PUSH2 0xDC6 JUMP JUMPDEST PUSH2 0xA8 PUSH2 0x3DC JUMP JUMPDEST PUSH2 0x82 PUSH1 0x8 SLOAD DUP2 JUMP JUMPDEST PUSH2 0xA8 PUSH2 0xEA CALLDATASIZE PUSH1 0x4 PUSH2 0xDDA JUMP JUMPDEST PUSH2 0x524 JUMP JUMPDEST PUSH0 PUSH0 PUSH2 0x105 PUSH1 0x9 SLOAD ADDRESS PUSH4 0x4357855E PUSH1 0xE0 SHL PUSH2 0x535 JUMP JUMPDEST SWAP1 POP PUSH2 0x147 PUSH1 0x40 MLOAD DUP1 PUSH1 0x40 ADD PUSH1 0x40 MSTORE DUP1 PUSH1 0x3 DUP2 MSTORE PUSH1 0x20 ADD PUSH3 0x19D95D PUSH1 0xEA SHL DUP2 MSTORE POP PUSH1 0x40 MLOAD DUP1 PUSH1 0x60 ADD PUSH1 0x40 MSTORE DUP1 PUSH1 0x30 DUP2 MSTORE PUSH1 0x20 ADD PUSH2 0x107C PUSH1 0x30 SWAP2 CODECOPY DUP4 SWAP2 SWAP1 PUSH2 0x55A JUMP JUMPDEST PUSH2 0x193 PUSH1 0x40 MLOAD DUP1 PUSH1 0x40 ADD PUSH1 0x40 MSTORE DUP1 PUSH1 0x4 DUP2 MSTORE PUSH1 0x20 ADD PUSH4 0xE0C2E8D PUSH1 0xE3 SHL DUP2 MSTORE POP PUSH1 0x40 MLOAD DUP1 PUSH1 0x40 ADD PUSH1 0x40 MSTORE DUP1 PUSH1 0x3 DUP2 MSTORE PUSH1 0x20 ADD PUSH3 0x6E756D PUSH1 0xE8 SHL DUP2 MSTORE POP DUP4 PUSH2 0x55A SWAP1 SWAP3 SWAP2 SWAP1 PUSH4 0xFFFFFFFF AND JUMP JUMPDEST PUSH1 0x40 DUP1 MLOAD DUP1 DUP3 ADD SWAP1 SWAP2 MSTORE PUSH1 0x5 DUP2 MSTORE PUSH5 0x74696D6573 PUSH1 0xD8 SHL PUSH1 0x20 DUP3 ADD MSTORE PUSH1 0x1 SWAP1 PUSH2 0x1BE SWAP1 DUP4 SWAP1 DUP4 PUSH2 0x57D JUMP JUMPDEST PUSH1 0x40 DUP1 MLOAD DUP2 DUP2 MSTORE PUSH1 0x14 DUP2 DUP4 ADD MSTORE PUSH20 0x13585919481D1A194819D95D081C995C5D595CDD PUSH1 0x62 SHL PUSH1 0x60 DUP3 ADD MSTORE PUSH1 0x20 DUP2 ADD DUP7 SWAP1 MSTORE SWAP1 MLOAD PUSH32 0x4953E1E253D3404572E66D2BE3E7889846DB195DFC203305A4810D16100DFD11 SWAP2 DUP2 SWAP1 SUB PUSH1 0x80 ADD SWAP1 LOG1 PUSH2 0x227 DUP3 PUSH1 0xA SLOAD PUSH2 0x59B JUMP JUMPDEST SWAP5 SWAP4 POP POP POP POP JUMP JUMPDEST PUSH0 DUP3 DUP2 MSTORE PUSH1 0x5 PUSH1 0x20 MSTORE PUSH1 0x40 SWAP1 KECCAK256 SLOAD DUP3 SWAP1 PUSH1 0x1 PUSH1 0x1 PUSH1 0xA0 SHL SUB AND CALLER EQ PUSH2 0x2AC JUMPI PUSH1 0x40 MLOAD PUSH3 0x461BCD PUSH1 0xE5 SHL DUP2 MSTORE PUSH1 0x20 PUSH1 0x4 DUP3 ADD MSTORE PUSH1 0x28 PUSH1 0x24 DUP3 ADD MSTORE PUSH32 0x536F75726365206D75737420626520746865206F7261636C65206F6620746865 PUSH1 0x44 DUP3 ADD MSTORE PUSH8 0x81C995C5D595CDD PUSH1 0xC2 SHL PUSH1 0x64 DUP3 ADD MSTORE PUSH1 0x84 ADD JUMPDEST PUSH1 0x40 MLOAD DUP1 SWAP2 SUB SWAP1 REVERT JUMPDEST PUSH0 DUP2 DUP2 MSTORE PUSH1 0x5 PUSH1 0x20 MSTORE PUSH1 0x40 DUP1 DUP3 KECCAK256 DUP1 SLOAD PUSH1 0x1 PUSH1 0x1 PUSH1 0xA0 SHL SUB NOT AND SWAP1 SSTORE MLOAD DUP3 SWAP2 PUSH32 0x7CC135E0CEBB02C3480AE5D74D377283180A2601F8F644EDF7987B009316C63A SWAP2 LOG2 DUP3 PUSH32 0x673B38182859A514D734BDFCB49D3A05C4A641DEC9311D9894C9717BCB79AF76 DUP4 PUSH1 0x40 MLOAD PUSH2 0x320 SWAP2 DUP2 MSTORE PUSH1 0x20 ADD SWAP1 JUMP JUMPDEST PUSH1 0x40 MLOAD DUP1 SWAP2 SUB SWAP1 LOG2 POP PUSH1 0x8 SSTORE POP JUMP JUMPDEST PUSH1 0x7 SLOAD PUSH1 0x1 PUSH1 0x1 PUSH1 0xA0 SHL SUB AND CALLER EQ PUSH2 0x382 JUMPI PUSH1 0x40 MLOAD PUSH3 0x461BCD PUSH1 0xE5 SHL DUP2 MSTORE PUSH1 0x20 PUSH1 0x4 DUP3 ADD MSTORE PUSH1 0x16 PUSH1 0x24 DUP3 ADD MSTORE PUSH22 0x26BAB9BA10313290383937B837B9B2B21037BBB732B9 PUSH1 0x51 SHL PUSH1 0x44 DUP3 ADD MSTORE PUSH1 0x64 ADD PUSH2 0x2A3 JUMP JUMPDEST PUSH1 0x6 DUP1 SLOAD PUSH1 0x1 PUSH1 0x1 PUSH1 0xA0 SHL SUB NOT DUP1 DUP3 AND CALLER SWAP1 DUP2 OR SWAP1 SWAP4 SSTORE PUSH1 0x7 DUP1 SLOAD SWAP1 SWAP2 AND SWAP1 SSTORE PUSH1 0x40 MLOAD PUSH1 0x1 PUSH1 0x1 PUSH1 0xA0 SHL SUB SWAP1 SWAP2 AND SWAP2 SWAP1 DUP3 SWAP1 PUSH32 0x8BE0079C531659141344CD1FD0A4F28419497F9722A3DAAFE3B4186F6B6457E0 SWAP1 PUSH0 SWAP1 LOG3 POP JUMP JUMPDEST PUSH2 0x3E4 PUSH2 0x5BD JUMP JUMPDEST PUSH0 PUSH2 0x3F7 PUSH1 0x2 SLOAD PUSH1 0x1 PUSH1 0x1 PUSH1 0xA0 SHL SUB AND SWAP1 JUMP JUMPDEST SWAP1 POP DUP1 PUSH1 0x1 PUSH1 0x1 PUSH1 0xA0 SHL SUB AND PUSH4 0xA9059CBB CALLER DUP4 PUSH1 0x1 PUSH1 0x1 PUSH1 0xA0 SHL SUB AND PUSH4 0x70A08231 ADDRESS PUSH1 0x40 MLOAD DUP3 PUSH4 0xFFFFFFFF AND PUSH1 0xE0 SHL DUP2 MSTORE PUSH1 0x4 ADD PUSH2 0x435 SWAP2 SWAP1 PUSH2 0xDC6 JUMP JUMPDEST PUSH1 0x20 PUSH1 0x40 MLOAD DUP1 DUP4 SUB DUP2 DUP7 GAS STATICCALL ISZERO DUP1 ISZERO PUSH2 0x450 JUMPI RETURNDATASIZE PUSH0 PUSH0 RETURNDATACOPY RETURNDATASIZE PUSH0 REVERT JUMPDEST POP POP POP POP PUSH1 0x40 MLOAD RETURNDATASIZE PUSH1 0x1F NOT PUSH1 0x1F DUP3 ADD AND DUP3 ADD DUP1 PUSH1 0x40 MSTORE POP DUP2 ADD SWAP1 PUSH2 0x474 SWAP2 SWAP1 PUSH2 0xE07 JUMP JUMPDEST PUSH1 0x40 MLOAD PUSH1 0x1 PUSH1 0x1 PUSH1 0xE0 SHL SUB NOT PUSH1 0xE0 DUP6 SWAP1 SHL AND DUP2 MSTORE PUSH1 0x1 PUSH1 0x1 PUSH1 0xA0 SHL SUB SWAP1 SWAP3 AND PUSH1 0x4 DUP4 ADD MSTORE PUSH1 0x24 DUP3 ADD MSTORE PUSH1 0x44 ADD PUSH1 0x20 PUSH1 0x40 MLOAD DUP1 DUP4 SUB DUP2 PUSH0 DUP8 GAS CALL ISZERO DUP1 ISZERO PUSH2 0x4BC JUMPI RETURNDATASIZE PUSH0 PUSH0 RETURNDATACOPY RETURNDATASIZE PUSH0 REVERT JUMPDEST POP POP POP POP PUSH1 0x40 MLOAD RETURNDATASIZE PUSH1 0x1F NOT PUSH1 0x1F DUP3 ADD AND DUP3 ADD DUP1 PUSH1 0x40 MSTORE POP DUP2 ADD SWAP1 PUSH2 0x4E0 SWAP2 SWAP1 PUSH2 0xE1E JUMP JUMPDEST PUSH2 0x521 JUMPI PUSH1 0x40 MLOAD PUSH3 0x461BCD PUSH1 0xE5 SHL DUP2 MSTORE PUSH1 0x20 PUSH1 0x4 DUP3 ADD MSTORE PUSH1 0x12 PUSH1 0x24 DUP3 ADD MSTORE PUSH18 0x2AB730B13632903A37903A3930B739B332B9 PUSH1 0x71 SHL PUSH1 0x44 DUP3 ADD MSTORE PUSH1 0x64 ADD PUSH2 0x2A3 JUMP JUMPDEST POP JUMP JUMPDEST PUSH2 0x52C PUSH2 0x5BD JUMP JUMPDEST PUSH2 0x521 DUP2 PUSH2 0x612 JUMP JUMPDEST PUSH2 0x53D PUSH2 0xD33 JUMP JUMPDEST PUSH2 0x545 PUSH2 0xD33 JUMP JUMPDEST PUSH2 0x551 DUP2 DUP7 DUP7 DUP7 PUSH2 0x6B5 JUMP JUMPDEST SWAP6 SWAP5 POP POP POP POP POP JUMP JUMPDEST PUSH1 0x80 DUP4 ADD MLOAD PUSH2 0x569 SWAP1 DUP4 PUSH2 0x6F2 JUMP JUMPDEST PUSH1 0x80 DUP4 ADD MLOAD PUSH2 0x578 SWAP1 DUP3 PUSH2 0x6F2 JUMP JUMPDEST POP POP POP JUMP JUMPDEST PUSH1 0x80 DUP4 ADD MLOAD PUSH2 0x58C SWAP1 DUP4 PUSH2 0x6F2 JUMP JUMPDEST PUSH1 0x80 DUP4 ADD MLOAD PUSH2 0x578 SWAP1 DUP3 PUSH2 0x709 JUMP JUMPDEST PUSH1 0x3 SLOAD PUSH0 SWAP1 PUSH2 0x5B4 SWAP1 PUSH1 0x1 PUSH1 0x1 PUSH1 0xA0 SHL SUB AND DUP5 DUP5 PUSH2 0x769 JUMP JUMPDEST SWAP1 POP JUMPDEST SWAP3 SWAP2 POP POP JUMP JUMPDEST PUSH1 0x6 SLOAD PUSH1 0x1 PUSH1 0x1 PUSH1 0xA0 SHL SUB AND CALLER EQ PUSH2 0x610 JUMPI PUSH1 0x40 MLOAD PUSH3 0x461BCD PUSH1 0xE5 SHL DUP2 MSTORE PUSH1 0x20 PUSH1 0x4 DUP3 ADD MSTORE PUSH1 0x16 PUSH1 0x24 DUP3 ADD MSTORE PUSH22 0x27B7363C9031B0B63630B1363290313C9037BBB732B9 PUSH1 0x51 SHL PUSH1 0x44 DUP3 ADD MSTORE PUSH1 0x64 ADD PUSH2 0x2A3 JUMP JUMPDEST JUMP JUMPDEST CALLER PUSH1 0x1 PUSH1 0x1 PUSH1 0xA0 SHL SUB DUP3 AND SUB PUSH2 0x664 JUMPI PUSH1 0x40 MLOAD PUSH3 0x461BCD PUSH1 0xE5 SHL DUP2 MSTORE PUSH1 0x20 PUSH1 0x4 DUP3 ADD MSTORE PUSH1 0x17 PUSH1 0x24 DUP3 ADD MSTORE PUSH23 0x21B0B73737BA103A3930B739B332B9103A379039B2B633 PUSH1 0x49 SHL PUSH1 0x44 DUP3 ADD MSTORE PUSH1 0x64 ADD PUSH2 0x2A3 JUMP JUMPDEST PUSH1 0x7 DUP1 SLOAD PUSH1 0x1 PUSH1 0x1 PUSH1 0xA0 SHL SUB NOT AND PUSH1 0x1 PUSH1 0x1 PUSH1 0xA0 SHL SUB DUP4 DUP2 AND SWAP2 DUP3 OR SWAP1 SWAP3 SSTORE PUSH1 0x6 SLOAD PUSH1 0x40 MLOAD SWAP2 SWAP3 AND SWAP1 PUSH32 0xED8889F560326EB138920D842192F0EB3DD22B4F139C87A2C57538E05BAE1278 SWAP1 PUSH0 SWAP1 LOG3 POP JUMP JUMPDEST PUSH2 0x6BD PUSH2 0xD33 JUMP JUMPDEST PUSH2 0x6CD DUP6 PUSH1 0x80 ADD MLOAD PUSH2 0x100 PUSH2 0x7FA JUMP JUMPDEST POP POP SWAP2 DUP4 MSTORE PUSH1 0x1 PUSH1 0x1 PUSH1 0xA0 SHL SUB AND PUSH1 0x20 DUP4 ADD MSTORE PUSH1 0x1 PUSH1 0x1 PUSH1 0xE0 SHL SUB NOT AND PUSH1 0x40 DUP3 ADD MSTORE SWAP1 JUMP JUMPDEST PUSH2 0x6FF DUP3 PUSH1 0x3 DUP4 MLOAD PUSH2 0x851 JUMP JUMPDEST PUSH2 0x578 DUP3 DUP3 PUSH2 0x95E JUMP JUMPDEST PUSH8 0xFFFFFFFFFFFFFFFF NOT DUP2 SLT ISZERO PUSH2 0x728 JUMPI PUSH2 0x724 DUP3 DUP3 PUSH2 0x977 JUMP JUMPDEST POP POP JUMP JUMPDEST PUSH1 0x1 PUSH1 0x1 PUSH1 0x40 SHL SUB DUP2 SGT ISZERO PUSH2 0x741 JUMPI PUSH2 0x724 DUP3 DUP3 PUSH2 0x9B8 JUMP JUMPDEST PUSH0 DUP2 SLT PUSH2 0x753 JUMPI PUSH2 0x724 DUP3 PUSH0 DUP4 PUSH2 0x851 JUMP JUMPDEST PUSH2 0x724 DUP3 PUSH1 0x1 PUSH2 0x764 DUP5 PUSH0 NOT PUSH2 0xE51 JUMP JUMPDEST PUSH2 0x851 JUMP JUMPDEST PUSH1 0x4 SLOAD PUSH0 SWAP1 PUSH2 0x779 DUP2 PUSH1 0x1 PUSH2 0xE77 JUMP JUMPDEST PUSH1 0x4 SSTORE DUP4 MLOAD PUSH1 0x40 DUP1 DUP7 ADD MLOAD PUSH1 0x80 DUP8 ADD MLOAD MLOAD SWAP2 MLOAD PUSH0 SWAP4 PUSH4 0x20214CA3 PUSH1 0xE1 SHL SWAP4 PUSH2 0x7B0 SWAP4 DUP7 SWAP4 DUP5 SWAP4 SWAP3 ADDRESS SWAP3 SWAP2 DUP11 SWAP2 PUSH1 0x1 SWAP2 PUSH1 0x24 ADD PUSH2 0xEB8 JUMP JUMPDEST PUSH1 0x40 DUP1 MLOAD PUSH1 0x1F NOT DUP2 DUP5 SUB ADD DUP2 MSTORE SWAP2 SWAP1 MSTORE PUSH1 0x20 DUP2 ADD DUP1 MLOAD PUSH1 0x1 PUSH1 0x1 PUSH1 0xE0 SHL SUB AND PUSH1 0x1 PUSH1 0x1 PUSH1 0xE0 SHL SUB NOT SWAP1 SWAP4 AND SWAP3 SWAP1 SWAP3 OR SWAP1 SWAP2 MSTORE SWAP1 POP PUSH2 0x7F0 DUP7 DUP4 DUP7 DUP5 PUSH2 0x9DB JUMP JUMPDEST SWAP7 SWAP6 POP POP POP POP POP POP JUMP JUMPDEST PUSH2 0x802 PUSH2 0xD76 JUMP JUMPDEST PUSH2 0x80D PUSH1 0x20 DUP4 PUSH2 0xF1E JUMP JUMPDEST ISZERO PUSH2 0x835 JUMPI PUSH2 0x81D PUSH1 0x20 DUP4 PUSH2 0xF1E JUMP JUMPDEST PUSH2 0x828 SWAP1 PUSH1 0x20 PUSH2 0xF3D JUMP JUMPDEST PUSH2 0x832 SWAP1 DUP4 PUSH2 0xE77 JUMP JUMPDEST SWAP2 POP JUMPDEST POP PUSH1 0x20 DUP3 DUP2 ADD DUP3 SWAP1 MSTORE PUSH1 0x40 DUP1 MLOAD DUP1 DUP6 MSTORE PUSH0 DUP2 MSTORE SWAP1 SWAP3 ADD ADD SWAP1 MSTORE SWAP1 JUMP JUMPDEST PUSH1 0x17 DUP2 PUSH1 0x1 PUSH1 0x1 PUSH1 0x40 SHL SUB AND GT PUSH2 0x87B JUMPI PUSH2 0x875 DUP4 PUSH1 0xE0 PUSH1 0x5 DUP6 SWAP1 SHL AND DUP4 OR PUSH2 0xB2F JUMP JUMPDEST POP POP POP POP JUMP JUMPDEST PUSH1 0xFF DUP2 PUSH1 0x1 PUSH1 0x1 PUSH1 0x40 SHL SUB AND GT PUSH2 0x8B7 JUMPI PUSH2 0x8A1 DUP4 PUSH1 0x18 PUSH2 0x1FE0 PUSH1 0x5 DUP7 SWAP1 SHL AND OR PUSH2 0xB2F JUMP JUMPDEST POP PUSH2 0x875 DUP4 PUSH1 0x1 PUSH1 0x1 PUSH1 0x40 SHL SUB DUP4 AND PUSH1 0x1 PUSH2 0xB46 JUMP JUMPDEST PUSH2 0xFFFF DUP2 PUSH1 0x1 PUSH1 0x1 PUSH1 0x40 SHL SUB AND GT PUSH2 0x8F4 JUMPI PUSH2 0x8DE DUP4 PUSH1 0x19 PUSH2 0x1FE0 PUSH1 0x5 DUP7 SWAP1 SHL AND OR PUSH2 0xB2F JUMP JUMPDEST POP PUSH2 0x875 DUP4 PUSH1 0x1 PUSH1 0x1 PUSH1 0x40 SHL SUB DUP4 AND PUSH1 0x2 PUSH2 0xB46 JUMP JUMPDEST PUSH4 0xFFFFFFFF DUP2 PUSH1 0x1 PUSH1 0x1 PUSH1 0x40 SHL SUB AND GT PUSH2 0x933 JUMPI PUSH2 0x91D DUP4 PUSH1 0x1A PUSH2 0x1FE0 PUSH1 0x5 DUP7 SWAP1 SHL AND OR PUSH2 0xB2F JUMP JUMPDEST POP PUSH2 0x875 DUP4 PUSH1 0x1 PUSH1 0x1 PUSH1 0x40 SHL SUB DUP4 AND PUSH1 0x4 PUSH2 0xB46 JUMP JUMPDEST PUSH2 0x948 DUP4 PUSH1 0x1B PUSH2 0x1FE0 PUSH1 0x5 DUP7 SWAP1 SHL AND OR PUSH2 0xB2F JUMP JUMPDEST POP PUSH2 0x875 DUP4 PUSH1 0x1 PUSH1 0x1 PUSH1 0x40 SHL SUB DUP4 AND PUSH1 0x8 PUSH2 0xB46 JUMP JUMPDEST PUSH2 0x966 PUSH2 0xD76 JUMP JUMPDEST PUSH2 0x5B4 DUP4 DUP5 PUSH0 ADD MLOAD MLOAD DUP5 DUP6 MLOAD PUSH2 0xB5E JUMP JUMPDEST PUSH2 0x982 DUP3 PUSH1 0xC3 PUSH2 0xB2F JUMP JUMPDEST POP PUSH2 0x724 DUP3 PUSH2 0x992 DUP4 PUSH0 NOT PUSH2 0xE51 JUMP JUMPDEST PUSH1 0x40 MLOAD PUSH1 0x20 ADD PUSH2 0x9A4 SWAP2 DUP2 MSTORE PUSH1 0x20 ADD SWAP1 JUMP JUMPDEST PUSH1 0x40 MLOAD PUSH1 0x20 DUP2 DUP4 SUB SUB DUP2 MSTORE SWAP1 PUSH1 0x40 MSTORE PUSH2 0xC38 JUMP JUMPDEST PUSH2 0x9C3 DUP3 PUSH1 0xC2 PUSH2 0xB2F JUMP JUMPDEST POP PUSH2 0x724 DUP3 DUP3 PUSH1 0x40 MLOAD PUSH1 0x20 ADD PUSH2 0x9A4 SWAP2 DUP2 MSTORE PUSH1 0x20 ADD SWAP1 JUMP JUMPDEST PUSH1 0x40 MLOAD PUSH1 0x1 PUSH1 0x1 PUSH1 0x60 SHL SUB NOT ADDRESS PUSH1 0x60 SHL AND PUSH1 0x20 DUP3 ADD MSTORE PUSH1 0x34 DUP2 ADD DUP5 SWAP1 MSTORE PUSH0 SWAP1 PUSH1 0x54 ADD PUSH1 0x40 DUP1 MLOAD DUP1 DUP4 SUB PUSH1 0x1F NOT ADD DUP2 MSTORE DUP3 DUP3 MSTORE DUP1 MLOAD PUSH1 0x20 SWAP2 DUP3 ADD KECCAK256 PUSH0 DUP2 DUP2 MSTORE PUSH1 0x5 SWAP1 SWAP3 MSTORE SWAP2 DUP2 KECCAK256 DUP1 SLOAD PUSH1 0x1 PUSH1 0x1 PUSH1 0xA0 SHL SUB NOT AND PUSH1 0x1 PUSH1 0x1 PUSH1 0xA0 SHL SUB DUP11 AND OR SWAP1 SSTORE SWAP1 SWAP3 POP DUP3 SWAP2 PUSH32 0xB5E6E01E79F91267DC17B4E6314D5D4D03593D2CEEE0FBB452B750BD70EA5AF9 SWAP2 SWAP1 LOG2 PUSH1 0x2 SLOAD PUSH1 0x40 MLOAD PUSH4 0x2000575 PUSH1 0xE5 SHL DUP2 MSTORE PUSH1 0x1 PUSH1 0x1 PUSH1 0xA0 SHL SUB SWAP1 SWAP2 AND SWAP1 PUSH4 0x4000AEA0 SWAP1 PUSH2 0xA97 SWAP1 DUP9 SWAP1 DUP8 SWAP1 DUP8 SWAP1 PUSH1 0x4 ADD PUSH2 0xF50 JUMP JUMPDEST PUSH1 0x20 PUSH1 0x40 MLOAD DUP1 DUP4 SUB DUP2 PUSH0 DUP8 GAS CALL ISZERO DUP1 ISZERO PUSH2 0xAB3 JUMPI RETURNDATASIZE PUSH0 PUSH0 RETURNDATACOPY RETURNDATASIZE PUSH0 REVERT JUMPDEST POP POP POP POP PUSH1 0x40 MLOAD RETURNDATASIZE PUSH1 0x1F NOT PUSH1 0x1F DUP3 ADD AND DUP3 ADD DUP1 PUSH1 0x40 MSTORE POP DUP2 ADD SWAP1 PUSH2 0xAD7 SWAP2 SWAP1 PUSH2 0xE1E JUMP JUMPDEST PUSH2 0x227 JUMPI PUSH1 0x40 MLOAD PUSH3 0x461BCD PUSH1 0xE5 SHL DUP2 MSTORE PUSH1 0x20 PUSH1 0x4 DUP3 ADD MSTORE PUSH1 0x23 PUSH1 0x24 DUP3 ADD MSTORE PUSH32 0x756E61626C6520746F207472616E73666572416E6443616C6C20746F206F7261 PUSH1 0x44 DUP3 ADD MSTORE PUSH3 0x636C65 PUSH1 0xE8 SHL PUSH1 0x64 DUP3 ADD MSTORE PUSH1 0x84 ADD PUSH2 0x2A3 JUMP JUMPDEST PUSH2 0xB37 PUSH2 0xD76 JUMP JUMPDEST PUSH2 0x5B4 DUP4 DUP5 PUSH0 ADD MLOAD MLOAD DUP5 PUSH2 0xC45 JUMP JUMPDEST PUSH2 0xB4E PUSH2 0xD76 JUMP JUMPDEST PUSH2 0x227 DUP5 DUP6 PUSH0 ADD MLOAD MLOAD DUP6 DUP6 PUSH2 0xC93 JUMP JUMPDEST PUSH2 0xB66 PUSH2 0xD76 JUMP JUMPDEST DUP3 MLOAD DUP3 GT ISZERO PUSH2 0xB73 JUMPI PUSH0 PUSH0 REVERT JUMPDEST PUSH1 0x20 DUP6 ADD MLOAD PUSH2 0xB82 DUP4 DUP7 PUSH2 0xE77 JUMP JUMPDEST GT ISZERO PUSH2 0xBB5 JUMPI PUSH2 0xBB5 DUP6 PUSH2 0xBA5 DUP8 PUSH1 0x20 ADD MLOAD DUP8 DUP7 PUSH2 0xBA0 SWAP2 SWAP1 PUSH2 0xE77 JUMP JUMPDEST PUSH2 0xD06 JUMP JUMPDEST PUSH2 0xBB0 SWAP1 PUSH1 0x2 PUSH2 0xF76 JUMP JUMPDEST PUSH2 0xD1C JUMP JUMPDEST PUSH0 PUSH0 DUP7 MLOAD DUP1 MLOAD DUP8 PUSH1 0x20 DUP4 ADD ADD SWAP4 POP DUP1 DUP9 DUP8 ADD GT ISZERO PUSH2 0xBD3 JUMPI DUP8 DUP7 ADD DUP3 MSTORE JUMPDEST POP POP POP PUSH1 0x20 DUP5 ADD JUMPDEST PUSH1 0x20 DUP5 LT PUSH2 0xC13 JUMPI DUP1 MLOAD DUP3 MSTORE PUSH2 0xBF2 PUSH1 0x20 DUP4 PUSH2 0xE77 JUMP JUMPDEST SWAP2 POP PUSH2 0xBFF PUSH1 0x20 DUP3 PUSH2 0xE77 JUMP JUMPDEST SWAP1 POP PUSH2 0xC0C PUSH1 0x20 DUP6 PUSH2 0xF3D JUMP JUMPDEST SWAP4 POP PUSH2 0xBDB JUMP JUMPDEST MLOAD DUP2 MLOAD PUSH0 NOT PUSH1 0x20 DUP7 SWAP1 SUB PUSH2 0x100 EXP ADD SWAP1 DUP2 AND SWAP1 NOT SWAP2 SWAP1 SWAP2 AND OR SWAP1 MSTORE POP DUP4 SWAP5 SWAP4 POP POP POP POP JUMP JUMPDEST PUSH2 0x6FF DUP3 PUSH1 0x2 DUP4 MLOAD PUSH2 0x851 JUMP JUMPDEST PUSH2 0xC4D PUSH2 0xD76 JUMP JUMPDEST DUP4 PUSH1 0x20 ADD MLOAD DUP4 LT PUSH2 0xC6D JUMPI PUSH2 0xC6D DUP5 DUP6 PUSH1 0x20 ADD MLOAD PUSH1 0x2 PUSH2 0xBB0 SWAP2 SWAP1 PUSH2 0xF76 JUMP JUMPDEST DUP4 MLOAD DUP1 MLOAD PUSH1 0x20 DUP6 DUP4 ADD ADD DUP5 DUP2 MSTORE8 POP DUP1 DUP6 SUB PUSH2 0xC89 JUMPI PUSH1 0x1 DUP2 ADD DUP3 MSTORE JUMPDEST POP SWAP4 SWAP5 SWAP4 POP POP POP POP JUMP JUMPDEST PUSH2 0xC9B PUSH2 0xD76 JUMP JUMPDEST PUSH1 0x20 DUP6 ADD MLOAD PUSH2 0xCAA DUP6 DUP5 PUSH2 0xE77 JUMP JUMPDEST GT ISZERO PUSH2 0xCBE JUMPI PUSH2 0xCBE DUP6 PUSH2 0xBA5 DUP7 DUP6 PUSH2 0xE77 JUMP JUMPDEST PUSH0 PUSH1 0x1 PUSH2 0xCCD DUP5 PUSH2 0x100 PUSH2 0x1070 JUMP JUMPDEST PUSH2 0xCD7 SWAP2 SWAP1 PUSH2 0xF3D JUMP JUMPDEST SWAP1 POP DUP6 MLOAD DUP4 DUP7 DUP3 ADD ADD DUP6 DUP4 NOT DUP3 MLOAD AND OR DUP2 MSTORE POP DUP1 MLOAD DUP5 DUP8 ADD GT ISZERO PUSH2 0xCFB JUMPI DUP4 DUP7 ADD DUP2 MSTORE JUMPDEST POP SWAP5 SWAP6 SWAP5 POP POP POP POP POP JUMP JUMPDEST PUSH0 DUP2 DUP4 GT ISZERO PUSH2 0xD16 JUMPI POP DUP2 PUSH2 0x5B7 JUMP JUMPDEST POP SWAP2 SWAP1 POP JUMP JUMPDEST DUP2 MLOAD PUSH2 0xD28 DUP4 DUP4 PUSH2 0x7FA JUMP JUMPDEST POP PUSH2 0x875 DUP4 DUP3 PUSH2 0x95E JUMP JUMPDEST PUSH1 0x40 MLOAD DUP1 PUSH1 0xA0 ADD PUSH1 0x40 MSTORE DUP1 PUSH0 DUP2 MSTORE PUSH1 0x20 ADD PUSH0 PUSH1 0x1 PUSH1 0x1 PUSH1 0xA0 SHL SUB AND DUP2 MSTORE PUSH1 0x20 ADD PUSH0 PUSH1 0x1 PUSH1 0x1 PUSH1 0xE0 SHL SUB NOT AND DUP2 MSTORE PUSH1 0x20 ADD PUSH0 DUP2 MSTORE PUSH1 0x20 ADD PUSH2 0xD71 PUSH2 0xD76 JUMP JUMPDEST SWAP1 MSTORE SWAP1 JUMP JUMPDEST PUSH1 0x40 MLOAD DUP1 PUSH1 0x40 ADD PUSH1 0x40 MSTORE DUP1 PUSH1 0x60 DUP2 MSTORE PUSH1 0x20 ADD PUSH0 DUP2 MSTORE POP SWAP1 JUMP JUMPDEST PUSH0 PUSH1 0x20 DUP3 DUP5 SUB SLT ISZERO PUSH2 0xD9F JUMPI PUSH0 PUSH0 REVERT JUMPDEST POP CALLDATALOAD SWAP2 SWAP1 POP JUMP JUMPDEST PUSH0 PUSH0 PUSH1 0x40 DUP4 DUP6 SUB SLT ISZERO PUSH2 0xDB7 JUMPI PUSH0 PUSH0 REVERT JUMPDEST POP POP DUP1 CALLDATALOAD SWAP3 PUSH1 0x20 SWAP1 SWAP2 ADD CALLDATALOAD SWAP2 POP JUMP JUMPDEST PUSH1 0x1 PUSH1 0x1 PUSH1 0xA0 SHL SUB SWAP2 SWAP1 SWAP2 AND DUP2 MSTORE PUSH1 0x20 ADD SWAP1 JUMP JUMPDEST PUSH0 PUSH1 0x20 DUP3 DUP5 SUB SLT ISZERO PUSH2 0xDEA JUMPI PUSH0 PUSH0 REVERT JUMPDEST DUP2 CALLDATALOAD PUSH1 0x1 PUSH1 0x1 PUSH1 0xA0 SHL SUB DUP2 AND DUP2 EQ PUSH2 0xE00 JUMPI PUSH0 PUSH0 REVERT JUMPDEST SWAP4 SWAP3 POP POP POP JUMP JUMPDEST PUSH0 PUSH1 0x20 DUP3 DUP5 SUB SLT ISZERO PUSH2 0xE17 JUMPI PUSH0 PUSH0 REVERT JUMPDEST POP MLOAD SWAP2 SWAP1 POP JUMP JUMPDEST PUSH0 PUSH1 0x20 DUP3 DUP5 SUB SLT ISZERO PUSH2 0xE2E JUMPI PUSH0 PUSH0 REVERT JUMPDEST DUP2 MLOAD DUP1 ISZERO ISZERO DUP2 EQ PUSH2 0xE00 JUMPI PUSH0 PUSH0 REVERT JUMPDEST PUSH4 0x4E487B71 PUSH1 0xE0 SHL PUSH0 MSTORE PUSH1 0x11 PUSH1 0x4 MSTORE PUSH1 0x24 PUSH0 REVERT JUMPDEST DUP2 DUP2 SUB PUSH0 DUP4 SLT DUP1 ISZERO DUP4 DUP4 SGT AND DUP4 DUP4 SLT DUP3 AND OR ISZERO PUSH2 0xE70 JUMPI PUSH2 0xE70 PUSH2 0xE3D JUMP JUMPDEST POP SWAP3 SWAP2 POP POP JUMP JUMPDEST DUP1 DUP3 ADD DUP1 DUP3 GT ISZERO PUSH2 0x5B7 JUMPI PUSH2 0x5B7 PUSH2 0xE3D JUMP JUMPDEST PUSH0 DUP2 MLOAD DUP1 DUP5 MSTORE DUP1 PUSH1 0x20 DUP5 ADD PUSH1 0x20 DUP7 ADD MCOPY PUSH0 PUSH1 0x20 DUP3 DUP7 ADD ADD MSTORE PUSH1 0x20 PUSH1 0x1F NOT PUSH1 0x1F DUP4 ADD AND DUP6 ADD ADD SWAP2 POP POP SWAP3 SWAP2 POP POP JUMP JUMPDEST PUSH1 0x1 PUSH1 0x1 PUSH1 0xA0 SHL SUB DUP10 DUP2 AND DUP3 MSTORE PUSH1 0x20 DUP3 ADD DUP10 SWAP1 MSTORE PUSH1 0x40 DUP3 ADD DUP9 SWAP1 MSTORE DUP7 AND PUSH1 0x60 DUP3 ADD MSTORE PUSH1 0x1 PUSH1 0x1 PUSH1 0xE0 SHL SUB NOT DUP6 AND PUSH1 0x80 DUP3 ADD MSTORE PUSH1 0xA0 DUP2 ADD DUP5 SWAP1 MSTORE PUSH1 0xC0 DUP2 ADD DUP4 SWAP1 MSTORE PUSH2 0x100 PUSH1 0xE0 DUP3 ADD DUP2 SWAP1 MSTORE PUSH0 SWAP1 PUSH2 0xF10 SWAP1 DUP4 ADD DUP5 PUSH2 0xE8A JUMP JUMPDEST SWAP11 SWAP10 POP POP POP POP POP POP POP POP POP POP JUMP JUMPDEST PUSH0 DUP3 PUSH2 0xF38 JUMPI PUSH4 0x4E487B71 PUSH1 0xE0 SHL PUSH0 MSTORE PUSH1 0x12 PUSH1 0x4 MSTORE PUSH1 0x24 PUSH0 REVERT JUMPDEST POP MOD SWAP1 JUMP JUMPDEST DUP2 DUP2 SUB DUP2 DUP2 GT ISZERO PUSH2 0x5B7 JUMPI PUSH2 0x5B7 PUSH2 0xE3D JUMP JUMPDEST PUSH1 0x1 DUP1 PUSH1 0xA0 SHL SUB DUP5 AND DUP2 MSTORE DUP3 PUSH1 0x20 DUP3 ADD MSTORE PUSH1 0x60 PUSH1 0x40 DUP3 ADD MSTORE PUSH0 PUSH2 0x551 PUSH1 0x60 DUP4 ADD DUP5 PUSH2 0xE8A JUMP JUMPDEST DUP1 DUP3 MUL DUP2 ISZERO DUP3 DUP3 DIV DUP5 EQ OR PUSH2 0x5B7 JUMPI PUSH2 0x5B7 PUSH2 0xE3D JUMP JUMPDEST PUSH1 0x1 DUP2 JUMPDEST PUSH1 0x1 DUP5 GT ISZERO PUSH2 0xFC8 JUMPI DUP1 DUP6 DIV DUP2 GT ISZERO PUSH2 0xFAC JUMPI PUSH2 0xFAC PUSH2 0xE3D JUMP JUMPDEST PUSH1 0x1 DUP5 AND ISZERO PUSH2 0xFBA JUMPI SWAP1 DUP2 MUL SWAP1 JUMPDEST PUSH1 0x1 SWAP4 SWAP1 SWAP4 SHR SWAP3 DUP1 MUL PUSH2 0xF91 JUMP JUMPDEST SWAP4 POP SWAP4 SWAP2 POP POP JUMP JUMPDEST PUSH0 DUP3 PUSH2 0xFDE JUMPI POP PUSH1 0x1 PUSH2 0x5B7 JUMP JUMPDEST DUP2 PUSH2 0xFEA JUMPI POP PUSH0 PUSH2 0x5B7 JUMP JUMPDEST DUP2 PUSH1 0x1 DUP2 EQ PUSH2 0x1000 JUMPI PUSH1 0x2 DUP2 EQ PUSH2 0x100A JUMPI PUSH2 0x1026 JUMP JUMPDEST PUSH1 0x1 SWAP2 POP POP PUSH2 0x5B7 JUMP JUMPDEST PUSH1 0xFF DUP5 GT ISZERO PUSH2 0x101B JUMPI PUSH2 0x101B PUSH2 0xE3D JUMP JUMPDEST POP POP PUSH1 0x1 DUP3 SHL PUSH2 0x5B7 JUMP JUMPDEST POP PUSH1 0x20 DUP4 LT PUSH2 0x133 DUP4 LT AND PUSH1 0x4E DUP5 LT PUSH1 0xB DUP5 LT AND OR ISZERO PUSH2 0x1049 JUMPI POP DUP2 DUP2 EXP PUSH2 0x5B7 JUMP JUMPDEST PUSH2 0x1055 PUSH0 NOT DUP5 DUP5 PUSH2 0xF8D JUMP JUMPDEST DUP1 PUSH0 NOT DIV DUP3 GT ISZERO PUSH2 0x1068 JUMPI PUSH2 0x1068 PUSH2 0xE3D JUMP JUMPDEST MUL SWAP4 SWAP3 POP POP POP JUMP JUMPDEST PUSH0 PUSH2 0x5B4 DUP4 DUP4 PUSH2 0xFD0 JUMP INVALID PUSH9 0x747470733A2F2F6133 CALLVALUE PUSH3 0x2D3130 BALANCE 0x2D BALANCE BALANCE CALLDATALOAD 0x2D BALANCE CODECOPY 0x2D BALANCE CALLDATASIZE CALLDATASIZE 0x2E PUSH15 0x67726F6B2D667265652E6170702F63 PUSH9 0x65636BA26469706673 PC 0x22 SLT KECCAK256 0xC2 SHL 0xE8 0xE2 SWAP15 0x2D 0xBB DUP13 0x23 0xC2 GASPRICE 0xDF BALANCE DUP2 SDIV PUSH6 0x5DEBC5BF0361 ADDRESS DUP14 0xF6 DUP5 0xB4 0x2C PUSH21 0x4F205764736F6C634300081D0033A2646970667358 0x22 SLT KECCAK256 PUSH20 0x83DBE637C4B23346073B67683CA52085A2D060F5 0x4C 0xAB 0xB3 0xB3 0xA9 CALLDATALOAD GAS PUSH18 0x6C00BB64736F6C634300081D003300000000 "
		},
		"gasEstimates": {
			"creation": {
				"codeDepositCost": "1053000",
				"executionCost": "1092",
				"totalCost": "1054092"
			},
			"external": {
				"apiConsumer()": "2301",
				"deployAPI()": "infinite",
				"test()": "1794"
			}
		},
		"methodIdentifiers": {
			"apiConsumer()": "242ab021",
			"deployAPI()": "51d3c99b",
			"test()": "f8a8fd6d"
		}
	},
	"abi": [
		{
			"anonymous": false,
			"inputs": [
				{
					"indexed": false,
					"internalType": "string",
					"name": "",
					"type": "string"
				}
			],
			"name": "Test",
			"type": "event"
		},
		{
			"inputs": [],
			"name": "apiConsumer",
			"outputs": [
				{
					"internalType": "contract APIConsumer",
					"name": "",
					"type": "address"
				}
			],
			"stateMutability": "view",
			"type": "function"
		},
		{
			"inputs": [],
			"name": "deployAPI",
			"outputs": [],
			"stateMutability": "nonpayable",
			"type": "function"
		},
		{
			"inputs": [],
			"name": "test",
			"outputs": [],
			"stateMutability": "nonpayable",
			"type": "function"
		}
	]
}