{
	"data": {
		"bytecode": {
			"linkReferences": {},
			"object": "60a060405234801561000f575f5ffd5b5060405161061b38038061061b83398181016040528101906100319190610083565b8060808181525050426001819055505f5f81905550506100ae565b5f5ffd5b5f819050919050565b61006281610050565b811461006c575f5ffd5b50565b5f8151905061007d81610059565b92915050565b5f602082840312156100985761009761004c565b5b5f6100a58482850161006f565b91505092915050565b6080516105476100d45f395f81816101080152818161019b01526101d401526105475ff3fe608060405234801561000f575f5ffd5b5060043610610055575f3560e01c80633f3b3b27146100595780634585e33b1461007757806361bc221a146100935780636e04ff0d146100b1578063947a36fb146100e2575b5f5ffd5b610061610100565b60405161006e919061020e565b60405180910390f35b610091600480360381019061008c9190610290565b610106565b005b61009b610191565b6040516100a8919061020e565b60405180910390f35b6100cb60048036038101906100c69190610290565b610196565b6040516100d9929190610365565b60405180910390f35b6100ea6101d2565b6040516100f7919061020e565b60405180910390f35b60015481565b7f00000000000000000000000000000000000000000000000000000000000000006001544261013591906103c0565b111561018d574260018190555060015f5461015091906103f3565b5f819055507f6e2a249f337843fe5c78197d8100b8d982b5341434a84876190dacb9e649fdf33360405161018491906104e5565b60405180910390a15b5050565b5f5481565b5f60607f0000000000000000000000000000000000000000000000000000000000000000600154426101c891906103c0565b1191509250929050565b7f000000000000000000000000000000000000000000000000000000000000000081565b5f819050919050565b610208816101f6565b82525050565b5f6020820190506102215f8301846101ff565b92915050565b5f5ffd5b5f5ffd5b5f5ffd5b5f5ffd5b5f5ffd5b5f5f83601f8401126102505761024f61022f565b5b8235905067ffffffffffffffff81111561026d5761026c610233565b5b60208301915083600182028301111561028957610288610237565b5b9250929050565b5f5f602083850312156102a6576102a5610227565b5b5f83013567ffffffffffffffff8111156102c3576102c261022b565b5b6102cf8582860161023b565b92509250509250929050565b5f8115159050919050565b6102ef816102db565b82525050565b5f81519050919050565b5f82825260208201905092915050565b8281835e5f83830152505050565b5f601f19601f8301169050919050565b5f610337826102f5565b61034181856102ff565b935061035181856020860161030f565b61035a8161031d565b840191505092915050565b5f6040820190506103785f8301856102e6565b818103602083015261038a818461032d565b90509392505050565b7f4e487b71000000000000000000000000000000000000000000000000000000005f52601160045260245ffd5b5f6103ca826101f6565b91506103d5836101f6565b92508282039050818111156103ed576103ec610393565b5b92915050565b5f6103fd826101f6565b9150610408836101f6565b92508282019050808211156104205761041f610393565b5b92915050565b5f73ffffffffffffffffffffffffffffffffffffffff82169050919050565b5f61044f82610426565b9050919050565b61045f81610445565b82525050565b5f82825260208201905092915050565b7f49742069732074696d6520666f7220796f7572206d6f6e69746f72696e6720735f8201527f657373696f6e0000000000000000000000000000000000000000000000000000602082015250565b5f6104cf602683610465565b91506104da82610475565b604082019050919050565b5f6040820190506104f85f830184610456565b8181036020830152610509816104c3565b90509291505056fea26469706673582212203b87e531dcba9df99cb26a1e0997c21deb7ac9182ab5a96c409b51972e5bf50064736f6c634300081d0033",
			"opcodes": "PUSH1 0xA0 PUSH1 0x40 MSTORE CALLVALUE DUP1 ISZERO PUSH2 0xF JUMPI PUSH0 PUSH0 REVERT JUMPDEST POP PUSH1 0x40 MLOAD PUSH2 0x61B CODESIZE SUB DUP1 PUSH2 0x61B DUP4 CODECOPY DUP2 DUP2 ADD PUSH1 0x40 MSTORE DUP2 ADD SWAP1 PUSH2 0x31 SWAP2 SWAP1 PUSH2 0x83 JUMP JUMPDEST DUP1 PUSH1 0x80 DUP2 DUP2 MSTORE POP POP TIMESTAMP PUSH1 0x1 DUP2 SWAP1 SSTORE POP PUSH0 PUSH0 DUP2 SWAP1 SSTORE POP POP PUSH2 0xAE JUMP JUMPDEST PUSH0 PUSH0 REVERT JUMPDEST PUSH0 DUP2 SWAP1 POP SWAP2 SWAP1 POP JUMP JUMPDEST PUSH2 0x62 DUP2 PUSH2 0x50 JUMP JUMPDEST DUP2 EQ PUSH2 0x6C JUMPI PUSH0 PUSH0 REVERT JUMPDEST POP JUMP JUMPDEST PUSH0 DUP2 MLOAD SWAP1 POP PUSH2 0x7D DUP2 PUSH2 0x59 JUMP JUMPDEST SWAP3 SWAP2 POP POP JUMP JUMPDEST PUSH0 PUSH1 0x20 DUP3 DUP5 SUB SLT ISZERO PUSH2 0x98 JUMPI PUSH2 0x97 PUSH2 0x4C JUMP JUMPDEST JUMPDEST PUSH0 PUSH2 0xA5 DUP5 DUP3 DUP6 ADD PUSH2 0x6F JUMP JUMPDEST SWAP2 POP POP SWAP3 SWAP2 POP POP JUMP JUMPDEST PUSH1 0x80 MLOAD PUSH2 0x547 PUSH2 0xD4 PUSH0 CODECOPY PUSH0 DUP2 DUP2 PUSH2 0x108 ADD MSTORE DUP2 DUP2 PUSH2 0x19B ADD MSTORE PUSH2 0x1D4 ADD MSTORE PUSH2 0x547 PUSH0 RETURN INVALID PUSH1 0x80 PUSH1 0x40 MSTORE CALLVALUE DUP1 ISZERO PUSH2 0xF JUMPI PUSH0 PUSH0 REVERT JUMPDEST POP PUSH1 0x4 CALLDATASIZE LT PUSH2 0x55 JUMPI PUSH0 CALLDATALOAD PUSH1 0xE0 SHR DUP1 PUSH4 0x3F3B3B27 EQ PUSH2 0x59 JUMPI DUP1 PUSH4 0x4585E33B EQ PUSH2 0x77 JUMPI DUP1 PUSH4 0x61BC221A EQ PUSH2 0x93 JUMPI DUP1 PUSH4 0x6E04FF0D EQ PUSH2 0xB1 JUMPI DUP1 PUSH4 0x947A36FB EQ PUSH2 0xE2 JUMPI JUMPDEST PUSH0 PUSH0 REVERT JUMPDEST PUSH2 0x61 PUSH2 0x100 JUMP JUMPDEST PUSH1 0x40 MLOAD PUSH2 0x6E SWAP2 SWAP1 PUSH2 0x20E JUMP JUMPDEST PUSH1 0x40 MLOAD DUP1 SWAP2 SUB SWAP1 RETURN JUMPDEST PUSH2 0x91 PUSH1 0x4 DUP1 CALLDATASIZE SUB DUP2 ADD SWAP1 PUSH2 0x8C SWAP2 SWAP1 PUSH2 0x290 JUMP JUMPDEST PUSH2 0x106 JUMP JUMPDEST STOP JUMPDEST PUSH2 0x9B PUSH2 0x191 JUMP JUMPDEST PUSH1 0x40 MLOAD PUSH2 0xA8 SWAP2 SWAP1 PUSH2 0x20E JUMP JUMPDEST PUSH1 0x40 MLOAD DUP1 SWAP2 SUB SWAP1 RETURN JUMPDEST PUSH2 0xCB PUSH1 0x4 DUP1 CALLDATASIZE SUB DUP2 ADD SWAP1 PUSH2 0xC6 SWAP2 SWAP1 PUSH2 0x290 JUMP JUMPDEST PUSH2 0x196 JUMP JUMPDEST PUSH1 0x40 MLOAD PUSH2 0xD9 SWAP3 SWAP2 SWAP1 PUSH2 0x365 JUMP JUMPDEST PUSH1 0x40 MLOAD DUP1 SWAP2 SUB SWAP1 RETURN JUMPDEST PUSH2 0xEA PUSH2 0x1D2 JUMP JUMPDEST PUSH1 0x40 MLOAD PUSH2 0xF7 SWAP2 SWAP1 PUSH2 0x20E JUMP JUMPDEST PUSH1 0x40 MLOAD DUP1 SWAP2 SUB SWAP1 RETURN JUMPDEST PUSH1 0x1 SLOAD DUP2 JUMP JUMPDEST PUSH32 0x0 PUSH1 0x1 SLOAD TIMESTAMP PUSH2 0x135 SWAP2 SWAP1 PUSH2 0x3C0 JUMP JUMPDEST GT ISZERO PUSH2 0x18D JUMPI TIMESTAMP PUSH1 0x1 DUP2 SWAP1 SSTORE POP PUSH1 0x1 PUSH0 SLOAD PUSH2 0x150 SWAP2 SWAP1 PUSH2 0x3F3 JUMP JUMPDEST PUSH0 DUP2 SWAP1 SSTORE POP PUSH32 0x6E2A249F337843FE5C78197D8100B8D982B5341434A84876190DACB9E649FDF3 CALLER PUSH1 0x40 MLOAD PUSH2 0x184 SWAP2 SWAP1 PUSH2 0x4E5 JUMP JUMPDEST PUSH1 0x40 MLOAD DUP1 SWAP2 SUB SWAP1 LOG1 JUMPDEST POP POP JUMP JUMPDEST PUSH0 SLOAD DUP2 JUMP JUMPDEST PUSH0 PUSH1 0x60 PUSH32 0x0 PUSH1 0x1 SLOAD TIMESTAMP PUSH2 0x1C8 SWAP2 SWAP1 PUSH2 0x3C0 JUMP JUMPDEST GT SWAP2 POP SWAP3 POP SWAP3 SWAP1 POP JUMP JUMPDEST PUSH32 0x0 DUP2 JUMP JUMPDEST PUSH0 DUP2 SWAP1 POP SWAP2 SWAP1 POP JUMP JUMPDEST PUSH2 0x208 DUP2 PUSH2 0x1F6 JUMP JUMPDEST DUP3 MSTORE POP POP JUMP JUMPDEST PUSH0 PUSH1 0x20 DUP3 ADD SWAP1 POP PUSH2 0x221 PUSH0 DUP4 ADD DUP5 PUSH2 0x1FF JUMP JUMPDEST SWAP3 SWAP2 POP POP JUMP JUMPDEST PUSH0 PUSH0 REVERT JUMPDEST PUSH0 PUSH0 REVERT JUMPDEST PUSH0 PUSH0 REVERT JUMPDEST PUSH0 PUSH0 REVERT JUMPDEST PUSH0 PUSH0 REVERT JUMPDEST PUSH0 PUSH0 DUP4 PUSH1 0x1F DUP5 ADD SLT PUSH2 0x250 JUMPI PUSH2 0x24F PUSH2 0x22F JUMP JUMPDEST JUMPDEST DUP3 CALLDATALOAD SWAP1 POP PUSH8 0xFFFFFFFFFFFFFFFF DUP2 GT ISZERO PUSH2 0x26D JUMPI PUSH2 0x26C PUSH2 0x233 JUMP JUMPDEST JUMPDEST PUSH1 0x20 DUP4 ADD SWAP2 POP DUP4 PUSH1 0x1 DUP3 MUL DUP4 ADD GT ISZERO PUSH2 0x289 JUMPI PUSH2 0x288 PUSH2 0x237 JUMP JUMPDEST JUMPDEST SWAP3 POP SWAP3 SWAP1 POP JUMP JUMPDEST PUSH0 PUSH0 PUSH1 0x20 DUP4 DUP6 SUB SLT ISZERO PUSH2 0x2A6 JUMPI PUSH2 0x2A5 PUSH2 0x227 JUMP JUMPDEST JUMPDEST PUSH0 DUP4 ADD CALLDATALOAD PUSH8 0xFFFFFFFFFFFFFFFF DUP2 GT ISZERO PUSH2 0x2C3 JUMPI PUSH2 0x2C2 PUSH2 0x22B JUMP JUMPDEST JUMPDEST PUSH2 0x2CF DUP6 DUP3 DUP7 ADD PUSH2 0x23B JUMP JUMPDEST SWAP3 POP SWAP3 POP POP SWAP3 POP SWAP3 SWAP1 POP JUMP JUMPDEST PUSH0 DUP2 ISZERO ISZERO SWAP1 POP SWAP2 SWAP1 POP JUMP JUMPDEST PUSH2 0x2EF DUP2 PUSH2 0x2DB JUMP JUMPDEST DUP3 MSTORE POP POP JUMP JUMPDEST PUSH0 DUP2 MLOAD SWAP1 POP SWAP2 SWAP1 POP JUMP JUMPDEST PUSH0 DUP3 DUP3 MSTORE PUSH1 0x20 DUP3 ADD SWAP1 POP SWAP3 SWAP2 POP POP JUMP JUMPDEST DUP3 DUP2 DUP4 MCOPY PUSH0 DUP4 DUP4 ADD MSTORE POP POP POP JUMP JUMPDEST PUSH0 PUSH1 0x1F NOT PUSH1 0x1F DUP4 ADD AND SWAP1 POP SWAP2 SWAP1 POP JUMP JUMPDEST PUSH0 PUSH2 0x337 DUP3 PUSH2 0x2F5 JUMP JUMPDEST PUSH2 0x341 DUP2 DUP6 PUSH2 0x2FF JUMP JUMPDEST SWAP4 POP PUSH2 0x351 DUP2 DUP6 PUSH1 0x20 DUP7 ADD PUSH2 0x30F JUMP JUMPDEST PUSH2 0x35A DUP2 PUSH2 0x31D JUMP JUMPDEST DUP5 ADD SWAP2 POP POP SWAP3 SWAP2 POP POP JUMP JUMPDEST PUSH0 PUSH1 0x40 DUP3 ADD SWAP1 POP PUSH2 0x378 PUSH0 DUP4 ADD DUP6 PUSH2 0x2E6 JUMP JUMPDEST DUP2 DUP2 SUB PUSH1 0x20 DUP4 ADD MSTORE PUSH2 0x38A DUP2 DUP5 PUSH2 0x32D JUMP JUMPDEST SWAP1 POP SWAP4 SWAP3 POP POP POP JUMP JUMPDEST PUSH32 0x4E487B7100000000000000000000000000000000000000000000000000000000 PUSH0 MSTORE PUSH1 0x11 PUSH1 0x4 MSTORE PUSH1 0x24 PUSH0 REVERT JUMPDEST PUSH0 PUSH2 0x3CA DUP3 PUSH2 0x1F6 JUMP JUMPDEST SWAP2 POP PUSH2 0x3D5 DUP4 PUSH2 0x1F6 JUMP JUMPDEST SWAP3 POP DUP3 DUP3 SUB SWAP1 POP DUP2 DUP2 GT ISZERO PUSH2 0x3ED JUMPI PUSH2 0x3EC PUSH2 0x393 JUMP JUMPDEST JUMPDEST SWAP3 SWAP2 POP POP JUMP JUMPDEST PUSH0 PUSH2 0x3FD DUP3 PUSH2 0x1F6 JUMP JUMPDEST SWAP2 POP PUSH2 0x408 DUP4 PUSH2 0x1F6 JUMP JUMPDEST SWAP3 POP DUP3 DUP3 ADD SWAP1 POP DUP1 DUP3 GT ISZERO PUSH2 0x420 JUMPI PUSH2 0x41F PUSH2 0x393 JUMP JUMPDEST JUMPDEST SWAP3 SWAP2 POP POP JUMP JUMPDEST PUSH0 PUSH20 0xFFFFFFFFFFFFFFFFFFFFFFFFFFFFFFFFFFFFFFFF DUP3 AND SWAP1 POP SWAP2 SWAP1 POP JUMP JUMPDEST PUSH0 PUSH2 0x44F DUP3 PUSH2 0x426 JUMP JUMPDEST SWAP1 POP SWAP2 SWAP1 POP JUMP JUMPDEST PUSH2 0x45F DUP2 PUSH2 0x445 JUMP JUMPDEST DUP3 MSTORE POP POP JUMP JUMPDEST PUSH0 DUP3 DUP3 MSTORE PUSH1 0x20 DUP3 ADD SWAP1 POP SWAP3 SWAP2 POP POP JUMP JUMPDEST PUSH32 0x49742069732074696D6520666F7220796F7572206D6F6E69746F72696E672073 PUSH0 DUP3 ADD MSTORE PUSH32 0x657373696F6E0000000000000000000000000000000000000000000000000000 PUSH1 0x20 DUP3 ADD MSTORE POP JUMP JUMPDEST PUSH0 PUSH2 0x4CF PUSH1 0x26 DUP4 PUSH2 0x465 JUMP JUMPDEST SWAP2 POP PUSH2 0x4DA DUP3 PUSH2 0x475 JUMP JUMPDEST PUSH1 0x40 DUP3 ADD SWAP1 POP SWAP2 SWAP1 POP JUMP JUMPDEST PUSH0 PUSH1 0x40 DUP3 ADD SWAP1 POP PUSH2 0x4F8 PUSH0 DUP4 ADD DUP5 PUSH2 0x456 JUMP JUMPDEST DUP2 DUP2 SUB PUSH1 0x20 DUP4 ADD MSTORE PUSH2 0x509 DUP2 PUSH2 0x4C3 JUMP JUMPDEST SWAP1 POP SWAP3 SWAP2 POP POP JUMP INVALID LOG2 PUSH5 0x6970667358 0x22 SLT KECCAK256 EXTCODESIZE DUP8 JUMPF 0x31DC 0xBA SWAP14 EXTDELEGATECALL SWAP13 0xB2 PUSH11 0x1E0997C21DEB7AC9182AB5 0xA9 PUSH13 0x409B51972E5BF50064736F6C63 NUMBER STOP ADDMOD SAR STOP CALLER "
		},
		"gasEstimates": {
			"creation": {
				"codeDepositCost": "270200",
				"executionCost": "infinite",
				"totalCost": "infinite"
			},
			"external": {
				"checkUpkeep(bytes)": "infinite",
				"counter()": "2446",
				"interval()": "infinite",
				"lastTimeStamp()": "2403",
				"performUpkeep(bytes)": "infinite"
			}
		},
		"methodIdentifiers": {
			"checkUpkeep(bytes)": "6e04ff0d",
			"counter()": "61bc221a",
			"interval()": "947a36fb",
			"lastTimeStamp()": "3f3b3b27",
			"performUpkeep(bytes)": "4585e33b"
		}
	},
	"abi": [
		{
			"inputs": [
				{
					"internalType": "uint256",
					"name": "updateInterval",
					"type": "uint256"
				}
			],
			"stateMutability": "nonpayable",
			"type": "constructor"
		},
		{
			"anonymous": false,
			"inputs": [
				{
					"indexed": false,
					"internalType": "address",
					"name": "addr",
					"type": "address"
				},
				{
					"indexed": false,
					"internalType": "string",
					"name": "message",
					"type": "string"
				}
			],
			"name": "SendAlert",
			"type": "event"
		},
		{
			"inputs": [
				{
					"internalType": "bytes",
					"name": "",
					"type": "bytes"
				}
			],
			"name": "checkUpkeep",
			"outputs": [
				{
					"internalType": "bool",
					"name": "upkeepNeeded",
					"type": "bool"
				},
				{
					"internalType": "bytes",
					"name": "",
					"type": "bytes"
				}
			],
			"stateMutability": "view",
			"type": "function"
		},
		{
			"inputs": [],
			"name": "counter",
			"outputs": [
				{
					"internalType": "uint256",
					"name": "",
					"type": "uint256"
				}
			],
			"stateMutability": "view",
			"type": "function"
		},
		{
			"inputs": [],
			"name": "interval",
			"outputs": [
				{
					"internalType": "uint256",
					"name": "",
					"type": "uint256"
				}
			],
			"stateMutability": "view",
			"type": "function"
		},
		{
			"inputs": [],
			"name": "lastTimeStamp",
			"outputs": [
				{
					"internalType": "uint256",
					"name": "",
					"type": "uint256"
				}
			],
			"stateMutability": "view",
			"type": "function"
		},
		{
			"inputs": [
				{
					"internalType": "bytes",
					"name": "",
					"type": "bytes"
				}
			],
			"name": "performUpkeep",
			"outputs": [],
			"stateMutability": "nonpayable",
			"type": "function"
		}
	]
}