{
	"data": {
		"bytecode": {
			"linkReferences": {},
			"object": "6080604052348015600e575f5ffd5b50614b9b8061001c5f395ff3fe608060405260043610610057575f3560e01c8063362e25651461015e57806376237c6c14610172578063830b75aa14610193578063de6f24bb146101a7578063e1095155146101c6578063f83d08ba146101e3575f5ffd5b3661015a575f546001600160a01b03166100b85760405162461bcd60e51b815260206004820152601f60248201527f4c6f636b20636f6e7472616374206e6f74206465706c6f796564207965742e0060448201526064015b60405180910390fd5b5f80546040516001600160a01b039091169047908381818185875af1925050503d805f8114610102576040519150601f19603f3d011682016040523d82523d5f602084013e610107565b606091505b50509050806101585760405162461bcd60e51b815260206004820152601d60248201527f4661696c656420746f2073656e6420457468657220746f204c6f636b2e00000060448201526064016100af565b005b5f5ffd5b348015610169575f5ffd5b50610158610219565b34801561017d575f5ffd5b50475b6040519081526020015b60405180910390f35b34801561019e575f5ffd5b506101586102d5565b3480156101b2575f5ffd5b506101586101c1366004610495565b6103a3565b3480156101d1575f5ffd5b505f546001600160a01b031631610180565b3480156101ee575f5ffd5b505f54610201906001600160a01b031681565b6040516001600160a01b03909116815260200161018a565b5f5460405163380555c560e21b81526004808201526001600160a01b0390911690635699fadc90829063e015571490602401602060405180830381865afa158015610266573d5f5f3e3d5ffd5b505050506040513d601f19601f8201168201806040525081019061028a919061051e565b6040518263ffffffff1660e01b81526004016102a69190610543565b5f604051808303815f87803b1580156102bd575f5ffd5b505af11580156102cf573d5f5f3e3d5ffd5b50505050565b6040516102e190610488565b604051809103905ff0801580156102fa573d5f5f3e3d5ffd5b505f80546001600160a01b0319166001600160a01b0392909216918217815560408051633bb060db60e01b81529051633bb060db9260048084019391929182900301818387803b15801561034c575f5ffd5b505af115801561035e573d5f5f3e3d5ffd5b50505f805460408051634b0da30f60e11b815290516001600160a01b03909216945063961b461e9350600480820193929182900301818387803b1580156102bd575f5ffd5b5f836001600160a01b031683836040516024016103c1929190610569565b60408051601f198184030181529181526020820180516001600160e01b0316632f049bf360e01b179052516103f69190610597565b5f604051808303815f865af19150503d805f811461042f576040519150601f19603f3d011682016040523d82523d5f602084013e610434565b606091505b50509050806104805760405162461bcd60e51b81526020600482015260186024820152774d6573736167652064656c6976657279206661696c65642160401b60448201526064016100af565b6102cf6102d5565b6145b8806105ae83390190565b5f5f5f604084860312156104a7575f5ffd5b83356001600160a01b03811681146104bd575f5ffd5b925060208401356001600160401b038111156104d7575f5ffd5b8401601f810186136104e7575f5ffd5b80356001600160401b038111156104fc575f5ffd5b86602082840101111561050d575f5ffd5b939660209190910195509293505050565b5f6020828403121561052e575f5ffd5b81516005811061053c575f5ffd5b9392505050565b602081016005831061056357634e487b7160e01b5f52602160045260245ffd5b91905290565b60208152816020820152818360408301375f818301604090810191909152601f909201601f19160101919050565b5f82518060208501845e5f92019182525091905056fe6080604052348015600e575f5ffd5b5061459c8061001c5f395ff3fe6080604052600436106100da575f3560e01c8062dcbc18146100e55780630c94904314610106578063172a89d914610142578063242ab021146101615780632e3803c61461017f5780633bb060db146101925780634ec508f9146101a65780635699fadc146101da5780635d16ad15146101ed578063775c300c14610211578063840e78fd14610225578063961b461e1461025b578063a4635a1a1461026f578063ac1eff6814610282578063b43a57a9146102b0578063d29709fb146102d3578063ddfc5cfe146102e6578063e015571414610315575f5ffd5b366100e157005b5f5ffd5b3480156100f0575f5ffd5b506101046100ff366004611e8b565b610341565b005b348015610111575f5ffd5b50600154610125906001600160a01b031681565b6040516001600160a01b0390911681526020015b60405180910390f35b34801561014d575f5ffd5b5061010461015c36600461214d565b6103de565b34801561016c575f5ffd5b505f54610125906001600160a01b031681565b61010461018d366004612186565b6107e7565b34801561019d575f5ffd5b50610104610894565b3480156101b1575f5ffd5b506101c56101c03660046121a8565b610ba8565b60408051928352602083019190915201610139565b6101046101e83660046121bf565b610ca6565b3480156101f8575f5ffd5b506102016112aa565b6040519015158152602001610139565b34801561021c575f5ffd5b50610104611328565b348015610230575f5ffd5b5061024461023f366004612186565b611438565b6040516101399b9a9998979695949392919061223a565b348015610266575f5ffd5b506101046116b2565b61010461027d3660046122db565b611724565b34801561028d575f5ffd5b506102a161029c3660046121a8565b611994565b6040516101399392919061239a565b3480156102bb575f5ffd5b506102c560025481565b604051908152602001610139565b6101046102e13660046123ce565b611a5d565b3480156102f1575f5ffd5b50610305610300366004612186565b611b14565b60405161013994939291906123f8565b348015610320575f5ffd5b5061033461032f3660046121a8565b611bcc565b604051610139919061242e565b604080516060810182526001600160a01b03808616825284151560208301908152928201848152600380546001810182555f91909152835160029091025f5160206145075f395f51905f528101805496511515600160a01b026001600160a81b0319909716929094169190911794909417825551919283925f5160206144e75f395f51905f52909101906103d590826124da565b50505050505050565b600154604051631edd5ff960e31b81525f60048201819052916001600160a01b03169063f6eaffc890602401602060405180830381865afa158015610425573d5f5f3e3d5ffd5b505050506040513d601f19601f82011682018060405250810190610449919061258f565b604080516003808252608082019092529192505f9190816020015b60408051606080820183525f80835260208301529181019190915281526020019060019003908161046457505060038054919250906104a390846125ba565b815481106104b3576104b36125cd565b5f91825260209182902060408051606081018252600290930290910180546001600160a01b038116845260ff600160a01b909104161515938301939093526001830180549293929184019161050790612442565b80601f016020809104026020016040519081016040528092919081815260200182805461053390612442565b801561057e5780601f106105555761010080835404028352916020019161057e565b820191905f5260205f20905b81548152906001019060200180831161056157829003601f168201915b505050505081525050815f81518110610599576105996125cd565b6020908102919091010152600380546105b36002856125f5565b6105bd91906125ba565b815481106105cd576105cd6125cd565b5f91825260209182902060408051606081018252600290930290910180546001600160a01b038116845260ff600160a01b909104161515938301939093526001830180549293929184019161062190612442565b80601f016020809104026020016040519081016040528092919081815260200182805461064d90612442565b80156106985780601f1061066f57610100808354040283529160200191610698565b820191905f5260205f20905b81548152906001019060200180831161067b57829003601f168201915b505050505081525050816001815181106106b4576106b46125cd565b6020908102919091010152600380546106ce846002612608565b6106d891906125ba565b815481106106e8576106e86125cd565b5f91825260209182902060408051606081018252600290930290910180546001600160a01b038116845260ff600160a01b909104161515938301939093526001830180549293929184019161073c90612442565b80601f016020809104026020016040519081016040528092919081815260200182805461076890612442565b80156107b35780601f1061078a576101008083540402835291602001916107b3565b820191905f5260205f20905b81548152906001019060200180831161079657829003601f168201915b505050505081525050816002815181106107cf576107cf6125cd565b60209081029190910101526101209092019190915250565b6001600160a01b0381165f90815260056020526040812060020154900361083e576001600160a01b0381165f90815260056020526040812060020180546001929061083390849061261f565b909155506108919050565b6001600160a01b0381165f90815260056020526040902060020154600a03610891576001600160a01b0381165f90815260056020526040812060020180546001929061088b908490612632565b90915550505b50565b6040805160608101825273090fab679bbea10c247209cd6a22a0ac7d9a482981525f602080830182815284519182018552828252938301908152600380546001810182559252825160029092025f5160206145075f395f51905f528101805495511515600160a01b026001600160a81b03199096166001600160a01b03949094169390931794909417825551919283925f5160206144e75f395f51905f529091019061094090826124da565b5050604080516060810182527384030698cb02d41796503b43a36f61f25422fff5815260016020808301828152845191820185525f808352948401918252600380549384018155909452825160029092025f5160206145075f395f51905f528101805495511515600160a01b026001600160a81b03199096166001600160a01b03949094169390931794909417825551919350839290915f5160206144e75f395f51905f52909101906109f390826124da565b5050604080516060810182527365d24ea35566891cb99dda55213a4e76c39b806e815260016020808301828152845191820185525f808352948401918252600380549384018155909452825160029092025f5160206145075f395f51905f528101805495511515600160a01b026001600160a81b03199096166001600160a01b03949094169390931794909417825551919350839290915f5160206144e75f395f51905f5290910190610aa690826124da565b5050335f90815260046020908152604080832063499602d281556001810180546001600160a01b03191673f3447c8a17761e8e5233fe5a50ac72ceca38755917905581519283019091529181529091506002820190610b0590826124da565b506001600382015562069780600482015560408051602081019091525f81526005820190610b3390826124da565b506901d9ca7a480674860000600682015560408051602081019091525f81526007820190610b6190826124da565b5060408051602081019091525f81526008820190610b7f90826124da565b5060038054610b92916009840191611c19565b50600a01805461ffff1916610101179055505050565b5f8080610bb6846005612608565b610bc2906103e86125f5565b90505f610bd1826103e8612632565b90505f5160206145275f395f51905f52610bed836107d061261f565b604051610c42919060408082526025908201527f5468652070726f706f6e656e742068617320746f20706179206120746f74616c60608201526401037b31d160dd1b6080820152602081019190915260a00190565b60405180910390a160408051818152601c818301527b2b32b93930903430b9903a37903830bc9030903a37ba30b61037b31d60211b60608201526020810183905290515f5160206145275f395f51905f529181900360800190a19094909350915050565b335f908152600460208190526040909120600a018054839260ff19909116906001908490811115610cd957610cd9612206565b02179055506003816004811115610cf257610cf2612206565b1480610d0f57506004816004811115610d0d57610d0d612206565b145b1561089157610bb8471061126757610d256112aa565b15156001036112005760016002818155335f9081526004602090815260409182902082516101808101845281548152948101546001600160a01b031691850191909152918201805461089194939284019190610d8090612442565b80601f0160208091040260200160405190810160405280929190818152602001828054610dac90612442565b8015610df75780601f10610dce57610100808354040283529160200191610df7565b820191905f5260205f20905b815481529060010190602001808311610dda57829003601f168201915b505050505081526020016003820154815260200160048201548152602001600582018054610e2490612442565b80601f0160208091040260200160405190810160405280929190818152602001828054610e5090612442565b8015610e9b5780601f10610e7257610100808354040283529160200191610e9b565b820191905f5260205f20905b815481529060010190602001808311610e7e57829003601f168201915b5050505050815260200160068201548152602001600782018054610ebe90612442565b80601f0160208091040260200160405190810160405280929190818152602001828054610eea90612442565b8015610f355780601f10610f0c57610100808354040283529160200191610f35565b820191905f5260205f20905b815481529060010190602001808311610f1857829003601f168201915b50505050508152602001600882018054610f4e90612442565b80601f0160208091040260200160405190810160405280929190818152602001828054610f7a90612442565b8015610fc55780601f10610f9c57610100808354040283529160200191610fc5565b820191905f5260205f20905b815481529060010190602001808311610fa857829003601f168201915b5050505050815260200160098201805480602002602001604051908101604052809291908181526020015f905b828210156110db575f848152602090819020604080516060810182526002860290920180546001600160a01b0381168452600160a01b900460ff161515938301939093526001830180549293929184019161104c90612442565b80601f016020809104026020016040519081016040528092919081815260200182805461107890612442565b80156110c35780601f1061109a576101008083540402835291602001916110c3565b820191905f5260205f20905b8154815290600101906020018083116110a657829003601f168201915b50505050508152505081526020019060010190610ff2565b50505090825250600a82015460209091019060ff16600481111561110157611101612206565b600481111561111257611112612206565b8152600a9190910154610100900460ff161515602091820152335f9081526005825260409081902081516080810190925280546001600160a01b03168252600181018054929391929184019161116790612442565b80601f016020809104026020016040519081016040528092919081815260200182805461119390612442565b80156111de5780601f106111b5576101008083540402835291602001916111de565b820191905f5260205f20905b8154815290600101906020018083116111c157829003601f168201915b5050505050815260200160028201548152602001600382015481525050611724565b5f5160206145475f395f51905f5260405161125c9060208082526027908201527f4469646e277420706173732076616c69646174696f6e20616e6420766572696660408201526634b1b0ba34b7b760c91b606082015260800190565b60405180910390a150565b5f5160206145475f395f51905f5260405161125c90602080825260149082015273139bdd08115b9bdd59da0811195c1bdcda5d195960621b604082015260600190565b5f80805b600381101561130f57335f9081526004602052604090206009018054829081106112da576112da6125cd565b5f918252602090912060029091020154600160a01b900460ff16156113075761130460018361261f565b91505b6001016112ae565b50600181111561132157600191505090565b5f91505090565b60405161133490611cbf565b604051809103905ff08015801561134d573d5f5f3e3d5ffd5b505f80546001600160a01b0319166001600160a01b03929092169190911790556040517fa875277a12e63893e1833186ce951b68d5efdc34e7de005cf0d484d352e33d4a9061139b90611ccc565b908152602001604051809103905ff0801580156113ba573d5f5f3e3d5ffd5b50600180546001600160a01b0319166001600160a01b0392909216918217905560408051630da9f75560e41b8152905163da9f75509160048082019260209290919082900301815f875af1158015611414573d5f5f3e3d5ffd5b505050506040513d601f19601f82011682018060405250810190610891919061258f565b60046020525f908152604090208054600182015460028301805492936001600160a01b039092169261146990612442565b80601f016020809104026020016040519081016040528092919081815260200182805461149590612442565b80156114e05780601f106114b7576101008083540402835291602001916114e0565b820191905f5260205f20905b8154815290600101906020018083116114c357829003601f168201915b50505050509080600301549080600401549080600501805461150190612442565b80601f016020809104026020016040519081016040528092919081815260200182805461152d90612442565b80156115785780601f1061154f57610100808354040283529160200191611578565b820191905f5260205f20905b81548152906001019060200180831161155b57829003601f168201915b50505050509080600601549080600701805461159390612442565b80601f01602080910402602001604051908101604052809291908181526020018280546115bf90612442565b801561160a5780601f106115e15761010080835404028352916020019161160a565b820191905f5260205f20905b8154815290600101906020018083116115ed57829003601f168201915b50505050509080600801805461161f90612442565b80601f016020809104026020016040519081016040528092919081815260200182805461164b90612442565b80156116965780601f1061166d57610100808354040283529160200191611696565b820191905f5260205f20905b81548152906001019060200180831161167957829003601f168201915b505050600a909301549192505060ff808216916101009004168b565b335f908152600560209081526040918290208251808401909352600383526253616d60e81b918301919091529060018201906116ee90826124da565b5080546001600160a01b03191673f3447c8a17761e8e5233fe5a50ac72ceca387559178155600760028201556001600390910155565b5f5f6117338360400151610ba8565b909250905060016003856101400151600481111561175357611753612206565b036118415760408051818152600d818301526c1a5b9d1bc8185c1c1c9bdd9959609a1b60608201526001602082015290515f5160206145275f395f51905f529181900360800190a183516117a79084611a5d565b6001846040018181516117ba919061261f565b90525060025481900361183c576118068561012001515f815181106117e1576117e16125cd565b60200260200101515f01516003846107d06117fc919061261f565b6102e191906125f5565b6118218561012001516001815181106117e1576117e16125cd565b61183c8561012001516002815181106117e1576117e16125cd565b6118cf565b6004856101400151600481111561185a5761185a612206565b036118cf5780600254036118b8576118828561012001515f815181106117e1576117e16125cd565b61189d8561012001516001815181106117e1576117e16125cd565b6118b88561012001516002815181106117e1576117e16125cd565b6001846040018181516118cb9190612632565b9052505b83516118da906107e7565b6118f8735b38da6a701c568545dcfcb03fcb875f56beddc447611a5d565b5f5160206145275f395f51905f52846060015160405161193d919060408082526008908201526772657053636f726560c01b6060820152602081019190915260800190565b60405180910390a160408051818152601281830152716d73672e73656e6465722042616c616e636560701b60608201523331602082015290515f5160206145275f395f51905f529181900360800190a15050505050565b600381815481106119a3575f80fd5b5f918252602090912060029091020180546001820180546001600160a01b0383169450600160a01b90920460ff1692916119dc90612442565b80601f0160208091040260200160405190810160405280929190818152602001828054611a0890612442565b8015611a535780601f10611a2a57610100808354040283529160200191611a53565b820191905f5260205f20905b815481529060010190602001808311611a3657829003601f168201915b5050505050905083565b5f5f836001600160a01b0316836040515f6040518083038185875af1925050503d805f8114611aa7576040519150601f19603f3d011682016040523d82523d5f602084013e611aac565b606091505b509150915081611b0e5760405162461bcd60e51b815260206004820152602360248201527f4661696c656420746f2073656e64206465706f73697420746f2070726f706f6e604482015262195b9d60ea1b606482015260840160405180910390fd5b50505050565b60056020525f9081526040902080546001820180546001600160a01b039092169291611b3f90612442565b80601f0160208091040260200160405190810160405280929190818152602001828054611b6b90612442565b8015611bb65780601f10611b8d57610100808354040283529160200191611bb6565b820191905f5260205f20905b815481529060010190602001808311611b9957829003601f168201915b5050505050908060020154908060030154905084565b5f81600403611bdd57506003919050565b81600303611bed57506004919050565b81600203611bfd57506002919050565b81600103611c0d57506001919050565b505f919050565b919050565b828054828255905f5260205f20906002028101928215611caf575f5260205f209160020282015b82811115611caf57825482546001600160a01b039091166001600160a01b031982168117845584546001600160a81b031990921617600160a01b9182900460ff1615159091021782558282600180820190611c9d90840182612645565b50505091600201919060020190611c40565b50611cbb929150611cd9565b5090565b6113328061270683390190565b610aaf80613a3883390190565b80821115611cbb5780546001600160a81b03191681555f611cfd6001830182611d06565b50600201611cd9565b508054611d1290612442565b5f825580601f10611d21575050565b601f0160209004905f5260205f209081019061089191905b80821115611cbb575f8155600101611d39565b6001600160a01b0381168114610891575f5ffd5b80358015158114611c14575f5ffd5b634e487b7160e01b5f52604160045260245ffd5b604051606081016001600160401b0381118282101715611da557611da5611d6f565b60405290565b60405161018081016001600160401b0381118282101715611da557611da5611d6f565b604051608081016001600160401b0381118282101715611da557611da5611d6f565b604051601f8201601f191681016001600160401b0381118282101715611e1857611e18611d6f565b604052919050565b5f82601f830112611e2f575f5ffd5b81356001600160401b03811115611e4857611e48611d6f565b611e5b601f8201601f1916602001611df0565b818152846020838601011115611e6f575f5ffd5b816020850160208301375f918101602001919091529392505050565b5f5f5f60608486031215611e9d575f5ffd5b8335611ea881611d4c565b9250611eb660208501611d60565b915060408401356001600160401b03811115611ed0575f5ffd5b611edc86828701611e20565b9150509250925092565b8035611c1481611d4c565b5f82601f830112611f00575f5ffd5b81356001600160401b03811115611f1957611f19611d6f565b8060051b611f2960208201611df0565b91825260208185018101929081019086841115611f44575f5ffd5b6020860192505b83831015611fe55782356001600160401b03811115611f68575f5ffd5b86016060818903601f19011215611f7d575f5ffd5b611f85611d83565b6020820135611f9381611d4c565b8152611fa160408301611d60565b602082015260608201356001600160401b03811115611fbe575f5ffd5b611fcd8a602083860101611e20565b60408301525083525060209283019290910190611f4b565b9695505050505050565b803560058110611c14575f5ffd5b5f610180828403121561200e575f5ffd5b612016611dab565b82358152905061202860208301611ee6565b602082015260408201356001600160401b03811115612045575f5ffd5b61205184828501611e20565b604083015250606082810135908201526080808301359082015260a08201356001600160401b03811115612083575f5ffd5b61208f84828501611e20565b60a08301525060c0828101359082015260e08201356001600160401b038111156120b7575f5ffd5b6120c384828501611e20565b60e0830152506101008201356001600160401b038111156120e2575f5ffd5b6120ee84828501611e20565b610100830152506101208201356001600160401b0381111561210e575f5ffd5b61211a84828501611ef1565b6101208301525061212e6101408301611fef565b6101408201526121416101608301611d60565b61016082015292915050565b5f6020828403121561215d575f5ffd5b81356001600160401b03811115612172575f5ffd5b61217e84828501611ffd565b949350505050565b5f60208284031215612196575f5ffd5b81356121a181611d4c565b9392505050565b5f602082840312156121b8575f5ffd5b5035919050565b5f602082840312156121cf575f5ffd5b6121a182611fef565b5f81518084528060208401602086015e5f602082860101526020601f19601f83011685010191505092915050565b634e487b7160e01b5f52602160045260245ffd5b6005811061223657634e487b7160e01b5f52602160045260245ffd5b9052565b8b81526001600160a01b038b166020820152610160604082018190525f906122649083018c6121d8565b8a606084015289608084015282810360a0840152612282818a6121d8565b90508760c084015282810360e084015261229c81886121d8565b90508281036101008401526122b181876121d8565b9150506122c261012083018561221a565b8215156101408301529c9b505050505050505050505050565b5f5f604083850312156122ec575f5ffd5b82356001600160401b03811115612301575f5ffd5b61230d85828601611ffd565b92505060208301356001600160401b03811115612328575f5ffd5b830160808186031215612339575f5ffd5b612341611dce565b813561234c81611d4c565b815260208201356001600160401b03811115612366575f5ffd5b61237287828501611e20565b6020830152506040828101359082015260609182013591810191909152919491935090915050565b6001600160a01b038416815282151560208201526060604082018190525f906123c5908301846121d8565b95945050505050565b5f5f604083850312156123df575f5ffd5b82356123ea81611d4c565b946020939093013593505050565b6001600160a01b03851681526080602082018190525f9061241b908301866121d8565b6040830194909452506060015292915050565b6020810161243c828461221a565b92915050565b600181811c9082168061245657607f821691505b60208210810361247457634e487b7160e01b5f52602260045260245ffd5b50919050565b601f8211156124c157805f5260205f20601f840160051c8101602085101561249f5750805b601f840160051c820191505b818110156124be575f81556001016124ab565b50505b505050565b5f19600383901b1c191660019190911b1790565b81516001600160401b038111156124f3576124f3611d6f565b612507816125018454612442565b8461247a565b6020601f821160018114612534575f83156125225750848201515b61252c84826124c6565b8555506124be565b5f84815260208120601f198516915b828110156125635787850151825560209485019460019092019101612543565b508482101561258057868401515f19600387901b60f8161c191681555b50505050600190811b01905550565b5f6020828403121561259f575f5ffd5b5051919050565b634e487b7160e01b5f52601260045260245ffd5b5f826125c8576125c86125a6565b500690565b634e487b7160e01b5f52603260045260245ffd5b634e487b7160e01b5f52601160045260245ffd5b5f82612603576126036125a6565b500490565b808202811582820484141761243c5761243c6125e1565b8082018082111561243c5761243c6125e1565b8181038181111561243c5761243c6125e1565b818103612650575050565b61265a8254612442565b6001600160401b0381111561267157612671611d6f565b61267f816125018454612442565b5f601f8211600181146126a2575f831561252257508482015461252c84826124c6565b5f8581526020808220868352908220601f198616925b838110156126d857828601548255600195860195909101906020016126b8565b50858310156126f557818501545f19600388901b60f8161c191681555b5050505050600190811b0190555056fe60806040526001600455348015610014575f5ffd5b5033805f8161006a5760405162461bcd60e51b815260206004820152601860248201527f43616e6e6f7420736574206f776e657220746f207a65726f000000000000000060448201526064015b60405180910390fd5b600680546001600160a01b0319166001600160a01b038481169190911790915581161561009a5761009a81610131565b5050506100c073779877a7b0d9e8603169ddbd7836e478b46247896101da60201b60201c565b600380546001600160a01b031916736090149792daaee9d1d568c9f9a6f6b46aa29efd1790557f6361393833363663633733313439353762386330313263373266303561656562600955600a61011f670de0b6b3a764000060016101fc565b6101299190610225565b600a55610244565b336001600160a01b038216036101895760405162461bcd60e51b815260206004820152601760248201527f43616e6e6f74207472616e7366657220746f2073656c660000000000000000006044820152606401610061565b600780546001600160a01b0319166001600160a01b03838116918217909255600654604051919216907fed8889f560326eb138920d842192f0eb3dd22b4f139c87a2c57538e05bae1278905f90a350565b600280546001600160a01b0319166001600160a01b0392909216919091179055565b808202811582820484141761021f57634e487b7160e01b5f52601160045260245ffd5b92915050565b5f8261023f57634e487b7160e01b5f52601260045260245ffd5b500490565b6110e1806102515f395ff3fe608060405234801561000f575f5ffd5b506004361061006b575f3560e01c80632adb9e3c1461006f5780634357855e1461009557806379ba5097146100aa5780638da5cb5b146100b25780638dc654a2146100cb578063c618a1e4146100d3578063f2fde38b146100dc575b5f5ffd5b61008261007d366004610d8f565b6100ef565b6040519081526020015b60405180910390f35b6100a86100a3366004610da6565b61022f565b005b6100a861032f565b6006546001600160a01b031660405161008c9190610dc6565b6100a86103dc565b61008260085481565b6100a86100ea366004610dda565b610524565b5f5f61010560095430634357855e60e01b610535565b90506101476040518060400160405280600381526020016219d95d60ea1b81525060405180606001604052806030815260200161107c6030913983919061055a565b610193604051806040016040528060048152602001630e0c2e8d60e31b815250604051806040016040528060038152602001626e756d60e81b8152508361055a9092919063ffffffff16565b60408051808201909152600581526474696d657360d81b60208201526001906101be9083908361057d565b604080518181526014818301527313585919481d1a194819d95d081c995c5d595cdd60621b60608201526020810186905290517f4953e1e253d3404572e66d2be3e7889846db195dfc203305a4810d16100dfd119181900360800190a161022782600a5461059b565b949350505050565b5f8281526005602052604090205482906001600160a01b031633146102ac5760405162461bcd60e51b815260206004820152602860248201527f536f75726365206d75737420626520746865206f7261636c65206f6620746865604482015267081c995c5d595cdd60c21b60648201526084015b60405180910390fd5b5f8181526005602052604080822080546001600160a01b03191690555182917f7cc135e0cebb02c3480ae5d74d377283180a2601f8f644edf7987b009316c63a91a2827f673b38182859a514d734bdfcb49d3a05c4a641dec9311d9894c9717bcb79af768360405161032091815260200190565b60405180910390a25060085550565b6007546001600160a01b031633146103825760405162461bcd60e51b815260206004820152601660248201527526bab9ba10313290383937b837b9b2b21037bbb732b960511b60448201526064016102a3565b600680546001600160a01b0319808216339081179093556007805490911690556040516001600160a01b03909116919082907f8be0079c531659141344cd1fd0a4f28419497f9722a3daafe3b4186f6b6457e0905f90a350565b6103e46105bd565b5f6103f76002546001600160a01b031690565b9050806001600160a01b031663a9059cbb33836001600160a01b03166370a08231306040518263ffffffff1660e01b81526004016104359190610dc6565b602060405180830381865afa158015610450573d5f5f3e3d5ffd5b505050506040513d601f19601f820116820180604052508101906104749190610e07565b6040516001600160e01b031960e085901b1681526001600160a01b03909216600483015260248201526044016020604051808303815f875af11580156104bc573d5f5f3e3d5ffd5b505050506040513d601f19601f820116820180604052508101906104e09190610e1e565b6105215760405162461bcd60e51b81526020600482015260126024820152712ab730b13632903a37903a3930b739b332b960711b60448201526064016102a3565b50565b61052c6105bd565b61052181610612565b61053d610d33565b610545610d33565b610551818686866106b5565b95945050505050565b608083015161056990836106f2565b608083015161057890826106f2565b505050565b608083015161058c90836106f2565b60808301516105789082610709565b6003545f906105b4906001600160a01b03168484610769565b90505b92915050565b6006546001600160a01b031633146106105760405162461bcd60e51b815260206004820152601660248201527527b7363c9031b0b63630b1363290313c9037bbb732b960511b60448201526064016102a3565b565b336001600160a01b038216036106645760405162461bcd60e51b815260206004820152601760248201527621b0b73737ba103a3930b739b332b9103a379039b2b63360491b60448201526064016102a3565b600780546001600160a01b0319166001600160a01b03838116918217909255600654604051919216907fed8889f560326eb138920d842192f0eb3dd22b4f139c87a2c57538e05bae1278905f90a350565b6106bd610d33565b6106cd85608001516101006107fa565b50509183526001600160a01b031660208301526001600160e01b031916604082015290565b6106ff8260038351610851565b610578828261095e565b67ffffffffffffffff19811215610728576107248282610977565b5050565b6001600160401b038113156107415761072482826109b8565b5f811261075357610724825f83610851565b610724826001610764845f19610e51565b610851565b6004545f90610779816001610e77565b600455835160408086015160808701515191515f936320214ca360e11b936107b09386938493923092918a91600191602401610eb8565b60408051601f198184030181529190526020810180516001600160e01b03166001600160e01b03199093169290921790915290506107f0868386846109db565b9695505050505050565b610802610d76565b61080d602083610f1e565b156108355761081d602083610f1e565b610828906020610f3d565b6108329083610e77565b91505b506020828101829052604080518085525f815290920101905290565b6017816001600160401b03161161087b576108758360e0600585901b168317610b2f565b50505050565b60ff816001600160401b0316116108b7576108a1836018611fe0600586901b1617610b2f565b50610875836001600160401b0383166001610b46565b61ffff816001600160401b0316116108f4576108de836019611fe0600586901b1617610b2f565b50610875836001600160401b0383166002610b46565b63ffffffff816001600160401b0316116109335761091d83601a611fe0600586901b1617610b2f565b50610875836001600160401b0383166004610b46565b61094883601b611fe0600586901b1617610b2f565b50610875836001600160401b0383166008610b46565b610966610d76565b6105b483845f015151848551610b5e565b6109828260c3610b2f565b5061072482610992835f19610e51565b6040516020016109a491815260200190565b604051602081830303815290604052610c38565b6109c38260c2610b2f565b5061072482826040516020016109a491815260200190565b6040516001600160601b03193060601b166020820152603481018490525f9060540160408051808303601f1901815282825280516020918201205f818152600590925291812080546001600160a01b0319166001600160a01b038a1617905590925082917fb5e6e01e79f91267dc17b4e6314d5d4d03593d2ceee0fbb452b750bd70ea5af99190a2600254604051630200057560e51b81526001600160a01b0390911690634000aea090610a9790889087908790600401610f50565b6020604051808303815f875af1158015610ab3573d5f5f3e3d5ffd5b505050506040513d601f19601f82011682018060405250810190610ad79190610e1e565b6102275760405162461bcd60e51b815260206004820152602360248201527f756e61626c6520746f207472616e73666572416e6443616c6c20746f206f7261604482015262636c6560e81b60648201526084016102a3565b610b37610d76565b6105b483845f01515184610c45565b610b4e610d76565b61022784855f0151518585610c93565b610b66610d76565b8251821115610b73575f5ffd5b6020850151610b828386610e77565b1115610bb557610bb585610ba587602001518786610ba09190610e77565b610d06565b610bb0906002610f76565b610d1c565b5f5f865180518760208301019350808887011115610bd35787860182525b505050602084015b60208410610c135780518252610bf2602083610e77565b9150610bff602082610e77565b9050610c0c602085610f3d565b9350610bdb565b5181515f1960208690036101000a019081169019919091161790525083949350505050565b6106ff8260028351610851565b610c4d610d76565b83602001518310610c6d57610c6d8485602001516002610bb09190610f76565b8351805160208583010184815350808503610c89576001810182525b5093949350505050565b610c9b610d76565b6020850151610caa8584610e77565b1115610cbe57610cbe85610ba58685610e77565b5f6001610ccd84610100611070565b610cd79190610f3d565b9050855183868201018583198251161781525080518487011115610cfb5783860181525b509495945050505050565b5f81831115610d165750816105b7565b50919050565b8151610d2883836107fa565b50610875838261095e565b6040518060a001604052805f81526020015f6001600160a01b031681526020015f6001600160e01b03191681526020015f8152602001610d71610d76565b905290565b6040518060400160405280606081526020015f81525090565b5f60208284031215610d9f575f5ffd5b5035919050565b5f5f60408385031215610db7575f5ffd5b50508035926020909101359150565b6001600160a01b0391909116815260200190565b5f60208284031215610dea575f5ffd5b81356001600160a01b0381168114610e00575f5ffd5b9392505050565b5f60208284031215610e17575f5ffd5b5051919050565b5f60208284031215610e2e575f5ffd5b81518015158114610e00575f5ffd5b634e487b7160e01b5f52601160045260245ffd5b8181035f831280158383131683831282161715610e7057610e70610e3d565b5092915050565b808201808211156105b7576105b7610e3d565b5f81518084528060208401602086015e5f602082860101526020601f19601f83011685010191505092915050565b6001600160a01b0389811682526020820189905260408201889052861660608201526001600160e01b03198516608082015260a0810184905260c0810183905261010060e082018190525f90610f1090830184610e8a565b9a9950505050505050505050565b5f82610f3857634e487b7160e01b5f52601260045260245ffd5b500690565b818103818111156105b7576105b7610e3d565b60018060a01b0384168152826020820152606060408201525f6105516060830184610e8a565b80820281158282048414176105b7576105b7610e3d565b6001815b6001841115610fc857808504811115610fac57610fac610e3d565b6001841615610fba57908102905b60019390931c928002610f91565b935093915050565b5f82610fde575060016105b7565b81610fea57505f6105b7565b8160018114611000576002811461100a57611026565b60019150506105b7565b60ff84111561101b5761101b610e3d565b50506001821b6105b7565b5060208310610133831016604e8410600b8410161715611049575081810a6105b7565b6110555f198484610f8d565b805f190482111561106857611068610e3d565b029392505050565b5f6105b48383610fd056fe68747470733a2f2f613334622d3130312d3131352d31392d3136362e6e67726f6b2d667265652e6170702f636865636ba2646970667358221220475aef19694e2e1c00657697b3ba21dd919455f8ccc66be41b63f62fbcdc4f8364736f6c634300081d00336080604052600480546001600160a01b031916739ddfaca8183c41ad55329bdeed9f6a8d53168b1b1790557f787d74caea10b2b357790d5b5247c2f63d1d91572a9846f780606e4d953677ae6005556007805466010003000186a06001600160501b0319909116179055348015610074575f5ffd5b50604051610aaf380380610aaf8339810160408190526100939161021d565b6004546001600160a01b031633805f816100f45760405162461bcd60e51b815260206004820152601860248201527f43616e6e6f7420736574206f776e657220746f207a65726f000000000000000060448201526064015b60405180910390fd5b5f80546001600160a01b0319166001600160a01b03848116919091179091558116156101235761012381610175565b5050506001600160a01b03811661014d5760405163d92e233d60e01b815260040160405180910390fd5b600280546001600160a01b0319166001600160a01b0392909216919091179055600355610234565b336001600160a01b038216036101cd5760405162461bcd60e51b815260206004820152601760248201527f43616e6e6f74207472616e7366657220746f2073656c6600000000000000000060448201526064016100eb565b600180546001600160a01b0319166001600160a01b038381169182179092555f8054604051929316917fed8889f560326eb138920d842192f0eb3dd22b4f139c87a2c57538e05bae12789190a350565b5f6020828403121561022d575f5ffd5b5051919050565b61086e806102415f395ff3fe608060405234801561000f575f5ffd5b50600436106100b8575f3560e01c80631fe543e3146100bc57806324f74697146100d157806345bb327b146100fb57806379ba5097146101125780637ccfd7fc1461011a5780638ac00021146101315780638da5cb5b1461013a5780638ea981171461014f5780639eccacf614610162578063a3e56fa814610175578063b0fb162f14610188578063da9f7550146101b0578063f2fde38b146101b8578063f6eaffc8146101cb575b5f5ffd5b6100cf6100ca3660046106ce565b6101de565b005b6007546100e19063ffffffff1681565b60405163ffffffff90911681526020015b60405180910390f35b61010460055481565b6040519081526020016100f2565b6100cf610233565b6007546100e190600160301b900463ffffffff1681565b61010460035481565b6101426102dc565b6040516100f29190610746565b6100cf61015d36600461075a565b6102ea565b600254610142906001600160a01b031681565b600454610142906001600160a01b031681565b60075461019d90600160201b900461ffff1681565b60405161ffff90911681526020016100f2565b6101046103e2565b6100cf6101c636600461075a565b6104c5565b6101046101d9366004610787565b6104d9565b6002546001600160a01b031633146102235760025460405163073e64fd60e21b81523360048201526001600160a01b0390911660248201526044015b60405180910390fd5b61022e8383836104f8565b505050565b6001546001600160a01b031633146102865760405162461bcd60e51b815260206004820152601660248201527526bab9ba10313290383937b837b9b2b21037bbb732b960511b604482015260640161021a565b5f8054336001600160a01b0319808316821784556001805490911690556040516001600160a01b0390921692909183917f8be0079c531659141344cd1fd0a4f28419497f9722a3daafe3b4186f6b6457e091a350565b5f546001600160a01b031690565b6102f26102dc565b6001600160a01b0316336001600160a01b03161415801561031e57506002546001600160a01b03163314155b15610365573361032c6102dc565b60025460405163061db9c160e01b81526001600160a01b039384166004820152918316602483015291909116604482015260640161021a565b6001600160a01b03811661038c5760405163d92e233d60e01b815260040160405180910390fd5b600280546001600160a01b0319166001600160a01b0383161790556040517fd1a6a14209a385a964d036e404cb5cfb71f4000cdb03c9366292430787261be6906103d7908390610746565b60405180910390a150565b5f6103eb61050a565b6002546040805160c081018252600554815260035460208083019190915260075461ffff600160201b8204168385015263ffffffff8082166060850152600160301b90910416608083015282519081019092525f82526001600160a01b0390921691639b1c385e9160a08201906104619061055e565b8152506040518263ffffffff1660e01b8152600401610480919061079e565b6020604051808303815f875af115801561049c573d5f5f3e3d5ffd5b505050506040513d601f19601f820116820180604052508101906104c09190610821565b905090565b6104cd61050a565b6104d6816105cf565b50565b600681815481106104e8575f80fd5b5f91825260209091200154905081565b61050460068383610671565b50505050565b5f546001600160a01b0316331461055c5760405162461bcd60e51b815260206004820152601660248201527527b7363c9031b0b63630b1363290313c9037bbb732b960511b604482015260640161021a565b565b60607f92fd13387c7fe7befbc38d303d6468778fb9731bc4583f17d92989c6fcfdeaaa8260405160240161059791511515815260200190565b60408051601f198184030181529190526020810180516001600160e01b03166001600160e01b03199093169290921790915292915050565b336001600160a01b038216036106215760405162461bcd60e51b815260206004820152601760248201527621b0b73737ba103a3930b739b332b9103a379039b2b63360491b604482015260640161021a565b600180546001600160a01b0319166001600160a01b038381169182179092555f8054604051929316917fed8889f560326eb138920d842192f0eb3dd22b4f139c87a2c57538e05bae12789190a350565b828054828255905f5260205f209081019282156106aa579160200282015b828111156106aa57823582559160200191906001019061068f565b506106b69291506106ba565b5090565b5b808211156106b6575f81556001016106bb565b5f5f5f604084860312156106e0575f5ffd5b8335925060208401356001600160401b038111156106fc575f5ffd5b8401601f8101861361070c575f5ffd5b80356001600160401b03811115610721575f5ffd5b8660208260051b8401011115610735575f5ffd5b939660209190910195509293505050565b6001600160a01b0391909116815260200190565b5f6020828403121561076a575f5ffd5b81356001600160a01b0381168114610780575f5ffd5b9392505050565b5f60208284031215610797575f5ffd5b5035919050565b60208152815160208201526020820151604082015261ffff604083015116606082015263ffffffff606083015116608082015263ffffffff60808301511660a08201525f60a083015160c08084015280518060e0850152806020830161010086015e5f6101008286010152610100601f19601f8301168501019250505092915050565b5f60208284031215610831575f5ffd5b505191905056fea2646970667358221220eaa6d5dbbfa37fe201805becf9d720ea9858ff5496e3b135c80dc8dc0817065764736f6c634300081d0033c2575a0e9e593c00f959f8c92f12db2869c3395a3b0502d05e2516446f71f85cc2575a0e9e593c00f959f8c92f12db2869c3395a3b0502d05e2516446f71f85b135290006f1871309577d248cf00619459a79b4a735638108a2bb080319c90d6db42f09d5a5cb193ea3eae569c8ce2e3a5c8d8b68aadbe1a637f44d07f67bc17a26469706673582212203b05f6acf41e1a006c125f2f2647ae1541bdfc7951bab3d4ca32db219a1c21e164736f6c634300081d0033a2646970667358221220b9b45e299107685640fcb5e023a33766ce6d43d1ac35d25817727f04103eda2564736f6c634300081d0033",
			"opcodes": "PUSH1 0x80 PUSH1 0x40 MSTORE CALLVALUE DUP1 ISZERO PUSH1 0xE JUMPI PUSH0 PUSH0 REVERT JUMPDEST POP PUSH2 0x4B9B DUP1 PUSH2 0x1C PUSH0 CODECOPY PUSH0 RETURN INVALID PUSH1 0x80 PUSH1 0x40 MSTORE PUSH1 0x4 CALLDATASIZE LT PUSH2 0x57 JUMPI PUSH0 CALLDATALOAD PUSH1 0xE0 SHR DUP1 PUSH4 0x362E2565 EQ PUSH2 0x15E JUMPI DUP1 PUSH4 0x76237C6C EQ PUSH2 0x172 JUMPI DUP1 PUSH4 0x830B75AA EQ PUSH2 0x193 JUMPI DUP1 PUSH4 0xDE6F24BB EQ PUSH2 0x1A7 JUMPI DUP1 PUSH4 0xE1095155 EQ PUSH2 0x1C6 JUMPI DUP1 PUSH4 0xF83D08BA EQ PUSH2 0x1E3 JUMPI PUSH0 PUSH0 REVERT JUMPDEST CALLDATASIZE PUSH2 0x15A JUMPI PUSH0 SLOAD PUSH1 0x1 PUSH1 0x1 PUSH1 0xA0 SHL SUB AND PUSH2 0xB8 JUMPI PUSH1 0x40 MLOAD PUSH3 0x461BCD PUSH1 0xE5 SHL DUP2 MSTORE PUSH1 0x20 PUSH1 0x4 DUP3 ADD MSTORE PUSH1 0x1F PUSH1 0x24 DUP3 ADD MSTORE PUSH32 0x4C6F636B20636F6E7472616374206E6F74206465706C6F796564207965742E00 PUSH1 0x44 DUP3 ADD MSTORE PUSH1 0x64 ADD JUMPDEST PUSH1 0x40 MLOAD DUP1 SWAP2 SUB SWAP1 REVERT JUMPDEST PUSH0 DUP1 SLOAD PUSH1 0x40 MLOAD PUSH1 0x1 PUSH1 0x1 PUSH1 0xA0 SHL SUB SWAP1 SWAP2 AND SWAP1 SELFBALANCE SWAP1 DUP4 DUP2 DUP2 DUP2 DUP6 DUP8 GAS CALL SWAP3 POP POP POP RETURNDATASIZE DUP1 PUSH0 DUP2 EQ PUSH2 0x102 JUMPI PUSH1 0x40 MLOAD SWAP2 POP PUSH1 0x1F NOT PUSH1 0x3F RETURNDATASIZE ADD AND DUP3 ADD PUSH1 0x40 MSTORE RETURNDATASIZE DUP3 MSTORE RETURNDATASIZE PUSH0 PUSH1 0x20 DUP5 ADD RETURNDATACOPY PUSH2 0x107 JUMP JUMPDEST PUSH1 0x60 SWAP2 POP JUMPDEST POP POP SWAP1 POP DUP1 PUSH2 0x158 JUMPI PUSH1 0x40 MLOAD PUSH3 0x461BCD PUSH1 0xE5 SHL DUP2 MSTORE PUSH1 0x20 PUSH1 0x4 DUP3 ADD MSTORE PUSH1 0x1D PUSH1 0x24 DUP3 ADD MSTORE PUSH32 0x4661696C656420746F2073656E6420457468657220746F204C6F636B2E000000 PUSH1 0x44 DUP3 ADD MSTORE PUSH1 0x64 ADD PUSH2 0xAF JUMP JUMPDEST STOP JUMPDEST PUSH0 PUSH0 REVERT JUMPDEST CALLVALUE DUP1 ISZERO PUSH2 0x169 JUMPI PUSH0 PUSH0 REVERT JUMPDEST POP PUSH2 0x158 PUSH2 0x219 JUMP JUMPDEST CALLVALUE DUP1 ISZERO PUSH2 0x17D JUMPI PUSH0 PUSH0 REVERT JUMPDEST POP SELFBALANCE JUMPDEST PUSH1 0x40 MLOAD SWAP1 DUP2 MSTORE PUSH1 0x20 ADD JUMPDEST PUSH1 0x40 MLOAD DUP1 SWAP2 SUB SWAP1 RETURN JUMPDEST CALLVALUE DUP1 ISZERO PUSH2 0x19E JUMPI PUSH0 PUSH0 REVERT JUMPDEST POP PUSH2 0x158 PUSH2 0x2D5 JUMP JUMPDEST CALLVALUE DUP1 ISZERO PUSH2 0x1B2 JUMPI PUSH0 PUSH0 REVERT JUMPDEST POP PUSH2 0x158 PUSH2 0x1C1 CALLDATASIZE PUSH1 0x4 PUSH2 0x495 JUMP JUMPDEST PUSH2 0x3A3 JUMP JUMPDEST CALLVALUE DUP1 ISZERO PUSH2 0x1D1 JUMPI PUSH0 PUSH0 REVERT JUMPDEST POP PUSH0 SLOAD PUSH1 0x1 PUSH1 0x1 PUSH1 0xA0 SHL SUB AND BALANCE PUSH2 0x180 JUMP JUMPDEST CALLVALUE DUP1 ISZERO PUSH2 0x1EE JUMPI PUSH0 PUSH0 REVERT JUMPDEST POP PUSH0 SLOAD PUSH2 0x201 SWAP1 PUSH1 0x1 PUSH1 0x1 PUSH1 0xA0 SHL SUB AND DUP2 JUMP JUMPDEST PUSH1 0x40 MLOAD PUSH1 0x1 PUSH1 0x1 PUSH1 0xA0 SHL SUB SWAP1 SWAP2 AND DUP2 MSTORE PUSH1 0x20 ADD PUSH2 0x18A JUMP JUMPDEST PUSH0 SLOAD PUSH1 0x40 MLOAD PUSH4 0x380555C5 PUSH1 0xE2 SHL DUP2 MSTORE PUSH1 0x4 DUP1 DUP3 ADD MSTORE PUSH1 0x1 PUSH1 0x1 PUSH1 0xA0 SHL SUB SWAP1 SWAP2 AND SWAP1 PUSH4 0x5699FADC SWAP1 DUP3 SWAP1 PUSH4 0xE0155714 SWAP1 PUSH1 0x24 ADD PUSH1 0x20 PUSH1 0x40 MLOAD DUP1 DUP4 SUB DUP2 DUP7 GAS STATICCALL ISZERO DUP1 ISZERO PUSH2 0x266 JUMPI RETURNDATASIZE PUSH0 PUSH0 RETURNDATACOPY RETURNDATASIZE PUSH0 REVERT JUMPDEST POP POP POP POP PUSH1 0x40 MLOAD RETURNDATASIZE PUSH1 0x1F NOT PUSH1 0x1F DUP3 ADD AND DUP3 ADD DUP1 PUSH1 0x40 MSTORE POP DUP2 ADD SWAP1 PUSH2 0x28A SWAP2 SWAP1 PUSH2 0x51E JUMP JUMPDEST PUSH1 0x40 MLOAD DUP3 PUSH4 0xFFFFFFFF AND PUSH1 0xE0 SHL DUP2 MSTORE PUSH1 0x4 ADD PUSH2 0x2A6 SWAP2 SWAP1 PUSH2 0x543 JUMP JUMPDEST PUSH0 PUSH1 0x40 MLOAD DUP1 DUP4 SUB DUP2 PUSH0 DUP8 DUP1 EXTCODESIZE ISZERO DUP1 ISZERO PUSH2 0x2BD JUMPI PUSH0 PUSH0 REVERT JUMPDEST POP GAS CALL ISZERO DUP1 ISZERO PUSH2 0x2CF JUMPI RETURNDATASIZE PUSH0 PUSH0 RETURNDATACOPY RETURNDATASIZE PUSH0 REVERT JUMPDEST POP POP POP POP JUMP JUMPDEST PUSH1 0x40 MLOAD PUSH2 0x2E1 SWAP1 PUSH2 0x488 JUMP JUMPDEST PUSH1 0x40 MLOAD DUP1 SWAP2 SUB SWAP1 PUSH0 CREATE DUP1 ISZERO DUP1 ISZERO PUSH2 0x2FA JUMPI RETURNDATASIZE PUSH0 PUSH0 RETURNDATACOPY RETURNDATASIZE PUSH0 REVERT JUMPDEST POP PUSH0 DUP1 SLOAD PUSH1 0x1 PUSH1 0x1 PUSH1 0xA0 SHL SUB NOT AND PUSH1 0x1 PUSH1 0x1 PUSH1 0xA0 SHL SUB SWAP3 SWAP1 SWAP3 AND SWAP2 DUP3 OR DUP2 SSTORE PUSH1 0x40 DUP1 MLOAD PUSH4 0x3BB060DB PUSH1 0xE0 SHL DUP2 MSTORE SWAP1 MLOAD PUSH4 0x3BB060DB SWAP3 PUSH1 0x4 DUP1 DUP5 ADD SWAP4 SWAP2 SWAP3 SWAP2 DUP3 SWAP1 SUB ADD DUP2 DUP4 DUP8 DUP1 EXTCODESIZE ISZERO DUP1 ISZERO PUSH2 0x34C JUMPI PUSH0 PUSH0 REVERT JUMPDEST POP GAS CALL ISZERO DUP1 ISZERO PUSH2 0x35E JUMPI RETURNDATASIZE PUSH0 PUSH0 RETURNDATACOPY RETURNDATASIZE PUSH0 REVERT JUMPDEST POP POP PUSH0 DUP1 SLOAD PUSH1 0x40 DUP1 MLOAD PUSH4 0x4B0DA30F PUSH1 0xE1 SHL DUP2 MSTORE SWAP1 MLOAD PUSH1 0x1 PUSH1 0x1 PUSH1 0xA0 SHL SUB SWAP1 SWAP3 AND SWAP5 POP PUSH4 0x961B461E SWAP4 POP PUSH1 0x4 DUP1 DUP3 ADD SWAP4 SWAP3 SWAP2 DUP3 SWAP1 SUB ADD DUP2 DUP4 DUP8 DUP1 EXTCODESIZE ISZERO DUP1 ISZERO PUSH2 0x2BD JUMPI PUSH0 PUSH0 REVERT JUMPDEST PUSH0 DUP4 PUSH1 0x1 PUSH1 0x1 PUSH1 0xA0 SHL SUB AND DUP4 DUP4 PUSH1 0x40 MLOAD PUSH1 0x24 ADD PUSH2 0x3C1 SWAP3 SWAP2 SWAP1 PUSH2 0x569 JUMP JUMPDEST PUSH1 0x40 DUP1 MLOAD PUSH1 0x1F NOT DUP2 DUP5 SUB ADD DUP2 MSTORE SWAP2 DUP2 MSTORE PUSH1 0x20 DUP3 ADD DUP1 MLOAD PUSH1 0x1 PUSH1 0x1 PUSH1 0xE0 SHL SUB AND PUSH4 0x2F049BF3 PUSH1 0xE0 SHL OR SWAP1 MSTORE MLOAD PUSH2 0x3F6 SWAP2 SWAP1 PUSH2 0x597 JUMP JUMPDEST PUSH0 PUSH1 0x40 MLOAD DUP1 DUP4 SUB DUP2 PUSH0 DUP7 GAS CALL SWAP2 POP POP RETURNDATASIZE DUP1 PUSH0 DUP2 EQ PUSH2 0x42F JUMPI PUSH1 0x40 MLOAD SWAP2 POP PUSH1 0x1F NOT PUSH1 0x3F RETURNDATASIZE ADD AND DUP3 ADD PUSH1 0x40 MSTORE RETURNDATASIZE DUP3 MSTORE RETURNDATASIZE PUSH0 PUSH1 0x20 DUP5 ADD RETURNDATACOPY PUSH2 0x434 JUMP JUMPDEST PUSH1 0x60 SWAP2 POP JUMPDEST POP POP SWAP1 POP DUP1 PUSH2 0x480 JUMPI PUSH1 0x40 MLOAD PUSH3 0x461BCD PUSH1 0xE5 SHL DUP2 MSTORE PUSH1 0x20 PUSH1 0x4 DUP3 ADD MSTORE PUSH1 0x18 PUSH1 0x24 DUP3 ADD MSTORE PUSH24 0x4D6573736167652064656C6976657279206661696C656421 PUSH1 0x40 SHL PUSH1 0x44 DUP3 ADD MSTORE PUSH1 0x64 ADD PUSH2 0xAF JUMP JUMPDEST PUSH2 0x2CF PUSH2 0x2D5 JUMP JUMPDEST PUSH2 0x45B8 DUP1 PUSH2 0x5AE DUP4 CODECOPY ADD SWAP1 JUMP JUMPDEST PUSH0 PUSH0 PUSH0 PUSH1 0x40 DUP5 DUP7 SUB SLT ISZERO PUSH2 0x4A7 JUMPI PUSH0 PUSH0 REVERT JUMPDEST DUP4 CALLDATALOAD PUSH1 0x1 PUSH1 0x1 PUSH1 0xA0 SHL SUB DUP2 AND DUP2 EQ PUSH2 0x4BD JUMPI PUSH0 PUSH0 REVERT JUMPDEST SWAP3 POP PUSH1 0x20 DUP5 ADD CALLDATALOAD PUSH1 0x1 PUSH1 0x1 PUSH1 0x40 SHL SUB DUP2 GT ISZERO PUSH2 0x4D7 JUMPI PUSH0 PUSH0 REVERT JUMPDEST DUP5 ADD PUSH1 0x1F DUP2 ADD DUP7 SGT PUSH2 0x4E7 JUMPI PUSH0 PUSH0 REVERT JUMPDEST DUP1 CALLDATALOAD PUSH1 0x1 PUSH1 0x1 PUSH1 0x40 SHL SUB DUP2 GT ISZERO PUSH2 0x4FC JUMPI PUSH0 PUSH0 REVERT JUMPDEST DUP7 PUSH1 0x20 DUP3 DUP5 ADD ADD GT ISZERO PUSH2 0x50D JUMPI PUSH0 PUSH0 REVERT JUMPDEST SWAP4 SWAP7 PUSH1 0x20 SWAP2 SWAP1 SWAP2 ADD SWAP6 POP SWAP3 SWAP4 POP POP POP JUMP JUMPDEST PUSH0 PUSH1 0x20 DUP3 DUP5 SUB SLT ISZERO PUSH2 0x52E JUMPI PUSH0 PUSH0 REVERT JUMPDEST DUP2 MLOAD PUSH1 0x5 DUP2 LT PUSH2 0x53C JUMPI PUSH0 PUSH0 REVERT JUMPDEST SWAP4 SWAP3 POP POP POP JUMP JUMPDEST PUSH1 0x20 DUP2 ADD PUSH1 0x5 DUP4 LT PUSH2 0x563 JUMPI PUSH4 0x4E487B71 PUSH1 0xE0 SHL PUSH0 MSTORE PUSH1 0x21 PUSH1 0x4 MSTORE PUSH1 0x24 PUSH0 REVERT JUMPDEST SWAP2 SWAP1 MSTORE SWAP1 JUMP JUMPDEST PUSH1 0x20 DUP2 MSTORE DUP2 PUSH1 0x20 DUP3 ADD MSTORE DUP2 DUP4 PUSH1 0x40 DUP4 ADD CALLDATACOPY PUSH0 DUP2 DUP4 ADD PUSH1 0x40 SWAP1 DUP2 ADD SWAP2 SWAP1 SWAP2 MSTORE PUSH1 0x1F SWAP1 SWAP3 ADD PUSH1 0x1F NOT AND ADD ADD SWAP2 SWAP1 POP JUMP JUMPDEST PUSH0 DUP3 MLOAD DUP1 PUSH1 0x20 DUP6 ADD DUP5 MCOPY PUSH0 SWAP3 ADD SWAP2 DUP3 MSTORE POP SWAP2 SWAP1 POP JUMP INVALID PUSH1 0x80 PUSH1 0x40 MSTORE CALLVALUE DUP1 ISZERO PUSH1 0xE JUMPI PUSH0 PUSH0 REVERT JUMPDEST POP PUSH2 0x459C DUP1 PUSH2 0x1C PUSH0 CODECOPY PUSH0 RETURN INVALID PUSH1 0x80 PUSH1 0x40 MSTORE PUSH1 0x4 CALLDATASIZE LT PUSH2 0xDA JUMPI PUSH0 CALLDATALOAD PUSH1 0xE0 SHR DUP1 PUSH3 0xDCBC18 EQ PUSH2 0xE5 JUMPI DUP1 PUSH4 0xC949043 EQ PUSH2 0x106 JUMPI DUP1 PUSH4 0x172A89D9 EQ PUSH2 0x142 JUMPI DUP1 PUSH4 0x242AB021 EQ PUSH2 0x161 JUMPI DUP1 PUSH4 0x2E3803C6 EQ PUSH2 0x17F JUMPI DUP1 PUSH4 0x3BB060DB EQ PUSH2 0x192 JUMPI DUP1 PUSH4 0x4EC508F9 EQ PUSH2 0x1A6 JUMPI DUP1 PUSH4 0x5699FADC EQ PUSH2 0x1DA JUMPI DUP1 PUSH4 0x5D16AD15 EQ PUSH2 0x1ED JUMPI DUP1 PUSH4 0x775C300C EQ PUSH2 0x211 JUMPI DUP1 PUSH4 0x840E78FD EQ PUSH2 0x225 JUMPI DUP1 PUSH4 0x961B461E EQ PUSH2 0x25B JUMPI DUP1 PUSH4 0xA4635A1A EQ PUSH2 0x26F JUMPI DUP1 PUSH4 0xAC1EFF68 EQ PUSH2 0x282 JUMPI DUP1 PUSH4 0xB43A57A9 EQ PUSH2 0x2B0 JUMPI DUP1 PUSH4 0xD29709FB EQ PUSH2 0x2D3 JUMPI DUP1 PUSH4 0xDDFC5CFE EQ PUSH2 0x2E6 JUMPI DUP1 PUSH4 0xE0155714 EQ PUSH2 0x315 JUMPI PUSH0 PUSH0 REVERT JUMPDEST CALLDATASIZE PUSH2 0xE1 JUMPI STOP JUMPDEST PUSH0 PUSH0 REVERT JUMPDEST CALLVALUE DUP1 ISZERO PUSH2 0xF0 JUMPI PUSH0 PUSH0 REVERT JUMPDEST POP PUSH2 0x104 PUSH2 0xFF CALLDATASIZE PUSH1 0x4 PUSH2 0x1E8B JUMP JUMPDEST PUSH2 0x341 JUMP JUMPDEST STOP JUMPDEST CALLVALUE DUP1 ISZERO PUSH2 0x111 JUMPI PUSH0 PUSH0 REVERT JUMPDEST POP PUSH1 0x1 SLOAD PUSH2 0x125 SWAP1 PUSH1 0x1 PUSH1 0x1 PUSH1 0xA0 SHL SUB AND DUP2 JUMP JUMPDEST PUSH1 0x40 MLOAD PUSH1 0x1 PUSH1 0x1 PUSH1 0xA0 SHL SUB SWAP1 SWAP2 AND DUP2 MSTORE PUSH1 0x20 ADD JUMPDEST PUSH1 0x40 MLOAD DUP1 SWAP2 SUB SWAP1 RETURN JUMPDEST CALLVALUE DUP1 ISZERO PUSH2 0x14D JUMPI PUSH0 PUSH0 REVERT JUMPDEST POP PUSH2 0x104 PUSH2 0x15C CALLDATASIZE PUSH1 0x4 PUSH2 0x214D JUMP JUMPDEST PUSH2 0x3DE JUMP JUMPDEST CALLVALUE DUP1 ISZERO PUSH2 0x16C JUMPI PUSH0 PUSH0 REVERT JUMPDEST POP PUSH0 SLOAD PUSH2 0x125 SWAP1 PUSH1 0x1 PUSH1 0x1 PUSH1 0xA0 SHL SUB AND DUP2 JUMP JUMPDEST PUSH2 0x104 PUSH2 0x18D CALLDATASIZE PUSH1 0x4 PUSH2 0x2186 JUMP JUMPDEST PUSH2 0x7E7 JUMP JUMPDEST CALLVALUE DUP1 ISZERO PUSH2 0x19D JUMPI PUSH0 PUSH0 REVERT JUMPDEST POP PUSH2 0x104 PUSH2 0x894 JUMP JUMPDEST CALLVALUE DUP1 ISZERO PUSH2 0x1B1 JUMPI PUSH0 PUSH0 REVERT JUMPDEST POP PUSH2 0x1C5 PUSH2 0x1C0 CALLDATASIZE PUSH1 0x4 PUSH2 0x21A8 JUMP JUMPDEST PUSH2 0xBA8 JUMP JUMPDEST PUSH1 0x40 DUP1 MLOAD SWAP3 DUP4 MSTORE PUSH1 0x20 DUP4 ADD SWAP2 SWAP1 SWAP2 MSTORE ADD PUSH2 0x139 JUMP JUMPDEST PUSH2 0x104 PUSH2 0x1E8 CALLDATASIZE PUSH1 0x4 PUSH2 0x21BF JUMP JUMPDEST PUSH2 0xCA6 JUMP JUMPDEST CALLVALUE DUP1 ISZERO PUSH2 0x1F8 JUMPI PUSH0 PUSH0 REVERT JUMPDEST POP PUSH2 0x201 PUSH2 0x12AA JUMP JUMPDEST PUSH1 0x40 MLOAD SWAP1 ISZERO ISZERO DUP2 MSTORE PUSH1 0x20 ADD PUSH2 0x139 JUMP JUMPDEST CALLVALUE DUP1 ISZERO PUSH2 0x21C JUMPI PUSH0 PUSH0 REVERT JUMPDEST POP PUSH2 0x104 PUSH2 0x1328 JUMP JUMPDEST CALLVALUE DUP1 ISZERO PUSH2 0x230 JUMPI PUSH0 PUSH0 REVERT JUMPDEST POP PUSH2 0x244 PUSH2 0x23F CALLDATASIZE PUSH1 0x4 PUSH2 0x2186 JUMP JUMPDEST PUSH2 0x1438 JUMP JUMPDEST PUSH1 0x40 MLOAD PUSH2 0x139 SWAP12 SWAP11 SWAP10 SWAP9 SWAP8 SWAP7 SWAP6 SWAP5 SWAP4 SWAP3 SWAP2 SWAP1 PUSH2 0x223A JUMP JUMPDEST CALLVALUE DUP1 ISZERO PUSH2 0x266 JUMPI PUSH0 PUSH0 REVERT JUMPDEST POP PUSH2 0x104 PUSH2 0x16B2 JUMP JUMPDEST PUSH2 0x104 PUSH2 0x27D CALLDATASIZE PUSH1 0x4 PUSH2 0x22DB JUMP JUMPDEST PUSH2 0x1724 JUMP JUMPDEST CALLVALUE DUP1 ISZERO PUSH2 0x28D JUMPI PUSH0 PUSH0 REVERT JUMPDEST POP PUSH2 0x2A1 PUSH2 0x29C CALLDATASIZE PUSH1 0x4 PUSH2 0x21A8 JUMP JUMPDEST PUSH2 0x1994 JUMP JUMPDEST PUSH1 0x40 MLOAD PUSH2 0x139 SWAP4 SWAP3 SWAP2 SWAP1 PUSH2 0x239A JUMP JUMPDEST CALLVALUE DUP1 ISZERO PUSH2 0x2BB JUMPI PUSH0 PUSH0 REVERT JUMPDEST POP PUSH2 0x2C5 PUSH1 0x2 SLOAD DUP2 JUMP JUMPDEST PUSH1 0x40 MLOAD SWAP1 DUP2 MSTORE PUSH1 0x20 ADD PUSH2 0x139 JUMP JUMPDEST PUSH2 0x104 PUSH2 0x2E1 CALLDATASIZE PUSH1 0x4 PUSH2 0x23CE JUMP JUMPDEST PUSH2 0x1A5D JUMP JUMPDEST CALLVALUE DUP1 ISZERO PUSH2 0x2F1 JUMPI PUSH0 PUSH0 REVERT JUMPDEST POP PUSH2 0x305 PUSH2 0x300 CALLDATASIZE PUSH1 0x4 PUSH2 0x2186 JUMP JUMPDEST PUSH2 0x1B14 JUMP JUMPDEST PUSH1 0x40 MLOAD PUSH2 0x139 SWAP5 SWAP4 SWAP3 SWAP2 SWAP1 PUSH2 0x23F8 JUMP JUMPDEST CALLVALUE DUP1 ISZERO PUSH2 0x320 JUMPI PUSH0 PUSH0 REVERT JUMPDEST POP PUSH2 0x334 PUSH2 0x32F CALLDATASIZE PUSH1 0x4 PUSH2 0x21A8 JUMP JUMPDEST PUSH2 0x1BCC JUMP JUMPDEST PUSH1 0x40 MLOAD PUSH2 0x139 SWAP2 SWAP1 PUSH2 0x242E JUMP JUMPDEST PUSH1 0x40 DUP1 MLOAD PUSH1 0x60 DUP2 ADD DUP3 MSTORE PUSH1 0x1 PUSH1 0x1 PUSH1 0xA0 SHL SUB DUP1 DUP7 AND DUP3 MSTORE DUP5 ISZERO ISZERO PUSH1 0x20 DUP4 ADD SWAP1 DUP2 MSTORE SWAP3 DUP3 ADD DUP5 DUP2 MSTORE PUSH1 0x3 DUP1 SLOAD PUSH1 0x1 DUP2 ADD DUP3 SSTORE PUSH0 SWAP2 SWAP1 SWAP2 MSTORE DUP4 MLOAD PUSH1 0x2 SWAP1 SWAP2 MUL PUSH0 MLOAD PUSH1 0x20 PUSH2 0x4507 PUSH0 CODECOPY PUSH0 MLOAD SWAP1 PUSH0 MSTORE DUP2 ADD DUP1 SLOAD SWAP7 MLOAD ISZERO ISZERO PUSH1 0x1 PUSH1 0xA0 SHL MUL PUSH1 0x1 PUSH1 0x1 PUSH1 0xA8 SHL SUB NOT SWAP1 SWAP8 AND SWAP3 SWAP1 SWAP5 AND SWAP2 SWAP1 SWAP2 OR SWAP5 SWAP1 SWAP5 OR DUP3 SSTORE MLOAD SWAP2 SWAP3 DUP4 SWAP3 PUSH0 MLOAD PUSH1 0x20 PUSH2 0x44E7 PUSH0 CODECOPY PUSH0 MLOAD SWAP1 PUSH0 MSTORE SWAP1 SWAP2 ADD SWAP1 PUSH2 0x3D5 SWAP1 DUP3 PUSH2 0x24DA JUMP JUMPDEST POP POP POP POP POP POP POP JUMP JUMPDEST PUSH1 0x1 SLOAD PUSH1 0x40 MLOAD PUSH4 0x1EDD5FF9 PUSH1 0xE3 SHL DUP2 MSTORE PUSH0 PUSH1 0x4 DUP3 ADD DUP2 SWAP1 MSTORE SWAP2 PUSH1 0x1 PUSH1 0x1 PUSH1 0xA0 SHL SUB AND SWAP1 PUSH4 0xF6EAFFC8 SWAP1 PUSH1 0x24 ADD PUSH1 0x20 PUSH1 0x40 MLOAD DUP1 DUP4 SUB DUP2 DUP7 GAS STATICCALL ISZERO DUP1 ISZERO PUSH2 0x425 JUMPI RETURNDATASIZE PUSH0 PUSH0 RETURNDATACOPY RETURNDATASIZE PUSH0 REVERT JUMPDEST POP POP POP POP PUSH1 0x40 MLOAD RETURNDATASIZE PUSH1 0x1F NOT PUSH1 0x1F DUP3 ADD AND DUP3 ADD DUP1 PUSH1 0x40 MSTORE POP DUP2 ADD SWAP1 PUSH2 0x449 SWAP2 SWAP1 PUSH2 0x258F JUMP JUMPDEST PUSH1 0x40 DUP1 MLOAD PUSH1 0x3 DUP1 DUP3 MSTORE PUSH1 0x80 DUP3 ADD SWAP1 SWAP3 MSTORE SWAP2 SWAP3 POP PUSH0 SWAP2 SWAP1 DUP2 PUSH1 0x20 ADD JUMPDEST PUSH1 0x40 DUP1 MLOAD PUSH1 0x60 DUP1 DUP3 ADD DUP4 MSTORE PUSH0 DUP1 DUP4 MSTORE PUSH1 0x20 DUP4 ADD MSTORE SWAP2 DUP2 ADD SWAP2 SWAP1 SWAP2 MSTORE DUP2 MSTORE PUSH1 0x20 ADD SWAP1 PUSH1 0x1 SWAP1 SUB SWAP1 DUP2 PUSH2 0x464 JUMPI POP POP PUSH1 0x3 DUP1 SLOAD SWAP2 SWAP3 POP SWAP1 PUSH2 0x4A3 SWAP1 DUP5 PUSH2 0x25BA JUMP JUMPDEST DUP2 SLOAD DUP2 LT PUSH2 0x4B3 JUMPI PUSH2 0x4B3 PUSH2 0x25CD JUMP JUMPDEST PUSH0 SWAP2 DUP3 MSTORE PUSH1 0x20 SWAP2 DUP3 SWAP1 KECCAK256 PUSH1 0x40 DUP1 MLOAD PUSH1 0x60 DUP2 ADD DUP3 MSTORE PUSH1 0x2 SWAP1 SWAP4 MUL SWAP1 SWAP2 ADD DUP1 SLOAD PUSH1 0x1 PUSH1 0x1 PUSH1 0xA0 SHL SUB DUP2 AND DUP5 MSTORE PUSH1 0xFF PUSH1 0x1 PUSH1 0xA0 SHL SWAP1 SWAP2 DIV AND ISZERO ISZERO SWAP4 DUP4 ADD SWAP4 SWAP1 SWAP4 MSTORE PUSH1 0x1 DUP4 ADD DUP1 SLOAD SWAP3 SWAP4 SWAP3 SWAP2 DUP5 ADD SWAP2 PUSH2 0x507 SWAP1 PUSH2 0x2442 JUMP JUMPDEST DUP1 PUSH1 0x1F ADD PUSH1 0x20 DUP1 SWAP2 DIV MUL PUSH1 0x20 ADD PUSH1 0x40 MLOAD SWAP1 DUP2 ADD PUSH1 0x40 MSTORE DUP1 SWAP3 SWAP2 SWAP1 DUP2 DUP2 MSTORE PUSH1 0x20 ADD DUP3 DUP1 SLOAD PUSH2 0x533 SWAP1 PUSH2 0x2442 JUMP JUMPDEST DUP1 ISZERO PUSH2 0x57E JUMPI DUP1 PUSH1 0x1F LT PUSH2 0x555 JUMPI PUSH2 0x100 DUP1 DUP4 SLOAD DIV MUL DUP4 MSTORE SWAP2 PUSH1 0x20 ADD SWAP2 PUSH2 0x57E JUMP JUMPDEST DUP3 ADD SWAP2 SWAP1 PUSH0 MSTORE PUSH1 0x20 PUSH0 KECCAK256 SWAP1 JUMPDEST DUP2 SLOAD DUP2 MSTORE SWAP1 PUSH1 0x1 ADD SWAP1 PUSH1 0x20 ADD DUP1 DUP4 GT PUSH2 0x561 JUMPI DUP3 SWAP1 SUB PUSH1 0x1F AND DUP3 ADD SWAP2 JUMPDEST POP POP POP POP POP DUP2 MSTORE POP POP DUP2 PUSH0 DUP2 MLOAD DUP2 LT PUSH2 0x599 JUMPI PUSH2 0x599 PUSH2 0x25CD JUMP JUMPDEST PUSH1 0x20 SWAP1 DUP2 MUL SWAP2 SWAP1 SWAP2 ADD ADD MSTORE PUSH1 0x3 DUP1 SLOAD PUSH2 0x5B3 PUSH1 0x2 DUP6 PUSH2 0x25F5 JUMP JUMPDEST PUSH2 0x5BD SWAP2 SWAP1 PUSH2 0x25BA JUMP JUMPDEST DUP2 SLOAD DUP2 LT PUSH2 0x5CD JUMPI PUSH2 0x5CD PUSH2 0x25CD JUMP JUMPDEST PUSH0 SWAP2 DUP3 MSTORE PUSH1 0x20 SWAP2 DUP3 SWAP1 KECCAK256 PUSH1 0x40 DUP1 MLOAD PUSH1 0x60 DUP2 ADD DUP3 MSTORE PUSH1 0x2 SWAP1 SWAP4 MUL SWAP1 SWAP2 ADD DUP1 SLOAD PUSH1 0x1 PUSH1 0x1 PUSH1 0xA0 SHL SUB DUP2 AND DUP5 MSTORE PUSH1 0xFF PUSH1 0x1 PUSH1 0xA0 SHL SWAP1 SWAP2 DIV AND ISZERO ISZERO SWAP4 DUP4 ADD SWAP4 SWAP1 SWAP4 MSTORE PUSH1 0x1 DUP4 ADD DUP1 SLOAD SWAP3 SWAP4 SWAP3 SWAP2 DUP5 ADD SWAP2 PUSH2 0x621 SWAP1 PUSH2 0x2442 JUMP JUMPDEST DUP1 PUSH1 0x1F ADD PUSH1 0x20 DUP1 SWAP2 DIV MUL PUSH1 0x20 ADD PUSH1 0x40 MLOAD SWAP1 DUP2 ADD PUSH1 0x40 MSTORE DUP1 SWAP3 SWAP2 SWAP1 DUP2 DUP2 MSTORE PUSH1 0x20 ADD DUP3 DUP1 SLOAD PUSH2 0x64D SWAP1 PUSH2 0x2442 JUMP JUMPDEST DUP1 ISZERO PUSH2 0x698 JUMPI DUP1 PUSH1 0x1F LT PUSH2 0x66F JUMPI PUSH2 0x100 DUP1 DUP4 SLOAD DIV MUL DUP4 MSTORE SWAP2 PUSH1 0x20 ADD SWAP2 PUSH2 0x698 JUMP JUMPDEST DUP3 ADD SWAP2 SWAP1 PUSH0 MSTORE PUSH1 0x20 PUSH0 KECCAK256 SWAP1 JUMPDEST DUP2 SLOAD DUP2 MSTORE SWAP1 PUSH1 0x1 ADD SWAP1 PUSH1 0x20 ADD DUP1 DUP4 GT PUSH2 0x67B JUMPI DUP3 SWAP1 SUB PUSH1 0x1F AND DUP3 ADD SWAP2 JUMPDEST POP POP POP POP POP DUP2 MSTORE POP POP DUP2 PUSH1 0x1 DUP2 MLOAD DUP2 LT PUSH2 0x6B4 JUMPI PUSH2 0x6B4 PUSH2 0x25CD JUMP JUMPDEST PUSH1 0x20 SWAP1 DUP2 MUL SWAP2 SWAP1 SWAP2 ADD ADD MSTORE PUSH1 0x3 DUP1 SLOAD PUSH2 0x6CE DUP5 PUSH1 0x2 PUSH2 0x2608 JUMP JUMPDEST PUSH2 0x6D8 SWAP2 SWAP1 PUSH2 0x25BA JUMP JUMPDEST DUP2 SLOAD DUP2 LT PUSH2 0x6E8 JUMPI PUSH2 0x6E8 PUSH2 0x25CD JUMP JUMPDEST PUSH0 SWAP2 DUP3 MSTORE PUSH1 0x20 SWAP2 DUP3 SWAP1 KECCAK256 PUSH1 0x40 DUP1 MLOAD PUSH1 0x60 DUP2 ADD DUP3 MSTORE PUSH1 0x2 SWAP1 SWAP4 MUL SWAP1 SWAP2 ADD DUP1 SLOAD PUSH1 0x1 PUSH1 0x1 PUSH1 0xA0 SHL SUB DUP2 AND DUP5 MSTORE PUSH1 0xFF PUSH1 0x1 PUSH1 0xA0 SHL SWAP1 SWAP2 DIV AND ISZERO ISZERO SWAP4 DUP4 ADD SWAP4 SWAP1 SWAP4 MSTORE PUSH1 0x1 DUP4 ADD DUP1 SLOAD SWAP3 SWAP4 SWAP3 SWAP2 DUP5 ADD SWAP2 PUSH2 0x73C SWAP1 PUSH2 0x2442 JUMP JUMPDEST DUP1 PUSH1 0x1F ADD PUSH1 0x20 DUP1 SWAP2 DIV MUL PUSH1 0x20 ADD PUSH1 0x40 MLOAD SWAP1 DUP2 ADD PUSH1 0x40 MSTORE DUP1 SWAP3 SWAP2 SWAP1 DUP2 DUP2 MSTORE PUSH1 0x20 ADD DUP3 DUP1 SLOAD PUSH2 0x768 SWAP1 PUSH2 0x2442 JUMP JUMPDEST DUP1 ISZERO PUSH2 0x7B3 JUMPI DUP1 PUSH1 0x1F LT PUSH2 0x78A JUMPI PUSH2 0x100 DUP1 DUP4 SLOAD DIV MUL DUP4 MSTORE SWAP2 PUSH1 0x20 ADD SWAP2 PUSH2 0x7B3 JUMP JUMPDEST DUP3 ADD SWAP2 SWAP1 PUSH0 MSTORE PUSH1 0x20 PUSH0 KECCAK256 SWAP1 JUMPDEST DUP2 SLOAD DUP2 MSTORE SWAP1 PUSH1 0x1 ADD SWAP1 PUSH1 0x20 ADD DUP1 DUP4 GT PUSH2 0x796 JUMPI DUP3 SWAP1 SUB PUSH1 0x1F AND DUP3 ADD SWAP2 JUMPDEST POP POP POP POP POP DUP2 MSTORE POP POP DUP2 PUSH1 0x2 DUP2 MLOAD DUP2 LT PUSH2 0x7CF JUMPI PUSH2 0x7CF PUSH2 0x25CD JUMP JUMPDEST PUSH1 0x20 SWAP1 DUP2 MUL SWAP2 SWAP1 SWAP2 ADD ADD MSTORE PUSH2 0x120 SWAP1 SWAP3 ADD SWAP2 SWAP1 SWAP2 MSTORE POP JUMP JUMPDEST PUSH1 0x1 PUSH1 0x1 PUSH1 0xA0 SHL SUB DUP2 AND PUSH0 SWAP1 DUP2 MSTORE PUSH1 0x5 PUSH1 0x20 MSTORE PUSH1 0x40 DUP2 KECCAK256 PUSH1 0x2 ADD SLOAD SWAP1 SUB PUSH2 0x83E JUMPI PUSH1 0x1 PUSH1 0x1 PUSH1 0xA0 SHL SUB DUP2 AND PUSH0 SWAP1 DUP2 MSTORE PUSH1 0x5 PUSH1 0x20 MSTORE PUSH1 0x40 DUP2 KECCAK256 PUSH1 0x2 ADD DUP1 SLOAD PUSH1 0x1 SWAP3 SWAP1 PUSH2 0x833 SWAP1 DUP5 SWAP1 PUSH2 0x261F JUMP JUMPDEST SWAP1 SWAP2 SSTORE POP PUSH2 0x891 SWAP1 POP JUMP JUMPDEST PUSH1 0x1 PUSH1 0x1 PUSH1 0xA0 SHL SUB DUP2 AND PUSH0 SWAP1 DUP2 MSTORE PUSH1 0x5 PUSH1 0x20 MSTORE PUSH1 0x40 SWAP1 KECCAK256 PUSH1 0x2 ADD SLOAD PUSH1 0xA SUB PUSH2 0x891 JUMPI PUSH1 0x1 PUSH1 0x1 PUSH1 0xA0 SHL SUB DUP2 AND PUSH0 SWAP1 DUP2 MSTORE PUSH1 0x5 PUSH1 0x20 MSTORE PUSH1 0x40 DUP2 KECCAK256 PUSH1 0x2 ADD DUP1 SLOAD PUSH1 0x1 SWAP3 SWAP1 PUSH2 0x88B SWAP1 DUP5 SWAP1 PUSH2 0x2632 JUMP JUMPDEST SWAP1 SWAP2 SSTORE POP POP JUMPDEST POP JUMP JUMPDEST PUSH1 0x40 DUP1 MLOAD PUSH1 0x60 DUP2 ADD DUP3 MSTORE PUSH20 0x90FAB679BBEA10C247209CD6A22A0AC7D9A4829 DUP2 MSTORE PUSH0 PUSH1 0x20 DUP1 DUP4 ADD DUP3 DUP2 MSTORE DUP5 MLOAD SWAP2 DUP3 ADD DUP6 MSTORE DUP3 DUP3 MSTORE SWAP4 DUP4 ADD SWAP1 DUP2 MSTORE PUSH1 0x3 DUP1 SLOAD PUSH1 0x1 DUP2 ADD DUP3 SSTORE SWAP3 MSTORE DUP3 MLOAD PUSH1 0x2 SWAP1 SWAP3 MUL PUSH0 MLOAD PUSH1 0x20 PUSH2 0x4507 PUSH0 CODECOPY PUSH0 MLOAD SWAP1 PUSH0 MSTORE DUP2 ADD DUP1 SLOAD SWAP6 MLOAD ISZERO ISZERO PUSH1 0x1 PUSH1 0xA0 SHL MUL PUSH1 0x1 PUSH1 0x1 PUSH1 0xA8 SHL SUB NOT SWAP1 SWAP7 AND PUSH1 0x1 PUSH1 0x1 PUSH1 0xA0 SHL SUB SWAP5 SWAP1 SWAP5 AND SWAP4 SWAP1 SWAP4 OR SWAP5 SWAP1 SWAP5 OR DUP3 SSTORE MLOAD SWAP2 SWAP3 DUP4 SWAP3 PUSH0 MLOAD PUSH1 0x20 PUSH2 0x44E7 PUSH0 CODECOPY PUSH0 MLOAD SWAP1 PUSH0 MSTORE SWAP1 SWAP2 ADD SWAP1 PUSH2 0x940 SWAP1 DUP3 PUSH2 0x24DA JUMP JUMPDEST POP POP PUSH1 0x40 DUP1 MLOAD PUSH1 0x60 DUP2 ADD DUP3 MSTORE PUSH20 0x84030698CB02D41796503B43A36F61F25422FFF5 DUP2 MSTORE PUSH1 0x1 PUSH1 0x20 DUP1 DUP4 ADD DUP3 DUP2 MSTORE DUP5 MLOAD SWAP2 DUP3 ADD DUP6 MSTORE PUSH0 DUP1 DUP4 MSTORE SWAP5 DUP5 ADD SWAP2 DUP3 MSTORE PUSH1 0x3 DUP1 SLOAD SWAP4 DUP5 ADD DUP2 SSTORE SWAP1 SWAP5 MSTORE DUP3 MLOAD PUSH1 0x2 SWAP1 SWAP3 MUL PUSH0 MLOAD PUSH1 0x20 PUSH2 0x4507 PUSH0 CODECOPY PUSH0 MLOAD SWAP1 PUSH0 MSTORE DUP2 ADD DUP1 SLOAD SWAP6 MLOAD ISZERO ISZERO PUSH1 0x1 PUSH1 0xA0 SHL MUL PUSH1 0x1 PUSH1 0x1 PUSH1 0xA8 SHL SUB NOT SWAP1 SWAP7 AND PUSH1 0x1 PUSH1 0x1 PUSH1 0xA0 SHL SUB SWAP5 SWAP1 SWAP5 AND SWAP4 SWAP1 SWAP4 OR SWAP5 SWAP1 SWAP5 OR DUP3 SSTORE MLOAD SWAP2 SWAP4 POP DUP4 SWAP3 SWAP1 SWAP2 PUSH0 MLOAD PUSH1 0x20 PUSH2 0x44E7 PUSH0 CODECOPY PUSH0 MLOAD SWAP1 PUSH0 MSTORE SWAP1 SWAP2 ADD SWAP1 PUSH2 0x9F3 SWAP1 DUP3 PUSH2 0x24DA JUMP JUMPDEST POP POP PUSH1 0x40 DUP1 MLOAD PUSH1 0x60 DUP2 ADD DUP3 MSTORE PUSH20 0x65D24EA35566891CB99DDA55213A4E76C39B806E DUP2 MSTORE PUSH1 0x1 PUSH1 0x20 DUP1 DUP4 ADD DUP3 DUP2 MSTORE DUP5 MLOAD SWAP2 DUP3 ADD DUP6 MSTORE PUSH0 DUP1 DUP4 MSTORE SWAP5 DUP5 ADD SWAP2 DUP3 MSTORE PUSH1 0x3 DUP1 SLOAD SWAP4 DUP5 ADD DUP2 SSTORE SWAP1 SWAP5 MSTORE DUP3 MLOAD PUSH1 0x2 SWAP1 SWAP3 MUL PUSH0 MLOAD PUSH1 0x20 PUSH2 0x4507 PUSH0 CODECOPY PUSH0 MLOAD SWAP1 PUSH0 MSTORE DUP2 ADD DUP1 SLOAD SWAP6 MLOAD ISZERO ISZERO PUSH1 0x1 PUSH1 0xA0 SHL MUL PUSH1 0x1 PUSH1 0x1 PUSH1 0xA8 SHL SUB NOT SWAP1 SWAP7 AND PUSH1 0x1 PUSH1 0x1 PUSH1 0xA0 SHL SUB SWAP5 SWAP1 SWAP5 AND SWAP4 SWAP1 SWAP4 OR SWAP5 SWAP1 SWAP5 OR DUP3 SSTORE MLOAD SWAP2 SWAP4 POP DUP4 SWAP3 SWAP1 SWAP2 PUSH0 MLOAD PUSH1 0x20 PUSH2 0x44E7 PUSH0 CODECOPY PUSH0 MLOAD SWAP1 PUSH0 MSTORE SWAP1 SWAP2 ADD SWAP1 PUSH2 0xAA6 SWAP1 DUP3 PUSH2 0x24DA JUMP JUMPDEST POP POP CALLER PUSH0 SWAP1 DUP2 MSTORE PUSH1 0x4 PUSH1 0x20 SWAP1 DUP2 MSTORE PUSH1 0x40 DUP1 DUP4 KECCAK256 PUSH4 0x499602D2 DUP2 SSTORE PUSH1 0x1 DUP2 ADD DUP1 SLOAD PUSH1 0x1 PUSH1 0x1 PUSH1 0xA0 SHL SUB NOT AND PUSH20 0xF3447C8A17761E8E5233FE5A50AC72CECA387559 OR SWAP1 SSTORE DUP2 MLOAD SWAP3 DUP4 ADD SWAP1 SWAP2 MSTORE SWAP2 DUP2 MSTORE SWAP1 SWAP2 POP PUSH1 0x2 DUP3 ADD SWAP1 PUSH2 0xB05 SWAP1 DUP3 PUSH2 0x24DA JUMP JUMPDEST POP PUSH1 0x1 PUSH1 0x3 DUP3 ADD SSTORE PUSH3 0x69780 PUSH1 0x4 DUP3 ADD SSTORE PUSH1 0x40 DUP1 MLOAD PUSH1 0x20 DUP2 ADD SWAP1 SWAP2 MSTORE PUSH0 DUP2 MSTORE PUSH1 0x5 DUP3 ADD SWAP1 PUSH2 0xB33 SWAP1 DUP3 PUSH2 0x24DA JUMP JUMPDEST POP PUSH10 0x1D9CA7A480674860000 PUSH1 0x6 DUP3 ADD SSTORE PUSH1 0x40 DUP1 MLOAD PUSH1 0x20 DUP2 ADD SWAP1 SWAP2 MSTORE PUSH0 DUP2 MSTORE PUSH1 0x7 DUP3 ADD SWAP1 PUSH2 0xB61 SWAP1 DUP3 PUSH2 0x24DA JUMP JUMPDEST POP PUSH1 0x40 DUP1 MLOAD PUSH1 0x20 DUP2 ADD SWAP1 SWAP2 MSTORE PUSH0 DUP2 MSTORE PUSH1 0x8 DUP3 ADD SWAP1 PUSH2 0xB7F SWAP1 DUP3 PUSH2 0x24DA JUMP JUMPDEST POP PUSH1 0x3 DUP1 SLOAD PUSH2 0xB92 SWAP2 PUSH1 0x9 DUP5 ADD SWAP2 PUSH2 0x1C19 JUMP JUMPDEST POP PUSH1 0xA ADD DUP1 SLOAD PUSH2 0xFFFF NOT AND PUSH2 0x101 OR SWAP1 SSTORE POP POP POP JUMP JUMPDEST PUSH0 DUP1 DUP1 PUSH2 0xBB6 DUP5 PUSH1 0x5 PUSH2 0x2608 JUMP JUMPDEST PUSH2 0xBC2 SWAP1 PUSH2 0x3E8 PUSH2 0x25F5 JUMP JUMPDEST SWAP1 POP PUSH0 PUSH2 0xBD1 DUP3 PUSH2 0x3E8 PUSH2 0x2632 JUMP JUMPDEST SWAP1 POP PUSH0 MLOAD PUSH1 0x20 PUSH2 0x4527 PUSH0 CODECOPY PUSH0 MLOAD SWAP1 PUSH0 MSTORE PUSH2 0xBED DUP4 PUSH2 0x7D0 PUSH2 0x261F JUMP JUMPDEST PUSH1 0x40 MLOAD PUSH2 0xC42 SWAP2 SWAP1 PUSH1 0x40 DUP1 DUP3 MSTORE PUSH1 0x25 SWAP1 DUP3 ADD MSTORE PUSH32 0x5468652070726F706F6E656E742068617320746F20706179206120746F74616C PUSH1 0x60 DUP3 ADD MSTORE PUSH5 0x1037B31D1 PUSH1 0xDD SHL PUSH1 0x80 DUP3 ADD MSTORE PUSH1 0x20 DUP2 ADD SWAP2 SWAP1 SWAP2 MSTORE PUSH1 0xA0 ADD SWAP1 JUMP JUMPDEST PUSH1 0x40 MLOAD DUP1 SWAP2 SUB SWAP1 LOG1 PUSH1 0x40 DUP1 MLOAD DUP2 DUP2 MSTORE PUSH1 0x1C DUP2 DUP4 ADD MSTORE PUSH28 0x2B32B93930903430B9903A37903830BC9030903A37BA30B61037B31D PUSH1 0x21 SHL PUSH1 0x60 DUP3 ADD MSTORE PUSH1 0x20 DUP2 ADD DUP4 SWAP1 MSTORE SWAP1 MLOAD PUSH0 MLOAD PUSH1 0x20 PUSH2 0x4527 PUSH0 CODECOPY PUSH0 MLOAD SWAP1 PUSH0 MSTORE SWAP2 DUP2 SWAP1 SUB PUSH1 0x80 ADD SWAP1 LOG1 SWAP1 SWAP5 SWAP1 SWAP4 POP SWAP2 POP POP JUMP JUMPDEST CALLER PUSH0 SWAP1 DUP2 MSTORE PUSH1 0x4 PUSH1 0x20 DUP2 SWAP1 MSTORE PUSH1 0x40 SWAP1 SWAP2 KECCAK256 PUSH1 0xA ADD DUP1 SLOAD DUP4 SWAP3 PUSH1 0xFF NOT SWAP1 SWAP2 AND SWAP1 PUSH1 0x1 SWAP1 DUP5 SWAP1 DUP2 GT ISZERO PUSH2 0xCD9 JUMPI PUSH2 0xCD9 PUSH2 0x2206 JUMP JUMPDEST MUL OR SWAP1 SSTORE POP PUSH1 0x3 DUP2 PUSH1 0x4 DUP2 GT ISZERO PUSH2 0xCF2 JUMPI PUSH2 0xCF2 PUSH2 0x2206 JUMP JUMPDEST EQ DUP1 PUSH2 0xD0F JUMPI POP PUSH1 0x4 DUP2 PUSH1 0x4 DUP2 GT ISZERO PUSH2 0xD0D JUMPI PUSH2 0xD0D PUSH2 0x2206 JUMP JUMPDEST EQ JUMPDEST ISZERO PUSH2 0x891 JUMPI PUSH2 0xBB8 SELFBALANCE LT PUSH2 0x1267 JUMPI PUSH2 0xD25 PUSH2 0x12AA JUMP JUMPDEST ISZERO ISZERO PUSH1 0x1 SUB PUSH2 0x1200 JUMPI PUSH1 0x1 PUSH1 0x2 DUP2 DUP2 SSTORE CALLER PUSH0 SWAP1 DUP2 MSTORE PUSH1 0x4 PUSH1 0x20 SWAP1 DUP2 MSTORE PUSH1 0x40 SWAP2 DUP3 SWAP1 KECCAK256 DUP3 MLOAD PUSH2 0x180 DUP2 ADD DUP5 MSTORE DUP2 SLOAD DUP2 MSTORE SWAP5 DUP2 ADD SLOAD PUSH1 0x1 PUSH1 0x1 PUSH1 0xA0 SHL SUB AND SWAP2 DUP6 ADD SWAP2 SWAP1 SWAP2 MSTORE SWAP2 DUP3 ADD DUP1 SLOAD PUSH2 0x891 SWAP5 SWAP4 SWAP3 DUP5 ADD SWAP2 SWAP1 PUSH2 0xD80 SWAP1 PUSH2 0x2442 JUMP JUMPDEST DUP1 PUSH1 0x1F ADD PUSH1 0x20 DUP1 SWAP2 DIV MUL PUSH1 0x20 ADD PUSH1 0x40 MLOAD SWAP1 DUP2 ADD PUSH1 0x40 MSTORE DUP1 SWAP3 SWAP2 SWAP1 DUP2 DUP2 MSTORE PUSH1 0x20 ADD DUP3 DUP1 SLOAD PUSH2 0xDAC SWAP1 PUSH2 0x2442 JUMP JUMPDEST DUP1 ISZERO PUSH2 0xDF7 JUMPI DUP1 PUSH1 0x1F LT PUSH2 0xDCE JUMPI PUSH2 0x100 DUP1 DUP4 SLOAD DIV MUL DUP4 MSTORE SWAP2 PUSH1 0x20 ADD SWAP2 PUSH2 0xDF7 JUMP JUMPDEST DUP3 ADD SWAP2 SWAP1 PUSH0 MSTORE PUSH1 0x20 PUSH0 KECCAK256 SWAP1 JUMPDEST DUP2 SLOAD DUP2 MSTORE SWAP1 PUSH1 0x1 ADD SWAP1 PUSH1 0x20 ADD DUP1 DUP4 GT PUSH2 0xDDA JUMPI DUP3 SWAP1 SUB PUSH1 0x1F AND DUP3 ADD SWAP2 JUMPDEST POP POP POP POP POP DUP2 MSTORE PUSH1 0x20 ADD PUSH1 0x3 DUP3 ADD SLOAD DUP2 MSTORE PUSH1 0x20 ADD PUSH1 0x4 DUP3 ADD SLOAD DUP2 MSTORE PUSH1 0x20 ADD PUSH1 0x5 DUP3 ADD DUP1 SLOAD PUSH2 0xE24 SWAP1 PUSH2 0x2442 JUMP JUMPDEST DUP1 PUSH1 0x1F ADD PUSH1 0x20 DUP1 SWAP2 DIV MUL PUSH1 0x20 ADD PUSH1 0x40 MLOAD SWAP1 DUP2 ADD PUSH1 0x40 MSTORE DUP1 SWAP3 SWAP2 SWAP1 DUP2 DUP2 MSTORE PUSH1 0x20 ADD DUP3 DUP1 SLOAD PUSH2 0xE50 SWAP1 PUSH2 0x2442 JUMP JUMPDEST DUP1 ISZERO PUSH2 0xE9B JUMPI DUP1 PUSH1 0x1F LT PUSH2 0xE72 JUMPI PUSH2 0x100 DUP1 DUP4 SLOAD DIV MUL DUP4 MSTORE SWAP2 PUSH1 0x20 ADD SWAP2 PUSH2 0xE9B JUMP JUMPDEST DUP3 ADD SWAP2 SWAP1 PUSH0 MSTORE PUSH1 0x20 PUSH0 KECCAK256 SWAP1 JUMPDEST DUP2 SLOAD DUP2 MSTORE SWAP1 PUSH1 0x1 ADD SWAP1 PUSH1 0x20 ADD DUP1 DUP4 GT PUSH2 0xE7E JUMPI DUP3 SWAP1 SUB PUSH1 0x1F AND DUP3 ADD SWAP2 JUMPDEST POP POP POP POP POP DUP2 MSTORE PUSH1 0x20 ADD PUSH1 0x6 DUP3 ADD SLOAD DUP2 MSTORE PUSH1 0x20 ADD PUSH1 0x7 DUP3 ADD DUP1 SLOAD PUSH2 0xEBE SWAP1 PUSH2 0x2442 JUMP JUMPDEST DUP1 PUSH1 0x1F ADD PUSH1 0x20 DUP1 SWAP2 DIV MUL PUSH1 0x20 ADD PUSH1 0x40 MLOAD SWAP1 DUP2 ADD PUSH1 0x40 MSTORE DUP1 SWAP3 SWAP2 SWAP1 DUP2 DUP2 MSTORE PUSH1 0x20 ADD DUP3 DUP1 SLOAD PUSH2 0xEEA SWAP1 PUSH2 0x2442 JUMP JUMPDEST DUP1 ISZERO PUSH2 0xF35 JUMPI DUP1 PUSH1 0x1F LT PUSH2 0xF0C JUMPI PUSH2 0x100 DUP1 DUP4 SLOAD DIV MUL DUP4 MSTORE SWAP2 PUSH1 0x20 ADD SWAP2 PUSH2 0xF35 JUMP JUMPDEST DUP3 ADD SWAP2 SWAP1 PUSH0 MSTORE PUSH1 0x20 PUSH0 KECCAK256 SWAP1 JUMPDEST DUP2 SLOAD DUP2 MSTORE SWAP1 PUSH1 0x1 ADD SWAP1 PUSH1 0x20 ADD DUP1 DUP4 GT PUSH2 0xF18 JUMPI DUP3 SWAP1 SUB PUSH1 0x1F AND DUP3 ADD SWAP2 JUMPDEST POP POP POP POP POP DUP2 MSTORE PUSH1 0x20 ADD PUSH1 0x8 DUP3 ADD DUP1 SLOAD PUSH2 0xF4E SWAP1 PUSH2 0x2442 JUMP JUMPDEST DUP1 PUSH1 0x1F ADD PUSH1 0x20 DUP1 SWAP2 DIV MUL PUSH1 0x20 ADD PUSH1 0x40 MLOAD SWAP1 DUP2 ADD PUSH1 0x40 MSTORE DUP1 SWAP3 SWAP2 SWAP1 DUP2 DUP2 MSTORE PUSH1 0x20 ADD DUP3 DUP1 SLOAD PUSH2 0xF7A SWAP1 PUSH2 0x2442 JUMP JUMPDEST DUP1 ISZERO PUSH2 0xFC5 JUMPI DUP1 PUSH1 0x1F LT PUSH2 0xF9C JUMPI PUSH2 0x100 DUP1 DUP4 SLOAD DIV MUL DUP4 MSTORE SWAP2 PUSH1 0x20 ADD SWAP2 PUSH2 0xFC5 JUMP JUMPDEST DUP3 ADD SWAP2 SWAP1 PUSH0 MSTORE PUSH1 0x20 PUSH0 KECCAK256 SWAP1 JUMPDEST DUP2 SLOAD DUP2 MSTORE SWAP1 PUSH1 0x1 ADD SWAP1 PUSH1 0x20 ADD DUP1 DUP4 GT PUSH2 0xFA8 JUMPI DUP3 SWAP1 SUB PUSH1 0x1F AND DUP3 ADD SWAP2 JUMPDEST POP POP POP POP POP DUP2 MSTORE PUSH1 0x20 ADD PUSH1 0x9 DUP3 ADD DUP1 SLOAD DUP1 PUSH1 0x20 MUL PUSH1 0x20 ADD PUSH1 0x40 MLOAD SWAP1 DUP2 ADD PUSH1 0x40 MSTORE DUP1 SWAP3 SWAP2 SWAP1 DUP2 DUP2 MSTORE PUSH1 0x20 ADD PUSH0 SWAP1 JUMPDEST DUP3 DUP3 LT ISZERO PUSH2 0x10DB JUMPI PUSH0 DUP5 DUP2 MSTORE PUSH1 0x20 SWAP1 DUP2 SWAP1 KECCAK256 PUSH1 0x40 DUP1 MLOAD PUSH1 0x60 DUP2 ADD DUP3 MSTORE PUSH1 0x2 DUP7 MUL SWAP1 SWAP3 ADD DUP1 SLOAD PUSH1 0x1 PUSH1 0x1 PUSH1 0xA0 SHL SUB DUP2 AND DUP5 MSTORE PUSH1 0x1 PUSH1 0xA0 SHL SWAP1 DIV PUSH1 0xFF AND ISZERO ISZERO SWAP4 DUP4 ADD SWAP4 SWAP1 SWAP4 MSTORE PUSH1 0x1 DUP4 ADD DUP1 SLOAD SWAP3 SWAP4 SWAP3 SWAP2 DUP5 ADD SWAP2 PUSH2 0x104C SWAP1 PUSH2 0x2442 JUMP JUMPDEST DUP1 PUSH1 0x1F ADD PUSH1 0x20 DUP1 SWAP2 DIV MUL PUSH1 0x20 ADD PUSH1 0x40 MLOAD SWAP1 DUP2 ADD PUSH1 0x40 MSTORE DUP1 SWAP3 SWAP2 SWAP1 DUP2 DUP2 MSTORE PUSH1 0x20 ADD DUP3 DUP1 SLOAD PUSH2 0x1078 SWAP1 PUSH2 0x2442 JUMP JUMPDEST DUP1 ISZERO PUSH2 0x10C3 JUMPI DUP1 PUSH1 0x1F LT PUSH2 0x109A JUMPI PUSH2 0x100 DUP1 DUP4 SLOAD DIV MUL DUP4 MSTORE SWAP2 PUSH1 0x20 ADD SWAP2 PUSH2 0x10C3 JUMP JUMPDEST DUP3 ADD SWAP2 SWAP1 PUSH0 MSTORE PUSH1 0x20 PUSH0 KECCAK256 SWAP1 JUMPDEST DUP2 SLOAD DUP2 MSTORE SWAP1 PUSH1 0x1 ADD SWAP1 PUSH1 0x20 ADD DUP1 DUP4 GT PUSH2 0x10A6 JUMPI DUP3 SWAP1 SUB PUSH1 0x1F AND DUP3 ADD SWAP2 JUMPDEST POP POP POP POP POP DUP2 MSTORE POP POP DUP2 MSTORE PUSH1 0x20 ADD SWAP1 PUSH1 0x1 ADD SWAP1 PUSH2 0xFF2 JUMP JUMPDEST POP POP POP SWAP1 DUP3 MSTORE POP PUSH1 0xA DUP3 ADD SLOAD PUSH1 0x20 SWAP1 SWAP2 ADD SWAP1 PUSH1 0xFF AND PUSH1 0x4 DUP2 GT ISZERO PUSH2 0x1101 JUMPI PUSH2 0x1101 PUSH2 0x2206 JUMP JUMPDEST PUSH1 0x4 DUP2 GT ISZERO PUSH2 0x1112 JUMPI PUSH2 0x1112 PUSH2 0x2206 JUMP JUMPDEST DUP2 MSTORE PUSH1 0xA SWAP2 SWAP1 SWAP2 ADD SLOAD PUSH2 0x100 SWAP1 DIV PUSH1 0xFF AND ISZERO ISZERO PUSH1 0x20 SWAP2 DUP3 ADD MSTORE CALLER PUSH0 SWAP1 DUP2 MSTORE PUSH1 0x5 DUP3 MSTORE PUSH1 0x40 SWAP1 DUP2 SWAP1 KECCAK256 DUP2 MLOAD PUSH1 0x80 DUP2 ADD SWAP1 SWAP3 MSTORE DUP1 SLOAD PUSH1 0x1 PUSH1 0x1 PUSH1 0xA0 SHL SUB AND DUP3 MSTORE PUSH1 0x1 DUP2 ADD DUP1 SLOAD SWAP3 SWAP4 SWAP2 SWAP3 SWAP2 DUP5 ADD SWAP2 PUSH2 0x1167 SWAP1 PUSH2 0x2442 JUMP JUMPDEST DUP1 PUSH1 0x1F ADD PUSH1 0x20 DUP1 SWAP2 DIV MUL PUSH1 0x20 ADD PUSH1 0x40 MLOAD SWAP1 DUP2 ADD PUSH1 0x40 MSTORE DUP1 SWAP3 SWAP2 SWAP1 DUP2 DUP2 MSTORE PUSH1 0x20 ADD DUP3 DUP1 SLOAD PUSH2 0x1193 SWAP1 PUSH2 0x2442 JUMP JUMPDEST DUP1 ISZERO PUSH2 0x11DE JUMPI DUP1 PUSH1 0x1F LT PUSH2 0x11B5 JUMPI PUSH2 0x100 DUP1 DUP4 SLOAD DIV MUL DUP4 MSTORE SWAP2 PUSH1 0x20 ADD SWAP2 PUSH2 0x11DE JUMP JUMPDEST DUP3 ADD SWAP2 SWAP1 PUSH0 MSTORE PUSH1 0x20 PUSH0 KECCAK256 SWAP1 JUMPDEST DUP2 SLOAD DUP2 MSTORE SWAP1 PUSH1 0x1 ADD SWAP1 PUSH1 0x20 ADD DUP1 DUP4 GT PUSH2 0x11C1 JUMPI DUP3 SWAP1 SUB PUSH1 0x1F AND DUP3 ADD SWAP2 JUMPDEST POP POP POP POP POP DUP2 MSTORE PUSH1 0x20 ADD PUSH1 0x2 DUP3 ADD SLOAD DUP2 MSTORE PUSH1 0x20 ADD PUSH1 0x3 DUP3 ADD SLOAD DUP2 MSTORE POP POP PUSH2 0x1724 JUMP JUMPDEST PUSH0 MLOAD PUSH1 0x20 PUSH2 0x4547 PUSH0 CODECOPY PUSH0 MLOAD SWAP1 PUSH0 MSTORE PUSH1 0x40 MLOAD PUSH2 0x125C SWAP1 PUSH1 0x20 DUP1 DUP3 MSTORE PUSH1 0x27 SWAP1 DUP3 ADD MSTORE PUSH32 0x4469646E277420706173732076616C69646174696F6E20616E64207665726966 PUSH1 0x40 DUP3 ADD MSTORE PUSH7 0x34B1B0BA34B7B7 PUSH1 0xC9 SHL PUSH1 0x60 DUP3 ADD MSTORE PUSH1 0x80 ADD SWAP1 JUMP JUMPDEST PUSH1 0x40 MLOAD DUP1 SWAP2 SUB SWAP1 LOG1 POP JUMP JUMPDEST PUSH0 MLOAD PUSH1 0x20 PUSH2 0x4547 PUSH0 CODECOPY PUSH0 MLOAD SWAP1 PUSH0 MSTORE PUSH1 0x40 MLOAD PUSH2 0x125C SWAP1 PUSH1 0x20 DUP1 DUP3 MSTORE PUSH1 0x14 SWAP1 DUP3 ADD MSTORE PUSH20 0x139BDD08115B9BDD59DA0811195C1BDCDA5D1959 PUSH1 0x62 SHL PUSH1 0x40 DUP3 ADD MSTORE PUSH1 0x60 ADD SWAP1 JUMP JUMPDEST PUSH0 DUP1 DUP1 JUMPDEST PUSH1 0x3 DUP2 LT ISZERO PUSH2 0x130F JUMPI CALLER PUSH0 SWAP1 DUP2 MSTORE PUSH1 0x4 PUSH1 0x20 MSTORE PUSH1 0x40 SWAP1 KECCAK256 PUSH1 0x9 ADD DUP1 SLOAD DUP3 SWAP1 DUP2 LT PUSH2 0x12DA JUMPI PUSH2 0x12DA PUSH2 0x25CD JUMP JUMPDEST PUSH0 SWAP2 DUP3 MSTORE PUSH1 0x20 SWAP1 SWAP2 KECCAK256 PUSH1 0x2 SWAP1 SWAP2 MUL ADD SLOAD PUSH1 0x1 PUSH1 0xA0 SHL SWAP1 DIV PUSH1 0xFF AND ISZERO PUSH2 0x1307 JUMPI PUSH2 0x1304 PUSH1 0x1 DUP4 PUSH2 0x261F JUMP JUMPDEST SWAP2 POP JUMPDEST PUSH1 0x1 ADD PUSH2 0x12AE JUMP JUMPDEST POP PUSH1 0x1 DUP2 GT ISZERO PUSH2 0x1321 JUMPI PUSH1 0x1 SWAP2 POP POP SWAP1 JUMP JUMPDEST PUSH0 SWAP2 POP POP SWAP1 JUMP JUMPDEST PUSH1 0x40 MLOAD PUSH2 0x1334 SWAP1 PUSH2 0x1CBF JUMP JUMPDEST PUSH1 0x40 MLOAD DUP1 SWAP2 SUB SWAP1 PUSH0 CREATE DUP1 ISZERO DUP1 ISZERO PUSH2 0x134D JUMPI RETURNDATASIZE PUSH0 PUSH0 RETURNDATACOPY RETURNDATASIZE PUSH0 REVERT JUMPDEST POP PUSH0 DUP1 SLOAD PUSH1 0x1 PUSH1 0x1 PUSH1 0xA0 SHL SUB NOT AND PUSH1 0x1 PUSH1 0x1 PUSH1 0xA0 SHL SUB SWAP3 SWAP1 SWAP3 AND SWAP2 SWAP1 SWAP2 OR SWAP1 SSTORE PUSH1 0x40 MLOAD PUSH32 0xA875277A12E63893E1833186CE951B68D5EFDC34E7DE005CF0D484D352E33D4A SWAP1 PUSH2 0x139B SWAP1 PUSH2 0x1CCC JUMP JUMPDEST SWAP1 DUP2 MSTORE PUSH1 0x20 ADD PUSH1 0x40 MLOAD DUP1 SWAP2 SUB SWAP1 PUSH0 CREATE DUP1 ISZERO DUP1 ISZERO PUSH2 0x13BA JUMPI RETURNDATASIZE PUSH0 PUSH0 RETURNDATACOPY RETURNDATASIZE PUSH0 REVERT JUMPDEST POP PUSH1 0x1 DUP1 SLOAD PUSH1 0x1 PUSH1 0x1 PUSH1 0xA0 SHL SUB NOT AND PUSH1 0x1 PUSH1 0x1 PUSH1 0xA0 SHL SUB SWAP3 SWAP1 SWAP3 AND SWAP2 DUP3 OR SWAP1 SSTORE PUSH1 0x40 DUP1 MLOAD PUSH4 0xDA9F755 PUSH1 0xE4 SHL DUP2 MSTORE SWAP1 MLOAD PUSH4 0xDA9F7550 SWAP2 PUSH1 0x4 DUP1 DUP3 ADD SWAP3 PUSH1 0x20 SWAP3 SWAP1 SWAP2 SWAP1 DUP3 SWAP1 SUB ADD DUP2 PUSH0 DUP8 GAS CALL ISZERO DUP1 ISZERO PUSH2 0x1414 JUMPI RETURNDATASIZE PUSH0 PUSH0 RETURNDATACOPY RETURNDATASIZE PUSH0 REVERT JUMPDEST POP POP POP POP PUSH1 0x40 MLOAD RETURNDATASIZE PUSH1 0x1F NOT PUSH1 0x1F DUP3 ADD AND DUP3 ADD DUP1 PUSH1 0x40 MSTORE POP DUP2 ADD SWAP1 PUSH2 0x891 SWAP2 SWAP1 PUSH2 0x258F JUMP JUMPDEST PUSH1 0x4 PUSH1 0x20 MSTORE PUSH0 SWAP1 DUP2 MSTORE PUSH1 0x40 SWAP1 KECCAK256 DUP1 SLOAD PUSH1 0x1 DUP3 ADD SLOAD PUSH1 0x2 DUP4 ADD DUP1 SLOAD SWAP3 SWAP4 PUSH1 0x1 PUSH1 0x1 PUSH1 0xA0 SHL SUB SWAP1 SWAP3 AND SWAP3 PUSH2 0x1469 SWAP1 PUSH2 0x2442 JUMP JUMPDEST DUP1 PUSH1 0x1F ADD PUSH1 0x20 DUP1 SWAP2 DIV MUL PUSH1 0x20 ADD PUSH1 0x40 MLOAD SWAP1 DUP2 ADD PUSH1 0x40 MSTORE DUP1 SWAP3 SWAP2 SWAP1 DUP2 DUP2 MSTORE PUSH1 0x20 ADD DUP3 DUP1 SLOAD PUSH2 0x1495 SWAP1 PUSH2 0x2442 JUMP JUMPDEST DUP1 ISZERO PUSH2 0x14E0 JUMPI DUP1 PUSH1 0x1F LT PUSH2 0x14B7 JUMPI PUSH2 0x100 DUP1 DUP4 SLOAD DIV MUL DUP4 MSTORE SWAP2 PUSH1 0x20 ADD SWAP2 PUSH2 0x14E0 JUMP JUMPDEST DUP3 ADD SWAP2 SWAP1 PUSH0 MSTORE PUSH1 0x20 PUSH0 KECCAK256 SWAP1 JUMPDEST DUP2 SLOAD DUP2 MSTORE SWAP1 PUSH1 0x1 ADD SWAP1 PUSH1 0x20 ADD DUP1 DUP4 GT PUSH2 0x14C3 JUMPI DUP3 SWAP1 SUB PUSH1 0x1F AND DUP3 ADD SWAP2 JUMPDEST POP POP POP POP POP SWAP1 DUP1 PUSH1 0x3 ADD SLOAD SWAP1 DUP1 PUSH1 0x4 ADD SLOAD SWAP1 DUP1 PUSH1 0x5 ADD DUP1 SLOAD PUSH2 0x1501 SWAP1 PUSH2 0x2442 JUMP JUMPDEST DUP1 PUSH1 0x1F ADD PUSH1 0x20 DUP1 SWAP2 DIV MUL PUSH1 0x20 ADD PUSH1 0x40 MLOAD SWAP1 DUP2 ADD PUSH1 0x40 MSTORE DUP1 SWAP3 SWAP2 SWAP1 DUP2 DUP2 MSTORE PUSH1 0x20 ADD DUP3 DUP1 SLOAD PUSH2 0x152D SWAP1 PUSH2 0x2442 JUMP JUMPDEST DUP1 ISZERO PUSH2 0x1578 JUMPI DUP1 PUSH1 0x1F LT PUSH2 0x154F JUMPI PUSH2 0x100 DUP1 DUP4 SLOAD DIV MUL DUP4 MSTORE SWAP2 PUSH1 0x20 ADD SWAP2 PUSH2 0x1578 JUMP JUMPDEST DUP3 ADD SWAP2 SWAP1 PUSH0 MSTORE PUSH1 0x20 PUSH0 KECCAK256 SWAP1 JUMPDEST DUP2 SLOAD DUP2 MSTORE SWAP1 PUSH1 0x1 ADD SWAP1 PUSH1 0x20 ADD DUP1 DUP4 GT PUSH2 0x155B JUMPI DUP3 SWAP1 SUB PUSH1 0x1F AND DUP3 ADD SWAP2 JUMPDEST POP POP POP POP POP SWAP1 DUP1 PUSH1 0x6 ADD SLOAD SWAP1 DUP1 PUSH1 0x7 ADD DUP1 SLOAD PUSH2 0x1593 SWAP1 PUSH2 0x2442 JUMP JUMPDEST DUP1 PUSH1 0x1F ADD PUSH1 0x20 DUP1 SWAP2 DIV MUL PUSH1 0x20 ADD PUSH1 0x40 MLOAD SWAP1 DUP2 ADD PUSH1 0x40 MSTORE DUP1 SWAP3 SWAP2 SWAP1 DUP2 DUP2 MSTORE PUSH1 0x20 ADD DUP3 DUP1 SLOAD PUSH2 0x15BF SWAP1 PUSH2 0x2442 JUMP JUMPDEST DUP1 ISZERO PUSH2 0x160A JUMPI DUP1 PUSH1 0x1F LT PUSH2 0x15E1 JUMPI PUSH2 0x100 DUP1 DUP4 SLOAD DIV MUL DUP4 MSTORE SWAP2 PUSH1 0x20 ADD SWAP2 PUSH2 0x160A JUMP JUMPDEST DUP3 ADD SWAP2 SWAP1 PUSH0 MSTORE PUSH1 0x20 PUSH0 KECCAK256 SWAP1 JUMPDEST DUP2 SLOAD DUP2 MSTORE SWAP1 PUSH1 0x1 ADD SWAP1 PUSH1 0x20 ADD DUP1 DUP4 GT PUSH2 0x15ED JUMPI DUP3 SWAP1 SUB PUSH1 0x1F AND DUP3 ADD SWAP2 JUMPDEST POP POP POP POP POP SWAP1 DUP1 PUSH1 0x8 ADD DUP1 SLOAD PUSH2 0x161F SWAP1 PUSH2 0x2442 JUMP JUMPDEST DUP1 PUSH1 0x1F ADD PUSH1 0x20 DUP1 SWAP2 DIV MUL PUSH1 0x20 ADD PUSH1 0x40 MLOAD SWAP1 DUP2 ADD PUSH1 0x40 MSTORE DUP1 SWAP3 SWAP2 SWAP1 DUP2 DUP2 MSTORE PUSH1 0x20 ADD DUP3 DUP1 SLOAD PUSH2 0x164B SWAP1 PUSH2 0x2442 JUMP JUMPDEST DUP1 ISZERO PUSH2 0x1696 JUMPI DUP1 PUSH1 0x1F LT PUSH2 0x166D JUMPI PUSH2 0x100 DUP1 DUP4 SLOAD DIV MUL DUP4 MSTORE SWAP2 PUSH1 0x20 ADD SWAP2 PUSH2 0x1696 JUMP JUMPDEST DUP3 ADD SWAP2 SWAP1 PUSH0 MSTORE PUSH1 0x20 PUSH0 KECCAK256 SWAP1 JUMPDEST DUP2 SLOAD DUP2 MSTORE SWAP1 PUSH1 0x1 ADD SWAP1 PUSH1 0x20 ADD DUP1 DUP4 GT PUSH2 0x1679 JUMPI DUP3 SWAP1 SUB PUSH1 0x1F AND DUP3 ADD SWAP2 JUMPDEST POP POP POP PUSH1 0xA SWAP1 SWAP4 ADD SLOAD SWAP2 SWAP3 POP POP PUSH1 0xFF DUP1 DUP3 AND SWAP2 PUSH2 0x100 SWAP1 DIV AND DUP12 JUMP JUMPDEST CALLER PUSH0 SWAP1 DUP2 MSTORE PUSH1 0x5 PUSH1 0x20 SWAP1 DUP2 MSTORE PUSH1 0x40 SWAP2 DUP3 SWAP1 KECCAK256 DUP3 MLOAD DUP1 DUP5 ADD SWAP1 SWAP4 MSTORE PUSH1 0x3 DUP4 MSTORE PUSH3 0x53616D PUSH1 0xE8 SHL SWAP2 DUP4 ADD SWAP2 SWAP1 SWAP2 MSTORE SWAP1 PUSH1 0x1 DUP3 ADD SWAP1 PUSH2 0x16EE SWAP1 DUP3 PUSH2 0x24DA JUMP JUMPDEST POP DUP1 SLOAD PUSH1 0x1 PUSH1 0x1 PUSH1 0xA0 SHL SUB NOT AND PUSH20 0xF3447C8A17761E8E5233FE5A50AC72CECA387559 OR DUP2 SSTORE PUSH1 0x7 PUSH1 0x2 DUP3 ADD SSTORE PUSH1 0x1 PUSH1 0x3 SWAP1 SWAP2 ADD SSTORE JUMP JUMPDEST PUSH0 PUSH0 PUSH2 0x1733 DUP4 PUSH1 0x40 ADD MLOAD PUSH2 0xBA8 JUMP JUMPDEST SWAP1 SWAP3 POP SWAP1 POP PUSH1 0x1 PUSH1 0x3 DUP6 PUSH2 0x140 ADD MLOAD PUSH1 0x4 DUP2 GT ISZERO PUSH2 0x1753 JUMPI PUSH2 0x1753 PUSH2 0x2206 JUMP JUMPDEST SUB PUSH2 0x1841 JUMPI PUSH1 0x40 DUP1 MLOAD DUP2 DUP2 MSTORE PUSH1 0xD DUP2 DUP4 ADD MSTORE PUSH13 0x1A5B9D1BC8185C1C1C9BDD9959 PUSH1 0x9A SHL PUSH1 0x60 DUP3 ADD MSTORE PUSH1 0x1 PUSH1 0x20 DUP3 ADD MSTORE SWAP1 MLOAD PUSH0 MLOAD PUSH1 0x20 PUSH2 0x4527 PUSH0 CODECOPY PUSH0 MLOAD SWAP1 PUSH0 MSTORE SWAP2 DUP2 SWAP1 SUB PUSH1 0x80 ADD SWAP1 LOG1 DUP4 MLOAD PUSH2 0x17A7 SWAP1 DUP5 PUSH2 0x1A5D JUMP JUMPDEST PUSH1 0x1 DUP5 PUSH1 0x40 ADD DUP2 DUP2 MLOAD PUSH2 0x17BA SWAP2 SWAP1 PUSH2 0x261F JUMP JUMPDEST SWAP1 MSTORE POP PUSH1 0x2 SLOAD DUP2 SWAP1 SUB PUSH2 0x183C JUMPI PUSH2 0x1806 DUP6 PUSH2 0x120 ADD MLOAD PUSH0 DUP2 MLOAD DUP2 LT PUSH2 0x17E1 JUMPI PUSH2 0x17E1 PUSH2 0x25CD JUMP JUMPDEST PUSH1 0x20 MUL PUSH1 0x20 ADD ADD MLOAD PUSH0 ADD MLOAD PUSH1 0x3 DUP5 PUSH2 0x7D0 PUSH2 0x17FC SWAP2 SWAP1 PUSH2 0x261F JUMP JUMPDEST PUSH2 0x2E1 SWAP2 SWAP1 PUSH2 0x25F5 JUMP JUMPDEST PUSH2 0x1821 DUP6 PUSH2 0x120 ADD MLOAD PUSH1 0x1 DUP2 MLOAD DUP2 LT PUSH2 0x17E1 JUMPI PUSH2 0x17E1 PUSH2 0x25CD JUMP JUMPDEST PUSH2 0x183C DUP6 PUSH2 0x120 ADD MLOAD PUSH1 0x2 DUP2 MLOAD DUP2 LT PUSH2 0x17E1 JUMPI PUSH2 0x17E1 PUSH2 0x25CD JUMP JUMPDEST PUSH2 0x18CF JUMP JUMPDEST PUSH1 0x4 DUP6 PUSH2 0x140 ADD MLOAD PUSH1 0x4 DUP2 GT ISZERO PUSH2 0x185A JUMPI PUSH2 0x185A PUSH2 0x2206 JUMP JUMPDEST SUB PUSH2 0x18CF JUMPI DUP1 PUSH1 0x2 SLOAD SUB PUSH2 0x18B8 JUMPI PUSH2 0x1882 DUP6 PUSH2 0x120 ADD MLOAD PUSH0 DUP2 MLOAD DUP2 LT PUSH2 0x17E1 JUMPI PUSH2 0x17E1 PUSH2 0x25CD JUMP JUMPDEST PUSH2 0x189D DUP6 PUSH2 0x120 ADD MLOAD PUSH1 0x1 DUP2 MLOAD DUP2 LT PUSH2 0x17E1 JUMPI PUSH2 0x17E1 PUSH2 0x25CD JUMP JUMPDEST PUSH2 0x18B8 DUP6 PUSH2 0x120 ADD MLOAD PUSH1 0x2 DUP2 MLOAD DUP2 LT PUSH2 0x17E1 JUMPI PUSH2 0x17E1 PUSH2 0x25CD JUMP JUMPDEST PUSH1 0x1 DUP5 PUSH1 0x40 ADD DUP2 DUP2 MLOAD PUSH2 0x18CB SWAP2 SWAP1 PUSH2 0x2632 JUMP JUMPDEST SWAP1 MSTORE POP JUMPDEST DUP4 MLOAD PUSH2 0x18DA SWAP1 PUSH2 0x7E7 JUMP JUMPDEST PUSH2 0x18F8 PUSH20 0x5B38DA6A701C568545DCFCB03FCB875F56BEDDC4 SELFBALANCE PUSH2 0x1A5D JUMP JUMPDEST PUSH0 MLOAD PUSH1 0x20 PUSH2 0x4527 PUSH0 CODECOPY PUSH0 MLOAD SWAP1 PUSH0 MSTORE DUP5 PUSH1 0x60 ADD MLOAD PUSH1 0x40 MLOAD PUSH2 0x193D SWAP2 SWAP1 PUSH1 0x40 DUP1 DUP3 MSTORE PUSH1 0x8 SWAP1 DUP3 ADD MSTORE PUSH8 0x72657053636F7265 PUSH1 0xC0 SHL PUSH1 0x60 DUP3 ADD MSTORE PUSH1 0x20 DUP2 ADD SWAP2 SWAP1 SWAP2 MSTORE PUSH1 0x80 ADD SWAP1 JUMP JUMPDEST PUSH1 0x40 MLOAD DUP1 SWAP2 SUB SWAP1 LOG1 PUSH1 0x40 DUP1 MLOAD DUP2 DUP2 MSTORE PUSH1 0x12 DUP2 DUP4 ADD MSTORE PUSH18 0x6D73672E73656E6465722042616C616E6365 PUSH1 0x70 SHL PUSH1 0x60 DUP3 ADD MSTORE CALLER BALANCE PUSH1 0x20 DUP3 ADD MSTORE SWAP1 MLOAD PUSH0 MLOAD PUSH1 0x20 PUSH2 0x4527 PUSH0 CODECOPY PUSH0 MLOAD SWAP1 PUSH0 MSTORE SWAP2 DUP2 SWAP1 SUB PUSH1 0x80 ADD SWAP1 LOG1 POP POP POP POP POP JUMP JUMPDEST PUSH1 0x3 DUP2 DUP2 SLOAD DUP2 LT PUSH2 0x19A3 JUMPI PUSH0 DUP1 REVERT JUMPDEST PUSH0 SWAP2 DUP3 MSTORE PUSH1 0x20 SWAP1 SWAP2 KECCAK256 PUSH1 0x2 SWAP1 SWAP2 MUL ADD DUP1 SLOAD PUSH1 0x1 DUP3 ADD DUP1 SLOAD PUSH1 0x1 PUSH1 0x1 PUSH1 0xA0 SHL SUB DUP4 AND SWAP5 POP PUSH1 0x1 PUSH1 0xA0 SHL SWAP1 SWAP3 DIV PUSH1 0xFF AND SWAP3 SWAP2 PUSH2 0x19DC SWAP1 PUSH2 0x2442 JUMP JUMPDEST DUP1 PUSH1 0x1F ADD PUSH1 0x20 DUP1 SWAP2 DIV MUL PUSH1 0x20 ADD PUSH1 0x40 MLOAD SWAP1 DUP2 ADD PUSH1 0x40 MSTORE DUP1 SWAP3 SWAP2 SWAP1 DUP2 DUP2 MSTORE PUSH1 0x20 ADD DUP3 DUP1 SLOAD PUSH2 0x1A08 SWAP1 PUSH2 0x2442 JUMP JUMPDEST DUP1 ISZERO PUSH2 0x1A53 JUMPI DUP1 PUSH1 0x1F LT PUSH2 0x1A2A JUMPI PUSH2 0x100 DUP1 DUP4 SLOAD DIV MUL DUP4 MSTORE SWAP2 PUSH1 0x20 ADD SWAP2 PUSH2 0x1A53 JUMP JUMPDEST DUP3 ADD SWAP2 SWAP1 PUSH0 MSTORE PUSH1 0x20 PUSH0 KECCAK256 SWAP1 JUMPDEST DUP2 SLOAD DUP2 MSTORE SWAP1 PUSH1 0x1 ADD SWAP1 PUSH1 0x20 ADD DUP1 DUP4 GT PUSH2 0x1A36 JUMPI DUP3 SWAP1 SUB PUSH1 0x1F AND DUP3 ADD SWAP2 JUMPDEST POP POP POP POP POP SWAP1 POP DUP4 JUMP JUMPDEST PUSH0 PUSH0 DUP4 PUSH1 0x1 PUSH1 0x1 PUSH1 0xA0 SHL SUB AND DUP4 PUSH1 0x40 MLOAD PUSH0 PUSH1 0x40 MLOAD DUP1 DUP4 SUB DUP2 DUP6 DUP8 GAS CALL SWAP3 POP POP POP RETURNDATASIZE DUP1 PUSH0 DUP2 EQ PUSH2 0x1AA7 JUMPI PUSH1 0x40 MLOAD SWAP2 POP PUSH1 0x1F NOT PUSH1 0x3F RETURNDATASIZE ADD AND DUP3 ADD PUSH1 0x40 MSTORE RETURNDATASIZE DUP3 MSTORE RETURNDATASIZE PUSH0 PUSH1 0x20 DUP5 ADD RETURNDATACOPY PUSH2 0x1AAC JUMP JUMPDEST PUSH1 0x60 SWAP2 POP JUMPDEST POP SWAP2 POP SWAP2 POP DUP2 PUSH2 0x1B0E JUMPI PUSH1 0x40 MLOAD PUSH3 0x461BCD PUSH1 0xE5 SHL DUP2 MSTORE PUSH1 0x20 PUSH1 0x4 DUP3 ADD MSTORE PUSH1 0x23 PUSH1 0x24 DUP3 ADD MSTORE PUSH32 0x4661696C656420746F2073656E64206465706F73697420746F2070726F706F6E PUSH1 0x44 DUP3 ADD MSTORE PUSH3 0x195B9D PUSH1 0xEA SHL PUSH1 0x64 DUP3 ADD MSTORE PUSH1 0x84 ADD PUSH1 0x40 MLOAD DUP1 SWAP2 SUB SWAP1 REVERT JUMPDEST POP POP POP POP JUMP JUMPDEST PUSH1 0x5 PUSH1 0x20 MSTORE PUSH0 SWAP1 DUP2 MSTORE PUSH1 0x40 SWAP1 KECCAK256 DUP1 SLOAD PUSH1 0x1 DUP3 ADD DUP1 SLOAD PUSH1 0x1 PUSH1 0x1 PUSH1 0xA0 SHL SUB SWAP1 SWAP3 AND SWAP3 SWAP2 PUSH2 0x1B3F SWAP1 PUSH2 0x2442 JUMP JUMPDEST DUP1 PUSH1 0x1F ADD PUSH1 0x20 DUP1 SWAP2 DIV MUL PUSH1 0x20 ADD PUSH1 0x40 MLOAD SWAP1 DUP2 ADD PUSH1 0x40 MSTORE DUP1 SWAP3 SWAP2 SWAP1 DUP2 DUP2 MSTORE PUSH1 0x20 ADD DUP3 DUP1 SLOAD PUSH2 0x1B6B SWAP1 PUSH2 0x2442 JUMP JUMPDEST DUP1 ISZERO PUSH2 0x1BB6 JUMPI DUP1 PUSH1 0x1F LT PUSH2 0x1B8D JUMPI PUSH2 0x100 DUP1 DUP4 SLOAD DIV MUL DUP4 MSTORE SWAP2 PUSH1 0x20 ADD SWAP2 PUSH2 0x1BB6 JUMP JUMPDEST DUP3 ADD SWAP2 SWAP1 PUSH0 MSTORE PUSH1 0x20 PUSH0 KECCAK256 SWAP1 JUMPDEST DUP2 SLOAD DUP2 MSTORE SWAP1 PUSH1 0x1 ADD SWAP1 PUSH1 0x20 ADD DUP1 DUP4 GT PUSH2 0x1B99 JUMPI DUP3 SWAP1 SUB PUSH1 0x1F AND DUP3 ADD SWAP2 JUMPDEST POP POP POP POP POP SWAP1 DUP1 PUSH1 0x2 ADD SLOAD SWAP1 DUP1 PUSH1 0x3 ADD SLOAD SWAP1 POP DUP5 JUMP JUMPDEST PUSH0 DUP2 PUSH1 0x4 SUB PUSH2 0x1BDD JUMPI POP PUSH1 0x3 SWAP2 SWAP1 POP JUMP JUMPDEST DUP2 PUSH1 0x3 SUB PUSH2 0x1BED JUMPI POP PUSH1 0x4 SWAP2 SWAP1 POP JUMP JUMPDEST DUP2 PUSH1 0x2 SUB PUSH2 0x1BFD JUMPI POP PUSH1 0x2 SWAP2 SWAP1 POP JUMP JUMPDEST DUP2 PUSH1 0x1 SUB PUSH2 0x1C0D JUMPI POP PUSH1 0x1 SWAP2 SWAP1 POP JUMP JUMPDEST POP PUSH0 SWAP2 SWAP1 POP JUMP JUMPDEST SWAP2 SWAP1 POP JUMP JUMPDEST DUP3 DUP1 SLOAD DUP3 DUP3 SSTORE SWAP1 PUSH0 MSTORE PUSH1 0x20 PUSH0 KECCAK256 SWAP1 PUSH1 0x2 MUL DUP2 ADD SWAP3 DUP3 ISZERO PUSH2 0x1CAF JUMPI PUSH0 MSTORE PUSH1 0x20 PUSH0 KECCAK256 SWAP2 PUSH1 0x2 MUL DUP3 ADD JUMPDEST DUP3 DUP2 GT ISZERO PUSH2 0x1CAF JUMPI DUP3 SLOAD DUP3 SLOAD PUSH1 0x1 PUSH1 0x1 PUSH1 0xA0 SHL SUB SWAP1 SWAP2 AND PUSH1 0x1 PUSH1 0x1 PUSH1 0xA0 SHL SUB NOT DUP3 AND DUP2 OR DUP5 SSTORE DUP5 SLOAD PUSH1 0x1 PUSH1 0x1 PUSH1 0xA8 SHL SUB NOT SWAP1 SWAP3 AND OR PUSH1 0x1 PUSH1 0xA0 SHL SWAP2 DUP3 SWAP1 DIV PUSH1 0xFF AND ISZERO ISZERO SWAP1 SWAP2 MUL OR DUP3 SSTORE DUP3 DUP3 PUSH1 0x1 DUP1 DUP3 ADD SWAP1 PUSH2 0x1C9D SWAP1 DUP5 ADD DUP3 PUSH2 0x2645 JUMP JUMPDEST POP POP POP SWAP2 PUSH1 0x2 ADD SWAP2 SWAP1 PUSH1 0x2 ADD SWAP1 PUSH2 0x1C40 JUMP JUMPDEST POP PUSH2 0x1CBB SWAP3 SWAP2 POP PUSH2 0x1CD9 JUMP JUMPDEST POP SWAP1 JUMP JUMPDEST PUSH2 0x1332 DUP1 PUSH2 0x2706 DUP4 CODECOPY ADD SWAP1 JUMP JUMPDEST PUSH2 0xAAF DUP1 PUSH2 0x3A38 DUP4 CODECOPY ADD SWAP1 JUMP JUMPDEST DUP1 DUP3 GT ISZERO PUSH2 0x1CBB JUMPI DUP1 SLOAD PUSH1 0x1 PUSH1 0x1 PUSH1 0xA8 SHL SUB NOT AND DUP2 SSTORE PUSH0 PUSH2 0x1CFD PUSH1 0x1 DUP4 ADD DUP3 PUSH2 0x1D06 JUMP JUMPDEST POP PUSH1 0x2 ADD PUSH2 0x1CD9 JUMP JUMPDEST POP DUP1 SLOAD PUSH2 0x1D12 SWAP1 PUSH2 0x2442 JUMP JUMPDEST PUSH0 DUP3 SSTORE DUP1 PUSH1 0x1F LT PUSH2 0x1D21 JUMPI POP POP JUMP JUMPDEST PUSH1 0x1F ADD PUSH1 0x20 SWAP1 DIV SWAP1 PUSH0 MSTORE PUSH1 0x20 PUSH0 KECCAK256 SWAP1 DUP2 ADD SWAP1 PUSH2 0x891 SWAP2 SWAP1 JUMPDEST DUP1 DUP3 GT ISZERO PUSH2 0x1CBB JUMPI PUSH0 DUP2 SSTORE PUSH1 0x1 ADD PUSH2 0x1D39 JUMP JUMPDEST PUSH1 0x1 PUSH1 0x1 PUSH1 0xA0 SHL SUB DUP2 AND DUP2 EQ PUSH2 0x891 JUMPI PUSH0 PUSH0 REVERT JUMPDEST DUP1 CALLDATALOAD DUP1 ISZERO ISZERO DUP2 EQ PUSH2 0x1C14 JUMPI PUSH0 PUSH0 REVERT JUMPDEST PUSH4 0x4E487B71 PUSH1 0xE0 SHL PUSH0 MSTORE PUSH1 0x41 PUSH1 0x4 MSTORE PUSH1 0x24 PUSH0 REVERT JUMPDEST PUSH1 0x40 MLOAD PUSH1 0x60 DUP2 ADD PUSH1 0x1 PUSH1 0x1 PUSH1 0x40 SHL SUB DUP2 GT DUP3 DUP3 LT OR ISZERO PUSH2 0x1DA5 JUMPI PUSH2 0x1DA5 PUSH2 0x1D6F JUMP JUMPDEST PUSH1 0x40 MSTORE SWAP1 JUMP JUMPDEST PUSH1 0x40 MLOAD PUSH2 0x180 DUP2 ADD PUSH1 0x1 PUSH1 0x1 PUSH1 0x40 SHL SUB DUP2 GT DUP3 DUP3 LT OR ISZERO PUSH2 0x1DA5 JUMPI PUSH2 0x1DA5 PUSH2 0x1D6F JUMP JUMPDEST PUSH1 0x40 MLOAD PUSH1 0x80 DUP2 ADD PUSH1 0x1 PUSH1 0x1 PUSH1 0x40 SHL SUB DUP2 GT DUP3 DUP3 LT OR ISZERO PUSH2 0x1DA5 JUMPI PUSH2 0x1DA5 PUSH2 0x1D6F JUMP JUMPDEST PUSH1 0x40 MLOAD PUSH1 0x1F DUP3 ADD PUSH1 0x1F NOT AND DUP2 ADD PUSH1 0x1 PUSH1 0x1 PUSH1 0x40 SHL SUB DUP2 GT DUP3 DUP3 LT OR ISZERO PUSH2 0x1E18 JUMPI PUSH2 0x1E18 PUSH2 0x1D6F JUMP JUMPDEST PUSH1 0x40 MSTORE SWAP2 SWAP1 POP JUMP JUMPDEST PUSH0 DUP3 PUSH1 0x1F DUP4 ADD SLT PUSH2 0x1E2F JUMPI PUSH0 PUSH0 REVERT JUMPDEST DUP2 CALLDATALOAD PUSH1 0x1 PUSH1 0x1 PUSH1 0x40 SHL SUB DUP2 GT ISZERO PUSH2 0x1E48 JUMPI PUSH2 0x1E48 PUSH2 0x1D6F JUMP JUMPDEST PUSH2 0x1E5B PUSH1 0x1F DUP3 ADD PUSH1 0x1F NOT AND PUSH1 0x20 ADD PUSH2 0x1DF0 JUMP JUMPDEST DUP2 DUP2 MSTORE DUP5 PUSH1 0x20 DUP4 DUP7 ADD ADD GT ISZERO PUSH2 0x1E6F JUMPI PUSH0 PUSH0 REVERT JUMPDEST DUP2 PUSH1 0x20 DUP6 ADD PUSH1 0x20 DUP4 ADD CALLDATACOPY PUSH0 SWAP2 DUP2 ADD PUSH1 0x20 ADD SWAP2 SWAP1 SWAP2 MSTORE SWAP4 SWAP3 POP POP POP JUMP JUMPDEST PUSH0 PUSH0 PUSH0 PUSH1 0x60 DUP5 DUP7 SUB SLT ISZERO PUSH2 0x1E9D JUMPI PUSH0 PUSH0 REVERT JUMPDEST DUP4 CALLDATALOAD PUSH2 0x1EA8 DUP2 PUSH2 0x1D4C JUMP JUMPDEST SWAP3 POP PUSH2 0x1EB6 PUSH1 0x20 DUP6 ADD PUSH2 0x1D60 JUMP JUMPDEST SWAP2 POP PUSH1 0x40 DUP5 ADD CALLDATALOAD PUSH1 0x1 PUSH1 0x1 PUSH1 0x40 SHL SUB DUP2 GT ISZERO PUSH2 0x1ED0 JUMPI PUSH0 PUSH0 REVERT JUMPDEST PUSH2 0x1EDC DUP7 DUP3 DUP8 ADD PUSH2 0x1E20 JUMP JUMPDEST SWAP2 POP POP SWAP3 POP SWAP3 POP SWAP3 JUMP JUMPDEST DUP1 CALLDATALOAD PUSH2 0x1C14 DUP2 PUSH2 0x1D4C JUMP JUMPDEST PUSH0 DUP3 PUSH1 0x1F DUP4 ADD SLT PUSH2 0x1F00 JUMPI PUSH0 PUSH0 REVERT JUMPDEST DUP2 CALLDATALOAD PUSH1 0x1 PUSH1 0x1 PUSH1 0x40 SHL SUB DUP2 GT ISZERO PUSH2 0x1F19 JUMPI PUSH2 0x1F19 PUSH2 0x1D6F JUMP JUMPDEST DUP1 PUSH1 0x5 SHL PUSH2 0x1F29 PUSH1 0x20 DUP3 ADD PUSH2 0x1DF0 JUMP JUMPDEST SWAP2 DUP3 MSTORE PUSH1 0x20 DUP2 DUP6 ADD DUP2 ADD SWAP3 SWAP1 DUP2 ADD SWAP1 DUP7 DUP5 GT ISZERO PUSH2 0x1F44 JUMPI PUSH0 PUSH0 REVERT JUMPDEST PUSH1 0x20 DUP7 ADD SWAP3 POP JUMPDEST DUP4 DUP4 LT ISZERO PUSH2 0x1FE5 JUMPI DUP3 CALLDATALOAD PUSH1 0x1 PUSH1 0x1 PUSH1 0x40 SHL SUB DUP2 GT ISZERO PUSH2 0x1F68 JUMPI PUSH0 PUSH0 REVERT JUMPDEST DUP7 ADD PUSH1 0x60 DUP2 DUP10 SUB PUSH1 0x1F NOT ADD SLT ISZERO PUSH2 0x1F7D JUMPI PUSH0 PUSH0 REVERT JUMPDEST PUSH2 0x1F85 PUSH2 0x1D83 JUMP JUMPDEST PUSH1 0x20 DUP3 ADD CALLDATALOAD PUSH2 0x1F93 DUP2 PUSH2 0x1D4C JUMP JUMPDEST DUP2 MSTORE PUSH2 0x1FA1 PUSH1 0x40 DUP4 ADD PUSH2 0x1D60 JUMP JUMPDEST PUSH1 0x20 DUP3 ADD MSTORE PUSH1 0x60 DUP3 ADD CALLDATALOAD PUSH1 0x1 PUSH1 0x1 PUSH1 0x40 SHL SUB DUP2 GT ISZERO PUSH2 0x1FBE JUMPI PUSH0 PUSH0 REVERT JUMPDEST PUSH2 0x1FCD DUP11 PUSH1 0x20 DUP4 DUP7 ADD ADD PUSH2 0x1E20 JUMP JUMPDEST PUSH1 0x40 DUP4 ADD MSTORE POP DUP4 MSTORE POP PUSH1 0x20 SWAP3 DUP4 ADD SWAP3 SWAP1 SWAP2 ADD SWAP1 PUSH2 0x1F4B JUMP JUMPDEST SWAP7 SWAP6 POP POP POP POP POP POP JUMP JUMPDEST DUP1 CALLDATALOAD PUSH1 0x5 DUP2 LT PUSH2 0x1C14 JUMPI PUSH0 PUSH0 REVERT JUMPDEST PUSH0 PUSH2 0x180 DUP3 DUP5 SUB SLT ISZERO PUSH2 0x200E JUMPI PUSH0 PUSH0 REVERT JUMPDEST PUSH2 0x2016 PUSH2 0x1DAB JUMP JUMPDEST DUP3 CALLDATALOAD DUP2 MSTORE SWAP1 POP PUSH2 0x2028 PUSH1 0x20 DUP4 ADD PUSH2 0x1EE6 JUMP JUMPDEST PUSH1 0x20 DUP3 ADD MSTORE PUSH1 0x40 DUP3 ADD CALLDATALOAD PUSH1 0x1 PUSH1 0x1 PUSH1 0x40 SHL SUB DUP2 GT ISZERO PUSH2 0x2045 JUMPI PUSH0 PUSH0 REVERT JUMPDEST PUSH2 0x2051 DUP5 DUP3 DUP6 ADD PUSH2 0x1E20 JUMP JUMPDEST PUSH1 0x40 DUP4 ADD MSTORE POP PUSH1 0x60 DUP3 DUP2 ADD CALLDATALOAD SWAP1 DUP3 ADD MSTORE PUSH1 0x80 DUP1 DUP4 ADD CALLDATALOAD SWAP1 DUP3 ADD MSTORE PUSH1 0xA0 DUP3 ADD CALLDATALOAD PUSH1 0x1 PUSH1 0x1 PUSH1 0x40 SHL SUB DUP2 GT ISZERO PUSH2 0x2083 JUMPI PUSH0 PUSH0 REVERT JUMPDEST PUSH2 0x208F DUP5 DUP3 DUP6 ADD PUSH2 0x1E20 JUMP JUMPDEST PUSH1 0xA0 DUP4 ADD MSTORE POP PUSH1 0xC0 DUP3 DUP2 ADD CALLDATALOAD SWAP1 DUP3 ADD MSTORE PUSH1 0xE0 DUP3 ADD CALLDATALOAD PUSH1 0x1 PUSH1 0x1 PUSH1 0x40 SHL SUB DUP2 GT ISZERO PUSH2 0x20B7 JUMPI PUSH0 PUSH0 REVERT JUMPDEST PUSH2 0x20C3 DUP5 DUP3 DUP6 ADD PUSH2 0x1E20 JUMP JUMPDEST PUSH1 0xE0 DUP4 ADD MSTORE POP PUSH2 0x100 DUP3 ADD CALLDATALOAD PUSH1 0x1 PUSH1 0x1 PUSH1 0x40 SHL SUB DUP2 GT ISZERO PUSH2 0x20E2 JUMPI PUSH0 PUSH0 REVERT JUMPDEST PUSH2 0x20EE DUP5 DUP3 DUP6 ADD PUSH2 0x1E20 JUMP JUMPDEST PUSH2 0x100 DUP4 ADD MSTORE POP PUSH2 0x120 DUP3 ADD CALLDATALOAD PUSH1 0x1 PUSH1 0x1 PUSH1 0x40 SHL SUB DUP2 GT ISZERO PUSH2 0x210E JUMPI PUSH0 PUSH0 REVERT JUMPDEST PUSH2 0x211A DUP5 DUP3 DUP6 ADD PUSH2 0x1EF1 JUMP JUMPDEST PUSH2 0x120 DUP4 ADD MSTORE POP PUSH2 0x212E PUSH2 0x140 DUP4 ADD PUSH2 0x1FEF JUMP JUMPDEST PUSH2 0x140 DUP3 ADD MSTORE PUSH2 0x2141 PUSH2 0x160 DUP4 ADD PUSH2 0x1D60 JUMP JUMPDEST PUSH2 0x160 DUP3 ADD MSTORE SWAP3 SWAP2 POP POP JUMP JUMPDEST PUSH0 PUSH1 0x20 DUP3 DUP5 SUB SLT ISZERO PUSH2 0x215D JUMPI PUSH0 PUSH0 REVERT JUMPDEST DUP2 CALLDATALOAD PUSH1 0x1 PUSH1 0x1 PUSH1 0x40 SHL SUB DUP2 GT ISZERO PUSH2 0x2172 JUMPI PUSH0 PUSH0 REVERT JUMPDEST PUSH2 0x217E DUP5 DUP3 DUP6 ADD PUSH2 0x1FFD JUMP JUMPDEST SWAP5 SWAP4 POP POP POP POP JUMP JUMPDEST PUSH0 PUSH1 0x20 DUP3 DUP5 SUB SLT ISZERO PUSH2 0x2196 JUMPI PUSH0 PUSH0 REVERT JUMPDEST DUP2 CALLDATALOAD PUSH2 0x21A1 DUP2 PUSH2 0x1D4C JUMP JUMPDEST SWAP4 SWAP3 POP POP POP JUMP JUMPDEST PUSH0 PUSH1 0x20 DUP3 DUP5 SUB SLT ISZERO PUSH2 0x21B8 JUMPI PUSH0 PUSH0 REVERT JUMPDEST POP CALLDATALOAD SWAP2 SWAP1 POP JUMP JUMPDEST PUSH0 PUSH1 0x20 DUP3 DUP5 SUB SLT ISZERO PUSH2 0x21CF JUMPI PUSH0 PUSH0 REVERT JUMPDEST PUSH2 0x21A1 DUP3 PUSH2 0x1FEF JUMP JUMPDEST PUSH0 DUP2 MLOAD DUP1 DUP5 MSTORE DUP1 PUSH1 0x20 DUP5 ADD PUSH1 0x20 DUP7 ADD MCOPY PUSH0 PUSH1 0x20 DUP3 DUP7 ADD ADD MSTORE PUSH1 0x20 PUSH1 0x1F NOT PUSH1 0x1F DUP4 ADD AND DUP6 ADD ADD SWAP2 POP POP SWAP3 SWAP2 POP POP JUMP JUMPDEST PUSH4 0x4E487B71 PUSH1 0xE0 SHL PUSH0 MSTORE PUSH1 0x21 PUSH1 0x4 MSTORE PUSH1 0x24 PUSH0 REVERT JUMPDEST PUSH1 0x5 DUP2 LT PUSH2 0x2236 JUMPI PUSH4 0x4E487B71 PUSH1 0xE0 SHL PUSH0 MSTORE PUSH1 0x21 PUSH1 0x4 MSTORE PUSH1 0x24 PUSH0 REVERT JUMPDEST SWAP1 MSTORE JUMP JUMPDEST DUP12 DUP2 MSTORE PUSH1 0x1 PUSH1 0x1 PUSH1 0xA0 SHL SUB DUP12 AND PUSH1 0x20 DUP3 ADD MSTORE PUSH2 0x160 PUSH1 0x40 DUP3 ADD DUP2 SWAP1 MSTORE PUSH0 SWAP1 PUSH2 0x2264 SWAP1 DUP4 ADD DUP13 PUSH2 0x21D8 JUMP JUMPDEST DUP11 PUSH1 0x60 DUP5 ADD MSTORE DUP10 PUSH1 0x80 DUP5 ADD MSTORE DUP3 DUP2 SUB PUSH1 0xA0 DUP5 ADD MSTORE PUSH2 0x2282 DUP2 DUP11 PUSH2 0x21D8 JUMP JUMPDEST SWAP1 POP DUP8 PUSH1 0xC0 DUP5 ADD MSTORE DUP3 DUP2 SUB PUSH1 0xE0 DUP5 ADD MSTORE PUSH2 0x229C DUP2 DUP9 PUSH2 0x21D8 JUMP JUMPDEST SWAP1 POP DUP3 DUP2 SUB PUSH2 0x100 DUP5 ADD MSTORE PUSH2 0x22B1 DUP2 DUP8 PUSH2 0x21D8 JUMP JUMPDEST SWAP2 POP POP PUSH2 0x22C2 PUSH2 0x120 DUP4 ADD DUP6 PUSH2 0x221A JUMP JUMPDEST DUP3 ISZERO ISZERO PUSH2 0x140 DUP4 ADD MSTORE SWAP13 SWAP12 POP POP POP POP POP POP POP POP POP POP POP POP JUMP JUMPDEST PUSH0 PUSH0 PUSH1 0x40 DUP4 DUP6 SUB SLT ISZERO PUSH2 0x22EC JUMPI PUSH0 PUSH0 REVERT JUMPDEST DUP3 CALLDATALOAD PUSH1 0x1 PUSH1 0x1 PUSH1 0x40 SHL SUB DUP2 GT ISZERO PUSH2 0x2301 JUMPI PUSH0 PUSH0 REVERT JUMPDEST PUSH2 0x230D DUP6 DUP3 DUP7 ADD PUSH2 0x1FFD JUMP JUMPDEST SWAP3 POP POP PUSH1 0x20 DUP4 ADD CALLDATALOAD PUSH1 0x1 PUSH1 0x1 PUSH1 0x40 SHL SUB DUP2 GT ISZERO PUSH2 0x2328 JUMPI PUSH0 PUSH0 REVERT JUMPDEST DUP4 ADD PUSH1 0x80 DUP2 DUP7 SUB SLT ISZERO PUSH2 0x2339 JUMPI PUSH0 PUSH0 REVERT JUMPDEST PUSH2 0x2341 PUSH2 0x1DCE JUMP JUMPDEST DUP2 CALLDATALOAD PUSH2 0x234C DUP2 PUSH2 0x1D4C JUMP JUMPDEST DUP2 MSTORE PUSH1 0x20 DUP3 ADD CALLDATALOAD PUSH1 0x1 PUSH1 0x1 PUSH1 0x40 SHL SUB DUP2 GT ISZERO PUSH2 0x2366 JUMPI PUSH0 PUSH0 REVERT JUMPDEST PUSH2 0x2372 DUP8 DUP3 DUP6 ADD PUSH2 0x1E20 JUMP JUMPDEST PUSH1 0x20 DUP4 ADD MSTORE POP PUSH1 0x40 DUP3 DUP2 ADD CALLDATALOAD SWAP1 DUP3 ADD MSTORE PUSH1 0x60 SWAP2 DUP3 ADD CALLDATALOAD SWAP2 DUP2 ADD SWAP2 SWAP1 SWAP2 MSTORE SWAP2 SWAP5 SWAP2 SWAP4 POP SWAP1 SWAP2 POP POP JUMP JUMPDEST PUSH1 0x1 PUSH1 0x1 PUSH1 0xA0 SHL SUB DUP5 AND DUP2 MSTORE DUP3 ISZERO ISZERO PUSH1 0x20 DUP3 ADD MSTORE PUSH1 0x60 PUSH1 0x40 DUP3 ADD DUP2 SWAP1 MSTORE PUSH0 SWAP1 PUSH2 0x23C5 SWAP1 DUP4 ADD DUP5 PUSH2 0x21D8 JUMP JUMPDEST SWAP6 SWAP5 POP POP POP POP POP JUMP JUMPDEST PUSH0 PUSH0 PUSH1 0x40 DUP4 DUP6 SUB SLT ISZERO PUSH2 0x23DF JUMPI PUSH0 PUSH0 REVERT JUMPDEST DUP3 CALLDATALOAD PUSH2 0x23EA DUP2 PUSH2 0x1D4C JUMP JUMPDEST SWAP5 PUSH1 0x20 SWAP4 SWAP1 SWAP4 ADD CALLDATALOAD SWAP4 POP POP POP JUMP JUMPDEST PUSH1 0x1 PUSH1 0x1 PUSH1 0xA0 SHL SUB DUP6 AND DUP2 MSTORE PUSH1 0x80 PUSH1 0x20 DUP3 ADD DUP2 SWAP1 MSTORE PUSH0 SWAP1 PUSH2 0x241B SWAP1 DUP4 ADD DUP7 PUSH2 0x21D8 JUMP JUMPDEST PUSH1 0x40 DUP4 ADD SWAP5 SWAP1 SWAP5 MSTORE POP PUSH1 0x60 ADD MSTORE SWAP3 SWAP2 POP POP JUMP JUMPDEST PUSH1 0x20 DUP2 ADD PUSH2 0x243C DUP3 DUP5 PUSH2 0x221A JUMP JUMPDEST SWAP3 SWAP2 POP POP JUMP JUMPDEST PUSH1 0x1 DUP2 DUP2 SHR SWAP1 DUP3 AND DUP1 PUSH2 0x2456 JUMPI PUSH1 0x7F DUP3 AND SWAP2 POP JUMPDEST PUSH1 0x20 DUP3 LT DUP2 SUB PUSH2 0x2474 JUMPI PUSH4 0x4E487B71 PUSH1 0xE0 SHL PUSH0 MSTORE PUSH1 0x22 PUSH1 0x4 MSTORE PUSH1 0x24 PUSH0 REVERT JUMPDEST POP SWAP2 SWAP1 POP JUMP JUMPDEST PUSH1 0x1F DUP3 GT ISZERO PUSH2 0x24C1 JUMPI DUP1 PUSH0 MSTORE PUSH1 0x20 PUSH0 KECCAK256 PUSH1 0x1F DUP5 ADD PUSH1 0x5 SHR DUP2 ADD PUSH1 0x20 DUP6 LT ISZERO PUSH2 0x249F JUMPI POP DUP1 JUMPDEST PUSH1 0x1F DUP5 ADD PUSH1 0x5 SHR DUP3 ADD SWAP2 POP JUMPDEST DUP2 DUP2 LT ISZERO PUSH2 0x24BE JUMPI PUSH0 DUP2 SSTORE PUSH1 0x1 ADD PUSH2 0x24AB JUMP JUMPDEST POP POP JUMPDEST POP POP POP JUMP JUMPDEST PUSH0 NOT PUSH1 0x3 DUP4 SWAP1 SHL SHR NOT AND PUSH1 0x1 SWAP2 SWAP1 SWAP2 SHL OR SWAP1 JUMP JUMPDEST DUP2 MLOAD PUSH1 0x1 PUSH1 0x1 PUSH1 0x40 SHL SUB DUP2 GT ISZERO PUSH2 0x24F3 JUMPI PUSH2 0x24F3 PUSH2 0x1D6F JUMP JUMPDEST PUSH2 0x2507 DUP2 PUSH2 0x2501 DUP5 SLOAD PUSH2 0x2442 JUMP JUMPDEST DUP5 PUSH2 0x247A JUMP JUMPDEST PUSH1 0x20 PUSH1 0x1F DUP3 GT PUSH1 0x1 DUP2 EQ PUSH2 0x2534 JUMPI PUSH0 DUP4 ISZERO PUSH2 0x2522 JUMPI POP DUP5 DUP3 ADD MLOAD JUMPDEST PUSH2 0x252C DUP5 DUP3 PUSH2 0x24C6 JUMP JUMPDEST DUP6 SSTORE POP PUSH2 0x24BE JUMP JUMPDEST PUSH0 DUP5 DUP2 MSTORE PUSH1 0x20 DUP2 KECCAK256 PUSH1 0x1F NOT DUP6 AND SWAP2 JUMPDEST DUP3 DUP2 LT ISZERO PUSH2 0x2563 JUMPI DUP8 DUP6 ADD MLOAD DUP3 SSTORE PUSH1 0x20 SWAP5 DUP6 ADD SWAP5 PUSH1 0x1 SWAP1 SWAP3 ADD SWAP2 ADD PUSH2 0x2543 JUMP JUMPDEST POP DUP5 DUP3 LT ISZERO PUSH2 0x2580 JUMPI DUP7 DUP5 ADD MLOAD PUSH0 NOT PUSH1 0x3 DUP8 SWAP1 SHL PUSH1 0xF8 AND SHR NOT AND DUP2 SSTORE JUMPDEST POP POP POP POP PUSH1 0x1 SWAP1 DUP2 SHL ADD SWAP1 SSTORE POP JUMP JUMPDEST PUSH0 PUSH1 0x20 DUP3 DUP5 SUB SLT ISZERO PUSH2 0x259F JUMPI PUSH0 PUSH0 REVERT JUMPDEST POP MLOAD SWAP2 SWAP1 POP JUMP JUMPDEST PUSH4 0x4E487B71 PUSH1 0xE0 SHL PUSH0 MSTORE PUSH1 0x12 PUSH1 0x4 MSTORE PUSH1 0x24 PUSH0 REVERT JUMPDEST PUSH0 DUP3 PUSH2 0x25C8 JUMPI PUSH2 0x25C8 PUSH2 0x25A6 JUMP JUMPDEST POP MOD SWAP1 JUMP JUMPDEST PUSH4 0x4E487B71 PUSH1 0xE0 SHL PUSH0 MSTORE PUSH1 0x32 PUSH1 0x4 MSTORE PUSH1 0x24 PUSH0 REVERT JUMPDEST PUSH4 0x4E487B71 PUSH1 0xE0 SHL PUSH0 MSTORE PUSH1 0x11 PUSH1 0x4 MSTORE PUSH1 0x24 PUSH0 REVERT JUMPDEST PUSH0 DUP3 PUSH2 0x2603 JUMPI PUSH2 0x2603 PUSH2 0x25A6 JUMP JUMPDEST POP DIV SWAP1 JUMP JUMPDEST DUP1 DUP3 MUL DUP2 ISZERO DUP3 DUP3 DIV DUP5 EQ OR PUSH2 0x243C JUMPI PUSH2 0x243C PUSH2 0x25E1 JUMP JUMPDEST DUP1 DUP3 ADD DUP1 DUP3 GT ISZERO PUSH2 0x243C JUMPI PUSH2 0x243C PUSH2 0x25E1 JUMP JUMPDEST DUP2 DUP2 SUB DUP2 DUP2 GT ISZERO PUSH2 0x243C JUMPI PUSH2 0x243C PUSH2 0x25E1 JUMP JUMPDEST DUP2 DUP2 SUB PUSH2 0x2650 JUMPI POP POP JUMP JUMPDEST PUSH2 0x265A DUP3 SLOAD PUSH2 0x2442 JUMP JUMPDEST PUSH1 0x1 PUSH1 0x1 PUSH1 0x40 SHL SUB DUP2 GT ISZERO PUSH2 0x2671 JUMPI PUSH2 0x2671 PUSH2 0x1D6F JUMP JUMPDEST PUSH2 0x267F DUP2 PUSH2 0x2501 DUP5 SLOAD PUSH2 0x2442 JUMP JUMPDEST PUSH0 PUSH1 0x1F DUP3 GT PUSH1 0x1 DUP2 EQ PUSH2 0x26A2 JUMPI PUSH0 DUP4 ISZERO PUSH2 0x2522 JUMPI POP DUP5 DUP3 ADD SLOAD PUSH2 0x252C DUP5 DUP3 PUSH2 0x24C6 JUMP JUMPDEST PUSH0 DUP6 DUP2 MSTORE PUSH1 0x20 DUP1 DUP3 KECCAK256 DUP7 DUP4 MSTORE SWAP1 DUP3 KECCAK256 PUSH1 0x1F NOT DUP7 AND SWAP3 JUMPDEST DUP4 DUP2 LT ISZERO PUSH2 0x26D8 JUMPI DUP3 DUP7 ADD SLOAD DUP3 SSTORE PUSH1 0x1 SWAP6 DUP7 ADD SWAP6 SWAP1 SWAP2 ADD SWAP1 PUSH1 0x20 ADD PUSH2 0x26B8 JUMP JUMPDEST POP DUP6 DUP4 LT ISZERO PUSH2 0x26F5 JUMPI DUP2 DUP6 ADD SLOAD PUSH0 NOT PUSH1 0x3 DUP9 SWAP1 SHL PUSH1 0xF8 AND SHR NOT AND DUP2 SSTORE JUMPDEST POP POP POP POP POP PUSH1 0x1 SWAP1 DUP2 SHL ADD SWAP1 SSTORE POP JUMP INVALID PUSH1 0x80 PUSH1 0x40 MSTORE PUSH1 0x1 PUSH1 0x4 SSTORE CALLVALUE DUP1 ISZERO PUSH2 0x14 JUMPI PUSH0 PUSH0 REVERT JUMPDEST POP CALLER DUP1 PUSH0 DUP2 PUSH2 0x6A JUMPI PUSH1 0x40 MLOAD PUSH3 0x461BCD PUSH1 0xE5 SHL DUP2 MSTORE PUSH1 0x20 PUSH1 0x4 DUP3 ADD MSTORE PUSH1 0x18 PUSH1 0x24 DUP3 ADD MSTORE PUSH32 0x43616E6E6F7420736574206F776E657220746F207A65726F0000000000000000 PUSH1 0x44 DUP3 ADD MSTORE PUSH1 0x64 ADD JUMPDEST PUSH1 0x40 MLOAD DUP1 SWAP2 SUB SWAP1 REVERT JUMPDEST PUSH1 0x6 DUP1 SLOAD PUSH1 0x1 PUSH1 0x1 PUSH1 0xA0 SHL SUB NOT AND PUSH1 0x1 PUSH1 0x1 PUSH1 0xA0 SHL SUB DUP5 DUP2 AND SWAP2 SWAP1 SWAP2 OR SWAP1 SWAP2 SSTORE DUP2 AND ISZERO PUSH2 0x9A JUMPI PUSH2 0x9A DUP2 PUSH2 0x131 JUMP JUMPDEST POP POP POP PUSH2 0xC0 PUSH20 0x779877A7B0D9E8603169DDBD7836E478B4624789 PUSH2 0x1DA PUSH1 0x20 SHL PUSH1 0x20 SHR JUMP JUMPDEST PUSH1 0x3 DUP1 SLOAD PUSH1 0x1 PUSH1 0x1 PUSH1 0xA0 SHL SUB NOT AND PUSH20 0x6090149792DAAEE9D1D568C9F9A6F6B46AA29EFD OR SWAP1 SSTORE PUSH32 0x6361393833363663633733313439353762386330313263373266303561656562 PUSH1 0x9 SSTORE PUSH1 0xA PUSH2 0x11F PUSH8 0xDE0B6B3A7640000 PUSH1 0x1 PUSH2 0x1FC JUMP JUMPDEST PUSH2 0x129 SWAP2 SWAP1 PUSH2 0x225 JUMP JUMPDEST PUSH1 0xA SSTORE PUSH2 0x244 JUMP JUMPDEST CALLER PUSH1 0x1 PUSH1 0x1 PUSH1 0xA0 SHL SUB DUP3 AND SUB PUSH2 0x189 JUMPI PUSH1 0x40 MLOAD PUSH3 0x461BCD PUSH1 0xE5 SHL DUP2 MSTORE PUSH1 0x20 PUSH1 0x4 DUP3 ADD MSTORE PUSH1 0x17 PUSH1 0x24 DUP3 ADD MSTORE PUSH32 0x43616E6E6F74207472616E7366657220746F2073656C66000000000000000000 PUSH1 0x44 DUP3 ADD MSTORE PUSH1 0x64 ADD PUSH2 0x61 JUMP JUMPDEST PUSH1 0x7 DUP1 SLOAD PUSH1 0x1 PUSH1 0x1 PUSH1 0xA0 SHL SUB NOT AND PUSH1 0x1 PUSH1 0x1 PUSH1 0xA0 SHL SUB DUP4 DUP2 AND SWAP2 DUP3 OR SWAP1 SWAP3 SSTORE PUSH1 0x6 SLOAD PUSH1 0x40 MLOAD SWAP2 SWAP3 AND SWAP1 PUSH32 0xED8889F560326EB138920D842192F0EB3DD22B4F139C87A2C57538E05BAE1278 SWAP1 PUSH0 SWAP1 LOG3 POP JUMP JUMPDEST PUSH1 0x2 DUP1 SLOAD PUSH1 0x1 PUSH1 0x1 PUSH1 0xA0 SHL SUB NOT AND PUSH1 0x1 PUSH1 0x1 PUSH1 0xA0 SHL SUB SWAP3 SWAP1 SWAP3 AND SWAP2 SWAP1 SWAP2 OR SWAP1 SSTORE JUMP JUMPDEST DUP1 DUP3 MUL DUP2 ISZERO DUP3 DUP3 DIV DUP5 EQ OR PUSH2 0x21F JUMPI PUSH4 0x4E487B71 PUSH1 0xE0 SHL PUSH0 MSTORE PUSH1 0x11 PUSH1 0x4 MSTORE PUSH1 0x24 PUSH0 REVERT JUMPDEST SWAP3 SWAP2 POP POP JUMP JUMPDEST PUSH0 DUP3 PUSH2 0x23F JUMPI PUSH4 0x4E487B71 PUSH1 0xE0 SHL PUSH0 MSTORE PUSH1 0x12 PUSH1 0x4 MSTORE PUSH1 0x24 PUSH0 REVERT JUMPDEST POP DIV SWAP1 JUMP JUMPDEST PUSH2 0x10E1 DUP1 PUSH2 0x251 PUSH0 CODECOPY PUSH0 RETURN INVALID PUSH1 0x80 PUSH1 0x40 MSTORE CALLVALUE DUP1 ISZERO PUSH2 0xF JUMPI PUSH0 PUSH0 REVERT JUMPDEST POP PUSH1 0x4 CALLDATASIZE LT PUSH2 0x6B JUMPI PUSH0 CALLDATALOAD PUSH1 0xE0 SHR DUP1 PUSH4 0x2ADB9E3C EQ PUSH2 0x6F JUMPI DUP1 PUSH4 0x4357855E EQ PUSH2 0x95 JUMPI DUP1 PUSH4 0x79BA5097 EQ PUSH2 0xAA JUMPI DUP1 PUSH4 0x8DA5CB5B EQ PUSH2 0xB2 JUMPI DUP1 PUSH4 0x8DC654A2 EQ PUSH2 0xCB JUMPI DUP1 PUSH4 0xC618A1E4 EQ PUSH2 0xD3 JUMPI DUP1 PUSH4 0xF2FDE38B EQ PUSH2 0xDC JUMPI JUMPDEST PUSH0 PUSH0 REVERT JUMPDEST PUSH2 0x82 PUSH2 0x7D CALLDATASIZE PUSH1 0x4 PUSH2 0xD8F JUMP JUMPDEST PUSH2 0xEF JUMP JUMPDEST PUSH1 0x40 MLOAD SWAP1 DUP2 MSTORE PUSH1 0x20 ADD JUMPDEST PUSH1 0x40 MLOAD DUP1 SWAP2 SUB SWAP1 RETURN JUMPDEST PUSH2 0xA8 PUSH2 0xA3 CALLDATASIZE PUSH1 0x4 PUSH2 0xDA6 JUMP JUMPDEST PUSH2 0x22F JUMP JUMPDEST STOP JUMPDEST PUSH2 0xA8 PUSH2 0x32F JUMP JUMPDEST PUSH1 0x6 SLOAD PUSH1 0x1 PUSH1 0x1 PUSH1 0xA0 SHL SUB AND PUSH1 0x40 MLOAD PUSH2 0x8C SWAP2 SWAP1 PUSH2 0xDC6 JUMP JUMPDEST PUSH2 0xA8 PUSH2 0x3DC JUMP JUMPDEST PUSH2 0x82 PUSH1 0x8 SLOAD DUP2 JUMP JUMPDEST PUSH2 0xA8 PUSH2 0xEA CALLDATASIZE PUSH1 0x4 PUSH2 0xDDA JUMP JUMPDEST PUSH2 0x524 JUMP JUMPDEST PUSH0 PUSH0 PUSH2 0x105 PUSH1 0x9 SLOAD ADDRESS PUSH4 0x4357855E PUSH1 0xE0 SHL PUSH2 0x535 JUMP JUMPDEST SWAP1 POP PUSH2 0x147 PUSH1 0x40 MLOAD DUP1 PUSH1 0x40 ADD PUSH1 0x40 MSTORE DUP1 PUSH1 0x3 DUP2 MSTORE PUSH1 0x20 ADD PUSH3 0x19D95D PUSH1 0xEA SHL DUP2 MSTORE POP PUSH1 0x40 MLOAD DUP1 PUSH1 0x60 ADD PUSH1 0x40 MSTORE DUP1 PUSH1 0x30 DUP2 MSTORE PUSH1 0x20 ADD PUSH2 0x107C PUSH1 0x30 SWAP2 CODECOPY DUP4 SWAP2 SWAP1 PUSH2 0x55A JUMP JUMPDEST PUSH2 0x193 PUSH1 0x40 MLOAD DUP1 PUSH1 0x40 ADD PUSH1 0x40 MSTORE DUP1 PUSH1 0x4 DUP2 MSTORE PUSH1 0x20 ADD PUSH4 0xE0C2E8D PUSH1 0xE3 SHL DUP2 MSTORE POP PUSH1 0x40 MLOAD DUP1 PUSH1 0x40 ADD PUSH1 0x40 MSTORE DUP1 PUSH1 0x3 DUP2 MSTORE PUSH1 0x20 ADD PUSH3 0x6E756D PUSH1 0xE8 SHL DUP2 MSTORE POP DUP4 PUSH2 0x55A SWAP1 SWAP3 SWAP2 SWAP1 PUSH4 0xFFFFFFFF AND JUMP JUMPDEST PUSH1 0x40 DUP1 MLOAD DUP1 DUP3 ADD SWAP1 SWAP2 MSTORE PUSH1 0x5 DUP2 MSTORE PUSH5 0x74696D6573 PUSH1 0xD8 SHL PUSH1 0x20 DUP3 ADD MSTORE PUSH1 0x1 SWAP1 PUSH2 0x1BE SWAP1 DUP4 SWAP1 DUP4 PUSH2 0x57D JUMP JUMPDEST PUSH1 0x40 DUP1 MLOAD DUP2 DUP2 MSTORE PUSH1 0x14 DUP2 DUP4 ADD MSTORE PUSH20 0x13585919481D1A194819D95D081C995C5D595CDD PUSH1 0x62 SHL PUSH1 0x60 DUP3 ADD MSTORE PUSH1 0x20 DUP2 ADD DUP7 SWAP1 MSTORE SWAP1 MLOAD PUSH32 0x4953E1E253D3404572E66D2BE3E7889846DB195DFC203305A4810D16100DFD11 SWAP2 DUP2 SWAP1 SUB PUSH1 0x80 ADD SWAP1 LOG1 PUSH2 0x227 DUP3 PUSH1 0xA SLOAD PUSH2 0x59B JUMP JUMPDEST SWAP5 SWAP4 POP POP POP POP JUMP JUMPDEST PUSH0 DUP3 DUP2 MSTORE PUSH1 0x5 PUSH1 0x20 MSTORE PUSH1 0x40 SWAP1 KECCAK256 SLOAD DUP3 SWAP1 PUSH1 0x1 PUSH1 0x1 PUSH1 0xA0 SHL SUB AND CALLER EQ PUSH2 0x2AC JUMPI PUSH1 0x40 MLOAD PUSH3 0x461BCD PUSH1 0xE5 SHL DUP2 MSTORE PUSH1 0x20 PUSH1 0x4 DUP3 ADD MSTORE PUSH1 0x28 PUSH1 0x24 DUP3 ADD MSTORE PUSH32 0x536F75726365206D75737420626520746865206F7261636C65206F6620746865 PUSH1 0x44 DUP3 ADD MSTORE PUSH8 0x81C995C5D595CDD PUSH1 0xC2 SHL PUSH1 0x64 DUP3 ADD MSTORE PUSH1 0x84 ADD JUMPDEST PUSH1 0x40 MLOAD DUP1 SWAP2 SUB SWAP1 REVERT JUMPDEST PUSH0 DUP2 DUP2 MSTORE PUSH1 0x5 PUSH1 0x20 MSTORE PUSH1 0x40 DUP1 DUP3 KECCAK256 DUP1 SLOAD PUSH1 0x1 PUSH1 0x1 PUSH1 0xA0 SHL SUB NOT AND SWAP1 SSTORE MLOAD DUP3 SWAP2 PUSH32 0x7CC135E0CEBB02C3480AE5D74D377283180A2601F8F644EDF7987B009316C63A SWAP2 LOG2 DUP3 PUSH32 0x673B38182859A514D734BDFCB49D3A05C4A641DEC9311D9894C9717BCB79AF76 DUP4 PUSH1 0x40 MLOAD PUSH2 0x320 SWAP2 DUP2 MSTORE PUSH1 0x20 ADD SWAP1 JUMP JUMPDEST PUSH1 0x40 MLOAD DUP1 SWAP2 SUB SWAP1 LOG2 POP PUSH1 0x8 SSTORE POP JUMP JUMPDEST PUSH1 0x7 SLOAD PUSH1 0x1 PUSH1 0x1 PUSH1 0xA0 SHL SUB AND CALLER EQ PUSH2 0x382 JUMPI PUSH1 0x40 MLOAD PUSH3 0x461BCD PUSH1 0xE5 SHL DUP2 MSTORE PUSH1 0x20 PUSH1 0x4 DUP3 ADD MSTORE PUSH1 0x16 PUSH1 0x24 DUP3 ADD MSTORE PUSH22 0x26BAB9BA10313290383937B837B9B2B21037BBB732B9 PUSH1 0x51 SHL PUSH1 0x44 DUP3 ADD MSTORE PUSH1 0x64 ADD PUSH2 0x2A3 JUMP JUMPDEST PUSH1 0x6 DUP1 SLOAD PUSH1 0x1 PUSH1 0x1 PUSH1 0xA0 SHL SUB NOT DUP1 DUP3 AND CALLER SWAP1 DUP2 OR SWAP1 SWAP4 SSTORE PUSH1 0x7 DUP1 SLOAD SWAP1 SWAP2 AND SWAP1 SSTORE PUSH1 0x40 MLOAD PUSH1 0x1 PUSH1 0x1 PUSH1 0xA0 SHL SUB SWAP1 SWAP2 AND SWAP2 SWAP1 DUP3 SWAP1 PUSH32 0x8BE0079C531659141344CD1FD0A4F28419497F9722A3DAAFE3B4186F6B6457E0 SWAP1 PUSH0 SWAP1 LOG3 POP JUMP JUMPDEST PUSH2 0x3E4 PUSH2 0x5BD JUMP JUMPDEST PUSH0 PUSH2 0x3F7 PUSH1 0x2 SLOAD PUSH1 0x1 PUSH1 0x1 PUSH1 0xA0 SHL SUB AND SWAP1 JUMP JUMPDEST SWAP1 POP DUP1 PUSH1 0x1 PUSH1 0x1 PUSH1 0xA0 SHL SUB AND PUSH4 0xA9059CBB CALLER DUP4 PUSH1 0x1 PUSH1 0x1 PUSH1 0xA0 SHL SUB AND PUSH4 0x70A08231 ADDRESS PUSH1 0x40 MLOAD DUP3 PUSH4 0xFFFFFFFF AND PUSH1 0xE0 SHL DUP2 MSTORE PUSH1 0x4 ADD PUSH2 0x435 SWAP2 SWAP1 PUSH2 0xDC6 JUMP JUMPDEST PUSH1 0x20 PUSH1 0x40 MLOAD DUP1 DUP4 SUB DUP2 DUP7 GAS STATICCALL ISZERO DUP1 ISZERO PUSH2 0x450 JUMPI RETURNDATASIZE PUSH0 PUSH0 RETURNDATACOPY RETURNDATASIZE PUSH0 REVERT JUMPDEST POP POP POP POP PUSH1 0x40 MLOAD RETURNDATASIZE PUSH1 0x1F NOT PUSH1 0x1F DUP3 ADD AND DUP3 ADD DUP1 PUSH1 0x40 MSTORE POP DUP2 ADD SWAP1 PUSH2 0x474 SWAP2 SWAP1 PUSH2 0xE07 JUMP JUMPDEST PUSH1 0x40 MLOAD PUSH1 0x1 PUSH1 0x1 PUSH1 0xE0 SHL SUB NOT PUSH1 0xE0 DUP6 SWAP1 SHL AND DUP2 MSTORE PUSH1 0x1 PUSH1 0x1 PUSH1 0xA0 SHL SUB SWAP1 SWAP3 AND PUSH1 0x4 DUP4 ADD MSTORE PUSH1 0x24 DUP3 ADD MSTORE PUSH1 0x44 ADD PUSH1 0x20 PUSH1 0x40 MLOAD DUP1 DUP4 SUB DUP2 PUSH0 DUP8 GAS CALL ISZERO DUP1 ISZERO PUSH2 0x4BC JUMPI RETURNDATASIZE PUSH0 PUSH0 RETURNDATACOPY RETURNDATASIZE PUSH0 REVERT JUMPDEST POP POP POP POP PUSH1 0x40 MLOAD RETURNDATASIZE PUSH1 0x1F NOT PUSH1 0x1F DUP3 ADD AND DUP3 ADD DUP1 PUSH1 0x40 MSTORE POP DUP2 ADD SWAP1 PUSH2 0x4E0 SWAP2 SWAP1 PUSH2 0xE1E JUMP JUMPDEST PUSH2 0x521 JUMPI PUSH1 0x40 MLOAD PUSH3 0x461BCD PUSH1 0xE5 SHL DUP2 MSTORE PUSH1 0x20 PUSH1 0x4 DUP3 ADD MSTORE PUSH1 0x12 PUSH1 0x24 DUP3 ADD MSTORE PUSH18 0x2AB730B13632903A37903A3930B739B332B9 PUSH1 0x71 SHL PUSH1 0x44 DUP3 ADD MSTORE PUSH1 0x64 ADD PUSH2 0x2A3 JUMP JUMPDEST POP JUMP JUMPDEST PUSH2 0x52C PUSH2 0x5BD JUMP JUMPDEST PUSH2 0x521 DUP2 PUSH2 0x612 JUMP JUMPDEST PUSH2 0x53D PUSH2 0xD33 JUMP JUMPDEST PUSH2 0x545 PUSH2 0xD33 JUMP JUMPDEST PUSH2 0x551 DUP2 DUP7 DUP7 DUP7 PUSH2 0x6B5 JUMP JUMPDEST SWAP6 SWAP5 POP POP POP POP POP JUMP JUMPDEST PUSH1 0x80 DUP4 ADD MLOAD PUSH2 0x569 SWAP1 DUP4 PUSH2 0x6F2 JUMP JUMPDEST PUSH1 0x80 DUP4 ADD MLOAD PUSH2 0x578 SWAP1 DUP3 PUSH2 0x6F2 JUMP JUMPDEST POP POP POP JUMP JUMPDEST PUSH1 0x80 DUP4 ADD MLOAD PUSH2 0x58C SWAP1 DUP4 PUSH2 0x6F2 JUMP JUMPDEST PUSH1 0x80 DUP4 ADD MLOAD PUSH2 0x578 SWAP1 DUP3 PUSH2 0x709 JUMP JUMPDEST PUSH1 0x3 SLOAD PUSH0 SWAP1 PUSH2 0x5B4 SWAP1 PUSH1 0x1 PUSH1 0x1 PUSH1 0xA0 SHL SUB AND DUP5 DUP5 PUSH2 0x769 JUMP JUMPDEST SWAP1 POP JUMPDEST SWAP3 SWAP2 POP POP JUMP JUMPDEST PUSH1 0x6 SLOAD PUSH1 0x1 PUSH1 0x1 PUSH1 0xA0 SHL SUB AND CALLER EQ PUSH2 0x610 JUMPI PUSH1 0x40 MLOAD PUSH3 0x461BCD PUSH1 0xE5 SHL DUP2 MSTORE PUSH1 0x20 PUSH1 0x4 DUP3 ADD MSTORE PUSH1 0x16 PUSH1 0x24 DUP3 ADD MSTORE PUSH22 0x27B7363C9031B0B63630B1363290313C9037BBB732B9 PUSH1 0x51 SHL PUSH1 0x44 DUP3 ADD MSTORE PUSH1 0x64 ADD PUSH2 0x2A3 JUMP JUMPDEST JUMP JUMPDEST CALLER PUSH1 0x1 PUSH1 0x1 PUSH1 0xA0 SHL SUB DUP3 AND SUB PUSH2 0x664 JUMPI PUSH1 0x40 MLOAD PUSH3 0x461BCD PUSH1 0xE5 SHL DUP2 MSTORE PUSH1 0x20 PUSH1 0x4 DUP3 ADD MSTORE PUSH1 0x17 PUSH1 0x24 DUP3 ADD MSTORE PUSH23 0x21B0B73737BA103A3930B739B332B9103A379039B2B633 PUSH1 0x49 SHL PUSH1 0x44 DUP3 ADD MSTORE PUSH1 0x64 ADD PUSH2 0x2A3 JUMP JUMPDEST PUSH1 0x7 DUP1 SLOAD PUSH1 0x1 PUSH1 0x1 PUSH1 0xA0 SHL SUB NOT AND PUSH1 0x1 PUSH1 0x1 PUSH1 0xA0 SHL SUB DUP4 DUP2 AND SWAP2 DUP3 OR SWAP1 SWAP3 SSTORE PUSH1 0x6 SLOAD PUSH1 0x40 MLOAD SWAP2 SWAP3 AND SWAP1 PUSH32 0xED8889F560326EB138920D842192F0EB3DD22B4F139C87A2C57538E05BAE1278 SWAP1 PUSH0 SWAP1 LOG3 POP JUMP JUMPDEST PUSH2 0x6BD PUSH2 0xD33 JUMP JUMPDEST PUSH2 0x6CD DUP6 PUSH1 0x80 ADD MLOAD PUSH2 0x100 PUSH2 0x7FA JUMP JUMPDEST POP POP SWAP2 DUP4 MSTORE PUSH1 0x1 PUSH1 0x1 PUSH1 0xA0 SHL SUB AND PUSH1 0x20 DUP4 ADD MSTORE PUSH1 0x1 PUSH1 0x1 PUSH1 0xE0 SHL SUB NOT AND PUSH1 0x40 DUP3 ADD MSTORE SWAP1 JUMP JUMPDEST PUSH2 0x6FF DUP3 PUSH1 0x3 DUP4 MLOAD PUSH2 0x851 JUMP JUMPDEST PUSH2 0x578 DUP3 DUP3 PUSH2 0x95E JUMP JUMPDEST PUSH8 0xFFFFFFFFFFFFFFFF NOT DUP2 SLT ISZERO PUSH2 0x728 JUMPI PUSH2 0x724 DUP3 DUP3 PUSH2 0x977 JUMP JUMPDEST POP POP JUMP JUMPDEST PUSH1 0x1 PUSH1 0x1 PUSH1 0x40 SHL SUB DUP2 SGT ISZERO PUSH2 0x741 JUMPI PUSH2 0x724 DUP3 DUP3 PUSH2 0x9B8 JUMP JUMPDEST PUSH0 DUP2 SLT PUSH2 0x753 JUMPI PUSH2 0x724 DUP3 PUSH0 DUP4 PUSH2 0x851 JUMP JUMPDEST PUSH2 0x724 DUP3 PUSH1 0x1 PUSH2 0x764 DUP5 PUSH0 NOT PUSH2 0xE51 JUMP JUMPDEST PUSH2 0x851 JUMP JUMPDEST PUSH1 0x4 SLOAD PUSH0 SWAP1 PUSH2 0x779 DUP2 PUSH1 0x1 PUSH2 0xE77 JUMP JUMPDEST PUSH1 0x4 SSTORE DUP4 MLOAD PUSH1 0x40 DUP1 DUP7 ADD MLOAD PUSH1 0x80 DUP8 ADD MLOAD MLOAD SWAP2 MLOAD PUSH0 SWAP4 PUSH4 0x20214CA3 PUSH1 0xE1 SHL SWAP4 PUSH2 0x7B0 SWAP4 DUP7 SWAP4 DUP5 SWAP4 SWAP3 ADDRESS SWAP3 SWAP2 DUP11 SWAP2 PUSH1 0x1 SWAP2 PUSH1 0x24 ADD PUSH2 0xEB8 JUMP JUMPDEST PUSH1 0x40 DUP1 MLOAD PUSH1 0x1F NOT DUP2 DUP5 SUB ADD DUP2 MSTORE SWAP2 SWAP1 MSTORE PUSH1 0x20 DUP2 ADD DUP1 MLOAD PUSH1 0x1 PUSH1 0x1 PUSH1 0xE0 SHL SUB AND PUSH1 0x1 PUSH1 0x1 PUSH1 0xE0 SHL SUB NOT SWAP1 SWAP4 AND SWAP3 SWAP1 SWAP3 OR SWAP1 SWAP2 MSTORE SWAP1 POP PUSH2 0x7F0 DUP7 DUP4 DUP7 DUP5 PUSH2 0x9DB JUMP JUMPDEST SWAP7 SWAP6 POP POP POP POP POP POP JUMP JUMPDEST PUSH2 0x802 PUSH2 0xD76 JUMP JUMPDEST PUSH2 0x80D PUSH1 0x20 DUP4 PUSH2 0xF1E JUMP JUMPDEST ISZERO PUSH2 0x835 JUMPI PUSH2 0x81D PUSH1 0x20 DUP4 PUSH2 0xF1E JUMP JUMPDEST PUSH2 0x828 SWAP1 PUSH1 0x20 PUSH2 0xF3D JUMP JUMPDEST PUSH2 0x832 SWAP1 DUP4 PUSH2 0xE77 JUMP JUMPDEST SWAP2 POP JUMPDEST POP PUSH1 0x20 DUP3 DUP2 ADD DUP3 SWAP1 MSTORE PUSH1 0x40 DUP1 MLOAD DUP1 DUP6 MSTORE PUSH0 DUP2 MSTORE SWAP1 SWAP3 ADD ADD SWAP1 MSTORE SWAP1 JUMP JUMPDEST PUSH1 0x17 DUP2 PUSH1 0x1 PUSH1 0x1 PUSH1 0x40 SHL SUB AND GT PUSH2 0x87B JUMPI PUSH2 0x875 DUP4 PUSH1 0xE0 PUSH1 0x5 DUP6 SWAP1 SHL AND DUP4 OR PUSH2 0xB2F JUMP JUMPDEST POP POP POP POP JUMP JUMPDEST PUSH1 0xFF DUP2 PUSH1 0x1 PUSH1 0x1 PUSH1 0x40 SHL SUB AND GT PUSH2 0x8B7 JUMPI PUSH2 0x8A1 DUP4 PUSH1 0x18 PUSH2 0x1FE0 PUSH1 0x5 DUP7 SWAP1 SHL AND OR PUSH2 0xB2F JUMP JUMPDEST POP PUSH2 0x875 DUP4 PUSH1 0x1 PUSH1 0x1 PUSH1 0x40 SHL SUB DUP4 AND PUSH1 0x1 PUSH2 0xB46 JUMP JUMPDEST PUSH2 0xFFFF DUP2 PUSH1 0x1 PUSH1 0x1 PUSH1 0x40 SHL SUB AND GT PUSH2 0x8F4 JUMPI PUSH2 0x8DE DUP4 PUSH1 0x19 PUSH2 0x1FE0 PUSH1 0x5 DUP7 SWAP1 SHL AND OR PUSH2 0xB2F JUMP JUMPDEST POP PUSH2 0x875 DUP4 PUSH1 0x1 PUSH1 0x1 PUSH1 0x40 SHL SUB DUP4 AND PUSH1 0x2 PUSH2 0xB46 JUMP JUMPDEST PUSH4 0xFFFFFFFF DUP2 PUSH1 0x1 PUSH1 0x1 PUSH1 0x40 SHL SUB AND GT PUSH2 0x933 JUMPI PUSH2 0x91D DUP4 PUSH1 0x1A PUSH2 0x1FE0 PUSH1 0x5 DUP7 SWAP1 SHL AND OR PUSH2 0xB2F JUMP JUMPDEST POP PUSH2 0x875 DUP4 PUSH1 0x1 PUSH1 0x1 PUSH1 0x40 SHL SUB DUP4 AND PUSH1 0x4 PUSH2 0xB46 JUMP JUMPDEST PUSH2 0x948 DUP4 PUSH1 0x1B PUSH2 0x1FE0 PUSH1 0x5 DUP7 SWAP1 SHL AND OR PUSH2 0xB2F JUMP JUMPDEST POP PUSH2 0x875 DUP4 PUSH1 0x1 PUSH1 0x1 PUSH1 0x40 SHL SUB DUP4 AND PUSH1 0x8 PUSH2 0xB46 JUMP JUMPDEST PUSH2 0x966 PUSH2 0xD76 JUMP JUMPDEST PUSH2 0x5B4 DUP4 DUP5 PUSH0 ADD MLOAD MLOAD DUP5 DUP6 MLOAD PUSH2 0xB5E JUMP JUMPDEST PUSH2 0x982 DUP3 PUSH1 0xC3 PUSH2 0xB2F JUMP JUMPDEST POP PUSH2 0x724 DUP3 PUSH2 0x992 DUP4 PUSH0 NOT PUSH2 0xE51 JUMP JUMPDEST PUSH1 0x40 MLOAD PUSH1 0x20 ADD PUSH2 0x9A4 SWAP2 DUP2 MSTORE PUSH1 0x20 ADD SWAP1 JUMP JUMPDEST PUSH1 0x40 MLOAD PUSH1 0x20 DUP2 DUP4 SUB SUB DUP2 MSTORE SWAP1 PUSH1 0x40 MSTORE PUSH2 0xC38 JUMP JUMPDEST PUSH2 0x9C3 DUP3 PUSH1 0xC2 PUSH2 0xB2F JUMP JUMPDEST POP PUSH2 0x724 DUP3 DUP3 PUSH1 0x40 MLOAD PUSH1 0x20 ADD PUSH2 0x9A4 SWAP2 DUP2 MSTORE PUSH1 0x20 ADD SWAP1 JUMP JUMPDEST PUSH1 0x40 MLOAD PUSH1 0x1 PUSH1 0x1 PUSH1 0x60 SHL SUB NOT ADDRESS PUSH1 0x60 SHL AND PUSH1 0x20 DUP3 ADD MSTORE PUSH1 0x34 DUP2 ADD DUP5 SWAP1 MSTORE PUSH0 SWAP1 PUSH1 0x54 ADD PUSH1 0x40 DUP1 MLOAD DUP1 DUP4 SUB PUSH1 0x1F NOT ADD DUP2 MSTORE DUP3 DUP3 MSTORE DUP1 MLOAD PUSH1 0x20 SWAP2 DUP3 ADD KECCAK256 PUSH0 DUP2 DUP2 MSTORE PUSH1 0x5 SWAP1 SWAP3 MSTORE SWAP2 DUP2 KECCAK256 DUP1 SLOAD PUSH1 0x1 PUSH1 0x1 PUSH1 0xA0 SHL SUB NOT AND PUSH1 0x1 PUSH1 0x1 PUSH1 0xA0 SHL SUB DUP11 AND OR SWAP1 SSTORE SWAP1 SWAP3 POP DUP3 SWAP2 PUSH32 0xB5E6E01E79F91267DC17B4E6314D5D4D03593D2CEEE0FBB452B750BD70EA5AF9 SWAP2 SWAP1 LOG2 PUSH1 0x2 SLOAD PUSH1 0x40 MLOAD PUSH4 0x2000575 PUSH1 0xE5 SHL DUP2 MSTORE PUSH1 0x1 PUSH1 0x1 PUSH1 0xA0 SHL SUB SWAP1 SWAP2 AND SWAP1 PUSH4 0x4000AEA0 SWAP1 PUSH2 0xA97 SWAP1 DUP9 SWAP1 DUP8 SWAP1 DUP8 SWAP1 PUSH1 0x4 ADD PUSH2 0xF50 JUMP JUMPDEST PUSH1 0x20 PUSH1 0x40 MLOAD DUP1 DUP4 SUB DUP2 PUSH0 DUP8 GAS CALL ISZERO DUP1 ISZERO PUSH2 0xAB3 JUMPI RETURNDATASIZE PUSH0 PUSH0 RETURNDATACOPY RETURNDATASIZE PUSH0 REVERT JUMPDEST POP POP POP POP PUSH1 0x40 MLOAD RETURNDATASIZE PUSH1 0x1F NOT PUSH1 0x1F DUP3 ADD AND DUP3 ADD DUP1 PUSH1 0x40 MSTORE POP DUP2 ADD SWAP1 PUSH2 0xAD7 SWAP2 SWAP1 PUSH2 0xE1E JUMP JUMPDEST PUSH2 0x227 JUMPI PUSH1 0x40 MLOAD PUSH3 0x461BCD PUSH1 0xE5 SHL DUP2 MSTORE PUSH1 0x20 PUSH1 0x4 DUP3 ADD MSTORE PUSH1 0x23 PUSH1 0x24 DUP3 ADD MSTORE PUSH32 0x756E61626C6520746F207472616E73666572416E6443616C6C20746F206F7261 PUSH1 0x44 DUP3 ADD MSTORE PUSH3 0x636C65 PUSH1 0xE8 SHL PUSH1 0x64 DUP3 ADD MSTORE PUSH1 0x84 ADD PUSH2 0x2A3 JUMP JUMPDEST PUSH2 0xB37 PUSH2 0xD76 JUMP JUMPDEST PUSH2 0x5B4 DUP4 DUP5 PUSH0 ADD MLOAD MLOAD DUP5 PUSH2 0xC45 JUMP JUMPDEST PUSH2 0xB4E PUSH2 0xD76 JUMP JUMPDEST PUSH2 0x227 DUP5 DUP6 PUSH0 ADD MLOAD MLOAD DUP6 DUP6 PUSH2 0xC93 JUMP JUMPDEST PUSH2 0xB66 PUSH2 0xD76 JUMP JUMPDEST DUP3 MLOAD DUP3 GT ISZERO PUSH2 0xB73 JUMPI PUSH0 PUSH0 REVERT JUMPDEST PUSH1 0x20 DUP6 ADD MLOAD PUSH2 0xB82 DUP4 DUP7 PUSH2 0xE77 JUMP JUMPDEST GT ISZERO PUSH2 0xBB5 JUMPI PUSH2 0xBB5 DUP6 PUSH2 0xBA5 DUP8 PUSH1 0x20 ADD MLOAD DUP8 DUP7 PUSH2 0xBA0 SWAP2 SWAP1 PUSH2 0xE77 JUMP JUMPDEST PUSH2 0xD06 JUMP JUMPDEST PUSH2 0xBB0 SWAP1 PUSH1 0x2 PUSH2 0xF76 JUMP JUMPDEST PUSH2 0xD1C JUMP JUMPDEST PUSH0 PUSH0 DUP7 MLOAD DUP1 MLOAD DUP8 PUSH1 0x20 DUP4 ADD ADD SWAP4 POP DUP1 DUP9 DUP8 ADD GT ISZERO PUSH2 0xBD3 JUMPI DUP8 DUP7 ADD DUP3 MSTORE JUMPDEST POP POP POP PUSH1 0x20 DUP5 ADD JUMPDEST PUSH1 0x20 DUP5 LT PUSH2 0xC13 JUMPI DUP1 MLOAD DUP3 MSTORE PUSH2 0xBF2 PUSH1 0x20 DUP4 PUSH2 0xE77 JUMP JUMPDEST SWAP2 POP PUSH2 0xBFF PUSH1 0x20 DUP3 PUSH2 0xE77 JUMP JUMPDEST SWAP1 POP PUSH2 0xC0C PUSH1 0x20 DUP6 PUSH2 0xF3D JUMP JUMPDEST SWAP4 POP PUSH2 0xBDB JUMP JUMPDEST MLOAD DUP2 MLOAD PUSH0 NOT PUSH1 0x20 DUP7 SWAP1 SUB PUSH2 0x100 EXP ADD SWAP1 DUP2 AND SWAP1 NOT SWAP2 SWAP1 SWAP2 AND OR SWAP1 MSTORE POP DUP4 SWAP5 SWAP4 POP POP POP POP JUMP JUMPDEST PUSH2 0x6FF DUP3 PUSH1 0x2 DUP4 MLOAD PUSH2 0x851 JUMP JUMPDEST PUSH2 0xC4D PUSH2 0xD76 JUMP JUMPDEST DUP4 PUSH1 0x20 ADD MLOAD DUP4 LT PUSH2 0xC6D JUMPI PUSH2 0xC6D DUP5 DUP6 PUSH1 0x20 ADD MLOAD PUSH1 0x2 PUSH2 0xBB0 SWAP2 SWAP1 PUSH2 0xF76 JUMP JUMPDEST DUP4 MLOAD DUP1 MLOAD PUSH1 0x20 DUP6 DUP4 ADD ADD DUP5 DUP2 MSTORE8 POP DUP1 DUP6 SUB PUSH2 0xC89 JUMPI PUSH1 0x1 DUP2 ADD DUP3 MSTORE JUMPDEST POP SWAP4 SWAP5 SWAP4 POP POP POP POP JUMP JUMPDEST PUSH2 0xC9B PUSH2 0xD76 JUMP JUMPDEST PUSH1 0x20 DUP6 ADD MLOAD PUSH2 0xCAA DUP6 DUP5 PUSH2 0xE77 JUMP JUMPDEST GT ISZERO PUSH2 0xCBE JUMPI PUSH2 0xCBE DUP6 PUSH2 0xBA5 DUP7 DUP6 PUSH2 0xE77 JUMP JUMPDEST PUSH0 PUSH1 0x1 PUSH2 0xCCD DUP5 PUSH2 0x100 PUSH2 0x1070 JUMP JUMPDEST PUSH2 0xCD7 SWAP2 SWAP1 PUSH2 0xF3D JUMP JUMPDEST SWAP1 POP DUP6 MLOAD DUP4 DUP7 DUP3 ADD ADD DUP6 DUP4 NOT DUP3 MLOAD AND OR DUP2 MSTORE POP DUP1 MLOAD DUP5 DUP8 ADD GT ISZERO PUSH2 0xCFB JUMPI DUP4 DUP7 ADD DUP2 MSTORE JUMPDEST POP SWAP5 SWAP6 SWAP5 POP POP POP POP POP JUMP JUMPDEST PUSH0 DUP2 DUP4 GT ISZERO PUSH2 0xD16 JUMPI POP DUP2 PUSH2 0x5B7 JUMP JUMPDEST POP SWAP2 SWAP1 POP JUMP JUMPDEST DUP2 MLOAD PUSH2 0xD28 DUP4 DUP4 PUSH2 0x7FA JUMP JUMPDEST POP PUSH2 0x875 DUP4 DUP3 PUSH2 0x95E JUMP JUMPDEST PUSH1 0x40 MLOAD DUP1 PUSH1 0xA0 ADD PUSH1 0x40 MSTORE DUP1 PUSH0 DUP2 MSTORE PUSH1 0x20 ADD PUSH0 PUSH1 0x1 PUSH1 0x1 PUSH1 0xA0 SHL SUB AND DUP2 MSTORE PUSH1 0x20 ADD PUSH0 PUSH1 0x1 PUSH1 0x1 PUSH1 0xE0 SHL SUB NOT AND DUP2 MSTORE PUSH1 0x20 ADD PUSH0 DUP2 MSTORE PUSH1 0x20 ADD PUSH2 0xD71 PUSH2 0xD76 JUMP JUMPDEST SWAP1 MSTORE SWAP1 JUMP JUMPDEST PUSH1 0x40 MLOAD DUP1 PUSH1 0x40 ADD PUSH1 0x40 MSTORE DUP1 PUSH1 0x60 DUP2 MSTORE PUSH1 0x20 ADD PUSH0 DUP2 MSTORE POP SWAP1 JUMP JUMPDEST PUSH0 PUSH1 0x20 DUP3 DUP5 SUB SLT ISZERO PUSH2 0xD9F JUMPI PUSH0 PUSH0 REVERT JUMPDEST POP CALLDATALOAD SWAP2 SWAP1 POP JUMP JUMPDEST PUSH0 PUSH0 PUSH1 0x40 DUP4 DUP6 SUB SLT ISZERO PUSH2 0xDB7 JUMPI PUSH0 PUSH0 REVERT JUMPDEST POP POP DUP1 CALLDATALOAD SWAP3 PUSH1 0x20 SWAP1 SWAP2 ADD CALLDATALOAD SWAP2 POP JUMP JUMPDEST PUSH1 0x1 PUSH1 0x1 PUSH1 0xA0 SHL SUB SWAP2 SWAP1 SWAP2 AND DUP2 MSTORE PUSH1 0x20 ADD SWAP1 JUMP JUMPDEST PUSH0 PUSH1 0x20 DUP3 DUP5 SUB SLT ISZERO PUSH2 0xDEA JUMPI PUSH0 PUSH0 REVERT JUMPDEST DUP2 CALLDATALOAD PUSH1 0x1 PUSH1 0x1 PUSH1 0xA0 SHL SUB DUP2 AND DUP2 EQ PUSH2 0xE00 JUMPI PUSH0 PUSH0 REVERT JUMPDEST SWAP4 SWAP3 POP POP POP JUMP JUMPDEST PUSH0 PUSH1 0x20 DUP3 DUP5 SUB SLT ISZERO PUSH2 0xE17 JUMPI PUSH0 PUSH0 REVERT JUMPDEST POP MLOAD SWAP2 SWAP1 POP JUMP JUMPDEST PUSH0 PUSH1 0x20 DUP3 DUP5 SUB SLT ISZERO PUSH2 0xE2E JUMPI PUSH0 PUSH0 REVERT JUMPDEST DUP2 MLOAD DUP1 ISZERO ISZERO DUP2 EQ PUSH2 0xE00 JUMPI PUSH0 PUSH0 REVERT JUMPDEST PUSH4 0x4E487B71 PUSH1 0xE0 SHL PUSH0 MSTORE PUSH1 0x11 PUSH1 0x4 MSTORE PUSH1 0x24 PUSH0 REVERT JUMPDEST DUP2 DUP2 SUB PUSH0 DUP4 SLT DUP1 ISZERO DUP4 DUP4 SGT AND DUP4 DUP4 SLT DUP3 AND OR ISZERO PUSH2 0xE70 JUMPI PUSH2 0xE70 PUSH2 0xE3D JUMP JUMPDEST POP SWAP3 SWAP2 POP POP JUMP JUMPDEST DUP1 DUP3 ADD DUP1 DUP3 GT ISZERO PUSH2 0x5B7 JUMPI PUSH2 0x5B7 PUSH2 0xE3D JUMP JUMPDEST PUSH0 DUP2 MLOAD DUP1 DUP5 MSTORE DUP1 PUSH1 0x20 DUP5 ADD PUSH1 0x20 DUP7 ADD MCOPY PUSH0 PUSH1 0x20 DUP3 DUP7 ADD ADD MSTORE PUSH1 0x20 PUSH1 0x1F NOT PUSH1 0x1F DUP4 ADD AND DUP6 ADD ADD SWAP2 POP POP SWAP3 SWAP2 POP POP JUMP JUMPDEST PUSH1 0x1 PUSH1 0x1 PUSH1 0xA0 SHL SUB DUP10 DUP2 AND DUP3 MSTORE PUSH1 0x20 DUP3 ADD DUP10 SWAP1 MSTORE PUSH1 0x40 DUP3 ADD DUP9 SWAP1 MSTORE DUP7 AND PUSH1 0x60 DUP3 ADD MSTORE PUSH1 0x1 PUSH1 0x1 PUSH1 0xE0 SHL SUB NOT DUP6 AND PUSH1 0x80 DUP3 ADD MSTORE PUSH1 0xA0 DUP2 ADD DUP5 SWAP1 MSTORE PUSH1 0xC0 DUP2 ADD DUP4 SWAP1 MSTORE PUSH2 0x100 PUSH1 0xE0 DUP3 ADD DUP2 SWAP1 MSTORE PUSH0 SWAP1 PUSH2 0xF10 SWAP1 DUP4 ADD DUP5 PUSH2 0xE8A JUMP JUMPDEST SWAP11 SWAP10 POP POP POP POP POP POP POP POP POP POP JUMP JUMPDEST PUSH0 DUP3 PUSH2 0xF38 JUMPI PUSH4 0x4E487B71 PUSH1 0xE0 SHL PUSH0 MSTORE PUSH1 0x12 PUSH1 0x4 MSTORE PUSH1 0x24 PUSH0 REVERT JUMPDEST POP MOD SWAP1 JUMP JUMPDEST DUP2 DUP2 SUB DUP2 DUP2 GT ISZERO PUSH2 0x5B7 JUMPI PUSH2 0x5B7 PUSH2 0xE3D JUMP JUMPDEST PUSH1 0x1 DUP1 PUSH1 0xA0 SHL SUB DUP5 AND DUP2 MSTORE DUP3 PUSH1 0x20 DUP3 ADD MSTORE PUSH1 0x60 PUSH1 0x40 DUP3 ADD MSTORE PUSH0 PUSH2 0x551 PUSH1 0x60 DUP4 ADD DUP5 PUSH2 0xE8A JUMP JUMPDEST DUP1 DUP3 MUL DUP2 ISZERO DUP3 DUP3 DIV DUP5 EQ OR PUSH2 0x5B7 JUMPI PUSH2 0x5B7 PUSH2 0xE3D JUMP JUMPDEST PUSH1 0x1 DUP2 JUMPDEST PUSH1 0x1 DUP5 GT ISZERO PUSH2 0xFC8 JUMPI DUP1 DUP6 DIV DUP2 GT ISZERO PUSH2 0xFAC JUMPI PUSH2 0xFAC PUSH2 0xE3D JUMP JUMPDEST PUSH1 0x1 DUP5 AND ISZERO PUSH2 0xFBA JUMPI SWAP1 DUP2 MUL SWAP1 JUMPDEST PUSH1 0x1 SWAP4 SWAP1 SWAP4 SHR SWAP3 DUP1 MUL PUSH2 0xF91 JUMP JUMPDEST SWAP4 POP SWAP4 SWAP2 POP POP JUMP JUMPDEST PUSH0 DUP3 PUSH2 0xFDE JUMPI POP PUSH1 0x1 PUSH2 0x5B7 JUMP JUMPDEST DUP2 PUSH2 0xFEA JUMPI POP PUSH0 PUSH2 0x5B7 JUMP JUMPDEST DUP2 PUSH1 0x1 DUP2 EQ PUSH2 0x1000 JUMPI PUSH1 0x2 DUP2 EQ PUSH2 0x100A JUMPI PUSH2 0x1026 JUMP JUMPDEST PUSH1 0x1 SWAP2 POP POP PUSH2 0x5B7 JUMP JUMPDEST PUSH1 0xFF DUP5 GT ISZERO PUSH2 0x101B JUMPI PUSH2 0x101B PUSH2 0xE3D JUMP JUMPDEST POP POP PUSH1 0x1 DUP3 SHL PUSH2 0x5B7 JUMP JUMPDEST POP PUSH1 0x20 DUP4 LT PUSH2 0x133 DUP4 LT AND PUSH1 0x4E DUP5 LT PUSH1 0xB DUP5 LT AND OR ISZERO PUSH2 0x1049 JUMPI POP DUP2 DUP2 EXP PUSH2 0x5B7 JUMP JUMPDEST PUSH2 0x1055 PUSH0 NOT DUP5 DUP5 PUSH2 0xF8D JUMP JUMPDEST DUP1 PUSH0 NOT DIV DUP3 GT ISZERO PUSH2 0x1068 JUMPI PUSH2 0x1068 PUSH2 0xE3D JUMP JUMPDEST MUL SWAP4 SWAP3 POP POP POP JUMP JUMPDEST PUSH0 PUSH2 0x5B4 DUP4 DUP4 PUSH2 0xFD0 JUMP INVALID PUSH9 0x747470733A2F2F6133 CALLVALUE PUSH3 0x2D3130 BALANCE 0x2D BALANCE BALANCE CALLDATALOAD 0x2D BALANCE CODECOPY 0x2D BALANCE CALLDATASIZE CALLDATASIZE 0x2E PUSH15 0x67726F6B2D667265652E6170702F63 PUSH9 0x65636BA26469706673 PC 0x22 SLT KECCAK256 SELFBALANCE GAS 0xEF NOT PUSH10 0x4E2E1C00657697B3BA21 0xDD SWAP2 SWAP5 SSTORE EXTCALL 0xCC 0xC6 PUSH12 0xE41B63F62FBCDC4F8364736F PUSH13 0x634300081D0033608060405260 DIV DUP1 SLOAD PUSH1 0x1 PUSH1 0x1 PUSH1 0xA0 SHL SUB NOT AND PUSH20 0x9DDFACA8183C41AD55329BDEED9F6A8D53168B1B OR SWAP1 SSTORE PUSH32 0x787D74CAEA10B2B357790D5B5247C2F63D1D91572A9846F780606E4D953677AE PUSH1 0x5 SSTORE PUSH1 0x7 DUP1 SLOAD PUSH7 0x10003000186A0 PUSH1 0x1 PUSH1 0x1 PUSH1 0x50 SHL SUB NOT SWAP1 SWAP2 AND OR SWAP1 SSTORE CALLVALUE DUP1 ISZERO PUSH2 0x74 JUMPI PUSH0 PUSH0 REVERT JUMPDEST POP PUSH1 0x40 MLOAD PUSH2 0xAAF CODESIZE SUB DUP1 PUSH2 0xAAF DUP4 CODECOPY DUP2 ADD PUSH1 0x40 DUP2 SWAP1 MSTORE PUSH2 0x93 SWAP2 PUSH2 0x21D JUMP JUMPDEST PUSH1 0x4 SLOAD PUSH1 0x1 PUSH1 0x1 PUSH1 0xA0 SHL SUB AND CALLER DUP1 PUSH0 DUP2 PUSH2 0xF4 JUMPI PUSH1 0x40 MLOAD PUSH3 0x461BCD PUSH1 0xE5 SHL DUP2 MSTORE PUSH1 0x20 PUSH1 0x4 DUP3 ADD MSTORE PUSH1 0x18 PUSH1 0x24 DUP3 ADD MSTORE PUSH32 0x43616E6E6F7420736574206F776E657220746F207A65726F0000000000000000 PUSH1 0x44 DUP3 ADD MSTORE PUSH1 0x64 ADD JUMPDEST PUSH1 0x40 MLOAD DUP1 SWAP2 SUB SWAP1 REVERT JUMPDEST PUSH0 DUP1 SLOAD PUSH1 0x1 PUSH1 0x1 PUSH1 0xA0 SHL SUB NOT AND PUSH1 0x1 PUSH1 0x1 PUSH1 0xA0 SHL SUB DUP5 DUP2 AND SWAP2 SWAP1 SWAP2 OR SWAP1 SWAP2 SSTORE DUP2 AND ISZERO PUSH2 0x123 JUMPI PUSH2 0x123 DUP2 PUSH2 0x175 JUMP JUMPDEST POP POP POP PUSH1 0x1 PUSH1 0x1 PUSH1 0xA0 SHL SUB DUP2 AND PUSH2 0x14D JUMPI PUSH1 0x40 MLOAD PUSH4 0xD92E233D PUSH1 0xE0 SHL DUP2 MSTORE PUSH1 0x4 ADD PUSH1 0x40 MLOAD DUP1 SWAP2 SUB SWAP1 REVERT JUMPDEST PUSH1 0x2 DUP1 SLOAD PUSH1 0x1 PUSH1 0x1 PUSH1 0xA0 SHL SUB NOT AND PUSH1 0x1 PUSH1 0x1 PUSH1 0xA0 SHL SUB SWAP3 SWAP1 SWAP3 AND SWAP2 SWAP1 SWAP2 OR SWAP1 SSTORE PUSH1 0x3 SSTORE PUSH2 0x234 JUMP JUMPDEST CALLER PUSH1 0x1 PUSH1 0x1 PUSH1 0xA0 SHL SUB DUP3 AND SUB PUSH2 0x1CD JUMPI PUSH1 0x40 MLOAD PUSH3 0x461BCD PUSH1 0xE5 SHL DUP2 MSTORE PUSH1 0x20 PUSH1 0x4 DUP3 ADD MSTORE PUSH1 0x17 PUSH1 0x24 DUP3 ADD MSTORE PUSH32 0x43616E6E6F74207472616E7366657220746F2073656C66000000000000000000 PUSH1 0x44 DUP3 ADD MSTORE PUSH1 0x64 ADD PUSH2 0xEB JUMP JUMPDEST PUSH1 0x1 DUP1 SLOAD PUSH1 0x1 PUSH1 0x1 PUSH1 0xA0 SHL SUB NOT AND PUSH1 0x1 PUSH1 0x1 PUSH1 0xA0 SHL SUB DUP4 DUP2 AND SWAP2 DUP3 OR SWAP1 SWAP3 SSTORE PUSH0 DUP1 SLOAD PUSH1 0x40 MLOAD SWAP3 SWAP4 AND SWAP2 PUSH32 0xED8889F560326EB138920D842192F0EB3DD22B4F139C87A2C57538E05BAE1278 SWAP2 SWAP1 LOG3 POP JUMP JUMPDEST PUSH0 PUSH1 0x20 DUP3 DUP5 SUB SLT ISZERO PUSH2 0x22D JUMPI PUSH0 PUSH0 REVERT JUMPDEST POP MLOAD SWAP2 SWAP1 POP JUMP JUMPDEST PUSH2 0x86E DUP1 PUSH2 0x241 PUSH0 CODECOPY PUSH0 RETURN INVALID PUSH1 0x80 PUSH1 0x40 MSTORE CALLVALUE DUP1 ISZERO PUSH2 0xF JUMPI PUSH0 PUSH0 REVERT JUMPDEST POP PUSH1 0x4 CALLDATASIZE LT PUSH2 0xB8 JUMPI PUSH0 CALLDATALOAD PUSH1 0xE0 SHR DUP1 PUSH4 0x1FE543E3 EQ PUSH2 0xBC JUMPI DUP1 PUSH4 0x24F74697 EQ PUSH2 0xD1 JUMPI DUP1 PUSH4 0x45BB327B EQ PUSH2 0xFB JUMPI DUP1 PUSH4 0x79BA5097 EQ PUSH2 0x112 JUMPI DUP1 PUSH4 0x7CCFD7FC EQ PUSH2 0x11A JUMPI DUP1 PUSH4 0x8AC00021 EQ PUSH2 0x131 JUMPI DUP1 PUSH4 0x8DA5CB5B EQ PUSH2 0x13A JUMPI DUP1 PUSH4 0x8EA98117 EQ PUSH2 0x14F JUMPI DUP1 PUSH4 0x9ECCACF6 EQ PUSH2 0x162 JUMPI DUP1 PUSH4 0xA3E56FA8 EQ PUSH2 0x175 JUMPI DUP1 PUSH4 0xB0FB162F EQ PUSH2 0x188 JUMPI DUP1 PUSH4 0xDA9F7550 EQ PUSH2 0x1B0 JUMPI DUP1 PUSH4 0xF2FDE38B EQ PUSH2 0x1B8 JUMPI DUP1 PUSH4 0xF6EAFFC8 EQ PUSH2 0x1CB JUMPI JUMPDEST PUSH0 PUSH0 REVERT JUMPDEST PUSH2 0xCF PUSH2 0xCA CALLDATASIZE PUSH1 0x4 PUSH2 0x6CE JUMP JUMPDEST PUSH2 0x1DE JUMP JUMPDEST STOP JUMPDEST PUSH1 0x7 SLOAD PUSH2 0xE1 SWAP1 PUSH4 0xFFFFFFFF AND DUP2 JUMP JUMPDEST PUSH1 0x40 MLOAD PUSH4 0xFFFFFFFF SWAP1 SWAP2 AND DUP2 MSTORE PUSH1 0x20 ADD JUMPDEST PUSH1 0x40 MLOAD DUP1 SWAP2 SUB SWAP1 RETURN JUMPDEST PUSH2 0x104 PUSH1 0x5 SLOAD DUP2 JUMP JUMPDEST PUSH1 0x40 MLOAD SWAP1 DUP2 MSTORE PUSH1 0x20 ADD PUSH2 0xF2 JUMP JUMPDEST PUSH2 0xCF PUSH2 0x233 JUMP JUMPDEST PUSH1 0x7 SLOAD PUSH2 0xE1 SWAP1 PUSH1 0x1 PUSH1 0x30 SHL SWAP1 DIV PUSH4 0xFFFFFFFF AND DUP2 JUMP JUMPDEST PUSH2 0x104 PUSH1 0x3 SLOAD DUP2 JUMP JUMPDEST PUSH2 0x142 PUSH2 0x2DC JUMP JUMPDEST PUSH1 0x40 MLOAD PUSH2 0xF2 SWAP2 SWAP1 PUSH2 0x746 JUMP JUMPDEST PUSH2 0xCF PUSH2 0x15D CALLDATASIZE PUSH1 0x4 PUSH2 0x75A JUMP JUMPDEST PUSH2 0x2EA JUMP JUMPDEST PUSH1 0x2 SLOAD PUSH2 0x142 SWAP1 PUSH1 0x1 PUSH1 0x1 PUSH1 0xA0 SHL SUB AND DUP2 JUMP JUMPDEST PUSH1 0x4 SLOAD PUSH2 0x142 SWAP1 PUSH1 0x1 PUSH1 0x1 PUSH1 0xA0 SHL SUB AND DUP2 JUMP JUMPDEST PUSH1 0x7 SLOAD PUSH2 0x19D SWAP1 PUSH1 0x1 PUSH1 0x20 SHL SWAP1 DIV PUSH2 0xFFFF AND DUP2 JUMP JUMPDEST PUSH1 0x40 MLOAD PUSH2 0xFFFF SWAP1 SWAP2 AND DUP2 MSTORE PUSH1 0x20 ADD PUSH2 0xF2 JUMP JUMPDEST PUSH2 0x104 PUSH2 0x3E2 JUMP JUMPDEST PUSH2 0xCF PUSH2 0x1C6 CALLDATASIZE PUSH1 0x4 PUSH2 0x75A JUMP JUMPDEST PUSH2 0x4C5 JUMP JUMPDEST PUSH2 0x104 PUSH2 0x1D9 CALLDATASIZE PUSH1 0x4 PUSH2 0x787 JUMP JUMPDEST PUSH2 0x4D9 JUMP JUMPDEST PUSH1 0x2 SLOAD PUSH1 0x1 PUSH1 0x1 PUSH1 0xA0 SHL SUB AND CALLER EQ PUSH2 0x223 JUMPI PUSH1 0x2 SLOAD PUSH1 0x40 MLOAD PUSH4 0x73E64FD PUSH1 0xE2 SHL DUP2 MSTORE CALLER PUSH1 0x4 DUP3 ADD MSTORE PUSH1 0x1 PUSH1 0x1 PUSH1 0xA0 SHL SUB SWAP1 SWAP2 AND PUSH1 0x24 DUP3 ADD MSTORE PUSH1 0x44 ADD JUMPDEST PUSH1 0x40 MLOAD DUP1 SWAP2 SUB SWAP1 REVERT JUMPDEST PUSH2 0x22E DUP4 DUP4 DUP4 PUSH2 0x4F8 JUMP JUMPDEST POP POP POP JUMP JUMPDEST PUSH1 0x1 SLOAD PUSH1 0x1 PUSH1 0x1 PUSH1 0xA0 SHL SUB AND CALLER EQ PUSH2 0x286 JUMPI PUSH1 0x40 MLOAD PUSH3 0x461BCD PUSH1 0xE5 SHL DUP2 MSTORE PUSH1 0x20 PUSH1 0x4 DUP3 ADD MSTORE PUSH1 0x16 PUSH1 0x24 DUP3 ADD MSTORE PUSH22 0x26BAB9BA10313290383937B837B9B2B21037BBB732B9 PUSH1 0x51 SHL PUSH1 0x44 DUP3 ADD MSTORE PUSH1 0x64 ADD PUSH2 0x21A JUMP JUMPDEST PUSH0 DUP1 SLOAD CALLER PUSH1 0x1 PUSH1 0x1 PUSH1 0xA0 SHL SUB NOT DUP1 DUP4 AND DUP3 OR DUP5 SSTORE PUSH1 0x1 DUP1 SLOAD SWAP1 SWAP2 AND SWAP1 SSTORE PUSH1 0x40 MLOAD PUSH1 0x1 PUSH1 0x1 PUSH1 0xA0 SHL SUB SWAP1 SWAP3 AND SWAP3 SWAP1 SWAP2 DUP4 SWAP2 PUSH32 0x8BE0079C531659141344CD1FD0A4F28419497F9722A3DAAFE3B4186F6B6457E0 SWAP2 LOG3 POP JUMP JUMPDEST PUSH0 SLOAD PUSH1 0x1 PUSH1 0x1 PUSH1 0xA0 SHL SUB AND SWAP1 JUMP JUMPDEST PUSH2 0x2F2 PUSH2 0x2DC JUMP JUMPDEST PUSH1 0x1 PUSH1 0x1 PUSH1 0xA0 SHL SUB AND CALLER PUSH1 0x1 PUSH1 0x1 PUSH1 0xA0 SHL SUB AND EQ ISZERO DUP1 ISZERO PUSH2 0x31E JUMPI POP PUSH1 0x2 SLOAD PUSH1 0x1 PUSH1 0x1 PUSH1 0xA0 SHL SUB AND CALLER EQ ISZERO JUMPDEST ISZERO PUSH2 0x365 JUMPI CALLER PUSH2 0x32C PUSH2 0x2DC JUMP JUMPDEST PUSH1 0x2 SLOAD PUSH1 0x40 MLOAD PUSH4 0x61DB9C1 PUSH1 0xE0 SHL DUP2 MSTORE PUSH1 0x1 PUSH1 0x1 PUSH1 0xA0 SHL SUB SWAP4 DUP5 AND PUSH1 0x4 DUP3 ADD MSTORE SWAP2 DUP4 AND PUSH1 0x24 DUP4 ADD MSTORE SWAP2 SWAP1 SWAP2 AND PUSH1 0x44 DUP3 ADD MSTORE PUSH1 0x64 ADD PUSH2 0x21A JUMP JUMPDEST PUSH1 0x1 PUSH1 0x1 PUSH1 0xA0 SHL SUB DUP2 AND PUSH2 0x38C JUMPI PUSH1 0x40 MLOAD PUSH4 0xD92E233D PUSH1 0xE0 SHL DUP2 MSTORE PUSH1 0x4 ADD PUSH1 0x40 MLOAD DUP1 SWAP2 SUB SWAP1 REVERT JUMPDEST PUSH1 0x2 DUP1 SLOAD PUSH1 0x1 PUSH1 0x1 PUSH1 0xA0 SHL SUB NOT AND PUSH1 0x1 PUSH1 0x1 PUSH1 0xA0 SHL SUB DUP4 AND OR SWAP1 SSTORE PUSH1 0x40 MLOAD PUSH32 0xD1A6A14209A385A964D036E404CB5CFB71F4000CDB03C9366292430787261BE6 SWAP1 PUSH2 0x3D7 SWAP1 DUP4 SWAP1 PUSH2 0x746 JUMP JUMPDEST PUSH1 0x40 MLOAD DUP1 SWAP2 SUB SWAP1 LOG1 POP JUMP JUMPDEST PUSH0 PUSH2 0x3EB PUSH2 0x50A JUMP JUMPDEST PUSH1 0x2 SLOAD PUSH1 0x40 DUP1 MLOAD PUSH1 0xC0 DUP2 ADD DUP3 MSTORE PUSH1 0x5 SLOAD DUP2 MSTORE PUSH1 0x3 SLOAD PUSH1 0x20 DUP1 DUP4 ADD SWAP2 SWAP1 SWAP2 MSTORE PUSH1 0x7 SLOAD PUSH2 0xFFFF PUSH1 0x1 PUSH1 0x20 SHL DUP3 DIV AND DUP4 DUP6 ADD MSTORE PUSH4 0xFFFFFFFF DUP1 DUP3 AND PUSH1 0x60 DUP6 ADD MSTORE PUSH1 0x1 PUSH1 0x30 SHL SWAP1 SWAP2 DIV AND PUSH1 0x80 DUP4 ADD MSTORE DUP3 MLOAD SWAP1 DUP2 ADD SWAP1 SWAP3 MSTORE PUSH0 DUP3 MSTORE PUSH1 0x1 PUSH1 0x1 PUSH1 0xA0 SHL SUB SWAP1 SWAP3 AND SWAP2 PUSH4 0x9B1C385E SWAP2 PUSH1 0xA0 DUP3 ADD SWAP1 PUSH2 0x461 SWAP1 PUSH2 0x55E JUMP JUMPDEST DUP2 MSTORE POP PUSH1 0x40 MLOAD DUP3 PUSH4 0xFFFFFFFF AND PUSH1 0xE0 SHL DUP2 MSTORE PUSH1 0x4 ADD PUSH2 0x480 SWAP2 SWAP1 PUSH2 0x79E JUMP JUMPDEST PUSH1 0x20 PUSH1 0x40 MLOAD DUP1 DUP4 SUB DUP2 PUSH0 DUP8 GAS CALL ISZERO DUP1 ISZERO PUSH2 0x49C JUMPI RETURNDATASIZE PUSH0 PUSH0 RETURNDATACOPY RETURNDATASIZE PUSH0 REVERT JUMPDEST POP POP POP POP PUSH1 0x40 MLOAD RETURNDATASIZE PUSH1 0x1F NOT PUSH1 0x1F DUP3 ADD AND DUP3 ADD DUP1 PUSH1 0x40 MSTORE POP DUP2 ADD SWAP1 PUSH2 0x4C0 SWAP2 SWAP1 PUSH2 0x821 JUMP JUMPDEST SWAP1 POP SWAP1 JUMP JUMPDEST PUSH2 0x4CD PUSH2 0x50A JUMP JUMPDEST PUSH2 0x4D6 DUP2 PUSH2 0x5CF JUMP JUMPDEST POP JUMP JUMPDEST PUSH1 0x6 DUP2 DUP2 SLOAD DUP2 LT PUSH2 0x4E8 JUMPI PUSH0 DUP1 REVERT JUMPDEST PUSH0 SWAP2 DUP3 MSTORE PUSH1 0x20 SWAP1 SWAP2 KECCAK256 ADD SLOAD SWAP1 POP DUP2 JUMP JUMPDEST PUSH2 0x504 PUSH1 0x6 DUP4 DUP4 PUSH2 0x671 JUMP JUMPDEST POP POP POP POP JUMP JUMPDEST PUSH0 SLOAD PUSH1 0x1 PUSH1 0x1 PUSH1 0xA0 SHL SUB AND CALLER EQ PUSH2 0x55C JUMPI PUSH1 0x40 MLOAD PUSH3 0x461BCD PUSH1 0xE5 SHL DUP2 MSTORE PUSH1 0x20 PUSH1 0x4 DUP3 ADD MSTORE PUSH1 0x16 PUSH1 0x24 DUP3 ADD MSTORE PUSH22 0x27B7363C9031B0B63630B1363290313C9037BBB732B9 PUSH1 0x51 SHL PUSH1 0x44 DUP3 ADD MSTORE PUSH1 0x64 ADD PUSH2 0x21A JUMP JUMPDEST JUMP JUMPDEST PUSH1 0x60 PUSH32 0x92FD13387C7FE7BEFBC38D303D6468778FB9731BC4583F17D92989C6FCFDEAAA DUP3 PUSH1 0x40 MLOAD PUSH1 0x24 ADD PUSH2 0x597 SWAP2 MLOAD ISZERO ISZERO DUP2 MSTORE PUSH1 0x20 ADD SWAP1 JUMP JUMPDEST PUSH1 0x40 DUP1 MLOAD PUSH1 0x1F NOT DUP2 DUP5 SUB ADD DUP2 MSTORE SWAP2 SWAP1 MSTORE PUSH1 0x20 DUP2 ADD DUP1 MLOAD PUSH1 0x1 PUSH1 0x1 PUSH1 0xE0 SHL SUB AND PUSH1 0x1 PUSH1 0x1 PUSH1 0xE0 SHL SUB NOT SWAP1 SWAP4 AND SWAP3 SWAP1 SWAP3 OR SWAP1 SWAP2 MSTORE SWAP3 SWAP2 POP POP JUMP JUMPDEST CALLER PUSH1 0x1 PUSH1 0x1 PUSH1 0xA0 SHL SUB DUP3 AND SUB PUSH2 0x621 JUMPI PUSH1 0x40 MLOAD PUSH3 0x461BCD PUSH1 0xE5 SHL DUP2 MSTORE PUSH1 0x20 PUSH1 0x4 DUP3 ADD MSTORE PUSH1 0x17 PUSH1 0x24 DUP3 ADD MSTORE PUSH23 0x21B0B73737BA103A3930B739B332B9103A379039B2B633 PUSH1 0x49 SHL PUSH1 0x44 DUP3 ADD MSTORE PUSH1 0x64 ADD PUSH2 0x21A JUMP JUMPDEST PUSH1 0x1 DUP1 SLOAD PUSH1 0x1 PUSH1 0x1 PUSH1 0xA0 SHL SUB NOT AND PUSH1 0x1 PUSH1 0x1 PUSH1 0xA0 SHL SUB DUP4 DUP2 AND SWAP2 DUP3 OR SWAP1 SWAP3 SSTORE PUSH0 DUP1 SLOAD PUSH1 0x40 MLOAD SWAP3 SWAP4 AND SWAP2 PUSH32 0xED8889F560326EB138920D842192F0EB3DD22B4F139C87A2C57538E05BAE1278 SWAP2 SWAP1 LOG3 POP JUMP JUMPDEST DUP3 DUP1 SLOAD DUP3 DUP3 SSTORE SWAP1 PUSH0 MSTORE PUSH1 0x20 PUSH0 KECCAK256 SWAP1 DUP2 ADD SWAP3 DUP3 ISZERO PUSH2 0x6AA JUMPI SWAP2 PUSH1 0x20 MUL DUP3 ADD JUMPDEST DUP3 DUP2 GT ISZERO PUSH2 0x6AA JUMPI DUP3 CALLDATALOAD DUP3 SSTORE SWAP2 PUSH1 0x20 ADD SWAP2 SWAP1 PUSH1 0x1 ADD SWAP1 PUSH2 0x68F JUMP JUMPDEST POP PUSH2 0x6B6 SWAP3 SWAP2 POP PUSH2 0x6BA JUMP JUMPDEST POP SWAP1 JUMP JUMPDEST JUMPDEST DUP1 DUP3 GT ISZERO PUSH2 0x6B6 JUMPI PUSH0 DUP2 SSTORE PUSH1 0x1 ADD PUSH2 0x6BB JUMP JUMPDEST PUSH0 PUSH0 PUSH0 PUSH1 0x40 DUP5 DUP7 SUB SLT ISZERO PUSH2 0x6E0 JUMPI PUSH0 PUSH0 REVERT JUMPDEST DUP4 CALLDATALOAD SWAP3 POP PUSH1 0x20 DUP5 ADD CALLDATALOAD PUSH1 0x1 PUSH1 0x1 PUSH1 0x40 SHL SUB DUP2 GT ISZERO PUSH2 0x6FC JUMPI PUSH0 PUSH0 REVERT JUMPDEST DUP5 ADD PUSH1 0x1F DUP2 ADD DUP7 SGT PUSH2 0x70C JUMPI PUSH0 PUSH0 REVERT JUMPDEST DUP1 CALLDATALOAD PUSH1 0x1 PUSH1 0x1 PUSH1 0x40 SHL SUB DUP2 GT ISZERO PUSH2 0x721 JUMPI PUSH0 PUSH0 REVERT JUMPDEST DUP7 PUSH1 0x20 DUP3 PUSH1 0x5 SHL DUP5 ADD ADD GT ISZERO PUSH2 0x735 JUMPI PUSH0 PUSH0 REVERT JUMPDEST SWAP4 SWAP7 PUSH1 0x20 SWAP2 SWAP1 SWAP2 ADD SWAP6 POP SWAP3 SWAP4 POP POP POP JUMP JUMPDEST PUSH1 0x1 PUSH1 0x1 PUSH1 0xA0 SHL SUB SWAP2 SWAP1 SWAP2 AND DUP2 MSTORE PUSH1 0x20 ADD SWAP1 JUMP JUMPDEST PUSH0 PUSH1 0x20 DUP3 DUP5 SUB SLT ISZERO PUSH2 0x76A JUMPI PUSH0 PUSH0 REVERT JUMPDEST DUP2 CALLDATALOAD PUSH1 0x1 PUSH1 0x1 PUSH1 0xA0 SHL SUB DUP2 AND DUP2 EQ PUSH2 0x780 JUMPI PUSH0 PUSH0 REVERT JUMPDEST SWAP4 SWAP3 POP POP POP JUMP JUMPDEST PUSH0 PUSH1 0x20 DUP3 DUP5 SUB SLT ISZERO PUSH2 0x797 JUMPI PUSH0 PUSH0 REVERT JUMPDEST POP CALLDATALOAD SWAP2 SWAP1 POP JUMP JUMPDEST PUSH1 0x20 DUP2 MSTORE DUP2 MLOAD PUSH1 0x20 DUP3 ADD MSTORE PUSH1 0x20 DUP3 ADD MLOAD PUSH1 0x40 DUP3 ADD MSTORE PUSH2 0xFFFF PUSH1 0x40 DUP4 ADD MLOAD AND PUSH1 0x60 DUP3 ADD MSTORE PUSH4 0xFFFFFFFF PUSH1 0x60 DUP4 ADD MLOAD AND PUSH1 0x80 DUP3 ADD MSTORE PUSH4 0xFFFFFFFF PUSH1 0x80 DUP4 ADD MLOAD AND PUSH1 0xA0 DUP3 ADD MSTORE PUSH0 PUSH1 0xA0 DUP4 ADD MLOAD PUSH1 0xC0 DUP1 DUP5 ADD MSTORE DUP1 MLOAD DUP1 PUSH1 0xE0 DUP6 ADD MSTORE DUP1 PUSH1 0x20 DUP4 ADD PUSH2 0x100 DUP7 ADD MCOPY PUSH0 PUSH2 0x100 DUP3 DUP7 ADD ADD MSTORE PUSH2 0x100 PUSH1 0x1F NOT PUSH1 0x1F DUP4 ADD AND DUP6 ADD ADD SWAP3 POP POP POP SWAP3 SWAP2 POP POP JUMP JUMPDEST PUSH0 PUSH1 0x20 DUP3 DUP5 SUB SLT ISZERO PUSH2 0x831 JUMPI PUSH0 PUSH0 REVERT JUMPDEST POP MLOAD SWAP2 SWAP1 POP JUMP INVALID LOG2 PUSH5 0x6970667358 0x22 SLT KECCAK256 0xEA 0xA6 0xD5 0xDB 0xBF LOG3 PUSH32 0xE201805BECF9D720EA9858FF5496E3B135C80DC8DC0817065764736F6C634300 ADDMOD SAR STOP CALLER 0xC2 JUMPI GAS 0xE SWAP15 MSIZE EXTCODECOPY STOP EXTDELEGATECALL MSIZE EXTCALL 0xC9 0x2F SLT 0xDB 0x28 PUSH10 0xC3395A3B0502D05E2516 PREVRANDAO PUSH16 0x71F85CC2575A0E9E593C00F959F8C92F SLT 0xDB 0x28 PUSH10 0xC3395A3B0502D05E2516 PREVRANDAO PUSH16 0x71F85B135290006F1871309577D248CF STOP PUSH2 0x9459 0xA7 SWAP12 BLOBBASEFEE PUSH20 0x5638108A2BB080319C90D6DB42F09D5A5CB193EA RETURNDATACOPY 0xAE JUMP SWAP13 DUP13 0xE2 CALLF 0xA5C8 0xD8 0xB6 DUP11 0xAD 0xBE BYTE PUSH4 0x7F44D07F PUSH8 0xBC17A26469706673 PC 0x22 SLT KECCAK256 EXTCODESIZE SDIV 0xF6 0xAC DELEGATECALL 0x1E BYTE STOP PUSH13 0x125F2F2647AE1541BDFC7951BA 0xB3 0xD4 0xCA ORIGIN 0xDB 0x21 SWAP11 SHR 0x21 RJUMPI 0x6473 PUSH16 0x6C634300081D0033A264697066735822 SLT KECCAK256 0xB9 0xB4 MCOPY 0x29 SWAP2 SMOD PUSH9 0x5640FCB5E023A33766 0xCE PUSH14 0x43D1AC35D25817727F04103EDA25 PUSH5 0x736F6C6343 STOP ADDMOD SAR STOP CALLER "
		},
		"gasEstimates": {
			"creation": {
				"codeDepositCost": "3871000",
				"executionCost": "4393",
				"totalCost": "3875393"
			},
			"external": {
				"deployLock()": "infinite",
				"getBalanceAlert()": "171",
				"getBalanceLock()": "4963",
				"lock()": "2423",
				"returnDeposits()": "infinite",
				"sendMessage(address,string)": "infinite"
			}
		},
		"methodIdentifiers": {
			"deployLock()": "830b75aa",
			"getBalanceAlert()": "76237c6c",
			"getBalanceLock()": "e1095155",
			"lock()": "f83d08ba",
			"returnDeposits()": "362e2565",
			"sendMessage(address,string)": "de6f24bb"
		}
	},
	"abi": [
		{
			"anonymous": false,
			"inputs": [
				{
					"indexed": false,
					"internalType": "string",
					"name": "",
					"type": "string"
				}
			],
			"name": "Message",
			"type": "event"
		},
		{
			"anonymous": false,
			"inputs": [
				{
					"indexed": false,
					"internalType": "address",
					"name": "addr",
					"type": "address"
				},
				{
					"indexed": false,
					"internalType": "string",
					"name": "message",
					"type": "string"
				}
			],
			"name": "SendAlert",
			"type": "event"
		},
		{
			"inputs": [],
			"name": "deployLock",
			"outputs": [],
			"stateMutability": "nonpayable",
			"type": "function"
		},
		{
			"inputs": [],
			"name": "getBalanceAlert",
			"outputs": [
				{
					"internalType": "uint256",
					"name": "",
					"type": "uint256"
				}
			],
			"stateMutability": "view",
			"type": "function"
		},
		{
			"inputs": [],
			"name": "getBalanceLock",
			"outputs": [
				{
					"internalType": "uint256",
					"name": "",
					"type": "uint256"
				}
			],
			"stateMutability": "view",
			"type": "function"
		},
		{
			"inputs": [],
			"name": "lock",
			"outputs": [
				{
					"internalType": "contract Lock",
					"name": "",
					"type": "address"
				}
			],
			"stateMutability": "view",
			"type": "function"
		},
		{
			"inputs": [],
			"name": "returnDeposits",
			"outputs": [],
			"stateMutability": "nonpayable",
			"type": "function"
		},
		{
			"inputs": [
				{
					"internalType": "address",
					"name": "recipientAddress",
					"type": "address"
				},
				{
					"internalType": "string",
					"name": "mess",
					"type": "string"
				}
			],
			"name": "sendMessage",
			"outputs": [],
			"stateMutability": "nonpayable",
			"type": "function"
		},
		{
			"stateMutability": "payable",
			"type": "receive"
		}
	]
}