{
	"data": {
		"bytecode": {
			"linkReferences": {},
			"object": "60806040526001600455348015610014575f5ffd5b5033805f5f73ffffffffffffffffffffffffffffffffffffffff168273ffffffffffffffffffffffffffffffffffffffff1603610086576040517f08c379a000000000000000000000000000000000000000000000000000000000815260040161007d906103b1565b60405180910390fd5b8160065f6101000a81548173ffffffffffffffffffffffffffffffffffffffff021916908373ffffffffffffffffffffffffffffffffffffffff1602179055505f73ffffffffffffffffffffffffffffffffffffffff168173ffffffffffffffffffffffffffffffffffffffff161461010957610108816101a560201b60201c565b5b50505061012f73779877a7b0d9e8603169ddbd7836e478b46247896102d160201b60201c565b610152736090149792daaee9d1d568c9f9a6f6b46aa29efd61031460201b60201c565b7f6361393833363663633733313439353762386330313263373266303561656562600981905550600a670de0b6b3a764000060016101909190610405565b61019a9190610473565b600a8190555061050b565b3373ffffffffffffffffffffffffffffffffffffffff168173ffffffffffffffffffffffffffffffffffffffff1603610213576040517f08c379a000000000000000000000000000000000000000000000000000000000815260040161020a906104ed565b60405180910390fd5b8060075f6101000a81548173ffffffffffffffffffffffffffffffffffffffff021916908373ffffffffffffffffffffffffffffffffffffffff1602179055508073ffffffffffffffffffffffffffffffffffffffff1660065f9054906101000a900473ffffffffffffffffffffffffffffffffffffffff1673ffffffffffffffffffffffffffffffffffffffff167fed8889f560326eb138920d842192f0eb3dd22b4f139c87a2c57538e05bae127860405160405180910390a350565b8060025f6101000a81548173ffffffffffffffffffffffffffffffffffffffff021916908373ffffffffffffffffffffffffffffffffffffffff16021790555050565b8060035f6101000a81548173ffffffffffffffffffffffffffffffffffffffff021916908373ffffffffffffffffffffffffffffffffffffffff16021790555050565b5f82825260208201905092915050565b7f43616e6e6f7420736574206f776e657220746f207a65726f00000000000000005f82015250565b5f61039b601883610357565b91506103a682610367565b602082019050919050565b5f6020820190508181035f8301526103c88161038f565b9050919050565b5f819050919050565b7f4e487b71000000000000000000000000000000000000000000000000000000005f52601160045260245ffd5b5f61040f826103cf565b915061041a836103cf565b9250828202610428816103cf565b9150828204841483151761043f5761043e6103d8565b5b5092915050565b7f4e487b71000000000000000000000000000000000000000000000000000000005f52601260045260245ffd5b5f61047d826103cf565b9150610488836103cf565b92508261049857610497610446565b5b828204905092915050565b7f43616e6e6f74207472616e7366657220746f2073656c660000000000000000005f82015250565b5f6104d7601783610357565b91506104e2826104a3565b602082019050919050565b5f6020820190508181035f830152610504816104cb565b9050919050565b611ed0806105185f395ff3fe608060405234801561000f575f5ffd5b506004361061007b575f3560e01c80638da5cb5b116100595780638da5cb5b146100d55780638dc654a2146100f3578063c618a1e4146100fd578063f2fde38b1461011b5761007b565b80632adb9e3c1461007f5780634357855e146100af57806379ba5097146100cb575b5f5ffd5b610099600480360381019061009491906113a2565b610137565b6040516100a691906113e5565b60405180910390f35b6100c960048036038101906100c49190611428565b6102c9565b005b6100d361040c565b005b6100dd61059d565b6040516100ea91906114a5565b60405180910390f35b6100fb6105c5565b005b61010561070c565b60405161011291906114cd565b60405180910390f35b61013560048036038101906101309190611510565b610712565b005b5f5f61014d60095430634357855e60e01b610726565b90506101b16040518060400160405280600381526020017f67657400000000000000000000000000000000000000000000000000000000008152506040518060600160405280602d8152602001611e6e602d9139836107579092919063ffffffff16565b6102306040518060400160405280600481526020017f70617468000000000000000000000000000000000000000000000000000000008152506040518060400160405280600381526020017f6e756d0000000000000000000000000000000000000000000000000000000000815250836107579092919063ffffffff16565b5f6001905061027f6040518060400160405280600581526020017f74696d6573000000000000000000000000000000000000000000000000000000815250828461078a9092919063ffffffff16565b7fe8e349d9d60379b7e0a717f216d3d9efaf00b5dce8b634a63f24a5d76251059f6040516102ac90611595565b60405180910390a16102c082600a546107bd565b92505050919050565b8160055f8281526020019081526020015f205f9054906101000a900473ffffffffffffffffffffffffffffffffffffffff1673ffffffffffffffffffffffffffffffffffffffff163373ffffffffffffffffffffffffffffffffffffffff1614610368576040517f08c379a000000000000000000000000000000000000000000000000000000000815260040161035f90611623565b60405180910390fd5b60055f8281526020019081526020015f205f6101000a81549073ffffffffffffffffffffffffffffffffffffffff0219169055807f7cc135e0cebb02c3480ae5d74d377283180a2601f8f644edf7987b009316c63a60405160405180910390a2827f673b38182859a514d734bdfcb49d3a05c4a641dec9311d9894c9717bcb79af76836040516103f891906114cd565b60405180910390a281600881905550505050565b60075f9054906101000a900473ffffffffffffffffffffffffffffffffffffffff1673ffffffffffffffffffffffffffffffffffffffff163373ffffffffffffffffffffffffffffffffffffffff161461049b576040517f08c379a00000000000000000000000000000000000000000000000000000000081526004016104929061168b565b60405180910390fd5b5f60065f9054906101000a900473ffffffffffffffffffffffffffffffffffffffff1690503360065f6101000a81548173ffffffffffffffffffffffffffffffffffffffff021916908373ffffffffffffffffffffffffffffffffffffffff1602179055505f60075f6101000a81548173ffffffffffffffffffffffffffffffffffffffff021916908373ffffffffffffffffffffffffffffffffffffffff1602179055503373ffffffffffffffffffffffffffffffffffffffff168173ffffffffffffffffffffffffffffffffffffffff167f8be0079c531659141344cd1fd0a4f28419497f9722a3daafe3b4186f6b6457e060405160405180910390a350565b5f60065f9054906101000a900473ffffffffffffffffffffffffffffffffffffffff16905090565b6105cd6107f2565b5f6105d6610883565b90508073ffffffffffffffffffffffffffffffffffffffff1663a9059cbb338373ffffffffffffffffffffffffffffffffffffffff166370a08231306040518263ffffffff1660e01b815260040161062e91906114a5565b602060405180830381865afa158015610649573d5f5f3e3d5ffd5b505050506040513d601f19601f8201168201806040525081019061066d91906116bd565b6040518363ffffffff1660e01b815260040161068a9291906116e8565b6020604051808303815f875af11580156106a6573d5f5f3e3d5ffd5b505050506040513d601f19601f820116820180604052508101906106ca9190611744565b610709576040517f08c379a0000000000000000000000000000000000000000000000000000000008152600401610700906117b9565b60405180910390fd5b50565b60085481565b61071a6107f2565b610723816108ab565b50565b61072e6112ec565b6107366112ec565b61074d858585846109d7909392919063ffffffff16565b9150509392505050565b61076e828460800151610a8690919063ffffffff16565b610785818460800151610a8690919063ffffffff16565b505050565b6107a1828460800151610a8690919063ffffffff16565b6107b8818460800151610aab90919063ffffffff16565b505050565b5f6107ea60035f9054906101000a900473ffffffffffffffffffffffffffffffffffffffff168484610b56565b905092915050565b60065f9054906101000a900473ffffffffffffffffffffffffffffffffffffffff1673ffffffffffffffffffffffffffffffffffffffff163373ffffffffffffffffffffffffffffffffffffffff1614610881576040517f08c379a000000000000000000000000000000000000000000000000000000000815260040161087890611821565b60405180910390fd5b565b5f60025f9054906101000a900473ffffffffffffffffffffffffffffffffffffffff16905090565b3373ffffffffffffffffffffffffffffffffffffffff168173ffffffffffffffffffffffffffffffffffffffff1603610919576040517f08c379a000000000000000000000000000000000000000000000000000000000815260040161091090611889565b60405180910390fd5b8060075f6101000a81548173ffffffffffffffffffffffffffffffffffffffff021916908373ffffffffffffffffffffffffffffffffffffffff1602179055508073ffffffffffffffffffffffffffffffffffffffff1660065f9054906101000a900473ffffffffffffffffffffffffffffffffffffffff1673ffffffffffffffffffffffffffffffffffffffff167fed8889f560326eb138920d842192f0eb3dd22b4f139c87a2c57538e05bae127860405160405180910390a350565b6109df6112ec565b6109ef8560800151610100610c1d565b5083855f01818152505082856020019073ffffffffffffffffffffffffffffffffffffffff16908173ffffffffffffffffffffffffffffffffffffffff16815250508185604001907bffffffffffffffffffffffffffffffffffffffffffffffffffffffff191690817bffffffffffffffffffffffffffffffffffffffffffffffffffffffff191681525050849050949350505050565b610a938260038351610c85565b610aa68183610e0a90919063ffffffff16565b505050565b7fffffffffffffffffffffffffffffffffffffffffffffffff0000000000000000811215610ae257610add8282610e2b565b610b52565b67ffffffffffffffff811315610b0157610afc8282610ea2565b610b51565b5f8112610b1857610b13825f83610c85565b610b50565b610b4f826001837fffffffffffffffffffffffffffffffffffffffffffffffffffffffffffffffff610b4a91906118dd565b610c85565b5b5b5b5050565b5f5f6004549050600181610b6a919061191d565b6004819055505f634042994660e01b5f5f875f01513089604001518760018c608001515f0151604051602401610ba79897969594939291906119fa565b604051602081830303815290604052907bffffffffffffffffffffffffffffffffffffffffffffffffffffffff19166020820180517bffffffffffffffffffffffffffffffffffffffffffffffffffffffff83818316178352505050509050610c1286838684610eee565b925050509392505050565b610c25611352565b5f602083610c339190611aaa565b14610c5f57602082610c459190611aaa565b6020610c519190611ada565b82610c5c919061191d565b91505b818360200181815250506040518084525f81528281016020016040525082905092915050565b60178167ffffffffffffffff1611610cbc57610cb68160058460ff16901b60ff16178461107b90919063ffffffff16565b50610e05565b60ff8167ffffffffffffffff1611610d1257610ceb601860058460ff16901b178461107b90919063ffffffff16565b50610d0c8167ffffffffffffffff1660018561109a9092919063ffffffff16565b50610e04565b61ffff8167ffffffffffffffff1611610d6957610d42601960058460ff16901b178461107b90919063ffffffff16565b50610d638167ffffffffffffffff1660028561109a9092919063ffffffff16565b50610e03565b63ffffffff8167ffffffffffffffff1611610dc257610d9b601a60058460ff16901b178461107b90919063ffffffff16565b50610dbc8167ffffffffffffffff1660048561109a9092919063ffffffff16565b50610e02565b610ddf601b60058460ff16901b178461107b90919063ffffffff16565b50610e008167ffffffffffffffff1660088561109a9092919063ffffffff16565b505b5b5b5b505050565b610e12611352565b610e2383845f0151518485516110bb565b905092915050565b610e4960036005600660ff16901b178361107b90919063ffffffff16565b50610e9e82827fffffffffffffffffffffffffffffffffffffffffffffffffffffffffffffffff610e7a91906118dd565b604051602001610e8a91906114cd565b6040516020818303038152906040526111a7565b5050565b610ec060026005600660ff16901b178361107b90919063ffffffff16565b50610eea8282604051602001610ed691906114cd565b6040516020818303038152906040526111a7565b5050565b5f3084604051602001610f02929190611bbe565b6040516020818303038152906040528051906020012090508460055f8381526020019081526020015f205f6101000a81548173ffffffffffffffffffffffffffffffffffffffff021916908373ffffffffffffffffffffffffffffffffffffffff160217905550807fb5e6e01e79f91267dc17b4e6314d5d4d03593d2ceee0fbb452b750bd70ea5af960405160405180910390a260025f9054906101000a900473ffffffffffffffffffffffffffffffffffffffff1673ffffffffffffffffffffffffffffffffffffffff16634000aea08685856040518463ffffffff1660e01b8152600401610ff493929190611be9565b6020604051808303815f875af1158015611010573d5f5f3e3d5ffd5b505050506040513d601f19601f820116820180604052508101906110349190611744565b611073576040517f08c379a000000000000000000000000000000000000000000000000000000000815260040161106a90611c95565b60405180910390fd5b949350505050565b611083611352565b61109283845f015151846111cc565b905092915050565b6110a2611352565b6110b284855f0151518585611222565b90509392505050565b6110c3611352565b82518211156110d0575f5ffd5b846020015182856110e1919061191d565b11156111165761111585600261110688602001518887611101919061191d565b6112af565b6111109190611cb3565b6112ca565b5b5f5f8651805187602083010193508088870111156111345787860182525b60208701925050505b6020841061117b5780518252602082611156919061191d565b9150602081611165919061191d565b90506020846111749190611ada565b935061113d565b5f6001856020036101000a03905080198251168184511681811785525050508692505050949350505050565b6111b48260028351610c85565b6111c78183610e0a90919063ffffffff16565b505050565b6111d4611352565b836020015183106111fa576111f984600286602001516111f49190611cb3565b6112ca565b5b83518051602085830101848153818603611215576001820183525b5050508390509392505050565b61122a611352565b8460200151848361123b919061191d565b1115611263576112628560028685611253919061191d565b61125d9190611cb3565b6112ca565b5b5f6001836101006112749190611e23565b61127e9190611ada565b905085518386820101858319825116178152815185880111156112a15784870182525b505085915050949350505050565b5f818311156112c0578290506112c4565b8190505b92915050565b5f825f015190506112db8383610c1d565b506112e68382610e0a565b50505050565b6040518060a001604052805f81526020015f73ffffffffffffffffffffffffffffffffffffffff1681526020015f7bffffffffffffffffffffffffffffffffffffffffffffffffffffffff191681526020015f815260200161134c611352565b81525090565b6040518060400160405280606081526020015f81525090565b5f5ffd5b5f819050919050565b6113818161136f565b811461138b575f5ffd5b50565b5f8135905061139c81611378565b92915050565b5f602082840312156113b7576113b661136b565b5b5f6113c48482850161138e565b91505092915050565b5f819050919050565b6113df816113cd565b82525050565b5f6020820190506113f85f8301846113d6565b92915050565b611407816113cd565b8114611411575f5ffd5b50565b5f81359050611422816113fe565b92915050565b5f5f6040838503121561143e5761143d61136b565b5b5f61144b85828601611414565b925050602061145c8582860161138e565b9150509250929050565b5f73ffffffffffffffffffffffffffffffffffffffff82169050919050565b5f61148f82611466565b9050919050565b61149f81611485565b82525050565b5f6020820190506114b85f830184611496565b92915050565b6114c78161136f565b82525050565b5f6020820190506114e05f8301846114be565b92915050565b6114ef81611485565b81146114f9575f5ffd5b50565b5f8135905061150a816114e6565b92915050565b5f602082840312156115255761152461136b565b5b5f611532848285016114fc565b91505092915050565b5f82825260208201905092915050565b7f4d616465207468652067657420726571756573740000000000000000000000005f82015250565b5f61157f60148361153b565b915061158a8261154b565b602082019050919050565b5f6020820190508181035f8301526115ac81611573565b9050919050565b7f536f75726365206d75737420626520746865206f7261636c65206f66207468655f8201527f2072657175657374000000000000000000000000000000000000000000000000602082015250565b5f61160d60288361153b565b9150611618826115b3565b604082019050919050565b5f6020820190508181035f83015261163a81611601565b9050919050565b7f4d7573742062652070726f706f736564206f776e6572000000000000000000005f82015250565b5f61167560168361153b565b915061168082611641565b602082019050919050565b5f6020820190508181035f8301526116a281611669565b9050919050565b5f815190506116b781611378565b92915050565b5f602082840312156116d2576116d161136b565b5b5f6116df848285016116a9565b91505092915050565b5f6040820190506116fb5f830185611496565b61170860208301846114be565b9392505050565b5f8115159050919050565b6117238161170f565b811461172d575f5ffd5b50565b5f8151905061173e8161171a565b92915050565b5f602082840312156117595761175861136b565b5b5f61176684828501611730565b91505092915050565b7f556e61626c6520746f207472616e7366657200000000000000000000000000005f82015250565b5f6117a360128361153b565b91506117ae8261176f565b602082019050919050565b5f6020820190508181035f8301526117d081611797565b9050919050565b7f4f6e6c792063616c6c61626c65206279206f776e6572000000000000000000005f82015250565b5f61180b60168361153b565b9150611816826117d7565b602082019050919050565b5f6020820190508181035f830152611838816117ff565b9050919050565b7f43616e6e6f74207472616e7366657220746f2073656c660000000000000000005f82015250565b5f61187360178361153b565b915061187e8261183f565b602082019050919050565b5f6020820190508181035f8301526118a081611867565b9050919050565b5f819050919050565b7f4e487b71000000000000000000000000000000000000000000000000000000005f52601160045260245ffd5b5f6118e7826118a7565b91506118f2836118a7565b925082820390508181125f8412168282135f851215161715611917576119166118b0565b5b92915050565b5f6119278261136f565b91506119328361136f565b925082820190508082111561194a576119496118b0565b5b92915050565b5f7fffffffff0000000000000000000000000000000000000000000000000000000082169050919050565b61198481611950565b82525050565b5f81519050919050565b5f82825260208201905092915050565b8281835e5f83830152505050565b5f601f19601f8301169050919050565b5f6119cc8261198a565b6119d68185611994565b93506119e68185602086016119a4565b6119ef816119b2565b840191505092915050565b5f61010082019050611a0e5f83018b611496565b611a1b602083018a6114be565b611a2860408301896113d6565b611a356060830188611496565b611a42608083018761197b565b611a4f60a08301866114be565b611a5c60c08301856114be565b81810360e0830152611a6e81846119c2565b90509998505050505050505050565b7f4e487b71000000000000000000000000000000000000000000000000000000005f52601260045260245ffd5b5f611ab48261136f565b9150611abf8361136f565b925082611acf57611ace611a7d565b5b828206905092915050565b5f611ae48261136f565b9150611aef8361136f565b9250828203905081811115611b0757611b066118b0565b5b92915050565b5f819050919050565b5f611b30611b2b611b2684611466565b611b0d565b611466565b9050919050565b5f611b4182611b16565b9050919050565b5f611b5282611b37565b9050919050565b5f8160601b9050919050565b5f611b6f82611b59565b9050919050565b5f611b8082611b65565b9050919050565b611b98611b9382611b48565b611b76565b82525050565b5f819050919050565b611bb8611bb38261136f565b611b9e565b82525050565b5f611bc98285611b87565b601482019150611bd98284611ba7565b6020820191508190509392505050565b5f606082019050611bfc5f830186611496565b611c0960208301856114be565b8181036040830152611c1b81846119c2565b9050949350505050565b7f756e61626c6520746f207472616e73666572416e6443616c6c20746f206f72615f8201527f636c650000000000000000000000000000000000000000000000000000000000602082015250565b5f611c7f60238361153b565b9150611c8a82611c25565b604082019050919050565b5f6020820190508181035f830152611cac81611c73565b9050919050565b5f611cbd8261136f565b9150611cc88361136f565b9250828202611cd68161136f565b91508282048414831517611ced57611cec6118b0565b5b5092915050565b5f8160011c9050919050565b5f5f8291508390505b6001851115611d4957808604811115611d2557611d246118b0565b5b6001851615611d345780820291505b8081029050611d4285611cf4565b9450611d09565b94509492505050565b5f82611d615760019050611e1c565b81611d6e575f9050611e1c565b8160018114611d845760028114611d8e57611dbd565b6001915050611e1c565b60ff841115611da057611d9f6118b0565b5b8360020a915084821115611db757611db66118b0565b5b50611e1c565b5060208310610133831016604e8410600b8410161715611df25782820a905083811115611ded57611dec6118b0565b5b611e1c565b611dff8484846001611d00565b92509050818404811115611e1657611e156118b0565b5b81810290505b9392505050565b5f611e2d8261136f565b9150611e388361136f565b9250611e657fffffffffffffffffffffffffffffffffffffffffffffffffffffffffffffffff8484611d52565b90509291505056fe68747470733a2f2f303835332d31342d3230302d37352d35342e6e67726f6b2d667265652e6170702f64617461a2646970667358221220a9471987cf652a07fc31be6c446e3976683f1afbc2e63809592f4ae70e69f18c64736f6c634300081d0033",
			"opcodes": "PUSH1 0x80 PUSH1 0x40 MSTORE PUSH1 0x1 PUSH1 0x4 SSTORE CALLVALUE DUP1 ISZERO PUSH2 0x14 JUMPI PUSH0 PUSH0 REVERT JUMPDEST POP CALLER DUP1 PUSH0 PUSH0 PUSH20 0xFFFFFFFFFFFFFFFFFFFFFFFFFFFFFFFFFFFFFFFF AND DUP3 PUSH20 0xFFFFFFFFFFFFFFFFFFFFFFFFFFFFFFFFFFFFFFFF AND SUB PUSH2 0x86 JUMPI PUSH1 0x40 MLOAD PUSH32 0x8C379A000000000000000000000000000000000000000000000000000000000 DUP2 MSTORE PUSH1 0x4 ADD PUSH2 0x7D SWAP1 PUSH2 0x3B1 JUMP JUMPDEST PUSH1 0x40 MLOAD DUP1 SWAP2 SUB SWAP1 REVERT JUMPDEST DUP2 PUSH1 0x6 PUSH0 PUSH2 0x100 EXP DUP2 SLOAD DUP2 PUSH20 0xFFFFFFFFFFFFFFFFFFFFFFFFFFFFFFFFFFFFFFFF MUL NOT AND SWAP1 DUP4 PUSH20 0xFFFFFFFFFFFFFFFFFFFFFFFFFFFFFFFFFFFFFFFF AND MUL OR SWAP1 SSTORE POP PUSH0 PUSH20 0xFFFFFFFFFFFFFFFFFFFFFFFFFFFFFFFFFFFFFFFF AND DUP2 PUSH20 0xFFFFFFFFFFFFFFFFFFFFFFFFFFFFFFFFFFFFFFFF AND EQ PUSH2 0x109 JUMPI PUSH2 0x108 DUP2 PUSH2 0x1A5 PUSH1 0x20 SHL PUSH1 0x20 SHR JUMP JUMPDEST JUMPDEST POP POP POP PUSH2 0x12F PUSH20 0x779877A7B0D9E8603169DDBD7836E478B4624789 PUSH2 0x2D1 PUSH1 0x20 SHL PUSH1 0x20 SHR JUMP JUMPDEST PUSH2 0x152 PUSH20 0x6090149792DAAEE9D1D568C9F9A6F6B46AA29EFD PUSH2 0x314 PUSH1 0x20 SHL PUSH1 0x20 SHR JUMP JUMPDEST PUSH32 0x6361393833363663633733313439353762386330313263373266303561656562 PUSH1 0x9 DUP2 SWAP1 SSTORE POP PUSH1 0xA PUSH8 0xDE0B6B3A7640000 PUSH1 0x1 PUSH2 0x190 SWAP2 SWAP1 PUSH2 0x405 JUMP JUMPDEST PUSH2 0x19A SWAP2 SWAP1 PUSH2 0x473 JUMP JUMPDEST PUSH1 0xA DUP2 SWAP1 SSTORE POP PUSH2 0x50B JUMP JUMPDEST CALLER PUSH20 0xFFFFFFFFFFFFFFFFFFFFFFFFFFFFFFFFFFFFFFFF AND DUP2 PUSH20 0xFFFFFFFFFFFFFFFFFFFFFFFFFFFFFFFFFFFFFFFF AND SUB PUSH2 0x213 JUMPI PUSH1 0x40 MLOAD PUSH32 0x8C379A000000000000000000000000000000000000000000000000000000000 DUP2 MSTORE PUSH1 0x4 ADD PUSH2 0x20A SWAP1 PUSH2 0x4ED JUMP JUMPDEST PUSH1 0x40 MLOAD DUP1 SWAP2 SUB SWAP1 REVERT JUMPDEST DUP1 PUSH1 0x7 PUSH0 PUSH2 0x100 EXP DUP2 SLOAD DUP2 PUSH20 0xFFFFFFFFFFFFFFFFFFFFFFFFFFFFFFFFFFFFFFFF MUL NOT AND SWAP1 DUP4 PUSH20 0xFFFFFFFFFFFFFFFFFFFFFFFFFFFFFFFFFFFFFFFF AND MUL OR SWAP1 SSTORE POP DUP1 PUSH20 0xFFFFFFFFFFFFFFFFFFFFFFFFFFFFFFFFFFFFFFFF AND PUSH1 0x6 PUSH0 SWAP1 SLOAD SWAP1 PUSH2 0x100 EXP SWAP1 DIV PUSH20 0xFFFFFFFFFFFFFFFFFFFFFFFFFFFFFFFFFFFFFFFF AND PUSH20 0xFFFFFFFFFFFFFFFFFFFFFFFFFFFFFFFFFFFFFFFF AND PUSH32 0xED8889F560326EB138920D842192F0EB3DD22B4F139C87A2C57538E05BAE1278 PUSH1 0x40 MLOAD PUSH1 0x40 MLOAD DUP1 SWAP2 SUB SWAP1 LOG3 POP JUMP JUMPDEST DUP1 PUSH1 0x2 PUSH0 PUSH2 0x100 EXP DUP2 SLOAD DUP2 PUSH20 0xFFFFFFFFFFFFFFFFFFFFFFFFFFFFFFFFFFFFFFFF MUL NOT AND SWAP1 DUP4 PUSH20 0xFFFFFFFFFFFFFFFFFFFFFFFFFFFFFFFFFFFFFFFF AND MUL OR SWAP1 SSTORE POP POP JUMP JUMPDEST DUP1 PUSH1 0x3 PUSH0 PUSH2 0x100 EXP DUP2 SLOAD DUP2 PUSH20 0xFFFFFFFFFFFFFFFFFFFFFFFFFFFFFFFFFFFFFFFF MUL NOT AND SWAP1 DUP4 PUSH20 0xFFFFFFFFFFFFFFFFFFFFFFFFFFFFFFFFFFFFFFFF AND MUL OR SWAP1 SSTORE POP POP JUMP JUMPDEST PUSH0 DUP3 DUP3 MSTORE PUSH1 0x20 DUP3 ADD SWAP1 POP SWAP3 SWAP2 POP POP JUMP JUMPDEST PUSH32 0x43616E6E6F7420736574206F776E657220746F207A65726F0000000000000000 PUSH0 DUP3 ADD MSTORE POP JUMP JUMPDEST PUSH0 PUSH2 0x39B PUSH1 0x18 DUP4 PUSH2 0x357 JUMP JUMPDEST SWAP2 POP PUSH2 0x3A6 DUP3 PUSH2 0x367 JUMP JUMPDEST PUSH1 0x20 DUP3 ADD SWAP1 POP SWAP2 SWAP1 POP JUMP JUMPDEST PUSH0 PUSH1 0x20 DUP3 ADD SWAP1 POP DUP2 DUP2 SUB PUSH0 DUP4 ADD MSTORE PUSH2 0x3C8 DUP2 PUSH2 0x38F JUMP JUMPDEST SWAP1 POP SWAP2 SWAP1 POP JUMP JUMPDEST PUSH0 DUP2 SWAP1 POP SWAP2 SWAP1 POP JUMP JUMPDEST PUSH32 0x4E487B7100000000000000000000000000000000000000000000000000000000 PUSH0 MSTORE PUSH1 0x11 PUSH1 0x4 MSTORE PUSH1 0x24 PUSH0 REVERT JUMPDEST PUSH0 PUSH2 0x40F DUP3 PUSH2 0x3CF JUMP JUMPDEST SWAP2 POP PUSH2 0x41A DUP4 PUSH2 0x3CF JUMP JUMPDEST SWAP3 POP DUP3 DUP3 MUL PUSH2 0x428 DUP2 PUSH2 0x3CF JUMP JUMPDEST SWAP2 POP DUP3 DUP3 DIV DUP5 EQ DUP4 ISZERO OR PUSH2 0x43F JUMPI PUSH2 0x43E PUSH2 0x3D8 JUMP JUMPDEST JUMPDEST POP SWAP3 SWAP2 POP POP JUMP JUMPDEST PUSH32 0x4E487B7100000000000000000000000000000000000000000000000000000000 PUSH0 MSTORE PUSH1 0x12 PUSH1 0x4 MSTORE PUSH1 0x24 PUSH0 REVERT JUMPDEST PUSH0 PUSH2 0x47D DUP3 PUSH2 0x3CF JUMP JUMPDEST SWAP2 POP PUSH2 0x488 DUP4 PUSH2 0x3CF JUMP JUMPDEST SWAP3 POP DUP3 PUSH2 0x498 JUMPI PUSH2 0x497 PUSH2 0x446 JUMP JUMPDEST JUMPDEST DUP3 DUP3 DIV SWAP1 POP SWAP3 SWAP2 POP POP JUMP JUMPDEST PUSH32 0x43616E6E6F74207472616E7366657220746F2073656C66000000000000000000 PUSH0 DUP3 ADD MSTORE POP JUMP JUMPDEST PUSH0 PUSH2 0x4D7 PUSH1 0x17 DUP4 PUSH2 0x357 JUMP JUMPDEST SWAP2 POP PUSH2 0x4E2 DUP3 PUSH2 0x4A3 JUMP JUMPDEST PUSH1 0x20 DUP3 ADD SWAP1 POP SWAP2 SWAP1 POP JUMP JUMPDEST PUSH0 PUSH1 0x20 DUP3 ADD SWAP1 POP DUP2 DUP2 SUB PUSH0 DUP4 ADD MSTORE PUSH2 0x504 DUP2 PUSH2 0x4CB JUMP JUMPDEST SWAP1 POP SWAP2 SWAP1 POP JUMP JUMPDEST PUSH2 0x1ED0 DUP1 PUSH2 0x518 PUSH0 CODECOPY PUSH0 RETURN INVALID PUSH1 0x80 PUSH1 0x40 MSTORE CALLVALUE DUP1 ISZERO PUSH2 0xF JUMPI PUSH0 PUSH0 REVERT JUMPDEST POP PUSH1 0x4 CALLDATASIZE LT PUSH2 0x7B JUMPI PUSH0 CALLDATALOAD PUSH1 0xE0 SHR DUP1 PUSH4 0x8DA5CB5B GT PUSH2 0x59 JUMPI DUP1 PUSH4 0x8DA5CB5B EQ PUSH2 0xD5 JUMPI DUP1 PUSH4 0x8DC654A2 EQ PUSH2 0xF3 JUMPI DUP1 PUSH4 0xC618A1E4 EQ PUSH2 0xFD JUMPI DUP1 PUSH4 0xF2FDE38B EQ PUSH2 0x11B JUMPI PUSH2 0x7B JUMP JUMPDEST DUP1 PUSH4 0x2ADB9E3C EQ PUSH2 0x7F JUMPI DUP1 PUSH4 0x4357855E EQ PUSH2 0xAF JUMPI DUP1 PUSH4 0x79BA5097 EQ PUSH2 0xCB JUMPI JUMPDEST PUSH0 PUSH0 REVERT JUMPDEST PUSH2 0x99 PUSH1 0x4 DUP1 CALLDATASIZE SUB DUP2 ADD SWAP1 PUSH2 0x94 SWAP2 SWAP1 PUSH2 0x13A2 JUMP JUMPDEST PUSH2 0x137 JUMP JUMPDEST PUSH1 0x40 MLOAD PUSH2 0xA6 SWAP2 SWAP1 PUSH2 0x13E5 JUMP JUMPDEST PUSH1 0x40 MLOAD DUP1 SWAP2 SUB SWAP1 RETURN JUMPDEST PUSH2 0xC9 PUSH1 0x4 DUP1 CALLDATASIZE SUB DUP2 ADD SWAP1 PUSH2 0xC4 SWAP2 SWAP1 PUSH2 0x1428 JUMP JUMPDEST PUSH2 0x2C9 JUMP JUMPDEST STOP JUMPDEST PUSH2 0xD3 PUSH2 0x40C JUMP JUMPDEST STOP JUMPDEST PUSH2 0xDD PUSH2 0x59D JUMP JUMPDEST PUSH1 0x40 MLOAD PUSH2 0xEA SWAP2 SWAP1 PUSH2 0x14A5 JUMP JUMPDEST PUSH1 0x40 MLOAD DUP1 SWAP2 SUB SWAP1 RETURN JUMPDEST PUSH2 0xFB PUSH2 0x5C5 JUMP JUMPDEST STOP JUMPDEST PUSH2 0x105 PUSH2 0x70C JUMP JUMPDEST PUSH1 0x40 MLOAD PUSH2 0x112 SWAP2 SWAP1 PUSH2 0x14CD JUMP JUMPDEST PUSH1 0x40 MLOAD DUP1 SWAP2 SUB SWAP1 RETURN JUMPDEST PUSH2 0x135 PUSH1 0x4 DUP1 CALLDATASIZE SUB DUP2 ADD SWAP1 PUSH2 0x130 SWAP2 SWAP1 PUSH2 0x1510 JUMP JUMPDEST PUSH2 0x712 JUMP JUMPDEST STOP JUMPDEST PUSH0 PUSH0 PUSH2 0x14D PUSH1 0x9 SLOAD ADDRESS PUSH4 0x4357855E PUSH1 0xE0 SHL PUSH2 0x726 JUMP JUMPDEST SWAP1 POP PUSH2 0x1B1 PUSH1 0x40 MLOAD DUP1 PUSH1 0x40 ADD PUSH1 0x40 MSTORE DUP1 PUSH1 0x3 DUP2 MSTORE PUSH1 0x20 ADD PUSH32 0x6765740000000000000000000000000000000000000000000000000000000000 DUP2 MSTORE POP PUSH1 0x40 MLOAD DUP1 PUSH1 0x60 ADD PUSH1 0x40 MSTORE DUP1 PUSH1 0x2D DUP2 MSTORE PUSH1 0x20 ADD PUSH2 0x1E6E PUSH1 0x2D SWAP2 CODECOPY DUP4 PUSH2 0x757 SWAP1 SWAP3 SWAP2 SWAP1 PUSH4 0xFFFFFFFF AND JUMP JUMPDEST PUSH2 0x230 PUSH1 0x40 MLOAD DUP1 PUSH1 0x40 ADD PUSH1 0x40 MSTORE DUP1 PUSH1 0x4 DUP2 MSTORE PUSH1 0x20 ADD PUSH32 0x7061746800000000000000000000000000000000000000000000000000000000 DUP2 MSTORE POP PUSH1 0x40 MLOAD DUP1 PUSH1 0x40 ADD PUSH1 0x40 MSTORE DUP1 PUSH1 0x3 DUP2 MSTORE PUSH1 0x20 ADD PUSH32 0x6E756D0000000000000000000000000000000000000000000000000000000000 DUP2 MSTORE POP DUP4 PUSH2 0x757 SWAP1 SWAP3 SWAP2 SWAP1 PUSH4 0xFFFFFFFF AND JUMP JUMPDEST PUSH0 PUSH1 0x1 SWAP1 POP PUSH2 0x27F PUSH1 0x40 MLOAD DUP1 PUSH1 0x40 ADD PUSH1 0x40 MSTORE DUP1 PUSH1 0x5 DUP2 MSTORE PUSH1 0x20 ADD PUSH32 0x74696D6573000000000000000000000000000000000000000000000000000000 DUP2 MSTORE POP DUP3 DUP5 PUSH2 0x78A SWAP1 SWAP3 SWAP2 SWAP1 PUSH4 0xFFFFFFFF AND JUMP JUMPDEST PUSH32 0xE8E349D9D60379B7E0A717F216D3D9EFAF00B5DCE8B634A63F24A5D76251059F PUSH1 0x40 MLOAD PUSH2 0x2AC SWAP1 PUSH2 0x1595 JUMP JUMPDEST PUSH1 0x40 MLOAD DUP1 SWAP2 SUB SWAP1 LOG1 PUSH2 0x2C0 DUP3 PUSH1 0xA SLOAD PUSH2 0x7BD JUMP JUMPDEST SWAP3 POP POP POP SWAP2 SWAP1 POP JUMP JUMPDEST DUP2 PUSH1 0x5 PUSH0 DUP3 DUP2 MSTORE PUSH1 0x20 ADD SWAP1 DUP2 MSTORE PUSH1 0x20 ADD PUSH0 KECCAK256 PUSH0 SWAP1 SLOAD SWAP1 PUSH2 0x100 EXP SWAP1 DIV PUSH20 0xFFFFFFFFFFFFFFFFFFFFFFFFFFFFFFFFFFFFFFFF AND PUSH20 0xFFFFFFFFFFFFFFFFFFFFFFFFFFFFFFFFFFFFFFFF AND CALLER PUSH20 0xFFFFFFFFFFFFFFFFFFFFFFFFFFFFFFFFFFFFFFFF AND EQ PUSH2 0x368 JUMPI PUSH1 0x40 MLOAD PUSH32 0x8C379A000000000000000000000000000000000000000000000000000000000 DUP2 MSTORE PUSH1 0x4 ADD PUSH2 0x35F SWAP1 PUSH2 0x1623 JUMP JUMPDEST PUSH1 0x40 MLOAD DUP1 SWAP2 SUB SWAP1 REVERT JUMPDEST PUSH1 0x5 PUSH0 DUP3 DUP2 MSTORE PUSH1 0x20 ADD SWAP1 DUP2 MSTORE PUSH1 0x20 ADD PUSH0 KECCAK256 PUSH0 PUSH2 0x100 EXP DUP2 SLOAD SWAP1 PUSH20 0xFFFFFFFFFFFFFFFFFFFFFFFFFFFFFFFFFFFFFFFF MUL NOT AND SWAP1 SSTORE DUP1 PUSH32 0x7CC135E0CEBB02C3480AE5D74D377283180A2601F8F644EDF7987B009316C63A PUSH1 0x40 MLOAD PUSH1 0x40 MLOAD DUP1 SWAP2 SUB SWAP1 LOG2 DUP3 PUSH32 0x673B38182859A514D734BDFCB49D3A05C4A641DEC9311D9894C9717BCB79AF76 DUP4 PUSH1 0x40 MLOAD PUSH2 0x3F8 SWAP2 SWAP1 PUSH2 0x14CD JUMP JUMPDEST PUSH1 0x40 MLOAD DUP1 SWAP2 SUB SWAP1 LOG2 DUP2 PUSH1 0x8 DUP2 SWAP1 SSTORE POP POP POP POP JUMP JUMPDEST PUSH1 0x7 PUSH0 SWAP1 SLOAD SWAP1 PUSH2 0x100 EXP SWAP1 DIV PUSH20 0xFFFFFFFFFFFFFFFFFFFFFFFFFFFFFFFFFFFFFFFF AND PUSH20 0xFFFFFFFFFFFFFFFFFFFFFFFFFFFFFFFFFFFFFFFF AND CALLER PUSH20 0xFFFFFFFFFFFFFFFFFFFFFFFFFFFFFFFFFFFFFFFF AND EQ PUSH2 0x49B JUMPI PUSH1 0x40 MLOAD PUSH32 0x8C379A000000000000000000000000000000000000000000000000000000000 DUP2 MSTORE PUSH1 0x4 ADD PUSH2 0x492 SWAP1 PUSH2 0x168B JUMP JUMPDEST PUSH1 0x40 MLOAD DUP1 SWAP2 SUB SWAP1 REVERT JUMPDEST PUSH0 PUSH1 0x6 PUSH0 SWAP1 SLOAD SWAP1 PUSH2 0x100 EXP SWAP1 DIV PUSH20 0xFFFFFFFFFFFFFFFFFFFFFFFFFFFFFFFFFFFFFFFF AND SWAP1 POP CALLER PUSH1 0x6 PUSH0 PUSH2 0x100 EXP DUP2 SLOAD DUP2 PUSH20 0xFFFFFFFFFFFFFFFFFFFFFFFFFFFFFFFFFFFFFFFF MUL NOT AND SWAP1 DUP4 PUSH20 0xFFFFFFFFFFFFFFFFFFFFFFFFFFFFFFFFFFFFFFFF AND MUL OR SWAP1 SSTORE POP PUSH0 PUSH1 0x7 PUSH0 PUSH2 0x100 EXP DUP2 SLOAD DUP2 PUSH20 0xFFFFFFFFFFFFFFFFFFFFFFFFFFFFFFFFFFFFFFFF MUL NOT AND SWAP1 DUP4 PUSH20 0xFFFFFFFFFFFFFFFFFFFFFFFFFFFFFFFFFFFFFFFF AND MUL OR SWAP1 SSTORE POP CALLER PUSH20 0xFFFFFFFFFFFFFFFFFFFFFFFFFFFFFFFFFFFFFFFF AND DUP2 PUSH20 0xFFFFFFFFFFFFFFFFFFFFFFFFFFFFFFFFFFFFFFFF AND PUSH32 0x8BE0079C531659141344CD1FD0A4F28419497F9722A3DAAFE3B4186F6B6457E0 PUSH1 0x40 MLOAD PUSH1 0x40 MLOAD DUP1 SWAP2 SUB SWAP1 LOG3 POP JUMP JUMPDEST PUSH0 PUSH1 0x6 PUSH0 SWAP1 SLOAD SWAP1 PUSH2 0x100 EXP SWAP1 DIV PUSH20 0xFFFFFFFFFFFFFFFFFFFFFFFFFFFFFFFFFFFFFFFF AND SWAP1 POP SWAP1 JUMP JUMPDEST PUSH2 0x5CD PUSH2 0x7F2 JUMP JUMPDEST PUSH0 PUSH2 0x5D6 PUSH2 0x883 JUMP JUMPDEST SWAP1 POP DUP1 PUSH20 0xFFFFFFFFFFFFFFFFFFFFFFFFFFFFFFFFFFFFFFFF AND PUSH4 0xA9059CBB CALLER DUP4 PUSH20 0xFFFFFFFFFFFFFFFFFFFFFFFFFFFFFFFFFFFFFFFF AND PUSH4 0x70A08231 ADDRESS PUSH1 0x40 MLOAD DUP3 PUSH4 0xFFFFFFFF AND PUSH1 0xE0 SHL DUP2 MSTORE PUSH1 0x4 ADD PUSH2 0x62E SWAP2 SWAP1 PUSH2 0x14A5 JUMP JUMPDEST PUSH1 0x20 PUSH1 0x40 MLOAD DUP1 DUP4 SUB DUP2 DUP7 GAS STATICCALL ISZERO DUP1 ISZERO PUSH2 0x649 JUMPI RETURNDATASIZE PUSH0 PUSH0 RETURNDATACOPY RETURNDATASIZE PUSH0 REVERT JUMPDEST POP POP POP POP PUSH1 0x40 MLOAD RETURNDATASIZE PUSH1 0x1F NOT PUSH1 0x1F DUP3 ADD AND DUP3 ADD DUP1 PUSH1 0x40 MSTORE POP DUP2 ADD SWAP1 PUSH2 0x66D SWAP2 SWAP1 PUSH2 0x16BD JUMP JUMPDEST PUSH1 0x40 MLOAD DUP4 PUSH4 0xFFFFFFFF AND PUSH1 0xE0 SHL DUP2 MSTORE PUSH1 0x4 ADD PUSH2 0x68A SWAP3 SWAP2 SWAP1 PUSH2 0x16E8 JUMP JUMPDEST PUSH1 0x20 PUSH1 0x40 MLOAD DUP1 DUP4 SUB DUP2 PUSH0 DUP8 GAS CALL ISZERO DUP1 ISZERO PUSH2 0x6A6 JUMPI RETURNDATASIZE PUSH0 PUSH0 RETURNDATACOPY RETURNDATASIZE PUSH0 REVERT JUMPDEST POP POP POP POP PUSH1 0x40 MLOAD RETURNDATASIZE PUSH1 0x1F NOT PUSH1 0x1F DUP3 ADD AND DUP3 ADD DUP1 PUSH1 0x40 MSTORE POP DUP2 ADD SWAP1 PUSH2 0x6CA SWAP2 SWAP1 PUSH2 0x1744 JUMP JUMPDEST PUSH2 0x709 JUMPI PUSH1 0x40 MLOAD PUSH32 0x8C379A000000000000000000000000000000000000000000000000000000000 DUP2 MSTORE PUSH1 0x4 ADD PUSH2 0x700 SWAP1 PUSH2 0x17B9 JUMP JUMPDEST PUSH1 0x40 MLOAD DUP1 SWAP2 SUB SWAP1 REVERT JUMPDEST POP JUMP JUMPDEST PUSH1 0x8 SLOAD DUP2 JUMP JUMPDEST PUSH2 0x71A PUSH2 0x7F2 JUMP JUMPDEST PUSH2 0x723 DUP2 PUSH2 0x8AB JUMP JUMPDEST POP JUMP JUMPDEST PUSH2 0x72E PUSH2 0x12EC JUMP JUMPDEST PUSH2 0x736 PUSH2 0x12EC JUMP JUMPDEST PUSH2 0x74D DUP6 DUP6 DUP6 DUP5 PUSH2 0x9D7 SWAP1 SWAP4 SWAP3 SWAP2 SWAP1 PUSH4 0xFFFFFFFF AND JUMP JUMPDEST SWAP2 POP POP SWAP4 SWAP3 POP POP POP JUMP JUMPDEST PUSH2 0x76E DUP3 DUP5 PUSH1 0x80 ADD MLOAD PUSH2 0xA86 SWAP1 SWAP2 SWAP1 PUSH4 0xFFFFFFFF AND JUMP JUMPDEST PUSH2 0x785 DUP2 DUP5 PUSH1 0x80 ADD MLOAD PUSH2 0xA86 SWAP1 SWAP2 SWAP1 PUSH4 0xFFFFFFFF AND JUMP JUMPDEST POP POP POP JUMP JUMPDEST PUSH2 0x7A1 DUP3 DUP5 PUSH1 0x80 ADD MLOAD PUSH2 0xA86 SWAP1 SWAP2 SWAP1 PUSH4 0xFFFFFFFF AND JUMP JUMPDEST PUSH2 0x7B8 DUP2 DUP5 PUSH1 0x80 ADD MLOAD PUSH2 0xAAB SWAP1 SWAP2 SWAP1 PUSH4 0xFFFFFFFF AND JUMP JUMPDEST POP POP POP JUMP JUMPDEST PUSH0 PUSH2 0x7EA PUSH1 0x3 PUSH0 SWAP1 SLOAD SWAP1 PUSH2 0x100 EXP SWAP1 DIV PUSH20 0xFFFFFFFFFFFFFFFFFFFFFFFFFFFFFFFFFFFFFFFF AND DUP5 DUP5 PUSH2 0xB56 JUMP JUMPDEST SWAP1 POP SWAP3 SWAP2 POP POP JUMP JUMPDEST PUSH1 0x6 PUSH0 SWAP1 SLOAD SWAP1 PUSH2 0x100 EXP SWAP1 DIV PUSH20 0xFFFFFFFFFFFFFFFFFFFFFFFFFFFFFFFFFFFFFFFF AND PUSH20 0xFFFFFFFFFFFFFFFFFFFFFFFFFFFFFFFFFFFFFFFF AND CALLER PUSH20 0xFFFFFFFFFFFFFFFFFFFFFFFFFFFFFFFFFFFFFFFF AND EQ PUSH2 0x881 JUMPI PUSH1 0x40 MLOAD PUSH32 0x8C379A000000000000000000000000000000000000000000000000000000000 DUP2 MSTORE PUSH1 0x4 ADD PUSH2 0x878 SWAP1 PUSH2 0x1821 JUMP JUMPDEST PUSH1 0x40 MLOAD DUP1 SWAP2 SUB SWAP1 REVERT JUMPDEST JUMP JUMPDEST PUSH0 PUSH1 0x2 PUSH0 SWAP1 SLOAD SWAP1 PUSH2 0x100 EXP SWAP1 DIV PUSH20 0xFFFFFFFFFFFFFFFFFFFFFFFFFFFFFFFFFFFFFFFF AND SWAP1 POP SWAP1 JUMP JUMPDEST CALLER PUSH20 0xFFFFFFFFFFFFFFFFFFFFFFFFFFFFFFFFFFFFFFFF AND DUP2 PUSH20 0xFFFFFFFFFFFFFFFFFFFFFFFFFFFFFFFFFFFFFFFF AND SUB PUSH2 0x919 JUMPI PUSH1 0x40 MLOAD PUSH32 0x8C379A000000000000000000000000000000000000000000000000000000000 DUP2 MSTORE PUSH1 0x4 ADD PUSH2 0x910 SWAP1 PUSH2 0x1889 JUMP JUMPDEST PUSH1 0x40 MLOAD DUP1 SWAP2 SUB SWAP1 REVERT JUMPDEST DUP1 PUSH1 0x7 PUSH0 PUSH2 0x100 EXP DUP2 SLOAD DUP2 PUSH20 0xFFFFFFFFFFFFFFFFFFFFFFFFFFFFFFFFFFFFFFFF MUL NOT AND SWAP1 DUP4 PUSH20 0xFFFFFFFFFFFFFFFFFFFFFFFFFFFFFFFFFFFFFFFF AND MUL OR SWAP1 SSTORE POP DUP1 PUSH20 0xFFFFFFFFFFFFFFFFFFFFFFFFFFFFFFFFFFFFFFFF AND PUSH1 0x6 PUSH0 SWAP1 SLOAD SWAP1 PUSH2 0x100 EXP SWAP1 DIV PUSH20 0xFFFFFFFFFFFFFFFFFFFFFFFFFFFFFFFFFFFFFFFF AND PUSH20 0xFFFFFFFFFFFFFFFFFFFFFFFFFFFFFFFFFFFFFFFF AND PUSH32 0xED8889F560326EB138920D842192F0EB3DD22B4F139C87A2C57538E05BAE1278 PUSH1 0x40 MLOAD PUSH1 0x40 MLOAD DUP1 SWAP2 SUB SWAP1 LOG3 POP JUMP JUMPDEST PUSH2 0x9DF PUSH2 0x12EC JUMP JUMPDEST PUSH2 0x9EF DUP6 PUSH1 0x80 ADD MLOAD PUSH2 0x100 PUSH2 0xC1D JUMP JUMPDEST POP DUP4 DUP6 PUSH0 ADD DUP2 DUP2 MSTORE POP POP DUP3 DUP6 PUSH1 0x20 ADD SWAP1 PUSH20 0xFFFFFFFFFFFFFFFFFFFFFFFFFFFFFFFFFFFFFFFF AND SWAP1 DUP2 PUSH20 0xFFFFFFFFFFFFFFFFFFFFFFFFFFFFFFFFFFFFFFFF AND DUP2 MSTORE POP POP DUP2 DUP6 PUSH1 0x40 ADD SWAP1 PUSH28 0xFFFFFFFFFFFFFFFFFFFFFFFFFFFFFFFFFFFFFFFFFFFFFFFFFFFFFFFF NOT AND SWAP1 DUP2 PUSH28 0xFFFFFFFFFFFFFFFFFFFFFFFFFFFFFFFFFFFFFFFFFFFFFFFFFFFFFFFF NOT AND DUP2 MSTORE POP POP DUP5 SWAP1 POP SWAP5 SWAP4 POP POP POP POP JUMP JUMPDEST PUSH2 0xA93 DUP3 PUSH1 0x3 DUP4 MLOAD PUSH2 0xC85 JUMP JUMPDEST PUSH2 0xAA6 DUP2 DUP4 PUSH2 0xE0A SWAP1 SWAP2 SWAP1 PUSH4 0xFFFFFFFF AND JUMP JUMPDEST POP POP POP JUMP JUMPDEST PUSH32 0xFFFFFFFFFFFFFFFFFFFFFFFFFFFFFFFFFFFFFFFFFFFFFFFF0000000000000000 DUP2 SLT ISZERO PUSH2 0xAE2 JUMPI PUSH2 0xADD DUP3 DUP3 PUSH2 0xE2B JUMP JUMPDEST PUSH2 0xB52 JUMP JUMPDEST PUSH8 0xFFFFFFFFFFFFFFFF DUP2 SGT ISZERO PUSH2 0xB01 JUMPI PUSH2 0xAFC DUP3 DUP3 PUSH2 0xEA2 JUMP JUMPDEST PUSH2 0xB51 JUMP JUMPDEST PUSH0 DUP2 SLT PUSH2 0xB18 JUMPI PUSH2 0xB13 DUP3 PUSH0 DUP4 PUSH2 0xC85 JUMP JUMPDEST PUSH2 0xB50 JUMP JUMPDEST PUSH2 0xB4F DUP3 PUSH1 0x1 DUP4 PUSH32 0xFFFFFFFFFFFFFFFFFFFFFFFFFFFFFFFFFFFFFFFFFFFFFFFFFFFFFFFFFFFFFFFF PUSH2 0xB4A SWAP2 SWAP1 PUSH2 0x18DD JUMP JUMPDEST PUSH2 0xC85 JUMP JUMPDEST JUMPDEST JUMPDEST JUMPDEST POP POP JUMP JUMPDEST PUSH0 PUSH0 PUSH1 0x4 SLOAD SWAP1 POP PUSH1 0x1 DUP2 PUSH2 0xB6A SWAP2 SWAP1 PUSH2 0x191D JUMP JUMPDEST PUSH1 0x4 DUP2 SWAP1 SSTORE POP PUSH0 PUSH4 0x40429946 PUSH1 0xE0 SHL PUSH0 PUSH0 DUP8 PUSH0 ADD MLOAD ADDRESS DUP10 PUSH1 0x40 ADD MLOAD DUP8 PUSH1 0x1 DUP13 PUSH1 0x80 ADD MLOAD PUSH0 ADD MLOAD PUSH1 0x40 MLOAD PUSH1 0x24 ADD PUSH2 0xBA7 SWAP9 SWAP8 SWAP7 SWAP6 SWAP5 SWAP4 SWAP3 SWAP2 SWAP1 PUSH2 0x19FA JUMP JUMPDEST PUSH1 0x40 MLOAD PUSH1 0x20 DUP2 DUP4 SUB SUB DUP2 MSTORE SWAP1 PUSH1 0x40 MSTORE SWAP1 PUSH28 0xFFFFFFFFFFFFFFFFFFFFFFFFFFFFFFFFFFFFFFFFFFFFFFFFFFFFFFFF NOT AND PUSH1 0x20 DUP3 ADD DUP1 MLOAD PUSH28 0xFFFFFFFFFFFFFFFFFFFFFFFFFFFFFFFFFFFFFFFFFFFFFFFFFFFFFFFF DUP4 DUP2 DUP4 AND OR DUP4 MSTORE POP POP POP POP SWAP1 POP PUSH2 0xC12 DUP7 DUP4 DUP7 DUP5 PUSH2 0xEEE JUMP JUMPDEST SWAP3 POP POP POP SWAP4 SWAP3 POP POP POP JUMP JUMPDEST PUSH2 0xC25 PUSH2 0x1352 JUMP JUMPDEST PUSH0 PUSH1 0x20 DUP4 PUSH2 0xC33 SWAP2 SWAP1 PUSH2 0x1AAA JUMP JUMPDEST EQ PUSH2 0xC5F JUMPI PUSH1 0x20 DUP3 PUSH2 0xC45 SWAP2 SWAP1 PUSH2 0x1AAA JUMP JUMPDEST PUSH1 0x20 PUSH2 0xC51 SWAP2 SWAP1 PUSH2 0x1ADA JUMP JUMPDEST DUP3 PUSH2 0xC5C SWAP2 SWAP1 PUSH2 0x191D JUMP JUMPDEST SWAP2 POP JUMPDEST DUP2 DUP4 PUSH1 0x20 ADD DUP2 DUP2 MSTORE POP POP PUSH1 0x40 MLOAD DUP1 DUP5 MSTORE PUSH0 DUP2 MSTORE DUP3 DUP2 ADD PUSH1 0x20 ADD PUSH1 0x40 MSTORE POP DUP3 SWAP1 POP SWAP3 SWAP2 POP POP JUMP JUMPDEST PUSH1 0x17 DUP2 PUSH8 0xFFFFFFFFFFFFFFFF AND GT PUSH2 0xCBC JUMPI PUSH2 0xCB6 DUP2 PUSH1 0x5 DUP5 PUSH1 0xFF AND SWAP1 SHL PUSH1 0xFF AND OR DUP5 PUSH2 0x107B SWAP1 SWAP2 SWAP1 PUSH4 0xFFFFFFFF AND JUMP JUMPDEST POP PUSH2 0xE05 JUMP JUMPDEST PUSH1 0xFF DUP2 PUSH8 0xFFFFFFFFFFFFFFFF AND GT PUSH2 0xD12 JUMPI PUSH2 0xCEB PUSH1 0x18 PUSH1 0x5 DUP5 PUSH1 0xFF AND SWAP1 SHL OR DUP5 PUSH2 0x107B SWAP1 SWAP2 SWAP1 PUSH4 0xFFFFFFFF AND JUMP JUMPDEST POP PUSH2 0xD0C DUP2 PUSH8 0xFFFFFFFFFFFFFFFF AND PUSH1 0x1 DUP6 PUSH2 0x109A SWAP1 SWAP3 SWAP2 SWAP1 PUSH4 0xFFFFFFFF AND JUMP JUMPDEST POP PUSH2 0xE04 JUMP JUMPDEST PUSH2 0xFFFF DUP2 PUSH8 0xFFFFFFFFFFFFFFFF AND GT PUSH2 0xD69 JUMPI PUSH2 0xD42 PUSH1 0x19 PUSH1 0x5 DUP5 PUSH1 0xFF AND SWAP1 SHL OR DUP5 PUSH2 0x107B SWAP1 SWAP2 SWAP1 PUSH4 0xFFFFFFFF AND JUMP JUMPDEST POP PUSH2 0xD63 DUP2 PUSH8 0xFFFFFFFFFFFFFFFF AND PUSH1 0x2 DUP6 PUSH2 0x109A SWAP1 SWAP3 SWAP2 SWAP1 PUSH4 0xFFFFFFFF AND JUMP JUMPDEST POP PUSH2 0xE03 JUMP JUMPDEST PUSH4 0xFFFFFFFF DUP2 PUSH8 0xFFFFFFFFFFFFFFFF AND GT PUSH2 0xDC2 JUMPI PUSH2 0xD9B PUSH1 0x1A PUSH1 0x5 DUP5 PUSH1 0xFF AND SWAP1 SHL OR DUP5 PUSH2 0x107B SWAP1 SWAP2 SWAP1 PUSH4 0xFFFFFFFF AND JUMP JUMPDEST POP PUSH2 0xDBC DUP2 PUSH8 0xFFFFFFFFFFFFFFFF AND PUSH1 0x4 DUP6 PUSH2 0x109A SWAP1 SWAP3 SWAP2 SWAP1 PUSH4 0xFFFFFFFF AND JUMP JUMPDEST POP PUSH2 0xE02 JUMP JUMPDEST PUSH2 0xDDF PUSH1 0x1B PUSH1 0x5 DUP5 PUSH1 0xFF AND SWAP1 SHL OR DUP5 PUSH2 0x107B SWAP1 SWAP2 SWAP1 PUSH4 0xFFFFFFFF AND JUMP JUMPDEST POP PUSH2 0xE00 DUP2 PUSH8 0xFFFFFFFFFFFFFFFF AND PUSH1 0x8 DUP6 PUSH2 0x109A SWAP1 SWAP3 SWAP2 SWAP1 PUSH4 0xFFFFFFFF AND JUMP JUMPDEST POP JUMPDEST JUMPDEST JUMPDEST JUMPDEST POP POP POP JUMP JUMPDEST PUSH2 0xE12 PUSH2 0x1352 JUMP JUMPDEST PUSH2 0xE23 DUP4 DUP5 PUSH0 ADD MLOAD MLOAD DUP5 DUP6 MLOAD PUSH2 0x10BB JUMP JUMPDEST SWAP1 POP SWAP3 SWAP2 POP POP JUMP JUMPDEST PUSH2 0xE49 PUSH1 0x3 PUSH1 0x5 PUSH1 0x6 PUSH1 0xFF AND SWAP1 SHL OR DUP4 PUSH2 0x107B SWAP1 SWAP2 SWAP1 PUSH4 0xFFFFFFFF AND JUMP JUMPDEST POP PUSH2 0xE9E DUP3 DUP3 PUSH32 0xFFFFFFFFFFFFFFFFFFFFFFFFFFFFFFFFFFFFFFFFFFFFFFFFFFFFFFFFFFFFFFFF PUSH2 0xE7A SWAP2 SWAP1 PUSH2 0x18DD JUMP JUMPDEST PUSH1 0x40 MLOAD PUSH1 0x20 ADD PUSH2 0xE8A SWAP2 SWAP1 PUSH2 0x14CD JUMP JUMPDEST PUSH1 0x40 MLOAD PUSH1 0x20 DUP2 DUP4 SUB SUB DUP2 MSTORE SWAP1 PUSH1 0x40 MSTORE PUSH2 0x11A7 JUMP JUMPDEST POP POP JUMP JUMPDEST PUSH2 0xEC0 PUSH1 0x2 PUSH1 0x5 PUSH1 0x6 PUSH1 0xFF AND SWAP1 SHL OR DUP4 PUSH2 0x107B SWAP1 SWAP2 SWAP1 PUSH4 0xFFFFFFFF AND JUMP JUMPDEST POP PUSH2 0xEEA DUP3 DUP3 PUSH1 0x40 MLOAD PUSH1 0x20 ADD PUSH2 0xED6 SWAP2 SWAP1 PUSH2 0x14CD JUMP JUMPDEST PUSH1 0x40 MLOAD PUSH1 0x20 DUP2 DUP4 SUB SUB DUP2 MSTORE SWAP1 PUSH1 0x40 MSTORE PUSH2 0x11A7 JUMP JUMPDEST POP POP JUMP JUMPDEST PUSH0 ADDRESS DUP5 PUSH1 0x40 MLOAD PUSH1 0x20 ADD PUSH2 0xF02 SWAP3 SWAP2 SWAP1 PUSH2 0x1BBE JUMP JUMPDEST PUSH1 0x40 MLOAD PUSH1 0x20 DUP2 DUP4 SUB SUB DUP2 MSTORE SWAP1 PUSH1 0x40 MSTORE DUP1 MLOAD SWAP1 PUSH1 0x20 ADD KECCAK256 SWAP1 POP DUP5 PUSH1 0x5 PUSH0 DUP4 DUP2 MSTORE PUSH1 0x20 ADD SWAP1 DUP2 MSTORE PUSH1 0x20 ADD PUSH0 KECCAK256 PUSH0 PUSH2 0x100 EXP DUP2 SLOAD DUP2 PUSH20 0xFFFFFFFFFFFFFFFFFFFFFFFFFFFFFFFFFFFFFFFF MUL NOT AND SWAP1 DUP4 PUSH20 0xFFFFFFFFFFFFFFFFFFFFFFFFFFFFFFFFFFFFFFFF AND MUL OR SWAP1 SSTORE POP DUP1 PUSH32 0xB5E6E01E79F91267DC17B4E6314D5D4D03593D2CEEE0FBB452B750BD70EA5AF9 PUSH1 0x40 MLOAD PUSH1 0x40 MLOAD DUP1 SWAP2 SUB SWAP1 LOG2 PUSH1 0x2 PUSH0 SWAP1 SLOAD SWAP1 PUSH2 0x100 EXP SWAP1 DIV PUSH20 0xFFFFFFFFFFFFFFFFFFFFFFFFFFFFFFFFFFFFFFFF AND PUSH20 0xFFFFFFFFFFFFFFFFFFFFFFFFFFFFFFFFFFFFFFFF AND PUSH4 0x4000AEA0 DUP7 DUP6 DUP6 PUSH1 0x40 MLOAD DUP5 PUSH4 0xFFFFFFFF AND PUSH1 0xE0 SHL DUP2 MSTORE PUSH1 0x4 ADD PUSH2 0xFF4 SWAP4 SWAP3 SWAP2 SWAP1 PUSH2 0x1BE9 JUMP JUMPDEST PUSH1 0x20 PUSH1 0x40 MLOAD DUP1 DUP4 SUB DUP2 PUSH0 DUP8 GAS CALL ISZERO DUP1 ISZERO PUSH2 0x1010 JUMPI RETURNDATASIZE PUSH0 PUSH0 RETURNDATACOPY RETURNDATASIZE PUSH0 REVERT JUMPDEST POP POP POP POP PUSH1 0x40 MLOAD RETURNDATASIZE PUSH1 0x1F NOT PUSH1 0x1F DUP3 ADD AND DUP3 ADD DUP1 PUSH1 0x40 MSTORE POP DUP2 ADD SWAP1 PUSH2 0x1034 SWAP2 SWAP1 PUSH2 0x1744 JUMP JUMPDEST PUSH2 0x1073 JUMPI PUSH1 0x40 MLOAD PUSH32 0x8C379A000000000000000000000000000000000000000000000000000000000 DUP2 MSTORE PUSH1 0x4 ADD PUSH2 0x106A SWAP1 PUSH2 0x1C95 JUMP JUMPDEST PUSH1 0x40 MLOAD DUP1 SWAP2 SUB SWAP1 REVERT JUMPDEST SWAP5 SWAP4 POP POP POP POP JUMP JUMPDEST PUSH2 0x1083 PUSH2 0x1352 JUMP JUMPDEST PUSH2 0x1092 DUP4 DUP5 PUSH0 ADD MLOAD MLOAD DUP5 PUSH2 0x11CC JUMP JUMPDEST SWAP1 POP SWAP3 SWAP2 POP POP JUMP JUMPDEST PUSH2 0x10A2 PUSH2 0x1352 JUMP JUMPDEST PUSH2 0x10B2 DUP5 DUP6 PUSH0 ADD MLOAD MLOAD DUP6 DUP6 PUSH2 0x1222 JUMP JUMPDEST SWAP1 POP SWAP4 SWAP3 POP POP POP JUMP JUMPDEST PUSH2 0x10C3 PUSH2 0x1352 JUMP JUMPDEST DUP3 MLOAD DUP3 GT ISZERO PUSH2 0x10D0 JUMPI PUSH0 PUSH0 REVERT JUMPDEST DUP5 PUSH1 0x20 ADD MLOAD DUP3 DUP6 PUSH2 0x10E1 SWAP2 SWAP1 PUSH2 0x191D JUMP JUMPDEST GT ISZERO PUSH2 0x1116 JUMPI PUSH2 0x1115 DUP6 PUSH1 0x2 PUSH2 0x1106 DUP9 PUSH1 0x20 ADD MLOAD DUP9 DUP8 PUSH2 0x1101 SWAP2 SWAP1 PUSH2 0x191D JUMP JUMPDEST PUSH2 0x12AF JUMP JUMPDEST PUSH2 0x1110 SWAP2 SWAP1 PUSH2 0x1CB3 JUMP JUMPDEST PUSH2 0x12CA JUMP JUMPDEST JUMPDEST PUSH0 PUSH0 DUP7 MLOAD DUP1 MLOAD DUP8 PUSH1 0x20 DUP4 ADD ADD SWAP4 POP DUP1 DUP9 DUP8 ADD GT ISZERO PUSH2 0x1134 JUMPI DUP8 DUP7 ADD DUP3 MSTORE JUMPDEST PUSH1 0x20 DUP8 ADD SWAP3 POP POP POP JUMPDEST PUSH1 0x20 DUP5 LT PUSH2 0x117B JUMPI DUP1 MLOAD DUP3 MSTORE PUSH1 0x20 DUP3 PUSH2 0x1156 SWAP2 SWAP1 PUSH2 0x191D JUMP JUMPDEST SWAP2 POP PUSH1 0x20 DUP2 PUSH2 0x1165 SWAP2 SWAP1 PUSH2 0x191D JUMP JUMPDEST SWAP1 POP PUSH1 0x20 DUP5 PUSH2 0x1174 SWAP2 SWAP1 PUSH2 0x1ADA JUMP JUMPDEST SWAP4 POP PUSH2 0x113D JUMP JUMPDEST PUSH0 PUSH1 0x1 DUP6 PUSH1 0x20 SUB PUSH2 0x100 EXP SUB SWAP1 POP DUP1 NOT DUP3 MLOAD AND DUP2 DUP5 MLOAD AND DUP2 DUP2 OR DUP6 MSTORE POP POP POP DUP7 SWAP3 POP POP POP SWAP5 SWAP4 POP POP POP POP JUMP JUMPDEST PUSH2 0x11B4 DUP3 PUSH1 0x2 DUP4 MLOAD PUSH2 0xC85 JUMP JUMPDEST PUSH2 0x11C7 DUP2 DUP4 PUSH2 0xE0A SWAP1 SWAP2 SWAP1 PUSH4 0xFFFFFFFF AND JUMP JUMPDEST POP POP POP JUMP JUMPDEST PUSH2 0x11D4 PUSH2 0x1352 JUMP JUMPDEST DUP4 PUSH1 0x20 ADD MLOAD DUP4 LT PUSH2 0x11FA JUMPI PUSH2 0x11F9 DUP5 PUSH1 0x2 DUP7 PUSH1 0x20 ADD MLOAD PUSH2 0x11F4 SWAP2 SWAP1 PUSH2 0x1CB3 JUMP JUMPDEST PUSH2 0x12CA JUMP JUMPDEST JUMPDEST DUP4 MLOAD DUP1 MLOAD PUSH1 0x20 DUP6 DUP4 ADD ADD DUP5 DUP2 MSTORE8 DUP2 DUP7 SUB PUSH2 0x1215 JUMPI PUSH1 0x1 DUP3 ADD DUP4 MSTORE JUMPDEST POP POP POP DUP4 SWAP1 POP SWAP4 SWAP3 POP POP POP JUMP JUMPDEST PUSH2 0x122A PUSH2 0x1352 JUMP JUMPDEST DUP5 PUSH1 0x20 ADD MLOAD DUP5 DUP4 PUSH2 0x123B SWAP2 SWAP1 PUSH2 0x191D JUMP JUMPDEST GT ISZERO PUSH2 0x1263 JUMPI PUSH2 0x1262 DUP6 PUSH1 0x2 DUP7 DUP6 PUSH2 0x1253 SWAP2 SWAP1 PUSH2 0x191D JUMP JUMPDEST PUSH2 0x125D SWAP2 SWAP1 PUSH2 0x1CB3 JUMP JUMPDEST PUSH2 0x12CA JUMP JUMPDEST JUMPDEST PUSH0 PUSH1 0x1 DUP4 PUSH2 0x100 PUSH2 0x1274 SWAP2 SWAP1 PUSH2 0x1E23 JUMP JUMPDEST PUSH2 0x127E SWAP2 SWAP1 PUSH2 0x1ADA JUMP JUMPDEST SWAP1 POP DUP6 MLOAD DUP4 DUP7 DUP3 ADD ADD DUP6 DUP4 NOT DUP3 MLOAD AND OR DUP2 MSTORE DUP2 MLOAD DUP6 DUP9 ADD GT ISZERO PUSH2 0x12A1 JUMPI DUP5 DUP8 ADD DUP3 MSTORE JUMPDEST POP POP DUP6 SWAP2 POP POP SWAP5 SWAP4 POP POP POP POP JUMP JUMPDEST PUSH0 DUP2 DUP4 GT ISZERO PUSH2 0x12C0 JUMPI DUP3 SWAP1 POP PUSH2 0x12C4 JUMP JUMPDEST DUP2 SWAP1 POP JUMPDEST SWAP3 SWAP2 POP POP JUMP JUMPDEST PUSH0 DUP3 PUSH0 ADD MLOAD SWAP1 POP PUSH2 0x12DB DUP4 DUP4 PUSH2 0xC1D JUMP JUMPDEST POP PUSH2 0x12E6 DUP4 DUP3 PUSH2 0xE0A JUMP JUMPDEST POP POP POP POP JUMP JUMPDEST PUSH1 0x40 MLOAD DUP1 PUSH1 0xA0 ADD PUSH1 0x40 MSTORE DUP1 PUSH0 DUP2 MSTORE PUSH1 0x20 ADD PUSH0 PUSH20 0xFFFFFFFFFFFFFFFFFFFFFFFFFFFFFFFFFFFFFFFF AND DUP2 MSTORE PUSH1 0x20 ADD PUSH0 PUSH28 0xFFFFFFFFFFFFFFFFFFFFFFFFFFFFFFFFFFFFFFFFFFFFFFFFFFFFFFFF NOT AND DUP2 MSTORE PUSH1 0x20 ADD PUSH0 DUP2 MSTORE PUSH1 0x20 ADD PUSH2 0x134C PUSH2 0x1352 JUMP JUMPDEST DUP2 MSTORE POP SWAP1 JUMP JUMPDEST PUSH1 0x40 MLOAD DUP1 PUSH1 0x40 ADD PUSH1 0x40 MSTORE DUP1 PUSH1 0x60 DUP2 MSTORE PUSH1 0x20 ADD PUSH0 DUP2 MSTORE POP SWAP1 JUMP JUMPDEST PUSH0 PUSH0 REVERT JUMPDEST PUSH0 DUP2 SWAP1 POP SWAP2 SWAP1 POP JUMP JUMPDEST PUSH2 0x1381 DUP2 PUSH2 0x136F JUMP JUMPDEST DUP2 EQ PUSH2 0x138B JUMPI PUSH0 PUSH0 REVERT JUMPDEST POP JUMP JUMPDEST PUSH0 DUP2 CALLDATALOAD SWAP1 POP PUSH2 0x139C DUP2 PUSH2 0x1378 JUMP JUMPDEST SWAP3 SWAP2 POP POP JUMP JUMPDEST PUSH0 PUSH1 0x20 DUP3 DUP5 SUB SLT ISZERO PUSH2 0x13B7 JUMPI PUSH2 0x13B6 PUSH2 0x136B JUMP JUMPDEST JUMPDEST PUSH0 PUSH2 0x13C4 DUP5 DUP3 DUP6 ADD PUSH2 0x138E JUMP JUMPDEST SWAP2 POP POP SWAP3 SWAP2 POP POP JUMP JUMPDEST PUSH0 DUP2 SWAP1 POP SWAP2 SWAP1 POP JUMP JUMPDEST PUSH2 0x13DF DUP2 PUSH2 0x13CD JUMP JUMPDEST DUP3 MSTORE POP POP JUMP JUMPDEST PUSH0 PUSH1 0x20 DUP3 ADD SWAP1 POP PUSH2 0x13F8 PUSH0 DUP4 ADD DUP5 PUSH2 0x13D6 JUMP JUMPDEST SWAP3 SWAP2 POP POP JUMP JUMPDEST PUSH2 0x1407 DUP2 PUSH2 0x13CD JUMP JUMPDEST DUP2 EQ PUSH2 0x1411 JUMPI PUSH0 PUSH0 REVERT JUMPDEST POP JUMP JUMPDEST PUSH0 DUP2 CALLDATALOAD SWAP1 POP PUSH2 0x1422 DUP2 PUSH2 0x13FE JUMP JUMPDEST SWAP3 SWAP2 POP POP JUMP JUMPDEST PUSH0 PUSH0 PUSH1 0x40 DUP4 DUP6 SUB SLT ISZERO PUSH2 0x143E JUMPI PUSH2 0x143D PUSH2 0x136B JUMP JUMPDEST JUMPDEST PUSH0 PUSH2 0x144B DUP6 DUP3 DUP7 ADD PUSH2 0x1414 JUMP JUMPDEST SWAP3 POP POP PUSH1 0x20 PUSH2 0x145C DUP6 DUP3 DUP7 ADD PUSH2 0x138E JUMP JUMPDEST SWAP2 POP POP SWAP3 POP SWAP3 SWAP1 POP JUMP JUMPDEST PUSH0 PUSH20 0xFFFFFFFFFFFFFFFFFFFFFFFFFFFFFFFFFFFFFFFF DUP3 AND SWAP1 POP SWAP2 SWAP1 POP JUMP JUMPDEST PUSH0 PUSH2 0x148F DUP3 PUSH2 0x1466 JUMP JUMPDEST SWAP1 POP SWAP2 SWAP1 POP JUMP JUMPDEST PUSH2 0x149F DUP2 PUSH2 0x1485 JUMP JUMPDEST DUP3 MSTORE POP POP JUMP JUMPDEST PUSH0 PUSH1 0x20 DUP3 ADD SWAP1 POP PUSH2 0x14B8 PUSH0 DUP4 ADD DUP5 PUSH2 0x1496 JUMP JUMPDEST SWAP3 SWAP2 POP POP JUMP JUMPDEST PUSH2 0x14C7 DUP2 PUSH2 0x136F JUMP JUMPDEST DUP3 MSTORE POP POP JUMP JUMPDEST PUSH0 PUSH1 0x20 DUP3 ADD SWAP1 POP PUSH2 0x14E0 PUSH0 DUP4 ADD DUP5 PUSH2 0x14BE JUMP JUMPDEST SWAP3 SWAP2 POP POP JUMP JUMPDEST PUSH2 0x14EF DUP2 PUSH2 0x1485 JUMP JUMPDEST DUP2 EQ PUSH2 0x14F9 JUMPI PUSH0 PUSH0 REVERT JUMPDEST POP JUMP JUMPDEST PUSH0 DUP2 CALLDATALOAD SWAP1 POP PUSH2 0x150A DUP2 PUSH2 0x14E6 JUMP JUMPDEST SWAP3 SWAP2 POP POP JUMP JUMPDEST PUSH0 PUSH1 0x20 DUP3 DUP5 SUB SLT ISZERO PUSH2 0x1525 JUMPI PUSH2 0x1524 PUSH2 0x136B JUMP JUMPDEST JUMPDEST PUSH0 PUSH2 0x1532 DUP5 DUP3 DUP6 ADD PUSH2 0x14FC JUMP JUMPDEST SWAP2 POP POP SWAP3 SWAP2 POP POP JUMP JUMPDEST PUSH0 DUP3 DUP3 MSTORE PUSH1 0x20 DUP3 ADD SWAP1 POP SWAP3 SWAP2 POP POP JUMP JUMPDEST PUSH32 0x4D61646520746865206765742072657175657374000000000000000000000000 PUSH0 DUP3 ADD MSTORE POP JUMP JUMPDEST PUSH0 PUSH2 0x157F PUSH1 0x14 DUP4 PUSH2 0x153B JUMP JUMPDEST SWAP2 POP PUSH2 0x158A DUP3 PUSH2 0x154B JUMP JUMPDEST PUSH1 0x20 DUP3 ADD SWAP1 POP SWAP2 SWAP1 POP JUMP JUMPDEST PUSH0 PUSH1 0x20 DUP3 ADD SWAP1 POP DUP2 DUP2 SUB PUSH0 DUP4 ADD MSTORE PUSH2 0x15AC DUP2 PUSH2 0x1573 JUMP JUMPDEST SWAP1 POP SWAP2 SWAP1 POP JUMP JUMPDEST PUSH32 0x536F75726365206D75737420626520746865206F7261636C65206F6620746865 PUSH0 DUP3 ADD MSTORE PUSH32 0x2072657175657374000000000000000000000000000000000000000000000000 PUSH1 0x20 DUP3 ADD MSTORE POP JUMP JUMPDEST PUSH0 PUSH2 0x160D PUSH1 0x28 DUP4 PUSH2 0x153B JUMP JUMPDEST SWAP2 POP PUSH2 0x1618 DUP3 PUSH2 0x15B3 JUMP JUMPDEST PUSH1 0x40 DUP3 ADD SWAP1 POP SWAP2 SWAP1 POP JUMP JUMPDEST PUSH0 PUSH1 0x20 DUP3 ADD SWAP1 POP DUP2 DUP2 SUB PUSH0 DUP4 ADD MSTORE PUSH2 0x163A DUP2 PUSH2 0x1601 JUMP JUMPDEST SWAP1 POP SWAP2 SWAP1 POP JUMP JUMPDEST PUSH32 0x4D7573742062652070726F706F736564206F776E657200000000000000000000 PUSH0 DUP3 ADD MSTORE POP JUMP JUMPDEST PUSH0 PUSH2 0x1675 PUSH1 0x16 DUP4 PUSH2 0x153B JUMP JUMPDEST SWAP2 POP PUSH2 0x1680 DUP3 PUSH2 0x1641 JUMP JUMPDEST PUSH1 0x20 DUP3 ADD SWAP1 POP SWAP2 SWAP1 POP JUMP JUMPDEST PUSH0 PUSH1 0x20 DUP3 ADD SWAP1 POP DUP2 DUP2 SUB PUSH0 DUP4 ADD MSTORE PUSH2 0x16A2 DUP2 PUSH2 0x1669 JUMP JUMPDEST SWAP1 POP SWAP2 SWAP1 POP JUMP JUMPDEST PUSH0 DUP2 MLOAD SWAP1 POP PUSH2 0x16B7 DUP2 PUSH2 0x1378 JUMP JUMPDEST SWAP3 SWAP2 POP POP JUMP JUMPDEST PUSH0 PUSH1 0x20 DUP3 DUP5 SUB SLT ISZERO PUSH2 0x16D2 JUMPI PUSH2 0x16D1 PUSH2 0x136B JUMP JUMPDEST JUMPDEST PUSH0 PUSH2 0x16DF DUP5 DUP3 DUP6 ADD PUSH2 0x16A9 JUMP JUMPDEST SWAP2 POP POP SWAP3 SWAP2 POP POP JUMP JUMPDEST PUSH0 PUSH1 0x40 DUP3 ADD SWAP1 POP PUSH2 0x16FB PUSH0 DUP4 ADD DUP6 PUSH2 0x1496 JUMP JUMPDEST PUSH2 0x1708 PUSH1 0x20 DUP4 ADD DUP5 PUSH2 0x14BE JUMP JUMPDEST SWAP4 SWAP3 POP POP POP JUMP JUMPDEST PUSH0 DUP2 ISZERO ISZERO SWAP1 POP SWAP2 SWAP1 POP JUMP JUMPDEST PUSH2 0x1723 DUP2 PUSH2 0x170F JUMP JUMPDEST DUP2 EQ PUSH2 0x172D JUMPI PUSH0 PUSH0 REVERT JUMPDEST POP JUMP JUMPDEST PUSH0 DUP2 MLOAD SWAP1 POP PUSH2 0x173E DUP2 PUSH2 0x171A JUMP JUMPDEST SWAP3 SWAP2 POP POP JUMP JUMPDEST PUSH0 PUSH1 0x20 DUP3 DUP5 SUB SLT ISZERO PUSH2 0x1759 JUMPI PUSH2 0x1758 PUSH2 0x136B JUMP JUMPDEST JUMPDEST PUSH0 PUSH2 0x1766 DUP5 DUP3 DUP6 ADD PUSH2 0x1730 JUMP JUMPDEST SWAP2 POP POP SWAP3 SWAP2 POP POP JUMP JUMPDEST PUSH32 0x556E61626C6520746F207472616E736665720000000000000000000000000000 PUSH0 DUP3 ADD MSTORE POP JUMP JUMPDEST PUSH0 PUSH2 0x17A3 PUSH1 0x12 DUP4 PUSH2 0x153B JUMP JUMPDEST SWAP2 POP PUSH2 0x17AE DUP3 PUSH2 0x176F JUMP JUMPDEST PUSH1 0x20 DUP3 ADD SWAP1 POP SWAP2 SWAP1 POP JUMP JUMPDEST PUSH0 PUSH1 0x20 DUP3 ADD SWAP1 POP DUP2 DUP2 SUB PUSH0 DUP4 ADD MSTORE PUSH2 0x17D0 DUP2 PUSH2 0x1797 JUMP JUMPDEST SWAP1 POP SWAP2 SWAP1 POP JUMP JUMPDEST PUSH32 0x4F6E6C792063616C6C61626C65206279206F776E657200000000000000000000 PUSH0 DUP3 ADD MSTORE POP JUMP JUMPDEST PUSH0 PUSH2 0x180B PUSH1 0x16 DUP4 PUSH2 0x153B JUMP JUMPDEST SWAP2 POP PUSH2 0x1816 DUP3 PUSH2 0x17D7 JUMP JUMPDEST PUSH1 0x20 DUP3 ADD SWAP1 POP SWAP2 SWAP1 POP JUMP JUMPDEST PUSH0 PUSH1 0x20 DUP3 ADD SWAP1 POP DUP2 DUP2 SUB PUSH0 DUP4 ADD MSTORE PUSH2 0x1838 DUP2 PUSH2 0x17FF JUMP JUMPDEST SWAP1 POP SWAP2 SWAP1 POP JUMP JUMPDEST PUSH32 0x43616E6E6F74207472616E7366657220746F2073656C66000000000000000000 PUSH0 DUP3 ADD MSTORE POP JUMP JUMPDEST PUSH0 PUSH2 0x1873 PUSH1 0x17 DUP4 PUSH2 0x153B JUMP JUMPDEST SWAP2 POP PUSH2 0x187E DUP3 PUSH2 0x183F JUMP JUMPDEST PUSH1 0x20 DUP3 ADD SWAP1 POP SWAP2 SWAP1 POP JUMP JUMPDEST PUSH0 PUSH1 0x20 DUP3 ADD SWAP1 POP DUP2 DUP2 SUB PUSH0 DUP4 ADD MSTORE PUSH2 0x18A0 DUP2 PUSH2 0x1867 JUMP JUMPDEST SWAP1 POP SWAP2 SWAP1 POP JUMP JUMPDEST PUSH0 DUP2 SWAP1 POP SWAP2 SWAP1 POP JUMP JUMPDEST PUSH32 0x4E487B7100000000000000000000000000000000000000000000000000000000 PUSH0 MSTORE PUSH1 0x11 PUSH1 0x4 MSTORE PUSH1 0x24 PUSH0 REVERT JUMPDEST PUSH0 PUSH2 0x18E7 DUP3 PUSH2 0x18A7 JUMP JUMPDEST SWAP2 POP PUSH2 0x18F2 DUP4 PUSH2 0x18A7 JUMP JUMPDEST SWAP3 POP DUP3 DUP3 SUB SWAP1 POP DUP2 DUP2 SLT PUSH0 DUP5 SLT AND DUP3 DUP3 SGT PUSH0 DUP6 SLT ISZERO AND OR ISZERO PUSH2 0x1917 JUMPI PUSH2 0x1916 PUSH2 0x18B0 JUMP JUMPDEST JUMPDEST SWAP3 SWAP2 POP POP JUMP JUMPDEST PUSH0 PUSH2 0x1927 DUP3 PUSH2 0x136F JUMP JUMPDEST SWAP2 POP PUSH2 0x1932 DUP4 PUSH2 0x136F JUMP JUMPDEST SWAP3 POP DUP3 DUP3 ADD SWAP1 POP DUP1 DUP3 GT ISZERO PUSH2 0x194A JUMPI PUSH2 0x1949 PUSH2 0x18B0 JUMP JUMPDEST JUMPDEST SWAP3 SWAP2 POP POP JUMP JUMPDEST PUSH0 PUSH32 0xFFFFFFFF00000000000000000000000000000000000000000000000000000000 DUP3 AND SWAP1 POP SWAP2 SWAP1 POP JUMP JUMPDEST PUSH2 0x1984 DUP2 PUSH2 0x1950 JUMP JUMPDEST DUP3 MSTORE POP POP JUMP JUMPDEST PUSH0 DUP2 MLOAD SWAP1 POP SWAP2 SWAP1 POP JUMP JUMPDEST PUSH0 DUP3 DUP3 MSTORE PUSH1 0x20 DUP3 ADD SWAP1 POP SWAP3 SWAP2 POP POP JUMP JUMPDEST DUP3 DUP2 DUP4 MCOPY PUSH0 DUP4 DUP4 ADD MSTORE POP POP POP JUMP JUMPDEST PUSH0 PUSH1 0x1F NOT PUSH1 0x1F DUP4 ADD AND SWAP1 POP SWAP2 SWAP1 POP JUMP JUMPDEST PUSH0 PUSH2 0x19CC DUP3 PUSH2 0x198A JUMP JUMPDEST PUSH2 0x19D6 DUP2 DUP6 PUSH2 0x1994 JUMP JUMPDEST SWAP4 POP PUSH2 0x19E6 DUP2 DUP6 PUSH1 0x20 DUP7 ADD PUSH2 0x19A4 JUMP JUMPDEST PUSH2 0x19EF DUP2 PUSH2 0x19B2 JUMP JUMPDEST DUP5 ADD SWAP2 POP POP SWAP3 SWAP2 POP POP JUMP JUMPDEST PUSH0 PUSH2 0x100 DUP3 ADD SWAP1 POP PUSH2 0x1A0E PUSH0 DUP4 ADD DUP12 PUSH2 0x1496 JUMP JUMPDEST PUSH2 0x1A1B PUSH1 0x20 DUP4 ADD DUP11 PUSH2 0x14BE JUMP JUMPDEST PUSH2 0x1A28 PUSH1 0x40 DUP4 ADD DUP10 PUSH2 0x13D6 JUMP JUMPDEST PUSH2 0x1A35 PUSH1 0x60 DUP4 ADD DUP9 PUSH2 0x1496 JUMP JUMPDEST PUSH2 0x1A42 PUSH1 0x80 DUP4 ADD DUP8 PUSH2 0x197B JUMP JUMPDEST PUSH2 0x1A4F PUSH1 0xA0 DUP4 ADD DUP7 PUSH2 0x14BE JUMP JUMPDEST PUSH2 0x1A5C PUSH1 0xC0 DUP4 ADD DUP6 PUSH2 0x14BE JUMP JUMPDEST DUP2 DUP2 SUB PUSH1 0xE0 DUP4 ADD MSTORE PUSH2 0x1A6E DUP2 DUP5 PUSH2 0x19C2 JUMP JUMPDEST SWAP1 POP SWAP10 SWAP9 POP POP POP POP POP POP POP POP POP JUMP JUMPDEST PUSH32 0x4E487B7100000000000000000000000000000000000000000000000000000000 PUSH0 MSTORE PUSH1 0x12 PUSH1 0x4 MSTORE PUSH1 0x24 PUSH0 REVERT JUMPDEST PUSH0 PUSH2 0x1AB4 DUP3 PUSH2 0x136F JUMP JUMPDEST SWAP2 POP PUSH2 0x1ABF DUP4 PUSH2 0x136F JUMP JUMPDEST SWAP3 POP DUP3 PUSH2 0x1ACF JUMPI PUSH2 0x1ACE PUSH2 0x1A7D JUMP JUMPDEST JUMPDEST DUP3 DUP3 MOD SWAP1 POP SWAP3 SWAP2 POP POP JUMP JUMPDEST PUSH0 PUSH2 0x1AE4 DUP3 PUSH2 0x136F JUMP JUMPDEST SWAP2 POP PUSH2 0x1AEF DUP4 PUSH2 0x136F JUMP JUMPDEST SWAP3 POP DUP3 DUP3 SUB SWAP1 POP DUP2 DUP2 GT ISZERO PUSH2 0x1B07 JUMPI PUSH2 0x1B06 PUSH2 0x18B0 JUMP JUMPDEST JUMPDEST SWAP3 SWAP2 POP POP JUMP JUMPDEST PUSH0 DUP2 SWAP1 POP SWAP2 SWAP1 POP JUMP JUMPDEST PUSH0 PUSH2 0x1B30 PUSH2 0x1B2B PUSH2 0x1B26 DUP5 PUSH2 0x1466 JUMP JUMPDEST PUSH2 0x1B0D JUMP JUMPDEST PUSH2 0x1466 JUMP JUMPDEST SWAP1 POP SWAP2 SWAP1 POP JUMP JUMPDEST PUSH0 PUSH2 0x1B41 DUP3 PUSH2 0x1B16 JUMP JUMPDEST SWAP1 POP SWAP2 SWAP1 POP JUMP JUMPDEST PUSH0 PUSH2 0x1B52 DUP3 PUSH2 0x1B37 JUMP JUMPDEST SWAP1 POP SWAP2 SWAP1 POP JUMP JUMPDEST PUSH0 DUP2 PUSH1 0x60 SHL SWAP1 POP SWAP2 SWAP1 POP JUMP JUMPDEST PUSH0 PUSH2 0x1B6F DUP3 PUSH2 0x1B59 JUMP JUMPDEST SWAP1 POP SWAP2 SWAP1 POP JUMP JUMPDEST PUSH0 PUSH2 0x1B80 DUP3 PUSH2 0x1B65 JUMP JUMPDEST SWAP1 POP SWAP2 SWAP1 POP JUMP JUMPDEST PUSH2 0x1B98 PUSH2 0x1B93 DUP3 PUSH2 0x1B48 JUMP JUMPDEST PUSH2 0x1B76 JUMP JUMPDEST DUP3 MSTORE POP POP JUMP JUMPDEST PUSH0 DUP2 SWAP1 POP SWAP2 SWAP1 POP JUMP JUMPDEST PUSH2 0x1BB8 PUSH2 0x1BB3 DUP3 PUSH2 0x136F JUMP JUMPDEST PUSH2 0x1B9E JUMP JUMPDEST DUP3 MSTORE POP POP JUMP JUMPDEST PUSH0 PUSH2 0x1BC9 DUP3 DUP6 PUSH2 0x1B87 JUMP JUMPDEST PUSH1 0x14 DUP3 ADD SWAP2 POP PUSH2 0x1BD9 DUP3 DUP5 PUSH2 0x1BA7 JUMP JUMPDEST PUSH1 0x20 DUP3 ADD SWAP2 POP DUP2 SWAP1 POP SWAP4 SWAP3 POP POP POP JUMP JUMPDEST PUSH0 PUSH1 0x60 DUP3 ADD SWAP1 POP PUSH2 0x1BFC PUSH0 DUP4 ADD DUP7 PUSH2 0x1496 JUMP JUMPDEST PUSH2 0x1C09 PUSH1 0x20 DUP4 ADD DUP6 PUSH2 0x14BE JUMP JUMPDEST DUP2 DUP2 SUB PUSH1 0x40 DUP4 ADD MSTORE PUSH2 0x1C1B DUP2 DUP5 PUSH2 0x19C2 JUMP JUMPDEST SWAP1 POP SWAP5 SWAP4 POP POP POP POP JUMP JUMPDEST PUSH32 0x756E61626C6520746F207472616E73666572416E6443616C6C20746F206F7261 PUSH0 DUP3 ADD MSTORE PUSH32 0x636C650000000000000000000000000000000000000000000000000000000000 PUSH1 0x20 DUP3 ADD MSTORE POP JUMP JUMPDEST PUSH0 PUSH2 0x1C7F PUSH1 0x23 DUP4 PUSH2 0x153B JUMP JUMPDEST SWAP2 POP PUSH2 0x1C8A DUP3 PUSH2 0x1C25 JUMP JUMPDEST PUSH1 0x40 DUP3 ADD SWAP1 POP SWAP2 SWAP1 POP JUMP JUMPDEST PUSH0 PUSH1 0x20 DUP3 ADD SWAP1 POP DUP2 DUP2 SUB PUSH0 DUP4 ADD MSTORE PUSH2 0x1CAC DUP2 PUSH2 0x1C73 JUMP JUMPDEST SWAP1 POP SWAP2 SWAP1 POP JUMP JUMPDEST PUSH0 PUSH2 0x1CBD DUP3 PUSH2 0x136F JUMP JUMPDEST SWAP2 POP PUSH2 0x1CC8 DUP4 PUSH2 0x136F JUMP JUMPDEST SWAP3 POP DUP3 DUP3 MUL PUSH2 0x1CD6 DUP2 PUSH2 0x136F JUMP JUMPDEST SWAP2 POP DUP3 DUP3 DIV DUP5 EQ DUP4 ISZERO OR PUSH2 0x1CED JUMPI PUSH2 0x1CEC PUSH2 0x18B0 JUMP JUMPDEST JUMPDEST POP SWAP3 SWAP2 POP POP JUMP JUMPDEST PUSH0 DUP2 PUSH1 0x1 SHR SWAP1 POP SWAP2 SWAP1 POP JUMP JUMPDEST PUSH0 PUSH0 DUP3 SWAP2 POP DUP4 SWAP1 POP JUMPDEST PUSH1 0x1 DUP6 GT ISZERO PUSH2 0x1D49 JUMPI DUP1 DUP7 DIV DUP2 GT ISZERO PUSH2 0x1D25 JUMPI PUSH2 0x1D24 PUSH2 0x18B0 JUMP JUMPDEST JUMPDEST PUSH1 0x1 DUP6 AND ISZERO PUSH2 0x1D34 JUMPI DUP1 DUP3 MUL SWAP2 POP JUMPDEST DUP1 DUP2 MUL SWAP1 POP PUSH2 0x1D42 DUP6 PUSH2 0x1CF4 JUMP JUMPDEST SWAP5 POP PUSH2 0x1D09 JUMP JUMPDEST SWAP5 POP SWAP5 SWAP3 POP POP POP JUMP JUMPDEST PUSH0 DUP3 PUSH2 0x1D61 JUMPI PUSH1 0x1 SWAP1 POP PUSH2 0x1E1C JUMP JUMPDEST DUP2 PUSH2 0x1D6E JUMPI PUSH0 SWAP1 POP PUSH2 0x1E1C JUMP JUMPDEST DUP2 PUSH1 0x1 DUP2 EQ PUSH2 0x1D84 JUMPI PUSH1 0x2 DUP2 EQ PUSH2 0x1D8E JUMPI PUSH2 0x1DBD JUMP JUMPDEST PUSH1 0x1 SWAP2 POP POP PUSH2 0x1E1C JUMP JUMPDEST PUSH1 0xFF DUP5 GT ISZERO PUSH2 0x1DA0 JUMPI PUSH2 0x1D9F PUSH2 0x18B0 JUMP JUMPDEST JUMPDEST DUP4 PUSH1 0x2 EXP SWAP2 POP DUP5 DUP3 GT ISZERO PUSH2 0x1DB7 JUMPI PUSH2 0x1DB6 PUSH2 0x18B0 JUMP JUMPDEST JUMPDEST POP PUSH2 0x1E1C JUMP JUMPDEST POP PUSH1 0x20 DUP4 LT PUSH2 0x133 DUP4 LT AND PUSH1 0x4E DUP5 LT PUSH1 0xB DUP5 LT AND OR ISZERO PUSH2 0x1DF2 JUMPI DUP3 DUP3 EXP SWAP1 POP DUP4 DUP2 GT ISZERO PUSH2 0x1DED JUMPI PUSH2 0x1DEC PUSH2 0x18B0 JUMP JUMPDEST JUMPDEST PUSH2 0x1E1C JUMP JUMPDEST PUSH2 0x1DFF DUP5 DUP5 DUP5 PUSH1 0x1 PUSH2 0x1D00 JUMP JUMPDEST SWAP3 POP SWAP1 POP DUP2 DUP5 DIV DUP2 GT ISZERO PUSH2 0x1E16 JUMPI PUSH2 0x1E15 PUSH2 0x18B0 JUMP JUMPDEST JUMPDEST DUP2 DUP2 MUL SWAP1 POP JUMPDEST SWAP4 SWAP3 POP POP POP JUMP JUMPDEST PUSH0 PUSH2 0x1E2D DUP3 PUSH2 0x136F JUMP JUMPDEST SWAP2 POP PUSH2 0x1E38 DUP4 PUSH2 0x136F JUMP JUMPDEST SWAP3 POP PUSH2 0x1E65 PUSH32 0xFFFFFFFFFFFFFFFFFFFFFFFFFFFFFFFFFFFFFFFFFFFFFFFFFFFFFFFFFFFFFFFF DUP5 DUP5 PUSH2 0x1D52 JUMP JUMPDEST SWAP1 POP SWAP3 SWAP2 POP POP JUMP INVALID PUSH9 0x747470733A2F2F3038 CALLDATALOAD CALLER 0x2D BALANCE CALLVALUE 0x2D ORIGIN ADDRESS ADDRESS 0x2D CALLDATACOPY CALLDATALOAD 0x2D CALLDATALOAD CALLVALUE 0x2E PUSH15 0x67726F6B2D667265652E6170702F64 PUSH2 0x7461 LOG2 PUSH5 0x6970667358 0x22 SLT KECCAK256 0xA9 SELFBALANCE NOT DUP8 0xCF PUSH6 0x2A07FC31BE6C PREVRANDAO PUSH15 0x3976683F1AFBC2E63809592F4AE70E PUSH10 0xF18C64736F6C63430008 SAR STOP CALLER "
		},
		"gasEstimates": {
			"creation": {
				"codeDepositCost": "1577600",
				"executionCost": "infinite",
				"totalCost": "infinite"
			},
			"external": {
				"acceptOwnership()": "54578",
				"fulfill(bytes32,uint256)": "infinite",
				"owner()": "2515",
				"requestData(uint256)": "infinite",
				"transferOwnership(address)": "30717",
				"volume()": "2469",
				"withdrawLink()": "infinite"
			}
		},
		"methodIdentifiers": {
			"acceptOwnership()": "79ba5097",
			"fulfill(bytes32,uint256)": "4357855e",
			"owner()": "8da5cb5b",
			"requestData(uint256)": "2adb9e3c",
			"transferOwnership(address)": "f2fde38b",
			"volume()": "c618a1e4",
			"withdrawLink()": "8dc654a2"
		}
	},
	"abi": [
		{
			"inputs": [],
			"stateMutability": "nonpayable",
			"type": "constructor"
		},
		{
			"anonymous": false,
			"inputs": [
				{
					"indexed": true,
					"internalType": "bytes32",
					"name": "id",
					"type": "bytes32"
				}
			],
			"name": "ChainlinkCancelled",
			"type": "event"
		},
		{
			"anonymous": false,
			"inputs": [
				{
					"indexed": true,
					"internalType": "bytes32",
					"name": "id",
					"type": "bytes32"
				}
			],
			"name": "ChainlinkFulfilled",
			"type": "event"
		},
		{
			"anonymous": false,
			"inputs": [
				{
					"indexed": true,
					"internalType": "bytes32",
					"name": "id",
					"type": "bytes32"
				}
			],
			"name": "ChainlinkRequested",
			"type": "event"
		},
		{
			"anonymous": false,
			"inputs": [
				{
					"indexed": false,
					"internalType": "string",
					"name": "",
					"type": "string"
				}
			],
			"name": "Data",
			"type": "event"
		},
		{
			"anonymous": false,
			"inputs": [
				{
					"indexed": true,
					"internalType": "address",
					"name": "from",
					"type": "address"
				},
				{
					"indexed": true,
					"internalType": "address",
					"name": "to",
					"type": "address"
				}
			],
			"name": "OwnershipTransferRequested",
			"type": "event"
		},
		{
			"anonymous": false,
			"inputs": [
				{
					"indexed": true,
					"internalType": "address",
					"name": "from",
					"type": "address"
				},
				{
					"indexed": true,
					"internalType": "address",
					"name": "to",
					"type": "address"
				}
			],
			"name": "OwnershipTransferred",
			"type": "event"
		},
		{
			"anonymous": false,
			"inputs": [
				{
					"indexed": true,
					"internalType": "bytes32",
					"name": "requestId",
					"type": "bytes32"
				},
				{
					"indexed": false,
					"internalType": "uint256",
					"name": "volume",
					"type": "uint256"
				}
			],
			"name": "RequestVolume",
			"type": "event"
		},
		{
			"anonymous": false,
			"inputs": [
				{
					"indexed": false,
					"internalType": "string",
					"name": "",
					"type": "string"
				},
				{
					"indexed": false,
					"internalType": "uint256",
					"name": "",
					"type": "uint256"
				}
			],
			"name": "Result",
			"type": "event"
		},
		{
			"inputs": [],
			"name": "acceptOwnership",
			"outputs": [],
			"stateMutability": "nonpayable",
			"type": "function"
		},
		{
			"inputs": [
				{
					"internalType": "bytes32",
					"name": "_requestId",
					"type": "bytes32"
				},
				{
					"internalType": "uint256",
					"name": "_volume",
					"type": "uint256"
				}
			],
			"name": "fulfill",
			"outputs": [],
			"stateMutability": "nonpayable",
			"type": "function"
		},
		{
			"inputs": [],
			"name": "owner",
			"outputs": [
				{
					"internalType": "address",
					"name": "",
					"type": "address"
				}
			],
			"stateMutability": "view",
			"type": "function"
		},
		{
			"inputs": [
				{
					"internalType": "uint256",
					"name": "projectId",
					"type": "uint256"
				}
			],
			"name": "requestData",
			"outputs": [
				{
					"internalType": "bytes32",
					"name": "requestId",
					"type": "bytes32"
				}
			],
			"stateMutability": "nonpayable",
			"type": "function"
		},
		{
			"inputs": [
				{
					"internalType": "address",
					"name": "to",
					"type": "address"
				}
			],
			"name": "transferOwnership",
			"outputs": [],
			"stateMutability": "nonpayable",
			"type": "function"
		},
		{
			"inputs": [],
			"name": "volume",
			"outputs": [
				{
					"internalType": "uint256",
					"name": "",
					"type": "uint256"
				}
			],
			"stateMutability": "view",
			"type": "function"
		},
		{
			"inputs": [],
			"name": "withdrawLink",
			"outputs": [],
			"stateMutability": "nonpayable",
			"type": "function"
		}
	]
}