{
	"data": {
		"bytecode": {
			"linkReferences": {},
			"object": "60806040526001600455348015610014575f5ffd5b5033805f8161006a5760405162461bcd60e51b815260206004820152601860248201527f43616e6e6f7420736574206f776e657220746f207a65726f000000000000000060448201526064015b60405180910390fd5b600680546001600160a01b0319166001600160a01b038481169190911790915581161561009a5761009a81610131565b5050506100c073779877a7b0d9e8603169ddbd7836e478b46247896101da60201b60201c565b600380546001600160a01b031916736090149792daaee9d1d568c9f9a6f6b46aa29efd1790557f6361393833363663633733313439353762386330313263373266303561656562600955600a61011f670de0b6b3a764000060016101fc565b6101299190610225565b600a55610244565b336001600160a01b038216036101895760405162461bcd60e51b815260206004820152601760248201527f43616e6e6f74207472616e7366657220746f2073656c660000000000000000006044820152606401610061565b600780546001600160a01b0319166001600160a01b03838116918217909255600654604051919216907fed8889f560326eb138920d842192f0eb3dd22b4f139c87a2c57538e05bae1278905f90a350565b600280546001600160a01b0319166001600160a01b0392909216919091179055565b808202811582820484141761021f57634e487b7160e01b5f52601160045260245ffd5b92915050565b5f8261023f57634e487b7160e01b5f52601260045260245ffd5b500490565b611117806102515f395ff3fe608060405234801561000f575f5ffd5b506004361061007a575f3560e01c80638da5cb5b116100585780638da5cb5b146100c15780638dc654a2146100dc578063c618a1e4146100e4578063f2fde38b146100ed575f5ffd5b80632adb9e3c1461007e5780634357855e146100a457806379ba5097146100b9575b5f5ffd5b61009161008c366004610ddc565b610100565b6040519081526020015b60405180910390f35b6100b76100b2366004610df3565b610240565b005b6100b7610340565b6006546040516001600160a01b03909116815260200161009b565b6100b76103ed565b61009160085481565b6100b76100fb366004610e13565b61052b565b5f5f61011660095430634357855e60e01b61053c565b90506101586040518060400160405280600381526020016219d95d60ea1b8152506040518060600160405280602d81526020016110b5602d9139839190610561565b6101a4604051806040016040528060048152602001630e0c2e8d60e31b815250604051806040016040528060038152602001626e756d60e81b815250836105619092919063ffffffff16565b60408051808201909152600581526474696d657360d81b60208201526001906101cf90839083610584565b604080518181526014818301527313585919481d1a194819d95d081c995c5d595cdd60621b60608201526020810186905290517f4953e1e253d3404572e66d2be3e7889846db195dfc203305a4810d16100dfd119181900360800190a161023882600a546105a2565b949350505050565b5f8281526005602052604090205482906001600160a01b031633146102bd5760405162461bcd60e51b815260206004820152602860248201527f536f75726365206d75737420626520746865206f7261636c65206f6620746865604482015267081c995c5d595cdd60c21b60648201526084015b60405180910390fd5b5f8181526005602052604080822080546001600160a01b03191690555182917f7cc135e0cebb02c3480ae5d74d377283180a2601f8f644edf7987b009316c63a91a2827f673b38182859a514d734bdfcb49d3a05c4a641dec9311d9894c9717bcb79af768360405161033191815260200190565b60405180910390a25060085550565b6007546001600160a01b031633146103935760405162461bcd60e51b815260206004820152601660248201527526bab9ba10313290383937b837b9b2b21037bbb732b960511b60448201526064016102b4565b600680546001600160a01b0319808216339081179093556007805490911690556040516001600160a01b03909116919082907f8be0079c531659141344cd1fd0a4f28419497f9722a3daafe3b4186f6b6457e0905f90a350565b6103f56105c4565b5f6104086002546001600160a01b031690565b6040516370a0823160e01b81523060048201529091506001600160a01b0382169063a9059cbb90339083906370a0823190602401602060405180830381865afa158015610457573d5f5f3e3d5ffd5b505050506040513d601f19601f8201168201806040525081019061047b9190610e40565b6040516001600160e01b031960e085901b1681526001600160a01b03909216600483015260248201526044016020604051808303815f875af11580156104c3573d5f5f3e3d5ffd5b505050506040513d601f19601f820116820180604052508101906104e79190610e57565b6105285760405162461bcd60e51b81526020600482015260126024820152712ab730b13632903a37903a3930b739b332b960711b60448201526064016102b4565b50565b6105336105c4565b61052881610619565b610544610da2565b61054c610da2565b610558818686866106c2565b95945050505050565b608083015161057090836106ff565b608083015161057f90826106ff565b505050565b608083015161059390836106ff565b608083015161057f9082610716565b6003545f906105bb906001600160a01b03168484610777565b90505b92915050565b6006546001600160a01b031633146106175760405162461bcd60e51b815260206004820152601660248201527527b7363c9031b0b63630b1363290313c9037bbb732b960511b60448201526064016102b4565b565b336001600160a01b038216036106715760405162461bcd60e51b815260206004820152601760248201527f43616e6e6f74207472616e7366657220746f2073656c6600000000000000000060448201526064016102b4565b600780546001600160a01b0319166001600160a01b03838116918217909255600654604051919216907fed8889f560326eb138920d842192f0eb3dd22b4f139c87a2c57538e05bae1278905f90a350565b6106ca610da2565b6106da8560800151610100610808565b50509183526001600160a01b031660208301526001600160e01b031916604082015290565b61070c826003835161086b565b61057f8282610980565b67ffffffffffffffff198112156107355761073182826109a5565b5050565b67ffffffffffffffff81131561074f5761073182826109e6565b5f811261076157610731825f8361086b565b610731826001610772845f19610e8a565b61086b565b6004545f90610787816001610eb0565b600455835160408086015160808701515191515f936320214ca360e11b936107be9386938493923092918a91600191602401610ef1565b60408051601f198184030181529190526020810180516001600160e01b03166001600160e01b03199093169290921790915290506107fe86838684610a09565b9695505050505050565b60408051808201909152606081525f6020820152610827602083610f57565b1561084f57610837602083610f57565b610842906020610f76565b61084c9083610eb0565b91505b506020828101829052604080518085525f815290920101905290565b60178167ffffffffffffffff1611610896576108908360e0600585901b168317610b62565b50505050565b60ff8167ffffffffffffffff16116108d4576108bd836018611fe0600586901b1617610b62565b506108908367ffffffffffffffff83166001610b85565b61ffff8167ffffffffffffffff1611610913576108fc836019611fe0600586901b1617610b62565b506108908367ffffffffffffffff83166002610b85565b63ffffffff8167ffffffffffffffff16116109545761093d83601a611fe0600586901b1617610b62565b506108908367ffffffffffffffff83166004610b85565b61096983601b611fe0600586901b1617610b62565b506108908367ffffffffffffffff83166008610b85565b60408051808201909152606081525f60208201526105bb83845f015151848551610ba9565b6109b08260c3610b62565b50610731826109c0835f19610e8a565b6040516020016109d291815260200190565b604051602081830303815290604052610c8f565b6109f18260c2610b62565b5061073182826040516020016109d291815260200190565b6040516bffffffffffffffffffffffff193060601b166020820152603481018490525f9060540160408051808303601f1901815282825280516020918201205f818152600590925291812080546001600160a01b0319166001600160a01b038a1617905590925082917fb5e6e01e79f91267dc17b4e6314d5d4d03593d2ceee0fbb452b750bd70ea5af99190a2600254604051630200057560e51b81526001600160a01b0390911690634000aea090610aca90889087908790600401610f89565b6020604051808303815f875af1158015610ae6573d5f5f3e3d5ffd5b505050506040513d601f19601f82011682018060405250810190610b0a9190610e57565b6102385760405162461bcd60e51b815260206004820152602360248201527f756e61626c6520746f207472616e73666572416e6443616c6c20746f206f7261604482015262636c6560e81b60648201526084016102b4565b60408051808201909152606081525f60208201526105bb83845f01515184610c9c565b60408051808201909152606081525f602082015261023884855f0151518585610cf6565b60408051808201909152606081525f60208201528251821115610bca575f5ffd5b6020850151610bd98386610eb0565b1115610c0c57610c0c85610bfc87602001518786610bf79190610eb0565b610d75565b610c07906002610faf565b610d8b565b5f5f865180518760208301019350808887011115610c2a5787860182525b505050602084015b60208410610c6a5780518252610c49602083610eb0565b9150610c56602082610eb0565b9050610c63602085610f76565b9350610c32565b5181515f1960208690036101000a019081169019919091161790525083949350505050565b61070c826002835161086b565b60408051808201909152606081525f602082015283602001518310610cd057610cd08485602001516002610c079190610faf565b8351805160208583010184815350808503610cec576001810182525b5093949350505050565b60408051808201909152606081525f60208201526020850151610d198584610eb0565b1115610d2d57610d2d85610bfc8685610eb0565b5f6001610d3c846101006110a9565b610d469190610f76565b9050855183868201018583198251161781525080518487011115610d6a5783860181525b509495945050505050565b5f81831115610d855750816105be565b50919050565b8151610d978383610808565b506108908382610980565b6040805160a0810182525f808252602080830182905282840182905260608084018390528451808601909552845283015290608082015290565b5f60208284031215610dec575f5ffd5b5035919050565b5f5f60408385031215610e04575f5ffd5b50508035926020909101359150565b5f60208284031215610e23575f5ffd5b81356001600160a01b0381168114610e39575f5ffd5b9392505050565b5f60208284031215610e50575f5ffd5b5051919050565b5f60208284031215610e67575f5ffd5b81518015158114610e39575f5ffd5b634e487b7160e01b5f52601160045260245ffd5b8181035f831280158383131683831282161715610ea957610ea9610e76565b5092915050565b808201808211156105be576105be610e76565b5f81518084528060208401602086015e5f602082860101526020601f19601f83011685010191505092915050565b6001600160a01b0389811682526020820189905260408201889052861660608201526001600160e01b03198516608082015260a0810184905260c0810183905261010060e082018190525f90610f4990830184610ec3565b9a9950505050505050505050565b5f82610f7157634e487b7160e01b5f52601260045260245ffd5b500690565b818103818111156105be576105be610e76565b60018060a01b0384168152826020820152606060408201525f6105586060830184610ec3565b80820281158282048414176105be576105be610e76565b6001815b600184111561100157808504811115610fe557610fe5610e76565b6001841615610ff357908102905b60019390931c928002610fca565b935093915050565b5f82611017575060016105be565b8161102357505f6105be565b816001811461103957600281146110435761105f565b60019150506105be565b60ff84111561105457611054610e76565b50506001821b6105be565b5060208310610133831016604e8410600b8410161715611082575081810a6105be565b61108e5f198484610fc6565b805f19048211156110a1576110a1610e76565b029392505050565b5f6105bb838361100956fe68747470733a2f2f303835332d31342d3230302d37352d35342e6e67726f6b2d667265652e6170702f64617461a26469706673582212209be4a3b2a62a8951e5f1a9f7b0840f668676e2650c64a75eea4fcc1079600d3f64736f6c634300081d0033",
			"opcodes": "PUSH1 0x80 PUSH1 0x40 MSTORE PUSH1 0x1 PUSH1 0x4 SSTORE CALLVALUE DUP1 ISZERO PUSH2 0x14 JUMPI PUSH0 PUSH0 REVERT JUMPDEST POP CALLER DUP1 PUSH0 DUP2 PUSH2 0x6A JUMPI PUSH1 0x40 MLOAD PUSH3 0x461BCD PUSH1 0xE5 SHL DUP2 MSTORE PUSH1 0x20 PUSH1 0x4 DUP3 ADD MSTORE PUSH1 0x18 PUSH1 0x24 DUP3 ADD MSTORE PUSH32 0x43616E6E6F7420736574206F776E657220746F207A65726F0000000000000000 PUSH1 0x44 DUP3 ADD MSTORE PUSH1 0x64 ADD JUMPDEST PUSH1 0x40 MLOAD DUP1 SWAP2 SUB SWAP1 REVERT JUMPDEST PUSH1 0x6 DUP1 SLOAD PUSH1 0x1 PUSH1 0x1 PUSH1 0xA0 SHL SUB NOT AND PUSH1 0x1 PUSH1 0x1 PUSH1 0xA0 SHL SUB DUP5 DUP2 AND SWAP2 SWAP1 SWAP2 OR SWAP1 SWAP2 SSTORE DUP2 AND ISZERO PUSH2 0x9A JUMPI PUSH2 0x9A DUP2 PUSH2 0x131 JUMP JUMPDEST POP POP POP PUSH2 0xC0 PUSH20 0x779877A7B0D9E8603169DDBD7836E478B4624789 PUSH2 0x1DA PUSH1 0x20 SHL PUSH1 0x20 SHR JUMP JUMPDEST PUSH1 0x3 DUP1 SLOAD PUSH1 0x1 PUSH1 0x1 PUSH1 0xA0 SHL SUB NOT AND PUSH20 0x6090149792DAAEE9D1D568C9F9A6F6B46AA29EFD OR SWAP1 SSTORE PUSH32 0x6361393833363663633733313439353762386330313263373266303561656562 PUSH1 0x9 SSTORE PUSH1 0xA PUSH2 0x11F PUSH8 0xDE0B6B3A7640000 PUSH1 0x1 PUSH2 0x1FC JUMP JUMPDEST PUSH2 0x129 SWAP2 SWAP1 PUSH2 0x225 JUMP JUMPDEST PUSH1 0xA SSTORE PUSH2 0x244 JUMP JUMPDEST CALLER PUSH1 0x1 PUSH1 0x1 PUSH1 0xA0 SHL SUB DUP3 AND SUB PUSH2 0x189 JUMPI PUSH1 0x40 MLOAD PUSH3 0x461BCD PUSH1 0xE5 SHL DUP2 MSTORE PUSH1 0x20 PUSH1 0x4 DUP3 ADD MSTORE PUSH1 0x17 PUSH1 0x24 DUP3 ADD MSTORE PUSH32 0x43616E6E6F74207472616E7366657220746F2073656C66000000000000000000 PUSH1 0x44 DUP3 ADD MSTORE PUSH1 0x64 ADD PUSH2 0x61 JUMP JUMPDEST PUSH1 0x7 DUP1 SLOAD PUSH1 0x1 PUSH1 0x1 PUSH1 0xA0 SHL SUB NOT AND PUSH1 0x1 PUSH1 0x1 PUSH1 0xA0 SHL SUB DUP4 DUP2 AND SWAP2 DUP3 OR SWAP1 SWAP3 SSTORE PUSH1 0x6 SLOAD PUSH1 0x40 MLOAD SWAP2 SWAP3 AND SWAP1 PUSH32 0xED8889F560326EB138920D842192F0EB3DD22B4F139C87A2C57538E05BAE1278 SWAP1 PUSH0 SWAP1 LOG3 POP JUMP JUMPDEST PUSH1 0x2 DUP1 SLOAD PUSH1 0x1 PUSH1 0x1 PUSH1 0xA0 SHL SUB NOT AND PUSH1 0x1 PUSH1 0x1 PUSH1 0xA0 SHL SUB SWAP3 SWAP1 SWAP3 AND SWAP2 SWAP1 SWAP2 OR SWAP1 SSTORE JUMP JUMPDEST DUP1 DUP3 MUL DUP2 ISZERO DUP3 DUP3 DIV DUP5 EQ OR PUSH2 0x21F JUMPI PUSH4 0x4E487B71 PUSH1 0xE0 SHL PUSH0 MSTORE PUSH1 0x11 PUSH1 0x4 MSTORE PUSH1 0x24 PUSH0 REVERT JUMPDEST SWAP3 SWAP2 POP POP JUMP JUMPDEST PUSH0 DUP3 PUSH2 0x23F JUMPI PUSH4 0x4E487B71 PUSH1 0xE0 SHL PUSH0 MSTORE PUSH1 0x12 PUSH1 0x4 MSTORE PUSH1 0x24 PUSH0 REVERT JUMPDEST POP DIV SWAP1 JUMP JUMPDEST PUSH2 0x1117 DUP1 PUSH2 0x251 PUSH0 CODECOPY PUSH0 RETURN INVALID PUSH1 0x80 PUSH1 0x40 MSTORE CALLVALUE DUP1 ISZERO PUSH2 0xF JUMPI PUSH0 PUSH0 REVERT JUMPDEST POP PUSH1 0x4 CALLDATASIZE LT PUSH2 0x7A JUMPI PUSH0 CALLDATALOAD PUSH1 0xE0 SHR DUP1 PUSH4 0x8DA5CB5B GT PUSH2 0x58 JUMPI DUP1 PUSH4 0x8DA5CB5B EQ PUSH2 0xC1 JUMPI DUP1 PUSH4 0x8DC654A2 EQ PUSH2 0xDC JUMPI DUP1 PUSH4 0xC618A1E4 EQ PUSH2 0xE4 JUMPI DUP1 PUSH4 0xF2FDE38B EQ PUSH2 0xED JUMPI PUSH0 PUSH0 REVERT JUMPDEST DUP1 PUSH4 0x2ADB9E3C EQ PUSH2 0x7E JUMPI DUP1 PUSH4 0x4357855E EQ PUSH2 0xA4 JUMPI DUP1 PUSH4 0x79BA5097 EQ PUSH2 0xB9 JUMPI JUMPDEST PUSH0 PUSH0 REVERT JUMPDEST PUSH2 0x91 PUSH2 0x8C CALLDATASIZE PUSH1 0x4 PUSH2 0xDDC JUMP JUMPDEST PUSH2 0x100 JUMP JUMPDEST PUSH1 0x40 MLOAD SWAP1 DUP2 MSTORE PUSH1 0x20 ADD JUMPDEST PUSH1 0x40 MLOAD DUP1 SWAP2 SUB SWAP1 RETURN JUMPDEST PUSH2 0xB7 PUSH2 0xB2 CALLDATASIZE PUSH1 0x4 PUSH2 0xDF3 JUMP JUMPDEST PUSH2 0x240 JUMP JUMPDEST STOP JUMPDEST PUSH2 0xB7 PUSH2 0x340 JUMP JUMPDEST PUSH1 0x6 SLOAD PUSH1 0x40 MLOAD PUSH1 0x1 PUSH1 0x1 PUSH1 0xA0 SHL SUB SWAP1 SWAP2 AND DUP2 MSTORE PUSH1 0x20 ADD PUSH2 0x9B JUMP JUMPDEST PUSH2 0xB7 PUSH2 0x3ED JUMP JUMPDEST PUSH2 0x91 PUSH1 0x8 SLOAD DUP2 JUMP JUMPDEST PUSH2 0xB7 PUSH2 0xFB CALLDATASIZE PUSH1 0x4 PUSH2 0xE13 JUMP JUMPDEST PUSH2 0x52B JUMP JUMPDEST PUSH0 PUSH0 PUSH2 0x116 PUSH1 0x9 SLOAD ADDRESS PUSH4 0x4357855E PUSH1 0xE0 SHL PUSH2 0x53C JUMP JUMPDEST SWAP1 POP PUSH2 0x158 PUSH1 0x40 MLOAD DUP1 PUSH1 0x40 ADD PUSH1 0x40 MSTORE DUP1 PUSH1 0x3 DUP2 MSTORE PUSH1 0x20 ADD PUSH3 0x19D95D PUSH1 0xEA SHL DUP2 MSTORE POP PUSH1 0x40 MLOAD DUP1 PUSH1 0x60 ADD PUSH1 0x40 MSTORE DUP1 PUSH1 0x2D DUP2 MSTORE PUSH1 0x20 ADD PUSH2 0x10B5 PUSH1 0x2D SWAP2 CODECOPY DUP4 SWAP2 SWAP1 PUSH2 0x561 JUMP JUMPDEST PUSH2 0x1A4 PUSH1 0x40 MLOAD DUP1 PUSH1 0x40 ADD PUSH1 0x40 MSTORE DUP1 PUSH1 0x4 DUP2 MSTORE PUSH1 0x20 ADD PUSH4 0xE0C2E8D PUSH1 0xE3 SHL DUP2 MSTORE POP PUSH1 0x40 MLOAD DUP1 PUSH1 0x40 ADD PUSH1 0x40 MSTORE DUP1 PUSH1 0x3 DUP2 MSTORE PUSH1 0x20 ADD PUSH3 0x6E756D PUSH1 0xE8 SHL DUP2 MSTORE POP DUP4 PUSH2 0x561 SWAP1 SWAP3 SWAP2 SWAP1 PUSH4 0xFFFFFFFF AND JUMP JUMPDEST PUSH1 0x40 DUP1 MLOAD DUP1 DUP3 ADD SWAP1 SWAP2 MSTORE PUSH1 0x5 DUP2 MSTORE PUSH5 0x74696D6573 PUSH1 0xD8 SHL PUSH1 0x20 DUP3 ADD MSTORE PUSH1 0x1 SWAP1 PUSH2 0x1CF SWAP1 DUP4 SWAP1 DUP4 PUSH2 0x584 JUMP JUMPDEST PUSH1 0x40 DUP1 MLOAD DUP2 DUP2 MSTORE PUSH1 0x14 DUP2 DUP4 ADD MSTORE PUSH20 0x13585919481D1A194819D95D081C995C5D595CDD PUSH1 0x62 SHL PUSH1 0x60 DUP3 ADD MSTORE PUSH1 0x20 DUP2 ADD DUP7 SWAP1 MSTORE SWAP1 MLOAD PUSH32 0x4953E1E253D3404572E66D2BE3E7889846DB195DFC203305A4810D16100DFD11 SWAP2 DUP2 SWAP1 SUB PUSH1 0x80 ADD SWAP1 LOG1 PUSH2 0x238 DUP3 PUSH1 0xA SLOAD PUSH2 0x5A2 JUMP JUMPDEST SWAP5 SWAP4 POP POP POP POP JUMP JUMPDEST PUSH0 DUP3 DUP2 MSTORE PUSH1 0x5 PUSH1 0x20 MSTORE PUSH1 0x40 SWAP1 KECCAK256 SLOAD DUP3 SWAP1 PUSH1 0x1 PUSH1 0x1 PUSH1 0xA0 SHL SUB AND CALLER EQ PUSH2 0x2BD JUMPI PUSH1 0x40 MLOAD PUSH3 0x461BCD PUSH1 0xE5 SHL DUP2 MSTORE PUSH1 0x20 PUSH1 0x4 DUP3 ADD MSTORE PUSH1 0x28 PUSH1 0x24 DUP3 ADD MSTORE PUSH32 0x536F75726365206D75737420626520746865206F7261636C65206F6620746865 PUSH1 0x44 DUP3 ADD MSTORE PUSH8 0x81C995C5D595CDD PUSH1 0xC2 SHL PUSH1 0x64 DUP3 ADD MSTORE PUSH1 0x84 ADD JUMPDEST PUSH1 0x40 MLOAD DUP1 SWAP2 SUB SWAP1 REVERT JUMPDEST PUSH0 DUP2 DUP2 MSTORE PUSH1 0x5 PUSH1 0x20 MSTORE PUSH1 0x40 DUP1 DUP3 KECCAK256 DUP1 SLOAD PUSH1 0x1 PUSH1 0x1 PUSH1 0xA0 SHL SUB NOT AND SWAP1 SSTORE MLOAD DUP3 SWAP2 PUSH32 0x7CC135E0CEBB02C3480AE5D74D377283180A2601F8F644EDF7987B009316C63A SWAP2 LOG2 DUP3 PUSH32 0x673B38182859A514D734BDFCB49D3A05C4A641DEC9311D9894C9717BCB79AF76 DUP4 PUSH1 0x40 MLOAD PUSH2 0x331 SWAP2 DUP2 MSTORE PUSH1 0x20 ADD SWAP1 JUMP JUMPDEST PUSH1 0x40 MLOAD DUP1 SWAP2 SUB SWAP1 LOG2 POP PUSH1 0x8 SSTORE POP JUMP JUMPDEST PUSH1 0x7 SLOAD PUSH1 0x1 PUSH1 0x1 PUSH1 0xA0 SHL SUB AND CALLER EQ PUSH2 0x393 JUMPI PUSH1 0x40 MLOAD PUSH3 0x461BCD PUSH1 0xE5 SHL DUP2 MSTORE PUSH1 0x20 PUSH1 0x4 DUP3 ADD MSTORE PUSH1 0x16 PUSH1 0x24 DUP3 ADD MSTORE PUSH22 0x26BAB9BA10313290383937B837B9B2B21037BBB732B9 PUSH1 0x51 SHL PUSH1 0x44 DUP3 ADD MSTORE PUSH1 0x64 ADD PUSH2 0x2B4 JUMP JUMPDEST PUSH1 0x6 DUP1 SLOAD PUSH1 0x1 PUSH1 0x1 PUSH1 0xA0 SHL SUB NOT DUP1 DUP3 AND CALLER SWAP1 DUP2 OR SWAP1 SWAP4 SSTORE PUSH1 0x7 DUP1 SLOAD SWAP1 SWAP2 AND SWAP1 SSTORE PUSH1 0x40 MLOAD PUSH1 0x1 PUSH1 0x1 PUSH1 0xA0 SHL SUB SWAP1 SWAP2 AND SWAP2 SWAP1 DUP3 SWAP1 PUSH32 0x8BE0079C531659141344CD1FD0A4F28419497F9722A3DAAFE3B4186F6B6457E0 SWAP1 PUSH0 SWAP1 LOG3 POP JUMP JUMPDEST PUSH2 0x3F5 PUSH2 0x5C4 JUMP JUMPDEST PUSH0 PUSH2 0x408 PUSH1 0x2 SLOAD PUSH1 0x1 PUSH1 0x1 PUSH1 0xA0 SHL SUB AND SWAP1 JUMP JUMPDEST PUSH1 0x40 MLOAD PUSH4 0x70A08231 PUSH1 0xE0 SHL DUP2 MSTORE ADDRESS PUSH1 0x4 DUP3 ADD MSTORE SWAP1 SWAP2 POP PUSH1 0x1 PUSH1 0x1 PUSH1 0xA0 SHL SUB DUP3 AND SWAP1 PUSH4 0xA9059CBB SWAP1 CALLER SWAP1 DUP4 SWAP1 PUSH4 0x70A08231 SWAP1 PUSH1 0x24 ADD PUSH1 0x20 PUSH1 0x40 MLOAD DUP1 DUP4 SUB DUP2 DUP7 GAS STATICCALL ISZERO DUP1 ISZERO PUSH2 0x457 JUMPI RETURNDATASIZE PUSH0 PUSH0 RETURNDATACOPY RETURNDATASIZE PUSH0 REVERT JUMPDEST POP POP POP POP PUSH1 0x40 MLOAD RETURNDATASIZE PUSH1 0x1F NOT PUSH1 0x1F DUP3 ADD AND DUP3 ADD DUP1 PUSH1 0x40 MSTORE POP DUP2 ADD SWAP1 PUSH2 0x47B SWAP2 SWAP1 PUSH2 0xE40 JUMP JUMPDEST PUSH1 0x40 MLOAD PUSH1 0x1 PUSH1 0x1 PUSH1 0xE0 SHL SUB NOT PUSH1 0xE0 DUP6 SWAP1 SHL AND DUP2 MSTORE PUSH1 0x1 PUSH1 0x1 PUSH1 0xA0 SHL SUB SWAP1 SWAP3 AND PUSH1 0x4 DUP4 ADD MSTORE PUSH1 0x24 DUP3 ADD MSTORE PUSH1 0x44 ADD PUSH1 0x20 PUSH1 0x40 MLOAD DUP1 DUP4 SUB DUP2 PUSH0 DUP8 GAS CALL ISZERO DUP1 ISZERO PUSH2 0x4C3 JUMPI RETURNDATASIZE PUSH0 PUSH0 RETURNDATACOPY RETURNDATASIZE PUSH0 REVERT JUMPDEST POP POP POP POP PUSH1 0x40 MLOAD RETURNDATASIZE PUSH1 0x1F NOT PUSH1 0x1F DUP3 ADD AND DUP3 ADD DUP1 PUSH1 0x40 MSTORE POP DUP2 ADD SWAP1 PUSH2 0x4E7 SWAP2 SWAP1 PUSH2 0xE57 JUMP JUMPDEST PUSH2 0x528 JUMPI PUSH1 0x40 MLOAD PUSH3 0x461BCD PUSH1 0xE5 SHL DUP2 MSTORE PUSH1 0x20 PUSH1 0x4 DUP3 ADD MSTORE PUSH1 0x12 PUSH1 0x24 DUP3 ADD MSTORE PUSH18 0x2AB730B13632903A37903A3930B739B332B9 PUSH1 0x71 SHL PUSH1 0x44 DUP3 ADD MSTORE PUSH1 0x64 ADD PUSH2 0x2B4 JUMP JUMPDEST POP JUMP JUMPDEST PUSH2 0x533 PUSH2 0x5C4 JUMP JUMPDEST PUSH2 0x528 DUP2 PUSH2 0x619 JUMP JUMPDEST PUSH2 0x544 PUSH2 0xDA2 JUMP JUMPDEST PUSH2 0x54C PUSH2 0xDA2 JUMP JUMPDEST PUSH2 0x558 DUP2 DUP7 DUP7 DUP7 PUSH2 0x6C2 JUMP JUMPDEST SWAP6 SWAP5 POP POP POP POP POP JUMP JUMPDEST PUSH1 0x80 DUP4 ADD MLOAD PUSH2 0x570 SWAP1 DUP4 PUSH2 0x6FF JUMP JUMPDEST PUSH1 0x80 DUP4 ADD MLOAD PUSH2 0x57F SWAP1 DUP3 PUSH2 0x6FF JUMP JUMPDEST POP POP POP JUMP JUMPDEST PUSH1 0x80 DUP4 ADD MLOAD PUSH2 0x593 SWAP1 DUP4 PUSH2 0x6FF JUMP JUMPDEST PUSH1 0x80 DUP4 ADD MLOAD PUSH2 0x57F SWAP1 DUP3 PUSH2 0x716 JUMP JUMPDEST PUSH1 0x3 SLOAD PUSH0 SWAP1 PUSH2 0x5BB SWAP1 PUSH1 0x1 PUSH1 0x1 PUSH1 0xA0 SHL SUB AND DUP5 DUP5 PUSH2 0x777 JUMP JUMPDEST SWAP1 POP JUMPDEST SWAP3 SWAP2 POP POP JUMP JUMPDEST PUSH1 0x6 SLOAD PUSH1 0x1 PUSH1 0x1 PUSH1 0xA0 SHL SUB AND CALLER EQ PUSH2 0x617 JUMPI PUSH1 0x40 MLOAD PUSH3 0x461BCD PUSH1 0xE5 SHL DUP2 MSTORE PUSH1 0x20 PUSH1 0x4 DUP3 ADD MSTORE PUSH1 0x16 PUSH1 0x24 DUP3 ADD MSTORE PUSH22 0x27B7363C9031B0B63630B1363290313C9037BBB732B9 PUSH1 0x51 SHL PUSH1 0x44 DUP3 ADD MSTORE PUSH1 0x64 ADD PUSH2 0x2B4 JUMP JUMPDEST JUMP JUMPDEST CALLER PUSH1 0x1 PUSH1 0x1 PUSH1 0xA0 SHL SUB DUP3 AND SUB PUSH2 0x671 JUMPI PUSH1 0x40 MLOAD PUSH3 0x461BCD PUSH1 0xE5 SHL DUP2 MSTORE PUSH1 0x20 PUSH1 0x4 DUP3 ADD MSTORE PUSH1 0x17 PUSH1 0x24 DUP3 ADD MSTORE PUSH32 0x43616E6E6F74207472616E7366657220746F2073656C66000000000000000000 PUSH1 0x44 DUP3 ADD MSTORE PUSH1 0x64 ADD PUSH2 0x2B4 JUMP JUMPDEST PUSH1 0x7 DUP1 SLOAD PUSH1 0x1 PUSH1 0x1 PUSH1 0xA0 SHL SUB NOT AND PUSH1 0x1 PUSH1 0x1 PUSH1 0xA0 SHL SUB DUP4 DUP2 AND SWAP2 DUP3 OR SWAP1 SWAP3 SSTORE PUSH1 0x6 SLOAD PUSH1 0x40 MLOAD SWAP2 SWAP3 AND SWAP1 PUSH32 0xED8889F560326EB138920D842192F0EB3DD22B4F139C87A2C57538E05BAE1278 SWAP1 PUSH0 SWAP1 LOG3 POP JUMP JUMPDEST PUSH2 0x6CA PUSH2 0xDA2 JUMP JUMPDEST PUSH2 0x6DA DUP6 PUSH1 0x80 ADD MLOAD PUSH2 0x100 PUSH2 0x808 JUMP JUMPDEST POP POP SWAP2 DUP4 MSTORE PUSH1 0x1 PUSH1 0x1 PUSH1 0xA0 SHL SUB AND PUSH1 0x20 DUP4 ADD MSTORE PUSH1 0x1 PUSH1 0x1 PUSH1 0xE0 SHL SUB NOT AND PUSH1 0x40 DUP3 ADD MSTORE SWAP1 JUMP JUMPDEST PUSH2 0x70C DUP3 PUSH1 0x3 DUP4 MLOAD PUSH2 0x86B JUMP JUMPDEST PUSH2 0x57F DUP3 DUP3 PUSH2 0x980 JUMP JUMPDEST PUSH8 0xFFFFFFFFFFFFFFFF NOT DUP2 SLT ISZERO PUSH2 0x735 JUMPI PUSH2 0x731 DUP3 DUP3 PUSH2 0x9A5 JUMP JUMPDEST POP POP JUMP JUMPDEST PUSH8 0xFFFFFFFFFFFFFFFF DUP2 SGT ISZERO PUSH2 0x74F JUMPI PUSH2 0x731 DUP3 DUP3 PUSH2 0x9E6 JUMP JUMPDEST PUSH0 DUP2 SLT PUSH2 0x761 JUMPI PUSH2 0x731 DUP3 PUSH0 DUP4 PUSH2 0x86B JUMP JUMPDEST PUSH2 0x731 DUP3 PUSH1 0x1 PUSH2 0x772 DUP5 PUSH0 NOT PUSH2 0xE8A JUMP JUMPDEST PUSH2 0x86B JUMP JUMPDEST PUSH1 0x4 SLOAD PUSH0 SWAP1 PUSH2 0x787 DUP2 PUSH1 0x1 PUSH2 0xEB0 JUMP JUMPDEST PUSH1 0x4 SSTORE DUP4 MLOAD PUSH1 0x40 DUP1 DUP7 ADD MLOAD PUSH1 0x80 DUP8 ADD MLOAD MLOAD SWAP2 MLOAD PUSH0 SWAP4 PUSH4 0x20214CA3 PUSH1 0xE1 SHL SWAP4 PUSH2 0x7BE SWAP4 DUP7 SWAP4 DUP5 SWAP4 SWAP3 ADDRESS SWAP3 SWAP2 DUP11 SWAP2 PUSH1 0x1 SWAP2 PUSH1 0x24 ADD PUSH2 0xEF1 JUMP JUMPDEST PUSH1 0x40 DUP1 MLOAD PUSH1 0x1F NOT DUP2 DUP5 SUB ADD DUP2 MSTORE SWAP2 SWAP1 MSTORE PUSH1 0x20 DUP2 ADD DUP1 MLOAD PUSH1 0x1 PUSH1 0x1 PUSH1 0xE0 SHL SUB AND PUSH1 0x1 PUSH1 0x1 PUSH1 0xE0 SHL SUB NOT SWAP1 SWAP4 AND SWAP3 SWAP1 SWAP3 OR SWAP1 SWAP2 MSTORE SWAP1 POP PUSH2 0x7FE DUP7 DUP4 DUP7 DUP5 PUSH2 0xA09 JUMP JUMPDEST SWAP7 SWAP6 POP POP POP POP POP POP JUMP JUMPDEST PUSH1 0x40 DUP1 MLOAD DUP1 DUP3 ADD SWAP1 SWAP2 MSTORE PUSH1 0x60 DUP2 MSTORE PUSH0 PUSH1 0x20 DUP3 ADD MSTORE PUSH2 0x827 PUSH1 0x20 DUP4 PUSH2 0xF57 JUMP JUMPDEST ISZERO PUSH2 0x84F JUMPI PUSH2 0x837 PUSH1 0x20 DUP4 PUSH2 0xF57 JUMP JUMPDEST PUSH2 0x842 SWAP1 PUSH1 0x20 PUSH2 0xF76 JUMP JUMPDEST PUSH2 0x84C SWAP1 DUP4 PUSH2 0xEB0 JUMP JUMPDEST SWAP2 POP JUMPDEST POP PUSH1 0x20 DUP3 DUP2 ADD DUP3 SWAP1 MSTORE PUSH1 0x40 DUP1 MLOAD DUP1 DUP6 MSTORE PUSH0 DUP2 MSTORE SWAP1 SWAP3 ADD ADD SWAP1 MSTORE SWAP1 JUMP JUMPDEST PUSH1 0x17 DUP2 PUSH8 0xFFFFFFFFFFFFFFFF AND GT PUSH2 0x896 JUMPI PUSH2 0x890 DUP4 PUSH1 0xE0 PUSH1 0x5 DUP6 SWAP1 SHL AND DUP4 OR PUSH2 0xB62 JUMP JUMPDEST POP POP POP POP JUMP JUMPDEST PUSH1 0xFF DUP2 PUSH8 0xFFFFFFFFFFFFFFFF AND GT PUSH2 0x8D4 JUMPI PUSH2 0x8BD DUP4 PUSH1 0x18 PUSH2 0x1FE0 PUSH1 0x5 DUP7 SWAP1 SHL AND OR PUSH2 0xB62 JUMP JUMPDEST POP PUSH2 0x890 DUP4 PUSH8 0xFFFFFFFFFFFFFFFF DUP4 AND PUSH1 0x1 PUSH2 0xB85 JUMP JUMPDEST PUSH2 0xFFFF DUP2 PUSH8 0xFFFFFFFFFFFFFFFF AND GT PUSH2 0x913 JUMPI PUSH2 0x8FC DUP4 PUSH1 0x19 PUSH2 0x1FE0 PUSH1 0x5 DUP7 SWAP1 SHL AND OR PUSH2 0xB62 JUMP JUMPDEST POP PUSH2 0x890 DUP4 PUSH8 0xFFFFFFFFFFFFFFFF DUP4 AND PUSH1 0x2 PUSH2 0xB85 JUMP JUMPDEST PUSH4 0xFFFFFFFF DUP2 PUSH8 0xFFFFFFFFFFFFFFFF AND GT PUSH2 0x954 JUMPI PUSH2 0x93D DUP4 PUSH1 0x1A PUSH2 0x1FE0 PUSH1 0x5 DUP7 SWAP1 SHL AND OR PUSH2 0xB62 JUMP JUMPDEST POP PUSH2 0x890 DUP4 PUSH8 0xFFFFFFFFFFFFFFFF DUP4 AND PUSH1 0x4 PUSH2 0xB85 JUMP JUMPDEST PUSH2 0x969 DUP4 PUSH1 0x1B PUSH2 0x1FE0 PUSH1 0x5 DUP7 SWAP1 SHL AND OR PUSH2 0xB62 JUMP JUMPDEST POP PUSH2 0x890 DUP4 PUSH8 0xFFFFFFFFFFFFFFFF DUP4 AND PUSH1 0x8 PUSH2 0xB85 JUMP JUMPDEST PUSH1 0x40 DUP1 MLOAD DUP1 DUP3 ADD SWAP1 SWAP2 MSTORE PUSH1 0x60 DUP2 MSTORE PUSH0 PUSH1 0x20 DUP3 ADD MSTORE PUSH2 0x5BB DUP4 DUP5 PUSH0 ADD MLOAD MLOAD DUP5 DUP6 MLOAD PUSH2 0xBA9 JUMP JUMPDEST PUSH2 0x9B0 DUP3 PUSH1 0xC3 PUSH2 0xB62 JUMP JUMPDEST POP PUSH2 0x731 DUP3 PUSH2 0x9C0 DUP4 PUSH0 NOT PUSH2 0xE8A JUMP JUMPDEST PUSH1 0x40 MLOAD PUSH1 0x20 ADD PUSH2 0x9D2 SWAP2 DUP2 MSTORE PUSH1 0x20 ADD SWAP1 JUMP JUMPDEST PUSH1 0x40 MLOAD PUSH1 0x20 DUP2 DUP4 SUB SUB DUP2 MSTORE SWAP1 PUSH1 0x40 MSTORE PUSH2 0xC8F JUMP JUMPDEST PUSH2 0x9F1 DUP3 PUSH1 0xC2 PUSH2 0xB62 JUMP JUMPDEST POP PUSH2 0x731 DUP3 DUP3 PUSH1 0x40 MLOAD PUSH1 0x20 ADD PUSH2 0x9D2 SWAP2 DUP2 MSTORE PUSH1 0x20 ADD SWAP1 JUMP JUMPDEST PUSH1 0x40 MLOAD PUSH12 0xFFFFFFFFFFFFFFFFFFFFFFFF NOT ADDRESS PUSH1 0x60 SHL AND PUSH1 0x20 DUP3 ADD MSTORE PUSH1 0x34 DUP2 ADD DUP5 SWAP1 MSTORE PUSH0 SWAP1 PUSH1 0x54 ADD PUSH1 0x40 DUP1 MLOAD DUP1 DUP4 SUB PUSH1 0x1F NOT ADD DUP2 MSTORE DUP3 DUP3 MSTORE DUP1 MLOAD PUSH1 0x20 SWAP2 DUP3 ADD KECCAK256 PUSH0 DUP2 DUP2 MSTORE PUSH1 0x5 SWAP1 SWAP3 MSTORE SWAP2 DUP2 KECCAK256 DUP1 SLOAD PUSH1 0x1 PUSH1 0x1 PUSH1 0xA0 SHL SUB NOT AND PUSH1 0x1 PUSH1 0x1 PUSH1 0xA0 SHL SUB DUP11 AND OR SWAP1 SSTORE SWAP1 SWAP3 POP DUP3 SWAP2 PUSH32 0xB5E6E01E79F91267DC17B4E6314D5D4D03593D2CEEE0FBB452B750BD70EA5AF9 SWAP2 SWAP1 LOG2 PUSH1 0x2 SLOAD PUSH1 0x40 MLOAD PUSH4 0x2000575 PUSH1 0xE5 SHL DUP2 MSTORE PUSH1 0x1 PUSH1 0x1 PUSH1 0xA0 SHL SUB SWAP1 SWAP2 AND SWAP1 PUSH4 0x4000AEA0 SWAP1 PUSH2 0xACA SWAP1 DUP9 SWAP1 DUP8 SWAP1 DUP8 SWAP1 PUSH1 0x4 ADD PUSH2 0xF89 JUMP JUMPDEST PUSH1 0x20 PUSH1 0x40 MLOAD DUP1 DUP4 SUB DUP2 PUSH0 DUP8 GAS CALL ISZERO DUP1 ISZERO PUSH2 0xAE6 JUMPI RETURNDATASIZE PUSH0 PUSH0 RETURNDATACOPY RETURNDATASIZE PUSH0 REVERT JUMPDEST POP POP POP POP PUSH1 0x40 MLOAD RETURNDATASIZE PUSH1 0x1F NOT PUSH1 0x1F DUP3 ADD AND DUP3 ADD DUP1 PUSH1 0x40 MSTORE POP DUP2 ADD SWAP1 PUSH2 0xB0A SWAP2 SWAP1 PUSH2 0xE57 JUMP JUMPDEST PUSH2 0x238 JUMPI PUSH1 0x40 MLOAD PUSH3 0x461BCD PUSH1 0xE5 SHL DUP2 MSTORE PUSH1 0x20 PUSH1 0x4 DUP3 ADD MSTORE PUSH1 0x23 PUSH1 0x24 DUP3 ADD MSTORE PUSH32 0x756E61626C6520746F207472616E73666572416E6443616C6C20746F206F7261 PUSH1 0x44 DUP3 ADD MSTORE PUSH3 0x636C65 PUSH1 0xE8 SHL PUSH1 0x64 DUP3 ADD MSTORE PUSH1 0x84 ADD PUSH2 0x2B4 JUMP JUMPDEST PUSH1 0x40 DUP1 MLOAD DUP1 DUP3 ADD SWAP1 SWAP2 MSTORE PUSH1 0x60 DUP2 MSTORE PUSH0 PUSH1 0x20 DUP3 ADD MSTORE PUSH2 0x5BB DUP4 DUP5 PUSH0 ADD MLOAD MLOAD DUP5 PUSH2 0xC9C JUMP JUMPDEST PUSH1 0x40 DUP1 MLOAD DUP1 DUP3 ADD SWAP1 SWAP2 MSTORE PUSH1 0x60 DUP2 MSTORE PUSH0 PUSH1 0x20 DUP3 ADD MSTORE PUSH2 0x238 DUP5 DUP6 PUSH0 ADD MLOAD MLOAD DUP6 DUP6 PUSH2 0xCF6 JUMP JUMPDEST PUSH1 0x40 DUP1 MLOAD DUP1 DUP3 ADD SWAP1 SWAP2 MSTORE PUSH1 0x60 DUP2 MSTORE PUSH0 PUSH1 0x20 DUP3 ADD MSTORE DUP3 MLOAD DUP3 GT ISZERO PUSH2 0xBCA JUMPI PUSH0 PUSH0 REVERT JUMPDEST PUSH1 0x20 DUP6 ADD MLOAD PUSH2 0xBD9 DUP4 DUP7 PUSH2 0xEB0 JUMP JUMPDEST GT ISZERO PUSH2 0xC0C JUMPI PUSH2 0xC0C DUP6 PUSH2 0xBFC DUP8 PUSH1 0x20 ADD MLOAD DUP8 DUP7 PUSH2 0xBF7 SWAP2 SWAP1 PUSH2 0xEB0 JUMP JUMPDEST PUSH2 0xD75 JUMP JUMPDEST PUSH2 0xC07 SWAP1 PUSH1 0x2 PUSH2 0xFAF JUMP JUMPDEST PUSH2 0xD8B JUMP JUMPDEST PUSH0 PUSH0 DUP7 MLOAD DUP1 MLOAD DUP8 PUSH1 0x20 DUP4 ADD ADD SWAP4 POP DUP1 DUP9 DUP8 ADD GT ISZERO PUSH2 0xC2A JUMPI DUP8 DUP7 ADD DUP3 MSTORE JUMPDEST POP POP POP PUSH1 0x20 DUP5 ADD JUMPDEST PUSH1 0x20 DUP5 LT PUSH2 0xC6A JUMPI DUP1 MLOAD DUP3 MSTORE PUSH2 0xC49 PUSH1 0x20 DUP4 PUSH2 0xEB0 JUMP JUMPDEST SWAP2 POP PUSH2 0xC56 PUSH1 0x20 DUP3 PUSH2 0xEB0 JUMP JUMPDEST SWAP1 POP PUSH2 0xC63 PUSH1 0x20 DUP6 PUSH2 0xF76 JUMP JUMPDEST SWAP4 POP PUSH2 0xC32 JUMP JUMPDEST MLOAD DUP2 MLOAD PUSH0 NOT PUSH1 0x20 DUP7 SWAP1 SUB PUSH2 0x100 EXP ADD SWAP1 DUP2 AND SWAP1 NOT SWAP2 SWAP1 SWAP2 AND OR SWAP1 MSTORE POP DUP4 SWAP5 SWAP4 POP POP POP POP JUMP JUMPDEST PUSH2 0x70C DUP3 PUSH1 0x2 DUP4 MLOAD PUSH2 0x86B JUMP JUMPDEST PUSH1 0x40 DUP1 MLOAD DUP1 DUP3 ADD SWAP1 SWAP2 MSTORE PUSH1 0x60 DUP2 MSTORE PUSH0 PUSH1 0x20 DUP3 ADD MSTORE DUP4 PUSH1 0x20 ADD MLOAD DUP4 LT PUSH2 0xCD0 JUMPI PUSH2 0xCD0 DUP5 DUP6 PUSH1 0x20 ADD MLOAD PUSH1 0x2 PUSH2 0xC07 SWAP2 SWAP1 PUSH2 0xFAF JUMP JUMPDEST DUP4 MLOAD DUP1 MLOAD PUSH1 0x20 DUP6 DUP4 ADD ADD DUP5 DUP2 MSTORE8 POP DUP1 DUP6 SUB PUSH2 0xCEC JUMPI PUSH1 0x1 DUP2 ADD DUP3 MSTORE JUMPDEST POP SWAP4 SWAP5 SWAP4 POP POP POP POP JUMP JUMPDEST PUSH1 0x40 DUP1 MLOAD DUP1 DUP3 ADD SWAP1 SWAP2 MSTORE PUSH1 0x60 DUP2 MSTORE PUSH0 PUSH1 0x20 DUP3 ADD MSTORE PUSH1 0x20 DUP6 ADD MLOAD PUSH2 0xD19 DUP6 DUP5 PUSH2 0xEB0 JUMP JUMPDEST GT ISZERO PUSH2 0xD2D JUMPI PUSH2 0xD2D DUP6 PUSH2 0xBFC DUP7 DUP6 PUSH2 0xEB0 JUMP JUMPDEST PUSH0 PUSH1 0x1 PUSH2 0xD3C DUP5 PUSH2 0x100 PUSH2 0x10A9 JUMP JUMPDEST PUSH2 0xD46 SWAP2 SWAP1 PUSH2 0xF76 JUMP JUMPDEST SWAP1 POP DUP6 MLOAD DUP4 DUP7 DUP3 ADD ADD DUP6 DUP4 NOT DUP3 MLOAD AND OR DUP2 MSTORE POP DUP1 MLOAD DUP5 DUP8 ADD GT ISZERO PUSH2 0xD6A JUMPI DUP4 DUP7 ADD DUP2 MSTORE JUMPDEST POP SWAP5 SWAP6 SWAP5 POP POP POP POP POP JUMP JUMPDEST PUSH0 DUP2 DUP4 GT ISZERO PUSH2 0xD85 JUMPI POP DUP2 PUSH2 0x5BE JUMP JUMPDEST POP SWAP2 SWAP1 POP JUMP JUMPDEST DUP2 MLOAD PUSH2 0xD97 DUP4 DUP4 PUSH2 0x808 JUMP JUMPDEST POP PUSH2 0x890 DUP4 DUP3 PUSH2 0x980 JUMP JUMPDEST PUSH1 0x40 DUP1 MLOAD PUSH1 0xA0 DUP2 ADD DUP3 MSTORE PUSH0 DUP1 DUP3 MSTORE PUSH1 0x20 DUP1 DUP4 ADD DUP3 SWAP1 MSTORE DUP3 DUP5 ADD DUP3 SWAP1 MSTORE PUSH1 0x60 DUP1 DUP5 ADD DUP4 SWAP1 MSTORE DUP5 MLOAD DUP1 DUP7 ADD SWAP1 SWAP6 MSTORE DUP5 MSTORE DUP4 ADD MSTORE SWAP1 PUSH1 0x80 DUP3 ADD MSTORE SWAP1 JUMP JUMPDEST PUSH0 PUSH1 0x20 DUP3 DUP5 SUB SLT ISZERO PUSH2 0xDEC JUMPI PUSH0 PUSH0 REVERT JUMPDEST POP CALLDATALOAD SWAP2 SWAP1 POP JUMP JUMPDEST PUSH0 PUSH0 PUSH1 0x40 DUP4 DUP6 SUB SLT ISZERO PUSH2 0xE04 JUMPI PUSH0 PUSH0 REVERT JUMPDEST POP POP DUP1 CALLDATALOAD SWAP3 PUSH1 0x20 SWAP1 SWAP2 ADD CALLDATALOAD SWAP2 POP JUMP JUMPDEST PUSH0 PUSH1 0x20 DUP3 DUP5 SUB SLT ISZERO PUSH2 0xE23 JUMPI PUSH0 PUSH0 REVERT JUMPDEST DUP2 CALLDATALOAD PUSH1 0x1 PUSH1 0x1 PUSH1 0xA0 SHL SUB DUP2 AND DUP2 EQ PUSH2 0xE39 JUMPI PUSH0 PUSH0 REVERT JUMPDEST SWAP4 SWAP3 POP POP POP JUMP JUMPDEST PUSH0 PUSH1 0x20 DUP3 DUP5 SUB SLT ISZERO PUSH2 0xE50 JUMPI PUSH0 PUSH0 REVERT JUMPDEST POP MLOAD SWAP2 SWAP1 POP JUMP JUMPDEST PUSH0 PUSH1 0x20 DUP3 DUP5 SUB SLT ISZERO PUSH2 0xE67 JUMPI PUSH0 PUSH0 REVERT JUMPDEST DUP2 MLOAD DUP1 ISZERO ISZERO DUP2 EQ PUSH2 0xE39 JUMPI PUSH0 PUSH0 REVERT JUMPDEST PUSH4 0x4E487B71 PUSH1 0xE0 SHL PUSH0 MSTORE PUSH1 0x11 PUSH1 0x4 MSTORE PUSH1 0x24 PUSH0 REVERT JUMPDEST DUP2 DUP2 SUB PUSH0 DUP4 SLT DUP1 ISZERO DUP4 DUP4 SGT AND DUP4 DUP4 SLT DUP3 AND OR ISZERO PUSH2 0xEA9 JUMPI PUSH2 0xEA9 PUSH2 0xE76 JUMP JUMPDEST POP SWAP3 SWAP2 POP POP JUMP JUMPDEST DUP1 DUP3 ADD DUP1 DUP3 GT ISZERO PUSH2 0x5BE JUMPI PUSH2 0x5BE PUSH2 0xE76 JUMP JUMPDEST PUSH0 DUP2 MLOAD DUP1 DUP5 MSTORE DUP1 PUSH1 0x20 DUP5 ADD PUSH1 0x20 DUP7 ADD MCOPY PUSH0 PUSH1 0x20 DUP3 DUP7 ADD ADD MSTORE PUSH1 0x20 PUSH1 0x1F NOT PUSH1 0x1F DUP4 ADD AND DUP6 ADD ADD SWAP2 POP POP SWAP3 SWAP2 POP POP JUMP JUMPDEST PUSH1 0x1 PUSH1 0x1 PUSH1 0xA0 SHL SUB DUP10 DUP2 AND DUP3 MSTORE PUSH1 0x20 DUP3 ADD DUP10 SWAP1 MSTORE PUSH1 0x40 DUP3 ADD DUP9 SWAP1 MSTORE DUP7 AND PUSH1 0x60 DUP3 ADD MSTORE PUSH1 0x1 PUSH1 0x1 PUSH1 0xE0 SHL SUB NOT DUP6 AND PUSH1 0x80 DUP3 ADD MSTORE PUSH1 0xA0 DUP2 ADD DUP5 SWAP1 MSTORE PUSH1 0xC0 DUP2 ADD DUP4 SWAP1 MSTORE PUSH2 0x100 PUSH1 0xE0 DUP3 ADD DUP2 SWAP1 MSTORE PUSH0 SWAP1 PUSH2 0xF49 SWAP1 DUP4 ADD DUP5 PUSH2 0xEC3 JUMP JUMPDEST SWAP11 SWAP10 POP POP POP POP POP POP POP POP POP POP JUMP JUMPDEST PUSH0 DUP3 PUSH2 0xF71 JUMPI PUSH4 0x4E487B71 PUSH1 0xE0 SHL PUSH0 MSTORE PUSH1 0x12 PUSH1 0x4 MSTORE PUSH1 0x24 PUSH0 REVERT JUMPDEST POP MOD SWAP1 JUMP JUMPDEST DUP2 DUP2 SUB DUP2 DUP2 GT ISZERO PUSH2 0x5BE JUMPI PUSH2 0x5BE PUSH2 0xE76 JUMP JUMPDEST PUSH1 0x1 DUP1 PUSH1 0xA0 SHL SUB DUP5 AND DUP2 MSTORE DUP3 PUSH1 0x20 DUP3 ADD MSTORE PUSH1 0x60 PUSH1 0x40 DUP3 ADD MSTORE PUSH0 PUSH2 0x558 PUSH1 0x60 DUP4 ADD DUP5 PUSH2 0xEC3 JUMP JUMPDEST DUP1 DUP3 MUL DUP2 ISZERO DUP3 DUP3 DIV DUP5 EQ OR PUSH2 0x5BE JUMPI PUSH2 0x5BE PUSH2 0xE76 JUMP JUMPDEST PUSH1 0x1 DUP2 JUMPDEST PUSH1 0x1 DUP5 GT ISZERO PUSH2 0x1001 JUMPI DUP1 DUP6 DIV DUP2 GT ISZERO PUSH2 0xFE5 JUMPI PUSH2 0xFE5 PUSH2 0xE76 JUMP JUMPDEST PUSH1 0x1 DUP5 AND ISZERO PUSH2 0xFF3 JUMPI SWAP1 DUP2 MUL SWAP1 JUMPDEST PUSH1 0x1 SWAP4 SWAP1 SWAP4 SHR SWAP3 DUP1 MUL PUSH2 0xFCA JUMP JUMPDEST SWAP4 POP SWAP4 SWAP2 POP POP JUMP JUMPDEST PUSH0 DUP3 PUSH2 0x1017 JUMPI POP PUSH1 0x1 PUSH2 0x5BE JUMP JUMPDEST DUP2 PUSH2 0x1023 JUMPI POP PUSH0 PUSH2 0x5BE JUMP JUMPDEST DUP2 PUSH1 0x1 DUP2 EQ PUSH2 0x1039 JUMPI PUSH1 0x2 DUP2 EQ PUSH2 0x1043 JUMPI PUSH2 0x105F JUMP JUMPDEST PUSH1 0x1 SWAP2 POP POP PUSH2 0x5BE JUMP JUMPDEST PUSH1 0xFF DUP5 GT ISZERO PUSH2 0x1054 JUMPI PUSH2 0x1054 PUSH2 0xE76 JUMP JUMPDEST POP POP PUSH1 0x1 DUP3 SHL PUSH2 0x5BE JUMP JUMPDEST POP PUSH1 0x20 DUP4 LT PUSH2 0x133 DUP4 LT AND PUSH1 0x4E DUP5 LT PUSH1 0xB DUP5 LT AND OR ISZERO PUSH2 0x1082 JUMPI POP DUP2 DUP2 EXP PUSH2 0x5BE JUMP JUMPDEST PUSH2 0x108E PUSH0 NOT DUP5 DUP5 PUSH2 0xFC6 JUMP JUMPDEST DUP1 PUSH0 NOT DIV DUP3 GT ISZERO PUSH2 0x10A1 JUMPI PUSH2 0x10A1 PUSH2 0xE76 JUMP JUMPDEST MUL SWAP4 SWAP3 POP POP POP JUMP JUMPDEST PUSH0 PUSH2 0x5BB DUP4 DUP4 PUSH2 0x1009 JUMP INVALID PUSH9 0x747470733A2F2F3038 CALLDATALOAD CALLER 0x2D BALANCE CALLVALUE 0x2D ORIGIN ADDRESS ADDRESS 0x2D CALLDATACOPY CALLDATALOAD 0x2D CALLDATALOAD CALLVALUE 0x2E PUSH15 0x67726F6B2D667265652E6170702F64 PUSH2 0x7461 LOG2 PUSH5 0x6970667358 0x22 SLT KECCAK256 SWAP12 RETF LOG3 0xB2 0xA6 0x2A DUP10 MLOAD JUMPF 0xF1A9 0xF7 0xB0 DUP5 0xF PUSH7 0x8676E2650C64A7 MCOPY 0xEA 0x4F 0xCC LT PUSH26 0x600D3F64736F6C634300081D0033000000000000000000000000 "
		},
		"gasEstimates": {
			"creation": {
				"codeDepositCost": "875000",
				"executionCost": "infinite",
				"totalCost": "infinite"
			},
			"external": {
				"acceptOwnership()": "52351",
				"fulfill(bytes32,uint256)": "51470",
				"owner()": "2300",
				"requestData(uint256)": "infinite",
				"transferOwnership(address)": "30464",
				"volume()": "2327",
				"withdrawLink()": "infinite"
			}
		},
		"methodIdentifiers": {
			"acceptOwnership()": "79ba5097",
			"fulfill(bytes32,uint256)": "4357855e",
			"owner()": "8da5cb5b",
			"requestData(uint256)": "2adb9e3c",
			"transferOwnership(address)": "f2fde38b",
			"volume()": "c618a1e4",
			"withdrawLink()": "8dc654a2"
		}
	},
	"abi": [
		{
			"inputs": [],
			"stateMutability": "nonpayable",
			"type": "constructor"
		},
		{
			"anonymous": false,
			"inputs": [
				{
					"indexed": true,
					"internalType": "bytes32",
					"name": "id",
					"type": "bytes32"
				}
			],
			"name": "ChainlinkCancelled",
			"type": "event"
		},
		{
			"anonymous": false,
			"inputs": [
				{
					"indexed": true,
					"internalType": "bytes32",
					"name": "id",
					"type": "bytes32"
				}
			],
			"name": "ChainlinkFulfilled",
			"type": "event"
		},
		{
			"anonymous": false,
			"inputs": [
				{
					"indexed": true,
					"internalType": "bytes32",
					"name": "id",
					"type": "bytes32"
				}
			],
			"name": "ChainlinkRequested",
			"type": "event"
		},
		{
			"anonymous": false,
			"inputs": [
				{
					"indexed": false,
					"internalType": "string",
					"name": "",
					"type": "string"
				}
			],
			"name": "Data",
			"type": "event"
		},
		{
			"anonymous": false,
			"inputs": [
				{
					"indexed": true,
					"internalType": "address",
					"name": "from",
					"type": "address"
				},
				{
					"indexed": true,
					"internalType": "address",
					"name": "to",
					"type": "address"
				}
			],
			"name": "OwnershipTransferRequested",
			"type": "event"
		},
		{
			"anonymous": false,
			"inputs": [
				{
					"indexed": true,
					"internalType": "address",
					"name": "from",
					"type": "address"
				},
				{
					"indexed": true,
					"internalType": "address",
					"name": "to",
					"type": "address"
				}
			],
			"name": "OwnershipTransferred",
			"type": "event"
		},
		{
			"anonymous": false,
			"inputs": [
				{
					"indexed": true,
					"internalType": "bytes32",
					"name": "requestId",
					"type": "bytes32"
				},
				{
					"indexed": false,
					"internalType": "uint256",
					"name": "volume",
					"type": "uint256"
				}
			],
			"name": "RequestVolume",
			"type": "event"
		},
		{
			"anonymous": false,
			"inputs": [
				{
					"indexed": false,
					"internalType": "string",
					"name": "",
					"type": "string"
				},
				{
					"indexed": false,
					"internalType": "uint256",
					"name": "",
					"type": "uint256"
				}
			],
			"name": "Result",
			"type": "event"
		},
		{
			"inputs": [],
			"name": "acceptOwnership",
			"outputs": [],
			"stateMutability": "nonpayable",
			"type": "function"
		},
		{
			"inputs": [
				{
					"internalType": "bytes32",
					"name": "_requestId",
					"type": "bytes32"
				},
				{
					"internalType": "uint256",
					"name": "_volume",
					"type": "uint256"
				}
			],
			"name": "fulfill",
			"outputs": [],
			"stateMutability": "nonpayable",
			"type": "function"
		},
		{
			"inputs": [],
			"name": "owner",
			"outputs": [
				{
					"internalType": "address",
					"name": "",
					"type": "address"
				}
			],
			"stateMutability": "view",
			"type": "function"
		},
		{
			"inputs": [
				{
					"internalType": "uint256",
					"name": "projectId",
					"type": "uint256"
				}
			],
			"name": "requestData",
			"outputs": [
				{
					"internalType": "bytes32",
					"name": "requestId",
					"type": "bytes32"
				}
			],
			"stateMutability": "nonpayable",
			"type": "function"
		},
		{
			"inputs": [
				{
					"internalType": "address",
					"name": "to",
					"type": "address"
				}
			],
			"name": "transferOwnership",
			"outputs": [],
			"stateMutability": "nonpayable",
			"type": "function"
		},
		{
			"inputs": [],
			"name": "volume",
			"outputs": [
				{
					"internalType": "uint256",
					"name": "",
					"type": "uint256"
				}
			],
			"stateMutability": "view",
			"type": "function"
		},
		{
			"inputs": [],
			"name": "withdrawLink",
			"outputs": [],
			"stateMutability": "nonpayable",
			"type": "function"
		}
	]
}