{
	"data": {
		"bytecode": {
			"linkReferences": {},
			"object": "60806040526001600455348015610014575f5ffd5b5033805f5f73ffffffffffffffffffffffffffffffffffffffff168273ffffffffffffffffffffffffffffffffffffffff1603610086576040517f08c379a000000000000000000000000000000000000000000000000000000000815260040161007d906103b1565b60405180910390fd5b8160065f6101000a81548173ffffffffffffffffffffffffffffffffffffffff021916908373ffffffffffffffffffffffffffffffffffffffff1602179055505f73ffffffffffffffffffffffffffffffffffffffff168173ffffffffffffffffffffffffffffffffffffffff161461010957610108816101a560201b60201c565b5b50505061012f73779877a7b0d9e8603169ddbd7836e478b46247896102d160201b60201c565b610152736090149792daaee9d1d568c9f9a6f6b46aa29efd61031460201b60201c565b7f3533663937353539323063643435316138666534366635303837343638333935600b81905550600a670de0b6b3a764000060016101909190610405565b61019a9190610473565b600c8190555061050b565b3373ffffffffffffffffffffffffffffffffffffffff168173ffffffffffffffffffffffffffffffffffffffff1603610213576040517f08c379a000000000000000000000000000000000000000000000000000000000815260040161020a906104ed565b60405180910390fd5b8060075f6101000a81548173ffffffffffffffffffffffffffffffffffffffff021916908373ffffffffffffffffffffffffffffffffffffffff1602179055508073ffffffffffffffffffffffffffffffffffffffff1660065f9054906101000a900473ffffffffffffffffffffffffffffffffffffffff1673ffffffffffffffffffffffffffffffffffffffff167fed8889f560326eb138920d842192f0eb3dd22b4f139c87a2c57538e05bae127860405160405180910390a350565b8060025f6101000a81548173ffffffffffffffffffffffffffffffffffffffff021916908373ffffffffffffffffffffffffffffffffffffffff16021790555050565b8060035f6101000a81548173ffffffffffffffffffffffffffffffffffffffff021916908373ffffffffffffffffffffffffffffffffffffffff16021790555050565b5f82825260208201905092915050565b7f43616e6e6f7420736574206f776e657220746f207a65726f00000000000000005f82015250565b5f61039b601883610357565b91506103a682610367565b602082019050919050565b5f6020820190508181035f8301526103c88161038f565b9050919050565b5f819050919050565b7f4e487b71000000000000000000000000000000000000000000000000000000005f52601160045260245ffd5b5f61040f826103cf565b915061041a836103cf565b9250828202610428816103cf565b9150828204841483151761043f5761043e6103d8565b5b5092915050565b7f4e487b71000000000000000000000000000000000000000000000000000000005f52601260045260245ffd5b5f61047d826103cf565b9150610488836103cf565b92508261049857610497610446565b5b828204905092915050565b7f43616e6e6f74207472616e7366657220746f2073656c660000000000000000005f82015250565b5f6104d7601783610357565b91506104e2826104a3565b602082019050919050565b5f6020820190508181035f830152610504816104cb565b9050919050565b612007806105185f395ff3fe608060405234801561000f575f5ffd5b5060043610610091575f3560e01c80638dc654a2116100645780638dc654a2146101095780639a5b133914610113578063a210d9d014610131578063a6dc67711461014f578063f2fde38b1461016d57610091565b80632adb9e3c1461009557806337db7fae146100c557806379ba5097146100e15780638da5cb5b146100eb575b5f5ffd5b6100af60048036038101906100aa91906113bd565b610189565b6040516100bc9190611400565b60405180910390f35b6100df60048036038101906100da9190611443565b610490565b005b6100e96105e1565b005b6100f3610772565b60405161010091906114e6565b60405180910390f35b61011161079a565b005b61011b6108e1565b604051610128919061150e565b60405180910390f35b6101396108e7565b604051610146919061150e565b60405180910390f35b6101576108ed565b604051610164919061150e565b60405180910390f35b61018760048036038101906101829190611551565b6108f3565b005b5f5f61019f600b54306337db7fae60e01b610907565b90506102036040518060400160405280600681526020017f75726c42544300000000000000000000000000000000000000000000000000008152506040518060600160405280603f8152602001611f54603f9139836109389092919063ffffffff16565b6102826040518060400160405280600781526020017f70617468425443000000000000000000000000000000000000000000000000008152506040518060400160405280600381526020017f4254430000000000000000000000000000000000000000000000000000000000815250836109389092919063ffffffff16565b6102e46040518060400160405280600681526020017f75726c55534400000000000000000000000000000000000000000000000000008152506040518060600160405280603f8152602001611f15603f9139836109389092919063ffffffff16565b6103636040518060400160405280600781526020017f70617468555344000000000000000000000000000000000000000000000000008152506040518060400160405280600381526020017f5553440000000000000000000000000000000000000000000000000000000000815250836109389092919063ffffffff16565b6103c56040518060400160405280600681526020017f75726c45555200000000000000000000000000000000000000000000000000008152506040518060600160405280603f8152602001611f93603f9139836109389092919063ffffffff16565b6104446040518060400160405280600781526020017f70617468455552000000000000000000000000000000000000000000000000008152506040518060400160405280600381526020017f4555520000000000000000000000000000000000000000000000000000000000815250836109389092919063ffffffff16565b7f4953e1e253d3404572e66d2be3e7889846db195dfc203305a4810d16100dfd1160016040516104749190611618565b60405180910390a161048881600c5461096b565b915050919050565b8360055f8281526020019081526020015f205f9054906101000a900473ffffffffffffffffffffffffffffffffffffffff1673ffffffffffffffffffffffffffffffffffffffff163373ffffffffffffffffffffffffffffffffffffffff161461052f576040517f08c379a0000000000000000000000000000000000000000000000000000000008152600401610526906116b4565b60405180910390fd5b60055f8281526020019081526020015f205f6101000a81549073ffffffffffffffffffffffffffffffffffffffff0219169055807f7cc135e0cebb02c3480ae5d74d377283180a2601f8f644edf7987b009316c63a60405160405180910390a2847f9ba3b568d237411b006cd782aa975fd1783097cb4198316e11a24cf10f4f3f8e6040516105bd9061171c565b60405180910390a2836009819055508260088190555081600a819055505050505050565b60075f9054906101000a900473ffffffffffffffffffffffffffffffffffffffff1673ffffffffffffffffffffffffffffffffffffffff163373ffffffffffffffffffffffffffffffffffffffff1614610670576040517f08c379a000000000000000000000000000000000000000000000000000000000815260040161066790611784565b60405180910390fd5b5f60065f9054906101000a900473ffffffffffffffffffffffffffffffffffffffff1690503360065f6101000a81548173ffffffffffffffffffffffffffffffffffffffff021916908373ffffffffffffffffffffffffffffffffffffffff1602179055505f60075f6101000a81548173ffffffffffffffffffffffffffffffffffffffff021916908373ffffffffffffffffffffffffffffffffffffffff1602179055503373ffffffffffffffffffffffffffffffffffffffff168173ffffffffffffffffffffffffffffffffffffffff167f8be0079c531659141344cd1fd0a4f28419497f9722a3daafe3b4186f6b6457e060405160405180910390a350565b5f60065f9054906101000a900473ffffffffffffffffffffffffffffffffffffffff16905090565b6107a26109a0565b5f6107ab610a31565b90508073ffffffffffffffffffffffffffffffffffffffff1663a9059cbb338373ffffffffffffffffffffffffffffffffffffffff166370a08231306040518263ffffffff1660e01b815260040161080391906114e6565b602060405180830381865afa15801561081e573d5f5f3e3d5ffd5b505050506040513d601f19601f8201168201806040525081019061084291906117b6565b6040518363ffffffff1660e01b815260040161085f9291906117e1565b6020604051808303815f875af115801561087b573d5f5f3e3d5ffd5b505050506040513d601f19601f8201168201806040525081019061089f919061183d565b6108de576040517f08c379a00000000000000000000000000000000000000000000000000000000081526004016108d5906118b2565b60405180910390fd5b50565b60095481565b60085481565b600a5481565b6108fb6109a0565b61090481610a59565b50565b61090f611307565b610917611307565b61092e85858584610b85909392919063ffffffff16565b9150509392505050565b61094f828460800151610c3490919063ffffffff16565b610966818460800151610c3490919063ffffffff16565b505050565b5f61099860035f9054906101000a900473ffffffffffffffffffffffffffffffffffffffff168484610c59565b905092915050565b60065f9054906101000a900473ffffffffffffffffffffffffffffffffffffffff1673ffffffffffffffffffffffffffffffffffffffff163373ffffffffffffffffffffffffffffffffffffffff1614610a2f576040517f08c379a0000000000000000000000000000000000000000000000000000000008152600401610a269061191a565b60405180910390fd5b565b5f60025f9054906101000a900473ffffffffffffffffffffffffffffffffffffffff16905090565b3373ffffffffffffffffffffffffffffffffffffffff168173ffffffffffffffffffffffffffffffffffffffff1603610ac7576040517f08c379a0000000000000000000000000000000000000000000000000000000008152600401610abe90611982565b60405180910390fd5b8060075f6101000a81548173ffffffffffffffffffffffffffffffffffffffff021916908373ffffffffffffffffffffffffffffffffffffffff1602179055508073ffffffffffffffffffffffffffffffffffffffff1660065f9054906101000a900473ffffffffffffffffffffffffffffffffffffffff1673ffffffffffffffffffffffffffffffffffffffff167fed8889f560326eb138920d842192f0eb3dd22b4f139c87a2c57538e05bae127860405160405180910390a350565b610b8d611307565b610b9d8560800151610100610d20565b5083855f01818152505082856020019073ffffffffffffffffffffffffffffffffffffffff16908173ffffffffffffffffffffffffffffffffffffffff16815250508185604001907bffffffffffffffffffffffffffffffffffffffffffffffffffffffff191690817bffffffffffffffffffffffffffffffffffffffffffffffffffffffff191681525050849050949350505050565b610c418260038351610d88565b610c548183610f0d90919063ffffffff16565b505050565b5f5f6004549050600181610c6d91906119cd565b6004819055505f634042994660e01b5f5f875f01513089604001518760018c608001515f0151604051602401610caa989796959493929190611aaa565b604051602081830303815290604052907bffffffffffffffffffffffffffffffffffffffffffffffffffffffff19166020820180517bffffffffffffffffffffffffffffffffffffffffffffffffffffffff83818316178352505050509050610d1586838684610f2e565b925050509392505050565b610d2861136d565b5f602083610d369190611b5a565b14610d6257602082610d489190611b5a565b6020610d549190611b8a565b82610d5f91906119cd565b91505b818360200181815250506040518084525f81528281016020016040525082905092915050565b60178167ffffffffffffffff1611610dbf57610db98160058460ff16901b60ff1617846110bb90919063ffffffff16565b50610f08565b60ff8167ffffffffffffffff1611610e1557610dee601860058460ff16901b17846110bb90919063ffffffff16565b50610e0f8167ffffffffffffffff166001856110da9092919063ffffffff16565b50610f07565b61ffff8167ffffffffffffffff1611610e6c57610e45601960058460ff16901b17846110bb90919063ffffffff16565b50610e668167ffffffffffffffff166002856110da9092919063ffffffff16565b50610f06565b63ffffffff8167ffffffffffffffff1611610ec557610e9e601a60058460ff16901b17846110bb90919063ffffffff16565b50610ebf8167ffffffffffffffff166004856110da9092919063ffffffff16565b50610f05565b610ee2601b60058460ff16901b17846110bb90919063ffffffff16565b50610f038167ffffffffffffffff166008856110da9092919063ffffffff16565b505b5b5b5b505050565b610f1561136d565b610f2683845f0151518485516110fb565b905092915050565b5f3084604051602001610f42929190611c65565b6040516020818303038152906040528051906020012090508460055f8381526020019081526020015f205f6101000a81548173ffffffffffffffffffffffffffffffffffffffff021916908373ffffffffffffffffffffffffffffffffffffffff160217905550807fb5e6e01e79f91267dc17b4e6314d5d4d03593d2ceee0fbb452b750bd70ea5af960405160405180910390a260025f9054906101000a900473ffffffffffffffffffffffffffffffffffffffff1673ffffffffffffffffffffffffffffffffffffffff16634000aea08685856040518463ffffffff1660e01b815260040161103493929190611c90565b6020604051808303815f875af1158015611050573d5f5f3e3d5ffd5b505050506040513d601f19601f82011682018060405250810190611074919061183d565b6110b3576040517f08c379a00000000000000000000000000000000000000000000000000000000081526004016110aa90611d3c565b60405180910390fd5b949350505050565b6110c361136d565b6110d283845f015151846111e7565b905092915050565b6110e261136d565b6110f284855f015151858561123d565b90509392505050565b61110361136d565b8251821115611110575f5ffd5b8460200151828561112191906119cd565b1115611156576111558560026111468860200151888761114191906119cd565b6112ca565b6111509190611d5a565b6112e5565b5b5f5f8651805187602083010193508088870111156111745787860182525b60208701925050505b602084106111bb578051825260208261119691906119cd565b91506020816111a591906119cd565b90506020846111b49190611b8a565b935061117d565b5f6001856020036101000a03905080198251168184511681811785525050508692505050949350505050565b6111ef61136d565b8360200151831061121557611214846002866020015161120f9190611d5a565b6112e5565b5b83518051602085830101848153818603611230576001820183525b5050508390509392505050565b61124561136d565b8460200151848361125691906119cd565b111561127e5761127d856002868561126e91906119cd565b6112789190611d5a565b6112e5565b5b5f60018361010061128f9190611eca565b6112999190611b8a565b905085518386820101858319825116178152815185880111156112bc5784870182525b505085915050949350505050565b5f818311156112db578290506112df565b8190505b92915050565b5f825f015190506112f68383610d20565b506113018382610f0d565b50505050565b6040518060a001604052805f81526020015f73ffffffffffffffffffffffffffffffffffffffff1681526020015f7bffffffffffffffffffffffffffffffffffffffffffffffffffffffff191681526020015f815260200161136761136d565b81525090565b6040518060400160405280606081526020015f81525090565b5f5ffd5b5f819050919050565b61139c8161138a565b81146113a6575f5ffd5b50565b5f813590506113b781611393565b92915050565b5f602082840312156113d2576113d1611386565b5b5f6113df848285016113a9565b91505092915050565b5f819050919050565b6113fa816113e8565b82525050565b5f6020820190506114135f8301846113f1565b92915050565b611422816113e8565b811461142c575f5ffd5b50565b5f8135905061143d81611419565b92915050565b5f5f5f5f6080858703121561145b5761145a611386565b5b5f6114688782880161142f565b9450506020611479878288016113a9565b935050604061148a878288016113a9565b925050606061149b878288016113a9565b91505092959194509250565b5f73ffffffffffffffffffffffffffffffffffffffff82169050919050565b5f6114d0826114a7565b9050919050565b6114e0816114c6565b82525050565b5f6020820190506114f95f8301846114d7565b92915050565b6115088161138a565b82525050565b5f6020820190506115215f8301846114ff565b92915050565b611530816114c6565b811461153a575f5ffd5b50565b5f8135905061154b81611527565b92915050565b5f6020828403121561156657611565611386565b5b5f6115738482850161153d565b91505092915050565b5f82825260208201905092915050565b7f4d616465207468652067657420726571756573740000000000000000000000005f82015250565b5f6115c060148361157c565b91506115cb8261158c565b602082019050919050565b5f819050919050565b5f819050919050565b5f6116026115fd6115f8846115d6565b6115df565b61138a565b9050919050565b611612816115e8565b82525050565b5f6040820190508181035f83015261162f816115b4565b905061163e6020830184611609565b92915050565b7f536f75726365206d75737420626520746865206f7261636c65206f66207468655f8201527f2072657175657374000000000000000000000000000000000000000000000000602082015250565b5f61169e60288361157c565b91506116a982611644565b604082019050919050565b5f6020820190508181035f8301526116cb81611692565b9050919050565b7f496e736964652046756c696c6c2066756e6374696f6e000000000000000000005f82015250565b5f61170660168361157c565b9150611711826116d2565b602082019050919050565b5f6020820190508181035f830152611733816116fa565b9050919050565b7f4d7573742062652070726f706f736564206f776e6572000000000000000000005f82015250565b5f61176e60168361157c565b91506117798261173a565b602082019050919050565b5f6020820190508181035f83015261179b81611762565b9050919050565b5f815190506117b081611393565b92915050565b5f602082840312156117cb576117ca611386565b5b5f6117d8848285016117a2565b91505092915050565b5f6040820190506117f45f8301856114d7565b61180160208301846114ff565b9392505050565b5f8115159050919050565b61181c81611808565b8114611826575f5ffd5b50565b5f8151905061183781611813565b92915050565b5f6020828403121561185257611851611386565b5b5f61185f84828501611829565b91505092915050565b7f556e61626c6520746f207472616e7366657200000000000000000000000000005f82015250565b5f61189c60128361157c565b91506118a782611868565b602082019050919050565b5f6020820190508181035f8301526118c981611890565b9050919050565b7f4f6e6c792063616c6c61626c65206279206f776e6572000000000000000000005f82015250565b5f61190460168361157c565b915061190f826118d0565b602082019050919050565b5f6020820190508181035f830152611931816118f8565b9050919050565b7f43616e6e6f74207472616e7366657220746f2073656c660000000000000000005f82015250565b5f61196c60178361157c565b915061197782611938565b602082019050919050565b5f6020820190508181035f83015261199981611960565b9050919050565b7f4e487b71000000000000000000000000000000000000000000000000000000005f52601160045260245ffd5b5f6119d78261138a565b91506119e28361138a565b92508282019050808211156119fa576119f96119a0565b5b92915050565b5f7fffffffff0000000000000000000000000000000000000000000000000000000082169050919050565b611a3481611a00565b82525050565b5f81519050919050565b5f82825260208201905092915050565b8281835e5f83830152505050565b5f601f19601f8301169050919050565b5f611a7c82611a3a565b611a868185611a44565b9350611a96818560208601611a54565b611a9f81611a62565b840191505092915050565b5f61010082019050611abe5f83018b6114d7565b611acb602083018a6114ff565b611ad860408301896113f1565b611ae560608301886114d7565b611af26080830187611a2b565b611aff60a08301866114ff565b611b0c60c08301856114ff565b81810360e0830152611b1e8184611a72565b90509998505050505050505050565b7f4e487b71000000000000000000000000000000000000000000000000000000005f52601260045260245ffd5b5f611b648261138a565b9150611b6f8361138a565b925082611b7f57611b7e611b2d565b5b828206905092915050565b5f611b948261138a565b9150611b9f8361138a565b9250828203905081811115611bb757611bb66119a0565b5b92915050565b5f611bd7611bd2611bcd846114a7565b6115df565b6114a7565b9050919050565b5f611be882611bbd565b9050919050565b5f611bf982611bde565b9050919050565b5f8160601b9050919050565b5f611c1682611c00565b9050919050565b5f611c2782611c0c565b9050919050565b611c3f611c3a82611bef565b611c1d565b82525050565b5f819050919050565b611c5f611c5a8261138a565b611c45565b82525050565b5f611c708285611c2e565b601482019150611c808284611c4e565b6020820191508190509392505050565b5f606082019050611ca35f8301866114d7565b611cb060208301856114ff565b8181036040830152611cc28184611a72565b9050949350505050565b7f756e61626c6520746f207472616e73666572416e6443616c6c20746f206f72615f8201527f636c650000000000000000000000000000000000000000000000000000000000602082015250565b5f611d2660238361157c565b9150611d3182611ccc565b604082019050919050565b5f6020820190508181035f830152611d5381611d1a565b9050919050565b5f611d648261138a565b9150611d6f8361138a565b9250828202611d7d8161138a565b91508282048414831517611d9457611d936119a0565b5b5092915050565b5f8160011c9050919050565b5f5f8291508390505b6001851115611df057808604811115611dcc57611dcb6119a0565b5b6001851615611ddb5780820291505b8081029050611de985611d9b565b9450611db0565b94509492505050565b5f82611e085760019050611ec3565b81611e15575f9050611ec3565b8160018114611e2b5760028114611e3557611e64565b6001915050611ec3565b60ff841115611e4757611e466119a0565b5b8360020a915084821115611e5e57611e5d6119a0565b5b50611ec3565b5060208310610133831016604e8410600b8410161715611e995782820a905083811115611e9457611e936119a0565b5b611ec3565b611ea68484846001611da7565b92509050818404811115611ebd57611ebc6119a0565b5b81810290505b9392505050565b5f611ed48261138a565b9150611edf8361138a565b9250611f0c7fffffffffffffffffffffffffffffffffffffffffffffffffffffffffffffffff8484611df9565b90509291505056fe68747470733a2f2f6d696e2d6170692e63727970746f636f6d706172652e636f6d2f646174612f70726963653f6673796d3d455448267473796d733d55534468747470733a2f2f6d696e2d6170692e63727970746f636f6d706172652e636f6d2f646174612f70726963653f6673796d3d455448267473796d733d42544368747470733a2f2f6d696e2d6170692e63727970746f636f6d706172652e636f6d2f646174612f70726963653f6673796d3d455448267473796d733d455552a264697066735822122084d0a570d513add815191d3da8e4e2400dd57068add9f66d75631a8b40b2d41d64736f6c634300081d0033",
			"opcodes": "PUSH1 0x80 PUSH1 0x40 MSTORE PUSH1 0x1 PUSH1 0x4 SSTORE CALLVALUE DUP1 ISZERO PUSH2 0x14 JUMPI PUSH0 PUSH0 REVERT JUMPDEST POP CALLER DUP1 PUSH0 PUSH0 PUSH20 0xFFFFFFFFFFFFFFFFFFFFFFFFFFFFFFFFFFFFFFFF AND DUP3 PUSH20 0xFFFFFFFFFFFFFFFFFFFFFFFFFFFFFFFFFFFFFFFF AND SUB PUSH2 0x86 JUMPI PUSH1 0x40 MLOAD PUSH32 0x8C379A000000000000000000000000000000000000000000000000000000000 DUP2 MSTORE PUSH1 0x4 ADD PUSH2 0x7D SWAP1 PUSH2 0x3B1 JUMP JUMPDEST PUSH1 0x40 MLOAD DUP1 SWAP2 SUB SWAP1 REVERT JUMPDEST DUP2 PUSH1 0x6 PUSH0 PUSH2 0x100 EXP DUP2 SLOAD DUP2 PUSH20 0xFFFFFFFFFFFFFFFFFFFFFFFFFFFFFFFFFFFFFFFF MUL NOT AND SWAP1 DUP4 PUSH20 0xFFFFFFFFFFFFFFFFFFFFFFFFFFFFFFFFFFFFFFFF AND MUL OR SWAP1 SSTORE POP PUSH0 PUSH20 0xFFFFFFFFFFFFFFFFFFFFFFFFFFFFFFFFFFFFFFFF AND DUP2 PUSH20 0xFFFFFFFFFFFFFFFFFFFFFFFFFFFFFFFFFFFFFFFF AND EQ PUSH2 0x109 JUMPI PUSH2 0x108 DUP2 PUSH2 0x1A5 PUSH1 0x20 SHL PUSH1 0x20 SHR JUMP JUMPDEST JUMPDEST POP POP POP PUSH2 0x12F PUSH20 0x779877A7B0D9E8603169DDBD7836E478B4624789 PUSH2 0x2D1 PUSH1 0x20 SHL PUSH1 0x20 SHR JUMP JUMPDEST PUSH2 0x152 PUSH20 0x6090149792DAAEE9D1D568C9F9A6F6B46AA29EFD PUSH2 0x314 PUSH1 0x20 SHL PUSH1 0x20 SHR JUMP JUMPDEST PUSH32 0x3533663937353539323063643435316138666534366635303837343638333935 PUSH1 0xB DUP2 SWAP1 SSTORE POP PUSH1 0xA PUSH8 0xDE0B6B3A7640000 PUSH1 0x1 PUSH2 0x190 SWAP2 SWAP1 PUSH2 0x405 JUMP JUMPDEST PUSH2 0x19A SWAP2 SWAP1 PUSH2 0x473 JUMP JUMPDEST PUSH1 0xC DUP2 SWAP1 SSTORE POP PUSH2 0x50B JUMP JUMPDEST CALLER PUSH20 0xFFFFFFFFFFFFFFFFFFFFFFFFFFFFFFFFFFFFFFFF AND DUP2 PUSH20 0xFFFFFFFFFFFFFFFFFFFFFFFFFFFFFFFFFFFFFFFF AND SUB PUSH2 0x213 JUMPI PUSH1 0x40 MLOAD PUSH32 0x8C379A000000000000000000000000000000000000000000000000000000000 DUP2 MSTORE PUSH1 0x4 ADD PUSH2 0x20A SWAP1 PUSH2 0x4ED JUMP JUMPDEST PUSH1 0x40 MLOAD DUP1 SWAP2 SUB SWAP1 REVERT JUMPDEST DUP1 PUSH1 0x7 PUSH0 PUSH2 0x100 EXP DUP2 SLOAD DUP2 PUSH20 0xFFFFFFFFFFFFFFFFFFFFFFFFFFFFFFFFFFFFFFFF MUL NOT AND SWAP1 DUP4 PUSH20 0xFFFFFFFFFFFFFFFFFFFFFFFFFFFFFFFFFFFFFFFF AND MUL OR SWAP1 SSTORE POP DUP1 PUSH20 0xFFFFFFFFFFFFFFFFFFFFFFFFFFFFFFFFFFFFFFFF AND PUSH1 0x6 PUSH0 SWAP1 SLOAD SWAP1 PUSH2 0x100 EXP SWAP1 DIV PUSH20 0xFFFFFFFFFFFFFFFFFFFFFFFFFFFFFFFFFFFFFFFF AND PUSH20 0xFFFFFFFFFFFFFFFFFFFFFFFFFFFFFFFFFFFFFFFF AND PUSH32 0xED8889F560326EB138920D842192F0EB3DD22B4F139C87A2C57538E05BAE1278 PUSH1 0x40 MLOAD PUSH1 0x40 MLOAD DUP1 SWAP2 SUB SWAP1 LOG3 POP JUMP JUMPDEST DUP1 PUSH1 0x2 PUSH0 PUSH2 0x100 EXP DUP2 SLOAD DUP2 PUSH20 0xFFFFFFFFFFFFFFFFFFFFFFFFFFFFFFFFFFFFFFFF MUL NOT AND SWAP1 DUP4 PUSH20 0xFFFFFFFFFFFFFFFFFFFFFFFFFFFFFFFFFFFFFFFF AND MUL OR SWAP1 SSTORE POP POP JUMP JUMPDEST DUP1 PUSH1 0x3 PUSH0 PUSH2 0x100 EXP DUP2 SLOAD DUP2 PUSH20 0xFFFFFFFFFFFFFFFFFFFFFFFFFFFFFFFFFFFFFFFF MUL NOT AND SWAP1 DUP4 PUSH20 0xFFFFFFFFFFFFFFFFFFFFFFFFFFFFFFFFFFFFFFFF AND MUL OR SWAP1 SSTORE POP POP JUMP JUMPDEST PUSH0 DUP3 DUP3 MSTORE PUSH1 0x20 DUP3 ADD SWAP1 POP SWAP3 SWAP2 POP POP JUMP JUMPDEST PUSH32 0x43616E6E6F7420736574206F776E657220746F207A65726F0000000000000000 PUSH0 DUP3 ADD MSTORE POP JUMP JUMPDEST PUSH0 PUSH2 0x39B PUSH1 0x18 DUP4 PUSH2 0x357 JUMP JUMPDEST SWAP2 POP PUSH2 0x3A6 DUP3 PUSH2 0x367 JUMP JUMPDEST PUSH1 0x20 DUP3 ADD SWAP1 POP SWAP2 SWAP1 POP JUMP JUMPDEST PUSH0 PUSH1 0x20 DUP3 ADD SWAP1 POP DUP2 DUP2 SUB PUSH0 DUP4 ADD MSTORE PUSH2 0x3C8 DUP2 PUSH2 0x38F JUMP JUMPDEST SWAP1 POP SWAP2 SWAP1 POP JUMP JUMPDEST PUSH0 DUP2 SWAP1 POP SWAP2 SWAP1 POP JUMP JUMPDEST PUSH32 0x4E487B7100000000000000000000000000000000000000000000000000000000 PUSH0 MSTORE PUSH1 0x11 PUSH1 0x4 MSTORE PUSH1 0x24 PUSH0 REVERT JUMPDEST PUSH0 PUSH2 0x40F DUP3 PUSH2 0x3CF JUMP JUMPDEST SWAP2 POP PUSH2 0x41A DUP4 PUSH2 0x3CF JUMP JUMPDEST SWAP3 POP DUP3 DUP3 MUL PUSH2 0x428 DUP2 PUSH2 0x3CF JUMP JUMPDEST SWAP2 POP DUP3 DUP3 DIV DUP5 EQ DUP4 ISZERO OR PUSH2 0x43F JUMPI PUSH2 0x43E PUSH2 0x3D8 JUMP JUMPDEST JUMPDEST POP SWAP3 SWAP2 POP POP JUMP JUMPDEST PUSH32 0x4E487B7100000000000000000000000000000000000000000000000000000000 PUSH0 MSTORE PUSH1 0x12 PUSH1 0x4 MSTORE PUSH1 0x24 PUSH0 REVERT JUMPDEST PUSH0 PUSH2 0x47D DUP3 PUSH2 0x3CF JUMP JUMPDEST SWAP2 POP PUSH2 0x488 DUP4 PUSH2 0x3CF JUMP JUMPDEST SWAP3 POP DUP3 PUSH2 0x498 JUMPI PUSH2 0x497 PUSH2 0x446 JUMP JUMPDEST JUMPDEST DUP3 DUP3 DIV SWAP1 POP SWAP3 SWAP2 POP POP JUMP JUMPDEST PUSH32 0x43616E6E6F74207472616E7366657220746F2073656C66000000000000000000 PUSH0 DUP3 ADD MSTORE POP JUMP JUMPDEST PUSH0 PUSH2 0x4D7 PUSH1 0x17 DUP4 PUSH2 0x357 JUMP JUMPDEST SWAP2 POP PUSH2 0x4E2 DUP3 PUSH2 0x4A3 JUMP JUMPDEST PUSH1 0x20 DUP3 ADD SWAP1 POP SWAP2 SWAP1 POP JUMP JUMPDEST PUSH0 PUSH1 0x20 DUP3 ADD SWAP1 POP DUP2 DUP2 SUB PUSH0 DUP4 ADD MSTORE PUSH2 0x504 DUP2 PUSH2 0x4CB JUMP JUMPDEST SWAP1 POP SWAP2 SWAP1 POP JUMP JUMPDEST PUSH2 0x2007 DUP1 PUSH2 0x518 PUSH0 CODECOPY PUSH0 RETURN INVALID PUSH1 0x80 PUSH1 0x40 MSTORE CALLVALUE DUP1 ISZERO PUSH2 0xF JUMPI PUSH0 PUSH0 REVERT JUMPDEST POP PUSH1 0x4 CALLDATASIZE LT PUSH2 0x91 JUMPI PUSH0 CALLDATALOAD PUSH1 0xE0 SHR DUP1 PUSH4 0x8DC654A2 GT PUSH2 0x64 JUMPI DUP1 PUSH4 0x8DC654A2 EQ PUSH2 0x109 JUMPI DUP1 PUSH4 0x9A5B1339 EQ PUSH2 0x113 JUMPI DUP1 PUSH4 0xA210D9D0 EQ PUSH2 0x131 JUMPI DUP1 PUSH4 0xA6DC6771 EQ PUSH2 0x14F JUMPI DUP1 PUSH4 0xF2FDE38B EQ PUSH2 0x16D JUMPI PUSH2 0x91 JUMP JUMPDEST DUP1 PUSH4 0x2ADB9E3C EQ PUSH2 0x95 JUMPI DUP1 PUSH4 0x37DB7FAE EQ PUSH2 0xC5 JUMPI DUP1 PUSH4 0x79BA5097 EQ PUSH2 0xE1 JUMPI DUP1 PUSH4 0x8DA5CB5B EQ PUSH2 0xEB JUMPI JUMPDEST PUSH0 PUSH0 REVERT JUMPDEST PUSH2 0xAF PUSH1 0x4 DUP1 CALLDATASIZE SUB DUP2 ADD SWAP1 PUSH2 0xAA SWAP2 SWAP1 PUSH2 0x13BD JUMP JUMPDEST PUSH2 0x189 JUMP JUMPDEST PUSH1 0x40 MLOAD PUSH2 0xBC SWAP2 SWAP1 PUSH2 0x1400 JUMP JUMPDEST PUSH1 0x40 MLOAD DUP1 SWAP2 SUB SWAP1 RETURN JUMPDEST PUSH2 0xDF PUSH1 0x4 DUP1 CALLDATASIZE SUB DUP2 ADD SWAP1 PUSH2 0xDA SWAP2 SWAP1 PUSH2 0x1443 JUMP JUMPDEST PUSH2 0x490 JUMP JUMPDEST STOP JUMPDEST PUSH2 0xE9 PUSH2 0x5E1 JUMP JUMPDEST STOP JUMPDEST PUSH2 0xF3 PUSH2 0x772 JUMP JUMPDEST PUSH1 0x40 MLOAD PUSH2 0x100 SWAP2 SWAP1 PUSH2 0x14E6 JUMP JUMPDEST PUSH1 0x40 MLOAD DUP1 SWAP2 SUB SWAP1 RETURN JUMPDEST PUSH2 0x111 PUSH2 0x79A JUMP JUMPDEST STOP JUMPDEST PUSH2 0x11B PUSH2 0x8E1 JUMP JUMPDEST PUSH1 0x40 MLOAD PUSH2 0x128 SWAP2 SWAP1 PUSH2 0x150E JUMP JUMPDEST PUSH1 0x40 MLOAD DUP1 SWAP2 SUB SWAP1 RETURN JUMPDEST PUSH2 0x139 PUSH2 0x8E7 JUMP JUMPDEST PUSH1 0x40 MLOAD PUSH2 0x146 SWAP2 SWAP1 PUSH2 0x150E JUMP JUMPDEST PUSH1 0x40 MLOAD DUP1 SWAP2 SUB SWAP1 RETURN JUMPDEST PUSH2 0x157 PUSH2 0x8ED JUMP JUMPDEST PUSH1 0x40 MLOAD PUSH2 0x164 SWAP2 SWAP1 PUSH2 0x150E JUMP JUMPDEST PUSH1 0x40 MLOAD DUP1 SWAP2 SUB SWAP1 RETURN JUMPDEST PUSH2 0x187 PUSH1 0x4 DUP1 CALLDATASIZE SUB DUP2 ADD SWAP1 PUSH2 0x182 SWAP2 SWAP1 PUSH2 0x1551 JUMP JUMPDEST PUSH2 0x8F3 JUMP JUMPDEST STOP JUMPDEST PUSH0 PUSH0 PUSH2 0x19F PUSH1 0xB SLOAD ADDRESS PUSH4 0x37DB7FAE PUSH1 0xE0 SHL PUSH2 0x907 JUMP JUMPDEST SWAP1 POP PUSH2 0x203 PUSH1 0x40 MLOAD DUP1 PUSH1 0x40 ADD PUSH1 0x40 MSTORE DUP1 PUSH1 0x6 DUP2 MSTORE PUSH1 0x20 ADD PUSH32 0x75726C4254430000000000000000000000000000000000000000000000000000 DUP2 MSTORE POP PUSH1 0x40 MLOAD DUP1 PUSH1 0x60 ADD PUSH1 0x40 MSTORE DUP1 PUSH1 0x3F DUP2 MSTORE PUSH1 0x20 ADD PUSH2 0x1F54 PUSH1 0x3F SWAP2 CODECOPY DUP4 PUSH2 0x938 SWAP1 SWAP3 SWAP2 SWAP1 PUSH4 0xFFFFFFFF AND JUMP JUMPDEST PUSH2 0x282 PUSH1 0x40 MLOAD DUP1 PUSH1 0x40 ADD PUSH1 0x40 MSTORE DUP1 PUSH1 0x7 DUP2 MSTORE PUSH1 0x20 ADD PUSH32 0x7061746842544300000000000000000000000000000000000000000000000000 DUP2 MSTORE POP PUSH1 0x40 MLOAD DUP1 PUSH1 0x40 ADD PUSH1 0x40 MSTORE DUP1 PUSH1 0x3 DUP2 MSTORE PUSH1 0x20 ADD PUSH32 0x4254430000000000000000000000000000000000000000000000000000000000 DUP2 MSTORE POP DUP4 PUSH2 0x938 SWAP1 SWAP3 SWAP2 SWAP1 PUSH4 0xFFFFFFFF AND JUMP JUMPDEST PUSH2 0x2E4 PUSH1 0x40 MLOAD DUP1 PUSH1 0x40 ADD PUSH1 0x40 MSTORE DUP1 PUSH1 0x6 DUP2 MSTORE PUSH1 0x20 ADD PUSH32 0x75726C5553440000000000000000000000000000000000000000000000000000 DUP2 MSTORE POP PUSH1 0x40 MLOAD DUP1 PUSH1 0x60 ADD PUSH1 0x40 MSTORE DUP1 PUSH1 0x3F DUP2 MSTORE PUSH1 0x20 ADD PUSH2 0x1F15 PUSH1 0x3F SWAP2 CODECOPY DUP4 PUSH2 0x938 SWAP1 SWAP3 SWAP2 SWAP1 PUSH4 0xFFFFFFFF AND JUMP JUMPDEST PUSH2 0x363 PUSH1 0x40 MLOAD DUP1 PUSH1 0x40 ADD PUSH1 0x40 MSTORE DUP1 PUSH1 0x7 DUP2 MSTORE PUSH1 0x20 ADD PUSH32 0x7061746855534400000000000000000000000000000000000000000000000000 DUP2 MSTORE POP PUSH1 0x40 MLOAD DUP1 PUSH1 0x40 ADD PUSH1 0x40 MSTORE DUP1 PUSH1 0x3 DUP2 MSTORE PUSH1 0x20 ADD PUSH32 0x5553440000000000000000000000000000000000000000000000000000000000 DUP2 MSTORE POP DUP4 PUSH2 0x938 SWAP1 SWAP3 SWAP2 SWAP1 PUSH4 0xFFFFFFFF AND JUMP JUMPDEST PUSH2 0x3C5 PUSH1 0x40 MLOAD DUP1 PUSH1 0x40 ADD PUSH1 0x40 MSTORE DUP1 PUSH1 0x6 DUP2 MSTORE PUSH1 0x20 ADD PUSH32 0x75726C4555520000000000000000000000000000000000000000000000000000 DUP2 MSTORE POP PUSH1 0x40 MLOAD DUP1 PUSH1 0x60 ADD PUSH1 0x40 MSTORE DUP1 PUSH1 0x3F DUP2 MSTORE PUSH1 0x20 ADD PUSH2 0x1F93 PUSH1 0x3F SWAP2 CODECOPY DUP4 PUSH2 0x938 SWAP1 SWAP3 SWAP2 SWAP1 PUSH4 0xFFFFFFFF AND JUMP JUMPDEST PUSH2 0x444 PUSH1 0x40 MLOAD DUP1 PUSH1 0x40 ADD PUSH1 0x40 MSTORE DUP1 PUSH1 0x7 DUP2 MSTORE PUSH1 0x20 ADD PUSH32 0x7061746845555200000000000000000000000000000000000000000000000000 DUP2 MSTORE POP PUSH1 0x40 MLOAD DUP1 PUSH1 0x40 ADD PUSH1 0x40 MSTORE DUP1 PUSH1 0x3 DUP2 MSTORE PUSH1 0x20 ADD PUSH32 0x4555520000000000000000000000000000000000000000000000000000000000 DUP2 MSTORE POP DUP4 PUSH2 0x938 SWAP1 SWAP3 SWAP2 SWAP1 PUSH4 0xFFFFFFFF AND JUMP JUMPDEST PUSH32 0x4953E1E253D3404572E66D2BE3E7889846DB195DFC203305A4810D16100DFD11 PUSH1 0x1 PUSH1 0x40 MLOAD PUSH2 0x474 SWAP2 SWAP1 PUSH2 0x1618 JUMP JUMPDEST PUSH1 0x40 MLOAD DUP1 SWAP2 SUB SWAP1 LOG1 PUSH2 0x488 DUP2 PUSH1 0xC SLOAD PUSH2 0x96B JUMP JUMPDEST SWAP2 POP POP SWAP2 SWAP1 POP JUMP JUMPDEST DUP4 PUSH1 0x5 PUSH0 DUP3 DUP2 MSTORE PUSH1 0x20 ADD SWAP1 DUP2 MSTORE PUSH1 0x20 ADD PUSH0 KECCAK256 PUSH0 SWAP1 SLOAD SWAP1 PUSH2 0x100 EXP SWAP1 DIV PUSH20 0xFFFFFFFFFFFFFFFFFFFFFFFFFFFFFFFFFFFFFFFF AND PUSH20 0xFFFFFFFFFFFFFFFFFFFFFFFFFFFFFFFFFFFFFFFF AND CALLER PUSH20 0xFFFFFFFFFFFFFFFFFFFFFFFFFFFFFFFFFFFFFFFF AND EQ PUSH2 0x52F JUMPI PUSH1 0x40 MLOAD PUSH32 0x8C379A000000000000000000000000000000000000000000000000000000000 DUP2 MSTORE PUSH1 0x4 ADD PUSH2 0x526 SWAP1 PUSH2 0x16B4 JUMP JUMPDEST PUSH1 0x40 MLOAD DUP1 SWAP2 SUB SWAP1 REVERT JUMPDEST PUSH1 0x5 PUSH0 DUP3 DUP2 MSTORE PUSH1 0x20 ADD SWAP1 DUP2 MSTORE PUSH1 0x20 ADD PUSH0 KECCAK256 PUSH0 PUSH2 0x100 EXP DUP2 SLOAD SWAP1 PUSH20 0xFFFFFFFFFFFFFFFFFFFFFFFFFFFFFFFFFFFFFFFF MUL NOT AND SWAP1 SSTORE DUP1 PUSH32 0x7CC135E0CEBB02C3480AE5D74D377283180A2601F8F644EDF7987B009316C63A PUSH1 0x40 MLOAD PUSH1 0x40 MLOAD DUP1 SWAP2 SUB SWAP1 LOG2 DUP5 PUSH32 0x9BA3B568D237411B006CD782AA975FD1783097CB4198316E11A24CF10F4F3F8E PUSH1 0x40 MLOAD PUSH2 0x5BD SWAP1 PUSH2 0x171C JUMP JUMPDEST PUSH1 0x40 MLOAD DUP1 SWAP2 SUB SWAP1 LOG2 DUP4 PUSH1 0x9 DUP2 SWAP1 SSTORE POP DUP3 PUSH1 0x8 DUP2 SWAP1 SSTORE POP DUP2 PUSH1 0xA DUP2 SWAP1 SSTORE POP POP POP POP POP POP JUMP JUMPDEST PUSH1 0x7 PUSH0 SWAP1 SLOAD SWAP1 PUSH2 0x100 EXP SWAP1 DIV PUSH20 0xFFFFFFFFFFFFFFFFFFFFFFFFFFFFFFFFFFFFFFFF AND PUSH20 0xFFFFFFFFFFFFFFFFFFFFFFFFFFFFFFFFFFFFFFFF AND CALLER PUSH20 0xFFFFFFFFFFFFFFFFFFFFFFFFFFFFFFFFFFFFFFFF AND EQ PUSH2 0x670 JUMPI PUSH1 0x40 MLOAD PUSH32 0x8C379A000000000000000000000000000000000000000000000000000000000 DUP2 MSTORE PUSH1 0x4 ADD PUSH2 0x667 SWAP1 PUSH2 0x1784 JUMP JUMPDEST PUSH1 0x40 MLOAD DUP1 SWAP2 SUB SWAP1 REVERT JUMPDEST PUSH0 PUSH1 0x6 PUSH0 SWAP1 SLOAD SWAP1 PUSH2 0x100 EXP SWAP1 DIV PUSH20 0xFFFFFFFFFFFFFFFFFFFFFFFFFFFFFFFFFFFFFFFF AND SWAP1 POP CALLER PUSH1 0x6 PUSH0 PUSH2 0x100 EXP DUP2 SLOAD DUP2 PUSH20 0xFFFFFFFFFFFFFFFFFFFFFFFFFFFFFFFFFFFFFFFF MUL NOT AND SWAP1 DUP4 PUSH20 0xFFFFFFFFFFFFFFFFFFFFFFFFFFFFFFFFFFFFFFFF AND MUL OR SWAP1 SSTORE POP PUSH0 PUSH1 0x7 PUSH0 PUSH2 0x100 EXP DUP2 SLOAD DUP2 PUSH20 0xFFFFFFFFFFFFFFFFFFFFFFFFFFFFFFFFFFFFFFFF MUL NOT AND SWAP1 DUP4 PUSH20 0xFFFFFFFFFFFFFFFFFFFFFFFFFFFFFFFFFFFFFFFF AND MUL OR SWAP1 SSTORE POP CALLER PUSH20 0xFFFFFFFFFFFFFFFFFFFFFFFFFFFFFFFFFFFFFFFF AND DUP2 PUSH20 0xFFFFFFFFFFFFFFFFFFFFFFFFFFFFFFFFFFFFFFFF AND PUSH32 0x8BE0079C531659141344CD1FD0A4F28419497F9722A3DAAFE3B4186F6B6457E0 PUSH1 0x40 MLOAD PUSH1 0x40 MLOAD DUP1 SWAP2 SUB SWAP1 LOG3 POP JUMP JUMPDEST PUSH0 PUSH1 0x6 PUSH0 SWAP1 SLOAD SWAP1 PUSH2 0x100 EXP SWAP1 DIV PUSH20 0xFFFFFFFFFFFFFFFFFFFFFFFFFFFFFFFFFFFFFFFF AND SWAP1 POP SWAP1 JUMP JUMPDEST PUSH2 0x7A2 PUSH2 0x9A0 JUMP JUMPDEST PUSH0 PUSH2 0x7AB PUSH2 0xA31 JUMP JUMPDEST SWAP1 POP DUP1 PUSH20 0xFFFFFFFFFFFFFFFFFFFFFFFFFFFFFFFFFFFFFFFF AND PUSH4 0xA9059CBB CALLER DUP4 PUSH20 0xFFFFFFFFFFFFFFFFFFFFFFFFFFFFFFFFFFFFFFFF AND PUSH4 0x70A08231 ADDRESS PUSH1 0x40 MLOAD DUP3 PUSH4 0xFFFFFFFF AND PUSH1 0xE0 SHL DUP2 MSTORE PUSH1 0x4 ADD PUSH2 0x803 SWAP2 SWAP1 PUSH2 0x14E6 JUMP JUMPDEST PUSH1 0x20 PUSH1 0x40 MLOAD DUP1 DUP4 SUB DUP2 DUP7 GAS STATICCALL ISZERO DUP1 ISZERO PUSH2 0x81E JUMPI RETURNDATASIZE PUSH0 PUSH0 RETURNDATACOPY RETURNDATASIZE PUSH0 REVERT JUMPDEST POP POP POP POP PUSH1 0x40 MLOAD RETURNDATASIZE PUSH1 0x1F NOT PUSH1 0x1F DUP3 ADD AND DUP3 ADD DUP1 PUSH1 0x40 MSTORE POP DUP2 ADD SWAP1 PUSH2 0x842 SWAP2 SWAP1 PUSH2 0x17B6 JUMP JUMPDEST PUSH1 0x40 MLOAD DUP4 PUSH4 0xFFFFFFFF AND PUSH1 0xE0 SHL DUP2 MSTORE PUSH1 0x4 ADD PUSH2 0x85F SWAP3 SWAP2 SWAP1 PUSH2 0x17E1 JUMP JUMPDEST PUSH1 0x20 PUSH1 0x40 MLOAD DUP1 DUP4 SUB DUP2 PUSH0 DUP8 GAS CALL ISZERO DUP1 ISZERO PUSH2 0x87B JUMPI RETURNDATASIZE PUSH0 PUSH0 RETURNDATACOPY RETURNDATASIZE PUSH0 REVERT JUMPDEST POP POP POP POP PUSH1 0x40 MLOAD RETURNDATASIZE PUSH1 0x1F NOT PUSH1 0x1F DUP3 ADD AND DUP3 ADD DUP1 PUSH1 0x40 MSTORE POP DUP2 ADD SWAP1 PUSH2 0x89F SWAP2 SWAP1 PUSH2 0x183D JUMP JUMPDEST PUSH2 0x8DE JUMPI PUSH1 0x40 MLOAD PUSH32 0x8C379A000000000000000000000000000000000000000000000000000000000 DUP2 MSTORE PUSH1 0x4 ADD PUSH2 0x8D5 SWAP1 PUSH2 0x18B2 JUMP JUMPDEST PUSH1 0x40 MLOAD DUP1 SWAP2 SUB SWAP1 REVERT JUMPDEST POP JUMP JUMPDEST PUSH1 0x9 SLOAD DUP2 JUMP JUMPDEST PUSH1 0x8 SLOAD DUP2 JUMP JUMPDEST PUSH1 0xA SLOAD DUP2 JUMP JUMPDEST PUSH2 0x8FB PUSH2 0x9A0 JUMP JUMPDEST PUSH2 0x904 DUP2 PUSH2 0xA59 JUMP JUMPDEST POP JUMP JUMPDEST PUSH2 0x90F PUSH2 0x1307 JUMP JUMPDEST PUSH2 0x917 PUSH2 0x1307 JUMP JUMPDEST PUSH2 0x92E DUP6 DUP6 DUP6 DUP5 PUSH2 0xB85 SWAP1 SWAP4 SWAP3 SWAP2 SWAP1 PUSH4 0xFFFFFFFF AND JUMP JUMPDEST SWAP2 POP POP SWAP4 SWAP3 POP POP POP JUMP JUMPDEST PUSH2 0x94F DUP3 DUP5 PUSH1 0x80 ADD MLOAD PUSH2 0xC34 SWAP1 SWAP2 SWAP1 PUSH4 0xFFFFFFFF AND JUMP JUMPDEST PUSH2 0x966 DUP2 DUP5 PUSH1 0x80 ADD MLOAD PUSH2 0xC34 SWAP1 SWAP2 SWAP1 PUSH4 0xFFFFFFFF AND JUMP JUMPDEST POP POP POP JUMP JUMPDEST PUSH0 PUSH2 0x998 PUSH1 0x3 PUSH0 SWAP1 SLOAD SWAP1 PUSH2 0x100 EXP SWAP1 DIV PUSH20 0xFFFFFFFFFFFFFFFFFFFFFFFFFFFFFFFFFFFFFFFF AND DUP5 DUP5 PUSH2 0xC59 JUMP JUMPDEST SWAP1 POP SWAP3 SWAP2 POP POP JUMP JUMPDEST PUSH1 0x6 PUSH0 SWAP1 SLOAD SWAP1 PUSH2 0x100 EXP SWAP1 DIV PUSH20 0xFFFFFFFFFFFFFFFFFFFFFFFFFFFFFFFFFFFFFFFF AND PUSH20 0xFFFFFFFFFFFFFFFFFFFFFFFFFFFFFFFFFFFFFFFF AND CALLER PUSH20 0xFFFFFFFFFFFFFFFFFFFFFFFFFFFFFFFFFFFFFFFF AND EQ PUSH2 0xA2F JUMPI PUSH1 0x40 MLOAD PUSH32 0x8C379A000000000000000000000000000000000000000000000000000000000 DUP2 MSTORE PUSH1 0x4 ADD PUSH2 0xA26 SWAP1 PUSH2 0x191A JUMP JUMPDEST PUSH1 0x40 MLOAD DUP1 SWAP2 SUB SWAP1 REVERT JUMPDEST JUMP JUMPDEST PUSH0 PUSH1 0x2 PUSH0 SWAP1 SLOAD SWAP1 PUSH2 0x100 EXP SWAP1 DIV PUSH20 0xFFFFFFFFFFFFFFFFFFFFFFFFFFFFFFFFFFFFFFFF AND SWAP1 POP SWAP1 JUMP JUMPDEST CALLER PUSH20 0xFFFFFFFFFFFFFFFFFFFFFFFFFFFFFFFFFFFFFFFF AND DUP2 PUSH20 0xFFFFFFFFFFFFFFFFFFFFFFFFFFFFFFFFFFFFFFFF AND SUB PUSH2 0xAC7 JUMPI PUSH1 0x40 MLOAD PUSH32 0x8C379A000000000000000000000000000000000000000000000000000000000 DUP2 MSTORE PUSH1 0x4 ADD PUSH2 0xABE SWAP1 PUSH2 0x1982 JUMP JUMPDEST PUSH1 0x40 MLOAD DUP1 SWAP2 SUB SWAP1 REVERT JUMPDEST DUP1 PUSH1 0x7 PUSH0 PUSH2 0x100 EXP DUP2 SLOAD DUP2 PUSH20 0xFFFFFFFFFFFFFFFFFFFFFFFFFFFFFFFFFFFFFFFF MUL NOT AND SWAP1 DUP4 PUSH20 0xFFFFFFFFFFFFFFFFFFFFFFFFFFFFFFFFFFFFFFFF AND MUL OR SWAP1 SSTORE POP DUP1 PUSH20 0xFFFFFFFFFFFFFFFFFFFFFFFFFFFFFFFFFFFFFFFF AND PUSH1 0x6 PUSH0 SWAP1 SLOAD SWAP1 PUSH2 0x100 EXP SWAP1 DIV PUSH20 0xFFFFFFFFFFFFFFFFFFFFFFFFFFFFFFFFFFFFFFFF AND PUSH20 0xFFFFFFFFFFFFFFFFFFFFFFFFFFFFFFFFFFFFFFFF AND PUSH32 0xED8889F560326EB138920D842192F0EB3DD22B4F139C87A2C57538E05BAE1278 PUSH1 0x40 MLOAD PUSH1 0x40 MLOAD DUP1 SWAP2 SUB SWAP1 LOG3 POP JUMP JUMPDEST PUSH2 0xB8D PUSH2 0x1307 JUMP JUMPDEST PUSH2 0xB9D DUP6 PUSH1 0x80 ADD MLOAD PUSH2 0x100 PUSH2 0xD20 JUMP JUMPDEST POP DUP4 DUP6 PUSH0 ADD DUP2 DUP2 MSTORE POP POP DUP3 DUP6 PUSH1 0x20 ADD SWAP1 PUSH20 0xFFFFFFFFFFFFFFFFFFFFFFFFFFFFFFFFFFFFFFFF AND SWAP1 DUP2 PUSH20 0xFFFFFFFFFFFFFFFFFFFFFFFFFFFFFFFFFFFFFFFF AND DUP2 MSTORE POP POP DUP2 DUP6 PUSH1 0x40 ADD SWAP1 PUSH28 0xFFFFFFFFFFFFFFFFFFFFFFFFFFFFFFFFFFFFFFFFFFFFFFFFFFFFFFFF NOT AND SWAP1 DUP2 PUSH28 0xFFFFFFFFFFFFFFFFFFFFFFFFFFFFFFFFFFFFFFFFFFFFFFFFFFFFFFFF NOT AND DUP2 MSTORE POP POP DUP5 SWAP1 POP SWAP5 SWAP4 POP POP POP POP JUMP JUMPDEST PUSH2 0xC41 DUP3 PUSH1 0x3 DUP4 MLOAD PUSH2 0xD88 JUMP JUMPDEST PUSH2 0xC54 DUP2 DUP4 PUSH2 0xF0D SWAP1 SWAP2 SWAP1 PUSH4 0xFFFFFFFF AND JUMP JUMPDEST POP POP POP JUMP JUMPDEST PUSH0 PUSH0 PUSH1 0x4 SLOAD SWAP1 POP PUSH1 0x1 DUP2 PUSH2 0xC6D SWAP2 SWAP1 PUSH2 0x19CD JUMP JUMPDEST PUSH1 0x4 DUP2 SWAP1 SSTORE POP PUSH0 PUSH4 0x40429946 PUSH1 0xE0 SHL PUSH0 PUSH0 DUP8 PUSH0 ADD MLOAD ADDRESS DUP10 PUSH1 0x40 ADD MLOAD DUP8 PUSH1 0x1 DUP13 PUSH1 0x80 ADD MLOAD PUSH0 ADD MLOAD PUSH1 0x40 MLOAD PUSH1 0x24 ADD PUSH2 0xCAA SWAP9 SWAP8 SWAP7 SWAP6 SWAP5 SWAP4 SWAP3 SWAP2 SWAP1 PUSH2 0x1AAA JUMP JUMPDEST PUSH1 0x40 MLOAD PUSH1 0x20 DUP2 DUP4 SUB SUB DUP2 MSTORE SWAP1 PUSH1 0x40 MSTORE SWAP1 PUSH28 0xFFFFFFFFFFFFFFFFFFFFFFFFFFFFFFFFFFFFFFFFFFFFFFFFFFFFFFFF NOT AND PUSH1 0x20 DUP3 ADD DUP1 MLOAD PUSH28 0xFFFFFFFFFFFFFFFFFFFFFFFFFFFFFFFFFFFFFFFFFFFFFFFFFFFFFFFF DUP4 DUP2 DUP4 AND OR DUP4 MSTORE POP POP POP POP SWAP1 POP PUSH2 0xD15 DUP7 DUP4 DUP7 DUP5 PUSH2 0xF2E JUMP JUMPDEST SWAP3 POP POP POP SWAP4 SWAP3 POP POP POP JUMP JUMPDEST PUSH2 0xD28 PUSH2 0x136D JUMP JUMPDEST PUSH0 PUSH1 0x20 DUP4 PUSH2 0xD36 SWAP2 SWAP1 PUSH2 0x1B5A JUMP JUMPDEST EQ PUSH2 0xD62 JUMPI PUSH1 0x20 DUP3 PUSH2 0xD48 SWAP2 SWAP1 PUSH2 0x1B5A JUMP JUMPDEST PUSH1 0x20 PUSH2 0xD54 SWAP2 SWAP1 PUSH2 0x1B8A JUMP JUMPDEST DUP3 PUSH2 0xD5F SWAP2 SWAP1 PUSH2 0x19CD JUMP JUMPDEST SWAP2 POP JUMPDEST DUP2 DUP4 PUSH1 0x20 ADD DUP2 DUP2 MSTORE POP POP PUSH1 0x40 MLOAD DUP1 DUP5 MSTORE PUSH0 DUP2 MSTORE DUP3 DUP2 ADD PUSH1 0x20 ADD PUSH1 0x40 MSTORE POP DUP3 SWAP1 POP SWAP3 SWAP2 POP POP JUMP JUMPDEST PUSH1 0x17 DUP2 PUSH8 0xFFFFFFFFFFFFFFFF AND GT PUSH2 0xDBF JUMPI PUSH2 0xDB9 DUP2 PUSH1 0x5 DUP5 PUSH1 0xFF AND SWAP1 SHL PUSH1 0xFF AND OR DUP5 PUSH2 0x10BB SWAP1 SWAP2 SWAP1 PUSH4 0xFFFFFFFF AND JUMP JUMPDEST POP PUSH2 0xF08 JUMP JUMPDEST PUSH1 0xFF DUP2 PUSH8 0xFFFFFFFFFFFFFFFF AND GT PUSH2 0xE15 JUMPI PUSH2 0xDEE PUSH1 0x18 PUSH1 0x5 DUP5 PUSH1 0xFF AND SWAP1 SHL OR DUP5 PUSH2 0x10BB SWAP1 SWAP2 SWAP1 PUSH4 0xFFFFFFFF AND JUMP JUMPDEST POP PUSH2 0xE0F DUP2 PUSH8 0xFFFFFFFFFFFFFFFF AND PUSH1 0x1 DUP6 PUSH2 0x10DA SWAP1 SWAP3 SWAP2 SWAP1 PUSH4 0xFFFFFFFF AND JUMP JUMPDEST POP PUSH2 0xF07 JUMP JUMPDEST PUSH2 0xFFFF DUP2 PUSH8 0xFFFFFFFFFFFFFFFF AND GT PUSH2 0xE6C JUMPI PUSH2 0xE45 PUSH1 0x19 PUSH1 0x5 DUP5 PUSH1 0xFF AND SWAP1 SHL OR DUP5 PUSH2 0x10BB SWAP1 SWAP2 SWAP1 PUSH4 0xFFFFFFFF AND JUMP JUMPDEST POP PUSH2 0xE66 DUP2 PUSH8 0xFFFFFFFFFFFFFFFF AND PUSH1 0x2 DUP6 PUSH2 0x10DA SWAP1 SWAP3 SWAP2 SWAP1 PUSH4 0xFFFFFFFF AND JUMP JUMPDEST POP PUSH2 0xF06 JUMP JUMPDEST PUSH4 0xFFFFFFFF DUP2 PUSH8 0xFFFFFFFFFFFFFFFF AND GT PUSH2 0xEC5 JUMPI PUSH2 0xE9E PUSH1 0x1A PUSH1 0x5 DUP5 PUSH1 0xFF AND SWAP1 SHL OR DUP5 PUSH2 0x10BB SWAP1 SWAP2 SWAP1 PUSH4 0xFFFFFFFF AND JUMP JUMPDEST POP PUSH2 0xEBF DUP2 PUSH8 0xFFFFFFFFFFFFFFFF AND PUSH1 0x4 DUP6 PUSH2 0x10DA SWAP1 SWAP3 SWAP2 SWAP1 PUSH4 0xFFFFFFFF AND JUMP JUMPDEST POP PUSH2 0xF05 JUMP JUMPDEST PUSH2 0xEE2 PUSH1 0x1B PUSH1 0x5 DUP5 PUSH1 0xFF AND SWAP1 SHL OR DUP5 PUSH2 0x10BB SWAP1 SWAP2 SWAP1 PUSH4 0xFFFFFFFF AND JUMP JUMPDEST POP PUSH2 0xF03 DUP2 PUSH8 0xFFFFFFFFFFFFFFFF AND PUSH1 0x8 DUP6 PUSH2 0x10DA SWAP1 SWAP3 SWAP2 SWAP1 PUSH4 0xFFFFFFFF AND JUMP JUMPDEST POP JUMPDEST JUMPDEST JUMPDEST JUMPDEST POP POP POP JUMP JUMPDEST PUSH2 0xF15 PUSH2 0x136D JUMP JUMPDEST PUSH2 0xF26 DUP4 DUP5 PUSH0 ADD MLOAD MLOAD DUP5 DUP6 MLOAD PUSH2 0x10FB JUMP JUMPDEST SWAP1 POP SWAP3 SWAP2 POP POP JUMP JUMPDEST PUSH0 ADDRESS DUP5 PUSH1 0x40 MLOAD PUSH1 0x20 ADD PUSH2 0xF42 SWAP3 SWAP2 SWAP1 PUSH2 0x1C65 JUMP JUMPDEST PUSH1 0x40 MLOAD PUSH1 0x20 DUP2 DUP4 SUB SUB DUP2 MSTORE SWAP1 PUSH1 0x40 MSTORE DUP1 MLOAD SWAP1 PUSH1 0x20 ADD KECCAK256 SWAP1 POP DUP5 PUSH1 0x5 PUSH0 DUP4 DUP2 MSTORE PUSH1 0x20 ADD SWAP1 DUP2 MSTORE PUSH1 0x20 ADD PUSH0 KECCAK256 PUSH0 PUSH2 0x100 EXP DUP2 SLOAD DUP2 PUSH20 0xFFFFFFFFFFFFFFFFFFFFFFFFFFFFFFFFFFFFFFFF MUL NOT AND SWAP1 DUP4 PUSH20 0xFFFFFFFFFFFFFFFFFFFFFFFFFFFFFFFFFFFFFFFF AND MUL OR SWAP1 SSTORE POP DUP1 PUSH32 0xB5E6E01E79F91267DC17B4E6314D5D4D03593D2CEEE0FBB452B750BD70EA5AF9 PUSH1 0x40 MLOAD PUSH1 0x40 MLOAD DUP1 SWAP2 SUB SWAP1 LOG2 PUSH1 0x2 PUSH0 SWAP1 SLOAD SWAP1 PUSH2 0x100 EXP SWAP1 DIV PUSH20 0xFFFFFFFFFFFFFFFFFFFFFFFFFFFFFFFFFFFFFFFF AND PUSH20 0xFFFFFFFFFFFFFFFFFFFFFFFFFFFFFFFFFFFFFFFF AND PUSH4 0x4000AEA0 DUP7 DUP6 DUP6 PUSH1 0x40 MLOAD DUP5 PUSH4 0xFFFFFFFF AND PUSH1 0xE0 SHL DUP2 MSTORE PUSH1 0x4 ADD PUSH2 0x1034 SWAP4 SWAP3 SWAP2 SWAP1 PUSH2 0x1C90 JUMP JUMPDEST PUSH1 0x20 PUSH1 0x40 MLOAD DUP1 DUP4 SUB DUP2 PUSH0 DUP8 GAS CALL ISZERO DUP1 ISZERO PUSH2 0x1050 JUMPI RETURNDATASIZE PUSH0 PUSH0 RETURNDATACOPY RETURNDATASIZE PUSH0 REVERT JUMPDEST POP POP POP POP PUSH1 0x40 MLOAD RETURNDATASIZE PUSH1 0x1F NOT PUSH1 0x1F DUP3 ADD AND DUP3 ADD DUP1 PUSH1 0x40 MSTORE POP DUP2 ADD SWAP1 PUSH2 0x1074 SWAP2 SWAP1 PUSH2 0x183D JUMP JUMPDEST PUSH2 0x10B3 JUMPI PUSH1 0x40 MLOAD PUSH32 0x8C379A000000000000000000000000000000000000000000000000000000000 DUP2 MSTORE PUSH1 0x4 ADD PUSH2 0x10AA SWAP1 PUSH2 0x1D3C JUMP JUMPDEST PUSH1 0x40 MLOAD DUP1 SWAP2 SUB SWAP1 REVERT JUMPDEST SWAP5 SWAP4 POP POP POP POP JUMP JUMPDEST PUSH2 0x10C3 PUSH2 0x136D JUMP JUMPDEST PUSH2 0x10D2 DUP4 DUP5 PUSH0 ADD MLOAD MLOAD DUP5 PUSH2 0x11E7 JUMP JUMPDEST SWAP1 POP SWAP3 SWAP2 POP POP JUMP JUMPDEST PUSH2 0x10E2 PUSH2 0x136D JUMP JUMPDEST PUSH2 0x10F2 DUP5 DUP6 PUSH0 ADD MLOAD MLOAD DUP6 DUP6 PUSH2 0x123D JUMP JUMPDEST SWAP1 POP SWAP4 SWAP3 POP POP POP JUMP JUMPDEST PUSH2 0x1103 PUSH2 0x136D JUMP JUMPDEST DUP3 MLOAD DUP3 GT ISZERO PUSH2 0x1110 JUMPI PUSH0 PUSH0 REVERT JUMPDEST DUP5 PUSH1 0x20 ADD MLOAD DUP3 DUP6 PUSH2 0x1121 SWAP2 SWAP1 PUSH2 0x19CD JUMP JUMPDEST GT ISZERO PUSH2 0x1156 JUMPI PUSH2 0x1155 DUP6 PUSH1 0x2 PUSH2 0x1146 DUP9 PUSH1 0x20 ADD MLOAD DUP9 DUP8 PUSH2 0x1141 SWAP2 SWAP1 PUSH2 0x19CD JUMP JUMPDEST PUSH2 0x12CA JUMP JUMPDEST PUSH2 0x1150 SWAP2 SWAP1 PUSH2 0x1D5A JUMP JUMPDEST PUSH2 0x12E5 JUMP JUMPDEST JUMPDEST PUSH0 PUSH0 DUP7 MLOAD DUP1 MLOAD DUP8 PUSH1 0x20 DUP4 ADD ADD SWAP4 POP DUP1 DUP9 DUP8 ADD GT ISZERO PUSH2 0x1174 JUMPI DUP8 DUP7 ADD DUP3 MSTORE JUMPDEST PUSH1 0x20 DUP8 ADD SWAP3 POP POP POP JUMPDEST PUSH1 0x20 DUP5 LT PUSH2 0x11BB JUMPI DUP1 MLOAD DUP3 MSTORE PUSH1 0x20 DUP3 PUSH2 0x1196 SWAP2 SWAP1 PUSH2 0x19CD JUMP JUMPDEST SWAP2 POP PUSH1 0x20 DUP2 PUSH2 0x11A5 SWAP2 SWAP1 PUSH2 0x19CD JUMP JUMPDEST SWAP1 POP PUSH1 0x20 DUP5 PUSH2 0x11B4 SWAP2 SWAP1 PUSH2 0x1B8A JUMP JUMPDEST SWAP4 POP PUSH2 0x117D JUMP JUMPDEST PUSH0 PUSH1 0x1 DUP6 PUSH1 0x20 SUB PUSH2 0x100 EXP SUB SWAP1 POP DUP1 NOT DUP3 MLOAD AND DUP2 DUP5 MLOAD AND DUP2 DUP2 OR DUP6 MSTORE POP POP POP DUP7 SWAP3 POP POP POP SWAP5 SWAP4 POP POP POP POP JUMP JUMPDEST PUSH2 0x11EF PUSH2 0x136D JUMP JUMPDEST DUP4 PUSH1 0x20 ADD MLOAD DUP4 LT PUSH2 0x1215 JUMPI PUSH2 0x1214 DUP5 PUSH1 0x2 DUP7 PUSH1 0x20 ADD MLOAD PUSH2 0x120F SWAP2 SWAP1 PUSH2 0x1D5A JUMP JUMPDEST PUSH2 0x12E5 JUMP JUMPDEST JUMPDEST DUP4 MLOAD DUP1 MLOAD PUSH1 0x20 DUP6 DUP4 ADD ADD DUP5 DUP2 MSTORE8 DUP2 DUP7 SUB PUSH2 0x1230 JUMPI PUSH1 0x1 DUP3 ADD DUP4 MSTORE JUMPDEST POP POP POP DUP4 SWAP1 POP SWAP4 SWAP3 POP POP POP JUMP JUMPDEST PUSH2 0x1245 PUSH2 0x136D JUMP JUMPDEST DUP5 PUSH1 0x20 ADD MLOAD DUP5 DUP4 PUSH2 0x1256 SWAP2 SWAP1 PUSH2 0x19CD JUMP JUMPDEST GT ISZERO PUSH2 0x127E JUMPI PUSH2 0x127D DUP6 PUSH1 0x2 DUP7 DUP6 PUSH2 0x126E SWAP2 SWAP1 PUSH2 0x19CD JUMP JUMPDEST PUSH2 0x1278 SWAP2 SWAP1 PUSH2 0x1D5A JUMP JUMPDEST PUSH2 0x12E5 JUMP JUMPDEST JUMPDEST PUSH0 PUSH1 0x1 DUP4 PUSH2 0x100 PUSH2 0x128F SWAP2 SWAP1 PUSH2 0x1ECA JUMP JUMPDEST PUSH2 0x1299 SWAP2 SWAP1 PUSH2 0x1B8A JUMP JUMPDEST SWAP1 POP DUP6 MLOAD DUP4 DUP7 DUP3 ADD ADD DUP6 DUP4 NOT DUP3 MLOAD AND OR DUP2 MSTORE DUP2 MLOAD DUP6 DUP9 ADD GT ISZERO PUSH2 0x12BC JUMPI DUP5 DUP8 ADD DUP3 MSTORE JUMPDEST POP POP DUP6 SWAP2 POP POP SWAP5 SWAP4 POP POP POP POP JUMP JUMPDEST PUSH0 DUP2 DUP4 GT ISZERO PUSH2 0x12DB JUMPI DUP3 SWAP1 POP PUSH2 0x12DF JUMP JUMPDEST DUP2 SWAP1 POP JUMPDEST SWAP3 SWAP2 POP POP JUMP JUMPDEST PUSH0 DUP3 PUSH0 ADD MLOAD SWAP1 POP PUSH2 0x12F6 DUP4 DUP4 PUSH2 0xD20 JUMP JUMPDEST POP PUSH2 0x1301 DUP4 DUP3 PUSH2 0xF0D JUMP JUMPDEST POP POP POP POP JUMP JUMPDEST PUSH1 0x40 MLOAD DUP1 PUSH1 0xA0 ADD PUSH1 0x40 MSTORE DUP1 PUSH0 DUP2 MSTORE PUSH1 0x20 ADD PUSH0 PUSH20 0xFFFFFFFFFFFFFFFFFFFFFFFFFFFFFFFFFFFFFFFF AND DUP2 MSTORE PUSH1 0x20 ADD PUSH0 PUSH28 0xFFFFFFFFFFFFFFFFFFFFFFFFFFFFFFFFFFFFFFFFFFFFFFFFFFFFFFFF NOT AND DUP2 MSTORE PUSH1 0x20 ADD PUSH0 DUP2 MSTORE PUSH1 0x20 ADD PUSH2 0x1367 PUSH2 0x136D JUMP JUMPDEST DUP2 MSTORE POP SWAP1 JUMP JUMPDEST PUSH1 0x40 MLOAD DUP1 PUSH1 0x40 ADD PUSH1 0x40 MSTORE DUP1 PUSH1 0x60 DUP2 MSTORE PUSH1 0x20 ADD PUSH0 DUP2 MSTORE POP SWAP1 JUMP JUMPDEST PUSH0 PUSH0 REVERT JUMPDEST PUSH0 DUP2 SWAP1 POP SWAP2 SWAP1 POP JUMP JUMPDEST PUSH2 0x139C DUP2 PUSH2 0x138A JUMP JUMPDEST DUP2 EQ PUSH2 0x13A6 JUMPI PUSH0 PUSH0 REVERT JUMPDEST POP JUMP JUMPDEST PUSH0 DUP2 CALLDATALOAD SWAP1 POP PUSH2 0x13B7 DUP2 PUSH2 0x1393 JUMP JUMPDEST SWAP3 SWAP2 POP POP JUMP JUMPDEST PUSH0 PUSH1 0x20 DUP3 DUP5 SUB SLT ISZERO PUSH2 0x13D2 JUMPI PUSH2 0x13D1 PUSH2 0x1386 JUMP JUMPDEST JUMPDEST PUSH0 PUSH2 0x13DF DUP5 DUP3 DUP6 ADD PUSH2 0x13A9 JUMP JUMPDEST SWAP2 POP POP SWAP3 SWAP2 POP POP JUMP JUMPDEST PUSH0 DUP2 SWAP1 POP SWAP2 SWAP1 POP JUMP JUMPDEST PUSH2 0x13FA DUP2 PUSH2 0x13E8 JUMP JUMPDEST DUP3 MSTORE POP POP JUMP JUMPDEST PUSH0 PUSH1 0x20 DUP3 ADD SWAP1 POP PUSH2 0x1413 PUSH0 DUP4 ADD DUP5 PUSH2 0x13F1 JUMP JUMPDEST SWAP3 SWAP2 POP POP JUMP JUMPDEST PUSH2 0x1422 DUP2 PUSH2 0x13E8 JUMP JUMPDEST DUP2 EQ PUSH2 0x142C JUMPI PUSH0 PUSH0 REVERT JUMPDEST POP JUMP JUMPDEST PUSH0 DUP2 CALLDATALOAD SWAP1 POP PUSH2 0x143D DUP2 PUSH2 0x1419 JUMP JUMPDEST SWAP3 SWAP2 POP POP JUMP JUMPDEST PUSH0 PUSH0 PUSH0 PUSH0 PUSH1 0x80 DUP6 DUP8 SUB SLT ISZERO PUSH2 0x145B JUMPI PUSH2 0x145A PUSH2 0x1386 JUMP JUMPDEST JUMPDEST PUSH0 PUSH2 0x1468 DUP8 DUP3 DUP9 ADD PUSH2 0x142F JUMP JUMPDEST SWAP5 POP POP PUSH1 0x20 PUSH2 0x1479 DUP8 DUP3 DUP9 ADD PUSH2 0x13A9 JUMP JUMPDEST SWAP4 POP POP PUSH1 0x40 PUSH2 0x148A DUP8 DUP3 DUP9 ADD PUSH2 0x13A9 JUMP JUMPDEST SWAP3 POP POP PUSH1 0x60 PUSH2 0x149B DUP8 DUP3 DUP9 ADD PUSH2 0x13A9 JUMP JUMPDEST SWAP2 POP POP SWAP3 SWAP6 SWAP2 SWAP5 POP SWAP3 POP JUMP JUMPDEST PUSH0 PUSH20 0xFFFFFFFFFFFFFFFFFFFFFFFFFFFFFFFFFFFFFFFF DUP3 AND SWAP1 POP SWAP2 SWAP1 POP JUMP JUMPDEST PUSH0 PUSH2 0x14D0 DUP3 PUSH2 0x14A7 JUMP JUMPDEST SWAP1 POP SWAP2 SWAP1 POP JUMP JUMPDEST PUSH2 0x14E0 DUP2 PUSH2 0x14C6 JUMP JUMPDEST DUP3 MSTORE POP POP JUMP JUMPDEST PUSH0 PUSH1 0x20 DUP3 ADD SWAP1 POP PUSH2 0x14F9 PUSH0 DUP4 ADD DUP5 PUSH2 0x14D7 JUMP JUMPDEST SWAP3 SWAP2 POP POP JUMP JUMPDEST PUSH2 0x1508 DUP2 PUSH2 0x138A JUMP JUMPDEST DUP3 MSTORE POP POP JUMP JUMPDEST PUSH0 PUSH1 0x20 DUP3 ADD SWAP1 POP PUSH2 0x1521 PUSH0 DUP4 ADD DUP5 PUSH2 0x14FF JUMP JUMPDEST SWAP3 SWAP2 POP POP JUMP JUMPDEST PUSH2 0x1530 DUP2 PUSH2 0x14C6 JUMP JUMPDEST DUP2 EQ PUSH2 0x153A JUMPI PUSH0 PUSH0 REVERT JUMPDEST POP JUMP JUMPDEST PUSH0 DUP2 CALLDATALOAD SWAP1 POP PUSH2 0x154B DUP2 PUSH2 0x1527 JUMP JUMPDEST SWAP3 SWAP2 POP POP JUMP JUMPDEST PUSH0 PUSH1 0x20 DUP3 DUP5 SUB SLT ISZERO PUSH2 0x1566 JUMPI PUSH2 0x1565 PUSH2 0x1386 JUMP JUMPDEST JUMPDEST PUSH0 PUSH2 0x1573 DUP5 DUP3 DUP6 ADD PUSH2 0x153D JUMP JUMPDEST SWAP2 POP POP SWAP3 SWAP2 POP POP JUMP JUMPDEST PUSH0 DUP3 DUP3 MSTORE PUSH1 0x20 DUP3 ADD SWAP1 POP SWAP3 SWAP2 POP POP JUMP JUMPDEST PUSH32 0x4D61646520746865206765742072657175657374000000000000000000000000 PUSH0 DUP3 ADD MSTORE POP JUMP JUMPDEST PUSH0 PUSH2 0x15C0 PUSH1 0x14 DUP4 PUSH2 0x157C JUMP JUMPDEST SWAP2 POP PUSH2 0x15CB DUP3 PUSH2 0x158C JUMP JUMPDEST PUSH1 0x20 DUP3 ADD SWAP1 POP SWAP2 SWAP1 POP JUMP JUMPDEST PUSH0 DUP2 SWAP1 POP SWAP2 SWAP1 POP JUMP JUMPDEST PUSH0 DUP2 SWAP1 POP SWAP2 SWAP1 POP JUMP JUMPDEST PUSH0 PUSH2 0x1602 PUSH2 0x15FD PUSH2 0x15F8 DUP5 PUSH2 0x15D6 JUMP JUMPDEST PUSH2 0x15DF JUMP JUMPDEST PUSH2 0x138A JUMP JUMPDEST SWAP1 POP SWAP2 SWAP1 POP JUMP JUMPDEST PUSH2 0x1612 DUP2 PUSH2 0x15E8 JUMP JUMPDEST DUP3 MSTORE POP POP JUMP JUMPDEST PUSH0 PUSH1 0x40 DUP3 ADD SWAP1 POP DUP2 DUP2 SUB PUSH0 DUP4 ADD MSTORE PUSH2 0x162F DUP2 PUSH2 0x15B4 JUMP JUMPDEST SWAP1 POP PUSH2 0x163E PUSH1 0x20 DUP4 ADD DUP5 PUSH2 0x1609 JUMP JUMPDEST SWAP3 SWAP2 POP POP JUMP JUMPDEST PUSH32 0x536F75726365206D75737420626520746865206F7261636C65206F6620746865 PUSH0 DUP3 ADD MSTORE PUSH32 0x2072657175657374000000000000000000000000000000000000000000000000 PUSH1 0x20 DUP3 ADD MSTORE POP JUMP JUMPDEST PUSH0 PUSH2 0x169E PUSH1 0x28 DUP4 PUSH2 0x157C JUMP JUMPDEST SWAP2 POP PUSH2 0x16A9 DUP3 PUSH2 0x1644 JUMP JUMPDEST PUSH1 0x40 DUP3 ADD SWAP1 POP SWAP2 SWAP1 POP JUMP JUMPDEST PUSH0 PUSH1 0x20 DUP3 ADD SWAP1 POP DUP2 DUP2 SUB PUSH0 DUP4 ADD MSTORE PUSH2 0x16CB DUP2 PUSH2 0x1692 JUMP JUMPDEST SWAP1 POP SWAP2 SWAP1 POP JUMP JUMPDEST PUSH32 0x496E736964652046756C696C6C2066756E6374696F6E00000000000000000000 PUSH0 DUP3 ADD MSTORE POP JUMP JUMPDEST PUSH0 PUSH2 0x1706 PUSH1 0x16 DUP4 PUSH2 0x157C JUMP JUMPDEST SWAP2 POP PUSH2 0x1711 DUP3 PUSH2 0x16D2 JUMP JUMPDEST PUSH1 0x20 DUP3 ADD SWAP1 POP SWAP2 SWAP1 POP JUMP JUMPDEST PUSH0 PUSH1 0x20 DUP3 ADD SWAP1 POP DUP2 DUP2 SUB PUSH0 DUP4 ADD MSTORE PUSH2 0x1733 DUP2 PUSH2 0x16FA JUMP JUMPDEST SWAP1 POP SWAP2 SWAP1 POP JUMP JUMPDEST PUSH32 0x4D7573742062652070726F706F736564206F776E657200000000000000000000 PUSH0 DUP3 ADD MSTORE POP JUMP JUMPDEST PUSH0 PUSH2 0x176E PUSH1 0x16 DUP4 PUSH2 0x157C JUMP JUMPDEST SWAP2 POP PUSH2 0x1779 DUP3 PUSH2 0x173A JUMP JUMPDEST PUSH1 0x20 DUP3 ADD SWAP1 POP SWAP2 SWAP1 POP JUMP JUMPDEST PUSH0 PUSH1 0x20 DUP3 ADD SWAP1 POP DUP2 DUP2 SUB PUSH0 DUP4 ADD MSTORE PUSH2 0x179B DUP2 PUSH2 0x1762 JUMP JUMPDEST SWAP1 POP SWAP2 SWAP1 POP JUMP JUMPDEST PUSH0 DUP2 MLOAD SWAP1 POP PUSH2 0x17B0 DUP2 PUSH2 0x1393 JUMP JUMPDEST SWAP3 SWAP2 POP POP JUMP JUMPDEST PUSH0 PUSH1 0x20 DUP3 DUP5 SUB SLT ISZERO PUSH2 0x17CB JUMPI PUSH2 0x17CA PUSH2 0x1386 JUMP JUMPDEST JUMPDEST PUSH0 PUSH2 0x17D8 DUP5 DUP3 DUP6 ADD PUSH2 0x17A2 JUMP JUMPDEST SWAP2 POP POP SWAP3 SWAP2 POP POP JUMP JUMPDEST PUSH0 PUSH1 0x40 DUP3 ADD SWAP1 POP PUSH2 0x17F4 PUSH0 DUP4 ADD DUP6 PUSH2 0x14D7 JUMP JUMPDEST PUSH2 0x1801 PUSH1 0x20 DUP4 ADD DUP5 PUSH2 0x14FF JUMP JUMPDEST SWAP4 SWAP3 POP POP POP JUMP JUMPDEST PUSH0 DUP2 ISZERO ISZERO SWAP1 POP SWAP2 SWAP1 POP JUMP JUMPDEST PUSH2 0x181C DUP2 PUSH2 0x1808 JUMP JUMPDEST DUP2 EQ PUSH2 0x1826 JUMPI PUSH0 PUSH0 REVERT JUMPDEST POP JUMP JUMPDEST PUSH0 DUP2 MLOAD SWAP1 POP PUSH2 0x1837 DUP2 PUSH2 0x1813 JUMP JUMPDEST SWAP3 SWAP2 POP POP JUMP JUMPDEST PUSH0 PUSH1 0x20 DUP3 DUP5 SUB SLT ISZERO PUSH2 0x1852 JUMPI PUSH2 0x1851 PUSH2 0x1386 JUMP JUMPDEST JUMPDEST PUSH0 PUSH2 0x185F DUP5 DUP3 DUP6 ADD PUSH2 0x1829 JUMP JUMPDEST SWAP2 POP POP SWAP3 SWAP2 POP POP JUMP JUMPDEST PUSH32 0x556E61626C6520746F207472616E736665720000000000000000000000000000 PUSH0 DUP3 ADD MSTORE POP JUMP JUMPDEST PUSH0 PUSH2 0x189C PUSH1 0x12 DUP4 PUSH2 0x157C JUMP JUMPDEST SWAP2 POP PUSH2 0x18A7 DUP3 PUSH2 0x1868 JUMP JUMPDEST PUSH1 0x20 DUP3 ADD SWAP1 POP SWAP2 SWAP1 POP JUMP JUMPDEST PUSH0 PUSH1 0x20 DUP3 ADD SWAP1 POP DUP2 DUP2 SUB PUSH0 DUP4 ADD MSTORE PUSH2 0x18C9 DUP2 PUSH2 0x1890 JUMP JUMPDEST SWAP1 POP SWAP2 SWAP1 POP JUMP JUMPDEST PUSH32 0x4F6E6C792063616C6C61626C65206279206F776E657200000000000000000000 PUSH0 DUP3 ADD MSTORE POP JUMP JUMPDEST PUSH0 PUSH2 0x1904 PUSH1 0x16 DUP4 PUSH2 0x157C JUMP JUMPDEST SWAP2 POP PUSH2 0x190F DUP3 PUSH2 0x18D0 JUMP JUMPDEST PUSH1 0x20 DUP3 ADD SWAP1 POP SWAP2 SWAP1 POP JUMP JUMPDEST PUSH0 PUSH1 0x20 DUP3 ADD SWAP1 POP DUP2 DUP2 SUB PUSH0 DUP4 ADD MSTORE PUSH2 0x1931 DUP2 PUSH2 0x18F8 JUMP JUMPDEST SWAP1 POP SWAP2 SWAP1 POP JUMP JUMPDEST PUSH32 0x43616E6E6F74207472616E7366657220746F2073656C66000000000000000000 PUSH0 DUP3 ADD MSTORE POP JUMP JUMPDEST PUSH0 PUSH2 0x196C PUSH1 0x17 DUP4 PUSH2 0x157C JUMP JUMPDEST SWAP2 POP PUSH2 0x1977 DUP3 PUSH2 0x1938 JUMP JUMPDEST PUSH1 0x20 DUP3 ADD SWAP1 POP SWAP2 SWAP1 POP JUMP JUMPDEST PUSH0 PUSH1 0x20 DUP3 ADD SWAP1 POP DUP2 DUP2 SUB PUSH0 DUP4 ADD MSTORE PUSH2 0x1999 DUP2 PUSH2 0x1960 JUMP JUMPDEST SWAP1 POP SWAP2 SWAP1 POP JUMP JUMPDEST PUSH32 0x4E487B7100000000000000000000000000000000000000000000000000000000 PUSH0 MSTORE PUSH1 0x11 PUSH1 0x4 MSTORE PUSH1 0x24 PUSH0 REVERT JUMPDEST PUSH0 PUSH2 0x19D7 DUP3 PUSH2 0x138A JUMP JUMPDEST SWAP2 POP PUSH2 0x19E2 DUP4 PUSH2 0x138A JUMP JUMPDEST SWAP3 POP DUP3 DUP3 ADD SWAP1 POP DUP1 DUP3 GT ISZERO PUSH2 0x19FA JUMPI PUSH2 0x19F9 PUSH2 0x19A0 JUMP JUMPDEST JUMPDEST SWAP3 SWAP2 POP POP JUMP JUMPDEST PUSH0 PUSH32 0xFFFFFFFF00000000000000000000000000000000000000000000000000000000 DUP3 AND SWAP1 POP SWAP2 SWAP1 POP JUMP JUMPDEST PUSH2 0x1A34 DUP2 PUSH2 0x1A00 JUMP JUMPDEST DUP3 MSTORE POP POP JUMP JUMPDEST PUSH0 DUP2 MLOAD SWAP1 POP SWAP2 SWAP1 POP JUMP JUMPDEST PUSH0 DUP3 DUP3 MSTORE PUSH1 0x20 DUP3 ADD SWAP1 POP SWAP3 SWAP2 POP POP JUMP JUMPDEST DUP3 DUP2 DUP4 MCOPY PUSH0 DUP4 DUP4 ADD MSTORE POP POP POP JUMP JUMPDEST PUSH0 PUSH1 0x1F NOT PUSH1 0x1F DUP4 ADD AND SWAP1 POP SWAP2 SWAP1 POP JUMP JUMPDEST PUSH0 PUSH2 0x1A7C DUP3 PUSH2 0x1A3A JUMP JUMPDEST PUSH2 0x1A86 DUP2 DUP6 PUSH2 0x1A44 JUMP JUMPDEST SWAP4 POP PUSH2 0x1A96 DUP2 DUP6 PUSH1 0x20 DUP7 ADD PUSH2 0x1A54 JUMP JUMPDEST PUSH2 0x1A9F DUP2 PUSH2 0x1A62 JUMP JUMPDEST DUP5 ADD SWAP2 POP POP SWAP3 SWAP2 POP POP JUMP JUMPDEST PUSH0 PUSH2 0x100 DUP3 ADD SWAP1 POP PUSH2 0x1ABE PUSH0 DUP4 ADD DUP12 PUSH2 0x14D7 JUMP JUMPDEST PUSH2 0x1ACB PUSH1 0x20 DUP4 ADD DUP11 PUSH2 0x14FF JUMP JUMPDEST PUSH2 0x1AD8 PUSH1 0x40 DUP4 ADD DUP10 PUSH2 0x13F1 JUMP JUMPDEST PUSH2 0x1AE5 PUSH1 0x60 DUP4 ADD DUP9 PUSH2 0x14D7 JUMP JUMPDEST PUSH2 0x1AF2 PUSH1 0x80 DUP4 ADD DUP8 PUSH2 0x1A2B JUMP JUMPDEST PUSH2 0x1AFF PUSH1 0xA0 DUP4 ADD DUP7 PUSH2 0x14FF JUMP JUMPDEST PUSH2 0x1B0C PUSH1 0xC0 DUP4 ADD DUP6 PUSH2 0x14FF JUMP JUMPDEST DUP2 DUP2 SUB PUSH1 0xE0 DUP4 ADD MSTORE PUSH2 0x1B1E DUP2 DUP5 PUSH2 0x1A72 JUMP JUMPDEST SWAP1 POP SWAP10 SWAP9 POP POP POP POP POP POP POP POP POP JUMP JUMPDEST PUSH32 0x4E487B7100000000000000000000000000000000000000000000000000000000 PUSH0 MSTORE PUSH1 0x12 PUSH1 0x4 MSTORE PUSH1 0x24 PUSH0 REVERT JUMPDEST PUSH0 PUSH2 0x1B64 DUP3 PUSH2 0x138A JUMP JUMPDEST SWAP2 POP PUSH2 0x1B6F DUP4 PUSH2 0x138A JUMP JUMPDEST SWAP3 POP DUP3 PUSH2 0x1B7F JUMPI PUSH2 0x1B7E PUSH2 0x1B2D JUMP JUMPDEST JUMPDEST DUP3 DUP3 MOD SWAP1 POP SWAP3 SWAP2 POP POP JUMP JUMPDEST PUSH0 PUSH2 0x1B94 DUP3 PUSH2 0x138A JUMP JUMPDEST SWAP2 POP PUSH2 0x1B9F DUP4 PUSH2 0x138A JUMP JUMPDEST SWAP3 POP DUP3 DUP3 SUB SWAP1 POP DUP2 DUP2 GT ISZERO PUSH2 0x1BB7 JUMPI PUSH2 0x1BB6 PUSH2 0x19A0 JUMP JUMPDEST JUMPDEST SWAP3 SWAP2 POP POP JUMP JUMPDEST PUSH0 PUSH2 0x1BD7 PUSH2 0x1BD2 PUSH2 0x1BCD DUP5 PUSH2 0x14A7 JUMP JUMPDEST PUSH2 0x15DF JUMP JUMPDEST PUSH2 0x14A7 JUMP JUMPDEST SWAP1 POP SWAP2 SWAP1 POP JUMP JUMPDEST PUSH0 PUSH2 0x1BE8 DUP3 PUSH2 0x1BBD JUMP JUMPDEST SWAP1 POP SWAP2 SWAP1 POP JUMP JUMPDEST PUSH0 PUSH2 0x1BF9 DUP3 PUSH2 0x1BDE JUMP JUMPDEST SWAP1 POP SWAP2 SWAP1 POP JUMP JUMPDEST PUSH0 DUP2 PUSH1 0x60 SHL SWAP1 POP SWAP2 SWAP1 POP JUMP JUMPDEST PUSH0 PUSH2 0x1C16 DUP3 PUSH2 0x1C00 JUMP JUMPDEST SWAP1 POP SWAP2 SWAP1 POP JUMP JUMPDEST PUSH0 PUSH2 0x1C27 DUP3 PUSH2 0x1C0C JUMP JUMPDEST SWAP1 POP SWAP2 SWAP1 POP JUMP JUMPDEST PUSH2 0x1C3F PUSH2 0x1C3A DUP3 PUSH2 0x1BEF JUMP JUMPDEST PUSH2 0x1C1D JUMP JUMPDEST DUP3 MSTORE POP POP JUMP JUMPDEST PUSH0 DUP2 SWAP1 POP SWAP2 SWAP1 POP JUMP JUMPDEST PUSH2 0x1C5F PUSH2 0x1C5A DUP3 PUSH2 0x138A JUMP JUMPDEST PUSH2 0x1C45 JUMP JUMPDEST DUP3 MSTORE POP POP JUMP JUMPDEST PUSH0 PUSH2 0x1C70 DUP3 DUP6 PUSH2 0x1C2E JUMP JUMPDEST PUSH1 0x14 DUP3 ADD SWAP2 POP PUSH2 0x1C80 DUP3 DUP5 PUSH2 0x1C4E JUMP JUMPDEST PUSH1 0x20 DUP3 ADD SWAP2 POP DUP2 SWAP1 POP SWAP4 SWAP3 POP POP POP JUMP JUMPDEST PUSH0 PUSH1 0x60 DUP3 ADD SWAP1 POP PUSH2 0x1CA3 PUSH0 DUP4 ADD DUP7 PUSH2 0x14D7 JUMP JUMPDEST PUSH2 0x1CB0 PUSH1 0x20 DUP4 ADD DUP6 PUSH2 0x14FF JUMP JUMPDEST DUP2 DUP2 SUB PUSH1 0x40 DUP4 ADD MSTORE PUSH2 0x1CC2 DUP2 DUP5 PUSH2 0x1A72 JUMP JUMPDEST SWAP1 POP SWAP5 SWAP4 POP POP POP POP JUMP JUMPDEST PUSH32 0x756E61626C6520746F207472616E73666572416E6443616C6C20746F206F7261 PUSH0 DUP3 ADD MSTORE PUSH32 0x636C650000000000000000000000000000000000000000000000000000000000 PUSH1 0x20 DUP3 ADD MSTORE POP JUMP JUMPDEST PUSH0 PUSH2 0x1D26 PUSH1 0x23 DUP4 PUSH2 0x157C JUMP JUMPDEST SWAP2 POP PUSH2 0x1D31 DUP3 PUSH2 0x1CCC JUMP JUMPDEST PUSH1 0x40 DUP3 ADD SWAP1 POP SWAP2 SWAP1 POP JUMP JUMPDEST PUSH0 PUSH1 0x20 DUP3 ADD SWAP1 POP DUP2 DUP2 SUB PUSH0 DUP4 ADD MSTORE PUSH2 0x1D53 DUP2 PUSH2 0x1D1A JUMP JUMPDEST SWAP1 POP SWAP2 SWAP1 POP JUMP JUMPDEST PUSH0 PUSH2 0x1D64 DUP3 PUSH2 0x138A JUMP JUMPDEST SWAP2 POP PUSH2 0x1D6F DUP4 PUSH2 0x138A JUMP JUMPDEST SWAP3 POP DUP3 DUP3 MUL PUSH2 0x1D7D DUP2 PUSH2 0x138A JUMP JUMPDEST SWAP2 POP DUP3 DUP3 DIV DUP5 EQ DUP4 ISZERO OR PUSH2 0x1D94 JUMPI PUSH2 0x1D93 PUSH2 0x19A0 JUMP JUMPDEST JUMPDEST POP SWAP3 SWAP2 POP POP JUMP JUMPDEST PUSH0 DUP2 PUSH1 0x1 SHR SWAP1 POP SWAP2 SWAP1 POP JUMP JUMPDEST PUSH0 PUSH0 DUP3 SWAP2 POP DUP4 SWAP1 POP JUMPDEST PUSH1 0x1 DUP6 GT ISZERO PUSH2 0x1DF0 JUMPI DUP1 DUP7 DIV DUP2 GT ISZERO PUSH2 0x1DCC JUMPI PUSH2 0x1DCB PUSH2 0x19A0 JUMP JUMPDEST JUMPDEST PUSH1 0x1 DUP6 AND ISZERO PUSH2 0x1DDB JUMPI DUP1 DUP3 MUL SWAP2 POP JUMPDEST DUP1 DUP2 MUL SWAP1 POP PUSH2 0x1DE9 DUP6 PUSH2 0x1D9B JUMP JUMPDEST SWAP5 POP PUSH2 0x1DB0 JUMP JUMPDEST SWAP5 POP SWAP5 SWAP3 POP POP POP JUMP JUMPDEST PUSH0 DUP3 PUSH2 0x1E08 JUMPI PUSH1 0x1 SWAP1 POP PUSH2 0x1EC3 JUMP JUMPDEST DUP2 PUSH2 0x1E15 JUMPI PUSH0 SWAP1 POP PUSH2 0x1EC3 JUMP JUMPDEST DUP2 PUSH1 0x1 DUP2 EQ PUSH2 0x1E2B JUMPI PUSH1 0x2 DUP2 EQ PUSH2 0x1E35 JUMPI PUSH2 0x1E64 JUMP JUMPDEST PUSH1 0x1 SWAP2 POP POP PUSH2 0x1EC3 JUMP JUMPDEST PUSH1 0xFF DUP5 GT ISZERO PUSH2 0x1E47 JUMPI PUSH2 0x1E46 PUSH2 0x19A0 JUMP JUMPDEST JUMPDEST DUP4 PUSH1 0x2 EXP SWAP2 POP DUP5 DUP3 GT ISZERO PUSH2 0x1E5E JUMPI PUSH2 0x1E5D PUSH2 0x19A0 JUMP JUMPDEST JUMPDEST POP PUSH2 0x1EC3 JUMP JUMPDEST POP PUSH1 0x20 DUP4 LT PUSH2 0x133 DUP4 LT AND PUSH1 0x4E DUP5 LT PUSH1 0xB DUP5 LT AND OR ISZERO PUSH2 0x1E99 JUMPI DUP3 DUP3 EXP SWAP1 POP DUP4 DUP2 GT ISZERO PUSH2 0x1E94 JUMPI PUSH2 0x1E93 PUSH2 0x19A0 JUMP JUMPDEST JUMPDEST PUSH2 0x1EC3 JUMP JUMPDEST PUSH2 0x1EA6 DUP5 DUP5 DUP5 PUSH1 0x1 PUSH2 0x1DA7 JUMP JUMPDEST SWAP3 POP SWAP1 POP DUP2 DUP5 DIV DUP2 GT ISZERO PUSH2 0x1EBD JUMPI PUSH2 0x1EBC PUSH2 0x19A0 JUMP JUMPDEST JUMPDEST DUP2 DUP2 MUL SWAP1 POP JUMPDEST SWAP4 SWAP3 POP POP POP JUMP JUMPDEST PUSH0 PUSH2 0x1ED4 DUP3 PUSH2 0x138A JUMP JUMPDEST SWAP2 POP PUSH2 0x1EDF DUP4 PUSH2 0x138A JUMP JUMPDEST SWAP3 POP PUSH2 0x1F0C PUSH32 0xFFFFFFFFFFFFFFFFFFFFFFFFFFFFFFFFFFFFFFFFFFFFFFFFFFFFFFFFFFFFFFFF DUP5 DUP5 PUSH2 0x1DF9 JUMP JUMPDEST SWAP1 POP SWAP3 SWAP2 POP POP JUMP INVALID PUSH9 0x747470733A2F2F6D69 PUSH15 0x2D6170692E63727970746F636F6D70 PUSH2 0x7265 0x2E PUSH4 0x6F6D2F64 PUSH2 0x7461 0x2F PUSH17 0x726963653F6673796D3D45544826747379 PUSH14 0x733D55534468747470733A2F2F6D PUSH10 0x6E2D6170692E63727970 PUSH21 0x6F636F6D706172652E636F6D2F646174612F707269 PUSH4 0x653F6673 PUSH26 0x6D3D455448267473796D733D42544368747470733A2F2F6D696E 0x2D PUSH2 0x7069 0x2E PUSH4 0x72797074 PUSH16 0x636F6D706172652E636F6D2F64617461 0x2F PUSH17 0x726963653F6673796D3D45544826747379 PUSH14 0x733D455552A26469706673582212 KECCAK256 DUP5 0xD0 0xA5 PUSH17 0xD513ADD815191D3DA8E4E2400DD57068AD 0xD9 0xF6 PUSH14 0x75631A8B40B2D41D64736F6C6343 STOP ADDMOD SAR STOP CALLER "
		},
		"gasEstimates": {
			"creation": {
				"codeDepositCost": "1639800",
				"executionCost": "infinite",
				"totalCost": "infinite"
			},
			"external": {
				"acceptOwnership()": "54578",
				"expectedReductions()": "2469",
				"fulfill(bytes32,uint256,uint256,uint256)": "infinite",
				"issuedCredits()": "2447",
				"owner()": "2582",
				"requestData(uint256)": "infinite",
				"third()": "2491",
				"transferOwnership(address)": "30739",
				"withdrawLink()": "infinite"
			}
		},
		"methodIdentifiers": {
			"acceptOwnership()": "79ba5097",
			"expectedReductions()": "a210d9d0",
			"fulfill(bytes32,uint256,uint256,uint256)": "37db7fae",
			"issuedCredits()": "9a5b1339",
			"owner()": "8da5cb5b",
			"requestData(uint256)": "2adb9e3c",
			"third()": "a6dc6771",
			"transferOwnership(address)": "f2fde38b",
			"withdrawLink()": "8dc654a2"
		}
	},
	"abi": [
		{
			"inputs": [],
			"stateMutability": "nonpayable",
			"type": "constructor"
		},
		{
			"anonymous": false,
			"inputs": [
				{
					"indexed": true,
					"internalType": "bytes32",
					"name": "id",
					"type": "bytes32"
				}
			],
			"name": "ChainlinkCancelled",
			"type": "event"
		},
		{
			"anonymous": false,
			"inputs": [
				{
					"indexed": true,
					"internalType": "bytes32",
					"name": "id",
					"type": "bytes32"
				}
			],
			"name": "ChainlinkFulfilled",
			"type": "event"
		},
		{
			"anonymous": false,
			"inputs": [
				{
					"indexed": true,
					"internalType": "bytes32",
					"name": "id",
					"type": "bytes32"
				}
			],
			"name": "ChainlinkRequested",
			"type": "event"
		},
		{
			"anonymous": false,
			"inputs": [
				{
					"indexed": false,
					"internalType": "string",
					"name": "",
					"type": "string"
				}
			],
			"name": "Data",
			"type": "event"
		},
		{
			"anonymous": false,
			"inputs": [
				{
					"indexed": true,
					"internalType": "address",
					"name": "from",
					"type": "address"
				},
				{
					"indexed": true,
					"internalType": "address",
					"name": "to",
					"type": "address"
				}
			],
			"name": "OwnershipTransferRequested",
			"type": "event"
		},
		{
			"anonymous": false,
			"inputs": [
				{
					"indexed": true,
					"internalType": "address",
					"name": "from",
					"type": "address"
				},
				{
					"indexed": true,
					"internalType": "address",
					"name": "to",
					"type": "address"
				}
			],
			"name": "OwnershipTransferred",
			"type": "event"
		},
		{
			"anonymous": false,
			"inputs": [
				{
					"indexed": true,
					"internalType": "bytes32",
					"name": "requestId",
					"type": "bytes32"
				},
				{
					"indexed": false,
					"internalType": "string",
					"name": "volume",
					"type": "string"
				}
			],
			"name": "RequestVolume",
			"type": "event"
		},
		{
			"anonymous": false,
			"inputs": [
				{
					"indexed": false,
					"internalType": "string",
					"name": "",
					"type": "string"
				},
				{
					"indexed": false,
					"internalType": "uint256",
					"name": "",
					"type": "uint256"
				}
			],
			"name": "Result",
			"type": "event"
		},
		{
			"inputs": [],
			"name": "acceptOwnership",
			"outputs": [],
			"stateMutability": "nonpayable",
			"type": "function"
		},
		{
			"inputs": [],
			"name": "expectedReductions",
			"outputs": [
				{
					"internalType": "uint256",
					"name": "",
					"type": "uint256"
				}
			],
			"stateMutability": "view",
			"type": "function"
		},
		{
			"inputs": [
				{
					"internalType": "bytes32",
					"name": "_requestId",
					"type": "bytes32"
				},
				{
					"internalType": "uint256",
					"name": "_issuedCredits",
					"type": "uint256"
				},
				{
					"internalType": "uint256",
					"name": "_expectedReductions",
					"type": "uint256"
				},
				{
					"internalType": "uint256",
					"name": "_third",
					"type": "uint256"
				}
			],
			"name": "fulfill",
			"outputs": [],
			"stateMutability": "nonpayable",
			"type": "function"
		},
		{
			"inputs": [],
			"name": "issuedCredits",
			"outputs": [
				{
					"internalType": "uint256",
					"name": "",
					"type": "uint256"
				}
			],
			"stateMutability": "view",
			"type": "function"
		},
		{
			"inputs": [],
			"name": "owner",
			"outputs": [
				{
					"internalType": "address",
					"name": "",
					"type": "address"
				}
			],
			"stateMutability": "view",
			"type": "function"
		},
		{
			"inputs": [
				{
					"internalType": "uint256",
					"name": "projectID",
					"type": "uint256"
				}
			],
			"name": "requestData",
			"outputs": [
				{
					"internalType": "bytes32",
					"name": "requestId",
					"type": "bytes32"
				}
			],
			"stateMutability": "nonpayable",
			"type": "function"
		},
		{
			"inputs": [],
			"name": "third",
			"outputs": [
				{
					"internalType": "uint256",
					"name": "",
					"type": "uint256"
				}
			],
			"stateMutability": "view",
			"type": "function"
		},
		{
			"inputs": [
				{
					"internalType": "address",
					"name": "to",
					"type": "address"
				}
			],
			"name": "transferOwnership",
			"outputs": [],
			"stateMutability": "nonpayable",
			"type": "function"
		},
		{
			"inputs": [],
			"name": "withdrawLink",
			"outputs": [],
			"stateMutability": "nonpayable",
			"type": "function"
		}
	]
}