{
	"data": {
		"bytecode": {
			"linkReferences": {},
			"object": "60c060405234801561000f575f5ffd5b506040516105b13803806105b183398101604081905261002e9161005c565b6001600160a01b039182166080521660a052610094565b6001600160a01b0381168114610059575f5ffd5b50565b5f5f6040838503121561006d575f5ffd5b825161007881610045565b602084015190925061008981610045565b809150509250929050565b60805160a0516104e96100c85f395f8181604801528181610191015261024901525f8181608b01526101c301526104e95ff3fe608060405234801561000f575f5ffd5b506004361061003f575f3560e01c8063442b1278146100435780637d253aff14610086578063eefefcda146100ad575b5f5ffd5b61006a7f000000000000000000000000000000000000000000000000000000000000000081565b6040516001600160a01b03909116815260200160405180910390f35b61006a7f000000000000000000000000000000000000000000000000000000000000000081565b6100c06100bb366004610310565b6100c2565b005b6040805161018081018252600b61014082019081526a2a32b9ba21b7bab73a32b960a91b610160830152815281518083018352600280825261060f60f31b6020808401829052808501939093526001600160a01b03868116858701526207a1206060860152336080860152600160a08601528551808701875283815280850183905260c08601528551808701875283815280850183905260e08601528551808701875292835292820152610100830152670de0b6b3a76400006101208301819052925163095ea7b360e01b81527f000000000000000000000000000000000000000000000000000000000000000082166004820152602481019390935290917f00000000000000000000000000000000000000000000000000000000000000009091169063095ea7b3906044016020604051808303815f875af115801561020b573d5f5f3e3d5ffd5b505050506040513d601f19601f8201168201806040525081019061022f919061034a565b50604051633f678e1160e01b81525f906001600160a01b037f00000000000000000000000000000000000000000000000000000000000000001690633f678e119061027e908590600401610397565b6020604051808303815f875af115801561029a573d5f5f3e3d5ffd5b505050506040513d601f19601f820116820180604052508101906102be919061049c565b9050805f0361030b5760405162461bcd60e51b8152602060048201526015602482015274185d5d1bcb585c1c1c9bdd9948191a5cd8589b1959605a1b604482015260640160405180910390fd5b505050565b5f60208284031215610320575f5ffd5b81356001600160a01b0381168114610336575f5ffd5b9392505050565b6001600160a01b03169052565b5f6020828403121561035a575f5ffd5b81518015158114610336575f5ffd5b5f81518084528060208401602086015e5f602082860101526020601f19601f83011685010191505092915050565b602081525f825161014060208401526103b4610160840182610369565b90506020840151601f198483030160408501526103d18282610369565b91505060408401516103e6606085018261033d565b50606084015163ffffffff8116608085015250608084015161040b60a085018261033d565b5060a084015160ff811660c08501525060c0840151838203601f190160e08501526104368282610369565b91505060e0840151601f19848303016101008501526104558282610369565b915050610100840151601f19848303016101208501526104758282610369565b9150506101208401516104946101408501826001600160601b03169052565b509392505050565b5f602082840312156104ac575f5ffd5b505191905056fea264697066735822122070ad81db9d58a7d8fe884c9512ec4f112bae9c898b26cfc0151f6126612b110e64736f6c634300081d0033",
			"opcodes": "PUSH1 0xC0 PUSH1 0x40 MSTORE CALLVALUE DUP1 ISZERO PUSH2 0xF JUMPI PUSH0 PUSH0 REVERT JUMPDEST POP PUSH1 0x40 MLOAD PUSH2 0x5B1 CODESIZE SUB DUP1 PUSH2 0x5B1 DUP4 CODECOPY DUP2 ADD PUSH1 0x40 DUP2 SWAP1 MSTORE PUSH2 0x2E SWAP2 PUSH2 0x5C JUMP JUMPDEST PUSH1 0x1 PUSH1 0x1 PUSH1 0xA0 SHL SUB SWAP2 DUP3 AND PUSH1 0x80 MSTORE AND PUSH1 0xA0 MSTORE PUSH2 0x94 JUMP JUMPDEST PUSH1 0x1 PUSH1 0x1 PUSH1 0xA0 SHL SUB DUP2 AND DUP2 EQ PUSH2 0x59 JUMPI PUSH0 PUSH0 REVERT JUMPDEST POP JUMP JUMPDEST PUSH0 PUSH0 PUSH1 0x40 DUP4 DUP6 SUB SLT ISZERO PUSH2 0x6D JUMPI PUSH0 PUSH0 REVERT JUMPDEST DUP3 MLOAD PUSH2 0x78 DUP2 PUSH2 0x45 JUMP JUMPDEST PUSH1 0x20 DUP5 ADD MLOAD SWAP1 SWAP3 POP PUSH2 0x89 DUP2 PUSH2 0x45 JUMP JUMPDEST DUP1 SWAP2 POP POP SWAP3 POP SWAP3 SWAP1 POP JUMP JUMPDEST PUSH1 0x80 MLOAD PUSH1 0xA0 MLOAD PUSH2 0x4E9 PUSH2 0xC8 PUSH0 CODECOPY PUSH0 DUP2 DUP2 PUSH1 0x48 ADD MSTORE DUP2 DUP2 PUSH2 0x191 ADD MSTORE PUSH2 0x249 ADD MSTORE PUSH0 DUP2 DUP2 PUSH1 0x8B ADD MSTORE PUSH2 0x1C3 ADD MSTORE PUSH2 0x4E9 PUSH0 RETURN INVALID PUSH1 0x80 PUSH1 0x40 MSTORE CALLVALUE DUP1 ISZERO PUSH2 0xF JUMPI PUSH0 PUSH0 REVERT JUMPDEST POP PUSH1 0x4 CALLDATASIZE LT PUSH2 0x3F JUMPI PUSH0 CALLDATALOAD PUSH1 0xE0 SHR DUP1 PUSH4 0x442B1278 EQ PUSH2 0x43 JUMPI DUP1 PUSH4 0x7D253AFF EQ PUSH2 0x86 JUMPI DUP1 PUSH4 0xEEFEFCDA EQ PUSH2 0xAD JUMPI JUMPDEST PUSH0 PUSH0 REVERT JUMPDEST PUSH2 0x6A PUSH32 0x0 DUP2 JUMP JUMPDEST PUSH1 0x40 MLOAD PUSH1 0x1 PUSH1 0x1 PUSH1 0xA0 SHL SUB SWAP1 SWAP2 AND DUP2 MSTORE PUSH1 0x20 ADD PUSH1 0x40 MLOAD DUP1 SWAP2 SUB SWAP1 RETURN JUMPDEST PUSH2 0x6A PUSH32 0x0 DUP2 JUMP JUMPDEST PUSH2 0xC0 PUSH2 0xBB CALLDATASIZE PUSH1 0x4 PUSH2 0x310 JUMP JUMPDEST PUSH2 0xC2 JUMP JUMPDEST STOP JUMPDEST PUSH1 0x40 DUP1 MLOAD PUSH2 0x180 DUP2 ADD DUP3 MSTORE PUSH1 0xB PUSH2 0x140 DUP3 ADD SWAP1 DUP2 MSTORE PUSH11 0x2A32B9BA21B7BAB73A32B9 PUSH1 0xA9 SHL PUSH2 0x160 DUP4 ADD MSTORE DUP2 MSTORE DUP2 MLOAD DUP1 DUP4 ADD DUP4 MSTORE PUSH1 0x2 DUP1 DUP3 MSTORE PUSH2 0x60F PUSH1 0xF3 SHL PUSH1 0x20 DUP1 DUP5 ADD DUP3 SWAP1 MSTORE DUP1 DUP6 ADD SWAP4 SWAP1 SWAP4 MSTORE PUSH1 0x1 PUSH1 0x1 PUSH1 0xA0 SHL SUB DUP7 DUP2 AND DUP6 DUP8 ADD MSTORE PUSH3 0x7A120 PUSH1 0x60 DUP7 ADD MSTORE CALLER PUSH1 0x80 DUP7 ADD MSTORE PUSH1 0x1 PUSH1 0xA0 DUP7 ADD MSTORE DUP6 MLOAD DUP1 DUP8 ADD DUP8 MSTORE DUP4 DUP2 MSTORE DUP1 DUP6 ADD DUP4 SWAP1 MSTORE PUSH1 0xC0 DUP7 ADD MSTORE DUP6 MLOAD DUP1 DUP8 ADD DUP8 MSTORE DUP4 DUP2 MSTORE DUP1 DUP6 ADD DUP4 SWAP1 MSTORE PUSH1 0xE0 DUP7 ADD MSTORE DUP6 MLOAD DUP1 DUP8 ADD DUP8 MSTORE SWAP3 DUP4 MSTORE SWAP3 DUP3 ADD MSTORE PUSH2 0x100 DUP4 ADD MSTORE PUSH8 0xDE0B6B3A7640000 PUSH2 0x120 DUP4 ADD DUP2 SWAP1 MSTORE SWAP3 MLOAD PUSH4 0x95EA7B3 PUSH1 0xE0 SHL DUP2 MSTORE PUSH32 0x0 DUP3 AND PUSH1 0x4 DUP3 ADD MSTORE PUSH1 0x24 DUP2 ADD SWAP4 SWAP1 SWAP4 MSTORE SWAP1 SWAP2 PUSH32 0x0 SWAP1 SWAP2 AND SWAP1 PUSH4 0x95EA7B3 SWAP1 PUSH1 0x44 ADD PUSH1 0x20 PUSH1 0x40 MLOAD DUP1 DUP4 SUB DUP2 PUSH0 DUP8 GAS CALL ISZERO DUP1 ISZERO PUSH2 0x20B JUMPI RETURNDATASIZE PUSH0 PUSH0 RETURNDATACOPY RETURNDATASIZE PUSH0 REVERT JUMPDEST POP POP POP POP PUSH1 0x40 MLOAD RETURNDATASIZE PUSH1 0x1F NOT PUSH1 0x1F DUP3 ADD AND DUP3 ADD DUP1 PUSH1 0x40 MSTORE POP DUP2 ADD SWAP1 PUSH2 0x22F SWAP2 SWAP1 PUSH2 0x34A JUMP JUMPDEST POP PUSH1 0x40 MLOAD PUSH4 0x3F678E11 PUSH1 0xE0 SHL DUP2 MSTORE PUSH0 SWAP1 PUSH1 0x1 PUSH1 0x1 PUSH1 0xA0 SHL SUB PUSH32 0x0 AND SWAP1 PUSH4 0x3F678E11 SWAP1 PUSH2 0x27E SWAP1 DUP6 SWAP1 PUSH1 0x4 ADD PUSH2 0x397 JUMP JUMPDEST PUSH1 0x20 PUSH1 0x40 MLOAD DUP1 DUP4 SUB DUP2 PUSH0 DUP8 GAS CALL ISZERO DUP1 ISZERO PUSH2 0x29A JUMPI RETURNDATASIZE PUSH0 PUSH0 RETURNDATACOPY RETURNDATASIZE PUSH0 REVERT JUMPDEST POP POP POP POP PUSH1 0x40 MLOAD RETURNDATASIZE PUSH1 0x1F NOT PUSH1 0x1F DUP3 ADD AND DUP3 ADD DUP1 PUSH1 0x40 MSTORE POP DUP2 ADD SWAP1 PUSH2 0x2BE SWAP2 SWAP1 PUSH2 0x49C JUMP JUMPDEST SWAP1 POP DUP1 PUSH0 SUB PUSH2 0x30B JUMPI PUSH1 0x40 MLOAD PUSH3 0x461BCD PUSH1 0xE5 SHL DUP2 MSTORE PUSH1 0x20 PUSH1 0x4 DUP3 ADD MSTORE PUSH1 0x15 PUSH1 0x24 DUP3 ADD MSTORE PUSH21 0x185D5D1BCB585C1C1C9BDD9948191A5CD8589B1959 PUSH1 0x5A SHL PUSH1 0x44 DUP3 ADD MSTORE PUSH1 0x64 ADD PUSH1 0x40 MLOAD DUP1 SWAP2 SUB SWAP1 REVERT JUMPDEST POP POP POP JUMP JUMPDEST PUSH0 PUSH1 0x20 DUP3 DUP5 SUB SLT ISZERO PUSH2 0x320 JUMPI PUSH0 PUSH0 REVERT JUMPDEST DUP2 CALLDATALOAD PUSH1 0x1 PUSH1 0x1 PUSH1 0xA0 SHL SUB DUP2 AND DUP2 EQ PUSH2 0x336 JUMPI PUSH0 PUSH0 REVERT JUMPDEST SWAP4 SWAP3 POP POP POP JUMP JUMPDEST PUSH1 0x1 PUSH1 0x1 PUSH1 0xA0 SHL SUB AND SWAP1 MSTORE JUMP JUMPDEST PUSH0 PUSH1 0x20 DUP3 DUP5 SUB SLT ISZERO PUSH2 0x35A JUMPI PUSH0 PUSH0 REVERT JUMPDEST DUP2 MLOAD DUP1 ISZERO ISZERO DUP2 EQ PUSH2 0x336 JUMPI PUSH0 PUSH0 REVERT JUMPDEST PUSH0 DUP2 MLOAD DUP1 DUP5 MSTORE DUP1 PUSH1 0x20 DUP5 ADD PUSH1 0x20 DUP7 ADD MCOPY PUSH0 PUSH1 0x20 DUP3 DUP7 ADD ADD MSTORE PUSH1 0x20 PUSH1 0x1F NOT PUSH1 0x1F DUP4 ADD AND DUP6 ADD ADD SWAP2 POP POP SWAP3 SWAP2 POP POP JUMP JUMPDEST PUSH1 0x20 DUP2 MSTORE PUSH0 DUP3 MLOAD PUSH2 0x140 PUSH1 0x20 DUP5 ADD MSTORE PUSH2 0x3B4 PUSH2 0x160 DUP5 ADD DUP3 PUSH2 0x369 JUMP JUMPDEST SWAP1 POP PUSH1 0x20 DUP5 ADD MLOAD PUSH1 0x1F NOT DUP5 DUP4 SUB ADD PUSH1 0x40 DUP6 ADD MSTORE PUSH2 0x3D1 DUP3 DUP3 PUSH2 0x369 JUMP JUMPDEST SWAP2 POP POP PUSH1 0x40 DUP5 ADD MLOAD PUSH2 0x3E6 PUSH1 0x60 DUP6 ADD DUP3 PUSH2 0x33D JUMP JUMPDEST POP PUSH1 0x60 DUP5 ADD MLOAD PUSH4 0xFFFFFFFF DUP2 AND PUSH1 0x80 DUP6 ADD MSTORE POP PUSH1 0x80 DUP5 ADD MLOAD PUSH2 0x40B PUSH1 0xA0 DUP6 ADD DUP3 PUSH2 0x33D JUMP JUMPDEST POP PUSH1 0xA0 DUP5 ADD MLOAD PUSH1 0xFF DUP2 AND PUSH1 0xC0 DUP6 ADD MSTORE POP PUSH1 0xC0 DUP5 ADD MLOAD DUP4 DUP3 SUB PUSH1 0x1F NOT ADD PUSH1 0xE0 DUP6 ADD MSTORE PUSH2 0x436 DUP3 DUP3 PUSH2 0x369 JUMP JUMPDEST SWAP2 POP POP PUSH1 0xE0 DUP5 ADD MLOAD PUSH1 0x1F NOT DUP5 DUP4 SUB ADD PUSH2 0x100 DUP6 ADD MSTORE PUSH2 0x455 DUP3 DUP3 PUSH2 0x369 JUMP JUMPDEST SWAP2 POP POP PUSH2 0x100 DUP5 ADD MLOAD PUSH1 0x1F NOT DUP5 DUP4 SUB ADD PUSH2 0x120 DUP6 ADD MSTORE PUSH2 0x475 DUP3 DUP3 PUSH2 0x369 JUMP JUMPDEST SWAP2 POP POP PUSH2 0x120 DUP5 ADD MLOAD PUSH2 0x494 PUSH2 0x140 DUP6 ADD DUP3 PUSH1 0x1 PUSH1 0x1 PUSH1 0x60 SHL SUB AND SWAP1 MSTORE JUMP JUMPDEST POP SWAP4 SWAP3 POP POP POP JUMP JUMPDEST PUSH0 PUSH1 0x20 DUP3 DUP5 SUB SLT ISZERO PUSH2 0x4AC JUMPI PUSH0 PUSH0 REVERT JUMPDEST POP MLOAD SWAP2 SWAP1 POP JUMP INVALID LOG2 PUSH5 0x6970667358 0x22 SLT KECCAK256 PUSH17 0xAD81DB9D58A7D8FE884C9512EC4F112BAE SWAP13 DUP10 DUP12 0x26 0xCF 0xC0 ISZERO 0x1F PUSH2 0x2661 0x2B GT 0xE PUSH5 0x736F6C6343 STOP ADDMOD SAR STOP CALLER "
		},
		"gasEstimates": {
			"creation": {
				"codeDepositCost": "251400",
				"executionCost": "infinite",
				"totalCost": "infinite"
			},
			"external": {
				"i_link()": "infinite",
				"i_registrar()": "infinite",
				"registerAndPredictID(address)": "infinite"
			}
		},
		"methodIdentifiers": {
			"i_link()": "7d253aff",
			"i_registrar()": "442b1278",
			"registerAndPredictID(address)": "eefefcda"
		}
	},
	"abi": [
		{
			"inputs": [
				{
					"internalType": "contract LinkTokenInterface",
					"name": "link",
					"type": "address"
				},
				{
					"internalType": "contract AutomationRegistrarInterface",
					"name": "registrar",
					"type": "address"
				}
			],
			"stateMutability": "nonpayable",
			"type": "constructor"
		},
		{
			"inputs": [],
			"name": "i_link",
			"outputs": [
				{
					"internalType": "contract LinkTokenInterface",
					"name": "",
					"type": "address"
				}
			],
			"stateMutability": "view",
			"type": "function"
		},
		{
			"inputs": [],
			"name": "i_registrar",
			"outputs": [
				{
					"internalType": "contract AutomationRegistrarInterface",
					"name": "",
					"type": "address"
				}
			],
			"stateMutability": "view",
			"type": "function"
		},
		{
			"inputs": [
				{
					"internalType": "address",
					"name": "contractAddr",
					"type": "address"
				}
			],
			"name": "registerAndPredictID",
			"outputs": [],
			"stateMutability": "nonpayable",
			"type": "function"
		}
	]
}