{
	"data": {
		"bytecode": {
			"linkReferences": {},
			"object": "608060405260016002555f6003556001600455348015601c575f80fd5b50335f806101000a81548173ffffffffffffffffffffffffffffffffffffffff021916908373ffffffffffffffffffffffffffffffffffffffff16021790555061850b806100695f395ff3fe608060405234801561000f575f80fd5b50600436106101ee575f3560e01c80636858a3f31161010d578063b28cda0b116100a0578063e8ae78641161006f578063e8ae78641461061d578063f0f3f2c814610639578063f44da44814610669578063f945c7e914610699576101ee565b8063b28cda0b14610558578063d4aef9ba14610588578063dbff65e8146105b8578063ddfc5cfe146105e8576101ee565b80639af4cf7a116100dc5780639af4cf7a146104d45780639d012aa3146104f05780639df89f2d1461050c578063a66dc9471461053c576101ee565b80636858a3f31461044c5780636c8244871461046a5780638da5cb5b1461049a5780638e0415f1146104b8576101ee565b806340b5c69b1161018557806351d3c99b1161015457806351d3c99b146103c657806353fe56e6146103d057806357762ddd146103ec57806357f84dd71461041c576101ee565b806340b5c69b14610342578063444993f11461035e578063452730741461037a5780634aec4d48146103aa576101ee565b806319840322116101c157806319840322146102a8578063242ab021146102d85780632f77b323146102f657806339a411e314610326576101ee565b8063059ce95d146101f25780630916b099146102225780630ce149c914610252578063107046bd1461026e575b5f80fd5b61020c60048036038101906102079190613e55565b6106c9565b6040516102199190613ef0565b60405180910390f35b61023c600480360381019061023791906140a4565b610798565b604051610249919061411f565b60405180910390f35b61026c60048036038101906102679190614138565b610b4b565b005b61028860048036038101906102839190614138565b610d32565b60405161029f9b9a999897969594939291906141f4565b60405180910390f35b6102c260048036038101906102bd91906142b9565b610fd8565b6040516102cf91906142f7565b60405180910390f35b6102e0611020565b6040516102ed919061436b565b60405180910390f35b610310600480360381019061030b9190614384565b611045565b60405161031d919061411f565b60405180910390f35b610340600480360381019061033b9190614428565b6110e0565b005b61035c60048036038101906103579190614138565b6111d0565b005b61037860048036038101906103739190614499565b61134f565b005b610394600480360381019061038f91906144c4565b6113bc565b6040516103a19190614502565b60405180910390f35b6103c460048036038101906103bf9190614138565b611476565b005b6103ce6117bc565b005b6103ea60048036038101906103e5919061451b565b611823565b005b61040660048036038101906104019190614138565b611929565b60405161041391906142f7565b60405180910390f35b610436600480360381019061043191906140a4565b611964565b604051610443919061411f565b60405180910390f35b610454611d18565b6040516104619190614595565b60405180910390f35b610484600480360381019061047f9190613e55565b611d3d565b6040516104919190613ef0565b60405180910390f35b6104a2611ddd565b6040516104af91906142f7565b60405180910390f35b6104d260048036038101906104cd91906145eb565b611e00565b005b6104ee60048036038101906104e9919061451b565b611e79565b005b61050a60048036038101906105059190614138565b611fd4565b005b6105266004803603810190610521919061463b565b6121bb565b604051610533919061411f565b60405180910390f35b610556600480360381019061055191906142b9565b6123ce565b005b610572600480360381019061056d9190614748565b612421565b60405161057f919061411f565b60405180910390f35b6105a2600480360381019061059d9190613e55565b6125a5565b6040516105af9190614915565b60405180910390f35b6105d260048036038101906105cd91906142b9565b612841565b6040516105df91906142f7565b60405180910390f35b61060260048036038101906105fd9190613e55565b612889565b60405161061496959493929190614962565b60405180910390f35b61063760048036038101906106329190614138565b612a9f565b005b610653600480360381019061064e9190614138565b612de5565b6040516106609190614c26565b60405180910390f35b610683600480360381019061067e91906144c4565b6133d6565b6040516106909190614502565b60405180910390f35b6106b360048036038101906106ae9190613e55565b613490565b6040516106c0919061411f565b60405180910390f35b606060055f8373ffffffffffffffffffffffffffffffffffffffff1673ffffffffffffffffffffffffffffffffffffffff1681526020019081526020015f205f01805461071590614c73565b80601f016020809104026020016040519081016040528092919081815260200182805461074190614c73565b801561078c5780601f106107635761010080835404028352916020019161078c565b820191905f5260205f20905b81548152906001019060200180831161076f57829003601f168201915b50505050509050919050565b5f8060055f3373ffffffffffffffffffffffffffffffffffffffff1673ffffffffffffffffffffffffffffffffffffffff1681526020019081526020015f205f0180546107e490614c73565b905011610826576040517f08c379a000000000000000000000000000000000000000000000000000000000815260040161081d90614ced565b60405180910390fd5b5f600481111561083957610838614172565b5b60075f8681526020019081526020015f20600b015f9054906101000a900460ff16600481111561086c5761086b614172565b5b14610875575f80fd5b3373ffffffffffffffffffffffffffffffffffffffff1660085f8681526020019081526020015f205f815481106108af576108ae614d0b565b5b905f5260205f20015f9054906101000a900473ffffffffffffffffffffffffffffffffffffffff1673ffffffffffffffffffffffffffffffffffffffff16148061096f57503373ffffffffffffffffffffffffffffffffffffffff1660085f8681526020019081526020015f2060018154811061092f5761092e614d0b565b5b905f5260205f20015f9054906101000a900473ffffffffffffffffffffffffffffffffffffffff1673ffffffffffffffffffffffffffffffffffffffff16145b806109f057503373ffffffffffffffffffffffffffffffffffffffff1660085f8681526020019081526020015f206002815481106109b0576109af614d0b565b5b905f5260205f20015f9054906101000a900473ffffffffffffffffffffffffffffffffffffffff1673ffffffffffffffffffffffffffffffffffffffff16145b610a2f576040517f08c379a0000000000000000000000000000000000000000000000000000000008152600401610a2690614da8565b60405180910390fd5b5f60405180606001604052803373ffffffffffffffffffffffffffffffffffffffff16815260200185151581526020018481525090505f60075f8781526020019081526020015f2090508060090182908060018154018082558091505060019003905f5260205f2090600202015f909190919091505f820151815f015f6101000a81548173ffffffffffffffffffffffffffffffffffffffff021916908373ffffffffffffffffffffffffffffffffffffffff1602179055506020820151815f0160146101000a81548160ff0219169083151502179055506040820151816001019081610b1c9190614f5a565b5050506003816009018054905003610b3857610b378661373f565b5b8060090180549050925050509392505050565b5f60095f8381526020019081526020015f2090508060015f81548110610b7457610b73614d0b565b5b905f5260205f20015f9054906101000a900473ffffffffffffffffffffffffffffffffffffffff16908060018154018082558091505060019003905f5260205f20015f9091909190916101000a81548173ffffffffffffffffffffffffffffffffffffffff021916908373ffffffffffffffffffffffffffffffffffffffff1602179055508060018081548110610c0e57610c0d614d0b565b5b905f5260205f20015f9054906101000a900473ffffffffffffffffffffffffffffffffffffffff16908060018154018082558091505060019003905f5260205f20015f9091909190916101000a81548173ffffffffffffffffffffffffffffffffffffffff021916908373ffffffffffffffffffffffffffffffffffffffff160217905550806001600281548110610ca957610ca8614d0b565b5b905f5260205f20015f9054906101000a900473ffffffffffffffffffffffffffffffffffffffff16908060018154018082558091505060019003905f5260205f20015f9091909190916101000a81548173ffffffffffffffffffffffffffffffffffffffff021916908373ffffffffffffffffffffffffffffffffffffffff1602179055505050565b6007602052805f5260405f205f91509050805f015490806001015f9054906101000a900473ffffffffffffffffffffffffffffffffffffffff1690806002018054610d7c90614c73565b80601f0160208091040260200160405190810160405280929190818152602001828054610da890614c73565b8015610df35780601f10610dca57610100808354040283529160200191610df3565b820191905f5260205f20905b815481529060010190602001808311610dd657829003601f168201915b505050505090806003015490806004015490806005018054610e1490614c73565b80601f0160208091040260200160405190810160405280929190818152602001828054610e4090614c73565b8015610e8b5780601f10610e6257610100808354040283529160200191610e8b565b820191905f5260205f20905b815481529060010190602001808311610e6e57829003601f168201915b505050505090806006015490806007018054610ea690614c73565b80601f0160208091040260200160405190810160405280929190818152602001828054610ed290614c73565b8015610f1d5780601f10610ef457610100808354040283529160200191610f1d565b820191905f5260205f20905b815481529060010190602001808311610f0057829003601f168201915b505050505090806008018054610f3290614c73565b80601f0160208091040260200160405190810160405280929190818152602001828054610f5e90614c73565b8015610fa95780601f10610f8057610100808354040283529160200191610fa9565b820191905f5260205f20905b815481529060010190602001808311610f8c57829003601f168201915b50505050509080600b015f9054906101000a900460ff169080600b0160019054906101000a900460ff1690508b565b6008602052815f5260405f208181548110610ff1575f80fd5b905f5260205f20015f915091509054906101000a900473ffffffffffffffffffffffffffffffffffffffff1681565b600b5f9054906101000a900473ffffffffffffffffffffffffffffffffffffffff1681565b5f8060065f3373ffffffffffffffffffffffffffffffffffffffff1673ffffffffffffffffffffffffffffffffffffffff1681526020019081526020015f209050848160040190816110979190614f5a565b50838160050190816110a99190614f5a565b50828160060190816110bb9190614f5a565b5060035f8154809291906110ce90615056565b91905055506003549150509392505050565b5f8054906101000a900473ffffffffffffffffffffffffffffffffffffffff1673ffffffffffffffffffffffffffffffffffffffff163373ffffffffffffffffffffffffffffffffffffffff161461116d576040517f08c379a0000000000000000000000000000000000000000000000000000000008152600401611164906150e7565b60405180910390fd5b5f60065f8473ffffffffffffffffffffffffffffffffffffffff1673ffffffffffffffffffffffffffffffffffffffff1681526020019081526020015f20905081816002016001015f6101000a81548160ff021916908315150217905550505050565b5f8054906101000a900473ffffffffffffffffffffffffffffffffffffffff1673ffffffffffffffffffffffffffffffffffffffff163373ffffffffffffffffffffffffffffffffffffffff161461125d576040517f08c379a000000000000000000000000000000000000000000000000000000000815260040161125490615175565b60405180910390fd5b5f60075f8381526020019081526020015f2090505f600b5f9054906101000a900473ffffffffffffffffffffffffffffffffffffffff1673ffffffffffffffffffffffffffffffffffffffff16632adb9e3c846040518263ffffffff1660e01b81526004016112cc919061411f565b6020604051808303815f875af11580156112e8573d5f803e3d5ffd5b505050506040513d601f19601f8201168201806040525081019061130c91906151a7565b5f1c90505f60558261131e91906151d2565b90508260060154811115611349575f83600b0160016101000a81548160ff0219169083151502179055505b50505050565b5f60065f3373ffffffffffffffffffffffffffffffffffffffff1673ffffffffffffffffffffffffffffffffffffffff1681526020019081526020015f20905081816002015f01819055505f816002016001015f6101000a81548160ff0219169083151502179055505050565b5f8060075f8481526020019081526020015f2090505f5b600381101561146a578473ffffffffffffffffffffffffffffffffffffffff1682600901828154811061140957611408614d0b565b5b905f5260205f2090600202015f015f9054906101000a900473ffffffffffffffffffffffffffffffffffffffff1673ffffffffffffffffffffffffffffffffffffffff160361145d57600192505050611470565b80806001019150506113d3565b505f9150505b92915050565b5f60085f8381526020019081526020015f209050600a5f9054906101000a900473ffffffffffffffffffffffffffffffffffffffff1673ffffffffffffffffffffffffffffffffffffffff1663e0c862896040518163ffffffff1660e01b81526004015f604051808303815f87803b1580156114f0575f80fd5b505af1158015611502573d5f803e3d5ffd5b505050505f600a5f9054906101000a900473ffffffffffffffffffffffffffffffffffffffff1673ffffffffffffffffffffffffffffffffffffffff1663f6eaffc86004546040518263ffffffff1660e01b8152600401611563919061411f565b602060405180830381865afa15801561157e573d5f803e3d5ffd5b505050506040513d601f19601f820116820180604052508101906115a29190615227565b90508160018080549050836115b7919061527f565b815481106115c8576115c7614d0b565b5b905f5260205f20015f9054906101000a900473ffffffffffffffffffffffffffffffffffffffff16908060018154018082558091505060019003905f5260205f20015f9091909190916101000a81548173ffffffffffffffffffffffffffffffffffffffff021916908373ffffffffffffffffffffffffffffffffffffffff160217905550816001808054905060028461166291906152af565b61166c919061527f565b8154811061167d5761167c614d0b565b5b905f5260205f20015f9054906101000a900473ffffffffffffffffffffffffffffffffffffffff16908060018154018082558091505060019003905f5260205f20015f9091909190916101000a81548173ffffffffffffffffffffffffffffffffffffffff021916908373ffffffffffffffffffffffffffffffffffffffff160217905550816001808054905060028461171791906151d2565b611721919061527f565b8154811061173257611731614d0b565b5b905f5260205f20015f9054906101000a900473ffffffffffffffffffffffffffffffffffffffff16908060018154018082558091505060019003905f5260205f20015f9091909190916101000a81548173ffffffffffffffffffffffffffffffffffffffff021916908373ffffffffffffffffffffffffffffffffffffffff160217905550505050565b6040516117c890613c3f565b604051809103905ff0801580156117e1573d5f803e3d5ffd5b50600b5f6101000a81548173ffffffffffffffffffffffffffffffffffffffff021916908373ffffffffffffffffffffffffffffffffffffffff160217905550565b5f8054906101000a900473ffffffffffffffffffffffffffffffffffffffff1673ffffffffffffffffffffffffffffffffffffffff163373ffffffffffffffffffffffffffffffffffffffff16146118b0576040517f08c379a00000000000000000000000000000000000000000000000000000000081526004016118a790615329565b60405180910390fd5b5f60055f8473ffffffffffffffffffffffffffffffffffffffff1673ffffffffffffffffffffffffffffffffffffffff1681526020019081526020015f2090508060010182908060018154018082558091505060019003905f5260205f20015f9091909190915090816119239190614f5a565b50505050565b60018181548110611938575f80fd5b905f5260205f20015f915054906101000a900473ffffffffffffffffffffffffffffffffffffffff1681565b5f8060055f3373ffffffffffffffffffffffffffffffffffffffff1673ffffffffffffffffffffffffffffffffffffffff1681526020019081526020015f205f0180546119b090614c73565b9050116119f2576040517f08c379a00000000000000000000000000000000000000000000000000000000081526004016119e990614ced565b60405180910390fd5b60026004811115611a0657611a05614172565b5b60075f8681526020019081526020015f20600b015f9054906101000a900460ff166004811115611a3957611a38614172565b5b14611a42575f80fd5b3373ffffffffffffffffffffffffffffffffffffffff1660095f8681526020019081526020015f205f81548110611a7c57611a7b614d0b565b5b905f5260205f20015f9054906101000a900473ffffffffffffffffffffffffffffffffffffffff1673ffffffffffffffffffffffffffffffffffffffff161480611b3c57503373ffffffffffffffffffffffffffffffffffffffff1660095f8681526020019081526020015f20600181548110611afc57611afb614d0b565b5b905f5260205f20015f9054906101000a900473ffffffffffffffffffffffffffffffffffffffff1673ffffffffffffffffffffffffffffffffffffffff16145b80611bbd57503373ffffffffffffffffffffffffffffffffffffffff1660095f8681526020019081526020015f20600281548110611b7d57611b7c614d0b565b5b905f5260205f20015f9054906101000a900473ffffffffffffffffffffffffffffffffffffffff1673ffffffffffffffffffffffffffffffffffffffff16145b611bfc576040517f08c379a0000000000000000000000000000000000000000000000000000000008152600401611bf390614da8565b60405180910390fd5b5f60405180606001604052803373ffffffffffffffffffffffffffffffffffffffff16815260200185151581526020018481525090505f60075f8781526020019081526020015f20905080600a0182908060018154018082558091505060019003905f5260205f2090600202015f909190919091505f820151815f015f6101000a81548173ffffffffffffffffffffffffffffffffffffffff021916908373ffffffffffffffffffffffffffffffffffffffff1602179055506020820151815f0160146101000a81548160ff0219169083151502179055506040820151816001019081611ce99190614f5a565b505050600381600a018054905003611d0557611d04866139bf565b5b80600a0180549050925050509392505050565b600a5f9054906101000a900473ffffffffffffffffffffffffffffffffffffffff1681565b6005602052805f5260405f205f91509050805f018054611d5c90614c73565b80601f0160208091040260200160405190810160405280929190818152602001828054611d8890614c73565b8015611dd35780601f10611daa57610100808354040283529160200191611dd3565b820191905f5260205f20905b815481529060010190602001808311611db657829003601f168201915b5050505050905081565b5f8054906101000a900473ffffffffffffffffffffffffffffffffffffffff1681565b828282604051611e0f90613c4c565b611e1b93929190615365565b604051809103905ff080158015611e34573d5f803e3d5ffd5b50600a5f6101000a81548173ffffffffffffffffffffffffffffffffffffffff021916908373ffffffffffffffffffffffffffffffffffffffff160217905550505050565b5f8054906101000a900473ffffffffffffffffffffffffffffffffffffffff1673ffffffffffffffffffffffffffffffffffffffff163373ffffffffffffffffffffffffffffffffffffffff1614611f06576040517f08c379a0000000000000000000000000000000000000000000000000000000008152600401611efd9061540a565b60405180910390fd5b5f60055f8473ffffffffffffffffffffffffffffffffffffffff1673ffffffffffffffffffffffffffffffffffffffff1681526020019081526020015f2090505f5b8160010180549050811015611fce578280519060200120826001018281548110611f7557611f74614d0b565b5b905f5260205f2001604051611f8a91906154c4565b604051809103902003611fc157816001018181548110611fad57611fac614d0b565b5b905f5260205f20015f611fc09190613c59565b5b8080600101915050611f48565b50505050565b5f60085f8381526020019081526020015f2090508060015f81548110611ffd57611ffc614d0b565b5b905f5260205f20015f9054906101000a900473ffffffffffffffffffffffffffffffffffffffff16908060018154018082558091505060019003905f5260205f20015f9091909190916101000a81548173ffffffffffffffffffffffffffffffffffffffff021916908373ffffffffffffffffffffffffffffffffffffffff160217905550806001808154811061209757612096614d0b565b5b905f5260205f20015f9054906101000a900473ffffffffffffffffffffffffffffffffffffffff16908060018154018082558091505060019003905f5260205f20015f9091909190916101000a81548173ffffffffffffffffffffffffffffffffffffffff021916908373ffffffffffffffffffffffffffffffffffffffff16021790555080600160028154811061213257612131614d0b565b5b905f5260205f20015f9054906101000a900473ffffffffffffffffffffffffffffffffffffffff16908060018154018082558091505060019003905f5260205f20015f9091909190916101000a81548173ffffffffffffffffffffffffffffffffffffffff021916908373ffffffffffffffffffffffffffffffffffffffff1602179055505050565b5f8060065f3373ffffffffffffffffffffffffffffffffffffffff1673ffffffffffffffffffffffffffffffffffffffff1681526020019081526020015f20600401805461220890614c73565b90501161224a576040517f08c379a00000000000000000000000000000000000000000000000000000000081526004016122419061554a565b60405180910390fd5b5f60075f60025481526020019081526020015f20905033816001015f6101000a81548173ffffffffffffffffffffffffffffffffffffffff021916908373ffffffffffffffffffffffffffffffffffffffff160217905550888160020190816122b39190614f5a565b50878160030181905550868160040181905550858160050190816122d79190614f5a565b50848160060181905550838160070190816122f29190614f5a565b50828160080190816123049190614f5a565b505f81600b015f6101000a81548160ff0219169083600481111561232b5761232a614172565b5b0217905550600181600b0160016101000a81548160ff02191690831515021790555060025f81548092919061235f90615056565b91905055505f60065f3373ffffffffffffffffffffffffffffffffffffffff1673ffffffffffffffffffffffffffffffffffffffff1681526020019081526020015f209050815f0154816001018190555060016002546123bf9190615568565b92505050979650505050505050565b5f60075f8481526020019081526020015f2090505f6055836123f091906151d2565b9050816006015481111561241b575f82600b0160016101000a81548160ff0219169083151502179055505b50505050565b5f805f9054906101000a900473ffffffffffffffffffffffffffffffffffffffff1673ffffffffffffffffffffffffffffffffffffffff163373ffffffffffffffffffffffffffffffffffffffff16146124b0576040517f08c379a00000000000000000000000000000000000000000000000000000000081526004016124a79061560b565b60405180910390fd5b5f60055f8673ffffffffffffffffffffffffffffffffffffffff1673ffffffffffffffffffffffffffffffffffffffff1681526020019081526020015f20905083815f0190816125009190614f5a565b508060010183908060018154018082558091505060019003905f5260205f20015f9091909190915090816125349190614f5a565b50600185908060018154018082558091505060019003905f5260205f20015f9091909190916101000a81548173ffffffffffffffffffffffffffffffffffffffff021916908373ffffffffffffffffffffffffffffffffffffffff1602179055506001805490509150509392505050565b6125ad613c96565b60065f8373ffffffffffffffffffffffffffffffffffffffff1673ffffffffffffffffffffffffffffffffffffffff1681526020019081526020015f206040518060c00160405290815f82015f9054906101000a900473ffffffffffffffffffffffffffffffffffffffff1673ffffffffffffffffffffffffffffffffffffffff1673ffffffffffffffffffffffffffffffffffffffff16815260200160018201548152602001600282016040518060400160405290815f8201548152602001600182015f9054906101000a900460ff161515151581525050815260200160048201805461269a90614c73565b80601f01602080910402602001604051908101604052809291908181526020018280546126c690614c73565b80156127115780601f106126e857610100808354040283529160200191612711565b820191905f5260205f20905b8154815290600101906020018083116126f457829003601f168201915b5050505050815260200160058201805461272a90614c73565b80601f016020809104026020016040519081016040528092919081815260200182805461275690614c73565b80156127a15780601f10612778576101008083540402835291602001916127a1565b820191905f5260205f20905b81548152906001019060200180831161278457829003601f168201915b505050505081526020016006820180546127ba90614c73565b80601f01602080910402602001604051908101604052809291908181526020018280546127e690614c73565b80156128315780601f1061280857610100808354040283529160200191612831565b820191905f5260205f20905b81548152906001019060200180831161281457829003601f168201915b5050505050815250509050919050565b6009602052815f5260405f20818154811061285a575f80fd5b905f5260205f20015f915091509054906101000a900473ffffffffffffffffffffffffffffffffffffffff1681565b6006602052805f5260405f205f91509050805f015f9054906101000a900473ffffffffffffffffffffffffffffffffffffffff1690806001015490806002016040518060400160405290815f8201548152602001600182015f9054906101000a900460ff1615151515815250509080600401805461290690614c73565b80601f016020809104026020016040519081016040528092919081815260200182805461293290614c73565b801561297d5780601f106129545761010080835404028352916020019161297d565b820191905f5260205f20905b81548152906001019060200180831161296057829003601f168201915b50505050509080600501805461299290614c73565b80601f01602080910402602001604051908101604052809291908181526020018280546129be90614c73565b8015612a095780601f106129e057610100808354040283529160200191612a09565b820191905f5260205f20905b8154815290600101906020018083116129ec57829003601f168201915b505050505090806006018054612a1e90614c73565b80601f0160208091040260200160405190810160405280929190818152602001828054612a4a90614c73565b8015612a955780601f10612a6c57610100808354040283529160200191612a95565b820191905f5260205f20905b815481529060010190602001808311612a7857829003601f168201915b5050505050905086565b5f60095f8381526020019081526020015f209050600a5f9054906101000a900473ffffffffffffffffffffffffffffffffffffffff1673ffffffffffffffffffffffffffffffffffffffff1663e0c862896040518163ffffffff1660e01b81526004015f604051808303815f87803b158015612b19575f80fd5b505af1158015612b2b573d5f803e3d5ffd5b505050505f600a5f9054906101000a900473ffffffffffffffffffffffffffffffffffffffff1673ffffffffffffffffffffffffffffffffffffffff1663f6eaffc86004546040518263ffffffff1660e01b8152600401612b8c919061411f565b602060405180830381865afa158015612ba7573d5f803e3d5ffd5b505050506040513d601f19601f82011682018060405250810190612bcb9190615227565b9050816001808054905083612be0919061527f565b81548110612bf157612bf0614d0b565b5b905f5260205f20015f9054906101000a900473ffffffffffffffffffffffffffffffffffffffff16908060018154018082558091505060019003905f5260205f20015f9091909190916101000a81548173ffffffffffffffffffffffffffffffffffffffff021916908373ffffffffffffffffffffffffffffffffffffffff1602179055508160018080549050600284612c8b91906152af565b612c95919061527f565b81548110612ca657612ca5614d0b565b5b905f5260205f20015f9054906101000a900473ffffffffffffffffffffffffffffffffffffffff16908060018154018082558091505060019003905f5260205f20015f9091909190916101000a81548173ffffffffffffffffffffffffffffffffffffffff021916908373ffffffffffffffffffffffffffffffffffffffff1602179055508160018080549050600284612d4091906151d2565b612d4a919061527f565b81548110612d5b57612d5a614d0b565b5b905f5260205f20015f9054906101000a900473ffffffffffffffffffffffffffffffffffffffff16908060018154018082558091505060019003905f5260205f20015f9091909190916101000a81548173ffffffffffffffffffffffffffffffffffffffff021916908373ffffffffffffffffffffffffffffffffffffffff160217905550505050565b612ded613ce6565b60075f8381526020019081526020015f20604051806101a00160405290815f8201548152602001600182015f9054906101000a900473ffffffffffffffffffffffffffffffffffffffff1673ffffffffffffffffffffffffffffffffffffffff1673ffffffffffffffffffffffffffffffffffffffff168152602001600282018054612e7890614c73565b80601f0160208091040260200160405190810160405280929190818152602001828054612ea490614c73565b8015612eef5780601f10612ec657610100808354040283529160200191612eef565b820191905f5260205f20905b815481529060010190602001808311612ed257829003601f168201915b505050505081526020016003820154815260200160048201548152602001600582018054612f1c90614c73565b80601f0160208091040260200160405190810160405280929190818152602001828054612f4890614c73565b8015612f935780601f10612f6a57610100808354040283529160200191612f93565b820191905f5260205f20905b815481529060010190602001808311612f7657829003601f168201915b5050505050815260200160068201548152602001600782018054612fb690614c73565b80601f0160208091040260200160405190810160405280929190818152602001828054612fe290614c73565b801561302d5780601f106130045761010080835404028352916020019161302d565b820191905f5260205f20905b81548152906001019060200180831161301057829003601f168201915b5050505050815260200160088201805461304690614c73565b80601f016020809104026020016040519081016040528092919081815260200182805461307290614c73565b80156130bd5780601f10613094576101008083540402835291602001916130bd565b820191905f5260205f20905b8154815290600101906020018083116130a057829003601f168201915b5050505050815260200160098201805480602002602001604051908101604052809291908181526020015f905b82821015613218578382905f5260205f2090600202016040518060600160405290815f82015f9054906101000a900473ffffffffffffffffffffffffffffffffffffffff1673ffffffffffffffffffffffffffffffffffffffff1673ffffffffffffffffffffffffffffffffffffffff1681526020015f820160149054906101000a900460ff1615151515815260200160018201805461318990614c73565b80601f01602080910402602001604051908101604052809291908181526020018280546131b590614c73565b80156132005780601f106131d757610100808354040283529160200191613200565b820191905f5260205f20905b8154815290600101906020018083116131e357829003601f168201915b505050505081525050815260200190600101906130ea565b505050508152602001600a8201805480602002602001604051908101604052809291908181526020015f905b82821015613372578382905f5260205f2090600202016040518060600160405290815f82015f9054906101000a900473ffffffffffffffffffffffffffffffffffffffff1673ffffffffffffffffffffffffffffffffffffffff1673ffffffffffffffffffffffffffffffffffffffff1681526020015f820160149054906101000a900460ff161515151581526020016001820180546132e390614c73565b80601f016020809104026020016040519081016040528092919081815260200182805461330f90614c73565b801561335a5780601f106133315761010080835404028352916020019161335a565b820191905f5260205f20905b81548152906001019060200180831161333d57829003601f168201915b50505050508152505081526020019060010190613244565b505050508152602001600b82015f9054906101000a900460ff16600481111561339e5761339d614172565b5b60048111156133b0576133af614172565b5b8152602001600b820160019054906101000a900460ff1615151515815250509050919050565b5f8060075f8481526020019081526020015f2090505f5b6003811015613484578473ffffffffffffffffffffffffffffffffffffffff1682600a01828154811061342357613422614d0b565b5b905f5260205f2090600202015f015f9054906101000a900473ffffffffffffffffffffffffffffffffffffffff1673ffffffffffffffffffffffffffffffffffffffff16036134775760019250505061348a565b80806001019150506133ed565b505f9150505b92915050565b5f805f9054906101000a900473ffffffffffffffffffffffffffffffffffffffff1673ffffffffffffffffffffffffffffffffffffffff163373ffffffffffffffffffffffffffffffffffffffff161461351f576040517f08c379a000000000000000000000000000000000000000000000000000000000815260040161351690615673565b60405180910390fd5b60055f8373ffffffffffffffffffffffffffffffffffffffff1673ffffffffffffffffffffffffffffffffffffffff1681526020019081526020015f205f8082015f61356b9190613c59565b600182015f61357a9190613d71565b50505f5b600180549050811015613730578273ffffffffffffffffffffffffffffffffffffffff16600182815481106135b6576135b5614d0b565b5b905f5260205f20015f9054906101000a900473ffffffffffffffffffffffffffffffffffffffff1673ffffffffffffffffffffffffffffffffffffffff16036137235760018054905081106136135760018054905091505061373a565b5f8190505b600180805490506136299190615568565b8110156136dd576001808361363e9190615691565b8154811061364f5761364e614d0b565b5b905f5260205f20015f9054906101000a900473ffffffffffffffffffffffffffffffffffffffff166001838154811061368b5761368a614d0b565b5b905f5260205f20015f6101000a81548173ffffffffffffffffffffffffffffffffffffffff021916908373ffffffffffffffffffffffffffffffffffffffff1602179055508080600101915050613618565b5060018054806136f0576136ef6156c4565b5b600190038181905f5260205f20015f6101000a81549073ffffffffffffffffffffffffffffffffffffffff021916905590555b808060010191505061357e565b5060018054905090505b919050565b5f60075f8381526020019081526020015f209050806009015f8154811061376957613768614d0b565b5b905f5260205f2090600202015f0160149054906101000a900460ff1680156137c05750806009016001815481106137a3576137a2614d0b565b5b905f5260205f2090600202015f0160149054906101000a900460ff165b80156137fb5750806009016002815481106137de576137dd614d0b565b5b905f5260205f2090600202015f0160149054906101000a900460ff165b8061386f5750806009015f8154811061381757613816614d0b565b5b905f5260205f2090600202015f0160149054906101000a900460ff16801561386e57508060090160018154811061385157613850614d0b565b5b905f5260205f2090600202015f0160149054906101000a900460ff165b5b806138e457508060090160018154811061388c5761388b614d0b565b5b905f5260205f2090600202015f0160149054906101000a900460ff1680156138e35750806009016002815481106138c6576138c5614d0b565b5b905f5260205f2090600202015f0160149054906101000a900460ff165b5b806139585750806009015f81548110613900576138ff614d0b565b5b905f5260205f2090600202015f0160149054906101000a900460ff16801561395757508060090160028154811061393a57613939614d0b565b5b905f5260205f2090600202015f0160149054906101000a900460ff165b5b1561398e57600281600b015f6101000a81548160ff0219169083600481111561398457613983614172565b5b02179055506139bb565b600481600b015f6101000a81548160ff021916908360048111156139b5576139b4614172565b5b02179055505b5050565b5f60075f8381526020019081526020015f20905080600a015f815481106139e9576139e8614d0b565b5b905f5260205f2090600202015f0160149054906101000a900460ff168015613a40575080600a01600181548110613a2357613a22614d0b565b5b905f5260205f2090600202015f0160149054906101000a900460ff165b8015613a7b575080600a01600281548110613a5e57613a5d614d0b565b5b905f5260205f2090600202015f0160149054906101000a900460ff165b80613aef575080600a015f81548110613a9757613a96614d0b565b5b905f5260205f2090600202015f0160149054906101000a900460ff168015613aee575080600a01600181548110613ad157613ad0614d0b565b5b905f5260205f2090600202015f0160149054906101000a900460ff165b5b80613b64575080600a01600181548110613b0c57613b0b614d0b565b5b905f5260205f2090600202015f0160149054906101000a900460ff168015613b63575080600a01600281548110613b4657613b45614d0b565b5b905f5260205f2090600202015f0160149054906101000a900460ff165b5b80613bd8575080600a015f81548110613b8057613b7f614d0b565b5b905f5260205f2090600202015f0160149054906101000a900460ff168015613bd7575080600a01600281548110613bba57613bb9614d0b565b5b905f5260205f2090600202015f0160149054906101000a900460ff165b5b15613c0e57600181600b015f6101000a81548160ff02191690836004811115613c0457613c03614172565b5b0217905550613c3b565b600481600b015f6101000a81548160ff02191690836004811115613c3557613c34614172565b5b02179055505b5050565b612329806156f283390190565b610abb80617a1b83390190565b508054613c6590614c73565b5f825580601f10613c765750613c93565b601f0160209004905f5260205f2090810190613c929190613d8f565b5b50565b6040518060c001604052805f73ffffffffffffffffffffffffffffffffffffffff1681526020015f8152602001613ccb613daa565b81526020016060815260200160608152602001606081525090565b604051806101a001604052805f81526020015f73ffffffffffffffffffffffffffffffffffffffff168152602001606081526020015f81526020015f8152602001606081526020015f8152602001606081526020016060815260200160608152602001606081526020015f6004811115613d6357613d62614172565b5b81526020015f151581525090565b5080545f8255905f5260205f2090810190613d8c9190613dc7565b50565b5b80821115613da6575f815f905550600101613d90565b5090565b60405180604001604052805f80191681526020015f151581525090565b5b80821115613de6575f8181613ddd9190613c59565b50600101613dc8565b5090565b5f604051905090565b5f80fd5b5f80fd5b5f73ffffffffffffffffffffffffffffffffffffffff82169050919050565b5f613e2482613dfb565b9050919050565b613e3481613e1a565b8114613e3e575f80fd5b50565b5f81359050613e4f81613e2b565b92915050565b5f60208284031215613e6a57613e69613df3565b5b5f613e7784828501613e41565b91505092915050565b5f81519050919050565b5f82825260208201905092915050565b8281835e5f83830152505050565b5f601f19601f8301169050919050565b5f613ec282613e80565b613ecc8185613e8a565b9350613edc818560208601613e9a565b613ee581613ea8565b840191505092915050565b5f6020820190508181035f830152613f088184613eb8565b905092915050565b5f819050919050565b613f2281613f10565b8114613f2c575f80fd5b50565b5f81359050613f3d81613f19565b92915050565b5f8115159050919050565b613f5781613f43565b8114613f61575f80fd5b50565b5f81359050613f7281613f4e565b92915050565b5f80fd5b5f80fd5b7f4e487b71000000000000000000000000000000000000000000000000000000005f52604160045260245ffd5b613fb682613ea8565b810181811067ffffffffffffffff82111715613fd557613fd4613f80565b5b80604052505050565b5f613fe7613dea565b9050613ff38282613fad565b919050565b5f67ffffffffffffffff82111561401257614011613f80565b5b61401b82613ea8565b9050602081019050919050565b828183375f83830152505050565b5f61404861404384613ff8565b613fde565b90508281526020810184848401111561406457614063613f7c565b5b61406f848285614028565b509392505050565b5f82601f83011261408b5761408a613f78565b5b813561409b848260208601614036565b91505092915050565b5f805f606084860312156140bb576140ba613df3565b5b5f6140c886828701613f2f565b93505060206140d986828701613f64565b925050604084013567ffffffffffffffff8111156140fa576140f9613df7565b5b61410686828701614077565b9150509250925092565b61411981613f10565b82525050565b5f6020820190506141325f830184614110565b92915050565b5f6020828403121561414d5761414c613df3565b5b5f61415a84828501613f2f565b91505092915050565b61416c81613e1a565b82525050565b7f4e487b71000000000000000000000000000000000000000000000000000000005f52602160045260245ffd5b600581106141b0576141af614172565b5b50565b5f8190506141c08261419f565b919050565b5f6141cf826141b3565b9050919050565b6141df816141c5565b82525050565b6141ee81613f43565b82525050565b5f610160820190506142085f83018e614110565b614215602083018d614163565b8181036040830152614227818c613eb8565b9050614236606083018b614110565b614243608083018a614110565b81810360a08301526142558189613eb8565b905061426460c0830188614110565b81810360e08301526142768187613eb8565b905081810361010083015261428b8186613eb8565b905061429b6101208301856141d6565b6142a96101408301846141e5565b9c9b505050505050505050505050565b5f80604083850312156142cf576142ce613df3565b5b5f6142dc85828601613f2f565b92505060206142ed85828601613f2f565b9150509250929050565b5f60208201905061430a5f830184614163565b92915050565b5f819050919050565b5f61433361432e61432984613dfb565b614310565b613dfb565b9050919050565b5f61434482614319565b9050919050565b5f6143558261433a565b9050919050565b6143658161434b565b82525050565b5f60208201905061437e5f83018461435c565b92915050565b5f805f6060848603121561439b5761439a613df3565b5b5f84013567ffffffffffffffff8111156143b8576143b7613df7565b5b6143c486828701614077565b935050602084013567ffffffffffffffff8111156143e5576143e4613df7565b5b6143f186828701614077565b925050604084013567ffffffffffffffff81111561441257614411613df7565b5b61441e86828701614077565b9150509250925092565b5f806040838503121561443e5761443d613df3565b5b5f61444b85828601613e41565b925050602061445c85828601613f64565b9150509250929050565b5f819050919050565b61447881614466565b8114614482575f80fd5b50565b5f813590506144938161446f565b92915050565b5f602082840312156144ae576144ad613df3565b5b5f6144bb84828501614485565b91505092915050565b5f80604083850312156144da576144d9613df3565b5b5f6144e785828601613e41565b92505060206144f885828601613f2f565b9150509250929050565b5f6020820190506145155f8301846141e5565b92915050565b5f806040838503121561453157614530613df3565b5b5f61453e85828601613e41565b925050602083013567ffffffffffffffff81111561455f5761455e613df7565b5b61456b85828601614077565b9150509250929050565b5f61457f8261433a565b9050919050565b61458f81614575565b82525050565b5f6020820190506145a85f830184614586565b92915050565b5f67ffffffffffffffff82169050919050565b6145ca816145ae565b81146145d4575f80fd5b50565b5f813590506145e5816145c1565b92915050565b5f805f6060848603121561460257614601613df3565b5b5f61460f868287016145d7565b935050602061462086828701613e41565b925050604061463186828701614485565b9150509250925092565b5f805f805f805f60e0888a03121561465657614655613df3565b5b5f88013567ffffffffffffffff81111561467357614672613df7565b5b61467f8a828b01614077565b97505060206146908a828b01613f2f565b96505060406146a18a828b01613f2f565b955050606088013567ffffffffffffffff8111156146c2576146c1613df7565b5b6146ce8a828b01614077565b94505060806146df8a828b01613f2f565b93505060a088013567ffffffffffffffff811115614700576146ff613df7565b5b61470c8a828b01614077565b92505060c088013567ffffffffffffffff81111561472d5761472c613df7565b5b6147398a828b01614077565b91505092959891949750929550565b5f805f6060848603121561475f5761475e613df3565b5b5f61476c86828701613e41565b935050602084013567ffffffffffffffff81111561478d5761478c613df7565b5b61479986828701614077565b925050604084013567ffffffffffffffff8111156147ba576147b9613df7565b5b6147c686828701614077565b9150509250925092565b6147d981613e1a565b82525050565b6147e881613f10565b82525050565b6147f781614466565b82525050565b61480681613f43565b82525050565b604082015f8201516148205f8501826147ee565b50602082015161483360208501826147fd565b50505050565b5f82825260208201905092915050565b5f61485382613e80565b61485d8185614839565b935061486d818560208601613e9a565b61487681613ea8565b840191505092915050565b5f60e083015f8301516148965f8601826147d0565b5060208301516148a960208601826147df565b5060408301516148bc604086018261480c565b50606083015184820360808601526148d48282614849565b915050608083015184820360a08601526148ee8282614849565b91505060a083015184820360c08601526149088282614849565b9150508091505092915050565b5f6020820190508181035f83015261492d8184614881565b905092915050565b604082015f8201516149495f8501826147ee565b50602082015161495c60208501826147fd565b50505050565b5f60e0820190506149755f830189614163565b6149826020830188614110565b61498f6040830187614935565b81810360808301526149a18186613eb8565b905081810360a08301526149b58185613eb8565b905081810360c08301526149c98184613eb8565b9050979650505050505050565b5f81519050919050565b5f82825260208201905092915050565b5f819050602082019050919050565b5f606083015f830151614a145f8601826147d0565b506020830151614a2760208601826147fd565b5060408301518482036040860152614a3f8282614849565b9150508091505092915050565b5f614a5783836149ff565b905092915050565b5f602082019050919050565b5f614a75826149d6565b614a7f81856149e0565b935083602082028501614a91856149f0565b805f5b85811015614acc5784840389528151614aad8582614a4c565b9450614ab883614a5f565b925060208a01995050600181019050614a94565b50829750879550505050505092915050565b614ae7816141c5565b82525050565b5f6101a083015f830151614b035f8601826147df565b506020830151614b1660208601826147d0565b5060408301518482036040860152614b2e8282614849565b9150506060830151614b4360608601826147df565b506080830151614b5660808601826147df565b5060a083015184820360a0860152614b6e8282614849565b91505060c0830151614b8360c08601826147df565b5060e083015184820360e0860152614b9b8282614849565b915050610100830151848203610100860152614bb78282614849565b915050610120830151848203610120860152614bd38282614a6b565b915050610140830151848203610140860152614bef8282614a6b565b915050610160830151614c06610160860182614ade565b50610180830151614c1b6101808601826147fd565b508091505092915050565b5f6020820190508181035f830152614c3e8184614aed565b905092915050565b7f4e487b71000000000000000000000000000000000000000000000000000000005f52602260045260245ffd5b5f6002820490506001821680614c8a57607f821691505b602082108103614c9d57614c9c614c46565b5b50919050565b7f566572696669657220646f6573206e6f742065786973740000000000000000005f82015250565b5f614cd7601783613e8a565b9150614ce282614ca3565b602082019050919050565b5f6020820190508181035f830152614d0481614ccb565b9050919050565b7f4e487b71000000000000000000000000000000000000000000000000000000005f52603260045260245ffd5b7f5665726966696572206e6f7420617070726f76656420666f722070726f6a65635f8201527f7400000000000000000000000000000000000000000000000000000000000000602082015250565b5f614d92602183613e8a565b9150614d9d82614d38565b604082019050919050565b5f6020820190508181035f830152614dbf81614d86565b9050919050565b5f819050815f5260205f209050919050565b5f6020601f8301049050919050565b5f82821b905092915050565b5f60088302614e227fffffffffffffffffffffffffffffffffffffffffffffffffffffffffffffffff82614de7565b614e2c8683614de7565b95508019841693508086168417925050509392505050565b5f614e5e614e59614e5484613f10565b614310565b613f10565b9050919050565b5f819050919050565b614e7783614e44565b614e8b614e8382614e65565b848454614df3565b825550505050565b5f90565b614e9f614e93565b614eaa818484614e6e565b505050565b5b81811015614ecd57614ec25f82614e97565b600181019050614eb0565b5050565b601f821115614f1257614ee381614dc6565b614eec84614dd8565b81016020851015614efb578190505b614f0f614f0785614dd8565b830182614eaf565b50505b505050565b5f82821c905092915050565b5f614f325f1984600802614f17565b1980831691505092915050565b5f614f4a8383614f23565b9150826002028217905092915050565b614f6382613e80565b67ffffffffffffffff811115614f7c57614f7b613f80565b5b614f868254614c73565b614f91828285614ed1565b5f60209050601f831160018114614fc2575f8415614fb0578287015190505b614fba8582614f3f565b865550615021565b601f198416614fd086614dc6565b5f5b82811015614ff757848901518255600182019150602085019450602081019050614fd2565b868310156150145784890151615010601f891682614f23565b8355505b6001600288020188555050505b505050505050565b7f4e487b71000000000000000000000000000000000000000000000000000000005f52601160045260245ffd5b5f61506082613f10565b91507fffffffffffffffffffffffffffffffffffffffffffffffffffffffffffffffff820361509257615091615029565b5b600182019050919050565b7f4f6e6c79206f776e65722063616e2076657269667920646f63756d656e7473005f82015250565b5f6150d1601f83613e8a565b91506150dc8261509d565b602082019050919050565b5f6020820190508181035f8301526150fe816150c5565b9050919050565b7f4f6e6c79206f776e65722063616e2063616c63756c61746520656d697373696f5f8201527f6e73000000000000000000000000000000000000000000000000000000000000602082015250565b5f61515f602283613e8a565b915061516a82615105565b604082019050919050565b5f6020820190508181035f83015261518c81615153565b9050919050565b5f815190506151a18161446f565b92915050565b5f602082840312156151bc576151bb613df3565b5b5f6151c984828501615193565b91505092915050565b5f6151dc82613f10565b91506151e783613f10565b92508282026151f581613f10565b9150828204841483151761520c5761520b615029565b5b5092915050565b5f8151905061522181613f19565b92915050565b5f6020828403121561523c5761523b613df3565b5b5f61524984828501615213565b91505092915050565b7f4e487b71000000000000000000000000000000000000000000000000000000005f52601260045260245ffd5b5f61528982613f10565b915061529483613f10565b9250826152a4576152a3615252565b5b828206905092915050565b5f6152b982613f10565b91506152c483613f10565b9250826152d4576152d3615252565b5b828204905092915050565b7f4f6e6c79206f776e65722063616e20616464206d6574686f646f6c6f676965735f82015250565b5f615313602083613e8a565b915061531e826152df565b602082019050919050565b5f6020820190508181035f83015261534081615307565b9050919050565b615350816145ae565b82525050565b61535f81614466565b82525050565b5f6060820190506153785f830186615347565b6153856020830185614163565b6153926040830184615356565b949350505050565b7f4f6e6c79206f776e65722063616e2072656d6f7665206d6574686f646f6c6f675f8201527f6965730000000000000000000000000000000000000000000000000000000000602082015250565b5f6153f4602383613e8a565b91506153ff8261539a565b604082019050919050565b5f6020820190508181035f830152615421816153e8565b9050919050565b5f81905092915050565b5f819050815f5260205f209050919050565b5f815461545081614c73565b61545a8186615428565b9450600182165f81146154745760018114615489576154bb565b60ff19831686528115158202860193506154bb565b61549285615432565b5f5b838110156154b357815481890152600182019150602081019050615494565b838801955050505b50505092915050565b5f6154cf8284615444565b915081905092915050565b7f55736572206d757374206d616b65207468656d73656c76657320612070726f705f8201527f6f6e656e74000000000000000000000000000000000000000000000000000000602082015250565b5f615534602583613e8a565b915061553f826154da565b604082019050919050565b5f6020820190508181035f83015261556181615528565b9050919050565b5f61557282613f10565b915061557d83613f10565b925082820390508181111561559557615594615029565b5b92915050565b7f4f6e6c79206f776e65722063616e20617574686f7269736520766572696669655f8201527f7273000000000000000000000000000000000000000000000000000000000000602082015250565b5f6155f5602283613e8a565b91506156008261559b565b604082019050919050565b5f6020820190508181035f830152615622816155e9565b9050919050565b7f4f6e6c79206f776e65722063616e2072656d6f766520766572696669657273005f82015250565b5f61565d601f83613e8a565b915061566882615629565b602082019050919050565b5f6020820190508181035f83015261568a81615651565b9050919050565b5f61569b82613f10565b91506156a683613f10565b92508282019050808211156156be576156bd615029565b5b92915050565b7f4e487b71000000000000000000000000000000000000000000000000000000005f52603160045260245ffdfe60806040526001600455348015610014575f80fd5b5033805f8073ffffffffffffffffffffffffffffffffffffffff168273ffffffffffffffffffffffffffffffffffffffff1603610086576040517f08c379a000000000000000000000000000000000000000000000000000000000815260040161007d906103b1565b60405180910390fd5b8160065f6101000a81548173ffffffffffffffffffffffffffffffffffffffff021916908373ffffffffffffffffffffffffffffffffffffffff1602179055505f73ffffffffffffffffffffffffffffffffffffffff168173ffffffffffffffffffffffffffffffffffffffff161461010957610108816101a560201b60201c565b5b50505061012f73779877a7b0d9e8603169ddbd7836e478b46247896102d160201b60201c565b610152736090149792daaee9d1d568c9f9a6f6b46aa29efd61031460201b60201c565b7f6361393833363663633733313439353762386330313263373266303561656562600981905550600a670de0b6b3a764000060016101909190610405565b61019a9190610473565b600a8190555061050b565b3373ffffffffffffffffffffffffffffffffffffffff168173ffffffffffffffffffffffffffffffffffffffff1603610213576040517f08c379a000000000000000000000000000000000000000000000000000000000815260040161020a906104ed565b60405180910390fd5b8060075f6101000a81548173ffffffffffffffffffffffffffffffffffffffff021916908373ffffffffffffffffffffffffffffffffffffffff1602179055508073ffffffffffffffffffffffffffffffffffffffff1660065f9054906101000a900473ffffffffffffffffffffffffffffffffffffffff1673ffffffffffffffffffffffffffffffffffffffff167fed8889f560326eb138920d842192f0eb3dd22b4f139c87a2c57538e05bae127860405160405180910390a350565b8060025f6101000a81548173ffffffffffffffffffffffffffffffffffffffff021916908373ffffffffffffffffffffffffffffffffffffffff16021790555050565b8060035f6101000a81548173ffffffffffffffffffffffffffffffffffffffff021916908373ffffffffffffffffffffffffffffffffffffffff16021790555050565b5f82825260208201905092915050565b7f43616e6e6f7420736574206f776e657220746f207a65726f00000000000000005f82015250565b5f61039b601883610357565b91506103a682610367565b602082019050919050565b5f6020820190508181035f8301526103c88161038f565b9050919050565b5f819050919050565b7f4e487b71000000000000000000000000000000000000000000000000000000005f52601160045260245ffd5b5f61040f826103cf565b915061041a836103cf565b9250828202610428816103cf565b9150828204841483151761043f5761043e6103d8565b5b5092915050565b7f4e487b71000000000000000000000000000000000000000000000000000000005f52601260045260245ffd5b5f61047d826103cf565b9150610488836103cf565b92508261049857610497610446565b5b828204905092915050565b7f43616e6e6f74207472616e7366657220746f2073656c660000000000000000005f82015250565b5f6104d7601783610357565b91506104e2826104a3565b602082019050919050565b5f6020820190508181035f830152610504816104cb565b9050919050565b611e11806105185f395ff3fe608060405234801561000f575f80fd5b506004361061007b575f3560e01c80638da5cb5b116100595780638da5cb5b146100d55780638dc654a2146100f3578063c618a1e4146100fd578063f2fde38b1461011b5761007b565b80632adb9e3c1461007f5780634357855e146100af57806379ba5097146100cb575b5f80fd5b61009960048036038101906100949190611305565b610137565b6040516100a69190611348565b60405180910390f35b6100c960048036038101906100c4919061138b565b6101d4565b005b6100d3610317565b005b6100dd6104a8565b6040516100ea9190611408565b60405180910390f35b6100fb6104d0565b005b610105610617565b6040516101129190611430565b60405180910390f35b61013560048036038101906101309190611473565b61061d565b005b5f8061014d60095430634357855e60e01b610631565b90506101c06040518060400160405280600381526020017f676574000000000000000000000000000000000000000000000000000000000081525061019185610662565b6040516020016101a19190611516565b6040516020818303038152906040528361072c9092919063ffffffff16565b6101cc81600a5461075f565b915050919050565b8160055f8281526020019081526020015f205f9054906101000a900473ffffffffffffffffffffffffffffffffffffffff1673ffffffffffffffffffffffffffffffffffffffff163373ffffffffffffffffffffffffffffffffffffffff1614610273576040517f08c379a000000000000000000000000000000000000000000000000000000000815260040161026a906115bb565b60405180910390fd5b60055f8281526020019081526020015f205f6101000a81549073ffffffffffffffffffffffffffffffffffffffff0219169055807f7cc135e0cebb02c3480ae5d74d377283180a2601f8f644edf7987b009316c63a60405160405180910390a2827f673b38182859a514d734bdfcb49d3a05c4a641dec9311d9894c9717bcb79af76836040516103039190611430565b60405180910390a281600881905550505050565b60075f9054906101000a900473ffffffffffffffffffffffffffffffffffffffff1673ffffffffffffffffffffffffffffffffffffffff163373ffffffffffffffffffffffffffffffffffffffff16146103a6576040517f08c379a000000000000000000000000000000000000000000000000000000000815260040161039d90611623565b60405180910390fd5b5f60065f9054906101000a900473ffffffffffffffffffffffffffffffffffffffff1690503360065f6101000a81548173ffffffffffffffffffffffffffffffffffffffff021916908373ffffffffffffffffffffffffffffffffffffffff1602179055505f60075f6101000a81548173ffffffffffffffffffffffffffffffffffffffff021916908373ffffffffffffffffffffffffffffffffffffffff1602179055503373ffffffffffffffffffffffffffffffffffffffff168173ffffffffffffffffffffffffffffffffffffffff167f8be0079c531659141344cd1fd0a4f28419497f9722a3daafe3b4186f6b6457e060405160405180910390a350565b5f60065f9054906101000a900473ffffffffffffffffffffffffffffffffffffffff16905090565b6104d8610794565b5f6104e1610825565b90508073ffffffffffffffffffffffffffffffffffffffff1663a9059cbb338373ffffffffffffffffffffffffffffffffffffffff166370a08231306040518263ffffffff1660e01b81526004016105399190611408565b602060405180830381865afa158015610554573d5f803e3d5ffd5b505050506040513d601f19601f820116820180604052508101906105789190611655565b6040518363ffffffff1660e01b8152600401610595929190611680565b6020604051808303815f875af11580156105b1573d5f803e3d5ffd5b505050506040513d601f19601f820116820180604052508101906105d591906116dc565b610614576040517f08c379a000000000000000000000000000000000000000000000000000000000815260040161060b90611751565b60405180910390fd5b50565b60085481565b610625610794565b61062e8161084d565b50565b61063961124c565b61064161124c565b61065885858584610979909392919063ffffffff16565b9150509392505050565b60605f600161067084610a28565b0190505f8167ffffffffffffffff81111561068e5761068d61176f565b5b6040519080825280601f01601f1916602001820160405280156106c05781602001600182028036833780820191505090505b5090505f82602001820190505b600115610721578080600190039150507f3031323334353637383961626364656600000000000000000000000000000000600a86061a8153600a85816107165761071561179c565b5b0494505f85036106cd575b819350505050919050565b610743828460800151610b7990919063ffffffff16565b61075a818460800151610b7990919063ffffffff16565b505050565b5f61078c60035f9054906101000a900473ffffffffffffffffffffffffffffffffffffffff168484610b9e565b905092915050565b60065f9054906101000a900473ffffffffffffffffffffffffffffffffffffffff1673ffffffffffffffffffffffffffffffffffffffff163373ffffffffffffffffffffffffffffffffffffffff1614610823576040517f08c379a000000000000000000000000000000000000000000000000000000000815260040161081a90611813565b60405180910390fd5b565b5f60025f9054906101000a900473ffffffffffffffffffffffffffffffffffffffff16905090565b3373ffffffffffffffffffffffffffffffffffffffff168173ffffffffffffffffffffffffffffffffffffffff16036108bb576040517f08c379a00000000000000000000000000000000000000000000000000000000081526004016108b29061187b565b60405180910390fd5b8060075f6101000a81548173ffffffffffffffffffffffffffffffffffffffff021916908373ffffffffffffffffffffffffffffffffffffffff1602179055508073ffffffffffffffffffffffffffffffffffffffff1660065f9054906101000a900473ffffffffffffffffffffffffffffffffffffffff1673ffffffffffffffffffffffffffffffffffffffff167fed8889f560326eb138920d842192f0eb3dd22b4f139c87a2c57538e05bae127860405160405180910390a350565b61098161124c565b6109918560800151610100610c65565b5083855f01818152505082856020019073ffffffffffffffffffffffffffffffffffffffff16908173ffffffffffffffffffffffffffffffffffffffff16815250508185604001907bffffffffffffffffffffffffffffffffffffffffffffffffffffffff191690817bffffffffffffffffffffffffffffffffffffffffffffffffffffffff191681525050849050949350505050565b5f805f90507a184f03e93ff9f4daa797ed6e38ed64bf6a1f0100000000000000008310610a84577a184f03e93ff9f4daa797ed6e38ed64bf6a1f0100000000000000008381610a7a57610a7961179c565b5b0492506040810190505b6d04ee2d6d415b85acef81000000008310610ac1576d04ee2d6d415b85acef81000000008381610ab757610ab661179c565b5b0492506020810190505b662386f26fc100008310610af057662386f26fc100008381610ae657610ae561179c565b5b0492506010810190505b6305f5e1008310610b19576305f5e1008381610b0f57610b0e61179c565b5b0492506008810190505b6127108310610b3e576127108381610b3457610b3361179c565b5b0492506004810190505b60648310610b615760648381610b5757610b5661179c565b5b0492506002810190505b600a8310610b70576001810190505b80915050919050565b610b868260038351610ccd565b610b998183610e5290919063ffffffff16565b505050565b5f806004549050600181610bb291906118c6565b6004819055505f634042994660e01b5f80875f01513089604001518760018c608001515f0151604051602401610bef989796959493929190611995565b604051602081830303815290604052907bffffffffffffffffffffffffffffffffffffffffffffffffffffffff19166020820180517bffffffffffffffffffffffffffffffffffffffffffffffffffffffff83818316178352505050509050610c5a86838684610e73565b925050509392505050565b610c6d6112b5565b5f602083610c7b9190611a18565b14610ca757602082610c8d9190611a18565b6020610c999190611a48565b82610ca491906118c6565b91505b818360200181815250506040518084525f81528281016020016040525082905092915050565b60178167ffffffffffffffff1611610d0457610cfe8160058460ff16901b60ff16178461100090919063ffffffff16565b50610e4d565b60ff8167ffffffffffffffff1611610d5a57610d33601860058460ff16901b178461100090919063ffffffff16565b50610d548167ffffffffffffffff1660018561101f9092919063ffffffff16565b50610e4c565b61ffff8167ffffffffffffffff1611610db157610d8a601960058460ff16901b178461100090919063ffffffff16565b50610dab8167ffffffffffffffff1660028561101f9092919063ffffffff16565b50610e4b565b63ffffffff8167ffffffffffffffff1611610e0a57610de3601a60058460ff16901b178461100090919063ffffffff16565b50610e048167ffffffffffffffff1660048561101f9092919063ffffffff16565b50610e4a565b610e27601b60058460ff16901b178461100090919063ffffffff16565b50610e488167ffffffffffffffff1660088561101f9092919063ffffffff16565b505b5b5b5b505050565b610e5a6112b5565b610e6b83845f015151848551611040565b905092915050565b5f3084604051602001610e87929190611b2c565b6040516020818303038152906040528051906020012090508460055f8381526020019081526020015f205f6101000a81548173ffffffffffffffffffffffffffffffffffffffff021916908373ffffffffffffffffffffffffffffffffffffffff160217905550807fb5e6e01e79f91267dc17b4e6314d5d4d03593d2ceee0fbb452b750bd70ea5af960405160405180910390a260025f9054906101000a900473ffffffffffffffffffffffffffffffffffffffff1673ffffffffffffffffffffffffffffffffffffffff16634000aea08685856040518463ffffffff1660e01b8152600401610f7993929190611b57565b6020604051808303815f875af1158015610f95573d5f803e3d5ffd5b505050506040513d601f19601f82011682018060405250810190610fb991906116dc565b610ff8576040517f08c379a0000000000000000000000000000000000000000000000000000000008152600401610fef90611c03565b60405180910390fd5b949350505050565b6110086112b5565b61101783845f0151518461112c565b905092915050565b6110276112b5565b61103784855f0151518585611182565b90509392505050565b6110486112b5565b8251821115611055575f80fd5b8460200151828561106691906118c6565b111561109b5761109a85600261108b8860200151888761108691906118c6565b61120f565b6110959190611c21565b61122a565b5b5f808651805187602083010193508088870111156110b95787860182525b60208701925050505b6020841061110057805182526020826110db91906118c6565b91506020816110ea91906118c6565b90506020846110f99190611a48565b93506110c2565b5f6001856020036101000a03905080198251168184511681811785525050508692505050949350505050565b6111346112b5565b8360200151831061115a5761115984600286602001516111549190611c21565b61122a565b5b83518051602085830101848153818603611175576001820183525b5050508390509392505050565b61118a6112b5565b8460200151848361119b91906118c6565b11156111c3576111c285600286856111b391906118c6565b6111bd9190611c21565b61122a565b5b5f6001836101006111d49190611d91565b6111de9190611a48565b905085518386820101858319825116178152815185880111156112015784870182525b505085915050949350505050565b5f8183111561122057829050611224565b8190505b92915050565b5f825f0151905061123b8383610c65565b506112468382610e52565b50505050565b6040518060a001604052805f80191681526020015f73ffffffffffffffffffffffffffffffffffffffff1681526020015f7bffffffffffffffffffffffffffffffffffffffffffffffffffffffff191681526020015f81526020016112af6112b5565b81525090565b6040518060400160405280606081526020015f81525090565b5f80fd5b5f819050919050565b6112e4816112d2565b81146112ee575f80fd5b50565b5f813590506112ff816112db565b92915050565b5f6020828403121561131a576113196112ce565b5b5f611327848285016112f1565b91505092915050565b5f819050919050565b61134281611330565b82525050565b5f60208201905061135b5f830184611339565b92915050565b61136a81611330565b8114611374575f80fd5b50565b5f8135905061138581611361565b92915050565b5f80604083850312156113a1576113a06112ce565b5b5f6113ae85828601611377565b92505060206113bf858286016112f1565b9150509250929050565b5f73ffffffffffffffffffffffffffffffffffffffff82169050919050565b5f6113f2826113c9565b9050919050565b611402816113e8565b82525050565b5f60208201905061141b5f8301846113f9565b92915050565b61142a816112d2565b82525050565b5f6020820190506114435f830184611421565b92915050565b611452816113e8565b811461145c575f80fd5b50565b5f8135905061146d81611449565b92915050565b5f60208284031215611488576114876112ce565b5b5f6114958482850161145f565b91505092915050565b7f3132372e302e302e313a353030302f6170692f64617461000000000000000000815250565b5f81519050919050565b5f81905092915050565b8281835e5f83830152505050565b5f6114f0826114c4565b6114fa81856114ce565b935061150a8185602086016114d8565b80840191505092915050565b5f6115208261149e565b60178201915061153082846114e6565b915081905092915050565b5f82825260208201905092915050565b7f536f75726365206d75737420626520746865206f7261636c65206f66207468655f8201527f2072657175657374000000000000000000000000000000000000000000000000602082015250565b5f6115a560288361153b565b91506115b08261154b565b604082019050919050565b5f6020820190508181035f8301526115d281611599565b9050919050565b7f4d7573742062652070726f706f736564206f776e6572000000000000000000005f82015250565b5f61160d60168361153b565b9150611618826115d9565b602082019050919050565b5f6020820190508181035f83015261163a81611601565b9050919050565b5f8151905061164f816112db565b92915050565b5f6020828403121561166a576116696112ce565b5b5f61167784828501611641565b91505092915050565b5f6040820190506116935f8301856113f9565b6116a06020830184611421565b9392505050565b5f8115159050919050565b6116bb816116a7565b81146116c5575f80fd5b50565b5f815190506116d6816116b2565b92915050565b5f602082840312156116f1576116f06112ce565b5b5f6116fe848285016116c8565b91505092915050565b7f556e61626c6520746f207472616e7366657200000000000000000000000000005f82015250565b5f61173b60128361153b565b915061174682611707565b602082019050919050565b5f6020820190508181035f8301526117688161172f565b9050919050565b7f4e487b71000000000000000000000000000000000000000000000000000000005f52604160045260245ffd5b7f4e487b71000000000000000000000000000000000000000000000000000000005f52601260045260245ffd5b7f4f6e6c792063616c6c61626c65206279206f776e6572000000000000000000005f82015250565b5f6117fd60168361153b565b9150611808826117c9565b602082019050919050565b5f6020820190508181035f83015261182a816117f1565b9050919050565b7f43616e6e6f74207472616e7366657220746f2073656c660000000000000000005f82015250565b5f61186560178361153b565b915061187082611831565b602082019050919050565b5f6020820190508181035f83015261189281611859565b9050919050565b7f4e487b71000000000000000000000000000000000000000000000000000000005f52601160045260245ffd5b5f6118d0826112d2565b91506118db836112d2565b92508282019050808211156118f3576118f2611899565b5b92915050565b5f7fffffffff0000000000000000000000000000000000000000000000000000000082169050919050565b61192d816118f9565b82525050565b5f81519050919050565b5f82825260208201905092915050565b5f601f19601f8301169050919050565b5f61196782611933565b611971818561193d565b93506119818185602086016114d8565b61198a8161194d565b840191505092915050565b5f610100820190506119a95f83018b6113f9565b6119b6602083018a611421565b6119c36040830189611339565b6119d060608301886113f9565b6119dd6080830187611924565b6119ea60a0830186611421565b6119f760c0830185611421565b81810360e0830152611a09818461195d565b90509998505050505050505050565b5f611a22826112d2565b9150611a2d836112d2565b925082611a3d57611a3c61179c565b5b828206905092915050565b5f611a52826112d2565b9150611a5d836112d2565b9250828203905081811115611a7557611a74611899565b5b92915050565b5f819050919050565b5f611a9e611a99611a94846113c9565b611a7b565b6113c9565b9050919050565b5f611aaf82611a84565b9050919050565b5f611ac082611aa5565b9050919050565b5f8160601b9050919050565b5f611add82611ac7565b9050919050565b5f611aee82611ad3565b9050919050565b611b06611b0182611ab6565b611ae4565b82525050565b5f819050919050565b611b26611b21826112d2565b611b0c565b82525050565b5f611b378285611af5565b601482019150611b478284611b15565b6020820191508190509392505050565b5f606082019050611b6a5f8301866113f9565b611b776020830185611421565b8181036040830152611b89818461195d565b9050949350505050565b7f756e61626c6520746f207472616e73666572416e6443616c6c20746f206f72615f8201527f636c650000000000000000000000000000000000000000000000000000000000602082015250565b5f611bed60238361153b565b9150611bf882611b93565b604082019050919050565b5f6020820190508181035f830152611c1a81611be1565b9050919050565b5f611c2b826112d2565b9150611c36836112d2565b9250828202611c44816112d2565b91508282048414831517611c5b57611c5a611899565b5b5092915050565b5f8160011c9050919050565b5f808291508390505b6001851115611cb757808604811115611c9357611c92611899565b5b6001851615611ca25780820291505b8081029050611cb085611c62565b9450611c77565b94509492505050565b5f82611ccf5760019050611d8a565b81611cdc575f9050611d8a565b8160018114611cf25760028114611cfc57611d2b565b6001915050611d8a565b60ff841115611d0e57611d0d611899565b5b8360020a915084821115611d2557611d24611899565b5b50611d8a565b5060208310610133831016604e8410600b8410161715611d605782820a905083811115611d5b57611d5a611899565b5b611d8a565b611d6d8484846001611c6e565b92509050818404811115611d8457611d83611899565b5b81810290505b9392505050565b5f611d9b826112d2565b9150611da6836112d2565b9250611dd37fffffffffffffffffffffffffffffffffffffffffffffffffffffffffffffffff8484611cc0565b90509291505056fea2646970667358221220769222b11d0e9b824722bf8e8e98b62476450178ae30bb219e8008a84a6603fd64736f6c634300081a0033610100604052348015610010575f80fd5b50604051610abb380380610abb833981810160405281019061003291906101d6565b818073ffffffffffffffffffffffffffffffffffffffff1660808173ffffffffffffffffffffffffffffffffffffffff1681525050508173ffffffffffffffffffffffffffffffffffffffff1660a08173ffffffffffffffffffffffffffffffffffffffff16815250508060e081815250503360025f6101000a81548173ffffffffffffffffffffffffffffffffffffffff021916908373ffffffffffffffffffffffffffffffffffffffff1602179055508267ffffffffffffffff1660c08167ffffffffffffffff1681525050505050610226565b5f80fd5b5f67ffffffffffffffff82169050919050565b6101288161010c565b8114610132575f80fd5b50565b5f815190506101438161011f565b92915050565b5f73ffffffffffffffffffffffffffffffffffffffff82169050919050565b5f61017282610149565b9050919050565b61018281610168565b811461018c575f80fd5b50565b5f8151905061019d81610179565b92915050565b5f819050919050565b6101b5816101a3565b81146101bf575f80fd5b50565b5f815190506101d0816101ac565b92915050565b5f805f606084860312156101ed576101ec610108565b5b5f6101fa86828701610135565b935050602061020b8682870161018f565b925050604061021c868287016101c2565b9150509250925092565b60805160a05160c05160e05161085c61025f5f395f61021801525f61023901525f6101dc01525f818160c40152610118015261085c5ff3fe608060405234801561000f575f80fd5b506004361061004a575f3560e01c80631fe543e31461004e578063e0c862891461006a578063e89e106a14610074578063f6eaffc814610092575b5f80fd5b61006860048036038101906100639190610538565b6100c2565b005b610072610182565b005b61007c6102c8565b60405161008991906105a1565b60405180910390f35b6100ac60048036038101906100a791906105ba565b6102ce565b6040516100b991906105a1565b60405180910390f35b7f000000000000000000000000000000000000000000000000000000000000000073ffffffffffffffffffffffffffffffffffffffff163373ffffffffffffffffffffffffffffffffffffffff161461017457337f00000000000000000000000000000000000000000000000000000000000000006040517f1cf993f400000000000000000000000000000000000000000000000000000000815260040161016b929190610624565b60405180910390fd5b61017e82826102ed565b5050565b60025f9054906101000a900473ffffffffffffffffffffffffffffffffffffffff1673ffffffffffffffffffffffffffffffffffffffff163373ffffffffffffffffffffffffffffffffffffffff16146101da575f80fd5b7f000000000000000000000000000000000000000000000000000000000000000073ffffffffffffffffffffffffffffffffffffffff16635d3b1d307f00000000000000000000000000000000000000000000000000000000000000007f00000000000000000000000000000000000000000000000000000000000000006003620186a060026040518663ffffffff1660e01b81526004016102809594939291906106bf565b6020604051808303815f875af115801561029c573d5f803e3d5ffd5b505050506040513d601f19601f820116820180604052508101906102c09190610724565b600181905550565b60015481565b5f81815481106102dc575f80fd5b905f5260205f20015f915090505481565b805f908051906020019061030292919061033e565b507fefb16d61046900da527008568620fb9f8420e2f5ed4de3bfbded5035c9362b0e816040516103329190610806565b60405180910390a15050565b828054828255905f5260205f20908101928215610378579160200282015b8281111561037757825182559160200191906001019061035c565b5b5090506103859190610389565b5090565b5b808211156103a0575f815f90555060010161038a565b5090565b5f604051905090565b5f80fd5b5f80fd5b5f819050919050565b6103c7816103b5565b81146103d1575f80fd5b50565b5f813590506103e2816103be565b92915050565b5f80fd5b5f601f19601f8301169050919050565b7f4e487b71000000000000000000000000000000000000000000000000000000005f52604160045260245ffd5b610432826103ec565b810181811067ffffffffffffffff82111715610451576104506103fc565b5b80604052505050565b5f6104636103a4565b905061046f8282610429565b919050565b5f67ffffffffffffffff82111561048e5761048d6103fc565b5b602082029050602081019050919050565b5f80fd5b5f6104b56104b084610474565b61045a565b905080838252602082019050602084028301858111156104d8576104d761049f565b5b835b8181101561050157806104ed88826103d4565b8452602084019350506020810190506104da565b5050509392505050565b5f82601f83011261051f5761051e6103e8565b5b813561052f8482602086016104a3565b91505092915050565b5f806040838503121561054e5761054d6103ad565b5b5f61055b858286016103d4565b925050602083013567ffffffffffffffff81111561057c5761057b6103b1565b5b6105888582860161050b565b9150509250929050565b61059b816103b5565b82525050565b5f6020820190506105b45f830184610592565b92915050565b5f602082840312156105cf576105ce6103ad565b5b5f6105dc848285016103d4565b91505092915050565b5f73ffffffffffffffffffffffffffffffffffffffff82169050919050565b5f61060e826105e5565b9050919050565b61061e81610604565b82525050565b5f6040820190506106375f830185610615565b6106446020830184610615565b9392505050565b5f819050919050565b61065d8161064b565b82525050565b5f67ffffffffffffffff82169050919050565b61067f81610663565b82525050565b5f61ffff82169050919050565b61069b81610685565b82525050565b5f63ffffffff82169050919050565b6106b9816106a1565b82525050565b5f60a0820190506106d25f830188610654565b6106df6020830187610676565b6106ec6040830186610692565b6106f960608301856106b0565b61070660808301846106b0565b9695505050505050565b5f8151905061071e816103be565b92915050565b5f60208284031215610739576107386103ad565b5b5f61074684828501610710565b91505092915050565b5f81519050919050565b5f82825260208201905092915050565b5f819050602082019050919050565b610781816103b5565b82525050565b5f6107928383610778565b60208301905092915050565b5f602082019050919050565b5f6107b48261074f565b6107be8185610759565b93506107c983610769565b805f5b838110156107f95781516107e08882610787565b97506107eb8361079e565b9250506001810190506107cc565b5085935050505092915050565b5f6020820190508181035f83015261081e81846107aa565b90509291505056fea26469706673582212200bfdd4b17337eec19b8173ce516e2423eaf8f6cb38788c00b7b443c7732fdc6764736f6c634300081a0033a2646970667358221220e5ccc8f5d6750aa317073eeb8133bdb1c11eb6f7322587bd7021c373871b8cff64736f6c634300081a0033",
			"opcodes": "PUSH1 0x80 PUSH1 0x40 MSTORE PUSH1 0x1 PUSH1 0x2 SSTORE PUSH0 PUSH1 0x3 SSTORE PUSH1 0x1 PUSH1 0x4 SSTORE CALLVALUE DUP1 ISZERO PUSH1 0x1C JUMPI PUSH0 DUP1 REVERT JUMPDEST POP CALLER PUSH0 DUP1 PUSH2 0x100 EXP DUP2 SLOAD DUP2 PUSH20 0xFFFFFFFFFFFFFFFFFFFFFFFFFFFFFFFFFFFFFFFF MUL NOT AND SWAP1 DUP4 PUSH20 0xFFFFFFFFFFFFFFFFFFFFFFFFFFFFFFFFFFFFFFFF AND MUL OR SWAP1 SSTORE POP PUSH2 0x850B DUP1 PUSH2 0x69 PUSH0 CODECOPY PUSH0 RETURN INVALID PUSH1 0x80 PUSH1 0x40 MSTORE CALLVALUE DUP1 ISZERO PUSH2 0xF JUMPI PUSH0 DUP1 REVERT JUMPDEST POP PUSH1 0x4 CALLDATASIZE LT PUSH2 0x1EE JUMPI PUSH0 CALLDATALOAD PUSH1 0xE0 SHR DUP1 PUSH4 0x6858A3F3 GT PUSH2 0x10D JUMPI DUP1 PUSH4 0xB28CDA0B GT PUSH2 0xA0 JUMPI DUP1 PUSH4 0xE8AE7864 GT PUSH2 0x6F JUMPI DUP1 PUSH4 0xE8AE7864 EQ PUSH2 0x61D JUMPI DUP1 PUSH4 0xF0F3F2C8 EQ PUSH2 0x639 JUMPI DUP1 PUSH4 0xF44DA448 EQ PUSH2 0x669 JUMPI DUP1 PUSH4 0xF945C7E9 EQ PUSH2 0x699 JUMPI PUSH2 0x1EE JUMP JUMPDEST DUP1 PUSH4 0xB28CDA0B EQ PUSH2 0x558 JUMPI DUP1 PUSH4 0xD4AEF9BA EQ PUSH2 0x588 JUMPI DUP1 PUSH4 0xDBFF65E8 EQ PUSH2 0x5B8 JUMPI DUP1 PUSH4 0xDDFC5CFE EQ PUSH2 0x5E8 JUMPI PUSH2 0x1EE JUMP JUMPDEST DUP1 PUSH4 0x9AF4CF7A GT PUSH2 0xDC JUMPI DUP1 PUSH4 0x9AF4CF7A EQ PUSH2 0x4D4 JUMPI DUP1 PUSH4 0x9D012AA3 EQ PUSH2 0x4F0 JUMPI DUP1 PUSH4 0x9DF89F2D EQ PUSH2 0x50C JUMPI DUP1 PUSH4 0xA66DC947 EQ PUSH2 0x53C JUMPI PUSH2 0x1EE JUMP JUMPDEST DUP1 PUSH4 0x6858A3F3 EQ PUSH2 0x44C JUMPI DUP1 PUSH4 0x6C824487 EQ PUSH2 0x46A JUMPI DUP1 PUSH4 0x8DA5CB5B EQ PUSH2 0x49A JUMPI DUP1 PUSH4 0x8E0415F1 EQ PUSH2 0x4B8 JUMPI PUSH2 0x1EE JUMP JUMPDEST DUP1 PUSH4 0x40B5C69B GT PUSH2 0x185 JUMPI DUP1 PUSH4 0x51D3C99B GT PUSH2 0x154 JUMPI DUP1 PUSH4 0x51D3C99B EQ PUSH2 0x3C6 JUMPI DUP1 PUSH4 0x53FE56E6 EQ PUSH2 0x3D0 JUMPI DUP1 PUSH4 0x57762DDD EQ PUSH2 0x3EC JUMPI DUP1 PUSH4 0x57F84DD7 EQ PUSH2 0x41C JUMPI PUSH2 0x1EE JUMP JUMPDEST DUP1 PUSH4 0x40B5C69B EQ PUSH2 0x342 JUMPI DUP1 PUSH4 0x444993F1 EQ PUSH2 0x35E JUMPI DUP1 PUSH4 0x45273074 EQ PUSH2 0x37A JUMPI DUP1 PUSH4 0x4AEC4D48 EQ PUSH2 0x3AA JUMPI PUSH2 0x1EE JUMP JUMPDEST DUP1 PUSH4 0x19840322 GT PUSH2 0x1C1 JUMPI DUP1 PUSH4 0x19840322 EQ PUSH2 0x2A8 JUMPI DUP1 PUSH4 0x242AB021 EQ PUSH2 0x2D8 JUMPI DUP1 PUSH4 0x2F77B323 EQ PUSH2 0x2F6 JUMPI DUP1 PUSH4 0x39A411E3 EQ PUSH2 0x326 JUMPI PUSH2 0x1EE JUMP JUMPDEST DUP1 PUSH4 0x59CE95D EQ PUSH2 0x1F2 JUMPI DUP1 PUSH4 0x916B099 EQ PUSH2 0x222 JUMPI DUP1 PUSH4 0xCE149C9 EQ PUSH2 0x252 JUMPI DUP1 PUSH4 0x107046BD EQ PUSH2 0x26E JUMPI JUMPDEST PUSH0 DUP1 REVERT JUMPDEST PUSH2 0x20C PUSH1 0x4 DUP1 CALLDATASIZE SUB DUP2 ADD SWAP1 PUSH2 0x207 SWAP2 SWAP1 PUSH2 0x3E55 JUMP JUMPDEST PUSH2 0x6C9 JUMP JUMPDEST PUSH1 0x40 MLOAD PUSH2 0x219 SWAP2 SWAP1 PUSH2 0x3EF0 JUMP JUMPDEST PUSH1 0x40 MLOAD DUP1 SWAP2 SUB SWAP1 RETURN JUMPDEST PUSH2 0x23C PUSH1 0x4 DUP1 CALLDATASIZE SUB DUP2 ADD SWAP1 PUSH2 0x237 SWAP2 SWAP1 PUSH2 0x40A4 JUMP JUMPDEST PUSH2 0x798 JUMP JUMPDEST PUSH1 0x40 MLOAD PUSH2 0x249 SWAP2 SWAP1 PUSH2 0x411F JUMP JUMPDEST PUSH1 0x40 MLOAD DUP1 SWAP2 SUB SWAP1 RETURN JUMPDEST PUSH2 0x26C PUSH1 0x4 DUP1 CALLDATASIZE SUB DUP2 ADD SWAP1 PUSH2 0x267 SWAP2 SWAP1 PUSH2 0x4138 JUMP JUMPDEST PUSH2 0xB4B JUMP JUMPDEST STOP JUMPDEST PUSH2 0x288 PUSH1 0x4 DUP1 CALLDATASIZE SUB DUP2 ADD SWAP1 PUSH2 0x283 SWAP2 SWAP1 PUSH2 0x4138 JUMP JUMPDEST PUSH2 0xD32 JUMP JUMPDEST PUSH1 0x40 MLOAD PUSH2 0x29F SWAP12 SWAP11 SWAP10 SWAP9 SWAP8 SWAP7 SWAP6 SWAP5 SWAP4 SWAP3 SWAP2 SWAP1 PUSH2 0x41F4 JUMP JUMPDEST PUSH1 0x40 MLOAD DUP1 SWAP2 SUB SWAP1 RETURN JUMPDEST PUSH2 0x2C2 PUSH1 0x4 DUP1 CALLDATASIZE SUB DUP2 ADD SWAP1 PUSH2 0x2BD SWAP2 SWAP1 PUSH2 0x42B9 JUMP JUMPDEST PUSH2 0xFD8 JUMP JUMPDEST PUSH1 0x40 MLOAD PUSH2 0x2CF SWAP2 SWAP1 PUSH2 0x42F7 JUMP JUMPDEST PUSH1 0x40 MLOAD DUP1 SWAP2 SUB SWAP1 RETURN JUMPDEST PUSH2 0x2E0 PUSH2 0x1020 JUMP JUMPDEST PUSH1 0x40 MLOAD PUSH2 0x2ED SWAP2 SWAP1 PUSH2 0x436B JUMP JUMPDEST PUSH1 0x40 MLOAD DUP1 SWAP2 SUB SWAP1 RETURN JUMPDEST PUSH2 0x310 PUSH1 0x4 DUP1 CALLDATASIZE SUB DUP2 ADD SWAP1 PUSH2 0x30B SWAP2 SWAP1 PUSH2 0x4384 JUMP JUMPDEST PUSH2 0x1045 JUMP JUMPDEST PUSH1 0x40 MLOAD PUSH2 0x31D SWAP2 SWAP1 PUSH2 0x411F JUMP JUMPDEST PUSH1 0x40 MLOAD DUP1 SWAP2 SUB SWAP1 RETURN JUMPDEST PUSH2 0x340 PUSH1 0x4 DUP1 CALLDATASIZE SUB DUP2 ADD SWAP1 PUSH2 0x33B SWAP2 SWAP1 PUSH2 0x4428 JUMP JUMPDEST PUSH2 0x10E0 JUMP JUMPDEST STOP JUMPDEST PUSH2 0x35C PUSH1 0x4 DUP1 CALLDATASIZE SUB DUP2 ADD SWAP1 PUSH2 0x357 SWAP2 SWAP1 PUSH2 0x4138 JUMP JUMPDEST PUSH2 0x11D0 JUMP JUMPDEST STOP JUMPDEST PUSH2 0x378 PUSH1 0x4 DUP1 CALLDATASIZE SUB DUP2 ADD SWAP1 PUSH2 0x373 SWAP2 SWAP1 PUSH2 0x4499 JUMP JUMPDEST PUSH2 0x134F JUMP JUMPDEST STOP JUMPDEST PUSH2 0x394 PUSH1 0x4 DUP1 CALLDATASIZE SUB DUP2 ADD SWAP1 PUSH2 0x38F SWAP2 SWAP1 PUSH2 0x44C4 JUMP JUMPDEST PUSH2 0x13BC JUMP JUMPDEST PUSH1 0x40 MLOAD PUSH2 0x3A1 SWAP2 SWAP1 PUSH2 0x4502 JUMP JUMPDEST PUSH1 0x40 MLOAD DUP1 SWAP2 SUB SWAP1 RETURN JUMPDEST PUSH2 0x3C4 PUSH1 0x4 DUP1 CALLDATASIZE SUB DUP2 ADD SWAP1 PUSH2 0x3BF SWAP2 SWAP1 PUSH2 0x4138 JUMP JUMPDEST PUSH2 0x1476 JUMP JUMPDEST STOP JUMPDEST PUSH2 0x3CE PUSH2 0x17BC JUMP JUMPDEST STOP JUMPDEST PUSH2 0x3EA PUSH1 0x4 DUP1 CALLDATASIZE SUB DUP2 ADD SWAP1 PUSH2 0x3E5 SWAP2 SWAP1 PUSH2 0x451B JUMP JUMPDEST PUSH2 0x1823 JUMP JUMPDEST STOP JUMPDEST PUSH2 0x406 PUSH1 0x4 DUP1 CALLDATASIZE SUB DUP2 ADD SWAP1 PUSH2 0x401 SWAP2 SWAP1 PUSH2 0x4138 JUMP JUMPDEST PUSH2 0x1929 JUMP JUMPDEST PUSH1 0x40 MLOAD PUSH2 0x413 SWAP2 SWAP1 PUSH2 0x42F7 JUMP JUMPDEST PUSH1 0x40 MLOAD DUP1 SWAP2 SUB SWAP1 RETURN JUMPDEST PUSH2 0x436 PUSH1 0x4 DUP1 CALLDATASIZE SUB DUP2 ADD SWAP1 PUSH2 0x431 SWAP2 SWAP1 PUSH2 0x40A4 JUMP JUMPDEST PUSH2 0x1964 JUMP JUMPDEST PUSH1 0x40 MLOAD PUSH2 0x443 SWAP2 SWAP1 PUSH2 0x411F JUMP JUMPDEST PUSH1 0x40 MLOAD DUP1 SWAP2 SUB SWAP1 RETURN JUMPDEST PUSH2 0x454 PUSH2 0x1D18 JUMP JUMPDEST PUSH1 0x40 MLOAD PUSH2 0x461 SWAP2 SWAP1 PUSH2 0x4595 JUMP JUMPDEST PUSH1 0x40 MLOAD DUP1 SWAP2 SUB SWAP1 RETURN JUMPDEST PUSH2 0x484 PUSH1 0x4 DUP1 CALLDATASIZE SUB DUP2 ADD SWAP1 PUSH2 0x47F SWAP2 SWAP1 PUSH2 0x3E55 JUMP JUMPDEST PUSH2 0x1D3D JUMP JUMPDEST PUSH1 0x40 MLOAD PUSH2 0x491 SWAP2 SWAP1 PUSH2 0x3EF0 JUMP JUMPDEST PUSH1 0x40 MLOAD DUP1 SWAP2 SUB SWAP1 RETURN JUMPDEST PUSH2 0x4A2 PUSH2 0x1DDD JUMP JUMPDEST PUSH1 0x40 MLOAD PUSH2 0x4AF SWAP2 SWAP1 PUSH2 0x42F7 JUMP JUMPDEST PUSH1 0x40 MLOAD DUP1 SWAP2 SUB SWAP1 RETURN JUMPDEST PUSH2 0x4D2 PUSH1 0x4 DUP1 CALLDATASIZE SUB DUP2 ADD SWAP1 PUSH2 0x4CD SWAP2 SWAP1 PUSH2 0x45EB JUMP JUMPDEST PUSH2 0x1E00 JUMP JUMPDEST STOP JUMPDEST PUSH2 0x4EE PUSH1 0x4 DUP1 CALLDATASIZE SUB DUP2 ADD SWAP1 PUSH2 0x4E9 SWAP2 SWAP1 PUSH2 0x451B JUMP JUMPDEST PUSH2 0x1E79 JUMP JUMPDEST STOP JUMPDEST PUSH2 0x50A PUSH1 0x4 DUP1 CALLDATASIZE SUB DUP2 ADD SWAP1 PUSH2 0x505 SWAP2 SWAP1 PUSH2 0x4138 JUMP JUMPDEST PUSH2 0x1FD4 JUMP JUMPDEST STOP JUMPDEST PUSH2 0x526 PUSH1 0x4 DUP1 CALLDATASIZE SUB DUP2 ADD SWAP1 PUSH2 0x521 SWAP2 SWAP1 PUSH2 0x463B JUMP JUMPDEST PUSH2 0x21BB JUMP JUMPDEST PUSH1 0x40 MLOAD PUSH2 0x533 SWAP2 SWAP1 PUSH2 0x411F JUMP JUMPDEST PUSH1 0x40 MLOAD DUP1 SWAP2 SUB SWAP1 RETURN JUMPDEST PUSH2 0x556 PUSH1 0x4 DUP1 CALLDATASIZE SUB DUP2 ADD SWAP1 PUSH2 0x551 SWAP2 SWAP1 PUSH2 0x42B9 JUMP JUMPDEST PUSH2 0x23CE JUMP JUMPDEST STOP JUMPDEST PUSH2 0x572 PUSH1 0x4 DUP1 CALLDATASIZE SUB DUP2 ADD SWAP1 PUSH2 0x56D SWAP2 SWAP1 PUSH2 0x4748 JUMP JUMPDEST PUSH2 0x2421 JUMP JUMPDEST PUSH1 0x40 MLOAD PUSH2 0x57F SWAP2 SWAP1 PUSH2 0x411F JUMP JUMPDEST PUSH1 0x40 MLOAD DUP1 SWAP2 SUB SWAP1 RETURN JUMPDEST PUSH2 0x5A2 PUSH1 0x4 DUP1 CALLDATASIZE SUB DUP2 ADD SWAP1 PUSH2 0x59D SWAP2 SWAP1 PUSH2 0x3E55 JUMP JUMPDEST PUSH2 0x25A5 JUMP JUMPDEST PUSH1 0x40 MLOAD PUSH2 0x5AF SWAP2 SWAP1 PUSH2 0x4915 JUMP JUMPDEST PUSH1 0x40 MLOAD DUP1 SWAP2 SUB SWAP1 RETURN JUMPDEST PUSH2 0x5D2 PUSH1 0x4 DUP1 CALLDATASIZE SUB DUP2 ADD SWAP1 PUSH2 0x5CD SWAP2 SWAP1 PUSH2 0x42B9 JUMP JUMPDEST PUSH2 0x2841 JUMP JUMPDEST PUSH1 0x40 MLOAD PUSH2 0x5DF SWAP2 SWAP1 PUSH2 0x42F7 JUMP JUMPDEST PUSH1 0x40 MLOAD DUP1 SWAP2 SUB SWAP1 RETURN JUMPDEST PUSH2 0x602 PUSH1 0x4 DUP1 CALLDATASIZE SUB DUP2 ADD SWAP1 PUSH2 0x5FD SWAP2 SWAP1 PUSH2 0x3E55 JUMP JUMPDEST PUSH2 0x2889 JUMP JUMPDEST PUSH1 0x40 MLOAD PUSH2 0x614 SWAP7 SWAP6 SWAP5 SWAP4 SWAP3 SWAP2 SWAP1 PUSH2 0x4962 JUMP JUMPDEST PUSH1 0x40 MLOAD DUP1 SWAP2 SUB SWAP1 RETURN JUMPDEST PUSH2 0x637 PUSH1 0x4 DUP1 CALLDATASIZE SUB DUP2 ADD SWAP1 PUSH2 0x632 SWAP2 SWAP1 PUSH2 0x4138 JUMP JUMPDEST PUSH2 0x2A9F JUMP JUMPDEST STOP JUMPDEST PUSH2 0x653 PUSH1 0x4 DUP1 CALLDATASIZE SUB DUP2 ADD SWAP1 PUSH2 0x64E SWAP2 SWAP1 PUSH2 0x4138 JUMP JUMPDEST PUSH2 0x2DE5 JUMP JUMPDEST PUSH1 0x40 MLOAD PUSH2 0x660 SWAP2 SWAP1 PUSH2 0x4C26 JUMP JUMPDEST PUSH1 0x40 MLOAD DUP1 SWAP2 SUB SWAP1 RETURN JUMPDEST PUSH2 0x683 PUSH1 0x4 DUP1 CALLDATASIZE SUB DUP2 ADD SWAP1 PUSH2 0x67E SWAP2 SWAP1 PUSH2 0x44C4 JUMP JUMPDEST PUSH2 0x33D6 JUMP JUMPDEST PUSH1 0x40 MLOAD PUSH2 0x690 SWAP2 SWAP1 PUSH2 0x4502 JUMP JUMPDEST PUSH1 0x40 MLOAD DUP1 SWAP2 SUB SWAP1 RETURN JUMPDEST PUSH2 0x6B3 PUSH1 0x4 DUP1 CALLDATASIZE SUB DUP2 ADD SWAP1 PUSH2 0x6AE SWAP2 SWAP1 PUSH2 0x3E55 JUMP JUMPDEST PUSH2 0x3490 JUMP JUMPDEST PUSH1 0x40 MLOAD PUSH2 0x6C0 SWAP2 SWAP1 PUSH2 0x411F JUMP JUMPDEST PUSH1 0x40 MLOAD DUP1 SWAP2 SUB SWAP1 RETURN JUMPDEST PUSH1 0x60 PUSH1 0x5 PUSH0 DUP4 PUSH20 0xFFFFFFFFFFFFFFFFFFFFFFFFFFFFFFFFFFFFFFFF AND PUSH20 0xFFFFFFFFFFFFFFFFFFFFFFFFFFFFFFFFFFFFFFFF AND DUP2 MSTORE PUSH1 0x20 ADD SWAP1 DUP2 MSTORE PUSH1 0x20 ADD PUSH0 KECCAK256 PUSH0 ADD DUP1 SLOAD PUSH2 0x715 SWAP1 PUSH2 0x4C73 JUMP JUMPDEST DUP1 PUSH1 0x1F ADD PUSH1 0x20 DUP1 SWAP2 DIV MUL PUSH1 0x20 ADD PUSH1 0x40 MLOAD SWAP1 DUP2 ADD PUSH1 0x40 MSTORE DUP1 SWAP3 SWAP2 SWAP1 DUP2 DUP2 MSTORE PUSH1 0x20 ADD DUP3 DUP1 SLOAD PUSH2 0x741 SWAP1 PUSH2 0x4C73 JUMP JUMPDEST DUP1 ISZERO PUSH2 0x78C JUMPI DUP1 PUSH1 0x1F LT PUSH2 0x763 JUMPI PUSH2 0x100 DUP1 DUP4 SLOAD DIV MUL DUP4 MSTORE SWAP2 PUSH1 0x20 ADD SWAP2 PUSH2 0x78C JUMP JUMPDEST DUP3 ADD SWAP2 SWAP1 PUSH0 MSTORE PUSH1 0x20 PUSH0 KECCAK256 SWAP1 JUMPDEST DUP2 SLOAD DUP2 MSTORE SWAP1 PUSH1 0x1 ADD SWAP1 PUSH1 0x20 ADD DUP1 DUP4 GT PUSH2 0x76F JUMPI DUP3 SWAP1 SUB PUSH1 0x1F AND DUP3 ADD SWAP2 JUMPDEST POP POP POP POP POP SWAP1 POP SWAP2 SWAP1 POP JUMP JUMPDEST PUSH0 DUP1 PUSH1 0x5 PUSH0 CALLER PUSH20 0xFFFFFFFFFFFFFFFFFFFFFFFFFFFFFFFFFFFFFFFF AND PUSH20 0xFFFFFFFFFFFFFFFFFFFFFFFFFFFFFFFFFFFFFFFF AND DUP2 MSTORE PUSH1 0x20 ADD SWAP1 DUP2 MSTORE PUSH1 0x20 ADD PUSH0 KECCAK256 PUSH0 ADD DUP1 SLOAD PUSH2 0x7E4 SWAP1 PUSH2 0x4C73 JUMP JUMPDEST SWAP1 POP GT PUSH2 0x826 JUMPI PUSH1 0x40 MLOAD PUSH32 0x8C379A000000000000000000000000000000000000000000000000000000000 DUP2 MSTORE PUSH1 0x4 ADD PUSH2 0x81D SWAP1 PUSH2 0x4CED JUMP JUMPDEST PUSH1 0x40 MLOAD DUP1 SWAP2 SUB SWAP1 REVERT JUMPDEST PUSH0 PUSH1 0x4 DUP2 GT ISZERO PUSH2 0x839 JUMPI PUSH2 0x838 PUSH2 0x4172 JUMP JUMPDEST JUMPDEST PUSH1 0x7 PUSH0 DUP7 DUP2 MSTORE PUSH1 0x20 ADD SWAP1 DUP2 MSTORE PUSH1 0x20 ADD PUSH0 KECCAK256 PUSH1 0xB ADD PUSH0 SWAP1 SLOAD SWAP1 PUSH2 0x100 EXP SWAP1 DIV PUSH1 0xFF AND PUSH1 0x4 DUP2 GT ISZERO PUSH2 0x86C JUMPI PUSH2 0x86B PUSH2 0x4172 JUMP JUMPDEST JUMPDEST EQ PUSH2 0x875 JUMPI PUSH0 DUP1 REVERT JUMPDEST CALLER PUSH20 0xFFFFFFFFFFFFFFFFFFFFFFFFFFFFFFFFFFFFFFFF AND PUSH1 0x8 PUSH0 DUP7 DUP2 MSTORE PUSH1 0x20 ADD SWAP1 DUP2 MSTORE PUSH1 0x20 ADD PUSH0 KECCAK256 PUSH0 DUP2 SLOAD DUP2 LT PUSH2 0x8AF JUMPI PUSH2 0x8AE PUSH2 0x4D0B JUMP JUMPDEST JUMPDEST SWAP1 PUSH0 MSTORE PUSH1 0x20 PUSH0 KECCAK256 ADD PUSH0 SWAP1 SLOAD SWAP1 PUSH2 0x100 EXP SWAP1 DIV PUSH20 0xFFFFFFFFFFFFFFFFFFFFFFFFFFFFFFFFFFFFFFFF AND PUSH20 0xFFFFFFFFFFFFFFFFFFFFFFFFFFFFFFFFFFFFFFFF AND EQ DUP1 PUSH2 0x96F JUMPI POP CALLER PUSH20 0xFFFFFFFFFFFFFFFFFFFFFFFFFFFFFFFFFFFFFFFF AND PUSH1 0x8 PUSH0 DUP7 DUP2 MSTORE PUSH1 0x20 ADD SWAP1 DUP2 MSTORE PUSH1 0x20 ADD PUSH0 KECCAK256 PUSH1 0x1 DUP2 SLOAD DUP2 LT PUSH2 0x92F JUMPI PUSH2 0x92E PUSH2 0x4D0B JUMP JUMPDEST JUMPDEST SWAP1 PUSH0 MSTORE PUSH1 0x20 PUSH0 KECCAK256 ADD PUSH0 SWAP1 SLOAD SWAP1 PUSH2 0x100 EXP SWAP1 DIV PUSH20 0xFFFFFFFFFFFFFFFFFFFFFFFFFFFFFFFFFFFFFFFF AND PUSH20 0xFFFFFFFFFFFFFFFFFFFFFFFFFFFFFFFFFFFFFFFF AND EQ JUMPDEST DUP1 PUSH2 0x9F0 JUMPI POP CALLER PUSH20 0xFFFFFFFFFFFFFFFFFFFFFFFFFFFFFFFFFFFFFFFF AND PUSH1 0x8 PUSH0 DUP7 DUP2 MSTORE PUSH1 0x20 ADD SWAP1 DUP2 MSTORE PUSH1 0x20 ADD PUSH0 KECCAK256 PUSH1 0x2 DUP2 SLOAD DUP2 LT PUSH2 0x9B0 JUMPI PUSH2 0x9AF PUSH2 0x4D0B JUMP JUMPDEST JUMPDEST SWAP1 PUSH0 MSTORE PUSH1 0x20 PUSH0 KECCAK256 ADD PUSH0 SWAP1 SLOAD SWAP1 PUSH2 0x100 EXP SWAP1 DIV PUSH20 0xFFFFFFFFFFFFFFFFFFFFFFFFFFFFFFFFFFFFFFFF AND PUSH20 0xFFFFFFFFFFFFFFFFFFFFFFFFFFFFFFFFFFFFFFFF AND EQ JUMPDEST PUSH2 0xA2F JUMPI PUSH1 0x40 MLOAD PUSH32 0x8C379A000000000000000000000000000000000000000000000000000000000 DUP2 MSTORE PUSH1 0x4 ADD PUSH2 0xA26 SWAP1 PUSH2 0x4DA8 JUMP JUMPDEST PUSH1 0x40 MLOAD DUP1 SWAP2 SUB SWAP1 REVERT JUMPDEST PUSH0 PUSH1 0x40 MLOAD DUP1 PUSH1 0x60 ADD PUSH1 0x40 MSTORE DUP1 CALLER PUSH20 0xFFFFFFFFFFFFFFFFFFFFFFFFFFFFFFFFFFFFFFFF AND DUP2 MSTORE PUSH1 0x20 ADD DUP6 ISZERO ISZERO DUP2 MSTORE PUSH1 0x20 ADD DUP5 DUP2 MSTORE POP SWAP1 POP PUSH0 PUSH1 0x7 PUSH0 DUP8 DUP2 MSTORE PUSH1 0x20 ADD SWAP1 DUP2 MSTORE PUSH1 0x20 ADD PUSH0 KECCAK256 SWAP1 POP DUP1 PUSH1 0x9 ADD DUP3 SWAP1 DUP1 PUSH1 0x1 DUP2 SLOAD ADD DUP1 DUP3 SSTORE DUP1 SWAP2 POP POP PUSH1 0x1 SWAP1 SUB SWAP1 PUSH0 MSTORE PUSH1 0x20 PUSH0 KECCAK256 SWAP1 PUSH1 0x2 MUL ADD PUSH0 SWAP1 SWAP2 SWAP1 SWAP2 SWAP1 SWAP2 POP PUSH0 DUP3 ADD MLOAD DUP2 PUSH0 ADD PUSH0 PUSH2 0x100 EXP DUP2 SLOAD DUP2 PUSH20 0xFFFFFFFFFFFFFFFFFFFFFFFFFFFFFFFFFFFFFFFF MUL NOT AND SWAP1 DUP4 PUSH20 0xFFFFFFFFFFFFFFFFFFFFFFFFFFFFFFFFFFFFFFFF AND MUL OR SWAP1 SSTORE POP PUSH1 0x20 DUP3 ADD MLOAD DUP2 PUSH0 ADD PUSH1 0x14 PUSH2 0x100 EXP DUP2 SLOAD DUP2 PUSH1 0xFF MUL NOT AND SWAP1 DUP4 ISZERO ISZERO MUL OR SWAP1 SSTORE POP PUSH1 0x40 DUP3 ADD MLOAD DUP2 PUSH1 0x1 ADD SWAP1 DUP2 PUSH2 0xB1C SWAP2 SWAP1 PUSH2 0x4F5A JUMP JUMPDEST POP POP POP PUSH1 0x3 DUP2 PUSH1 0x9 ADD DUP1 SLOAD SWAP1 POP SUB PUSH2 0xB38 JUMPI PUSH2 0xB37 DUP7 PUSH2 0x373F JUMP JUMPDEST JUMPDEST DUP1 PUSH1 0x9 ADD DUP1 SLOAD SWAP1 POP SWAP3 POP POP POP SWAP4 SWAP3 POP POP POP JUMP JUMPDEST PUSH0 PUSH1 0x9 PUSH0 DUP4 DUP2 MSTORE PUSH1 0x20 ADD SWAP1 DUP2 MSTORE PUSH1 0x20 ADD PUSH0 KECCAK256 SWAP1 POP DUP1 PUSH1 0x1 PUSH0 DUP2 SLOAD DUP2 LT PUSH2 0xB74 JUMPI PUSH2 0xB73 PUSH2 0x4D0B JUMP JUMPDEST JUMPDEST SWAP1 PUSH0 MSTORE PUSH1 0x20 PUSH0 KECCAK256 ADD PUSH0 SWAP1 SLOAD SWAP1 PUSH2 0x100 EXP SWAP1 DIV PUSH20 0xFFFFFFFFFFFFFFFFFFFFFFFFFFFFFFFFFFFFFFFF AND SWAP1 DUP1 PUSH1 0x1 DUP2 SLOAD ADD DUP1 DUP3 SSTORE DUP1 SWAP2 POP POP PUSH1 0x1 SWAP1 SUB SWAP1 PUSH0 MSTORE PUSH1 0x20 PUSH0 KECCAK256 ADD PUSH0 SWAP1 SWAP2 SWAP1 SWAP2 SWAP1 SWAP2 PUSH2 0x100 EXP DUP2 SLOAD DUP2 PUSH20 0xFFFFFFFFFFFFFFFFFFFFFFFFFFFFFFFFFFFFFFFF MUL NOT AND SWAP1 DUP4 PUSH20 0xFFFFFFFFFFFFFFFFFFFFFFFFFFFFFFFFFFFFFFFF AND MUL OR SWAP1 SSTORE POP DUP1 PUSH1 0x1 DUP1 DUP2 SLOAD DUP2 LT PUSH2 0xC0E JUMPI PUSH2 0xC0D PUSH2 0x4D0B JUMP JUMPDEST JUMPDEST SWAP1 PUSH0 MSTORE PUSH1 0x20 PUSH0 KECCAK256 ADD PUSH0 SWAP1 SLOAD SWAP1 PUSH2 0x100 EXP SWAP1 DIV PUSH20 0xFFFFFFFFFFFFFFFFFFFFFFFFFFFFFFFFFFFFFFFF AND SWAP1 DUP1 PUSH1 0x1 DUP2 SLOAD ADD DUP1 DUP3 SSTORE DUP1 SWAP2 POP POP PUSH1 0x1 SWAP1 SUB SWAP1 PUSH0 MSTORE PUSH1 0x20 PUSH0 KECCAK256 ADD PUSH0 SWAP1 SWAP2 SWAP1 SWAP2 SWAP1 SWAP2 PUSH2 0x100 EXP DUP2 SLOAD DUP2 PUSH20 0xFFFFFFFFFFFFFFFFFFFFFFFFFFFFFFFFFFFFFFFF MUL NOT AND SWAP1 DUP4 PUSH20 0xFFFFFFFFFFFFFFFFFFFFFFFFFFFFFFFFFFFFFFFF AND MUL OR SWAP1 SSTORE POP DUP1 PUSH1 0x1 PUSH1 0x2 DUP2 SLOAD DUP2 LT PUSH2 0xCA9 JUMPI PUSH2 0xCA8 PUSH2 0x4D0B JUMP JUMPDEST JUMPDEST SWAP1 PUSH0 MSTORE PUSH1 0x20 PUSH0 KECCAK256 ADD PUSH0 SWAP1 SLOAD SWAP1 PUSH2 0x100 EXP SWAP1 DIV PUSH20 0xFFFFFFFFFFFFFFFFFFFFFFFFFFFFFFFFFFFFFFFF AND SWAP1 DUP1 PUSH1 0x1 DUP2 SLOAD ADD DUP1 DUP3 SSTORE DUP1 SWAP2 POP POP PUSH1 0x1 SWAP1 SUB SWAP1 PUSH0 MSTORE PUSH1 0x20 PUSH0 KECCAK256 ADD PUSH0 SWAP1 SWAP2 SWAP1 SWAP2 SWAP1 SWAP2 PUSH2 0x100 EXP DUP2 SLOAD DUP2 PUSH20 0xFFFFFFFFFFFFFFFFFFFFFFFFFFFFFFFFFFFFFFFF MUL NOT AND SWAP1 DUP4 PUSH20 0xFFFFFFFFFFFFFFFFFFFFFFFFFFFFFFFFFFFFFFFF AND MUL OR SWAP1 SSTORE POP POP POP JUMP JUMPDEST PUSH1 0x7 PUSH1 0x20 MSTORE DUP1 PUSH0 MSTORE PUSH1 0x40 PUSH0 KECCAK256 PUSH0 SWAP2 POP SWAP1 POP DUP1 PUSH0 ADD SLOAD SWAP1 DUP1 PUSH1 0x1 ADD PUSH0 SWAP1 SLOAD SWAP1 PUSH2 0x100 EXP SWAP1 DIV PUSH20 0xFFFFFFFFFFFFFFFFFFFFFFFFFFFFFFFFFFFFFFFF AND SWAP1 DUP1 PUSH1 0x2 ADD DUP1 SLOAD PUSH2 0xD7C SWAP1 PUSH2 0x4C73 JUMP JUMPDEST DUP1 PUSH1 0x1F ADD PUSH1 0x20 DUP1 SWAP2 DIV MUL PUSH1 0x20 ADD PUSH1 0x40 MLOAD SWAP1 DUP2 ADD PUSH1 0x40 MSTORE DUP1 SWAP3 SWAP2 SWAP1 DUP2 DUP2 MSTORE PUSH1 0x20 ADD DUP3 DUP1 SLOAD PUSH2 0xDA8 SWAP1 PUSH2 0x4C73 JUMP JUMPDEST DUP1 ISZERO PUSH2 0xDF3 JUMPI DUP1 PUSH1 0x1F LT PUSH2 0xDCA JUMPI PUSH2 0x100 DUP1 DUP4 SLOAD DIV MUL DUP4 MSTORE SWAP2 PUSH1 0x20 ADD SWAP2 PUSH2 0xDF3 JUMP JUMPDEST DUP3 ADD SWAP2 SWAP1 PUSH0 MSTORE PUSH1 0x20 PUSH0 KECCAK256 SWAP1 JUMPDEST DUP2 SLOAD DUP2 MSTORE SWAP1 PUSH1 0x1 ADD SWAP1 PUSH1 0x20 ADD DUP1 DUP4 GT PUSH2 0xDD6 JUMPI DUP3 SWAP1 SUB PUSH1 0x1F AND DUP3 ADD SWAP2 JUMPDEST POP POP POP POP POP SWAP1 DUP1 PUSH1 0x3 ADD SLOAD SWAP1 DUP1 PUSH1 0x4 ADD SLOAD SWAP1 DUP1 PUSH1 0x5 ADD DUP1 SLOAD PUSH2 0xE14 SWAP1 PUSH2 0x4C73 JUMP JUMPDEST DUP1 PUSH1 0x1F ADD PUSH1 0x20 DUP1 SWAP2 DIV MUL PUSH1 0x20 ADD PUSH1 0x40 MLOAD SWAP1 DUP2 ADD PUSH1 0x40 MSTORE DUP1 SWAP3 SWAP2 SWAP1 DUP2 DUP2 MSTORE PUSH1 0x20 ADD DUP3 DUP1 SLOAD PUSH2 0xE40 SWAP1 PUSH2 0x4C73 JUMP JUMPDEST DUP1 ISZERO PUSH2 0xE8B JUMPI DUP1 PUSH1 0x1F LT PUSH2 0xE62 JUMPI PUSH2 0x100 DUP1 DUP4 SLOAD DIV MUL DUP4 MSTORE SWAP2 PUSH1 0x20 ADD SWAP2 PUSH2 0xE8B JUMP JUMPDEST DUP3 ADD SWAP2 SWAP1 PUSH0 MSTORE PUSH1 0x20 PUSH0 KECCAK256 SWAP1 JUMPDEST DUP2 SLOAD DUP2 MSTORE SWAP1 PUSH1 0x1 ADD SWAP1 PUSH1 0x20 ADD DUP1 DUP4 GT PUSH2 0xE6E JUMPI DUP3 SWAP1 SUB PUSH1 0x1F AND DUP3 ADD SWAP2 JUMPDEST POP POP POP POP POP SWAP1 DUP1 PUSH1 0x6 ADD SLOAD SWAP1 DUP1 PUSH1 0x7 ADD DUP1 SLOAD PUSH2 0xEA6 SWAP1 PUSH2 0x4C73 JUMP JUMPDEST DUP1 PUSH1 0x1F ADD PUSH1 0x20 DUP1 SWAP2 DIV MUL PUSH1 0x20 ADD PUSH1 0x40 MLOAD SWAP1 DUP2 ADD PUSH1 0x40 MSTORE DUP1 SWAP3 SWAP2 SWAP1 DUP2 DUP2 MSTORE PUSH1 0x20 ADD DUP3 DUP1 SLOAD PUSH2 0xED2 SWAP1 PUSH2 0x4C73 JUMP JUMPDEST DUP1 ISZERO PUSH2 0xF1D JUMPI DUP1 PUSH1 0x1F LT PUSH2 0xEF4 JUMPI PUSH2 0x100 DUP1 DUP4 SLOAD DIV MUL DUP4 MSTORE SWAP2 PUSH1 0x20 ADD SWAP2 PUSH2 0xF1D JUMP JUMPDEST DUP3 ADD SWAP2 SWAP1 PUSH0 MSTORE PUSH1 0x20 PUSH0 KECCAK256 SWAP1 JUMPDEST DUP2 SLOAD DUP2 MSTORE SWAP1 PUSH1 0x1 ADD SWAP1 PUSH1 0x20 ADD DUP1 DUP4 GT PUSH2 0xF00 JUMPI DUP3 SWAP1 SUB PUSH1 0x1F AND DUP3 ADD SWAP2 JUMPDEST POP POP POP POP POP SWAP1 DUP1 PUSH1 0x8 ADD DUP1 SLOAD PUSH2 0xF32 SWAP1 PUSH2 0x4C73 JUMP JUMPDEST DUP1 PUSH1 0x1F ADD PUSH1 0x20 DUP1 SWAP2 DIV MUL PUSH1 0x20 ADD PUSH1 0x40 MLOAD SWAP1 DUP2 ADD PUSH1 0x40 MSTORE DUP1 SWAP3 SWAP2 SWAP1 DUP2 DUP2 MSTORE PUSH1 0x20 ADD DUP3 DUP1 SLOAD PUSH2 0xF5E SWAP1 PUSH2 0x4C73 JUMP JUMPDEST DUP1 ISZERO PUSH2 0xFA9 JUMPI DUP1 PUSH1 0x1F LT PUSH2 0xF80 JUMPI PUSH2 0x100 DUP1 DUP4 SLOAD DIV MUL DUP4 MSTORE SWAP2 PUSH1 0x20 ADD SWAP2 PUSH2 0xFA9 JUMP JUMPDEST DUP3 ADD SWAP2 SWAP1 PUSH0 MSTORE PUSH1 0x20 PUSH0 KECCAK256 SWAP1 JUMPDEST DUP2 SLOAD DUP2 MSTORE SWAP1 PUSH1 0x1 ADD SWAP1 PUSH1 0x20 ADD DUP1 DUP4 GT PUSH2 0xF8C JUMPI DUP3 SWAP1 SUB PUSH1 0x1F AND DUP3 ADD SWAP2 JUMPDEST POP POP POP POP POP SWAP1 DUP1 PUSH1 0xB ADD PUSH0 SWAP1 SLOAD SWAP1 PUSH2 0x100 EXP SWAP1 DIV PUSH1 0xFF AND SWAP1 DUP1 PUSH1 0xB ADD PUSH1 0x1 SWAP1 SLOAD SWAP1 PUSH2 0x100 EXP SWAP1 DIV PUSH1 0xFF AND SWAP1 POP DUP12 JUMP JUMPDEST PUSH1 0x8 PUSH1 0x20 MSTORE DUP2 PUSH0 MSTORE PUSH1 0x40 PUSH0 KECCAK256 DUP2 DUP2 SLOAD DUP2 LT PUSH2 0xFF1 JUMPI PUSH0 DUP1 REVERT JUMPDEST SWAP1 PUSH0 MSTORE PUSH1 0x20 PUSH0 KECCAK256 ADD PUSH0 SWAP2 POP SWAP2 POP SWAP1 SLOAD SWAP1 PUSH2 0x100 EXP SWAP1 DIV PUSH20 0xFFFFFFFFFFFFFFFFFFFFFFFFFFFFFFFFFFFFFFFF AND DUP2 JUMP JUMPDEST PUSH1 0xB PUSH0 SWAP1 SLOAD SWAP1 PUSH2 0x100 EXP SWAP1 DIV PUSH20 0xFFFFFFFFFFFFFFFFFFFFFFFFFFFFFFFFFFFFFFFF AND DUP2 JUMP JUMPDEST PUSH0 DUP1 PUSH1 0x6 PUSH0 CALLER PUSH20 0xFFFFFFFFFFFFFFFFFFFFFFFFFFFFFFFFFFFFFFFF AND PUSH20 0xFFFFFFFFFFFFFFFFFFFFFFFFFFFFFFFFFFFFFFFF AND DUP2 MSTORE PUSH1 0x20 ADD SWAP1 DUP2 MSTORE PUSH1 0x20 ADD PUSH0 KECCAK256 SWAP1 POP DUP5 DUP2 PUSH1 0x4 ADD SWAP1 DUP2 PUSH2 0x1097 SWAP2 SWAP1 PUSH2 0x4F5A JUMP JUMPDEST POP DUP4 DUP2 PUSH1 0x5 ADD SWAP1 DUP2 PUSH2 0x10A9 SWAP2 SWAP1 PUSH2 0x4F5A JUMP JUMPDEST POP DUP3 DUP2 PUSH1 0x6 ADD SWAP1 DUP2 PUSH2 0x10BB SWAP2 SWAP1 PUSH2 0x4F5A JUMP JUMPDEST POP PUSH1 0x3 PUSH0 DUP2 SLOAD DUP1 SWAP3 SWAP2 SWAP1 PUSH2 0x10CE SWAP1 PUSH2 0x5056 JUMP JUMPDEST SWAP2 SWAP1 POP SSTORE POP PUSH1 0x3 SLOAD SWAP2 POP POP SWAP4 SWAP3 POP POP POP JUMP JUMPDEST PUSH0 DUP1 SLOAD SWAP1 PUSH2 0x100 EXP SWAP1 DIV PUSH20 0xFFFFFFFFFFFFFFFFFFFFFFFFFFFFFFFFFFFFFFFF AND PUSH20 0xFFFFFFFFFFFFFFFFFFFFFFFFFFFFFFFFFFFFFFFF AND CALLER PUSH20 0xFFFFFFFFFFFFFFFFFFFFFFFFFFFFFFFFFFFFFFFF AND EQ PUSH2 0x116D JUMPI PUSH1 0x40 MLOAD PUSH32 0x8C379A000000000000000000000000000000000000000000000000000000000 DUP2 MSTORE PUSH1 0x4 ADD PUSH2 0x1164 SWAP1 PUSH2 0x50E7 JUMP JUMPDEST PUSH1 0x40 MLOAD DUP1 SWAP2 SUB SWAP1 REVERT JUMPDEST PUSH0 PUSH1 0x6 PUSH0 DUP5 PUSH20 0xFFFFFFFFFFFFFFFFFFFFFFFFFFFFFFFFFFFFFFFF AND PUSH20 0xFFFFFFFFFFFFFFFFFFFFFFFFFFFFFFFFFFFFFFFF AND DUP2 MSTORE PUSH1 0x20 ADD SWAP1 DUP2 MSTORE PUSH1 0x20 ADD PUSH0 KECCAK256 SWAP1 POP DUP2 DUP2 PUSH1 0x2 ADD PUSH1 0x1 ADD PUSH0 PUSH2 0x100 EXP DUP2 SLOAD DUP2 PUSH1 0xFF MUL NOT AND SWAP1 DUP4 ISZERO ISZERO MUL OR SWAP1 SSTORE POP POP POP POP JUMP JUMPDEST PUSH0 DUP1 SLOAD SWAP1 PUSH2 0x100 EXP SWAP1 DIV PUSH20 0xFFFFFFFFFFFFFFFFFFFFFFFFFFFFFFFFFFFFFFFF AND PUSH20 0xFFFFFFFFFFFFFFFFFFFFFFFFFFFFFFFFFFFFFFFF AND CALLER PUSH20 0xFFFFFFFFFFFFFFFFFFFFFFFFFFFFFFFFFFFFFFFF AND EQ PUSH2 0x125D JUMPI PUSH1 0x40 MLOAD PUSH32 0x8C379A000000000000000000000000000000000000000000000000000000000 DUP2 MSTORE PUSH1 0x4 ADD PUSH2 0x1254 SWAP1 PUSH2 0x5175 JUMP JUMPDEST PUSH1 0x40 MLOAD DUP1 SWAP2 SUB SWAP1 REVERT JUMPDEST PUSH0 PUSH1 0x7 PUSH0 DUP4 DUP2 MSTORE PUSH1 0x20 ADD SWAP1 DUP2 MSTORE PUSH1 0x20 ADD PUSH0 KECCAK256 SWAP1 POP PUSH0 PUSH1 0xB PUSH0 SWAP1 SLOAD SWAP1 PUSH2 0x100 EXP SWAP1 DIV PUSH20 0xFFFFFFFFFFFFFFFFFFFFFFFFFFFFFFFFFFFFFFFF AND PUSH20 0xFFFFFFFFFFFFFFFFFFFFFFFFFFFFFFFFFFFFFFFF AND PUSH4 0x2ADB9E3C DUP5 PUSH1 0x40 MLOAD DUP3 PUSH4 0xFFFFFFFF AND PUSH1 0xE0 SHL DUP2 MSTORE PUSH1 0x4 ADD PUSH2 0x12CC SWAP2 SWAP1 PUSH2 0x411F JUMP JUMPDEST PUSH1 0x20 PUSH1 0x40 MLOAD DUP1 DUP4 SUB DUP2 PUSH0 DUP8 GAS CALL ISZERO DUP1 ISZERO PUSH2 0x12E8 JUMPI RETURNDATASIZE PUSH0 DUP1 RETURNDATACOPY RETURNDATASIZE PUSH0 REVERT JUMPDEST POP POP POP POP PUSH1 0x40 MLOAD RETURNDATASIZE PUSH1 0x1F NOT PUSH1 0x1F DUP3 ADD AND DUP3 ADD DUP1 PUSH1 0x40 MSTORE POP DUP2 ADD SWAP1 PUSH2 0x130C SWAP2 SWAP1 PUSH2 0x51A7 JUMP JUMPDEST PUSH0 SHR SWAP1 POP PUSH0 PUSH1 0x55 DUP3 PUSH2 0x131E SWAP2 SWAP1 PUSH2 0x51D2 JUMP JUMPDEST SWAP1 POP DUP3 PUSH1 0x6 ADD SLOAD DUP2 GT ISZERO PUSH2 0x1349 JUMPI PUSH0 DUP4 PUSH1 0xB ADD PUSH1 0x1 PUSH2 0x100 EXP DUP2 SLOAD DUP2 PUSH1 0xFF MUL NOT AND SWAP1 DUP4 ISZERO ISZERO MUL OR SWAP1 SSTORE POP JUMPDEST POP POP POP POP JUMP JUMPDEST PUSH0 PUSH1 0x6 PUSH0 CALLER PUSH20 0xFFFFFFFFFFFFFFFFFFFFFFFFFFFFFFFFFFFFFFFF AND PUSH20 0xFFFFFFFFFFFFFFFFFFFFFFFFFFFFFFFFFFFFFFFF AND DUP2 MSTORE PUSH1 0x20 ADD SWAP1 DUP2 MSTORE PUSH1 0x20 ADD PUSH0 KECCAK256 SWAP1 POP DUP2 DUP2 PUSH1 0x2 ADD PUSH0 ADD DUP2 SWAP1 SSTORE POP PUSH0 DUP2 PUSH1 0x2 ADD PUSH1 0x1 ADD PUSH0 PUSH2 0x100 EXP DUP2 SLOAD DUP2 PUSH1 0xFF MUL NOT AND SWAP1 DUP4 ISZERO ISZERO MUL OR SWAP1 SSTORE POP POP POP JUMP JUMPDEST PUSH0 DUP1 PUSH1 0x7 PUSH0 DUP5 DUP2 MSTORE PUSH1 0x20 ADD SWAP1 DUP2 MSTORE PUSH1 0x20 ADD PUSH0 KECCAK256 SWAP1 POP PUSH0 JUMPDEST PUSH1 0x3 DUP2 LT ISZERO PUSH2 0x146A JUMPI DUP5 PUSH20 0xFFFFFFFFFFFFFFFFFFFFFFFFFFFFFFFFFFFFFFFF AND DUP3 PUSH1 0x9 ADD DUP3 DUP2 SLOAD DUP2 LT PUSH2 0x1409 JUMPI PUSH2 0x1408 PUSH2 0x4D0B JUMP JUMPDEST JUMPDEST SWAP1 PUSH0 MSTORE PUSH1 0x20 PUSH0 KECCAK256 SWAP1 PUSH1 0x2 MUL ADD PUSH0 ADD PUSH0 SWAP1 SLOAD SWAP1 PUSH2 0x100 EXP SWAP1 DIV PUSH20 0xFFFFFFFFFFFFFFFFFFFFFFFFFFFFFFFFFFFFFFFF AND PUSH20 0xFFFFFFFFFFFFFFFFFFFFFFFFFFFFFFFFFFFFFFFF AND SUB PUSH2 0x145D JUMPI PUSH1 0x1 SWAP3 POP POP POP PUSH2 0x1470 JUMP JUMPDEST DUP1 DUP1 PUSH1 0x1 ADD SWAP2 POP POP PUSH2 0x13D3 JUMP JUMPDEST POP PUSH0 SWAP2 POP POP JUMPDEST SWAP3 SWAP2 POP POP JUMP JUMPDEST PUSH0 PUSH1 0x8 PUSH0 DUP4 DUP2 MSTORE PUSH1 0x20 ADD SWAP1 DUP2 MSTORE PUSH1 0x20 ADD PUSH0 KECCAK256 SWAP1 POP PUSH1 0xA PUSH0 SWAP1 SLOAD SWAP1 PUSH2 0x100 EXP SWAP1 DIV PUSH20 0xFFFFFFFFFFFFFFFFFFFFFFFFFFFFFFFFFFFFFFFF AND PUSH20 0xFFFFFFFFFFFFFFFFFFFFFFFFFFFFFFFFFFFFFFFF AND PUSH4 0xE0C86289 PUSH1 0x40 MLOAD DUP2 PUSH4 0xFFFFFFFF AND PUSH1 0xE0 SHL DUP2 MSTORE PUSH1 0x4 ADD PUSH0 PUSH1 0x40 MLOAD DUP1 DUP4 SUB DUP2 PUSH0 DUP8 DUP1 EXTCODESIZE ISZERO DUP1 ISZERO PUSH2 0x14F0 JUMPI PUSH0 DUP1 REVERT JUMPDEST POP GAS CALL ISZERO DUP1 ISZERO PUSH2 0x1502 JUMPI RETURNDATASIZE PUSH0 DUP1 RETURNDATACOPY RETURNDATASIZE PUSH0 REVERT JUMPDEST POP POP POP POP PUSH0 PUSH1 0xA PUSH0 SWAP1 SLOAD SWAP1 PUSH2 0x100 EXP SWAP1 DIV PUSH20 0xFFFFFFFFFFFFFFFFFFFFFFFFFFFFFFFFFFFFFFFF AND PUSH20 0xFFFFFFFFFFFFFFFFFFFFFFFFFFFFFFFFFFFFFFFF AND PUSH4 0xF6EAFFC8 PUSH1 0x4 SLOAD PUSH1 0x40 MLOAD DUP3 PUSH4 0xFFFFFFFF AND PUSH1 0xE0 SHL DUP2 MSTORE PUSH1 0x4 ADD PUSH2 0x1563 SWAP2 SWAP1 PUSH2 0x411F JUMP JUMPDEST PUSH1 0x20 PUSH1 0x40 MLOAD DUP1 DUP4 SUB DUP2 DUP7 GAS STATICCALL ISZERO DUP1 ISZERO PUSH2 0x157E JUMPI RETURNDATASIZE PUSH0 DUP1 RETURNDATACOPY RETURNDATASIZE PUSH0 REVERT JUMPDEST POP POP POP POP PUSH1 0x40 MLOAD RETURNDATASIZE PUSH1 0x1F NOT PUSH1 0x1F DUP3 ADD AND DUP3 ADD DUP1 PUSH1 0x40 MSTORE POP DUP2 ADD SWAP1 PUSH2 0x15A2 SWAP2 SWAP1 PUSH2 0x5227 JUMP JUMPDEST SWAP1 POP DUP2 PUSH1 0x1 DUP1 DUP1 SLOAD SWAP1 POP DUP4 PUSH2 0x15B7 SWAP2 SWAP1 PUSH2 0x527F JUMP JUMPDEST DUP2 SLOAD DUP2 LT PUSH2 0x15C8 JUMPI PUSH2 0x15C7 PUSH2 0x4D0B JUMP JUMPDEST JUMPDEST SWAP1 PUSH0 MSTORE PUSH1 0x20 PUSH0 KECCAK256 ADD PUSH0 SWAP1 SLOAD SWAP1 PUSH2 0x100 EXP SWAP1 DIV PUSH20 0xFFFFFFFFFFFFFFFFFFFFFFFFFFFFFFFFFFFFFFFF AND SWAP1 DUP1 PUSH1 0x1 DUP2 SLOAD ADD DUP1 DUP3 SSTORE DUP1 SWAP2 POP POP PUSH1 0x1 SWAP1 SUB SWAP1 PUSH0 MSTORE PUSH1 0x20 PUSH0 KECCAK256 ADD PUSH0 SWAP1 SWAP2 SWAP1 SWAP2 SWAP1 SWAP2 PUSH2 0x100 EXP DUP2 SLOAD DUP2 PUSH20 0xFFFFFFFFFFFFFFFFFFFFFFFFFFFFFFFFFFFFFFFF MUL NOT AND SWAP1 DUP4 PUSH20 0xFFFFFFFFFFFFFFFFFFFFFFFFFFFFFFFFFFFFFFFF AND MUL OR SWAP1 SSTORE POP DUP2 PUSH1 0x1 DUP1 DUP1 SLOAD SWAP1 POP PUSH1 0x2 DUP5 PUSH2 0x1662 SWAP2 SWAP1 PUSH2 0x52AF JUMP JUMPDEST PUSH2 0x166C SWAP2 SWAP1 PUSH2 0x527F JUMP JUMPDEST DUP2 SLOAD DUP2 LT PUSH2 0x167D JUMPI PUSH2 0x167C PUSH2 0x4D0B JUMP JUMPDEST JUMPDEST SWAP1 PUSH0 MSTORE PUSH1 0x20 PUSH0 KECCAK256 ADD PUSH0 SWAP1 SLOAD SWAP1 PUSH2 0x100 EXP SWAP1 DIV PUSH20 0xFFFFFFFFFFFFFFFFFFFFFFFFFFFFFFFFFFFFFFFF AND SWAP1 DUP1 PUSH1 0x1 DUP2 SLOAD ADD DUP1 DUP3 SSTORE DUP1 SWAP2 POP POP PUSH1 0x1 SWAP1 SUB SWAP1 PUSH0 MSTORE PUSH1 0x20 PUSH0 KECCAK256 ADD PUSH0 SWAP1 SWAP2 SWAP1 SWAP2 SWAP1 SWAP2 PUSH2 0x100 EXP DUP2 SLOAD DUP2 PUSH20 0xFFFFFFFFFFFFFFFFFFFFFFFFFFFFFFFFFFFFFFFF MUL NOT AND SWAP1 DUP4 PUSH20 0xFFFFFFFFFFFFFFFFFFFFFFFFFFFFFFFFFFFFFFFF AND MUL OR SWAP1 SSTORE POP DUP2 PUSH1 0x1 DUP1 DUP1 SLOAD SWAP1 POP PUSH1 0x2 DUP5 PUSH2 0x1717 SWAP2 SWAP1 PUSH2 0x51D2 JUMP JUMPDEST PUSH2 0x1721 SWAP2 SWAP1 PUSH2 0x527F JUMP JUMPDEST DUP2 SLOAD DUP2 LT PUSH2 0x1732 JUMPI PUSH2 0x1731 PUSH2 0x4D0B JUMP JUMPDEST JUMPDEST SWAP1 PUSH0 MSTORE PUSH1 0x20 PUSH0 KECCAK256 ADD PUSH0 SWAP1 SLOAD SWAP1 PUSH2 0x100 EXP SWAP1 DIV PUSH20 0xFFFFFFFFFFFFFFFFFFFFFFFFFFFFFFFFFFFFFFFF AND SWAP1 DUP1 PUSH1 0x1 DUP2 SLOAD ADD DUP1 DUP3 SSTORE DUP1 SWAP2 POP POP PUSH1 0x1 SWAP1 SUB SWAP1 PUSH0 MSTORE PUSH1 0x20 PUSH0 KECCAK256 ADD PUSH0 SWAP1 SWAP2 SWAP1 SWAP2 SWAP1 SWAP2 PUSH2 0x100 EXP DUP2 SLOAD DUP2 PUSH20 0xFFFFFFFFFFFFFFFFFFFFFFFFFFFFFFFFFFFFFFFF MUL NOT AND SWAP1 DUP4 PUSH20 0xFFFFFFFFFFFFFFFFFFFFFFFFFFFFFFFFFFFFFFFF AND MUL OR SWAP1 SSTORE POP POP POP POP JUMP JUMPDEST PUSH1 0x40 MLOAD PUSH2 0x17C8 SWAP1 PUSH2 0x3C3F JUMP JUMPDEST PUSH1 0x40 MLOAD DUP1 SWAP2 SUB SWAP1 PUSH0 CREATE DUP1 ISZERO DUP1 ISZERO PUSH2 0x17E1 JUMPI RETURNDATASIZE PUSH0 DUP1 RETURNDATACOPY RETURNDATASIZE PUSH0 REVERT JUMPDEST POP PUSH1 0xB PUSH0 PUSH2 0x100 EXP DUP2 SLOAD DUP2 PUSH20 0xFFFFFFFFFFFFFFFFFFFFFFFFFFFFFFFFFFFFFFFF MUL NOT AND SWAP1 DUP4 PUSH20 0xFFFFFFFFFFFFFFFFFFFFFFFFFFFFFFFFFFFFFFFF AND MUL OR SWAP1 SSTORE POP JUMP JUMPDEST PUSH0 DUP1 SLOAD SWAP1 PUSH2 0x100 EXP SWAP1 DIV PUSH20 0xFFFFFFFFFFFFFFFFFFFFFFFFFFFFFFFFFFFFFFFF AND PUSH20 0xFFFFFFFFFFFFFFFFFFFFFFFFFFFFFFFFFFFFFFFF AND CALLER PUSH20 0xFFFFFFFFFFFFFFFFFFFFFFFFFFFFFFFFFFFFFFFF AND EQ PUSH2 0x18B0 JUMPI PUSH1 0x40 MLOAD PUSH32 0x8C379A000000000000000000000000000000000000000000000000000000000 DUP2 MSTORE PUSH1 0x4 ADD PUSH2 0x18A7 SWAP1 PUSH2 0x5329 JUMP JUMPDEST PUSH1 0x40 MLOAD DUP1 SWAP2 SUB SWAP1 REVERT JUMPDEST PUSH0 PUSH1 0x5 PUSH0 DUP5 PUSH20 0xFFFFFFFFFFFFFFFFFFFFFFFFFFFFFFFFFFFFFFFF AND PUSH20 0xFFFFFFFFFFFFFFFFFFFFFFFFFFFFFFFFFFFFFFFF AND DUP2 MSTORE PUSH1 0x20 ADD SWAP1 DUP2 MSTORE PUSH1 0x20 ADD PUSH0 KECCAK256 SWAP1 POP DUP1 PUSH1 0x1 ADD DUP3 SWAP1 DUP1 PUSH1 0x1 DUP2 SLOAD ADD DUP1 DUP3 SSTORE DUP1 SWAP2 POP POP PUSH1 0x1 SWAP1 SUB SWAP1 PUSH0 MSTORE PUSH1 0x20 PUSH0 KECCAK256 ADD PUSH0 SWAP1 SWAP2 SWAP1 SWAP2 SWAP1 SWAP2 POP SWAP1 DUP2 PUSH2 0x1923 SWAP2 SWAP1 PUSH2 0x4F5A JUMP JUMPDEST POP POP POP POP JUMP JUMPDEST PUSH1 0x1 DUP2 DUP2 SLOAD DUP2 LT PUSH2 0x1938 JUMPI PUSH0 DUP1 REVERT JUMPDEST SWAP1 PUSH0 MSTORE PUSH1 0x20 PUSH0 KECCAK256 ADD PUSH0 SWAP2 POP SLOAD SWAP1 PUSH2 0x100 EXP SWAP1 DIV PUSH20 0xFFFFFFFFFFFFFFFFFFFFFFFFFFFFFFFFFFFFFFFF AND DUP2 JUMP JUMPDEST PUSH0 DUP1 PUSH1 0x5 PUSH0 CALLER PUSH20 0xFFFFFFFFFFFFFFFFFFFFFFFFFFFFFFFFFFFFFFFF AND PUSH20 0xFFFFFFFFFFFFFFFFFFFFFFFFFFFFFFFFFFFFFFFF AND DUP2 MSTORE PUSH1 0x20 ADD SWAP1 DUP2 MSTORE PUSH1 0x20 ADD PUSH0 KECCAK256 PUSH0 ADD DUP1 SLOAD PUSH2 0x19B0 SWAP1 PUSH2 0x4C73 JUMP JUMPDEST SWAP1 POP GT PUSH2 0x19F2 JUMPI PUSH1 0x40 MLOAD PUSH32 0x8C379A000000000000000000000000000000000000000000000000000000000 DUP2 MSTORE PUSH1 0x4 ADD PUSH2 0x19E9 SWAP1 PUSH2 0x4CED JUMP JUMPDEST PUSH1 0x40 MLOAD DUP1 SWAP2 SUB SWAP1 REVERT JUMPDEST PUSH1 0x2 PUSH1 0x4 DUP2 GT ISZERO PUSH2 0x1A06 JUMPI PUSH2 0x1A05 PUSH2 0x4172 JUMP JUMPDEST JUMPDEST PUSH1 0x7 PUSH0 DUP7 DUP2 MSTORE PUSH1 0x20 ADD SWAP1 DUP2 MSTORE PUSH1 0x20 ADD PUSH0 KECCAK256 PUSH1 0xB ADD PUSH0 SWAP1 SLOAD SWAP1 PUSH2 0x100 EXP SWAP1 DIV PUSH1 0xFF AND PUSH1 0x4 DUP2 GT ISZERO PUSH2 0x1A39 JUMPI PUSH2 0x1A38 PUSH2 0x4172 JUMP JUMPDEST JUMPDEST EQ PUSH2 0x1A42 JUMPI PUSH0 DUP1 REVERT JUMPDEST CALLER PUSH20 0xFFFFFFFFFFFFFFFFFFFFFFFFFFFFFFFFFFFFFFFF AND PUSH1 0x9 PUSH0 DUP7 DUP2 MSTORE PUSH1 0x20 ADD SWAP1 DUP2 MSTORE PUSH1 0x20 ADD PUSH0 KECCAK256 PUSH0 DUP2 SLOAD DUP2 LT PUSH2 0x1A7C JUMPI PUSH2 0x1A7B PUSH2 0x4D0B JUMP JUMPDEST JUMPDEST SWAP1 PUSH0 MSTORE PUSH1 0x20 PUSH0 KECCAK256 ADD PUSH0 SWAP1 SLOAD SWAP1 PUSH2 0x100 EXP SWAP1 DIV PUSH20 0xFFFFFFFFFFFFFFFFFFFFFFFFFFFFFFFFFFFFFFFF AND PUSH20 0xFFFFFFFFFFFFFFFFFFFFFFFFFFFFFFFFFFFFFFFF AND EQ DUP1 PUSH2 0x1B3C JUMPI POP CALLER PUSH20 0xFFFFFFFFFFFFFFFFFFFFFFFFFFFFFFFFFFFFFFFF AND PUSH1 0x9 PUSH0 DUP7 DUP2 MSTORE PUSH1 0x20 ADD SWAP1 DUP2 MSTORE PUSH1 0x20 ADD PUSH0 KECCAK256 PUSH1 0x1 DUP2 SLOAD DUP2 LT PUSH2 0x1AFC JUMPI PUSH2 0x1AFB PUSH2 0x4D0B JUMP JUMPDEST JUMPDEST SWAP1 PUSH0 MSTORE PUSH1 0x20 PUSH0 KECCAK256 ADD PUSH0 SWAP1 SLOAD SWAP1 PUSH2 0x100 EXP SWAP1 DIV PUSH20 0xFFFFFFFFFFFFFFFFFFFFFFFFFFFFFFFFFFFFFFFF AND PUSH20 0xFFFFFFFFFFFFFFFFFFFFFFFFFFFFFFFFFFFFFFFF AND EQ JUMPDEST DUP1 PUSH2 0x1BBD JUMPI POP CALLER PUSH20 0xFFFFFFFFFFFFFFFFFFFFFFFFFFFFFFFFFFFFFFFF AND PUSH1 0x9 PUSH0 DUP7 DUP2 MSTORE PUSH1 0x20 ADD SWAP1 DUP2 MSTORE PUSH1 0x20 ADD PUSH0 KECCAK256 PUSH1 0x2 DUP2 SLOAD DUP2 LT PUSH2 0x1B7D JUMPI PUSH2 0x1B7C PUSH2 0x4D0B JUMP JUMPDEST JUMPDEST SWAP1 PUSH0 MSTORE PUSH1 0x20 PUSH0 KECCAK256 ADD PUSH0 SWAP1 SLOAD SWAP1 PUSH2 0x100 EXP SWAP1 DIV PUSH20 0xFFFFFFFFFFFFFFFFFFFFFFFFFFFFFFFFFFFFFFFF AND PUSH20 0xFFFFFFFFFFFFFFFFFFFFFFFFFFFFFFFFFFFFFFFF AND EQ JUMPDEST PUSH2 0x1BFC JUMPI PUSH1 0x40 MLOAD PUSH32 0x8C379A000000000000000000000000000000000000000000000000000000000 DUP2 MSTORE PUSH1 0x4 ADD PUSH2 0x1BF3 SWAP1 PUSH2 0x4DA8 JUMP JUMPDEST PUSH1 0x40 MLOAD DUP1 SWAP2 SUB SWAP1 REVERT JUMPDEST PUSH0 PUSH1 0x40 MLOAD DUP1 PUSH1 0x60 ADD PUSH1 0x40 MSTORE DUP1 CALLER PUSH20 0xFFFFFFFFFFFFFFFFFFFFFFFFFFFFFFFFFFFFFFFF AND DUP2 MSTORE PUSH1 0x20 ADD DUP6 ISZERO ISZERO DUP2 MSTORE PUSH1 0x20 ADD DUP5 DUP2 MSTORE POP SWAP1 POP PUSH0 PUSH1 0x7 PUSH0 DUP8 DUP2 MSTORE PUSH1 0x20 ADD SWAP1 DUP2 MSTORE PUSH1 0x20 ADD PUSH0 KECCAK256 SWAP1 POP DUP1 PUSH1 0xA ADD DUP3 SWAP1 DUP1 PUSH1 0x1 DUP2 SLOAD ADD DUP1 DUP3 SSTORE DUP1 SWAP2 POP POP PUSH1 0x1 SWAP1 SUB SWAP1 PUSH0 MSTORE PUSH1 0x20 PUSH0 KECCAK256 SWAP1 PUSH1 0x2 MUL ADD PUSH0 SWAP1 SWAP2 SWAP1 SWAP2 SWAP1 SWAP2 POP PUSH0 DUP3 ADD MLOAD DUP2 PUSH0 ADD PUSH0 PUSH2 0x100 EXP DUP2 SLOAD DUP2 PUSH20 0xFFFFFFFFFFFFFFFFFFFFFFFFFFFFFFFFFFFFFFFF MUL NOT AND SWAP1 DUP4 PUSH20 0xFFFFFFFFFFFFFFFFFFFFFFFFFFFFFFFFFFFFFFFF AND MUL OR SWAP1 SSTORE POP PUSH1 0x20 DUP3 ADD MLOAD DUP2 PUSH0 ADD PUSH1 0x14 PUSH2 0x100 EXP DUP2 SLOAD DUP2 PUSH1 0xFF MUL NOT AND SWAP1 DUP4 ISZERO ISZERO MUL OR SWAP1 SSTORE POP PUSH1 0x40 DUP3 ADD MLOAD DUP2 PUSH1 0x1 ADD SWAP1 DUP2 PUSH2 0x1CE9 SWAP2 SWAP1 PUSH2 0x4F5A JUMP JUMPDEST POP POP POP PUSH1 0x3 DUP2 PUSH1 0xA ADD DUP1 SLOAD SWAP1 POP SUB PUSH2 0x1D05 JUMPI PUSH2 0x1D04 DUP7 PUSH2 0x39BF JUMP JUMPDEST JUMPDEST DUP1 PUSH1 0xA ADD DUP1 SLOAD SWAP1 POP SWAP3 POP POP POP SWAP4 SWAP3 POP POP POP JUMP JUMPDEST PUSH1 0xA PUSH0 SWAP1 SLOAD SWAP1 PUSH2 0x100 EXP SWAP1 DIV PUSH20 0xFFFFFFFFFFFFFFFFFFFFFFFFFFFFFFFFFFFFFFFF AND DUP2 JUMP JUMPDEST PUSH1 0x5 PUSH1 0x20 MSTORE DUP1 PUSH0 MSTORE PUSH1 0x40 PUSH0 KECCAK256 PUSH0 SWAP2 POP SWAP1 POP DUP1 PUSH0 ADD DUP1 SLOAD PUSH2 0x1D5C SWAP1 PUSH2 0x4C73 JUMP JUMPDEST DUP1 PUSH1 0x1F ADD PUSH1 0x20 DUP1 SWAP2 DIV MUL PUSH1 0x20 ADD PUSH1 0x40 MLOAD SWAP1 DUP2 ADD PUSH1 0x40 MSTORE DUP1 SWAP3 SWAP2 SWAP1 DUP2 DUP2 MSTORE PUSH1 0x20 ADD DUP3 DUP1 SLOAD PUSH2 0x1D88 SWAP1 PUSH2 0x4C73 JUMP JUMPDEST DUP1 ISZERO PUSH2 0x1DD3 JUMPI DUP1 PUSH1 0x1F LT PUSH2 0x1DAA JUMPI PUSH2 0x100 DUP1 DUP4 SLOAD DIV MUL DUP4 MSTORE SWAP2 PUSH1 0x20 ADD SWAP2 PUSH2 0x1DD3 JUMP JUMPDEST DUP3 ADD SWAP2 SWAP1 PUSH0 MSTORE PUSH1 0x20 PUSH0 KECCAK256 SWAP1 JUMPDEST DUP2 SLOAD DUP2 MSTORE SWAP1 PUSH1 0x1 ADD SWAP1 PUSH1 0x20 ADD DUP1 DUP4 GT PUSH2 0x1DB6 JUMPI DUP3 SWAP1 SUB PUSH1 0x1F AND DUP3 ADD SWAP2 JUMPDEST POP POP POP POP POP SWAP1 POP DUP2 JUMP JUMPDEST PUSH0 DUP1 SLOAD SWAP1 PUSH2 0x100 EXP SWAP1 DIV PUSH20 0xFFFFFFFFFFFFFFFFFFFFFFFFFFFFFFFFFFFFFFFF AND DUP2 JUMP JUMPDEST DUP3 DUP3 DUP3 PUSH1 0x40 MLOAD PUSH2 0x1E0F SWAP1 PUSH2 0x3C4C JUMP JUMPDEST PUSH2 0x1E1B SWAP4 SWAP3 SWAP2 SWAP1 PUSH2 0x5365 JUMP JUMPDEST PUSH1 0x40 MLOAD DUP1 SWAP2 SUB SWAP1 PUSH0 CREATE DUP1 ISZERO DUP1 ISZERO PUSH2 0x1E34 JUMPI RETURNDATASIZE PUSH0 DUP1 RETURNDATACOPY RETURNDATASIZE PUSH0 REVERT JUMPDEST POP PUSH1 0xA PUSH0 PUSH2 0x100 EXP DUP2 SLOAD DUP2 PUSH20 0xFFFFFFFFFFFFFFFFFFFFFFFFFFFFFFFFFFFFFFFF MUL NOT AND SWAP1 DUP4 PUSH20 0xFFFFFFFFFFFFFFFFFFFFFFFFFFFFFFFFFFFFFFFF AND MUL OR SWAP1 SSTORE POP POP POP POP JUMP JUMPDEST PUSH0 DUP1 SLOAD SWAP1 PUSH2 0x100 EXP SWAP1 DIV PUSH20 0xFFFFFFFFFFFFFFFFFFFFFFFFFFFFFFFFFFFFFFFF AND PUSH20 0xFFFFFFFFFFFFFFFFFFFFFFFFFFFFFFFFFFFFFFFF AND CALLER PUSH20 0xFFFFFFFFFFFFFFFFFFFFFFFFFFFFFFFFFFFFFFFF AND EQ PUSH2 0x1F06 JUMPI PUSH1 0x40 MLOAD PUSH32 0x8C379A000000000000000000000000000000000000000000000000000000000 DUP2 MSTORE PUSH1 0x4 ADD PUSH2 0x1EFD SWAP1 PUSH2 0x540A JUMP JUMPDEST PUSH1 0x40 MLOAD DUP1 SWAP2 SUB SWAP1 REVERT JUMPDEST PUSH0 PUSH1 0x5 PUSH0 DUP5 PUSH20 0xFFFFFFFFFFFFFFFFFFFFFFFFFFFFFFFFFFFFFFFF AND PUSH20 0xFFFFFFFFFFFFFFFFFFFFFFFFFFFFFFFFFFFFFFFF AND DUP2 MSTORE PUSH1 0x20 ADD SWAP1 DUP2 MSTORE PUSH1 0x20 ADD PUSH0 KECCAK256 SWAP1 POP PUSH0 JUMPDEST DUP2 PUSH1 0x1 ADD DUP1 SLOAD SWAP1 POP DUP2 LT ISZERO PUSH2 0x1FCE JUMPI DUP3 DUP1 MLOAD SWAP1 PUSH1 0x20 ADD KECCAK256 DUP3 PUSH1 0x1 ADD DUP3 DUP2 SLOAD DUP2 LT PUSH2 0x1F75 JUMPI PUSH2 0x1F74 PUSH2 0x4D0B JUMP JUMPDEST JUMPDEST SWAP1 PUSH0 MSTORE PUSH1 0x20 PUSH0 KECCAK256 ADD PUSH1 0x40 MLOAD PUSH2 0x1F8A SWAP2 SWAP1 PUSH2 0x54C4 JUMP JUMPDEST PUSH1 0x40 MLOAD DUP1 SWAP2 SUB SWAP1 KECCAK256 SUB PUSH2 0x1FC1 JUMPI DUP2 PUSH1 0x1 ADD DUP2 DUP2 SLOAD DUP2 LT PUSH2 0x1FAD JUMPI PUSH2 0x1FAC PUSH2 0x4D0B JUMP JUMPDEST JUMPDEST SWAP1 PUSH0 MSTORE PUSH1 0x20 PUSH0 KECCAK256 ADD PUSH0 PUSH2 0x1FC0 SWAP2 SWAP1 PUSH2 0x3C59 JUMP JUMPDEST JUMPDEST DUP1 DUP1 PUSH1 0x1 ADD SWAP2 POP POP PUSH2 0x1F48 JUMP JUMPDEST POP POP POP POP JUMP JUMPDEST PUSH0 PUSH1 0x8 PUSH0 DUP4 DUP2 MSTORE PUSH1 0x20 ADD SWAP1 DUP2 MSTORE PUSH1 0x20 ADD PUSH0 KECCAK256 SWAP1 POP DUP1 PUSH1 0x1 PUSH0 DUP2 SLOAD DUP2 LT PUSH2 0x1FFD JUMPI PUSH2 0x1FFC PUSH2 0x4D0B JUMP JUMPDEST JUMPDEST SWAP1 PUSH0 MSTORE PUSH1 0x20 PUSH0 KECCAK256 ADD PUSH0 SWAP1 SLOAD SWAP1 PUSH2 0x100 EXP SWAP1 DIV PUSH20 0xFFFFFFFFFFFFFFFFFFFFFFFFFFFFFFFFFFFFFFFF AND SWAP1 DUP1 PUSH1 0x1 DUP2 SLOAD ADD DUP1 DUP3 SSTORE DUP1 SWAP2 POP POP PUSH1 0x1 SWAP1 SUB SWAP1 PUSH0 MSTORE PUSH1 0x20 PUSH0 KECCAK256 ADD PUSH0 SWAP1 SWAP2 SWAP1 SWAP2 SWAP1 SWAP2 PUSH2 0x100 EXP DUP2 SLOAD DUP2 PUSH20 0xFFFFFFFFFFFFFFFFFFFFFFFFFFFFFFFFFFFFFFFF MUL NOT AND SWAP1 DUP4 PUSH20 0xFFFFFFFFFFFFFFFFFFFFFFFFFFFFFFFFFFFFFFFF AND MUL OR SWAP1 SSTORE POP DUP1 PUSH1 0x1 DUP1 DUP2 SLOAD DUP2 LT PUSH2 0x2097 JUMPI PUSH2 0x2096 PUSH2 0x4D0B JUMP JUMPDEST JUMPDEST SWAP1 PUSH0 MSTORE PUSH1 0x20 PUSH0 KECCAK256 ADD PUSH0 SWAP1 SLOAD SWAP1 PUSH2 0x100 EXP SWAP1 DIV PUSH20 0xFFFFFFFFFFFFFFFFFFFFFFFFFFFFFFFFFFFFFFFF AND SWAP1 DUP1 PUSH1 0x1 DUP2 SLOAD ADD DUP1 DUP3 SSTORE DUP1 SWAP2 POP POP PUSH1 0x1 SWAP1 SUB SWAP1 PUSH0 MSTORE PUSH1 0x20 PUSH0 KECCAK256 ADD PUSH0 SWAP1 SWAP2 SWAP1 SWAP2 SWAP1 SWAP2 PUSH2 0x100 EXP DUP2 SLOAD DUP2 PUSH20 0xFFFFFFFFFFFFFFFFFFFFFFFFFFFFFFFFFFFFFFFF MUL NOT AND SWAP1 DUP4 PUSH20 0xFFFFFFFFFFFFFFFFFFFFFFFFFFFFFFFFFFFFFFFF AND MUL OR SWAP1 SSTORE POP DUP1 PUSH1 0x1 PUSH1 0x2 DUP2 SLOAD DUP2 LT PUSH2 0x2132 JUMPI PUSH2 0x2131 PUSH2 0x4D0B JUMP JUMPDEST JUMPDEST SWAP1 PUSH0 MSTORE PUSH1 0x20 PUSH0 KECCAK256 ADD PUSH0 SWAP1 SLOAD SWAP1 PUSH2 0x100 EXP SWAP1 DIV PUSH20 0xFFFFFFFFFFFFFFFFFFFFFFFFFFFFFFFFFFFFFFFF AND SWAP1 DUP1 PUSH1 0x1 DUP2 SLOAD ADD DUP1 DUP3 SSTORE DUP1 SWAP2 POP POP PUSH1 0x1 SWAP1 SUB SWAP1 PUSH0 MSTORE PUSH1 0x20 PUSH0 KECCAK256 ADD PUSH0 SWAP1 SWAP2 SWAP1 SWAP2 SWAP1 SWAP2 PUSH2 0x100 EXP DUP2 SLOAD DUP2 PUSH20 0xFFFFFFFFFFFFFFFFFFFFFFFFFFFFFFFFFFFFFFFF MUL NOT AND SWAP1 DUP4 PUSH20 0xFFFFFFFFFFFFFFFFFFFFFFFFFFFFFFFFFFFFFFFF AND MUL OR SWAP1 SSTORE POP POP POP JUMP JUMPDEST PUSH0 DUP1 PUSH1 0x6 PUSH0 CALLER PUSH20 0xFFFFFFFFFFFFFFFFFFFFFFFFFFFFFFFFFFFFFFFF AND PUSH20 0xFFFFFFFFFFFFFFFFFFFFFFFFFFFFFFFFFFFFFFFF AND DUP2 MSTORE PUSH1 0x20 ADD SWAP1 DUP2 MSTORE PUSH1 0x20 ADD PUSH0 KECCAK256 PUSH1 0x4 ADD DUP1 SLOAD PUSH2 0x2208 SWAP1 PUSH2 0x4C73 JUMP JUMPDEST SWAP1 POP GT PUSH2 0x224A JUMPI PUSH1 0x40 MLOAD PUSH32 0x8C379A000000000000000000000000000000000000000000000000000000000 DUP2 MSTORE PUSH1 0x4 ADD PUSH2 0x2241 SWAP1 PUSH2 0x554A JUMP JUMPDEST PUSH1 0x40 MLOAD DUP1 SWAP2 SUB SWAP1 REVERT JUMPDEST PUSH0 PUSH1 0x7 PUSH0 PUSH1 0x2 SLOAD DUP2 MSTORE PUSH1 0x20 ADD SWAP1 DUP2 MSTORE PUSH1 0x20 ADD PUSH0 KECCAK256 SWAP1 POP CALLER DUP2 PUSH1 0x1 ADD PUSH0 PUSH2 0x100 EXP DUP2 SLOAD DUP2 PUSH20 0xFFFFFFFFFFFFFFFFFFFFFFFFFFFFFFFFFFFFFFFF MUL NOT AND SWAP1 DUP4 PUSH20 0xFFFFFFFFFFFFFFFFFFFFFFFFFFFFFFFFFFFFFFFF AND MUL OR SWAP1 SSTORE POP DUP9 DUP2 PUSH1 0x2 ADD SWAP1 DUP2 PUSH2 0x22B3 SWAP2 SWAP1 PUSH2 0x4F5A JUMP JUMPDEST POP DUP8 DUP2 PUSH1 0x3 ADD DUP2 SWAP1 SSTORE POP DUP7 DUP2 PUSH1 0x4 ADD DUP2 SWAP1 SSTORE POP DUP6 DUP2 PUSH1 0x5 ADD SWAP1 DUP2 PUSH2 0x22D7 SWAP2 SWAP1 PUSH2 0x4F5A JUMP JUMPDEST POP DUP5 DUP2 PUSH1 0x6 ADD DUP2 SWAP1 SSTORE POP DUP4 DUP2 PUSH1 0x7 ADD SWAP1 DUP2 PUSH2 0x22F2 SWAP2 SWAP1 PUSH2 0x4F5A JUMP JUMPDEST POP DUP3 DUP2 PUSH1 0x8 ADD SWAP1 DUP2 PUSH2 0x2304 SWAP2 SWAP1 PUSH2 0x4F5A JUMP JUMPDEST POP PUSH0 DUP2 PUSH1 0xB ADD PUSH0 PUSH2 0x100 EXP DUP2 SLOAD DUP2 PUSH1 0xFF MUL NOT AND SWAP1 DUP4 PUSH1 0x4 DUP2 GT ISZERO PUSH2 0x232B JUMPI PUSH2 0x232A PUSH2 0x4172 JUMP JUMPDEST JUMPDEST MUL OR SWAP1 SSTORE POP PUSH1 0x1 DUP2 PUSH1 0xB ADD PUSH1 0x1 PUSH2 0x100 EXP DUP2 SLOAD DUP2 PUSH1 0xFF MUL NOT AND SWAP1 DUP4 ISZERO ISZERO MUL OR SWAP1 SSTORE POP PUSH1 0x2 PUSH0 DUP2 SLOAD DUP1 SWAP3 SWAP2 SWAP1 PUSH2 0x235F SWAP1 PUSH2 0x5056 JUMP JUMPDEST SWAP2 SWAP1 POP SSTORE POP PUSH0 PUSH1 0x6 PUSH0 CALLER PUSH20 0xFFFFFFFFFFFFFFFFFFFFFFFFFFFFFFFFFFFFFFFF AND PUSH20 0xFFFFFFFFFFFFFFFFFFFFFFFFFFFFFFFFFFFFFFFF AND DUP2 MSTORE PUSH1 0x20 ADD SWAP1 DUP2 MSTORE PUSH1 0x20 ADD PUSH0 KECCAK256 SWAP1 POP DUP2 PUSH0 ADD SLOAD DUP2 PUSH1 0x1 ADD DUP2 SWAP1 SSTORE POP PUSH1 0x1 PUSH1 0x2 SLOAD PUSH2 0x23BF SWAP2 SWAP1 PUSH2 0x5568 JUMP JUMPDEST SWAP3 POP POP POP SWAP8 SWAP7 POP POP POP POP POP POP POP JUMP JUMPDEST PUSH0 PUSH1 0x7 PUSH0 DUP5 DUP2 MSTORE PUSH1 0x20 ADD SWAP1 DUP2 MSTORE PUSH1 0x20 ADD PUSH0 KECCAK256 SWAP1 POP PUSH0 PUSH1 0x55 DUP4 PUSH2 0x23F0 SWAP2 SWAP1 PUSH2 0x51D2 JUMP JUMPDEST SWAP1 POP DUP2 PUSH1 0x6 ADD SLOAD DUP2 GT ISZERO PUSH2 0x241B JUMPI PUSH0 DUP3 PUSH1 0xB ADD PUSH1 0x1 PUSH2 0x100 EXP DUP2 SLOAD DUP2 PUSH1 0xFF MUL NOT AND SWAP1 DUP4 ISZERO ISZERO MUL OR SWAP1 SSTORE POP JUMPDEST POP POP POP POP JUMP JUMPDEST PUSH0 DUP1 PUSH0 SWAP1 SLOAD SWAP1 PUSH2 0x100 EXP SWAP1 DIV PUSH20 0xFFFFFFFFFFFFFFFFFFFFFFFFFFFFFFFFFFFFFFFF AND PUSH20 0xFFFFFFFFFFFFFFFFFFFFFFFFFFFFFFFFFFFFFFFF AND CALLER PUSH20 0xFFFFFFFFFFFFFFFFFFFFFFFFFFFFFFFFFFFFFFFF AND EQ PUSH2 0x24B0 JUMPI PUSH1 0x40 MLOAD PUSH32 0x8C379A000000000000000000000000000000000000000000000000000000000 DUP2 MSTORE PUSH1 0x4 ADD PUSH2 0x24A7 SWAP1 PUSH2 0x560B JUMP JUMPDEST PUSH1 0x40 MLOAD DUP1 SWAP2 SUB SWAP1 REVERT JUMPDEST PUSH0 PUSH1 0x5 PUSH0 DUP7 PUSH20 0xFFFFFFFFFFFFFFFFFFFFFFFFFFFFFFFFFFFFFFFF AND PUSH20 0xFFFFFFFFFFFFFFFFFFFFFFFFFFFFFFFFFFFFFFFF AND DUP2 MSTORE PUSH1 0x20 ADD SWAP1 DUP2 MSTORE PUSH1 0x20 ADD PUSH0 KECCAK256 SWAP1 POP DUP4 DUP2 PUSH0 ADD SWAP1 DUP2 PUSH2 0x2500 SWAP2 SWAP1 PUSH2 0x4F5A JUMP JUMPDEST POP DUP1 PUSH1 0x1 ADD DUP4 SWAP1 DUP1 PUSH1 0x1 DUP2 SLOAD ADD DUP1 DUP3 SSTORE DUP1 SWAP2 POP POP PUSH1 0x1 SWAP1 SUB SWAP1 PUSH0 MSTORE PUSH1 0x20 PUSH0 KECCAK256 ADD PUSH0 SWAP1 SWAP2 SWAP1 SWAP2 SWAP1 SWAP2 POP SWAP1 DUP2 PUSH2 0x2534 SWAP2 SWAP1 PUSH2 0x4F5A JUMP JUMPDEST POP PUSH1 0x1 DUP6 SWAP1 DUP1 PUSH1 0x1 DUP2 SLOAD ADD DUP1 DUP3 SSTORE DUP1 SWAP2 POP POP PUSH1 0x1 SWAP1 SUB SWAP1 PUSH0 MSTORE PUSH1 0x20 PUSH0 KECCAK256 ADD PUSH0 SWAP1 SWAP2 SWAP1 SWAP2 SWAP1 SWAP2 PUSH2 0x100 EXP DUP2 SLOAD DUP2 PUSH20 0xFFFFFFFFFFFFFFFFFFFFFFFFFFFFFFFFFFFFFFFF MUL NOT AND SWAP1 DUP4 PUSH20 0xFFFFFFFFFFFFFFFFFFFFFFFFFFFFFFFFFFFFFFFF AND MUL OR SWAP1 SSTORE POP PUSH1 0x1 DUP1 SLOAD SWAP1 POP SWAP2 POP POP SWAP4 SWAP3 POP POP POP JUMP JUMPDEST PUSH2 0x25AD PUSH2 0x3C96 JUMP JUMPDEST PUSH1 0x6 PUSH0 DUP4 PUSH20 0xFFFFFFFFFFFFFFFFFFFFFFFFFFFFFFFFFFFFFFFF AND PUSH20 0xFFFFFFFFFFFFFFFFFFFFFFFFFFFFFFFFFFFFFFFF AND DUP2 MSTORE PUSH1 0x20 ADD SWAP1 DUP2 MSTORE PUSH1 0x20 ADD PUSH0 KECCAK256 PUSH1 0x40 MLOAD DUP1 PUSH1 0xC0 ADD PUSH1 0x40 MSTORE SWAP1 DUP2 PUSH0 DUP3 ADD PUSH0 SWAP1 SLOAD SWAP1 PUSH2 0x100 EXP SWAP1 DIV PUSH20 0xFFFFFFFFFFFFFFFFFFFFFFFFFFFFFFFFFFFFFFFF AND PUSH20 0xFFFFFFFFFFFFFFFFFFFFFFFFFFFFFFFFFFFFFFFF AND PUSH20 0xFFFFFFFFFFFFFFFFFFFFFFFFFFFFFFFFFFFFFFFF AND DUP2 MSTORE PUSH1 0x20 ADD PUSH1 0x1 DUP3 ADD SLOAD DUP2 MSTORE PUSH1 0x20 ADD PUSH1 0x2 DUP3 ADD PUSH1 0x40 MLOAD DUP1 PUSH1 0x40 ADD PUSH1 0x40 MSTORE SWAP1 DUP2 PUSH0 DUP3 ADD SLOAD DUP2 MSTORE PUSH1 0x20 ADD PUSH1 0x1 DUP3 ADD PUSH0 SWAP1 SLOAD SWAP1 PUSH2 0x100 EXP SWAP1 DIV PUSH1 0xFF AND ISZERO ISZERO ISZERO ISZERO DUP2 MSTORE POP POP DUP2 MSTORE PUSH1 0x20 ADD PUSH1 0x4 DUP3 ADD DUP1 SLOAD PUSH2 0x269A SWAP1 PUSH2 0x4C73 JUMP JUMPDEST DUP1 PUSH1 0x1F ADD PUSH1 0x20 DUP1 SWAP2 DIV MUL PUSH1 0x20 ADD PUSH1 0x40 MLOAD SWAP1 DUP2 ADD PUSH1 0x40 MSTORE DUP1 SWAP3 SWAP2 SWAP1 DUP2 DUP2 MSTORE PUSH1 0x20 ADD DUP3 DUP1 SLOAD PUSH2 0x26C6 SWAP1 PUSH2 0x4C73 JUMP JUMPDEST DUP1 ISZERO PUSH2 0x2711 JUMPI DUP1 PUSH1 0x1F LT PUSH2 0x26E8 JUMPI PUSH2 0x100 DUP1 DUP4 SLOAD DIV MUL DUP4 MSTORE SWAP2 PUSH1 0x20 ADD SWAP2 PUSH2 0x2711 JUMP JUMPDEST DUP3 ADD SWAP2 SWAP1 PUSH0 MSTORE PUSH1 0x20 PUSH0 KECCAK256 SWAP1 JUMPDEST DUP2 SLOAD DUP2 MSTORE SWAP1 PUSH1 0x1 ADD SWAP1 PUSH1 0x20 ADD DUP1 DUP4 GT PUSH2 0x26F4 JUMPI DUP3 SWAP1 SUB PUSH1 0x1F AND DUP3 ADD SWAP2 JUMPDEST POP POP POP POP POP DUP2 MSTORE PUSH1 0x20 ADD PUSH1 0x5 DUP3 ADD DUP1 SLOAD PUSH2 0x272A SWAP1 PUSH2 0x4C73 JUMP JUMPDEST DUP1 PUSH1 0x1F ADD PUSH1 0x20 DUP1 SWAP2 DIV MUL PUSH1 0x20 ADD PUSH1 0x40 MLOAD SWAP1 DUP2 ADD PUSH1 0x40 MSTORE DUP1 SWAP3 SWAP2 SWAP1 DUP2 DUP2 MSTORE PUSH1 0x20 ADD DUP3 DUP1 SLOAD PUSH2 0x2756 SWAP1 PUSH2 0x4C73 JUMP JUMPDEST DUP1 ISZERO PUSH2 0x27A1 JUMPI DUP1 PUSH1 0x1F LT PUSH2 0x2778 JUMPI PUSH2 0x100 DUP1 DUP4 SLOAD DIV MUL DUP4 MSTORE SWAP2 PUSH1 0x20 ADD SWAP2 PUSH2 0x27A1 JUMP JUMPDEST DUP3 ADD SWAP2 SWAP1 PUSH0 MSTORE PUSH1 0x20 PUSH0 KECCAK256 SWAP1 JUMPDEST DUP2 SLOAD DUP2 MSTORE SWAP1 PUSH1 0x1 ADD SWAP1 PUSH1 0x20 ADD DUP1 DUP4 GT PUSH2 0x2784 JUMPI DUP3 SWAP1 SUB PUSH1 0x1F AND DUP3 ADD SWAP2 JUMPDEST POP POP POP POP POP DUP2 MSTORE PUSH1 0x20 ADD PUSH1 0x6 DUP3 ADD DUP1 SLOAD PUSH2 0x27BA SWAP1 PUSH2 0x4C73 JUMP JUMPDEST DUP1 PUSH1 0x1F ADD PUSH1 0x20 DUP1 SWAP2 DIV MUL PUSH1 0x20 ADD PUSH1 0x40 MLOAD SWAP1 DUP2 ADD PUSH1 0x40 MSTORE DUP1 SWAP3 SWAP2 SWAP1 DUP2 DUP2 MSTORE PUSH1 0x20 ADD DUP3 DUP1 SLOAD PUSH2 0x27E6 SWAP1 PUSH2 0x4C73 JUMP JUMPDEST DUP1 ISZERO PUSH2 0x2831 JUMPI DUP1 PUSH1 0x1F LT PUSH2 0x2808 JUMPI PUSH2 0x100 DUP1 DUP4 SLOAD DIV MUL DUP4 MSTORE SWAP2 PUSH1 0x20 ADD SWAP2 PUSH2 0x2831 JUMP JUMPDEST DUP3 ADD SWAP2 SWAP1 PUSH0 MSTORE PUSH1 0x20 PUSH0 KECCAK256 SWAP1 JUMPDEST DUP2 SLOAD DUP2 MSTORE SWAP1 PUSH1 0x1 ADD SWAP1 PUSH1 0x20 ADD DUP1 DUP4 GT PUSH2 0x2814 JUMPI DUP3 SWAP1 SUB PUSH1 0x1F AND DUP3 ADD SWAP2 JUMPDEST POP POP POP POP POP DUP2 MSTORE POP POP SWAP1 POP SWAP2 SWAP1 POP JUMP JUMPDEST PUSH1 0x9 PUSH1 0x20 MSTORE DUP2 PUSH0 MSTORE PUSH1 0x40 PUSH0 KECCAK256 DUP2 DUP2 SLOAD DUP2 LT PUSH2 0x285A JUMPI PUSH0 DUP1 REVERT JUMPDEST SWAP1 PUSH0 MSTORE PUSH1 0x20 PUSH0 KECCAK256 ADD PUSH0 SWAP2 POP SWAP2 POP SWAP1 SLOAD SWAP1 PUSH2 0x100 EXP SWAP1 DIV PUSH20 0xFFFFFFFFFFFFFFFFFFFFFFFFFFFFFFFFFFFFFFFF AND DUP2 JUMP JUMPDEST PUSH1 0x6 PUSH1 0x20 MSTORE DUP1 PUSH0 MSTORE PUSH1 0x40 PUSH0 KECCAK256 PUSH0 SWAP2 POP SWAP1 POP DUP1 PUSH0 ADD PUSH0 SWAP1 SLOAD SWAP1 PUSH2 0x100 EXP SWAP1 DIV PUSH20 0xFFFFFFFFFFFFFFFFFFFFFFFFFFFFFFFFFFFFFFFF AND SWAP1 DUP1 PUSH1 0x1 ADD SLOAD SWAP1 DUP1 PUSH1 0x2 ADD PUSH1 0x40 MLOAD DUP1 PUSH1 0x40 ADD PUSH1 0x40 MSTORE SWAP1 DUP2 PUSH0 DUP3 ADD SLOAD DUP2 MSTORE PUSH1 0x20 ADD PUSH1 0x1 DUP3 ADD PUSH0 SWAP1 SLOAD SWAP1 PUSH2 0x100 EXP SWAP1 DIV PUSH1 0xFF AND ISZERO ISZERO ISZERO ISZERO DUP2 MSTORE POP POP SWAP1 DUP1 PUSH1 0x4 ADD DUP1 SLOAD PUSH2 0x2906 SWAP1 PUSH2 0x4C73 JUMP JUMPDEST DUP1 PUSH1 0x1F ADD PUSH1 0x20 DUP1 SWAP2 DIV MUL PUSH1 0x20 ADD PUSH1 0x40 MLOAD SWAP1 DUP2 ADD PUSH1 0x40 MSTORE DUP1 SWAP3 SWAP2 SWAP1 DUP2 DUP2 MSTORE PUSH1 0x20 ADD DUP3 DUP1 SLOAD PUSH2 0x2932 SWAP1 PUSH2 0x4C73 JUMP JUMPDEST DUP1 ISZERO PUSH2 0x297D JUMPI DUP1 PUSH1 0x1F LT PUSH2 0x2954 JUMPI PUSH2 0x100 DUP1 DUP4 SLOAD DIV MUL DUP4 MSTORE SWAP2 PUSH1 0x20 ADD SWAP2 PUSH2 0x297D JUMP JUMPDEST DUP3 ADD SWAP2 SWAP1 PUSH0 MSTORE PUSH1 0x20 PUSH0 KECCAK256 SWAP1 JUMPDEST DUP2 SLOAD DUP2 MSTORE SWAP1 PUSH1 0x1 ADD SWAP1 PUSH1 0x20 ADD DUP1 DUP4 GT PUSH2 0x2960 JUMPI DUP3 SWAP1 SUB PUSH1 0x1F AND DUP3 ADD SWAP2 JUMPDEST POP POP POP POP POP SWAP1 DUP1 PUSH1 0x5 ADD DUP1 SLOAD PUSH2 0x2992 SWAP1 PUSH2 0x4C73 JUMP JUMPDEST DUP1 PUSH1 0x1F ADD PUSH1 0x20 DUP1 SWAP2 DIV MUL PUSH1 0x20 ADD PUSH1 0x40 MLOAD SWAP1 DUP2 ADD PUSH1 0x40 MSTORE DUP1 SWAP3 SWAP2 SWAP1 DUP2 DUP2 MSTORE PUSH1 0x20 ADD DUP3 DUP1 SLOAD PUSH2 0x29BE SWAP1 PUSH2 0x4C73 JUMP JUMPDEST DUP1 ISZERO PUSH2 0x2A09 JUMPI DUP1 PUSH1 0x1F LT PUSH2 0x29E0 JUMPI PUSH2 0x100 DUP1 DUP4 SLOAD DIV MUL DUP4 MSTORE SWAP2 PUSH1 0x20 ADD SWAP2 PUSH2 0x2A09 JUMP JUMPDEST DUP3 ADD SWAP2 SWAP1 PUSH0 MSTORE PUSH1 0x20 PUSH0 KECCAK256 SWAP1 JUMPDEST DUP2 SLOAD DUP2 MSTORE SWAP1 PUSH1 0x1 ADD SWAP1 PUSH1 0x20 ADD DUP1 DUP4 GT PUSH2 0x29EC JUMPI DUP3 SWAP1 SUB PUSH1 0x1F AND DUP3 ADD SWAP2 JUMPDEST POP POP POP POP POP SWAP1 DUP1 PUSH1 0x6 ADD DUP1 SLOAD PUSH2 0x2A1E SWAP1 PUSH2 0x4C73 JUMP JUMPDEST DUP1 PUSH1 0x1F ADD PUSH1 0x20 DUP1 SWAP2 DIV MUL PUSH1 0x20 ADD PUSH1 0x40 MLOAD SWAP1 DUP2 ADD PUSH1 0x40 MSTORE DUP1 SWAP3 SWAP2 SWAP1 DUP2 DUP2 MSTORE PUSH1 0x20 ADD DUP3 DUP1 SLOAD PUSH2 0x2A4A SWAP1 PUSH2 0x4C73 JUMP JUMPDEST DUP1 ISZERO PUSH2 0x2A95 JUMPI DUP1 PUSH1 0x1F LT PUSH2 0x2A6C JUMPI PUSH2 0x100 DUP1 DUP4 SLOAD DIV MUL DUP4 MSTORE SWAP2 PUSH1 0x20 ADD SWAP2 PUSH2 0x2A95 JUMP JUMPDEST DUP3 ADD SWAP2 SWAP1 PUSH0 MSTORE PUSH1 0x20 PUSH0 KECCAK256 SWAP1 JUMPDEST DUP2 SLOAD DUP2 MSTORE SWAP1 PUSH1 0x1 ADD SWAP1 PUSH1 0x20 ADD DUP1 DUP4 GT PUSH2 0x2A78 JUMPI DUP3 SWAP1 SUB PUSH1 0x1F AND DUP3 ADD SWAP2 JUMPDEST POP POP POP POP POP SWAP1 POP DUP7 JUMP JUMPDEST PUSH0 PUSH1 0x9 PUSH0 DUP4 DUP2 MSTORE PUSH1 0x20 ADD SWAP1 DUP2 MSTORE PUSH1 0x20 ADD PUSH0 KECCAK256 SWAP1 POP PUSH1 0xA PUSH0 SWAP1 SLOAD SWAP1 PUSH2 0x100 EXP SWAP1 DIV PUSH20 0xFFFFFFFFFFFFFFFFFFFFFFFFFFFFFFFFFFFFFFFF AND PUSH20 0xFFFFFFFFFFFFFFFFFFFFFFFFFFFFFFFFFFFFFFFF AND PUSH4 0xE0C86289 PUSH1 0x40 MLOAD DUP2 PUSH4 0xFFFFFFFF AND PUSH1 0xE0 SHL DUP2 MSTORE PUSH1 0x4 ADD PUSH0 PUSH1 0x40 MLOAD DUP1 DUP4 SUB DUP2 PUSH0 DUP8 DUP1 EXTCODESIZE ISZERO DUP1 ISZERO PUSH2 0x2B19 JUMPI PUSH0 DUP1 REVERT JUMPDEST POP GAS CALL ISZERO DUP1 ISZERO PUSH2 0x2B2B JUMPI RETURNDATASIZE PUSH0 DUP1 RETURNDATACOPY RETURNDATASIZE PUSH0 REVERT JUMPDEST POP POP POP POP PUSH0 PUSH1 0xA PUSH0 SWAP1 SLOAD SWAP1 PUSH2 0x100 EXP SWAP1 DIV PUSH20 0xFFFFFFFFFFFFFFFFFFFFFFFFFFFFFFFFFFFFFFFF AND PUSH20 0xFFFFFFFFFFFFFFFFFFFFFFFFFFFFFFFFFFFFFFFF AND PUSH4 0xF6EAFFC8 PUSH1 0x4 SLOAD PUSH1 0x40 MLOAD DUP3 PUSH4 0xFFFFFFFF AND PUSH1 0xE0 SHL DUP2 MSTORE PUSH1 0x4 ADD PUSH2 0x2B8C SWAP2 SWAP1 PUSH2 0x411F JUMP JUMPDEST PUSH1 0x20 PUSH1 0x40 MLOAD DUP1 DUP4 SUB DUP2 DUP7 GAS STATICCALL ISZERO DUP1 ISZERO PUSH2 0x2BA7 JUMPI RETURNDATASIZE PUSH0 DUP1 RETURNDATACOPY RETURNDATASIZE PUSH0 REVERT JUMPDEST POP POP POP POP PUSH1 0x40 MLOAD RETURNDATASIZE PUSH1 0x1F NOT PUSH1 0x1F DUP3 ADD AND DUP3 ADD DUP1 PUSH1 0x40 MSTORE POP DUP2 ADD SWAP1 PUSH2 0x2BCB SWAP2 SWAP1 PUSH2 0x5227 JUMP JUMPDEST SWAP1 POP DUP2 PUSH1 0x1 DUP1 DUP1 SLOAD SWAP1 POP DUP4 PUSH2 0x2BE0 SWAP2 SWAP1 PUSH2 0x527F JUMP JUMPDEST DUP2 SLOAD DUP2 LT PUSH2 0x2BF1 JUMPI PUSH2 0x2BF0 PUSH2 0x4D0B JUMP JUMPDEST JUMPDEST SWAP1 PUSH0 MSTORE PUSH1 0x20 PUSH0 KECCAK256 ADD PUSH0 SWAP1 SLOAD SWAP1 PUSH2 0x100 EXP SWAP1 DIV PUSH20 0xFFFFFFFFFFFFFFFFFFFFFFFFFFFFFFFFFFFFFFFF AND SWAP1 DUP1 PUSH1 0x1 DUP2 SLOAD ADD DUP1 DUP3 SSTORE DUP1 SWAP2 POP POP PUSH1 0x1 SWAP1 SUB SWAP1 PUSH0 MSTORE PUSH1 0x20 PUSH0 KECCAK256 ADD PUSH0 SWAP1 SWAP2 SWAP1 SWAP2 SWAP1 SWAP2 PUSH2 0x100 EXP DUP2 SLOAD DUP2 PUSH20 0xFFFFFFFFFFFFFFFFFFFFFFFFFFFFFFFFFFFFFFFF MUL NOT AND SWAP1 DUP4 PUSH20 0xFFFFFFFFFFFFFFFFFFFFFFFFFFFFFFFFFFFFFFFF AND MUL OR SWAP1 SSTORE POP DUP2 PUSH1 0x1 DUP1 DUP1 SLOAD SWAP1 POP PUSH1 0x2 DUP5 PUSH2 0x2C8B SWAP2 SWAP1 PUSH2 0x52AF JUMP JUMPDEST PUSH2 0x2C95 SWAP2 SWAP1 PUSH2 0x527F JUMP JUMPDEST DUP2 SLOAD DUP2 LT PUSH2 0x2CA6 JUMPI PUSH2 0x2CA5 PUSH2 0x4D0B JUMP JUMPDEST JUMPDEST SWAP1 PUSH0 MSTORE PUSH1 0x20 PUSH0 KECCAK256 ADD PUSH0 SWAP1 SLOAD SWAP1 PUSH2 0x100 EXP SWAP1 DIV PUSH20 0xFFFFFFFFFFFFFFFFFFFFFFFFFFFFFFFFFFFFFFFF AND SWAP1 DUP1 PUSH1 0x1 DUP2 SLOAD ADD DUP1 DUP3 SSTORE DUP1 SWAP2 POP POP PUSH1 0x1 SWAP1 SUB SWAP1 PUSH0 MSTORE PUSH1 0x20 PUSH0 KECCAK256 ADD PUSH0 SWAP1 SWAP2 SWAP1 SWAP2 SWAP1 SWAP2 PUSH2 0x100 EXP DUP2 SLOAD DUP2 PUSH20 0xFFFFFFFFFFFFFFFFFFFFFFFFFFFFFFFFFFFFFFFF MUL NOT AND SWAP1 DUP4 PUSH20 0xFFFFFFFFFFFFFFFFFFFFFFFFFFFFFFFFFFFFFFFF AND MUL OR SWAP1 SSTORE POP DUP2 PUSH1 0x1 DUP1 DUP1 SLOAD SWAP1 POP PUSH1 0x2 DUP5 PUSH2 0x2D40 SWAP2 SWAP1 PUSH2 0x51D2 JUMP JUMPDEST PUSH2 0x2D4A SWAP2 SWAP1 PUSH2 0x527F JUMP JUMPDEST DUP2 SLOAD DUP2 LT PUSH2 0x2D5B JUMPI PUSH2 0x2D5A PUSH2 0x4D0B JUMP JUMPDEST JUMPDEST SWAP1 PUSH0 MSTORE PUSH1 0x20 PUSH0 KECCAK256 ADD PUSH0 SWAP1 SLOAD SWAP1 PUSH2 0x100 EXP SWAP1 DIV PUSH20 0xFFFFFFFFFFFFFFFFFFFFFFFFFFFFFFFFFFFFFFFF AND SWAP1 DUP1 PUSH1 0x1 DUP2 SLOAD ADD DUP1 DUP3 SSTORE DUP1 SWAP2 POP POP PUSH1 0x1 SWAP1 SUB SWAP1 PUSH0 MSTORE PUSH1 0x20 PUSH0 KECCAK256 ADD PUSH0 SWAP1 SWAP2 SWAP1 SWAP2 SWAP1 SWAP2 PUSH2 0x100 EXP DUP2 SLOAD DUP2 PUSH20 0xFFFFFFFFFFFFFFFFFFFFFFFFFFFFFFFFFFFFFFFF MUL NOT AND SWAP1 DUP4 PUSH20 0xFFFFFFFFFFFFFFFFFFFFFFFFFFFFFFFFFFFFFFFF AND MUL OR SWAP1 SSTORE POP POP POP POP JUMP JUMPDEST PUSH2 0x2DED PUSH2 0x3CE6 JUMP JUMPDEST PUSH1 0x7 PUSH0 DUP4 DUP2 MSTORE PUSH1 0x20 ADD SWAP1 DUP2 MSTORE PUSH1 0x20 ADD PUSH0 KECCAK256 PUSH1 0x40 MLOAD DUP1 PUSH2 0x1A0 ADD PUSH1 0x40 MSTORE SWAP1 DUP2 PUSH0 DUP3 ADD SLOAD DUP2 MSTORE PUSH1 0x20 ADD PUSH1 0x1 DUP3 ADD PUSH0 SWAP1 SLOAD SWAP1 PUSH2 0x100 EXP SWAP1 DIV PUSH20 0xFFFFFFFFFFFFFFFFFFFFFFFFFFFFFFFFFFFFFFFF AND PUSH20 0xFFFFFFFFFFFFFFFFFFFFFFFFFFFFFFFFFFFFFFFF AND PUSH20 0xFFFFFFFFFFFFFFFFFFFFFFFFFFFFFFFFFFFFFFFF AND DUP2 MSTORE PUSH1 0x20 ADD PUSH1 0x2 DUP3 ADD DUP1 SLOAD PUSH2 0x2E78 SWAP1 PUSH2 0x4C73 JUMP JUMPDEST DUP1 PUSH1 0x1F ADD PUSH1 0x20 DUP1 SWAP2 DIV MUL PUSH1 0x20 ADD PUSH1 0x40 MLOAD SWAP1 DUP2 ADD PUSH1 0x40 MSTORE DUP1 SWAP3 SWAP2 SWAP1 DUP2 DUP2 MSTORE PUSH1 0x20 ADD DUP3 DUP1 SLOAD PUSH2 0x2EA4 SWAP1 PUSH2 0x4C73 JUMP JUMPDEST DUP1 ISZERO PUSH2 0x2EEF JUMPI DUP1 PUSH1 0x1F LT PUSH2 0x2EC6 JUMPI PUSH2 0x100 DUP1 DUP4 SLOAD DIV MUL DUP4 MSTORE SWAP2 PUSH1 0x20 ADD SWAP2 PUSH2 0x2EEF JUMP JUMPDEST DUP3 ADD SWAP2 SWAP1 PUSH0 MSTORE PUSH1 0x20 PUSH0 KECCAK256 SWAP1 JUMPDEST DUP2 SLOAD DUP2 MSTORE SWAP1 PUSH1 0x1 ADD SWAP1 PUSH1 0x20 ADD DUP1 DUP4 GT PUSH2 0x2ED2 JUMPI DUP3 SWAP1 SUB PUSH1 0x1F AND DUP3 ADD SWAP2 JUMPDEST POP POP POP POP POP DUP2 MSTORE PUSH1 0x20 ADD PUSH1 0x3 DUP3 ADD SLOAD DUP2 MSTORE PUSH1 0x20 ADD PUSH1 0x4 DUP3 ADD SLOAD DUP2 MSTORE PUSH1 0x20 ADD PUSH1 0x5 DUP3 ADD DUP1 SLOAD PUSH2 0x2F1C SWAP1 PUSH2 0x4C73 JUMP JUMPDEST DUP1 PUSH1 0x1F ADD PUSH1 0x20 DUP1 SWAP2 DIV MUL PUSH1 0x20 ADD PUSH1 0x40 MLOAD SWAP1 DUP2 ADD PUSH1 0x40 MSTORE DUP1 SWAP3 SWAP2 SWAP1 DUP2 DUP2 MSTORE PUSH1 0x20 ADD DUP3 DUP1 SLOAD PUSH2 0x2F48 SWAP1 PUSH2 0x4C73 JUMP JUMPDEST DUP1 ISZERO PUSH2 0x2F93 JUMPI DUP1 PUSH1 0x1F LT PUSH2 0x2F6A JUMPI PUSH2 0x100 DUP1 DUP4 SLOAD DIV MUL DUP4 MSTORE SWAP2 PUSH1 0x20 ADD SWAP2 PUSH2 0x2F93 JUMP JUMPDEST DUP3 ADD SWAP2 SWAP1 PUSH0 MSTORE PUSH1 0x20 PUSH0 KECCAK256 SWAP1 JUMPDEST DUP2 SLOAD DUP2 MSTORE SWAP1 PUSH1 0x1 ADD SWAP1 PUSH1 0x20 ADD DUP1 DUP4 GT PUSH2 0x2F76 JUMPI DUP3 SWAP1 SUB PUSH1 0x1F AND DUP3 ADD SWAP2 JUMPDEST POP POP POP POP POP DUP2 MSTORE PUSH1 0x20 ADD PUSH1 0x6 DUP3 ADD SLOAD DUP2 MSTORE PUSH1 0x20 ADD PUSH1 0x7 DUP3 ADD DUP1 SLOAD PUSH2 0x2FB6 SWAP1 PUSH2 0x4C73 JUMP JUMPDEST DUP1 PUSH1 0x1F ADD PUSH1 0x20 DUP1 SWAP2 DIV MUL PUSH1 0x20 ADD PUSH1 0x40 MLOAD SWAP1 DUP2 ADD PUSH1 0x40 MSTORE DUP1 SWAP3 SWAP2 SWAP1 DUP2 DUP2 MSTORE PUSH1 0x20 ADD DUP3 DUP1 SLOAD PUSH2 0x2FE2 SWAP1 PUSH2 0x4C73 JUMP JUMPDEST DUP1 ISZERO PUSH2 0x302D JUMPI DUP1 PUSH1 0x1F LT PUSH2 0x3004 JUMPI PUSH2 0x100 DUP1 DUP4 SLOAD DIV MUL DUP4 MSTORE SWAP2 PUSH1 0x20 ADD SWAP2 PUSH2 0x302D JUMP JUMPDEST DUP3 ADD SWAP2 SWAP1 PUSH0 MSTORE PUSH1 0x20 PUSH0 KECCAK256 SWAP1 JUMPDEST DUP2 SLOAD DUP2 MSTORE SWAP1 PUSH1 0x1 ADD SWAP1 PUSH1 0x20 ADD DUP1 DUP4 GT PUSH2 0x3010 JUMPI DUP3 SWAP1 SUB PUSH1 0x1F AND DUP3 ADD SWAP2 JUMPDEST POP POP POP POP POP DUP2 MSTORE PUSH1 0x20 ADD PUSH1 0x8 DUP3 ADD DUP1 SLOAD PUSH2 0x3046 SWAP1 PUSH2 0x4C73 JUMP JUMPDEST DUP1 PUSH1 0x1F ADD PUSH1 0x20 DUP1 SWAP2 DIV MUL PUSH1 0x20 ADD PUSH1 0x40 MLOAD SWAP1 DUP2 ADD PUSH1 0x40 MSTORE DUP1 SWAP3 SWAP2 SWAP1 DUP2 DUP2 MSTORE PUSH1 0x20 ADD DUP3 DUP1 SLOAD PUSH2 0x3072 SWAP1 PUSH2 0x4C73 JUMP JUMPDEST DUP1 ISZERO PUSH2 0x30BD JUMPI DUP1 PUSH1 0x1F LT PUSH2 0x3094 JUMPI PUSH2 0x100 DUP1 DUP4 SLOAD DIV MUL DUP4 MSTORE SWAP2 PUSH1 0x20 ADD SWAP2 PUSH2 0x30BD JUMP JUMPDEST DUP3 ADD SWAP2 SWAP1 PUSH0 MSTORE PUSH1 0x20 PUSH0 KECCAK256 SWAP1 JUMPDEST DUP2 SLOAD DUP2 MSTORE SWAP1 PUSH1 0x1 ADD SWAP1 PUSH1 0x20 ADD DUP1 DUP4 GT PUSH2 0x30A0 JUMPI DUP3 SWAP1 SUB PUSH1 0x1F AND DUP3 ADD SWAP2 JUMPDEST POP POP POP POP POP DUP2 MSTORE PUSH1 0x20 ADD PUSH1 0x9 DUP3 ADD DUP1 SLOAD DUP1 PUSH1 0x20 MUL PUSH1 0x20 ADD PUSH1 0x40 MLOAD SWAP1 DUP2 ADD PUSH1 0x40 MSTORE DUP1 SWAP3 SWAP2 SWAP1 DUP2 DUP2 MSTORE PUSH1 0x20 ADD PUSH0 SWAP1 JUMPDEST DUP3 DUP3 LT ISZERO PUSH2 0x3218 JUMPI DUP4 DUP3 SWAP1 PUSH0 MSTORE PUSH1 0x20 PUSH0 KECCAK256 SWAP1 PUSH1 0x2 MUL ADD PUSH1 0x40 MLOAD DUP1 PUSH1 0x60 ADD PUSH1 0x40 MSTORE SWAP1 DUP2 PUSH0 DUP3 ADD PUSH0 SWAP1 SLOAD SWAP1 PUSH2 0x100 EXP SWAP1 DIV PUSH20 0xFFFFFFFFFFFFFFFFFFFFFFFFFFFFFFFFFFFFFFFF AND PUSH20 0xFFFFFFFFFFFFFFFFFFFFFFFFFFFFFFFFFFFFFFFF AND PUSH20 0xFFFFFFFFFFFFFFFFFFFFFFFFFFFFFFFFFFFFFFFF AND DUP2 MSTORE PUSH1 0x20 ADD PUSH0 DUP3 ADD PUSH1 0x14 SWAP1 SLOAD SWAP1 PUSH2 0x100 EXP SWAP1 DIV PUSH1 0xFF AND ISZERO ISZERO ISZERO ISZERO DUP2 MSTORE PUSH1 0x20 ADD PUSH1 0x1 DUP3 ADD DUP1 SLOAD PUSH2 0x3189 SWAP1 PUSH2 0x4C73 JUMP JUMPDEST DUP1 PUSH1 0x1F ADD PUSH1 0x20 DUP1 SWAP2 DIV MUL PUSH1 0x20 ADD PUSH1 0x40 MLOAD SWAP1 DUP2 ADD PUSH1 0x40 MSTORE DUP1 SWAP3 SWAP2 SWAP1 DUP2 DUP2 MSTORE PUSH1 0x20 ADD DUP3 DUP1 SLOAD PUSH2 0x31B5 SWAP1 PUSH2 0x4C73 JUMP JUMPDEST DUP1 ISZERO PUSH2 0x3200 JUMPI DUP1 PUSH1 0x1F LT PUSH2 0x31D7 JUMPI PUSH2 0x100 DUP1 DUP4 SLOAD DIV MUL DUP4 MSTORE SWAP2 PUSH1 0x20 ADD SWAP2 PUSH2 0x3200 JUMP JUMPDEST DUP3 ADD SWAP2 SWAP1 PUSH0 MSTORE PUSH1 0x20 PUSH0 KECCAK256 SWAP1 JUMPDEST DUP2 SLOAD DUP2 MSTORE SWAP1 PUSH1 0x1 ADD SWAP1 PUSH1 0x20 ADD DUP1 DUP4 GT PUSH2 0x31E3 JUMPI DUP3 SWAP1 SUB PUSH1 0x1F AND DUP3 ADD SWAP2 JUMPDEST POP POP POP POP POP DUP2 MSTORE POP POP DUP2 MSTORE PUSH1 0x20 ADD SWAP1 PUSH1 0x1 ADD SWAP1 PUSH2 0x30EA JUMP JUMPDEST POP POP POP POP DUP2 MSTORE PUSH1 0x20 ADD PUSH1 0xA DUP3 ADD DUP1 SLOAD DUP1 PUSH1 0x20 MUL PUSH1 0x20 ADD PUSH1 0x40 MLOAD SWAP1 DUP2 ADD PUSH1 0x40 MSTORE DUP1 SWAP3 SWAP2 SWAP1 DUP2 DUP2 MSTORE PUSH1 0x20 ADD PUSH0 SWAP1 JUMPDEST DUP3 DUP3 LT ISZERO PUSH2 0x3372 JUMPI DUP4 DUP3 SWAP1 PUSH0 MSTORE PUSH1 0x20 PUSH0 KECCAK256 SWAP1 PUSH1 0x2 MUL ADD PUSH1 0x40 MLOAD DUP1 PUSH1 0x60 ADD PUSH1 0x40 MSTORE SWAP1 DUP2 PUSH0 DUP3 ADD PUSH0 SWAP1 SLOAD SWAP1 PUSH2 0x100 EXP SWAP1 DIV PUSH20 0xFFFFFFFFFFFFFFFFFFFFFFFFFFFFFFFFFFFFFFFF AND PUSH20 0xFFFFFFFFFFFFFFFFFFFFFFFFFFFFFFFFFFFFFFFF AND PUSH20 0xFFFFFFFFFFFFFFFFFFFFFFFFFFFFFFFFFFFFFFFF AND DUP2 MSTORE PUSH1 0x20 ADD PUSH0 DUP3 ADD PUSH1 0x14 SWAP1 SLOAD SWAP1 PUSH2 0x100 EXP SWAP1 DIV PUSH1 0xFF AND ISZERO ISZERO ISZERO ISZERO DUP2 MSTORE PUSH1 0x20 ADD PUSH1 0x1 DUP3 ADD DUP1 SLOAD PUSH2 0x32E3 SWAP1 PUSH2 0x4C73 JUMP JUMPDEST DUP1 PUSH1 0x1F ADD PUSH1 0x20 DUP1 SWAP2 DIV MUL PUSH1 0x20 ADD PUSH1 0x40 MLOAD SWAP1 DUP2 ADD PUSH1 0x40 MSTORE DUP1 SWAP3 SWAP2 SWAP1 DUP2 DUP2 MSTORE PUSH1 0x20 ADD DUP3 DUP1 SLOAD PUSH2 0x330F SWAP1 PUSH2 0x4C73 JUMP JUMPDEST DUP1 ISZERO PUSH2 0x335A JUMPI DUP1 PUSH1 0x1F LT PUSH2 0x3331 JUMPI PUSH2 0x100 DUP1 DUP4 SLOAD DIV MUL DUP4 MSTORE SWAP2 PUSH1 0x20 ADD SWAP2 PUSH2 0x335A JUMP JUMPDEST DUP3 ADD SWAP2 SWAP1 PUSH0 MSTORE PUSH1 0x20 PUSH0 KECCAK256 SWAP1 JUMPDEST DUP2 SLOAD DUP2 MSTORE SWAP1 PUSH1 0x1 ADD SWAP1 PUSH1 0x20 ADD DUP1 DUP4 GT PUSH2 0x333D JUMPI DUP3 SWAP1 SUB PUSH1 0x1F AND DUP3 ADD SWAP2 JUMPDEST POP POP POP POP POP DUP2 MSTORE POP POP DUP2 MSTORE PUSH1 0x20 ADD SWAP1 PUSH1 0x1 ADD SWAP1 PUSH2 0x3244 JUMP JUMPDEST POP POP POP POP DUP2 MSTORE PUSH1 0x20 ADD PUSH1 0xB DUP3 ADD PUSH0 SWAP1 SLOAD SWAP1 PUSH2 0x100 EXP SWAP1 DIV PUSH1 0xFF AND PUSH1 0x4 DUP2 GT ISZERO PUSH2 0x339E JUMPI PUSH2 0x339D PUSH2 0x4172 JUMP JUMPDEST JUMPDEST PUSH1 0x4 DUP2 GT ISZERO PUSH2 0x33B0 JUMPI PUSH2 0x33AF PUSH2 0x4172 JUMP JUMPDEST JUMPDEST DUP2 MSTORE PUSH1 0x20 ADD PUSH1 0xB DUP3 ADD PUSH1 0x1 SWAP1 SLOAD SWAP1 PUSH2 0x100 EXP SWAP1 DIV PUSH1 0xFF AND ISZERO ISZERO ISZERO ISZERO DUP2 MSTORE POP POP SWAP1 POP SWAP2 SWAP1 POP JUMP JUMPDEST PUSH0 DUP1 PUSH1 0x7 PUSH0 DUP5 DUP2 MSTORE PUSH1 0x20 ADD SWAP1 DUP2 MSTORE PUSH1 0x20 ADD PUSH0 KECCAK256 SWAP1 POP PUSH0 JUMPDEST PUSH1 0x3 DUP2 LT ISZERO PUSH2 0x3484 JUMPI DUP5 PUSH20 0xFFFFFFFFFFFFFFFFFFFFFFFFFFFFFFFFFFFFFFFF AND DUP3 PUSH1 0xA ADD DUP3 DUP2 SLOAD DUP2 LT PUSH2 0x3423 JUMPI PUSH2 0x3422 PUSH2 0x4D0B JUMP JUMPDEST JUMPDEST SWAP1 PUSH0 MSTORE PUSH1 0x20 PUSH0 KECCAK256 SWAP1 PUSH1 0x2 MUL ADD PUSH0 ADD PUSH0 SWAP1 SLOAD SWAP1 PUSH2 0x100 EXP SWAP1 DIV PUSH20 0xFFFFFFFFFFFFFFFFFFFFFFFFFFFFFFFFFFFFFFFF AND PUSH20 0xFFFFFFFFFFFFFFFFFFFFFFFFFFFFFFFFFFFFFFFF AND SUB PUSH2 0x3477 JUMPI PUSH1 0x1 SWAP3 POP POP POP PUSH2 0x348A JUMP JUMPDEST DUP1 DUP1 PUSH1 0x1 ADD SWAP2 POP POP PUSH2 0x33ED JUMP JUMPDEST POP PUSH0 SWAP2 POP POP JUMPDEST SWAP3 SWAP2 POP POP JUMP JUMPDEST PUSH0 DUP1 PUSH0 SWAP1 SLOAD SWAP1 PUSH2 0x100 EXP SWAP1 DIV PUSH20 0xFFFFFFFFFFFFFFFFFFFFFFFFFFFFFFFFFFFFFFFF AND PUSH20 0xFFFFFFFFFFFFFFFFFFFFFFFFFFFFFFFFFFFFFFFF AND CALLER PUSH20 0xFFFFFFFFFFFFFFFFFFFFFFFFFFFFFFFFFFFFFFFF AND EQ PUSH2 0x351F JUMPI PUSH1 0x40 MLOAD PUSH32 0x8C379A000000000000000000000000000000000000000000000000000000000 DUP2 MSTORE PUSH1 0x4 ADD PUSH2 0x3516 SWAP1 PUSH2 0x5673 JUMP JUMPDEST PUSH1 0x40 MLOAD DUP1 SWAP2 SUB SWAP1 REVERT JUMPDEST PUSH1 0x5 PUSH0 DUP4 PUSH20 0xFFFFFFFFFFFFFFFFFFFFFFFFFFFFFFFFFFFFFFFF AND PUSH20 0xFFFFFFFFFFFFFFFFFFFFFFFFFFFFFFFFFFFFFFFF AND DUP2 MSTORE PUSH1 0x20 ADD SWAP1 DUP2 MSTORE PUSH1 0x20 ADD PUSH0 KECCAK256 PUSH0 DUP1 DUP3 ADD PUSH0 PUSH2 0x356B SWAP2 SWAP1 PUSH2 0x3C59 JUMP JUMPDEST PUSH1 0x1 DUP3 ADD PUSH0 PUSH2 0x357A SWAP2 SWAP1 PUSH2 0x3D71 JUMP JUMPDEST POP POP PUSH0 JUMPDEST PUSH1 0x1 DUP1 SLOAD SWAP1 POP DUP2 LT ISZERO PUSH2 0x3730 JUMPI DUP3 PUSH20 0xFFFFFFFFFFFFFFFFFFFFFFFFFFFFFFFFFFFFFFFF AND PUSH1 0x1 DUP3 DUP2 SLOAD DUP2 LT PUSH2 0x35B6 JUMPI PUSH2 0x35B5 PUSH2 0x4D0B JUMP JUMPDEST JUMPDEST SWAP1 PUSH0 MSTORE PUSH1 0x20 PUSH0 KECCAK256 ADD PUSH0 SWAP1 SLOAD SWAP1 PUSH2 0x100 EXP SWAP1 DIV PUSH20 0xFFFFFFFFFFFFFFFFFFFFFFFFFFFFFFFFFFFFFFFF AND PUSH20 0xFFFFFFFFFFFFFFFFFFFFFFFFFFFFFFFFFFFFFFFF AND SUB PUSH2 0x3723 JUMPI PUSH1 0x1 DUP1 SLOAD SWAP1 POP DUP2 LT PUSH2 0x3613 JUMPI PUSH1 0x1 DUP1 SLOAD SWAP1 POP SWAP2 POP POP PUSH2 0x373A JUMP JUMPDEST PUSH0 DUP2 SWAP1 POP JUMPDEST PUSH1 0x1 DUP1 DUP1 SLOAD SWAP1 POP PUSH2 0x3629 SWAP2 SWAP1 PUSH2 0x5568 JUMP JUMPDEST DUP2 LT ISZERO PUSH2 0x36DD JUMPI PUSH1 0x1 DUP1 DUP4 PUSH2 0x363E SWAP2 SWAP1 PUSH2 0x5691 JUMP JUMPDEST DUP2 SLOAD DUP2 LT PUSH2 0x364F JUMPI PUSH2 0x364E PUSH2 0x4D0B JUMP JUMPDEST JUMPDEST SWAP1 PUSH0 MSTORE PUSH1 0x20 PUSH0 KECCAK256 ADD PUSH0 SWAP1 SLOAD SWAP1 PUSH2 0x100 EXP SWAP1 DIV PUSH20 0xFFFFFFFFFFFFFFFFFFFFFFFFFFFFFFFFFFFFFFFF AND PUSH1 0x1 DUP4 DUP2 SLOAD DUP2 LT PUSH2 0x368B JUMPI PUSH2 0x368A PUSH2 0x4D0B JUMP JUMPDEST JUMPDEST SWAP1 PUSH0 MSTORE PUSH1 0x20 PUSH0 KECCAK256 ADD PUSH0 PUSH2 0x100 EXP DUP2 SLOAD DUP2 PUSH20 0xFFFFFFFFFFFFFFFFFFFFFFFFFFFFFFFFFFFFFFFF MUL NOT AND SWAP1 DUP4 PUSH20 0xFFFFFFFFFFFFFFFFFFFFFFFFFFFFFFFFFFFFFFFF AND MUL OR SWAP1 SSTORE POP DUP1 DUP1 PUSH1 0x1 ADD SWAP2 POP POP PUSH2 0x3618 JUMP JUMPDEST POP PUSH1 0x1 DUP1 SLOAD DUP1 PUSH2 0x36F0 JUMPI PUSH2 0x36EF PUSH2 0x56C4 JUMP JUMPDEST JUMPDEST PUSH1 0x1 SWAP1 SUB DUP2 DUP2 SWAP1 PUSH0 MSTORE PUSH1 0x20 PUSH0 KECCAK256 ADD PUSH0 PUSH2 0x100 EXP DUP2 SLOAD SWAP1 PUSH20 0xFFFFFFFFFFFFFFFFFFFFFFFFFFFFFFFFFFFFFFFF MUL NOT AND SWAP1 SSTORE SWAP1 SSTORE JUMPDEST DUP1 DUP1 PUSH1 0x1 ADD SWAP2 POP POP PUSH2 0x357E JUMP JUMPDEST POP PUSH1 0x1 DUP1 SLOAD SWAP1 POP SWAP1 POP JUMPDEST SWAP2 SWAP1 POP JUMP JUMPDEST PUSH0 PUSH1 0x7 PUSH0 DUP4 DUP2 MSTORE PUSH1 0x20 ADD SWAP1 DUP2 MSTORE PUSH1 0x20 ADD PUSH0 KECCAK256 SWAP1 POP DUP1 PUSH1 0x9 ADD PUSH0 DUP2 SLOAD DUP2 LT PUSH2 0x3769 JUMPI PUSH2 0x3768 PUSH2 0x4D0B JUMP JUMPDEST JUMPDEST SWAP1 PUSH0 MSTORE PUSH1 0x20 PUSH0 KECCAK256 SWAP1 PUSH1 0x2 MUL ADD PUSH0 ADD PUSH1 0x14 SWAP1 SLOAD SWAP1 PUSH2 0x100 EXP SWAP1 DIV PUSH1 0xFF AND DUP1 ISZERO PUSH2 0x37C0 JUMPI POP DUP1 PUSH1 0x9 ADD PUSH1 0x1 DUP2 SLOAD DUP2 LT PUSH2 0x37A3 JUMPI PUSH2 0x37A2 PUSH2 0x4D0B JUMP JUMPDEST JUMPDEST SWAP1 PUSH0 MSTORE PUSH1 0x20 PUSH0 KECCAK256 SWAP1 PUSH1 0x2 MUL ADD PUSH0 ADD PUSH1 0x14 SWAP1 SLOAD SWAP1 PUSH2 0x100 EXP SWAP1 DIV PUSH1 0xFF AND JUMPDEST DUP1 ISZERO PUSH2 0x37FB JUMPI POP DUP1 PUSH1 0x9 ADD PUSH1 0x2 DUP2 SLOAD DUP2 LT PUSH2 0x37DE JUMPI PUSH2 0x37DD PUSH2 0x4D0B JUMP JUMPDEST JUMPDEST SWAP1 PUSH0 MSTORE PUSH1 0x20 PUSH0 KECCAK256 SWAP1 PUSH1 0x2 MUL ADD PUSH0 ADD PUSH1 0x14 SWAP1 SLOAD SWAP1 PUSH2 0x100 EXP SWAP1 DIV PUSH1 0xFF AND JUMPDEST DUP1 PUSH2 0x386F JUMPI POP DUP1 PUSH1 0x9 ADD PUSH0 DUP2 SLOAD DUP2 LT PUSH2 0x3817 JUMPI PUSH2 0x3816 PUSH2 0x4D0B JUMP JUMPDEST JUMPDEST SWAP1 PUSH0 MSTORE PUSH1 0x20 PUSH0 KECCAK256 SWAP1 PUSH1 0x2 MUL ADD PUSH0 ADD PUSH1 0x14 SWAP1 SLOAD SWAP1 PUSH2 0x100 EXP SWAP1 DIV PUSH1 0xFF AND DUP1 ISZERO PUSH2 0x386E JUMPI POP DUP1 PUSH1 0x9 ADD PUSH1 0x1 DUP2 SLOAD DUP2 LT PUSH2 0x3851 JUMPI PUSH2 0x3850 PUSH2 0x4D0B JUMP JUMPDEST JUMPDEST SWAP1 PUSH0 MSTORE PUSH1 0x20 PUSH0 KECCAK256 SWAP1 PUSH1 0x2 MUL ADD PUSH0 ADD PUSH1 0x14 SWAP1 SLOAD SWAP1 PUSH2 0x100 EXP SWAP1 DIV PUSH1 0xFF AND JUMPDEST JUMPDEST DUP1 PUSH2 0x38E4 JUMPI POP DUP1 PUSH1 0x9 ADD PUSH1 0x1 DUP2 SLOAD DUP2 LT PUSH2 0x388C JUMPI PUSH2 0x388B PUSH2 0x4D0B JUMP JUMPDEST JUMPDEST SWAP1 PUSH0 MSTORE PUSH1 0x20 PUSH0 KECCAK256 SWAP1 PUSH1 0x2 MUL ADD PUSH0 ADD PUSH1 0x14 SWAP1 SLOAD SWAP1 PUSH2 0x100 EXP SWAP1 DIV PUSH1 0xFF AND DUP1 ISZERO PUSH2 0x38E3 JUMPI POP DUP1 PUSH1 0x9 ADD PUSH1 0x2 DUP2 SLOAD DUP2 LT PUSH2 0x38C6 JUMPI PUSH2 0x38C5 PUSH2 0x4D0B JUMP JUMPDEST JUMPDEST SWAP1 PUSH0 MSTORE PUSH1 0x20 PUSH0 KECCAK256 SWAP1 PUSH1 0x2 MUL ADD PUSH0 ADD PUSH1 0x14 SWAP1 SLOAD SWAP1 PUSH2 0x100 EXP SWAP1 DIV PUSH1 0xFF AND JUMPDEST JUMPDEST DUP1 PUSH2 0x3958 JUMPI POP DUP1 PUSH1 0x9 ADD PUSH0 DUP2 SLOAD DUP2 LT PUSH2 0x3900 JUMPI PUSH2 0x38FF PUSH2 0x4D0B JUMP JUMPDEST JUMPDEST SWAP1 PUSH0 MSTORE PUSH1 0x20 PUSH0 KECCAK256 SWAP1 PUSH1 0x2 MUL ADD PUSH0 ADD PUSH1 0x14 SWAP1 SLOAD SWAP1 PUSH2 0x100 EXP SWAP1 DIV PUSH1 0xFF AND DUP1 ISZERO PUSH2 0x3957 JUMPI POP DUP1 PUSH1 0x9 ADD PUSH1 0x2 DUP2 SLOAD DUP2 LT PUSH2 0x393A JUMPI PUSH2 0x3939 PUSH2 0x4D0B JUMP JUMPDEST JUMPDEST SWAP1 PUSH0 MSTORE PUSH1 0x20 PUSH0 KECCAK256 SWAP1 PUSH1 0x2 MUL ADD PUSH0 ADD PUSH1 0x14 SWAP1 SLOAD SWAP1 PUSH2 0x100 EXP SWAP1 DIV PUSH1 0xFF AND JUMPDEST JUMPDEST ISZERO PUSH2 0x398E JUMPI PUSH1 0x2 DUP2 PUSH1 0xB ADD PUSH0 PUSH2 0x100 EXP DUP2 SLOAD DUP2 PUSH1 0xFF MUL NOT AND SWAP1 DUP4 PUSH1 0x4 DUP2 GT ISZERO PUSH2 0x3984 JUMPI PUSH2 0x3983 PUSH2 0x4172 JUMP JUMPDEST JUMPDEST MUL OR SWAP1 SSTORE POP PUSH2 0x39BB JUMP JUMPDEST PUSH1 0x4 DUP2 PUSH1 0xB ADD PUSH0 PUSH2 0x100 EXP DUP2 SLOAD DUP2 PUSH1 0xFF MUL NOT AND SWAP1 DUP4 PUSH1 0x4 DUP2 GT ISZERO PUSH2 0x39B5 JUMPI PUSH2 0x39B4 PUSH2 0x4172 JUMP JUMPDEST JUMPDEST MUL OR SWAP1 SSTORE POP JUMPDEST POP POP JUMP JUMPDEST PUSH0 PUSH1 0x7 PUSH0 DUP4 DUP2 MSTORE PUSH1 0x20 ADD SWAP1 DUP2 MSTORE PUSH1 0x20 ADD PUSH0 KECCAK256 SWAP1 POP DUP1 PUSH1 0xA ADD PUSH0 DUP2 SLOAD DUP2 LT PUSH2 0x39E9 JUMPI PUSH2 0x39E8 PUSH2 0x4D0B JUMP JUMPDEST JUMPDEST SWAP1 PUSH0 MSTORE PUSH1 0x20 PUSH0 KECCAK256 SWAP1 PUSH1 0x2 MUL ADD PUSH0 ADD PUSH1 0x14 SWAP1 SLOAD SWAP1 PUSH2 0x100 EXP SWAP1 DIV PUSH1 0xFF AND DUP1 ISZERO PUSH2 0x3A40 JUMPI POP DUP1 PUSH1 0xA ADD PUSH1 0x1 DUP2 SLOAD DUP2 LT PUSH2 0x3A23 JUMPI PUSH2 0x3A22 PUSH2 0x4D0B JUMP JUMPDEST JUMPDEST SWAP1 PUSH0 MSTORE PUSH1 0x20 PUSH0 KECCAK256 SWAP1 PUSH1 0x2 MUL ADD PUSH0 ADD PUSH1 0x14 SWAP1 SLOAD SWAP1 PUSH2 0x100 EXP SWAP1 DIV PUSH1 0xFF AND JUMPDEST DUP1 ISZERO PUSH2 0x3A7B JUMPI POP DUP1 PUSH1 0xA ADD PUSH1 0x2 DUP2 SLOAD DUP2 LT PUSH2 0x3A5E JUMPI PUSH2 0x3A5D PUSH2 0x4D0B JUMP JUMPDEST JUMPDEST SWAP1 PUSH0 MSTORE PUSH1 0x20 PUSH0 KECCAK256 SWAP1 PUSH1 0x2 MUL ADD PUSH0 ADD PUSH1 0x14 SWAP1 SLOAD SWAP1 PUSH2 0x100 EXP SWAP1 DIV PUSH1 0xFF AND JUMPDEST DUP1 PUSH2 0x3AEF JUMPI POP DUP1 PUSH1 0xA ADD PUSH0 DUP2 SLOAD DUP2 LT PUSH2 0x3A97 JUMPI PUSH2 0x3A96 PUSH2 0x4D0B JUMP JUMPDEST JUMPDEST SWAP1 PUSH0 MSTORE PUSH1 0x20 PUSH0 KECCAK256 SWAP1 PUSH1 0x2 MUL ADD PUSH0 ADD PUSH1 0x14 SWAP1 SLOAD SWAP1 PUSH2 0x100 EXP SWAP1 DIV PUSH1 0xFF AND DUP1 ISZERO PUSH2 0x3AEE JUMPI POP DUP1 PUSH1 0xA ADD PUSH1 0x1 DUP2 SLOAD DUP2 LT PUSH2 0x3AD1 JUMPI PUSH2 0x3AD0 PUSH2 0x4D0B JUMP JUMPDEST JUMPDEST SWAP1 PUSH0 MSTORE PUSH1 0x20 PUSH0 KECCAK256 SWAP1 PUSH1 0x2 MUL ADD PUSH0 ADD PUSH1 0x14 SWAP1 SLOAD SWAP1 PUSH2 0x100 EXP SWAP1 DIV PUSH1 0xFF AND JUMPDEST JUMPDEST DUP1 PUSH2 0x3B64 JUMPI POP DUP1 PUSH1 0xA ADD PUSH1 0x1 DUP2 SLOAD DUP2 LT PUSH2 0x3B0C JUMPI PUSH2 0x3B0B PUSH2 0x4D0B JUMP JUMPDEST JUMPDEST SWAP1 PUSH0 MSTORE PUSH1 0x20 PUSH0 KECCAK256 SWAP1 PUSH1 0x2 MUL ADD PUSH0 ADD PUSH1 0x14 SWAP1 SLOAD SWAP1 PUSH2 0x100 EXP SWAP1 DIV PUSH1 0xFF AND DUP1 ISZERO PUSH2 0x3B63 JUMPI POP DUP1 PUSH1 0xA ADD PUSH1 0x2 DUP2 SLOAD DUP2 LT PUSH2 0x3B46 JUMPI PUSH2 0x3B45 PUSH2 0x4D0B JUMP JUMPDEST JUMPDEST SWAP1 PUSH0 MSTORE PUSH1 0x20 PUSH0 KECCAK256 SWAP1 PUSH1 0x2 MUL ADD PUSH0 ADD PUSH1 0x14 SWAP1 SLOAD SWAP1 PUSH2 0x100 EXP SWAP1 DIV PUSH1 0xFF AND JUMPDEST JUMPDEST DUP1 PUSH2 0x3BD8 JUMPI POP DUP1 PUSH1 0xA ADD PUSH0 DUP2 SLOAD DUP2 LT PUSH2 0x3B80 JUMPI PUSH2 0x3B7F PUSH2 0x4D0B JUMP JUMPDEST JUMPDEST SWAP1 PUSH0 MSTORE PUSH1 0x20 PUSH0 KECCAK256 SWAP1 PUSH1 0x2 MUL ADD PUSH0 ADD PUSH1 0x14 SWAP1 SLOAD SWAP1 PUSH2 0x100 EXP SWAP1 DIV PUSH1 0xFF AND DUP1 ISZERO PUSH2 0x3BD7 JUMPI POP DUP1 PUSH1 0xA ADD PUSH1 0x2 DUP2 SLOAD DUP2 LT PUSH2 0x3BBA JUMPI PUSH2 0x3BB9 PUSH2 0x4D0B JUMP JUMPDEST JUMPDEST SWAP1 PUSH0 MSTORE PUSH1 0x20 PUSH0 KECCAK256 SWAP1 PUSH1 0x2 MUL ADD PUSH0 ADD PUSH1 0x14 SWAP1 SLOAD SWAP1 PUSH2 0x100 EXP SWAP1 DIV PUSH1 0xFF AND JUMPDEST JUMPDEST ISZERO PUSH2 0x3C0E JUMPI PUSH1 0x1 DUP2 PUSH1 0xB ADD PUSH0 PUSH2 0x100 EXP DUP2 SLOAD DUP2 PUSH1 0xFF MUL NOT AND SWAP1 DUP4 PUSH1 0x4 DUP2 GT ISZERO PUSH2 0x3C04 JUMPI PUSH2 0x3C03 PUSH2 0x4172 JUMP JUMPDEST JUMPDEST MUL OR SWAP1 SSTORE POP PUSH2 0x3C3B JUMP JUMPDEST PUSH1 0x4 DUP2 PUSH1 0xB ADD PUSH0 PUSH2 0x100 EXP DUP2 SLOAD DUP2 PUSH1 0xFF MUL NOT AND SWAP1 DUP4 PUSH1 0x4 DUP2 GT ISZERO PUSH2 0x3C35 JUMPI PUSH2 0x3C34 PUSH2 0x4172 JUMP JUMPDEST JUMPDEST MUL OR SWAP1 SSTORE POP JUMPDEST POP POP JUMP JUMPDEST PUSH2 0x2329 DUP1 PUSH2 0x56F2 DUP4 CODECOPY ADD SWAP1 JUMP JUMPDEST PUSH2 0xABB DUP1 PUSH2 0x7A1B DUP4 CODECOPY ADD SWAP1 JUMP JUMPDEST POP DUP1 SLOAD PUSH2 0x3C65 SWAP1 PUSH2 0x4C73 JUMP JUMPDEST PUSH0 DUP3 SSTORE DUP1 PUSH1 0x1F LT PUSH2 0x3C76 JUMPI POP PUSH2 0x3C93 JUMP JUMPDEST PUSH1 0x1F ADD PUSH1 0x20 SWAP1 DIV SWAP1 PUSH0 MSTORE PUSH1 0x20 PUSH0 KECCAK256 SWAP1 DUP2 ADD SWAP1 PUSH2 0x3C92 SWAP2 SWAP1 PUSH2 0x3D8F JUMP JUMPDEST JUMPDEST POP JUMP JUMPDEST PUSH1 0x40 MLOAD DUP1 PUSH1 0xC0 ADD PUSH1 0x40 MSTORE DUP1 PUSH0 PUSH20 0xFFFFFFFFFFFFFFFFFFFFFFFFFFFFFFFFFFFFFFFF AND DUP2 MSTORE PUSH1 0x20 ADD PUSH0 DUP2 MSTORE PUSH1 0x20 ADD PUSH2 0x3CCB PUSH2 0x3DAA JUMP JUMPDEST DUP2 MSTORE PUSH1 0x20 ADD PUSH1 0x60 DUP2 MSTORE PUSH1 0x20 ADD PUSH1 0x60 DUP2 MSTORE PUSH1 0x20 ADD PUSH1 0x60 DUP2 MSTORE POP SWAP1 JUMP JUMPDEST PUSH1 0x40 MLOAD DUP1 PUSH2 0x1A0 ADD PUSH1 0x40 MSTORE DUP1 PUSH0 DUP2 MSTORE PUSH1 0x20 ADD PUSH0 PUSH20 0xFFFFFFFFFFFFFFFFFFFFFFFFFFFFFFFFFFFFFFFF AND DUP2 MSTORE PUSH1 0x20 ADD PUSH1 0x60 DUP2 MSTORE PUSH1 0x20 ADD PUSH0 DUP2 MSTORE PUSH1 0x20 ADD PUSH0 DUP2 MSTORE PUSH1 0x20 ADD PUSH1 0x60 DUP2 MSTORE PUSH1 0x20 ADD PUSH0 DUP2 MSTORE PUSH1 0x20 ADD PUSH1 0x60 DUP2 MSTORE PUSH1 0x20 ADD PUSH1 0x60 DUP2 MSTORE PUSH1 0x20 ADD PUSH1 0x60 DUP2 MSTORE PUSH1 0x20 ADD PUSH1 0x60 DUP2 MSTORE PUSH1 0x20 ADD PUSH0 PUSH1 0x4 DUP2 GT ISZERO PUSH2 0x3D63 JUMPI PUSH2 0x3D62 PUSH2 0x4172 JUMP JUMPDEST JUMPDEST DUP2 MSTORE PUSH1 0x20 ADD PUSH0 ISZERO ISZERO DUP2 MSTORE POP SWAP1 JUMP JUMPDEST POP DUP1 SLOAD PUSH0 DUP3 SSTORE SWAP1 PUSH0 MSTORE PUSH1 0x20 PUSH0 KECCAK256 SWAP1 DUP2 ADD SWAP1 PUSH2 0x3D8C SWAP2 SWAP1 PUSH2 0x3DC7 JUMP JUMPDEST POP JUMP JUMPDEST JUMPDEST DUP1 DUP3 GT ISZERO PUSH2 0x3DA6 JUMPI PUSH0 DUP2 PUSH0 SWAP1 SSTORE POP PUSH1 0x1 ADD PUSH2 0x3D90 JUMP JUMPDEST POP SWAP1 JUMP JUMPDEST PUSH1 0x40 MLOAD DUP1 PUSH1 0x40 ADD PUSH1 0x40 MSTORE DUP1 PUSH0 DUP1 NOT AND DUP2 MSTORE PUSH1 0x20 ADD PUSH0 ISZERO ISZERO DUP2 MSTORE POP SWAP1 JUMP JUMPDEST JUMPDEST DUP1 DUP3 GT ISZERO PUSH2 0x3DE6 JUMPI PUSH0 DUP2 DUP2 PUSH2 0x3DDD SWAP2 SWAP1 PUSH2 0x3C59 JUMP JUMPDEST POP PUSH1 0x1 ADD PUSH2 0x3DC8 JUMP JUMPDEST POP SWAP1 JUMP JUMPDEST PUSH0 PUSH1 0x40 MLOAD SWAP1 POP SWAP1 JUMP JUMPDEST PUSH0 DUP1 REVERT JUMPDEST PUSH0 DUP1 REVERT JUMPDEST PUSH0 PUSH20 0xFFFFFFFFFFFFFFFFFFFFFFFFFFFFFFFFFFFFFFFF DUP3 AND SWAP1 POP SWAP2 SWAP1 POP JUMP JUMPDEST PUSH0 PUSH2 0x3E24 DUP3 PUSH2 0x3DFB JUMP JUMPDEST SWAP1 POP SWAP2 SWAP1 POP JUMP JUMPDEST PUSH2 0x3E34 DUP2 PUSH2 0x3E1A JUMP JUMPDEST DUP2 EQ PUSH2 0x3E3E JUMPI PUSH0 DUP1 REVERT JUMPDEST POP JUMP JUMPDEST PUSH0 DUP2 CALLDATALOAD SWAP1 POP PUSH2 0x3E4F DUP2 PUSH2 0x3E2B JUMP JUMPDEST SWAP3 SWAP2 POP POP JUMP JUMPDEST PUSH0 PUSH1 0x20 DUP3 DUP5 SUB SLT ISZERO PUSH2 0x3E6A JUMPI PUSH2 0x3E69 PUSH2 0x3DF3 JUMP JUMPDEST JUMPDEST PUSH0 PUSH2 0x3E77 DUP5 DUP3 DUP6 ADD PUSH2 0x3E41 JUMP JUMPDEST SWAP2 POP POP SWAP3 SWAP2 POP POP JUMP JUMPDEST PUSH0 DUP2 MLOAD SWAP1 POP SWAP2 SWAP1 POP JUMP JUMPDEST PUSH0 DUP3 DUP3 MSTORE PUSH1 0x20 DUP3 ADD SWAP1 POP SWAP3 SWAP2 POP POP JUMP JUMPDEST DUP3 DUP2 DUP4 MCOPY PUSH0 DUP4 DUP4 ADD MSTORE POP POP POP JUMP JUMPDEST PUSH0 PUSH1 0x1F NOT PUSH1 0x1F DUP4 ADD AND SWAP1 POP SWAP2 SWAP1 POP JUMP JUMPDEST PUSH0 PUSH2 0x3EC2 DUP3 PUSH2 0x3E80 JUMP JUMPDEST PUSH2 0x3ECC DUP2 DUP6 PUSH2 0x3E8A JUMP JUMPDEST SWAP4 POP PUSH2 0x3EDC DUP2 DUP6 PUSH1 0x20 DUP7 ADD PUSH2 0x3E9A JUMP JUMPDEST PUSH2 0x3EE5 DUP2 PUSH2 0x3EA8 JUMP JUMPDEST DUP5 ADD SWAP2 POP POP SWAP3 SWAP2 POP POP JUMP JUMPDEST PUSH0 PUSH1 0x20 DUP3 ADD SWAP1 POP DUP2 DUP2 SUB PUSH0 DUP4 ADD MSTORE PUSH2 0x3F08 DUP2 DUP5 PUSH2 0x3EB8 JUMP JUMPDEST SWAP1 POP SWAP3 SWAP2 POP POP JUMP JUMPDEST PUSH0 DUP2 SWAP1 POP SWAP2 SWAP1 POP JUMP JUMPDEST PUSH2 0x3F22 DUP2 PUSH2 0x3F10 JUMP JUMPDEST DUP2 EQ PUSH2 0x3F2C JUMPI PUSH0 DUP1 REVERT JUMPDEST POP JUMP JUMPDEST PUSH0 DUP2 CALLDATALOAD SWAP1 POP PUSH2 0x3F3D DUP2 PUSH2 0x3F19 JUMP JUMPDEST SWAP3 SWAP2 POP POP JUMP JUMPDEST PUSH0 DUP2 ISZERO ISZERO SWAP1 POP SWAP2 SWAP1 POP JUMP JUMPDEST PUSH2 0x3F57 DUP2 PUSH2 0x3F43 JUMP JUMPDEST DUP2 EQ PUSH2 0x3F61 JUMPI PUSH0 DUP1 REVERT JUMPDEST POP JUMP JUMPDEST PUSH0 DUP2 CALLDATALOAD SWAP1 POP PUSH2 0x3F72 DUP2 PUSH2 0x3F4E JUMP JUMPDEST SWAP3 SWAP2 POP POP JUMP JUMPDEST PUSH0 DUP1 REVERT JUMPDEST PUSH0 DUP1 REVERT JUMPDEST PUSH32 0x4E487B7100000000000000000000000000000000000000000000000000000000 PUSH0 MSTORE PUSH1 0x41 PUSH1 0x4 MSTORE PUSH1 0x24 PUSH0 REVERT JUMPDEST PUSH2 0x3FB6 DUP3 PUSH2 0x3EA8 JUMP JUMPDEST DUP2 ADD DUP2 DUP2 LT PUSH8 0xFFFFFFFFFFFFFFFF DUP3 GT OR ISZERO PUSH2 0x3FD5 JUMPI PUSH2 0x3FD4 PUSH2 0x3F80 JUMP JUMPDEST JUMPDEST DUP1 PUSH1 0x40 MSTORE POP POP POP JUMP JUMPDEST PUSH0 PUSH2 0x3FE7 PUSH2 0x3DEA JUMP JUMPDEST SWAP1 POP PUSH2 0x3FF3 DUP3 DUP3 PUSH2 0x3FAD JUMP JUMPDEST SWAP2 SWAP1 POP JUMP JUMPDEST PUSH0 PUSH8 0xFFFFFFFFFFFFFFFF DUP3 GT ISZERO PUSH2 0x4012 JUMPI PUSH2 0x4011 PUSH2 0x3F80 JUMP JUMPDEST JUMPDEST PUSH2 0x401B DUP3 PUSH2 0x3EA8 JUMP JUMPDEST SWAP1 POP PUSH1 0x20 DUP2 ADD SWAP1 POP SWAP2 SWAP1 POP JUMP JUMPDEST DUP3 DUP2 DUP4 CALLDATACOPY PUSH0 DUP4 DUP4 ADD MSTORE POP POP POP JUMP JUMPDEST PUSH0 PUSH2 0x4048 PUSH2 0x4043 DUP5 PUSH2 0x3FF8 JUMP JUMPDEST PUSH2 0x3FDE JUMP JUMPDEST SWAP1 POP DUP3 DUP2 MSTORE PUSH1 0x20 DUP2 ADD DUP5 DUP5 DUP5 ADD GT ISZERO PUSH2 0x4064 JUMPI PUSH2 0x4063 PUSH2 0x3F7C JUMP JUMPDEST JUMPDEST PUSH2 0x406F DUP5 DUP3 DUP6 PUSH2 0x4028 JUMP JUMPDEST POP SWAP4 SWAP3 POP POP POP JUMP JUMPDEST PUSH0 DUP3 PUSH1 0x1F DUP4 ADD SLT PUSH2 0x408B JUMPI PUSH2 0x408A PUSH2 0x3F78 JUMP JUMPDEST JUMPDEST DUP2 CALLDATALOAD PUSH2 0x409B DUP5 DUP3 PUSH1 0x20 DUP7 ADD PUSH2 0x4036 JUMP JUMPDEST SWAP2 POP POP SWAP3 SWAP2 POP POP JUMP JUMPDEST PUSH0 DUP1 PUSH0 PUSH1 0x60 DUP5 DUP7 SUB SLT ISZERO PUSH2 0x40BB JUMPI PUSH2 0x40BA PUSH2 0x3DF3 JUMP JUMPDEST JUMPDEST PUSH0 PUSH2 0x40C8 DUP7 DUP3 DUP8 ADD PUSH2 0x3F2F JUMP JUMPDEST SWAP4 POP POP PUSH1 0x20 PUSH2 0x40D9 DUP7 DUP3 DUP8 ADD PUSH2 0x3F64 JUMP JUMPDEST SWAP3 POP POP PUSH1 0x40 DUP5 ADD CALLDATALOAD PUSH8 0xFFFFFFFFFFFFFFFF DUP2 GT ISZERO PUSH2 0x40FA JUMPI PUSH2 0x40F9 PUSH2 0x3DF7 JUMP JUMPDEST JUMPDEST PUSH2 0x4106 DUP7 DUP3 DUP8 ADD PUSH2 0x4077 JUMP JUMPDEST SWAP2 POP POP SWAP3 POP SWAP3 POP SWAP3 JUMP JUMPDEST PUSH2 0x4119 DUP2 PUSH2 0x3F10 JUMP JUMPDEST DUP3 MSTORE POP POP JUMP JUMPDEST PUSH0 PUSH1 0x20 DUP3 ADD SWAP1 POP PUSH2 0x4132 PUSH0 DUP4 ADD DUP5 PUSH2 0x4110 JUMP JUMPDEST SWAP3 SWAP2 POP POP JUMP JUMPDEST PUSH0 PUSH1 0x20 DUP3 DUP5 SUB SLT ISZERO PUSH2 0x414D JUMPI PUSH2 0x414C PUSH2 0x3DF3 JUMP JUMPDEST JUMPDEST PUSH0 PUSH2 0x415A DUP5 DUP3 DUP6 ADD PUSH2 0x3F2F JUMP JUMPDEST SWAP2 POP POP SWAP3 SWAP2 POP POP JUMP JUMPDEST PUSH2 0x416C DUP2 PUSH2 0x3E1A JUMP JUMPDEST DUP3 MSTORE POP POP JUMP JUMPDEST PUSH32 0x4E487B7100000000000000000000000000000000000000000000000000000000 PUSH0 MSTORE PUSH1 0x21 PUSH1 0x4 MSTORE PUSH1 0x24 PUSH0 REVERT JUMPDEST PUSH1 0x5 DUP2 LT PUSH2 0x41B0 JUMPI PUSH2 0x41AF PUSH2 0x4172 JUMP JUMPDEST JUMPDEST POP JUMP JUMPDEST PUSH0 DUP2 SWAP1 POP PUSH2 0x41C0 DUP3 PUSH2 0x419F JUMP JUMPDEST SWAP2 SWAP1 POP JUMP JUMPDEST PUSH0 PUSH2 0x41CF DUP3 PUSH2 0x41B3 JUMP JUMPDEST SWAP1 POP SWAP2 SWAP1 POP JUMP JUMPDEST PUSH2 0x41DF DUP2 PUSH2 0x41C5 JUMP JUMPDEST DUP3 MSTORE POP POP JUMP JUMPDEST PUSH2 0x41EE DUP2 PUSH2 0x3F43 JUMP JUMPDEST DUP3 MSTORE POP POP JUMP JUMPDEST PUSH0 PUSH2 0x160 DUP3 ADD SWAP1 POP PUSH2 0x4208 PUSH0 DUP4 ADD DUP15 PUSH2 0x4110 JUMP JUMPDEST PUSH2 0x4215 PUSH1 0x20 DUP4 ADD DUP14 PUSH2 0x4163 JUMP JUMPDEST DUP2 DUP2 SUB PUSH1 0x40 DUP4 ADD MSTORE PUSH2 0x4227 DUP2 DUP13 PUSH2 0x3EB8 JUMP JUMPDEST SWAP1 POP PUSH2 0x4236 PUSH1 0x60 DUP4 ADD DUP12 PUSH2 0x4110 JUMP JUMPDEST PUSH2 0x4243 PUSH1 0x80 DUP4 ADD DUP11 PUSH2 0x4110 JUMP JUMPDEST DUP2 DUP2 SUB PUSH1 0xA0 DUP4 ADD MSTORE PUSH2 0x4255 DUP2 DUP10 PUSH2 0x3EB8 JUMP JUMPDEST SWAP1 POP PUSH2 0x4264 PUSH1 0xC0 DUP4 ADD DUP9 PUSH2 0x4110 JUMP JUMPDEST DUP2 DUP2 SUB PUSH1 0xE0 DUP4 ADD MSTORE PUSH2 0x4276 DUP2 DUP8 PUSH2 0x3EB8 JUMP JUMPDEST SWAP1 POP DUP2 DUP2 SUB PUSH2 0x100 DUP4 ADD MSTORE PUSH2 0x428B DUP2 DUP7 PUSH2 0x3EB8 JUMP JUMPDEST SWAP1 POP PUSH2 0x429B PUSH2 0x120 DUP4 ADD DUP6 PUSH2 0x41D6 JUMP JUMPDEST PUSH2 0x42A9 PUSH2 0x140 DUP4 ADD DUP5 PUSH2 0x41E5 JUMP JUMPDEST SWAP13 SWAP12 POP POP POP POP POP POP POP POP POP POP POP POP JUMP JUMPDEST PUSH0 DUP1 PUSH1 0x40 DUP4 DUP6 SUB SLT ISZERO PUSH2 0x42CF JUMPI PUSH2 0x42CE PUSH2 0x3DF3 JUMP JUMPDEST JUMPDEST PUSH0 PUSH2 0x42DC DUP6 DUP3 DUP7 ADD PUSH2 0x3F2F JUMP JUMPDEST SWAP3 POP POP PUSH1 0x20 PUSH2 0x42ED DUP6 DUP3 DUP7 ADD PUSH2 0x3F2F JUMP JUMPDEST SWAP2 POP POP SWAP3 POP SWAP3 SWAP1 POP JUMP JUMPDEST PUSH0 PUSH1 0x20 DUP3 ADD SWAP1 POP PUSH2 0x430A PUSH0 DUP4 ADD DUP5 PUSH2 0x4163 JUMP JUMPDEST SWAP3 SWAP2 POP POP JUMP JUMPDEST PUSH0 DUP2 SWAP1 POP SWAP2 SWAP1 POP JUMP JUMPDEST PUSH0 PUSH2 0x4333 PUSH2 0x432E PUSH2 0x4329 DUP5 PUSH2 0x3DFB JUMP JUMPDEST PUSH2 0x4310 JUMP JUMPDEST PUSH2 0x3DFB JUMP JUMPDEST SWAP1 POP SWAP2 SWAP1 POP JUMP JUMPDEST PUSH0 PUSH2 0x4344 DUP3 PUSH2 0x4319 JUMP JUMPDEST SWAP1 POP SWAP2 SWAP1 POP JUMP JUMPDEST PUSH0 PUSH2 0x4355 DUP3 PUSH2 0x433A JUMP JUMPDEST SWAP1 POP SWAP2 SWAP1 POP JUMP JUMPDEST PUSH2 0x4365 DUP2 PUSH2 0x434B JUMP JUMPDEST DUP3 MSTORE POP POP JUMP JUMPDEST PUSH0 PUSH1 0x20 DUP3 ADD SWAP1 POP PUSH2 0x437E PUSH0 DUP4 ADD DUP5 PUSH2 0x435C JUMP JUMPDEST SWAP3 SWAP2 POP POP JUMP JUMPDEST PUSH0 DUP1 PUSH0 PUSH1 0x60 DUP5 DUP7 SUB SLT ISZERO PUSH2 0x439B JUMPI PUSH2 0x439A PUSH2 0x3DF3 JUMP JUMPDEST JUMPDEST PUSH0 DUP5 ADD CALLDATALOAD PUSH8 0xFFFFFFFFFFFFFFFF DUP2 GT ISZERO PUSH2 0x43B8 JUMPI PUSH2 0x43B7 PUSH2 0x3DF7 JUMP JUMPDEST JUMPDEST PUSH2 0x43C4 DUP7 DUP3 DUP8 ADD PUSH2 0x4077 JUMP JUMPDEST SWAP4 POP POP PUSH1 0x20 DUP5 ADD CALLDATALOAD PUSH8 0xFFFFFFFFFFFFFFFF DUP2 GT ISZERO PUSH2 0x43E5 JUMPI PUSH2 0x43E4 PUSH2 0x3DF7 JUMP JUMPDEST JUMPDEST PUSH2 0x43F1 DUP7 DUP3 DUP8 ADD PUSH2 0x4077 JUMP JUMPDEST SWAP3 POP POP PUSH1 0x40 DUP5 ADD CALLDATALOAD PUSH8 0xFFFFFFFFFFFFFFFF DUP2 GT ISZERO PUSH2 0x4412 JUMPI PUSH2 0x4411 PUSH2 0x3DF7 JUMP JUMPDEST JUMPDEST PUSH2 0x441E DUP7 DUP3 DUP8 ADD PUSH2 0x4077 JUMP JUMPDEST SWAP2 POP POP SWAP3 POP SWAP3 POP SWAP3 JUMP JUMPDEST PUSH0 DUP1 PUSH1 0x40 DUP4 DUP6 SUB SLT ISZERO PUSH2 0x443E JUMPI PUSH2 0x443D PUSH2 0x3DF3 JUMP JUMPDEST JUMPDEST PUSH0 PUSH2 0x444B DUP6 DUP3 DUP7 ADD PUSH2 0x3E41 JUMP JUMPDEST SWAP3 POP POP PUSH1 0x20 PUSH2 0x445C DUP6 DUP3 DUP7 ADD PUSH2 0x3F64 JUMP JUMPDEST SWAP2 POP POP SWAP3 POP SWAP3 SWAP1 POP JUMP JUMPDEST PUSH0 DUP2 SWAP1 POP SWAP2 SWAP1 POP JUMP JUMPDEST PUSH2 0x4478 DUP2 PUSH2 0x4466 JUMP JUMPDEST DUP2 EQ PUSH2 0x4482 JUMPI PUSH0 DUP1 REVERT JUMPDEST POP JUMP JUMPDEST PUSH0 DUP2 CALLDATALOAD SWAP1 POP PUSH2 0x4493 DUP2 PUSH2 0x446F JUMP JUMPDEST SWAP3 SWAP2 POP POP JUMP JUMPDEST PUSH0 PUSH1 0x20 DUP3 DUP5 SUB SLT ISZERO PUSH2 0x44AE JUMPI PUSH2 0x44AD PUSH2 0x3DF3 JUMP JUMPDEST JUMPDEST PUSH0 PUSH2 0x44BB DUP5 DUP3 DUP6 ADD PUSH2 0x4485 JUMP JUMPDEST SWAP2 POP POP SWAP3 SWAP2 POP POP JUMP JUMPDEST PUSH0 DUP1 PUSH1 0x40 DUP4 DUP6 SUB SLT ISZERO PUSH2 0x44DA JUMPI PUSH2 0x44D9 PUSH2 0x3DF3 JUMP JUMPDEST JUMPDEST PUSH0 PUSH2 0x44E7 DUP6 DUP3 DUP7 ADD PUSH2 0x3E41 JUMP JUMPDEST SWAP3 POP POP PUSH1 0x20 PUSH2 0x44F8 DUP6 DUP3 DUP7 ADD PUSH2 0x3F2F JUMP JUMPDEST SWAP2 POP POP SWAP3 POP SWAP3 SWAP1 POP JUMP JUMPDEST PUSH0 PUSH1 0x20 DUP3 ADD SWAP1 POP PUSH2 0x4515 PUSH0 DUP4 ADD DUP5 PUSH2 0x41E5 JUMP JUMPDEST SWAP3 SWAP2 POP POP JUMP JUMPDEST PUSH0 DUP1 PUSH1 0x40 DUP4 DUP6 SUB SLT ISZERO PUSH2 0x4531 JUMPI PUSH2 0x4530 PUSH2 0x3DF3 JUMP JUMPDEST JUMPDEST PUSH0 PUSH2 0x453E DUP6 DUP3 DUP7 ADD PUSH2 0x3E41 JUMP JUMPDEST SWAP3 POP POP PUSH1 0x20 DUP4 ADD CALLDATALOAD PUSH8 0xFFFFFFFFFFFFFFFF DUP2 GT ISZERO PUSH2 0x455F JUMPI PUSH2 0x455E PUSH2 0x3DF7 JUMP JUMPDEST JUMPDEST PUSH2 0x456B DUP6 DUP3 DUP7 ADD PUSH2 0x4077 JUMP JUMPDEST SWAP2 POP POP SWAP3 POP SWAP3 SWAP1 POP JUMP JUMPDEST PUSH0 PUSH2 0x457F DUP3 PUSH2 0x433A JUMP JUMPDEST SWAP1 POP SWAP2 SWAP1 POP JUMP JUMPDEST PUSH2 0x458F DUP2 PUSH2 0x4575 JUMP JUMPDEST DUP3 MSTORE POP POP JUMP JUMPDEST PUSH0 PUSH1 0x20 DUP3 ADD SWAP1 POP PUSH2 0x45A8 PUSH0 DUP4 ADD DUP5 PUSH2 0x4586 JUMP JUMPDEST SWAP3 SWAP2 POP POP JUMP JUMPDEST PUSH0 PUSH8 0xFFFFFFFFFFFFFFFF DUP3 AND SWAP1 POP SWAP2 SWAP1 POP JUMP JUMPDEST PUSH2 0x45CA DUP2 PUSH2 0x45AE JUMP JUMPDEST DUP2 EQ PUSH2 0x45D4 JUMPI PUSH0 DUP1 REVERT JUMPDEST POP JUMP JUMPDEST PUSH0 DUP2 CALLDATALOAD SWAP1 POP PUSH2 0x45E5 DUP2 PUSH2 0x45C1 JUMP JUMPDEST SWAP3 SWAP2 POP POP JUMP JUMPDEST PUSH0 DUP1 PUSH0 PUSH1 0x60 DUP5 DUP7 SUB SLT ISZERO PUSH2 0x4602 JUMPI PUSH2 0x4601 PUSH2 0x3DF3 JUMP JUMPDEST JUMPDEST PUSH0 PUSH2 0x460F DUP7 DUP3 DUP8 ADD PUSH2 0x45D7 JUMP JUMPDEST SWAP4 POP POP PUSH1 0x20 PUSH2 0x4620 DUP7 DUP3 DUP8 ADD PUSH2 0x3E41 JUMP JUMPDEST SWAP3 POP POP PUSH1 0x40 PUSH2 0x4631 DUP7 DUP3 DUP8 ADD PUSH2 0x4485 JUMP JUMPDEST SWAP2 POP POP SWAP3 POP SWAP3 POP SWAP3 JUMP JUMPDEST PUSH0 DUP1 PUSH0 DUP1 PUSH0 DUP1 PUSH0 PUSH1 0xE0 DUP9 DUP11 SUB SLT ISZERO PUSH2 0x4656 JUMPI PUSH2 0x4655 PUSH2 0x3DF3 JUMP JUMPDEST JUMPDEST PUSH0 DUP9 ADD CALLDATALOAD PUSH8 0xFFFFFFFFFFFFFFFF DUP2 GT ISZERO PUSH2 0x4673 JUMPI PUSH2 0x4672 PUSH2 0x3DF7 JUMP JUMPDEST JUMPDEST PUSH2 0x467F DUP11 DUP3 DUP12 ADD PUSH2 0x4077 JUMP JUMPDEST SWAP8 POP POP PUSH1 0x20 PUSH2 0x4690 DUP11 DUP3 DUP12 ADD PUSH2 0x3F2F JUMP JUMPDEST SWAP7 POP POP PUSH1 0x40 PUSH2 0x46A1 DUP11 DUP3 DUP12 ADD PUSH2 0x3F2F JUMP JUMPDEST SWAP6 POP POP PUSH1 0x60 DUP9 ADD CALLDATALOAD PUSH8 0xFFFFFFFFFFFFFFFF DUP2 GT ISZERO PUSH2 0x46C2 JUMPI PUSH2 0x46C1 PUSH2 0x3DF7 JUMP JUMPDEST JUMPDEST PUSH2 0x46CE DUP11 DUP3 DUP12 ADD PUSH2 0x4077 JUMP JUMPDEST SWAP5 POP POP PUSH1 0x80 PUSH2 0x46DF DUP11 DUP3 DUP12 ADD PUSH2 0x3F2F JUMP JUMPDEST SWAP4 POP POP PUSH1 0xA0 DUP9 ADD CALLDATALOAD PUSH8 0xFFFFFFFFFFFFFFFF DUP2 GT ISZERO PUSH2 0x4700 JUMPI PUSH2 0x46FF PUSH2 0x3DF7 JUMP JUMPDEST JUMPDEST PUSH2 0x470C DUP11 DUP3 DUP12 ADD PUSH2 0x4077 JUMP JUMPDEST SWAP3 POP POP PUSH1 0xC0 DUP9 ADD CALLDATALOAD PUSH8 0xFFFFFFFFFFFFFFFF DUP2 GT ISZERO PUSH2 0x472D JUMPI PUSH2 0x472C PUSH2 0x3DF7 JUMP JUMPDEST JUMPDEST PUSH2 0x4739 DUP11 DUP3 DUP12 ADD PUSH2 0x4077 JUMP JUMPDEST SWAP2 POP POP SWAP3 SWAP6 SWAP9 SWAP2 SWAP5 SWAP8 POP SWAP3 SWAP6 POP JUMP JUMPDEST PUSH0 DUP1 PUSH0 PUSH1 0x60 DUP5 DUP7 SUB SLT ISZERO PUSH2 0x475F JUMPI PUSH2 0x475E PUSH2 0x3DF3 JUMP JUMPDEST JUMPDEST PUSH0 PUSH2 0x476C DUP7 DUP3 DUP8 ADD PUSH2 0x3E41 JUMP JUMPDEST SWAP4 POP POP PUSH1 0x20 DUP5 ADD CALLDATALOAD PUSH8 0xFFFFFFFFFFFFFFFF DUP2 GT ISZERO PUSH2 0x478D JUMPI PUSH2 0x478C PUSH2 0x3DF7 JUMP JUMPDEST JUMPDEST PUSH2 0x4799 DUP7 DUP3 DUP8 ADD PUSH2 0x4077 JUMP JUMPDEST SWAP3 POP POP PUSH1 0x40 DUP5 ADD CALLDATALOAD PUSH8 0xFFFFFFFFFFFFFFFF DUP2 GT ISZERO PUSH2 0x47BA JUMPI PUSH2 0x47B9 PUSH2 0x3DF7 JUMP JUMPDEST JUMPDEST PUSH2 0x47C6 DUP7 DUP3 DUP8 ADD PUSH2 0x4077 JUMP JUMPDEST SWAP2 POP POP SWAP3 POP SWAP3 POP SWAP3 JUMP JUMPDEST PUSH2 0x47D9 DUP2 PUSH2 0x3E1A JUMP JUMPDEST DUP3 MSTORE POP POP JUMP JUMPDEST PUSH2 0x47E8 DUP2 PUSH2 0x3F10 JUMP JUMPDEST DUP3 MSTORE POP POP JUMP JUMPDEST PUSH2 0x47F7 DUP2 PUSH2 0x4466 JUMP JUMPDEST DUP3 MSTORE POP POP JUMP JUMPDEST PUSH2 0x4806 DUP2 PUSH2 0x3F43 JUMP JUMPDEST DUP3 MSTORE POP POP JUMP JUMPDEST PUSH1 0x40 DUP3 ADD PUSH0 DUP3 ADD MLOAD PUSH2 0x4820 PUSH0 DUP6 ADD DUP3 PUSH2 0x47EE JUMP JUMPDEST POP PUSH1 0x20 DUP3 ADD MLOAD PUSH2 0x4833 PUSH1 0x20 DUP6 ADD DUP3 PUSH2 0x47FD JUMP JUMPDEST POP POP POP POP JUMP JUMPDEST PUSH0 DUP3 DUP3 MSTORE PUSH1 0x20 DUP3 ADD SWAP1 POP SWAP3 SWAP2 POP POP JUMP JUMPDEST PUSH0 PUSH2 0x4853 DUP3 PUSH2 0x3E80 JUMP JUMPDEST PUSH2 0x485D DUP2 DUP6 PUSH2 0x4839 JUMP JUMPDEST SWAP4 POP PUSH2 0x486D DUP2 DUP6 PUSH1 0x20 DUP7 ADD PUSH2 0x3E9A JUMP JUMPDEST PUSH2 0x4876 DUP2 PUSH2 0x3EA8 JUMP JUMPDEST DUP5 ADD SWAP2 POP POP SWAP3 SWAP2 POP POP JUMP JUMPDEST PUSH0 PUSH1 0xE0 DUP4 ADD PUSH0 DUP4 ADD MLOAD PUSH2 0x4896 PUSH0 DUP7 ADD DUP3 PUSH2 0x47D0 JUMP JUMPDEST POP PUSH1 0x20 DUP4 ADD MLOAD PUSH2 0x48A9 PUSH1 0x20 DUP7 ADD DUP3 PUSH2 0x47DF JUMP JUMPDEST POP PUSH1 0x40 DUP4 ADD MLOAD PUSH2 0x48BC PUSH1 0x40 DUP7 ADD DUP3 PUSH2 0x480C JUMP JUMPDEST POP PUSH1 0x60 DUP4 ADD MLOAD DUP5 DUP3 SUB PUSH1 0x80 DUP7 ADD MSTORE PUSH2 0x48D4 DUP3 DUP3 PUSH2 0x4849 JUMP JUMPDEST SWAP2 POP POP PUSH1 0x80 DUP4 ADD MLOAD DUP5 DUP3 SUB PUSH1 0xA0 DUP7 ADD MSTORE PUSH2 0x48EE DUP3 DUP3 PUSH2 0x4849 JUMP JUMPDEST SWAP2 POP POP PUSH1 0xA0 DUP4 ADD MLOAD DUP5 DUP3 SUB PUSH1 0xC0 DUP7 ADD MSTORE PUSH2 0x4908 DUP3 DUP3 PUSH2 0x4849 JUMP JUMPDEST SWAP2 POP POP DUP1 SWAP2 POP POP SWAP3 SWAP2 POP POP JUMP JUMPDEST PUSH0 PUSH1 0x20 DUP3 ADD SWAP1 POP DUP2 DUP2 SUB PUSH0 DUP4 ADD MSTORE PUSH2 0x492D DUP2 DUP5 PUSH2 0x4881 JUMP JUMPDEST SWAP1 POP SWAP3 SWAP2 POP POP JUMP JUMPDEST PUSH1 0x40 DUP3 ADD PUSH0 DUP3 ADD MLOAD PUSH2 0x4949 PUSH0 DUP6 ADD DUP3 PUSH2 0x47EE JUMP JUMPDEST POP PUSH1 0x20 DUP3 ADD MLOAD PUSH2 0x495C PUSH1 0x20 DUP6 ADD DUP3 PUSH2 0x47FD JUMP JUMPDEST POP POP POP POP JUMP JUMPDEST PUSH0 PUSH1 0xE0 DUP3 ADD SWAP1 POP PUSH2 0x4975 PUSH0 DUP4 ADD DUP10 PUSH2 0x4163 JUMP JUMPDEST PUSH2 0x4982 PUSH1 0x20 DUP4 ADD DUP9 PUSH2 0x4110 JUMP JUMPDEST PUSH2 0x498F PUSH1 0x40 DUP4 ADD DUP8 PUSH2 0x4935 JUMP JUMPDEST DUP2 DUP2 SUB PUSH1 0x80 DUP4 ADD MSTORE PUSH2 0x49A1 DUP2 DUP7 PUSH2 0x3EB8 JUMP JUMPDEST SWAP1 POP DUP2 DUP2 SUB PUSH1 0xA0 DUP4 ADD MSTORE PUSH2 0x49B5 DUP2 DUP6 PUSH2 0x3EB8 JUMP JUMPDEST SWAP1 POP DUP2 DUP2 SUB PUSH1 0xC0 DUP4 ADD MSTORE PUSH2 0x49C9 DUP2 DUP5 PUSH2 0x3EB8 JUMP JUMPDEST SWAP1 POP SWAP8 SWAP7 POP POP POP POP POP POP POP JUMP JUMPDEST PUSH0 DUP2 MLOAD SWAP1 POP SWAP2 SWAP1 POP JUMP JUMPDEST PUSH0 DUP3 DUP3 MSTORE PUSH1 0x20 DUP3 ADD SWAP1 POP SWAP3 SWAP2 POP POP JUMP JUMPDEST PUSH0 DUP2 SWAP1 POP PUSH1 0x20 DUP3 ADD SWAP1 POP SWAP2 SWAP1 POP JUMP JUMPDEST PUSH0 PUSH1 0x60 DUP4 ADD PUSH0 DUP4 ADD MLOAD PUSH2 0x4A14 PUSH0 DUP7 ADD DUP3 PUSH2 0x47D0 JUMP JUMPDEST POP PUSH1 0x20 DUP4 ADD MLOAD PUSH2 0x4A27 PUSH1 0x20 DUP7 ADD DUP3 PUSH2 0x47FD JUMP JUMPDEST POP PUSH1 0x40 DUP4 ADD MLOAD DUP5 DUP3 SUB PUSH1 0x40 DUP7 ADD MSTORE PUSH2 0x4A3F DUP3 DUP3 PUSH2 0x4849 JUMP JUMPDEST SWAP2 POP POP DUP1 SWAP2 POP POP SWAP3 SWAP2 POP POP JUMP JUMPDEST PUSH0 PUSH2 0x4A57 DUP4 DUP4 PUSH2 0x49FF JUMP JUMPDEST SWAP1 POP SWAP3 SWAP2 POP POP JUMP JUMPDEST PUSH0 PUSH1 0x20 DUP3 ADD SWAP1 POP SWAP2 SWAP1 POP JUMP JUMPDEST PUSH0 PUSH2 0x4A75 DUP3 PUSH2 0x49D6 JUMP JUMPDEST PUSH2 0x4A7F DUP2 DUP6 PUSH2 0x49E0 JUMP JUMPDEST SWAP4 POP DUP4 PUSH1 0x20 DUP3 MUL DUP6 ADD PUSH2 0x4A91 DUP6 PUSH2 0x49F0 JUMP JUMPDEST DUP1 PUSH0 JUMPDEST DUP6 DUP2 LT ISZERO PUSH2 0x4ACC JUMPI DUP5 DUP5 SUB DUP10 MSTORE DUP2 MLOAD PUSH2 0x4AAD DUP6 DUP3 PUSH2 0x4A4C JUMP JUMPDEST SWAP5 POP PUSH2 0x4AB8 DUP4 PUSH2 0x4A5F JUMP JUMPDEST SWAP3 POP PUSH1 0x20 DUP11 ADD SWAP10 POP POP PUSH1 0x1 DUP2 ADD SWAP1 POP PUSH2 0x4A94 JUMP JUMPDEST POP DUP3 SWAP8 POP DUP8 SWAP6 POP POP POP POP POP POP SWAP3 SWAP2 POP POP JUMP JUMPDEST PUSH2 0x4AE7 DUP2 PUSH2 0x41C5 JUMP JUMPDEST DUP3 MSTORE POP POP JUMP JUMPDEST PUSH0 PUSH2 0x1A0 DUP4 ADD PUSH0 DUP4 ADD MLOAD PUSH2 0x4B03 PUSH0 DUP7 ADD DUP3 PUSH2 0x47DF JUMP JUMPDEST POP PUSH1 0x20 DUP4 ADD MLOAD PUSH2 0x4B16 PUSH1 0x20 DUP7 ADD DUP3 PUSH2 0x47D0 JUMP JUMPDEST POP PUSH1 0x40 DUP4 ADD MLOAD DUP5 DUP3 SUB PUSH1 0x40 DUP7 ADD MSTORE PUSH2 0x4B2E DUP3 DUP3 PUSH2 0x4849 JUMP JUMPDEST SWAP2 POP POP PUSH1 0x60 DUP4 ADD MLOAD PUSH2 0x4B43 PUSH1 0x60 DUP7 ADD DUP3 PUSH2 0x47DF JUMP JUMPDEST POP PUSH1 0x80 DUP4 ADD MLOAD PUSH2 0x4B56 PUSH1 0x80 DUP7 ADD DUP3 PUSH2 0x47DF JUMP JUMPDEST POP PUSH1 0xA0 DUP4 ADD MLOAD DUP5 DUP3 SUB PUSH1 0xA0 DUP7 ADD MSTORE PUSH2 0x4B6E DUP3 DUP3 PUSH2 0x4849 JUMP JUMPDEST SWAP2 POP POP PUSH1 0xC0 DUP4 ADD MLOAD PUSH2 0x4B83 PUSH1 0xC0 DUP7 ADD DUP3 PUSH2 0x47DF JUMP JUMPDEST POP PUSH1 0xE0 DUP4 ADD MLOAD DUP5 DUP3 SUB PUSH1 0xE0 DUP7 ADD MSTORE PUSH2 0x4B9B DUP3 DUP3 PUSH2 0x4849 JUMP JUMPDEST SWAP2 POP POP PUSH2 0x100 DUP4 ADD MLOAD DUP5 DUP3 SUB PUSH2 0x100 DUP7 ADD MSTORE PUSH2 0x4BB7 DUP3 DUP3 PUSH2 0x4849 JUMP JUMPDEST SWAP2 POP POP PUSH2 0x120 DUP4 ADD MLOAD DUP5 DUP3 SUB PUSH2 0x120 DUP7 ADD MSTORE PUSH2 0x4BD3 DUP3 DUP3 PUSH2 0x4A6B JUMP JUMPDEST SWAP2 POP POP PUSH2 0x140 DUP4 ADD MLOAD DUP5 DUP3 SUB PUSH2 0x140 DUP7 ADD MSTORE PUSH2 0x4BEF DUP3 DUP3 PUSH2 0x4A6B JUMP JUMPDEST SWAP2 POP POP PUSH2 0x160 DUP4 ADD MLOAD PUSH2 0x4C06 PUSH2 0x160 DUP7 ADD DUP3 PUSH2 0x4ADE JUMP JUMPDEST POP PUSH2 0x180 DUP4 ADD MLOAD PUSH2 0x4C1B PUSH2 0x180 DUP7 ADD DUP3 PUSH2 0x47FD JUMP JUMPDEST POP DUP1 SWAP2 POP POP SWAP3 SWAP2 POP POP JUMP JUMPDEST PUSH0 PUSH1 0x20 DUP3 ADD SWAP1 POP DUP2 DUP2 SUB PUSH0 DUP4 ADD MSTORE PUSH2 0x4C3E DUP2 DUP5 PUSH2 0x4AED JUMP JUMPDEST SWAP1 POP SWAP3 SWAP2 POP POP JUMP JUMPDEST PUSH32 0x4E487B7100000000000000000000000000000000000000000000000000000000 PUSH0 MSTORE PUSH1 0x22 PUSH1 0x4 MSTORE PUSH1 0x24 PUSH0 REVERT JUMPDEST PUSH0 PUSH1 0x2 DUP3 DIV SWAP1 POP PUSH1 0x1 DUP3 AND DUP1 PUSH2 0x4C8A JUMPI PUSH1 0x7F DUP3 AND SWAP2 POP JUMPDEST PUSH1 0x20 DUP3 LT DUP2 SUB PUSH2 0x4C9D JUMPI PUSH2 0x4C9C PUSH2 0x4C46 JUMP JUMPDEST JUMPDEST POP SWAP2 SWAP1 POP JUMP JUMPDEST PUSH32 0x566572696669657220646F6573206E6F74206578697374000000000000000000 PUSH0 DUP3 ADD MSTORE POP JUMP JUMPDEST PUSH0 PUSH2 0x4CD7 PUSH1 0x17 DUP4 PUSH2 0x3E8A JUMP JUMPDEST SWAP2 POP PUSH2 0x4CE2 DUP3 PUSH2 0x4CA3 JUMP JUMPDEST PUSH1 0x20 DUP3 ADD SWAP1 POP SWAP2 SWAP1 POP JUMP JUMPDEST PUSH0 PUSH1 0x20 DUP3 ADD SWAP1 POP DUP2 DUP2 SUB PUSH0 DUP4 ADD MSTORE PUSH2 0x4D04 DUP2 PUSH2 0x4CCB JUMP JUMPDEST SWAP1 POP SWAP2 SWAP1 POP JUMP JUMPDEST PUSH32 0x4E487B7100000000000000000000000000000000000000000000000000000000 PUSH0 MSTORE PUSH1 0x32 PUSH1 0x4 MSTORE PUSH1 0x24 PUSH0 REVERT JUMPDEST PUSH32 0x5665726966696572206E6F7420617070726F76656420666F722070726F6A6563 PUSH0 DUP3 ADD MSTORE PUSH32 0x7400000000000000000000000000000000000000000000000000000000000000 PUSH1 0x20 DUP3 ADD MSTORE POP JUMP JUMPDEST PUSH0 PUSH2 0x4D92 PUSH1 0x21 DUP4 PUSH2 0x3E8A JUMP JUMPDEST SWAP2 POP PUSH2 0x4D9D DUP3 PUSH2 0x4D38 JUMP JUMPDEST PUSH1 0x40 DUP3 ADD SWAP1 POP SWAP2 SWAP1 POP JUMP JUMPDEST PUSH0 PUSH1 0x20 DUP3 ADD SWAP1 POP DUP2 DUP2 SUB PUSH0 DUP4 ADD MSTORE PUSH2 0x4DBF DUP2 PUSH2 0x4D86 JUMP JUMPDEST SWAP1 POP SWAP2 SWAP1 POP JUMP JUMPDEST PUSH0 DUP2 SWAP1 POP DUP2 PUSH0 MSTORE PUSH1 0x20 PUSH0 KECCAK256 SWAP1 POP SWAP2 SWAP1 POP JUMP JUMPDEST PUSH0 PUSH1 0x20 PUSH1 0x1F DUP4 ADD DIV SWAP1 POP SWAP2 SWAP1 POP JUMP JUMPDEST PUSH0 DUP3 DUP3 SHL SWAP1 POP SWAP3 SWAP2 POP POP JUMP JUMPDEST PUSH0 PUSH1 0x8 DUP4 MUL PUSH2 0x4E22 PUSH32 0xFFFFFFFFFFFFFFFFFFFFFFFFFFFFFFFFFFFFFFFFFFFFFFFFFFFFFFFFFFFFFFFF DUP3 PUSH2 0x4DE7 JUMP JUMPDEST PUSH2 0x4E2C DUP7 DUP4 PUSH2 0x4DE7 JUMP JUMPDEST SWAP6 POP DUP1 NOT DUP5 AND SWAP4 POP DUP1 DUP7 AND DUP5 OR SWAP3 POP POP POP SWAP4 SWAP3 POP POP POP JUMP JUMPDEST PUSH0 PUSH2 0x4E5E PUSH2 0x4E59 PUSH2 0x4E54 DUP5 PUSH2 0x3F10 JUMP JUMPDEST PUSH2 0x4310 JUMP JUMPDEST PUSH2 0x3F10 JUMP JUMPDEST SWAP1 POP SWAP2 SWAP1 POP JUMP JUMPDEST PUSH0 DUP2 SWAP1 POP SWAP2 SWAP1 POP JUMP JUMPDEST PUSH2 0x4E77 DUP4 PUSH2 0x4E44 JUMP JUMPDEST PUSH2 0x4E8B PUSH2 0x4E83 DUP3 PUSH2 0x4E65 JUMP JUMPDEST DUP5 DUP5 SLOAD PUSH2 0x4DF3 JUMP JUMPDEST DUP3 SSTORE POP POP POP POP JUMP JUMPDEST PUSH0 SWAP1 JUMP JUMPDEST PUSH2 0x4E9F PUSH2 0x4E93 JUMP JUMPDEST PUSH2 0x4EAA DUP2 DUP5 DUP5 PUSH2 0x4E6E JUMP JUMPDEST POP POP POP JUMP JUMPDEST JUMPDEST DUP2 DUP2 LT ISZERO PUSH2 0x4ECD JUMPI PUSH2 0x4EC2 PUSH0 DUP3 PUSH2 0x4E97 JUMP JUMPDEST PUSH1 0x1 DUP2 ADD SWAP1 POP PUSH2 0x4EB0 JUMP JUMPDEST POP POP JUMP JUMPDEST PUSH1 0x1F DUP3 GT ISZERO PUSH2 0x4F12 JUMPI PUSH2 0x4EE3 DUP2 PUSH2 0x4DC6 JUMP JUMPDEST PUSH2 0x4EEC DUP5 PUSH2 0x4DD8 JUMP JUMPDEST DUP2 ADD PUSH1 0x20 DUP6 LT ISZERO PUSH2 0x4EFB JUMPI DUP2 SWAP1 POP JUMPDEST PUSH2 0x4F0F PUSH2 0x4F07 DUP6 PUSH2 0x4DD8 JUMP JUMPDEST DUP4 ADD DUP3 PUSH2 0x4EAF JUMP JUMPDEST POP POP JUMPDEST POP POP POP JUMP JUMPDEST PUSH0 DUP3 DUP3 SHR SWAP1 POP SWAP3 SWAP2 POP POP JUMP JUMPDEST PUSH0 PUSH2 0x4F32 PUSH0 NOT DUP5 PUSH1 0x8 MUL PUSH2 0x4F17 JUMP JUMPDEST NOT DUP1 DUP4 AND SWAP2 POP POP SWAP3 SWAP2 POP POP JUMP JUMPDEST PUSH0 PUSH2 0x4F4A DUP4 DUP4 PUSH2 0x4F23 JUMP JUMPDEST SWAP2 POP DUP3 PUSH1 0x2 MUL DUP3 OR SWAP1 POP SWAP3 SWAP2 POP POP JUMP JUMPDEST PUSH2 0x4F63 DUP3 PUSH2 0x3E80 JUMP JUMPDEST PUSH8 0xFFFFFFFFFFFFFFFF DUP2 GT ISZERO PUSH2 0x4F7C JUMPI PUSH2 0x4F7B PUSH2 0x3F80 JUMP JUMPDEST JUMPDEST PUSH2 0x4F86 DUP3 SLOAD PUSH2 0x4C73 JUMP JUMPDEST PUSH2 0x4F91 DUP3 DUP3 DUP6 PUSH2 0x4ED1 JUMP JUMPDEST PUSH0 PUSH1 0x20 SWAP1 POP PUSH1 0x1F DUP4 GT PUSH1 0x1 DUP2 EQ PUSH2 0x4FC2 JUMPI PUSH0 DUP5 ISZERO PUSH2 0x4FB0 JUMPI DUP3 DUP8 ADD MLOAD SWAP1 POP JUMPDEST PUSH2 0x4FBA DUP6 DUP3 PUSH2 0x4F3F JUMP JUMPDEST DUP7 SSTORE POP PUSH2 0x5021 JUMP JUMPDEST PUSH1 0x1F NOT DUP5 AND PUSH2 0x4FD0 DUP7 PUSH2 0x4DC6 JUMP JUMPDEST PUSH0 JUMPDEST DUP3 DUP2 LT ISZERO PUSH2 0x4FF7 JUMPI DUP5 DUP10 ADD MLOAD DUP3 SSTORE PUSH1 0x1 DUP3 ADD SWAP2 POP PUSH1 0x20 DUP6 ADD SWAP5 POP PUSH1 0x20 DUP2 ADD SWAP1 POP PUSH2 0x4FD2 JUMP JUMPDEST DUP7 DUP4 LT ISZERO PUSH2 0x5014 JUMPI DUP5 DUP10 ADD MLOAD PUSH2 0x5010 PUSH1 0x1F DUP10 AND DUP3 PUSH2 0x4F23 JUMP JUMPDEST DUP4 SSTORE POP JUMPDEST PUSH1 0x1 PUSH1 0x2 DUP9 MUL ADD DUP9 SSTORE POP POP POP JUMPDEST POP POP POP POP POP POP JUMP JUMPDEST PUSH32 0x4E487B7100000000000000000000000000000000000000000000000000000000 PUSH0 MSTORE PUSH1 0x11 PUSH1 0x4 MSTORE PUSH1 0x24 PUSH0 REVERT JUMPDEST PUSH0 PUSH2 0x5060 DUP3 PUSH2 0x3F10 JUMP JUMPDEST SWAP2 POP PUSH32 0xFFFFFFFFFFFFFFFFFFFFFFFFFFFFFFFFFFFFFFFFFFFFFFFFFFFFFFFFFFFFFFFF DUP3 SUB PUSH2 0x5092 JUMPI PUSH2 0x5091 PUSH2 0x5029 JUMP JUMPDEST JUMPDEST PUSH1 0x1 DUP3 ADD SWAP1 POP SWAP2 SWAP1 POP JUMP JUMPDEST PUSH32 0x4F6E6C79206F776E65722063616E2076657269667920646F63756D656E747300 PUSH0 DUP3 ADD MSTORE POP JUMP JUMPDEST PUSH0 PUSH2 0x50D1 PUSH1 0x1F DUP4 PUSH2 0x3E8A JUMP JUMPDEST SWAP2 POP PUSH2 0x50DC DUP3 PUSH2 0x509D JUMP JUMPDEST PUSH1 0x20 DUP3 ADD SWAP1 POP SWAP2 SWAP1 POP JUMP JUMPDEST PUSH0 PUSH1 0x20 DUP3 ADD SWAP1 POP DUP2 DUP2 SUB PUSH0 DUP4 ADD MSTORE PUSH2 0x50FE DUP2 PUSH2 0x50C5 JUMP JUMPDEST SWAP1 POP SWAP2 SWAP1 POP JUMP JUMPDEST PUSH32 0x4F6E6C79206F776E65722063616E2063616C63756C61746520656D697373696F PUSH0 DUP3 ADD MSTORE PUSH32 0x6E73000000000000000000000000000000000000000000000000000000000000 PUSH1 0x20 DUP3 ADD MSTORE POP JUMP JUMPDEST PUSH0 PUSH2 0x515F PUSH1 0x22 DUP4 PUSH2 0x3E8A JUMP JUMPDEST SWAP2 POP PUSH2 0x516A DUP3 PUSH2 0x5105 JUMP JUMPDEST PUSH1 0x40 DUP3 ADD SWAP1 POP SWAP2 SWAP1 POP JUMP JUMPDEST PUSH0 PUSH1 0x20 DUP3 ADD SWAP1 POP DUP2 DUP2 SUB PUSH0 DUP4 ADD MSTORE PUSH2 0x518C DUP2 PUSH2 0x5153 JUMP JUMPDEST SWAP1 POP SWAP2 SWAP1 POP JUMP JUMPDEST PUSH0 DUP2 MLOAD SWAP1 POP PUSH2 0x51A1 DUP2 PUSH2 0x446F JUMP JUMPDEST SWAP3 SWAP2 POP POP JUMP JUMPDEST PUSH0 PUSH1 0x20 DUP3 DUP5 SUB SLT ISZERO PUSH2 0x51BC JUMPI PUSH2 0x51BB PUSH2 0x3DF3 JUMP JUMPDEST JUMPDEST PUSH0 PUSH2 0x51C9 DUP5 DUP3 DUP6 ADD PUSH2 0x5193 JUMP JUMPDEST SWAP2 POP POP SWAP3 SWAP2 POP POP JUMP JUMPDEST PUSH0 PUSH2 0x51DC DUP3 PUSH2 0x3F10 JUMP JUMPDEST SWAP2 POP PUSH2 0x51E7 DUP4 PUSH2 0x3F10 JUMP JUMPDEST SWAP3 POP DUP3 DUP3 MUL PUSH2 0x51F5 DUP2 PUSH2 0x3F10 JUMP JUMPDEST SWAP2 POP DUP3 DUP3 DIV DUP5 EQ DUP4 ISZERO OR PUSH2 0x520C JUMPI PUSH2 0x520B PUSH2 0x5029 JUMP JUMPDEST JUMPDEST POP SWAP3 SWAP2 POP POP JUMP JUMPDEST PUSH0 DUP2 MLOAD SWAP1 POP PUSH2 0x5221 DUP2 PUSH2 0x3F19 JUMP JUMPDEST SWAP3 SWAP2 POP POP JUMP JUMPDEST PUSH0 PUSH1 0x20 DUP3 DUP5 SUB SLT ISZERO PUSH2 0x523C JUMPI PUSH2 0x523B PUSH2 0x3DF3 JUMP JUMPDEST JUMPDEST PUSH0 PUSH2 0x5249 DUP5 DUP3 DUP6 ADD PUSH2 0x5213 JUMP JUMPDEST SWAP2 POP POP SWAP3 SWAP2 POP POP JUMP JUMPDEST PUSH32 0x4E487B7100000000000000000000000000000000000000000000000000000000 PUSH0 MSTORE PUSH1 0x12 PUSH1 0x4 MSTORE PUSH1 0x24 PUSH0 REVERT JUMPDEST PUSH0 PUSH2 0x5289 DUP3 PUSH2 0x3F10 JUMP JUMPDEST SWAP2 POP PUSH2 0x5294 DUP4 PUSH2 0x3F10 JUMP JUMPDEST SWAP3 POP DUP3 PUSH2 0x52A4 JUMPI PUSH2 0x52A3 PUSH2 0x5252 JUMP JUMPDEST JUMPDEST DUP3 DUP3 MOD SWAP1 POP SWAP3 SWAP2 POP POP JUMP JUMPDEST PUSH0 PUSH2 0x52B9 DUP3 PUSH2 0x3F10 JUMP JUMPDEST SWAP2 POP PUSH2 0x52C4 DUP4 PUSH2 0x3F10 JUMP JUMPDEST SWAP3 POP DUP3 PUSH2 0x52D4 JUMPI PUSH2 0x52D3 PUSH2 0x5252 JUMP JUMPDEST JUMPDEST DUP3 DUP3 DIV SWAP1 POP SWAP3 SWAP2 POP POP JUMP JUMPDEST PUSH32 0x4F6E6C79206F776E65722063616E20616464206D6574686F646F6C6F67696573 PUSH0 DUP3 ADD MSTORE POP JUMP JUMPDEST PUSH0 PUSH2 0x5313 PUSH1 0x20 DUP4 PUSH2 0x3E8A JUMP JUMPDEST SWAP2 POP PUSH2 0x531E DUP3 PUSH2 0x52DF JUMP JUMPDEST PUSH1 0x20 DUP3 ADD SWAP1 POP SWAP2 SWAP1 POP JUMP JUMPDEST PUSH0 PUSH1 0x20 DUP3 ADD SWAP1 POP DUP2 DUP2 SUB PUSH0 DUP4 ADD MSTORE PUSH2 0x5340 DUP2 PUSH2 0x5307 JUMP JUMPDEST SWAP1 POP SWAP2 SWAP1 POP JUMP JUMPDEST PUSH2 0x5350 DUP2 PUSH2 0x45AE JUMP JUMPDEST DUP3 MSTORE POP POP JUMP JUMPDEST PUSH2 0x535F DUP2 PUSH2 0x4466 JUMP JUMPDEST DUP3 MSTORE POP POP JUMP JUMPDEST PUSH0 PUSH1 0x60 DUP3 ADD SWAP1 POP PUSH2 0x5378 PUSH0 DUP4 ADD DUP7 PUSH2 0x5347 JUMP JUMPDEST PUSH2 0x5385 PUSH1 0x20 DUP4 ADD DUP6 PUSH2 0x4163 JUMP JUMPDEST PUSH2 0x5392 PUSH1 0x40 DUP4 ADD DUP5 PUSH2 0x5356 JUMP JUMPDEST SWAP5 SWAP4 POP POP POP POP JUMP JUMPDEST PUSH32 0x4F6E6C79206F776E65722063616E2072656D6F7665206D6574686F646F6C6F67 PUSH0 DUP3 ADD MSTORE PUSH32 0x6965730000000000000000000000000000000000000000000000000000000000 PUSH1 0x20 DUP3 ADD MSTORE POP JUMP JUMPDEST PUSH0 PUSH2 0x53F4 PUSH1 0x23 DUP4 PUSH2 0x3E8A JUMP JUMPDEST SWAP2 POP PUSH2 0x53FF DUP3 PUSH2 0x539A JUMP JUMPDEST PUSH1 0x40 DUP3 ADD SWAP1 POP SWAP2 SWAP1 POP JUMP JUMPDEST PUSH0 PUSH1 0x20 DUP3 ADD SWAP1 POP DUP2 DUP2 SUB PUSH0 DUP4 ADD MSTORE PUSH2 0x5421 DUP2 PUSH2 0x53E8 JUMP JUMPDEST SWAP1 POP SWAP2 SWAP1 POP JUMP JUMPDEST PUSH0 DUP2 SWAP1 POP SWAP3 SWAP2 POP POP JUMP JUMPDEST PUSH0 DUP2 SWAP1 POP DUP2 PUSH0 MSTORE PUSH1 0x20 PUSH0 KECCAK256 SWAP1 POP SWAP2 SWAP1 POP JUMP JUMPDEST PUSH0 DUP2 SLOAD PUSH2 0x5450 DUP2 PUSH2 0x4C73 JUMP JUMPDEST PUSH2 0x545A DUP2 DUP7 PUSH2 0x5428 JUMP JUMPDEST SWAP5 POP PUSH1 0x1 DUP3 AND PUSH0 DUP2 EQ PUSH2 0x5474 JUMPI PUSH1 0x1 DUP2 EQ PUSH2 0x5489 JUMPI PUSH2 0x54BB JUMP JUMPDEST PUSH1 0xFF NOT DUP4 AND DUP7 MSTORE DUP2 ISZERO ISZERO DUP3 MUL DUP7 ADD SWAP4 POP PUSH2 0x54BB JUMP JUMPDEST PUSH2 0x5492 DUP6 PUSH2 0x5432 JUMP JUMPDEST PUSH0 JUMPDEST DUP4 DUP2 LT ISZERO PUSH2 0x54B3 JUMPI DUP2 SLOAD DUP2 DUP10 ADD MSTORE PUSH1 0x1 DUP3 ADD SWAP2 POP PUSH1 0x20 DUP2 ADD SWAP1 POP PUSH2 0x5494 JUMP JUMPDEST DUP4 DUP9 ADD SWAP6 POP POP POP JUMPDEST POP POP POP SWAP3 SWAP2 POP POP JUMP JUMPDEST PUSH0 PUSH2 0x54CF DUP3 DUP5 PUSH2 0x5444 JUMP JUMPDEST SWAP2 POP DUP2 SWAP1 POP SWAP3 SWAP2 POP POP JUMP JUMPDEST PUSH32 0x55736572206D757374206D616B65207468656D73656C76657320612070726F70 PUSH0 DUP3 ADD MSTORE PUSH32 0x6F6E656E74000000000000000000000000000000000000000000000000000000 PUSH1 0x20 DUP3 ADD MSTORE POP JUMP JUMPDEST PUSH0 PUSH2 0x5534 PUSH1 0x25 DUP4 PUSH2 0x3E8A JUMP JUMPDEST SWAP2 POP PUSH2 0x553F DUP3 PUSH2 0x54DA JUMP JUMPDEST PUSH1 0x40 DUP3 ADD SWAP1 POP SWAP2 SWAP1 POP JUMP JUMPDEST PUSH0 PUSH1 0x20 DUP3 ADD SWAP1 POP DUP2 DUP2 SUB PUSH0 DUP4 ADD MSTORE PUSH2 0x5561 DUP2 PUSH2 0x5528 JUMP JUMPDEST SWAP1 POP SWAP2 SWAP1 POP JUMP JUMPDEST PUSH0 PUSH2 0x5572 DUP3 PUSH2 0x3F10 JUMP JUMPDEST SWAP2 POP PUSH2 0x557D DUP4 PUSH2 0x3F10 JUMP JUMPDEST SWAP3 POP DUP3 DUP3 SUB SWAP1 POP DUP2 DUP2 GT ISZERO PUSH2 0x5595 JUMPI PUSH2 0x5594 PUSH2 0x5029 JUMP JUMPDEST JUMPDEST SWAP3 SWAP2 POP POP JUMP JUMPDEST PUSH32 0x4F6E6C79206F776E65722063616E20617574686F726973652076657269666965 PUSH0 DUP3 ADD MSTORE PUSH32 0x7273000000000000000000000000000000000000000000000000000000000000 PUSH1 0x20 DUP3 ADD MSTORE POP JUMP JUMPDEST PUSH0 PUSH2 0x55F5 PUSH1 0x22 DUP4 PUSH2 0x3E8A JUMP JUMPDEST SWAP2 POP PUSH2 0x5600 DUP3 PUSH2 0x559B JUMP JUMPDEST PUSH1 0x40 DUP3 ADD SWAP1 POP SWAP2 SWAP1 POP JUMP JUMPDEST PUSH0 PUSH1 0x20 DUP3 ADD SWAP1 POP DUP2 DUP2 SUB PUSH0 DUP4 ADD MSTORE PUSH2 0x5622 DUP2 PUSH2 0x55E9 JUMP JUMPDEST SWAP1 POP SWAP2 SWAP1 POP JUMP JUMPDEST PUSH32 0x4F6E6C79206F776E65722063616E2072656D6F76652076657269666965727300 PUSH0 DUP3 ADD MSTORE POP JUMP JUMPDEST PUSH0 PUSH2 0x565D PUSH1 0x1F DUP4 PUSH2 0x3E8A JUMP JUMPDEST SWAP2 POP PUSH2 0x5668 DUP3 PUSH2 0x5629 JUMP JUMPDEST PUSH1 0x20 DUP3 ADD SWAP1 POP SWAP2 SWAP1 POP JUMP JUMPDEST PUSH0 PUSH1 0x20 DUP3 ADD SWAP1 POP DUP2 DUP2 SUB PUSH0 DUP4 ADD MSTORE PUSH2 0x568A DUP2 PUSH2 0x5651 JUMP JUMPDEST SWAP1 POP SWAP2 SWAP1 POP JUMP JUMPDEST PUSH0 PUSH2 0x569B DUP3 PUSH2 0x3F10 JUMP JUMPDEST SWAP2 POP PUSH2 0x56A6 DUP4 PUSH2 0x3F10 JUMP JUMPDEST SWAP3 POP DUP3 DUP3 ADD SWAP1 POP DUP1 DUP3 GT ISZERO PUSH2 0x56BE JUMPI PUSH2 0x56BD PUSH2 0x5029 JUMP JUMPDEST JUMPDEST SWAP3 SWAP2 POP POP JUMP JUMPDEST PUSH32 0x4E487B7100000000000000000000000000000000000000000000000000000000 PUSH0 MSTORE PUSH1 0x31 PUSH1 0x4 MSTORE PUSH1 0x24 PUSH0 REVERT INVALID PUSH1 0x80 PUSH1 0x40 MSTORE PUSH1 0x1 PUSH1 0x4 SSTORE CALLVALUE DUP1 ISZERO PUSH2 0x14 JUMPI PUSH0 DUP1 REVERT JUMPDEST POP CALLER DUP1 PUSH0 DUP1 PUSH20 0xFFFFFFFFFFFFFFFFFFFFFFFFFFFFFFFFFFFFFFFF AND DUP3 PUSH20 0xFFFFFFFFFFFFFFFFFFFFFFFFFFFFFFFFFFFFFFFF AND SUB PUSH2 0x86 JUMPI PUSH1 0x40 MLOAD PUSH32 0x8C379A000000000000000000000000000000000000000000000000000000000 DUP2 MSTORE PUSH1 0x4 ADD PUSH2 0x7D SWAP1 PUSH2 0x3B1 JUMP JUMPDEST PUSH1 0x40 MLOAD DUP1 SWAP2 SUB SWAP1 REVERT JUMPDEST DUP2 PUSH1 0x6 PUSH0 PUSH2 0x100 EXP DUP2 SLOAD DUP2 PUSH20 0xFFFFFFFFFFFFFFFFFFFFFFFFFFFFFFFFFFFFFFFF MUL NOT AND SWAP1 DUP4 PUSH20 0xFFFFFFFFFFFFFFFFFFFFFFFFFFFFFFFFFFFFFFFF AND MUL OR SWAP1 SSTORE POP PUSH0 PUSH20 0xFFFFFFFFFFFFFFFFFFFFFFFFFFFFFFFFFFFFFFFF AND DUP2 PUSH20 0xFFFFFFFFFFFFFFFFFFFFFFFFFFFFFFFFFFFFFFFF AND EQ PUSH2 0x109 JUMPI PUSH2 0x108 DUP2 PUSH2 0x1A5 PUSH1 0x20 SHL PUSH1 0x20 SHR JUMP JUMPDEST JUMPDEST POP POP POP PUSH2 0x12F PUSH20 0x779877A7B0D9E8603169DDBD7836E478B4624789 PUSH2 0x2D1 PUSH1 0x20 SHL PUSH1 0x20 SHR JUMP JUMPDEST PUSH2 0x152 PUSH20 0x6090149792DAAEE9D1D568C9F9A6F6B46AA29EFD PUSH2 0x314 PUSH1 0x20 SHL PUSH1 0x20 SHR JUMP JUMPDEST PUSH32 0x6361393833363663633733313439353762386330313263373266303561656562 PUSH1 0x9 DUP2 SWAP1 SSTORE POP PUSH1 0xA PUSH8 0xDE0B6B3A7640000 PUSH1 0x1 PUSH2 0x190 SWAP2 SWAP1 PUSH2 0x405 JUMP JUMPDEST PUSH2 0x19A SWAP2 SWAP1 PUSH2 0x473 JUMP JUMPDEST PUSH1 0xA DUP2 SWAP1 SSTORE POP PUSH2 0x50B JUMP JUMPDEST CALLER PUSH20 0xFFFFFFFFFFFFFFFFFFFFFFFFFFFFFFFFFFFFFFFF AND DUP2 PUSH20 0xFFFFFFFFFFFFFFFFFFFFFFFFFFFFFFFFFFFFFFFF AND SUB PUSH2 0x213 JUMPI PUSH1 0x40 MLOAD PUSH32 0x8C379A000000000000000000000000000000000000000000000000000000000 DUP2 MSTORE PUSH1 0x4 ADD PUSH2 0x20A SWAP1 PUSH2 0x4ED JUMP JUMPDEST PUSH1 0x40 MLOAD DUP1 SWAP2 SUB SWAP1 REVERT JUMPDEST DUP1 PUSH1 0x7 PUSH0 PUSH2 0x100 EXP DUP2 SLOAD DUP2 PUSH20 0xFFFFFFFFFFFFFFFFFFFFFFFFFFFFFFFFFFFFFFFF MUL NOT AND SWAP1 DUP4 PUSH20 0xFFFFFFFFFFFFFFFFFFFFFFFFFFFFFFFFFFFFFFFF AND MUL OR SWAP1 SSTORE POP DUP1 PUSH20 0xFFFFFFFFFFFFFFFFFFFFFFFFFFFFFFFFFFFFFFFF AND PUSH1 0x6 PUSH0 SWAP1 SLOAD SWAP1 PUSH2 0x100 EXP SWAP1 DIV PUSH20 0xFFFFFFFFFFFFFFFFFFFFFFFFFFFFFFFFFFFFFFFF AND PUSH20 0xFFFFFFFFFFFFFFFFFFFFFFFFFFFFFFFFFFFFFFFF AND PUSH32 0xED8889F560326EB138920D842192F0EB3DD22B4F139C87A2C57538E05BAE1278 PUSH1 0x40 MLOAD PUSH1 0x40 MLOAD DUP1 SWAP2 SUB SWAP1 LOG3 POP JUMP JUMPDEST DUP1 PUSH1 0x2 PUSH0 PUSH2 0x100 EXP DUP2 SLOAD DUP2 PUSH20 0xFFFFFFFFFFFFFFFFFFFFFFFFFFFFFFFFFFFFFFFF MUL NOT AND SWAP1 DUP4 PUSH20 0xFFFFFFFFFFFFFFFFFFFFFFFFFFFFFFFFFFFFFFFF AND MUL OR SWAP1 SSTORE POP POP JUMP JUMPDEST DUP1 PUSH1 0x3 PUSH0 PUSH2 0x100 EXP DUP2 SLOAD DUP2 PUSH20 0xFFFFFFFFFFFFFFFFFFFFFFFFFFFFFFFFFFFFFFFF MUL NOT AND SWAP1 DUP4 PUSH20 0xFFFFFFFFFFFFFFFFFFFFFFFFFFFFFFFFFFFFFFFF AND MUL OR SWAP1 SSTORE POP POP JUMP JUMPDEST PUSH0 DUP3 DUP3 MSTORE PUSH1 0x20 DUP3 ADD SWAP1 POP SWAP3 SWAP2 POP POP JUMP JUMPDEST PUSH32 0x43616E6E6F7420736574206F776E657220746F207A65726F0000000000000000 PUSH0 DUP3 ADD MSTORE POP JUMP JUMPDEST PUSH0 PUSH2 0x39B PUSH1 0x18 DUP4 PUSH2 0x357 JUMP JUMPDEST SWAP2 POP PUSH2 0x3A6 DUP3 PUSH2 0x367 JUMP JUMPDEST PUSH1 0x20 DUP3 ADD SWAP1 POP SWAP2 SWAP1 POP JUMP JUMPDEST PUSH0 PUSH1 0x20 DUP3 ADD SWAP1 POP DUP2 DUP2 SUB PUSH0 DUP4 ADD MSTORE PUSH2 0x3C8 DUP2 PUSH2 0x38F JUMP JUMPDEST SWAP1 POP SWAP2 SWAP1 POP JUMP JUMPDEST PUSH0 DUP2 SWAP1 POP SWAP2 SWAP1 POP JUMP JUMPDEST PUSH32 0x4E487B7100000000000000000000000000000000000000000000000000000000 PUSH0 MSTORE PUSH1 0x11 PUSH1 0x4 MSTORE PUSH1 0x24 PUSH0 REVERT JUMPDEST PUSH0 PUSH2 0x40F DUP3 PUSH2 0x3CF JUMP JUMPDEST SWAP2 POP PUSH2 0x41A DUP4 PUSH2 0x3CF JUMP JUMPDEST SWAP3 POP DUP3 DUP3 MUL PUSH2 0x428 DUP2 PUSH2 0x3CF JUMP JUMPDEST SWAP2 POP DUP3 DUP3 DIV DUP5 EQ DUP4 ISZERO OR PUSH2 0x43F JUMPI PUSH2 0x43E PUSH2 0x3D8 JUMP JUMPDEST JUMPDEST POP SWAP3 SWAP2 POP POP JUMP JUMPDEST PUSH32 0x4E487B7100000000000000000000000000000000000000000000000000000000 PUSH0 MSTORE PUSH1 0x12 PUSH1 0x4 MSTORE PUSH1 0x24 PUSH0 REVERT JUMPDEST PUSH0 PUSH2 0x47D DUP3 PUSH2 0x3CF JUMP JUMPDEST SWAP2 POP PUSH2 0x488 DUP4 PUSH2 0x3CF JUMP JUMPDEST SWAP3 POP DUP3 PUSH2 0x498 JUMPI PUSH2 0x497 PUSH2 0x446 JUMP JUMPDEST JUMPDEST DUP3 DUP3 DIV SWAP1 POP SWAP3 SWAP2 POP POP JUMP JUMPDEST PUSH32 0x43616E6E6F74207472616E7366657220746F2073656C66000000000000000000 PUSH0 DUP3 ADD MSTORE POP JUMP JUMPDEST PUSH0 PUSH2 0x4D7 PUSH1 0x17 DUP4 PUSH2 0x357 JUMP JUMPDEST SWAP2 POP PUSH2 0x4E2 DUP3 PUSH2 0x4A3 JUMP JUMPDEST PUSH1 0x20 DUP3 ADD SWAP1 POP SWAP2 SWAP1 POP JUMP JUMPDEST PUSH0 PUSH1 0x20 DUP3 ADD SWAP1 POP DUP2 DUP2 SUB PUSH0 DUP4 ADD MSTORE PUSH2 0x504 DUP2 PUSH2 0x4CB JUMP JUMPDEST SWAP1 POP SWAP2 SWAP1 POP JUMP JUMPDEST PUSH2 0x1E11 DUP1 PUSH2 0x518 PUSH0 CODECOPY PUSH0 RETURN INVALID PUSH1 0x80 PUSH1 0x40 MSTORE CALLVALUE DUP1 ISZERO PUSH2 0xF JUMPI PUSH0 DUP1 REVERT JUMPDEST POP PUSH1 0x4 CALLDATASIZE LT PUSH2 0x7B JUMPI PUSH0 CALLDATALOAD PUSH1 0xE0 SHR DUP1 PUSH4 0x8DA5CB5B GT PUSH2 0x59 JUMPI DUP1 PUSH4 0x8DA5CB5B EQ PUSH2 0xD5 JUMPI DUP1 PUSH4 0x8DC654A2 EQ PUSH2 0xF3 JUMPI DUP1 PUSH4 0xC618A1E4 EQ PUSH2 0xFD JUMPI DUP1 PUSH4 0xF2FDE38B EQ PUSH2 0x11B JUMPI PUSH2 0x7B JUMP JUMPDEST DUP1 PUSH4 0x2ADB9E3C EQ PUSH2 0x7F JUMPI DUP1 PUSH4 0x4357855E EQ PUSH2 0xAF JUMPI DUP1 PUSH4 0x79BA5097 EQ PUSH2 0xCB JUMPI JUMPDEST PUSH0 DUP1 REVERT JUMPDEST PUSH2 0x99 PUSH1 0x4 DUP1 CALLDATASIZE SUB DUP2 ADD SWAP1 PUSH2 0x94 SWAP2 SWAP1 PUSH2 0x1305 JUMP JUMPDEST PUSH2 0x137 JUMP JUMPDEST PUSH1 0x40 MLOAD PUSH2 0xA6 SWAP2 SWAP1 PUSH2 0x1348 JUMP JUMPDEST PUSH1 0x40 MLOAD DUP1 SWAP2 SUB SWAP1 RETURN JUMPDEST PUSH2 0xC9 PUSH1 0x4 DUP1 CALLDATASIZE SUB DUP2 ADD SWAP1 PUSH2 0xC4 SWAP2 SWAP1 PUSH2 0x138B JUMP JUMPDEST PUSH2 0x1D4 JUMP JUMPDEST STOP JUMPDEST PUSH2 0xD3 PUSH2 0x317 JUMP JUMPDEST STOP JUMPDEST PUSH2 0xDD PUSH2 0x4A8 JUMP JUMPDEST PUSH1 0x40 MLOAD PUSH2 0xEA SWAP2 SWAP1 PUSH2 0x1408 JUMP JUMPDEST PUSH1 0x40 MLOAD DUP1 SWAP2 SUB SWAP1 RETURN JUMPDEST PUSH2 0xFB PUSH2 0x4D0 JUMP JUMPDEST STOP JUMPDEST PUSH2 0x105 PUSH2 0x617 JUMP JUMPDEST PUSH1 0x40 MLOAD PUSH2 0x112 SWAP2 SWAP1 PUSH2 0x1430 JUMP JUMPDEST PUSH1 0x40 MLOAD DUP1 SWAP2 SUB SWAP1 RETURN JUMPDEST PUSH2 0x135 PUSH1 0x4 DUP1 CALLDATASIZE SUB DUP2 ADD SWAP1 PUSH2 0x130 SWAP2 SWAP1 PUSH2 0x1473 JUMP JUMPDEST PUSH2 0x61D JUMP JUMPDEST STOP JUMPDEST PUSH0 DUP1 PUSH2 0x14D PUSH1 0x9 SLOAD ADDRESS PUSH4 0x4357855E PUSH1 0xE0 SHL PUSH2 0x631 JUMP JUMPDEST SWAP1 POP PUSH2 0x1C0 PUSH1 0x40 MLOAD DUP1 PUSH1 0x40 ADD PUSH1 0x40 MSTORE DUP1 PUSH1 0x3 DUP2 MSTORE PUSH1 0x20 ADD PUSH32 0x6765740000000000000000000000000000000000000000000000000000000000 DUP2 MSTORE POP PUSH2 0x191 DUP6 PUSH2 0x662 JUMP JUMPDEST PUSH1 0x40 MLOAD PUSH1 0x20 ADD PUSH2 0x1A1 SWAP2 SWAP1 PUSH2 0x1516 JUMP JUMPDEST PUSH1 0x40 MLOAD PUSH1 0x20 DUP2 DUP4 SUB SUB DUP2 MSTORE SWAP1 PUSH1 0x40 MSTORE DUP4 PUSH2 0x72C SWAP1 SWAP3 SWAP2 SWAP1 PUSH4 0xFFFFFFFF AND JUMP JUMPDEST PUSH2 0x1CC DUP2 PUSH1 0xA SLOAD PUSH2 0x75F JUMP JUMPDEST SWAP2 POP POP SWAP2 SWAP1 POP JUMP JUMPDEST DUP2 PUSH1 0x5 PUSH0 DUP3 DUP2 MSTORE PUSH1 0x20 ADD SWAP1 DUP2 MSTORE PUSH1 0x20 ADD PUSH0 KECCAK256 PUSH0 SWAP1 SLOAD SWAP1 PUSH2 0x100 EXP SWAP1 DIV PUSH20 0xFFFFFFFFFFFFFFFFFFFFFFFFFFFFFFFFFFFFFFFF AND PUSH20 0xFFFFFFFFFFFFFFFFFFFFFFFFFFFFFFFFFFFFFFFF AND CALLER PUSH20 0xFFFFFFFFFFFFFFFFFFFFFFFFFFFFFFFFFFFFFFFF AND EQ PUSH2 0x273 JUMPI PUSH1 0x40 MLOAD PUSH32 0x8C379A000000000000000000000000000000000000000000000000000000000 DUP2 MSTORE PUSH1 0x4 ADD PUSH2 0x26A SWAP1 PUSH2 0x15BB JUMP JUMPDEST PUSH1 0x40 MLOAD DUP1 SWAP2 SUB SWAP1 REVERT JUMPDEST PUSH1 0x5 PUSH0 DUP3 DUP2 MSTORE PUSH1 0x20 ADD SWAP1 DUP2 MSTORE PUSH1 0x20 ADD PUSH0 KECCAK256 PUSH0 PUSH2 0x100 EXP DUP2 SLOAD SWAP1 PUSH20 0xFFFFFFFFFFFFFFFFFFFFFFFFFFFFFFFFFFFFFFFF MUL NOT AND SWAP1 SSTORE DUP1 PUSH32 0x7CC135E0CEBB02C3480AE5D74D377283180A2601F8F644EDF7987B009316C63A PUSH1 0x40 MLOAD PUSH1 0x40 MLOAD DUP1 SWAP2 SUB SWAP1 LOG2 DUP3 PUSH32 0x673B38182859A514D734BDFCB49D3A05C4A641DEC9311D9894C9717BCB79AF76 DUP4 PUSH1 0x40 MLOAD PUSH2 0x303 SWAP2 SWAP1 PUSH2 0x1430 JUMP JUMPDEST PUSH1 0x40 MLOAD DUP1 SWAP2 SUB SWAP1 LOG2 DUP2 PUSH1 0x8 DUP2 SWAP1 SSTORE POP POP POP POP JUMP JUMPDEST PUSH1 0x7 PUSH0 SWAP1 SLOAD SWAP1 PUSH2 0x100 EXP SWAP1 DIV PUSH20 0xFFFFFFFFFFFFFFFFFFFFFFFFFFFFFFFFFFFFFFFF AND PUSH20 0xFFFFFFFFFFFFFFFFFFFFFFFFFFFFFFFFFFFFFFFF AND CALLER PUSH20 0xFFFFFFFFFFFFFFFFFFFFFFFFFFFFFFFFFFFFFFFF AND EQ PUSH2 0x3A6 JUMPI PUSH1 0x40 MLOAD PUSH32 0x8C379A000000000000000000000000000000000000000000000000000000000 DUP2 MSTORE PUSH1 0x4 ADD PUSH2 0x39D SWAP1 PUSH2 0x1623 JUMP JUMPDEST PUSH1 0x40 MLOAD DUP1 SWAP2 SUB SWAP1 REVERT JUMPDEST PUSH0 PUSH1 0x6 PUSH0 SWAP1 SLOAD SWAP1 PUSH2 0x100 EXP SWAP1 DIV PUSH20 0xFFFFFFFFFFFFFFFFFFFFFFFFFFFFFFFFFFFFFFFF AND SWAP1 POP CALLER PUSH1 0x6 PUSH0 PUSH2 0x100 EXP DUP2 SLOAD DUP2 PUSH20 0xFFFFFFFFFFFFFFFFFFFFFFFFFFFFFFFFFFFFFFFF MUL NOT AND SWAP1 DUP4 PUSH20 0xFFFFFFFFFFFFFFFFFFFFFFFFFFFFFFFFFFFFFFFF AND MUL OR SWAP1 SSTORE POP PUSH0 PUSH1 0x7 PUSH0 PUSH2 0x100 EXP DUP2 SLOAD DUP2 PUSH20 0xFFFFFFFFFFFFFFFFFFFFFFFFFFFFFFFFFFFFFFFF MUL NOT AND SWAP1 DUP4 PUSH20 0xFFFFFFFFFFFFFFFFFFFFFFFFFFFFFFFFFFFFFFFF AND MUL OR SWAP1 SSTORE POP CALLER PUSH20 0xFFFFFFFFFFFFFFFFFFFFFFFFFFFFFFFFFFFFFFFF AND DUP2 PUSH20 0xFFFFFFFFFFFFFFFFFFFFFFFFFFFFFFFFFFFFFFFF AND PUSH32 0x8BE0079C531659141344CD1FD0A4F28419497F9722A3DAAFE3B4186F6B6457E0 PUSH1 0x40 MLOAD PUSH1 0x40 MLOAD DUP1 SWAP2 SUB SWAP1 LOG3 POP JUMP JUMPDEST PUSH0 PUSH1 0x6 PUSH0 SWAP1 SLOAD SWAP1 PUSH2 0x100 EXP SWAP1 DIV PUSH20 0xFFFFFFFFFFFFFFFFFFFFFFFFFFFFFFFFFFFFFFFF AND SWAP1 POP SWAP1 JUMP JUMPDEST PUSH2 0x4D8 PUSH2 0x794 JUMP JUMPDEST PUSH0 PUSH2 0x4E1 PUSH2 0x825 JUMP JUMPDEST SWAP1 POP DUP1 PUSH20 0xFFFFFFFFFFFFFFFFFFFFFFFFFFFFFFFFFFFFFFFF AND PUSH4 0xA9059CBB CALLER DUP4 PUSH20 0xFFFFFFFFFFFFFFFFFFFFFFFFFFFFFFFFFFFFFFFF AND PUSH4 0x70A08231 ADDRESS PUSH1 0x40 MLOAD DUP3 PUSH4 0xFFFFFFFF AND PUSH1 0xE0 SHL DUP2 MSTORE PUSH1 0x4 ADD PUSH2 0x539 SWAP2 SWAP1 PUSH2 0x1408 JUMP JUMPDEST PUSH1 0x20 PUSH1 0x40 MLOAD DUP1 DUP4 SUB DUP2 DUP7 GAS STATICCALL ISZERO DUP1 ISZERO PUSH2 0x554 JUMPI RETURNDATASIZE PUSH0 DUP1 RETURNDATACOPY RETURNDATASIZE PUSH0 REVERT JUMPDEST POP POP POP POP PUSH1 0x40 MLOAD RETURNDATASIZE PUSH1 0x1F NOT PUSH1 0x1F DUP3 ADD AND DUP3 ADD DUP1 PUSH1 0x40 MSTORE POP DUP2 ADD SWAP1 PUSH2 0x578 SWAP2 SWAP1 PUSH2 0x1655 JUMP JUMPDEST PUSH1 0x40 MLOAD DUP4 PUSH4 0xFFFFFFFF AND PUSH1 0xE0 SHL DUP2 MSTORE PUSH1 0x4 ADD PUSH2 0x595 SWAP3 SWAP2 SWAP1 PUSH2 0x1680 JUMP JUMPDEST PUSH1 0x20 PUSH1 0x40 MLOAD DUP1 DUP4 SUB DUP2 PUSH0 DUP8 GAS CALL ISZERO DUP1 ISZERO PUSH2 0x5B1 JUMPI RETURNDATASIZE PUSH0 DUP1 RETURNDATACOPY RETURNDATASIZE PUSH0 REVERT JUMPDEST POP POP POP POP PUSH1 0x40 MLOAD RETURNDATASIZE PUSH1 0x1F NOT PUSH1 0x1F DUP3 ADD AND DUP3 ADD DUP1 PUSH1 0x40 MSTORE POP DUP2 ADD SWAP1 PUSH2 0x5D5 SWAP2 SWAP1 PUSH2 0x16DC JUMP JUMPDEST PUSH2 0x614 JUMPI PUSH1 0x40 MLOAD PUSH32 0x8C379A000000000000000000000000000000000000000000000000000000000 DUP2 MSTORE PUSH1 0x4 ADD PUSH2 0x60B SWAP1 PUSH2 0x1751 JUMP JUMPDEST PUSH1 0x40 MLOAD DUP1 SWAP2 SUB SWAP1 REVERT JUMPDEST POP JUMP JUMPDEST PUSH1 0x8 SLOAD DUP2 JUMP JUMPDEST PUSH2 0x625 PUSH2 0x794 JUMP JUMPDEST PUSH2 0x62E DUP2 PUSH2 0x84D JUMP JUMPDEST POP JUMP JUMPDEST PUSH2 0x639 PUSH2 0x124C JUMP JUMPDEST PUSH2 0x641 PUSH2 0x124C JUMP JUMPDEST PUSH2 0x658 DUP6 DUP6 DUP6 DUP5 PUSH2 0x979 SWAP1 SWAP4 SWAP3 SWAP2 SWAP1 PUSH4 0xFFFFFFFF AND JUMP JUMPDEST SWAP2 POP POP SWAP4 SWAP3 POP POP POP JUMP JUMPDEST PUSH1 0x60 PUSH0 PUSH1 0x1 PUSH2 0x670 DUP5 PUSH2 0xA28 JUMP JUMPDEST ADD SWAP1 POP PUSH0 DUP2 PUSH8 0xFFFFFFFFFFFFFFFF DUP2 GT ISZERO PUSH2 0x68E JUMPI PUSH2 0x68D PUSH2 0x176F JUMP JUMPDEST JUMPDEST PUSH1 0x40 MLOAD SWAP1 DUP1 DUP3 MSTORE DUP1 PUSH1 0x1F ADD PUSH1 0x1F NOT AND PUSH1 0x20 ADD DUP3 ADD PUSH1 0x40 MSTORE DUP1 ISZERO PUSH2 0x6C0 JUMPI DUP2 PUSH1 0x20 ADD PUSH1 0x1 DUP3 MUL DUP1 CALLDATASIZE DUP4 CALLDATACOPY DUP1 DUP3 ADD SWAP2 POP POP SWAP1 POP JUMPDEST POP SWAP1 POP PUSH0 DUP3 PUSH1 0x20 ADD DUP3 ADD SWAP1 POP JUMPDEST PUSH1 0x1 ISZERO PUSH2 0x721 JUMPI DUP1 DUP1 PUSH1 0x1 SWAP1 SUB SWAP2 POP POP PUSH32 0x3031323334353637383961626364656600000000000000000000000000000000 PUSH1 0xA DUP7 MOD BYTE DUP2 MSTORE8 PUSH1 0xA DUP6 DUP2 PUSH2 0x716 JUMPI PUSH2 0x715 PUSH2 0x179C JUMP JUMPDEST JUMPDEST DIV SWAP5 POP PUSH0 DUP6 SUB PUSH2 0x6CD JUMPI JUMPDEST DUP2 SWAP4 POP POP POP POP SWAP2 SWAP1 POP JUMP JUMPDEST PUSH2 0x743 DUP3 DUP5 PUSH1 0x80 ADD MLOAD PUSH2 0xB79 SWAP1 SWAP2 SWAP1 PUSH4 0xFFFFFFFF AND JUMP JUMPDEST PUSH2 0x75A DUP2 DUP5 PUSH1 0x80 ADD MLOAD PUSH2 0xB79 SWAP1 SWAP2 SWAP1 PUSH4 0xFFFFFFFF AND JUMP JUMPDEST POP POP POP JUMP JUMPDEST PUSH0 PUSH2 0x78C PUSH1 0x3 PUSH0 SWAP1 SLOAD SWAP1 PUSH2 0x100 EXP SWAP1 DIV PUSH20 0xFFFFFFFFFFFFFFFFFFFFFFFFFFFFFFFFFFFFFFFF AND DUP5 DUP5 PUSH2 0xB9E JUMP JUMPDEST SWAP1 POP SWAP3 SWAP2 POP POP JUMP JUMPDEST PUSH1 0x6 PUSH0 SWAP1 SLOAD SWAP1 PUSH2 0x100 EXP SWAP1 DIV PUSH20 0xFFFFFFFFFFFFFFFFFFFFFFFFFFFFFFFFFFFFFFFF AND PUSH20 0xFFFFFFFFFFFFFFFFFFFFFFFFFFFFFFFFFFFFFFFF AND CALLER PUSH20 0xFFFFFFFFFFFFFFFFFFFFFFFFFFFFFFFFFFFFFFFF AND EQ PUSH2 0x823 JUMPI PUSH1 0x40 MLOAD PUSH32 0x8C379A000000000000000000000000000000000000000000000000000000000 DUP2 MSTORE PUSH1 0x4 ADD PUSH2 0x81A SWAP1 PUSH2 0x1813 JUMP JUMPDEST PUSH1 0x40 MLOAD DUP1 SWAP2 SUB SWAP1 REVERT JUMPDEST JUMP JUMPDEST PUSH0 PUSH1 0x2 PUSH0 SWAP1 SLOAD SWAP1 PUSH2 0x100 EXP SWAP1 DIV PUSH20 0xFFFFFFFFFFFFFFFFFFFFFFFFFFFFFFFFFFFFFFFF AND SWAP1 POP SWAP1 JUMP JUMPDEST CALLER PUSH20 0xFFFFFFFFFFFFFFFFFFFFFFFFFFFFFFFFFFFFFFFF AND DUP2 PUSH20 0xFFFFFFFFFFFFFFFFFFFFFFFFFFFFFFFFFFFFFFFF AND SUB PUSH2 0x8BB JUMPI PUSH1 0x40 MLOAD PUSH32 0x8C379A000000000000000000000000000000000000000000000000000000000 DUP2 MSTORE PUSH1 0x4 ADD PUSH2 0x8B2 SWAP1 PUSH2 0x187B JUMP JUMPDEST PUSH1 0x40 MLOAD DUP1 SWAP2 SUB SWAP1 REVERT JUMPDEST DUP1 PUSH1 0x7 PUSH0 PUSH2 0x100 EXP DUP2 SLOAD DUP2 PUSH20 0xFFFFFFFFFFFFFFFFFFFFFFFFFFFFFFFFFFFFFFFF MUL NOT AND SWAP1 DUP4 PUSH20 0xFFFFFFFFFFFFFFFFFFFFFFFFFFFFFFFFFFFFFFFF AND MUL OR SWAP1 SSTORE POP DUP1 PUSH20 0xFFFFFFFFFFFFFFFFFFFFFFFFFFFFFFFFFFFFFFFF AND PUSH1 0x6 PUSH0 SWAP1 SLOAD SWAP1 PUSH2 0x100 EXP SWAP1 DIV PUSH20 0xFFFFFFFFFFFFFFFFFFFFFFFFFFFFFFFFFFFFFFFF AND PUSH20 0xFFFFFFFFFFFFFFFFFFFFFFFFFFFFFFFFFFFFFFFF AND PUSH32 0xED8889F560326EB138920D842192F0EB3DD22B4F139C87A2C57538E05BAE1278 PUSH1 0x40 MLOAD PUSH1 0x40 MLOAD DUP1 SWAP2 SUB SWAP1 LOG3 POP JUMP JUMPDEST PUSH2 0x981 PUSH2 0x124C JUMP JUMPDEST PUSH2 0x991 DUP6 PUSH1 0x80 ADD MLOAD PUSH2 0x100 PUSH2 0xC65 JUMP JUMPDEST POP DUP4 DUP6 PUSH0 ADD DUP2 DUP2 MSTORE POP POP DUP3 DUP6 PUSH1 0x20 ADD SWAP1 PUSH20 0xFFFFFFFFFFFFFFFFFFFFFFFFFFFFFFFFFFFFFFFF AND SWAP1 DUP2 PUSH20 0xFFFFFFFFFFFFFFFFFFFFFFFFFFFFFFFFFFFFFFFF AND DUP2 MSTORE POP POP DUP2 DUP6 PUSH1 0x40 ADD SWAP1 PUSH28 0xFFFFFFFFFFFFFFFFFFFFFFFFFFFFFFFFFFFFFFFFFFFFFFFFFFFFFFFF NOT AND SWAP1 DUP2 PUSH28 0xFFFFFFFFFFFFFFFFFFFFFFFFFFFFFFFFFFFFFFFFFFFFFFFFFFFFFFFF NOT AND DUP2 MSTORE POP POP DUP5 SWAP1 POP SWAP5 SWAP4 POP POP POP POP JUMP JUMPDEST PUSH0 DUP1 PUSH0 SWAP1 POP PUSH27 0x184F03E93FF9F4DAA797ED6E38ED64BF6A1F010000000000000000 DUP4 LT PUSH2 0xA84 JUMPI PUSH27 0x184F03E93FF9F4DAA797ED6E38ED64BF6A1F010000000000000000 DUP4 DUP2 PUSH2 0xA7A JUMPI PUSH2 0xA79 PUSH2 0x179C JUMP JUMPDEST JUMPDEST DIV SWAP3 POP PUSH1 0x40 DUP2 ADD SWAP1 POP JUMPDEST PUSH14 0x4EE2D6D415B85ACEF8100000000 DUP4 LT PUSH2 0xAC1 JUMPI PUSH14 0x4EE2D6D415B85ACEF8100000000 DUP4 DUP2 PUSH2 0xAB7 JUMPI PUSH2 0xAB6 PUSH2 0x179C JUMP JUMPDEST JUMPDEST DIV SWAP3 POP PUSH1 0x20 DUP2 ADD SWAP1 POP JUMPDEST PUSH7 0x2386F26FC10000 DUP4 LT PUSH2 0xAF0 JUMPI PUSH7 0x2386F26FC10000 DUP4 DUP2 PUSH2 0xAE6 JUMPI PUSH2 0xAE5 PUSH2 0x179C JUMP JUMPDEST JUMPDEST DIV SWAP3 POP PUSH1 0x10 DUP2 ADD SWAP1 POP JUMPDEST PUSH4 0x5F5E100 DUP4 LT PUSH2 0xB19 JUMPI PUSH4 0x5F5E100 DUP4 DUP2 PUSH2 0xB0F JUMPI PUSH2 0xB0E PUSH2 0x179C JUMP JUMPDEST JUMPDEST DIV SWAP3 POP PUSH1 0x8 DUP2 ADD SWAP1 POP JUMPDEST PUSH2 0x2710 DUP4 LT PUSH2 0xB3E JUMPI PUSH2 0x2710 DUP4 DUP2 PUSH2 0xB34 JUMPI PUSH2 0xB33 PUSH2 0x179C JUMP JUMPDEST JUMPDEST DIV SWAP3 POP PUSH1 0x4 DUP2 ADD SWAP1 POP JUMPDEST PUSH1 0x64 DUP4 LT PUSH2 0xB61 JUMPI PUSH1 0x64 DUP4 DUP2 PUSH2 0xB57 JUMPI PUSH2 0xB56 PUSH2 0x179C JUMP JUMPDEST JUMPDEST DIV SWAP3 POP PUSH1 0x2 DUP2 ADD SWAP1 POP JUMPDEST PUSH1 0xA DUP4 LT PUSH2 0xB70 JUMPI PUSH1 0x1 DUP2 ADD SWAP1 POP JUMPDEST DUP1 SWAP2 POP POP SWAP2 SWAP1 POP JUMP JUMPDEST PUSH2 0xB86 DUP3 PUSH1 0x3 DUP4 MLOAD PUSH2 0xCCD JUMP JUMPDEST PUSH2 0xB99 DUP2 DUP4 PUSH2 0xE52 SWAP1 SWAP2 SWAP1 PUSH4 0xFFFFFFFF AND JUMP JUMPDEST POP POP POP JUMP JUMPDEST PUSH0 DUP1 PUSH1 0x4 SLOAD SWAP1 POP PUSH1 0x1 DUP2 PUSH2 0xBB2 SWAP2 SWAP1 PUSH2 0x18C6 JUMP JUMPDEST PUSH1 0x4 DUP2 SWAP1 SSTORE POP PUSH0 PUSH4 0x40429946 PUSH1 0xE0 SHL PUSH0 DUP1 DUP8 PUSH0 ADD MLOAD ADDRESS DUP10 PUSH1 0x40 ADD MLOAD DUP8 PUSH1 0x1 DUP13 PUSH1 0x80 ADD MLOAD PUSH0 ADD MLOAD PUSH1 0x40 MLOAD PUSH1 0x24 ADD PUSH2 0xBEF SWAP9 SWAP8 SWAP7 SWAP6 SWAP5 SWAP4 SWAP3 SWAP2 SWAP1 PUSH2 0x1995 JUMP JUMPDEST PUSH1 0x40 MLOAD PUSH1 0x20 DUP2 DUP4 SUB SUB DUP2 MSTORE SWAP1 PUSH1 0x40 MSTORE SWAP1 PUSH28 0xFFFFFFFFFFFFFFFFFFFFFFFFFFFFFFFFFFFFFFFFFFFFFFFFFFFFFFFF NOT AND PUSH1 0x20 DUP3 ADD DUP1 MLOAD PUSH28 0xFFFFFFFFFFFFFFFFFFFFFFFFFFFFFFFFFFFFFFFFFFFFFFFFFFFFFFFF DUP4 DUP2 DUP4 AND OR DUP4 MSTORE POP POP POP POP SWAP1 POP PUSH2 0xC5A DUP7 DUP4 DUP7 DUP5 PUSH2 0xE73 JUMP JUMPDEST SWAP3 POP POP POP SWAP4 SWAP3 POP POP POP JUMP JUMPDEST PUSH2 0xC6D PUSH2 0x12B5 JUMP JUMPDEST PUSH0 PUSH1 0x20 DUP4 PUSH2 0xC7B SWAP2 SWAP1 PUSH2 0x1A18 JUMP JUMPDEST EQ PUSH2 0xCA7 JUMPI PUSH1 0x20 DUP3 PUSH2 0xC8D SWAP2 SWAP1 PUSH2 0x1A18 JUMP JUMPDEST PUSH1 0x20 PUSH2 0xC99 SWAP2 SWAP1 PUSH2 0x1A48 JUMP JUMPDEST DUP3 PUSH2 0xCA4 SWAP2 SWAP1 PUSH2 0x18C6 JUMP JUMPDEST SWAP2 POP JUMPDEST DUP2 DUP4 PUSH1 0x20 ADD DUP2 DUP2 MSTORE POP POP PUSH1 0x40 MLOAD DUP1 DUP5 MSTORE PUSH0 DUP2 MSTORE DUP3 DUP2 ADD PUSH1 0x20 ADD PUSH1 0x40 MSTORE POP DUP3 SWAP1 POP SWAP3 SWAP2 POP POP JUMP JUMPDEST PUSH1 0x17 DUP2 PUSH8 0xFFFFFFFFFFFFFFFF AND GT PUSH2 0xD04 JUMPI PUSH2 0xCFE DUP2 PUSH1 0x5 DUP5 PUSH1 0xFF AND SWAP1 SHL PUSH1 0xFF AND OR DUP5 PUSH2 0x1000 SWAP1 SWAP2 SWAP1 PUSH4 0xFFFFFFFF AND JUMP JUMPDEST POP PUSH2 0xE4D JUMP JUMPDEST PUSH1 0xFF DUP2 PUSH8 0xFFFFFFFFFFFFFFFF AND GT PUSH2 0xD5A JUMPI PUSH2 0xD33 PUSH1 0x18 PUSH1 0x5 DUP5 PUSH1 0xFF AND SWAP1 SHL OR DUP5 PUSH2 0x1000 SWAP1 SWAP2 SWAP1 PUSH4 0xFFFFFFFF AND JUMP JUMPDEST POP PUSH2 0xD54 DUP2 PUSH8 0xFFFFFFFFFFFFFFFF AND PUSH1 0x1 DUP6 PUSH2 0x101F SWAP1 SWAP3 SWAP2 SWAP1 PUSH4 0xFFFFFFFF AND JUMP JUMPDEST POP PUSH2 0xE4C JUMP JUMPDEST PUSH2 0xFFFF DUP2 PUSH8 0xFFFFFFFFFFFFFFFF AND GT PUSH2 0xDB1 JUMPI PUSH2 0xD8A PUSH1 0x19 PUSH1 0x5 DUP5 PUSH1 0xFF AND SWAP1 SHL OR DUP5 PUSH2 0x1000 SWAP1 SWAP2 SWAP1 PUSH4 0xFFFFFFFF AND JUMP JUMPDEST POP PUSH2 0xDAB DUP2 PUSH8 0xFFFFFFFFFFFFFFFF AND PUSH1 0x2 DUP6 PUSH2 0x101F SWAP1 SWAP3 SWAP2 SWAP1 PUSH4 0xFFFFFFFF AND JUMP JUMPDEST POP PUSH2 0xE4B JUMP JUMPDEST PUSH4 0xFFFFFFFF DUP2 PUSH8 0xFFFFFFFFFFFFFFFF AND GT PUSH2 0xE0A JUMPI PUSH2 0xDE3 PUSH1 0x1A PUSH1 0x5 DUP5 PUSH1 0xFF AND SWAP1 SHL OR DUP5 PUSH2 0x1000 SWAP1 SWAP2 SWAP1 PUSH4 0xFFFFFFFF AND JUMP JUMPDEST POP PUSH2 0xE04 DUP2 PUSH8 0xFFFFFFFFFFFFFFFF AND PUSH1 0x4 DUP6 PUSH2 0x101F SWAP1 SWAP3 SWAP2 SWAP1 PUSH4 0xFFFFFFFF AND JUMP JUMPDEST POP PUSH2 0xE4A JUMP JUMPDEST PUSH2 0xE27 PUSH1 0x1B PUSH1 0x5 DUP5 PUSH1 0xFF AND SWAP1 SHL OR DUP5 PUSH2 0x1000 SWAP1 SWAP2 SWAP1 PUSH4 0xFFFFFFFF AND JUMP JUMPDEST POP PUSH2 0xE48 DUP2 PUSH8 0xFFFFFFFFFFFFFFFF AND PUSH1 0x8 DUP6 PUSH2 0x101F SWAP1 SWAP3 SWAP2 SWAP1 PUSH4 0xFFFFFFFF AND JUMP JUMPDEST POP JUMPDEST JUMPDEST JUMPDEST JUMPDEST POP POP POP JUMP JUMPDEST PUSH2 0xE5A PUSH2 0x12B5 JUMP JUMPDEST PUSH2 0xE6B DUP4 DUP5 PUSH0 ADD MLOAD MLOAD DUP5 DUP6 MLOAD PUSH2 0x1040 JUMP JUMPDEST SWAP1 POP SWAP3 SWAP2 POP POP JUMP JUMPDEST PUSH0 ADDRESS DUP5 PUSH1 0x40 MLOAD PUSH1 0x20 ADD PUSH2 0xE87 SWAP3 SWAP2 SWAP1 PUSH2 0x1B2C JUMP JUMPDEST PUSH1 0x40 MLOAD PUSH1 0x20 DUP2 DUP4 SUB SUB DUP2 MSTORE SWAP1 PUSH1 0x40 MSTORE DUP1 MLOAD SWAP1 PUSH1 0x20 ADD KECCAK256 SWAP1 POP DUP5 PUSH1 0x5 PUSH0 DUP4 DUP2 MSTORE PUSH1 0x20 ADD SWAP1 DUP2 MSTORE PUSH1 0x20 ADD PUSH0 KECCAK256 PUSH0 PUSH2 0x100 EXP DUP2 SLOAD DUP2 PUSH20 0xFFFFFFFFFFFFFFFFFFFFFFFFFFFFFFFFFFFFFFFF MUL NOT AND SWAP1 DUP4 PUSH20 0xFFFFFFFFFFFFFFFFFFFFFFFFFFFFFFFFFFFFFFFF AND MUL OR SWAP1 SSTORE POP DUP1 PUSH32 0xB5E6E01E79F91267DC17B4E6314D5D4D03593D2CEEE0FBB452B750BD70EA5AF9 PUSH1 0x40 MLOAD PUSH1 0x40 MLOAD DUP1 SWAP2 SUB SWAP1 LOG2 PUSH1 0x2 PUSH0 SWAP1 SLOAD SWAP1 PUSH2 0x100 EXP SWAP1 DIV PUSH20 0xFFFFFFFFFFFFFFFFFFFFFFFFFFFFFFFFFFFFFFFF AND PUSH20 0xFFFFFFFFFFFFFFFFFFFFFFFFFFFFFFFFFFFFFFFF AND PUSH4 0x4000AEA0 DUP7 DUP6 DUP6 PUSH1 0x40 MLOAD DUP5 PUSH4 0xFFFFFFFF AND PUSH1 0xE0 SHL DUP2 MSTORE PUSH1 0x4 ADD PUSH2 0xF79 SWAP4 SWAP3 SWAP2 SWAP1 PUSH2 0x1B57 JUMP JUMPDEST PUSH1 0x20 PUSH1 0x40 MLOAD DUP1 DUP4 SUB DUP2 PUSH0 DUP8 GAS CALL ISZERO DUP1 ISZERO PUSH2 0xF95 JUMPI RETURNDATASIZE PUSH0 DUP1 RETURNDATACOPY RETURNDATASIZE PUSH0 REVERT JUMPDEST POP POP POP POP PUSH1 0x40 MLOAD RETURNDATASIZE PUSH1 0x1F NOT PUSH1 0x1F DUP3 ADD AND DUP3 ADD DUP1 PUSH1 0x40 MSTORE POP DUP2 ADD SWAP1 PUSH2 0xFB9 SWAP2 SWAP1 PUSH2 0x16DC JUMP JUMPDEST PUSH2 0xFF8 JUMPI PUSH1 0x40 MLOAD PUSH32 0x8C379A000000000000000000000000000000000000000000000000000000000 DUP2 MSTORE PUSH1 0x4 ADD PUSH2 0xFEF SWAP1 PUSH2 0x1C03 JUMP JUMPDEST PUSH1 0x40 MLOAD DUP1 SWAP2 SUB SWAP1 REVERT JUMPDEST SWAP5 SWAP4 POP POP POP POP JUMP JUMPDEST PUSH2 0x1008 PUSH2 0x12B5 JUMP JUMPDEST PUSH2 0x1017 DUP4 DUP5 PUSH0 ADD MLOAD MLOAD DUP5 PUSH2 0x112C JUMP JUMPDEST SWAP1 POP SWAP3 SWAP2 POP POP JUMP JUMPDEST PUSH2 0x1027 PUSH2 0x12B5 JUMP JUMPDEST PUSH2 0x1037 DUP5 DUP6 PUSH0 ADD MLOAD MLOAD DUP6 DUP6 PUSH2 0x1182 JUMP JUMPDEST SWAP1 POP SWAP4 SWAP3 POP POP POP JUMP JUMPDEST PUSH2 0x1048 PUSH2 0x12B5 JUMP JUMPDEST DUP3 MLOAD DUP3 GT ISZERO PUSH2 0x1055 JUMPI PUSH0 DUP1 REVERT JUMPDEST DUP5 PUSH1 0x20 ADD MLOAD DUP3 DUP6 PUSH2 0x1066 SWAP2 SWAP1 PUSH2 0x18C6 JUMP JUMPDEST GT ISZERO PUSH2 0x109B JUMPI PUSH2 0x109A DUP6 PUSH1 0x2 PUSH2 0x108B DUP9 PUSH1 0x20 ADD MLOAD DUP9 DUP8 PUSH2 0x1086 SWAP2 SWAP1 PUSH2 0x18C6 JUMP JUMPDEST PUSH2 0x120F JUMP JUMPDEST PUSH2 0x1095 SWAP2 SWAP1 PUSH2 0x1C21 JUMP JUMPDEST PUSH2 0x122A JUMP JUMPDEST JUMPDEST PUSH0 DUP1 DUP7 MLOAD DUP1 MLOAD DUP8 PUSH1 0x20 DUP4 ADD ADD SWAP4 POP DUP1 DUP9 DUP8 ADD GT ISZERO PUSH2 0x10B9 JUMPI DUP8 DUP7 ADD DUP3 MSTORE JUMPDEST PUSH1 0x20 DUP8 ADD SWAP3 POP POP POP JUMPDEST PUSH1 0x20 DUP5 LT PUSH2 0x1100 JUMPI DUP1 MLOAD DUP3 MSTORE PUSH1 0x20 DUP3 PUSH2 0x10DB SWAP2 SWAP1 PUSH2 0x18C6 JUMP JUMPDEST SWAP2 POP PUSH1 0x20 DUP2 PUSH2 0x10EA SWAP2 SWAP1 PUSH2 0x18C6 JUMP JUMPDEST SWAP1 POP PUSH1 0x20 DUP5 PUSH2 0x10F9 SWAP2 SWAP1 PUSH2 0x1A48 JUMP JUMPDEST SWAP4 POP PUSH2 0x10C2 JUMP JUMPDEST PUSH0 PUSH1 0x1 DUP6 PUSH1 0x20 SUB PUSH2 0x100 EXP SUB SWAP1 POP DUP1 NOT DUP3 MLOAD AND DUP2 DUP5 MLOAD AND DUP2 DUP2 OR DUP6 MSTORE POP POP POP DUP7 SWAP3 POP POP POP SWAP5 SWAP4 POP POP POP POP JUMP JUMPDEST PUSH2 0x1134 PUSH2 0x12B5 JUMP JUMPDEST DUP4 PUSH1 0x20 ADD MLOAD DUP4 LT PUSH2 0x115A JUMPI PUSH2 0x1159 DUP5 PUSH1 0x2 DUP7 PUSH1 0x20 ADD MLOAD PUSH2 0x1154 SWAP2 SWAP1 PUSH2 0x1C21 JUMP JUMPDEST PUSH2 0x122A JUMP JUMPDEST JUMPDEST DUP4 MLOAD DUP1 MLOAD PUSH1 0x20 DUP6 DUP4 ADD ADD DUP5 DUP2 MSTORE8 DUP2 DUP7 SUB PUSH2 0x1175 JUMPI PUSH1 0x1 DUP3 ADD DUP4 MSTORE JUMPDEST POP POP POP DUP4 SWAP1 POP SWAP4 SWAP3 POP POP POP JUMP JUMPDEST PUSH2 0x118A PUSH2 0x12B5 JUMP JUMPDEST DUP5 PUSH1 0x20 ADD MLOAD DUP5 DUP4 PUSH2 0x119B SWAP2 SWAP1 PUSH2 0x18C6 JUMP JUMPDEST GT ISZERO PUSH2 0x11C3 JUMPI PUSH2 0x11C2 DUP6 PUSH1 0x2 DUP7 DUP6 PUSH2 0x11B3 SWAP2 SWAP1 PUSH2 0x18C6 JUMP JUMPDEST PUSH2 0x11BD SWAP2 SWAP1 PUSH2 0x1C21 JUMP JUMPDEST PUSH2 0x122A JUMP JUMPDEST JUMPDEST PUSH0 PUSH1 0x1 DUP4 PUSH2 0x100 PUSH2 0x11D4 SWAP2 SWAP1 PUSH2 0x1D91 JUMP JUMPDEST PUSH2 0x11DE SWAP2 SWAP1 PUSH2 0x1A48 JUMP JUMPDEST SWAP1 POP DUP6 MLOAD DUP4 DUP7 DUP3 ADD ADD DUP6 DUP4 NOT DUP3 MLOAD AND OR DUP2 MSTORE DUP2 MLOAD DUP6 DUP9 ADD GT ISZERO PUSH2 0x1201 JUMPI DUP5 DUP8 ADD DUP3 MSTORE JUMPDEST POP POP DUP6 SWAP2 POP POP SWAP5 SWAP4 POP POP POP POP JUMP JUMPDEST PUSH0 DUP2 DUP4 GT ISZERO PUSH2 0x1220 JUMPI DUP3 SWAP1 POP PUSH2 0x1224 JUMP JUMPDEST DUP2 SWAP1 POP JUMPDEST SWAP3 SWAP2 POP POP JUMP JUMPDEST PUSH0 DUP3 PUSH0 ADD MLOAD SWAP1 POP PUSH2 0x123B DUP4 DUP4 PUSH2 0xC65 JUMP JUMPDEST POP PUSH2 0x1246 DUP4 DUP3 PUSH2 0xE52 JUMP JUMPDEST POP POP POP POP JUMP JUMPDEST PUSH1 0x40 MLOAD DUP1 PUSH1 0xA0 ADD PUSH1 0x40 MSTORE DUP1 PUSH0 DUP1 NOT AND DUP2 MSTORE PUSH1 0x20 ADD PUSH0 PUSH20 0xFFFFFFFFFFFFFFFFFFFFFFFFFFFFFFFFFFFFFFFF AND DUP2 MSTORE PUSH1 0x20 ADD PUSH0 PUSH28 0xFFFFFFFFFFFFFFFFFFFFFFFFFFFFFFFFFFFFFFFFFFFFFFFFFFFFFFFF NOT AND DUP2 MSTORE PUSH1 0x20 ADD PUSH0 DUP2 MSTORE PUSH1 0x20 ADD PUSH2 0x12AF PUSH2 0x12B5 JUMP JUMPDEST DUP2 MSTORE POP SWAP1 JUMP JUMPDEST PUSH1 0x40 MLOAD DUP1 PUSH1 0x40 ADD PUSH1 0x40 MSTORE DUP1 PUSH1 0x60 DUP2 MSTORE PUSH1 0x20 ADD PUSH0 DUP2 MSTORE POP SWAP1 JUMP JUMPDEST PUSH0 DUP1 REVERT JUMPDEST PUSH0 DUP2 SWAP1 POP SWAP2 SWAP1 POP JUMP JUMPDEST PUSH2 0x12E4 DUP2 PUSH2 0x12D2 JUMP JUMPDEST DUP2 EQ PUSH2 0x12EE JUMPI PUSH0 DUP1 REVERT JUMPDEST POP JUMP JUMPDEST PUSH0 DUP2 CALLDATALOAD SWAP1 POP PUSH2 0x12FF DUP2 PUSH2 0x12DB JUMP JUMPDEST SWAP3 SWAP2 POP POP JUMP JUMPDEST PUSH0 PUSH1 0x20 DUP3 DUP5 SUB SLT ISZERO PUSH2 0x131A JUMPI PUSH2 0x1319 PUSH2 0x12CE JUMP JUMPDEST JUMPDEST PUSH0 PUSH2 0x1327 DUP5 DUP3 DUP6 ADD PUSH2 0x12F1 JUMP JUMPDEST SWAP2 POP POP SWAP3 SWAP2 POP POP JUMP JUMPDEST PUSH0 DUP2 SWAP1 POP SWAP2 SWAP1 POP JUMP JUMPDEST PUSH2 0x1342 DUP2 PUSH2 0x1330 JUMP JUMPDEST DUP3 MSTORE POP POP JUMP JUMPDEST PUSH0 PUSH1 0x20 DUP3 ADD SWAP1 POP PUSH2 0x135B PUSH0 DUP4 ADD DUP5 PUSH2 0x1339 JUMP JUMPDEST SWAP3 SWAP2 POP POP JUMP JUMPDEST PUSH2 0x136A DUP2 PUSH2 0x1330 JUMP JUMPDEST DUP2 EQ PUSH2 0x1374 JUMPI PUSH0 DUP1 REVERT JUMPDEST POP JUMP JUMPDEST PUSH0 DUP2 CALLDATALOAD SWAP1 POP PUSH2 0x1385 DUP2 PUSH2 0x1361 JUMP JUMPDEST SWAP3 SWAP2 POP POP JUMP JUMPDEST PUSH0 DUP1 PUSH1 0x40 DUP4 DUP6 SUB SLT ISZERO PUSH2 0x13A1 JUMPI PUSH2 0x13A0 PUSH2 0x12CE JUMP JUMPDEST JUMPDEST PUSH0 PUSH2 0x13AE DUP6 DUP3 DUP7 ADD PUSH2 0x1377 JUMP JUMPDEST SWAP3 POP POP PUSH1 0x20 PUSH2 0x13BF DUP6 DUP3 DUP7 ADD PUSH2 0x12F1 JUMP JUMPDEST SWAP2 POP POP SWAP3 POP SWAP3 SWAP1 POP JUMP JUMPDEST PUSH0 PUSH20 0xFFFFFFFFFFFFFFFFFFFFFFFFFFFFFFFFFFFFFFFF DUP3 AND SWAP1 POP SWAP2 SWAP1 POP JUMP JUMPDEST PUSH0 PUSH2 0x13F2 DUP3 PUSH2 0x13C9 JUMP JUMPDEST SWAP1 POP SWAP2 SWAP1 POP JUMP JUMPDEST PUSH2 0x1402 DUP2 PUSH2 0x13E8 JUMP JUMPDEST DUP3 MSTORE POP POP JUMP JUMPDEST PUSH0 PUSH1 0x20 DUP3 ADD SWAP1 POP PUSH2 0x141B PUSH0 DUP4 ADD DUP5 PUSH2 0x13F9 JUMP JUMPDEST SWAP3 SWAP2 POP POP JUMP JUMPDEST PUSH2 0x142A DUP2 PUSH2 0x12D2 JUMP JUMPDEST DUP3 MSTORE POP POP JUMP JUMPDEST PUSH0 PUSH1 0x20 DUP3 ADD SWAP1 POP PUSH2 0x1443 PUSH0 DUP4 ADD DUP5 PUSH2 0x1421 JUMP JUMPDEST SWAP3 SWAP2 POP POP JUMP JUMPDEST PUSH2 0x1452 DUP2 PUSH2 0x13E8 JUMP JUMPDEST DUP2 EQ PUSH2 0x145C JUMPI PUSH0 DUP1 REVERT JUMPDEST POP JUMP JUMPDEST PUSH0 DUP2 CALLDATALOAD SWAP1 POP PUSH2 0x146D DUP2 PUSH2 0x1449 JUMP JUMPDEST SWAP3 SWAP2 POP POP JUMP JUMPDEST PUSH0 PUSH1 0x20 DUP3 DUP5 SUB SLT ISZERO PUSH2 0x1488 JUMPI PUSH2 0x1487 PUSH2 0x12CE JUMP JUMPDEST JUMPDEST PUSH0 PUSH2 0x1495 DUP5 DUP3 DUP6 ADD PUSH2 0x145F JUMP JUMPDEST SWAP2 POP POP SWAP3 SWAP2 POP POP JUMP JUMPDEST PUSH32 0x3132372E302E302E313A353030302F6170692F64617461000000000000000000 DUP2 MSTORE POP JUMP JUMPDEST PUSH0 DUP2 MLOAD SWAP1 POP SWAP2 SWAP1 POP JUMP JUMPDEST PUSH0 DUP2 SWAP1 POP SWAP3 SWAP2 POP POP JUMP JUMPDEST DUP3 DUP2 DUP4 MCOPY PUSH0 DUP4 DUP4 ADD MSTORE POP POP POP JUMP JUMPDEST PUSH0 PUSH2 0x14F0 DUP3 PUSH2 0x14C4 JUMP JUMPDEST PUSH2 0x14FA DUP2 DUP6 PUSH2 0x14CE JUMP JUMPDEST SWAP4 POP PUSH2 0x150A DUP2 DUP6 PUSH1 0x20 DUP7 ADD PUSH2 0x14D8 JUMP JUMPDEST DUP1 DUP5 ADD SWAP2 POP POP SWAP3 SWAP2 POP POP JUMP JUMPDEST PUSH0 PUSH2 0x1520 DUP3 PUSH2 0x149E JUMP JUMPDEST PUSH1 0x17 DUP3 ADD SWAP2 POP PUSH2 0x1530 DUP3 DUP5 PUSH2 0x14E6 JUMP JUMPDEST SWAP2 POP DUP2 SWAP1 POP SWAP3 SWAP2 POP POP JUMP JUMPDEST PUSH0 DUP3 DUP3 MSTORE PUSH1 0x20 DUP3 ADD SWAP1 POP SWAP3 SWAP2 POP POP JUMP JUMPDEST PUSH32 0x536F75726365206D75737420626520746865206F7261636C65206F6620746865 PUSH0 DUP3 ADD MSTORE PUSH32 0x2072657175657374000000000000000000000000000000000000000000000000 PUSH1 0x20 DUP3 ADD MSTORE POP JUMP JUMPDEST PUSH0 PUSH2 0x15A5 PUSH1 0x28 DUP4 PUSH2 0x153B JUMP JUMPDEST SWAP2 POP PUSH2 0x15B0 DUP3 PUSH2 0x154B JUMP JUMPDEST PUSH1 0x40 DUP3 ADD SWAP1 POP SWAP2 SWAP1 POP JUMP JUMPDEST PUSH0 PUSH1 0x20 DUP3 ADD SWAP1 POP DUP2 DUP2 SUB PUSH0 DUP4 ADD MSTORE PUSH2 0x15D2 DUP2 PUSH2 0x1599 JUMP JUMPDEST SWAP1 POP SWAP2 SWAP1 POP JUMP JUMPDEST PUSH32 0x4D7573742062652070726F706F736564206F776E657200000000000000000000 PUSH0 DUP3 ADD MSTORE POP JUMP JUMPDEST PUSH0 PUSH2 0x160D PUSH1 0x16 DUP4 PUSH2 0x153B JUMP JUMPDEST SWAP2 POP PUSH2 0x1618 DUP3 PUSH2 0x15D9 JUMP JUMPDEST PUSH1 0x20 DUP3 ADD SWAP1 POP SWAP2 SWAP1 POP JUMP JUMPDEST PUSH0 PUSH1 0x20 DUP3 ADD SWAP1 POP DUP2 DUP2 SUB PUSH0 DUP4 ADD MSTORE PUSH2 0x163A DUP2 PUSH2 0x1601 JUMP JUMPDEST SWAP1 POP SWAP2 SWAP1 POP JUMP JUMPDEST PUSH0 DUP2 MLOAD SWAP1 POP PUSH2 0x164F DUP2 PUSH2 0x12DB JUMP JUMPDEST SWAP3 SWAP2 POP POP JUMP JUMPDEST PUSH0 PUSH1 0x20 DUP3 DUP5 SUB SLT ISZERO PUSH2 0x166A JUMPI PUSH2 0x1669 PUSH2 0x12CE JUMP JUMPDEST JUMPDEST PUSH0 PUSH2 0x1677 DUP5 DUP3 DUP6 ADD PUSH2 0x1641 JUMP JUMPDEST SWAP2 POP POP SWAP3 SWAP2 POP POP JUMP JUMPDEST PUSH0 PUSH1 0x40 DUP3 ADD SWAP1 POP PUSH2 0x1693 PUSH0 DUP4 ADD DUP6 PUSH2 0x13F9 JUMP JUMPDEST PUSH2 0x16A0 PUSH1 0x20 DUP4 ADD DUP5 PUSH2 0x1421 JUMP JUMPDEST SWAP4 SWAP3 POP POP POP JUMP JUMPDEST PUSH0 DUP2 ISZERO ISZERO SWAP1 POP SWAP2 SWAP1 POP JUMP JUMPDEST PUSH2 0x16BB DUP2 PUSH2 0x16A7 JUMP JUMPDEST DUP2 EQ PUSH2 0x16C5 JUMPI PUSH0 DUP1 REVERT JUMPDEST POP JUMP JUMPDEST PUSH0 DUP2 MLOAD SWAP1 POP PUSH2 0x16D6 DUP2 PUSH2 0x16B2 JUMP JUMPDEST SWAP3 SWAP2 POP POP JUMP JUMPDEST PUSH0 PUSH1 0x20 DUP3 DUP5 SUB SLT ISZERO PUSH2 0x16F1 JUMPI PUSH2 0x16F0 PUSH2 0x12CE JUMP JUMPDEST JUMPDEST PUSH0 PUSH2 0x16FE DUP5 DUP3 DUP6 ADD PUSH2 0x16C8 JUMP JUMPDEST SWAP2 POP POP SWAP3 SWAP2 POP POP JUMP JUMPDEST PUSH32 0x556E61626C6520746F207472616E736665720000000000000000000000000000 PUSH0 DUP3 ADD MSTORE POP JUMP JUMPDEST PUSH0 PUSH2 0x173B PUSH1 0x12 DUP4 PUSH2 0x153B JUMP JUMPDEST SWAP2 POP PUSH2 0x1746 DUP3 PUSH2 0x1707 JUMP JUMPDEST PUSH1 0x20 DUP3 ADD SWAP1 POP SWAP2 SWAP1 POP JUMP JUMPDEST PUSH0 PUSH1 0x20 DUP3 ADD SWAP1 POP DUP2 DUP2 SUB PUSH0 DUP4 ADD MSTORE PUSH2 0x1768 DUP2 PUSH2 0x172F JUMP JUMPDEST SWAP1 POP SWAP2 SWAP1 POP JUMP JUMPDEST PUSH32 0x4E487B7100000000000000000000000000000000000000000000000000000000 PUSH0 MSTORE PUSH1 0x41 PUSH1 0x4 MSTORE PUSH1 0x24 PUSH0 REVERT JUMPDEST PUSH32 0x4E487B7100000000000000000000000000000000000000000000000000000000 PUSH0 MSTORE PUSH1 0x12 PUSH1 0x4 MSTORE PUSH1 0x24 PUSH0 REVERT JUMPDEST PUSH32 0x4F6E6C792063616C6C61626C65206279206F776E657200000000000000000000 PUSH0 DUP3 ADD MSTORE POP JUMP JUMPDEST PUSH0 PUSH2 0x17FD PUSH1 0x16 DUP4 PUSH2 0x153B JUMP JUMPDEST SWAP2 POP PUSH2 0x1808 DUP3 PUSH2 0x17C9 JUMP JUMPDEST PUSH1 0x20 DUP3 ADD SWAP1 POP SWAP2 SWAP1 POP JUMP JUMPDEST PUSH0 PUSH1 0x20 DUP3 ADD SWAP1 POP DUP2 DUP2 SUB PUSH0 DUP4 ADD MSTORE PUSH2 0x182A DUP2 PUSH2 0x17F1 JUMP JUMPDEST SWAP1 POP SWAP2 SWAP1 POP JUMP JUMPDEST PUSH32 0x43616E6E6F74207472616E7366657220746F2073656C66000000000000000000 PUSH0 DUP3 ADD MSTORE POP JUMP JUMPDEST PUSH0 PUSH2 0x1865 PUSH1 0x17 DUP4 PUSH2 0x153B JUMP JUMPDEST SWAP2 POP PUSH2 0x1870 DUP3 PUSH2 0x1831 JUMP JUMPDEST PUSH1 0x20 DUP3 ADD SWAP1 POP SWAP2 SWAP1 POP JUMP JUMPDEST PUSH0 PUSH1 0x20 DUP3 ADD SWAP1 POP DUP2 DUP2 SUB PUSH0 DUP4 ADD MSTORE PUSH2 0x1892 DUP2 PUSH2 0x1859 JUMP JUMPDEST SWAP1 POP SWAP2 SWAP1 POP JUMP JUMPDEST PUSH32 0x4E487B7100000000000000000000000000000000000000000000000000000000 PUSH0 MSTORE PUSH1 0x11 PUSH1 0x4 MSTORE PUSH1 0x24 PUSH0 REVERT JUMPDEST PUSH0 PUSH2 0x18D0 DUP3 PUSH2 0x12D2 JUMP JUMPDEST SWAP2 POP PUSH2 0x18DB DUP4 PUSH2 0x12D2 JUMP JUMPDEST SWAP3 POP DUP3 DUP3 ADD SWAP1 POP DUP1 DUP3 GT ISZERO PUSH2 0x18F3 JUMPI PUSH2 0x18F2 PUSH2 0x1899 JUMP JUMPDEST JUMPDEST SWAP3 SWAP2 POP POP JUMP JUMPDEST PUSH0 PUSH32 0xFFFFFFFF00000000000000000000000000000000000000000000000000000000 DUP3 AND SWAP1 POP SWAP2 SWAP1 POP JUMP JUMPDEST PUSH2 0x192D DUP2 PUSH2 0x18F9 JUMP JUMPDEST DUP3 MSTORE POP POP JUMP JUMPDEST PUSH0 DUP2 MLOAD SWAP1 POP SWAP2 SWAP1 POP JUMP JUMPDEST PUSH0 DUP3 DUP3 MSTORE PUSH1 0x20 DUP3 ADD SWAP1 POP SWAP3 SWAP2 POP POP JUMP JUMPDEST PUSH0 PUSH1 0x1F NOT PUSH1 0x1F DUP4 ADD AND SWAP1 POP SWAP2 SWAP1 POP JUMP JUMPDEST PUSH0 PUSH2 0x1967 DUP3 PUSH2 0x1933 JUMP JUMPDEST PUSH2 0x1971 DUP2 DUP6 PUSH2 0x193D JUMP JUMPDEST SWAP4 POP PUSH2 0x1981 DUP2 DUP6 PUSH1 0x20 DUP7 ADD PUSH2 0x14D8 JUMP JUMPDEST PUSH2 0x198A DUP2 PUSH2 0x194D JUMP JUMPDEST DUP5 ADD SWAP2 POP POP SWAP3 SWAP2 POP POP JUMP JUMPDEST PUSH0 PUSH2 0x100 DUP3 ADD SWAP1 POP PUSH2 0x19A9 PUSH0 DUP4 ADD DUP12 PUSH2 0x13F9 JUMP JUMPDEST PUSH2 0x19B6 PUSH1 0x20 DUP4 ADD DUP11 PUSH2 0x1421 JUMP JUMPDEST PUSH2 0x19C3 PUSH1 0x40 DUP4 ADD DUP10 PUSH2 0x1339 JUMP JUMPDEST PUSH2 0x19D0 PUSH1 0x60 DUP4 ADD DUP9 PUSH2 0x13F9 JUMP JUMPDEST PUSH2 0x19DD PUSH1 0x80 DUP4 ADD DUP8 PUSH2 0x1924 JUMP JUMPDEST PUSH2 0x19EA PUSH1 0xA0 DUP4 ADD DUP7 PUSH2 0x1421 JUMP JUMPDEST PUSH2 0x19F7 PUSH1 0xC0 DUP4 ADD DUP6 PUSH2 0x1421 JUMP JUMPDEST DUP2 DUP2 SUB PUSH1 0xE0 DUP4 ADD MSTORE PUSH2 0x1A09 DUP2 DUP5 PUSH2 0x195D JUMP JUMPDEST SWAP1 POP SWAP10 SWAP9 POP POP POP POP POP POP POP POP POP JUMP JUMPDEST PUSH0 PUSH2 0x1A22 DUP3 PUSH2 0x12D2 JUMP JUMPDEST SWAP2 POP PUSH2 0x1A2D DUP4 PUSH2 0x12D2 JUMP JUMPDEST SWAP3 POP DUP3 PUSH2 0x1A3D JUMPI PUSH2 0x1A3C PUSH2 0x179C JUMP JUMPDEST JUMPDEST DUP3 DUP3 MOD SWAP1 POP SWAP3 SWAP2 POP POP JUMP JUMPDEST PUSH0 PUSH2 0x1A52 DUP3 PUSH2 0x12D2 JUMP JUMPDEST SWAP2 POP PUSH2 0x1A5D DUP4 PUSH2 0x12D2 JUMP JUMPDEST SWAP3 POP DUP3 DUP3 SUB SWAP1 POP DUP2 DUP2 GT ISZERO PUSH2 0x1A75 JUMPI PUSH2 0x1A74 PUSH2 0x1899 JUMP JUMPDEST JUMPDEST SWAP3 SWAP2 POP POP JUMP JUMPDEST PUSH0 DUP2 SWAP1 POP SWAP2 SWAP1 POP JUMP JUMPDEST PUSH0 PUSH2 0x1A9E PUSH2 0x1A99 PUSH2 0x1A94 DUP5 PUSH2 0x13C9 JUMP JUMPDEST PUSH2 0x1A7B JUMP JUMPDEST PUSH2 0x13C9 JUMP JUMPDEST SWAP1 POP SWAP2 SWAP1 POP JUMP JUMPDEST PUSH0 PUSH2 0x1AAF DUP3 PUSH2 0x1A84 JUMP JUMPDEST SWAP1 POP SWAP2 SWAP1 POP JUMP JUMPDEST PUSH0 PUSH2 0x1AC0 DUP3 PUSH2 0x1AA5 JUMP JUMPDEST SWAP1 POP SWAP2 SWAP1 POP JUMP JUMPDEST PUSH0 DUP2 PUSH1 0x60 SHL SWAP1 POP SWAP2 SWAP1 POP JUMP JUMPDEST PUSH0 PUSH2 0x1ADD DUP3 PUSH2 0x1AC7 JUMP JUMPDEST SWAP1 POP SWAP2 SWAP1 POP JUMP JUMPDEST PUSH0 PUSH2 0x1AEE DUP3 PUSH2 0x1AD3 JUMP JUMPDEST SWAP1 POP SWAP2 SWAP1 POP JUMP JUMPDEST PUSH2 0x1B06 PUSH2 0x1B01 DUP3 PUSH2 0x1AB6 JUMP JUMPDEST PUSH2 0x1AE4 JUMP JUMPDEST DUP3 MSTORE POP POP JUMP JUMPDEST PUSH0 DUP2 SWAP1 POP SWAP2 SWAP1 POP JUMP JUMPDEST PUSH2 0x1B26 PUSH2 0x1B21 DUP3 PUSH2 0x12D2 JUMP JUMPDEST PUSH2 0x1B0C JUMP JUMPDEST DUP3 MSTORE POP POP JUMP JUMPDEST PUSH0 PUSH2 0x1B37 DUP3 DUP6 PUSH2 0x1AF5 JUMP JUMPDEST PUSH1 0x14 DUP3 ADD SWAP2 POP PUSH2 0x1B47 DUP3 DUP5 PUSH2 0x1B15 JUMP JUMPDEST PUSH1 0x20 DUP3 ADD SWAP2 POP DUP2 SWAP1 POP SWAP4 SWAP3 POP POP POP JUMP JUMPDEST PUSH0 PUSH1 0x60 DUP3 ADD SWAP1 POP PUSH2 0x1B6A PUSH0 DUP4 ADD DUP7 PUSH2 0x13F9 JUMP JUMPDEST PUSH2 0x1B77 PUSH1 0x20 DUP4 ADD DUP6 PUSH2 0x1421 JUMP JUMPDEST DUP2 DUP2 SUB PUSH1 0x40 DUP4 ADD MSTORE PUSH2 0x1B89 DUP2 DUP5 PUSH2 0x195D JUMP JUMPDEST SWAP1 POP SWAP5 SWAP4 POP POP POP POP JUMP JUMPDEST PUSH32 0x756E61626C6520746F207472616E73666572416E6443616C6C20746F206F7261 PUSH0 DUP3 ADD MSTORE PUSH32 0x636C650000000000000000000000000000000000000000000000000000000000 PUSH1 0x20 DUP3 ADD MSTORE POP JUMP JUMPDEST PUSH0 PUSH2 0x1BED PUSH1 0x23 DUP4 PUSH2 0x153B JUMP JUMPDEST SWAP2 POP PUSH2 0x1BF8 DUP3 PUSH2 0x1B93 JUMP JUMPDEST PUSH1 0x40 DUP3 ADD SWAP1 POP SWAP2 SWAP1 POP JUMP JUMPDEST PUSH0 PUSH1 0x20 DUP3 ADD SWAP1 POP DUP2 DUP2 SUB PUSH0 DUP4 ADD MSTORE PUSH2 0x1C1A DUP2 PUSH2 0x1BE1 JUMP JUMPDEST SWAP1 POP SWAP2 SWAP1 POP JUMP JUMPDEST PUSH0 PUSH2 0x1C2B DUP3 PUSH2 0x12D2 JUMP JUMPDEST SWAP2 POP PUSH2 0x1C36 DUP4 PUSH2 0x12D2 JUMP JUMPDEST SWAP3 POP DUP3 DUP3 MUL PUSH2 0x1C44 DUP2 PUSH2 0x12D2 JUMP JUMPDEST SWAP2 POP DUP3 DUP3 DIV DUP5 EQ DUP4 ISZERO OR PUSH2 0x1C5B JUMPI PUSH2 0x1C5A PUSH2 0x1899 JUMP JUMPDEST JUMPDEST POP SWAP3 SWAP2 POP POP JUMP JUMPDEST PUSH0 DUP2 PUSH1 0x1 SHR SWAP1 POP SWAP2 SWAP1 POP JUMP JUMPDEST PUSH0 DUP1 DUP3 SWAP2 POP DUP4 SWAP1 POP JUMPDEST PUSH1 0x1 DUP6 GT ISZERO PUSH2 0x1CB7 JUMPI DUP1 DUP7 DIV DUP2 GT ISZERO PUSH2 0x1C93 JUMPI PUSH2 0x1C92 PUSH2 0x1899 JUMP JUMPDEST JUMPDEST PUSH1 0x1 DUP6 AND ISZERO PUSH2 0x1CA2 JUMPI DUP1 DUP3 MUL SWAP2 POP JUMPDEST DUP1 DUP2 MUL SWAP1 POP PUSH2 0x1CB0 DUP6 PUSH2 0x1C62 JUMP JUMPDEST SWAP5 POP PUSH2 0x1C77 JUMP JUMPDEST SWAP5 POP SWAP5 SWAP3 POP POP POP JUMP JUMPDEST PUSH0 DUP3 PUSH2 0x1CCF JUMPI PUSH1 0x1 SWAP1 POP PUSH2 0x1D8A JUMP JUMPDEST DUP2 PUSH2 0x1CDC JUMPI PUSH0 SWAP1 POP PUSH2 0x1D8A JUMP JUMPDEST DUP2 PUSH1 0x1 DUP2 EQ PUSH2 0x1CF2 JUMPI PUSH1 0x2 DUP2 EQ PUSH2 0x1CFC JUMPI PUSH2 0x1D2B JUMP JUMPDEST PUSH1 0x1 SWAP2 POP POP PUSH2 0x1D8A JUMP JUMPDEST PUSH1 0xFF DUP5 GT ISZERO PUSH2 0x1D0E JUMPI PUSH2 0x1D0D PUSH2 0x1899 JUMP JUMPDEST JUMPDEST DUP4 PUSH1 0x2 EXP SWAP2 POP DUP5 DUP3 GT ISZERO PUSH2 0x1D25 JUMPI PUSH2 0x1D24 PUSH2 0x1899 JUMP JUMPDEST JUMPDEST POP PUSH2 0x1D8A JUMP JUMPDEST POP PUSH1 0x20 DUP4 LT PUSH2 0x133 DUP4 LT AND PUSH1 0x4E DUP5 LT PUSH1 0xB DUP5 LT AND OR ISZERO PUSH2 0x1D60 JUMPI DUP3 DUP3 EXP SWAP1 POP DUP4 DUP2 GT ISZERO PUSH2 0x1D5B JUMPI PUSH2 0x1D5A PUSH2 0x1899 JUMP JUMPDEST JUMPDEST PUSH2 0x1D8A JUMP JUMPDEST PUSH2 0x1D6D DUP5 DUP5 DUP5 PUSH1 0x1 PUSH2 0x1C6E JUMP JUMPDEST SWAP3 POP SWAP1 POP DUP2 DUP5 DIV DUP2 GT ISZERO PUSH2 0x1D84 JUMPI PUSH2 0x1D83 PUSH2 0x1899 JUMP JUMPDEST JUMPDEST DUP2 DUP2 MUL SWAP1 POP JUMPDEST SWAP4 SWAP3 POP POP POP JUMP JUMPDEST PUSH0 PUSH2 0x1D9B DUP3 PUSH2 0x12D2 JUMP JUMPDEST SWAP2 POP PUSH2 0x1DA6 DUP4 PUSH2 0x12D2 JUMP JUMPDEST SWAP3 POP PUSH2 0x1DD3 PUSH32 0xFFFFFFFFFFFFFFFFFFFFFFFFFFFFFFFFFFFFFFFFFFFFFFFFFFFFFFFFFFFFFFFF DUP5 DUP5 PUSH2 0x1CC0 JUMP JUMPDEST SWAP1 POP SWAP3 SWAP2 POP POP JUMP INVALID LOG2 PUSH5 0x6970667358 0x22 SLT KECCAK256 PUSH23 0x9222B11D0E9B824722BF8E8E98B62476450178AE30BB21 SWAP15 DUP1 ADDMOD 0xA8 BLOBBASEFEE PUSH7 0x3FD64736F6C63 NUMBER STOP ADDMOD BYTE STOP CALLER PUSH2 0x100 PUSH1 0x40 MSTORE CALLVALUE DUP1 ISZERO PUSH2 0x10 JUMPI PUSH0 DUP1 REVERT JUMPDEST POP PUSH1 0x40 MLOAD PUSH2 0xABB CODESIZE SUB DUP1 PUSH2 0xABB DUP4 CODECOPY DUP2 DUP2 ADD PUSH1 0x40 MSTORE DUP2 ADD SWAP1 PUSH2 0x32 SWAP2 SWAP1 PUSH2 0x1D6 JUMP JUMPDEST DUP2 DUP1 PUSH20 0xFFFFFFFFFFFFFFFFFFFFFFFFFFFFFFFFFFFFFFFF AND PUSH1 0x80 DUP2 PUSH20 0xFFFFFFFFFFFFFFFFFFFFFFFFFFFFFFFFFFFFFFFF AND DUP2 MSTORE POP POP POP DUP2 PUSH20 0xFFFFFFFFFFFFFFFFFFFFFFFFFFFFFFFFFFFFFFFF AND PUSH1 0xA0 DUP2 PUSH20 0xFFFFFFFFFFFFFFFFFFFFFFFFFFFFFFFFFFFFFFFF AND DUP2 MSTORE POP POP DUP1 PUSH1 0xE0 DUP2 DUP2 MSTORE POP POP CALLER PUSH1 0x2 PUSH0 PUSH2 0x100 EXP DUP2 SLOAD DUP2 PUSH20 0xFFFFFFFFFFFFFFFFFFFFFFFFFFFFFFFFFFFFFFFF MUL NOT AND SWAP1 DUP4 PUSH20 0xFFFFFFFFFFFFFFFFFFFFFFFFFFFFFFFFFFFFFFFF AND MUL OR SWAP1 SSTORE POP DUP3 PUSH8 0xFFFFFFFFFFFFFFFF AND PUSH1 0xC0 DUP2 PUSH8 0xFFFFFFFFFFFFFFFF AND DUP2 MSTORE POP POP POP POP POP PUSH2 0x226 JUMP JUMPDEST PUSH0 DUP1 REVERT JUMPDEST PUSH0 PUSH8 0xFFFFFFFFFFFFFFFF DUP3 AND SWAP1 POP SWAP2 SWAP1 POP JUMP JUMPDEST PUSH2 0x128 DUP2 PUSH2 0x10C JUMP JUMPDEST DUP2 EQ PUSH2 0x132 JUMPI PUSH0 DUP1 REVERT JUMPDEST POP JUMP JUMPDEST PUSH0 DUP2 MLOAD SWAP1 POP PUSH2 0x143 DUP2 PUSH2 0x11F JUMP JUMPDEST SWAP3 SWAP2 POP POP JUMP JUMPDEST PUSH0 PUSH20 0xFFFFFFFFFFFFFFFFFFFFFFFFFFFFFFFFFFFFFFFF DUP3 AND SWAP1 POP SWAP2 SWAP1 POP JUMP JUMPDEST PUSH0 PUSH2 0x172 DUP3 PUSH2 0x149 JUMP JUMPDEST SWAP1 POP SWAP2 SWAP1 POP JUMP JUMPDEST PUSH2 0x182 DUP2 PUSH2 0x168 JUMP JUMPDEST DUP2 EQ PUSH2 0x18C JUMPI PUSH0 DUP1 REVERT JUMPDEST POP JUMP JUMPDEST PUSH0 DUP2 MLOAD SWAP1 POP PUSH2 0x19D DUP2 PUSH2 0x179 JUMP JUMPDEST SWAP3 SWAP2 POP POP JUMP JUMPDEST PUSH0 DUP2 SWAP1 POP SWAP2 SWAP1 POP JUMP JUMPDEST PUSH2 0x1B5 DUP2 PUSH2 0x1A3 JUMP JUMPDEST DUP2 EQ PUSH2 0x1BF JUMPI PUSH0 DUP1 REVERT JUMPDEST POP JUMP JUMPDEST PUSH0 DUP2 MLOAD SWAP1 POP PUSH2 0x1D0 DUP2 PUSH2 0x1AC JUMP JUMPDEST SWAP3 SWAP2 POP POP JUMP JUMPDEST PUSH0 DUP1 PUSH0 PUSH1 0x60 DUP5 DUP7 SUB SLT ISZERO PUSH2 0x1ED JUMPI PUSH2 0x1EC PUSH2 0x108 JUMP JUMPDEST JUMPDEST PUSH0 PUSH2 0x1FA DUP7 DUP3 DUP8 ADD PUSH2 0x135 JUMP JUMPDEST SWAP4 POP POP PUSH1 0x20 PUSH2 0x20B DUP7 DUP3 DUP8 ADD PUSH2 0x18F JUMP JUMPDEST SWAP3 POP POP PUSH1 0x40 PUSH2 0x21C DUP7 DUP3 DUP8 ADD PUSH2 0x1C2 JUMP JUMPDEST SWAP2 POP POP SWAP3 POP SWAP3 POP SWAP3 JUMP JUMPDEST PUSH1 0x80 MLOAD PUSH1 0xA0 MLOAD PUSH1 0xC0 MLOAD PUSH1 0xE0 MLOAD PUSH2 0x85C PUSH2 0x25F PUSH0 CODECOPY PUSH0 PUSH2 0x218 ADD MSTORE PUSH0 PUSH2 0x239 ADD MSTORE PUSH0 PUSH2 0x1DC ADD MSTORE PUSH0 DUP2 DUP2 PUSH1 0xC4 ADD MSTORE PUSH2 0x118 ADD MSTORE PUSH2 0x85C PUSH0 RETURN INVALID PUSH1 0x80 PUSH1 0x40 MSTORE CALLVALUE DUP1 ISZERO PUSH2 0xF JUMPI PUSH0 DUP1 REVERT JUMPDEST POP PUSH1 0x4 CALLDATASIZE LT PUSH2 0x4A JUMPI PUSH0 CALLDATALOAD PUSH1 0xE0 SHR DUP1 PUSH4 0x1FE543E3 EQ PUSH2 0x4E JUMPI DUP1 PUSH4 0xE0C86289 EQ PUSH2 0x6A JUMPI DUP1 PUSH4 0xE89E106A EQ PUSH2 0x74 JUMPI DUP1 PUSH4 0xF6EAFFC8 EQ PUSH2 0x92 JUMPI JUMPDEST PUSH0 DUP1 REVERT JUMPDEST PUSH2 0x68 PUSH1 0x4 DUP1 CALLDATASIZE SUB DUP2 ADD SWAP1 PUSH2 0x63 SWAP2 SWAP1 PUSH2 0x538 JUMP JUMPDEST PUSH2 0xC2 JUMP JUMPDEST STOP JUMPDEST PUSH2 0x72 PUSH2 0x182 JUMP JUMPDEST STOP JUMPDEST PUSH2 0x7C PUSH2 0x2C8 JUMP JUMPDEST PUSH1 0x40 MLOAD PUSH2 0x89 SWAP2 SWAP1 PUSH2 0x5A1 JUMP JUMPDEST PUSH1 0x40 MLOAD DUP1 SWAP2 SUB SWAP1 RETURN JUMPDEST PUSH2 0xAC PUSH1 0x4 DUP1 CALLDATASIZE SUB DUP2 ADD SWAP1 PUSH2 0xA7 SWAP2 SWAP1 PUSH2 0x5BA JUMP JUMPDEST PUSH2 0x2CE JUMP JUMPDEST PUSH1 0x40 MLOAD PUSH2 0xB9 SWAP2 SWAP1 PUSH2 0x5A1 JUMP JUMPDEST PUSH1 0x40 MLOAD DUP1 SWAP2 SUB SWAP1 RETURN JUMPDEST PUSH32 0x0 PUSH20 0xFFFFFFFFFFFFFFFFFFFFFFFFFFFFFFFFFFFFFFFF AND CALLER PUSH20 0xFFFFFFFFFFFFFFFFFFFFFFFFFFFFFFFFFFFFFFFF AND EQ PUSH2 0x174 JUMPI CALLER PUSH32 0x0 PUSH1 0x40 MLOAD PUSH32 0x1CF993F400000000000000000000000000000000000000000000000000000000 DUP2 MSTORE PUSH1 0x4 ADD PUSH2 0x16B SWAP3 SWAP2 SWAP1 PUSH2 0x624 JUMP JUMPDEST PUSH1 0x40 MLOAD DUP1 SWAP2 SUB SWAP1 REVERT JUMPDEST PUSH2 0x17E DUP3 DUP3 PUSH2 0x2ED JUMP JUMPDEST POP POP JUMP JUMPDEST PUSH1 0x2 PUSH0 SWAP1 SLOAD SWAP1 PUSH2 0x100 EXP SWAP1 DIV PUSH20 0xFFFFFFFFFFFFFFFFFFFFFFFFFFFFFFFFFFFFFFFF AND PUSH20 0xFFFFFFFFFFFFFFFFFFFFFFFFFFFFFFFFFFFFFFFF AND CALLER PUSH20 0xFFFFFFFFFFFFFFFFFFFFFFFFFFFFFFFFFFFFFFFF AND EQ PUSH2 0x1DA JUMPI PUSH0 DUP1 REVERT JUMPDEST PUSH32 0x0 PUSH20 0xFFFFFFFFFFFFFFFFFFFFFFFFFFFFFFFFFFFFFFFF AND PUSH4 0x5D3B1D30 PUSH32 0x0 PUSH32 0x0 PUSH1 0x3 PUSH3 0x186A0 PUSH1 0x2 PUSH1 0x40 MLOAD DUP7 PUSH4 0xFFFFFFFF AND PUSH1 0xE0 SHL DUP2 MSTORE PUSH1 0x4 ADD PUSH2 0x280 SWAP6 SWAP5 SWAP4 SWAP3 SWAP2 SWAP1 PUSH2 0x6BF JUMP JUMPDEST PUSH1 0x20 PUSH1 0x40 MLOAD DUP1 DUP4 SUB DUP2 PUSH0 DUP8 GAS CALL ISZERO DUP1 ISZERO PUSH2 0x29C JUMPI RETURNDATASIZE PUSH0 DUP1 RETURNDATACOPY RETURNDATASIZE PUSH0 REVERT JUMPDEST POP POP POP POP PUSH1 0x40 MLOAD RETURNDATASIZE PUSH1 0x1F NOT PUSH1 0x1F DUP3 ADD AND DUP3 ADD DUP1 PUSH1 0x40 MSTORE POP DUP2 ADD SWAP1 PUSH2 0x2C0 SWAP2 SWAP1 PUSH2 0x724 JUMP JUMPDEST PUSH1 0x1 DUP2 SWAP1 SSTORE POP JUMP JUMPDEST PUSH1 0x1 SLOAD DUP2 JUMP JUMPDEST PUSH0 DUP2 DUP2 SLOAD DUP2 LT PUSH2 0x2DC JUMPI PUSH0 DUP1 REVERT JUMPDEST SWAP1 PUSH0 MSTORE PUSH1 0x20 PUSH0 KECCAK256 ADD PUSH0 SWAP2 POP SWAP1 POP SLOAD DUP2 JUMP JUMPDEST DUP1 PUSH0 SWAP1 DUP1 MLOAD SWAP1 PUSH1 0x20 ADD SWAP1 PUSH2 0x302 SWAP3 SWAP2 SWAP1 PUSH2 0x33E JUMP JUMPDEST POP PUSH32 0xEFB16D61046900DA527008568620FB9F8420E2F5ED4DE3BFBDED5035C9362B0E DUP2 PUSH1 0x40 MLOAD PUSH2 0x332 SWAP2 SWAP1 PUSH2 0x806 JUMP JUMPDEST PUSH1 0x40 MLOAD DUP1 SWAP2 SUB SWAP1 LOG1 POP POP JUMP JUMPDEST DUP3 DUP1 SLOAD DUP3 DUP3 SSTORE SWAP1 PUSH0 MSTORE PUSH1 0x20 PUSH0 KECCAK256 SWAP1 DUP2 ADD SWAP3 DUP3 ISZERO PUSH2 0x378 JUMPI SWAP2 PUSH1 0x20 MUL DUP3 ADD JUMPDEST DUP3 DUP2 GT ISZERO PUSH2 0x377 JUMPI DUP3 MLOAD DUP3 SSTORE SWAP2 PUSH1 0x20 ADD SWAP2 SWAP1 PUSH1 0x1 ADD SWAP1 PUSH2 0x35C JUMP JUMPDEST JUMPDEST POP SWAP1 POP PUSH2 0x385 SWAP2 SWAP1 PUSH2 0x389 JUMP JUMPDEST POP SWAP1 JUMP JUMPDEST JUMPDEST DUP1 DUP3 GT ISZERO PUSH2 0x3A0 JUMPI PUSH0 DUP2 PUSH0 SWAP1 SSTORE POP PUSH1 0x1 ADD PUSH2 0x38A JUMP JUMPDEST POP SWAP1 JUMP JUMPDEST PUSH0 PUSH1 0x40 MLOAD SWAP1 POP SWAP1 JUMP JUMPDEST PUSH0 DUP1 REVERT JUMPDEST PUSH0 DUP1 REVERT JUMPDEST PUSH0 DUP2 SWAP1 POP SWAP2 SWAP1 POP JUMP JUMPDEST PUSH2 0x3C7 DUP2 PUSH2 0x3B5 JUMP JUMPDEST DUP2 EQ PUSH2 0x3D1 JUMPI PUSH0 DUP1 REVERT JUMPDEST POP JUMP JUMPDEST PUSH0 DUP2 CALLDATALOAD SWAP1 POP PUSH2 0x3E2 DUP2 PUSH2 0x3BE JUMP JUMPDEST SWAP3 SWAP2 POP POP JUMP JUMPDEST PUSH0 DUP1 REVERT JUMPDEST PUSH0 PUSH1 0x1F NOT PUSH1 0x1F DUP4 ADD AND SWAP1 POP SWAP2 SWAP1 POP JUMP JUMPDEST PUSH32 0x4E487B7100000000000000000000000000000000000000000000000000000000 PUSH0 MSTORE PUSH1 0x41 PUSH1 0x4 MSTORE PUSH1 0x24 PUSH0 REVERT JUMPDEST PUSH2 0x432 DUP3 PUSH2 0x3EC JUMP JUMPDEST DUP2 ADD DUP2 DUP2 LT PUSH8 0xFFFFFFFFFFFFFFFF DUP3 GT OR ISZERO PUSH2 0x451 JUMPI PUSH2 0x450 PUSH2 0x3FC JUMP JUMPDEST JUMPDEST DUP1 PUSH1 0x40 MSTORE POP POP POP JUMP JUMPDEST PUSH0 PUSH2 0x463 PUSH2 0x3A4 JUMP JUMPDEST SWAP1 POP PUSH2 0x46F DUP3 DUP3 PUSH2 0x429 JUMP JUMPDEST SWAP2 SWAP1 POP JUMP JUMPDEST PUSH0 PUSH8 0xFFFFFFFFFFFFFFFF DUP3 GT ISZERO PUSH2 0x48E JUMPI PUSH2 0x48D PUSH2 0x3FC JUMP JUMPDEST JUMPDEST PUSH1 0x20 DUP3 MUL SWAP1 POP PUSH1 0x20 DUP2 ADD SWAP1 POP SWAP2 SWAP1 POP JUMP JUMPDEST PUSH0 DUP1 REVERT JUMPDEST PUSH0 PUSH2 0x4B5 PUSH2 0x4B0 DUP5 PUSH2 0x474 JUMP JUMPDEST PUSH2 0x45A JUMP JUMPDEST SWAP1 POP DUP1 DUP4 DUP3 MSTORE PUSH1 0x20 DUP3 ADD SWAP1 POP PUSH1 0x20 DUP5 MUL DUP4 ADD DUP6 DUP2 GT ISZERO PUSH2 0x4D8 JUMPI PUSH2 0x4D7 PUSH2 0x49F JUMP JUMPDEST JUMPDEST DUP4 JUMPDEST DUP2 DUP2 LT ISZERO PUSH2 0x501 JUMPI DUP1 PUSH2 0x4ED DUP9 DUP3 PUSH2 0x3D4 JUMP JUMPDEST DUP5 MSTORE PUSH1 0x20 DUP5 ADD SWAP4 POP POP PUSH1 0x20 DUP2 ADD SWAP1 POP PUSH2 0x4DA JUMP JUMPDEST POP POP POP SWAP4 SWAP3 POP POP POP JUMP JUMPDEST PUSH0 DUP3 PUSH1 0x1F DUP4 ADD SLT PUSH2 0x51F JUMPI PUSH2 0x51E PUSH2 0x3E8 JUMP JUMPDEST JUMPDEST DUP2 CALLDATALOAD PUSH2 0x52F DUP5 DUP3 PUSH1 0x20 DUP7 ADD PUSH2 0x4A3 JUMP JUMPDEST SWAP2 POP POP SWAP3 SWAP2 POP POP JUMP JUMPDEST PUSH0 DUP1 PUSH1 0x40 DUP4 DUP6 SUB SLT ISZERO PUSH2 0x54E JUMPI PUSH2 0x54D PUSH2 0x3AD JUMP JUMPDEST JUMPDEST PUSH0 PUSH2 0x55B DUP6 DUP3 DUP7 ADD PUSH2 0x3D4 JUMP JUMPDEST SWAP3 POP POP PUSH1 0x20 DUP4 ADD CALLDATALOAD PUSH8 0xFFFFFFFFFFFFFFFF DUP2 GT ISZERO PUSH2 0x57C JUMPI PUSH2 0x57B PUSH2 0x3B1 JUMP JUMPDEST JUMPDEST PUSH2 0x588 DUP6 DUP3 DUP7 ADD PUSH2 0x50B JUMP JUMPDEST SWAP2 POP POP SWAP3 POP SWAP3 SWAP1 POP JUMP JUMPDEST PUSH2 0x59B DUP2 PUSH2 0x3B5 JUMP JUMPDEST DUP3 MSTORE POP POP JUMP JUMPDEST PUSH0 PUSH1 0x20 DUP3 ADD SWAP1 POP PUSH2 0x5B4 PUSH0 DUP4 ADD DUP5 PUSH2 0x592 JUMP JUMPDEST SWAP3 SWAP2 POP POP JUMP JUMPDEST PUSH0 PUSH1 0x20 DUP3 DUP5 SUB SLT ISZERO PUSH2 0x5CF JUMPI PUSH2 0x5CE PUSH2 0x3AD JUMP JUMPDEST JUMPDEST PUSH0 PUSH2 0x5DC DUP5 DUP3 DUP6 ADD PUSH2 0x3D4 JUMP JUMPDEST SWAP2 POP POP SWAP3 SWAP2 POP POP JUMP JUMPDEST PUSH0 PUSH20 0xFFFFFFFFFFFFFFFFFFFFFFFFFFFFFFFFFFFFFFFF DUP3 AND SWAP1 POP SWAP2 SWAP1 POP JUMP JUMPDEST PUSH0 PUSH2 0x60E DUP3 PUSH2 0x5E5 JUMP JUMPDEST SWAP1 POP SWAP2 SWAP1 POP JUMP JUMPDEST PUSH2 0x61E DUP2 PUSH2 0x604 JUMP JUMPDEST DUP3 MSTORE POP POP JUMP JUMPDEST PUSH0 PUSH1 0x40 DUP3 ADD SWAP1 POP PUSH2 0x637 PUSH0 DUP4 ADD DUP6 PUSH2 0x615 JUMP JUMPDEST PUSH2 0x644 PUSH1 0x20 DUP4 ADD DUP5 PUSH2 0x615 JUMP JUMPDEST SWAP4 SWAP3 POP POP POP JUMP JUMPDEST PUSH0 DUP2 SWAP1 POP SWAP2 SWAP1 POP JUMP JUMPDEST PUSH2 0x65D DUP2 PUSH2 0x64B JUMP JUMPDEST DUP3 MSTORE POP POP JUMP JUMPDEST PUSH0 PUSH8 0xFFFFFFFFFFFFFFFF DUP3 AND SWAP1 POP SWAP2 SWAP1 POP JUMP JUMPDEST PUSH2 0x67F DUP2 PUSH2 0x663 JUMP JUMPDEST DUP3 MSTORE POP POP JUMP JUMPDEST PUSH0 PUSH2 0xFFFF DUP3 AND SWAP1 POP SWAP2 SWAP1 POP JUMP JUMPDEST PUSH2 0x69B DUP2 PUSH2 0x685 JUMP JUMPDEST DUP3 MSTORE POP POP JUMP JUMPDEST PUSH0 PUSH4 0xFFFFFFFF DUP3 AND SWAP1 POP SWAP2 SWAP1 POP JUMP JUMPDEST PUSH2 0x6B9 DUP2 PUSH2 0x6A1 JUMP JUMPDEST DUP3 MSTORE POP POP JUMP JUMPDEST PUSH0 PUSH1 0xA0 DUP3 ADD SWAP1 POP PUSH2 0x6D2 PUSH0 DUP4 ADD DUP9 PUSH2 0x654 JUMP JUMPDEST PUSH2 0x6DF PUSH1 0x20 DUP4 ADD DUP8 PUSH2 0x676 JUMP JUMPDEST PUSH2 0x6EC PUSH1 0x40 DUP4 ADD DUP7 PUSH2 0x692 JUMP JUMPDEST PUSH2 0x6F9 PUSH1 0x60 DUP4 ADD DUP6 PUSH2 0x6B0 JUMP JUMPDEST PUSH2 0x706 PUSH1 0x80 DUP4 ADD DUP5 PUSH2 0x6B0 JUMP JUMPDEST SWAP7 SWAP6 POP POP POP POP POP POP JUMP JUMPDEST PUSH0 DUP2 MLOAD SWAP1 POP PUSH2 0x71E DUP2 PUSH2 0x3BE JUMP JUMPDEST SWAP3 SWAP2 POP POP JUMP JUMPDEST PUSH0 PUSH1 0x20 DUP3 DUP5 SUB SLT ISZERO PUSH2 0x739 JUMPI PUSH2 0x738 PUSH2 0x3AD JUMP JUMPDEST JUMPDEST PUSH0 PUSH2 0x746 DUP5 DUP3 DUP6 ADD PUSH2 0x710 JUMP JUMPDEST SWAP2 POP POP SWAP3 SWAP2 POP POP JUMP JUMPDEST PUSH0 DUP2 MLOAD SWAP1 POP SWAP2 SWAP1 POP JUMP JUMPDEST PUSH0 DUP3 DUP3 MSTORE PUSH1 0x20 DUP3 ADD SWAP1 POP SWAP3 SWAP2 POP POP JUMP JUMPDEST PUSH0 DUP2 SWAP1 POP PUSH1 0x20 DUP3 ADD SWAP1 POP SWAP2 SWAP1 POP JUMP JUMPDEST PUSH2 0x781 DUP2 PUSH2 0x3B5 JUMP JUMPDEST DUP3 MSTORE POP POP JUMP JUMPDEST PUSH0 PUSH2 0x792 DUP4 DUP4 PUSH2 0x778 JUMP JUMPDEST PUSH1 0x20 DUP4 ADD SWAP1 POP SWAP3 SWAP2 POP POP JUMP JUMPDEST PUSH0 PUSH1 0x20 DUP3 ADD SWAP1 POP SWAP2 SWAP1 POP JUMP JUMPDEST PUSH0 PUSH2 0x7B4 DUP3 PUSH2 0x74F JUMP JUMPDEST PUSH2 0x7BE DUP2 DUP6 PUSH2 0x759 JUMP JUMPDEST SWAP4 POP PUSH2 0x7C9 DUP4 PUSH2 0x769 JUMP JUMPDEST DUP1 PUSH0 JUMPDEST DUP4 DUP2 LT ISZERO PUSH2 0x7F9 JUMPI DUP2 MLOAD PUSH2 0x7E0 DUP9 DUP3 PUSH2 0x787 JUMP JUMPDEST SWAP8 POP PUSH2 0x7EB DUP4 PUSH2 0x79E JUMP JUMPDEST SWAP3 POP POP PUSH1 0x1 DUP2 ADD SWAP1 POP PUSH2 0x7CC JUMP JUMPDEST POP DUP6 SWAP4 POP POP POP POP SWAP3 SWAP2 POP POP JUMP JUMPDEST PUSH0 PUSH1 0x20 DUP3 ADD SWAP1 POP DUP2 DUP2 SUB PUSH0 DUP4 ADD MSTORE PUSH2 0x81E DUP2 DUP5 PUSH2 0x7AA JUMP JUMPDEST SWAP1 POP SWAP3 SWAP2 POP POP JUMP INVALID LOG2 PUSH5 0x6970667358 0x22 SLT KECCAK256 SIGNEXTEND REVERT 0xD4 0xB1 PUSH20 0x37EEC19B8173CE516E2423EAF8F6CB38788C00B7 0xB4 NUMBER 0xC7 PUSH20 0x2FDC6764736F6C634300081A0033A26469706673 PC 0x22 SLT KECCAK256 0xE5 0xCC 0xC8 CREATE2 0xD6 PUSH22 0xAA317073EEB8133BDB1C11EB6F7322587BD7021C373 DUP8 SHL DUP13 SELFDESTRUCT PUSH5 0x736F6C6343 STOP ADDMOD BYTE STOP CALLER "
		},
		"gasEstimates": {
			"creation": {
				"codeDepositCost": "6811800",
				"executionCost": "82136",
				"totalCost": "6893936"
			},
			"external": {
				"addMethodology(address,string)": "infinite",
				"addProponent(string,string,string)": "infinite",
				"apiConsumer()": "infinite",
				"assignVerifiersValidate(uint256)": "infinite",
				"assignVerifiersValidateTest(uint256)": "159222",
				"assignVerifiersVerify(uint256)": "infinite",
				"assignVerifiersVerifyTest(uint256)": "159246",
				"authoriseVerifiers(address,string,string)": "infinite",
				"calculateEmissions(uint256)": "infinite",
				"calculateEmissionsTest(uint256,uint256)": "infinite",
				"deployAPI()": "infinite",
				"deployVRF(uint64,address,bytes32)": "infinite",
				"getProject(uint256)": "infinite",
				"getProponent(address)": "infinite",
				"getVerifier(address)": "infinite",
				"owner()": "2595",
				"postDocs(bytes32)": "46970",
				"projectValidators(uint256,uint256)": "infinite",
				"projectVerifiers(uint256,uint256)": "infinite",
				"projects(uint256)": "infinite",
				"proponents(address)": "infinite",
				"removeMethodology(address,string)": "infinite",
				"removeVerifiers(address)": "infinite",
				"submitProject(string,uint256,uint256,string,uint256,string,string)": "infinite",
				"validateProject(uint256,bool,string)": "infinite",
				"verifierList(uint256)": "5033",
				"verifierResponseValidate(address,uint256)": "infinite",
				"verifierResponseVerify(address,uint256)": "infinite",
				"verifiers(address)": "infinite",
				"verifyDocs(address,bool)": "27282",
				"verifyProject(uint256,bool,string)": "infinite",
				"vrfContract()": "infinite"
			},
			"internal": {
				"checkValidate(uint256)": "64090",
				"checkVerify(uint256)": "64090"
			}
		},
		"methodIdentifiers": {
			"addMethodology(address,string)": "53fe56e6",
			"addProponent(string,string,string)": "2f77b323",
			"apiConsumer()": "242ab021",
			"assignVerifiersValidate(uint256)": "4aec4d48",
			"assignVerifiersValidateTest(uint256)": "9d012aa3",
			"assignVerifiersVerify(uint256)": "e8ae7864",
			"assignVerifiersVerifyTest(uint256)": "0ce149c9",
			"authoriseVerifiers(address,string,string)": "b28cda0b",
			"calculateEmissions(uint256)": "40b5c69b",
			"calculateEmissionsTest(uint256,uint256)": "a66dc947",
			"deployAPI()": "51d3c99b",
			"deployVRF(uint64,address,bytes32)": "8e0415f1",
			"getProject(uint256)": "f0f3f2c8",
			"getProponent(address)": "d4aef9ba",
			"getVerifier(address)": "059ce95d",
			"owner()": "8da5cb5b",
			"postDocs(bytes32)": "444993f1",
			"projectValidators(uint256,uint256)": "19840322",
			"projectVerifiers(uint256,uint256)": "dbff65e8",
			"projects(uint256)": "107046bd",
			"proponents(address)": "ddfc5cfe",
			"removeMethodology(address,string)": "9af4cf7a",
			"removeVerifiers(address)": "f945c7e9",
			"submitProject(string,uint256,uint256,string,uint256,string,string)": "9df89f2d",
			"validateProject(uint256,bool,string)": "0916b099",
			"verifierList(uint256)": "57762ddd",
			"verifierResponseValidate(address,uint256)": "45273074",
			"verifierResponseVerify(address,uint256)": "f44da448",
			"verifiers(address)": "6c824487",
			"verifyDocs(address,bool)": "39a411e3",
			"verifyProject(uint256,bool,string)": "57f84dd7",
			"vrfContract()": "6858a3f3"
		}
	},
	"abi": [
		{
			"inputs": [],
			"stateMutability": "nonpayable",
			"type": "constructor"
		},
		{
			"inputs": [
				{
					"internalType": "address",
					"name": "addr",
					"type": "address"
				},
				{
					"internalType": "string",
					"name": "methodology",
					"type": "string"
				}
			],
			"name": "addMethodology",
			"outputs": [],
			"stateMutability": "nonpayable",
			"type": "function"
		},
		{
			"inputs": [
				{
					"internalType": "string",
					"name": "_name",
					"type": "string"
				},
				{
					"internalType": "string",
					"name": "_email",
					"type": "string"
				},
				{
					"internalType": "string",
					"name": "_location",
					"type": "string"
				}
			],
			"name": "addProponent",
			"outputs": [
				{
					"internalType": "uint256",
					"name": "",
					"type": "uint256"
				}
			],
			"stateMutability": "nonpayable",
			"type": "function"
		},
		{
			"inputs": [],
			"name": "apiConsumer",
			"outputs": [
				{
					"internalType": "contract APIConsumer",
					"name": "",
					"type": "address"
				}
			],
			"stateMutability": "view",
			"type": "function"
		},
		{
			"inputs": [
				{
					"internalType": "uint256",
					"name": "projectId",
					"type": "uint256"
				}
			],
			"name": "assignVerifiersValidate",
			"outputs": [],
			"stateMutability": "nonpayable",
			"type": "function"
		},
		{
			"inputs": [
				{
					"internalType": "uint256",
					"name": "projectId",
					"type": "uint256"
				}
			],
			"name": "assignVerifiersValidateTest",
			"outputs": [],
			"stateMutability": "nonpayable",
			"type": "function"
		},
		{
			"inputs": [
				{
					"internalType": "uint256",
					"name": "projectId",
					"type": "uint256"
				}
			],
			"name": "assignVerifiersVerify",
			"outputs": [],
			"stateMutability": "nonpayable",
			"type": "function"
		},
		{
			"inputs": [
				{
					"internalType": "uint256",
					"name": "projectId",
					"type": "uint256"
				}
			],
			"name": "assignVerifiersVerifyTest",
			"outputs": [],
			"stateMutability": "nonpayable",
			"type": "function"
		},
		{
			"inputs": [
				{
					"internalType": "address",
					"name": "_addr",
					"type": "address"
				},
				{
					"internalType": "string",
					"name": "_name",
					"type": "string"
				},
				{
					"internalType": "string",
					"name": "_methodologies",
					"type": "string"
				}
			],
			"name": "authoriseVerifiers",
			"outputs": [
				{
					"internalType": "uint256",
					"name": "",
					"type": "uint256"
				}
			],
			"stateMutability": "nonpayable",
			"type": "function"
		},
		{
			"inputs": [
				{
					"internalType": "uint256",
					"name": "projectId",
					"type": "uint256"
				}
			],
			"name": "calculateEmissions",
			"outputs": [],
			"stateMutability": "nonpayable",
			"type": "function"
		},
		{
			"inputs": [
				{
					"internalType": "uint256",
					"name": "projectId",
					"type": "uint256"
				},
				{
					"internalType": "uint256",
					"name": "kWh",
					"type": "uint256"
				}
			],
			"name": "calculateEmissionsTest",
			"outputs": [],
			"stateMutability": "nonpayable",
			"type": "function"
		},
		{
			"inputs": [],
			"name": "deployAPI",
			"outputs": [],
			"stateMutability": "nonpayable",
			"type": "function"
		},
		{
			"inputs": [
				{
					"internalType": "uint64",
					"name": "subscriptionId",
					"type": "uint64"
				},
				{
					"internalType": "address",
					"name": "vrfCoordinator",
					"type": "address"
				},
				{
					"internalType": "bytes32",
					"name": "keyHash",
					"type": "bytes32"
				}
			],
			"name": "deployVRF",
			"outputs": [],
			"stateMutability": "nonpayable",
			"type": "function"
		},
		{
			"inputs": [
				{
					"internalType": "uint256",
					"name": "projectId",
					"type": "uint256"
				}
			],
			"name": "getProject",
			"outputs": [
				{
					"components": [
						{
							"internalType": "uint256",
							"name": "projectId",
							"type": "uint256"
						},
						{
							"internalType": "address",
							"name": "proponent",
							"type": "address"
						},
						{
							"internalType": "string",
							"name": "projectDocs",
							"type": "string"
						},
						{
							"internalType": "uint256",
							"name": "startDate",
							"type": "uint256"
						},
						{
							"internalType": "uint256",
							"name": "creditingPeriod",
							"type": "uint256"
						},
						{
							"internalType": "string",
							"name": "location",
							"type": "string"
						},
						{
							"internalType": "uint256",
							"name": "removalGHG",
							"type": "uint256"
						},
						{
							"internalType": "string",
							"name": "projectType",
							"type": "string"
						},
						{
							"internalType": "string",
							"name": "methodology",
							"type": "string"
						},
						{
							"components": [
								{
									"internalType": "address",
									"name": "verifier",
									"type": "address"
								},
								{
									"internalType": "bool",
									"name": "response",
									"type": "bool"
								},
								{
									"internalType": "string",
									"name": "reason",
									"type": "string"
								}
							],
							"internalType": "struct carbon.Response[]",
							"name": "validateResponse",
							"type": "tuple[]"
						},
						{
							"components": [
								{
									"internalType": "address",
									"name": "verifier",
									"type": "address"
								},
								{
									"internalType": "bool",
									"name": "response",
									"type": "bool"
								},
								{
									"internalType": "string",
									"name": "reason",
									"type": "string"
								}
							],
							"internalType": "struct carbon.Response[]",
							"name": "verifyResponse",
							"type": "tuple[]"
						},
						{
							"internalType": "enum carbon.projectState",
							"name": "proState",
							"type": "uint8"
						},
						{
							"internalType": "bool",
							"name": "issueCredit",
							"type": "bool"
						}
					],
					"internalType": "struct carbon.Project",
					"name": "",
					"type": "tuple"
				}
			],
			"stateMutability": "view",
			"type": "function"
		},
		{
			"inputs": [
				{
					"internalType": "address",
					"name": "addr",
					"type": "address"
				}
			],
			"name": "getProponent",
			"outputs": [
				{
					"components": [
						{
							"internalType": "address",
							"name": "proponent",
							"type": "address"
						},
						{
							"internalType": "uint256",
							"name": "projectId",
							"type": "uint256"
						},
						{
							"components": [
								{
									"internalType": "bytes32",
									"name": "docHash",
									"type": "bytes32"
								},
								{
									"internalType": "bool",
									"name": "verified",
									"type": "bool"
								}
							],
							"internalType": "struct carbon.Documents",
							"name": "docs",
							"type": "tuple"
						},
						{
							"internalType": "string",
							"name": "name",
							"type": "string"
						},
						{
							"internalType": "string",
							"name": "email",
							"type": "string"
						},
						{
							"internalType": "string",
							"name": "location",
							"type": "string"
						}
					],
					"internalType": "struct carbon.Proponent",
					"name": "",
					"type": "tuple"
				}
			],
			"stateMutability": "view",
			"type": "function"
		},
		{
			"inputs": [
				{
					"internalType": "address",
					"name": "addr",
					"type": "address"
				}
			],
			"name": "getVerifier",
			"outputs": [
				{
					"internalType": "string",
					"name": "",
					"type": "string"
				}
			],
			"stateMutability": "view",
			"type": "function"
		},
		{
			"inputs": [],
			"name": "owner",
			"outputs": [
				{
					"internalType": "address",
					"name": "",
					"type": "address"
				}
			],
			"stateMutability": "view",
			"type": "function"
		},
		{
			"inputs": [
				{
					"internalType": "bytes32",
					"name": "docHash",
					"type": "bytes32"
				}
			],
			"name": "postDocs",
			"outputs": [],
			"stateMutability": "nonpayable",
			"type": "function"
		},
		{
			"inputs": [
				{
					"internalType": "uint256",
					"name": "",
					"type": "uint256"
				},
				{
					"internalType": "uint256",
					"name": "",
					"type": "uint256"
				}
			],
			"name": "projectValidators",
			"outputs": [
				{
					"internalType": "address",
					"name": "",
					"type": "address"
				}
			],
			"stateMutability": "view",
			"type": "function"
		},
		{
			"inputs": [
				{
					"internalType": "uint256",
					"name": "",
					"type": "uint256"
				},
				{
					"internalType": "uint256",
					"name": "",
					"type": "uint256"
				}
			],
			"name": "projectVerifiers",
			"outputs": [
				{
					"internalType": "address",
					"name": "",
					"type": "address"
				}
			],
			"stateMutability": "view",
			"type": "function"
		},
		{
			"inputs": [
				{
					"internalType": "uint256",
					"name": "",
					"type": "uint256"
				}
			],
			"name": "projects",
			"outputs": [
				{
					"internalType": "uint256",
					"name": "projectId",
					"type": "uint256"
				},
				{
					"internalType": "address",
					"name": "proponent",
					"type": "address"
				},
				{
					"internalType": "string",
					"name": "projectDocs",
					"type": "string"
				},
				{
					"internalType": "uint256",
					"name": "startDate",
					"type": "uint256"
				},
				{
					"internalType": "uint256",
					"name": "creditingPeriod",
					"type": "uint256"
				},
				{
					"internalType": "string",
					"name": "location",
					"type": "string"
				},
				{
					"internalType": "uint256",
					"name": "removalGHG",
					"type": "uint256"
				},
				{
					"internalType": "string",
					"name": "projectType",
					"type": "string"
				},
				{
					"internalType": "string",
					"name": "methodology",
					"type": "string"
				},
				{
					"internalType": "enum carbon.projectState",
					"name": "proState",
					"type": "uint8"
				},
				{
					"internalType": "bool",
					"name": "issueCredit",
					"type": "bool"
				}
			],
			"stateMutability": "view",
			"type": "function"
		},
		{
			"inputs": [
				{
					"internalType": "address",
					"name": "",
					"type": "address"
				}
			],
			"name": "proponents",
			"outputs": [
				{
					"internalType": "address",
					"name": "proponent",
					"type": "address"
				},
				{
					"internalType": "uint256",
					"name": "projectId",
					"type": "uint256"
				},
				{
					"components": [
						{
							"internalType": "bytes32",
							"name": "docHash",
							"type": "bytes32"
						},
						{
							"internalType": "bool",
							"name": "verified",
							"type": "bool"
						}
					],
					"internalType": "struct carbon.Documents",
					"name": "docs",
					"type": "tuple"
				},
				{
					"internalType": "string",
					"name": "name",
					"type": "string"
				},
				{
					"internalType": "string",
					"name": "email",
					"type": "string"
				},
				{
					"internalType": "string",
					"name": "location",
					"type": "string"
				}
			],
			"stateMutability": "view",
			"type": "function"
		},
		{
			"inputs": [
				{
					"internalType": "address",
					"name": "addr",
					"type": "address"
				},
				{
					"internalType": "string",
					"name": "methodology",
					"type": "string"
				}
			],
			"name": "removeMethodology",
			"outputs": [],
			"stateMutability": "nonpayable",
			"type": "function"
		},
		{
			"inputs": [
				{
					"internalType": "address",
					"name": "addr",
					"type": "address"
				}
			],
			"name": "removeVerifiers",
			"outputs": [
				{
					"internalType": "uint256",
					"name": "",
					"type": "uint256"
				}
			],
			"stateMutability": "nonpayable",
			"type": "function"
		},
		{
			"inputs": [
				{
					"internalType": "string",
					"name": "_projectDocs",
					"type": "string"
				},
				{
					"internalType": "uint256",
					"name": "_startDate",
					"type": "uint256"
				},
				{
					"internalType": "uint256",
					"name": "_creditingPeriod",
					"type": "uint256"
				},
				{
					"internalType": "string",
					"name": "_location",
					"type": "string"
				},
				{
					"internalType": "uint256",
					"name": "_removalGHG",
					"type": "uint256"
				},
				{
					"internalType": "string",
					"name": "_projectType",
					"type": "string"
				},
				{
					"internalType": "string",
					"name": "_methodology",
					"type": "string"
				}
			],
			"name": "submitProject",
			"outputs": [
				{
					"internalType": "uint256",
					"name": "",
					"type": "uint256"
				}
			],
			"stateMutability": "nonpayable",
			"type": "function"
		},
		{
			"inputs": [
				{
					"internalType": "uint256",
					"name": "projectId",
					"type": "uint256"
				},
				{
					"internalType": "bool",
					"name": "response",
					"type": "bool"
				},
				{
					"internalType": "string",
					"name": "reason",
					"type": "string"
				}
			],
			"name": "validateProject",
			"outputs": [
				{
					"internalType": "uint256",
					"name": "",
					"type": "uint256"
				}
			],
			"stateMutability": "nonpayable",
			"type": "function"
		},
		{
			"inputs": [
				{
					"internalType": "uint256",
					"name": "",
					"type": "uint256"
				}
			],
			"name": "verifierList",
			"outputs": [
				{
					"internalType": "address",
					"name": "",
					"type": "address"
				}
			],
			"stateMutability": "view",
			"type": "function"
		},
		{
			"inputs": [
				{
					"internalType": "address",
					"name": "addr",
					"type": "address"
				},
				{
					"internalType": "uint256",
					"name": "projectId",
					"type": "uint256"
				}
			],
			"name": "verifierResponseValidate",
			"outputs": [
				{
					"internalType": "bool",
					"name": "x",
					"type": "bool"
				}
			],
			"stateMutability": "view",
			"type": "function"
		},
		{
			"inputs": [
				{
					"internalType": "address",
					"name": "addr",
					"type": "address"
				},
				{
					"internalType": "uint256",
					"name": "projectId",
					"type": "uint256"
				}
			],
			"name": "verifierResponseVerify",
			"outputs": [
				{
					"internalType": "bool",
					"name": "x",
					"type": "bool"
				}
			],
			"stateMutability": "view",
			"type": "function"
		},
		{
			"inputs": [
				{
					"internalType": "address",
					"name": "",
					"type": "address"
				}
			],
			"name": "verifiers",
			"outputs": [
				{
					"internalType": "string",
					"name": "name",
					"type": "string"
				}
			],
			"stateMutability": "view",
			"type": "function"
		},
		{
			"inputs": [
				{
					"internalType": "address",
					"name": "proponent",
					"type": "address"
				},
				{
					"internalType": "bool",
					"name": "response",
					"type": "bool"
				}
			],
			"name": "verifyDocs",
			"outputs": [],
			"stateMutability": "nonpayable",
			"type": "function"
		},
		{
			"inputs": [
				{
					"internalType": "uint256",
					"name": "projectId",
					"type": "uint256"
				},
				{
					"internalType": "bool",
					"name": "response",
					"type": "bool"
				},
				{
					"internalType": "string",
					"name": "reason",
					"type": "string"
				}
			],
			"name": "verifyProject",
			"outputs": [
				{
					"internalType": "uint256",
					"name": "",
					"type": "uint256"
				}
			],
			"stateMutability": "nonpayable",
			"type": "function"
		},
		{
			"inputs": [],
			"name": "vrfContract",
			"outputs": [
				{
					"internalType": "contract vrf",
					"name": "",
					"type": "address"
				}
			],
			"stateMutability": "view",
			"type": "function"
		}
	]
}