{
	"data": {
		"bytecode": {
			"linkReferences": {},
			"object": "6080604052348015600e575f5ffd5b506152ee8061001c5f395ff3fe608060405260043610610089575f3560e01c8063775c300c11610058578063775c300c14610cba578063ac1eff6814610cd0578063cab41e1114610d0e578063d29709fb14610d2a578063ddfc5cfe14610d4657610bf5565b8063242ab02114610bf95780632e3803c614610c2357806335aa2e4414610c3f5780634ec508f914610c7d57610bf5565b36610bf5575f5f5f9054906101000a900473ffffffffffffffffffffffffffffffffffffffff1673ffffffffffffffffffffffffffffffffffffffff16632adb9e3c60016040518263ffffffff1660e01b81526004016100e99190611956565b6020604051808303815f875af1158015610105573d5f5f3e3d5ffd5b505050506040513d601f19601f8201168201806040525081019061012991906119b3565b5f1c90507fe0f4316f8b040ae9a9c9512bbf2ee2472799224c174e43af12d310ecfacc01363360405161015c9190611a77565b60405180910390a15f6040518060600160405280735b38da6a701c568545dcfcb03fcb875f56beddc473ffffffffffffffffffffffffffffffffffffffff16815260200160011515815260200160405180602001604052805f8152508152509050600281908060018154018082558091505060019003905f5260205f2090600202015f909190919091505f820151815f015f6101000a81548173ffffffffffffffffffffffffffffffffffffffff021916908373ffffffffffffffffffffffffffffffffffffffff1602179055506020820151815f0160146101000a81548160ff021916908315150217905550604082015181600101908161025e9190611cce565b505050600381908060018154018082558091505060019003905f5260205f2090600202015f909190919091505f820151815f015f6101000a81548173ffffffffffffffffffffffffffffffffffffffff021916908373ffffffffffffffffffffffffffffffffffffffff1602179055506020820151815f0160146101000a81548160ff02191690831515021790555060408201518160010190816103029190611cce565b5050505f604051806060016040528073ab8483f64d9c6d1ecf9b849ae677dd3315835cb273ffffffffffffffffffffffffffffffffffffffff16815260200160011515815260200160405180602001604052805f8152508152509050600281908060018154018082558091505060019003905f5260205f2090600202015f909190919091505f820151815f015f6101000a81548173ffffffffffffffffffffffffffffffffffffffff021916908373ffffffffffffffffffffffffffffffffffffffff1602179055506020820151815f0160146101000a81548160ff02191690831515021790555060408201518160010190816103ff9190611cce565b505050600381908060018154018082558091505060019003905f5260205f2090600202015f909190919091505f820151815f015f6101000a81548173ffffffffffffffffffffffffffffffffffffffff021916908373ffffffffffffffffffffffffffffffffffffffff1602179055506020820151815f0160146101000a81548160ff02191690831515021790555060408201518160010190816104a39190611cce565b5050505f6040518060600160405280734b20993bc481177ec7e8f571cecae8a9e22c02db73ffffffffffffffffffffffffffffffffffffffff16815260200160011515815260200160405180602001604052805f8152508152509050600281908060018154018082558091505060019003905f5260205f2090600202015f909190919091505f820151815f015f6101000a81548173ffffffffffffffffffffffffffffffffffffffff021916908373ffffffffffffffffffffffffffffffffffffffff1602179055506020820151815f0160146101000a81548160ff02191690831515021790555060408201518160010190816105a09190611cce565b505050600381908060018154018082558091505060019003905f5260205f2090600202015f909190919091505f820151815f015f6101000a81548173ffffffffffffffffffffffffffffffffffffffff021916908373ffffffffffffffffffffffffffffffffffffffff1602179055506020820151815f0160146101000a81548160ff02191690831515021790555060408201518160010190816106449190611cce565b5050505f604051806101a0016040528063499602d281526020013373ffffffffffffffffffffffffffffffffffffffff16815260200160405180602001604052805f81525081526020016001815260200162069780815260200160405180602001604052805f81525081526020016901d9ca7a480674860000815260200160405180602001604052805f815250815260200160405180602001604052805f81525081526020016002805480602002602001604051908101604052809291908181526020015f905b82821015610839578382905f5260205f2090600202016040518060600160405290815f82015f9054906101000a900473ffffffffffffffffffffffffffffffffffffffff1673ffffffffffffffffffffffffffffffffffffffff1673ffffffffffffffffffffffffffffffffffffffff1681526020015f820160149054906101000a900460ff161515151581526020016001820180546107aa90611b07565b80601f01602080910402602001604051908101604052809291908181526020018280546107d690611b07565b80156108215780601f106107f857610100808354040283529160200191610821565b820191905f5260205f20905b81548152906001019060200180831161080457829003601f168201915b5050505050815250508152602001906001019061070b565b5050505081526020016003805480602002602001604051908101604052809291908181526020015f905b82821015610991578382905f5260205f2090600202016040518060600160405290815f82015f9054906101000a900473ffffffffffffffffffffffffffffffffffffffff1673ffffffffffffffffffffffffffffffffffffffff1673ffffffffffffffffffffffffffffffffffffffff1681526020015f820160149054906101000a900460ff1615151515815260200160018201805461090290611b07565b80601f016020809104026020016040519081016040528092919081815260200182805461092e90611b07565b80156109795780601f1061095057610100808354040283529160200191610979565b820191905f5260205f20905b81548152906001019060200180831161095c57829003601f168201915b50505050508152505081526020019060010190610863565b505050508152602001600360048111156109ae576109ad611d9d565b5b81526020016001151581525090505f60405180608001604052803373ffffffffffffffffffffffffffffffffffffffff1681526020016040518060400160405280600381526020017f53616d00000000000000000000000000000000000000000000000000000000008152508152602001600a8152602001662386f26fc1000081525090507f135290006f1871309577d248cf00619459a79b4a735638108a2bb080319c90d681602001518260600151604051610a6c929190611e2f565b60405180910390a160044710610bbd575f5f5f9054906101000a900473ffffffffffffffffffffffffffffffffffffffff1673ffffffffffffffffffffffffffffffffffffffff1663c618a1e46040518163ffffffff1660e01b8152600401602060405180830381865afa158015610ae6573d5f5f3e3d5ffd5b505050506040513d601f19601f82011682018060405250810190610b0a9190611e87565b90505f5f5f9054906101000a900473ffffffffffffffffffffffffffffffffffffffff1673ffffffffffffffffffffffffffffffffffffffff16632adb9e3c60016040518263ffffffff1660e01b8152600401610b679190611956565b6020604051808303815f875af1158015610b83573d5f5f3e3d5ffd5b505050506040513d601f19601f82011682018060405250810190610ba791906119b3565b5f1c9050610bb6848484610d85565b5050610bf3565b7fdb42f09d5a5cb193ea3eae569c8ce2e3a5c8d8b68aadbe1a637f44d07f67bc17604051610bea90611efc565b60405180910390a15b005b5f5ffd5b348015610c04575f5ffd5b50610c0d611313565b604051610c1a9190611f6c565b60405180910390f35b610c3d6004803603810190610c389190611fc0565b611337565b005b348015610c4a575f5ffd5b50610c656004803603810190610c609190611fff565b61147c565b604051610c7493929190612053565b60405180910390f35b348015610c88575f5ffd5b50610ca36004803603810190610c9e9190611fff565b611562565b604051610cb192919061208f565b60405180910390f35b348015610cc5575f5ffd5b50610cce611631565b005b348015610cdb575f5ffd5b50610cf66004803603810190610cf19190611fff565b611697565b604051610d0593929190612053565b60405180910390f35b610d286004803603810190610d2391906125d7565b610d85565b005b610d446004803603810190610d3f919061265f565b61177d565b005b348015610d51575f5ffd5b50610d6c6004803603810190610d6791906126c7565b61182d565b604051610d7c94939291906126f2565b60405180910390f35b5f5f610d948460400151611562565b915091507f135290006f1871309577d248cf00619459a79b4a735638108a2bb080319c90d66001604051610dc89190612786565b60405180910390a160036004811115610de457610de3611d9d565b5b8561016001516004811115610dfc57610dfb611d9d565b5b03610fd2577f135290006f1871309577d248cf00619459a79b4a735638108a2bb080319c90d66001604051610e3191906127fc565b60405180910390a1610e5873cbd38ada2d31c7071e041fc8f8c1da9df9c76dd4600161177d565b600184604001818151610e6b9190612855565b915081815250505f5f5f9054906101000a900473ffffffffffffffffffffffffffffffffffffffff1673ffffffffffffffffffffffffffffffffffffffff1663c618a1e46040518163ffffffff1660e01b8152600401602060405180830381865afa158015610edc573d5f5f3e3d5ffd5b505050506040513d601f19601f82011682018060405250810190610f009190611e87565b90507f135290006f1871309577d248cf00619459a79b4a735638108a2bb080319c90d684604051610f3191906128d2565b60405180910390a17f135290006f1871309577d248cf00619459a79b4a735638108a2bb080319c90d681604051610f689190612948565b60405180910390a1808403610fcc57610f9673cbd38ada2d31c7071e041fc8f8c1da9df9c76dd4600161177d565b7fdb42f09d5a5cb193ea3eae569c8ce2e3a5c8d8b68aadbe1a637f44d07f67bc17604051610fc3906129be565b60405180910390a15b50611259565b600480811115610fe557610fe4611d9d565b5b8561016001516004811115610ffd57610ffc611d9d565b5b03611258575f5f5f9054906101000a900473ffffffffffffffffffffffffffffffffffffffff1673ffffffffffffffffffffffffffffffffffffffff1663c618a1e46040518163ffffffff1660e01b8152600401602060405180830381865afa15801561106c573d5f5f3e3d5ffd5b505050506040513d601f19601f820116820180604052508101906110909190611e87565b905080840361123c576110de8661014001515f815181106110b4576110b36129dc565b5b60200260200101515f015160036107d0856110cf9190612855565b6110d99190612a36565b61177d565b6111248661014001516001815181106110fa576110f96129dc565b5b60200260200101515f015160036107d0856111159190612855565b61111f9190612a36565b61177d565b61116a8661014001516002815181106111405761113f6129dc565b5b60200260200101515f015160036107d08561115b9190612855565b6111659190612a36565b61177d565b6111af8661012001515f81518110611185576111846129dc565b5b60200260200101515f015160036107d0856111a09190612855565b6111aa9190612a36565b61177d565b6111f58661012001516001815181106111cb576111ca6129dc565b5b60200260200101515f015160036107d0856111e69190612855565b6111f09190612a36565b61177d565b61123b866101200151600281518110611211576112106129dc565b5b60200260200101515f015160036107d08561122c9190612855565b6112369190612a36565b61177d565b5b60018560400181815161124f9190612a66565b91508181525050505b5b611265845f0151611337565b61128373cbd38ada2d31c7071e041fc8f8c1da9df9c76dd44761177d565b7f135290006f1871309577d248cf00619459a79b4a735638108a2bb080319c90d684606001516040516112b69190612ae3565b60405180910390a17f135290006f1871309577d248cf00619459a79b4a735638108a2bb080319c90d63373ffffffffffffffffffffffffffffffffffffffff16316040516113049190612b59565b60405180910390a15050505050565b5f5f9054906101000a900473ffffffffffffffffffffffffffffffffffffffff1681565b5f60015f8373ffffffffffffffffffffffffffffffffffffffff1673ffffffffffffffffffffffffffffffffffffffff1681526020019081526020015f2060020154036113d9576001805f8373ffffffffffffffffffffffffffffffffffffffff1673ffffffffffffffffffffffffffffffffffffffff1681526020019081526020015f206002015f8282546113cd9190612855565b92505081905550611479565b600a60015f8373ffffffffffffffffffffffffffffffffffffffff1673ffffffffffffffffffffffffffffffffffffffff1681526020019081526020015f206002015403611478576001805f8373ffffffffffffffffffffffffffffffffffffffff1673ffffffffffffffffffffffffffffffffffffffff1681526020019081526020015f206002015f8282546114709190612a66565b925050819055505b5b50565b6002818154811061148b575f80fd5b905f5260205f2090600202015f91509050805f015f9054906101000a900473ffffffffffffffffffffffffffffffffffffffff1690805f0160149054906101000a900460ff16908060010180546114e190611b07565b80601f016020809104026020016040519081016040528092919081815260200182805461150d90611b07565b80156115585780601f1061152f57610100808354040283529160200191611558565b820191905f5260205f20905b81548152906001019060200180831161153b57829003601f168201915b5050505050905083565b5f5f5f6005846115729190612b85565b6103e861157f9190612a36565b90505f816103e86115909190612a66565b90507f135290006f1871309577d248cf00619459a79b4a735638108a2bb080319c90d66103e8836115c19190612855565b6040516115ce9190612c36565b60405180910390a17f135290006f1871309577d248cf00619459a79b4a735638108a2bb080319c90d63373ffffffffffffffffffffffffffffffffffffffff163160405161161c9190612b59565b60405180910390a18181935093505050915091565b60405161163d906118fe565b604051809103905ff080158015611656573d5f5f3e3d5ffd5b505f5f6101000a81548173ffffffffffffffffffffffffffffffffffffffff021916908373ffffffffffffffffffffffffffffffffffffffff160217905550565b600381815481106116a6575f80fd5b905f5260205f2090600202015f91509050805f015f9054906101000a900473ffffffffffffffffffffffffffffffffffffffff1690805f0160149054906101000a900460ff16908060010180546116fc90611b07565b80601f016020809104026020016040519081016040528092919081815260200182805461172890611b07565b80156117735780601f1061174a57610100808354040283529160200191611773565b820191905f5260205f20905b81548152906001019060200180831161175657829003601f168201915b5050505050905083565b5f5f8373ffffffffffffffffffffffffffffffffffffffff16836040516117a390612c8f565b5f6040518083038185875af1925050503d805f81146117dd576040519150601f19603f3d011682016040523d82523d5f602084013e6117e2565b606091505b509150915081611827576040517f08c379a000000000000000000000000000000000000000000000000000000000815260040161181e90612d13565b60405180910390fd5b50505050565b6001602052805f5260405f205f91509050805f015f9054906101000a900473ffffffffffffffffffffffffffffffffffffffff169080600101805461187190611b07565b80601f016020809104026020016040519081016040528092919081815260200182805461189d90611b07565b80156118e85780601f106118bf576101008083540402835291602001916118e8565b820191905f5260205f20905b8154815290600101906020018083116118cb57829003601f168201915b5050505050908060020154908060030154905084565b61258780612d3283390190565b5f819050919050565b5f819050919050565b5f819050919050565b5f61194061193b6119368461190b565b61191d565b611914565b9050919050565b61195081611926565b82525050565b5f6020820190506119695f830184611947565b92915050565b5f604051905090565b5f5ffd5b5f5ffd5b5f819050919050565b61199281611980565b811461199c575f5ffd5b50565b5f815190506119ad81611989565b92915050565b5f602082840312156119c8576119c7611978565b5b5f6119d58482850161199f565b91505092915050565b5f73ffffffffffffffffffffffffffffffffffffffff82169050919050565b5f611a07826119de565b9050919050565b611a17816119fd565b82525050565b5f82825260208201905092915050565b7f53656e646572206f66206d6573736167650000000000000000000000000000005f82015250565b5f611a61601183611a1d565b9150611a6c82611a2d565b602082019050919050565b5f604082019050611a8a5f830184611a0e565b8181036020830152611a9b81611a55565b905092915050565b5f81519050919050565b7f4e487b71000000000000000000000000000000000000000000000000000000005f52604160045260245ffd5b7f4e487b71000000000000000000000000000000000000000000000000000000005f52602260045260245ffd5b5f6002820490506001821680611b1e57607f821691505b602082108103611b3157611b30611ada565b5b50919050565b5f819050815f5260205f209050919050565b5f6020601f8301049050919050565b5f82821b905092915050565b5f60088302611b937fffffffffffffffffffffffffffffffffffffffffffffffffffffffffffffffff82611b58565b611b9d8683611b58565b95508019841693508086168417925050509392505050565b5f611bcf611bca611bc584611914565b61191d565b611914565b9050919050565b5f819050919050565b611be883611bb5565b611bfc611bf482611bd6565b848454611b64565b825550505050565b5f5f905090565b611c13611c04565b611c1e818484611bdf565b505050565b5b81811015611c4157611c365f82611c0b565b600181019050611c24565b5050565b601f821115611c8657611c5781611b37565b611c6084611b49565b81016020851015611c6f578190505b611c83611c7b85611b49565b830182611c23565b50505b505050565b5f82821c905092915050565b5f611ca65f1984600802611c8b565b1980831691505092915050565b5f611cbe8383611c97565b9150826002028217905092915050565b611cd782611aa3565b67ffffffffffffffff811115611cf057611cef611aad565b5b611cfa8254611b07565b611d05828285611c45565b5f60209050601f831160018114611d36575f8415611d24578287015190505b611d2e8582611cb3565b865550611d95565b601f198416611d4486611b37565b5f5b82811015611d6b57848901518255600182019150602085019450602081019050611d46565b86831015611d885784890151611d84601f891682611c97565b8355505b6001600288020188555050505b505050505050565b7f4e487b71000000000000000000000000000000000000000000000000000000005f52602160045260245ffd5b8281835e5f83830152505050565b5f601f19601f8301169050919050565b5f611df282611aa3565b611dfc8185611a1d565b9350611e0c818560208601611dca565b611e1581611dd8565b840191505092915050565b611e2981611914565b82525050565b5f6040820190508181035f830152611e478185611de8565b9050611e566020830184611e20565b9392505050565b611e6681611914565b8114611e70575f5ffd5b50565b5f81519050611e8181611e5d565b92915050565b5f60208284031215611e9c57611e9b611978565b5b5f611ea984828501611e73565b91505092915050565b7f4469646e2774206465706f73697420656e6f75676800000000000000000000005f82015250565b5f611ee6601583611a1d565b9150611ef182611eb2565b602082019050919050565b5f6020820190508181035f830152611f1381611eda565b9050919050565b5f611f34611f2f611f2a846119de565b61191d565b6119de565b9050919050565b5f611f4582611f1a565b9050919050565b5f611f5682611f3b565b9050919050565b611f6681611f4c565b82525050565b5f602082019050611f7f5f830184611f5d565b92915050565b5f611f8f826119de565b9050919050565b611f9f81611f85565b8114611fa9575f5ffd5b50565b5f81359050611fba81611f96565b92915050565b5f60208284031215611fd557611fd4611978565b5b5f611fe284828501611fac565b91505092915050565b5f81359050611ff981611e5d565b92915050565b5f6020828403121561201457612013611978565b5b5f61202184828501611feb565b91505092915050565b61203381611f85565b82525050565b5f8115159050919050565b61204d81612039565b82525050565b5f6060820190506120665f83018661202a565b6120736020830185612044565b81810360408301526120858184611de8565b9050949350505050565b5f6040820190506120a25f830185611e20565b6120af6020830184611e20565b9392505050565b5f5ffd5b6120c382611dd8565b810181811067ffffffffffffffff821117156120e2576120e1611aad565b5b80604052505050565b5f6120f461196f565b905061210082826120ba565b919050565b5f5ffd5b5f5ffd5b5f5ffd5b5f67ffffffffffffffff82111561212b5761212a611aad565b5b61213482611dd8565b9050602081019050919050565b828183375f83830152505050565b5f61216161215c84612111565b6120eb565b90508281526020810184848401111561217d5761217c61210d565b5b612188848285612141565b509392505050565b5f82601f8301126121a4576121a3612109565b5b81356121b484826020860161214f565b91505092915050565b5f67ffffffffffffffff8211156121d7576121d6611aad565b5b602082029050602081019050919050565b5f5ffd5b6121f581612039565b81146121ff575f5ffd5b50565b5f81359050612210816121ec565b92915050565b5f6060828403121561222b5761222a6120b6565b5b61223560606120eb565b90505f61224484828501611fac565b5f83015250602061225784828501612202565b602083015250604082013567ffffffffffffffff81111561227b5761227a612105565b5b61228784828501612190565b60408301525092915050565b5f6122a56122a0846121bd565b6120eb565b905080838252602082019050602084028301858111156122c8576122c76121e8565b5b835b8181101561230f57803567ffffffffffffffff8111156122ed576122ec612109565b5b8086016122fa8982612216565b855260208501945050506020810190506122ca565b5050509392505050565b5f82601f83011261232d5761232c612109565b5b813561233d848260208601612293565b91505092915050565b60058110612352575f5ffd5b50565b5f8135905061236381612346565b92915050565b5f6101a0828403121561237f5761237e6120b6565b5b61238a6101a06120eb565b90505f61239984828501611feb565b5f8301525060206123ac84828501611fac565b602083015250604082013567ffffffffffffffff8111156123d0576123cf612105565b5b6123dc84828501612190565b60408301525060606123f084828501611feb565b606083015250608061240484828501611feb565b60808301525060a082013567ffffffffffffffff81111561242857612427612105565b5b61243484828501612190565b60a08301525060c061244884828501611feb565b60c08301525060e082013567ffffffffffffffff81111561246c5761246b612105565b5b61247884828501612190565b60e08301525061010082013567ffffffffffffffff81111561249d5761249c612105565b5b6124a984828501612190565b6101008301525061012082013567ffffffffffffffff8111156124cf576124ce612105565b5b6124db84828501612319565b6101208301525061014082013567ffffffffffffffff81111561250157612500612105565b5b61250d84828501612319565b6101408301525061016061252384828501612355565b6101608301525061018061253984828501612202565b6101808301525092915050565b5f6080828403121561255b5761255a6120b6565b5b61256560806120eb565b90505f61257484828501611fac565b5f83015250602082013567ffffffffffffffff81111561259757612596612105565b5b6125a384828501612190565b60208301525060406125b784828501611feb565b60408301525060606125cb84828501611feb565b60608301525092915050565b5f5f5f606084860312156125ee576125ed611978565b5b5f84013567ffffffffffffffff81111561260b5761260a61197c565b5b61261786828701612369565b935050602084013567ffffffffffffffff8111156126385761263761197c565b5b61264486828701612546565b925050604061265586828701611feb565b9150509250925092565b5f5f6040838503121561267557612674611978565b5b5f61268285828601611fac565b925050602061269385828601611feb565b9150509250929050565b6126a6816119fd565b81146126b0575f5ffd5b50565b5f813590506126c18161269d565b92915050565b5f602082840312156126dc576126db611978565b5b5f6126e9848285016126b3565b91505092915050565b5f6080820190506127055f83018761202a565b81810360208301526127178186611de8565b90506127266040830185611e20565b6127336060830184611e20565b95945050505050565b7f726571756573746564207468652064617461207375636365737366756c6c79005f82015250565b5f612770601f83611a1d565b915061277b8261273c565b602082019050919050565b5f6040820190508181035f83015261279d81612764565b90506127ac6020830184611947565b92915050565b7f696e746f20617070726f766564000000000000000000000000000000000000005f82015250565b5f6127e6600d83611a1d565b91506127f1826127b2565b602082019050919050565b5f6040820190508181035f830152612813816127da565b90506128226020830184611947565b92915050565b7f4e487b71000000000000000000000000000000000000000000000000000000005f52601160045260245ffd5b5f61285f82611914565b915061286a83611914565b925082820190508082111561288257612881612828565b5b92915050565b7f646174614265666f7265000000000000000000000000000000000000000000005f82015250565b5f6128bc600a83611a1d565b91506128c782612888565b602082019050919050565b5f6040820190508181035f8301526128e9816128b0565b90506128f86020830184611e20565b92915050565b7f64617461416674657200000000000000000000000000000000000000000000005f82015250565b5f612932600983611a1d565b915061293d826128fe565b602082019050919050565b5f6040820190508181035f83015261295f81612926565b905061296e6020830184611e20565b92915050565b7f45766572797468696e6720776f726b73000000000000000000000000000000005f82015250565b5f6129a8601083611a1d565b91506129b382612974565b602082019050919050565b5f6020820190508181035f8301526129d58161299c565b9050919050565b7f4e487b71000000000000000000000000000000000000000000000000000000005f52603260045260245ffd5b7f4e487b71000000000000000000000000000000000000000000000000000000005f52601260045260245ffd5b5f612a4082611914565b9150612a4b83611914565b925082612a5b57612a5a612a09565b5b828204905092915050565b5f612a7082611914565b9150612a7b83611914565b9250828203905081811115612a9357612a92612828565b5b92915050565b7f72657053636f72650000000000000000000000000000000000000000000000005f82015250565b5f612acd600883611a1d565b9150612ad882612a99565b602082019050919050565b5f6040820190508181035f830152612afa81612ac1565b9050612b096020830184611e20565b92915050565b7f6d73672e73656e6465722042616c616e636500000000000000000000000000005f82015250565b5f612b43601283611a1d565b9150612b4e82612b0f565b602082019050919050565b5f6040820190508181035f830152612b7081612b37565b9050612b7f6020830184611e20565b92915050565b5f612b8f82611914565b9150612b9a83611914565b9250828202612ba881611914565b91508282048414831517612bbf57612bbe612828565b5b5092915050565b7f5468652070726f706f6e656e742068617320746f20706179206120746f74616c5f8201527f206f663a20000000000000000000000000000000000000000000000000000000602082015250565b5f612c20602583611a1d565b9150612c2b82612bc6565b604082019050919050565b5f6040820190508181035f830152612c4d81612c14565b9050612c5c6020830184611e20565b92915050565b5f81905092915050565b50565b5f612c7a5f83612c62565b9150612c8582612c6c565b5f82019050919050565b5f612c9982612c6f565b9150819050919050565b7f4661696c656420746f2073656e64206465706f73697420746f2070726f706f6e5f8201527f656e740000000000000000000000000000000000000000000000000000000000602082015250565b5f612cfd602383611a1d565b9150612d0882612ca3565b604082019050919050565b5f6020820190508181035f830152612d2a81612cf1565b905091905056fe60806040526001600455348015610014575f5ffd5b5033805f5f73ffffffffffffffffffffffffffffffffffffffff168273ffffffffffffffffffffffffffffffffffffffff1603610086576040517f08c379a000000000000000000000000000000000000000000000000000000000815260040161007d906103b1565b60405180910390fd5b8160065f6101000a81548173ffffffffffffffffffffffffffffffffffffffff021916908373ffffffffffffffffffffffffffffffffffffffff1602179055505f73ffffffffffffffffffffffffffffffffffffffff168173ffffffffffffffffffffffffffffffffffffffff161461010957610108816101a560201b60201c565b5b50505061012f73779877a7b0d9e8603169ddbd7836e478b46247896102d160201b60201c565b610152736090149792daaee9d1d568c9f9a6f6b46aa29efd61031460201b60201c565b7f6361393833363663633733313439353762386330313263373266303561656562600981905550600a670de0b6b3a764000060016101909190610405565b61019a9190610473565b600a8190555061050b565b3373ffffffffffffffffffffffffffffffffffffffff168173ffffffffffffffffffffffffffffffffffffffff1603610213576040517f08c379a000000000000000000000000000000000000000000000000000000000815260040161020a906104ed565b60405180910390fd5b8060075f6101000a81548173ffffffffffffffffffffffffffffffffffffffff021916908373ffffffffffffffffffffffffffffffffffffffff1602179055508073ffffffffffffffffffffffffffffffffffffffff1660065f9054906101000a900473ffffffffffffffffffffffffffffffffffffffff1673ffffffffffffffffffffffffffffffffffffffff167fed8889f560326eb138920d842192f0eb3dd22b4f139c87a2c57538e05bae127860405160405180910390a350565b8060025f6101000a81548173ffffffffffffffffffffffffffffffffffffffff021916908373ffffffffffffffffffffffffffffffffffffffff16021790555050565b8060035f6101000a81548173ffffffffffffffffffffffffffffffffffffffff021916908373ffffffffffffffffffffffffffffffffffffffff16021790555050565b5f82825260208201905092915050565b7f43616e6e6f7420736574206f776e657220746f207a65726f00000000000000005f82015250565b5f61039b601883610357565b91506103a682610367565b602082019050919050565b5f6020820190508181035f8301526103c88161038f565b9050919050565b5f819050919050565b7f4e487b71000000000000000000000000000000000000000000000000000000005f52601160045260245ffd5b5f61040f826103cf565b915061041a836103cf565b9250828202610428816103cf565b9150828204841483151761043f5761043e6103d8565b5b5092915050565b7f4e487b71000000000000000000000000000000000000000000000000000000005f52601260045260245ffd5b5f61047d826103cf565b9150610488836103cf565b92508261049857610497610446565b5b828204905092915050565b7f43616e6e6f74207472616e7366657220746f2073656c660000000000000000005f82015250565b5f6104d7601783610357565b91506104e2826104a3565b602082019050919050565b5f6020820190508181035f830152610504816104cb565b9050919050565b61206f806105185f395ff3fe608060405234801561000f575f5ffd5b5060043610610086575f3560e01c80638da5cb5b116100595780638da5cb5b146100ea5780638dc654a214610108578063c618a1e414610112578063f2fde38b1461013057610086565b80632adb9e3c1461008a5780633da0ac79146100ba5780634357855e146100c457806379ba5097146100e0575b5f5ffd5b6100a4600480360381019061009f9190611455565b61014c565b6040516100b19190611498565b60405180910390f35b6100c26102de565b005b6100de60048036038101906100d991906114db565b61037c565b005b6100e86104bf565b005b6100f2610650565b6040516100ff9190611558565b60405180910390f35b610110610678565b005b61011a6107bf565b6040516101279190611580565b60405180910390f35b61014a600480360381019061014591906115c3565b6107c5565b005b5f5f61016260095430634357855e60e01b6107d9565b90506101c66040518060400160405280600381526020017f67657400000000000000000000000000000000000000000000000000000000008152506040518060600160405280602d815260200161200d602d91398361080a9092919063ffffffff16565b6102456040518060400160405280600481526020017f70617468000000000000000000000000000000000000000000000000000000008152506040518060400160405280600381526020017f6e756d00000000000000000000000000000000000000000000000000000000008152508361080a9092919063ffffffff16565b5f600190506102946040518060400160405280600581526020017f74696d6573000000000000000000000000000000000000000000000000000000815250828461083d9092919063ffffffff16565b7fe8e349d9d60379b7e0a717f216d3d9efaf00b5dce8b634a63f24a5d76251059f6040516102c190611648565b60405180910390a16102d582600a54610870565b92505050919050565b5f6102e9600161014c565b5f1c90505f60085490505f6102fe600161014c565b5f1c90505f60085490507f4953e1e253d3404572e66d2be3e7889846db195dfc203305a4810d16100dfd118360405161033791906116b0565b60405180910390a17f4953e1e253d3404572e66d2be3e7889846db195dfc203305a4810d16100dfd118160405161036e9190611726565b60405180910390a150505050565b8160055f8281526020019081526020015f205f9054906101000a900473ffffffffffffffffffffffffffffffffffffffff1673ffffffffffffffffffffffffffffffffffffffff163373ffffffffffffffffffffffffffffffffffffffff161461041b576040517f08c379a0000000000000000000000000000000000000000000000000000000008152600401610412906117c2565b60405180910390fd5b60055f8281526020019081526020015f205f6101000a81549073ffffffffffffffffffffffffffffffffffffffff0219169055807f7cc135e0cebb02c3480ae5d74d377283180a2601f8f644edf7987b009316c63a60405160405180910390a2827f673b38182859a514d734bdfcb49d3a05c4a641dec9311d9894c9717bcb79af76836040516104ab9190611580565b60405180910390a281600881905550505050565b60075f9054906101000a900473ffffffffffffffffffffffffffffffffffffffff1673ffffffffffffffffffffffffffffffffffffffff163373ffffffffffffffffffffffffffffffffffffffff161461054e576040517f08c379a00000000000000000000000000000000000000000000000000000000081526004016105459061182a565b60405180910390fd5b5f60065f9054906101000a900473ffffffffffffffffffffffffffffffffffffffff1690503360065f6101000a81548173ffffffffffffffffffffffffffffffffffffffff021916908373ffffffffffffffffffffffffffffffffffffffff1602179055505f60075f6101000a81548173ffffffffffffffffffffffffffffffffffffffff021916908373ffffffffffffffffffffffffffffffffffffffff1602179055503373ffffffffffffffffffffffffffffffffffffffff168173ffffffffffffffffffffffffffffffffffffffff167f8be0079c531659141344cd1fd0a4f28419497f9722a3daafe3b4186f6b6457e060405160405180910390a350565b5f60065f9054906101000a900473ffffffffffffffffffffffffffffffffffffffff16905090565b6106806108a5565b5f610689610936565b90508073ffffffffffffffffffffffffffffffffffffffff1663a9059cbb338373ffffffffffffffffffffffffffffffffffffffff166370a08231306040518263ffffffff1660e01b81526004016106e19190611558565b602060405180830381865afa1580156106fc573d5f5f3e3d5ffd5b505050506040513d601f19601f82011682018060405250810190610720919061185c565b6040518363ffffffff1660e01b815260040161073d929190611887565b6020604051808303815f875af1158015610759573d5f5f3e3d5ffd5b505050506040513d601f19601f8201168201806040525081019061077d91906118e3565b6107bc576040517f08c379a00000000000000000000000000000000000000000000000000000000081526004016107b390611958565b60405180910390fd5b50565b60085481565b6107cd6108a5565b6107d68161095e565b50565b6107e161139f565b6107e961139f565b61080085858584610a8a909392919063ffffffff16565b9150509392505050565b610821828460800151610b3990919063ffffffff16565b610838818460800151610b3990919063ffffffff16565b505050565b610854828460800151610b3990919063ffffffff16565b61086b818460800151610b5e90919063ffffffff16565b505050565b5f61089d60035f9054906101000a900473ffffffffffffffffffffffffffffffffffffffff168484610c09565b905092915050565b60065f9054906101000a900473ffffffffffffffffffffffffffffffffffffffff1673ffffffffffffffffffffffffffffffffffffffff163373ffffffffffffffffffffffffffffffffffffffff1614610934576040517f08c379a000000000000000000000000000000000000000000000000000000000815260040161092b906119c0565b60405180910390fd5b565b5f60025f9054906101000a900473ffffffffffffffffffffffffffffffffffffffff16905090565b3373ffffffffffffffffffffffffffffffffffffffff168173ffffffffffffffffffffffffffffffffffffffff16036109cc576040517f08c379a00000000000000000000000000000000000000000000000000000000081526004016109c390611a28565b60405180910390fd5b8060075f6101000a81548173ffffffffffffffffffffffffffffffffffffffff021916908373ffffffffffffffffffffffffffffffffffffffff1602179055508073ffffffffffffffffffffffffffffffffffffffff1660065f9054906101000a900473ffffffffffffffffffffffffffffffffffffffff1673ffffffffffffffffffffffffffffffffffffffff167fed8889f560326eb138920d842192f0eb3dd22b4f139c87a2c57538e05bae127860405160405180910390a350565b610a9261139f565b610aa28560800151610100610cd0565b5083855f01818152505082856020019073ffffffffffffffffffffffffffffffffffffffff16908173ffffffffffffffffffffffffffffffffffffffff16815250508185604001907bffffffffffffffffffffffffffffffffffffffffffffffffffffffff191690817bffffffffffffffffffffffffffffffffffffffffffffffffffffffff191681525050849050949350505050565b610b468260038351610d38565b610b598183610ebd90919063ffffffff16565b505050565b7fffffffffffffffffffffffffffffffffffffffffffffffff0000000000000000811215610b9557610b908282610ede565b610c05565b67ffffffffffffffff811315610bb457610baf8282610f55565b610c04565b5f8112610bcb57610bc6825f83610d38565b610c03565b610c02826001837fffffffffffffffffffffffffffffffffffffffffffffffffffffffffffffffff610bfd9190611a7c565b610d38565b5b5b5b5050565b5f5f6004549050600181610c1d9190611abc565b6004819055505f634042994660e01b5f5f875f01513089604001518760018c608001515f0151604051602401610c5a989796959493929190611b99565b604051602081830303815290604052907bffffffffffffffffffffffffffffffffffffffffffffffffffffffff19166020820180517bffffffffffffffffffffffffffffffffffffffffffffffffffffffff83818316178352505050509050610cc586838684610fa1565b925050509392505050565b610cd8611405565b5f602083610ce69190611c49565b14610d1257602082610cf89190611c49565b6020610d049190611c79565b82610d0f9190611abc565b91505b818360200181815250506040518084525f81528281016020016040525082905092915050565b60178167ffffffffffffffff1611610d6f57610d698160058460ff16901b60ff16178461112e90919063ffffffff16565b50610eb8565b60ff8167ffffffffffffffff1611610dc557610d9e601860058460ff16901b178461112e90919063ffffffff16565b50610dbf8167ffffffffffffffff1660018561114d9092919063ffffffff16565b50610eb7565b61ffff8167ffffffffffffffff1611610e1c57610df5601960058460ff16901b178461112e90919063ffffffff16565b50610e168167ffffffffffffffff1660028561114d9092919063ffffffff16565b50610eb6565b63ffffffff8167ffffffffffffffff1611610e7557610e4e601a60058460ff16901b178461112e90919063ffffffff16565b50610e6f8167ffffffffffffffff1660048561114d9092919063ffffffff16565b50610eb5565b610e92601b60058460ff16901b178461112e90919063ffffffff16565b50610eb38167ffffffffffffffff1660088561114d9092919063ffffffff16565b505b5b5b5b505050565b610ec5611405565b610ed683845f01515184855161116e565b905092915050565b610efc60036005600660ff16901b178361112e90919063ffffffff16565b50610f5182827fffffffffffffffffffffffffffffffffffffffffffffffffffffffffffffffff610f2d9190611a7c565b604051602001610f3d9190611580565b60405160208183030381529060405261125a565b5050565b610f7360026005600660ff16901b178361112e90919063ffffffff16565b50610f9d8282604051602001610f899190611580565b60405160208183030381529060405261125a565b5050565b5f3084604051602001610fb5929190611d5d565b6040516020818303038152906040528051906020012090508460055f8381526020019081526020015f205f6101000a81548173ffffffffffffffffffffffffffffffffffffffff021916908373ffffffffffffffffffffffffffffffffffffffff160217905550807fb5e6e01e79f91267dc17b4e6314d5d4d03593d2ceee0fbb452b750bd70ea5af960405160405180910390a260025f9054906101000a900473ffffffffffffffffffffffffffffffffffffffff1673ffffffffffffffffffffffffffffffffffffffff16634000aea08685856040518463ffffffff1660e01b81526004016110a793929190611d88565b6020604051808303815f875af11580156110c3573d5f5f3e3d5ffd5b505050506040513d601f19601f820116820180604052508101906110e791906118e3565b611126576040517f08c379a000000000000000000000000000000000000000000000000000000000815260040161111d90611e34565b60405180910390fd5b949350505050565b611136611405565b61114583845f0151518461127f565b905092915050565b611155611405565b61116584855f01515185856112d5565b90509392505050565b611176611405565b8251821115611183575f5ffd5b846020015182856111949190611abc565b11156111c9576111c88560026111b9886020015188876111b49190611abc565b611362565b6111c39190611e52565b61137d565b5b5f5f8651805187602083010193508088870111156111e75787860182525b60208701925050505b6020841061122e57805182526020826112099190611abc565b91506020816112189190611abc565b90506020846112279190611c79565b93506111f0565b5f6001856020036101000a03905080198251168184511681811785525050508692505050949350505050565b6112678260028351610d38565b61127a8183610ebd90919063ffffffff16565b505050565b611287611405565b836020015183106112ad576112ac84600286602001516112a79190611e52565b61137d565b5b835180516020858301018481538186036112c8576001820183525b5050508390509392505050565b6112dd611405565b846020015184836112ee9190611abc565b11156113165761131585600286856113069190611abc565b6113109190611e52565b61137d565b5b5f6001836101006113279190611fc2565b6113319190611c79565b905085518386820101858319825116178152815185880111156113545784870182525b505085915050949350505050565b5f8183111561137357829050611377565b8190505b92915050565b5f825f0151905061138e8383610cd0565b506113998382610ebd565b50505050565b6040518060a001604052805f81526020015f73ffffffffffffffffffffffffffffffffffffffff1681526020015f7bffffffffffffffffffffffffffffffffffffffffffffffffffffffff191681526020015f81526020016113ff611405565b81525090565b6040518060400160405280606081526020015f81525090565b5f5ffd5b5f819050919050565b61143481611422565b811461143e575f5ffd5b50565b5f8135905061144f8161142b565b92915050565b5f6020828403121561146a5761146961141e565b5b5f61147784828501611441565b91505092915050565b5f819050919050565b61149281611480565b82525050565b5f6020820190506114ab5f830184611489565b92915050565b6114ba81611480565b81146114c4575f5ffd5b50565b5f813590506114d5816114b1565b92915050565b5f5f604083850312156114f1576114f061141e565b5b5f6114fe858286016114c7565b925050602061150f85828601611441565b9150509250929050565b5f73ffffffffffffffffffffffffffffffffffffffff82169050919050565b5f61154282611519565b9050919050565b61155281611538565b82525050565b5f60208201905061156b5f830184611549565b92915050565b61157a81611422565b82525050565b5f6020820190506115935f830184611571565b92915050565b6115a281611538565b81146115ac575f5ffd5b50565b5f813590506115bd81611599565b92915050565b5f602082840312156115d8576115d761141e565b5b5f6115e5848285016115af565b91505092915050565b5f82825260208201905092915050565b7f4d616465207468652067657420726571756573740000000000000000000000005f82015250565b5f6116326014836115ee565b915061163d826115fe565b602082019050919050565b5f6020820190508181035f83015261165f81611626565b9050919050565b7f766f6c31000000000000000000000000000000000000000000000000000000005f82015250565b5f61169a6004836115ee565b91506116a582611666565b602082019050919050565b5f6040820190508181035f8301526116c78161168e565b90506116d66020830184611571565b92915050565b7f766f6c32000000000000000000000000000000000000000000000000000000005f82015250565b5f6117106004836115ee565b915061171b826116dc565b602082019050919050565b5f6040820190508181035f83015261173d81611704565b905061174c6020830184611571565b92915050565b7f536f75726365206d75737420626520746865206f7261636c65206f66207468655f8201527f2072657175657374000000000000000000000000000000000000000000000000602082015250565b5f6117ac6028836115ee565b91506117b782611752565b604082019050919050565b5f6020820190508181035f8301526117d9816117a0565b9050919050565b7f4d7573742062652070726f706f736564206f776e6572000000000000000000005f82015250565b5f6118146016836115ee565b915061181f826117e0565b602082019050919050565b5f6020820190508181035f83015261184181611808565b9050919050565b5f815190506118568161142b565b92915050565b5f602082840312156118715761187061141e565b5b5f61187e84828501611848565b91505092915050565b5f60408201905061189a5f830185611549565b6118a76020830184611571565b9392505050565b5f8115159050919050565b6118c2816118ae565b81146118cc575f5ffd5b50565b5f815190506118dd816118b9565b92915050565b5f602082840312156118f8576118f761141e565b5b5f611905848285016118cf565b91505092915050565b7f556e61626c6520746f207472616e7366657200000000000000000000000000005f82015250565b5f6119426012836115ee565b915061194d8261190e565b602082019050919050565b5f6020820190508181035f83015261196f81611936565b9050919050565b7f4f6e6c792063616c6c61626c65206279206f776e6572000000000000000000005f82015250565b5f6119aa6016836115ee565b91506119b582611976565b602082019050919050565b5f6020820190508181035f8301526119d78161199e565b9050919050565b7f43616e6e6f74207472616e7366657220746f2073656c660000000000000000005f82015250565b5f611a126017836115ee565b9150611a1d826119de565b602082019050919050565b5f6020820190508181035f830152611a3f81611a06565b9050919050565b5f819050919050565b7f4e487b71000000000000000000000000000000000000000000000000000000005f52601160045260245ffd5b5f611a8682611a46565b9150611a9183611a46565b925082820390508181125f8412168282135f851215161715611ab657611ab5611a4f565b5b92915050565b5f611ac682611422565b9150611ad183611422565b9250828201905080821115611ae957611ae8611a4f565b5b92915050565b5f7fffffffff0000000000000000000000000000000000000000000000000000000082169050919050565b611b2381611aef565b82525050565b5f81519050919050565b5f82825260208201905092915050565b8281835e5f83830152505050565b5f601f19601f8301169050919050565b5f611b6b82611b29565b611b758185611b33565b9350611b85818560208601611b43565b611b8e81611b51565b840191505092915050565b5f61010082019050611bad5f83018b611549565b611bba602083018a611571565b611bc76040830189611489565b611bd46060830188611549565b611be16080830187611b1a565b611bee60a0830186611571565b611bfb60c0830185611571565b81810360e0830152611c0d8184611b61565b90509998505050505050505050565b7f4e487b71000000000000000000000000000000000000000000000000000000005f52601260045260245ffd5b5f611c5382611422565b9150611c5e83611422565b925082611c6e57611c6d611c1c565b5b828206905092915050565b5f611c8382611422565b9150611c8e83611422565b9250828203905081811115611ca657611ca5611a4f565b5b92915050565b5f819050919050565b5f611ccf611cca611cc584611519565b611cac565b611519565b9050919050565b5f611ce082611cb5565b9050919050565b5f611cf182611cd6565b9050919050565b5f8160601b9050919050565b5f611d0e82611cf8565b9050919050565b5f611d1f82611d04565b9050919050565b611d37611d3282611ce7565b611d15565b82525050565b5f819050919050565b611d57611d5282611422565b611d3d565b82525050565b5f611d688285611d26565b601482019150611d788284611d46565b6020820191508190509392505050565b5f606082019050611d9b5f830186611549565b611da86020830185611571565b8181036040830152611dba8184611b61565b9050949350505050565b7f756e61626c6520746f207472616e73666572416e6443616c6c20746f206f72615f8201527f636c650000000000000000000000000000000000000000000000000000000000602082015250565b5f611e1e6023836115ee565b9150611e2982611dc4565b604082019050919050565b5f6020820190508181035f830152611e4b81611e12565b9050919050565b5f611e5c82611422565b9150611e6783611422565b9250828202611e7581611422565b91508282048414831517611e8c57611e8b611a4f565b5b5092915050565b5f8160011c9050919050565b5f5f8291508390505b6001851115611ee857808604811115611ec457611ec3611a4f565b5b6001851615611ed35780820291505b8081029050611ee185611e93565b9450611ea8565b94509492505050565b5f82611f005760019050611fbb565b81611f0d575f9050611fbb565b8160018114611f235760028114611f2d57611f5c565b6001915050611fbb565b60ff841115611f3f57611f3e611a4f565b5b8360020a915084821115611f5657611f55611a4f565b5b50611fbb565b5060208310610133831016604e8410600b8410161715611f915782820a905083811115611f8c57611f8b611a4f565b5b611fbb565b611f9e8484846001611e9f565b92509050818404811115611fb557611fb4611a4f565b5b81810290505b9392505050565b5f611fcc82611422565b9150611fd783611422565b92506120047fffffffffffffffffffffffffffffffffffffffffffffffffffffffffffffffff8484611ef1565b90509291505056fe68747470733a2f2f303835332d31342d3230302d37352d35342e6e67726f6b2d667265652e6170702f64617461a2646970667358221220b3ffbe11004615e7462fb4534f723c56a8729abf3fe2295bf97d2a6e9ddc818564736f6c634300081d0033a26469706673582212202cb72660e250b2eb969c7a0f4c7b83c4a8cdb977ec8aa32d386eea3eeefb90b864736f6c634300081d0033",
			"opcodes": "PUSH1 0x80 PUSH1 0x40 MSTORE CALLVALUE DUP1 ISZERO PUSH1 0xE JUMPI PUSH0 PUSH0 REVERT JUMPDEST POP PUSH2 0x52EE DUP1 PUSH2 0x1C PUSH0 CODECOPY PUSH0 RETURN INVALID PUSH1 0x80 PUSH1 0x40 MSTORE PUSH1 0x4 CALLDATASIZE LT PUSH2 0x89 JUMPI PUSH0 CALLDATALOAD PUSH1 0xE0 SHR DUP1 PUSH4 0x775C300C GT PUSH2 0x58 JUMPI DUP1 PUSH4 0x775C300C EQ PUSH2 0xCBA JUMPI DUP1 PUSH4 0xAC1EFF68 EQ PUSH2 0xCD0 JUMPI DUP1 PUSH4 0xCAB41E11 EQ PUSH2 0xD0E JUMPI DUP1 PUSH4 0xD29709FB EQ PUSH2 0xD2A JUMPI DUP1 PUSH4 0xDDFC5CFE EQ PUSH2 0xD46 JUMPI PUSH2 0xBF5 JUMP JUMPDEST DUP1 PUSH4 0x242AB021 EQ PUSH2 0xBF9 JUMPI DUP1 PUSH4 0x2E3803C6 EQ PUSH2 0xC23 JUMPI DUP1 PUSH4 0x35AA2E44 EQ PUSH2 0xC3F JUMPI DUP1 PUSH4 0x4EC508F9 EQ PUSH2 0xC7D JUMPI PUSH2 0xBF5 JUMP JUMPDEST CALLDATASIZE PUSH2 0xBF5 JUMPI PUSH0 PUSH0 PUSH0 SWAP1 SLOAD SWAP1 PUSH2 0x100 EXP SWAP1 DIV PUSH20 0xFFFFFFFFFFFFFFFFFFFFFFFFFFFFFFFFFFFFFFFF AND PUSH20 0xFFFFFFFFFFFFFFFFFFFFFFFFFFFFFFFFFFFFFFFF AND PUSH4 0x2ADB9E3C PUSH1 0x1 PUSH1 0x40 MLOAD DUP3 PUSH4 0xFFFFFFFF AND PUSH1 0xE0 SHL DUP2 MSTORE PUSH1 0x4 ADD PUSH2 0xE9 SWAP2 SWAP1 PUSH2 0x1956 JUMP JUMPDEST PUSH1 0x20 PUSH1 0x40 MLOAD DUP1 DUP4 SUB DUP2 PUSH0 DUP8 GAS CALL ISZERO DUP1 ISZERO PUSH2 0x105 JUMPI RETURNDATASIZE PUSH0 PUSH0 RETURNDATACOPY RETURNDATASIZE PUSH0 REVERT JUMPDEST POP POP POP POP PUSH1 0x40 MLOAD RETURNDATASIZE PUSH1 0x1F NOT PUSH1 0x1F DUP3 ADD AND DUP3 ADD DUP1 PUSH1 0x40 MSTORE POP DUP2 ADD SWAP1 PUSH2 0x129 SWAP2 SWAP1 PUSH2 0x19B3 JUMP JUMPDEST PUSH0 SHR SWAP1 POP PUSH32 0xE0F4316F8B040AE9A9C9512BBF2EE2472799224C174E43AF12D310ECFACC0136 CALLER PUSH1 0x40 MLOAD PUSH2 0x15C SWAP2 SWAP1 PUSH2 0x1A77 JUMP JUMPDEST PUSH1 0x40 MLOAD DUP1 SWAP2 SUB SWAP1 LOG1 PUSH0 PUSH1 0x40 MLOAD DUP1 PUSH1 0x60 ADD PUSH1 0x40 MSTORE DUP1 PUSH20 0x5B38DA6A701C568545DCFCB03FCB875F56BEDDC4 PUSH20 0xFFFFFFFFFFFFFFFFFFFFFFFFFFFFFFFFFFFFFFFF AND DUP2 MSTORE PUSH1 0x20 ADD PUSH1 0x1 ISZERO ISZERO DUP2 MSTORE PUSH1 0x20 ADD PUSH1 0x40 MLOAD DUP1 PUSH1 0x20 ADD PUSH1 0x40 MSTORE DUP1 PUSH0 DUP2 MSTORE POP DUP2 MSTORE POP SWAP1 POP PUSH1 0x2 DUP2 SWAP1 DUP1 PUSH1 0x1 DUP2 SLOAD ADD DUP1 DUP3 SSTORE DUP1 SWAP2 POP POP PUSH1 0x1 SWAP1 SUB SWAP1 PUSH0 MSTORE PUSH1 0x20 PUSH0 KECCAK256 SWAP1 PUSH1 0x2 MUL ADD PUSH0 SWAP1 SWAP2 SWAP1 SWAP2 SWAP1 SWAP2 POP PUSH0 DUP3 ADD MLOAD DUP2 PUSH0 ADD PUSH0 PUSH2 0x100 EXP DUP2 SLOAD DUP2 PUSH20 0xFFFFFFFFFFFFFFFFFFFFFFFFFFFFFFFFFFFFFFFF MUL NOT AND SWAP1 DUP4 PUSH20 0xFFFFFFFFFFFFFFFFFFFFFFFFFFFFFFFFFFFFFFFF AND MUL OR SWAP1 SSTORE POP PUSH1 0x20 DUP3 ADD MLOAD DUP2 PUSH0 ADD PUSH1 0x14 PUSH2 0x100 EXP DUP2 SLOAD DUP2 PUSH1 0xFF MUL NOT AND SWAP1 DUP4 ISZERO ISZERO MUL OR SWAP1 SSTORE POP PUSH1 0x40 DUP3 ADD MLOAD DUP2 PUSH1 0x1 ADD SWAP1 DUP2 PUSH2 0x25E SWAP2 SWAP1 PUSH2 0x1CCE JUMP JUMPDEST POP POP POP PUSH1 0x3 DUP2 SWAP1 DUP1 PUSH1 0x1 DUP2 SLOAD ADD DUP1 DUP3 SSTORE DUP1 SWAP2 POP POP PUSH1 0x1 SWAP1 SUB SWAP1 PUSH0 MSTORE PUSH1 0x20 PUSH0 KECCAK256 SWAP1 PUSH1 0x2 MUL ADD PUSH0 SWAP1 SWAP2 SWAP1 SWAP2 SWAP1 SWAP2 POP PUSH0 DUP3 ADD MLOAD DUP2 PUSH0 ADD PUSH0 PUSH2 0x100 EXP DUP2 SLOAD DUP2 PUSH20 0xFFFFFFFFFFFFFFFFFFFFFFFFFFFFFFFFFFFFFFFF MUL NOT AND SWAP1 DUP4 PUSH20 0xFFFFFFFFFFFFFFFFFFFFFFFFFFFFFFFFFFFFFFFF AND MUL OR SWAP1 SSTORE POP PUSH1 0x20 DUP3 ADD MLOAD DUP2 PUSH0 ADD PUSH1 0x14 PUSH2 0x100 EXP DUP2 SLOAD DUP2 PUSH1 0xFF MUL NOT AND SWAP1 DUP4 ISZERO ISZERO MUL OR SWAP1 SSTORE POP PUSH1 0x40 DUP3 ADD MLOAD DUP2 PUSH1 0x1 ADD SWAP1 DUP2 PUSH2 0x302 SWAP2 SWAP1 PUSH2 0x1CCE JUMP JUMPDEST POP POP POP PUSH0 PUSH1 0x40 MLOAD DUP1 PUSH1 0x60 ADD PUSH1 0x40 MSTORE DUP1 PUSH20 0xAB8483F64D9C6D1ECF9B849AE677DD3315835CB2 PUSH20 0xFFFFFFFFFFFFFFFFFFFFFFFFFFFFFFFFFFFFFFFF AND DUP2 MSTORE PUSH1 0x20 ADD PUSH1 0x1 ISZERO ISZERO DUP2 MSTORE PUSH1 0x20 ADD PUSH1 0x40 MLOAD DUP1 PUSH1 0x20 ADD PUSH1 0x40 MSTORE DUP1 PUSH0 DUP2 MSTORE POP DUP2 MSTORE POP SWAP1 POP PUSH1 0x2 DUP2 SWAP1 DUP1 PUSH1 0x1 DUP2 SLOAD ADD DUP1 DUP3 SSTORE DUP1 SWAP2 POP POP PUSH1 0x1 SWAP1 SUB SWAP1 PUSH0 MSTORE PUSH1 0x20 PUSH0 KECCAK256 SWAP1 PUSH1 0x2 MUL ADD PUSH0 SWAP1 SWAP2 SWAP1 SWAP2 SWAP1 SWAP2 POP PUSH0 DUP3 ADD MLOAD DUP2 PUSH0 ADD PUSH0 PUSH2 0x100 EXP DUP2 SLOAD DUP2 PUSH20 0xFFFFFFFFFFFFFFFFFFFFFFFFFFFFFFFFFFFFFFFF MUL NOT AND SWAP1 DUP4 PUSH20 0xFFFFFFFFFFFFFFFFFFFFFFFFFFFFFFFFFFFFFFFF AND MUL OR SWAP1 SSTORE POP PUSH1 0x20 DUP3 ADD MLOAD DUP2 PUSH0 ADD PUSH1 0x14 PUSH2 0x100 EXP DUP2 SLOAD DUP2 PUSH1 0xFF MUL NOT AND SWAP1 DUP4 ISZERO ISZERO MUL OR SWAP1 SSTORE POP PUSH1 0x40 DUP3 ADD MLOAD DUP2 PUSH1 0x1 ADD SWAP1 DUP2 PUSH2 0x3FF SWAP2 SWAP1 PUSH2 0x1CCE JUMP JUMPDEST POP POP POP PUSH1 0x3 DUP2 SWAP1 DUP1 PUSH1 0x1 DUP2 SLOAD ADD DUP1 DUP3 SSTORE DUP1 SWAP2 POP POP PUSH1 0x1 SWAP1 SUB SWAP1 PUSH0 MSTORE PUSH1 0x20 PUSH0 KECCAK256 SWAP1 PUSH1 0x2 MUL ADD PUSH0 SWAP1 SWAP2 SWAP1 SWAP2 SWAP1 SWAP2 POP PUSH0 DUP3 ADD MLOAD DUP2 PUSH0 ADD PUSH0 PUSH2 0x100 EXP DUP2 SLOAD DUP2 PUSH20 0xFFFFFFFFFFFFFFFFFFFFFFFFFFFFFFFFFFFFFFFF MUL NOT AND SWAP1 DUP4 PUSH20 0xFFFFFFFFFFFFFFFFFFFFFFFFFFFFFFFFFFFFFFFF AND MUL OR SWAP1 SSTORE POP PUSH1 0x20 DUP3 ADD MLOAD DUP2 PUSH0 ADD PUSH1 0x14 PUSH2 0x100 EXP DUP2 SLOAD DUP2 PUSH1 0xFF MUL NOT AND SWAP1 DUP4 ISZERO ISZERO MUL OR SWAP1 SSTORE POP PUSH1 0x40 DUP3 ADD MLOAD DUP2 PUSH1 0x1 ADD SWAP1 DUP2 PUSH2 0x4A3 SWAP2 SWAP1 PUSH2 0x1CCE JUMP JUMPDEST POP POP POP PUSH0 PUSH1 0x40 MLOAD DUP1 PUSH1 0x60 ADD PUSH1 0x40 MSTORE DUP1 PUSH20 0x4B20993BC481177EC7E8F571CECAE8A9E22C02DB PUSH20 0xFFFFFFFFFFFFFFFFFFFFFFFFFFFFFFFFFFFFFFFF AND DUP2 MSTORE PUSH1 0x20 ADD PUSH1 0x1 ISZERO ISZERO DUP2 MSTORE PUSH1 0x20 ADD PUSH1 0x40 MLOAD DUP1 PUSH1 0x20 ADD PUSH1 0x40 MSTORE DUP1 PUSH0 DUP2 MSTORE POP DUP2 MSTORE POP SWAP1 POP PUSH1 0x2 DUP2 SWAP1 DUP1 PUSH1 0x1 DUP2 SLOAD ADD DUP1 DUP3 SSTORE DUP1 SWAP2 POP POP PUSH1 0x1 SWAP1 SUB SWAP1 PUSH0 MSTORE PUSH1 0x20 PUSH0 KECCAK256 SWAP1 PUSH1 0x2 MUL ADD PUSH0 SWAP1 SWAP2 SWAP1 SWAP2 SWAP1 SWAP2 POP PUSH0 DUP3 ADD MLOAD DUP2 PUSH0 ADD PUSH0 PUSH2 0x100 EXP DUP2 SLOAD DUP2 PUSH20 0xFFFFFFFFFFFFFFFFFFFFFFFFFFFFFFFFFFFFFFFF MUL NOT AND SWAP1 DUP4 PUSH20 0xFFFFFFFFFFFFFFFFFFFFFFFFFFFFFFFFFFFFFFFF AND MUL OR SWAP1 SSTORE POP PUSH1 0x20 DUP3 ADD MLOAD DUP2 PUSH0 ADD PUSH1 0x14 PUSH2 0x100 EXP DUP2 SLOAD DUP2 PUSH1 0xFF MUL NOT AND SWAP1 DUP4 ISZERO ISZERO MUL OR SWAP1 SSTORE POP PUSH1 0x40 DUP3 ADD MLOAD DUP2 PUSH1 0x1 ADD SWAP1 DUP2 PUSH2 0x5A0 SWAP2 SWAP1 PUSH2 0x1CCE JUMP JUMPDEST POP POP POP PUSH1 0x3 DUP2 SWAP1 DUP1 PUSH1 0x1 DUP2 SLOAD ADD DUP1 DUP3 SSTORE DUP1 SWAP2 POP POP PUSH1 0x1 SWAP1 SUB SWAP1 PUSH0 MSTORE PUSH1 0x20 PUSH0 KECCAK256 SWAP1 PUSH1 0x2 MUL ADD PUSH0 SWAP1 SWAP2 SWAP1 SWAP2 SWAP1 SWAP2 POP PUSH0 DUP3 ADD MLOAD DUP2 PUSH0 ADD PUSH0 PUSH2 0x100 EXP DUP2 SLOAD DUP2 PUSH20 0xFFFFFFFFFFFFFFFFFFFFFFFFFFFFFFFFFFFFFFFF MUL NOT AND SWAP1 DUP4 PUSH20 0xFFFFFFFFFFFFFFFFFFFFFFFFFFFFFFFFFFFFFFFF AND MUL OR SWAP1 SSTORE POP PUSH1 0x20 DUP3 ADD MLOAD DUP2 PUSH0 ADD PUSH1 0x14 PUSH2 0x100 EXP DUP2 SLOAD DUP2 PUSH1 0xFF MUL NOT AND SWAP1 DUP4 ISZERO ISZERO MUL OR SWAP1 SSTORE POP PUSH1 0x40 DUP3 ADD MLOAD DUP2 PUSH1 0x1 ADD SWAP1 DUP2 PUSH2 0x644 SWAP2 SWAP1 PUSH2 0x1CCE JUMP JUMPDEST POP POP POP PUSH0 PUSH1 0x40 MLOAD DUP1 PUSH2 0x1A0 ADD PUSH1 0x40 MSTORE DUP1 PUSH4 0x499602D2 DUP2 MSTORE PUSH1 0x20 ADD CALLER PUSH20 0xFFFFFFFFFFFFFFFFFFFFFFFFFFFFFFFFFFFFFFFF AND DUP2 MSTORE PUSH1 0x20 ADD PUSH1 0x40 MLOAD DUP1 PUSH1 0x20 ADD PUSH1 0x40 MSTORE DUP1 PUSH0 DUP2 MSTORE POP DUP2 MSTORE PUSH1 0x20 ADD PUSH1 0x1 DUP2 MSTORE PUSH1 0x20 ADD PUSH3 0x69780 DUP2 MSTORE PUSH1 0x20 ADD PUSH1 0x40 MLOAD DUP1 PUSH1 0x20 ADD PUSH1 0x40 MSTORE DUP1 PUSH0 DUP2 MSTORE POP DUP2 MSTORE PUSH1 0x20 ADD PUSH10 0x1D9CA7A480674860000 DUP2 MSTORE PUSH1 0x20 ADD PUSH1 0x40 MLOAD DUP1 PUSH1 0x20 ADD PUSH1 0x40 MSTORE DUP1 PUSH0 DUP2 MSTORE POP DUP2 MSTORE PUSH1 0x20 ADD PUSH1 0x40 MLOAD DUP1 PUSH1 0x20 ADD PUSH1 0x40 MSTORE DUP1 PUSH0 DUP2 MSTORE POP DUP2 MSTORE PUSH1 0x20 ADD PUSH1 0x2 DUP1 SLOAD DUP1 PUSH1 0x20 MUL PUSH1 0x20 ADD PUSH1 0x40 MLOAD SWAP1 DUP2 ADD PUSH1 0x40 MSTORE DUP1 SWAP3 SWAP2 SWAP1 DUP2 DUP2 MSTORE PUSH1 0x20 ADD PUSH0 SWAP1 JUMPDEST DUP3 DUP3 LT ISZERO PUSH2 0x839 JUMPI DUP4 DUP3 SWAP1 PUSH0 MSTORE PUSH1 0x20 PUSH0 KECCAK256 SWAP1 PUSH1 0x2 MUL ADD PUSH1 0x40 MLOAD DUP1 PUSH1 0x60 ADD PUSH1 0x40 MSTORE SWAP1 DUP2 PUSH0 DUP3 ADD PUSH0 SWAP1 SLOAD SWAP1 PUSH2 0x100 EXP SWAP1 DIV PUSH20 0xFFFFFFFFFFFFFFFFFFFFFFFFFFFFFFFFFFFFFFFF AND PUSH20 0xFFFFFFFFFFFFFFFFFFFFFFFFFFFFFFFFFFFFFFFF AND PUSH20 0xFFFFFFFFFFFFFFFFFFFFFFFFFFFFFFFFFFFFFFFF AND DUP2 MSTORE PUSH1 0x20 ADD PUSH0 DUP3 ADD PUSH1 0x14 SWAP1 SLOAD SWAP1 PUSH2 0x100 EXP SWAP1 DIV PUSH1 0xFF AND ISZERO ISZERO ISZERO ISZERO DUP2 MSTORE PUSH1 0x20 ADD PUSH1 0x1 DUP3 ADD DUP1 SLOAD PUSH2 0x7AA SWAP1 PUSH2 0x1B07 JUMP JUMPDEST DUP1 PUSH1 0x1F ADD PUSH1 0x20 DUP1 SWAP2 DIV MUL PUSH1 0x20 ADD PUSH1 0x40 MLOAD SWAP1 DUP2 ADD PUSH1 0x40 MSTORE DUP1 SWAP3 SWAP2 SWAP1 DUP2 DUP2 MSTORE PUSH1 0x20 ADD DUP3 DUP1 SLOAD PUSH2 0x7D6 SWAP1 PUSH2 0x1B07 JUMP JUMPDEST DUP1 ISZERO PUSH2 0x821 JUMPI DUP1 PUSH1 0x1F LT PUSH2 0x7F8 JUMPI PUSH2 0x100 DUP1 DUP4 SLOAD DIV MUL DUP4 MSTORE SWAP2 PUSH1 0x20 ADD SWAP2 PUSH2 0x821 JUMP JUMPDEST DUP3 ADD SWAP2 SWAP1 PUSH0 MSTORE PUSH1 0x20 PUSH0 KECCAK256 SWAP1 JUMPDEST DUP2 SLOAD DUP2 MSTORE SWAP1 PUSH1 0x1 ADD SWAP1 PUSH1 0x20 ADD DUP1 DUP4 GT PUSH2 0x804 JUMPI DUP3 SWAP1 SUB PUSH1 0x1F AND DUP3 ADD SWAP2 JUMPDEST POP POP POP POP POP DUP2 MSTORE POP POP DUP2 MSTORE PUSH1 0x20 ADD SWAP1 PUSH1 0x1 ADD SWAP1 PUSH2 0x70B JUMP JUMPDEST POP POP POP POP DUP2 MSTORE PUSH1 0x20 ADD PUSH1 0x3 DUP1 SLOAD DUP1 PUSH1 0x20 MUL PUSH1 0x20 ADD PUSH1 0x40 MLOAD SWAP1 DUP2 ADD PUSH1 0x40 MSTORE DUP1 SWAP3 SWAP2 SWAP1 DUP2 DUP2 MSTORE PUSH1 0x20 ADD PUSH0 SWAP1 JUMPDEST DUP3 DUP3 LT ISZERO PUSH2 0x991 JUMPI DUP4 DUP3 SWAP1 PUSH0 MSTORE PUSH1 0x20 PUSH0 KECCAK256 SWAP1 PUSH1 0x2 MUL ADD PUSH1 0x40 MLOAD DUP1 PUSH1 0x60 ADD PUSH1 0x40 MSTORE SWAP1 DUP2 PUSH0 DUP3 ADD PUSH0 SWAP1 SLOAD SWAP1 PUSH2 0x100 EXP SWAP1 DIV PUSH20 0xFFFFFFFFFFFFFFFFFFFFFFFFFFFFFFFFFFFFFFFF AND PUSH20 0xFFFFFFFFFFFFFFFFFFFFFFFFFFFFFFFFFFFFFFFF AND PUSH20 0xFFFFFFFFFFFFFFFFFFFFFFFFFFFFFFFFFFFFFFFF AND DUP2 MSTORE PUSH1 0x20 ADD PUSH0 DUP3 ADD PUSH1 0x14 SWAP1 SLOAD SWAP1 PUSH2 0x100 EXP SWAP1 DIV PUSH1 0xFF AND ISZERO ISZERO ISZERO ISZERO DUP2 MSTORE PUSH1 0x20 ADD PUSH1 0x1 DUP3 ADD DUP1 SLOAD PUSH2 0x902 SWAP1 PUSH2 0x1B07 JUMP JUMPDEST DUP1 PUSH1 0x1F ADD PUSH1 0x20 DUP1 SWAP2 DIV MUL PUSH1 0x20 ADD PUSH1 0x40 MLOAD SWAP1 DUP2 ADD PUSH1 0x40 MSTORE DUP1 SWAP3 SWAP2 SWAP1 DUP2 DUP2 MSTORE PUSH1 0x20 ADD DUP3 DUP1 SLOAD PUSH2 0x92E SWAP1 PUSH2 0x1B07 JUMP JUMPDEST DUP1 ISZERO PUSH2 0x979 JUMPI DUP1 PUSH1 0x1F LT PUSH2 0x950 JUMPI PUSH2 0x100 DUP1 DUP4 SLOAD DIV MUL DUP4 MSTORE SWAP2 PUSH1 0x20 ADD SWAP2 PUSH2 0x979 JUMP JUMPDEST DUP3 ADD SWAP2 SWAP1 PUSH0 MSTORE PUSH1 0x20 PUSH0 KECCAK256 SWAP1 JUMPDEST DUP2 SLOAD DUP2 MSTORE SWAP1 PUSH1 0x1 ADD SWAP1 PUSH1 0x20 ADD DUP1 DUP4 GT PUSH2 0x95C JUMPI DUP3 SWAP1 SUB PUSH1 0x1F AND DUP3 ADD SWAP2 JUMPDEST POP POP POP POP POP DUP2 MSTORE POP POP DUP2 MSTORE PUSH1 0x20 ADD SWAP1 PUSH1 0x1 ADD SWAP1 PUSH2 0x863 JUMP JUMPDEST POP POP POP POP DUP2 MSTORE PUSH1 0x20 ADD PUSH1 0x3 PUSH1 0x4 DUP2 GT ISZERO PUSH2 0x9AE JUMPI PUSH2 0x9AD PUSH2 0x1D9D JUMP JUMPDEST JUMPDEST DUP2 MSTORE PUSH1 0x20 ADD PUSH1 0x1 ISZERO ISZERO DUP2 MSTORE POP SWAP1 POP PUSH0 PUSH1 0x40 MLOAD DUP1 PUSH1 0x80 ADD PUSH1 0x40 MSTORE DUP1 CALLER PUSH20 0xFFFFFFFFFFFFFFFFFFFFFFFFFFFFFFFFFFFFFFFF AND DUP2 MSTORE PUSH1 0x20 ADD PUSH1 0x40 MLOAD DUP1 PUSH1 0x40 ADD PUSH1 0x40 MSTORE DUP1 PUSH1 0x3 DUP2 MSTORE PUSH1 0x20 ADD PUSH32 0x53616D0000000000000000000000000000000000000000000000000000000000 DUP2 MSTORE POP DUP2 MSTORE PUSH1 0x20 ADD PUSH1 0xA DUP2 MSTORE PUSH1 0x20 ADD PUSH7 0x2386F26FC10000 DUP2 MSTORE POP SWAP1 POP PUSH32 0x135290006F1871309577D248CF00619459A79B4A735638108A2BB080319C90D6 DUP2 PUSH1 0x20 ADD MLOAD DUP3 PUSH1 0x60 ADD MLOAD PUSH1 0x40 MLOAD PUSH2 0xA6C SWAP3 SWAP2 SWAP1 PUSH2 0x1E2F JUMP JUMPDEST PUSH1 0x40 MLOAD DUP1 SWAP2 SUB SWAP1 LOG1 PUSH1 0x4 SELFBALANCE LT PUSH2 0xBBD JUMPI PUSH0 PUSH0 PUSH0 SWAP1 SLOAD SWAP1 PUSH2 0x100 EXP SWAP1 DIV PUSH20 0xFFFFFFFFFFFFFFFFFFFFFFFFFFFFFFFFFFFFFFFF AND PUSH20 0xFFFFFFFFFFFFFFFFFFFFFFFFFFFFFFFFFFFFFFFF AND PUSH4 0xC618A1E4 PUSH1 0x40 MLOAD DUP2 PUSH4 0xFFFFFFFF AND PUSH1 0xE0 SHL DUP2 MSTORE PUSH1 0x4 ADD PUSH1 0x20 PUSH1 0x40 MLOAD DUP1 DUP4 SUB DUP2 DUP7 GAS STATICCALL ISZERO DUP1 ISZERO PUSH2 0xAE6 JUMPI RETURNDATASIZE PUSH0 PUSH0 RETURNDATACOPY RETURNDATASIZE PUSH0 REVERT JUMPDEST POP POP POP POP PUSH1 0x40 MLOAD RETURNDATASIZE PUSH1 0x1F NOT PUSH1 0x1F DUP3 ADD AND DUP3 ADD DUP1 PUSH1 0x40 MSTORE POP DUP2 ADD SWAP1 PUSH2 0xB0A SWAP2 SWAP1 PUSH2 0x1E87 JUMP JUMPDEST SWAP1 POP PUSH0 PUSH0 PUSH0 SWAP1 SLOAD SWAP1 PUSH2 0x100 EXP SWAP1 DIV PUSH20 0xFFFFFFFFFFFFFFFFFFFFFFFFFFFFFFFFFFFFFFFF AND PUSH20 0xFFFFFFFFFFFFFFFFFFFFFFFFFFFFFFFFFFFFFFFF AND PUSH4 0x2ADB9E3C PUSH1 0x1 PUSH1 0x40 MLOAD DUP3 PUSH4 0xFFFFFFFF AND PUSH1 0xE0 SHL DUP2 MSTORE PUSH1 0x4 ADD PUSH2 0xB67 SWAP2 SWAP1 PUSH2 0x1956 JUMP JUMPDEST PUSH1 0x20 PUSH1 0x40 MLOAD DUP1 DUP4 SUB DUP2 PUSH0 DUP8 GAS CALL ISZERO DUP1 ISZERO PUSH2 0xB83 JUMPI RETURNDATASIZE PUSH0 PUSH0 RETURNDATACOPY RETURNDATASIZE PUSH0 REVERT JUMPDEST POP POP POP POP PUSH1 0x40 MLOAD RETURNDATASIZE PUSH1 0x1F NOT PUSH1 0x1F DUP3 ADD AND DUP3 ADD DUP1 PUSH1 0x40 MSTORE POP DUP2 ADD SWAP1 PUSH2 0xBA7 SWAP2 SWAP1 PUSH2 0x19B3 JUMP JUMPDEST PUSH0 SHR SWAP1 POP PUSH2 0xBB6 DUP5 DUP5 DUP5 PUSH2 0xD85 JUMP JUMPDEST POP POP PUSH2 0xBF3 JUMP JUMPDEST PUSH32 0xDB42F09D5A5CB193EA3EAE569C8CE2E3A5C8D8B68AADBE1A637F44D07F67BC17 PUSH1 0x40 MLOAD PUSH2 0xBEA SWAP1 PUSH2 0x1EFC JUMP JUMPDEST PUSH1 0x40 MLOAD DUP1 SWAP2 SUB SWAP1 LOG1 JUMPDEST STOP JUMPDEST PUSH0 PUSH0 REVERT JUMPDEST CALLVALUE DUP1 ISZERO PUSH2 0xC04 JUMPI PUSH0 PUSH0 REVERT JUMPDEST POP PUSH2 0xC0D PUSH2 0x1313 JUMP JUMPDEST PUSH1 0x40 MLOAD PUSH2 0xC1A SWAP2 SWAP1 PUSH2 0x1F6C JUMP JUMPDEST PUSH1 0x40 MLOAD DUP1 SWAP2 SUB SWAP1 RETURN JUMPDEST PUSH2 0xC3D PUSH1 0x4 DUP1 CALLDATASIZE SUB DUP2 ADD SWAP1 PUSH2 0xC38 SWAP2 SWAP1 PUSH2 0x1FC0 JUMP JUMPDEST PUSH2 0x1337 JUMP JUMPDEST STOP JUMPDEST CALLVALUE DUP1 ISZERO PUSH2 0xC4A JUMPI PUSH0 PUSH0 REVERT JUMPDEST POP PUSH2 0xC65 PUSH1 0x4 DUP1 CALLDATASIZE SUB DUP2 ADD SWAP1 PUSH2 0xC60 SWAP2 SWAP1 PUSH2 0x1FFF JUMP JUMPDEST PUSH2 0x147C JUMP JUMPDEST PUSH1 0x40 MLOAD PUSH2 0xC74 SWAP4 SWAP3 SWAP2 SWAP1 PUSH2 0x2053 JUMP JUMPDEST PUSH1 0x40 MLOAD DUP1 SWAP2 SUB SWAP1 RETURN JUMPDEST CALLVALUE DUP1 ISZERO PUSH2 0xC88 JUMPI PUSH0 PUSH0 REVERT JUMPDEST POP PUSH2 0xCA3 PUSH1 0x4 DUP1 CALLDATASIZE SUB DUP2 ADD SWAP1 PUSH2 0xC9E SWAP2 SWAP1 PUSH2 0x1FFF JUMP JUMPDEST PUSH2 0x1562 JUMP JUMPDEST PUSH1 0x40 MLOAD PUSH2 0xCB1 SWAP3 SWAP2 SWAP1 PUSH2 0x208F JUMP JUMPDEST PUSH1 0x40 MLOAD DUP1 SWAP2 SUB SWAP1 RETURN JUMPDEST CALLVALUE DUP1 ISZERO PUSH2 0xCC5 JUMPI PUSH0 PUSH0 REVERT JUMPDEST POP PUSH2 0xCCE PUSH2 0x1631 JUMP JUMPDEST STOP JUMPDEST CALLVALUE DUP1 ISZERO PUSH2 0xCDB JUMPI PUSH0 PUSH0 REVERT JUMPDEST POP PUSH2 0xCF6 PUSH1 0x4 DUP1 CALLDATASIZE SUB DUP2 ADD SWAP1 PUSH2 0xCF1 SWAP2 SWAP1 PUSH2 0x1FFF JUMP JUMPDEST PUSH2 0x1697 JUMP JUMPDEST PUSH1 0x40 MLOAD PUSH2 0xD05 SWAP4 SWAP3 SWAP2 SWAP1 PUSH2 0x2053 JUMP JUMPDEST PUSH1 0x40 MLOAD DUP1 SWAP2 SUB SWAP1 RETURN JUMPDEST PUSH2 0xD28 PUSH1 0x4 DUP1 CALLDATASIZE SUB DUP2 ADD SWAP1 PUSH2 0xD23 SWAP2 SWAP1 PUSH2 0x25D7 JUMP JUMPDEST PUSH2 0xD85 JUMP JUMPDEST STOP JUMPDEST PUSH2 0xD44 PUSH1 0x4 DUP1 CALLDATASIZE SUB DUP2 ADD SWAP1 PUSH2 0xD3F SWAP2 SWAP1 PUSH2 0x265F JUMP JUMPDEST PUSH2 0x177D JUMP JUMPDEST STOP JUMPDEST CALLVALUE DUP1 ISZERO PUSH2 0xD51 JUMPI PUSH0 PUSH0 REVERT JUMPDEST POP PUSH2 0xD6C PUSH1 0x4 DUP1 CALLDATASIZE SUB DUP2 ADD SWAP1 PUSH2 0xD67 SWAP2 SWAP1 PUSH2 0x26C7 JUMP JUMPDEST PUSH2 0x182D JUMP JUMPDEST PUSH1 0x40 MLOAD PUSH2 0xD7C SWAP5 SWAP4 SWAP3 SWAP2 SWAP1 PUSH2 0x26F2 JUMP JUMPDEST PUSH1 0x40 MLOAD DUP1 SWAP2 SUB SWAP1 RETURN JUMPDEST PUSH0 PUSH0 PUSH2 0xD94 DUP5 PUSH1 0x40 ADD MLOAD PUSH2 0x1562 JUMP JUMPDEST SWAP2 POP SWAP2 POP PUSH32 0x135290006F1871309577D248CF00619459A79B4A735638108A2BB080319C90D6 PUSH1 0x1 PUSH1 0x40 MLOAD PUSH2 0xDC8 SWAP2 SWAP1 PUSH2 0x2786 JUMP JUMPDEST PUSH1 0x40 MLOAD DUP1 SWAP2 SUB SWAP1 LOG1 PUSH1 0x3 PUSH1 0x4 DUP2 GT ISZERO PUSH2 0xDE4 JUMPI PUSH2 0xDE3 PUSH2 0x1D9D JUMP JUMPDEST JUMPDEST DUP6 PUSH2 0x160 ADD MLOAD PUSH1 0x4 DUP2 GT ISZERO PUSH2 0xDFC JUMPI PUSH2 0xDFB PUSH2 0x1D9D JUMP JUMPDEST JUMPDEST SUB PUSH2 0xFD2 JUMPI PUSH32 0x135290006F1871309577D248CF00619459A79B4A735638108A2BB080319C90D6 PUSH1 0x1 PUSH1 0x40 MLOAD PUSH2 0xE31 SWAP2 SWAP1 PUSH2 0x27FC JUMP JUMPDEST PUSH1 0x40 MLOAD DUP1 SWAP2 SUB SWAP1 LOG1 PUSH2 0xE58 PUSH20 0xCBD38ADA2D31C7071E041FC8F8C1DA9DF9C76DD4 PUSH1 0x1 PUSH2 0x177D JUMP JUMPDEST PUSH1 0x1 DUP5 PUSH1 0x40 ADD DUP2 DUP2 MLOAD PUSH2 0xE6B SWAP2 SWAP1 PUSH2 0x2855 JUMP JUMPDEST SWAP2 POP DUP2 DUP2 MSTORE POP POP PUSH0 PUSH0 PUSH0 SWAP1 SLOAD SWAP1 PUSH2 0x100 EXP SWAP1 DIV PUSH20 0xFFFFFFFFFFFFFFFFFFFFFFFFFFFFFFFFFFFFFFFF AND PUSH20 0xFFFFFFFFFFFFFFFFFFFFFFFFFFFFFFFFFFFFFFFF AND PUSH4 0xC618A1E4 PUSH1 0x40 MLOAD DUP2 PUSH4 0xFFFFFFFF AND PUSH1 0xE0 SHL DUP2 MSTORE PUSH1 0x4 ADD PUSH1 0x20 PUSH1 0x40 MLOAD DUP1 DUP4 SUB DUP2 DUP7 GAS STATICCALL ISZERO DUP1 ISZERO PUSH2 0xEDC JUMPI RETURNDATASIZE PUSH0 PUSH0 RETURNDATACOPY RETURNDATASIZE PUSH0 REVERT JUMPDEST POP POP POP POP PUSH1 0x40 MLOAD RETURNDATASIZE PUSH1 0x1F NOT PUSH1 0x1F DUP3 ADD AND DUP3 ADD DUP1 PUSH1 0x40 MSTORE POP DUP2 ADD SWAP1 PUSH2 0xF00 SWAP2 SWAP1 PUSH2 0x1E87 JUMP JUMPDEST SWAP1 POP PUSH32 0x135290006F1871309577D248CF00619459A79B4A735638108A2BB080319C90D6 DUP5 PUSH1 0x40 MLOAD PUSH2 0xF31 SWAP2 SWAP1 PUSH2 0x28D2 JUMP JUMPDEST PUSH1 0x40 MLOAD DUP1 SWAP2 SUB SWAP1 LOG1 PUSH32 0x135290006F1871309577D248CF00619459A79B4A735638108A2BB080319C90D6 DUP2 PUSH1 0x40 MLOAD PUSH2 0xF68 SWAP2 SWAP1 PUSH2 0x2948 JUMP JUMPDEST PUSH1 0x40 MLOAD DUP1 SWAP2 SUB SWAP1 LOG1 DUP1 DUP5 SUB PUSH2 0xFCC JUMPI PUSH2 0xF96 PUSH20 0xCBD38ADA2D31C7071E041FC8F8C1DA9DF9C76DD4 PUSH1 0x1 PUSH2 0x177D JUMP JUMPDEST PUSH32 0xDB42F09D5A5CB193EA3EAE569C8CE2E3A5C8D8B68AADBE1A637F44D07F67BC17 PUSH1 0x40 MLOAD PUSH2 0xFC3 SWAP1 PUSH2 0x29BE JUMP JUMPDEST PUSH1 0x40 MLOAD DUP1 SWAP2 SUB SWAP1 LOG1 JUMPDEST POP PUSH2 0x1259 JUMP JUMPDEST PUSH1 0x4 DUP1 DUP2 GT ISZERO PUSH2 0xFE5 JUMPI PUSH2 0xFE4 PUSH2 0x1D9D JUMP JUMPDEST JUMPDEST DUP6 PUSH2 0x160 ADD MLOAD PUSH1 0x4 DUP2 GT ISZERO PUSH2 0xFFD JUMPI PUSH2 0xFFC PUSH2 0x1D9D JUMP JUMPDEST JUMPDEST SUB PUSH2 0x1258 JUMPI PUSH0 PUSH0 PUSH0 SWAP1 SLOAD SWAP1 PUSH2 0x100 EXP SWAP1 DIV PUSH20 0xFFFFFFFFFFFFFFFFFFFFFFFFFFFFFFFFFFFFFFFF AND PUSH20 0xFFFFFFFFFFFFFFFFFFFFFFFFFFFFFFFFFFFFFFFF AND PUSH4 0xC618A1E4 PUSH1 0x40 MLOAD DUP2 PUSH4 0xFFFFFFFF AND PUSH1 0xE0 SHL DUP2 MSTORE PUSH1 0x4 ADD PUSH1 0x20 PUSH1 0x40 MLOAD DUP1 DUP4 SUB DUP2 DUP7 GAS STATICCALL ISZERO DUP1 ISZERO PUSH2 0x106C JUMPI RETURNDATASIZE PUSH0 PUSH0 RETURNDATACOPY RETURNDATASIZE PUSH0 REVERT JUMPDEST POP POP POP POP PUSH1 0x40 MLOAD RETURNDATASIZE PUSH1 0x1F NOT PUSH1 0x1F DUP3 ADD AND DUP3 ADD DUP1 PUSH1 0x40 MSTORE POP DUP2 ADD SWAP1 PUSH2 0x1090 SWAP2 SWAP1 PUSH2 0x1E87 JUMP JUMPDEST SWAP1 POP DUP1 DUP5 SUB PUSH2 0x123C JUMPI PUSH2 0x10DE DUP7 PUSH2 0x140 ADD MLOAD PUSH0 DUP2 MLOAD DUP2 LT PUSH2 0x10B4 JUMPI PUSH2 0x10B3 PUSH2 0x29DC JUMP JUMPDEST JUMPDEST PUSH1 0x20 MUL PUSH1 0x20 ADD ADD MLOAD PUSH0 ADD MLOAD PUSH1 0x3 PUSH2 0x7D0 DUP6 PUSH2 0x10CF SWAP2 SWAP1 PUSH2 0x2855 JUMP JUMPDEST PUSH2 0x10D9 SWAP2 SWAP1 PUSH2 0x2A36 JUMP JUMPDEST PUSH2 0x177D JUMP JUMPDEST PUSH2 0x1124 DUP7 PUSH2 0x140 ADD MLOAD PUSH1 0x1 DUP2 MLOAD DUP2 LT PUSH2 0x10FA JUMPI PUSH2 0x10F9 PUSH2 0x29DC JUMP JUMPDEST JUMPDEST PUSH1 0x20 MUL PUSH1 0x20 ADD ADD MLOAD PUSH0 ADD MLOAD PUSH1 0x3 PUSH2 0x7D0 DUP6 PUSH2 0x1115 SWAP2 SWAP1 PUSH2 0x2855 JUMP JUMPDEST PUSH2 0x111F SWAP2 SWAP1 PUSH2 0x2A36 JUMP JUMPDEST PUSH2 0x177D JUMP JUMPDEST PUSH2 0x116A DUP7 PUSH2 0x140 ADD MLOAD PUSH1 0x2 DUP2 MLOAD DUP2 LT PUSH2 0x1140 JUMPI PUSH2 0x113F PUSH2 0x29DC JUMP JUMPDEST JUMPDEST PUSH1 0x20 MUL PUSH1 0x20 ADD ADD MLOAD PUSH0 ADD MLOAD PUSH1 0x3 PUSH2 0x7D0 DUP6 PUSH2 0x115B SWAP2 SWAP1 PUSH2 0x2855 JUMP JUMPDEST PUSH2 0x1165 SWAP2 SWAP1 PUSH2 0x2A36 JUMP JUMPDEST PUSH2 0x177D JUMP JUMPDEST PUSH2 0x11AF DUP7 PUSH2 0x120 ADD MLOAD PUSH0 DUP2 MLOAD DUP2 LT PUSH2 0x1185 JUMPI PUSH2 0x1184 PUSH2 0x29DC JUMP JUMPDEST JUMPDEST PUSH1 0x20 MUL PUSH1 0x20 ADD ADD MLOAD PUSH0 ADD MLOAD PUSH1 0x3 PUSH2 0x7D0 DUP6 PUSH2 0x11A0 SWAP2 SWAP1 PUSH2 0x2855 JUMP JUMPDEST PUSH2 0x11AA SWAP2 SWAP1 PUSH2 0x2A36 JUMP JUMPDEST PUSH2 0x177D JUMP JUMPDEST PUSH2 0x11F5 DUP7 PUSH2 0x120 ADD MLOAD PUSH1 0x1 DUP2 MLOAD DUP2 LT PUSH2 0x11CB JUMPI PUSH2 0x11CA PUSH2 0x29DC JUMP JUMPDEST JUMPDEST PUSH1 0x20 MUL PUSH1 0x20 ADD ADD MLOAD PUSH0 ADD MLOAD PUSH1 0x3 PUSH2 0x7D0 DUP6 PUSH2 0x11E6 SWAP2 SWAP1 PUSH2 0x2855 JUMP JUMPDEST PUSH2 0x11F0 SWAP2 SWAP1 PUSH2 0x2A36 JUMP JUMPDEST PUSH2 0x177D JUMP JUMPDEST PUSH2 0x123B DUP7 PUSH2 0x120 ADD MLOAD PUSH1 0x2 DUP2 MLOAD DUP2 LT PUSH2 0x1211 JUMPI PUSH2 0x1210 PUSH2 0x29DC JUMP JUMPDEST JUMPDEST PUSH1 0x20 MUL PUSH1 0x20 ADD ADD MLOAD PUSH0 ADD MLOAD PUSH1 0x3 PUSH2 0x7D0 DUP6 PUSH2 0x122C SWAP2 SWAP1 PUSH2 0x2855 JUMP JUMPDEST PUSH2 0x1236 SWAP2 SWAP1 PUSH2 0x2A36 JUMP JUMPDEST PUSH2 0x177D JUMP JUMPDEST JUMPDEST PUSH1 0x1 DUP6 PUSH1 0x40 ADD DUP2 DUP2 MLOAD PUSH2 0x124F SWAP2 SWAP1 PUSH2 0x2A66 JUMP JUMPDEST SWAP2 POP DUP2 DUP2 MSTORE POP POP POP JUMPDEST JUMPDEST PUSH2 0x1265 DUP5 PUSH0 ADD MLOAD PUSH2 0x1337 JUMP JUMPDEST PUSH2 0x1283 PUSH20 0xCBD38ADA2D31C7071E041FC8F8C1DA9DF9C76DD4 SELFBALANCE PUSH2 0x177D JUMP JUMPDEST PUSH32 0x135290006F1871309577D248CF00619459A79B4A735638108A2BB080319C90D6 DUP5 PUSH1 0x60 ADD MLOAD PUSH1 0x40 MLOAD PUSH2 0x12B6 SWAP2 SWAP1 PUSH2 0x2AE3 JUMP JUMPDEST PUSH1 0x40 MLOAD DUP1 SWAP2 SUB SWAP1 LOG1 PUSH32 0x135290006F1871309577D248CF00619459A79B4A735638108A2BB080319C90D6 CALLER PUSH20 0xFFFFFFFFFFFFFFFFFFFFFFFFFFFFFFFFFFFFFFFF AND BALANCE PUSH1 0x40 MLOAD PUSH2 0x1304 SWAP2 SWAP1 PUSH2 0x2B59 JUMP JUMPDEST PUSH1 0x40 MLOAD DUP1 SWAP2 SUB SWAP1 LOG1 POP POP POP POP POP JUMP JUMPDEST PUSH0 PUSH0 SWAP1 SLOAD SWAP1 PUSH2 0x100 EXP SWAP1 DIV PUSH20 0xFFFFFFFFFFFFFFFFFFFFFFFFFFFFFFFFFFFFFFFF AND DUP2 JUMP JUMPDEST PUSH0 PUSH1 0x1 PUSH0 DUP4 PUSH20 0xFFFFFFFFFFFFFFFFFFFFFFFFFFFFFFFFFFFFFFFF AND PUSH20 0xFFFFFFFFFFFFFFFFFFFFFFFFFFFFFFFFFFFFFFFF AND DUP2 MSTORE PUSH1 0x20 ADD SWAP1 DUP2 MSTORE PUSH1 0x20 ADD PUSH0 KECCAK256 PUSH1 0x2 ADD SLOAD SUB PUSH2 0x13D9 JUMPI PUSH1 0x1 DUP1 PUSH0 DUP4 PUSH20 0xFFFFFFFFFFFFFFFFFFFFFFFFFFFFFFFFFFFFFFFF AND PUSH20 0xFFFFFFFFFFFFFFFFFFFFFFFFFFFFFFFFFFFFFFFF AND DUP2 MSTORE PUSH1 0x20 ADD SWAP1 DUP2 MSTORE PUSH1 0x20 ADD PUSH0 KECCAK256 PUSH1 0x2 ADD PUSH0 DUP3 DUP3 SLOAD PUSH2 0x13CD SWAP2 SWAP1 PUSH2 0x2855 JUMP JUMPDEST SWAP3 POP POP DUP2 SWAP1 SSTORE POP PUSH2 0x1479 JUMP JUMPDEST PUSH1 0xA PUSH1 0x1 PUSH0 DUP4 PUSH20 0xFFFFFFFFFFFFFFFFFFFFFFFFFFFFFFFFFFFFFFFF AND PUSH20 0xFFFFFFFFFFFFFFFFFFFFFFFFFFFFFFFFFFFFFFFF AND DUP2 MSTORE PUSH1 0x20 ADD SWAP1 DUP2 MSTORE PUSH1 0x20 ADD PUSH0 KECCAK256 PUSH1 0x2 ADD SLOAD SUB PUSH2 0x1478 JUMPI PUSH1 0x1 DUP1 PUSH0 DUP4 PUSH20 0xFFFFFFFFFFFFFFFFFFFFFFFFFFFFFFFFFFFFFFFF AND PUSH20 0xFFFFFFFFFFFFFFFFFFFFFFFFFFFFFFFFFFFFFFFF AND DUP2 MSTORE PUSH1 0x20 ADD SWAP1 DUP2 MSTORE PUSH1 0x20 ADD PUSH0 KECCAK256 PUSH1 0x2 ADD PUSH0 DUP3 DUP3 SLOAD PUSH2 0x1470 SWAP2 SWAP1 PUSH2 0x2A66 JUMP JUMPDEST SWAP3 POP POP DUP2 SWAP1 SSTORE POP JUMPDEST JUMPDEST POP JUMP JUMPDEST PUSH1 0x2 DUP2 DUP2 SLOAD DUP2 LT PUSH2 0x148B JUMPI PUSH0 DUP1 REVERT JUMPDEST SWAP1 PUSH0 MSTORE PUSH1 0x20 PUSH0 KECCAK256 SWAP1 PUSH1 0x2 MUL ADD PUSH0 SWAP2 POP SWAP1 POP DUP1 PUSH0 ADD PUSH0 SWAP1 SLOAD SWAP1 PUSH2 0x100 EXP SWAP1 DIV PUSH20 0xFFFFFFFFFFFFFFFFFFFFFFFFFFFFFFFFFFFFFFFF AND SWAP1 DUP1 PUSH0 ADD PUSH1 0x14 SWAP1 SLOAD SWAP1 PUSH2 0x100 EXP SWAP1 DIV PUSH1 0xFF AND SWAP1 DUP1 PUSH1 0x1 ADD DUP1 SLOAD PUSH2 0x14E1 SWAP1 PUSH2 0x1B07 JUMP JUMPDEST DUP1 PUSH1 0x1F ADD PUSH1 0x20 DUP1 SWAP2 DIV MUL PUSH1 0x20 ADD PUSH1 0x40 MLOAD SWAP1 DUP2 ADD PUSH1 0x40 MSTORE DUP1 SWAP3 SWAP2 SWAP1 DUP2 DUP2 MSTORE PUSH1 0x20 ADD DUP3 DUP1 SLOAD PUSH2 0x150D SWAP1 PUSH2 0x1B07 JUMP JUMPDEST DUP1 ISZERO PUSH2 0x1558 JUMPI DUP1 PUSH1 0x1F LT PUSH2 0x152F JUMPI PUSH2 0x100 DUP1 DUP4 SLOAD DIV MUL DUP4 MSTORE SWAP2 PUSH1 0x20 ADD SWAP2 PUSH2 0x1558 JUMP JUMPDEST DUP3 ADD SWAP2 SWAP1 PUSH0 MSTORE PUSH1 0x20 PUSH0 KECCAK256 SWAP1 JUMPDEST DUP2 SLOAD DUP2 MSTORE SWAP1 PUSH1 0x1 ADD SWAP1 PUSH1 0x20 ADD DUP1 DUP4 GT PUSH2 0x153B JUMPI DUP3 SWAP1 SUB PUSH1 0x1F AND DUP3 ADD SWAP2 JUMPDEST POP POP POP POP POP SWAP1 POP DUP4 JUMP JUMPDEST PUSH0 PUSH0 PUSH0 PUSH1 0x5 DUP5 PUSH2 0x1572 SWAP2 SWAP1 PUSH2 0x2B85 JUMP JUMPDEST PUSH2 0x3E8 PUSH2 0x157F SWAP2 SWAP1 PUSH2 0x2A36 JUMP JUMPDEST SWAP1 POP PUSH0 DUP2 PUSH2 0x3E8 PUSH2 0x1590 SWAP2 SWAP1 PUSH2 0x2A66 JUMP JUMPDEST SWAP1 POP PUSH32 0x135290006F1871309577D248CF00619459A79B4A735638108A2BB080319C90D6 PUSH2 0x3E8 DUP4 PUSH2 0x15C1 SWAP2 SWAP1 PUSH2 0x2855 JUMP JUMPDEST PUSH1 0x40 MLOAD PUSH2 0x15CE SWAP2 SWAP1 PUSH2 0x2C36 JUMP JUMPDEST PUSH1 0x40 MLOAD DUP1 SWAP2 SUB SWAP1 LOG1 PUSH32 0x135290006F1871309577D248CF00619459A79B4A735638108A2BB080319C90D6 CALLER PUSH20 0xFFFFFFFFFFFFFFFFFFFFFFFFFFFFFFFFFFFFFFFF AND BALANCE PUSH1 0x40 MLOAD PUSH2 0x161C SWAP2 SWAP1 PUSH2 0x2B59 JUMP JUMPDEST PUSH1 0x40 MLOAD DUP1 SWAP2 SUB SWAP1 LOG1 DUP2 DUP2 SWAP4 POP SWAP4 POP POP POP SWAP2 POP SWAP2 JUMP JUMPDEST PUSH1 0x40 MLOAD PUSH2 0x163D SWAP1 PUSH2 0x18FE JUMP JUMPDEST PUSH1 0x40 MLOAD DUP1 SWAP2 SUB SWAP1 PUSH0 CREATE DUP1 ISZERO DUP1 ISZERO PUSH2 0x1656 JUMPI RETURNDATASIZE PUSH0 PUSH0 RETURNDATACOPY RETURNDATASIZE PUSH0 REVERT JUMPDEST POP PUSH0 PUSH0 PUSH2 0x100 EXP DUP2 SLOAD DUP2 PUSH20 0xFFFFFFFFFFFFFFFFFFFFFFFFFFFFFFFFFFFFFFFF MUL NOT AND SWAP1 DUP4 PUSH20 0xFFFFFFFFFFFFFFFFFFFFFFFFFFFFFFFFFFFFFFFF AND MUL OR SWAP1 SSTORE POP JUMP JUMPDEST PUSH1 0x3 DUP2 DUP2 SLOAD DUP2 LT PUSH2 0x16A6 JUMPI PUSH0 DUP1 REVERT JUMPDEST SWAP1 PUSH0 MSTORE PUSH1 0x20 PUSH0 KECCAK256 SWAP1 PUSH1 0x2 MUL ADD PUSH0 SWAP2 POP SWAP1 POP DUP1 PUSH0 ADD PUSH0 SWAP1 SLOAD SWAP1 PUSH2 0x100 EXP SWAP1 DIV PUSH20 0xFFFFFFFFFFFFFFFFFFFFFFFFFFFFFFFFFFFFFFFF AND SWAP1 DUP1 PUSH0 ADD PUSH1 0x14 SWAP1 SLOAD SWAP1 PUSH2 0x100 EXP SWAP1 DIV PUSH1 0xFF AND SWAP1 DUP1 PUSH1 0x1 ADD DUP1 SLOAD PUSH2 0x16FC SWAP1 PUSH2 0x1B07 JUMP JUMPDEST DUP1 PUSH1 0x1F ADD PUSH1 0x20 DUP1 SWAP2 DIV MUL PUSH1 0x20 ADD PUSH1 0x40 MLOAD SWAP1 DUP2 ADD PUSH1 0x40 MSTORE DUP1 SWAP3 SWAP2 SWAP1 DUP2 DUP2 MSTORE PUSH1 0x20 ADD DUP3 DUP1 SLOAD PUSH2 0x1728 SWAP1 PUSH2 0x1B07 JUMP JUMPDEST DUP1 ISZERO PUSH2 0x1773 JUMPI DUP1 PUSH1 0x1F LT PUSH2 0x174A JUMPI PUSH2 0x100 DUP1 DUP4 SLOAD DIV MUL DUP4 MSTORE SWAP2 PUSH1 0x20 ADD SWAP2 PUSH2 0x1773 JUMP JUMPDEST DUP3 ADD SWAP2 SWAP1 PUSH0 MSTORE PUSH1 0x20 PUSH0 KECCAK256 SWAP1 JUMPDEST DUP2 SLOAD DUP2 MSTORE SWAP1 PUSH1 0x1 ADD SWAP1 PUSH1 0x20 ADD DUP1 DUP4 GT PUSH2 0x1756 JUMPI DUP3 SWAP1 SUB PUSH1 0x1F AND DUP3 ADD SWAP2 JUMPDEST POP POP POP POP POP SWAP1 POP DUP4 JUMP JUMPDEST PUSH0 PUSH0 DUP4 PUSH20 0xFFFFFFFFFFFFFFFFFFFFFFFFFFFFFFFFFFFFFFFF AND DUP4 PUSH1 0x40 MLOAD PUSH2 0x17A3 SWAP1 PUSH2 0x2C8F JUMP JUMPDEST PUSH0 PUSH1 0x40 MLOAD DUP1 DUP4 SUB DUP2 DUP6 DUP8 GAS CALL SWAP3 POP POP POP RETURNDATASIZE DUP1 PUSH0 DUP2 EQ PUSH2 0x17DD JUMPI PUSH1 0x40 MLOAD SWAP2 POP PUSH1 0x1F NOT PUSH1 0x3F RETURNDATASIZE ADD AND DUP3 ADD PUSH1 0x40 MSTORE RETURNDATASIZE DUP3 MSTORE RETURNDATASIZE PUSH0 PUSH1 0x20 DUP5 ADD RETURNDATACOPY PUSH2 0x17E2 JUMP JUMPDEST PUSH1 0x60 SWAP2 POP JUMPDEST POP SWAP2 POP SWAP2 POP DUP2 PUSH2 0x1827 JUMPI PUSH1 0x40 MLOAD PUSH32 0x8C379A000000000000000000000000000000000000000000000000000000000 DUP2 MSTORE PUSH1 0x4 ADD PUSH2 0x181E SWAP1 PUSH2 0x2D13 JUMP JUMPDEST PUSH1 0x40 MLOAD DUP1 SWAP2 SUB SWAP1 REVERT JUMPDEST POP POP POP POP JUMP JUMPDEST PUSH1 0x1 PUSH1 0x20 MSTORE DUP1 PUSH0 MSTORE PUSH1 0x40 PUSH0 KECCAK256 PUSH0 SWAP2 POP SWAP1 POP DUP1 PUSH0 ADD PUSH0 SWAP1 SLOAD SWAP1 PUSH2 0x100 EXP SWAP1 DIV PUSH20 0xFFFFFFFFFFFFFFFFFFFFFFFFFFFFFFFFFFFFFFFF AND SWAP1 DUP1 PUSH1 0x1 ADD DUP1 SLOAD PUSH2 0x1871 SWAP1 PUSH2 0x1B07 JUMP JUMPDEST DUP1 PUSH1 0x1F ADD PUSH1 0x20 DUP1 SWAP2 DIV MUL PUSH1 0x20 ADD PUSH1 0x40 MLOAD SWAP1 DUP2 ADD PUSH1 0x40 MSTORE DUP1 SWAP3 SWAP2 SWAP1 DUP2 DUP2 MSTORE PUSH1 0x20 ADD DUP3 DUP1 SLOAD PUSH2 0x189D SWAP1 PUSH2 0x1B07 JUMP JUMPDEST DUP1 ISZERO PUSH2 0x18E8 JUMPI DUP1 PUSH1 0x1F LT PUSH2 0x18BF JUMPI PUSH2 0x100 DUP1 DUP4 SLOAD DIV MUL DUP4 MSTORE SWAP2 PUSH1 0x20 ADD SWAP2 PUSH2 0x18E8 JUMP JUMPDEST DUP3 ADD SWAP2 SWAP1 PUSH0 MSTORE PUSH1 0x20 PUSH0 KECCAK256 SWAP1 JUMPDEST DUP2 SLOAD DUP2 MSTORE SWAP1 PUSH1 0x1 ADD SWAP1 PUSH1 0x20 ADD DUP1 DUP4 GT PUSH2 0x18CB JUMPI DUP3 SWAP1 SUB PUSH1 0x1F AND DUP3 ADD SWAP2 JUMPDEST POP POP POP POP POP SWAP1 DUP1 PUSH1 0x2 ADD SLOAD SWAP1 DUP1 PUSH1 0x3 ADD SLOAD SWAP1 POP DUP5 JUMP JUMPDEST PUSH2 0x2587 DUP1 PUSH2 0x2D32 DUP4 CODECOPY ADD SWAP1 JUMP JUMPDEST PUSH0 DUP2 SWAP1 POP SWAP2 SWAP1 POP JUMP JUMPDEST PUSH0 DUP2 SWAP1 POP SWAP2 SWAP1 POP JUMP JUMPDEST PUSH0 DUP2 SWAP1 POP SWAP2 SWAP1 POP JUMP JUMPDEST PUSH0 PUSH2 0x1940 PUSH2 0x193B PUSH2 0x1936 DUP5 PUSH2 0x190B JUMP JUMPDEST PUSH2 0x191D JUMP JUMPDEST PUSH2 0x1914 JUMP JUMPDEST SWAP1 POP SWAP2 SWAP1 POP JUMP JUMPDEST PUSH2 0x1950 DUP2 PUSH2 0x1926 JUMP JUMPDEST DUP3 MSTORE POP POP JUMP JUMPDEST PUSH0 PUSH1 0x20 DUP3 ADD SWAP1 POP PUSH2 0x1969 PUSH0 DUP4 ADD DUP5 PUSH2 0x1947 JUMP JUMPDEST SWAP3 SWAP2 POP POP JUMP JUMPDEST PUSH0 PUSH1 0x40 MLOAD SWAP1 POP SWAP1 JUMP JUMPDEST PUSH0 PUSH0 REVERT JUMPDEST PUSH0 PUSH0 REVERT JUMPDEST PUSH0 DUP2 SWAP1 POP SWAP2 SWAP1 POP JUMP JUMPDEST PUSH2 0x1992 DUP2 PUSH2 0x1980 JUMP JUMPDEST DUP2 EQ PUSH2 0x199C JUMPI PUSH0 PUSH0 REVERT JUMPDEST POP JUMP JUMPDEST PUSH0 DUP2 MLOAD SWAP1 POP PUSH2 0x19AD DUP2 PUSH2 0x1989 JUMP JUMPDEST SWAP3 SWAP2 POP POP JUMP JUMPDEST PUSH0 PUSH1 0x20 DUP3 DUP5 SUB SLT ISZERO PUSH2 0x19C8 JUMPI PUSH2 0x19C7 PUSH2 0x1978 JUMP JUMPDEST JUMPDEST PUSH0 PUSH2 0x19D5 DUP5 DUP3 DUP6 ADD PUSH2 0x199F JUMP JUMPDEST SWAP2 POP POP SWAP3 SWAP2 POP POP JUMP JUMPDEST PUSH0 PUSH20 0xFFFFFFFFFFFFFFFFFFFFFFFFFFFFFFFFFFFFFFFF DUP3 AND SWAP1 POP SWAP2 SWAP1 POP JUMP JUMPDEST PUSH0 PUSH2 0x1A07 DUP3 PUSH2 0x19DE JUMP JUMPDEST SWAP1 POP SWAP2 SWAP1 POP JUMP JUMPDEST PUSH2 0x1A17 DUP2 PUSH2 0x19FD JUMP JUMPDEST DUP3 MSTORE POP POP JUMP JUMPDEST PUSH0 DUP3 DUP3 MSTORE PUSH1 0x20 DUP3 ADD SWAP1 POP SWAP3 SWAP2 POP POP JUMP JUMPDEST PUSH32 0x53656E646572206F66206D657373616765000000000000000000000000000000 PUSH0 DUP3 ADD MSTORE POP JUMP JUMPDEST PUSH0 PUSH2 0x1A61 PUSH1 0x11 DUP4 PUSH2 0x1A1D JUMP JUMPDEST SWAP2 POP PUSH2 0x1A6C DUP3 PUSH2 0x1A2D JUMP JUMPDEST PUSH1 0x20 DUP3 ADD SWAP1 POP SWAP2 SWAP1 POP JUMP JUMPDEST PUSH0 PUSH1 0x40 DUP3 ADD SWAP1 POP PUSH2 0x1A8A PUSH0 DUP4 ADD DUP5 PUSH2 0x1A0E JUMP JUMPDEST DUP2 DUP2 SUB PUSH1 0x20 DUP4 ADD MSTORE PUSH2 0x1A9B DUP2 PUSH2 0x1A55 JUMP JUMPDEST SWAP1 POP SWAP3 SWAP2 POP POP JUMP JUMPDEST PUSH0 DUP2 MLOAD SWAP1 POP SWAP2 SWAP1 POP JUMP JUMPDEST PUSH32 0x4E487B7100000000000000000000000000000000000000000000000000000000 PUSH0 MSTORE PUSH1 0x41 PUSH1 0x4 MSTORE PUSH1 0x24 PUSH0 REVERT JUMPDEST PUSH32 0x4E487B7100000000000000000000000000000000000000000000000000000000 PUSH0 MSTORE PUSH1 0x22 PUSH1 0x4 MSTORE PUSH1 0x24 PUSH0 REVERT JUMPDEST PUSH0 PUSH1 0x2 DUP3 DIV SWAP1 POP PUSH1 0x1 DUP3 AND DUP1 PUSH2 0x1B1E JUMPI PUSH1 0x7F DUP3 AND SWAP2 POP JUMPDEST PUSH1 0x20 DUP3 LT DUP2 SUB PUSH2 0x1B31 JUMPI PUSH2 0x1B30 PUSH2 0x1ADA JUMP JUMPDEST JUMPDEST POP SWAP2 SWAP1 POP JUMP JUMPDEST PUSH0 DUP2 SWAP1 POP DUP2 PUSH0 MSTORE PUSH1 0x20 PUSH0 KECCAK256 SWAP1 POP SWAP2 SWAP1 POP JUMP JUMPDEST PUSH0 PUSH1 0x20 PUSH1 0x1F DUP4 ADD DIV SWAP1 POP SWAP2 SWAP1 POP JUMP JUMPDEST PUSH0 DUP3 DUP3 SHL SWAP1 POP SWAP3 SWAP2 POP POP JUMP JUMPDEST PUSH0 PUSH1 0x8 DUP4 MUL PUSH2 0x1B93 PUSH32 0xFFFFFFFFFFFFFFFFFFFFFFFFFFFFFFFFFFFFFFFFFFFFFFFFFFFFFFFFFFFFFFFF DUP3 PUSH2 0x1B58 JUMP JUMPDEST PUSH2 0x1B9D DUP7 DUP4 PUSH2 0x1B58 JUMP JUMPDEST SWAP6 POP DUP1 NOT DUP5 AND SWAP4 POP DUP1 DUP7 AND DUP5 OR SWAP3 POP POP POP SWAP4 SWAP3 POP POP POP JUMP JUMPDEST PUSH0 PUSH2 0x1BCF PUSH2 0x1BCA PUSH2 0x1BC5 DUP5 PUSH2 0x1914 JUMP JUMPDEST PUSH2 0x191D JUMP JUMPDEST PUSH2 0x1914 JUMP JUMPDEST SWAP1 POP SWAP2 SWAP1 POP JUMP JUMPDEST PUSH0 DUP2 SWAP1 POP SWAP2 SWAP1 POP JUMP JUMPDEST PUSH2 0x1BE8 DUP4 PUSH2 0x1BB5 JUMP JUMPDEST PUSH2 0x1BFC PUSH2 0x1BF4 DUP3 PUSH2 0x1BD6 JUMP JUMPDEST DUP5 DUP5 SLOAD PUSH2 0x1B64 JUMP JUMPDEST DUP3 SSTORE POP POP POP POP JUMP JUMPDEST PUSH0 PUSH0 SWAP1 POP SWAP1 JUMP JUMPDEST PUSH2 0x1C13 PUSH2 0x1C04 JUMP JUMPDEST PUSH2 0x1C1E DUP2 DUP5 DUP5 PUSH2 0x1BDF JUMP JUMPDEST POP POP POP JUMP JUMPDEST JUMPDEST DUP2 DUP2 LT ISZERO PUSH2 0x1C41 JUMPI PUSH2 0x1C36 PUSH0 DUP3 PUSH2 0x1C0B JUMP JUMPDEST PUSH1 0x1 DUP2 ADD SWAP1 POP PUSH2 0x1C24 JUMP JUMPDEST POP POP JUMP JUMPDEST PUSH1 0x1F DUP3 GT ISZERO PUSH2 0x1C86 JUMPI PUSH2 0x1C57 DUP2 PUSH2 0x1B37 JUMP JUMPDEST PUSH2 0x1C60 DUP5 PUSH2 0x1B49 JUMP JUMPDEST DUP2 ADD PUSH1 0x20 DUP6 LT ISZERO PUSH2 0x1C6F JUMPI DUP2 SWAP1 POP JUMPDEST PUSH2 0x1C83 PUSH2 0x1C7B DUP6 PUSH2 0x1B49 JUMP JUMPDEST DUP4 ADD DUP3 PUSH2 0x1C23 JUMP JUMPDEST POP POP JUMPDEST POP POP POP JUMP JUMPDEST PUSH0 DUP3 DUP3 SHR SWAP1 POP SWAP3 SWAP2 POP POP JUMP JUMPDEST PUSH0 PUSH2 0x1CA6 PUSH0 NOT DUP5 PUSH1 0x8 MUL PUSH2 0x1C8B JUMP JUMPDEST NOT DUP1 DUP4 AND SWAP2 POP POP SWAP3 SWAP2 POP POP JUMP JUMPDEST PUSH0 PUSH2 0x1CBE DUP4 DUP4 PUSH2 0x1C97 JUMP JUMPDEST SWAP2 POP DUP3 PUSH1 0x2 MUL DUP3 OR SWAP1 POP SWAP3 SWAP2 POP POP JUMP JUMPDEST PUSH2 0x1CD7 DUP3 PUSH2 0x1AA3 JUMP JUMPDEST PUSH8 0xFFFFFFFFFFFFFFFF DUP2 GT ISZERO PUSH2 0x1CF0 JUMPI PUSH2 0x1CEF PUSH2 0x1AAD JUMP JUMPDEST JUMPDEST PUSH2 0x1CFA DUP3 SLOAD PUSH2 0x1B07 JUMP JUMPDEST PUSH2 0x1D05 DUP3 DUP3 DUP6 PUSH2 0x1C45 JUMP JUMPDEST PUSH0 PUSH1 0x20 SWAP1 POP PUSH1 0x1F DUP4 GT PUSH1 0x1 DUP2 EQ PUSH2 0x1D36 JUMPI PUSH0 DUP5 ISZERO PUSH2 0x1D24 JUMPI DUP3 DUP8 ADD MLOAD SWAP1 POP JUMPDEST PUSH2 0x1D2E DUP6 DUP3 PUSH2 0x1CB3 JUMP JUMPDEST DUP7 SSTORE POP PUSH2 0x1D95 JUMP JUMPDEST PUSH1 0x1F NOT DUP5 AND PUSH2 0x1D44 DUP7 PUSH2 0x1B37 JUMP JUMPDEST PUSH0 JUMPDEST DUP3 DUP2 LT ISZERO PUSH2 0x1D6B JUMPI DUP5 DUP10 ADD MLOAD DUP3 SSTORE PUSH1 0x1 DUP3 ADD SWAP2 POP PUSH1 0x20 DUP6 ADD SWAP5 POP PUSH1 0x20 DUP2 ADD SWAP1 POP PUSH2 0x1D46 JUMP JUMPDEST DUP7 DUP4 LT ISZERO PUSH2 0x1D88 JUMPI DUP5 DUP10 ADD MLOAD PUSH2 0x1D84 PUSH1 0x1F DUP10 AND DUP3 PUSH2 0x1C97 JUMP JUMPDEST DUP4 SSTORE POP JUMPDEST PUSH1 0x1 PUSH1 0x2 DUP9 MUL ADD DUP9 SSTORE POP POP POP JUMPDEST POP POP POP POP POP POP JUMP JUMPDEST PUSH32 0x4E487B7100000000000000000000000000000000000000000000000000000000 PUSH0 MSTORE PUSH1 0x21 PUSH1 0x4 MSTORE PUSH1 0x24 PUSH0 REVERT JUMPDEST DUP3 DUP2 DUP4 MCOPY PUSH0 DUP4 DUP4 ADD MSTORE POP POP POP JUMP JUMPDEST PUSH0 PUSH1 0x1F NOT PUSH1 0x1F DUP4 ADD AND SWAP1 POP SWAP2 SWAP1 POP JUMP JUMPDEST PUSH0 PUSH2 0x1DF2 DUP3 PUSH2 0x1AA3 JUMP JUMPDEST PUSH2 0x1DFC DUP2 DUP6 PUSH2 0x1A1D JUMP JUMPDEST SWAP4 POP PUSH2 0x1E0C DUP2 DUP6 PUSH1 0x20 DUP7 ADD PUSH2 0x1DCA JUMP JUMPDEST PUSH2 0x1E15 DUP2 PUSH2 0x1DD8 JUMP JUMPDEST DUP5 ADD SWAP2 POP POP SWAP3 SWAP2 POP POP JUMP JUMPDEST PUSH2 0x1E29 DUP2 PUSH2 0x1914 JUMP JUMPDEST DUP3 MSTORE POP POP JUMP JUMPDEST PUSH0 PUSH1 0x40 DUP3 ADD SWAP1 POP DUP2 DUP2 SUB PUSH0 DUP4 ADD MSTORE PUSH2 0x1E47 DUP2 DUP6 PUSH2 0x1DE8 JUMP JUMPDEST SWAP1 POP PUSH2 0x1E56 PUSH1 0x20 DUP4 ADD DUP5 PUSH2 0x1E20 JUMP JUMPDEST SWAP4 SWAP3 POP POP POP JUMP JUMPDEST PUSH2 0x1E66 DUP2 PUSH2 0x1914 JUMP JUMPDEST DUP2 EQ PUSH2 0x1E70 JUMPI PUSH0 PUSH0 REVERT JUMPDEST POP JUMP JUMPDEST PUSH0 DUP2 MLOAD SWAP1 POP PUSH2 0x1E81 DUP2 PUSH2 0x1E5D JUMP JUMPDEST SWAP3 SWAP2 POP POP JUMP JUMPDEST PUSH0 PUSH1 0x20 DUP3 DUP5 SUB SLT ISZERO PUSH2 0x1E9C JUMPI PUSH2 0x1E9B PUSH2 0x1978 JUMP JUMPDEST JUMPDEST PUSH0 PUSH2 0x1EA9 DUP5 DUP3 DUP6 ADD PUSH2 0x1E73 JUMP JUMPDEST SWAP2 POP POP SWAP3 SWAP2 POP POP JUMP JUMPDEST PUSH32 0x4469646E2774206465706F73697420656E6F7567680000000000000000000000 PUSH0 DUP3 ADD MSTORE POP JUMP JUMPDEST PUSH0 PUSH2 0x1EE6 PUSH1 0x15 DUP4 PUSH2 0x1A1D JUMP JUMPDEST SWAP2 POP PUSH2 0x1EF1 DUP3 PUSH2 0x1EB2 JUMP JUMPDEST PUSH1 0x20 DUP3 ADD SWAP1 POP SWAP2 SWAP1 POP JUMP JUMPDEST PUSH0 PUSH1 0x20 DUP3 ADD SWAP1 POP DUP2 DUP2 SUB PUSH0 DUP4 ADD MSTORE PUSH2 0x1F13 DUP2 PUSH2 0x1EDA JUMP JUMPDEST SWAP1 POP SWAP2 SWAP1 POP JUMP JUMPDEST PUSH0 PUSH2 0x1F34 PUSH2 0x1F2F PUSH2 0x1F2A DUP5 PUSH2 0x19DE JUMP JUMPDEST PUSH2 0x191D JUMP JUMPDEST PUSH2 0x19DE JUMP JUMPDEST SWAP1 POP SWAP2 SWAP1 POP JUMP JUMPDEST PUSH0 PUSH2 0x1F45 DUP3 PUSH2 0x1F1A JUMP JUMPDEST SWAP1 POP SWAP2 SWAP1 POP JUMP JUMPDEST PUSH0 PUSH2 0x1F56 DUP3 PUSH2 0x1F3B JUMP JUMPDEST SWAP1 POP SWAP2 SWAP1 POP JUMP JUMPDEST PUSH2 0x1F66 DUP2 PUSH2 0x1F4C JUMP JUMPDEST DUP3 MSTORE POP POP JUMP JUMPDEST PUSH0 PUSH1 0x20 DUP3 ADD SWAP1 POP PUSH2 0x1F7F PUSH0 DUP4 ADD DUP5 PUSH2 0x1F5D JUMP JUMPDEST SWAP3 SWAP2 POP POP JUMP JUMPDEST PUSH0 PUSH2 0x1F8F DUP3 PUSH2 0x19DE JUMP JUMPDEST SWAP1 POP SWAP2 SWAP1 POP JUMP JUMPDEST PUSH2 0x1F9F DUP2 PUSH2 0x1F85 JUMP JUMPDEST DUP2 EQ PUSH2 0x1FA9 JUMPI PUSH0 PUSH0 REVERT JUMPDEST POP JUMP JUMPDEST PUSH0 DUP2 CALLDATALOAD SWAP1 POP PUSH2 0x1FBA DUP2 PUSH2 0x1F96 JUMP JUMPDEST SWAP3 SWAP2 POP POP JUMP JUMPDEST PUSH0 PUSH1 0x20 DUP3 DUP5 SUB SLT ISZERO PUSH2 0x1FD5 JUMPI PUSH2 0x1FD4 PUSH2 0x1978 JUMP JUMPDEST JUMPDEST PUSH0 PUSH2 0x1FE2 DUP5 DUP3 DUP6 ADD PUSH2 0x1FAC JUMP JUMPDEST SWAP2 POP POP SWAP3 SWAP2 POP POP JUMP JUMPDEST PUSH0 DUP2 CALLDATALOAD SWAP1 POP PUSH2 0x1FF9 DUP2 PUSH2 0x1E5D JUMP JUMPDEST SWAP3 SWAP2 POP POP JUMP JUMPDEST PUSH0 PUSH1 0x20 DUP3 DUP5 SUB SLT ISZERO PUSH2 0x2014 JUMPI PUSH2 0x2013 PUSH2 0x1978 JUMP JUMPDEST JUMPDEST PUSH0 PUSH2 0x2021 DUP5 DUP3 DUP6 ADD PUSH2 0x1FEB JUMP JUMPDEST SWAP2 POP POP SWAP3 SWAP2 POP POP JUMP JUMPDEST PUSH2 0x2033 DUP2 PUSH2 0x1F85 JUMP JUMPDEST DUP3 MSTORE POP POP JUMP JUMPDEST PUSH0 DUP2 ISZERO ISZERO SWAP1 POP SWAP2 SWAP1 POP JUMP JUMPDEST PUSH2 0x204D DUP2 PUSH2 0x2039 JUMP JUMPDEST DUP3 MSTORE POP POP JUMP JUMPDEST PUSH0 PUSH1 0x60 DUP3 ADD SWAP1 POP PUSH2 0x2066 PUSH0 DUP4 ADD DUP7 PUSH2 0x202A JUMP JUMPDEST PUSH2 0x2073 PUSH1 0x20 DUP4 ADD DUP6 PUSH2 0x2044 JUMP JUMPDEST DUP2 DUP2 SUB PUSH1 0x40 DUP4 ADD MSTORE PUSH2 0x2085 DUP2 DUP5 PUSH2 0x1DE8 JUMP JUMPDEST SWAP1 POP SWAP5 SWAP4 POP POP POP POP JUMP JUMPDEST PUSH0 PUSH1 0x40 DUP3 ADD SWAP1 POP PUSH2 0x20A2 PUSH0 DUP4 ADD DUP6 PUSH2 0x1E20 JUMP JUMPDEST PUSH2 0x20AF PUSH1 0x20 DUP4 ADD DUP5 PUSH2 0x1E20 JUMP JUMPDEST SWAP4 SWAP3 POP POP POP JUMP JUMPDEST PUSH0 PUSH0 REVERT JUMPDEST PUSH2 0x20C3 DUP3 PUSH2 0x1DD8 JUMP JUMPDEST DUP2 ADD DUP2 DUP2 LT PUSH8 0xFFFFFFFFFFFFFFFF DUP3 GT OR ISZERO PUSH2 0x20E2 JUMPI PUSH2 0x20E1 PUSH2 0x1AAD JUMP JUMPDEST JUMPDEST DUP1 PUSH1 0x40 MSTORE POP POP POP JUMP JUMPDEST PUSH0 PUSH2 0x20F4 PUSH2 0x196F JUMP JUMPDEST SWAP1 POP PUSH2 0x2100 DUP3 DUP3 PUSH2 0x20BA JUMP JUMPDEST SWAP2 SWAP1 POP JUMP JUMPDEST PUSH0 PUSH0 REVERT JUMPDEST PUSH0 PUSH0 REVERT JUMPDEST PUSH0 PUSH0 REVERT JUMPDEST PUSH0 PUSH8 0xFFFFFFFFFFFFFFFF DUP3 GT ISZERO PUSH2 0x212B JUMPI PUSH2 0x212A PUSH2 0x1AAD JUMP JUMPDEST JUMPDEST PUSH2 0x2134 DUP3 PUSH2 0x1DD8 JUMP JUMPDEST SWAP1 POP PUSH1 0x20 DUP2 ADD SWAP1 POP SWAP2 SWAP1 POP JUMP JUMPDEST DUP3 DUP2 DUP4 CALLDATACOPY PUSH0 DUP4 DUP4 ADD MSTORE POP POP POP JUMP JUMPDEST PUSH0 PUSH2 0x2161 PUSH2 0x215C DUP5 PUSH2 0x2111 JUMP JUMPDEST PUSH2 0x20EB JUMP JUMPDEST SWAP1 POP DUP3 DUP2 MSTORE PUSH1 0x20 DUP2 ADD DUP5 DUP5 DUP5 ADD GT ISZERO PUSH2 0x217D JUMPI PUSH2 0x217C PUSH2 0x210D JUMP JUMPDEST JUMPDEST PUSH2 0x2188 DUP5 DUP3 DUP6 PUSH2 0x2141 JUMP JUMPDEST POP SWAP4 SWAP3 POP POP POP JUMP JUMPDEST PUSH0 DUP3 PUSH1 0x1F DUP4 ADD SLT PUSH2 0x21A4 JUMPI PUSH2 0x21A3 PUSH2 0x2109 JUMP JUMPDEST JUMPDEST DUP2 CALLDATALOAD PUSH2 0x21B4 DUP5 DUP3 PUSH1 0x20 DUP7 ADD PUSH2 0x214F JUMP JUMPDEST SWAP2 POP POP SWAP3 SWAP2 POP POP JUMP JUMPDEST PUSH0 PUSH8 0xFFFFFFFFFFFFFFFF DUP3 GT ISZERO PUSH2 0x21D7 JUMPI PUSH2 0x21D6 PUSH2 0x1AAD JUMP JUMPDEST JUMPDEST PUSH1 0x20 DUP3 MUL SWAP1 POP PUSH1 0x20 DUP2 ADD SWAP1 POP SWAP2 SWAP1 POP JUMP JUMPDEST PUSH0 PUSH0 REVERT JUMPDEST PUSH2 0x21F5 DUP2 PUSH2 0x2039 JUMP JUMPDEST DUP2 EQ PUSH2 0x21FF JUMPI PUSH0 PUSH0 REVERT JUMPDEST POP JUMP JUMPDEST PUSH0 DUP2 CALLDATALOAD SWAP1 POP PUSH2 0x2210 DUP2 PUSH2 0x21EC JUMP JUMPDEST SWAP3 SWAP2 POP POP JUMP JUMPDEST PUSH0 PUSH1 0x60 DUP3 DUP5 SUB SLT ISZERO PUSH2 0x222B JUMPI PUSH2 0x222A PUSH2 0x20B6 JUMP JUMPDEST JUMPDEST PUSH2 0x2235 PUSH1 0x60 PUSH2 0x20EB JUMP JUMPDEST SWAP1 POP PUSH0 PUSH2 0x2244 DUP5 DUP3 DUP6 ADD PUSH2 0x1FAC JUMP JUMPDEST PUSH0 DUP4 ADD MSTORE POP PUSH1 0x20 PUSH2 0x2257 DUP5 DUP3 DUP6 ADD PUSH2 0x2202 JUMP JUMPDEST PUSH1 0x20 DUP4 ADD MSTORE POP PUSH1 0x40 DUP3 ADD CALLDATALOAD PUSH8 0xFFFFFFFFFFFFFFFF DUP2 GT ISZERO PUSH2 0x227B JUMPI PUSH2 0x227A PUSH2 0x2105 JUMP JUMPDEST JUMPDEST PUSH2 0x2287 DUP5 DUP3 DUP6 ADD PUSH2 0x2190 JUMP JUMPDEST PUSH1 0x40 DUP4 ADD MSTORE POP SWAP3 SWAP2 POP POP JUMP JUMPDEST PUSH0 PUSH2 0x22A5 PUSH2 0x22A0 DUP5 PUSH2 0x21BD JUMP JUMPDEST PUSH2 0x20EB JUMP JUMPDEST SWAP1 POP DUP1 DUP4 DUP3 MSTORE PUSH1 0x20 DUP3 ADD SWAP1 POP PUSH1 0x20 DUP5 MUL DUP4 ADD DUP6 DUP2 GT ISZERO PUSH2 0x22C8 JUMPI PUSH2 0x22C7 PUSH2 0x21E8 JUMP JUMPDEST JUMPDEST DUP4 JUMPDEST DUP2 DUP2 LT ISZERO PUSH2 0x230F JUMPI DUP1 CALLDATALOAD PUSH8 0xFFFFFFFFFFFFFFFF DUP2 GT ISZERO PUSH2 0x22ED JUMPI PUSH2 0x22EC PUSH2 0x2109 JUMP JUMPDEST JUMPDEST DUP1 DUP7 ADD PUSH2 0x22FA DUP10 DUP3 PUSH2 0x2216 JUMP JUMPDEST DUP6 MSTORE PUSH1 0x20 DUP6 ADD SWAP5 POP POP POP PUSH1 0x20 DUP2 ADD SWAP1 POP PUSH2 0x22CA JUMP JUMPDEST POP POP POP SWAP4 SWAP3 POP POP POP JUMP JUMPDEST PUSH0 DUP3 PUSH1 0x1F DUP4 ADD SLT PUSH2 0x232D JUMPI PUSH2 0x232C PUSH2 0x2109 JUMP JUMPDEST JUMPDEST DUP2 CALLDATALOAD PUSH2 0x233D DUP5 DUP3 PUSH1 0x20 DUP7 ADD PUSH2 0x2293 JUMP JUMPDEST SWAP2 POP POP SWAP3 SWAP2 POP POP JUMP JUMPDEST PUSH1 0x5 DUP2 LT PUSH2 0x2352 JUMPI PUSH0 PUSH0 REVERT JUMPDEST POP JUMP JUMPDEST PUSH0 DUP2 CALLDATALOAD SWAP1 POP PUSH2 0x2363 DUP2 PUSH2 0x2346 JUMP JUMPDEST SWAP3 SWAP2 POP POP JUMP JUMPDEST PUSH0 PUSH2 0x1A0 DUP3 DUP5 SUB SLT ISZERO PUSH2 0x237F JUMPI PUSH2 0x237E PUSH2 0x20B6 JUMP JUMPDEST JUMPDEST PUSH2 0x238A PUSH2 0x1A0 PUSH2 0x20EB JUMP JUMPDEST SWAP1 POP PUSH0 PUSH2 0x2399 DUP5 DUP3 DUP6 ADD PUSH2 0x1FEB JUMP JUMPDEST PUSH0 DUP4 ADD MSTORE POP PUSH1 0x20 PUSH2 0x23AC DUP5 DUP3 DUP6 ADD PUSH2 0x1FAC JUMP JUMPDEST PUSH1 0x20 DUP4 ADD MSTORE POP PUSH1 0x40 DUP3 ADD CALLDATALOAD PUSH8 0xFFFFFFFFFFFFFFFF DUP2 GT ISZERO PUSH2 0x23D0 JUMPI PUSH2 0x23CF PUSH2 0x2105 JUMP JUMPDEST JUMPDEST PUSH2 0x23DC DUP5 DUP3 DUP6 ADD PUSH2 0x2190 JUMP JUMPDEST PUSH1 0x40 DUP4 ADD MSTORE POP PUSH1 0x60 PUSH2 0x23F0 DUP5 DUP3 DUP6 ADD PUSH2 0x1FEB JUMP JUMPDEST PUSH1 0x60 DUP4 ADD MSTORE POP PUSH1 0x80 PUSH2 0x2404 DUP5 DUP3 DUP6 ADD PUSH2 0x1FEB JUMP JUMPDEST PUSH1 0x80 DUP4 ADD MSTORE POP PUSH1 0xA0 DUP3 ADD CALLDATALOAD PUSH8 0xFFFFFFFFFFFFFFFF DUP2 GT ISZERO PUSH2 0x2428 JUMPI PUSH2 0x2427 PUSH2 0x2105 JUMP JUMPDEST JUMPDEST PUSH2 0x2434 DUP5 DUP3 DUP6 ADD PUSH2 0x2190 JUMP JUMPDEST PUSH1 0xA0 DUP4 ADD MSTORE POP PUSH1 0xC0 PUSH2 0x2448 DUP5 DUP3 DUP6 ADD PUSH2 0x1FEB JUMP JUMPDEST PUSH1 0xC0 DUP4 ADD MSTORE POP PUSH1 0xE0 DUP3 ADD CALLDATALOAD PUSH8 0xFFFFFFFFFFFFFFFF DUP2 GT ISZERO PUSH2 0x246C JUMPI PUSH2 0x246B PUSH2 0x2105 JUMP JUMPDEST JUMPDEST PUSH2 0x2478 DUP5 DUP3 DUP6 ADD PUSH2 0x2190 JUMP JUMPDEST PUSH1 0xE0 DUP4 ADD MSTORE POP PUSH2 0x100 DUP3 ADD CALLDATALOAD PUSH8 0xFFFFFFFFFFFFFFFF DUP2 GT ISZERO PUSH2 0x249D JUMPI PUSH2 0x249C PUSH2 0x2105 JUMP JUMPDEST JUMPDEST PUSH2 0x24A9 DUP5 DUP3 DUP6 ADD PUSH2 0x2190 JUMP JUMPDEST PUSH2 0x100 DUP4 ADD MSTORE POP PUSH2 0x120 DUP3 ADD CALLDATALOAD PUSH8 0xFFFFFFFFFFFFFFFF DUP2 GT ISZERO PUSH2 0x24CF JUMPI PUSH2 0x24CE PUSH2 0x2105 JUMP JUMPDEST JUMPDEST PUSH2 0x24DB DUP5 DUP3 DUP6 ADD PUSH2 0x2319 JUMP JUMPDEST PUSH2 0x120 DUP4 ADD MSTORE POP PUSH2 0x140 DUP3 ADD CALLDATALOAD PUSH8 0xFFFFFFFFFFFFFFFF DUP2 GT ISZERO PUSH2 0x2501 JUMPI PUSH2 0x2500 PUSH2 0x2105 JUMP JUMPDEST JUMPDEST PUSH2 0x250D DUP5 DUP3 DUP6 ADD PUSH2 0x2319 JUMP JUMPDEST PUSH2 0x140 DUP4 ADD MSTORE POP PUSH2 0x160 PUSH2 0x2523 DUP5 DUP3 DUP6 ADD PUSH2 0x2355 JUMP JUMPDEST PUSH2 0x160 DUP4 ADD MSTORE POP PUSH2 0x180 PUSH2 0x2539 DUP5 DUP3 DUP6 ADD PUSH2 0x2202 JUMP JUMPDEST PUSH2 0x180 DUP4 ADD MSTORE POP SWAP3 SWAP2 POP POP JUMP JUMPDEST PUSH0 PUSH1 0x80 DUP3 DUP5 SUB SLT ISZERO PUSH2 0x255B JUMPI PUSH2 0x255A PUSH2 0x20B6 JUMP JUMPDEST JUMPDEST PUSH2 0x2565 PUSH1 0x80 PUSH2 0x20EB JUMP JUMPDEST SWAP1 POP PUSH0 PUSH2 0x2574 DUP5 DUP3 DUP6 ADD PUSH2 0x1FAC JUMP JUMPDEST PUSH0 DUP4 ADD MSTORE POP PUSH1 0x20 DUP3 ADD CALLDATALOAD PUSH8 0xFFFFFFFFFFFFFFFF DUP2 GT ISZERO PUSH2 0x2597 JUMPI PUSH2 0x2596 PUSH2 0x2105 JUMP JUMPDEST JUMPDEST PUSH2 0x25A3 DUP5 DUP3 DUP6 ADD PUSH2 0x2190 JUMP JUMPDEST PUSH1 0x20 DUP4 ADD MSTORE POP PUSH1 0x40 PUSH2 0x25B7 DUP5 DUP3 DUP6 ADD PUSH2 0x1FEB JUMP JUMPDEST PUSH1 0x40 DUP4 ADD MSTORE POP PUSH1 0x60 PUSH2 0x25CB DUP5 DUP3 DUP6 ADD PUSH2 0x1FEB JUMP JUMPDEST PUSH1 0x60 DUP4 ADD MSTORE POP SWAP3 SWAP2 POP POP JUMP JUMPDEST PUSH0 PUSH0 PUSH0 PUSH1 0x60 DUP5 DUP7 SUB SLT ISZERO PUSH2 0x25EE JUMPI PUSH2 0x25ED PUSH2 0x1978 JUMP JUMPDEST JUMPDEST PUSH0 DUP5 ADD CALLDATALOAD PUSH8 0xFFFFFFFFFFFFFFFF DUP2 GT ISZERO PUSH2 0x260B JUMPI PUSH2 0x260A PUSH2 0x197C JUMP JUMPDEST JUMPDEST PUSH2 0x2617 DUP7 DUP3 DUP8 ADD PUSH2 0x2369 JUMP JUMPDEST SWAP4 POP POP PUSH1 0x20 DUP5 ADD CALLDATALOAD PUSH8 0xFFFFFFFFFFFFFFFF DUP2 GT ISZERO PUSH2 0x2638 JUMPI PUSH2 0x2637 PUSH2 0x197C JUMP JUMPDEST JUMPDEST PUSH2 0x2644 DUP7 DUP3 DUP8 ADD PUSH2 0x2546 JUMP JUMPDEST SWAP3 POP POP PUSH1 0x40 PUSH2 0x2655 DUP7 DUP3 DUP8 ADD PUSH2 0x1FEB JUMP JUMPDEST SWAP2 POP POP SWAP3 POP SWAP3 POP SWAP3 JUMP JUMPDEST PUSH0 PUSH0 PUSH1 0x40 DUP4 DUP6 SUB SLT ISZERO PUSH2 0x2675 JUMPI PUSH2 0x2674 PUSH2 0x1978 JUMP JUMPDEST JUMPDEST PUSH0 PUSH2 0x2682 DUP6 DUP3 DUP7 ADD PUSH2 0x1FAC JUMP JUMPDEST SWAP3 POP POP PUSH1 0x20 PUSH2 0x2693 DUP6 DUP3 DUP7 ADD PUSH2 0x1FEB JUMP JUMPDEST SWAP2 POP POP SWAP3 POP SWAP3 SWAP1 POP JUMP JUMPDEST PUSH2 0x26A6 DUP2 PUSH2 0x19FD JUMP JUMPDEST DUP2 EQ PUSH2 0x26B0 JUMPI PUSH0 PUSH0 REVERT JUMPDEST POP JUMP JUMPDEST PUSH0 DUP2 CALLDATALOAD SWAP1 POP PUSH2 0x26C1 DUP2 PUSH2 0x269D JUMP JUMPDEST SWAP3 SWAP2 POP POP JUMP JUMPDEST PUSH0 PUSH1 0x20 DUP3 DUP5 SUB SLT ISZERO PUSH2 0x26DC JUMPI PUSH2 0x26DB PUSH2 0x1978 JUMP JUMPDEST JUMPDEST PUSH0 PUSH2 0x26E9 DUP5 DUP3 DUP6 ADD PUSH2 0x26B3 JUMP JUMPDEST SWAP2 POP POP SWAP3 SWAP2 POP POP JUMP JUMPDEST PUSH0 PUSH1 0x80 DUP3 ADD SWAP1 POP PUSH2 0x2705 PUSH0 DUP4 ADD DUP8 PUSH2 0x202A JUMP JUMPDEST DUP2 DUP2 SUB PUSH1 0x20 DUP4 ADD MSTORE PUSH2 0x2717 DUP2 DUP7 PUSH2 0x1DE8 JUMP JUMPDEST SWAP1 POP PUSH2 0x2726 PUSH1 0x40 DUP4 ADD DUP6 PUSH2 0x1E20 JUMP JUMPDEST PUSH2 0x2733 PUSH1 0x60 DUP4 ADD DUP5 PUSH2 0x1E20 JUMP JUMPDEST SWAP6 SWAP5 POP POP POP POP POP JUMP JUMPDEST PUSH32 0x726571756573746564207468652064617461207375636365737366756C6C7900 PUSH0 DUP3 ADD MSTORE POP JUMP JUMPDEST PUSH0 PUSH2 0x2770 PUSH1 0x1F DUP4 PUSH2 0x1A1D JUMP JUMPDEST SWAP2 POP PUSH2 0x277B DUP3 PUSH2 0x273C JUMP JUMPDEST PUSH1 0x20 DUP3 ADD SWAP1 POP SWAP2 SWAP1 POP JUMP JUMPDEST PUSH0 PUSH1 0x40 DUP3 ADD SWAP1 POP DUP2 DUP2 SUB PUSH0 DUP4 ADD MSTORE PUSH2 0x279D DUP2 PUSH2 0x2764 JUMP JUMPDEST SWAP1 POP PUSH2 0x27AC PUSH1 0x20 DUP4 ADD DUP5 PUSH2 0x1947 JUMP JUMPDEST SWAP3 SWAP2 POP POP JUMP JUMPDEST PUSH32 0x696E746F20617070726F76656400000000000000000000000000000000000000 PUSH0 DUP3 ADD MSTORE POP JUMP JUMPDEST PUSH0 PUSH2 0x27E6 PUSH1 0xD DUP4 PUSH2 0x1A1D JUMP JUMPDEST SWAP2 POP PUSH2 0x27F1 DUP3 PUSH2 0x27B2 JUMP JUMPDEST PUSH1 0x20 DUP3 ADD SWAP1 POP SWAP2 SWAP1 POP JUMP JUMPDEST PUSH0 PUSH1 0x40 DUP3 ADD SWAP1 POP DUP2 DUP2 SUB PUSH0 DUP4 ADD MSTORE PUSH2 0x2813 DUP2 PUSH2 0x27DA JUMP JUMPDEST SWAP1 POP PUSH2 0x2822 PUSH1 0x20 DUP4 ADD DUP5 PUSH2 0x1947 JUMP JUMPDEST SWAP3 SWAP2 POP POP JUMP JUMPDEST PUSH32 0x4E487B7100000000000000000000000000000000000000000000000000000000 PUSH0 MSTORE PUSH1 0x11 PUSH1 0x4 MSTORE PUSH1 0x24 PUSH0 REVERT JUMPDEST PUSH0 PUSH2 0x285F DUP3 PUSH2 0x1914 JUMP JUMPDEST SWAP2 POP PUSH2 0x286A DUP4 PUSH2 0x1914 JUMP JUMPDEST SWAP3 POP DUP3 DUP3 ADD SWAP1 POP DUP1 DUP3 GT ISZERO PUSH2 0x2882 JUMPI PUSH2 0x2881 PUSH2 0x2828 JUMP JUMPDEST JUMPDEST SWAP3 SWAP2 POP POP JUMP JUMPDEST PUSH32 0x646174614265666F726500000000000000000000000000000000000000000000 PUSH0 DUP3 ADD MSTORE POP JUMP JUMPDEST PUSH0 PUSH2 0x28BC PUSH1 0xA DUP4 PUSH2 0x1A1D JUMP JUMPDEST SWAP2 POP PUSH2 0x28C7 DUP3 PUSH2 0x2888 JUMP JUMPDEST PUSH1 0x20 DUP3 ADD SWAP1 POP SWAP2 SWAP1 POP JUMP JUMPDEST PUSH0 PUSH1 0x40 DUP3 ADD SWAP1 POP DUP2 DUP2 SUB PUSH0 DUP4 ADD MSTORE PUSH2 0x28E9 DUP2 PUSH2 0x28B0 JUMP JUMPDEST SWAP1 POP PUSH2 0x28F8 PUSH1 0x20 DUP4 ADD DUP5 PUSH2 0x1E20 JUMP JUMPDEST SWAP3 SWAP2 POP POP JUMP JUMPDEST PUSH32 0x6461746141667465720000000000000000000000000000000000000000000000 PUSH0 DUP3 ADD MSTORE POP JUMP JUMPDEST PUSH0 PUSH2 0x2932 PUSH1 0x9 DUP4 PUSH2 0x1A1D JUMP JUMPDEST SWAP2 POP PUSH2 0x293D DUP3 PUSH2 0x28FE JUMP JUMPDEST PUSH1 0x20 DUP3 ADD SWAP1 POP SWAP2 SWAP1 POP JUMP JUMPDEST PUSH0 PUSH1 0x40 DUP3 ADD SWAP1 POP DUP2 DUP2 SUB PUSH0 DUP4 ADD MSTORE PUSH2 0x295F DUP2 PUSH2 0x2926 JUMP JUMPDEST SWAP1 POP PUSH2 0x296E PUSH1 0x20 DUP4 ADD DUP5 PUSH2 0x1E20 JUMP JUMPDEST SWAP3 SWAP2 POP POP JUMP JUMPDEST PUSH32 0x45766572797468696E6720776F726B7300000000000000000000000000000000 PUSH0 DUP3 ADD MSTORE POP JUMP JUMPDEST PUSH0 PUSH2 0x29A8 PUSH1 0x10 DUP4 PUSH2 0x1A1D JUMP JUMPDEST SWAP2 POP PUSH2 0x29B3 DUP3 PUSH2 0x2974 JUMP JUMPDEST PUSH1 0x20 DUP3 ADD SWAP1 POP SWAP2 SWAP1 POP JUMP JUMPDEST PUSH0 PUSH1 0x20 DUP3 ADD SWAP1 POP DUP2 DUP2 SUB PUSH0 DUP4 ADD MSTORE PUSH2 0x29D5 DUP2 PUSH2 0x299C JUMP JUMPDEST SWAP1 POP SWAP2 SWAP1 POP JUMP JUMPDEST PUSH32 0x4E487B7100000000000000000000000000000000000000000000000000000000 PUSH0 MSTORE PUSH1 0x32 PUSH1 0x4 MSTORE PUSH1 0x24 PUSH0 REVERT JUMPDEST PUSH32 0x4E487B7100000000000000000000000000000000000000000000000000000000 PUSH0 MSTORE PUSH1 0x12 PUSH1 0x4 MSTORE PUSH1 0x24 PUSH0 REVERT JUMPDEST PUSH0 PUSH2 0x2A40 DUP3 PUSH2 0x1914 JUMP JUMPDEST SWAP2 POP PUSH2 0x2A4B DUP4 PUSH2 0x1914 JUMP JUMPDEST SWAP3 POP DUP3 PUSH2 0x2A5B JUMPI PUSH2 0x2A5A PUSH2 0x2A09 JUMP JUMPDEST JUMPDEST DUP3 DUP3 DIV SWAP1 POP SWAP3 SWAP2 POP POP JUMP JUMPDEST PUSH0 PUSH2 0x2A70 DUP3 PUSH2 0x1914 JUMP JUMPDEST SWAP2 POP PUSH2 0x2A7B DUP4 PUSH2 0x1914 JUMP JUMPDEST SWAP3 POP DUP3 DUP3 SUB SWAP1 POP DUP2 DUP2 GT ISZERO PUSH2 0x2A93 JUMPI PUSH2 0x2A92 PUSH2 0x2828 JUMP JUMPDEST JUMPDEST SWAP3 SWAP2 POP POP JUMP JUMPDEST PUSH32 0x72657053636F7265000000000000000000000000000000000000000000000000 PUSH0 DUP3 ADD MSTORE POP JUMP JUMPDEST PUSH0 PUSH2 0x2ACD PUSH1 0x8 DUP4 PUSH2 0x1A1D JUMP JUMPDEST SWAP2 POP PUSH2 0x2AD8 DUP3 PUSH2 0x2A99 JUMP JUMPDEST PUSH1 0x20 DUP3 ADD SWAP1 POP SWAP2 SWAP1 POP JUMP JUMPDEST PUSH0 PUSH1 0x40 DUP3 ADD SWAP1 POP DUP2 DUP2 SUB PUSH0 DUP4 ADD MSTORE PUSH2 0x2AFA DUP2 PUSH2 0x2AC1 JUMP JUMPDEST SWAP1 POP PUSH2 0x2B09 PUSH1 0x20 DUP4 ADD DUP5 PUSH2 0x1E20 JUMP JUMPDEST SWAP3 SWAP2 POP POP JUMP JUMPDEST PUSH32 0x6D73672E73656E6465722042616C616E63650000000000000000000000000000 PUSH0 DUP3 ADD MSTORE POP JUMP JUMPDEST PUSH0 PUSH2 0x2B43 PUSH1 0x12 DUP4 PUSH2 0x1A1D JUMP JUMPDEST SWAP2 POP PUSH2 0x2B4E DUP3 PUSH2 0x2B0F JUMP JUMPDEST PUSH1 0x20 DUP3 ADD SWAP1 POP SWAP2 SWAP1 POP JUMP JUMPDEST PUSH0 PUSH1 0x40 DUP3 ADD SWAP1 POP DUP2 DUP2 SUB PUSH0 DUP4 ADD MSTORE PUSH2 0x2B70 DUP2 PUSH2 0x2B37 JUMP JUMPDEST SWAP1 POP PUSH2 0x2B7F PUSH1 0x20 DUP4 ADD DUP5 PUSH2 0x1E20 JUMP JUMPDEST SWAP3 SWAP2 POP POP JUMP JUMPDEST PUSH0 PUSH2 0x2B8F DUP3 PUSH2 0x1914 JUMP JUMPDEST SWAP2 POP PUSH2 0x2B9A DUP4 PUSH2 0x1914 JUMP JUMPDEST SWAP3 POP DUP3 DUP3 MUL PUSH2 0x2BA8 DUP2 PUSH2 0x1914 JUMP JUMPDEST SWAP2 POP DUP3 DUP3 DIV DUP5 EQ DUP4 ISZERO OR PUSH2 0x2BBF JUMPI PUSH2 0x2BBE PUSH2 0x2828 JUMP JUMPDEST JUMPDEST POP SWAP3 SWAP2 POP POP JUMP JUMPDEST PUSH32 0x5468652070726F706F6E656E742068617320746F20706179206120746F74616C PUSH0 DUP3 ADD MSTORE PUSH32 0x206F663A20000000000000000000000000000000000000000000000000000000 PUSH1 0x20 DUP3 ADD MSTORE POP JUMP JUMPDEST PUSH0 PUSH2 0x2C20 PUSH1 0x25 DUP4 PUSH2 0x1A1D JUMP JUMPDEST SWAP2 POP PUSH2 0x2C2B DUP3 PUSH2 0x2BC6 JUMP JUMPDEST PUSH1 0x40 DUP3 ADD SWAP1 POP SWAP2 SWAP1 POP JUMP JUMPDEST PUSH0 PUSH1 0x40 DUP3 ADD SWAP1 POP DUP2 DUP2 SUB PUSH0 DUP4 ADD MSTORE PUSH2 0x2C4D DUP2 PUSH2 0x2C14 JUMP JUMPDEST SWAP1 POP PUSH2 0x2C5C PUSH1 0x20 DUP4 ADD DUP5 PUSH2 0x1E20 JUMP JUMPDEST SWAP3 SWAP2 POP POP JUMP JUMPDEST PUSH0 DUP2 SWAP1 POP SWAP3 SWAP2 POP POP JUMP JUMPDEST POP JUMP JUMPDEST PUSH0 PUSH2 0x2C7A PUSH0 DUP4 PUSH2 0x2C62 JUMP JUMPDEST SWAP2 POP PUSH2 0x2C85 DUP3 PUSH2 0x2C6C JUMP JUMPDEST PUSH0 DUP3 ADD SWAP1 POP SWAP2 SWAP1 POP JUMP JUMPDEST PUSH0 PUSH2 0x2C99 DUP3 PUSH2 0x2C6F JUMP JUMPDEST SWAP2 POP DUP2 SWAP1 POP SWAP2 SWAP1 POP JUMP JUMPDEST PUSH32 0x4661696C656420746F2073656E64206465706F73697420746F2070726F706F6E PUSH0 DUP3 ADD MSTORE PUSH32 0x656E740000000000000000000000000000000000000000000000000000000000 PUSH1 0x20 DUP3 ADD MSTORE POP JUMP JUMPDEST PUSH0 PUSH2 0x2CFD PUSH1 0x23 DUP4 PUSH2 0x1A1D JUMP JUMPDEST SWAP2 POP PUSH2 0x2D08 DUP3 PUSH2 0x2CA3 JUMP JUMPDEST PUSH1 0x40 DUP3 ADD SWAP1 POP SWAP2 SWAP1 POP JUMP JUMPDEST PUSH0 PUSH1 0x20 DUP3 ADD SWAP1 POP DUP2 DUP2 SUB PUSH0 DUP4 ADD MSTORE PUSH2 0x2D2A DUP2 PUSH2 0x2CF1 JUMP JUMPDEST SWAP1 POP SWAP2 SWAP1 POP JUMP INVALID PUSH1 0x80 PUSH1 0x40 MSTORE PUSH1 0x1 PUSH1 0x4 SSTORE CALLVALUE DUP1 ISZERO PUSH2 0x14 JUMPI PUSH0 PUSH0 REVERT JUMPDEST POP CALLER DUP1 PUSH0 PUSH0 PUSH20 0xFFFFFFFFFFFFFFFFFFFFFFFFFFFFFFFFFFFFFFFF AND DUP3 PUSH20 0xFFFFFFFFFFFFFFFFFFFFFFFFFFFFFFFFFFFFFFFF AND SUB PUSH2 0x86 JUMPI PUSH1 0x40 MLOAD PUSH32 0x8C379A000000000000000000000000000000000000000000000000000000000 DUP2 MSTORE PUSH1 0x4 ADD PUSH2 0x7D SWAP1 PUSH2 0x3B1 JUMP JUMPDEST PUSH1 0x40 MLOAD DUP1 SWAP2 SUB SWAP1 REVERT JUMPDEST DUP2 PUSH1 0x6 PUSH0 PUSH2 0x100 EXP DUP2 SLOAD DUP2 PUSH20 0xFFFFFFFFFFFFFFFFFFFFFFFFFFFFFFFFFFFFFFFF MUL NOT AND SWAP1 DUP4 PUSH20 0xFFFFFFFFFFFFFFFFFFFFFFFFFFFFFFFFFFFFFFFF AND MUL OR SWAP1 SSTORE POP PUSH0 PUSH20 0xFFFFFFFFFFFFFFFFFFFFFFFFFFFFFFFFFFFFFFFF AND DUP2 PUSH20 0xFFFFFFFFFFFFFFFFFFFFFFFFFFFFFFFFFFFFFFFF AND EQ PUSH2 0x109 JUMPI PUSH2 0x108 DUP2 PUSH2 0x1A5 PUSH1 0x20 SHL PUSH1 0x20 SHR JUMP JUMPDEST JUMPDEST POP POP POP PUSH2 0x12F PUSH20 0x779877A7B0D9E8603169DDBD7836E478B4624789 PUSH2 0x2D1 PUSH1 0x20 SHL PUSH1 0x20 SHR JUMP JUMPDEST PUSH2 0x152 PUSH20 0x6090149792DAAEE9D1D568C9F9A6F6B46AA29EFD PUSH2 0x314 PUSH1 0x20 SHL PUSH1 0x20 SHR JUMP JUMPDEST PUSH32 0x6361393833363663633733313439353762386330313263373266303561656562 PUSH1 0x9 DUP2 SWAP1 SSTORE POP PUSH1 0xA PUSH8 0xDE0B6B3A7640000 PUSH1 0x1 PUSH2 0x190 SWAP2 SWAP1 PUSH2 0x405 JUMP JUMPDEST PUSH2 0x19A SWAP2 SWAP1 PUSH2 0x473 JUMP JUMPDEST PUSH1 0xA DUP2 SWAP1 SSTORE POP PUSH2 0x50B JUMP JUMPDEST CALLER PUSH20 0xFFFFFFFFFFFFFFFFFFFFFFFFFFFFFFFFFFFFFFFF AND DUP2 PUSH20 0xFFFFFFFFFFFFFFFFFFFFFFFFFFFFFFFFFFFFFFFF AND SUB PUSH2 0x213 JUMPI PUSH1 0x40 MLOAD PUSH32 0x8C379A000000000000000000000000000000000000000000000000000000000 DUP2 MSTORE PUSH1 0x4 ADD PUSH2 0x20A SWAP1 PUSH2 0x4ED JUMP JUMPDEST PUSH1 0x40 MLOAD DUP1 SWAP2 SUB SWAP1 REVERT JUMPDEST DUP1 PUSH1 0x7 PUSH0 PUSH2 0x100 EXP DUP2 SLOAD DUP2 PUSH20 0xFFFFFFFFFFFFFFFFFFFFFFFFFFFFFFFFFFFFFFFF MUL NOT AND SWAP1 DUP4 PUSH20 0xFFFFFFFFFFFFFFFFFFFFFFFFFFFFFFFFFFFFFFFF AND MUL OR SWAP1 SSTORE POP DUP1 PUSH20 0xFFFFFFFFFFFFFFFFFFFFFFFFFFFFFFFFFFFFFFFF AND PUSH1 0x6 PUSH0 SWAP1 SLOAD SWAP1 PUSH2 0x100 EXP SWAP1 DIV PUSH20 0xFFFFFFFFFFFFFFFFFFFFFFFFFFFFFFFFFFFFFFFF AND PUSH20 0xFFFFFFFFFFFFFFFFFFFFFFFFFFFFFFFFFFFFFFFF AND PUSH32 0xED8889F560326EB138920D842192F0EB3DD22B4F139C87A2C57538E05BAE1278 PUSH1 0x40 MLOAD PUSH1 0x40 MLOAD DUP1 SWAP2 SUB SWAP1 LOG3 POP JUMP JUMPDEST DUP1 PUSH1 0x2 PUSH0 PUSH2 0x100 EXP DUP2 SLOAD DUP2 PUSH20 0xFFFFFFFFFFFFFFFFFFFFFFFFFFFFFFFFFFFFFFFF MUL NOT AND SWAP1 DUP4 PUSH20 0xFFFFFFFFFFFFFFFFFFFFFFFFFFFFFFFFFFFFFFFF AND MUL OR SWAP1 SSTORE POP POP JUMP JUMPDEST DUP1 PUSH1 0x3 PUSH0 PUSH2 0x100 EXP DUP2 SLOAD DUP2 PUSH20 0xFFFFFFFFFFFFFFFFFFFFFFFFFFFFFFFFFFFFFFFF MUL NOT AND SWAP1 DUP4 PUSH20 0xFFFFFFFFFFFFFFFFFFFFFFFFFFFFFFFFFFFFFFFF AND MUL OR SWAP1 SSTORE POP POP JUMP JUMPDEST PUSH0 DUP3 DUP3 MSTORE PUSH1 0x20 DUP3 ADD SWAP1 POP SWAP3 SWAP2 POP POP JUMP JUMPDEST PUSH32 0x43616E6E6F7420736574206F776E657220746F207A65726F0000000000000000 PUSH0 DUP3 ADD MSTORE POP JUMP JUMPDEST PUSH0 PUSH2 0x39B PUSH1 0x18 DUP4 PUSH2 0x357 JUMP JUMPDEST SWAP2 POP PUSH2 0x3A6 DUP3 PUSH2 0x367 JUMP JUMPDEST PUSH1 0x20 DUP3 ADD SWAP1 POP SWAP2 SWAP1 POP JUMP JUMPDEST PUSH0 PUSH1 0x20 DUP3 ADD SWAP1 POP DUP2 DUP2 SUB PUSH0 DUP4 ADD MSTORE PUSH2 0x3C8 DUP2 PUSH2 0x38F JUMP JUMPDEST SWAP1 POP SWAP2 SWAP1 POP JUMP JUMPDEST PUSH0 DUP2 SWAP1 POP SWAP2 SWAP1 POP JUMP JUMPDEST PUSH32 0x4E487B7100000000000000000000000000000000000000000000000000000000 PUSH0 MSTORE PUSH1 0x11 PUSH1 0x4 MSTORE PUSH1 0x24 PUSH0 REVERT JUMPDEST PUSH0 PUSH2 0x40F DUP3 PUSH2 0x3CF JUMP JUMPDEST SWAP2 POP PUSH2 0x41A DUP4 PUSH2 0x3CF JUMP JUMPDEST SWAP3 POP DUP3 DUP3 MUL PUSH2 0x428 DUP2 PUSH2 0x3CF JUMP JUMPDEST SWAP2 POP DUP3 DUP3 DIV DUP5 EQ DUP4 ISZERO OR PUSH2 0x43F JUMPI PUSH2 0x43E PUSH2 0x3D8 JUMP JUMPDEST JUMPDEST POP SWAP3 SWAP2 POP POP JUMP JUMPDEST PUSH32 0x4E487B7100000000000000000000000000000000000000000000000000000000 PUSH0 MSTORE PUSH1 0x12 PUSH1 0x4 MSTORE PUSH1 0x24 PUSH0 REVERT JUMPDEST PUSH0 PUSH2 0x47D DUP3 PUSH2 0x3CF JUMP JUMPDEST SWAP2 POP PUSH2 0x488 DUP4 PUSH2 0x3CF JUMP JUMPDEST SWAP3 POP DUP3 PUSH2 0x498 JUMPI PUSH2 0x497 PUSH2 0x446 JUMP JUMPDEST JUMPDEST DUP3 DUP3 DIV SWAP1 POP SWAP3 SWAP2 POP POP JUMP JUMPDEST PUSH32 0x43616E6E6F74207472616E7366657220746F2073656C66000000000000000000 PUSH0 DUP3 ADD MSTORE POP JUMP JUMPDEST PUSH0 PUSH2 0x4D7 PUSH1 0x17 DUP4 PUSH2 0x357 JUMP JUMPDEST SWAP2 POP PUSH2 0x4E2 DUP3 PUSH2 0x4A3 JUMP JUMPDEST PUSH1 0x20 DUP3 ADD SWAP1 POP SWAP2 SWAP1 POP JUMP JUMPDEST PUSH0 PUSH1 0x20 DUP3 ADD SWAP1 POP DUP2 DUP2 SUB PUSH0 DUP4 ADD MSTORE PUSH2 0x504 DUP2 PUSH2 0x4CB JUMP JUMPDEST SWAP1 POP SWAP2 SWAP1 POP JUMP JUMPDEST PUSH2 0x206F DUP1 PUSH2 0x518 PUSH0 CODECOPY PUSH0 RETURN INVALID PUSH1 0x80 PUSH1 0x40 MSTORE CALLVALUE DUP1 ISZERO PUSH2 0xF JUMPI PUSH0 PUSH0 REVERT JUMPDEST POP PUSH1 0x4 CALLDATASIZE LT PUSH2 0x86 JUMPI PUSH0 CALLDATALOAD PUSH1 0xE0 SHR DUP1 PUSH4 0x8DA5CB5B GT PUSH2 0x59 JUMPI DUP1 PUSH4 0x8DA5CB5B EQ PUSH2 0xEA JUMPI DUP1 PUSH4 0x8DC654A2 EQ PUSH2 0x108 JUMPI DUP1 PUSH4 0xC618A1E4 EQ PUSH2 0x112 JUMPI DUP1 PUSH4 0xF2FDE38B EQ PUSH2 0x130 JUMPI PUSH2 0x86 JUMP JUMPDEST DUP1 PUSH4 0x2ADB9E3C EQ PUSH2 0x8A JUMPI DUP1 PUSH4 0x3DA0AC79 EQ PUSH2 0xBA JUMPI DUP1 PUSH4 0x4357855E EQ PUSH2 0xC4 JUMPI DUP1 PUSH4 0x79BA5097 EQ PUSH2 0xE0 JUMPI JUMPDEST PUSH0 PUSH0 REVERT JUMPDEST PUSH2 0xA4 PUSH1 0x4 DUP1 CALLDATASIZE SUB DUP2 ADD SWAP1 PUSH2 0x9F SWAP2 SWAP1 PUSH2 0x1455 JUMP JUMPDEST PUSH2 0x14C JUMP JUMPDEST PUSH1 0x40 MLOAD PUSH2 0xB1 SWAP2 SWAP1 PUSH2 0x1498 JUMP JUMPDEST PUSH1 0x40 MLOAD DUP1 SWAP2 SUB SWAP1 RETURN JUMPDEST PUSH2 0xC2 PUSH2 0x2DE JUMP JUMPDEST STOP JUMPDEST PUSH2 0xDE PUSH1 0x4 DUP1 CALLDATASIZE SUB DUP2 ADD SWAP1 PUSH2 0xD9 SWAP2 SWAP1 PUSH2 0x14DB JUMP JUMPDEST PUSH2 0x37C JUMP JUMPDEST STOP JUMPDEST PUSH2 0xE8 PUSH2 0x4BF JUMP JUMPDEST STOP JUMPDEST PUSH2 0xF2 PUSH2 0x650 JUMP JUMPDEST PUSH1 0x40 MLOAD PUSH2 0xFF SWAP2 SWAP1 PUSH2 0x1558 JUMP JUMPDEST PUSH1 0x40 MLOAD DUP1 SWAP2 SUB SWAP1 RETURN JUMPDEST PUSH2 0x110 PUSH2 0x678 JUMP JUMPDEST STOP JUMPDEST PUSH2 0x11A PUSH2 0x7BF JUMP JUMPDEST PUSH1 0x40 MLOAD PUSH2 0x127 SWAP2 SWAP1 PUSH2 0x1580 JUMP JUMPDEST PUSH1 0x40 MLOAD DUP1 SWAP2 SUB SWAP1 RETURN JUMPDEST PUSH2 0x14A PUSH1 0x4 DUP1 CALLDATASIZE SUB DUP2 ADD SWAP1 PUSH2 0x145 SWAP2 SWAP1 PUSH2 0x15C3 JUMP JUMPDEST PUSH2 0x7C5 JUMP JUMPDEST STOP JUMPDEST PUSH0 PUSH0 PUSH2 0x162 PUSH1 0x9 SLOAD ADDRESS PUSH4 0x4357855E PUSH1 0xE0 SHL PUSH2 0x7D9 JUMP JUMPDEST SWAP1 POP PUSH2 0x1C6 PUSH1 0x40 MLOAD DUP1 PUSH1 0x40 ADD PUSH1 0x40 MSTORE DUP1 PUSH1 0x3 DUP2 MSTORE PUSH1 0x20 ADD PUSH32 0x6765740000000000000000000000000000000000000000000000000000000000 DUP2 MSTORE POP PUSH1 0x40 MLOAD DUP1 PUSH1 0x60 ADD PUSH1 0x40 MSTORE DUP1 PUSH1 0x2D DUP2 MSTORE PUSH1 0x20 ADD PUSH2 0x200D PUSH1 0x2D SWAP2 CODECOPY DUP4 PUSH2 0x80A SWAP1 SWAP3 SWAP2 SWAP1 PUSH4 0xFFFFFFFF AND JUMP JUMPDEST PUSH2 0x245 PUSH1 0x40 MLOAD DUP1 PUSH1 0x40 ADD PUSH1 0x40 MSTORE DUP1 PUSH1 0x4 DUP2 MSTORE PUSH1 0x20 ADD PUSH32 0x7061746800000000000000000000000000000000000000000000000000000000 DUP2 MSTORE POP PUSH1 0x40 MLOAD DUP1 PUSH1 0x40 ADD PUSH1 0x40 MSTORE DUP1 PUSH1 0x3 DUP2 MSTORE PUSH1 0x20 ADD PUSH32 0x6E756D0000000000000000000000000000000000000000000000000000000000 DUP2 MSTORE POP DUP4 PUSH2 0x80A SWAP1 SWAP3 SWAP2 SWAP1 PUSH4 0xFFFFFFFF AND JUMP JUMPDEST PUSH0 PUSH1 0x1 SWAP1 POP PUSH2 0x294 PUSH1 0x40 MLOAD DUP1 PUSH1 0x40 ADD PUSH1 0x40 MSTORE DUP1 PUSH1 0x5 DUP2 MSTORE PUSH1 0x20 ADD PUSH32 0x74696D6573000000000000000000000000000000000000000000000000000000 DUP2 MSTORE POP DUP3 DUP5 PUSH2 0x83D SWAP1 SWAP3 SWAP2 SWAP1 PUSH4 0xFFFFFFFF AND JUMP JUMPDEST PUSH32 0xE8E349D9D60379B7E0A717F216D3D9EFAF00B5DCE8B634A63F24A5D76251059F PUSH1 0x40 MLOAD PUSH2 0x2C1 SWAP1 PUSH2 0x1648 JUMP JUMPDEST PUSH1 0x40 MLOAD DUP1 SWAP2 SUB SWAP1 LOG1 PUSH2 0x2D5 DUP3 PUSH1 0xA SLOAD PUSH2 0x870 JUMP JUMPDEST SWAP3 POP POP POP SWAP2 SWAP1 POP JUMP JUMPDEST PUSH0 PUSH2 0x2E9 PUSH1 0x1 PUSH2 0x14C JUMP JUMPDEST PUSH0 SHR SWAP1 POP PUSH0 PUSH1 0x8 SLOAD SWAP1 POP PUSH0 PUSH2 0x2FE PUSH1 0x1 PUSH2 0x14C JUMP JUMPDEST PUSH0 SHR SWAP1 POP PUSH0 PUSH1 0x8 SLOAD SWAP1 POP PUSH32 0x4953E1E253D3404572E66D2BE3E7889846DB195DFC203305A4810D16100DFD11 DUP4 PUSH1 0x40 MLOAD PUSH2 0x337 SWAP2 SWAP1 PUSH2 0x16B0 JUMP JUMPDEST PUSH1 0x40 MLOAD DUP1 SWAP2 SUB SWAP1 LOG1 PUSH32 0x4953E1E253D3404572E66D2BE3E7889846DB195DFC203305A4810D16100DFD11 DUP2 PUSH1 0x40 MLOAD PUSH2 0x36E SWAP2 SWAP1 PUSH2 0x1726 JUMP JUMPDEST PUSH1 0x40 MLOAD DUP1 SWAP2 SUB SWAP1 LOG1 POP POP POP POP JUMP JUMPDEST DUP2 PUSH1 0x5 PUSH0 DUP3 DUP2 MSTORE PUSH1 0x20 ADD SWAP1 DUP2 MSTORE PUSH1 0x20 ADD PUSH0 KECCAK256 PUSH0 SWAP1 SLOAD SWAP1 PUSH2 0x100 EXP SWAP1 DIV PUSH20 0xFFFFFFFFFFFFFFFFFFFFFFFFFFFFFFFFFFFFFFFF AND PUSH20 0xFFFFFFFFFFFFFFFFFFFFFFFFFFFFFFFFFFFFFFFF AND CALLER PUSH20 0xFFFFFFFFFFFFFFFFFFFFFFFFFFFFFFFFFFFFFFFF AND EQ PUSH2 0x41B JUMPI PUSH1 0x40 MLOAD PUSH32 0x8C379A000000000000000000000000000000000000000000000000000000000 DUP2 MSTORE PUSH1 0x4 ADD PUSH2 0x412 SWAP1 PUSH2 0x17C2 JUMP JUMPDEST PUSH1 0x40 MLOAD DUP1 SWAP2 SUB SWAP1 REVERT JUMPDEST PUSH1 0x5 PUSH0 DUP3 DUP2 MSTORE PUSH1 0x20 ADD SWAP1 DUP2 MSTORE PUSH1 0x20 ADD PUSH0 KECCAK256 PUSH0 PUSH2 0x100 EXP DUP2 SLOAD SWAP1 PUSH20 0xFFFFFFFFFFFFFFFFFFFFFFFFFFFFFFFFFFFFFFFF MUL NOT AND SWAP1 SSTORE DUP1 PUSH32 0x7CC135E0CEBB02C3480AE5D74D377283180A2601F8F644EDF7987B009316C63A PUSH1 0x40 MLOAD PUSH1 0x40 MLOAD DUP1 SWAP2 SUB SWAP1 LOG2 DUP3 PUSH32 0x673B38182859A514D734BDFCB49D3A05C4A641DEC9311D9894C9717BCB79AF76 DUP4 PUSH1 0x40 MLOAD PUSH2 0x4AB SWAP2 SWAP1 PUSH2 0x1580 JUMP JUMPDEST PUSH1 0x40 MLOAD DUP1 SWAP2 SUB SWAP1 LOG2 DUP2 PUSH1 0x8 DUP2 SWAP1 SSTORE POP POP POP POP JUMP JUMPDEST PUSH1 0x7 PUSH0 SWAP1 SLOAD SWAP1 PUSH2 0x100 EXP SWAP1 DIV PUSH20 0xFFFFFFFFFFFFFFFFFFFFFFFFFFFFFFFFFFFFFFFF AND PUSH20 0xFFFFFFFFFFFFFFFFFFFFFFFFFFFFFFFFFFFFFFFF AND CALLER PUSH20 0xFFFFFFFFFFFFFFFFFFFFFFFFFFFFFFFFFFFFFFFF AND EQ PUSH2 0x54E JUMPI PUSH1 0x40 MLOAD PUSH32 0x8C379A000000000000000000000000000000000000000000000000000000000 DUP2 MSTORE PUSH1 0x4 ADD PUSH2 0x545 SWAP1 PUSH2 0x182A JUMP JUMPDEST PUSH1 0x40 MLOAD DUP1 SWAP2 SUB SWAP1 REVERT JUMPDEST PUSH0 PUSH1 0x6 PUSH0 SWAP1 SLOAD SWAP1 PUSH2 0x100 EXP SWAP1 DIV PUSH20 0xFFFFFFFFFFFFFFFFFFFFFFFFFFFFFFFFFFFFFFFF AND SWAP1 POP CALLER PUSH1 0x6 PUSH0 PUSH2 0x100 EXP DUP2 SLOAD DUP2 PUSH20 0xFFFFFFFFFFFFFFFFFFFFFFFFFFFFFFFFFFFFFFFF MUL NOT AND SWAP1 DUP4 PUSH20 0xFFFFFFFFFFFFFFFFFFFFFFFFFFFFFFFFFFFFFFFF AND MUL OR SWAP1 SSTORE POP PUSH0 PUSH1 0x7 PUSH0 PUSH2 0x100 EXP DUP2 SLOAD DUP2 PUSH20 0xFFFFFFFFFFFFFFFFFFFFFFFFFFFFFFFFFFFFFFFF MUL NOT AND SWAP1 DUP4 PUSH20 0xFFFFFFFFFFFFFFFFFFFFFFFFFFFFFFFFFFFFFFFF AND MUL OR SWAP1 SSTORE POP CALLER PUSH20 0xFFFFFFFFFFFFFFFFFFFFFFFFFFFFFFFFFFFFFFFF AND DUP2 PUSH20 0xFFFFFFFFFFFFFFFFFFFFFFFFFFFFFFFFFFFFFFFF AND PUSH32 0x8BE0079C531659141344CD1FD0A4F28419497F9722A3DAAFE3B4186F6B6457E0 PUSH1 0x40 MLOAD PUSH1 0x40 MLOAD DUP1 SWAP2 SUB SWAP1 LOG3 POP JUMP JUMPDEST PUSH0 PUSH1 0x6 PUSH0 SWAP1 SLOAD SWAP1 PUSH2 0x100 EXP SWAP1 DIV PUSH20 0xFFFFFFFFFFFFFFFFFFFFFFFFFFFFFFFFFFFFFFFF AND SWAP1 POP SWAP1 JUMP JUMPDEST PUSH2 0x680 PUSH2 0x8A5 JUMP JUMPDEST PUSH0 PUSH2 0x689 PUSH2 0x936 JUMP JUMPDEST SWAP1 POP DUP1 PUSH20 0xFFFFFFFFFFFFFFFFFFFFFFFFFFFFFFFFFFFFFFFF AND PUSH4 0xA9059CBB CALLER DUP4 PUSH20 0xFFFFFFFFFFFFFFFFFFFFFFFFFFFFFFFFFFFFFFFF AND PUSH4 0x70A08231 ADDRESS PUSH1 0x40 MLOAD DUP3 PUSH4 0xFFFFFFFF AND PUSH1 0xE0 SHL DUP2 MSTORE PUSH1 0x4 ADD PUSH2 0x6E1 SWAP2 SWAP1 PUSH2 0x1558 JUMP JUMPDEST PUSH1 0x20 PUSH1 0x40 MLOAD DUP1 DUP4 SUB DUP2 DUP7 GAS STATICCALL ISZERO DUP1 ISZERO PUSH2 0x6FC JUMPI RETURNDATASIZE PUSH0 PUSH0 RETURNDATACOPY RETURNDATASIZE PUSH0 REVERT JUMPDEST POP POP POP POP PUSH1 0x40 MLOAD RETURNDATASIZE PUSH1 0x1F NOT PUSH1 0x1F DUP3 ADD AND DUP3 ADD DUP1 PUSH1 0x40 MSTORE POP DUP2 ADD SWAP1 PUSH2 0x720 SWAP2 SWAP1 PUSH2 0x185C JUMP JUMPDEST PUSH1 0x40 MLOAD DUP4 PUSH4 0xFFFFFFFF AND PUSH1 0xE0 SHL DUP2 MSTORE PUSH1 0x4 ADD PUSH2 0x73D SWAP3 SWAP2 SWAP1 PUSH2 0x1887 JUMP JUMPDEST PUSH1 0x20 PUSH1 0x40 MLOAD DUP1 DUP4 SUB DUP2 PUSH0 DUP8 GAS CALL ISZERO DUP1 ISZERO PUSH2 0x759 JUMPI RETURNDATASIZE PUSH0 PUSH0 RETURNDATACOPY RETURNDATASIZE PUSH0 REVERT JUMPDEST POP POP POP POP PUSH1 0x40 MLOAD RETURNDATASIZE PUSH1 0x1F NOT PUSH1 0x1F DUP3 ADD AND DUP3 ADD DUP1 PUSH1 0x40 MSTORE POP DUP2 ADD SWAP1 PUSH2 0x77D SWAP2 SWAP1 PUSH2 0x18E3 JUMP JUMPDEST PUSH2 0x7BC JUMPI PUSH1 0x40 MLOAD PUSH32 0x8C379A000000000000000000000000000000000000000000000000000000000 DUP2 MSTORE PUSH1 0x4 ADD PUSH2 0x7B3 SWAP1 PUSH2 0x1958 JUMP JUMPDEST PUSH1 0x40 MLOAD DUP1 SWAP2 SUB SWAP1 REVERT JUMPDEST POP JUMP JUMPDEST PUSH1 0x8 SLOAD DUP2 JUMP JUMPDEST PUSH2 0x7CD PUSH2 0x8A5 JUMP JUMPDEST PUSH2 0x7D6 DUP2 PUSH2 0x95E JUMP JUMPDEST POP JUMP JUMPDEST PUSH2 0x7E1 PUSH2 0x139F JUMP JUMPDEST PUSH2 0x7E9 PUSH2 0x139F JUMP JUMPDEST PUSH2 0x800 DUP6 DUP6 DUP6 DUP5 PUSH2 0xA8A SWAP1 SWAP4 SWAP3 SWAP2 SWAP1 PUSH4 0xFFFFFFFF AND JUMP JUMPDEST SWAP2 POP POP SWAP4 SWAP3 POP POP POP JUMP JUMPDEST PUSH2 0x821 DUP3 DUP5 PUSH1 0x80 ADD MLOAD PUSH2 0xB39 SWAP1 SWAP2 SWAP1 PUSH4 0xFFFFFFFF AND JUMP JUMPDEST PUSH2 0x838 DUP2 DUP5 PUSH1 0x80 ADD MLOAD PUSH2 0xB39 SWAP1 SWAP2 SWAP1 PUSH4 0xFFFFFFFF AND JUMP JUMPDEST POP POP POP JUMP JUMPDEST PUSH2 0x854 DUP3 DUP5 PUSH1 0x80 ADD MLOAD PUSH2 0xB39 SWAP1 SWAP2 SWAP1 PUSH4 0xFFFFFFFF AND JUMP JUMPDEST PUSH2 0x86B DUP2 DUP5 PUSH1 0x80 ADD MLOAD PUSH2 0xB5E SWAP1 SWAP2 SWAP1 PUSH4 0xFFFFFFFF AND JUMP JUMPDEST POP POP POP JUMP JUMPDEST PUSH0 PUSH2 0x89D PUSH1 0x3 PUSH0 SWAP1 SLOAD SWAP1 PUSH2 0x100 EXP SWAP1 DIV PUSH20 0xFFFFFFFFFFFFFFFFFFFFFFFFFFFFFFFFFFFFFFFF AND DUP5 DUP5 PUSH2 0xC09 JUMP JUMPDEST SWAP1 POP SWAP3 SWAP2 POP POP JUMP JUMPDEST PUSH1 0x6 PUSH0 SWAP1 SLOAD SWAP1 PUSH2 0x100 EXP SWAP1 DIV PUSH20 0xFFFFFFFFFFFFFFFFFFFFFFFFFFFFFFFFFFFFFFFF AND PUSH20 0xFFFFFFFFFFFFFFFFFFFFFFFFFFFFFFFFFFFFFFFF AND CALLER PUSH20 0xFFFFFFFFFFFFFFFFFFFFFFFFFFFFFFFFFFFFFFFF AND EQ PUSH2 0x934 JUMPI PUSH1 0x40 MLOAD PUSH32 0x8C379A000000000000000000000000000000000000000000000000000000000 DUP2 MSTORE PUSH1 0x4 ADD PUSH2 0x92B SWAP1 PUSH2 0x19C0 JUMP JUMPDEST PUSH1 0x40 MLOAD DUP1 SWAP2 SUB SWAP1 REVERT JUMPDEST JUMP JUMPDEST PUSH0 PUSH1 0x2 PUSH0 SWAP1 SLOAD SWAP1 PUSH2 0x100 EXP SWAP1 DIV PUSH20 0xFFFFFFFFFFFFFFFFFFFFFFFFFFFFFFFFFFFFFFFF AND SWAP1 POP SWAP1 JUMP JUMPDEST CALLER PUSH20 0xFFFFFFFFFFFFFFFFFFFFFFFFFFFFFFFFFFFFFFFF AND DUP2 PUSH20 0xFFFFFFFFFFFFFFFFFFFFFFFFFFFFFFFFFFFFFFFF AND SUB PUSH2 0x9CC JUMPI PUSH1 0x40 MLOAD PUSH32 0x8C379A000000000000000000000000000000000000000000000000000000000 DUP2 MSTORE PUSH1 0x4 ADD PUSH2 0x9C3 SWAP1 PUSH2 0x1A28 JUMP JUMPDEST PUSH1 0x40 MLOAD DUP1 SWAP2 SUB SWAP1 REVERT JUMPDEST DUP1 PUSH1 0x7 PUSH0 PUSH2 0x100 EXP DUP2 SLOAD DUP2 PUSH20 0xFFFFFFFFFFFFFFFFFFFFFFFFFFFFFFFFFFFFFFFF MUL NOT AND SWAP1 DUP4 PUSH20 0xFFFFFFFFFFFFFFFFFFFFFFFFFFFFFFFFFFFFFFFF AND MUL OR SWAP1 SSTORE POP DUP1 PUSH20 0xFFFFFFFFFFFFFFFFFFFFFFFFFFFFFFFFFFFFFFFF AND PUSH1 0x6 PUSH0 SWAP1 SLOAD SWAP1 PUSH2 0x100 EXP SWAP1 DIV PUSH20 0xFFFFFFFFFFFFFFFFFFFFFFFFFFFFFFFFFFFFFFFF AND PUSH20 0xFFFFFFFFFFFFFFFFFFFFFFFFFFFFFFFFFFFFFFFF AND PUSH32 0xED8889F560326EB138920D842192F0EB3DD22B4F139C87A2C57538E05BAE1278 PUSH1 0x40 MLOAD PUSH1 0x40 MLOAD DUP1 SWAP2 SUB SWAP1 LOG3 POP JUMP JUMPDEST PUSH2 0xA92 PUSH2 0x139F JUMP JUMPDEST PUSH2 0xAA2 DUP6 PUSH1 0x80 ADD MLOAD PUSH2 0x100 PUSH2 0xCD0 JUMP JUMPDEST POP DUP4 DUP6 PUSH0 ADD DUP2 DUP2 MSTORE POP POP DUP3 DUP6 PUSH1 0x20 ADD SWAP1 PUSH20 0xFFFFFFFFFFFFFFFFFFFFFFFFFFFFFFFFFFFFFFFF AND SWAP1 DUP2 PUSH20 0xFFFFFFFFFFFFFFFFFFFFFFFFFFFFFFFFFFFFFFFF AND DUP2 MSTORE POP POP DUP2 DUP6 PUSH1 0x40 ADD SWAP1 PUSH28 0xFFFFFFFFFFFFFFFFFFFFFFFFFFFFFFFFFFFFFFFFFFFFFFFFFFFFFFFF NOT AND SWAP1 DUP2 PUSH28 0xFFFFFFFFFFFFFFFFFFFFFFFFFFFFFFFFFFFFFFFFFFFFFFFFFFFFFFFF NOT AND DUP2 MSTORE POP POP DUP5 SWAP1 POP SWAP5 SWAP4 POP POP POP POP JUMP JUMPDEST PUSH2 0xB46 DUP3 PUSH1 0x3 DUP4 MLOAD PUSH2 0xD38 JUMP JUMPDEST PUSH2 0xB59 DUP2 DUP4 PUSH2 0xEBD SWAP1 SWAP2 SWAP1 PUSH4 0xFFFFFFFF AND JUMP JUMPDEST POP POP POP JUMP JUMPDEST PUSH32 0xFFFFFFFFFFFFFFFFFFFFFFFFFFFFFFFFFFFFFFFFFFFFFFFF0000000000000000 DUP2 SLT ISZERO PUSH2 0xB95 JUMPI PUSH2 0xB90 DUP3 DUP3 PUSH2 0xEDE JUMP JUMPDEST PUSH2 0xC05 JUMP JUMPDEST PUSH8 0xFFFFFFFFFFFFFFFF DUP2 SGT ISZERO PUSH2 0xBB4 JUMPI PUSH2 0xBAF DUP3 DUP3 PUSH2 0xF55 JUMP JUMPDEST PUSH2 0xC04 JUMP JUMPDEST PUSH0 DUP2 SLT PUSH2 0xBCB JUMPI PUSH2 0xBC6 DUP3 PUSH0 DUP4 PUSH2 0xD38 JUMP JUMPDEST PUSH2 0xC03 JUMP JUMPDEST PUSH2 0xC02 DUP3 PUSH1 0x1 DUP4 PUSH32 0xFFFFFFFFFFFFFFFFFFFFFFFFFFFFFFFFFFFFFFFFFFFFFFFFFFFFFFFFFFFFFFFF PUSH2 0xBFD SWAP2 SWAP1 PUSH2 0x1A7C JUMP JUMPDEST PUSH2 0xD38 JUMP JUMPDEST JUMPDEST JUMPDEST JUMPDEST POP POP JUMP JUMPDEST PUSH0 PUSH0 PUSH1 0x4 SLOAD SWAP1 POP PUSH1 0x1 DUP2 PUSH2 0xC1D SWAP2 SWAP1 PUSH2 0x1ABC JUMP JUMPDEST PUSH1 0x4 DUP2 SWAP1 SSTORE POP PUSH0 PUSH4 0x40429946 PUSH1 0xE0 SHL PUSH0 PUSH0 DUP8 PUSH0 ADD MLOAD ADDRESS DUP10 PUSH1 0x40 ADD MLOAD DUP8 PUSH1 0x1 DUP13 PUSH1 0x80 ADD MLOAD PUSH0 ADD MLOAD PUSH1 0x40 MLOAD PUSH1 0x24 ADD PUSH2 0xC5A SWAP9 SWAP8 SWAP7 SWAP6 SWAP5 SWAP4 SWAP3 SWAP2 SWAP1 PUSH2 0x1B99 JUMP JUMPDEST PUSH1 0x40 MLOAD PUSH1 0x20 DUP2 DUP4 SUB SUB DUP2 MSTORE SWAP1 PUSH1 0x40 MSTORE SWAP1 PUSH28 0xFFFFFFFFFFFFFFFFFFFFFFFFFFFFFFFFFFFFFFFFFFFFFFFFFFFFFFFF NOT AND PUSH1 0x20 DUP3 ADD DUP1 MLOAD PUSH28 0xFFFFFFFFFFFFFFFFFFFFFFFFFFFFFFFFFFFFFFFFFFFFFFFFFFFFFFFF DUP4 DUP2 DUP4 AND OR DUP4 MSTORE POP POP POP POP SWAP1 POP PUSH2 0xCC5 DUP7 DUP4 DUP7 DUP5 PUSH2 0xFA1 JUMP JUMPDEST SWAP3 POP POP POP SWAP4 SWAP3 POP POP POP JUMP JUMPDEST PUSH2 0xCD8 PUSH2 0x1405 JUMP JUMPDEST PUSH0 PUSH1 0x20 DUP4 PUSH2 0xCE6 SWAP2 SWAP1 PUSH2 0x1C49 JUMP JUMPDEST EQ PUSH2 0xD12 JUMPI PUSH1 0x20 DUP3 PUSH2 0xCF8 SWAP2 SWAP1 PUSH2 0x1C49 JUMP JUMPDEST PUSH1 0x20 PUSH2 0xD04 SWAP2 SWAP1 PUSH2 0x1C79 JUMP JUMPDEST DUP3 PUSH2 0xD0F SWAP2 SWAP1 PUSH2 0x1ABC JUMP JUMPDEST SWAP2 POP JUMPDEST DUP2 DUP4 PUSH1 0x20 ADD DUP2 DUP2 MSTORE POP POP PUSH1 0x40 MLOAD DUP1 DUP5 MSTORE PUSH0 DUP2 MSTORE DUP3 DUP2 ADD PUSH1 0x20 ADD PUSH1 0x40 MSTORE POP DUP3 SWAP1 POP SWAP3 SWAP2 POP POP JUMP JUMPDEST PUSH1 0x17 DUP2 PUSH8 0xFFFFFFFFFFFFFFFF AND GT PUSH2 0xD6F JUMPI PUSH2 0xD69 DUP2 PUSH1 0x5 DUP5 PUSH1 0xFF AND SWAP1 SHL PUSH1 0xFF AND OR DUP5 PUSH2 0x112E SWAP1 SWAP2 SWAP1 PUSH4 0xFFFFFFFF AND JUMP JUMPDEST POP PUSH2 0xEB8 JUMP JUMPDEST PUSH1 0xFF DUP2 PUSH8 0xFFFFFFFFFFFFFFFF AND GT PUSH2 0xDC5 JUMPI PUSH2 0xD9E PUSH1 0x18 PUSH1 0x5 DUP5 PUSH1 0xFF AND SWAP1 SHL OR DUP5 PUSH2 0x112E SWAP1 SWAP2 SWAP1 PUSH4 0xFFFFFFFF AND JUMP JUMPDEST POP PUSH2 0xDBF DUP2 PUSH8 0xFFFFFFFFFFFFFFFF AND PUSH1 0x1 DUP6 PUSH2 0x114D SWAP1 SWAP3 SWAP2 SWAP1 PUSH4 0xFFFFFFFF AND JUMP JUMPDEST POP PUSH2 0xEB7 JUMP JUMPDEST PUSH2 0xFFFF DUP2 PUSH8 0xFFFFFFFFFFFFFFFF AND GT PUSH2 0xE1C JUMPI PUSH2 0xDF5 PUSH1 0x19 PUSH1 0x5 DUP5 PUSH1 0xFF AND SWAP1 SHL OR DUP5 PUSH2 0x112E SWAP1 SWAP2 SWAP1 PUSH4 0xFFFFFFFF AND JUMP JUMPDEST POP PUSH2 0xE16 DUP2 PUSH8 0xFFFFFFFFFFFFFFFF AND PUSH1 0x2 DUP6 PUSH2 0x114D SWAP1 SWAP3 SWAP2 SWAP1 PUSH4 0xFFFFFFFF AND JUMP JUMPDEST POP PUSH2 0xEB6 JUMP JUMPDEST PUSH4 0xFFFFFFFF DUP2 PUSH8 0xFFFFFFFFFFFFFFFF AND GT PUSH2 0xE75 JUMPI PUSH2 0xE4E PUSH1 0x1A PUSH1 0x5 DUP5 PUSH1 0xFF AND SWAP1 SHL OR DUP5 PUSH2 0x112E SWAP1 SWAP2 SWAP1 PUSH4 0xFFFFFFFF AND JUMP JUMPDEST POP PUSH2 0xE6F DUP2 PUSH8 0xFFFFFFFFFFFFFFFF AND PUSH1 0x4 DUP6 PUSH2 0x114D SWAP1 SWAP3 SWAP2 SWAP1 PUSH4 0xFFFFFFFF AND JUMP JUMPDEST POP PUSH2 0xEB5 JUMP JUMPDEST PUSH2 0xE92 PUSH1 0x1B PUSH1 0x5 DUP5 PUSH1 0xFF AND SWAP1 SHL OR DUP5 PUSH2 0x112E SWAP1 SWAP2 SWAP1 PUSH4 0xFFFFFFFF AND JUMP JUMPDEST POP PUSH2 0xEB3 DUP2 PUSH8 0xFFFFFFFFFFFFFFFF AND PUSH1 0x8 DUP6 PUSH2 0x114D SWAP1 SWAP3 SWAP2 SWAP1 PUSH4 0xFFFFFFFF AND JUMP JUMPDEST POP JUMPDEST JUMPDEST JUMPDEST JUMPDEST POP POP POP JUMP JUMPDEST PUSH2 0xEC5 PUSH2 0x1405 JUMP JUMPDEST PUSH2 0xED6 DUP4 DUP5 PUSH0 ADD MLOAD MLOAD DUP5 DUP6 MLOAD PUSH2 0x116E JUMP JUMPDEST SWAP1 POP SWAP3 SWAP2 POP POP JUMP JUMPDEST PUSH2 0xEFC PUSH1 0x3 PUSH1 0x5 PUSH1 0x6 PUSH1 0xFF AND SWAP1 SHL OR DUP4 PUSH2 0x112E SWAP1 SWAP2 SWAP1 PUSH4 0xFFFFFFFF AND JUMP JUMPDEST POP PUSH2 0xF51 DUP3 DUP3 PUSH32 0xFFFFFFFFFFFFFFFFFFFFFFFFFFFFFFFFFFFFFFFFFFFFFFFFFFFFFFFFFFFFFFFF PUSH2 0xF2D SWAP2 SWAP1 PUSH2 0x1A7C JUMP JUMPDEST PUSH1 0x40 MLOAD PUSH1 0x20 ADD PUSH2 0xF3D SWAP2 SWAP1 PUSH2 0x1580 JUMP JUMPDEST PUSH1 0x40 MLOAD PUSH1 0x20 DUP2 DUP4 SUB SUB DUP2 MSTORE SWAP1 PUSH1 0x40 MSTORE PUSH2 0x125A JUMP JUMPDEST POP POP JUMP JUMPDEST PUSH2 0xF73 PUSH1 0x2 PUSH1 0x5 PUSH1 0x6 PUSH1 0xFF AND SWAP1 SHL OR DUP4 PUSH2 0x112E SWAP1 SWAP2 SWAP1 PUSH4 0xFFFFFFFF AND JUMP JUMPDEST POP PUSH2 0xF9D DUP3 DUP3 PUSH1 0x40 MLOAD PUSH1 0x20 ADD PUSH2 0xF89 SWAP2 SWAP1 PUSH2 0x1580 JUMP JUMPDEST PUSH1 0x40 MLOAD PUSH1 0x20 DUP2 DUP4 SUB SUB DUP2 MSTORE SWAP1 PUSH1 0x40 MSTORE PUSH2 0x125A JUMP JUMPDEST POP POP JUMP JUMPDEST PUSH0 ADDRESS DUP5 PUSH1 0x40 MLOAD PUSH1 0x20 ADD PUSH2 0xFB5 SWAP3 SWAP2 SWAP1 PUSH2 0x1D5D JUMP JUMPDEST PUSH1 0x40 MLOAD PUSH1 0x20 DUP2 DUP4 SUB SUB DUP2 MSTORE SWAP1 PUSH1 0x40 MSTORE DUP1 MLOAD SWAP1 PUSH1 0x20 ADD KECCAK256 SWAP1 POP DUP5 PUSH1 0x5 PUSH0 DUP4 DUP2 MSTORE PUSH1 0x20 ADD SWAP1 DUP2 MSTORE PUSH1 0x20 ADD PUSH0 KECCAK256 PUSH0 PUSH2 0x100 EXP DUP2 SLOAD DUP2 PUSH20 0xFFFFFFFFFFFFFFFFFFFFFFFFFFFFFFFFFFFFFFFF MUL NOT AND SWAP1 DUP4 PUSH20 0xFFFFFFFFFFFFFFFFFFFFFFFFFFFFFFFFFFFFFFFF AND MUL OR SWAP1 SSTORE POP DUP1 PUSH32 0xB5E6E01E79F91267DC17B4E6314D5D4D03593D2CEEE0FBB452B750BD70EA5AF9 PUSH1 0x40 MLOAD PUSH1 0x40 MLOAD DUP1 SWAP2 SUB SWAP1 LOG2 PUSH1 0x2 PUSH0 SWAP1 SLOAD SWAP1 PUSH2 0x100 EXP SWAP1 DIV PUSH20 0xFFFFFFFFFFFFFFFFFFFFFFFFFFFFFFFFFFFFFFFF AND PUSH20 0xFFFFFFFFFFFFFFFFFFFFFFFFFFFFFFFFFFFFFFFF AND PUSH4 0x4000AEA0 DUP7 DUP6 DUP6 PUSH1 0x40 MLOAD DUP5 PUSH4 0xFFFFFFFF AND PUSH1 0xE0 SHL DUP2 MSTORE PUSH1 0x4 ADD PUSH2 0x10A7 SWAP4 SWAP3 SWAP2 SWAP1 PUSH2 0x1D88 JUMP JUMPDEST PUSH1 0x20 PUSH1 0x40 MLOAD DUP1 DUP4 SUB DUP2 PUSH0 DUP8 GAS CALL ISZERO DUP1 ISZERO PUSH2 0x10C3 JUMPI RETURNDATASIZE PUSH0 PUSH0 RETURNDATACOPY RETURNDATASIZE PUSH0 REVERT JUMPDEST POP POP POP POP PUSH1 0x40 MLOAD RETURNDATASIZE PUSH1 0x1F NOT PUSH1 0x1F DUP3 ADD AND DUP3 ADD DUP1 PUSH1 0x40 MSTORE POP DUP2 ADD SWAP1 PUSH2 0x10E7 SWAP2 SWAP1 PUSH2 0x18E3 JUMP JUMPDEST PUSH2 0x1126 JUMPI PUSH1 0x40 MLOAD PUSH32 0x8C379A000000000000000000000000000000000000000000000000000000000 DUP2 MSTORE PUSH1 0x4 ADD PUSH2 0x111D SWAP1 PUSH2 0x1E34 JUMP JUMPDEST PUSH1 0x40 MLOAD DUP1 SWAP2 SUB SWAP1 REVERT JUMPDEST SWAP5 SWAP4 POP POP POP POP JUMP JUMPDEST PUSH2 0x1136 PUSH2 0x1405 JUMP JUMPDEST PUSH2 0x1145 DUP4 DUP5 PUSH0 ADD MLOAD MLOAD DUP5 PUSH2 0x127F JUMP JUMPDEST SWAP1 POP SWAP3 SWAP2 POP POP JUMP JUMPDEST PUSH2 0x1155 PUSH2 0x1405 JUMP JUMPDEST PUSH2 0x1165 DUP5 DUP6 PUSH0 ADD MLOAD MLOAD DUP6 DUP6 PUSH2 0x12D5 JUMP JUMPDEST SWAP1 POP SWAP4 SWAP3 POP POP POP JUMP JUMPDEST PUSH2 0x1176 PUSH2 0x1405 JUMP JUMPDEST DUP3 MLOAD DUP3 GT ISZERO PUSH2 0x1183 JUMPI PUSH0 PUSH0 REVERT JUMPDEST DUP5 PUSH1 0x20 ADD MLOAD DUP3 DUP6 PUSH2 0x1194 SWAP2 SWAP1 PUSH2 0x1ABC JUMP JUMPDEST GT ISZERO PUSH2 0x11C9 JUMPI PUSH2 0x11C8 DUP6 PUSH1 0x2 PUSH2 0x11B9 DUP9 PUSH1 0x20 ADD MLOAD DUP9 DUP8 PUSH2 0x11B4 SWAP2 SWAP1 PUSH2 0x1ABC JUMP JUMPDEST PUSH2 0x1362 JUMP JUMPDEST PUSH2 0x11C3 SWAP2 SWAP1 PUSH2 0x1E52 JUMP JUMPDEST PUSH2 0x137D JUMP JUMPDEST JUMPDEST PUSH0 PUSH0 DUP7 MLOAD DUP1 MLOAD DUP8 PUSH1 0x20 DUP4 ADD ADD SWAP4 POP DUP1 DUP9 DUP8 ADD GT ISZERO PUSH2 0x11E7 JUMPI DUP8 DUP7 ADD DUP3 MSTORE JUMPDEST PUSH1 0x20 DUP8 ADD SWAP3 POP POP POP JUMPDEST PUSH1 0x20 DUP5 LT PUSH2 0x122E JUMPI DUP1 MLOAD DUP3 MSTORE PUSH1 0x20 DUP3 PUSH2 0x1209 SWAP2 SWAP1 PUSH2 0x1ABC JUMP JUMPDEST SWAP2 POP PUSH1 0x20 DUP2 PUSH2 0x1218 SWAP2 SWAP1 PUSH2 0x1ABC JUMP JUMPDEST SWAP1 POP PUSH1 0x20 DUP5 PUSH2 0x1227 SWAP2 SWAP1 PUSH2 0x1C79 JUMP JUMPDEST SWAP4 POP PUSH2 0x11F0 JUMP JUMPDEST PUSH0 PUSH1 0x1 DUP6 PUSH1 0x20 SUB PUSH2 0x100 EXP SUB SWAP1 POP DUP1 NOT DUP3 MLOAD AND DUP2 DUP5 MLOAD AND DUP2 DUP2 OR DUP6 MSTORE POP POP POP DUP7 SWAP3 POP POP POP SWAP5 SWAP4 POP POP POP POP JUMP JUMPDEST PUSH2 0x1267 DUP3 PUSH1 0x2 DUP4 MLOAD PUSH2 0xD38 JUMP JUMPDEST PUSH2 0x127A DUP2 DUP4 PUSH2 0xEBD SWAP1 SWAP2 SWAP1 PUSH4 0xFFFFFFFF AND JUMP JUMPDEST POP POP POP JUMP JUMPDEST PUSH2 0x1287 PUSH2 0x1405 JUMP JUMPDEST DUP4 PUSH1 0x20 ADD MLOAD DUP4 LT PUSH2 0x12AD JUMPI PUSH2 0x12AC DUP5 PUSH1 0x2 DUP7 PUSH1 0x20 ADD MLOAD PUSH2 0x12A7 SWAP2 SWAP1 PUSH2 0x1E52 JUMP JUMPDEST PUSH2 0x137D JUMP JUMPDEST JUMPDEST DUP4 MLOAD DUP1 MLOAD PUSH1 0x20 DUP6 DUP4 ADD ADD DUP5 DUP2 MSTORE8 DUP2 DUP7 SUB PUSH2 0x12C8 JUMPI PUSH1 0x1 DUP3 ADD DUP4 MSTORE JUMPDEST POP POP POP DUP4 SWAP1 POP SWAP4 SWAP3 POP POP POP JUMP JUMPDEST PUSH2 0x12DD PUSH2 0x1405 JUMP JUMPDEST DUP5 PUSH1 0x20 ADD MLOAD DUP5 DUP4 PUSH2 0x12EE SWAP2 SWAP1 PUSH2 0x1ABC JUMP JUMPDEST GT ISZERO PUSH2 0x1316 JUMPI PUSH2 0x1315 DUP6 PUSH1 0x2 DUP7 DUP6 PUSH2 0x1306 SWAP2 SWAP1 PUSH2 0x1ABC JUMP JUMPDEST PUSH2 0x1310 SWAP2 SWAP1 PUSH2 0x1E52 JUMP JUMPDEST PUSH2 0x137D JUMP JUMPDEST JUMPDEST PUSH0 PUSH1 0x1 DUP4 PUSH2 0x100 PUSH2 0x1327 SWAP2 SWAP1 PUSH2 0x1FC2 JUMP JUMPDEST PUSH2 0x1331 SWAP2 SWAP1 PUSH2 0x1C79 JUMP JUMPDEST SWAP1 POP DUP6 MLOAD DUP4 DUP7 DUP3 ADD ADD DUP6 DUP4 NOT DUP3 MLOAD AND OR DUP2 MSTORE DUP2 MLOAD DUP6 DUP9 ADD GT ISZERO PUSH2 0x1354 JUMPI DUP5 DUP8 ADD DUP3 MSTORE JUMPDEST POP POP DUP6 SWAP2 POP POP SWAP5 SWAP4 POP POP POP POP JUMP JUMPDEST PUSH0 DUP2 DUP4 GT ISZERO PUSH2 0x1373 JUMPI DUP3 SWAP1 POP PUSH2 0x1377 JUMP JUMPDEST DUP2 SWAP1 POP JUMPDEST SWAP3 SWAP2 POP POP JUMP JUMPDEST PUSH0 DUP3 PUSH0 ADD MLOAD SWAP1 POP PUSH2 0x138E DUP4 DUP4 PUSH2 0xCD0 JUMP JUMPDEST POP PUSH2 0x1399 DUP4 DUP3 PUSH2 0xEBD JUMP JUMPDEST POP POP POP POP JUMP JUMPDEST PUSH1 0x40 MLOAD DUP1 PUSH1 0xA0 ADD PUSH1 0x40 MSTORE DUP1 PUSH0 DUP2 MSTORE PUSH1 0x20 ADD PUSH0 PUSH20 0xFFFFFFFFFFFFFFFFFFFFFFFFFFFFFFFFFFFFFFFF AND DUP2 MSTORE PUSH1 0x20 ADD PUSH0 PUSH28 0xFFFFFFFFFFFFFFFFFFFFFFFFFFFFFFFFFFFFFFFFFFFFFFFFFFFFFFFF NOT AND DUP2 MSTORE PUSH1 0x20 ADD PUSH0 DUP2 MSTORE PUSH1 0x20 ADD PUSH2 0x13FF PUSH2 0x1405 JUMP JUMPDEST DUP2 MSTORE POP SWAP1 JUMP JUMPDEST PUSH1 0x40 MLOAD DUP1 PUSH1 0x40 ADD PUSH1 0x40 MSTORE DUP1 PUSH1 0x60 DUP2 MSTORE PUSH1 0x20 ADD PUSH0 DUP2 MSTORE POP SWAP1 JUMP JUMPDEST PUSH0 PUSH0 REVERT JUMPDEST PUSH0 DUP2 SWAP1 POP SWAP2 SWAP1 POP JUMP JUMPDEST PUSH2 0x1434 DUP2 PUSH2 0x1422 JUMP JUMPDEST DUP2 EQ PUSH2 0x143E JUMPI PUSH0 PUSH0 REVERT JUMPDEST POP JUMP JUMPDEST PUSH0 DUP2 CALLDATALOAD SWAP1 POP PUSH2 0x144F DUP2 PUSH2 0x142B JUMP JUMPDEST SWAP3 SWAP2 POP POP JUMP JUMPDEST PUSH0 PUSH1 0x20 DUP3 DUP5 SUB SLT ISZERO PUSH2 0x146A JUMPI PUSH2 0x1469 PUSH2 0x141E JUMP JUMPDEST JUMPDEST PUSH0 PUSH2 0x1477 DUP5 DUP3 DUP6 ADD PUSH2 0x1441 JUMP JUMPDEST SWAP2 POP POP SWAP3 SWAP2 POP POP JUMP JUMPDEST PUSH0 DUP2 SWAP1 POP SWAP2 SWAP1 POP JUMP JUMPDEST PUSH2 0x1492 DUP2 PUSH2 0x1480 JUMP JUMPDEST DUP3 MSTORE POP POP JUMP JUMPDEST PUSH0 PUSH1 0x20 DUP3 ADD SWAP1 POP PUSH2 0x14AB PUSH0 DUP4 ADD DUP5 PUSH2 0x1489 JUMP JUMPDEST SWAP3 SWAP2 POP POP JUMP JUMPDEST PUSH2 0x14BA DUP2 PUSH2 0x1480 JUMP JUMPDEST DUP2 EQ PUSH2 0x14C4 JUMPI PUSH0 PUSH0 REVERT JUMPDEST POP JUMP JUMPDEST PUSH0 DUP2 CALLDATALOAD SWAP1 POP PUSH2 0x14D5 DUP2 PUSH2 0x14B1 JUMP JUMPDEST SWAP3 SWAP2 POP POP JUMP JUMPDEST PUSH0 PUSH0 PUSH1 0x40 DUP4 DUP6 SUB SLT ISZERO PUSH2 0x14F1 JUMPI PUSH2 0x14F0 PUSH2 0x141E JUMP JUMPDEST JUMPDEST PUSH0 PUSH2 0x14FE DUP6 DUP3 DUP7 ADD PUSH2 0x14C7 JUMP JUMPDEST SWAP3 POP POP PUSH1 0x20 PUSH2 0x150F DUP6 DUP3 DUP7 ADD PUSH2 0x1441 JUMP JUMPDEST SWAP2 POP POP SWAP3 POP SWAP3 SWAP1 POP JUMP JUMPDEST PUSH0 PUSH20 0xFFFFFFFFFFFFFFFFFFFFFFFFFFFFFFFFFFFFFFFF DUP3 AND SWAP1 POP SWAP2 SWAP1 POP JUMP JUMPDEST PUSH0 PUSH2 0x1542 DUP3 PUSH2 0x1519 JUMP JUMPDEST SWAP1 POP SWAP2 SWAP1 POP JUMP JUMPDEST PUSH2 0x1552 DUP2 PUSH2 0x1538 JUMP JUMPDEST DUP3 MSTORE POP POP JUMP JUMPDEST PUSH0 PUSH1 0x20 DUP3 ADD SWAP1 POP PUSH2 0x156B PUSH0 DUP4 ADD DUP5 PUSH2 0x1549 JUMP JUMPDEST SWAP3 SWAP2 POP POP JUMP JUMPDEST PUSH2 0x157A DUP2 PUSH2 0x1422 JUMP JUMPDEST DUP3 MSTORE POP POP JUMP JUMPDEST PUSH0 PUSH1 0x20 DUP3 ADD SWAP1 POP PUSH2 0x1593 PUSH0 DUP4 ADD DUP5 PUSH2 0x1571 JUMP JUMPDEST SWAP3 SWAP2 POP POP JUMP JUMPDEST PUSH2 0x15A2 DUP2 PUSH2 0x1538 JUMP JUMPDEST DUP2 EQ PUSH2 0x15AC JUMPI PUSH0 PUSH0 REVERT JUMPDEST POP JUMP JUMPDEST PUSH0 DUP2 CALLDATALOAD SWAP1 POP PUSH2 0x15BD DUP2 PUSH2 0x1599 JUMP JUMPDEST SWAP3 SWAP2 POP POP JUMP JUMPDEST PUSH0 PUSH1 0x20 DUP3 DUP5 SUB SLT ISZERO PUSH2 0x15D8 JUMPI PUSH2 0x15D7 PUSH2 0x141E JUMP JUMPDEST JUMPDEST PUSH0 PUSH2 0x15E5 DUP5 DUP3 DUP6 ADD PUSH2 0x15AF JUMP JUMPDEST SWAP2 POP POP SWAP3 SWAP2 POP POP JUMP JUMPDEST PUSH0 DUP3 DUP3 MSTORE PUSH1 0x20 DUP3 ADD SWAP1 POP SWAP3 SWAP2 POP POP JUMP JUMPDEST PUSH32 0x4D61646520746865206765742072657175657374000000000000000000000000 PUSH0 DUP3 ADD MSTORE POP JUMP JUMPDEST PUSH0 PUSH2 0x1632 PUSH1 0x14 DUP4 PUSH2 0x15EE JUMP JUMPDEST SWAP2 POP PUSH2 0x163D DUP3 PUSH2 0x15FE JUMP JUMPDEST PUSH1 0x20 DUP3 ADD SWAP1 POP SWAP2 SWAP1 POP JUMP JUMPDEST PUSH0 PUSH1 0x20 DUP3 ADD SWAP1 POP DUP2 DUP2 SUB PUSH0 DUP4 ADD MSTORE PUSH2 0x165F DUP2 PUSH2 0x1626 JUMP JUMPDEST SWAP1 POP SWAP2 SWAP1 POP JUMP JUMPDEST PUSH32 0x766F6C3100000000000000000000000000000000000000000000000000000000 PUSH0 DUP3 ADD MSTORE POP JUMP JUMPDEST PUSH0 PUSH2 0x169A PUSH1 0x4 DUP4 PUSH2 0x15EE JUMP JUMPDEST SWAP2 POP PUSH2 0x16A5 DUP3 PUSH2 0x1666 JUMP JUMPDEST PUSH1 0x20 DUP3 ADD SWAP1 POP SWAP2 SWAP1 POP JUMP JUMPDEST PUSH0 PUSH1 0x40 DUP3 ADD SWAP1 POP DUP2 DUP2 SUB PUSH0 DUP4 ADD MSTORE PUSH2 0x16C7 DUP2 PUSH2 0x168E JUMP JUMPDEST SWAP1 POP PUSH2 0x16D6 PUSH1 0x20 DUP4 ADD DUP5 PUSH2 0x1571 JUMP JUMPDEST SWAP3 SWAP2 POP POP JUMP JUMPDEST PUSH32 0x766F6C3200000000000000000000000000000000000000000000000000000000 PUSH0 DUP3 ADD MSTORE POP JUMP JUMPDEST PUSH0 PUSH2 0x1710 PUSH1 0x4 DUP4 PUSH2 0x15EE JUMP JUMPDEST SWAP2 POP PUSH2 0x171B DUP3 PUSH2 0x16DC JUMP JUMPDEST PUSH1 0x20 DUP3 ADD SWAP1 POP SWAP2 SWAP1 POP JUMP JUMPDEST PUSH0 PUSH1 0x40 DUP3 ADD SWAP1 POP DUP2 DUP2 SUB PUSH0 DUP4 ADD MSTORE PUSH2 0x173D DUP2 PUSH2 0x1704 JUMP JUMPDEST SWAP1 POP PUSH2 0x174C PUSH1 0x20 DUP4 ADD DUP5 PUSH2 0x1571 JUMP JUMPDEST SWAP3 SWAP2 POP POP JUMP JUMPDEST PUSH32 0x536F75726365206D75737420626520746865206F7261636C65206F6620746865 PUSH0 DUP3 ADD MSTORE PUSH32 0x2072657175657374000000000000000000000000000000000000000000000000 PUSH1 0x20 DUP3 ADD MSTORE POP JUMP JUMPDEST PUSH0 PUSH2 0x17AC PUSH1 0x28 DUP4 PUSH2 0x15EE JUMP JUMPDEST SWAP2 POP PUSH2 0x17B7 DUP3 PUSH2 0x1752 JUMP JUMPDEST PUSH1 0x40 DUP3 ADD SWAP1 POP SWAP2 SWAP1 POP JUMP JUMPDEST PUSH0 PUSH1 0x20 DUP3 ADD SWAP1 POP DUP2 DUP2 SUB PUSH0 DUP4 ADD MSTORE PUSH2 0x17D9 DUP2 PUSH2 0x17A0 JUMP JUMPDEST SWAP1 POP SWAP2 SWAP1 POP JUMP JUMPDEST PUSH32 0x4D7573742062652070726F706F736564206F776E657200000000000000000000 PUSH0 DUP3 ADD MSTORE POP JUMP JUMPDEST PUSH0 PUSH2 0x1814 PUSH1 0x16 DUP4 PUSH2 0x15EE JUMP JUMPDEST SWAP2 POP PUSH2 0x181F DUP3 PUSH2 0x17E0 JUMP JUMPDEST PUSH1 0x20 DUP3 ADD SWAP1 POP SWAP2 SWAP1 POP JUMP JUMPDEST PUSH0 PUSH1 0x20 DUP3 ADD SWAP1 POP DUP2 DUP2 SUB PUSH0 DUP4 ADD MSTORE PUSH2 0x1841 DUP2 PUSH2 0x1808 JUMP JUMPDEST SWAP1 POP SWAP2 SWAP1 POP JUMP JUMPDEST PUSH0 DUP2 MLOAD SWAP1 POP PUSH2 0x1856 DUP2 PUSH2 0x142B JUMP JUMPDEST SWAP3 SWAP2 POP POP JUMP JUMPDEST PUSH0 PUSH1 0x20 DUP3 DUP5 SUB SLT ISZERO PUSH2 0x1871 JUMPI PUSH2 0x1870 PUSH2 0x141E JUMP JUMPDEST JUMPDEST PUSH0 PUSH2 0x187E DUP5 DUP3 DUP6 ADD PUSH2 0x1848 JUMP JUMPDEST SWAP2 POP POP SWAP3 SWAP2 POP POP JUMP JUMPDEST PUSH0 PUSH1 0x40 DUP3 ADD SWAP1 POP PUSH2 0x189A PUSH0 DUP4 ADD DUP6 PUSH2 0x1549 JUMP JUMPDEST PUSH2 0x18A7 PUSH1 0x20 DUP4 ADD DUP5 PUSH2 0x1571 JUMP JUMPDEST SWAP4 SWAP3 POP POP POP JUMP JUMPDEST PUSH0 DUP2 ISZERO ISZERO SWAP1 POP SWAP2 SWAP1 POP JUMP JUMPDEST PUSH2 0x18C2 DUP2 PUSH2 0x18AE JUMP JUMPDEST DUP2 EQ PUSH2 0x18CC JUMPI PUSH0 PUSH0 REVERT JUMPDEST POP JUMP JUMPDEST PUSH0 DUP2 MLOAD SWAP1 POP PUSH2 0x18DD DUP2 PUSH2 0x18B9 JUMP JUMPDEST SWAP3 SWAP2 POP POP JUMP JUMPDEST PUSH0 PUSH1 0x20 DUP3 DUP5 SUB SLT ISZERO PUSH2 0x18F8 JUMPI PUSH2 0x18F7 PUSH2 0x141E JUMP JUMPDEST JUMPDEST PUSH0 PUSH2 0x1905 DUP5 DUP3 DUP6 ADD PUSH2 0x18CF JUMP JUMPDEST SWAP2 POP POP SWAP3 SWAP2 POP POP JUMP JUMPDEST PUSH32 0x556E61626C6520746F207472616E736665720000000000000000000000000000 PUSH0 DUP3 ADD MSTORE POP JUMP JUMPDEST PUSH0 PUSH2 0x1942 PUSH1 0x12 DUP4 PUSH2 0x15EE JUMP JUMPDEST SWAP2 POP PUSH2 0x194D DUP3 PUSH2 0x190E JUMP JUMPDEST PUSH1 0x20 DUP3 ADD SWAP1 POP SWAP2 SWAP1 POP JUMP JUMPDEST PUSH0 PUSH1 0x20 DUP3 ADD SWAP1 POP DUP2 DUP2 SUB PUSH0 DUP4 ADD MSTORE PUSH2 0x196F DUP2 PUSH2 0x1936 JUMP JUMPDEST SWAP1 POP SWAP2 SWAP1 POP JUMP JUMPDEST PUSH32 0x4F6E6C792063616C6C61626C65206279206F776E657200000000000000000000 PUSH0 DUP3 ADD MSTORE POP JUMP JUMPDEST PUSH0 PUSH2 0x19AA PUSH1 0x16 DUP4 PUSH2 0x15EE JUMP JUMPDEST SWAP2 POP PUSH2 0x19B5 DUP3 PUSH2 0x1976 JUMP JUMPDEST PUSH1 0x20 DUP3 ADD SWAP1 POP SWAP2 SWAP1 POP JUMP JUMPDEST PUSH0 PUSH1 0x20 DUP3 ADD SWAP1 POP DUP2 DUP2 SUB PUSH0 DUP4 ADD MSTORE PUSH2 0x19D7 DUP2 PUSH2 0x199E JUMP JUMPDEST SWAP1 POP SWAP2 SWAP1 POP JUMP JUMPDEST PUSH32 0x43616E6E6F74207472616E7366657220746F2073656C66000000000000000000 PUSH0 DUP3 ADD MSTORE POP JUMP JUMPDEST PUSH0 PUSH2 0x1A12 PUSH1 0x17 DUP4 PUSH2 0x15EE JUMP JUMPDEST SWAP2 POP PUSH2 0x1A1D DUP3 PUSH2 0x19DE JUMP JUMPDEST PUSH1 0x20 DUP3 ADD SWAP1 POP SWAP2 SWAP1 POP JUMP JUMPDEST PUSH0 PUSH1 0x20 DUP3 ADD SWAP1 POP DUP2 DUP2 SUB PUSH0 DUP4 ADD MSTORE PUSH2 0x1A3F DUP2 PUSH2 0x1A06 JUMP JUMPDEST SWAP1 POP SWAP2 SWAP1 POP JUMP JUMPDEST PUSH0 DUP2 SWAP1 POP SWAP2 SWAP1 POP JUMP JUMPDEST PUSH32 0x4E487B7100000000000000000000000000000000000000000000000000000000 PUSH0 MSTORE PUSH1 0x11 PUSH1 0x4 MSTORE PUSH1 0x24 PUSH0 REVERT JUMPDEST PUSH0 PUSH2 0x1A86 DUP3 PUSH2 0x1A46 JUMP JUMPDEST SWAP2 POP PUSH2 0x1A91 DUP4 PUSH2 0x1A46 JUMP JUMPDEST SWAP3 POP DUP3 DUP3 SUB SWAP1 POP DUP2 DUP2 SLT PUSH0 DUP5 SLT AND DUP3 DUP3 SGT PUSH0 DUP6 SLT ISZERO AND OR ISZERO PUSH2 0x1AB6 JUMPI PUSH2 0x1AB5 PUSH2 0x1A4F JUMP JUMPDEST JUMPDEST SWAP3 SWAP2 POP POP JUMP JUMPDEST PUSH0 PUSH2 0x1AC6 DUP3 PUSH2 0x1422 JUMP JUMPDEST SWAP2 POP PUSH2 0x1AD1 DUP4 PUSH2 0x1422 JUMP JUMPDEST SWAP3 POP DUP3 DUP3 ADD SWAP1 POP DUP1 DUP3 GT ISZERO PUSH2 0x1AE9 JUMPI PUSH2 0x1AE8 PUSH2 0x1A4F JUMP JUMPDEST JUMPDEST SWAP3 SWAP2 POP POP JUMP JUMPDEST PUSH0 PUSH32 0xFFFFFFFF00000000000000000000000000000000000000000000000000000000 DUP3 AND SWAP1 POP SWAP2 SWAP1 POP JUMP JUMPDEST PUSH2 0x1B23 DUP2 PUSH2 0x1AEF JUMP JUMPDEST DUP3 MSTORE POP POP JUMP JUMPDEST PUSH0 DUP2 MLOAD SWAP1 POP SWAP2 SWAP1 POP JUMP JUMPDEST PUSH0 DUP3 DUP3 MSTORE PUSH1 0x20 DUP3 ADD SWAP1 POP SWAP3 SWAP2 POP POP JUMP JUMPDEST DUP3 DUP2 DUP4 MCOPY PUSH0 DUP4 DUP4 ADD MSTORE POP POP POP JUMP JUMPDEST PUSH0 PUSH1 0x1F NOT PUSH1 0x1F DUP4 ADD AND SWAP1 POP SWAP2 SWAP1 POP JUMP JUMPDEST PUSH0 PUSH2 0x1B6B DUP3 PUSH2 0x1B29 JUMP JUMPDEST PUSH2 0x1B75 DUP2 DUP6 PUSH2 0x1B33 JUMP JUMPDEST SWAP4 POP PUSH2 0x1B85 DUP2 DUP6 PUSH1 0x20 DUP7 ADD PUSH2 0x1B43 JUMP JUMPDEST PUSH2 0x1B8E DUP2 PUSH2 0x1B51 JUMP JUMPDEST DUP5 ADD SWAP2 POP POP SWAP3 SWAP2 POP POP JUMP JUMPDEST PUSH0 PUSH2 0x100 DUP3 ADD SWAP1 POP PUSH2 0x1BAD PUSH0 DUP4 ADD DUP12 PUSH2 0x1549 JUMP JUMPDEST PUSH2 0x1BBA PUSH1 0x20 DUP4 ADD DUP11 PUSH2 0x1571 JUMP JUMPDEST PUSH2 0x1BC7 PUSH1 0x40 DUP4 ADD DUP10 PUSH2 0x1489 JUMP JUMPDEST PUSH2 0x1BD4 PUSH1 0x60 DUP4 ADD DUP9 PUSH2 0x1549 JUMP JUMPDEST PUSH2 0x1BE1 PUSH1 0x80 DUP4 ADD DUP8 PUSH2 0x1B1A JUMP JUMPDEST PUSH2 0x1BEE PUSH1 0xA0 DUP4 ADD DUP7 PUSH2 0x1571 JUMP JUMPDEST PUSH2 0x1BFB PUSH1 0xC0 DUP4 ADD DUP6 PUSH2 0x1571 JUMP JUMPDEST DUP2 DUP2 SUB PUSH1 0xE0 DUP4 ADD MSTORE PUSH2 0x1C0D DUP2 DUP5 PUSH2 0x1B61 JUMP JUMPDEST SWAP1 POP SWAP10 SWAP9 POP POP POP POP POP POP POP POP POP JUMP JUMPDEST PUSH32 0x4E487B7100000000000000000000000000000000000000000000000000000000 PUSH0 MSTORE PUSH1 0x12 PUSH1 0x4 MSTORE PUSH1 0x24 PUSH0 REVERT JUMPDEST PUSH0 PUSH2 0x1C53 DUP3 PUSH2 0x1422 JUMP JUMPDEST SWAP2 POP PUSH2 0x1C5E DUP4 PUSH2 0x1422 JUMP JUMPDEST SWAP3 POP DUP3 PUSH2 0x1C6E JUMPI PUSH2 0x1C6D PUSH2 0x1C1C JUMP JUMPDEST JUMPDEST DUP3 DUP3 MOD SWAP1 POP SWAP3 SWAP2 POP POP JUMP JUMPDEST PUSH0 PUSH2 0x1C83 DUP3 PUSH2 0x1422 JUMP JUMPDEST SWAP2 POP PUSH2 0x1C8E DUP4 PUSH2 0x1422 JUMP JUMPDEST SWAP3 POP DUP3 DUP3 SUB SWAP1 POP DUP2 DUP2 GT ISZERO PUSH2 0x1CA6 JUMPI PUSH2 0x1CA5 PUSH2 0x1A4F JUMP JUMPDEST JUMPDEST SWAP3 SWAP2 POP POP JUMP JUMPDEST PUSH0 DUP2 SWAP1 POP SWAP2 SWAP1 POP JUMP JUMPDEST PUSH0 PUSH2 0x1CCF PUSH2 0x1CCA PUSH2 0x1CC5 DUP5 PUSH2 0x1519 JUMP JUMPDEST PUSH2 0x1CAC JUMP JUMPDEST PUSH2 0x1519 JUMP JUMPDEST SWAP1 POP SWAP2 SWAP1 POP JUMP JUMPDEST PUSH0 PUSH2 0x1CE0 DUP3 PUSH2 0x1CB5 JUMP JUMPDEST SWAP1 POP SWAP2 SWAP1 POP JUMP JUMPDEST PUSH0 PUSH2 0x1CF1 DUP3 PUSH2 0x1CD6 JUMP JUMPDEST SWAP1 POP SWAP2 SWAP1 POP JUMP JUMPDEST PUSH0 DUP2 PUSH1 0x60 SHL SWAP1 POP SWAP2 SWAP1 POP JUMP JUMPDEST PUSH0 PUSH2 0x1D0E DUP3 PUSH2 0x1CF8 JUMP JUMPDEST SWAP1 POP SWAP2 SWAP1 POP JUMP JUMPDEST PUSH0 PUSH2 0x1D1F DUP3 PUSH2 0x1D04 JUMP JUMPDEST SWAP1 POP SWAP2 SWAP1 POP JUMP JUMPDEST PUSH2 0x1D37 PUSH2 0x1D32 DUP3 PUSH2 0x1CE7 JUMP JUMPDEST PUSH2 0x1D15 JUMP JUMPDEST DUP3 MSTORE POP POP JUMP JUMPDEST PUSH0 DUP2 SWAP1 POP SWAP2 SWAP1 POP JUMP JUMPDEST PUSH2 0x1D57 PUSH2 0x1D52 DUP3 PUSH2 0x1422 JUMP JUMPDEST PUSH2 0x1D3D JUMP JUMPDEST DUP3 MSTORE POP POP JUMP JUMPDEST PUSH0 PUSH2 0x1D68 DUP3 DUP6 PUSH2 0x1D26 JUMP JUMPDEST PUSH1 0x14 DUP3 ADD SWAP2 POP PUSH2 0x1D78 DUP3 DUP5 PUSH2 0x1D46 JUMP JUMPDEST PUSH1 0x20 DUP3 ADD SWAP2 POP DUP2 SWAP1 POP SWAP4 SWAP3 POP POP POP JUMP JUMPDEST PUSH0 PUSH1 0x60 DUP3 ADD SWAP1 POP PUSH2 0x1D9B PUSH0 DUP4 ADD DUP7 PUSH2 0x1549 JUMP JUMPDEST PUSH2 0x1DA8 PUSH1 0x20 DUP4 ADD DUP6 PUSH2 0x1571 JUMP JUMPDEST DUP2 DUP2 SUB PUSH1 0x40 DUP4 ADD MSTORE PUSH2 0x1DBA DUP2 DUP5 PUSH2 0x1B61 JUMP JUMPDEST SWAP1 POP SWAP5 SWAP4 POP POP POP POP JUMP JUMPDEST PUSH32 0x756E61626C6520746F207472616E73666572416E6443616C6C20746F206F7261 PUSH0 DUP3 ADD MSTORE PUSH32 0x636C650000000000000000000000000000000000000000000000000000000000 PUSH1 0x20 DUP3 ADD MSTORE POP JUMP JUMPDEST PUSH0 PUSH2 0x1E1E PUSH1 0x23 DUP4 PUSH2 0x15EE JUMP JUMPDEST SWAP2 POP PUSH2 0x1E29 DUP3 PUSH2 0x1DC4 JUMP JUMPDEST PUSH1 0x40 DUP3 ADD SWAP1 POP SWAP2 SWAP1 POP JUMP JUMPDEST PUSH0 PUSH1 0x20 DUP3 ADD SWAP1 POP DUP2 DUP2 SUB PUSH0 DUP4 ADD MSTORE PUSH2 0x1E4B DUP2 PUSH2 0x1E12 JUMP JUMPDEST SWAP1 POP SWAP2 SWAP1 POP JUMP JUMPDEST PUSH0 PUSH2 0x1E5C DUP3 PUSH2 0x1422 JUMP JUMPDEST SWAP2 POP PUSH2 0x1E67 DUP4 PUSH2 0x1422 JUMP JUMPDEST SWAP3 POP DUP3 DUP3 MUL PUSH2 0x1E75 DUP2 PUSH2 0x1422 JUMP JUMPDEST SWAP2 POP DUP3 DUP3 DIV DUP5 EQ DUP4 ISZERO OR PUSH2 0x1E8C JUMPI PUSH2 0x1E8B PUSH2 0x1A4F JUMP JUMPDEST JUMPDEST POP SWAP3 SWAP2 POP POP JUMP JUMPDEST PUSH0 DUP2 PUSH1 0x1 SHR SWAP1 POP SWAP2 SWAP1 POP JUMP JUMPDEST PUSH0 PUSH0 DUP3 SWAP2 POP DUP4 SWAP1 POP JUMPDEST PUSH1 0x1 DUP6 GT ISZERO PUSH2 0x1EE8 JUMPI DUP1 DUP7 DIV DUP2 GT ISZERO PUSH2 0x1EC4 JUMPI PUSH2 0x1EC3 PUSH2 0x1A4F JUMP JUMPDEST JUMPDEST PUSH1 0x1 DUP6 AND ISZERO PUSH2 0x1ED3 JUMPI DUP1 DUP3 MUL SWAP2 POP JUMPDEST DUP1 DUP2 MUL SWAP1 POP PUSH2 0x1EE1 DUP6 PUSH2 0x1E93 JUMP JUMPDEST SWAP5 POP PUSH2 0x1EA8 JUMP JUMPDEST SWAP5 POP SWAP5 SWAP3 POP POP POP JUMP JUMPDEST PUSH0 DUP3 PUSH2 0x1F00 JUMPI PUSH1 0x1 SWAP1 POP PUSH2 0x1FBB JUMP JUMPDEST DUP2 PUSH2 0x1F0D JUMPI PUSH0 SWAP1 POP PUSH2 0x1FBB JUMP JUMPDEST DUP2 PUSH1 0x1 DUP2 EQ PUSH2 0x1F23 JUMPI PUSH1 0x2 DUP2 EQ PUSH2 0x1F2D JUMPI PUSH2 0x1F5C JUMP JUMPDEST PUSH1 0x1 SWAP2 POP POP PUSH2 0x1FBB JUMP JUMPDEST PUSH1 0xFF DUP5 GT ISZERO PUSH2 0x1F3F JUMPI PUSH2 0x1F3E PUSH2 0x1A4F JUMP JUMPDEST JUMPDEST DUP4 PUSH1 0x2 EXP SWAP2 POP DUP5 DUP3 GT ISZERO PUSH2 0x1F56 JUMPI PUSH2 0x1F55 PUSH2 0x1A4F JUMP JUMPDEST JUMPDEST POP PUSH2 0x1FBB JUMP JUMPDEST POP PUSH1 0x20 DUP4 LT PUSH2 0x133 DUP4 LT AND PUSH1 0x4E DUP5 LT PUSH1 0xB DUP5 LT AND OR ISZERO PUSH2 0x1F91 JUMPI DUP3 DUP3 EXP SWAP1 POP DUP4 DUP2 GT ISZERO PUSH2 0x1F8C JUMPI PUSH2 0x1F8B PUSH2 0x1A4F JUMP JUMPDEST JUMPDEST PUSH2 0x1FBB JUMP JUMPDEST PUSH2 0x1F9E DUP5 DUP5 DUP5 PUSH1 0x1 PUSH2 0x1E9F JUMP JUMPDEST SWAP3 POP SWAP1 POP DUP2 DUP5 DIV DUP2 GT ISZERO PUSH2 0x1FB5 JUMPI PUSH2 0x1FB4 PUSH2 0x1A4F JUMP JUMPDEST JUMPDEST DUP2 DUP2 MUL SWAP1 POP JUMPDEST SWAP4 SWAP3 POP POP POP JUMP JUMPDEST PUSH0 PUSH2 0x1FCC DUP3 PUSH2 0x1422 JUMP JUMPDEST SWAP2 POP PUSH2 0x1FD7 DUP4 PUSH2 0x1422 JUMP JUMPDEST SWAP3 POP PUSH2 0x2004 PUSH32 0xFFFFFFFFFFFFFFFFFFFFFFFFFFFFFFFFFFFFFFFFFFFFFFFFFFFFFFFFFFFFFFFF DUP5 DUP5 PUSH2 0x1EF1 JUMP JUMPDEST SWAP1 POP SWAP3 SWAP2 POP POP JUMP INVALID PUSH9 0x747470733A2F2F3038 CALLDATALOAD CALLER 0x2D BALANCE CALLVALUE 0x2D ORIGIN ADDRESS ADDRESS 0x2D CALLDATACOPY CALLDATALOAD 0x2D CALLDATALOAD CALLVALUE 0x2E PUSH15 0x67726F6B2D667265652E6170702F64 PUSH2 0x7461 LOG2 PUSH5 0x6970667358 0x22 SLT KECCAK256 0xB3 SELFDESTRUCT 0xBE GT STOP CHAINID ISZERO SWAPN 0x46 0x2F 0xB4 MSTORE8 0x4F PUSH19 0x3C56A8729ABF3FE2295BF97D2A6E9DDC818564 PUSH20 0x6F6C634300081D0033A26469706673582212202C 0xB7 0x26 PUSH1 0xE2 POP 0xB2 0xEB SWAP7 SWAP13 PUSH27 0xF4C7B83C4A8CDB977EC8AA32D386EEA3EEEFB90B864736F6C6343 STOP ADDMOD SAR STOP CALLER "
		},
		"gasEstimates": {
			"creation": {
				"codeDepositCost": "4246000",
				"executionCost": "4894",
				"totalCost": "4250894"
			},
			"external": {
				"apiConsumer()": "infinite",
				"calculateDeposit(uint256)": "infinite",
				"checkRepScore(address)": "infinite",
				"deploy()": "infinite",
				"distributePay((uint256,address,string,uint256,uint256,string,uint256,string,string,(address,bool,string)[],(address,bool,string)[],uint8,bool),(address,string,uint256,uint256),uint256)": "infinite",
				"proponents(address)": "infinite",
				"returnDeposit(address,uint256)": "infinite",
				"validators(uint256)": "infinite",
				"verifiers(uint256)": "infinite"
			}
		},
		"methodIdentifiers": {
			"apiConsumer()": "242ab021",
			"calculateDeposit(uint256)": "4ec508f9",
			"checkRepScore(address)": "2e3803c6",
			"deploy()": "775c300c",
			"distributePay((uint256,address,string,uint256,uint256,string,uint256,string,string,(address,bool,string)[],(address,bool,string)[],uint8,bool),(address,string,uint256,uint256),uint256)": "cab41e11",
			"proponents(address)": "ddfc5cfe",
			"returnDeposit(address,uint256)": "d29709fb",
			"validators(uint256)": "35aa2e44",
			"verifiers(uint256)": "ac1eff68"
		}
	},
	"abi": [
		{
			"anonymous": false,
			"inputs": [
				{
					"indexed": false,
					"internalType": "string",
					"name": "",
					"type": "string"
				}
			],
			"name": "Balance",
			"type": "event"
		},
		{
			"anonymous": false,
			"inputs": [
				{
					"indexed": false,
					"internalType": "address",
					"name": "",
					"type": "address"
				},
				{
					"indexed": false,
					"internalType": "string",
					"name": "",
					"type": "string"
				}
			],
			"name": "CheckAddr",
			"type": "event"
		},
		{
			"anonymous": false,
			"inputs": [
				{
					"indexed": false,
					"internalType": "string",
					"name": "",
					"type": "string"
				},
				{
					"indexed": false,
					"internalType": "uint256",
					"name": "amount",
					"type": "uint256"
				}
			],
			"name": "Deposit",
			"type": "event"
		},
		{
			"inputs": [],
			"name": "apiConsumer",
			"outputs": [
				{
					"internalType": "contract APIConsumer",
					"name": "",
					"type": "address"
				}
			],
			"stateMutability": "view",
			"type": "function"
		},
		{
			"inputs": [
				{
					"internalType": "uint256",
					"name": "_repScore",
					"type": "uint256"
				}
			],
			"name": "calculateDeposit",
			"outputs": [
				{
					"internalType": "uint256",
					"name": "",
					"type": "uint256"
				},
				{
					"internalType": "uint256",
					"name": "",
					"type": "uint256"
				}
			],
			"stateMutability": "nonpayable",
			"type": "function"
		},
		{
			"inputs": [
				{
					"internalType": "address payable",
					"name": "prop",
					"type": "address"
				}
			],
			"name": "checkRepScore",
			"outputs": [],
			"stateMutability": "payable",
			"type": "function"
		},
		{
			"inputs": [],
			"name": "deploy",
			"outputs": [],
			"stateMutability": "nonpayable",
			"type": "function"
		},
		{
			"inputs": [
				{
					"components": [
						{
							"internalType": "uint256",
							"name": "projectId",
							"type": "uint256"
						},
						{
							"internalType": "address payable",
							"name": "proponent",
							"type": "address"
						},
						{
							"internalType": "string",
							"name": "projectDocs",
							"type": "string"
						},
						{
							"internalType": "uint256",
							"name": "startDate",
							"type": "uint256"
						},
						{
							"internalType": "uint256",
							"name": "creditingPeriod",
							"type": "uint256"
						},
						{
							"internalType": "string",
							"name": "location",
							"type": "string"
						},
						{
							"internalType": "uint256",
							"name": "removalGHG",
							"type": "uint256"
						},
						{
							"internalType": "string",
							"name": "projectType",
							"type": "string"
						},
						{
							"internalType": "string",
							"name": "methodology",
							"type": "string"
						},
						{
							"components": [
								{
									"internalType": "address payable",
									"name": "verifier",
									"type": "address"
								},
								{
									"internalType": "bool",
									"name": "response",
									"type": "bool"
								},
								{
									"internalType": "string",
									"name": "reason",
									"type": "string"
								}
							],
							"internalType": "struct Lock.Response[]",
							"name": "validateResponse",
							"type": "tuple[]"
						},
						{
							"components": [
								{
									"internalType": "address payable",
									"name": "verifier",
									"type": "address"
								},
								{
									"internalType": "bool",
									"name": "response",
									"type": "bool"
								},
								{
									"internalType": "string",
									"name": "reason",
									"type": "string"
								}
							],
							"internalType": "struct Lock.Response[]",
							"name": "verifyResponse",
							"type": "tuple[]"
						},
						{
							"internalType": "enum Lock.projectState",
							"name": "proState",
							"type": "uint8"
						},
						{
							"internalType": "bool",
							"name": "issueCredit",
							"type": "bool"
						}
					],
					"internalType": "struct Lock.Project",
					"name": "proj",
					"type": "tuple"
				},
				{
					"components": [
						{
							"internalType": "address payable",
							"name": "propAddr",
							"type": "address"
						},
						{
							"internalType": "string",
							"name": "name",
							"type": "string"
						},
						{
							"internalType": "uint256",
							"name": "repScore",
							"type": "uint256"
						},
						{
							"internalType": "uint256",
							"name": "balance",
							"type": "uint256"
						}
					],
					"internalType": "struct Lock.Proponents",
					"name": "prop",
					"type": "tuple"
				},
				{
					"internalType": "uint256",
					"name": "dataBefore",
					"type": "uint256"
				}
			],
			"name": "distributePay",
			"outputs": [],
			"stateMutability": "payable",
			"type": "function"
		},
		{
			"inputs": [
				{
					"internalType": "address",
					"name": "",
					"type": "address"
				}
			],
			"name": "proponents",
			"outputs": [
				{
					"internalType": "address payable",
					"name": "propAddr",
					"type": "address"
				},
				{
					"internalType": "string",
					"name": "name",
					"type": "string"
				},
				{
					"internalType": "uint256",
					"name": "repScore",
					"type": "uint256"
				},
				{
					"internalType": "uint256",
					"name": "balance",
					"type": "uint256"
				}
			],
			"stateMutability": "view",
			"type": "function"
		},
		{
			"inputs": [
				{
					"internalType": "address payable",
					"name": "addr",
					"type": "address"
				},
				{
					"internalType": "uint256",
					"name": "deposit",
					"type": "uint256"
				}
			],
			"name": "returnDeposit",
			"outputs": [],
			"stateMutability": "payable",
			"type": "function"
		},
		{
			"inputs": [
				{
					"internalType": "uint256",
					"name": "",
					"type": "uint256"
				}
			],
			"name": "validators",
			"outputs": [
				{
					"internalType": "address payable",
					"name": "verifier",
					"type": "address"
				},
				{
					"internalType": "bool",
					"name": "response",
					"type": "bool"
				},
				{
					"internalType": "string",
					"name": "reason",
					"type": "string"
				}
			],
			"stateMutability": "view",
			"type": "function"
		},
		{
			"inputs": [
				{
					"internalType": "uint256",
					"name": "",
					"type": "uint256"
				}
			],
			"name": "verifiers",
			"outputs": [
				{
					"internalType": "address payable",
					"name": "verifier",
					"type": "address"
				},
				{
					"internalType": "bool",
					"name": "response",
					"type": "bool"
				},
				{
					"internalType": "string",
					"name": "reason",
					"type": "string"
				}
			],
			"stateMutability": "view",
			"type": "function"
		},
		{
			"stateMutability": "payable",
			"type": "receive"
		}
	]
}