{
	"data": {
		"bytecode": {
			"linkReferences": {},
			"object": "6080604052348015600e575f5ffd5b506160618061001c5f395ff3fe6080604052600436106100eb575f3560e01c8063775c300c11610089578063d29709fb11610058578063d29709fb146102e3578063ddfc5cfe146102ff578063e01557141461033e578063ff085ca01461037a576100f2565b8063775c300c1461021f578063840e78fd14610235578063ac1eff681461027b578063b43a57a9146102b9576100f2565b80633bb060db116100c55780633bb060db1461017a57806343de681d146101905780634ec508f9146101ba5780635699fadc146101f7576100f2565b8063242ab021146100f65780632e3803c61461012057806335aa2e441461013c576100f2565b366100f257005b5f5ffd5b348015610101575f5ffd5b5061010a610396565b60405161011791906127d6565b60405180910390f35b61013a6004803603810190610135919061283b565b6103ba565b005b348015610147575f5ffd5b50610162600480360381019061015d9190612899565b610501565b6040516101719392919061295d565b60405180910390f35b348015610185575f5ffd5b5061018e6105e7565b005b34801561019b575f5ffd5b506101a4610dbc565b6040516101b191906129a8565b60405180910390f35b3480156101c5575f5ffd5b506101e060048036038101906101db9190612899565b610eba565b6040516101ee9291906129c1565b60405180910390f35b348015610202575f5ffd5b5061021d60048036038101906102189190612a0b565b610f72565b005b34801561022a575f5ffd5b50610233611904565b005b348015610240575f5ffd5b5061025b60048036038101906102569190612a71565b61196a565b6040516102729b9a99989796959493929190612b0f565b60405180910390f35b348015610286575f5ffd5b506102a1600480360381019061029c9190612899565b611c10565b6040516102b09392919061295d565b60405180910390f35b3480156102c4575f5ffd5b506102cd611cf6565b6040516102da91906129a8565b60405180910390f35b6102fd60048036038101906102f89190612bd4565b611cfc565b005b34801561030a575f5ffd5b5061032560048036038101906103209190612a71565b611dac565b6040516103359493929190612c12565b60405180910390f35b348015610349575f5ffd5b50610364600480360381019061035f9190612899565b611e7d565b6040516103719190612c5c565b60405180910390f35b610394600480360381019061038f91906131a0565b611ecb565b005b5f5f9054906101000a900473ffffffffffffffffffffffffffffffffffffffff1681565b5f60055f8373ffffffffffffffffffffffffffffffffffffffff1673ffffffffffffffffffffffffffffffffffffffff1681526020019081526020015f20600201540361045d57600160055f8373ffffffffffffffffffffffffffffffffffffffff1673ffffffffffffffffffffffffffffffffffffffff1681526020019081526020015f206002015f8282546104519190613243565b925050819055506104fe565b600a60055f8373ffffffffffffffffffffffffffffffffffffffff1673ffffffffffffffffffffffffffffffffffffffff1681526020019081526020015f2060020154036104fd57600160055f8373ffffffffffffffffffffffffffffffffffffffff1673ffffffffffffffffffffffffffffffffffffffff1681526020019081526020015f206002015f8282546104f59190613276565b925050819055505b5b50565b60028181548110610510575f80fd5b905f5260205f2090600202015f91509050805f015f9054906101000a900473ffffffffffffffffffffffffffffffffffffffff1690805f0160149054906101000a900460ff1690806001018054610566906132d6565b80601f0160208091040260200160405190810160405280929190818152602001828054610592906132d6565b80156105dd5780601f106105b4576101008083540402835291602001916105dd565b820191905f5260205f20905b8154815290600101906020018083116105c057829003601f168201915b5050505050905083565b5f73ffffffffffffffffffffffffffffffffffffffff165f5f9054906101000a900473ffffffffffffffffffffffffffffffffffffffff1673ffffffffffffffffffffffffffffffffffffffff1603610675576040517f08c379a000000000000000000000000000000000000000000000000000000000815260040161066c90613350565b60405180910390fd5b5f6040518060600160405280735b38da6a701c568545dcfcb03fcb875f56beddc473ffffffffffffffffffffffffffffffffffffffff16815260200160011515815260200160405180602001604052805f8152508152509050600281908060018154018082558091505060019003905f5260205f2090600202015f909190919091505f820151815f015f6101000a81548173ffffffffffffffffffffffffffffffffffffffff021916908373ffffffffffffffffffffffffffffffffffffffff1602179055506020820151815f0160146101000a81548160ff021916908315150217905550604082015181600101908161076f9190613505565b505050600381908060018154018082558091505060019003905f5260205f2090600202015f909190919091505f820151815f015f6101000a81548173ffffffffffffffffffffffffffffffffffffffff021916908373ffffffffffffffffffffffffffffffffffffffff1602179055506020820151815f0160146101000a81548160ff02191690831515021790555060408201518160010190816108139190613505565b5050505f604051806060016040528073ab8483f64d9c6d1ecf9b849ae677dd3315835cb273ffffffffffffffffffffffffffffffffffffffff16815260200160011515815260200160405180602001604052805f8152508152509050600281908060018154018082558091505060019003905f5260205f2090600202015f909190919091505f820151815f015f6101000a81548173ffffffffffffffffffffffffffffffffffffffff021916908373ffffffffffffffffffffffffffffffffffffffff1602179055506020820151815f0160146101000a81548160ff02191690831515021790555060408201518160010190816109109190613505565b505050600381908060018154018082558091505060019003905f5260205f2090600202015f909190919091505f820151815f015f6101000a81548173ffffffffffffffffffffffffffffffffffffffff021916908373ffffffffffffffffffffffffffffffffffffffff1602179055506020820151815f0160146101000a81548160ff02191690831515021790555060408201518160010190816109b49190613505565b5050505f6040518060600160405280734b20993bc481177ec7e8f571cecae8a9e22c02db73ffffffffffffffffffffffffffffffffffffffff16815260200160011515815260200160405180602001604052805f8152508152509050600281908060018154018082558091505060019003905f5260205f2090600202015f909190919091505f820151815f015f6101000a81548173ffffffffffffffffffffffffffffffffffffffff021916908373ffffffffffffffffffffffffffffffffffffffff1602179055506020820151815f0160146101000a81548160ff0219169083151502179055506040820151816001019081610ab19190613505565b505050600381908060018154018082558091505060019003905f5260205f2090600202015f909190919091505f820151815f015f6101000a81548173ffffffffffffffffffffffffffffffffffffffff021916908373ffffffffffffffffffffffffffffffffffffffff1602179055506020820151815f0160146101000a81548160ff0219169083151502179055506040820151816001019081610b559190613505565b5050505f60045f3373ffffffffffffffffffffffffffffffffffffffff1673ffffffffffffffffffffffffffffffffffffffff1681526020019081526020015f20905063499602d2815f018190555073cbd38ada2d31c7071e041fc8f8c1da9df9c76dd4816001015f6101000a81548173ffffffffffffffffffffffffffffffffffffffff021916908373ffffffffffffffffffffffffffffffffffffffff16021790555060405180602001604052805f815250816002019081610c199190613505565b506001816003018190555062069780816004018190555060405180602001604052805f815250816005019081610c4f9190613505565b506901d9ca7a480674860000816006018190555060405180602001604052805f815250816007019081610c829190613505565b5060405180602001604052805f815250816008019081610ca29190613505565b50600281600901908054610cb79291906125a2565b50600381600a01908054610ccc9291906125a2565b50600181600b015f6101000a81548160ff02191690836004811115610cf457610cf3612a9c565b5b0217905550600181600b0160016101000a81548160ff0219169083151502179055505f5f5f9054906101000a900473ffffffffffffffffffffffffffffffffffffffff1673ffffffffffffffffffffffffffffffffffffffff16632adb9e3c60016040518263ffffffff1660e01b8152600401610d71919061360d565b6020604051808303815f875af1158015610d8d573d5f5f3e3d5ffd5b505050506040513d601f19601f82011682018060405250810190610db19190613659565b5f1c90505050505050565b5f5f60055f3373ffffffffffffffffffffffffffffffffffffffff1673ffffffffffffffffffffffffffffffffffffffff1681526020019081526020015f2090506040518060400160405280600381526020017f53616d0000000000000000000000000000000000000000000000000000000000815250816001019081610e439190613505565b5073cbd38ada2d31c7071e041fc8f8c1da9df9c76dd4815f015f6101000a81548173ffffffffffffffffffffffffffffffffffffffff021916908373ffffffffffffffffffffffffffffffffffffffff160217905550600a8160020181905550620f42408160030181905550806002015491505090565b5f5f5f600584610eca9190613684565b6103e8610ed791906136f2565b90505f816103e8610ee89190613276565b90507f135290006f1871309577d248cf00619459a79b4a735638108a2bb080319c90d66107d083610f199190613243565b604051610f269190613792565b60405180910390a17f135290006f1871309577d248cf00619459a79b4a735638108a2bb080319c90d681604051610f5d9190613808565b60405180910390a18181935093505050915091565b8060045f3373ffffffffffffffffffffffffffffffffffffffff1673ffffffffffffffffffffffffffffffffffffffff1681526020019081526020015f20600b015f6101000a81548160ff02191690836004811115610fd457610fd3612a9c565b5b021790555060036004811115610fed57610fec612a9c565b5b81600481111561100057610fff612a9c565b5b148061102f575060048081111561101a57611019612a9c565b5b81600481111561102d5761102c612a9c565b5b145b1561190157600447106118ca575f5f9054906101000a900473ffffffffffffffffffffffffffffffffffffffff1673ffffffffffffffffffffffffffffffffffffffff1663c618a1e46040518163ffffffff1660e01b8152600401602060405180830381865afa1580156110a5573d5f5f3e3d5ffd5b505050506040513d601f19601f820116820180604052508101906110c99190613848565b6001819055505f5f5f9054906101000a900473ffffffffffffffffffffffffffffffffffffffff1673ffffffffffffffffffffffffffffffffffffffff16632adb9e3c60016040518263ffffffff1660e01b815260040161112a919061360d565b6020604051808303815f875af1158015611146573d5f5f3e3d5ffd5b505050506040513d601f19601f8201168201806040525081019061116a9190613659565b5f1c90506118c460045f3373ffffffffffffffffffffffffffffffffffffffff1673ffffffffffffffffffffffffffffffffffffffff1681526020019081526020015f20604051806101a00160405290815f8201548152602001600182015f9054906101000a900473ffffffffffffffffffffffffffffffffffffffff1673ffffffffffffffffffffffffffffffffffffffff1673ffffffffffffffffffffffffffffffffffffffff168152602001600282018054611228906132d6565b80601f0160208091040260200160405190810160405280929190818152602001828054611254906132d6565b801561129f5780601f106112765761010080835404028352916020019161129f565b820191905f5260205f20905b81548152906001019060200180831161128257829003601f168201915b5050505050815260200160038201548152602001600482015481526020016005820180546112cc906132d6565b80601f01602080910402602001604051908101604052809291908181526020018280546112f8906132d6565b80156113435780601f1061131a57610100808354040283529160200191611343565b820191905f5260205f20905b81548152906001019060200180831161132657829003601f168201915b5050505050815260200160068201548152602001600782018054611366906132d6565b80601f0160208091040260200160405190810160405280929190818152602001828054611392906132d6565b80156113dd5780601f106113b4576101008083540402835291602001916113dd565b820191905f5260205f20905b8154815290600101906020018083116113c057829003601f168201915b505050505081526020016008820180546113f6906132d6565b80601f0160208091040260200160405190810160405280929190818152602001828054611422906132d6565b801561146d5780601f106114445761010080835404028352916020019161146d565b820191905f5260205f20905b81548152906001019060200180831161145057829003601f168201915b5050505050815260200160098201805480602002602001604051908101604052809291908181526020015f905b828210156115c8578382905f5260205f2090600202016040518060600160405290815f82015f9054906101000a900473ffffffffffffffffffffffffffffffffffffffff1673ffffffffffffffffffffffffffffffffffffffff1673ffffffffffffffffffffffffffffffffffffffff1681526020015f820160149054906101000a900460ff16151515158152602001600182018054611539906132d6565b80601f0160208091040260200160405190810160405280929190818152602001828054611565906132d6565b80156115b05780601f10611587576101008083540402835291602001916115b0565b820191905f5260205f20905b81548152906001019060200180831161159357829003601f168201915b5050505050815250508152602001906001019061149a565b505050508152602001600a8201805480602002602001604051908101604052809291908181526020015f905b82821015611722578382905f5260205f2090600202016040518060600160405290815f82015f9054906101000a900473ffffffffffffffffffffffffffffffffffffffff1673ffffffffffffffffffffffffffffffffffffffff1673ffffffffffffffffffffffffffffffffffffffff1681526020015f820160149054906101000a900460ff16151515158152602001600182018054611693906132d6565b80601f01602080910402602001604051908101604052809291908181526020018280546116bf906132d6565b801561170a5780601f106116e15761010080835404028352916020019161170a565b820191905f5260205f20905b8154815290600101906020018083116116ed57829003601f168201915b505050505081525050815260200190600101906115f4565b505050508152602001600b82015f9054906101000a900460ff16600481111561174e5761174d612a9c565b5b60048111156117605761175f612a9c565b5b8152602001600b820160019054906101000a900460ff16151515158152505060055f3373ffffffffffffffffffffffffffffffffffffffff1673ffffffffffffffffffffffffffffffffffffffff1681526020019081526020015f206040518060800160405290815f82015f9054906101000a900473ffffffffffffffffffffffffffffffffffffffff1673ffffffffffffffffffffffffffffffffffffffff1673ffffffffffffffffffffffffffffffffffffffff16815260200160018201805461182b906132d6565b80601f0160208091040260200160405190810160405280929190818152602001828054611857906132d6565b80156118a25780601f10611879576101008083540402835291602001916118a2565b820191905f5260205f20905b81548152906001019060200180831161188557829003601f168201915b5050505050815260200160028201548152602001600382015481525050611ecb565b50611900565b7fdb42f09d5a5cb193ea3eae569c8ce2e3a5c8d8b68aadbe1a637f44d07f67bc176040516118f7906138bd565b60405180910390a15b5b50565b60405161191090612699565b604051809103905ff080158015611929573d5f5f3e3d5ffd5b505f5f6101000a81548173ffffffffffffffffffffffffffffffffffffffff021916908373ffffffffffffffffffffffffffffffffffffffff160217905550565b6004602052805f5260405f205f91509050805f015490806001015f9054906101000a900473ffffffffffffffffffffffffffffffffffffffff16908060020180546119b4906132d6565b80601f01602080910402602001604051908101604052809291908181526020018280546119e0906132d6565b8015611a2b5780601f10611a0257610100808354040283529160200191611a2b565b820191905f5260205f20905b815481529060010190602001808311611a0e57829003601f168201915b505050505090806003015490806004015490806005018054611a4c906132d6565b80601f0160208091040260200160405190810160405280929190818152602001828054611a78906132d6565b8015611ac35780601f10611a9a57610100808354040283529160200191611ac3565b820191905f5260205f20905b815481529060010190602001808311611aa657829003601f168201915b505050505090806006015490806007018054611ade906132d6565b80601f0160208091040260200160405190810160405280929190818152602001828054611b0a906132d6565b8015611b555780601f10611b2c57610100808354040283529160200191611b55565b820191905f5260205f20905b815481529060010190602001808311611b3857829003601f168201915b505050505090806008018054611b6a906132d6565b80601f0160208091040260200160405190810160405280929190818152602001828054611b96906132d6565b8015611be15780601f10611bb857610100808354040283529160200191611be1565b820191905f5260205f20905b815481529060010190602001808311611bc457829003601f168201915b50505050509080600b015f9054906101000a900460ff169080600b0160019054906101000a900460ff1690508b565b60038181548110611c1f575f80fd5b905f5260205f2090600202015f91509050805f015f9054906101000a900473ffffffffffffffffffffffffffffffffffffffff1690805f0160149054906101000a900460ff1690806001018054611c75906132d6565b80601f0160208091040260200160405190810160405280929190818152602001828054611ca1906132d6565b8015611cec5780601f10611cc357610100808354040283529160200191611cec565b820191905f5260205f20905b815481529060010190602001808311611ccf57829003601f168201915b5050505050905083565b60015481565b5f5f8373ffffffffffffffffffffffffffffffffffffffff1683604051611d2290613908565b5f6040518083038185875af1925050503d805f8114611d5c576040519150601f19603f3d011682016040523d82523d5f602084013e611d61565b606091505b509150915081611da6576040517f08c379a0000000000000000000000000000000000000000000000000000000008152600401611d9d9061398c565b60405180910390fd5b50505050565b6005602052805f5260405f205f91509050805f015f9054906101000a900473ffffffffffffffffffffffffffffffffffffffff1690806001018054611df0906132d6565b80601f0160208091040260200160405190810160405280929190818152602001828054611e1c906132d6565b8015611e675780601f10611e3e57610100808354040283529160200191611e67565b820191905f5260205f20905b815481529060010190602001808311611e4a57829003601f168201915b5050505050908060020154908060030154905084565b5f60048203611e8f5760039050611ec6565b60058203611ea05760049050611ec6565b60038203611eb15760029050611ec6565b60028203611ec25760019050611ec6565b5f90505b919050565b5f5f611eda8360400151610eba565b915091505f5f5f9054906101000a900473ffffffffffffffffffffffffffffffffffffffff1673ffffffffffffffffffffffffffffffffffffffff1663c618a1e46040518163ffffffff1660e01b8152600401602060405180830381865afa158015611f48573d5f5f3e3d5ffd5b505050506040513d601f19601f82011682018060405250810190611f6c9190613848565b905060036004811115611f8257611f81612a9c565b5b8561016001516004811115611f9a57611f99612a9c565b5b036122f0577f135290006f1871309577d248cf00619459a79b4a735638108a2bb080319c90d66001604051611fcf91906139f4565b60405180910390a1611ff573cbd38ada2d31c7071e041fc8f8c1da9df9c76dd484611cfc565b6120228561014001515f815181106120105761200f613a20565b5b60200260200101515f01516001611cfc565b61205085610140015160018151811061203e5761203d613a20565b5b60200260200101515f01516001611cfc565b61207e85610140015160028151811061206c5761206b613a20565b5b60200260200101515f01516001611cfc565b6120ab8561012001515f8151811061209957612098613a20565b5b60200260200101515f01516001611cfc565b6120d98561012001516001815181106120c7576120c6613a20565b5b60200260200101515f01516001611cfc565b6121078561012001516002815181106120f5576120f4613a20565b5b60200260200101515f01516001611cfc565b60018460400181815161211a9190613243565b9150818152505080600154036122eb5761214873cbd38ada2d31c7071e041fc8f8c1da9df9c76dd484611cfc565b61218d8561014001515f8151811061216357612162613a20565b5b60200260200101515f015160036107d08561217e9190613243565b61218891906136f2565b611cfc565b6121d38561014001516001815181106121a9576121a8613a20565b5b60200260200101515f015160036107d0856121c49190613243565b6121ce91906136f2565b611cfc565b6122198561014001516002815181106121ef576121ee613a20565b5b60200260200101515f015160036107d08561220a9190613243565b61221491906136f2565b611cfc565b61225e8561012001515f8151811061223457612233613a20565b5b60200260200101515f015160036107d08561224f9190613243565b61225991906136f2565b611cfc565b6122a485610120015160018151811061227a57612279613a20565b5b60200260200101515f015160036107d0856122959190613243565b61229f91906136f2565b611cfc565b6122ea8561012001516002815181106122c0576122bf613a20565b5b60200260200101515f015160036107d0856122db9190613243565b6122e591906136f2565b611cfc565b5b6124e8565b60048081111561230357612302612a9c565b5b856101600151600481111561231b5761231a612a9c565b5b036124e75780600154036124cc5761236e8561014001515f8151811061234457612343613a20565b5b60200260200101515f015160036107d08561235f9190613243565b61236991906136f2565b611cfc565b6123b485610140015160018151811061238a57612389613a20565b5b60200260200101515f015160036107d0856123a59190613243565b6123af91906136f2565b611cfc565b6123fa8561014001516002815181106123d0576123cf613a20565b5b60200260200101515f015160036107d0856123eb9190613243565b6123f591906136f2565b611cfc565b61243f8561012001515f8151811061241557612414613a20565b5b60200260200101515f015160036107d0856124309190613243565b61243a91906136f2565b611cfc565b61248585610120015160018151811061245b5761245a613a20565b5b60200260200101515f015160036107d0856124769190613243565b61248091906136f2565b611cfc565b6124cb8561012001516002815181106124a1576124a0613a20565b5b60200260200101515f015160036107d0856124bc9190613243565b6124c691906136f2565b611cfc565b5b6001846040018181516124df9190613276565b915081815250505b5b6124f4845f01516103ba565b61251273cbd38ada2d31c7071e041fc8f8c1da9df9c76dd447611cfc565b7f135290006f1871309577d248cf00619459a79b4a735638108a2bb080319c90d684606001516040516125459190613a97565b60405180910390a17f135290006f1871309577d248cf00619459a79b4a735638108a2bb080319c90d63373ffffffffffffffffffffffffffffffffffffffff16316040516125939190613b0d565b60405180910390a15050505050565b828054828255905f5260205f20906002028101928215612688575f5260205f209160020282015b828111156126875782825f82015f9054906101000a900473ffffffffffffffffffffffffffffffffffffffff16815f015f6101000a81548173ffffffffffffffffffffffffffffffffffffffff021916908373ffffffffffffffffffffffffffffffffffffffff1602179055505f820160149054906101000a900460ff16815f0160146101000a81548160ff021916908315150217905550600182018160010190816126759190613b4e565b505050916002019190600201906125c9565b5b50905061269591906126a6565b5090565b6123f880613c3483390190565b5b80821115612700575f5f82015f6101000a81549073ffffffffffffffffffffffffffffffffffffffff02191690555f820160146101000a81549060ff0219169055600182015f6126f79190612704565b506002016126a7565b5090565b508054612710906132d6565b5f825580601f10612721575061273e565b601f0160209004905f5260205f209081019061273d9190612741565b5b50565b5b80821115612758575f815f905550600101612742565b5090565b5f73ffffffffffffffffffffffffffffffffffffffff82169050919050565b5f819050919050565b5f61279e6127996127948461275c565b61277b565b61275c565b9050919050565b5f6127af82612784565b9050919050565b5f6127c0826127a5565b9050919050565b6127d0816127b6565b82525050565b5f6020820190506127e95f8301846127c7565b92915050565b5f604051905090565b5f5ffd5b5f5ffd5b5f61280a8261275c565b9050919050565b61281a81612800565b8114612824575f5ffd5b50565b5f8135905061283581612811565b92915050565b5f602082840312156128505761284f6127f8565b5b5f61285d84828501612827565b91505092915050565b5f819050919050565b61287881612866565b8114612882575f5ffd5b50565b5f813590506128938161286f565b92915050565b5f602082840312156128ae576128ad6127f8565b5b5f6128bb84828501612885565b91505092915050565b6128cd81612800565b82525050565b5f8115159050919050565b6128e7816128d3565b82525050565b5f81519050919050565b5f82825260208201905092915050565b8281835e5f83830152505050565b5f601f19601f8301169050919050565b5f61292f826128ed565b61293981856128f7565b9350612949818560208601612907565b61295281612915565b840191505092915050565b5f6060820190506129705f8301866128c4565b61297d60208301856128de565b818103604083015261298f8184612925565b9050949350505050565b6129a281612866565b82525050565b5f6020820190506129bb5f830184612999565b92915050565b5f6040820190506129d45f830185612999565b6129e16020830184612999565b9392505050565b600581106129f4575f5ffd5b50565b5f81359050612a05816129e8565b92915050565b5f60208284031215612a2057612a1f6127f8565b5b5f612a2d848285016129f7565b91505092915050565b5f612a408261275c565b9050919050565b612a5081612a36565b8114612a5a575f5ffd5b50565b5f81359050612a6b81612a47565b92915050565b5f60208284031215612a8657612a856127f8565b5b5f612a9384828501612a5d565b91505092915050565b7f4e487b71000000000000000000000000000000000000000000000000000000005f52602160045260245ffd5b60058110612ada57612ad9612a9c565b5b50565b5f819050612aea82612ac9565b919050565b5f612af982612add565b9050919050565b612b0981612aef565b82525050565b5f61016082019050612b235f83018e612999565b612b30602083018d6128c4565b8181036040830152612b42818c612925565b9050612b51606083018b612999565b612b5e608083018a612999565b81810360a0830152612b708189612925565b9050612b7f60c0830188612999565b81810360e0830152612b918187612925565b9050818103610100830152612ba68186612925565b9050612bb6610120830185612b00565b612bc46101408301846128de565b9c9b505050505050505050505050565b5f5f60408385031215612bea57612be96127f8565b5b5f612bf785828601612827565b9250506020612c0885828601612885565b9150509250929050565b5f608082019050612c255f8301876128c4565b8181036020830152612c378186612925565b9050612c466040830185612999565b612c536060830184612999565b95945050505050565b5f602082019050612c6f5f830184612b00565b92915050565b5f5ffd5b7f4e487b71000000000000000000000000000000000000000000000000000000005f52604160045260245ffd5b612caf82612915565b810181811067ffffffffffffffff82111715612cce57612ccd612c79565b5b80604052505050565b5f612ce06127ef565b9050612cec8282612ca6565b919050565b5f5ffd5b5f5ffd5b5f5ffd5b5f67ffffffffffffffff821115612d1757612d16612c79565b5b612d2082612915565b9050602081019050919050565b828183375f83830152505050565b5f612d4d612d4884612cfd565b612cd7565b905082815260208101848484011115612d6957612d68612cf9565b5b612d74848285612d2d565b509392505050565b5f82601f830112612d9057612d8f612cf5565b5b8135612da0848260208601612d3b565b91505092915050565b5f67ffffffffffffffff821115612dc357612dc2612c79565b5b602082029050602081019050919050565b5f5ffd5b612de1816128d3565b8114612deb575f5ffd5b50565b5f81359050612dfc81612dd8565b92915050565b5f60608284031215612e1757612e16612c75565b5b612e216060612cd7565b90505f612e3084828501612827565b5f830152506020612e4384828501612dee565b602083015250604082013567ffffffffffffffff811115612e6757612e66612cf1565b5b612e7384828501612d7c565b60408301525092915050565b5f612e91612e8c84612da9565b612cd7565b90508083825260208201905060208402830185811115612eb457612eb3612dd4565b5b835b81811015612efb57803567ffffffffffffffff811115612ed957612ed8612cf5565b5b808601612ee68982612e02565b85526020850194505050602081019050612eb6565b5050509392505050565b5f82601f830112612f1957612f18612cf5565b5b8135612f29848260208601612e7f565b91505092915050565b5f6101a08284031215612f4857612f47612c75565b5b612f536101a0612cd7565b90505f612f6284828501612885565b5f830152506020612f7584828501612827565b602083015250604082013567ffffffffffffffff811115612f9957612f98612cf1565b5b612fa584828501612d7c565b6040830152506060612fb984828501612885565b6060830152506080612fcd84828501612885565b60808301525060a082013567ffffffffffffffff811115612ff157612ff0612cf1565b5b612ffd84828501612d7c565b60a08301525060c061301184828501612885565b60c08301525060e082013567ffffffffffffffff81111561303557613034612cf1565b5b61304184828501612d7c565b60e08301525061010082013567ffffffffffffffff81111561306657613065612cf1565b5b61307284828501612d7c565b6101008301525061012082013567ffffffffffffffff81111561309857613097612cf1565b5b6130a484828501612f05565b6101208301525061014082013567ffffffffffffffff8111156130ca576130c9612cf1565b5b6130d684828501612f05565b610140830152506101606130ec848285016129f7565b6101608301525061018061310284828501612dee565b6101808301525092915050565b5f6080828403121561312457613123612c75565b5b61312e6080612cd7565b90505f61313d84828501612827565b5f83015250602082013567ffffffffffffffff8111156131605761315f612cf1565b5b61316c84828501612d7c565b602083015250604061318084828501612885565b604083015250606061319484828501612885565b60608301525092915050565b5f5f604083850312156131b6576131b56127f8565b5b5f83013567ffffffffffffffff8111156131d3576131d26127fc565b5b6131df85828601612f32565b925050602083013567ffffffffffffffff811115613200576131ff6127fc565b5b61320c8582860161310f565b9150509250929050565b7f4e487b71000000000000000000000000000000000000000000000000000000005f52601160045260245ffd5b5f61324d82612866565b915061325883612866565b92508282019050808211156132705761326f613216565b5b92915050565b5f61328082612866565b915061328b83612866565b92508282039050818111156132a3576132a2613216565b5b92915050565b7f4e487b71000000000000000000000000000000000000000000000000000000005f52602260045260245ffd5b5f60028204905060018216806132ed57607f821691505b602082108103613300576132ff6132a9565b5b50919050565b7f4465706c6f7920415049436f6e73756d657220666972737421000000000000005f82015250565b5f61333a6019836128f7565b915061334582613306565b602082019050919050565b5f6020820190508181035f8301526133678161332e565b9050919050565b5f819050815f5260205f209050919050565b5f6020601f8301049050919050565b5f82821b905092915050565b5f600883026133ca7fffffffffffffffffffffffffffffffffffffffffffffffffffffffffffffffff8261338f565b6133d4868361338f565b95508019841693508086168417925050509392505050565b5f6134066134016133fc84612866565b61277b565b612866565b9050919050565b5f819050919050565b61341f836133ec565b61343361342b8261340d565b84845461339b565b825550505050565b5f5f905090565b61344a61343b565b613455818484613416565b505050565b5b818110156134785761346d5f82613442565b60018101905061345b565b5050565b601f8211156134bd5761348e8161336e565b61349784613380565b810160208510156134a6578190505b6134ba6134b285613380565b83018261345a565b50505b505050565b5f82821c905092915050565b5f6134dd5f19846008026134c2565b1980831691505092915050565b5f6134f583836134ce565b9150826002028217905092915050565b61350e826128ed565b67ffffffffffffffff81111561352757613526612c79565b5b61353182546132d6565b61353c82828561347c565b5f60209050601f83116001811461356d575f841561355b578287015190505b61356585826134ea565b8655506135cc565b601f19841661357b8661336e565b5f5b828110156135a25784890151825560018201915060208501945060208101905061357d565b868310156135bf57848901516135bb601f8916826134ce565b8355505b6001600288020188555050505b505050505050565b5f819050919050565b5f6135f76135f26135ed846135d4565b61277b565b612866565b9050919050565b613607816135dd565b82525050565b5f6020820190506136205f8301846135fe565b92915050565b5f819050919050565b61363881613626565b8114613642575f5ffd5b50565b5f815190506136538161362f565b92915050565b5f6020828403121561366e5761366d6127f8565b5b5f61367b84828501613645565b91505092915050565b5f61368e82612866565b915061369983612866565b92508282026136a781612866565b915082820484148315176136be576136bd613216565b5b5092915050565b7f4e487b71000000000000000000000000000000000000000000000000000000005f52601260045260245ffd5b5f6136fc82612866565b915061370783612866565b925082613717576137166136c5565b5b828204905092915050565b7f5468652070726f706f6e656e742068617320746f20706179206120746f74616c5f8201527f206f663a20000000000000000000000000000000000000000000000000000000602082015250565b5f61377c6025836128f7565b915061378782613722565b604082019050919050565b5f6040820190508181035f8301526137a981613770565b90506137b86020830184612999565b92915050565b7f56657272612068617320746f20706179206120746f74616c206f663a000000005f82015250565b5f6137f2601c836128f7565b91506137fd826137be565b602082019050919050565b5f6040820190508181035f83015261381f816137e6565b905061382e6020830184612999565b92915050565b5f815190506138428161286f565b92915050565b5f6020828403121561385d5761385c6127f8565b5b5f61386a84828501613834565b91505092915050565b7f4e6f7420456e6f756768204465706f73697465640000000000000000000000005f82015250565b5f6138a76014836128f7565b91506138b282613873565b602082019050919050565b5f6020820190508181035f8301526138d48161389b565b9050919050565b5f81905092915050565b50565b5f6138f35f836138db565b91506138fe826138e5565b5f82019050919050565b5f613912826138e8565b9150819050919050565b7f4661696c656420746f2073656e64206465706f73697420746f2070726f706f6e5f8201527f656e740000000000000000000000000000000000000000000000000000000000602082015250565b5f6139766023836128f7565b91506139818261391c565b604082019050919050565b5f6020820190508181035f8301526139a38161396a565b9050919050565b7f696e746f20617070726f766564000000000000000000000000000000000000005f82015250565b5f6139de600d836128f7565b91506139e9826139aa565b602082019050919050565b5f6040820190508181035f830152613a0b816139d2565b9050613a1a60208301846135fe565b92915050565b7f4e487b71000000000000000000000000000000000000000000000000000000005f52603260045260245ffd5b7f72657053636f72650000000000000000000000000000000000000000000000005f82015250565b5f613a816008836128f7565b9150613a8c82613a4d565b602082019050919050565b5f6040820190508181035f830152613aae81613a75565b9050613abd6020830184612999565b92915050565b7f6d73672e73656e6465722042616c616e636500000000000000000000000000005f82015250565b5f613af76012836128f7565b9150613b0282613ac3565b602082019050919050565b5f6040820190508181035f830152613b2481613aeb565b9050613b336020830184612999565b92915050565b5f81549050613b47816132d6565b9050919050565b818103613b5c575050613c31565b613b6582613b39565b67ffffffffffffffff811115613b7e57613b7d612c79565b5b613b8882546132d6565b613b9382828561347c565b5f601f831160018114613bc0575f8415613bae578287015490505b613bb885826134ea565b865550613c2a565b601f198416613bce8761336e565b9650613bd98661336e565b5f5b82811015613c0057848901548255600182019150600185019450602081019050613bdb565b86831015613c1d5784890154613c19601f8916826134ce565b8355505b6001600288020188555050505b5050505050505b56fe60806040526001600455348015610014575f5ffd5b5033805f5f73ffffffffffffffffffffffffffffffffffffffff168273ffffffffffffffffffffffffffffffffffffffff1603610086576040517f08c379a000000000000000000000000000000000000000000000000000000000815260040161007d906103b1565b60405180910390fd5b8160065f6101000a81548173ffffffffffffffffffffffffffffffffffffffff021916908373ffffffffffffffffffffffffffffffffffffffff1602179055505f73ffffffffffffffffffffffffffffffffffffffff168173ffffffffffffffffffffffffffffffffffffffff161461010957610108816101a560201b60201c565b5b50505061012f73779877a7b0d9e8603169ddbd7836e478b46247896102d160201b60201c565b610152736090149792daaee9d1d568c9f9a6f6b46aa29efd61031460201b60201c565b7f6361393833363663633733313439353762386330313263373266303561656562600981905550600a670de0b6b3a764000060016101909190610405565b61019a9190610473565b600a8190555061050b565b3373ffffffffffffffffffffffffffffffffffffffff168173ffffffffffffffffffffffffffffffffffffffff1603610213576040517f08c379a000000000000000000000000000000000000000000000000000000000815260040161020a906104ed565b60405180910390fd5b8060075f6101000a81548173ffffffffffffffffffffffffffffffffffffffff021916908373ffffffffffffffffffffffffffffffffffffffff1602179055508073ffffffffffffffffffffffffffffffffffffffff1660065f9054906101000a900473ffffffffffffffffffffffffffffffffffffffff1673ffffffffffffffffffffffffffffffffffffffff167fed8889f560326eb138920d842192f0eb3dd22b4f139c87a2c57538e05bae127860405160405180910390a350565b8060025f6101000a81548173ffffffffffffffffffffffffffffffffffffffff021916908373ffffffffffffffffffffffffffffffffffffffff16021790555050565b8060035f6101000a81548173ffffffffffffffffffffffffffffffffffffffff021916908373ffffffffffffffffffffffffffffffffffffffff16021790555050565b5f82825260208201905092915050565b7f43616e6e6f7420736574206f776e657220746f207a65726f00000000000000005f82015250565b5f61039b601883610357565b91506103a682610367565b602082019050919050565b5f6020820190508181035f8301526103c88161038f565b9050919050565b5f819050919050565b7f4e487b71000000000000000000000000000000000000000000000000000000005f52601160045260245ffd5b5f61040f826103cf565b915061041a836103cf565b9250828202610428816103cf565b9150828204841483151761043f5761043e6103d8565b5b5092915050565b7f4e487b71000000000000000000000000000000000000000000000000000000005f52601260045260245ffd5b5f61047d826103cf565b9150610488836103cf565b92508261049857610497610446565b5b828204905092915050565b7f43616e6e6f74207472616e7366657220746f2073656c660000000000000000005f82015250565b5f6104d7601783610357565b91506104e2826104a3565b602082019050919050565b5f6020820190508181035f830152610504816104cb565b9050919050565b611ee0806105185f395ff3fe608060405234801561000f575f5ffd5b506004361061007b575f3560e01c80638da5cb5b116100595780638da5cb5b146100d55780638dc654a2146100f3578063c618a1e4146100fd578063f2fde38b1461011b5761007b565b80632adb9e3c1461007f5780634357855e146100af57806379ba5097146100cb575b5f5ffd5b610099600480360381019061009491906113a4565b610137565b6040516100a691906113e7565b60405180910390f35b6100c960048036038101906100c4919061142a565b6102cb565b005b6100d361040e565b005b6100dd61059f565b6040516100ea91906114a7565b60405180910390f35b6100fb6105c7565b005b61010561070e565b60405161011291906114cf565b60405180910390f35b61013560048036038101906101309190611512565b610714565b005b5f5f61014d60095430634357855e60e01b610728565b90506101b16040518060400160405280600381526020017f67657400000000000000000000000000000000000000000000000000000000008152506040518060600160405280602d8152602001611e7e602d9139836107599092919063ffffffff16565b6102306040518060400160405280600481526020017f70617468000000000000000000000000000000000000000000000000000000008152506040518060400160405280600381526020017f6e756d0000000000000000000000000000000000000000000000000000000000815250836107599092919063ffffffff16565b5f6001905061027f6040518060400160405280600581526020017f74696d6573000000000000000000000000000000000000000000000000000000815250828461078c9092919063ffffffff16565b7f4953e1e253d3404572e66d2be3e7889846db195dfc203305a4810d16100dfd11846040516102ae9190611597565b60405180910390a16102c282600a546107bf565b92505050919050565b8160055f8281526020019081526020015f205f9054906101000a900473ffffffffffffffffffffffffffffffffffffffff1673ffffffffffffffffffffffffffffffffffffffff163373ffffffffffffffffffffffffffffffffffffffff161461036a576040517f08c379a000000000000000000000000000000000000000000000000000000000815260040161036190611633565b60405180910390fd5b60055f8281526020019081526020015f205f6101000a81549073ffffffffffffffffffffffffffffffffffffffff0219169055807f7cc135e0cebb02c3480ae5d74d377283180a2601f8f644edf7987b009316c63a60405160405180910390a2827f673b38182859a514d734bdfcb49d3a05c4a641dec9311d9894c9717bcb79af76836040516103fa91906114cf565b60405180910390a281600881905550505050565b60075f9054906101000a900473ffffffffffffffffffffffffffffffffffffffff1673ffffffffffffffffffffffffffffffffffffffff163373ffffffffffffffffffffffffffffffffffffffff161461049d576040517f08c379a00000000000000000000000000000000000000000000000000000000081526004016104949061169b565b60405180910390fd5b5f60065f9054906101000a900473ffffffffffffffffffffffffffffffffffffffff1690503360065f6101000a81548173ffffffffffffffffffffffffffffffffffffffff021916908373ffffffffffffffffffffffffffffffffffffffff1602179055505f60075f6101000a81548173ffffffffffffffffffffffffffffffffffffffff021916908373ffffffffffffffffffffffffffffffffffffffff1602179055503373ffffffffffffffffffffffffffffffffffffffff168173ffffffffffffffffffffffffffffffffffffffff167f8be0079c531659141344cd1fd0a4f28419497f9722a3daafe3b4186f6b6457e060405160405180910390a350565b5f60065f9054906101000a900473ffffffffffffffffffffffffffffffffffffffff16905090565b6105cf6107f4565b5f6105d8610885565b90508073ffffffffffffffffffffffffffffffffffffffff1663a9059cbb338373ffffffffffffffffffffffffffffffffffffffff166370a08231306040518263ffffffff1660e01b815260040161063091906114a7565b602060405180830381865afa15801561064b573d5f5f3e3d5ffd5b505050506040513d601f19601f8201168201806040525081019061066f91906116cd565b6040518363ffffffff1660e01b815260040161068c9291906116f8565b6020604051808303815f875af11580156106a8573d5f5f3e3d5ffd5b505050506040513d601f19601f820116820180604052508101906106cc9190611754565b61070b576040517f08c379a0000000000000000000000000000000000000000000000000000000008152600401610702906117c9565b60405180910390fd5b50565b60085481565b61071c6107f4565b610725816108ad565b50565b6107306112ee565b6107386112ee565b61074f858585846109d9909392919063ffffffff16565b9150509392505050565b610770828460800151610a8890919063ffffffff16565b610787818460800151610a8890919063ffffffff16565b505050565b6107a3828460800151610a8890919063ffffffff16565b6107ba818460800151610aad90919063ffffffff16565b505050565b5f6107ec60035f9054906101000a900473ffffffffffffffffffffffffffffffffffffffff168484610b58565b905092915050565b60065f9054906101000a900473ffffffffffffffffffffffffffffffffffffffff1673ffffffffffffffffffffffffffffffffffffffff163373ffffffffffffffffffffffffffffffffffffffff1614610883576040517f08c379a000000000000000000000000000000000000000000000000000000000815260040161087a90611831565b60405180910390fd5b565b5f60025f9054906101000a900473ffffffffffffffffffffffffffffffffffffffff16905090565b3373ffffffffffffffffffffffffffffffffffffffff168173ffffffffffffffffffffffffffffffffffffffff160361091b576040517f08c379a000000000000000000000000000000000000000000000000000000000815260040161091290611899565b60405180910390fd5b8060075f6101000a81548173ffffffffffffffffffffffffffffffffffffffff021916908373ffffffffffffffffffffffffffffffffffffffff1602179055508073ffffffffffffffffffffffffffffffffffffffff1660065f9054906101000a900473ffffffffffffffffffffffffffffffffffffffff1673ffffffffffffffffffffffffffffffffffffffff167fed8889f560326eb138920d842192f0eb3dd22b4f139c87a2c57538e05bae127860405160405180910390a350565b6109e16112ee565b6109f18560800151610100610c1f565b5083855f01818152505082856020019073ffffffffffffffffffffffffffffffffffffffff16908173ffffffffffffffffffffffffffffffffffffffff16815250508185604001907bffffffffffffffffffffffffffffffffffffffffffffffffffffffff191690817bffffffffffffffffffffffffffffffffffffffffffffffffffffffff191681525050849050949350505050565b610a958260038351610c87565b610aa88183610e0c90919063ffffffff16565b505050565b7fffffffffffffffffffffffffffffffffffffffffffffffff0000000000000000811215610ae457610adf8282610e2d565b610b54565b67ffffffffffffffff811315610b0357610afe8282610ea4565b610b53565b5f8112610b1a57610b15825f83610c87565b610b52565b610b51826001837fffffffffffffffffffffffffffffffffffffffffffffffffffffffffffffffff610b4c91906118ed565b610c87565b5b5b5b5050565b5f5f6004549050600181610b6c919061192d565b6004819055505f634042994660e01b5f5f875f01513089604001518760018c608001515f0151604051602401610ba9989796959493929190611a0a565b604051602081830303815290604052907bffffffffffffffffffffffffffffffffffffffffffffffffffffffff19166020820180517bffffffffffffffffffffffffffffffffffffffffffffffffffffffff83818316178352505050509050610c1486838684610ef0565b925050509392505050565b610c27611354565b5f602083610c359190611aba565b14610c6157602082610c479190611aba565b6020610c539190611aea565b82610c5e919061192d565b91505b818360200181815250506040518084525f81528281016020016040525082905092915050565b60178167ffffffffffffffff1611610cbe57610cb88160058460ff16901b60ff16178461107d90919063ffffffff16565b50610e07565b60ff8167ffffffffffffffff1611610d1457610ced601860058460ff16901b178461107d90919063ffffffff16565b50610d0e8167ffffffffffffffff1660018561109c9092919063ffffffff16565b50610e06565b61ffff8167ffffffffffffffff1611610d6b57610d44601960058460ff16901b178461107d90919063ffffffff16565b50610d658167ffffffffffffffff1660028561109c9092919063ffffffff16565b50610e05565b63ffffffff8167ffffffffffffffff1611610dc457610d9d601a60058460ff16901b178461107d90919063ffffffff16565b50610dbe8167ffffffffffffffff1660048561109c9092919063ffffffff16565b50610e04565b610de1601b60058460ff16901b178461107d90919063ffffffff16565b50610e028167ffffffffffffffff1660088561109c9092919063ffffffff16565b505b5b5b5b505050565b610e14611354565b610e2583845f0151518485516110bd565b905092915050565b610e4b60036005600660ff16901b178361107d90919063ffffffff16565b50610ea082827fffffffffffffffffffffffffffffffffffffffffffffffffffffffffffffffff610e7c91906118ed565b604051602001610e8c91906114cf565b6040516020818303038152906040526111a9565b5050565b610ec260026005600660ff16901b178361107d90919063ffffffff16565b50610eec8282604051602001610ed891906114cf565b6040516020818303038152906040526111a9565b5050565b5f3084604051602001610f04929190611bce565b6040516020818303038152906040528051906020012090508460055f8381526020019081526020015f205f6101000a81548173ffffffffffffffffffffffffffffffffffffffff021916908373ffffffffffffffffffffffffffffffffffffffff160217905550807fb5e6e01e79f91267dc17b4e6314d5d4d03593d2ceee0fbb452b750bd70ea5af960405160405180910390a260025f9054906101000a900473ffffffffffffffffffffffffffffffffffffffff1673ffffffffffffffffffffffffffffffffffffffff16634000aea08685856040518463ffffffff1660e01b8152600401610ff693929190611bf9565b6020604051808303815f875af1158015611012573d5f5f3e3d5ffd5b505050506040513d601f19601f820116820180604052508101906110369190611754565b611075576040517f08c379a000000000000000000000000000000000000000000000000000000000815260040161106c90611ca5565b60405180910390fd5b949350505050565b611085611354565b61109483845f015151846111ce565b905092915050565b6110a4611354565b6110b484855f0151518585611224565b90509392505050565b6110c5611354565b82518211156110d2575f5ffd5b846020015182856110e3919061192d565b11156111185761111785600261110888602001518887611103919061192d565b6112b1565b6111129190611cc3565b6112cc565b5b5f5f8651805187602083010193508088870111156111365787860182525b60208701925050505b6020841061117d5780518252602082611158919061192d565b9150602081611167919061192d565b90506020846111769190611aea565b935061113f565b5f6001856020036101000a03905080198251168184511681811785525050508692505050949350505050565b6111b68260028351610c87565b6111c98183610e0c90919063ffffffff16565b505050565b6111d6611354565b836020015183106111fc576111fb84600286602001516111f69190611cc3565b6112cc565b5b83518051602085830101848153818603611217576001820183525b5050508390509392505050565b61122c611354565b8460200151848361123d919061192d565b1115611265576112648560028685611255919061192d565b61125f9190611cc3565b6112cc565b5b5f6001836101006112769190611e33565b6112809190611aea565b905085518386820101858319825116178152815185880111156112a35784870182525b505085915050949350505050565b5f818311156112c2578290506112c6565b8190505b92915050565b5f825f015190506112dd8383610c1f565b506112e88382610e0c565b50505050565b6040518060a001604052805f81526020015f73ffffffffffffffffffffffffffffffffffffffff1681526020015f7bffffffffffffffffffffffffffffffffffffffffffffffffffffffff191681526020015f815260200161134e611354565b81525090565b6040518060400160405280606081526020015f81525090565b5f5ffd5b5f819050919050565b61138381611371565b811461138d575f5ffd5b50565b5f8135905061139e8161137a565b92915050565b5f602082840312156113b9576113b861136d565b5b5f6113c684828501611390565b91505092915050565b5f819050919050565b6113e1816113cf565b82525050565b5f6020820190506113fa5f8301846113d8565b92915050565b611409816113cf565b8114611413575f5ffd5b50565b5f8135905061142481611400565b92915050565b5f5f604083850312156114405761143f61136d565b5b5f61144d85828601611416565b925050602061145e85828601611390565b9150509250929050565b5f73ffffffffffffffffffffffffffffffffffffffff82169050919050565b5f61149182611468565b9050919050565b6114a181611487565b82525050565b5f6020820190506114ba5f830184611498565b92915050565b6114c981611371565b82525050565b5f6020820190506114e25f8301846114c0565b92915050565b6114f181611487565b81146114fb575f5ffd5b50565b5f8135905061150c816114e8565b92915050565b5f602082840312156115275761152661136d565b5b5f611534848285016114fe565b91505092915050565b5f82825260208201905092915050565b7f4d616465207468652067657420726571756573740000000000000000000000005f82015250565b5f61158160148361153d565b915061158c8261154d565b602082019050919050565b5f6040820190508181035f8301526115ae81611575565b90506115bd60208301846114c0565b92915050565b7f536f75726365206d75737420626520746865206f7261636c65206f66207468655f8201527f2072657175657374000000000000000000000000000000000000000000000000602082015250565b5f61161d60288361153d565b9150611628826115c3565b604082019050919050565b5f6020820190508181035f83015261164a81611611565b9050919050565b7f4d7573742062652070726f706f736564206f776e6572000000000000000000005f82015250565b5f61168560168361153d565b915061169082611651565b602082019050919050565b5f6020820190508181035f8301526116b281611679565b9050919050565b5f815190506116c78161137a565b92915050565b5f602082840312156116e2576116e161136d565b5b5f6116ef848285016116b9565b91505092915050565b5f60408201905061170b5f830185611498565b61171860208301846114c0565b9392505050565b5f8115159050919050565b6117338161171f565b811461173d575f5ffd5b50565b5f8151905061174e8161172a565b92915050565b5f602082840312156117695761176861136d565b5b5f61177684828501611740565b91505092915050565b7f556e61626c6520746f207472616e7366657200000000000000000000000000005f82015250565b5f6117b360128361153d565b91506117be8261177f565b602082019050919050565b5f6020820190508181035f8301526117e0816117a7565b9050919050565b7f4f6e6c792063616c6c61626c65206279206f776e6572000000000000000000005f82015250565b5f61181b60168361153d565b9150611826826117e7565b602082019050919050565b5f6020820190508181035f8301526118488161180f565b9050919050565b7f43616e6e6f74207472616e7366657220746f2073656c660000000000000000005f82015250565b5f61188360178361153d565b915061188e8261184f565b602082019050919050565b5f6020820190508181035f8301526118b081611877565b9050919050565b5f819050919050565b7f4e487b71000000000000000000000000000000000000000000000000000000005f52601160045260245ffd5b5f6118f7826118b7565b9150611902836118b7565b925082820390508181125f8412168282135f851215161715611927576119266118c0565b5b92915050565b5f61193782611371565b915061194283611371565b925082820190508082111561195a576119596118c0565b5b92915050565b5f7fffffffff0000000000000000000000000000000000000000000000000000000082169050919050565b61199481611960565b82525050565b5f81519050919050565b5f82825260208201905092915050565b8281835e5f83830152505050565b5f601f19601f8301169050919050565b5f6119dc8261199a565b6119e681856119a4565b93506119f68185602086016119b4565b6119ff816119c2565b840191505092915050565b5f61010082019050611a1e5f83018b611498565b611a2b602083018a6114c0565b611a3860408301896113d8565b611a456060830188611498565b611a52608083018761198b565b611a5f60a08301866114c0565b611a6c60c08301856114c0565b81810360e0830152611a7e81846119d2565b90509998505050505050505050565b7f4e487b71000000000000000000000000000000000000000000000000000000005f52601260045260245ffd5b5f611ac482611371565b9150611acf83611371565b925082611adf57611ade611a8d565b5b828206905092915050565b5f611af482611371565b9150611aff83611371565b9250828203905081811115611b1757611b166118c0565b5b92915050565b5f819050919050565b5f611b40611b3b611b3684611468565b611b1d565b611468565b9050919050565b5f611b5182611b26565b9050919050565b5f611b6282611b47565b9050919050565b5f8160601b9050919050565b5f611b7f82611b69565b9050919050565b5f611b9082611b75565b9050919050565b611ba8611ba382611b58565b611b86565b82525050565b5f819050919050565b611bc8611bc382611371565b611bae565b82525050565b5f611bd98285611b97565b601482019150611be98284611bb7565b6020820191508190509392505050565b5f606082019050611c0c5f830186611498565b611c1960208301856114c0565b8181036040830152611c2b81846119d2565b9050949350505050565b7f756e61626c6520746f207472616e73666572416e6443616c6c20746f206f72615f8201527f636c650000000000000000000000000000000000000000000000000000000000602082015250565b5f611c8f60238361153d565b9150611c9a82611c35565b604082019050919050565b5f6020820190508181035f830152611cbc81611c83565b9050919050565b5f611ccd82611371565b9150611cd883611371565b9250828202611ce681611371565b91508282048414831517611cfd57611cfc6118c0565b5b5092915050565b5f8160011c9050919050565b5f5f8291508390505b6001851115611d5957808604811115611d3557611d346118c0565b5b6001851615611d445780820291505b8081029050611d5285611d04565b9450611d19565b94509492505050565b5f82611d715760019050611e2c565b81611d7e575f9050611e2c565b8160018114611d945760028114611d9e57611dcd565b6001915050611e2c565b60ff841115611db057611daf6118c0565b5b8360020a915084821115611dc757611dc66118c0565b5b50611e2c565b5060208310610133831016604e8410600b8410161715611e025782820a905083811115611dfd57611dfc6118c0565b5b611e2c565b611e0f8484846001611d10565b92509050818404811115611e2657611e256118c0565b5b81810290505b9392505050565b5f611e3d82611371565b9150611e4883611371565b9250611e757fffffffffffffffffffffffffffffffffffffffffffffffffffffffffffffffff8484611d62565b90509291505056fe68747470733a2f2f303835332d31342d3230302d37352d35342e6e67726f6b2d667265652e6170702f64617461a2646970667358221220f0076eddf508c7656cfe9aa0a3e10acc6b37ac181774e3c0c0d05c4c414edd7e64736f6c634300081d0033a264697066735822122060cfc829743bd67710324c5a7242c57f520eb516d6e739ebc25bcf7966a5fa1464736f6c634300081d0033",
			"opcodes": "PUSH1 0x80 PUSH1 0x40 MSTORE CALLVALUE DUP1 ISZERO PUSH1 0xE JUMPI PUSH0 PUSH0 REVERT JUMPDEST POP PUSH2 0x6061 DUP1 PUSH2 0x1C PUSH0 CODECOPY PUSH0 RETURN INVALID PUSH1 0x80 PUSH1 0x40 MSTORE PUSH1 0x4 CALLDATASIZE LT PUSH2 0xEB JUMPI PUSH0 CALLDATALOAD PUSH1 0xE0 SHR DUP1 PUSH4 0x775C300C GT PUSH2 0x89 JUMPI DUP1 PUSH4 0xD29709FB GT PUSH2 0x58 JUMPI DUP1 PUSH4 0xD29709FB EQ PUSH2 0x2E3 JUMPI DUP1 PUSH4 0xDDFC5CFE EQ PUSH2 0x2FF JUMPI DUP1 PUSH4 0xE0155714 EQ PUSH2 0x33E JUMPI DUP1 PUSH4 0xFF085CA0 EQ PUSH2 0x37A JUMPI PUSH2 0xF2 JUMP JUMPDEST DUP1 PUSH4 0x775C300C EQ PUSH2 0x21F JUMPI DUP1 PUSH4 0x840E78FD EQ PUSH2 0x235 JUMPI DUP1 PUSH4 0xAC1EFF68 EQ PUSH2 0x27B JUMPI DUP1 PUSH4 0xB43A57A9 EQ PUSH2 0x2B9 JUMPI PUSH2 0xF2 JUMP JUMPDEST DUP1 PUSH4 0x3BB060DB GT PUSH2 0xC5 JUMPI DUP1 PUSH4 0x3BB060DB EQ PUSH2 0x17A JUMPI DUP1 PUSH4 0x43DE681D EQ PUSH2 0x190 JUMPI DUP1 PUSH4 0x4EC508F9 EQ PUSH2 0x1BA JUMPI DUP1 PUSH4 0x5699FADC EQ PUSH2 0x1F7 JUMPI PUSH2 0xF2 JUMP JUMPDEST DUP1 PUSH4 0x242AB021 EQ PUSH2 0xF6 JUMPI DUP1 PUSH4 0x2E3803C6 EQ PUSH2 0x120 JUMPI DUP1 PUSH4 0x35AA2E44 EQ PUSH2 0x13C JUMPI PUSH2 0xF2 JUMP JUMPDEST CALLDATASIZE PUSH2 0xF2 JUMPI STOP JUMPDEST PUSH0 PUSH0 REVERT JUMPDEST CALLVALUE DUP1 ISZERO PUSH2 0x101 JUMPI PUSH0 PUSH0 REVERT JUMPDEST POP PUSH2 0x10A PUSH2 0x396 JUMP JUMPDEST PUSH1 0x40 MLOAD PUSH2 0x117 SWAP2 SWAP1 PUSH2 0x27D6 JUMP JUMPDEST PUSH1 0x40 MLOAD DUP1 SWAP2 SUB SWAP1 RETURN JUMPDEST PUSH2 0x13A PUSH1 0x4 DUP1 CALLDATASIZE SUB DUP2 ADD SWAP1 PUSH2 0x135 SWAP2 SWAP1 PUSH2 0x283B JUMP JUMPDEST PUSH2 0x3BA JUMP JUMPDEST STOP JUMPDEST CALLVALUE DUP1 ISZERO PUSH2 0x147 JUMPI PUSH0 PUSH0 REVERT JUMPDEST POP PUSH2 0x162 PUSH1 0x4 DUP1 CALLDATASIZE SUB DUP2 ADD SWAP1 PUSH2 0x15D SWAP2 SWAP1 PUSH2 0x2899 JUMP JUMPDEST PUSH2 0x501 JUMP JUMPDEST PUSH1 0x40 MLOAD PUSH2 0x171 SWAP4 SWAP3 SWAP2 SWAP1 PUSH2 0x295D JUMP JUMPDEST PUSH1 0x40 MLOAD DUP1 SWAP2 SUB SWAP1 RETURN JUMPDEST CALLVALUE DUP1 ISZERO PUSH2 0x185 JUMPI PUSH0 PUSH0 REVERT JUMPDEST POP PUSH2 0x18E PUSH2 0x5E7 JUMP JUMPDEST STOP JUMPDEST CALLVALUE DUP1 ISZERO PUSH2 0x19B JUMPI PUSH0 PUSH0 REVERT JUMPDEST POP PUSH2 0x1A4 PUSH2 0xDBC JUMP JUMPDEST PUSH1 0x40 MLOAD PUSH2 0x1B1 SWAP2 SWAP1 PUSH2 0x29A8 JUMP JUMPDEST PUSH1 0x40 MLOAD DUP1 SWAP2 SUB SWAP1 RETURN JUMPDEST CALLVALUE DUP1 ISZERO PUSH2 0x1C5 JUMPI PUSH0 PUSH0 REVERT JUMPDEST POP PUSH2 0x1E0 PUSH1 0x4 DUP1 CALLDATASIZE SUB DUP2 ADD SWAP1 PUSH2 0x1DB SWAP2 SWAP1 PUSH2 0x2899 JUMP JUMPDEST PUSH2 0xEBA JUMP JUMPDEST PUSH1 0x40 MLOAD PUSH2 0x1EE SWAP3 SWAP2 SWAP1 PUSH2 0x29C1 JUMP JUMPDEST PUSH1 0x40 MLOAD DUP1 SWAP2 SUB SWAP1 RETURN JUMPDEST CALLVALUE DUP1 ISZERO PUSH2 0x202 JUMPI PUSH0 PUSH0 REVERT JUMPDEST POP PUSH2 0x21D PUSH1 0x4 DUP1 CALLDATASIZE SUB DUP2 ADD SWAP1 PUSH2 0x218 SWAP2 SWAP1 PUSH2 0x2A0B JUMP JUMPDEST PUSH2 0xF72 JUMP JUMPDEST STOP JUMPDEST CALLVALUE DUP1 ISZERO PUSH2 0x22A JUMPI PUSH0 PUSH0 REVERT JUMPDEST POP PUSH2 0x233 PUSH2 0x1904 JUMP JUMPDEST STOP JUMPDEST CALLVALUE DUP1 ISZERO PUSH2 0x240 JUMPI PUSH0 PUSH0 REVERT JUMPDEST POP PUSH2 0x25B PUSH1 0x4 DUP1 CALLDATASIZE SUB DUP2 ADD SWAP1 PUSH2 0x256 SWAP2 SWAP1 PUSH2 0x2A71 JUMP JUMPDEST PUSH2 0x196A JUMP JUMPDEST PUSH1 0x40 MLOAD PUSH2 0x272 SWAP12 SWAP11 SWAP10 SWAP9 SWAP8 SWAP7 SWAP6 SWAP5 SWAP4 SWAP3 SWAP2 SWAP1 PUSH2 0x2B0F JUMP JUMPDEST PUSH1 0x40 MLOAD DUP1 SWAP2 SUB SWAP1 RETURN JUMPDEST CALLVALUE DUP1 ISZERO PUSH2 0x286 JUMPI PUSH0 PUSH0 REVERT JUMPDEST POP PUSH2 0x2A1 PUSH1 0x4 DUP1 CALLDATASIZE SUB DUP2 ADD SWAP1 PUSH2 0x29C SWAP2 SWAP1 PUSH2 0x2899 JUMP JUMPDEST PUSH2 0x1C10 JUMP JUMPDEST PUSH1 0x40 MLOAD PUSH2 0x2B0 SWAP4 SWAP3 SWAP2 SWAP1 PUSH2 0x295D JUMP JUMPDEST PUSH1 0x40 MLOAD DUP1 SWAP2 SUB SWAP1 RETURN JUMPDEST CALLVALUE DUP1 ISZERO PUSH2 0x2C4 JUMPI PUSH0 PUSH0 REVERT JUMPDEST POP PUSH2 0x2CD PUSH2 0x1CF6 JUMP JUMPDEST PUSH1 0x40 MLOAD PUSH2 0x2DA SWAP2 SWAP1 PUSH2 0x29A8 JUMP JUMPDEST PUSH1 0x40 MLOAD DUP1 SWAP2 SUB SWAP1 RETURN JUMPDEST PUSH2 0x2FD PUSH1 0x4 DUP1 CALLDATASIZE SUB DUP2 ADD SWAP1 PUSH2 0x2F8 SWAP2 SWAP1 PUSH2 0x2BD4 JUMP JUMPDEST PUSH2 0x1CFC JUMP JUMPDEST STOP JUMPDEST CALLVALUE DUP1 ISZERO PUSH2 0x30A JUMPI PUSH0 PUSH0 REVERT JUMPDEST POP PUSH2 0x325 PUSH1 0x4 DUP1 CALLDATASIZE SUB DUP2 ADD SWAP1 PUSH2 0x320 SWAP2 SWAP1 PUSH2 0x2A71 JUMP JUMPDEST PUSH2 0x1DAC JUMP JUMPDEST PUSH1 0x40 MLOAD PUSH2 0x335 SWAP5 SWAP4 SWAP3 SWAP2 SWAP1 PUSH2 0x2C12 JUMP JUMPDEST PUSH1 0x40 MLOAD DUP1 SWAP2 SUB SWAP1 RETURN JUMPDEST CALLVALUE DUP1 ISZERO PUSH2 0x349 JUMPI PUSH0 PUSH0 REVERT JUMPDEST POP PUSH2 0x364 PUSH1 0x4 DUP1 CALLDATASIZE SUB DUP2 ADD SWAP1 PUSH2 0x35F SWAP2 SWAP1 PUSH2 0x2899 JUMP JUMPDEST PUSH2 0x1E7D JUMP JUMPDEST PUSH1 0x40 MLOAD PUSH2 0x371 SWAP2 SWAP1 PUSH2 0x2C5C JUMP JUMPDEST PUSH1 0x40 MLOAD DUP1 SWAP2 SUB SWAP1 RETURN JUMPDEST PUSH2 0x394 PUSH1 0x4 DUP1 CALLDATASIZE SUB DUP2 ADD SWAP1 PUSH2 0x38F SWAP2 SWAP1 PUSH2 0x31A0 JUMP JUMPDEST PUSH2 0x1ECB JUMP JUMPDEST STOP JUMPDEST PUSH0 PUSH0 SWAP1 SLOAD SWAP1 PUSH2 0x100 EXP SWAP1 DIV PUSH20 0xFFFFFFFFFFFFFFFFFFFFFFFFFFFFFFFFFFFFFFFF AND DUP2 JUMP JUMPDEST PUSH0 PUSH1 0x5 PUSH0 DUP4 PUSH20 0xFFFFFFFFFFFFFFFFFFFFFFFFFFFFFFFFFFFFFFFF AND PUSH20 0xFFFFFFFFFFFFFFFFFFFFFFFFFFFFFFFFFFFFFFFF AND DUP2 MSTORE PUSH1 0x20 ADD SWAP1 DUP2 MSTORE PUSH1 0x20 ADD PUSH0 KECCAK256 PUSH1 0x2 ADD SLOAD SUB PUSH2 0x45D JUMPI PUSH1 0x1 PUSH1 0x5 PUSH0 DUP4 PUSH20 0xFFFFFFFFFFFFFFFFFFFFFFFFFFFFFFFFFFFFFFFF AND PUSH20 0xFFFFFFFFFFFFFFFFFFFFFFFFFFFFFFFFFFFFFFFF AND DUP2 MSTORE PUSH1 0x20 ADD SWAP1 DUP2 MSTORE PUSH1 0x20 ADD PUSH0 KECCAK256 PUSH1 0x2 ADD PUSH0 DUP3 DUP3 SLOAD PUSH2 0x451 SWAP2 SWAP1 PUSH2 0x3243 JUMP JUMPDEST SWAP3 POP POP DUP2 SWAP1 SSTORE POP PUSH2 0x4FE JUMP JUMPDEST PUSH1 0xA PUSH1 0x5 PUSH0 DUP4 PUSH20 0xFFFFFFFFFFFFFFFFFFFFFFFFFFFFFFFFFFFFFFFF AND PUSH20 0xFFFFFFFFFFFFFFFFFFFFFFFFFFFFFFFFFFFFFFFF AND DUP2 MSTORE PUSH1 0x20 ADD SWAP1 DUP2 MSTORE PUSH1 0x20 ADD PUSH0 KECCAK256 PUSH1 0x2 ADD SLOAD SUB PUSH2 0x4FD JUMPI PUSH1 0x1 PUSH1 0x5 PUSH0 DUP4 PUSH20 0xFFFFFFFFFFFFFFFFFFFFFFFFFFFFFFFFFFFFFFFF AND PUSH20 0xFFFFFFFFFFFFFFFFFFFFFFFFFFFFFFFFFFFFFFFF AND DUP2 MSTORE PUSH1 0x20 ADD SWAP1 DUP2 MSTORE PUSH1 0x20 ADD PUSH0 KECCAK256 PUSH1 0x2 ADD PUSH0 DUP3 DUP3 SLOAD PUSH2 0x4F5 SWAP2 SWAP1 PUSH2 0x3276 JUMP JUMPDEST SWAP3 POP POP DUP2 SWAP1 SSTORE POP JUMPDEST JUMPDEST POP JUMP JUMPDEST PUSH1 0x2 DUP2 DUP2 SLOAD DUP2 LT PUSH2 0x510 JUMPI PUSH0 DUP1 REVERT JUMPDEST SWAP1 PUSH0 MSTORE PUSH1 0x20 PUSH0 KECCAK256 SWAP1 PUSH1 0x2 MUL ADD PUSH0 SWAP2 POP SWAP1 POP DUP1 PUSH0 ADD PUSH0 SWAP1 SLOAD SWAP1 PUSH2 0x100 EXP SWAP1 DIV PUSH20 0xFFFFFFFFFFFFFFFFFFFFFFFFFFFFFFFFFFFFFFFF AND SWAP1 DUP1 PUSH0 ADD PUSH1 0x14 SWAP1 SLOAD SWAP1 PUSH2 0x100 EXP SWAP1 DIV PUSH1 0xFF AND SWAP1 DUP1 PUSH1 0x1 ADD DUP1 SLOAD PUSH2 0x566 SWAP1 PUSH2 0x32D6 JUMP JUMPDEST DUP1 PUSH1 0x1F ADD PUSH1 0x20 DUP1 SWAP2 DIV MUL PUSH1 0x20 ADD PUSH1 0x40 MLOAD SWAP1 DUP2 ADD PUSH1 0x40 MSTORE DUP1 SWAP3 SWAP2 SWAP1 DUP2 DUP2 MSTORE PUSH1 0x20 ADD DUP3 DUP1 SLOAD PUSH2 0x592 SWAP1 PUSH2 0x32D6 JUMP JUMPDEST DUP1 ISZERO PUSH2 0x5DD JUMPI DUP1 PUSH1 0x1F LT PUSH2 0x5B4 JUMPI PUSH2 0x100 DUP1 DUP4 SLOAD DIV MUL DUP4 MSTORE SWAP2 PUSH1 0x20 ADD SWAP2 PUSH2 0x5DD JUMP JUMPDEST DUP3 ADD SWAP2 SWAP1 PUSH0 MSTORE PUSH1 0x20 PUSH0 KECCAK256 SWAP1 JUMPDEST DUP2 SLOAD DUP2 MSTORE SWAP1 PUSH1 0x1 ADD SWAP1 PUSH1 0x20 ADD DUP1 DUP4 GT PUSH2 0x5C0 JUMPI DUP3 SWAP1 SUB PUSH1 0x1F AND DUP3 ADD SWAP2 JUMPDEST POP POP POP POP POP SWAP1 POP DUP4 JUMP JUMPDEST PUSH0 PUSH20 0xFFFFFFFFFFFFFFFFFFFFFFFFFFFFFFFFFFFFFFFF AND PUSH0 PUSH0 SWAP1 SLOAD SWAP1 PUSH2 0x100 EXP SWAP1 DIV PUSH20 0xFFFFFFFFFFFFFFFFFFFFFFFFFFFFFFFFFFFFFFFF AND PUSH20 0xFFFFFFFFFFFFFFFFFFFFFFFFFFFFFFFFFFFFFFFF AND SUB PUSH2 0x675 JUMPI PUSH1 0x40 MLOAD PUSH32 0x8C379A000000000000000000000000000000000000000000000000000000000 DUP2 MSTORE PUSH1 0x4 ADD PUSH2 0x66C SWAP1 PUSH2 0x3350 JUMP JUMPDEST PUSH1 0x40 MLOAD DUP1 SWAP2 SUB SWAP1 REVERT JUMPDEST PUSH0 PUSH1 0x40 MLOAD DUP1 PUSH1 0x60 ADD PUSH1 0x40 MSTORE DUP1 PUSH20 0x5B38DA6A701C568545DCFCB03FCB875F56BEDDC4 PUSH20 0xFFFFFFFFFFFFFFFFFFFFFFFFFFFFFFFFFFFFFFFF AND DUP2 MSTORE PUSH1 0x20 ADD PUSH1 0x1 ISZERO ISZERO DUP2 MSTORE PUSH1 0x20 ADD PUSH1 0x40 MLOAD DUP1 PUSH1 0x20 ADD PUSH1 0x40 MSTORE DUP1 PUSH0 DUP2 MSTORE POP DUP2 MSTORE POP SWAP1 POP PUSH1 0x2 DUP2 SWAP1 DUP1 PUSH1 0x1 DUP2 SLOAD ADD DUP1 DUP3 SSTORE DUP1 SWAP2 POP POP PUSH1 0x1 SWAP1 SUB SWAP1 PUSH0 MSTORE PUSH1 0x20 PUSH0 KECCAK256 SWAP1 PUSH1 0x2 MUL ADD PUSH0 SWAP1 SWAP2 SWAP1 SWAP2 SWAP1 SWAP2 POP PUSH0 DUP3 ADD MLOAD DUP2 PUSH0 ADD PUSH0 PUSH2 0x100 EXP DUP2 SLOAD DUP2 PUSH20 0xFFFFFFFFFFFFFFFFFFFFFFFFFFFFFFFFFFFFFFFF MUL NOT AND SWAP1 DUP4 PUSH20 0xFFFFFFFFFFFFFFFFFFFFFFFFFFFFFFFFFFFFFFFF AND MUL OR SWAP1 SSTORE POP PUSH1 0x20 DUP3 ADD MLOAD DUP2 PUSH0 ADD PUSH1 0x14 PUSH2 0x100 EXP DUP2 SLOAD DUP2 PUSH1 0xFF MUL NOT AND SWAP1 DUP4 ISZERO ISZERO MUL OR SWAP1 SSTORE POP PUSH1 0x40 DUP3 ADD MLOAD DUP2 PUSH1 0x1 ADD SWAP1 DUP2 PUSH2 0x76F SWAP2 SWAP1 PUSH2 0x3505 JUMP JUMPDEST POP POP POP PUSH1 0x3 DUP2 SWAP1 DUP1 PUSH1 0x1 DUP2 SLOAD ADD DUP1 DUP3 SSTORE DUP1 SWAP2 POP POP PUSH1 0x1 SWAP1 SUB SWAP1 PUSH0 MSTORE PUSH1 0x20 PUSH0 KECCAK256 SWAP1 PUSH1 0x2 MUL ADD PUSH0 SWAP1 SWAP2 SWAP1 SWAP2 SWAP1 SWAP2 POP PUSH0 DUP3 ADD MLOAD DUP2 PUSH0 ADD PUSH0 PUSH2 0x100 EXP DUP2 SLOAD DUP2 PUSH20 0xFFFFFFFFFFFFFFFFFFFFFFFFFFFFFFFFFFFFFFFF MUL NOT AND SWAP1 DUP4 PUSH20 0xFFFFFFFFFFFFFFFFFFFFFFFFFFFFFFFFFFFFFFFF AND MUL OR SWAP1 SSTORE POP PUSH1 0x20 DUP3 ADD MLOAD DUP2 PUSH0 ADD PUSH1 0x14 PUSH2 0x100 EXP DUP2 SLOAD DUP2 PUSH1 0xFF MUL NOT AND SWAP1 DUP4 ISZERO ISZERO MUL OR SWAP1 SSTORE POP PUSH1 0x40 DUP3 ADD MLOAD DUP2 PUSH1 0x1 ADD SWAP1 DUP2 PUSH2 0x813 SWAP2 SWAP1 PUSH2 0x3505 JUMP JUMPDEST POP POP POP PUSH0 PUSH1 0x40 MLOAD DUP1 PUSH1 0x60 ADD PUSH1 0x40 MSTORE DUP1 PUSH20 0xAB8483F64D9C6D1ECF9B849AE677DD3315835CB2 PUSH20 0xFFFFFFFFFFFFFFFFFFFFFFFFFFFFFFFFFFFFFFFF AND DUP2 MSTORE PUSH1 0x20 ADD PUSH1 0x1 ISZERO ISZERO DUP2 MSTORE PUSH1 0x20 ADD PUSH1 0x40 MLOAD DUP1 PUSH1 0x20 ADD PUSH1 0x40 MSTORE DUP1 PUSH0 DUP2 MSTORE POP DUP2 MSTORE POP SWAP1 POP PUSH1 0x2 DUP2 SWAP1 DUP1 PUSH1 0x1 DUP2 SLOAD ADD DUP1 DUP3 SSTORE DUP1 SWAP2 POP POP PUSH1 0x1 SWAP1 SUB SWAP1 PUSH0 MSTORE PUSH1 0x20 PUSH0 KECCAK256 SWAP1 PUSH1 0x2 MUL ADD PUSH0 SWAP1 SWAP2 SWAP1 SWAP2 SWAP1 SWAP2 POP PUSH0 DUP3 ADD MLOAD DUP2 PUSH0 ADD PUSH0 PUSH2 0x100 EXP DUP2 SLOAD DUP2 PUSH20 0xFFFFFFFFFFFFFFFFFFFFFFFFFFFFFFFFFFFFFFFF MUL NOT AND SWAP1 DUP4 PUSH20 0xFFFFFFFFFFFFFFFFFFFFFFFFFFFFFFFFFFFFFFFF AND MUL OR SWAP1 SSTORE POP PUSH1 0x20 DUP3 ADD MLOAD DUP2 PUSH0 ADD PUSH1 0x14 PUSH2 0x100 EXP DUP2 SLOAD DUP2 PUSH1 0xFF MUL NOT AND SWAP1 DUP4 ISZERO ISZERO MUL OR SWAP1 SSTORE POP PUSH1 0x40 DUP3 ADD MLOAD DUP2 PUSH1 0x1 ADD SWAP1 DUP2 PUSH2 0x910 SWAP2 SWAP1 PUSH2 0x3505 JUMP JUMPDEST POP POP POP PUSH1 0x3 DUP2 SWAP1 DUP1 PUSH1 0x1 DUP2 SLOAD ADD DUP1 DUP3 SSTORE DUP1 SWAP2 POP POP PUSH1 0x1 SWAP1 SUB SWAP1 PUSH0 MSTORE PUSH1 0x20 PUSH0 KECCAK256 SWAP1 PUSH1 0x2 MUL ADD PUSH0 SWAP1 SWAP2 SWAP1 SWAP2 SWAP1 SWAP2 POP PUSH0 DUP3 ADD MLOAD DUP2 PUSH0 ADD PUSH0 PUSH2 0x100 EXP DUP2 SLOAD DUP2 PUSH20 0xFFFFFFFFFFFFFFFFFFFFFFFFFFFFFFFFFFFFFFFF MUL NOT AND SWAP1 DUP4 PUSH20 0xFFFFFFFFFFFFFFFFFFFFFFFFFFFFFFFFFFFFFFFF AND MUL OR SWAP1 SSTORE POP PUSH1 0x20 DUP3 ADD MLOAD DUP2 PUSH0 ADD PUSH1 0x14 PUSH2 0x100 EXP DUP2 SLOAD DUP2 PUSH1 0xFF MUL NOT AND SWAP1 DUP4 ISZERO ISZERO MUL OR SWAP1 SSTORE POP PUSH1 0x40 DUP3 ADD MLOAD DUP2 PUSH1 0x1 ADD SWAP1 DUP2 PUSH2 0x9B4 SWAP2 SWAP1 PUSH2 0x3505 JUMP JUMPDEST POP POP POP PUSH0 PUSH1 0x40 MLOAD DUP1 PUSH1 0x60 ADD PUSH1 0x40 MSTORE DUP1 PUSH20 0x4B20993BC481177EC7E8F571CECAE8A9E22C02DB PUSH20 0xFFFFFFFFFFFFFFFFFFFFFFFFFFFFFFFFFFFFFFFF AND DUP2 MSTORE PUSH1 0x20 ADD PUSH1 0x1 ISZERO ISZERO DUP2 MSTORE PUSH1 0x20 ADD PUSH1 0x40 MLOAD DUP1 PUSH1 0x20 ADD PUSH1 0x40 MSTORE DUP1 PUSH0 DUP2 MSTORE POP DUP2 MSTORE POP SWAP1 POP PUSH1 0x2 DUP2 SWAP1 DUP1 PUSH1 0x1 DUP2 SLOAD ADD DUP1 DUP3 SSTORE DUP1 SWAP2 POP POP PUSH1 0x1 SWAP1 SUB SWAP1 PUSH0 MSTORE PUSH1 0x20 PUSH0 KECCAK256 SWAP1 PUSH1 0x2 MUL ADD PUSH0 SWAP1 SWAP2 SWAP1 SWAP2 SWAP1 SWAP2 POP PUSH0 DUP3 ADD MLOAD DUP2 PUSH0 ADD PUSH0 PUSH2 0x100 EXP DUP2 SLOAD DUP2 PUSH20 0xFFFFFFFFFFFFFFFFFFFFFFFFFFFFFFFFFFFFFFFF MUL NOT AND SWAP1 DUP4 PUSH20 0xFFFFFFFFFFFFFFFFFFFFFFFFFFFFFFFFFFFFFFFF AND MUL OR SWAP1 SSTORE POP PUSH1 0x20 DUP3 ADD MLOAD DUP2 PUSH0 ADD PUSH1 0x14 PUSH2 0x100 EXP DUP2 SLOAD DUP2 PUSH1 0xFF MUL NOT AND SWAP1 DUP4 ISZERO ISZERO MUL OR SWAP1 SSTORE POP PUSH1 0x40 DUP3 ADD MLOAD DUP2 PUSH1 0x1 ADD SWAP1 DUP2 PUSH2 0xAB1 SWAP2 SWAP1 PUSH2 0x3505 JUMP JUMPDEST POP POP POP PUSH1 0x3 DUP2 SWAP1 DUP1 PUSH1 0x1 DUP2 SLOAD ADD DUP1 DUP3 SSTORE DUP1 SWAP2 POP POP PUSH1 0x1 SWAP1 SUB SWAP1 PUSH0 MSTORE PUSH1 0x20 PUSH0 KECCAK256 SWAP1 PUSH1 0x2 MUL ADD PUSH0 SWAP1 SWAP2 SWAP1 SWAP2 SWAP1 SWAP2 POP PUSH0 DUP3 ADD MLOAD DUP2 PUSH0 ADD PUSH0 PUSH2 0x100 EXP DUP2 SLOAD DUP2 PUSH20 0xFFFFFFFFFFFFFFFFFFFFFFFFFFFFFFFFFFFFFFFF MUL NOT AND SWAP1 DUP4 PUSH20 0xFFFFFFFFFFFFFFFFFFFFFFFFFFFFFFFFFFFFFFFF AND MUL OR SWAP1 SSTORE POP PUSH1 0x20 DUP3 ADD MLOAD DUP2 PUSH0 ADD PUSH1 0x14 PUSH2 0x100 EXP DUP2 SLOAD DUP2 PUSH1 0xFF MUL NOT AND SWAP1 DUP4 ISZERO ISZERO MUL OR SWAP1 SSTORE POP PUSH1 0x40 DUP3 ADD MLOAD DUP2 PUSH1 0x1 ADD SWAP1 DUP2 PUSH2 0xB55 SWAP2 SWAP1 PUSH2 0x3505 JUMP JUMPDEST POP POP POP PUSH0 PUSH1 0x4 PUSH0 CALLER PUSH20 0xFFFFFFFFFFFFFFFFFFFFFFFFFFFFFFFFFFFFFFFF AND PUSH20 0xFFFFFFFFFFFFFFFFFFFFFFFFFFFFFFFFFFFFFFFF AND DUP2 MSTORE PUSH1 0x20 ADD SWAP1 DUP2 MSTORE PUSH1 0x20 ADD PUSH0 KECCAK256 SWAP1 POP PUSH4 0x499602D2 DUP2 PUSH0 ADD DUP2 SWAP1 SSTORE POP PUSH20 0xCBD38ADA2D31C7071E041FC8F8C1DA9DF9C76DD4 DUP2 PUSH1 0x1 ADD PUSH0 PUSH2 0x100 EXP DUP2 SLOAD DUP2 PUSH20 0xFFFFFFFFFFFFFFFFFFFFFFFFFFFFFFFFFFFFFFFF MUL NOT AND SWAP1 DUP4 PUSH20 0xFFFFFFFFFFFFFFFFFFFFFFFFFFFFFFFFFFFFFFFF AND MUL OR SWAP1 SSTORE POP PUSH1 0x40 MLOAD DUP1 PUSH1 0x20 ADD PUSH1 0x40 MSTORE DUP1 PUSH0 DUP2 MSTORE POP DUP2 PUSH1 0x2 ADD SWAP1 DUP2 PUSH2 0xC19 SWAP2 SWAP1 PUSH2 0x3505 JUMP JUMPDEST POP PUSH1 0x1 DUP2 PUSH1 0x3 ADD DUP2 SWAP1 SSTORE POP PUSH3 0x69780 DUP2 PUSH1 0x4 ADD DUP2 SWAP1 SSTORE POP PUSH1 0x40 MLOAD DUP1 PUSH1 0x20 ADD PUSH1 0x40 MSTORE DUP1 PUSH0 DUP2 MSTORE POP DUP2 PUSH1 0x5 ADD SWAP1 DUP2 PUSH2 0xC4F SWAP2 SWAP1 PUSH2 0x3505 JUMP JUMPDEST POP PUSH10 0x1D9CA7A480674860000 DUP2 PUSH1 0x6 ADD DUP2 SWAP1 SSTORE POP PUSH1 0x40 MLOAD DUP1 PUSH1 0x20 ADD PUSH1 0x40 MSTORE DUP1 PUSH0 DUP2 MSTORE POP DUP2 PUSH1 0x7 ADD SWAP1 DUP2 PUSH2 0xC82 SWAP2 SWAP1 PUSH2 0x3505 JUMP JUMPDEST POP PUSH1 0x40 MLOAD DUP1 PUSH1 0x20 ADD PUSH1 0x40 MSTORE DUP1 PUSH0 DUP2 MSTORE POP DUP2 PUSH1 0x8 ADD SWAP1 DUP2 PUSH2 0xCA2 SWAP2 SWAP1 PUSH2 0x3505 JUMP JUMPDEST POP PUSH1 0x2 DUP2 PUSH1 0x9 ADD SWAP1 DUP1 SLOAD PUSH2 0xCB7 SWAP3 SWAP2 SWAP1 PUSH2 0x25A2 JUMP JUMPDEST POP PUSH1 0x3 DUP2 PUSH1 0xA ADD SWAP1 DUP1 SLOAD PUSH2 0xCCC SWAP3 SWAP2 SWAP1 PUSH2 0x25A2 JUMP JUMPDEST POP PUSH1 0x1 DUP2 PUSH1 0xB ADD PUSH0 PUSH2 0x100 EXP DUP2 SLOAD DUP2 PUSH1 0xFF MUL NOT AND SWAP1 DUP4 PUSH1 0x4 DUP2 GT ISZERO PUSH2 0xCF4 JUMPI PUSH2 0xCF3 PUSH2 0x2A9C JUMP JUMPDEST JUMPDEST MUL OR SWAP1 SSTORE POP PUSH1 0x1 DUP2 PUSH1 0xB ADD PUSH1 0x1 PUSH2 0x100 EXP DUP2 SLOAD DUP2 PUSH1 0xFF MUL NOT AND SWAP1 DUP4 ISZERO ISZERO MUL OR SWAP1 SSTORE POP PUSH0 PUSH0 PUSH0 SWAP1 SLOAD SWAP1 PUSH2 0x100 EXP SWAP1 DIV PUSH20 0xFFFFFFFFFFFFFFFFFFFFFFFFFFFFFFFFFFFFFFFF AND PUSH20 0xFFFFFFFFFFFFFFFFFFFFFFFFFFFFFFFFFFFFFFFF AND PUSH4 0x2ADB9E3C PUSH1 0x1 PUSH1 0x40 MLOAD DUP3 PUSH4 0xFFFFFFFF AND PUSH1 0xE0 SHL DUP2 MSTORE PUSH1 0x4 ADD PUSH2 0xD71 SWAP2 SWAP1 PUSH2 0x360D JUMP JUMPDEST PUSH1 0x20 PUSH1 0x40 MLOAD DUP1 DUP4 SUB DUP2 PUSH0 DUP8 GAS CALL ISZERO DUP1 ISZERO PUSH2 0xD8D JUMPI RETURNDATASIZE PUSH0 PUSH0 RETURNDATACOPY RETURNDATASIZE PUSH0 REVERT JUMPDEST POP POP POP POP PUSH1 0x40 MLOAD RETURNDATASIZE PUSH1 0x1F NOT PUSH1 0x1F DUP3 ADD AND DUP3 ADD DUP1 PUSH1 0x40 MSTORE POP DUP2 ADD SWAP1 PUSH2 0xDB1 SWAP2 SWAP1 PUSH2 0x3659 JUMP JUMPDEST PUSH0 SHR SWAP1 POP POP POP POP POP POP JUMP JUMPDEST PUSH0 PUSH0 PUSH1 0x5 PUSH0 CALLER PUSH20 0xFFFFFFFFFFFFFFFFFFFFFFFFFFFFFFFFFFFFFFFF AND PUSH20 0xFFFFFFFFFFFFFFFFFFFFFFFFFFFFFFFFFFFFFFFF AND DUP2 MSTORE PUSH1 0x20 ADD SWAP1 DUP2 MSTORE PUSH1 0x20 ADD PUSH0 KECCAK256 SWAP1 POP PUSH1 0x40 MLOAD DUP1 PUSH1 0x40 ADD PUSH1 0x40 MSTORE DUP1 PUSH1 0x3 DUP2 MSTORE PUSH1 0x20 ADD PUSH32 0x53616D0000000000000000000000000000000000000000000000000000000000 DUP2 MSTORE POP DUP2 PUSH1 0x1 ADD SWAP1 DUP2 PUSH2 0xE43 SWAP2 SWAP1 PUSH2 0x3505 JUMP JUMPDEST POP PUSH20 0xCBD38ADA2D31C7071E041FC8F8C1DA9DF9C76DD4 DUP2 PUSH0 ADD PUSH0 PUSH2 0x100 EXP DUP2 SLOAD DUP2 PUSH20 0xFFFFFFFFFFFFFFFFFFFFFFFFFFFFFFFFFFFFFFFF MUL NOT AND SWAP1 DUP4 PUSH20 0xFFFFFFFFFFFFFFFFFFFFFFFFFFFFFFFFFFFFFFFF AND MUL OR SWAP1 SSTORE POP PUSH1 0xA DUP2 PUSH1 0x2 ADD DUP2 SWAP1 SSTORE POP PUSH3 0xF4240 DUP2 PUSH1 0x3 ADD DUP2 SWAP1 SSTORE POP DUP1 PUSH1 0x2 ADD SLOAD SWAP2 POP POP SWAP1 JUMP JUMPDEST PUSH0 PUSH0 PUSH0 PUSH1 0x5 DUP5 PUSH2 0xECA SWAP2 SWAP1 PUSH2 0x3684 JUMP JUMPDEST PUSH2 0x3E8 PUSH2 0xED7 SWAP2 SWAP1 PUSH2 0x36F2 JUMP JUMPDEST SWAP1 POP PUSH0 DUP2 PUSH2 0x3E8 PUSH2 0xEE8 SWAP2 SWAP1 PUSH2 0x3276 JUMP JUMPDEST SWAP1 POP PUSH32 0x135290006F1871309577D248CF00619459A79B4A735638108A2BB080319C90D6 PUSH2 0x7D0 DUP4 PUSH2 0xF19 SWAP2 SWAP1 PUSH2 0x3243 JUMP JUMPDEST PUSH1 0x40 MLOAD PUSH2 0xF26 SWAP2 SWAP1 PUSH2 0x3792 JUMP JUMPDEST PUSH1 0x40 MLOAD DUP1 SWAP2 SUB SWAP1 LOG1 PUSH32 0x135290006F1871309577D248CF00619459A79B4A735638108A2BB080319C90D6 DUP2 PUSH1 0x40 MLOAD PUSH2 0xF5D SWAP2 SWAP1 PUSH2 0x3808 JUMP JUMPDEST PUSH1 0x40 MLOAD DUP1 SWAP2 SUB SWAP1 LOG1 DUP2 DUP2 SWAP4 POP SWAP4 POP POP POP SWAP2 POP SWAP2 JUMP JUMPDEST DUP1 PUSH1 0x4 PUSH0 CALLER PUSH20 0xFFFFFFFFFFFFFFFFFFFFFFFFFFFFFFFFFFFFFFFF AND PUSH20 0xFFFFFFFFFFFFFFFFFFFFFFFFFFFFFFFFFFFFFFFF AND DUP2 MSTORE PUSH1 0x20 ADD SWAP1 DUP2 MSTORE PUSH1 0x20 ADD PUSH0 KECCAK256 PUSH1 0xB ADD PUSH0 PUSH2 0x100 EXP DUP2 SLOAD DUP2 PUSH1 0xFF MUL NOT AND SWAP1 DUP4 PUSH1 0x4 DUP2 GT ISZERO PUSH2 0xFD4 JUMPI PUSH2 0xFD3 PUSH2 0x2A9C JUMP JUMPDEST JUMPDEST MUL OR SWAP1 SSTORE POP PUSH1 0x3 PUSH1 0x4 DUP2 GT ISZERO PUSH2 0xFED JUMPI PUSH2 0xFEC PUSH2 0x2A9C JUMP JUMPDEST JUMPDEST DUP2 PUSH1 0x4 DUP2 GT ISZERO PUSH2 0x1000 JUMPI PUSH2 0xFFF PUSH2 0x2A9C JUMP JUMPDEST JUMPDEST EQ DUP1 PUSH2 0x102F JUMPI POP PUSH1 0x4 DUP1 DUP2 GT ISZERO PUSH2 0x101A JUMPI PUSH2 0x1019 PUSH2 0x2A9C JUMP JUMPDEST JUMPDEST DUP2 PUSH1 0x4 DUP2 GT ISZERO PUSH2 0x102D JUMPI PUSH2 0x102C PUSH2 0x2A9C JUMP JUMPDEST JUMPDEST EQ JUMPDEST ISZERO PUSH2 0x1901 JUMPI PUSH1 0x4 SELFBALANCE LT PUSH2 0x18CA JUMPI PUSH0 PUSH0 SWAP1 SLOAD SWAP1 PUSH2 0x100 EXP SWAP1 DIV PUSH20 0xFFFFFFFFFFFFFFFFFFFFFFFFFFFFFFFFFFFFFFFF AND PUSH20 0xFFFFFFFFFFFFFFFFFFFFFFFFFFFFFFFFFFFFFFFF AND PUSH4 0xC618A1E4 PUSH1 0x40 MLOAD DUP2 PUSH4 0xFFFFFFFF AND PUSH1 0xE0 SHL DUP2 MSTORE PUSH1 0x4 ADD PUSH1 0x20 PUSH1 0x40 MLOAD DUP1 DUP4 SUB DUP2 DUP7 GAS STATICCALL ISZERO DUP1 ISZERO PUSH2 0x10A5 JUMPI RETURNDATASIZE PUSH0 PUSH0 RETURNDATACOPY RETURNDATASIZE PUSH0 REVERT JUMPDEST POP POP POP POP PUSH1 0x40 MLOAD RETURNDATASIZE PUSH1 0x1F NOT PUSH1 0x1F DUP3 ADD AND DUP3 ADD DUP1 PUSH1 0x40 MSTORE POP DUP2 ADD SWAP1 PUSH2 0x10C9 SWAP2 SWAP1 PUSH2 0x3848 JUMP JUMPDEST PUSH1 0x1 DUP2 SWAP1 SSTORE POP PUSH0 PUSH0 PUSH0 SWAP1 SLOAD SWAP1 PUSH2 0x100 EXP SWAP1 DIV PUSH20 0xFFFFFFFFFFFFFFFFFFFFFFFFFFFFFFFFFFFFFFFF AND PUSH20 0xFFFFFFFFFFFFFFFFFFFFFFFFFFFFFFFFFFFFFFFF AND PUSH4 0x2ADB9E3C PUSH1 0x1 PUSH1 0x40 MLOAD DUP3 PUSH4 0xFFFFFFFF AND PUSH1 0xE0 SHL DUP2 MSTORE PUSH1 0x4 ADD PUSH2 0x112A SWAP2 SWAP1 PUSH2 0x360D JUMP JUMPDEST PUSH1 0x20 PUSH1 0x40 MLOAD DUP1 DUP4 SUB DUP2 PUSH0 DUP8 GAS CALL ISZERO DUP1 ISZERO PUSH2 0x1146 JUMPI RETURNDATASIZE PUSH0 PUSH0 RETURNDATACOPY RETURNDATASIZE PUSH0 REVERT JUMPDEST POP POP POP POP PUSH1 0x40 MLOAD RETURNDATASIZE PUSH1 0x1F NOT PUSH1 0x1F DUP3 ADD AND DUP3 ADD DUP1 PUSH1 0x40 MSTORE POP DUP2 ADD SWAP1 PUSH2 0x116A SWAP2 SWAP1 PUSH2 0x3659 JUMP JUMPDEST PUSH0 SHR SWAP1 POP PUSH2 0x18C4 PUSH1 0x4 PUSH0 CALLER PUSH20 0xFFFFFFFFFFFFFFFFFFFFFFFFFFFFFFFFFFFFFFFF AND PUSH20 0xFFFFFFFFFFFFFFFFFFFFFFFFFFFFFFFFFFFFFFFF AND DUP2 MSTORE PUSH1 0x20 ADD SWAP1 DUP2 MSTORE PUSH1 0x20 ADD PUSH0 KECCAK256 PUSH1 0x40 MLOAD DUP1 PUSH2 0x1A0 ADD PUSH1 0x40 MSTORE SWAP1 DUP2 PUSH0 DUP3 ADD SLOAD DUP2 MSTORE PUSH1 0x20 ADD PUSH1 0x1 DUP3 ADD PUSH0 SWAP1 SLOAD SWAP1 PUSH2 0x100 EXP SWAP1 DIV PUSH20 0xFFFFFFFFFFFFFFFFFFFFFFFFFFFFFFFFFFFFFFFF AND PUSH20 0xFFFFFFFFFFFFFFFFFFFFFFFFFFFFFFFFFFFFFFFF AND PUSH20 0xFFFFFFFFFFFFFFFFFFFFFFFFFFFFFFFFFFFFFFFF AND DUP2 MSTORE PUSH1 0x20 ADD PUSH1 0x2 DUP3 ADD DUP1 SLOAD PUSH2 0x1228 SWAP1 PUSH2 0x32D6 JUMP JUMPDEST DUP1 PUSH1 0x1F ADD PUSH1 0x20 DUP1 SWAP2 DIV MUL PUSH1 0x20 ADD PUSH1 0x40 MLOAD SWAP1 DUP2 ADD PUSH1 0x40 MSTORE DUP1 SWAP3 SWAP2 SWAP1 DUP2 DUP2 MSTORE PUSH1 0x20 ADD DUP3 DUP1 SLOAD PUSH2 0x1254 SWAP1 PUSH2 0x32D6 JUMP JUMPDEST DUP1 ISZERO PUSH2 0x129F JUMPI DUP1 PUSH1 0x1F LT PUSH2 0x1276 JUMPI PUSH2 0x100 DUP1 DUP4 SLOAD DIV MUL DUP4 MSTORE SWAP2 PUSH1 0x20 ADD SWAP2 PUSH2 0x129F JUMP JUMPDEST DUP3 ADD SWAP2 SWAP1 PUSH0 MSTORE PUSH1 0x20 PUSH0 KECCAK256 SWAP1 JUMPDEST DUP2 SLOAD DUP2 MSTORE SWAP1 PUSH1 0x1 ADD SWAP1 PUSH1 0x20 ADD DUP1 DUP4 GT PUSH2 0x1282 JUMPI DUP3 SWAP1 SUB PUSH1 0x1F AND DUP3 ADD SWAP2 JUMPDEST POP POP POP POP POP DUP2 MSTORE PUSH1 0x20 ADD PUSH1 0x3 DUP3 ADD SLOAD DUP2 MSTORE PUSH1 0x20 ADD PUSH1 0x4 DUP3 ADD SLOAD DUP2 MSTORE PUSH1 0x20 ADD PUSH1 0x5 DUP3 ADD DUP1 SLOAD PUSH2 0x12CC SWAP1 PUSH2 0x32D6 JUMP JUMPDEST DUP1 PUSH1 0x1F ADD PUSH1 0x20 DUP1 SWAP2 DIV MUL PUSH1 0x20 ADD PUSH1 0x40 MLOAD SWAP1 DUP2 ADD PUSH1 0x40 MSTORE DUP1 SWAP3 SWAP2 SWAP1 DUP2 DUP2 MSTORE PUSH1 0x20 ADD DUP3 DUP1 SLOAD PUSH2 0x12F8 SWAP1 PUSH2 0x32D6 JUMP JUMPDEST DUP1 ISZERO PUSH2 0x1343 JUMPI DUP1 PUSH1 0x1F LT PUSH2 0x131A JUMPI PUSH2 0x100 DUP1 DUP4 SLOAD DIV MUL DUP4 MSTORE SWAP2 PUSH1 0x20 ADD SWAP2 PUSH2 0x1343 JUMP JUMPDEST DUP3 ADD SWAP2 SWAP1 PUSH0 MSTORE PUSH1 0x20 PUSH0 KECCAK256 SWAP1 JUMPDEST DUP2 SLOAD DUP2 MSTORE SWAP1 PUSH1 0x1 ADD SWAP1 PUSH1 0x20 ADD DUP1 DUP4 GT PUSH2 0x1326 JUMPI DUP3 SWAP1 SUB PUSH1 0x1F AND DUP3 ADD SWAP2 JUMPDEST POP POP POP POP POP DUP2 MSTORE PUSH1 0x20 ADD PUSH1 0x6 DUP3 ADD SLOAD DUP2 MSTORE PUSH1 0x20 ADD PUSH1 0x7 DUP3 ADD DUP1 SLOAD PUSH2 0x1366 SWAP1 PUSH2 0x32D6 JUMP JUMPDEST DUP1 PUSH1 0x1F ADD PUSH1 0x20 DUP1 SWAP2 DIV MUL PUSH1 0x20 ADD PUSH1 0x40 MLOAD SWAP1 DUP2 ADD PUSH1 0x40 MSTORE DUP1 SWAP3 SWAP2 SWAP1 DUP2 DUP2 MSTORE PUSH1 0x20 ADD DUP3 DUP1 SLOAD PUSH2 0x1392 SWAP1 PUSH2 0x32D6 JUMP JUMPDEST DUP1 ISZERO PUSH2 0x13DD JUMPI DUP1 PUSH1 0x1F LT PUSH2 0x13B4 JUMPI PUSH2 0x100 DUP1 DUP4 SLOAD DIV MUL DUP4 MSTORE SWAP2 PUSH1 0x20 ADD SWAP2 PUSH2 0x13DD JUMP JUMPDEST DUP3 ADD SWAP2 SWAP1 PUSH0 MSTORE PUSH1 0x20 PUSH0 KECCAK256 SWAP1 JUMPDEST DUP2 SLOAD DUP2 MSTORE SWAP1 PUSH1 0x1 ADD SWAP1 PUSH1 0x20 ADD DUP1 DUP4 GT PUSH2 0x13C0 JUMPI DUP3 SWAP1 SUB PUSH1 0x1F AND DUP3 ADD SWAP2 JUMPDEST POP POP POP POP POP DUP2 MSTORE PUSH1 0x20 ADD PUSH1 0x8 DUP3 ADD DUP1 SLOAD PUSH2 0x13F6 SWAP1 PUSH2 0x32D6 JUMP JUMPDEST DUP1 PUSH1 0x1F ADD PUSH1 0x20 DUP1 SWAP2 DIV MUL PUSH1 0x20 ADD PUSH1 0x40 MLOAD SWAP1 DUP2 ADD PUSH1 0x40 MSTORE DUP1 SWAP3 SWAP2 SWAP1 DUP2 DUP2 MSTORE PUSH1 0x20 ADD DUP3 DUP1 SLOAD PUSH2 0x1422 SWAP1 PUSH2 0x32D6 JUMP JUMPDEST DUP1 ISZERO PUSH2 0x146D JUMPI DUP1 PUSH1 0x1F LT PUSH2 0x1444 JUMPI PUSH2 0x100 DUP1 DUP4 SLOAD DIV MUL DUP4 MSTORE SWAP2 PUSH1 0x20 ADD SWAP2 PUSH2 0x146D JUMP JUMPDEST DUP3 ADD SWAP2 SWAP1 PUSH0 MSTORE PUSH1 0x20 PUSH0 KECCAK256 SWAP1 JUMPDEST DUP2 SLOAD DUP2 MSTORE SWAP1 PUSH1 0x1 ADD SWAP1 PUSH1 0x20 ADD DUP1 DUP4 GT PUSH2 0x1450 JUMPI DUP3 SWAP1 SUB PUSH1 0x1F AND DUP3 ADD SWAP2 JUMPDEST POP POP POP POP POP DUP2 MSTORE PUSH1 0x20 ADD PUSH1 0x9 DUP3 ADD DUP1 SLOAD DUP1 PUSH1 0x20 MUL PUSH1 0x20 ADD PUSH1 0x40 MLOAD SWAP1 DUP2 ADD PUSH1 0x40 MSTORE DUP1 SWAP3 SWAP2 SWAP1 DUP2 DUP2 MSTORE PUSH1 0x20 ADD PUSH0 SWAP1 JUMPDEST DUP3 DUP3 LT ISZERO PUSH2 0x15C8 JUMPI DUP4 DUP3 SWAP1 PUSH0 MSTORE PUSH1 0x20 PUSH0 KECCAK256 SWAP1 PUSH1 0x2 MUL ADD PUSH1 0x40 MLOAD DUP1 PUSH1 0x60 ADD PUSH1 0x40 MSTORE SWAP1 DUP2 PUSH0 DUP3 ADD PUSH0 SWAP1 SLOAD SWAP1 PUSH2 0x100 EXP SWAP1 DIV PUSH20 0xFFFFFFFFFFFFFFFFFFFFFFFFFFFFFFFFFFFFFFFF AND PUSH20 0xFFFFFFFFFFFFFFFFFFFFFFFFFFFFFFFFFFFFFFFF AND PUSH20 0xFFFFFFFFFFFFFFFFFFFFFFFFFFFFFFFFFFFFFFFF AND DUP2 MSTORE PUSH1 0x20 ADD PUSH0 DUP3 ADD PUSH1 0x14 SWAP1 SLOAD SWAP1 PUSH2 0x100 EXP SWAP1 DIV PUSH1 0xFF AND ISZERO ISZERO ISZERO ISZERO DUP2 MSTORE PUSH1 0x20 ADD PUSH1 0x1 DUP3 ADD DUP1 SLOAD PUSH2 0x1539 SWAP1 PUSH2 0x32D6 JUMP JUMPDEST DUP1 PUSH1 0x1F ADD PUSH1 0x20 DUP1 SWAP2 DIV MUL PUSH1 0x20 ADD PUSH1 0x40 MLOAD SWAP1 DUP2 ADD PUSH1 0x40 MSTORE DUP1 SWAP3 SWAP2 SWAP1 DUP2 DUP2 MSTORE PUSH1 0x20 ADD DUP3 DUP1 SLOAD PUSH2 0x1565 SWAP1 PUSH2 0x32D6 JUMP JUMPDEST DUP1 ISZERO PUSH2 0x15B0 JUMPI DUP1 PUSH1 0x1F LT PUSH2 0x1587 JUMPI PUSH2 0x100 DUP1 DUP4 SLOAD DIV MUL DUP4 MSTORE SWAP2 PUSH1 0x20 ADD SWAP2 PUSH2 0x15B0 JUMP JUMPDEST DUP3 ADD SWAP2 SWAP1 PUSH0 MSTORE PUSH1 0x20 PUSH0 KECCAK256 SWAP1 JUMPDEST DUP2 SLOAD DUP2 MSTORE SWAP1 PUSH1 0x1 ADD SWAP1 PUSH1 0x20 ADD DUP1 DUP4 GT PUSH2 0x1593 JUMPI DUP3 SWAP1 SUB PUSH1 0x1F AND DUP3 ADD SWAP2 JUMPDEST POP POP POP POP POP DUP2 MSTORE POP POP DUP2 MSTORE PUSH1 0x20 ADD SWAP1 PUSH1 0x1 ADD SWAP1 PUSH2 0x149A JUMP JUMPDEST POP POP POP POP DUP2 MSTORE PUSH1 0x20 ADD PUSH1 0xA DUP3 ADD DUP1 SLOAD DUP1 PUSH1 0x20 MUL PUSH1 0x20 ADD PUSH1 0x40 MLOAD SWAP1 DUP2 ADD PUSH1 0x40 MSTORE DUP1 SWAP3 SWAP2 SWAP1 DUP2 DUP2 MSTORE PUSH1 0x20 ADD PUSH0 SWAP1 JUMPDEST DUP3 DUP3 LT ISZERO PUSH2 0x1722 JUMPI DUP4 DUP3 SWAP1 PUSH0 MSTORE PUSH1 0x20 PUSH0 KECCAK256 SWAP1 PUSH1 0x2 MUL ADD PUSH1 0x40 MLOAD DUP1 PUSH1 0x60 ADD PUSH1 0x40 MSTORE SWAP1 DUP2 PUSH0 DUP3 ADD PUSH0 SWAP1 SLOAD SWAP1 PUSH2 0x100 EXP SWAP1 DIV PUSH20 0xFFFFFFFFFFFFFFFFFFFFFFFFFFFFFFFFFFFFFFFF AND PUSH20 0xFFFFFFFFFFFFFFFFFFFFFFFFFFFFFFFFFFFFFFFF AND PUSH20 0xFFFFFFFFFFFFFFFFFFFFFFFFFFFFFFFFFFFFFFFF AND DUP2 MSTORE PUSH1 0x20 ADD PUSH0 DUP3 ADD PUSH1 0x14 SWAP1 SLOAD SWAP1 PUSH2 0x100 EXP SWAP1 DIV PUSH1 0xFF AND ISZERO ISZERO ISZERO ISZERO DUP2 MSTORE PUSH1 0x20 ADD PUSH1 0x1 DUP3 ADD DUP1 SLOAD PUSH2 0x1693 SWAP1 PUSH2 0x32D6 JUMP JUMPDEST DUP1 PUSH1 0x1F ADD PUSH1 0x20 DUP1 SWAP2 DIV MUL PUSH1 0x20 ADD PUSH1 0x40 MLOAD SWAP1 DUP2 ADD PUSH1 0x40 MSTORE DUP1 SWAP3 SWAP2 SWAP1 DUP2 DUP2 MSTORE PUSH1 0x20 ADD DUP3 DUP1 SLOAD PUSH2 0x16BF SWAP1 PUSH2 0x32D6 JUMP JUMPDEST DUP1 ISZERO PUSH2 0x170A JUMPI DUP1 PUSH1 0x1F LT PUSH2 0x16E1 JUMPI PUSH2 0x100 DUP1 DUP4 SLOAD DIV MUL DUP4 MSTORE SWAP2 PUSH1 0x20 ADD SWAP2 PUSH2 0x170A JUMP JUMPDEST DUP3 ADD SWAP2 SWAP1 PUSH0 MSTORE PUSH1 0x20 PUSH0 KECCAK256 SWAP1 JUMPDEST DUP2 SLOAD DUP2 MSTORE SWAP1 PUSH1 0x1 ADD SWAP1 PUSH1 0x20 ADD DUP1 DUP4 GT PUSH2 0x16ED JUMPI DUP3 SWAP1 SUB PUSH1 0x1F AND DUP3 ADD SWAP2 JUMPDEST POP POP POP POP POP DUP2 MSTORE POP POP DUP2 MSTORE PUSH1 0x20 ADD SWAP1 PUSH1 0x1 ADD SWAP1 PUSH2 0x15F4 JUMP JUMPDEST POP POP POP POP DUP2 MSTORE PUSH1 0x20 ADD PUSH1 0xB DUP3 ADD PUSH0 SWAP1 SLOAD SWAP1 PUSH2 0x100 EXP SWAP1 DIV PUSH1 0xFF AND PUSH1 0x4 DUP2 GT ISZERO PUSH2 0x174E JUMPI PUSH2 0x174D PUSH2 0x2A9C JUMP JUMPDEST JUMPDEST PUSH1 0x4 DUP2 GT ISZERO PUSH2 0x1760 JUMPI PUSH2 0x175F PUSH2 0x2A9C JUMP JUMPDEST JUMPDEST DUP2 MSTORE PUSH1 0x20 ADD PUSH1 0xB DUP3 ADD PUSH1 0x1 SWAP1 SLOAD SWAP1 PUSH2 0x100 EXP SWAP1 DIV PUSH1 0xFF AND ISZERO ISZERO ISZERO ISZERO DUP2 MSTORE POP POP PUSH1 0x5 PUSH0 CALLER PUSH20 0xFFFFFFFFFFFFFFFFFFFFFFFFFFFFFFFFFFFFFFFF AND PUSH20 0xFFFFFFFFFFFFFFFFFFFFFFFFFFFFFFFFFFFFFFFF AND DUP2 MSTORE PUSH1 0x20 ADD SWAP1 DUP2 MSTORE PUSH1 0x20 ADD PUSH0 KECCAK256 PUSH1 0x40 MLOAD DUP1 PUSH1 0x80 ADD PUSH1 0x40 MSTORE SWAP1 DUP2 PUSH0 DUP3 ADD PUSH0 SWAP1 SLOAD SWAP1 PUSH2 0x100 EXP SWAP1 DIV PUSH20 0xFFFFFFFFFFFFFFFFFFFFFFFFFFFFFFFFFFFFFFFF AND PUSH20 0xFFFFFFFFFFFFFFFFFFFFFFFFFFFFFFFFFFFFFFFF AND PUSH20 0xFFFFFFFFFFFFFFFFFFFFFFFFFFFFFFFFFFFFFFFF AND DUP2 MSTORE PUSH1 0x20 ADD PUSH1 0x1 DUP3 ADD DUP1 SLOAD PUSH2 0x182B SWAP1 PUSH2 0x32D6 JUMP JUMPDEST DUP1 PUSH1 0x1F ADD PUSH1 0x20 DUP1 SWAP2 DIV MUL PUSH1 0x20 ADD PUSH1 0x40 MLOAD SWAP1 DUP2 ADD PUSH1 0x40 MSTORE DUP1 SWAP3 SWAP2 SWAP1 DUP2 DUP2 MSTORE PUSH1 0x20 ADD DUP3 DUP1 SLOAD PUSH2 0x1857 SWAP1 PUSH2 0x32D6 JUMP JUMPDEST DUP1 ISZERO PUSH2 0x18A2 JUMPI DUP1 PUSH1 0x1F LT PUSH2 0x1879 JUMPI PUSH2 0x100 DUP1 DUP4 SLOAD DIV MUL DUP4 MSTORE SWAP2 PUSH1 0x20 ADD SWAP2 PUSH2 0x18A2 JUMP JUMPDEST DUP3 ADD SWAP2 SWAP1 PUSH0 MSTORE PUSH1 0x20 PUSH0 KECCAK256 SWAP1 JUMPDEST DUP2 SLOAD DUP2 MSTORE SWAP1 PUSH1 0x1 ADD SWAP1 PUSH1 0x20 ADD DUP1 DUP4 GT PUSH2 0x1885 JUMPI DUP3 SWAP1 SUB PUSH1 0x1F AND DUP3 ADD SWAP2 JUMPDEST POP POP POP POP POP DUP2 MSTORE PUSH1 0x20 ADD PUSH1 0x2 DUP3 ADD SLOAD DUP2 MSTORE PUSH1 0x20 ADD PUSH1 0x3 DUP3 ADD SLOAD DUP2 MSTORE POP POP PUSH2 0x1ECB JUMP JUMPDEST POP PUSH2 0x1900 JUMP JUMPDEST PUSH32 0xDB42F09D5A5CB193EA3EAE569C8CE2E3A5C8D8B68AADBE1A637F44D07F67BC17 PUSH1 0x40 MLOAD PUSH2 0x18F7 SWAP1 PUSH2 0x38BD JUMP JUMPDEST PUSH1 0x40 MLOAD DUP1 SWAP2 SUB SWAP1 LOG1 JUMPDEST JUMPDEST POP JUMP JUMPDEST PUSH1 0x40 MLOAD PUSH2 0x1910 SWAP1 PUSH2 0x2699 JUMP JUMPDEST PUSH1 0x40 MLOAD DUP1 SWAP2 SUB SWAP1 PUSH0 CREATE DUP1 ISZERO DUP1 ISZERO PUSH2 0x1929 JUMPI RETURNDATASIZE PUSH0 PUSH0 RETURNDATACOPY RETURNDATASIZE PUSH0 REVERT JUMPDEST POP PUSH0 PUSH0 PUSH2 0x100 EXP DUP2 SLOAD DUP2 PUSH20 0xFFFFFFFFFFFFFFFFFFFFFFFFFFFFFFFFFFFFFFFF MUL NOT AND SWAP1 DUP4 PUSH20 0xFFFFFFFFFFFFFFFFFFFFFFFFFFFFFFFFFFFFFFFF AND MUL OR SWAP1 SSTORE POP JUMP JUMPDEST PUSH1 0x4 PUSH1 0x20 MSTORE DUP1 PUSH0 MSTORE PUSH1 0x40 PUSH0 KECCAK256 PUSH0 SWAP2 POP SWAP1 POP DUP1 PUSH0 ADD SLOAD SWAP1 DUP1 PUSH1 0x1 ADD PUSH0 SWAP1 SLOAD SWAP1 PUSH2 0x100 EXP SWAP1 DIV PUSH20 0xFFFFFFFFFFFFFFFFFFFFFFFFFFFFFFFFFFFFFFFF AND SWAP1 DUP1 PUSH1 0x2 ADD DUP1 SLOAD PUSH2 0x19B4 SWAP1 PUSH2 0x32D6 JUMP JUMPDEST DUP1 PUSH1 0x1F ADD PUSH1 0x20 DUP1 SWAP2 DIV MUL PUSH1 0x20 ADD PUSH1 0x40 MLOAD SWAP1 DUP2 ADD PUSH1 0x40 MSTORE DUP1 SWAP3 SWAP2 SWAP1 DUP2 DUP2 MSTORE PUSH1 0x20 ADD DUP3 DUP1 SLOAD PUSH2 0x19E0 SWAP1 PUSH2 0x32D6 JUMP JUMPDEST DUP1 ISZERO PUSH2 0x1A2B JUMPI DUP1 PUSH1 0x1F LT PUSH2 0x1A02 JUMPI PUSH2 0x100 DUP1 DUP4 SLOAD DIV MUL DUP4 MSTORE SWAP2 PUSH1 0x20 ADD SWAP2 PUSH2 0x1A2B JUMP JUMPDEST DUP3 ADD SWAP2 SWAP1 PUSH0 MSTORE PUSH1 0x20 PUSH0 KECCAK256 SWAP1 JUMPDEST DUP2 SLOAD DUP2 MSTORE SWAP1 PUSH1 0x1 ADD SWAP1 PUSH1 0x20 ADD DUP1 DUP4 GT PUSH2 0x1A0E JUMPI DUP3 SWAP1 SUB PUSH1 0x1F AND DUP3 ADD SWAP2 JUMPDEST POP POP POP POP POP SWAP1 DUP1 PUSH1 0x3 ADD SLOAD SWAP1 DUP1 PUSH1 0x4 ADD SLOAD SWAP1 DUP1 PUSH1 0x5 ADD DUP1 SLOAD PUSH2 0x1A4C SWAP1 PUSH2 0x32D6 JUMP JUMPDEST DUP1 PUSH1 0x1F ADD PUSH1 0x20 DUP1 SWAP2 DIV MUL PUSH1 0x20 ADD PUSH1 0x40 MLOAD SWAP1 DUP2 ADD PUSH1 0x40 MSTORE DUP1 SWAP3 SWAP2 SWAP1 DUP2 DUP2 MSTORE PUSH1 0x20 ADD DUP3 DUP1 SLOAD PUSH2 0x1A78 SWAP1 PUSH2 0x32D6 JUMP JUMPDEST DUP1 ISZERO PUSH2 0x1AC3 JUMPI DUP1 PUSH1 0x1F LT PUSH2 0x1A9A JUMPI PUSH2 0x100 DUP1 DUP4 SLOAD DIV MUL DUP4 MSTORE SWAP2 PUSH1 0x20 ADD SWAP2 PUSH2 0x1AC3 JUMP JUMPDEST DUP3 ADD SWAP2 SWAP1 PUSH0 MSTORE PUSH1 0x20 PUSH0 KECCAK256 SWAP1 JUMPDEST DUP2 SLOAD DUP2 MSTORE SWAP1 PUSH1 0x1 ADD SWAP1 PUSH1 0x20 ADD DUP1 DUP4 GT PUSH2 0x1AA6 JUMPI DUP3 SWAP1 SUB PUSH1 0x1F AND DUP3 ADD SWAP2 JUMPDEST POP POP POP POP POP SWAP1 DUP1 PUSH1 0x6 ADD SLOAD SWAP1 DUP1 PUSH1 0x7 ADD DUP1 SLOAD PUSH2 0x1ADE SWAP1 PUSH2 0x32D6 JUMP JUMPDEST DUP1 PUSH1 0x1F ADD PUSH1 0x20 DUP1 SWAP2 DIV MUL PUSH1 0x20 ADD PUSH1 0x40 MLOAD SWAP1 DUP2 ADD PUSH1 0x40 MSTORE DUP1 SWAP3 SWAP2 SWAP1 DUP2 DUP2 MSTORE PUSH1 0x20 ADD DUP3 DUP1 SLOAD PUSH2 0x1B0A SWAP1 PUSH2 0x32D6 JUMP JUMPDEST DUP1 ISZERO PUSH2 0x1B55 JUMPI DUP1 PUSH1 0x1F LT PUSH2 0x1B2C JUMPI PUSH2 0x100 DUP1 DUP4 SLOAD DIV MUL DUP4 MSTORE SWAP2 PUSH1 0x20 ADD SWAP2 PUSH2 0x1B55 JUMP JUMPDEST DUP3 ADD SWAP2 SWAP1 PUSH0 MSTORE PUSH1 0x20 PUSH0 KECCAK256 SWAP1 JUMPDEST DUP2 SLOAD DUP2 MSTORE SWAP1 PUSH1 0x1 ADD SWAP1 PUSH1 0x20 ADD DUP1 DUP4 GT PUSH2 0x1B38 JUMPI DUP3 SWAP1 SUB PUSH1 0x1F AND DUP3 ADD SWAP2 JUMPDEST POP POP POP POP POP SWAP1 DUP1 PUSH1 0x8 ADD DUP1 SLOAD PUSH2 0x1B6A SWAP1 PUSH2 0x32D6 JUMP JUMPDEST DUP1 PUSH1 0x1F ADD PUSH1 0x20 DUP1 SWAP2 DIV MUL PUSH1 0x20 ADD PUSH1 0x40 MLOAD SWAP1 DUP2 ADD PUSH1 0x40 MSTORE DUP1 SWAP3 SWAP2 SWAP1 DUP2 DUP2 MSTORE PUSH1 0x20 ADD DUP3 DUP1 SLOAD PUSH2 0x1B96 SWAP1 PUSH2 0x32D6 JUMP JUMPDEST DUP1 ISZERO PUSH2 0x1BE1 JUMPI DUP1 PUSH1 0x1F LT PUSH2 0x1BB8 JUMPI PUSH2 0x100 DUP1 DUP4 SLOAD DIV MUL DUP4 MSTORE SWAP2 PUSH1 0x20 ADD SWAP2 PUSH2 0x1BE1 JUMP JUMPDEST DUP3 ADD SWAP2 SWAP1 PUSH0 MSTORE PUSH1 0x20 PUSH0 KECCAK256 SWAP1 JUMPDEST DUP2 SLOAD DUP2 MSTORE SWAP1 PUSH1 0x1 ADD SWAP1 PUSH1 0x20 ADD DUP1 DUP4 GT PUSH2 0x1BC4 JUMPI DUP3 SWAP1 SUB PUSH1 0x1F AND DUP3 ADD SWAP2 JUMPDEST POP POP POP POP POP SWAP1 DUP1 PUSH1 0xB ADD PUSH0 SWAP1 SLOAD SWAP1 PUSH2 0x100 EXP SWAP1 DIV PUSH1 0xFF AND SWAP1 DUP1 PUSH1 0xB ADD PUSH1 0x1 SWAP1 SLOAD SWAP1 PUSH2 0x100 EXP SWAP1 DIV PUSH1 0xFF AND SWAP1 POP DUP12 JUMP JUMPDEST PUSH1 0x3 DUP2 DUP2 SLOAD DUP2 LT PUSH2 0x1C1F JUMPI PUSH0 DUP1 REVERT JUMPDEST SWAP1 PUSH0 MSTORE PUSH1 0x20 PUSH0 KECCAK256 SWAP1 PUSH1 0x2 MUL ADD PUSH0 SWAP2 POP SWAP1 POP DUP1 PUSH0 ADD PUSH0 SWAP1 SLOAD SWAP1 PUSH2 0x100 EXP SWAP1 DIV PUSH20 0xFFFFFFFFFFFFFFFFFFFFFFFFFFFFFFFFFFFFFFFF AND SWAP1 DUP1 PUSH0 ADD PUSH1 0x14 SWAP1 SLOAD SWAP1 PUSH2 0x100 EXP SWAP1 DIV PUSH1 0xFF AND SWAP1 DUP1 PUSH1 0x1 ADD DUP1 SLOAD PUSH2 0x1C75 SWAP1 PUSH2 0x32D6 JUMP JUMPDEST DUP1 PUSH1 0x1F ADD PUSH1 0x20 DUP1 SWAP2 DIV MUL PUSH1 0x20 ADD PUSH1 0x40 MLOAD SWAP1 DUP2 ADD PUSH1 0x40 MSTORE DUP1 SWAP3 SWAP2 SWAP1 DUP2 DUP2 MSTORE PUSH1 0x20 ADD DUP3 DUP1 SLOAD PUSH2 0x1CA1 SWAP1 PUSH2 0x32D6 JUMP JUMPDEST DUP1 ISZERO PUSH2 0x1CEC JUMPI DUP1 PUSH1 0x1F LT PUSH2 0x1CC3 JUMPI PUSH2 0x100 DUP1 DUP4 SLOAD DIV MUL DUP4 MSTORE SWAP2 PUSH1 0x20 ADD SWAP2 PUSH2 0x1CEC JUMP JUMPDEST DUP3 ADD SWAP2 SWAP1 PUSH0 MSTORE PUSH1 0x20 PUSH0 KECCAK256 SWAP1 JUMPDEST DUP2 SLOAD DUP2 MSTORE SWAP1 PUSH1 0x1 ADD SWAP1 PUSH1 0x20 ADD DUP1 DUP4 GT PUSH2 0x1CCF JUMPI DUP3 SWAP1 SUB PUSH1 0x1F AND DUP3 ADD SWAP2 JUMPDEST POP POP POP POP POP SWAP1 POP DUP4 JUMP JUMPDEST PUSH1 0x1 SLOAD DUP2 JUMP JUMPDEST PUSH0 PUSH0 DUP4 PUSH20 0xFFFFFFFFFFFFFFFFFFFFFFFFFFFFFFFFFFFFFFFF AND DUP4 PUSH1 0x40 MLOAD PUSH2 0x1D22 SWAP1 PUSH2 0x3908 JUMP JUMPDEST PUSH0 PUSH1 0x40 MLOAD DUP1 DUP4 SUB DUP2 DUP6 DUP8 GAS CALL SWAP3 POP POP POP RETURNDATASIZE DUP1 PUSH0 DUP2 EQ PUSH2 0x1D5C JUMPI PUSH1 0x40 MLOAD SWAP2 POP PUSH1 0x1F NOT PUSH1 0x3F RETURNDATASIZE ADD AND DUP3 ADD PUSH1 0x40 MSTORE RETURNDATASIZE DUP3 MSTORE RETURNDATASIZE PUSH0 PUSH1 0x20 DUP5 ADD RETURNDATACOPY PUSH2 0x1D61 JUMP JUMPDEST PUSH1 0x60 SWAP2 POP JUMPDEST POP SWAP2 POP SWAP2 POP DUP2 PUSH2 0x1DA6 JUMPI PUSH1 0x40 MLOAD PUSH32 0x8C379A000000000000000000000000000000000000000000000000000000000 DUP2 MSTORE PUSH1 0x4 ADD PUSH2 0x1D9D SWAP1 PUSH2 0x398C JUMP JUMPDEST PUSH1 0x40 MLOAD DUP1 SWAP2 SUB SWAP1 REVERT JUMPDEST POP POP POP POP JUMP JUMPDEST PUSH1 0x5 PUSH1 0x20 MSTORE DUP1 PUSH0 MSTORE PUSH1 0x40 PUSH0 KECCAK256 PUSH0 SWAP2 POP SWAP1 POP DUP1 PUSH0 ADD PUSH0 SWAP1 SLOAD SWAP1 PUSH2 0x100 EXP SWAP1 DIV PUSH20 0xFFFFFFFFFFFFFFFFFFFFFFFFFFFFFFFFFFFFFFFF AND SWAP1 DUP1 PUSH1 0x1 ADD DUP1 SLOAD PUSH2 0x1DF0 SWAP1 PUSH2 0x32D6 JUMP JUMPDEST DUP1 PUSH1 0x1F ADD PUSH1 0x20 DUP1 SWAP2 DIV MUL PUSH1 0x20 ADD PUSH1 0x40 MLOAD SWAP1 DUP2 ADD PUSH1 0x40 MSTORE DUP1 SWAP3 SWAP2 SWAP1 DUP2 DUP2 MSTORE PUSH1 0x20 ADD DUP3 DUP1 SLOAD PUSH2 0x1E1C SWAP1 PUSH2 0x32D6 JUMP JUMPDEST DUP1 ISZERO PUSH2 0x1E67 JUMPI DUP1 PUSH1 0x1F LT PUSH2 0x1E3E JUMPI PUSH2 0x100 DUP1 DUP4 SLOAD DIV MUL DUP4 MSTORE SWAP2 PUSH1 0x20 ADD SWAP2 PUSH2 0x1E67 JUMP JUMPDEST DUP3 ADD SWAP2 SWAP1 PUSH0 MSTORE PUSH1 0x20 PUSH0 KECCAK256 SWAP1 JUMPDEST DUP2 SLOAD DUP2 MSTORE SWAP1 PUSH1 0x1 ADD SWAP1 PUSH1 0x20 ADD DUP1 DUP4 GT PUSH2 0x1E4A JUMPI DUP3 SWAP1 SUB PUSH1 0x1F AND DUP3 ADD SWAP2 JUMPDEST POP POP POP POP POP SWAP1 DUP1 PUSH1 0x2 ADD SLOAD SWAP1 DUP1 PUSH1 0x3 ADD SLOAD SWAP1 POP DUP5 JUMP JUMPDEST PUSH0 PUSH1 0x4 DUP3 SUB PUSH2 0x1E8F JUMPI PUSH1 0x3 SWAP1 POP PUSH2 0x1EC6 JUMP JUMPDEST PUSH1 0x5 DUP3 SUB PUSH2 0x1EA0 JUMPI PUSH1 0x4 SWAP1 POP PUSH2 0x1EC6 JUMP JUMPDEST PUSH1 0x3 DUP3 SUB PUSH2 0x1EB1 JUMPI PUSH1 0x2 SWAP1 POP PUSH2 0x1EC6 JUMP JUMPDEST PUSH1 0x2 DUP3 SUB PUSH2 0x1EC2 JUMPI PUSH1 0x1 SWAP1 POP PUSH2 0x1EC6 JUMP JUMPDEST PUSH0 SWAP1 POP JUMPDEST SWAP2 SWAP1 POP JUMP JUMPDEST PUSH0 PUSH0 PUSH2 0x1EDA DUP4 PUSH1 0x40 ADD MLOAD PUSH2 0xEBA JUMP JUMPDEST SWAP2 POP SWAP2 POP PUSH0 PUSH0 PUSH0 SWAP1 SLOAD SWAP1 PUSH2 0x100 EXP SWAP1 DIV PUSH20 0xFFFFFFFFFFFFFFFFFFFFFFFFFFFFFFFFFFFFFFFF AND PUSH20 0xFFFFFFFFFFFFFFFFFFFFFFFFFFFFFFFFFFFFFFFF AND PUSH4 0xC618A1E4 PUSH1 0x40 MLOAD DUP2 PUSH4 0xFFFFFFFF AND PUSH1 0xE0 SHL DUP2 MSTORE PUSH1 0x4 ADD PUSH1 0x20 PUSH1 0x40 MLOAD DUP1 DUP4 SUB DUP2 DUP7 GAS STATICCALL ISZERO DUP1 ISZERO PUSH2 0x1F48 JUMPI RETURNDATASIZE PUSH0 PUSH0 RETURNDATACOPY RETURNDATASIZE PUSH0 REVERT JUMPDEST POP POP POP POP PUSH1 0x40 MLOAD RETURNDATASIZE PUSH1 0x1F NOT PUSH1 0x1F DUP3 ADD AND DUP3 ADD DUP1 PUSH1 0x40 MSTORE POP DUP2 ADD SWAP1 PUSH2 0x1F6C SWAP2 SWAP1 PUSH2 0x3848 JUMP JUMPDEST SWAP1 POP PUSH1 0x3 PUSH1 0x4 DUP2 GT ISZERO PUSH2 0x1F82 JUMPI PUSH2 0x1F81 PUSH2 0x2A9C JUMP JUMPDEST JUMPDEST DUP6 PUSH2 0x160 ADD MLOAD PUSH1 0x4 DUP2 GT ISZERO PUSH2 0x1F9A JUMPI PUSH2 0x1F99 PUSH2 0x2A9C JUMP JUMPDEST JUMPDEST SUB PUSH2 0x22F0 JUMPI PUSH32 0x135290006F1871309577D248CF00619459A79B4A735638108A2BB080319C90D6 PUSH1 0x1 PUSH1 0x40 MLOAD PUSH2 0x1FCF SWAP2 SWAP1 PUSH2 0x39F4 JUMP JUMPDEST PUSH1 0x40 MLOAD DUP1 SWAP2 SUB SWAP1 LOG1 PUSH2 0x1FF5 PUSH20 0xCBD38ADA2D31C7071E041FC8F8C1DA9DF9C76DD4 DUP5 PUSH2 0x1CFC JUMP JUMPDEST PUSH2 0x2022 DUP6 PUSH2 0x140 ADD MLOAD PUSH0 DUP2 MLOAD DUP2 LT PUSH2 0x2010 JUMPI PUSH2 0x200F PUSH2 0x3A20 JUMP JUMPDEST JUMPDEST PUSH1 0x20 MUL PUSH1 0x20 ADD ADD MLOAD PUSH0 ADD MLOAD PUSH1 0x1 PUSH2 0x1CFC JUMP JUMPDEST PUSH2 0x2050 DUP6 PUSH2 0x140 ADD MLOAD PUSH1 0x1 DUP2 MLOAD DUP2 LT PUSH2 0x203E JUMPI PUSH2 0x203D PUSH2 0x3A20 JUMP JUMPDEST JUMPDEST PUSH1 0x20 MUL PUSH1 0x20 ADD ADD MLOAD PUSH0 ADD MLOAD PUSH1 0x1 PUSH2 0x1CFC JUMP JUMPDEST PUSH2 0x207E DUP6 PUSH2 0x140 ADD MLOAD PUSH1 0x2 DUP2 MLOAD DUP2 LT PUSH2 0x206C JUMPI PUSH2 0x206B PUSH2 0x3A20 JUMP JUMPDEST JUMPDEST PUSH1 0x20 MUL PUSH1 0x20 ADD ADD MLOAD PUSH0 ADD MLOAD PUSH1 0x1 PUSH2 0x1CFC JUMP JUMPDEST PUSH2 0x20AB DUP6 PUSH2 0x120 ADD MLOAD PUSH0 DUP2 MLOAD DUP2 LT PUSH2 0x2099 JUMPI PUSH2 0x2098 PUSH2 0x3A20 JUMP JUMPDEST JUMPDEST PUSH1 0x20 MUL PUSH1 0x20 ADD ADD MLOAD PUSH0 ADD MLOAD PUSH1 0x1 PUSH2 0x1CFC JUMP JUMPDEST PUSH2 0x20D9 DUP6 PUSH2 0x120 ADD MLOAD PUSH1 0x1 DUP2 MLOAD DUP2 LT PUSH2 0x20C7 JUMPI PUSH2 0x20C6 PUSH2 0x3A20 JUMP JUMPDEST JUMPDEST PUSH1 0x20 MUL PUSH1 0x20 ADD ADD MLOAD PUSH0 ADD MLOAD PUSH1 0x1 PUSH2 0x1CFC JUMP JUMPDEST PUSH2 0x2107 DUP6 PUSH2 0x120 ADD MLOAD PUSH1 0x2 DUP2 MLOAD DUP2 LT PUSH2 0x20F5 JUMPI PUSH2 0x20F4 PUSH2 0x3A20 JUMP JUMPDEST JUMPDEST PUSH1 0x20 MUL PUSH1 0x20 ADD ADD MLOAD PUSH0 ADD MLOAD PUSH1 0x1 PUSH2 0x1CFC JUMP JUMPDEST PUSH1 0x1 DUP5 PUSH1 0x40 ADD DUP2 DUP2 MLOAD PUSH2 0x211A SWAP2 SWAP1 PUSH2 0x3243 JUMP JUMPDEST SWAP2 POP DUP2 DUP2 MSTORE POP POP DUP1 PUSH1 0x1 SLOAD SUB PUSH2 0x22EB JUMPI PUSH2 0x2148 PUSH20 0xCBD38ADA2D31C7071E041FC8F8C1DA9DF9C76DD4 DUP5 PUSH2 0x1CFC JUMP JUMPDEST PUSH2 0x218D DUP6 PUSH2 0x140 ADD MLOAD PUSH0 DUP2 MLOAD DUP2 LT PUSH2 0x2163 JUMPI PUSH2 0x2162 PUSH2 0x3A20 JUMP JUMPDEST JUMPDEST PUSH1 0x20 MUL PUSH1 0x20 ADD ADD MLOAD PUSH0 ADD MLOAD PUSH1 0x3 PUSH2 0x7D0 DUP6 PUSH2 0x217E SWAP2 SWAP1 PUSH2 0x3243 JUMP JUMPDEST PUSH2 0x2188 SWAP2 SWAP1 PUSH2 0x36F2 JUMP JUMPDEST PUSH2 0x1CFC JUMP JUMPDEST PUSH2 0x21D3 DUP6 PUSH2 0x140 ADD MLOAD PUSH1 0x1 DUP2 MLOAD DUP2 LT PUSH2 0x21A9 JUMPI PUSH2 0x21A8 PUSH2 0x3A20 JUMP JUMPDEST JUMPDEST PUSH1 0x20 MUL PUSH1 0x20 ADD ADD MLOAD PUSH0 ADD MLOAD PUSH1 0x3 PUSH2 0x7D0 DUP6 PUSH2 0x21C4 SWAP2 SWAP1 PUSH2 0x3243 JUMP JUMPDEST PUSH2 0x21CE SWAP2 SWAP1 PUSH2 0x36F2 JUMP JUMPDEST PUSH2 0x1CFC JUMP JUMPDEST PUSH2 0x2219 DUP6 PUSH2 0x140 ADD MLOAD PUSH1 0x2 DUP2 MLOAD DUP2 LT PUSH2 0x21EF JUMPI PUSH2 0x21EE PUSH2 0x3A20 JUMP JUMPDEST JUMPDEST PUSH1 0x20 MUL PUSH1 0x20 ADD ADD MLOAD PUSH0 ADD MLOAD PUSH1 0x3 PUSH2 0x7D0 DUP6 PUSH2 0x220A SWAP2 SWAP1 PUSH2 0x3243 JUMP JUMPDEST PUSH2 0x2214 SWAP2 SWAP1 PUSH2 0x36F2 JUMP JUMPDEST PUSH2 0x1CFC JUMP JUMPDEST PUSH2 0x225E DUP6 PUSH2 0x120 ADD MLOAD PUSH0 DUP2 MLOAD DUP2 LT PUSH2 0x2234 JUMPI PUSH2 0x2233 PUSH2 0x3A20 JUMP JUMPDEST JUMPDEST PUSH1 0x20 MUL PUSH1 0x20 ADD ADD MLOAD PUSH0 ADD MLOAD PUSH1 0x3 PUSH2 0x7D0 DUP6 PUSH2 0x224F SWAP2 SWAP1 PUSH2 0x3243 JUMP JUMPDEST PUSH2 0x2259 SWAP2 SWAP1 PUSH2 0x36F2 JUMP JUMPDEST PUSH2 0x1CFC JUMP JUMPDEST PUSH2 0x22A4 DUP6 PUSH2 0x120 ADD MLOAD PUSH1 0x1 DUP2 MLOAD DUP2 LT PUSH2 0x227A JUMPI PUSH2 0x2279 PUSH2 0x3A20 JUMP JUMPDEST JUMPDEST PUSH1 0x20 MUL PUSH1 0x20 ADD ADD MLOAD PUSH0 ADD MLOAD PUSH1 0x3 PUSH2 0x7D0 DUP6 PUSH2 0x2295 SWAP2 SWAP1 PUSH2 0x3243 JUMP JUMPDEST PUSH2 0x229F SWAP2 SWAP1 PUSH2 0x36F2 JUMP JUMPDEST PUSH2 0x1CFC JUMP JUMPDEST PUSH2 0x22EA DUP6 PUSH2 0x120 ADD MLOAD PUSH1 0x2 DUP2 MLOAD DUP2 LT PUSH2 0x22C0 JUMPI PUSH2 0x22BF PUSH2 0x3A20 JUMP JUMPDEST JUMPDEST PUSH1 0x20 MUL PUSH1 0x20 ADD ADD MLOAD PUSH0 ADD MLOAD PUSH1 0x3 PUSH2 0x7D0 DUP6 PUSH2 0x22DB SWAP2 SWAP1 PUSH2 0x3243 JUMP JUMPDEST PUSH2 0x22E5 SWAP2 SWAP1 PUSH2 0x36F2 JUMP JUMPDEST PUSH2 0x1CFC JUMP JUMPDEST JUMPDEST PUSH2 0x24E8 JUMP JUMPDEST PUSH1 0x4 DUP1 DUP2 GT ISZERO PUSH2 0x2303 JUMPI PUSH2 0x2302 PUSH2 0x2A9C JUMP JUMPDEST JUMPDEST DUP6 PUSH2 0x160 ADD MLOAD PUSH1 0x4 DUP2 GT ISZERO PUSH2 0x231B JUMPI PUSH2 0x231A PUSH2 0x2A9C JUMP JUMPDEST JUMPDEST SUB PUSH2 0x24E7 JUMPI DUP1 PUSH1 0x1 SLOAD SUB PUSH2 0x24CC JUMPI PUSH2 0x236E DUP6 PUSH2 0x140 ADD MLOAD PUSH0 DUP2 MLOAD DUP2 LT PUSH2 0x2344 JUMPI PUSH2 0x2343 PUSH2 0x3A20 JUMP JUMPDEST JUMPDEST PUSH1 0x20 MUL PUSH1 0x20 ADD ADD MLOAD PUSH0 ADD MLOAD PUSH1 0x3 PUSH2 0x7D0 DUP6 PUSH2 0x235F SWAP2 SWAP1 PUSH2 0x3243 JUMP JUMPDEST PUSH2 0x2369 SWAP2 SWAP1 PUSH2 0x36F2 JUMP JUMPDEST PUSH2 0x1CFC JUMP JUMPDEST PUSH2 0x23B4 DUP6 PUSH2 0x140 ADD MLOAD PUSH1 0x1 DUP2 MLOAD DUP2 LT PUSH2 0x238A JUMPI PUSH2 0x2389 PUSH2 0x3A20 JUMP JUMPDEST JUMPDEST PUSH1 0x20 MUL PUSH1 0x20 ADD ADD MLOAD PUSH0 ADD MLOAD PUSH1 0x3 PUSH2 0x7D0 DUP6 PUSH2 0x23A5 SWAP2 SWAP1 PUSH2 0x3243 JUMP JUMPDEST PUSH2 0x23AF SWAP2 SWAP1 PUSH2 0x36F2 JUMP JUMPDEST PUSH2 0x1CFC JUMP JUMPDEST PUSH2 0x23FA DUP6 PUSH2 0x140 ADD MLOAD PUSH1 0x2 DUP2 MLOAD DUP2 LT PUSH2 0x23D0 JUMPI PUSH2 0x23CF PUSH2 0x3A20 JUMP JUMPDEST JUMPDEST PUSH1 0x20 MUL PUSH1 0x20 ADD ADD MLOAD PUSH0 ADD MLOAD PUSH1 0x3 PUSH2 0x7D0 DUP6 PUSH2 0x23EB SWAP2 SWAP1 PUSH2 0x3243 JUMP JUMPDEST PUSH2 0x23F5 SWAP2 SWAP1 PUSH2 0x36F2 JUMP JUMPDEST PUSH2 0x1CFC JUMP JUMPDEST PUSH2 0x243F DUP6 PUSH2 0x120 ADD MLOAD PUSH0 DUP2 MLOAD DUP2 LT PUSH2 0x2415 JUMPI PUSH2 0x2414 PUSH2 0x3A20 JUMP JUMPDEST JUMPDEST PUSH1 0x20 MUL PUSH1 0x20 ADD ADD MLOAD PUSH0 ADD MLOAD PUSH1 0x3 PUSH2 0x7D0 DUP6 PUSH2 0x2430 SWAP2 SWAP1 PUSH2 0x3243 JUMP JUMPDEST PUSH2 0x243A SWAP2 SWAP1 PUSH2 0x36F2 JUMP JUMPDEST PUSH2 0x1CFC JUMP JUMPDEST PUSH2 0x2485 DUP6 PUSH2 0x120 ADD MLOAD PUSH1 0x1 DUP2 MLOAD DUP2 LT PUSH2 0x245B JUMPI PUSH2 0x245A PUSH2 0x3A20 JUMP JUMPDEST JUMPDEST PUSH1 0x20 MUL PUSH1 0x20 ADD ADD MLOAD PUSH0 ADD MLOAD PUSH1 0x3 PUSH2 0x7D0 DUP6 PUSH2 0x2476 SWAP2 SWAP1 PUSH2 0x3243 JUMP JUMPDEST PUSH2 0x2480 SWAP2 SWAP1 PUSH2 0x36F2 JUMP JUMPDEST PUSH2 0x1CFC JUMP JUMPDEST PUSH2 0x24CB DUP6 PUSH2 0x120 ADD MLOAD PUSH1 0x2 DUP2 MLOAD DUP2 LT PUSH2 0x24A1 JUMPI PUSH2 0x24A0 PUSH2 0x3A20 JUMP JUMPDEST JUMPDEST PUSH1 0x20 MUL PUSH1 0x20 ADD ADD MLOAD PUSH0 ADD MLOAD PUSH1 0x3 PUSH2 0x7D0 DUP6 PUSH2 0x24BC SWAP2 SWAP1 PUSH2 0x3243 JUMP JUMPDEST PUSH2 0x24C6 SWAP2 SWAP1 PUSH2 0x36F2 JUMP JUMPDEST PUSH2 0x1CFC JUMP JUMPDEST JUMPDEST PUSH1 0x1 DUP5 PUSH1 0x40 ADD DUP2 DUP2 MLOAD PUSH2 0x24DF SWAP2 SWAP1 PUSH2 0x3276 JUMP JUMPDEST SWAP2 POP DUP2 DUP2 MSTORE POP POP JUMPDEST JUMPDEST PUSH2 0x24F4 DUP5 PUSH0 ADD MLOAD PUSH2 0x3BA JUMP JUMPDEST PUSH2 0x2512 PUSH20 0xCBD38ADA2D31C7071E041FC8F8C1DA9DF9C76DD4 SELFBALANCE PUSH2 0x1CFC JUMP JUMPDEST PUSH32 0x135290006F1871309577D248CF00619459A79B4A735638108A2BB080319C90D6 DUP5 PUSH1 0x60 ADD MLOAD PUSH1 0x40 MLOAD PUSH2 0x2545 SWAP2 SWAP1 PUSH2 0x3A97 JUMP JUMPDEST PUSH1 0x40 MLOAD DUP1 SWAP2 SUB SWAP1 LOG1 PUSH32 0x135290006F1871309577D248CF00619459A79B4A735638108A2BB080319C90D6 CALLER PUSH20 0xFFFFFFFFFFFFFFFFFFFFFFFFFFFFFFFFFFFFFFFF AND BALANCE PUSH1 0x40 MLOAD PUSH2 0x2593 SWAP2 SWAP1 PUSH2 0x3B0D JUMP JUMPDEST PUSH1 0x40 MLOAD DUP1 SWAP2 SUB SWAP1 LOG1 POP POP POP POP POP JUMP JUMPDEST DUP3 DUP1 SLOAD DUP3 DUP3 SSTORE SWAP1 PUSH0 MSTORE PUSH1 0x20 PUSH0 KECCAK256 SWAP1 PUSH1 0x2 MUL DUP2 ADD SWAP3 DUP3 ISZERO PUSH2 0x2688 JUMPI PUSH0 MSTORE PUSH1 0x20 PUSH0 KECCAK256 SWAP2 PUSH1 0x2 MUL DUP3 ADD JUMPDEST DUP3 DUP2 GT ISZERO PUSH2 0x2687 JUMPI DUP3 DUP3 PUSH0 DUP3 ADD PUSH0 SWAP1 SLOAD SWAP1 PUSH2 0x100 EXP SWAP1 DIV PUSH20 0xFFFFFFFFFFFFFFFFFFFFFFFFFFFFFFFFFFFFFFFF AND DUP2 PUSH0 ADD PUSH0 PUSH2 0x100 EXP DUP2 SLOAD DUP2 PUSH20 0xFFFFFFFFFFFFFFFFFFFFFFFFFFFFFFFFFFFFFFFF MUL NOT AND SWAP1 DUP4 PUSH20 0xFFFFFFFFFFFFFFFFFFFFFFFFFFFFFFFFFFFFFFFF AND MUL OR SWAP1 SSTORE POP PUSH0 DUP3 ADD PUSH1 0x14 SWAP1 SLOAD SWAP1 PUSH2 0x100 EXP SWAP1 DIV PUSH1 0xFF AND DUP2 PUSH0 ADD PUSH1 0x14 PUSH2 0x100 EXP DUP2 SLOAD DUP2 PUSH1 0xFF MUL NOT AND SWAP1 DUP4 ISZERO ISZERO MUL OR SWAP1 SSTORE POP PUSH1 0x1 DUP3 ADD DUP2 PUSH1 0x1 ADD SWAP1 DUP2 PUSH2 0x2675 SWAP2 SWAP1 PUSH2 0x3B4E JUMP JUMPDEST POP POP POP SWAP2 PUSH1 0x2 ADD SWAP2 SWAP1 PUSH1 0x2 ADD SWAP1 PUSH2 0x25C9 JUMP JUMPDEST JUMPDEST POP SWAP1 POP PUSH2 0x2695 SWAP2 SWAP1 PUSH2 0x26A6 JUMP JUMPDEST POP SWAP1 JUMP JUMPDEST PUSH2 0x23F8 DUP1 PUSH2 0x3C34 DUP4 CODECOPY ADD SWAP1 JUMP JUMPDEST JUMPDEST DUP1 DUP3 GT ISZERO PUSH2 0x2700 JUMPI PUSH0 PUSH0 DUP3 ADD PUSH0 PUSH2 0x100 EXP DUP2 SLOAD SWAP1 PUSH20 0xFFFFFFFFFFFFFFFFFFFFFFFFFFFFFFFFFFFFFFFF MUL NOT AND SWAP1 SSTORE PUSH0 DUP3 ADD PUSH1 0x14 PUSH2 0x100 EXP DUP2 SLOAD SWAP1 PUSH1 0xFF MUL NOT AND SWAP1 SSTORE PUSH1 0x1 DUP3 ADD PUSH0 PUSH2 0x26F7 SWAP2 SWAP1 PUSH2 0x2704 JUMP JUMPDEST POP PUSH1 0x2 ADD PUSH2 0x26A7 JUMP JUMPDEST POP SWAP1 JUMP JUMPDEST POP DUP1 SLOAD PUSH2 0x2710 SWAP1 PUSH2 0x32D6 JUMP JUMPDEST PUSH0 DUP3 SSTORE DUP1 PUSH1 0x1F LT PUSH2 0x2721 JUMPI POP PUSH2 0x273E JUMP JUMPDEST PUSH1 0x1F ADD PUSH1 0x20 SWAP1 DIV SWAP1 PUSH0 MSTORE PUSH1 0x20 PUSH0 KECCAK256 SWAP1 DUP2 ADD SWAP1 PUSH2 0x273D SWAP2 SWAP1 PUSH2 0x2741 JUMP JUMPDEST JUMPDEST POP JUMP JUMPDEST JUMPDEST DUP1 DUP3 GT ISZERO PUSH2 0x2758 JUMPI PUSH0 DUP2 PUSH0 SWAP1 SSTORE POP PUSH1 0x1 ADD PUSH2 0x2742 JUMP JUMPDEST POP SWAP1 JUMP JUMPDEST PUSH0 PUSH20 0xFFFFFFFFFFFFFFFFFFFFFFFFFFFFFFFFFFFFFFFF DUP3 AND SWAP1 POP SWAP2 SWAP1 POP JUMP JUMPDEST PUSH0 DUP2 SWAP1 POP SWAP2 SWAP1 POP JUMP JUMPDEST PUSH0 PUSH2 0x279E PUSH2 0x2799 PUSH2 0x2794 DUP5 PUSH2 0x275C JUMP JUMPDEST PUSH2 0x277B JUMP JUMPDEST PUSH2 0x275C JUMP JUMPDEST SWAP1 POP SWAP2 SWAP1 POP JUMP JUMPDEST PUSH0 PUSH2 0x27AF DUP3 PUSH2 0x2784 JUMP JUMPDEST SWAP1 POP SWAP2 SWAP1 POP JUMP JUMPDEST PUSH0 PUSH2 0x27C0 DUP3 PUSH2 0x27A5 JUMP JUMPDEST SWAP1 POP SWAP2 SWAP1 POP JUMP JUMPDEST PUSH2 0x27D0 DUP2 PUSH2 0x27B6 JUMP JUMPDEST DUP3 MSTORE POP POP JUMP JUMPDEST PUSH0 PUSH1 0x20 DUP3 ADD SWAP1 POP PUSH2 0x27E9 PUSH0 DUP4 ADD DUP5 PUSH2 0x27C7 JUMP JUMPDEST SWAP3 SWAP2 POP POP JUMP JUMPDEST PUSH0 PUSH1 0x40 MLOAD SWAP1 POP SWAP1 JUMP JUMPDEST PUSH0 PUSH0 REVERT JUMPDEST PUSH0 PUSH0 REVERT JUMPDEST PUSH0 PUSH2 0x280A DUP3 PUSH2 0x275C JUMP JUMPDEST SWAP1 POP SWAP2 SWAP1 POP JUMP JUMPDEST PUSH2 0x281A DUP2 PUSH2 0x2800 JUMP JUMPDEST DUP2 EQ PUSH2 0x2824 JUMPI PUSH0 PUSH0 REVERT JUMPDEST POP JUMP JUMPDEST PUSH0 DUP2 CALLDATALOAD SWAP1 POP PUSH2 0x2835 DUP2 PUSH2 0x2811 JUMP JUMPDEST SWAP3 SWAP2 POP POP JUMP JUMPDEST PUSH0 PUSH1 0x20 DUP3 DUP5 SUB SLT ISZERO PUSH2 0x2850 JUMPI PUSH2 0x284F PUSH2 0x27F8 JUMP JUMPDEST JUMPDEST PUSH0 PUSH2 0x285D DUP5 DUP3 DUP6 ADD PUSH2 0x2827 JUMP JUMPDEST SWAP2 POP POP SWAP3 SWAP2 POP POP JUMP JUMPDEST PUSH0 DUP2 SWAP1 POP SWAP2 SWAP1 POP JUMP JUMPDEST PUSH2 0x2878 DUP2 PUSH2 0x2866 JUMP JUMPDEST DUP2 EQ PUSH2 0x2882 JUMPI PUSH0 PUSH0 REVERT JUMPDEST POP JUMP JUMPDEST PUSH0 DUP2 CALLDATALOAD SWAP1 POP PUSH2 0x2893 DUP2 PUSH2 0x286F JUMP JUMPDEST SWAP3 SWAP2 POP POP JUMP JUMPDEST PUSH0 PUSH1 0x20 DUP3 DUP5 SUB SLT ISZERO PUSH2 0x28AE JUMPI PUSH2 0x28AD PUSH2 0x27F8 JUMP JUMPDEST JUMPDEST PUSH0 PUSH2 0x28BB DUP5 DUP3 DUP6 ADD PUSH2 0x2885 JUMP JUMPDEST SWAP2 POP POP SWAP3 SWAP2 POP POP JUMP JUMPDEST PUSH2 0x28CD DUP2 PUSH2 0x2800 JUMP JUMPDEST DUP3 MSTORE POP POP JUMP JUMPDEST PUSH0 DUP2 ISZERO ISZERO SWAP1 POP SWAP2 SWAP1 POP JUMP JUMPDEST PUSH2 0x28E7 DUP2 PUSH2 0x28D3 JUMP JUMPDEST DUP3 MSTORE POP POP JUMP JUMPDEST PUSH0 DUP2 MLOAD SWAP1 POP SWAP2 SWAP1 POP JUMP JUMPDEST PUSH0 DUP3 DUP3 MSTORE PUSH1 0x20 DUP3 ADD SWAP1 POP SWAP3 SWAP2 POP POP JUMP JUMPDEST DUP3 DUP2 DUP4 MCOPY PUSH0 DUP4 DUP4 ADD MSTORE POP POP POP JUMP JUMPDEST PUSH0 PUSH1 0x1F NOT PUSH1 0x1F DUP4 ADD AND SWAP1 POP SWAP2 SWAP1 POP JUMP JUMPDEST PUSH0 PUSH2 0x292F DUP3 PUSH2 0x28ED JUMP JUMPDEST PUSH2 0x2939 DUP2 DUP6 PUSH2 0x28F7 JUMP JUMPDEST SWAP4 POP PUSH2 0x2949 DUP2 DUP6 PUSH1 0x20 DUP7 ADD PUSH2 0x2907 JUMP JUMPDEST PUSH2 0x2952 DUP2 PUSH2 0x2915 JUMP JUMPDEST DUP5 ADD SWAP2 POP POP SWAP3 SWAP2 POP POP JUMP JUMPDEST PUSH0 PUSH1 0x60 DUP3 ADD SWAP1 POP PUSH2 0x2970 PUSH0 DUP4 ADD DUP7 PUSH2 0x28C4 JUMP JUMPDEST PUSH2 0x297D PUSH1 0x20 DUP4 ADD DUP6 PUSH2 0x28DE JUMP JUMPDEST DUP2 DUP2 SUB PUSH1 0x40 DUP4 ADD MSTORE PUSH2 0x298F DUP2 DUP5 PUSH2 0x2925 JUMP JUMPDEST SWAP1 POP SWAP5 SWAP4 POP POP POP POP JUMP JUMPDEST PUSH2 0x29A2 DUP2 PUSH2 0x2866 JUMP JUMPDEST DUP3 MSTORE POP POP JUMP JUMPDEST PUSH0 PUSH1 0x20 DUP3 ADD SWAP1 POP PUSH2 0x29BB PUSH0 DUP4 ADD DUP5 PUSH2 0x2999 JUMP JUMPDEST SWAP3 SWAP2 POP POP JUMP JUMPDEST PUSH0 PUSH1 0x40 DUP3 ADD SWAP1 POP PUSH2 0x29D4 PUSH0 DUP4 ADD DUP6 PUSH2 0x2999 JUMP JUMPDEST PUSH2 0x29E1 PUSH1 0x20 DUP4 ADD DUP5 PUSH2 0x2999 JUMP JUMPDEST SWAP4 SWAP3 POP POP POP JUMP JUMPDEST PUSH1 0x5 DUP2 LT PUSH2 0x29F4 JUMPI PUSH0 PUSH0 REVERT JUMPDEST POP JUMP JUMPDEST PUSH0 DUP2 CALLDATALOAD SWAP1 POP PUSH2 0x2A05 DUP2 PUSH2 0x29E8 JUMP JUMPDEST SWAP3 SWAP2 POP POP JUMP JUMPDEST PUSH0 PUSH1 0x20 DUP3 DUP5 SUB SLT ISZERO PUSH2 0x2A20 JUMPI PUSH2 0x2A1F PUSH2 0x27F8 JUMP JUMPDEST JUMPDEST PUSH0 PUSH2 0x2A2D DUP5 DUP3 DUP6 ADD PUSH2 0x29F7 JUMP JUMPDEST SWAP2 POP POP SWAP3 SWAP2 POP POP JUMP JUMPDEST PUSH0 PUSH2 0x2A40 DUP3 PUSH2 0x275C JUMP JUMPDEST SWAP1 POP SWAP2 SWAP1 POP JUMP JUMPDEST PUSH2 0x2A50 DUP2 PUSH2 0x2A36 JUMP JUMPDEST DUP2 EQ PUSH2 0x2A5A JUMPI PUSH0 PUSH0 REVERT JUMPDEST POP JUMP JUMPDEST PUSH0 DUP2 CALLDATALOAD SWAP1 POP PUSH2 0x2A6B DUP2 PUSH2 0x2A47 JUMP JUMPDEST SWAP3 SWAP2 POP POP JUMP JUMPDEST PUSH0 PUSH1 0x20 DUP3 DUP5 SUB SLT ISZERO PUSH2 0x2A86 JUMPI PUSH2 0x2A85 PUSH2 0x27F8 JUMP JUMPDEST JUMPDEST PUSH0 PUSH2 0x2A93 DUP5 DUP3 DUP6 ADD PUSH2 0x2A5D JUMP JUMPDEST SWAP2 POP POP SWAP3 SWAP2 POP POP JUMP JUMPDEST PUSH32 0x4E487B7100000000000000000000000000000000000000000000000000000000 PUSH0 MSTORE PUSH1 0x21 PUSH1 0x4 MSTORE PUSH1 0x24 PUSH0 REVERT JUMPDEST PUSH1 0x5 DUP2 LT PUSH2 0x2ADA JUMPI PUSH2 0x2AD9 PUSH2 0x2A9C JUMP JUMPDEST JUMPDEST POP JUMP JUMPDEST PUSH0 DUP2 SWAP1 POP PUSH2 0x2AEA DUP3 PUSH2 0x2AC9 JUMP JUMPDEST SWAP2 SWAP1 POP JUMP JUMPDEST PUSH0 PUSH2 0x2AF9 DUP3 PUSH2 0x2ADD JUMP JUMPDEST SWAP1 POP SWAP2 SWAP1 POP JUMP JUMPDEST PUSH2 0x2B09 DUP2 PUSH2 0x2AEF JUMP JUMPDEST DUP3 MSTORE POP POP JUMP JUMPDEST PUSH0 PUSH2 0x160 DUP3 ADD SWAP1 POP PUSH2 0x2B23 PUSH0 DUP4 ADD DUP15 PUSH2 0x2999 JUMP JUMPDEST PUSH2 0x2B30 PUSH1 0x20 DUP4 ADD DUP14 PUSH2 0x28C4 JUMP JUMPDEST DUP2 DUP2 SUB PUSH1 0x40 DUP4 ADD MSTORE PUSH2 0x2B42 DUP2 DUP13 PUSH2 0x2925 JUMP JUMPDEST SWAP1 POP PUSH2 0x2B51 PUSH1 0x60 DUP4 ADD DUP12 PUSH2 0x2999 JUMP JUMPDEST PUSH2 0x2B5E PUSH1 0x80 DUP4 ADD DUP11 PUSH2 0x2999 JUMP JUMPDEST DUP2 DUP2 SUB PUSH1 0xA0 DUP4 ADD MSTORE PUSH2 0x2B70 DUP2 DUP10 PUSH2 0x2925 JUMP JUMPDEST SWAP1 POP PUSH2 0x2B7F PUSH1 0xC0 DUP4 ADD DUP9 PUSH2 0x2999 JUMP JUMPDEST DUP2 DUP2 SUB PUSH1 0xE0 DUP4 ADD MSTORE PUSH2 0x2B91 DUP2 DUP8 PUSH2 0x2925 JUMP JUMPDEST SWAP1 POP DUP2 DUP2 SUB PUSH2 0x100 DUP4 ADD MSTORE PUSH2 0x2BA6 DUP2 DUP7 PUSH2 0x2925 JUMP JUMPDEST SWAP1 POP PUSH2 0x2BB6 PUSH2 0x120 DUP4 ADD DUP6 PUSH2 0x2B00 JUMP JUMPDEST PUSH2 0x2BC4 PUSH2 0x140 DUP4 ADD DUP5 PUSH2 0x28DE JUMP JUMPDEST SWAP13 SWAP12 POP POP POP POP POP POP POP POP POP POP POP POP JUMP JUMPDEST PUSH0 PUSH0 PUSH1 0x40 DUP4 DUP6 SUB SLT ISZERO PUSH2 0x2BEA JUMPI PUSH2 0x2BE9 PUSH2 0x27F8 JUMP JUMPDEST JUMPDEST PUSH0 PUSH2 0x2BF7 DUP6 DUP3 DUP7 ADD PUSH2 0x2827 JUMP JUMPDEST SWAP3 POP POP PUSH1 0x20 PUSH2 0x2C08 DUP6 DUP3 DUP7 ADD PUSH2 0x2885 JUMP JUMPDEST SWAP2 POP POP SWAP3 POP SWAP3 SWAP1 POP JUMP JUMPDEST PUSH0 PUSH1 0x80 DUP3 ADD SWAP1 POP PUSH2 0x2C25 PUSH0 DUP4 ADD DUP8 PUSH2 0x28C4 JUMP JUMPDEST DUP2 DUP2 SUB PUSH1 0x20 DUP4 ADD MSTORE PUSH2 0x2C37 DUP2 DUP7 PUSH2 0x2925 JUMP JUMPDEST SWAP1 POP PUSH2 0x2C46 PUSH1 0x40 DUP4 ADD DUP6 PUSH2 0x2999 JUMP JUMPDEST PUSH2 0x2C53 PUSH1 0x60 DUP4 ADD DUP5 PUSH2 0x2999 JUMP JUMPDEST SWAP6 SWAP5 POP POP POP POP POP JUMP JUMPDEST PUSH0 PUSH1 0x20 DUP3 ADD SWAP1 POP PUSH2 0x2C6F PUSH0 DUP4 ADD DUP5 PUSH2 0x2B00 JUMP JUMPDEST SWAP3 SWAP2 POP POP JUMP JUMPDEST PUSH0 PUSH0 REVERT JUMPDEST PUSH32 0x4E487B7100000000000000000000000000000000000000000000000000000000 PUSH0 MSTORE PUSH1 0x41 PUSH1 0x4 MSTORE PUSH1 0x24 PUSH0 REVERT JUMPDEST PUSH2 0x2CAF DUP3 PUSH2 0x2915 JUMP JUMPDEST DUP2 ADD DUP2 DUP2 LT PUSH8 0xFFFFFFFFFFFFFFFF DUP3 GT OR ISZERO PUSH2 0x2CCE JUMPI PUSH2 0x2CCD PUSH2 0x2C79 JUMP JUMPDEST JUMPDEST DUP1 PUSH1 0x40 MSTORE POP POP POP JUMP JUMPDEST PUSH0 PUSH2 0x2CE0 PUSH2 0x27EF JUMP JUMPDEST SWAP1 POP PUSH2 0x2CEC DUP3 DUP3 PUSH2 0x2CA6 JUMP JUMPDEST SWAP2 SWAP1 POP JUMP JUMPDEST PUSH0 PUSH0 REVERT JUMPDEST PUSH0 PUSH0 REVERT JUMPDEST PUSH0 PUSH0 REVERT JUMPDEST PUSH0 PUSH8 0xFFFFFFFFFFFFFFFF DUP3 GT ISZERO PUSH2 0x2D17 JUMPI PUSH2 0x2D16 PUSH2 0x2C79 JUMP JUMPDEST JUMPDEST PUSH2 0x2D20 DUP3 PUSH2 0x2915 JUMP JUMPDEST SWAP1 POP PUSH1 0x20 DUP2 ADD SWAP1 POP SWAP2 SWAP1 POP JUMP JUMPDEST DUP3 DUP2 DUP4 CALLDATACOPY PUSH0 DUP4 DUP4 ADD MSTORE POP POP POP JUMP JUMPDEST PUSH0 PUSH2 0x2D4D PUSH2 0x2D48 DUP5 PUSH2 0x2CFD JUMP JUMPDEST PUSH2 0x2CD7 JUMP JUMPDEST SWAP1 POP DUP3 DUP2 MSTORE PUSH1 0x20 DUP2 ADD DUP5 DUP5 DUP5 ADD GT ISZERO PUSH2 0x2D69 JUMPI PUSH2 0x2D68 PUSH2 0x2CF9 JUMP JUMPDEST JUMPDEST PUSH2 0x2D74 DUP5 DUP3 DUP6 PUSH2 0x2D2D JUMP JUMPDEST POP SWAP4 SWAP3 POP POP POP JUMP JUMPDEST PUSH0 DUP3 PUSH1 0x1F DUP4 ADD SLT PUSH2 0x2D90 JUMPI PUSH2 0x2D8F PUSH2 0x2CF5 JUMP JUMPDEST JUMPDEST DUP2 CALLDATALOAD PUSH2 0x2DA0 DUP5 DUP3 PUSH1 0x20 DUP7 ADD PUSH2 0x2D3B JUMP JUMPDEST SWAP2 POP POP SWAP3 SWAP2 POP POP JUMP JUMPDEST PUSH0 PUSH8 0xFFFFFFFFFFFFFFFF DUP3 GT ISZERO PUSH2 0x2DC3 JUMPI PUSH2 0x2DC2 PUSH2 0x2C79 JUMP JUMPDEST JUMPDEST PUSH1 0x20 DUP3 MUL SWAP1 POP PUSH1 0x20 DUP2 ADD SWAP1 POP SWAP2 SWAP1 POP JUMP JUMPDEST PUSH0 PUSH0 REVERT JUMPDEST PUSH2 0x2DE1 DUP2 PUSH2 0x28D3 JUMP JUMPDEST DUP2 EQ PUSH2 0x2DEB JUMPI PUSH0 PUSH0 REVERT JUMPDEST POP JUMP JUMPDEST PUSH0 DUP2 CALLDATALOAD SWAP1 POP PUSH2 0x2DFC DUP2 PUSH2 0x2DD8 JUMP JUMPDEST SWAP3 SWAP2 POP POP JUMP JUMPDEST PUSH0 PUSH1 0x60 DUP3 DUP5 SUB SLT ISZERO PUSH2 0x2E17 JUMPI PUSH2 0x2E16 PUSH2 0x2C75 JUMP JUMPDEST JUMPDEST PUSH2 0x2E21 PUSH1 0x60 PUSH2 0x2CD7 JUMP JUMPDEST SWAP1 POP PUSH0 PUSH2 0x2E30 DUP5 DUP3 DUP6 ADD PUSH2 0x2827 JUMP JUMPDEST PUSH0 DUP4 ADD MSTORE POP PUSH1 0x20 PUSH2 0x2E43 DUP5 DUP3 DUP6 ADD PUSH2 0x2DEE JUMP JUMPDEST PUSH1 0x20 DUP4 ADD MSTORE POP PUSH1 0x40 DUP3 ADD CALLDATALOAD PUSH8 0xFFFFFFFFFFFFFFFF DUP2 GT ISZERO PUSH2 0x2E67 JUMPI PUSH2 0x2E66 PUSH2 0x2CF1 JUMP JUMPDEST JUMPDEST PUSH2 0x2E73 DUP5 DUP3 DUP6 ADD PUSH2 0x2D7C JUMP JUMPDEST PUSH1 0x40 DUP4 ADD MSTORE POP SWAP3 SWAP2 POP POP JUMP JUMPDEST PUSH0 PUSH2 0x2E91 PUSH2 0x2E8C DUP5 PUSH2 0x2DA9 JUMP JUMPDEST PUSH2 0x2CD7 JUMP JUMPDEST SWAP1 POP DUP1 DUP4 DUP3 MSTORE PUSH1 0x20 DUP3 ADD SWAP1 POP PUSH1 0x20 DUP5 MUL DUP4 ADD DUP6 DUP2 GT ISZERO PUSH2 0x2EB4 JUMPI PUSH2 0x2EB3 PUSH2 0x2DD4 JUMP JUMPDEST JUMPDEST DUP4 JUMPDEST DUP2 DUP2 LT ISZERO PUSH2 0x2EFB JUMPI DUP1 CALLDATALOAD PUSH8 0xFFFFFFFFFFFFFFFF DUP2 GT ISZERO PUSH2 0x2ED9 JUMPI PUSH2 0x2ED8 PUSH2 0x2CF5 JUMP JUMPDEST JUMPDEST DUP1 DUP7 ADD PUSH2 0x2EE6 DUP10 DUP3 PUSH2 0x2E02 JUMP JUMPDEST DUP6 MSTORE PUSH1 0x20 DUP6 ADD SWAP5 POP POP POP PUSH1 0x20 DUP2 ADD SWAP1 POP PUSH2 0x2EB6 JUMP JUMPDEST POP POP POP SWAP4 SWAP3 POP POP POP JUMP JUMPDEST PUSH0 DUP3 PUSH1 0x1F DUP4 ADD SLT PUSH2 0x2F19 JUMPI PUSH2 0x2F18 PUSH2 0x2CF5 JUMP JUMPDEST JUMPDEST DUP2 CALLDATALOAD PUSH2 0x2F29 DUP5 DUP3 PUSH1 0x20 DUP7 ADD PUSH2 0x2E7F JUMP JUMPDEST SWAP2 POP POP SWAP3 SWAP2 POP POP JUMP JUMPDEST PUSH0 PUSH2 0x1A0 DUP3 DUP5 SUB SLT ISZERO PUSH2 0x2F48 JUMPI PUSH2 0x2F47 PUSH2 0x2C75 JUMP JUMPDEST JUMPDEST PUSH2 0x2F53 PUSH2 0x1A0 PUSH2 0x2CD7 JUMP JUMPDEST SWAP1 POP PUSH0 PUSH2 0x2F62 DUP5 DUP3 DUP6 ADD PUSH2 0x2885 JUMP JUMPDEST PUSH0 DUP4 ADD MSTORE POP PUSH1 0x20 PUSH2 0x2F75 DUP5 DUP3 DUP6 ADD PUSH2 0x2827 JUMP JUMPDEST PUSH1 0x20 DUP4 ADD MSTORE POP PUSH1 0x40 DUP3 ADD CALLDATALOAD PUSH8 0xFFFFFFFFFFFFFFFF DUP2 GT ISZERO PUSH2 0x2F99 JUMPI PUSH2 0x2F98 PUSH2 0x2CF1 JUMP JUMPDEST JUMPDEST PUSH2 0x2FA5 DUP5 DUP3 DUP6 ADD PUSH2 0x2D7C JUMP JUMPDEST PUSH1 0x40 DUP4 ADD MSTORE POP PUSH1 0x60 PUSH2 0x2FB9 DUP5 DUP3 DUP6 ADD PUSH2 0x2885 JUMP JUMPDEST PUSH1 0x60 DUP4 ADD MSTORE POP PUSH1 0x80 PUSH2 0x2FCD DUP5 DUP3 DUP6 ADD PUSH2 0x2885 JUMP JUMPDEST PUSH1 0x80 DUP4 ADD MSTORE POP PUSH1 0xA0 DUP3 ADD CALLDATALOAD PUSH8 0xFFFFFFFFFFFFFFFF DUP2 GT ISZERO PUSH2 0x2FF1 JUMPI PUSH2 0x2FF0 PUSH2 0x2CF1 JUMP JUMPDEST JUMPDEST PUSH2 0x2FFD DUP5 DUP3 DUP6 ADD PUSH2 0x2D7C JUMP JUMPDEST PUSH1 0xA0 DUP4 ADD MSTORE POP PUSH1 0xC0 PUSH2 0x3011 DUP5 DUP3 DUP6 ADD PUSH2 0x2885 JUMP JUMPDEST PUSH1 0xC0 DUP4 ADD MSTORE POP PUSH1 0xE0 DUP3 ADD CALLDATALOAD PUSH8 0xFFFFFFFFFFFFFFFF DUP2 GT ISZERO PUSH2 0x3035 JUMPI PUSH2 0x3034 PUSH2 0x2CF1 JUMP JUMPDEST JUMPDEST PUSH2 0x3041 DUP5 DUP3 DUP6 ADD PUSH2 0x2D7C JUMP JUMPDEST PUSH1 0xE0 DUP4 ADD MSTORE POP PUSH2 0x100 DUP3 ADD CALLDATALOAD PUSH8 0xFFFFFFFFFFFFFFFF DUP2 GT ISZERO PUSH2 0x3066 JUMPI PUSH2 0x3065 PUSH2 0x2CF1 JUMP JUMPDEST JUMPDEST PUSH2 0x3072 DUP5 DUP3 DUP6 ADD PUSH2 0x2D7C JUMP JUMPDEST PUSH2 0x100 DUP4 ADD MSTORE POP PUSH2 0x120 DUP3 ADD CALLDATALOAD PUSH8 0xFFFFFFFFFFFFFFFF DUP2 GT ISZERO PUSH2 0x3098 JUMPI PUSH2 0x3097 PUSH2 0x2CF1 JUMP JUMPDEST JUMPDEST PUSH2 0x30A4 DUP5 DUP3 DUP6 ADD PUSH2 0x2F05 JUMP JUMPDEST PUSH2 0x120 DUP4 ADD MSTORE POP PUSH2 0x140 DUP3 ADD CALLDATALOAD PUSH8 0xFFFFFFFFFFFFFFFF DUP2 GT ISZERO PUSH2 0x30CA JUMPI PUSH2 0x30C9 PUSH2 0x2CF1 JUMP JUMPDEST JUMPDEST PUSH2 0x30D6 DUP5 DUP3 DUP6 ADD PUSH2 0x2F05 JUMP JUMPDEST PUSH2 0x140 DUP4 ADD MSTORE POP PUSH2 0x160 PUSH2 0x30EC DUP5 DUP3 DUP6 ADD PUSH2 0x29F7 JUMP JUMPDEST PUSH2 0x160 DUP4 ADD MSTORE POP PUSH2 0x180 PUSH2 0x3102 DUP5 DUP3 DUP6 ADD PUSH2 0x2DEE JUMP JUMPDEST PUSH2 0x180 DUP4 ADD MSTORE POP SWAP3 SWAP2 POP POP JUMP JUMPDEST PUSH0 PUSH1 0x80 DUP3 DUP5 SUB SLT ISZERO PUSH2 0x3124 JUMPI PUSH2 0x3123 PUSH2 0x2C75 JUMP JUMPDEST JUMPDEST PUSH2 0x312E PUSH1 0x80 PUSH2 0x2CD7 JUMP JUMPDEST SWAP1 POP PUSH0 PUSH2 0x313D DUP5 DUP3 DUP6 ADD PUSH2 0x2827 JUMP JUMPDEST PUSH0 DUP4 ADD MSTORE POP PUSH1 0x20 DUP3 ADD CALLDATALOAD PUSH8 0xFFFFFFFFFFFFFFFF DUP2 GT ISZERO PUSH2 0x3160 JUMPI PUSH2 0x315F PUSH2 0x2CF1 JUMP JUMPDEST JUMPDEST PUSH2 0x316C DUP5 DUP3 DUP6 ADD PUSH2 0x2D7C JUMP JUMPDEST PUSH1 0x20 DUP4 ADD MSTORE POP PUSH1 0x40 PUSH2 0x3180 DUP5 DUP3 DUP6 ADD PUSH2 0x2885 JUMP JUMPDEST PUSH1 0x40 DUP4 ADD MSTORE POP PUSH1 0x60 PUSH2 0x3194 DUP5 DUP3 DUP6 ADD PUSH2 0x2885 JUMP JUMPDEST PUSH1 0x60 DUP4 ADD MSTORE POP SWAP3 SWAP2 POP POP JUMP JUMPDEST PUSH0 PUSH0 PUSH1 0x40 DUP4 DUP6 SUB SLT ISZERO PUSH2 0x31B6 JUMPI PUSH2 0x31B5 PUSH2 0x27F8 JUMP JUMPDEST JUMPDEST PUSH0 DUP4 ADD CALLDATALOAD PUSH8 0xFFFFFFFFFFFFFFFF DUP2 GT ISZERO PUSH2 0x31D3 JUMPI PUSH2 0x31D2 PUSH2 0x27FC JUMP JUMPDEST JUMPDEST PUSH2 0x31DF DUP6 DUP3 DUP7 ADD PUSH2 0x2F32 JUMP JUMPDEST SWAP3 POP POP PUSH1 0x20 DUP4 ADD CALLDATALOAD PUSH8 0xFFFFFFFFFFFFFFFF DUP2 GT ISZERO PUSH2 0x3200 JUMPI PUSH2 0x31FF PUSH2 0x27FC JUMP JUMPDEST JUMPDEST PUSH2 0x320C DUP6 DUP3 DUP7 ADD PUSH2 0x310F JUMP JUMPDEST SWAP2 POP POP SWAP3 POP SWAP3 SWAP1 POP JUMP JUMPDEST PUSH32 0x4E487B7100000000000000000000000000000000000000000000000000000000 PUSH0 MSTORE PUSH1 0x11 PUSH1 0x4 MSTORE PUSH1 0x24 PUSH0 REVERT JUMPDEST PUSH0 PUSH2 0x324D DUP3 PUSH2 0x2866 JUMP JUMPDEST SWAP2 POP PUSH2 0x3258 DUP4 PUSH2 0x2866 JUMP JUMPDEST SWAP3 POP DUP3 DUP3 ADD SWAP1 POP DUP1 DUP3 GT ISZERO PUSH2 0x3270 JUMPI PUSH2 0x326F PUSH2 0x3216 JUMP JUMPDEST JUMPDEST SWAP3 SWAP2 POP POP JUMP JUMPDEST PUSH0 PUSH2 0x3280 DUP3 PUSH2 0x2866 JUMP JUMPDEST SWAP2 POP PUSH2 0x328B DUP4 PUSH2 0x2866 JUMP JUMPDEST SWAP3 POP DUP3 DUP3 SUB SWAP1 POP DUP2 DUP2 GT ISZERO PUSH2 0x32A3 JUMPI PUSH2 0x32A2 PUSH2 0x3216 JUMP JUMPDEST JUMPDEST SWAP3 SWAP2 POP POP JUMP JUMPDEST PUSH32 0x4E487B7100000000000000000000000000000000000000000000000000000000 PUSH0 MSTORE PUSH1 0x22 PUSH1 0x4 MSTORE PUSH1 0x24 PUSH0 REVERT JUMPDEST PUSH0 PUSH1 0x2 DUP3 DIV SWAP1 POP PUSH1 0x1 DUP3 AND DUP1 PUSH2 0x32ED JUMPI PUSH1 0x7F DUP3 AND SWAP2 POP JUMPDEST PUSH1 0x20 DUP3 LT DUP2 SUB PUSH2 0x3300 JUMPI PUSH2 0x32FF PUSH2 0x32A9 JUMP JUMPDEST JUMPDEST POP SWAP2 SWAP1 POP JUMP JUMPDEST PUSH32 0x4465706C6F7920415049436F6E73756D65722066697273742100000000000000 PUSH0 DUP3 ADD MSTORE POP JUMP JUMPDEST PUSH0 PUSH2 0x333A PUSH1 0x19 DUP4 PUSH2 0x28F7 JUMP JUMPDEST SWAP2 POP PUSH2 0x3345 DUP3 PUSH2 0x3306 JUMP JUMPDEST PUSH1 0x20 DUP3 ADD SWAP1 POP SWAP2 SWAP1 POP JUMP JUMPDEST PUSH0 PUSH1 0x20 DUP3 ADD SWAP1 POP DUP2 DUP2 SUB PUSH0 DUP4 ADD MSTORE PUSH2 0x3367 DUP2 PUSH2 0x332E JUMP JUMPDEST SWAP1 POP SWAP2 SWAP1 POP JUMP JUMPDEST PUSH0 DUP2 SWAP1 POP DUP2 PUSH0 MSTORE PUSH1 0x20 PUSH0 KECCAK256 SWAP1 POP SWAP2 SWAP1 POP JUMP JUMPDEST PUSH0 PUSH1 0x20 PUSH1 0x1F DUP4 ADD DIV SWAP1 POP SWAP2 SWAP1 POP JUMP JUMPDEST PUSH0 DUP3 DUP3 SHL SWAP1 POP SWAP3 SWAP2 POP POP JUMP JUMPDEST PUSH0 PUSH1 0x8 DUP4 MUL PUSH2 0x33CA PUSH32 0xFFFFFFFFFFFFFFFFFFFFFFFFFFFFFFFFFFFFFFFFFFFFFFFFFFFFFFFFFFFFFFFF DUP3 PUSH2 0x338F JUMP JUMPDEST PUSH2 0x33D4 DUP7 DUP4 PUSH2 0x338F JUMP JUMPDEST SWAP6 POP DUP1 NOT DUP5 AND SWAP4 POP DUP1 DUP7 AND DUP5 OR SWAP3 POP POP POP SWAP4 SWAP3 POP POP POP JUMP JUMPDEST PUSH0 PUSH2 0x3406 PUSH2 0x3401 PUSH2 0x33FC DUP5 PUSH2 0x2866 JUMP JUMPDEST PUSH2 0x277B JUMP JUMPDEST PUSH2 0x2866 JUMP JUMPDEST SWAP1 POP SWAP2 SWAP1 POP JUMP JUMPDEST PUSH0 DUP2 SWAP1 POP SWAP2 SWAP1 POP JUMP JUMPDEST PUSH2 0x341F DUP4 PUSH2 0x33EC JUMP JUMPDEST PUSH2 0x3433 PUSH2 0x342B DUP3 PUSH2 0x340D JUMP JUMPDEST DUP5 DUP5 SLOAD PUSH2 0x339B JUMP JUMPDEST DUP3 SSTORE POP POP POP POP JUMP JUMPDEST PUSH0 PUSH0 SWAP1 POP SWAP1 JUMP JUMPDEST PUSH2 0x344A PUSH2 0x343B JUMP JUMPDEST PUSH2 0x3455 DUP2 DUP5 DUP5 PUSH2 0x3416 JUMP JUMPDEST POP POP POP JUMP JUMPDEST JUMPDEST DUP2 DUP2 LT ISZERO PUSH2 0x3478 JUMPI PUSH2 0x346D PUSH0 DUP3 PUSH2 0x3442 JUMP JUMPDEST PUSH1 0x1 DUP2 ADD SWAP1 POP PUSH2 0x345B JUMP JUMPDEST POP POP JUMP JUMPDEST PUSH1 0x1F DUP3 GT ISZERO PUSH2 0x34BD JUMPI PUSH2 0x348E DUP2 PUSH2 0x336E JUMP JUMPDEST PUSH2 0x3497 DUP5 PUSH2 0x3380 JUMP JUMPDEST DUP2 ADD PUSH1 0x20 DUP6 LT ISZERO PUSH2 0x34A6 JUMPI DUP2 SWAP1 POP JUMPDEST PUSH2 0x34BA PUSH2 0x34B2 DUP6 PUSH2 0x3380 JUMP JUMPDEST DUP4 ADD DUP3 PUSH2 0x345A JUMP JUMPDEST POP POP JUMPDEST POP POP POP JUMP JUMPDEST PUSH0 DUP3 DUP3 SHR SWAP1 POP SWAP3 SWAP2 POP POP JUMP JUMPDEST PUSH0 PUSH2 0x34DD PUSH0 NOT DUP5 PUSH1 0x8 MUL PUSH2 0x34C2 JUMP JUMPDEST NOT DUP1 DUP4 AND SWAP2 POP POP SWAP3 SWAP2 POP POP JUMP JUMPDEST PUSH0 PUSH2 0x34F5 DUP4 DUP4 PUSH2 0x34CE JUMP JUMPDEST SWAP2 POP DUP3 PUSH1 0x2 MUL DUP3 OR SWAP1 POP SWAP3 SWAP2 POP POP JUMP JUMPDEST PUSH2 0x350E DUP3 PUSH2 0x28ED JUMP JUMPDEST PUSH8 0xFFFFFFFFFFFFFFFF DUP2 GT ISZERO PUSH2 0x3527 JUMPI PUSH2 0x3526 PUSH2 0x2C79 JUMP JUMPDEST JUMPDEST PUSH2 0x3531 DUP3 SLOAD PUSH2 0x32D6 JUMP JUMPDEST PUSH2 0x353C DUP3 DUP3 DUP6 PUSH2 0x347C JUMP JUMPDEST PUSH0 PUSH1 0x20 SWAP1 POP PUSH1 0x1F DUP4 GT PUSH1 0x1 DUP2 EQ PUSH2 0x356D JUMPI PUSH0 DUP5 ISZERO PUSH2 0x355B JUMPI DUP3 DUP8 ADD MLOAD SWAP1 POP JUMPDEST PUSH2 0x3565 DUP6 DUP3 PUSH2 0x34EA JUMP JUMPDEST DUP7 SSTORE POP PUSH2 0x35CC JUMP JUMPDEST PUSH1 0x1F NOT DUP5 AND PUSH2 0x357B DUP7 PUSH2 0x336E JUMP JUMPDEST PUSH0 JUMPDEST DUP3 DUP2 LT ISZERO PUSH2 0x35A2 JUMPI DUP5 DUP10 ADD MLOAD DUP3 SSTORE PUSH1 0x1 DUP3 ADD SWAP2 POP PUSH1 0x20 DUP6 ADD SWAP5 POP PUSH1 0x20 DUP2 ADD SWAP1 POP PUSH2 0x357D JUMP JUMPDEST DUP7 DUP4 LT ISZERO PUSH2 0x35BF JUMPI DUP5 DUP10 ADD MLOAD PUSH2 0x35BB PUSH1 0x1F DUP10 AND DUP3 PUSH2 0x34CE JUMP JUMPDEST DUP4 SSTORE POP JUMPDEST PUSH1 0x1 PUSH1 0x2 DUP9 MUL ADD DUP9 SSTORE POP POP POP JUMPDEST POP POP POP POP POP POP JUMP JUMPDEST PUSH0 DUP2 SWAP1 POP SWAP2 SWAP1 POP JUMP JUMPDEST PUSH0 PUSH2 0x35F7 PUSH2 0x35F2 PUSH2 0x35ED DUP5 PUSH2 0x35D4 JUMP JUMPDEST PUSH2 0x277B JUMP JUMPDEST PUSH2 0x2866 JUMP JUMPDEST SWAP1 POP SWAP2 SWAP1 POP JUMP JUMPDEST PUSH2 0x3607 DUP2 PUSH2 0x35DD JUMP JUMPDEST DUP3 MSTORE POP POP JUMP JUMPDEST PUSH0 PUSH1 0x20 DUP3 ADD SWAP1 POP PUSH2 0x3620 PUSH0 DUP4 ADD DUP5 PUSH2 0x35FE JUMP JUMPDEST SWAP3 SWAP2 POP POP JUMP JUMPDEST PUSH0 DUP2 SWAP1 POP SWAP2 SWAP1 POP JUMP JUMPDEST PUSH2 0x3638 DUP2 PUSH2 0x3626 JUMP JUMPDEST DUP2 EQ PUSH2 0x3642 JUMPI PUSH0 PUSH0 REVERT JUMPDEST POP JUMP JUMPDEST PUSH0 DUP2 MLOAD SWAP1 POP PUSH2 0x3653 DUP2 PUSH2 0x362F JUMP JUMPDEST SWAP3 SWAP2 POP POP JUMP JUMPDEST PUSH0 PUSH1 0x20 DUP3 DUP5 SUB SLT ISZERO PUSH2 0x366E JUMPI PUSH2 0x366D PUSH2 0x27F8 JUMP JUMPDEST JUMPDEST PUSH0 PUSH2 0x367B DUP5 DUP3 DUP6 ADD PUSH2 0x3645 JUMP JUMPDEST SWAP2 POP POP SWAP3 SWAP2 POP POP JUMP JUMPDEST PUSH0 PUSH2 0x368E DUP3 PUSH2 0x2866 JUMP JUMPDEST SWAP2 POP PUSH2 0x3699 DUP4 PUSH2 0x2866 JUMP JUMPDEST SWAP3 POP DUP3 DUP3 MUL PUSH2 0x36A7 DUP2 PUSH2 0x2866 JUMP JUMPDEST SWAP2 POP DUP3 DUP3 DIV DUP5 EQ DUP4 ISZERO OR PUSH2 0x36BE JUMPI PUSH2 0x36BD PUSH2 0x3216 JUMP JUMPDEST JUMPDEST POP SWAP3 SWAP2 POP POP JUMP JUMPDEST PUSH32 0x4E487B7100000000000000000000000000000000000000000000000000000000 PUSH0 MSTORE PUSH1 0x12 PUSH1 0x4 MSTORE PUSH1 0x24 PUSH0 REVERT JUMPDEST PUSH0 PUSH2 0x36FC DUP3 PUSH2 0x2866 JUMP JUMPDEST SWAP2 POP PUSH2 0x3707 DUP4 PUSH2 0x2866 JUMP JUMPDEST SWAP3 POP DUP3 PUSH2 0x3717 JUMPI PUSH2 0x3716 PUSH2 0x36C5 JUMP JUMPDEST JUMPDEST DUP3 DUP3 DIV SWAP1 POP SWAP3 SWAP2 POP POP JUMP JUMPDEST PUSH32 0x5468652070726F706F6E656E742068617320746F20706179206120746F74616C PUSH0 DUP3 ADD MSTORE PUSH32 0x206F663A20000000000000000000000000000000000000000000000000000000 PUSH1 0x20 DUP3 ADD MSTORE POP JUMP JUMPDEST PUSH0 PUSH2 0x377C PUSH1 0x25 DUP4 PUSH2 0x28F7 JUMP JUMPDEST SWAP2 POP PUSH2 0x3787 DUP3 PUSH2 0x3722 JUMP JUMPDEST PUSH1 0x40 DUP3 ADD SWAP1 POP SWAP2 SWAP1 POP JUMP JUMPDEST PUSH0 PUSH1 0x40 DUP3 ADD SWAP1 POP DUP2 DUP2 SUB PUSH0 DUP4 ADD MSTORE PUSH2 0x37A9 DUP2 PUSH2 0x3770 JUMP JUMPDEST SWAP1 POP PUSH2 0x37B8 PUSH1 0x20 DUP4 ADD DUP5 PUSH2 0x2999 JUMP JUMPDEST SWAP3 SWAP2 POP POP JUMP JUMPDEST PUSH32 0x56657272612068617320746F20706179206120746F74616C206F663A00000000 PUSH0 DUP3 ADD MSTORE POP JUMP JUMPDEST PUSH0 PUSH2 0x37F2 PUSH1 0x1C DUP4 PUSH2 0x28F7 JUMP JUMPDEST SWAP2 POP PUSH2 0x37FD DUP3 PUSH2 0x37BE JUMP JUMPDEST PUSH1 0x20 DUP3 ADD SWAP1 POP SWAP2 SWAP1 POP JUMP JUMPDEST PUSH0 PUSH1 0x40 DUP3 ADD SWAP1 POP DUP2 DUP2 SUB PUSH0 DUP4 ADD MSTORE PUSH2 0x381F DUP2 PUSH2 0x37E6 JUMP JUMPDEST SWAP1 POP PUSH2 0x382E PUSH1 0x20 DUP4 ADD DUP5 PUSH2 0x2999 JUMP JUMPDEST SWAP3 SWAP2 POP POP JUMP JUMPDEST PUSH0 DUP2 MLOAD SWAP1 POP PUSH2 0x3842 DUP2 PUSH2 0x286F JUMP JUMPDEST SWAP3 SWAP2 POP POP JUMP JUMPDEST PUSH0 PUSH1 0x20 DUP3 DUP5 SUB SLT ISZERO PUSH2 0x385D JUMPI PUSH2 0x385C PUSH2 0x27F8 JUMP JUMPDEST JUMPDEST PUSH0 PUSH2 0x386A DUP5 DUP3 DUP6 ADD PUSH2 0x3834 JUMP JUMPDEST SWAP2 POP POP SWAP3 SWAP2 POP POP JUMP JUMPDEST PUSH32 0x4E6F7420456E6F756768204465706F7369746564000000000000000000000000 PUSH0 DUP3 ADD MSTORE POP JUMP JUMPDEST PUSH0 PUSH2 0x38A7 PUSH1 0x14 DUP4 PUSH2 0x28F7 JUMP JUMPDEST SWAP2 POP PUSH2 0x38B2 DUP3 PUSH2 0x3873 JUMP JUMPDEST PUSH1 0x20 DUP3 ADD SWAP1 POP SWAP2 SWAP1 POP JUMP JUMPDEST PUSH0 PUSH1 0x20 DUP3 ADD SWAP1 POP DUP2 DUP2 SUB PUSH0 DUP4 ADD MSTORE PUSH2 0x38D4 DUP2 PUSH2 0x389B JUMP JUMPDEST SWAP1 POP SWAP2 SWAP1 POP JUMP JUMPDEST PUSH0 DUP2 SWAP1 POP SWAP3 SWAP2 POP POP JUMP JUMPDEST POP JUMP JUMPDEST PUSH0 PUSH2 0x38F3 PUSH0 DUP4 PUSH2 0x38DB JUMP JUMPDEST SWAP2 POP PUSH2 0x38FE DUP3 PUSH2 0x38E5 JUMP JUMPDEST PUSH0 DUP3 ADD SWAP1 POP SWAP2 SWAP1 POP JUMP JUMPDEST PUSH0 PUSH2 0x3912 DUP3 PUSH2 0x38E8 JUMP JUMPDEST SWAP2 POP DUP2 SWAP1 POP SWAP2 SWAP1 POP JUMP JUMPDEST PUSH32 0x4661696C656420746F2073656E64206465706F73697420746F2070726F706F6E PUSH0 DUP3 ADD MSTORE PUSH32 0x656E740000000000000000000000000000000000000000000000000000000000 PUSH1 0x20 DUP3 ADD MSTORE POP JUMP JUMPDEST PUSH0 PUSH2 0x3976 PUSH1 0x23 DUP4 PUSH2 0x28F7 JUMP JUMPDEST SWAP2 POP PUSH2 0x3981 DUP3 PUSH2 0x391C JUMP JUMPDEST PUSH1 0x40 DUP3 ADD SWAP1 POP SWAP2 SWAP1 POP JUMP JUMPDEST PUSH0 PUSH1 0x20 DUP3 ADD SWAP1 POP DUP2 DUP2 SUB PUSH0 DUP4 ADD MSTORE PUSH2 0x39A3 DUP2 PUSH2 0x396A JUMP JUMPDEST SWAP1 POP SWAP2 SWAP1 POP JUMP JUMPDEST PUSH32 0x696E746F20617070726F76656400000000000000000000000000000000000000 PUSH0 DUP3 ADD MSTORE POP JUMP JUMPDEST PUSH0 PUSH2 0x39DE PUSH1 0xD DUP4 PUSH2 0x28F7 JUMP JUMPDEST SWAP2 POP PUSH2 0x39E9 DUP3 PUSH2 0x39AA JUMP JUMPDEST PUSH1 0x20 DUP3 ADD SWAP1 POP SWAP2 SWAP1 POP JUMP JUMPDEST PUSH0 PUSH1 0x40 DUP3 ADD SWAP1 POP DUP2 DUP2 SUB PUSH0 DUP4 ADD MSTORE PUSH2 0x3A0B DUP2 PUSH2 0x39D2 JUMP JUMPDEST SWAP1 POP PUSH2 0x3A1A PUSH1 0x20 DUP4 ADD DUP5 PUSH2 0x35FE JUMP JUMPDEST SWAP3 SWAP2 POP POP JUMP JUMPDEST PUSH32 0x4E487B7100000000000000000000000000000000000000000000000000000000 PUSH0 MSTORE PUSH1 0x32 PUSH1 0x4 MSTORE PUSH1 0x24 PUSH0 REVERT JUMPDEST PUSH32 0x72657053636F7265000000000000000000000000000000000000000000000000 PUSH0 DUP3 ADD MSTORE POP JUMP JUMPDEST PUSH0 PUSH2 0x3A81 PUSH1 0x8 DUP4 PUSH2 0x28F7 JUMP JUMPDEST SWAP2 POP PUSH2 0x3A8C DUP3 PUSH2 0x3A4D JUMP JUMPDEST PUSH1 0x20 DUP3 ADD SWAP1 POP SWAP2 SWAP1 POP JUMP JUMPDEST PUSH0 PUSH1 0x40 DUP3 ADD SWAP1 POP DUP2 DUP2 SUB PUSH0 DUP4 ADD MSTORE PUSH2 0x3AAE DUP2 PUSH2 0x3A75 JUMP JUMPDEST SWAP1 POP PUSH2 0x3ABD PUSH1 0x20 DUP4 ADD DUP5 PUSH2 0x2999 JUMP JUMPDEST SWAP3 SWAP2 POP POP JUMP JUMPDEST PUSH32 0x6D73672E73656E6465722042616C616E63650000000000000000000000000000 PUSH0 DUP3 ADD MSTORE POP JUMP JUMPDEST PUSH0 PUSH2 0x3AF7 PUSH1 0x12 DUP4 PUSH2 0x28F7 JUMP JUMPDEST SWAP2 POP PUSH2 0x3B02 DUP3 PUSH2 0x3AC3 JUMP JUMPDEST PUSH1 0x20 DUP3 ADD SWAP1 POP SWAP2 SWAP1 POP JUMP JUMPDEST PUSH0 PUSH1 0x40 DUP3 ADD SWAP1 POP DUP2 DUP2 SUB PUSH0 DUP4 ADD MSTORE PUSH2 0x3B24 DUP2 PUSH2 0x3AEB JUMP JUMPDEST SWAP1 POP PUSH2 0x3B33 PUSH1 0x20 DUP4 ADD DUP5 PUSH2 0x2999 JUMP JUMPDEST SWAP3 SWAP2 POP POP JUMP JUMPDEST PUSH0 DUP2 SLOAD SWAP1 POP PUSH2 0x3B47 DUP2 PUSH2 0x32D6 JUMP JUMPDEST SWAP1 POP SWAP2 SWAP1 POP JUMP JUMPDEST DUP2 DUP2 SUB PUSH2 0x3B5C JUMPI POP POP PUSH2 0x3C31 JUMP JUMPDEST PUSH2 0x3B65 DUP3 PUSH2 0x3B39 JUMP JUMPDEST PUSH8 0xFFFFFFFFFFFFFFFF DUP2 GT ISZERO PUSH2 0x3B7E JUMPI PUSH2 0x3B7D PUSH2 0x2C79 JUMP JUMPDEST JUMPDEST PUSH2 0x3B88 DUP3 SLOAD PUSH2 0x32D6 JUMP JUMPDEST PUSH2 0x3B93 DUP3 DUP3 DUP6 PUSH2 0x347C JUMP JUMPDEST PUSH0 PUSH1 0x1F DUP4 GT PUSH1 0x1 DUP2 EQ PUSH2 0x3BC0 JUMPI PUSH0 DUP5 ISZERO PUSH2 0x3BAE JUMPI DUP3 DUP8 ADD SLOAD SWAP1 POP JUMPDEST PUSH2 0x3BB8 DUP6 DUP3 PUSH2 0x34EA JUMP JUMPDEST DUP7 SSTORE POP PUSH2 0x3C2A JUMP JUMPDEST PUSH1 0x1F NOT DUP5 AND PUSH2 0x3BCE DUP8 PUSH2 0x336E JUMP JUMPDEST SWAP7 POP PUSH2 0x3BD9 DUP7 PUSH2 0x336E JUMP JUMPDEST PUSH0 JUMPDEST DUP3 DUP2 LT ISZERO PUSH2 0x3C00 JUMPI DUP5 DUP10 ADD SLOAD DUP3 SSTORE PUSH1 0x1 DUP3 ADD SWAP2 POP PUSH1 0x1 DUP6 ADD SWAP5 POP PUSH1 0x20 DUP2 ADD SWAP1 POP PUSH2 0x3BDB JUMP JUMPDEST DUP7 DUP4 LT ISZERO PUSH2 0x3C1D JUMPI DUP5 DUP10 ADD SLOAD PUSH2 0x3C19 PUSH1 0x1F DUP10 AND DUP3 PUSH2 0x34CE JUMP JUMPDEST DUP4 SSTORE POP JUMPDEST PUSH1 0x1 PUSH1 0x2 DUP9 MUL ADD DUP9 SSTORE POP POP POP JUMPDEST POP POP POP POP POP POP JUMPDEST JUMP INVALID PUSH1 0x80 PUSH1 0x40 MSTORE PUSH1 0x1 PUSH1 0x4 SSTORE CALLVALUE DUP1 ISZERO PUSH2 0x14 JUMPI PUSH0 PUSH0 REVERT JUMPDEST POP CALLER DUP1 PUSH0 PUSH0 PUSH20 0xFFFFFFFFFFFFFFFFFFFFFFFFFFFFFFFFFFFFFFFF AND DUP3 PUSH20 0xFFFFFFFFFFFFFFFFFFFFFFFFFFFFFFFFFFFFFFFF AND SUB PUSH2 0x86 JUMPI PUSH1 0x40 MLOAD PUSH32 0x8C379A000000000000000000000000000000000000000000000000000000000 DUP2 MSTORE PUSH1 0x4 ADD PUSH2 0x7D SWAP1 PUSH2 0x3B1 JUMP JUMPDEST PUSH1 0x40 MLOAD DUP1 SWAP2 SUB SWAP1 REVERT JUMPDEST DUP2 PUSH1 0x6 PUSH0 PUSH2 0x100 EXP DUP2 SLOAD DUP2 PUSH20 0xFFFFFFFFFFFFFFFFFFFFFFFFFFFFFFFFFFFFFFFF MUL NOT AND SWAP1 DUP4 PUSH20 0xFFFFFFFFFFFFFFFFFFFFFFFFFFFFFFFFFFFFFFFF AND MUL OR SWAP1 SSTORE POP PUSH0 PUSH20 0xFFFFFFFFFFFFFFFFFFFFFFFFFFFFFFFFFFFFFFFF AND DUP2 PUSH20 0xFFFFFFFFFFFFFFFFFFFFFFFFFFFFFFFFFFFFFFFF AND EQ PUSH2 0x109 JUMPI PUSH2 0x108 DUP2 PUSH2 0x1A5 PUSH1 0x20 SHL PUSH1 0x20 SHR JUMP JUMPDEST JUMPDEST POP POP POP PUSH2 0x12F PUSH20 0x779877A7B0D9E8603169DDBD7836E478B4624789 PUSH2 0x2D1 PUSH1 0x20 SHL PUSH1 0x20 SHR JUMP JUMPDEST PUSH2 0x152 PUSH20 0x6090149792DAAEE9D1D568C9F9A6F6B46AA29EFD PUSH2 0x314 PUSH1 0x20 SHL PUSH1 0x20 SHR JUMP JUMPDEST PUSH32 0x6361393833363663633733313439353762386330313263373266303561656562 PUSH1 0x9 DUP2 SWAP1 SSTORE POP PUSH1 0xA PUSH8 0xDE0B6B3A7640000 PUSH1 0x1 PUSH2 0x190 SWAP2 SWAP1 PUSH2 0x405 JUMP JUMPDEST PUSH2 0x19A SWAP2 SWAP1 PUSH2 0x473 JUMP JUMPDEST PUSH1 0xA DUP2 SWAP1 SSTORE POP PUSH2 0x50B JUMP JUMPDEST CALLER PUSH20 0xFFFFFFFFFFFFFFFFFFFFFFFFFFFFFFFFFFFFFFFF AND DUP2 PUSH20 0xFFFFFFFFFFFFFFFFFFFFFFFFFFFFFFFFFFFFFFFF AND SUB PUSH2 0x213 JUMPI PUSH1 0x40 MLOAD PUSH32 0x8C379A000000000000000000000000000000000000000000000000000000000 DUP2 MSTORE PUSH1 0x4 ADD PUSH2 0x20A SWAP1 PUSH2 0x4ED JUMP JUMPDEST PUSH1 0x40 MLOAD DUP1 SWAP2 SUB SWAP1 REVERT JUMPDEST DUP1 PUSH1 0x7 PUSH0 PUSH2 0x100 EXP DUP2 SLOAD DUP2 PUSH20 0xFFFFFFFFFFFFFFFFFFFFFFFFFFFFFFFFFFFFFFFF MUL NOT AND SWAP1 DUP4 PUSH20 0xFFFFFFFFFFFFFFFFFFFFFFFFFFFFFFFFFFFFFFFF AND MUL OR SWAP1 SSTORE POP DUP1 PUSH20 0xFFFFFFFFFFFFFFFFFFFFFFFFFFFFFFFFFFFFFFFF AND PUSH1 0x6 PUSH0 SWAP1 SLOAD SWAP1 PUSH2 0x100 EXP SWAP1 DIV PUSH20 0xFFFFFFFFFFFFFFFFFFFFFFFFFFFFFFFFFFFFFFFF AND PUSH20 0xFFFFFFFFFFFFFFFFFFFFFFFFFFFFFFFFFFFFFFFF AND PUSH32 0xED8889F560326EB138920D842192F0EB3DD22B4F139C87A2C57538E05BAE1278 PUSH1 0x40 MLOAD PUSH1 0x40 MLOAD DUP1 SWAP2 SUB SWAP1 LOG3 POP JUMP JUMPDEST DUP1 PUSH1 0x2 PUSH0 PUSH2 0x100 EXP DUP2 SLOAD DUP2 PUSH20 0xFFFFFFFFFFFFFFFFFFFFFFFFFFFFFFFFFFFFFFFF MUL NOT AND SWAP1 DUP4 PUSH20 0xFFFFFFFFFFFFFFFFFFFFFFFFFFFFFFFFFFFFFFFF AND MUL OR SWAP1 SSTORE POP POP JUMP JUMPDEST DUP1 PUSH1 0x3 PUSH0 PUSH2 0x100 EXP DUP2 SLOAD DUP2 PUSH20 0xFFFFFFFFFFFFFFFFFFFFFFFFFFFFFFFFFFFFFFFF MUL NOT AND SWAP1 DUP4 PUSH20 0xFFFFFFFFFFFFFFFFFFFFFFFFFFFFFFFFFFFFFFFF AND MUL OR SWAP1 SSTORE POP POP JUMP JUMPDEST PUSH0 DUP3 DUP3 MSTORE PUSH1 0x20 DUP3 ADD SWAP1 POP SWAP3 SWAP2 POP POP JUMP JUMPDEST PUSH32 0x43616E6E6F7420736574206F776E657220746F207A65726F0000000000000000 PUSH0 DUP3 ADD MSTORE POP JUMP JUMPDEST PUSH0 PUSH2 0x39B PUSH1 0x18 DUP4 PUSH2 0x357 JUMP JUMPDEST SWAP2 POP PUSH2 0x3A6 DUP3 PUSH2 0x367 JUMP JUMPDEST PUSH1 0x20 DUP3 ADD SWAP1 POP SWAP2 SWAP1 POP JUMP JUMPDEST PUSH0 PUSH1 0x20 DUP3 ADD SWAP1 POP DUP2 DUP2 SUB PUSH0 DUP4 ADD MSTORE PUSH2 0x3C8 DUP2 PUSH2 0x38F JUMP JUMPDEST SWAP1 POP SWAP2 SWAP1 POP JUMP JUMPDEST PUSH0 DUP2 SWAP1 POP SWAP2 SWAP1 POP JUMP JUMPDEST PUSH32 0x4E487B7100000000000000000000000000000000000000000000000000000000 PUSH0 MSTORE PUSH1 0x11 PUSH1 0x4 MSTORE PUSH1 0x24 PUSH0 REVERT JUMPDEST PUSH0 PUSH2 0x40F DUP3 PUSH2 0x3CF JUMP JUMPDEST SWAP2 POP PUSH2 0x41A DUP4 PUSH2 0x3CF JUMP JUMPDEST SWAP3 POP DUP3 DUP3 MUL PUSH2 0x428 DUP2 PUSH2 0x3CF JUMP JUMPDEST SWAP2 POP DUP3 DUP3 DIV DUP5 EQ DUP4 ISZERO OR PUSH2 0x43F JUMPI PUSH2 0x43E PUSH2 0x3D8 JUMP JUMPDEST JUMPDEST POP SWAP3 SWAP2 POP POP JUMP JUMPDEST PUSH32 0x4E487B7100000000000000000000000000000000000000000000000000000000 PUSH0 MSTORE PUSH1 0x12 PUSH1 0x4 MSTORE PUSH1 0x24 PUSH0 REVERT JUMPDEST PUSH0 PUSH2 0x47D DUP3 PUSH2 0x3CF JUMP JUMPDEST SWAP2 POP PUSH2 0x488 DUP4 PUSH2 0x3CF JUMP JUMPDEST SWAP3 POP DUP3 PUSH2 0x498 JUMPI PUSH2 0x497 PUSH2 0x446 JUMP JUMPDEST JUMPDEST DUP3 DUP3 DIV SWAP1 POP SWAP3 SWAP2 POP POP JUMP JUMPDEST PUSH32 0x43616E6E6F74207472616E7366657220746F2073656C66000000000000000000 PUSH0 DUP3 ADD MSTORE POP JUMP JUMPDEST PUSH0 PUSH2 0x4D7 PUSH1 0x17 DUP4 PUSH2 0x357 JUMP JUMPDEST SWAP2 POP PUSH2 0x4E2 DUP3 PUSH2 0x4A3 JUMP JUMPDEST PUSH1 0x20 DUP3 ADD SWAP1 POP SWAP2 SWAP1 POP JUMP JUMPDEST PUSH0 PUSH1 0x20 DUP3 ADD SWAP1 POP DUP2 DUP2 SUB PUSH0 DUP4 ADD MSTORE PUSH2 0x504 DUP2 PUSH2 0x4CB JUMP JUMPDEST SWAP1 POP SWAP2 SWAP1 POP JUMP JUMPDEST PUSH2 0x1EE0 DUP1 PUSH2 0x518 PUSH0 CODECOPY PUSH0 RETURN INVALID PUSH1 0x80 PUSH1 0x40 MSTORE CALLVALUE DUP1 ISZERO PUSH2 0xF JUMPI PUSH0 PUSH0 REVERT JUMPDEST POP PUSH1 0x4 CALLDATASIZE LT PUSH2 0x7B JUMPI PUSH0 CALLDATALOAD PUSH1 0xE0 SHR DUP1 PUSH4 0x8DA5CB5B GT PUSH2 0x59 JUMPI DUP1 PUSH4 0x8DA5CB5B EQ PUSH2 0xD5 JUMPI DUP1 PUSH4 0x8DC654A2 EQ PUSH2 0xF3 JUMPI DUP1 PUSH4 0xC618A1E4 EQ PUSH2 0xFD JUMPI DUP1 PUSH4 0xF2FDE38B EQ PUSH2 0x11B JUMPI PUSH2 0x7B JUMP JUMPDEST DUP1 PUSH4 0x2ADB9E3C EQ PUSH2 0x7F JUMPI DUP1 PUSH4 0x4357855E EQ PUSH2 0xAF JUMPI DUP1 PUSH4 0x79BA5097 EQ PUSH2 0xCB JUMPI JUMPDEST PUSH0 PUSH0 REVERT JUMPDEST PUSH2 0x99 PUSH1 0x4 DUP1 CALLDATASIZE SUB DUP2 ADD SWAP1 PUSH2 0x94 SWAP2 SWAP1 PUSH2 0x13A4 JUMP JUMPDEST PUSH2 0x137 JUMP JUMPDEST PUSH1 0x40 MLOAD PUSH2 0xA6 SWAP2 SWAP1 PUSH2 0x13E7 JUMP JUMPDEST PUSH1 0x40 MLOAD DUP1 SWAP2 SUB SWAP1 RETURN JUMPDEST PUSH2 0xC9 PUSH1 0x4 DUP1 CALLDATASIZE SUB DUP2 ADD SWAP1 PUSH2 0xC4 SWAP2 SWAP1 PUSH2 0x142A JUMP JUMPDEST PUSH2 0x2CB JUMP JUMPDEST STOP JUMPDEST PUSH2 0xD3 PUSH2 0x40E JUMP JUMPDEST STOP JUMPDEST PUSH2 0xDD PUSH2 0x59F JUMP JUMPDEST PUSH1 0x40 MLOAD PUSH2 0xEA SWAP2 SWAP1 PUSH2 0x14A7 JUMP JUMPDEST PUSH1 0x40 MLOAD DUP1 SWAP2 SUB SWAP1 RETURN JUMPDEST PUSH2 0xFB PUSH2 0x5C7 JUMP JUMPDEST STOP JUMPDEST PUSH2 0x105 PUSH2 0x70E JUMP JUMPDEST PUSH1 0x40 MLOAD PUSH2 0x112 SWAP2 SWAP1 PUSH2 0x14CF JUMP JUMPDEST PUSH1 0x40 MLOAD DUP1 SWAP2 SUB SWAP1 RETURN JUMPDEST PUSH2 0x135 PUSH1 0x4 DUP1 CALLDATASIZE SUB DUP2 ADD SWAP1 PUSH2 0x130 SWAP2 SWAP1 PUSH2 0x1512 JUMP JUMPDEST PUSH2 0x714 JUMP JUMPDEST STOP JUMPDEST PUSH0 PUSH0 PUSH2 0x14D PUSH1 0x9 SLOAD ADDRESS PUSH4 0x4357855E PUSH1 0xE0 SHL PUSH2 0x728 JUMP JUMPDEST SWAP1 POP PUSH2 0x1B1 PUSH1 0x40 MLOAD DUP1 PUSH1 0x40 ADD PUSH1 0x40 MSTORE DUP1 PUSH1 0x3 DUP2 MSTORE PUSH1 0x20 ADD PUSH32 0x6765740000000000000000000000000000000000000000000000000000000000 DUP2 MSTORE POP PUSH1 0x40 MLOAD DUP1 PUSH1 0x60 ADD PUSH1 0x40 MSTORE DUP1 PUSH1 0x2D DUP2 MSTORE PUSH1 0x20 ADD PUSH2 0x1E7E PUSH1 0x2D SWAP2 CODECOPY DUP4 PUSH2 0x759 SWAP1 SWAP3 SWAP2 SWAP1 PUSH4 0xFFFFFFFF AND JUMP JUMPDEST PUSH2 0x230 PUSH1 0x40 MLOAD DUP1 PUSH1 0x40 ADD PUSH1 0x40 MSTORE DUP1 PUSH1 0x4 DUP2 MSTORE PUSH1 0x20 ADD PUSH32 0x7061746800000000000000000000000000000000000000000000000000000000 DUP2 MSTORE POP PUSH1 0x40 MLOAD DUP1 PUSH1 0x40 ADD PUSH1 0x40 MSTORE DUP1 PUSH1 0x3 DUP2 MSTORE PUSH1 0x20 ADD PUSH32 0x6E756D0000000000000000000000000000000000000000000000000000000000 DUP2 MSTORE POP DUP4 PUSH2 0x759 SWAP1 SWAP3 SWAP2 SWAP1 PUSH4 0xFFFFFFFF AND JUMP JUMPDEST PUSH0 PUSH1 0x1 SWAP1 POP PUSH2 0x27F PUSH1 0x40 MLOAD DUP1 PUSH1 0x40 ADD PUSH1 0x40 MSTORE DUP1 PUSH1 0x5 DUP2 MSTORE PUSH1 0x20 ADD PUSH32 0x74696D6573000000000000000000000000000000000000000000000000000000 DUP2 MSTORE POP DUP3 DUP5 PUSH2 0x78C SWAP1 SWAP3 SWAP2 SWAP1 PUSH4 0xFFFFFFFF AND JUMP JUMPDEST PUSH32 0x4953E1E253D3404572E66D2BE3E7889846DB195DFC203305A4810D16100DFD11 DUP5 PUSH1 0x40 MLOAD PUSH2 0x2AE SWAP2 SWAP1 PUSH2 0x1597 JUMP JUMPDEST PUSH1 0x40 MLOAD DUP1 SWAP2 SUB SWAP1 LOG1 PUSH2 0x2C2 DUP3 PUSH1 0xA SLOAD PUSH2 0x7BF JUMP JUMPDEST SWAP3 POP POP POP SWAP2 SWAP1 POP JUMP JUMPDEST DUP2 PUSH1 0x5 PUSH0 DUP3 DUP2 MSTORE PUSH1 0x20 ADD SWAP1 DUP2 MSTORE PUSH1 0x20 ADD PUSH0 KECCAK256 PUSH0 SWAP1 SLOAD SWAP1 PUSH2 0x100 EXP SWAP1 DIV PUSH20 0xFFFFFFFFFFFFFFFFFFFFFFFFFFFFFFFFFFFFFFFF AND PUSH20 0xFFFFFFFFFFFFFFFFFFFFFFFFFFFFFFFFFFFFFFFF AND CALLER PUSH20 0xFFFFFFFFFFFFFFFFFFFFFFFFFFFFFFFFFFFFFFFF AND EQ PUSH2 0x36A JUMPI PUSH1 0x40 MLOAD PUSH32 0x8C379A000000000000000000000000000000000000000000000000000000000 DUP2 MSTORE PUSH1 0x4 ADD PUSH2 0x361 SWAP1 PUSH2 0x1633 JUMP JUMPDEST PUSH1 0x40 MLOAD DUP1 SWAP2 SUB SWAP1 REVERT JUMPDEST PUSH1 0x5 PUSH0 DUP3 DUP2 MSTORE PUSH1 0x20 ADD SWAP1 DUP2 MSTORE PUSH1 0x20 ADD PUSH0 KECCAK256 PUSH0 PUSH2 0x100 EXP DUP2 SLOAD SWAP1 PUSH20 0xFFFFFFFFFFFFFFFFFFFFFFFFFFFFFFFFFFFFFFFF MUL NOT AND SWAP1 SSTORE DUP1 PUSH32 0x7CC135E0CEBB02C3480AE5D74D377283180A2601F8F644EDF7987B009316C63A PUSH1 0x40 MLOAD PUSH1 0x40 MLOAD DUP1 SWAP2 SUB SWAP1 LOG2 DUP3 PUSH32 0x673B38182859A514D734BDFCB49D3A05C4A641DEC9311D9894C9717BCB79AF76 DUP4 PUSH1 0x40 MLOAD PUSH2 0x3FA SWAP2 SWAP1 PUSH2 0x14CF JUMP JUMPDEST PUSH1 0x40 MLOAD DUP1 SWAP2 SUB SWAP1 LOG2 DUP2 PUSH1 0x8 DUP2 SWAP1 SSTORE POP POP POP POP JUMP JUMPDEST PUSH1 0x7 PUSH0 SWAP1 SLOAD SWAP1 PUSH2 0x100 EXP SWAP1 DIV PUSH20 0xFFFFFFFFFFFFFFFFFFFFFFFFFFFFFFFFFFFFFFFF AND PUSH20 0xFFFFFFFFFFFFFFFFFFFFFFFFFFFFFFFFFFFFFFFF AND CALLER PUSH20 0xFFFFFFFFFFFFFFFFFFFFFFFFFFFFFFFFFFFFFFFF AND EQ PUSH2 0x49D JUMPI PUSH1 0x40 MLOAD PUSH32 0x8C379A000000000000000000000000000000000000000000000000000000000 DUP2 MSTORE PUSH1 0x4 ADD PUSH2 0x494 SWAP1 PUSH2 0x169B JUMP JUMPDEST PUSH1 0x40 MLOAD DUP1 SWAP2 SUB SWAP1 REVERT JUMPDEST PUSH0 PUSH1 0x6 PUSH0 SWAP1 SLOAD SWAP1 PUSH2 0x100 EXP SWAP1 DIV PUSH20 0xFFFFFFFFFFFFFFFFFFFFFFFFFFFFFFFFFFFFFFFF AND SWAP1 POP CALLER PUSH1 0x6 PUSH0 PUSH2 0x100 EXP DUP2 SLOAD DUP2 PUSH20 0xFFFFFFFFFFFFFFFFFFFFFFFFFFFFFFFFFFFFFFFF MUL NOT AND SWAP1 DUP4 PUSH20 0xFFFFFFFFFFFFFFFFFFFFFFFFFFFFFFFFFFFFFFFF AND MUL OR SWAP1 SSTORE POP PUSH0 PUSH1 0x7 PUSH0 PUSH2 0x100 EXP DUP2 SLOAD DUP2 PUSH20 0xFFFFFFFFFFFFFFFFFFFFFFFFFFFFFFFFFFFFFFFF MUL NOT AND SWAP1 DUP4 PUSH20 0xFFFFFFFFFFFFFFFFFFFFFFFFFFFFFFFFFFFFFFFF AND MUL OR SWAP1 SSTORE POP CALLER PUSH20 0xFFFFFFFFFFFFFFFFFFFFFFFFFFFFFFFFFFFFFFFF AND DUP2 PUSH20 0xFFFFFFFFFFFFFFFFFFFFFFFFFFFFFFFFFFFFFFFF AND PUSH32 0x8BE0079C531659141344CD1FD0A4F28419497F9722A3DAAFE3B4186F6B6457E0 PUSH1 0x40 MLOAD PUSH1 0x40 MLOAD DUP1 SWAP2 SUB SWAP1 LOG3 POP JUMP JUMPDEST PUSH0 PUSH1 0x6 PUSH0 SWAP1 SLOAD SWAP1 PUSH2 0x100 EXP SWAP1 DIV PUSH20 0xFFFFFFFFFFFFFFFFFFFFFFFFFFFFFFFFFFFFFFFF AND SWAP1 POP SWAP1 JUMP JUMPDEST PUSH2 0x5CF PUSH2 0x7F4 JUMP JUMPDEST PUSH0 PUSH2 0x5D8 PUSH2 0x885 JUMP JUMPDEST SWAP1 POP DUP1 PUSH20 0xFFFFFFFFFFFFFFFFFFFFFFFFFFFFFFFFFFFFFFFF AND PUSH4 0xA9059CBB CALLER DUP4 PUSH20 0xFFFFFFFFFFFFFFFFFFFFFFFFFFFFFFFFFFFFFFFF AND PUSH4 0x70A08231 ADDRESS PUSH1 0x40 MLOAD DUP3 PUSH4 0xFFFFFFFF AND PUSH1 0xE0 SHL DUP2 MSTORE PUSH1 0x4 ADD PUSH2 0x630 SWAP2 SWAP1 PUSH2 0x14A7 JUMP JUMPDEST PUSH1 0x20 PUSH1 0x40 MLOAD DUP1 DUP4 SUB DUP2 DUP7 GAS STATICCALL ISZERO DUP1 ISZERO PUSH2 0x64B JUMPI RETURNDATASIZE PUSH0 PUSH0 RETURNDATACOPY RETURNDATASIZE PUSH0 REVERT JUMPDEST POP POP POP POP PUSH1 0x40 MLOAD RETURNDATASIZE PUSH1 0x1F NOT PUSH1 0x1F DUP3 ADD AND DUP3 ADD DUP1 PUSH1 0x40 MSTORE POP DUP2 ADD SWAP1 PUSH2 0x66F SWAP2 SWAP1 PUSH2 0x16CD JUMP JUMPDEST PUSH1 0x40 MLOAD DUP4 PUSH4 0xFFFFFFFF AND PUSH1 0xE0 SHL DUP2 MSTORE PUSH1 0x4 ADD PUSH2 0x68C SWAP3 SWAP2 SWAP1 PUSH2 0x16F8 JUMP JUMPDEST PUSH1 0x20 PUSH1 0x40 MLOAD DUP1 DUP4 SUB DUP2 PUSH0 DUP8 GAS CALL ISZERO DUP1 ISZERO PUSH2 0x6A8 JUMPI RETURNDATASIZE PUSH0 PUSH0 RETURNDATACOPY RETURNDATASIZE PUSH0 REVERT JUMPDEST POP POP POP POP PUSH1 0x40 MLOAD RETURNDATASIZE PUSH1 0x1F NOT PUSH1 0x1F DUP3 ADD AND DUP3 ADD DUP1 PUSH1 0x40 MSTORE POP DUP2 ADD SWAP1 PUSH2 0x6CC SWAP2 SWAP1 PUSH2 0x1754 JUMP JUMPDEST PUSH2 0x70B JUMPI PUSH1 0x40 MLOAD PUSH32 0x8C379A000000000000000000000000000000000000000000000000000000000 DUP2 MSTORE PUSH1 0x4 ADD PUSH2 0x702 SWAP1 PUSH2 0x17C9 JUMP JUMPDEST PUSH1 0x40 MLOAD DUP1 SWAP2 SUB SWAP1 REVERT JUMPDEST POP JUMP JUMPDEST PUSH1 0x8 SLOAD DUP2 JUMP JUMPDEST PUSH2 0x71C PUSH2 0x7F4 JUMP JUMPDEST PUSH2 0x725 DUP2 PUSH2 0x8AD JUMP JUMPDEST POP JUMP JUMPDEST PUSH2 0x730 PUSH2 0x12EE JUMP JUMPDEST PUSH2 0x738 PUSH2 0x12EE JUMP JUMPDEST PUSH2 0x74F DUP6 DUP6 DUP6 DUP5 PUSH2 0x9D9 SWAP1 SWAP4 SWAP3 SWAP2 SWAP1 PUSH4 0xFFFFFFFF AND JUMP JUMPDEST SWAP2 POP POP SWAP4 SWAP3 POP POP POP JUMP JUMPDEST PUSH2 0x770 DUP3 DUP5 PUSH1 0x80 ADD MLOAD PUSH2 0xA88 SWAP1 SWAP2 SWAP1 PUSH4 0xFFFFFFFF AND JUMP JUMPDEST PUSH2 0x787 DUP2 DUP5 PUSH1 0x80 ADD MLOAD PUSH2 0xA88 SWAP1 SWAP2 SWAP1 PUSH4 0xFFFFFFFF AND JUMP JUMPDEST POP POP POP JUMP JUMPDEST PUSH2 0x7A3 DUP3 DUP5 PUSH1 0x80 ADD MLOAD PUSH2 0xA88 SWAP1 SWAP2 SWAP1 PUSH4 0xFFFFFFFF AND JUMP JUMPDEST PUSH2 0x7BA DUP2 DUP5 PUSH1 0x80 ADD MLOAD PUSH2 0xAAD SWAP1 SWAP2 SWAP1 PUSH4 0xFFFFFFFF AND JUMP JUMPDEST POP POP POP JUMP JUMPDEST PUSH0 PUSH2 0x7EC PUSH1 0x3 PUSH0 SWAP1 SLOAD SWAP1 PUSH2 0x100 EXP SWAP1 DIV PUSH20 0xFFFFFFFFFFFFFFFFFFFFFFFFFFFFFFFFFFFFFFFF AND DUP5 DUP5 PUSH2 0xB58 JUMP JUMPDEST SWAP1 POP SWAP3 SWAP2 POP POP JUMP JUMPDEST PUSH1 0x6 PUSH0 SWAP1 SLOAD SWAP1 PUSH2 0x100 EXP SWAP1 DIV PUSH20 0xFFFFFFFFFFFFFFFFFFFFFFFFFFFFFFFFFFFFFFFF AND PUSH20 0xFFFFFFFFFFFFFFFFFFFFFFFFFFFFFFFFFFFFFFFF AND CALLER PUSH20 0xFFFFFFFFFFFFFFFFFFFFFFFFFFFFFFFFFFFFFFFF AND EQ PUSH2 0x883 JUMPI PUSH1 0x40 MLOAD PUSH32 0x8C379A000000000000000000000000000000000000000000000000000000000 DUP2 MSTORE PUSH1 0x4 ADD PUSH2 0x87A SWAP1 PUSH2 0x1831 JUMP JUMPDEST PUSH1 0x40 MLOAD DUP1 SWAP2 SUB SWAP1 REVERT JUMPDEST JUMP JUMPDEST PUSH0 PUSH1 0x2 PUSH0 SWAP1 SLOAD SWAP1 PUSH2 0x100 EXP SWAP1 DIV PUSH20 0xFFFFFFFFFFFFFFFFFFFFFFFFFFFFFFFFFFFFFFFF AND SWAP1 POP SWAP1 JUMP JUMPDEST CALLER PUSH20 0xFFFFFFFFFFFFFFFFFFFFFFFFFFFFFFFFFFFFFFFF AND DUP2 PUSH20 0xFFFFFFFFFFFFFFFFFFFFFFFFFFFFFFFFFFFFFFFF AND SUB PUSH2 0x91B JUMPI PUSH1 0x40 MLOAD PUSH32 0x8C379A000000000000000000000000000000000000000000000000000000000 DUP2 MSTORE PUSH1 0x4 ADD PUSH2 0x912 SWAP1 PUSH2 0x1899 JUMP JUMPDEST PUSH1 0x40 MLOAD DUP1 SWAP2 SUB SWAP1 REVERT JUMPDEST DUP1 PUSH1 0x7 PUSH0 PUSH2 0x100 EXP DUP2 SLOAD DUP2 PUSH20 0xFFFFFFFFFFFFFFFFFFFFFFFFFFFFFFFFFFFFFFFF MUL NOT AND SWAP1 DUP4 PUSH20 0xFFFFFFFFFFFFFFFFFFFFFFFFFFFFFFFFFFFFFFFF AND MUL OR SWAP1 SSTORE POP DUP1 PUSH20 0xFFFFFFFFFFFFFFFFFFFFFFFFFFFFFFFFFFFFFFFF AND PUSH1 0x6 PUSH0 SWAP1 SLOAD SWAP1 PUSH2 0x100 EXP SWAP1 DIV PUSH20 0xFFFFFFFFFFFFFFFFFFFFFFFFFFFFFFFFFFFFFFFF AND PUSH20 0xFFFFFFFFFFFFFFFFFFFFFFFFFFFFFFFFFFFFFFFF AND PUSH32 0xED8889F560326EB138920D842192F0EB3DD22B4F139C87A2C57538E05BAE1278 PUSH1 0x40 MLOAD PUSH1 0x40 MLOAD DUP1 SWAP2 SUB SWAP1 LOG3 POP JUMP JUMPDEST PUSH2 0x9E1 PUSH2 0x12EE JUMP JUMPDEST PUSH2 0x9F1 DUP6 PUSH1 0x80 ADD MLOAD PUSH2 0x100 PUSH2 0xC1F JUMP JUMPDEST POP DUP4 DUP6 PUSH0 ADD DUP2 DUP2 MSTORE POP POP DUP3 DUP6 PUSH1 0x20 ADD SWAP1 PUSH20 0xFFFFFFFFFFFFFFFFFFFFFFFFFFFFFFFFFFFFFFFF AND SWAP1 DUP2 PUSH20 0xFFFFFFFFFFFFFFFFFFFFFFFFFFFFFFFFFFFFFFFF AND DUP2 MSTORE POP POP DUP2 DUP6 PUSH1 0x40 ADD SWAP1 PUSH28 0xFFFFFFFFFFFFFFFFFFFFFFFFFFFFFFFFFFFFFFFFFFFFFFFFFFFFFFFF NOT AND SWAP1 DUP2 PUSH28 0xFFFFFFFFFFFFFFFFFFFFFFFFFFFFFFFFFFFFFFFFFFFFFFFFFFFFFFFF NOT AND DUP2 MSTORE POP POP DUP5 SWAP1 POP SWAP5 SWAP4 POP POP POP POP JUMP JUMPDEST PUSH2 0xA95 DUP3 PUSH1 0x3 DUP4 MLOAD PUSH2 0xC87 JUMP JUMPDEST PUSH2 0xAA8 DUP2 DUP4 PUSH2 0xE0C SWAP1 SWAP2 SWAP1 PUSH4 0xFFFFFFFF AND JUMP JUMPDEST POP POP POP JUMP JUMPDEST PUSH32 0xFFFFFFFFFFFFFFFFFFFFFFFFFFFFFFFFFFFFFFFFFFFFFFFF0000000000000000 DUP2 SLT ISZERO PUSH2 0xAE4 JUMPI PUSH2 0xADF DUP3 DUP3 PUSH2 0xE2D JUMP JUMPDEST PUSH2 0xB54 JUMP JUMPDEST PUSH8 0xFFFFFFFFFFFFFFFF DUP2 SGT ISZERO PUSH2 0xB03 JUMPI PUSH2 0xAFE DUP3 DUP3 PUSH2 0xEA4 JUMP JUMPDEST PUSH2 0xB53 JUMP JUMPDEST PUSH0 DUP2 SLT PUSH2 0xB1A JUMPI PUSH2 0xB15 DUP3 PUSH0 DUP4 PUSH2 0xC87 JUMP JUMPDEST PUSH2 0xB52 JUMP JUMPDEST PUSH2 0xB51 DUP3 PUSH1 0x1 DUP4 PUSH32 0xFFFFFFFFFFFFFFFFFFFFFFFFFFFFFFFFFFFFFFFFFFFFFFFFFFFFFFFFFFFFFFFF PUSH2 0xB4C SWAP2 SWAP1 PUSH2 0x18ED JUMP JUMPDEST PUSH2 0xC87 JUMP JUMPDEST JUMPDEST JUMPDEST JUMPDEST POP POP JUMP JUMPDEST PUSH0 PUSH0 PUSH1 0x4 SLOAD SWAP1 POP PUSH1 0x1 DUP2 PUSH2 0xB6C SWAP2 SWAP1 PUSH2 0x192D JUMP JUMPDEST PUSH1 0x4 DUP2 SWAP1 SSTORE POP PUSH0 PUSH4 0x40429946 PUSH1 0xE0 SHL PUSH0 PUSH0 DUP8 PUSH0 ADD MLOAD ADDRESS DUP10 PUSH1 0x40 ADD MLOAD DUP8 PUSH1 0x1 DUP13 PUSH1 0x80 ADD MLOAD PUSH0 ADD MLOAD PUSH1 0x40 MLOAD PUSH1 0x24 ADD PUSH2 0xBA9 SWAP9 SWAP8 SWAP7 SWAP6 SWAP5 SWAP4 SWAP3 SWAP2 SWAP1 PUSH2 0x1A0A JUMP JUMPDEST PUSH1 0x40 MLOAD PUSH1 0x20 DUP2 DUP4 SUB SUB DUP2 MSTORE SWAP1 PUSH1 0x40 MSTORE SWAP1 PUSH28 0xFFFFFFFFFFFFFFFFFFFFFFFFFFFFFFFFFFFFFFFFFFFFFFFFFFFFFFFF NOT AND PUSH1 0x20 DUP3 ADD DUP1 MLOAD PUSH28 0xFFFFFFFFFFFFFFFFFFFFFFFFFFFFFFFFFFFFFFFFFFFFFFFFFFFFFFFF DUP4 DUP2 DUP4 AND OR DUP4 MSTORE POP POP POP POP SWAP1 POP PUSH2 0xC14 DUP7 DUP4 DUP7 DUP5 PUSH2 0xEF0 JUMP JUMPDEST SWAP3 POP POP POP SWAP4 SWAP3 POP POP POP JUMP JUMPDEST PUSH2 0xC27 PUSH2 0x1354 JUMP JUMPDEST PUSH0 PUSH1 0x20 DUP4 PUSH2 0xC35 SWAP2 SWAP1 PUSH2 0x1ABA JUMP JUMPDEST EQ PUSH2 0xC61 JUMPI PUSH1 0x20 DUP3 PUSH2 0xC47 SWAP2 SWAP1 PUSH2 0x1ABA JUMP JUMPDEST PUSH1 0x20 PUSH2 0xC53 SWAP2 SWAP1 PUSH2 0x1AEA JUMP JUMPDEST DUP3 PUSH2 0xC5E SWAP2 SWAP1 PUSH2 0x192D JUMP JUMPDEST SWAP2 POP JUMPDEST DUP2 DUP4 PUSH1 0x20 ADD DUP2 DUP2 MSTORE POP POP PUSH1 0x40 MLOAD DUP1 DUP5 MSTORE PUSH0 DUP2 MSTORE DUP3 DUP2 ADD PUSH1 0x20 ADD PUSH1 0x40 MSTORE POP DUP3 SWAP1 POP SWAP3 SWAP2 POP POP JUMP JUMPDEST PUSH1 0x17 DUP2 PUSH8 0xFFFFFFFFFFFFFFFF AND GT PUSH2 0xCBE JUMPI PUSH2 0xCB8 DUP2 PUSH1 0x5 DUP5 PUSH1 0xFF AND SWAP1 SHL PUSH1 0xFF AND OR DUP5 PUSH2 0x107D SWAP1 SWAP2 SWAP1 PUSH4 0xFFFFFFFF AND JUMP JUMPDEST POP PUSH2 0xE07 JUMP JUMPDEST PUSH1 0xFF DUP2 PUSH8 0xFFFFFFFFFFFFFFFF AND GT PUSH2 0xD14 JUMPI PUSH2 0xCED PUSH1 0x18 PUSH1 0x5 DUP5 PUSH1 0xFF AND SWAP1 SHL OR DUP5 PUSH2 0x107D SWAP1 SWAP2 SWAP1 PUSH4 0xFFFFFFFF AND JUMP JUMPDEST POP PUSH2 0xD0E DUP2 PUSH8 0xFFFFFFFFFFFFFFFF AND PUSH1 0x1 DUP6 PUSH2 0x109C SWAP1 SWAP3 SWAP2 SWAP1 PUSH4 0xFFFFFFFF AND JUMP JUMPDEST POP PUSH2 0xE06 JUMP JUMPDEST PUSH2 0xFFFF DUP2 PUSH8 0xFFFFFFFFFFFFFFFF AND GT PUSH2 0xD6B JUMPI PUSH2 0xD44 PUSH1 0x19 PUSH1 0x5 DUP5 PUSH1 0xFF AND SWAP1 SHL OR DUP5 PUSH2 0x107D SWAP1 SWAP2 SWAP1 PUSH4 0xFFFFFFFF AND JUMP JUMPDEST POP PUSH2 0xD65 DUP2 PUSH8 0xFFFFFFFFFFFFFFFF AND PUSH1 0x2 DUP6 PUSH2 0x109C SWAP1 SWAP3 SWAP2 SWAP1 PUSH4 0xFFFFFFFF AND JUMP JUMPDEST POP PUSH2 0xE05 JUMP JUMPDEST PUSH4 0xFFFFFFFF DUP2 PUSH8 0xFFFFFFFFFFFFFFFF AND GT PUSH2 0xDC4 JUMPI PUSH2 0xD9D PUSH1 0x1A PUSH1 0x5 DUP5 PUSH1 0xFF AND SWAP1 SHL OR DUP5 PUSH2 0x107D SWAP1 SWAP2 SWAP1 PUSH4 0xFFFFFFFF AND JUMP JUMPDEST POP PUSH2 0xDBE DUP2 PUSH8 0xFFFFFFFFFFFFFFFF AND PUSH1 0x4 DUP6 PUSH2 0x109C SWAP1 SWAP3 SWAP2 SWAP1 PUSH4 0xFFFFFFFF AND JUMP JUMPDEST POP PUSH2 0xE04 JUMP JUMPDEST PUSH2 0xDE1 PUSH1 0x1B PUSH1 0x5 DUP5 PUSH1 0xFF AND SWAP1 SHL OR DUP5 PUSH2 0x107D SWAP1 SWAP2 SWAP1 PUSH4 0xFFFFFFFF AND JUMP JUMPDEST POP PUSH2 0xE02 DUP2 PUSH8 0xFFFFFFFFFFFFFFFF AND PUSH1 0x8 DUP6 PUSH2 0x109C SWAP1 SWAP3 SWAP2 SWAP1 PUSH4 0xFFFFFFFF AND JUMP JUMPDEST POP JUMPDEST JUMPDEST JUMPDEST JUMPDEST POP POP POP JUMP JUMPDEST PUSH2 0xE14 PUSH2 0x1354 JUMP JUMPDEST PUSH2 0xE25 DUP4 DUP5 PUSH0 ADD MLOAD MLOAD DUP5 DUP6 MLOAD PUSH2 0x10BD JUMP JUMPDEST SWAP1 POP SWAP3 SWAP2 POP POP JUMP JUMPDEST PUSH2 0xE4B PUSH1 0x3 PUSH1 0x5 PUSH1 0x6 PUSH1 0xFF AND SWAP1 SHL OR DUP4 PUSH2 0x107D SWAP1 SWAP2 SWAP1 PUSH4 0xFFFFFFFF AND JUMP JUMPDEST POP PUSH2 0xEA0 DUP3 DUP3 PUSH32 0xFFFFFFFFFFFFFFFFFFFFFFFFFFFFFFFFFFFFFFFFFFFFFFFFFFFFFFFFFFFFFFFF PUSH2 0xE7C SWAP2 SWAP1 PUSH2 0x18ED JUMP JUMPDEST PUSH1 0x40 MLOAD PUSH1 0x20 ADD PUSH2 0xE8C SWAP2 SWAP1 PUSH2 0x14CF JUMP JUMPDEST PUSH1 0x40 MLOAD PUSH1 0x20 DUP2 DUP4 SUB SUB DUP2 MSTORE SWAP1 PUSH1 0x40 MSTORE PUSH2 0x11A9 JUMP JUMPDEST POP POP JUMP JUMPDEST PUSH2 0xEC2 PUSH1 0x2 PUSH1 0x5 PUSH1 0x6 PUSH1 0xFF AND SWAP1 SHL OR DUP4 PUSH2 0x107D SWAP1 SWAP2 SWAP1 PUSH4 0xFFFFFFFF AND JUMP JUMPDEST POP PUSH2 0xEEC DUP3 DUP3 PUSH1 0x40 MLOAD PUSH1 0x20 ADD PUSH2 0xED8 SWAP2 SWAP1 PUSH2 0x14CF JUMP JUMPDEST PUSH1 0x40 MLOAD PUSH1 0x20 DUP2 DUP4 SUB SUB DUP2 MSTORE SWAP1 PUSH1 0x40 MSTORE PUSH2 0x11A9 JUMP JUMPDEST POP POP JUMP JUMPDEST PUSH0 ADDRESS DUP5 PUSH1 0x40 MLOAD PUSH1 0x20 ADD PUSH2 0xF04 SWAP3 SWAP2 SWAP1 PUSH2 0x1BCE JUMP JUMPDEST PUSH1 0x40 MLOAD PUSH1 0x20 DUP2 DUP4 SUB SUB DUP2 MSTORE SWAP1 PUSH1 0x40 MSTORE DUP1 MLOAD SWAP1 PUSH1 0x20 ADD KECCAK256 SWAP1 POP DUP5 PUSH1 0x5 PUSH0 DUP4 DUP2 MSTORE PUSH1 0x20 ADD SWAP1 DUP2 MSTORE PUSH1 0x20 ADD PUSH0 KECCAK256 PUSH0 PUSH2 0x100 EXP DUP2 SLOAD DUP2 PUSH20 0xFFFFFFFFFFFFFFFFFFFFFFFFFFFFFFFFFFFFFFFF MUL NOT AND SWAP1 DUP4 PUSH20 0xFFFFFFFFFFFFFFFFFFFFFFFFFFFFFFFFFFFFFFFF AND MUL OR SWAP1 SSTORE POP DUP1 PUSH32 0xB5E6E01E79F91267DC17B4E6314D5D4D03593D2CEEE0FBB452B750BD70EA5AF9 PUSH1 0x40 MLOAD PUSH1 0x40 MLOAD DUP1 SWAP2 SUB SWAP1 LOG2 PUSH1 0x2 PUSH0 SWAP1 SLOAD SWAP1 PUSH2 0x100 EXP SWAP1 DIV PUSH20 0xFFFFFFFFFFFFFFFFFFFFFFFFFFFFFFFFFFFFFFFF AND PUSH20 0xFFFFFFFFFFFFFFFFFFFFFFFFFFFFFFFFFFFFFFFF AND PUSH4 0x4000AEA0 DUP7 DUP6 DUP6 PUSH1 0x40 MLOAD DUP5 PUSH4 0xFFFFFFFF AND PUSH1 0xE0 SHL DUP2 MSTORE PUSH1 0x4 ADD PUSH2 0xFF6 SWAP4 SWAP3 SWAP2 SWAP1 PUSH2 0x1BF9 JUMP JUMPDEST PUSH1 0x20 PUSH1 0x40 MLOAD DUP1 DUP4 SUB DUP2 PUSH0 DUP8 GAS CALL ISZERO DUP1 ISZERO PUSH2 0x1012 JUMPI RETURNDATASIZE PUSH0 PUSH0 RETURNDATACOPY RETURNDATASIZE PUSH0 REVERT JUMPDEST POP POP POP POP PUSH1 0x40 MLOAD RETURNDATASIZE PUSH1 0x1F NOT PUSH1 0x1F DUP3 ADD AND DUP3 ADD DUP1 PUSH1 0x40 MSTORE POP DUP2 ADD SWAP1 PUSH2 0x1036 SWAP2 SWAP1 PUSH2 0x1754 JUMP JUMPDEST PUSH2 0x1075 JUMPI PUSH1 0x40 MLOAD PUSH32 0x8C379A000000000000000000000000000000000000000000000000000000000 DUP2 MSTORE PUSH1 0x4 ADD PUSH2 0x106C SWAP1 PUSH2 0x1CA5 JUMP JUMPDEST PUSH1 0x40 MLOAD DUP1 SWAP2 SUB SWAP1 REVERT JUMPDEST SWAP5 SWAP4 POP POP POP POP JUMP JUMPDEST PUSH2 0x1085 PUSH2 0x1354 JUMP JUMPDEST PUSH2 0x1094 DUP4 DUP5 PUSH0 ADD MLOAD MLOAD DUP5 PUSH2 0x11CE JUMP JUMPDEST SWAP1 POP SWAP3 SWAP2 POP POP JUMP JUMPDEST PUSH2 0x10A4 PUSH2 0x1354 JUMP JUMPDEST PUSH2 0x10B4 DUP5 DUP6 PUSH0 ADD MLOAD MLOAD DUP6 DUP6 PUSH2 0x1224 JUMP JUMPDEST SWAP1 POP SWAP4 SWAP3 POP POP POP JUMP JUMPDEST PUSH2 0x10C5 PUSH2 0x1354 JUMP JUMPDEST DUP3 MLOAD DUP3 GT ISZERO PUSH2 0x10D2 JUMPI PUSH0 PUSH0 REVERT JUMPDEST DUP5 PUSH1 0x20 ADD MLOAD DUP3 DUP6 PUSH2 0x10E3 SWAP2 SWAP1 PUSH2 0x192D JUMP JUMPDEST GT ISZERO PUSH2 0x1118 JUMPI PUSH2 0x1117 DUP6 PUSH1 0x2 PUSH2 0x1108 DUP9 PUSH1 0x20 ADD MLOAD DUP9 DUP8 PUSH2 0x1103 SWAP2 SWAP1 PUSH2 0x192D JUMP JUMPDEST PUSH2 0x12B1 JUMP JUMPDEST PUSH2 0x1112 SWAP2 SWAP1 PUSH2 0x1CC3 JUMP JUMPDEST PUSH2 0x12CC JUMP JUMPDEST JUMPDEST PUSH0 PUSH0 DUP7 MLOAD DUP1 MLOAD DUP8 PUSH1 0x20 DUP4 ADD ADD SWAP4 POP DUP1 DUP9 DUP8 ADD GT ISZERO PUSH2 0x1136 JUMPI DUP8 DUP7 ADD DUP3 MSTORE JUMPDEST PUSH1 0x20 DUP8 ADD SWAP3 POP POP POP JUMPDEST PUSH1 0x20 DUP5 LT PUSH2 0x117D JUMPI DUP1 MLOAD DUP3 MSTORE PUSH1 0x20 DUP3 PUSH2 0x1158 SWAP2 SWAP1 PUSH2 0x192D JUMP JUMPDEST SWAP2 POP PUSH1 0x20 DUP2 PUSH2 0x1167 SWAP2 SWAP1 PUSH2 0x192D JUMP JUMPDEST SWAP1 POP PUSH1 0x20 DUP5 PUSH2 0x1176 SWAP2 SWAP1 PUSH2 0x1AEA JUMP JUMPDEST SWAP4 POP PUSH2 0x113F JUMP JUMPDEST PUSH0 PUSH1 0x1 DUP6 PUSH1 0x20 SUB PUSH2 0x100 EXP SUB SWAP1 POP DUP1 NOT DUP3 MLOAD AND DUP2 DUP5 MLOAD AND DUP2 DUP2 OR DUP6 MSTORE POP POP POP DUP7 SWAP3 POP POP POP SWAP5 SWAP4 POP POP POP POP JUMP JUMPDEST PUSH2 0x11B6 DUP3 PUSH1 0x2 DUP4 MLOAD PUSH2 0xC87 JUMP JUMPDEST PUSH2 0x11C9 DUP2 DUP4 PUSH2 0xE0C SWAP1 SWAP2 SWAP1 PUSH4 0xFFFFFFFF AND JUMP JUMPDEST POP POP POP JUMP JUMPDEST PUSH2 0x11D6 PUSH2 0x1354 JUMP JUMPDEST DUP4 PUSH1 0x20 ADD MLOAD DUP4 LT PUSH2 0x11FC JUMPI PUSH2 0x11FB DUP5 PUSH1 0x2 DUP7 PUSH1 0x20 ADD MLOAD PUSH2 0x11F6 SWAP2 SWAP1 PUSH2 0x1CC3 JUMP JUMPDEST PUSH2 0x12CC JUMP JUMPDEST JUMPDEST DUP4 MLOAD DUP1 MLOAD PUSH1 0x20 DUP6 DUP4 ADD ADD DUP5 DUP2 MSTORE8 DUP2 DUP7 SUB PUSH2 0x1217 JUMPI PUSH1 0x1 DUP3 ADD DUP4 MSTORE JUMPDEST POP POP POP DUP4 SWAP1 POP SWAP4 SWAP3 POP POP POP JUMP JUMPDEST PUSH2 0x122C PUSH2 0x1354 JUMP JUMPDEST DUP5 PUSH1 0x20 ADD MLOAD DUP5 DUP4 PUSH2 0x123D SWAP2 SWAP1 PUSH2 0x192D JUMP JUMPDEST GT ISZERO PUSH2 0x1265 JUMPI PUSH2 0x1264 DUP6 PUSH1 0x2 DUP7 DUP6 PUSH2 0x1255 SWAP2 SWAP1 PUSH2 0x192D JUMP JUMPDEST PUSH2 0x125F SWAP2 SWAP1 PUSH2 0x1CC3 JUMP JUMPDEST PUSH2 0x12CC JUMP JUMPDEST JUMPDEST PUSH0 PUSH1 0x1 DUP4 PUSH2 0x100 PUSH2 0x1276 SWAP2 SWAP1 PUSH2 0x1E33 JUMP JUMPDEST PUSH2 0x1280 SWAP2 SWAP1 PUSH2 0x1AEA JUMP JUMPDEST SWAP1 POP DUP6 MLOAD DUP4 DUP7 DUP3 ADD ADD DUP6 DUP4 NOT DUP3 MLOAD AND OR DUP2 MSTORE DUP2 MLOAD DUP6 DUP9 ADD GT ISZERO PUSH2 0x12A3 JUMPI DUP5 DUP8 ADD DUP3 MSTORE JUMPDEST POP POP DUP6 SWAP2 POP POP SWAP5 SWAP4 POP POP POP POP JUMP JUMPDEST PUSH0 DUP2 DUP4 GT ISZERO PUSH2 0x12C2 JUMPI DUP3 SWAP1 POP PUSH2 0x12C6 JUMP JUMPDEST DUP2 SWAP1 POP JUMPDEST SWAP3 SWAP2 POP POP JUMP JUMPDEST PUSH0 DUP3 PUSH0 ADD MLOAD SWAP1 POP PUSH2 0x12DD DUP4 DUP4 PUSH2 0xC1F JUMP JUMPDEST POP PUSH2 0x12E8 DUP4 DUP3 PUSH2 0xE0C JUMP JUMPDEST POP POP POP POP JUMP JUMPDEST PUSH1 0x40 MLOAD DUP1 PUSH1 0xA0 ADD PUSH1 0x40 MSTORE DUP1 PUSH0 DUP2 MSTORE PUSH1 0x20 ADD PUSH0 PUSH20 0xFFFFFFFFFFFFFFFFFFFFFFFFFFFFFFFFFFFFFFFF AND DUP2 MSTORE PUSH1 0x20 ADD PUSH0 PUSH28 0xFFFFFFFFFFFFFFFFFFFFFFFFFFFFFFFFFFFFFFFFFFFFFFFFFFFFFFFF NOT AND DUP2 MSTORE PUSH1 0x20 ADD PUSH0 DUP2 MSTORE PUSH1 0x20 ADD PUSH2 0x134E PUSH2 0x1354 JUMP JUMPDEST DUP2 MSTORE POP SWAP1 JUMP JUMPDEST PUSH1 0x40 MLOAD DUP1 PUSH1 0x40 ADD PUSH1 0x40 MSTORE DUP1 PUSH1 0x60 DUP2 MSTORE PUSH1 0x20 ADD PUSH0 DUP2 MSTORE POP SWAP1 JUMP JUMPDEST PUSH0 PUSH0 REVERT JUMPDEST PUSH0 DUP2 SWAP1 POP SWAP2 SWAP1 POP JUMP JUMPDEST PUSH2 0x1383 DUP2 PUSH2 0x1371 JUMP JUMPDEST DUP2 EQ PUSH2 0x138D JUMPI PUSH0 PUSH0 REVERT JUMPDEST POP JUMP JUMPDEST PUSH0 DUP2 CALLDATALOAD SWAP1 POP PUSH2 0x139E DUP2 PUSH2 0x137A JUMP JUMPDEST SWAP3 SWAP2 POP POP JUMP JUMPDEST PUSH0 PUSH1 0x20 DUP3 DUP5 SUB SLT ISZERO PUSH2 0x13B9 JUMPI PUSH2 0x13B8 PUSH2 0x136D JUMP JUMPDEST JUMPDEST PUSH0 PUSH2 0x13C6 DUP5 DUP3 DUP6 ADD PUSH2 0x1390 JUMP JUMPDEST SWAP2 POP POP SWAP3 SWAP2 POP POP JUMP JUMPDEST PUSH0 DUP2 SWAP1 POP SWAP2 SWAP1 POP JUMP JUMPDEST PUSH2 0x13E1 DUP2 PUSH2 0x13CF JUMP JUMPDEST DUP3 MSTORE POP POP JUMP JUMPDEST PUSH0 PUSH1 0x20 DUP3 ADD SWAP1 POP PUSH2 0x13FA PUSH0 DUP4 ADD DUP5 PUSH2 0x13D8 JUMP JUMPDEST SWAP3 SWAP2 POP POP JUMP JUMPDEST PUSH2 0x1409 DUP2 PUSH2 0x13CF JUMP JUMPDEST DUP2 EQ PUSH2 0x1413 JUMPI PUSH0 PUSH0 REVERT JUMPDEST POP JUMP JUMPDEST PUSH0 DUP2 CALLDATALOAD SWAP1 POP PUSH2 0x1424 DUP2 PUSH2 0x1400 JUMP JUMPDEST SWAP3 SWAP2 POP POP JUMP JUMPDEST PUSH0 PUSH0 PUSH1 0x40 DUP4 DUP6 SUB SLT ISZERO PUSH2 0x1440 JUMPI PUSH2 0x143F PUSH2 0x136D JUMP JUMPDEST JUMPDEST PUSH0 PUSH2 0x144D DUP6 DUP3 DUP7 ADD PUSH2 0x1416 JUMP JUMPDEST SWAP3 POP POP PUSH1 0x20 PUSH2 0x145E DUP6 DUP3 DUP7 ADD PUSH2 0x1390 JUMP JUMPDEST SWAP2 POP POP SWAP3 POP SWAP3 SWAP1 POP JUMP JUMPDEST PUSH0 PUSH20 0xFFFFFFFFFFFFFFFFFFFFFFFFFFFFFFFFFFFFFFFF DUP3 AND SWAP1 POP SWAP2 SWAP1 POP JUMP JUMPDEST PUSH0 PUSH2 0x1491 DUP3 PUSH2 0x1468 JUMP JUMPDEST SWAP1 POP SWAP2 SWAP1 POP JUMP JUMPDEST PUSH2 0x14A1 DUP2 PUSH2 0x1487 JUMP JUMPDEST DUP3 MSTORE POP POP JUMP JUMPDEST PUSH0 PUSH1 0x20 DUP3 ADD SWAP1 POP PUSH2 0x14BA PUSH0 DUP4 ADD DUP5 PUSH2 0x1498 JUMP JUMPDEST SWAP3 SWAP2 POP POP JUMP JUMPDEST PUSH2 0x14C9 DUP2 PUSH2 0x1371 JUMP JUMPDEST DUP3 MSTORE POP POP JUMP JUMPDEST PUSH0 PUSH1 0x20 DUP3 ADD SWAP1 POP PUSH2 0x14E2 PUSH0 DUP4 ADD DUP5 PUSH2 0x14C0 JUMP JUMPDEST SWAP3 SWAP2 POP POP JUMP JUMPDEST PUSH2 0x14F1 DUP2 PUSH2 0x1487 JUMP JUMPDEST DUP2 EQ PUSH2 0x14FB JUMPI PUSH0 PUSH0 REVERT JUMPDEST POP JUMP JUMPDEST PUSH0 DUP2 CALLDATALOAD SWAP1 POP PUSH2 0x150C DUP2 PUSH2 0x14E8 JUMP JUMPDEST SWAP3 SWAP2 POP POP JUMP JUMPDEST PUSH0 PUSH1 0x20 DUP3 DUP5 SUB SLT ISZERO PUSH2 0x1527 JUMPI PUSH2 0x1526 PUSH2 0x136D JUMP JUMPDEST JUMPDEST PUSH0 PUSH2 0x1534 DUP5 DUP3 DUP6 ADD PUSH2 0x14FE JUMP JUMPDEST SWAP2 POP POP SWAP3 SWAP2 POP POP JUMP JUMPDEST PUSH0 DUP3 DUP3 MSTORE PUSH1 0x20 DUP3 ADD SWAP1 POP SWAP3 SWAP2 POP POP JUMP JUMPDEST PUSH32 0x4D61646520746865206765742072657175657374000000000000000000000000 PUSH0 DUP3 ADD MSTORE POP JUMP JUMPDEST PUSH0 PUSH2 0x1581 PUSH1 0x14 DUP4 PUSH2 0x153D JUMP JUMPDEST SWAP2 POP PUSH2 0x158C DUP3 PUSH2 0x154D JUMP JUMPDEST PUSH1 0x20 DUP3 ADD SWAP1 POP SWAP2 SWAP1 POP JUMP JUMPDEST PUSH0 PUSH1 0x40 DUP3 ADD SWAP1 POP DUP2 DUP2 SUB PUSH0 DUP4 ADD MSTORE PUSH2 0x15AE DUP2 PUSH2 0x1575 JUMP JUMPDEST SWAP1 POP PUSH2 0x15BD PUSH1 0x20 DUP4 ADD DUP5 PUSH2 0x14C0 JUMP JUMPDEST SWAP3 SWAP2 POP POP JUMP JUMPDEST PUSH32 0x536F75726365206D75737420626520746865206F7261636C65206F6620746865 PUSH0 DUP3 ADD MSTORE PUSH32 0x2072657175657374000000000000000000000000000000000000000000000000 PUSH1 0x20 DUP3 ADD MSTORE POP JUMP JUMPDEST PUSH0 PUSH2 0x161D PUSH1 0x28 DUP4 PUSH2 0x153D JUMP JUMPDEST SWAP2 POP PUSH2 0x1628 DUP3 PUSH2 0x15C3 JUMP JUMPDEST PUSH1 0x40 DUP3 ADD SWAP1 POP SWAP2 SWAP1 POP JUMP JUMPDEST PUSH0 PUSH1 0x20 DUP3 ADD SWAP1 POP DUP2 DUP2 SUB PUSH0 DUP4 ADD MSTORE PUSH2 0x164A DUP2 PUSH2 0x1611 JUMP JUMPDEST SWAP1 POP SWAP2 SWAP1 POP JUMP JUMPDEST PUSH32 0x4D7573742062652070726F706F736564206F776E657200000000000000000000 PUSH0 DUP3 ADD MSTORE POP JUMP JUMPDEST PUSH0 PUSH2 0x1685 PUSH1 0x16 DUP4 PUSH2 0x153D JUMP JUMPDEST SWAP2 POP PUSH2 0x1690 DUP3 PUSH2 0x1651 JUMP JUMPDEST PUSH1 0x20 DUP3 ADD SWAP1 POP SWAP2 SWAP1 POP JUMP JUMPDEST PUSH0 PUSH1 0x20 DUP3 ADD SWAP1 POP DUP2 DUP2 SUB PUSH0 DUP4 ADD MSTORE PUSH2 0x16B2 DUP2 PUSH2 0x1679 JUMP JUMPDEST SWAP1 POP SWAP2 SWAP1 POP JUMP JUMPDEST PUSH0 DUP2 MLOAD SWAP1 POP PUSH2 0x16C7 DUP2 PUSH2 0x137A JUMP JUMPDEST SWAP3 SWAP2 POP POP JUMP JUMPDEST PUSH0 PUSH1 0x20 DUP3 DUP5 SUB SLT ISZERO PUSH2 0x16E2 JUMPI PUSH2 0x16E1 PUSH2 0x136D JUMP JUMPDEST JUMPDEST PUSH0 PUSH2 0x16EF DUP5 DUP3 DUP6 ADD PUSH2 0x16B9 JUMP JUMPDEST SWAP2 POP POP SWAP3 SWAP2 POP POP JUMP JUMPDEST PUSH0 PUSH1 0x40 DUP3 ADD SWAP1 POP PUSH2 0x170B PUSH0 DUP4 ADD DUP6 PUSH2 0x1498 JUMP JUMPDEST PUSH2 0x1718 PUSH1 0x20 DUP4 ADD DUP5 PUSH2 0x14C0 JUMP JUMPDEST SWAP4 SWAP3 POP POP POP JUMP JUMPDEST PUSH0 DUP2 ISZERO ISZERO SWAP1 POP SWAP2 SWAP1 POP JUMP JUMPDEST PUSH2 0x1733 DUP2 PUSH2 0x171F JUMP JUMPDEST DUP2 EQ PUSH2 0x173D JUMPI PUSH0 PUSH0 REVERT JUMPDEST POP JUMP JUMPDEST PUSH0 DUP2 MLOAD SWAP1 POP PUSH2 0x174E DUP2 PUSH2 0x172A JUMP JUMPDEST SWAP3 SWAP2 POP POP JUMP JUMPDEST PUSH0 PUSH1 0x20 DUP3 DUP5 SUB SLT ISZERO PUSH2 0x1769 JUMPI PUSH2 0x1768 PUSH2 0x136D JUMP JUMPDEST JUMPDEST PUSH0 PUSH2 0x1776 DUP5 DUP3 DUP6 ADD PUSH2 0x1740 JUMP JUMPDEST SWAP2 POP POP SWAP3 SWAP2 POP POP JUMP JUMPDEST PUSH32 0x556E61626C6520746F207472616E736665720000000000000000000000000000 PUSH0 DUP3 ADD MSTORE POP JUMP JUMPDEST PUSH0 PUSH2 0x17B3 PUSH1 0x12 DUP4 PUSH2 0x153D JUMP JUMPDEST SWAP2 POP PUSH2 0x17BE DUP3 PUSH2 0x177F JUMP JUMPDEST PUSH1 0x20 DUP3 ADD SWAP1 POP SWAP2 SWAP1 POP JUMP JUMPDEST PUSH0 PUSH1 0x20 DUP3 ADD SWAP1 POP DUP2 DUP2 SUB PUSH0 DUP4 ADD MSTORE PUSH2 0x17E0 DUP2 PUSH2 0x17A7 JUMP JUMPDEST SWAP1 POP SWAP2 SWAP1 POP JUMP JUMPDEST PUSH32 0x4F6E6C792063616C6C61626C65206279206F776E657200000000000000000000 PUSH0 DUP3 ADD MSTORE POP JUMP JUMPDEST PUSH0 PUSH2 0x181B PUSH1 0x16 DUP4 PUSH2 0x153D JUMP JUMPDEST SWAP2 POP PUSH2 0x1826 DUP3 PUSH2 0x17E7 JUMP JUMPDEST PUSH1 0x20 DUP3 ADD SWAP1 POP SWAP2 SWAP1 POP JUMP JUMPDEST PUSH0 PUSH1 0x20 DUP3 ADD SWAP1 POP DUP2 DUP2 SUB PUSH0 DUP4 ADD MSTORE PUSH2 0x1848 DUP2 PUSH2 0x180F JUMP JUMPDEST SWAP1 POP SWAP2 SWAP1 POP JUMP JUMPDEST PUSH32 0x43616E6E6F74207472616E7366657220746F2073656C66000000000000000000 PUSH0 DUP3 ADD MSTORE POP JUMP JUMPDEST PUSH0 PUSH2 0x1883 PUSH1 0x17 DUP4 PUSH2 0x153D JUMP JUMPDEST SWAP2 POP PUSH2 0x188E DUP3 PUSH2 0x184F JUMP JUMPDEST PUSH1 0x20 DUP3 ADD SWAP1 POP SWAP2 SWAP1 POP JUMP JUMPDEST PUSH0 PUSH1 0x20 DUP3 ADD SWAP1 POP DUP2 DUP2 SUB PUSH0 DUP4 ADD MSTORE PUSH2 0x18B0 DUP2 PUSH2 0x1877 JUMP JUMPDEST SWAP1 POP SWAP2 SWAP1 POP JUMP JUMPDEST PUSH0 DUP2 SWAP1 POP SWAP2 SWAP1 POP JUMP JUMPDEST PUSH32 0x4E487B7100000000000000000000000000000000000000000000000000000000 PUSH0 MSTORE PUSH1 0x11 PUSH1 0x4 MSTORE PUSH1 0x24 PUSH0 REVERT JUMPDEST PUSH0 PUSH2 0x18F7 DUP3 PUSH2 0x18B7 JUMP JUMPDEST SWAP2 POP PUSH2 0x1902 DUP4 PUSH2 0x18B7 JUMP JUMPDEST SWAP3 POP DUP3 DUP3 SUB SWAP1 POP DUP2 DUP2 SLT PUSH0 DUP5 SLT AND DUP3 DUP3 SGT PUSH0 DUP6 SLT ISZERO AND OR ISZERO PUSH2 0x1927 JUMPI PUSH2 0x1926 PUSH2 0x18C0 JUMP JUMPDEST JUMPDEST SWAP3 SWAP2 POP POP JUMP JUMPDEST PUSH0 PUSH2 0x1937 DUP3 PUSH2 0x1371 JUMP JUMPDEST SWAP2 POP PUSH2 0x1942 DUP4 PUSH2 0x1371 JUMP JUMPDEST SWAP3 POP DUP3 DUP3 ADD SWAP1 POP DUP1 DUP3 GT ISZERO PUSH2 0x195A JUMPI PUSH2 0x1959 PUSH2 0x18C0 JUMP JUMPDEST JUMPDEST SWAP3 SWAP2 POP POP JUMP JUMPDEST PUSH0 PUSH32 0xFFFFFFFF00000000000000000000000000000000000000000000000000000000 DUP3 AND SWAP1 POP SWAP2 SWAP1 POP JUMP JUMPDEST PUSH2 0x1994 DUP2 PUSH2 0x1960 JUMP JUMPDEST DUP3 MSTORE POP POP JUMP JUMPDEST PUSH0 DUP2 MLOAD SWAP1 POP SWAP2 SWAP1 POP JUMP JUMPDEST PUSH0 DUP3 DUP3 MSTORE PUSH1 0x20 DUP3 ADD SWAP1 POP SWAP3 SWAP2 POP POP JUMP JUMPDEST DUP3 DUP2 DUP4 MCOPY PUSH0 DUP4 DUP4 ADD MSTORE POP POP POP JUMP JUMPDEST PUSH0 PUSH1 0x1F NOT PUSH1 0x1F DUP4 ADD AND SWAP1 POP SWAP2 SWAP1 POP JUMP JUMPDEST PUSH0 PUSH2 0x19DC DUP3 PUSH2 0x199A JUMP JUMPDEST PUSH2 0x19E6 DUP2 DUP6 PUSH2 0x19A4 JUMP JUMPDEST SWAP4 POP PUSH2 0x19F6 DUP2 DUP6 PUSH1 0x20 DUP7 ADD PUSH2 0x19B4 JUMP JUMPDEST PUSH2 0x19FF DUP2 PUSH2 0x19C2 JUMP JUMPDEST DUP5 ADD SWAP2 POP POP SWAP3 SWAP2 POP POP JUMP JUMPDEST PUSH0 PUSH2 0x100 DUP3 ADD SWAP1 POP PUSH2 0x1A1E PUSH0 DUP4 ADD DUP12 PUSH2 0x1498 JUMP JUMPDEST PUSH2 0x1A2B PUSH1 0x20 DUP4 ADD DUP11 PUSH2 0x14C0 JUMP JUMPDEST PUSH2 0x1A38 PUSH1 0x40 DUP4 ADD DUP10 PUSH2 0x13D8 JUMP JUMPDEST PUSH2 0x1A45 PUSH1 0x60 DUP4 ADD DUP9 PUSH2 0x1498 JUMP JUMPDEST PUSH2 0x1A52 PUSH1 0x80 DUP4 ADD DUP8 PUSH2 0x198B JUMP JUMPDEST PUSH2 0x1A5F PUSH1 0xA0 DUP4 ADD DUP7 PUSH2 0x14C0 JUMP JUMPDEST PUSH2 0x1A6C PUSH1 0xC0 DUP4 ADD DUP6 PUSH2 0x14C0 JUMP JUMPDEST DUP2 DUP2 SUB PUSH1 0xE0 DUP4 ADD MSTORE PUSH2 0x1A7E DUP2 DUP5 PUSH2 0x19D2 JUMP JUMPDEST SWAP1 POP SWAP10 SWAP9 POP POP POP POP POP POP POP POP POP JUMP JUMPDEST PUSH32 0x4E487B7100000000000000000000000000000000000000000000000000000000 PUSH0 MSTORE PUSH1 0x12 PUSH1 0x4 MSTORE PUSH1 0x24 PUSH0 REVERT JUMPDEST PUSH0 PUSH2 0x1AC4 DUP3 PUSH2 0x1371 JUMP JUMPDEST SWAP2 POP PUSH2 0x1ACF DUP4 PUSH2 0x1371 JUMP JUMPDEST SWAP3 POP DUP3 PUSH2 0x1ADF JUMPI PUSH2 0x1ADE PUSH2 0x1A8D JUMP JUMPDEST JUMPDEST DUP3 DUP3 MOD SWAP1 POP SWAP3 SWAP2 POP POP JUMP JUMPDEST PUSH0 PUSH2 0x1AF4 DUP3 PUSH2 0x1371 JUMP JUMPDEST SWAP2 POP PUSH2 0x1AFF DUP4 PUSH2 0x1371 JUMP JUMPDEST SWAP3 POP DUP3 DUP3 SUB SWAP1 POP DUP2 DUP2 GT ISZERO PUSH2 0x1B17 JUMPI PUSH2 0x1B16 PUSH2 0x18C0 JUMP JUMPDEST JUMPDEST SWAP3 SWAP2 POP POP JUMP JUMPDEST PUSH0 DUP2 SWAP1 POP SWAP2 SWAP1 POP JUMP JUMPDEST PUSH0 PUSH2 0x1B40 PUSH2 0x1B3B PUSH2 0x1B36 DUP5 PUSH2 0x1468 JUMP JUMPDEST PUSH2 0x1B1D JUMP JUMPDEST PUSH2 0x1468 JUMP JUMPDEST SWAP1 POP SWAP2 SWAP1 POP JUMP JUMPDEST PUSH0 PUSH2 0x1B51 DUP3 PUSH2 0x1B26 JUMP JUMPDEST SWAP1 POP SWAP2 SWAP1 POP JUMP JUMPDEST PUSH0 PUSH2 0x1B62 DUP3 PUSH2 0x1B47 JUMP JUMPDEST SWAP1 POP SWAP2 SWAP1 POP JUMP JUMPDEST PUSH0 DUP2 PUSH1 0x60 SHL SWAP1 POP SWAP2 SWAP1 POP JUMP JUMPDEST PUSH0 PUSH2 0x1B7F DUP3 PUSH2 0x1B69 JUMP JUMPDEST SWAP1 POP SWAP2 SWAP1 POP JUMP JUMPDEST PUSH0 PUSH2 0x1B90 DUP3 PUSH2 0x1B75 JUMP JUMPDEST SWAP1 POP SWAP2 SWAP1 POP JUMP JUMPDEST PUSH2 0x1BA8 PUSH2 0x1BA3 DUP3 PUSH2 0x1B58 JUMP JUMPDEST PUSH2 0x1B86 JUMP JUMPDEST DUP3 MSTORE POP POP JUMP JUMPDEST PUSH0 DUP2 SWAP1 POP SWAP2 SWAP1 POP JUMP JUMPDEST PUSH2 0x1BC8 PUSH2 0x1BC3 DUP3 PUSH2 0x1371 JUMP JUMPDEST PUSH2 0x1BAE JUMP JUMPDEST DUP3 MSTORE POP POP JUMP JUMPDEST PUSH0 PUSH2 0x1BD9 DUP3 DUP6 PUSH2 0x1B97 JUMP JUMPDEST PUSH1 0x14 DUP3 ADD SWAP2 POP PUSH2 0x1BE9 DUP3 DUP5 PUSH2 0x1BB7 JUMP JUMPDEST PUSH1 0x20 DUP3 ADD SWAP2 POP DUP2 SWAP1 POP SWAP4 SWAP3 POP POP POP JUMP JUMPDEST PUSH0 PUSH1 0x60 DUP3 ADD SWAP1 POP PUSH2 0x1C0C PUSH0 DUP4 ADD DUP7 PUSH2 0x1498 JUMP JUMPDEST PUSH2 0x1C19 PUSH1 0x20 DUP4 ADD DUP6 PUSH2 0x14C0 JUMP JUMPDEST DUP2 DUP2 SUB PUSH1 0x40 DUP4 ADD MSTORE PUSH2 0x1C2B DUP2 DUP5 PUSH2 0x19D2 JUMP JUMPDEST SWAP1 POP SWAP5 SWAP4 POP POP POP POP JUMP JUMPDEST PUSH32 0x756E61626C6520746F207472616E73666572416E6443616C6C20746F206F7261 PUSH0 DUP3 ADD MSTORE PUSH32 0x636C650000000000000000000000000000000000000000000000000000000000 PUSH1 0x20 DUP3 ADD MSTORE POP JUMP JUMPDEST PUSH0 PUSH2 0x1C8F PUSH1 0x23 DUP4 PUSH2 0x153D JUMP JUMPDEST SWAP2 POP PUSH2 0x1C9A DUP3 PUSH2 0x1C35 JUMP JUMPDEST PUSH1 0x40 DUP3 ADD SWAP1 POP SWAP2 SWAP1 POP JUMP JUMPDEST PUSH0 PUSH1 0x20 DUP3 ADD SWAP1 POP DUP2 DUP2 SUB PUSH0 DUP4 ADD MSTORE PUSH2 0x1CBC DUP2 PUSH2 0x1C83 JUMP JUMPDEST SWAP1 POP SWAP2 SWAP1 POP JUMP JUMPDEST PUSH0 PUSH2 0x1CCD DUP3 PUSH2 0x1371 JUMP JUMPDEST SWAP2 POP PUSH2 0x1CD8 DUP4 PUSH2 0x1371 JUMP JUMPDEST SWAP3 POP DUP3 DUP3 MUL PUSH2 0x1CE6 DUP2 PUSH2 0x1371 JUMP JUMPDEST SWAP2 POP DUP3 DUP3 DIV DUP5 EQ DUP4 ISZERO OR PUSH2 0x1CFD JUMPI PUSH2 0x1CFC PUSH2 0x18C0 JUMP JUMPDEST JUMPDEST POP SWAP3 SWAP2 POP POP JUMP JUMPDEST PUSH0 DUP2 PUSH1 0x1 SHR SWAP1 POP SWAP2 SWAP1 POP JUMP JUMPDEST PUSH0 PUSH0 DUP3 SWAP2 POP DUP4 SWAP1 POP JUMPDEST PUSH1 0x1 DUP6 GT ISZERO PUSH2 0x1D59 JUMPI DUP1 DUP7 DIV DUP2 GT ISZERO PUSH2 0x1D35 JUMPI PUSH2 0x1D34 PUSH2 0x18C0 JUMP JUMPDEST JUMPDEST PUSH1 0x1 DUP6 AND ISZERO PUSH2 0x1D44 JUMPI DUP1 DUP3 MUL SWAP2 POP JUMPDEST DUP1 DUP2 MUL SWAP1 POP PUSH2 0x1D52 DUP6 PUSH2 0x1D04 JUMP JUMPDEST SWAP5 POP PUSH2 0x1D19 JUMP JUMPDEST SWAP5 POP SWAP5 SWAP3 POP POP POP JUMP JUMPDEST PUSH0 DUP3 PUSH2 0x1D71 JUMPI PUSH1 0x1 SWAP1 POP PUSH2 0x1E2C JUMP JUMPDEST DUP2 PUSH2 0x1D7E JUMPI PUSH0 SWAP1 POP PUSH2 0x1E2C JUMP JUMPDEST DUP2 PUSH1 0x1 DUP2 EQ PUSH2 0x1D94 JUMPI PUSH1 0x2 DUP2 EQ PUSH2 0x1D9E JUMPI PUSH2 0x1DCD JUMP JUMPDEST PUSH1 0x1 SWAP2 POP POP PUSH2 0x1E2C JUMP JUMPDEST PUSH1 0xFF DUP5 GT ISZERO PUSH2 0x1DB0 JUMPI PUSH2 0x1DAF PUSH2 0x18C0 JUMP JUMPDEST JUMPDEST DUP4 PUSH1 0x2 EXP SWAP2 POP DUP5 DUP3 GT ISZERO PUSH2 0x1DC7 JUMPI PUSH2 0x1DC6 PUSH2 0x18C0 JUMP JUMPDEST JUMPDEST POP PUSH2 0x1E2C JUMP JUMPDEST POP PUSH1 0x20 DUP4 LT PUSH2 0x133 DUP4 LT AND PUSH1 0x4E DUP5 LT PUSH1 0xB DUP5 LT AND OR ISZERO PUSH2 0x1E02 JUMPI DUP3 DUP3 EXP SWAP1 POP DUP4 DUP2 GT ISZERO PUSH2 0x1DFD JUMPI PUSH2 0x1DFC PUSH2 0x18C0 JUMP JUMPDEST JUMPDEST PUSH2 0x1E2C JUMP JUMPDEST PUSH2 0x1E0F DUP5 DUP5 DUP5 PUSH1 0x1 PUSH2 0x1D10 JUMP JUMPDEST SWAP3 POP SWAP1 POP DUP2 DUP5 DIV DUP2 GT ISZERO PUSH2 0x1E26 JUMPI PUSH2 0x1E25 PUSH2 0x18C0 JUMP JUMPDEST JUMPDEST DUP2 DUP2 MUL SWAP1 POP JUMPDEST SWAP4 SWAP3 POP POP POP JUMP JUMPDEST PUSH0 PUSH2 0x1E3D DUP3 PUSH2 0x1371 JUMP JUMPDEST SWAP2 POP PUSH2 0x1E48 DUP4 PUSH2 0x1371 JUMP JUMPDEST SWAP3 POP PUSH2 0x1E75 PUSH32 0xFFFFFFFFFFFFFFFFFFFFFFFFFFFFFFFFFFFFFFFFFFFFFFFFFFFFFFFFFFFFFFFF DUP5 DUP5 PUSH2 0x1D62 JUMP JUMPDEST SWAP1 POP SWAP3 SWAP2 POP POP JUMP INVALID PUSH9 0x747470733A2F2F3038 CALLDATALOAD CALLER 0x2D BALANCE CALLVALUE 0x2D ORIGIN ADDRESS ADDRESS 0x2D CALLDATACOPY CALLDATALOAD 0x2D CALLDATALOAD CALLVALUE 0x2E PUSH15 0x67726F6B2D667265652E6170702F64 PUSH2 0x7461 LOG2 PUSH5 0x6970667358 0x22 SLT KECCAK256 CREATE SMOD PUSH15 0xDDF508C7656CFE9AA0A3E10ACC6B37 0xAC XOR OR PUSH21 0xE3C0C0D05C4C414EDD7E64736F6C634300081D0033 LOG2 PUSH5 0x6970667358 0x22 SLT KECCAK256 PUSH1 0xCF 0xC8 0x29 PUSH21 0x3BD67710324C5A7242C57F520EB516D6E739EBC25B 0xCF PUSH26 0x66A5FA1464736F6C634300081D00330000000000000000000000 "
		},
		"gasEstimates": {
			"creation": {
				"codeDepositCost": "4934600",
				"executionCost": "5845",
				"totalCost": "4940445"
			},
			"external": {
				"addProponent()": "infinite",
				"apiConsumer()": "infinite",
				"calculateDeposit(uint256)": "infinite",
				"changeProjectState(uint8)": "infinite",
				"checkRepScore(address)": "infinite",
				"dataBefore()": "2514",
				"deploy()": "infinite",
				"distributePay((uint256,address,string,uint256,uint256,string,uint256,string,string,(address,bool,string)[],(address,bool,string)[],uint8,bool),(address,string,uint256,uint256))": "infinite",
				"getProjectState(uint256)": "856",
				"newProject()": "infinite",
				"projects(address)": "infinite",
				"proponents(address)": "infinite",
				"returnDeposit(address,uint256)": "infinite",
				"validators(uint256)": "infinite",
				"verifiers(uint256)": "infinite"
			}
		},
		"methodIdentifiers": {
			"addProponent()": "43de681d",
			"apiConsumer()": "242ab021",
			"calculateDeposit(uint256)": "4ec508f9",
			"changeProjectState(uint8)": "5699fadc",
			"checkRepScore(address)": "2e3803c6",
			"dataBefore()": "b43a57a9",
			"deploy()": "775c300c",
			"distributePay((uint256,address,string,uint256,uint256,string,uint256,string,string,(address,bool,string)[],(address,bool,string)[],uint8,bool),(address,string,uint256,uint256))": "ff085ca0",
			"getProjectState(uint256)": "e0155714",
			"newProject()": "3bb060db",
			"projects(address)": "840e78fd",
			"proponents(address)": "ddfc5cfe",
			"returnDeposit(address,uint256)": "d29709fb",
			"validators(uint256)": "35aa2e44",
			"verifiers(uint256)": "ac1eff68"
		}
	},
	"abi": [
		{
			"anonymous": false,
			"inputs": [
				{
					"indexed": false,
					"internalType": "string",
					"name": "",
					"type": "string"
				}
			],
			"name": "Balance",
			"type": "event"
		},
		{
			"anonymous": false,
			"inputs": [
				{
					"indexed": false,
					"internalType": "address",
					"name": "",
					"type": "address"
				},
				{
					"indexed": false,
					"internalType": "string",
					"name": "",
					"type": "string"
				}
			],
			"name": "CheckAddr",
			"type": "event"
		},
		{
			"anonymous": false,
			"inputs": [
				{
					"indexed": false,
					"internalType": "string",
					"name": "",
					"type": "string"
				},
				{
					"indexed": false,
					"internalType": "uint256",
					"name": "amount",
					"type": "uint256"
				}
			],
			"name": "Deposit",
			"type": "event"
		},
		{
			"inputs": [],
			"name": "addProponent",
			"outputs": [
				{
					"internalType": "uint256",
					"name": "",
					"type": "uint256"
				}
			],
			"stateMutability": "nonpayable",
			"type": "function"
		},
		{
			"inputs": [],
			"name": "apiConsumer",
			"outputs": [
				{
					"internalType": "contract APIConsumer",
					"name": "",
					"type": "address"
				}
			],
			"stateMutability": "view",
			"type": "function"
		},
		{
			"inputs": [
				{
					"internalType": "uint256",
					"name": "_repScore",
					"type": "uint256"
				}
			],
			"name": "calculateDeposit",
			"outputs": [
				{
					"internalType": "uint256",
					"name": "",
					"type": "uint256"
				},
				{
					"internalType": "uint256",
					"name": "",
					"type": "uint256"
				}
			],
			"stateMutability": "nonpayable",
			"type": "function"
		},
		{
			"inputs": [
				{
					"internalType": "enum Lock.projectState",
					"name": "_proState",
					"type": "uint8"
				}
			],
			"name": "changeProjectState",
			"outputs": [],
			"stateMutability": "nonpayable",
			"type": "function"
		},
		{
			"inputs": [
				{
					"internalType": "address payable",
					"name": "prop",
					"type": "address"
				}
			],
			"name": "checkRepScore",
			"outputs": [],
			"stateMutability": "payable",
			"type": "function"
		},
		{
			"inputs": [],
			"name": "dataBefore",
			"outputs": [
				{
					"internalType": "uint256",
					"name": "",
					"type": "uint256"
				}
			],
			"stateMutability": "view",
			"type": "function"
		},
		{
			"inputs": [],
			"name": "deploy",
			"outputs": [],
			"stateMutability": "nonpayable",
			"type": "function"
		},
		{
			"inputs": [
				{
					"components": [
						{
							"internalType": "uint256",
							"name": "projectId",
							"type": "uint256"
						},
						{
							"internalType": "address payable",
							"name": "proponent",
							"type": "address"
						},
						{
							"internalType": "string",
							"name": "projectDocs",
							"type": "string"
						},
						{
							"internalType": "uint256",
							"name": "startDate",
							"type": "uint256"
						},
						{
							"internalType": "uint256",
							"name": "creditingPeriod",
							"type": "uint256"
						},
						{
							"internalType": "string",
							"name": "location",
							"type": "string"
						},
						{
							"internalType": "uint256",
							"name": "removalGHG",
							"type": "uint256"
						},
						{
							"internalType": "string",
							"name": "projectType",
							"type": "string"
						},
						{
							"internalType": "string",
							"name": "methodology",
							"type": "string"
						},
						{
							"components": [
								{
									"internalType": "address payable",
									"name": "verifier",
									"type": "address"
								},
								{
									"internalType": "bool",
									"name": "response",
									"type": "bool"
								},
								{
									"internalType": "string",
									"name": "reason",
									"type": "string"
								}
							],
							"internalType": "struct Lock.Response[]",
							"name": "validateResponse",
							"type": "tuple[]"
						},
						{
							"components": [
								{
									"internalType": "address payable",
									"name": "verifier",
									"type": "address"
								},
								{
									"internalType": "bool",
									"name": "response",
									"type": "bool"
								},
								{
									"internalType": "string",
									"name": "reason",
									"type": "string"
								}
							],
							"internalType": "struct Lock.Response[]",
							"name": "verifyResponse",
							"type": "tuple[]"
						},
						{
							"internalType": "enum Lock.projectState",
							"name": "proState",
							"type": "uint8"
						},
						{
							"internalType": "bool",
							"name": "issueCredit",
							"type": "bool"
						}
					],
					"internalType": "struct Lock.Project",
					"name": "proj",
					"type": "tuple"
				},
				{
					"components": [
						{
							"internalType": "address payable",
							"name": "propAddr",
							"type": "address"
						},
						{
							"internalType": "string",
							"name": "name",
							"type": "string"
						},
						{
							"internalType": "uint256",
							"name": "repScore",
							"type": "uint256"
						},
						{
							"internalType": "uint256",
							"name": "balance",
							"type": "uint256"
						}
					],
					"internalType": "struct Lock.Proponents",
					"name": "prop",
					"type": "tuple"
				}
			],
			"name": "distributePay",
			"outputs": [],
			"stateMutability": "payable",
			"type": "function"
		},
		{
			"inputs": [
				{
					"internalType": "uint256",
					"name": "val",
					"type": "uint256"
				}
			],
			"name": "getProjectState",
			"outputs": [
				{
					"internalType": "enum Lock.projectState",
					"name": "",
					"type": "uint8"
				}
			],
			"stateMutability": "pure",
			"type": "function"
		},
		{
			"inputs": [],
			"name": "newProject",
			"outputs": [],
			"stateMutability": "nonpayable",
			"type": "function"
		},
		{
			"inputs": [
				{
					"internalType": "address",
					"name": "",
					"type": "address"
				}
			],
			"name": "projects",
			"outputs": [
				{
					"internalType": "uint256",
					"name": "projectId",
					"type": "uint256"
				},
				{
					"internalType": "address payable",
					"name": "proponent",
					"type": "address"
				},
				{
					"internalType": "string",
					"name": "projectDocs",
					"type": "string"
				},
				{
					"internalType": "uint256",
					"name": "startDate",
					"type": "uint256"
				},
				{
					"internalType": "uint256",
					"name": "creditingPeriod",
					"type": "uint256"
				},
				{
					"internalType": "string",
					"name": "location",
					"type": "string"
				},
				{
					"internalType": "uint256",
					"name": "removalGHG",
					"type": "uint256"
				},
				{
					"internalType": "string",
					"name": "projectType",
					"type": "string"
				},
				{
					"internalType": "string",
					"name": "methodology",
					"type": "string"
				},
				{
					"internalType": "enum Lock.projectState",
					"name": "proState",
					"type": "uint8"
				},
				{
					"internalType": "bool",
					"name": "issueCredit",
					"type": "bool"
				}
			],
			"stateMutability": "view",
			"type": "function"
		},
		{
			"inputs": [
				{
					"internalType": "address",
					"name": "",
					"type": "address"
				}
			],
			"name": "proponents",
			"outputs": [
				{
					"internalType": "address payable",
					"name": "propAddr",
					"type": "address"
				},
				{
					"internalType": "string",
					"name": "name",
					"type": "string"
				},
				{
					"internalType": "uint256",
					"name": "repScore",
					"type": "uint256"
				},
				{
					"internalType": "uint256",
					"name": "balance",
					"type": "uint256"
				}
			],
			"stateMutability": "view",
			"type": "function"
		},
		{
			"inputs": [
				{
					"internalType": "address payable",
					"name": "addr",
					"type": "address"
				},
				{
					"internalType": "uint256",
					"name": "deposit",
					"type": "uint256"
				}
			],
			"name": "returnDeposit",
			"outputs": [],
			"stateMutability": "payable",
			"type": "function"
		},
		{
			"inputs": [
				{
					"internalType": "uint256",
					"name": "",
					"type": "uint256"
				}
			],
			"name": "validators",
			"outputs": [
				{
					"internalType": "address payable",
					"name": "verifier",
					"type": "address"
				},
				{
					"internalType": "bool",
					"name": "response",
					"type": "bool"
				},
				{
					"internalType": "string",
					"name": "reason",
					"type": "string"
				}
			],
			"stateMutability": "view",
			"type": "function"
		},
		{
			"inputs": [
				{
					"internalType": "uint256",
					"name": "",
					"type": "uint256"
				}
			],
			"name": "verifiers",
			"outputs": [
				{
					"internalType": "address payable",
					"name": "verifier",
					"type": "address"
				},
				{
					"internalType": "bool",
					"name": "response",
					"type": "bool"
				},
				{
					"internalType": "string",
					"name": "reason",
					"type": "string"
				}
			],
			"stateMutability": "view",
			"type": "function"
		},
		{
			"stateMutability": "payable",
			"type": "receive"
		}
	]
}