{
	"data": {
		"bytecode": {
			"linkReferences": {},
			"object": "6080604052348015600e575f5ffd5b50613ae48061001c5f395ff3fe6080604052600436106100e7575f3560e01c8063775c300c11610087578063d29709fb11610057578063d29709fb14610277578063ddfc5cfe1461028a578063e0155714146102b9578063ff085ca0146102e5575f5ffd5b8063775c300c146101f9578063840e78fd1461020d578063ac1eff6814610243578063b43a57a914610262575f5ffd5b80633bb060db116100c25780633bb060db1461017057806343de681d146101845780634ec508f9146101a65780635699fadc146101da575f5ffd5b8063242ab021146100f25780632e3803c61461012d57806335aa2e4414610142575f5ffd5b366100ee57005b5f5ffd5b3480156100fd575f5ffd5b505f54610110906001600160a01b031681565b6040516001600160a01b0390911681526020015b60405180910390f35b61014061013b366004611e16565b6102f8565b005b34801561014d575f5ffd5b5061016161015c366004611e38565b6103a5565b60405161012493929190611e7d565b34801561017b575f5ffd5b5061014061046e565b34801561018f575f5ffd5b50610198610abd565b604051908152602001610124565b3480156101b1575f5ffd5b506101c56101c0366004611e38565b610b37565b60408051928352602083019190915201610124565b3480156101e5575f5ffd5b506101406101f4366004611ebf565b610c36565b348015610204575f5ffd5b506101406113e4565b348015610218575f5ffd5b5061022c610227366004611e16565b61142b565b6040516101249b9a99989796959493929190611f0c565b34801561024e575f5ffd5b5061016161025d366004611e38565b6116a5565b34801561026d575f5ffd5b5061019860015481565b610140610285366004611fad565b6116b4565b348015610295575f5ffd5b506102a96102a4366004611e16565b611767565b6040516101249493929190611fd7565b3480156102c4575f5ffd5b506102d86102d3366004611e38565b61181f565b604051610124919061200d565b6101406102f33660046122b2565b61186c565b6001600160a01b0381165f90815260056020526040812060020154900361034f576001600160a01b0381165f908152600560205260408120600201805460019290610344908490612492565b909155506103a29050565b6001600160a01b0381165f90815260056020526040902060020154600a036103a2576001600160a01b0381165f90815260056020526040812060020180546001929061039c9084906124a5565b90915550505b50565b600281815481106103b4575f80fd5b5f918252602090912060029091020180546001820180546001600160a01b0383169450600160a01b90920460ff1692916103ed906124b8565b80601f0160208091040260200160405190810160405280929190818152602001828054610419906124b8565b80156104645780601f1061043b57610100808354040283529160200191610464565b820191905f5260205f20905b81548152906001019060200180831161044757829003601f168201915b5050505050905083565b5f546001600160a01b03166104ca5760405162461bcd60e51b815260206004820152601960248201527f4465706c6f7920415049436f6e73756d6572206669727374210000000000000060448201526064015b60405180910390fd5b60408051606081018252735b38da6a701c568545dcfcb03fcb875f56beddc4815260016020808301828152845191820185525f808352948401918252600280549384018155948590528351929094027f405787fa12a823e0f2b7631cc41b3ba8828b3321ca811111fa75cd3aa3bb5ace8101805495511515600160a01b026001600160a81b03199096166001600160a01b03949094169390931794909417825551919283927f405787fa12a823e0f2b7631cc41b3ba8828b3321ca811111fa75cd3aa3bb5acf9091019061059e908261253c565b5050600380546001810182555f91909152825160029091027fc2575a0e9e593c00f959f8c92f12db2869c3395a3b0502d05e2516446f71f85b8101805460208601511515600160a01b026001600160a81b03199091166001600160a01b039094169390931792909217825560408401518493507fc2575a0e9e593c00f959f8c92f12db2869c3395a3b0502d05e2516446f71f85c90910190610640908261253c565b50506040805160608101825273ab8483f64d9c6d1ecf9b849ae677dd3315835cb2815260016020808301828152845191820185525f808352948401918252600280549384018155948590528351929094027f405787fa12a823e0f2b7631cc41b3ba8828b3321ca811111fa75cd3aa3bb5ace8101805495511515600160a01b026001600160a81b03199096166001600160a01b03949094169390931794909417825551919350839290917f405787fa12a823e0f2b7631cc41b3ba8828b3321ca811111fa75cd3aa3bb5acf90910190610719908261253c565b5050600380546001810182555f91909152825160029091027fc2575a0e9e593c00f959f8c92f12db2869c3395a3b0502d05e2516446f71f85b8101805460208601511515600160a01b026001600160a81b03199091166001600160a01b039094169390931792909217825560408401518493507fc2575a0e9e593c00f959f8c92f12db2869c3395a3b0502d05e2516446f71f85c909101906107bb908261253c565b505060408051606081018252734b20993bc481177ec7e8f571cecae8a9e22c02db815260016020808301828152845191820185525f808352948401918252600280549384018155948590528351929094027f405787fa12a823e0f2b7631cc41b3ba8828b3321ca811111fa75cd3aa3bb5ace8101805495511515600160a01b026001600160a81b03199096166001600160a01b03949094169390931794909417825551919350839290917f405787fa12a823e0f2b7631cc41b3ba8828b3321ca811111fa75cd3aa3bb5acf90910190610894908261253c565b5050600380546001810182555f91909152825160029091027fc2575a0e9e593c00f959f8c92f12db2869c3395a3b0502d05e2516446f71f85b8101805460208601511515600160a01b026001600160a81b03199091166001600160a01b039094169390931792909217825560408401518493507fc2575a0e9e593c00f959f8c92f12db2869c3395a3b0502d05e2516446f71f85c90910190610936908261253c565b5050335f90815260046020908152604080832063499602d281556001810180546001600160a01b03191673cbd38ada2d31c7071e041fc8f8c1da9df9c76dd417905581519283019091529181529091506002820190610995908261253c565b506001600382015562069780600482015560408051602081019091525f815260058201906109c3908261253c565b506901d9ca7a480674860000600682015560408051602081019091525f815260078201906109f1908261253c565b5060408051602081019091525f81526008820190610a0f908261253c565b5060028054610a22916009840191611cd1565b5060038054610a3591600a840191611cd1565b50600b8101805461010161ffff199091161790555f8054604051630ab6e78f60e21b8152600160048201526001600160a01b0390911690632adb9e3c906024016020604051808303815f875af1158015610a91573d5f5f3e3d5ffd5b505050506040513d601f19601f82011682018060405250810190610ab591906125f9565b505050505050565b335f9081526005602090815260408083208151808301909252600382526253616d60e81b928201929092526001820190610af7908261253c565b5080546001600160a01b03191673cbd38ada2d31c7071e041fc8f8c1da9df9c76dd4178155600a60028201819055620f4240600390920191909155919050565b5f8080610b45846005612610565b610b51906103e8612627565b90505f610b60826103e86124a5565b90505f516020613a8f5f395f51905f52610b7c836107d0612492565b604051610bd1919060408082526025908201527f5468652070726f706f6e656e742068617320746f20706179206120746f74616c60608201526401037b31d160dd1b6080820152602081019190915260a00190565b60405180910390a160408051818152601c818301527f56657272612068617320746f20706179206120746f74616c206f663a0000000060608201526020810183905290515f516020613a8f5f395f51905f529181900360800190a19094909350915050565b335f908152600460208190526040909120600b018054839260ff19909116906001908490811115610c6957610c69611ed8565b02179055506003816004811115610c8257610c82611ed8565b1480610c9f57506004816004811115610c9d57610c9d611ed8565b145b156103a25760044710611383575f5f9054906101000a90046001600160a01b03166001600160a01b031663c618a1e46040518163ffffffff1660e01b8152600401602060405180830381865afa158015610cfb573d5f5f3e3d5ffd5b505050506040513d601f19601f82011682018060405250810190610d1f91906125f9565b60019081555f8054604051630ab6e78f60e21b815291926001600160a01b0390911691632adb9e3c91610d589160040190815260200190565b6020604051808303815f875af1158015610d74573d5f5f3e3d5ffd5b505050506040513d601f19601f82011682018060405250810190610d9891906125f9565b335f9081526004602090815260409182902082516101a0810184528154815260018201546001600160a01b03169281019290925260028101805494955061137f949293919291840191610dea906124b8565b80601f0160208091040260200160405190810160405280929190818152602001828054610e16906124b8565b8015610e615780601f10610e3857610100808354040283529160200191610e61565b820191905f5260205f20905b815481529060010190602001808311610e4457829003601f168201915b505050505081526020016003820154815260200160048201548152602001600582018054610e8e906124b8565b80601f0160208091040260200160405190810160405280929190818152602001828054610eba906124b8565b8015610f055780601f10610edc57610100808354040283529160200191610f05565b820191905f5260205f20905b815481529060010190602001808311610ee857829003601f168201915b5050505050815260200160068201548152602001600782018054610f28906124b8565b80601f0160208091040260200160405190810160405280929190818152602001828054610f54906124b8565b8015610f9f5780601f10610f7657610100808354040283529160200191610f9f565b820191905f5260205f20905b815481529060010190602001808311610f8257829003601f168201915b50505050508152602001600882018054610fb8906124b8565b80601f0160208091040260200160405190810160405280929190818152602001828054610fe4906124b8565b801561102f5780601f106110065761010080835404028352916020019161102f565b820191905f5260205f20905b81548152906001019060200180831161101257829003601f168201915b5050505050815260200160098201805480602002602001604051908101604052809291908181526020015f905b82821015611145575f848152602090819020604080516060810182526002860290920180546001600160a01b0381168452600160a01b900460ff16151593830193909352600183018054929392918401916110b6906124b8565b80601f01602080910402602001604051908101604052809291908181526020018280546110e2906124b8565b801561112d5780601f106111045761010080835404028352916020019161112d565b820191905f5260205f20905b81548152906001019060200180831161111057829003601f168201915b5050505050815250508152602001906001019061105c565b505050508152602001600a8201805480602002602001604051908101604052809291908181526020015f905b8282101561125a575f848152602090819020604080516060810182526002860290920180546001600160a01b0381168452600160a01b900460ff16151593830193909352600183018054929392918401916111cb906124b8565b80601f01602080910402602001604051908101604052809291908181526020018280546111f7906124b8565b80156112425780601f1061121957610100808354040283529160200191611242565b820191905f5260205f20905b81548152906001019060200180831161122557829003601f168201915b50505050508152505081526020019060010190611171565b50505090825250600b82015460209091019060ff16600481111561128057611280611ed8565b600481111561129157611291611ed8565b8152600b9190910154610100900460ff161515602091820152335f9081526005825260409081902081516080810190925280546001600160a01b0316825260018101805492939192918401916112e6906124b8565b80601f0160208091040260200160405190810160405280929190818152602001828054611312906124b8565b801561135d5780601f106113345761010080835404028352916020019161135d565b820191905f5260205f20905b81548152906001019060200180831161134057829003601f168201915b505050505081526020016002820154815260200160038201548152505061186c565b5050565b7fdb42f09d5a5cb193ea3eae569c8ce2e3a5c8d8b68aadbe1a637f44d07f67bc176040516113d990602080825260149082015273139bdd08115b9bdd59da0811195c1bdcda5d195960621b604082015260600190565b60405180910390a150565b6040516113f090611d77565b604051809103905ff080158015611409573d5f5f3e3d5ffd5b505f80546001600160a01b0319166001600160a01b0392909216919091179055565b60046020525f908152604090208054600182015460028301805492936001600160a01b039092169261145c906124b8565b80601f0160208091040260200160405190810160405280929190818152602001828054611488906124b8565b80156114d35780601f106114aa576101008083540402835291602001916114d3565b820191905f5260205f20905b8154815290600101906020018083116114b657829003601f168201915b5050505050908060030154908060040154908060050180546114f4906124b8565b80601f0160208091040260200160405190810160405280929190818152602001828054611520906124b8565b801561156b5780601f106115425761010080835404028352916020019161156b565b820191905f5260205f20905b81548152906001019060200180831161154e57829003601f168201915b505050505090806006015490806007018054611586906124b8565b80601f01602080910402602001604051908101604052809291908181526020018280546115b2906124b8565b80156115fd5780601f106115d4576101008083540402835291602001916115fd565b820191905f5260205f20905b8154815290600101906020018083116115e057829003601f168201915b505050505090806008018054611612906124b8565b80601f016020809104026020016040519081016040528092919081815260200182805461163e906124b8565b80156116895780601f1061166057610100808354040283529160200191611689565b820191905f5260205f20905b81548152906001019060200180831161166c57829003601f168201915b505050600b909301549192505060ff808216916101009004168b565b600381815481106103b4575f80fd5b5f5f836001600160a01b0316836040515f6040518083038185875af1925050503d805f81146116fe576040519150601f19603f3d011682016040523d82523d5f602084013e611703565b606091505b5091509150816117615760405162461bcd60e51b815260206004820152602360248201527f4661696c656420746f2073656e64206465706f73697420746f2070726f706f6e604482015262195b9d60ea1b60648201526084016104c1565b50505050565b60056020525f9081526040902080546001820180546001600160a01b039092169291611792906124b8565b80601f01602080910402602001604051908101604052809291908181526020018280546117be906124b8565b80156118095780601f106117e057610100808354040283529160200191611809565b820191905f5260205f20905b8154815290600101906020018083116117ec57829003601f168201915b5050505050908060020154908060030154905084565b5f8160040361183057506003919050565b8160050361184057506004919050565b8160030361185057506002919050565b8160020361186057506001919050565b505f919050565b919050565b5f5f61187b8360400151610b37565b915091505f5f5f9054906101000a90046001600160a01b03166001600160a01b031663c618a1e46040518163ffffffff1660e01b8152600401602060405180830381865afa1580156118cf573d5f5f3e3d5ffd5b505050506040513d601f19601f820116820180604052508101906118f391906125f9565b90506003856101600151600481111561190e5761190e611ed8565b03611b2e5760408051818152600d818301526c1a5b9d1bc8185c1c1c9bdd9959609a1b60608201526001602082015290515f516020613a8f5f395f51905f529181900360800190a161197473cbd38ada2d31c7071e041fc8f8c1da9df9c76dd4846116b4565b6119a08561014001515f8151811061198e5761198e612646565b60200260200101515f015160016116b4565b6119bb85610140015160018151811061198e5761198e612646565b6119d685610140015160028151811061198e5761198e612646565b6119f08561012001515f8151811061198e5761198e612646565b611a0b85610120015160018151811061198e5761198e612646565b611a2685610120015160028151811061198e5761198e612646565b600184604001818151611a399190612492565b905250600154819003611b2957611a6473cbd38ada2d31c7071e041fc8f8c1da9df9c76dd4846116b4565b611aa38561014001515f81518110611a7e57611a7e612646565b60200260200101515f01516003846107d0611a999190612492565b6102859190612627565b611abe856101400151600181518110611a7e57611a7e612646565b611ad9856101400151600281518110611a7e57611a7e612646565b611af38561012001515f81518110611a7e57611a7e612646565b611b0e856101200151600181518110611a7e57611a7e612646565b611b29856101200151600281518110611a7e57611a7e612646565b611c0c565b60048561016001516004811115611b4757611b47611ed8565b03611c0c578060015403611bf557611b6f8561014001515f81518110611a7e57611a7e612646565b611b8a856101400151600181518110611a7e57611a7e612646565b611ba5856101400151600281518110611a7e57611a7e612646565b611bbf8561012001515f81518110611a7e57611a7e612646565b611bda856101200151600181518110611a7e57611a7e612646565b611bf5856101200151600281518110611a7e57611a7e612646565b600184604001818151611c0891906124a5565b9052505b8351611c17906102f8565b611c3573cbd38ada2d31c7071e041fc8f8c1da9df9c76dd4476116b4565b5f516020613a8f5f395f51905f528460600151604051611c7a919060408082526008908201526772657053636f726560c01b6060820152602081019190915260800190565b60405180910390a160408051818152601281830152716d73672e73656e6465722042616c616e636560701b60608201523331602082015290515f516020613a8f5f395f51905f529181900360800190a15050505050565b828054828255905f5260205f20906002028101928215611d67575f5260205f209160020282015b82811115611d6757825482546001600160a01b039091166001600160a01b031982168117845584546001600160a81b031990921617600160a01b9182900460ff1615159091021782558282600180820190611d559084018261265a565b50505091600201919060020190611cf8565b50611d73929150611d84565b5090565b6113688061272783390190565b80821115611d735780546001600160a81b03191681555f611da86001830182611db1565b50600201611d84565b508054611dbd906124b8565b5f825580601f10611dcc575050565b601f0160209004905f5260205f20908101906103a291905b80821115611d73575f8155600101611de4565b6001600160a01b03811681146103a2575f5ffd5b803561186781611df7565b5f60208284031215611e26575f5ffd5b8135611e3181611df7565b9392505050565b5f60208284031215611e48575f5ffd5b5035919050565b5f81518084528060208401602086015e5f602082860101526020601f19601f83011685010191505092915050565b6001600160a01b038416815282151560208201526060604082018190525f90611ea890830184611e4f565b95945050505050565b803560058110611867575f5ffd5b5f60208284031215611ecf575f5ffd5b611e3182611eb1565b634e487b7160e01b5f52602160045260245ffd5b60058110611f0857634e487b7160e01b5f52602160045260245ffd5b9052565b8b81526001600160a01b038b166020820152610160604082018190525f90611f369083018c611e4f565b8a606084015289608084015282810360a0840152611f54818a611e4f565b90508760c084015282810360e0840152611f6e8188611e4f565b9050828103610100840152611f838187611e4f565b915050611f94610120830185611eec565b8215156101408301529c9b505050505050505050505050565b5f5f60408385031215611fbe575f5ffd5b8235611fc981611df7565b946020939093013593505050565b6001600160a01b03851681526080602082018190525f90611ffa90830186611e4f565b6040830194909452506060015292915050565b6020810161201b8284611eec565b92915050565b634e487b7160e01b5f52604160045260245ffd5b604051606081016001600160401b038111828210171561205757612057612021565b60405290565b6040516101a081016001600160401b038111828210171561205757612057612021565b604051601f8201601f191681016001600160401b03811182821017156120a8576120a8612021565b604052919050565b5f82601f8301126120bf575f5ffd5b81356001600160401b038111156120d8576120d8612021565b6120eb601f8201601f1916602001612080565b8181528460208386010111156120ff575f5ffd5b816020850160208301375f918101602001919091529392505050565b80358015158114611867575f5ffd5b5f82601f830112612139575f5ffd5b81356001600160401b0381111561215257612152612021565b8060051b61216260208201612080565b9182526020818501810192908101908684111561217d575f5ffd5b6020860192505b8383101561221e5782356001600160401b038111156121a1575f5ffd5b86016060818903601f190112156121b6575f5ffd5b6121be612035565b60208201356121cc81611df7565b81526121da6040830161211b565b602082015260608201356001600160401b038111156121f7575f5ffd5b6122068a6020838601016120b0565b60408301525083525060209283019290910190612184565b9695505050505050565b5f60808284031215612238575f5ffd5b604051608081016001600160401b038111828210171561225a5761225a612021565b604052905080823561226b81611df7565b815260208301356001600160401b03811115612285575f5ffd5b612291858286016120b0565b60208301525060408381013590820152606092830135920191909152919050565b5f5f604083850312156122c3575f5ffd5b82356001600160401b038111156122d8575f5ffd5b83016101a081860312156122ea575f5ffd5b6122f261205d565b8135815261230260208301611e0b565b602082015260408201356001600160401b0381111561231f575f5ffd5b61232b878285016120b0565b604083015250606082810135908201526080808301359082015260a08201356001600160401b0381111561235d575f5ffd5b612369878285016120b0565b60a08301525060c0828101359082015260e08201356001600160401b03811115612391575f5ffd5b61239d878285016120b0565b60e0830152506101008201356001600160401b038111156123bc575f5ffd5b6123c8878285016120b0565b610100830152506101208201356001600160401b038111156123e8575f5ffd5b6123f48782850161212a565b610120830152506101408201356001600160401b03811115612414575f5ffd5b6124208782850161212a565b610140830152506124346101608301611eb1565b610160820152612447610180830161211b565b61018082015292505060208301356001600160401b03811115612468575f5ffd5b61247485828601612228565b9150509250929050565b634e487b7160e01b5f52601160045260245ffd5b8082018082111561201b5761201b61247e565b8181038181111561201b5761201b61247e565b600181811c908216806124cc57607f821691505b6020821081036124ea57634e487b7160e01b5f52602260045260245ffd5b50919050565b601f82111561253757805f5260205f20601f840160051c810160208510156125155750805b601f840160051c820191505b81811015612534575f8155600101612521565b50505b505050565b81516001600160401b0381111561255557612555612021565b6125698161256384546124b8565b846124f0565b6020601f82116001811461259e575f83156125845750848201515b600184901b5f19600386901b1c198216175b855550612534565b5f84815260208120601f198516915b828110156125cd57878501518255602094850194600190920191016125ad565b50848210156125ea57868401515f19600387901b60f8161c191681555b50505050600190811b01905550565b5f60208284031215612609575f5ffd5b5051919050565b808202811582820484141761201b5761201b61247e565b5f8261264157634e487b7160e01b5f52601260045260245ffd5b500490565b634e487b7160e01b5f52603260045260245ffd5b818103612665575050565b61266f82546124b8565b6001600160401b0381111561268657612686612021565b6126948161256384546124b8565b5f601f8211600181146126c3575f8315612584575081850154600184901b5f19600386901b1c19821617612596565b5f8581526020808220868352908220601f198616925b838110156126f957828601548255600195860195909101906020016126d9565b508583101561271657818501545f19600388901b60f8161c191681555b5050505050600190811b0190555056fe60806040526001600455348015610014575f5ffd5b5033805f8161006a5760405162461bcd60e51b815260206004820152601860248201527f43616e6e6f7420736574206f776e657220746f207a65726f000000000000000060448201526064015b60405180910390fd5b600680546001600160a01b0319166001600160a01b038481169190911790915581161561009a5761009a81610131565b5050506100c073779877a7b0d9e8603169ddbd7836e478b46247896101da60201b60201c565b600380546001600160a01b031916736090149792daaee9d1d568c9f9a6f6b46aa29efd1790557f6361393833363663633733313439353762386330313263373266303561656562600955600a61011f670de0b6b3a764000060016101fc565b6101299190610225565b600a55610244565b336001600160a01b038216036101895760405162461bcd60e51b815260206004820152601760248201527f43616e6e6f74207472616e7366657220746f2073656c660000000000000000006044820152606401610061565b600780546001600160a01b0319166001600160a01b03838116918217909255600654604051919216907fed8889f560326eb138920d842192f0eb3dd22b4f139c87a2c57538e05bae1278905f90a350565b600280546001600160a01b0319166001600160a01b0392909216919091179055565b808202811582820484141761021f57634e487b7160e01b5f52601160045260245ffd5b92915050565b5f8261023f57634e487b7160e01b5f52601260045260245ffd5b500490565b611117806102515f395ff3fe608060405234801561000f575f5ffd5b506004361061007a575f3560e01c80638da5cb5b116100585780638da5cb5b146100c15780638dc654a2146100dc578063c618a1e4146100e4578063f2fde38b146100ed575f5ffd5b80632adb9e3c1461007e5780634357855e146100a457806379ba5097146100b9575b5f5ffd5b61009161008c366004610ddc565b610100565b6040519081526020015b60405180910390f35b6100b76100b2366004610df3565b610240565b005b6100b7610340565b6006546040516001600160a01b03909116815260200161009b565b6100b76103ed565b61009160085481565b6100b76100fb366004610e13565b61052b565b5f5f61011660095430634357855e60e01b61053c565b90506101586040518060400160405280600381526020016219d95d60ea1b8152506040518060600160405280602d81526020016110b5602d9139839190610561565b6101a4604051806040016040528060048152602001630e0c2e8d60e31b815250604051806040016040528060038152602001626e756d60e81b815250836105619092919063ffffffff16565b60408051808201909152600581526474696d657360d81b60208201526001906101cf90839083610584565b604080518181526014818301527313585919481d1a194819d95d081c995c5d595cdd60621b60608201526020810186905290517f4953e1e253d3404572e66d2be3e7889846db195dfc203305a4810d16100dfd119181900360800190a161023882600a546105a2565b949350505050565b5f8281526005602052604090205482906001600160a01b031633146102bd5760405162461bcd60e51b815260206004820152602860248201527f536f75726365206d75737420626520746865206f7261636c65206f6620746865604482015267081c995c5d595cdd60c21b60648201526084015b60405180910390fd5b5f8181526005602052604080822080546001600160a01b03191690555182917f7cc135e0cebb02c3480ae5d74d377283180a2601f8f644edf7987b009316c63a91a2827f673b38182859a514d734bdfcb49d3a05c4a641dec9311d9894c9717bcb79af768360405161033191815260200190565b60405180910390a25060085550565b6007546001600160a01b031633146103935760405162461bcd60e51b815260206004820152601660248201527526bab9ba10313290383937b837b9b2b21037bbb732b960511b60448201526064016102b4565b600680546001600160a01b0319808216339081179093556007805490911690556040516001600160a01b03909116919082907f8be0079c531659141344cd1fd0a4f28419497f9722a3daafe3b4186f6b6457e0905f90a350565b6103f56105c4565b5f6104086002546001600160a01b031690565b6040516370a0823160e01b81523060048201529091506001600160a01b0382169063a9059cbb90339083906370a0823190602401602060405180830381865afa158015610457573d5f5f3e3d5ffd5b505050506040513d601f19601f8201168201806040525081019061047b9190610e40565b6040516001600160e01b031960e085901b1681526001600160a01b03909216600483015260248201526044016020604051808303815f875af11580156104c3573d5f5f3e3d5ffd5b505050506040513d601f19601f820116820180604052508101906104e79190610e57565b6105285760405162461bcd60e51b81526020600482015260126024820152712ab730b13632903a37903a3930b739b332b960711b60448201526064016102b4565b50565b6105336105c4565b61052881610619565b610544610da2565b61054c610da2565b610558818686866106c2565b95945050505050565b608083015161057090836106ff565b608083015161057f90826106ff565b505050565b608083015161059390836106ff565b608083015161057f9082610716565b6003545f906105bb906001600160a01b03168484610777565b90505b92915050565b6006546001600160a01b031633146106175760405162461bcd60e51b815260206004820152601660248201527527b7363c9031b0b63630b1363290313c9037bbb732b960511b60448201526064016102b4565b565b336001600160a01b038216036106715760405162461bcd60e51b815260206004820152601760248201527f43616e6e6f74207472616e7366657220746f2073656c6600000000000000000060448201526064016102b4565b600780546001600160a01b0319166001600160a01b03838116918217909255600654604051919216907fed8889f560326eb138920d842192f0eb3dd22b4f139c87a2c57538e05bae1278905f90a350565b6106ca610da2565b6106da8560800151610100610808565b50509183526001600160a01b031660208301526001600160e01b031916604082015290565b61070c826003835161086b565b61057f8282610980565b67ffffffffffffffff198112156107355761073182826109a5565b5050565b67ffffffffffffffff81131561074f5761073182826109e6565b5f811261076157610731825f8361086b565b610731826001610772845f19610e8a565b61086b565b6004545f90610787816001610eb0565b600455835160408086015160808701515191515f936320214ca360e11b936107be9386938493923092918a91600191602401610ef1565b60408051601f198184030181529190526020810180516001600160e01b03166001600160e01b03199093169290921790915290506107fe86838684610a09565b9695505050505050565b60408051808201909152606081525f6020820152610827602083610f57565b1561084f57610837602083610f57565b610842906020610f76565b61084c9083610eb0565b91505b506020828101829052604080518085525f815290920101905290565b60178167ffffffffffffffff1611610896576108908360e0600585901b168317610b62565b50505050565b60ff8167ffffffffffffffff16116108d4576108bd836018611fe0600586901b1617610b62565b506108908367ffffffffffffffff83166001610b85565b61ffff8167ffffffffffffffff1611610913576108fc836019611fe0600586901b1617610b62565b506108908367ffffffffffffffff83166002610b85565b63ffffffff8167ffffffffffffffff16116109545761093d83601a611fe0600586901b1617610b62565b506108908367ffffffffffffffff83166004610b85565b61096983601b611fe0600586901b1617610b62565b506108908367ffffffffffffffff83166008610b85565b60408051808201909152606081525f60208201526105bb83845f015151848551610ba9565b6109b08260c3610b62565b50610731826109c0835f19610e8a565b6040516020016109d291815260200190565b604051602081830303815290604052610c8f565b6109f18260c2610b62565b5061073182826040516020016109d291815260200190565b6040516bffffffffffffffffffffffff193060601b166020820152603481018490525f9060540160408051808303601f1901815282825280516020918201205f818152600590925291812080546001600160a01b0319166001600160a01b038a1617905590925082917fb5e6e01e79f91267dc17b4e6314d5d4d03593d2ceee0fbb452b750bd70ea5af99190a2600254604051630200057560e51b81526001600160a01b0390911690634000aea090610aca90889087908790600401610f89565b6020604051808303815f875af1158015610ae6573d5f5f3e3d5ffd5b505050506040513d601f19601f82011682018060405250810190610b0a9190610e57565b6102385760405162461bcd60e51b815260206004820152602360248201527f756e61626c6520746f207472616e73666572416e6443616c6c20746f206f7261604482015262636c6560e81b60648201526084016102b4565b60408051808201909152606081525f60208201526105bb83845f01515184610c9c565b60408051808201909152606081525f602082015261023884855f0151518585610cf6565b60408051808201909152606081525f60208201528251821115610bca575f5ffd5b6020850151610bd98386610eb0565b1115610c0c57610c0c85610bfc87602001518786610bf79190610eb0565b610d75565b610c07906002610faf565b610d8b565b5f5f865180518760208301019350808887011115610c2a5787860182525b505050602084015b60208410610c6a5780518252610c49602083610eb0565b9150610c56602082610eb0565b9050610c63602085610f76565b9350610c32565b5181515f1960208690036101000a019081169019919091161790525083949350505050565b61070c826002835161086b565b60408051808201909152606081525f602082015283602001518310610cd057610cd08485602001516002610c079190610faf565b8351805160208583010184815350808503610cec576001810182525b5093949350505050565b60408051808201909152606081525f60208201526020850151610d198584610eb0565b1115610d2d57610d2d85610bfc8685610eb0565b5f6001610d3c846101006110a9565b610d469190610f76565b9050855183868201018583198251161781525080518487011115610d6a5783860181525b509495945050505050565b5f81831115610d855750816105be565b50919050565b8151610d978383610808565b506108908382610980565b6040805160a0810182525f808252602080830182905282840182905260608084018390528451808601909552845283015290608082015290565b5f60208284031215610dec575f5ffd5b5035919050565b5f5f60408385031215610e04575f5ffd5b50508035926020909101359150565b5f60208284031215610e23575f5ffd5b81356001600160a01b0381168114610e39575f5ffd5b9392505050565b5f60208284031215610e50575f5ffd5b5051919050565b5f60208284031215610e67575f5ffd5b81518015158114610e39575f5ffd5b634e487b7160e01b5f52601160045260245ffd5b8181035f831280158383131683831282161715610ea957610ea9610e76565b5092915050565b808201808211156105be576105be610e76565b5f81518084528060208401602086015e5f602082860101526020601f19601f83011685010191505092915050565b6001600160a01b0389811682526020820189905260408201889052861660608201526001600160e01b03198516608082015260a0810184905260c0810183905261010060e082018190525f90610f4990830184610ec3565b9a9950505050505050505050565b5f82610f7157634e487b7160e01b5f52601260045260245ffd5b500690565b818103818111156105be576105be610e76565b60018060a01b0384168152826020820152606060408201525f6105586060830184610ec3565b80820281158282048414176105be576105be610e76565b6001815b600184111561100157808504811115610fe557610fe5610e76565b6001841615610ff357908102905b60019390931c928002610fca565b935093915050565b5f82611017575060016105be565b8161102357505f6105be565b816001811461103957600281146110435761105f565b60019150506105be565b60ff84111561105457611054610e76565b50506001821b6105be565b5060208310610133831016604e8410600b8410161715611082575081810a6105be565b61108e5f198484610fc6565b805f19048211156110a1576110a1610e76565b029392505050565b5f6105bb838361100956fe68747470733a2f2f303835332d31342d3230302d37352d35342e6e67726f6b2d667265652e6170702f64617461a26469706673582212209be4a3b2a62a8951e5f1a9f7b0840f668676e2650c64a75eea4fcc1079600d3f64736f6c634300081d0033135290006f1871309577d248cf00619459a79b4a735638108a2bb080319c90d6a26469706673582212203caa3888a672a2c7d11ca139e68208544f698af349accff246787343eba434c864736f6c634300081d0033",
			"opcodes": "PUSH1 0x80 PUSH1 0x40 MSTORE CALLVALUE DUP1 ISZERO PUSH1 0xE JUMPI PUSH0 PUSH0 REVERT JUMPDEST POP PUSH2 0x3AE4 DUP1 PUSH2 0x1C PUSH0 CODECOPY PUSH0 RETURN INVALID PUSH1 0x80 PUSH1 0x40 MSTORE PUSH1 0x4 CALLDATASIZE LT PUSH2 0xE7 JUMPI PUSH0 CALLDATALOAD PUSH1 0xE0 SHR DUP1 PUSH4 0x775C300C GT PUSH2 0x87 JUMPI DUP1 PUSH4 0xD29709FB GT PUSH2 0x57 JUMPI DUP1 PUSH4 0xD29709FB EQ PUSH2 0x277 JUMPI DUP1 PUSH4 0xDDFC5CFE EQ PUSH2 0x28A JUMPI DUP1 PUSH4 0xE0155714 EQ PUSH2 0x2B9 JUMPI DUP1 PUSH4 0xFF085CA0 EQ PUSH2 0x2E5 JUMPI PUSH0 PUSH0 REVERT JUMPDEST DUP1 PUSH4 0x775C300C EQ PUSH2 0x1F9 JUMPI DUP1 PUSH4 0x840E78FD EQ PUSH2 0x20D JUMPI DUP1 PUSH4 0xAC1EFF68 EQ PUSH2 0x243 JUMPI DUP1 PUSH4 0xB43A57A9 EQ PUSH2 0x262 JUMPI PUSH0 PUSH0 REVERT JUMPDEST DUP1 PUSH4 0x3BB060DB GT PUSH2 0xC2 JUMPI DUP1 PUSH4 0x3BB060DB EQ PUSH2 0x170 JUMPI DUP1 PUSH4 0x43DE681D EQ PUSH2 0x184 JUMPI DUP1 PUSH4 0x4EC508F9 EQ PUSH2 0x1A6 JUMPI DUP1 PUSH4 0x5699FADC EQ PUSH2 0x1DA JUMPI PUSH0 PUSH0 REVERT JUMPDEST DUP1 PUSH4 0x242AB021 EQ PUSH2 0xF2 JUMPI DUP1 PUSH4 0x2E3803C6 EQ PUSH2 0x12D JUMPI DUP1 PUSH4 0x35AA2E44 EQ PUSH2 0x142 JUMPI PUSH0 PUSH0 REVERT JUMPDEST CALLDATASIZE PUSH2 0xEE JUMPI STOP JUMPDEST PUSH0 PUSH0 REVERT JUMPDEST CALLVALUE DUP1 ISZERO PUSH2 0xFD JUMPI PUSH0 PUSH0 REVERT JUMPDEST POP PUSH0 SLOAD PUSH2 0x110 SWAP1 PUSH1 0x1 PUSH1 0x1 PUSH1 0xA0 SHL SUB AND DUP2 JUMP JUMPDEST PUSH1 0x40 MLOAD PUSH1 0x1 PUSH1 0x1 PUSH1 0xA0 SHL SUB SWAP1 SWAP2 AND DUP2 MSTORE PUSH1 0x20 ADD JUMPDEST PUSH1 0x40 MLOAD DUP1 SWAP2 SUB SWAP1 RETURN JUMPDEST PUSH2 0x140 PUSH2 0x13B CALLDATASIZE PUSH1 0x4 PUSH2 0x1E16 JUMP JUMPDEST PUSH2 0x2F8 JUMP JUMPDEST STOP JUMPDEST CALLVALUE DUP1 ISZERO PUSH2 0x14D JUMPI PUSH0 PUSH0 REVERT JUMPDEST POP PUSH2 0x161 PUSH2 0x15C CALLDATASIZE PUSH1 0x4 PUSH2 0x1E38 JUMP JUMPDEST PUSH2 0x3A5 JUMP JUMPDEST PUSH1 0x40 MLOAD PUSH2 0x124 SWAP4 SWAP3 SWAP2 SWAP1 PUSH2 0x1E7D JUMP JUMPDEST CALLVALUE DUP1 ISZERO PUSH2 0x17B JUMPI PUSH0 PUSH0 REVERT JUMPDEST POP PUSH2 0x140 PUSH2 0x46E JUMP JUMPDEST CALLVALUE DUP1 ISZERO PUSH2 0x18F JUMPI PUSH0 PUSH0 REVERT JUMPDEST POP PUSH2 0x198 PUSH2 0xABD JUMP JUMPDEST PUSH1 0x40 MLOAD SWAP1 DUP2 MSTORE PUSH1 0x20 ADD PUSH2 0x124 JUMP JUMPDEST CALLVALUE DUP1 ISZERO PUSH2 0x1B1 JUMPI PUSH0 PUSH0 REVERT JUMPDEST POP PUSH2 0x1C5 PUSH2 0x1C0 CALLDATASIZE PUSH1 0x4 PUSH2 0x1E38 JUMP JUMPDEST PUSH2 0xB37 JUMP JUMPDEST PUSH1 0x40 DUP1 MLOAD SWAP3 DUP4 MSTORE PUSH1 0x20 DUP4 ADD SWAP2 SWAP1 SWAP2 MSTORE ADD PUSH2 0x124 JUMP JUMPDEST CALLVALUE DUP1 ISZERO PUSH2 0x1E5 JUMPI PUSH0 PUSH0 REVERT JUMPDEST POP PUSH2 0x140 PUSH2 0x1F4 CALLDATASIZE PUSH1 0x4 PUSH2 0x1EBF JUMP JUMPDEST PUSH2 0xC36 JUMP JUMPDEST CALLVALUE DUP1 ISZERO PUSH2 0x204 JUMPI PUSH0 PUSH0 REVERT JUMPDEST POP PUSH2 0x140 PUSH2 0x13E4 JUMP JUMPDEST CALLVALUE DUP1 ISZERO PUSH2 0x218 JUMPI PUSH0 PUSH0 REVERT JUMPDEST POP PUSH2 0x22C PUSH2 0x227 CALLDATASIZE PUSH1 0x4 PUSH2 0x1E16 JUMP JUMPDEST PUSH2 0x142B JUMP JUMPDEST PUSH1 0x40 MLOAD PUSH2 0x124 SWAP12 SWAP11 SWAP10 SWAP9 SWAP8 SWAP7 SWAP6 SWAP5 SWAP4 SWAP3 SWAP2 SWAP1 PUSH2 0x1F0C JUMP JUMPDEST CALLVALUE DUP1 ISZERO PUSH2 0x24E JUMPI PUSH0 PUSH0 REVERT JUMPDEST POP PUSH2 0x161 PUSH2 0x25D CALLDATASIZE PUSH1 0x4 PUSH2 0x1E38 JUMP JUMPDEST PUSH2 0x16A5 JUMP JUMPDEST CALLVALUE DUP1 ISZERO PUSH2 0x26D JUMPI PUSH0 PUSH0 REVERT JUMPDEST POP PUSH2 0x198 PUSH1 0x1 SLOAD DUP2 JUMP JUMPDEST PUSH2 0x140 PUSH2 0x285 CALLDATASIZE PUSH1 0x4 PUSH2 0x1FAD JUMP JUMPDEST PUSH2 0x16B4 JUMP JUMPDEST CALLVALUE DUP1 ISZERO PUSH2 0x295 JUMPI PUSH0 PUSH0 REVERT JUMPDEST POP PUSH2 0x2A9 PUSH2 0x2A4 CALLDATASIZE PUSH1 0x4 PUSH2 0x1E16 JUMP JUMPDEST PUSH2 0x1767 JUMP JUMPDEST PUSH1 0x40 MLOAD PUSH2 0x124 SWAP5 SWAP4 SWAP3 SWAP2 SWAP1 PUSH2 0x1FD7 JUMP JUMPDEST CALLVALUE DUP1 ISZERO PUSH2 0x2C4 JUMPI PUSH0 PUSH0 REVERT JUMPDEST POP PUSH2 0x2D8 PUSH2 0x2D3 CALLDATASIZE PUSH1 0x4 PUSH2 0x1E38 JUMP JUMPDEST PUSH2 0x181F JUMP JUMPDEST PUSH1 0x40 MLOAD PUSH2 0x124 SWAP2 SWAP1 PUSH2 0x200D JUMP JUMPDEST PUSH2 0x140 PUSH2 0x2F3 CALLDATASIZE PUSH1 0x4 PUSH2 0x22B2 JUMP JUMPDEST PUSH2 0x186C JUMP JUMPDEST PUSH1 0x1 PUSH1 0x1 PUSH1 0xA0 SHL SUB DUP2 AND PUSH0 SWAP1 DUP2 MSTORE PUSH1 0x5 PUSH1 0x20 MSTORE PUSH1 0x40 DUP2 KECCAK256 PUSH1 0x2 ADD SLOAD SWAP1 SUB PUSH2 0x34F JUMPI PUSH1 0x1 PUSH1 0x1 PUSH1 0xA0 SHL SUB DUP2 AND PUSH0 SWAP1 DUP2 MSTORE PUSH1 0x5 PUSH1 0x20 MSTORE PUSH1 0x40 DUP2 KECCAK256 PUSH1 0x2 ADD DUP1 SLOAD PUSH1 0x1 SWAP3 SWAP1 PUSH2 0x344 SWAP1 DUP5 SWAP1 PUSH2 0x2492 JUMP JUMPDEST SWAP1 SWAP2 SSTORE POP PUSH2 0x3A2 SWAP1 POP JUMP JUMPDEST PUSH1 0x1 PUSH1 0x1 PUSH1 0xA0 SHL SUB DUP2 AND PUSH0 SWAP1 DUP2 MSTORE PUSH1 0x5 PUSH1 0x20 MSTORE PUSH1 0x40 SWAP1 KECCAK256 PUSH1 0x2 ADD SLOAD PUSH1 0xA SUB PUSH2 0x3A2 JUMPI PUSH1 0x1 PUSH1 0x1 PUSH1 0xA0 SHL SUB DUP2 AND PUSH0 SWAP1 DUP2 MSTORE PUSH1 0x5 PUSH1 0x20 MSTORE PUSH1 0x40 DUP2 KECCAK256 PUSH1 0x2 ADD DUP1 SLOAD PUSH1 0x1 SWAP3 SWAP1 PUSH2 0x39C SWAP1 DUP5 SWAP1 PUSH2 0x24A5 JUMP JUMPDEST SWAP1 SWAP2 SSTORE POP POP JUMPDEST POP JUMP JUMPDEST PUSH1 0x2 DUP2 DUP2 SLOAD DUP2 LT PUSH2 0x3B4 JUMPI PUSH0 DUP1 REVERT JUMPDEST PUSH0 SWAP2 DUP3 MSTORE PUSH1 0x20 SWAP1 SWAP2 KECCAK256 PUSH1 0x2 SWAP1 SWAP2 MUL ADD DUP1 SLOAD PUSH1 0x1 DUP3 ADD DUP1 SLOAD PUSH1 0x1 PUSH1 0x1 PUSH1 0xA0 SHL SUB DUP4 AND SWAP5 POP PUSH1 0x1 PUSH1 0xA0 SHL SWAP1 SWAP3 DIV PUSH1 0xFF AND SWAP3 SWAP2 PUSH2 0x3ED SWAP1 PUSH2 0x24B8 JUMP JUMPDEST DUP1 PUSH1 0x1F ADD PUSH1 0x20 DUP1 SWAP2 DIV MUL PUSH1 0x20 ADD PUSH1 0x40 MLOAD SWAP1 DUP2 ADD PUSH1 0x40 MSTORE DUP1 SWAP3 SWAP2 SWAP1 DUP2 DUP2 MSTORE PUSH1 0x20 ADD DUP3 DUP1 SLOAD PUSH2 0x419 SWAP1 PUSH2 0x24B8 JUMP JUMPDEST DUP1 ISZERO PUSH2 0x464 JUMPI DUP1 PUSH1 0x1F LT PUSH2 0x43B JUMPI PUSH2 0x100 DUP1 DUP4 SLOAD DIV MUL DUP4 MSTORE SWAP2 PUSH1 0x20 ADD SWAP2 PUSH2 0x464 JUMP JUMPDEST DUP3 ADD SWAP2 SWAP1 PUSH0 MSTORE PUSH1 0x20 PUSH0 KECCAK256 SWAP1 JUMPDEST DUP2 SLOAD DUP2 MSTORE SWAP1 PUSH1 0x1 ADD SWAP1 PUSH1 0x20 ADD DUP1 DUP4 GT PUSH2 0x447 JUMPI DUP3 SWAP1 SUB PUSH1 0x1F AND DUP3 ADD SWAP2 JUMPDEST POP POP POP POP POP SWAP1 POP DUP4 JUMP JUMPDEST PUSH0 SLOAD PUSH1 0x1 PUSH1 0x1 PUSH1 0xA0 SHL SUB AND PUSH2 0x4CA JUMPI PUSH1 0x40 MLOAD PUSH3 0x461BCD PUSH1 0xE5 SHL DUP2 MSTORE PUSH1 0x20 PUSH1 0x4 DUP3 ADD MSTORE PUSH1 0x19 PUSH1 0x24 DUP3 ADD MSTORE PUSH32 0x4465706C6F7920415049436F6E73756D65722066697273742100000000000000 PUSH1 0x44 DUP3 ADD MSTORE PUSH1 0x64 ADD JUMPDEST PUSH1 0x40 MLOAD DUP1 SWAP2 SUB SWAP1 REVERT JUMPDEST PUSH1 0x40 DUP1 MLOAD PUSH1 0x60 DUP2 ADD DUP3 MSTORE PUSH20 0x5B38DA6A701C568545DCFCB03FCB875F56BEDDC4 DUP2 MSTORE PUSH1 0x1 PUSH1 0x20 DUP1 DUP4 ADD DUP3 DUP2 MSTORE DUP5 MLOAD SWAP2 DUP3 ADD DUP6 MSTORE PUSH0 DUP1 DUP4 MSTORE SWAP5 DUP5 ADD SWAP2 DUP3 MSTORE PUSH1 0x2 DUP1 SLOAD SWAP4 DUP5 ADD DUP2 SSTORE SWAP5 DUP6 SWAP1 MSTORE DUP4 MLOAD SWAP3 SWAP1 SWAP5 MUL PUSH32 0x405787FA12A823E0F2B7631CC41B3BA8828B3321CA811111FA75CD3AA3BB5ACE DUP2 ADD DUP1 SLOAD SWAP6 MLOAD ISZERO ISZERO PUSH1 0x1 PUSH1 0xA0 SHL MUL PUSH1 0x1 PUSH1 0x1 PUSH1 0xA8 SHL SUB NOT SWAP1 SWAP7 AND PUSH1 0x1 PUSH1 0x1 PUSH1 0xA0 SHL SUB SWAP5 SWAP1 SWAP5 AND SWAP4 SWAP1 SWAP4 OR SWAP5 SWAP1 SWAP5 OR DUP3 SSTORE MLOAD SWAP2 SWAP3 DUP4 SWAP3 PUSH32 0x405787FA12A823E0F2B7631CC41B3BA8828B3321CA811111FA75CD3AA3BB5ACF SWAP1 SWAP2 ADD SWAP1 PUSH2 0x59E SWAP1 DUP3 PUSH2 0x253C JUMP JUMPDEST POP POP PUSH1 0x3 DUP1 SLOAD PUSH1 0x1 DUP2 ADD DUP3 SSTORE PUSH0 SWAP2 SWAP1 SWAP2 MSTORE DUP3 MLOAD PUSH1 0x2 SWAP1 SWAP2 MUL PUSH32 0xC2575A0E9E593C00F959F8C92F12DB2869C3395A3B0502D05E2516446F71F85B DUP2 ADD DUP1 SLOAD PUSH1 0x20 DUP7 ADD MLOAD ISZERO ISZERO PUSH1 0x1 PUSH1 0xA0 SHL MUL PUSH1 0x1 PUSH1 0x1 PUSH1 0xA8 SHL SUB NOT SWAP1 SWAP2 AND PUSH1 0x1 PUSH1 0x1 PUSH1 0xA0 SHL SUB SWAP1 SWAP5 AND SWAP4 SWAP1 SWAP4 OR SWAP3 SWAP1 SWAP3 OR DUP3 SSTORE PUSH1 0x40 DUP5 ADD MLOAD DUP5 SWAP4 POP PUSH32 0xC2575A0E9E593C00F959F8C92F12DB2869C3395A3B0502D05E2516446F71F85C SWAP1 SWAP2 ADD SWAP1 PUSH2 0x640 SWAP1 DUP3 PUSH2 0x253C JUMP JUMPDEST POP POP PUSH1 0x40 DUP1 MLOAD PUSH1 0x60 DUP2 ADD DUP3 MSTORE PUSH20 0xAB8483F64D9C6D1ECF9B849AE677DD3315835CB2 DUP2 MSTORE PUSH1 0x1 PUSH1 0x20 DUP1 DUP4 ADD DUP3 DUP2 MSTORE DUP5 MLOAD SWAP2 DUP3 ADD DUP6 MSTORE PUSH0 DUP1 DUP4 MSTORE SWAP5 DUP5 ADD SWAP2 DUP3 MSTORE PUSH1 0x2 DUP1 SLOAD SWAP4 DUP5 ADD DUP2 SSTORE SWAP5 DUP6 SWAP1 MSTORE DUP4 MLOAD SWAP3 SWAP1 SWAP5 MUL PUSH32 0x405787FA12A823E0F2B7631CC41B3BA8828B3321CA811111FA75CD3AA3BB5ACE DUP2 ADD DUP1 SLOAD SWAP6 MLOAD ISZERO ISZERO PUSH1 0x1 PUSH1 0xA0 SHL MUL PUSH1 0x1 PUSH1 0x1 PUSH1 0xA8 SHL SUB NOT SWAP1 SWAP7 AND PUSH1 0x1 PUSH1 0x1 PUSH1 0xA0 SHL SUB SWAP5 SWAP1 SWAP5 AND SWAP4 SWAP1 SWAP4 OR SWAP5 SWAP1 SWAP5 OR DUP3 SSTORE MLOAD SWAP2 SWAP4 POP DUP4 SWAP3 SWAP1 SWAP2 PUSH32 0x405787FA12A823E0F2B7631CC41B3BA8828B3321CA811111FA75CD3AA3BB5ACF SWAP1 SWAP2 ADD SWAP1 PUSH2 0x719 SWAP1 DUP3 PUSH2 0x253C JUMP JUMPDEST POP POP PUSH1 0x3 DUP1 SLOAD PUSH1 0x1 DUP2 ADD DUP3 SSTORE PUSH0 SWAP2 SWAP1 SWAP2 MSTORE DUP3 MLOAD PUSH1 0x2 SWAP1 SWAP2 MUL PUSH32 0xC2575A0E9E593C00F959F8C92F12DB2869C3395A3B0502D05E2516446F71F85B DUP2 ADD DUP1 SLOAD PUSH1 0x20 DUP7 ADD MLOAD ISZERO ISZERO PUSH1 0x1 PUSH1 0xA0 SHL MUL PUSH1 0x1 PUSH1 0x1 PUSH1 0xA8 SHL SUB NOT SWAP1 SWAP2 AND PUSH1 0x1 PUSH1 0x1 PUSH1 0xA0 SHL SUB SWAP1 SWAP5 AND SWAP4 SWAP1 SWAP4 OR SWAP3 SWAP1 SWAP3 OR DUP3 SSTORE PUSH1 0x40 DUP5 ADD MLOAD DUP5 SWAP4 POP PUSH32 0xC2575A0E9E593C00F959F8C92F12DB2869C3395A3B0502D05E2516446F71F85C SWAP1 SWAP2 ADD SWAP1 PUSH2 0x7BB SWAP1 DUP3 PUSH2 0x253C JUMP JUMPDEST POP POP PUSH1 0x40 DUP1 MLOAD PUSH1 0x60 DUP2 ADD DUP3 MSTORE PUSH20 0x4B20993BC481177EC7E8F571CECAE8A9E22C02DB DUP2 MSTORE PUSH1 0x1 PUSH1 0x20 DUP1 DUP4 ADD DUP3 DUP2 MSTORE DUP5 MLOAD SWAP2 DUP3 ADD DUP6 MSTORE PUSH0 DUP1 DUP4 MSTORE SWAP5 DUP5 ADD SWAP2 DUP3 MSTORE PUSH1 0x2 DUP1 SLOAD SWAP4 DUP5 ADD DUP2 SSTORE SWAP5 DUP6 SWAP1 MSTORE DUP4 MLOAD SWAP3 SWAP1 SWAP5 MUL PUSH32 0x405787FA12A823E0F2B7631CC41B3BA8828B3321CA811111FA75CD3AA3BB5ACE DUP2 ADD DUP1 SLOAD SWAP6 MLOAD ISZERO ISZERO PUSH1 0x1 PUSH1 0xA0 SHL MUL PUSH1 0x1 PUSH1 0x1 PUSH1 0xA8 SHL SUB NOT SWAP1 SWAP7 AND PUSH1 0x1 PUSH1 0x1 PUSH1 0xA0 SHL SUB SWAP5 SWAP1 SWAP5 AND SWAP4 SWAP1 SWAP4 OR SWAP5 SWAP1 SWAP5 OR DUP3 SSTORE MLOAD SWAP2 SWAP4 POP DUP4 SWAP3 SWAP1 SWAP2 PUSH32 0x405787FA12A823E0F2B7631CC41B3BA8828B3321CA811111FA75CD3AA3BB5ACF SWAP1 SWAP2 ADD SWAP1 PUSH2 0x894 SWAP1 DUP3 PUSH2 0x253C JUMP JUMPDEST POP POP PUSH1 0x3 DUP1 SLOAD PUSH1 0x1 DUP2 ADD DUP3 SSTORE PUSH0 SWAP2 SWAP1 SWAP2 MSTORE DUP3 MLOAD PUSH1 0x2 SWAP1 SWAP2 MUL PUSH32 0xC2575A0E9E593C00F959F8C92F12DB2869C3395A3B0502D05E2516446F71F85B DUP2 ADD DUP1 SLOAD PUSH1 0x20 DUP7 ADD MLOAD ISZERO ISZERO PUSH1 0x1 PUSH1 0xA0 SHL MUL PUSH1 0x1 PUSH1 0x1 PUSH1 0xA8 SHL SUB NOT SWAP1 SWAP2 AND PUSH1 0x1 PUSH1 0x1 PUSH1 0xA0 SHL SUB SWAP1 SWAP5 AND SWAP4 SWAP1 SWAP4 OR SWAP3 SWAP1 SWAP3 OR DUP3 SSTORE PUSH1 0x40 DUP5 ADD MLOAD DUP5 SWAP4 POP PUSH32 0xC2575A0E9E593C00F959F8C92F12DB2869C3395A3B0502D05E2516446F71F85C SWAP1 SWAP2 ADD SWAP1 PUSH2 0x936 SWAP1 DUP3 PUSH2 0x253C JUMP JUMPDEST POP POP CALLER PUSH0 SWAP1 DUP2 MSTORE PUSH1 0x4 PUSH1 0x20 SWAP1 DUP2 MSTORE PUSH1 0x40 DUP1 DUP4 KECCAK256 PUSH4 0x499602D2 DUP2 SSTORE PUSH1 0x1 DUP2 ADD DUP1 SLOAD PUSH1 0x1 PUSH1 0x1 PUSH1 0xA0 SHL SUB NOT AND PUSH20 0xCBD38ADA2D31C7071E041FC8F8C1DA9DF9C76DD4 OR SWAP1 SSTORE DUP2 MLOAD SWAP3 DUP4 ADD SWAP1 SWAP2 MSTORE SWAP2 DUP2 MSTORE SWAP1 SWAP2 POP PUSH1 0x2 DUP3 ADD SWAP1 PUSH2 0x995 SWAP1 DUP3 PUSH2 0x253C JUMP JUMPDEST POP PUSH1 0x1 PUSH1 0x3 DUP3 ADD SSTORE PUSH3 0x69780 PUSH1 0x4 DUP3 ADD SSTORE PUSH1 0x40 DUP1 MLOAD PUSH1 0x20 DUP2 ADD SWAP1 SWAP2 MSTORE PUSH0 DUP2 MSTORE PUSH1 0x5 DUP3 ADD SWAP1 PUSH2 0x9C3 SWAP1 DUP3 PUSH2 0x253C JUMP JUMPDEST POP PUSH10 0x1D9CA7A480674860000 PUSH1 0x6 DUP3 ADD SSTORE PUSH1 0x40 DUP1 MLOAD PUSH1 0x20 DUP2 ADD SWAP1 SWAP2 MSTORE PUSH0 DUP2 MSTORE PUSH1 0x7 DUP3 ADD SWAP1 PUSH2 0x9F1 SWAP1 DUP3 PUSH2 0x253C JUMP JUMPDEST POP PUSH1 0x40 DUP1 MLOAD PUSH1 0x20 DUP2 ADD SWAP1 SWAP2 MSTORE PUSH0 DUP2 MSTORE PUSH1 0x8 DUP3 ADD SWAP1 PUSH2 0xA0F SWAP1 DUP3 PUSH2 0x253C JUMP JUMPDEST POP PUSH1 0x2 DUP1 SLOAD PUSH2 0xA22 SWAP2 PUSH1 0x9 DUP5 ADD SWAP2 PUSH2 0x1CD1 JUMP JUMPDEST POP PUSH1 0x3 DUP1 SLOAD PUSH2 0xA35 SWAP2 PUSH1 0xA DUP5 ADD SWAP2 PUSH2 0x1CD1 JUMP JUMPDEST POP PUSH1 0xB DUP2 ADD DUP1 SLOAD PUSH2 0x101 PUSH2 0xFFFF NOT SWAP1 SWAP2 AND OR SWAP1 SSTORE PUSH0 DUP1 SLOAD PUSH1 0x40 MLOAD PUSH4 0xAB6E78F PUSH1 0xE2 SHL DUP2 MSTORE PUSH1 0x1 PUSH1 0x4 DUP3 ADD MSTORE PUSH1 0x1 PUSH1 0x1 PUSH1 0xA0 SHL SUB SWAP1 SWAP2 AND SWAP1 PUSH4 0x2ADB9E3C SWAP1 PUSH1 0x24 ADD PUSH1 0x20 PUSH1 0x40 MLOAD DUP1 DUP4 SUB DUP2 PUSH0 DUP8 GAS CALL ISZERO DUP1 ISZERO PUSH2 0xA91 JUMPI RETURNDATASIZE PUSH0 PUSH0 RETURNDATACOPY RETURNDATASIZE PUSH0 REVERT JUMPDEST POP POP POP POP PUSH1 0x40 MLOAD RETURNDATASIZE PUSH1 0x1F NOT PUSH1 0x1F DUP3 ADD AND DUP3 ADD DUP1 PUSH1 0x40 MSTORE POP DUP2 ADD SWAP1 PUSH2 0xAB5 SWAP2 SWAP1 PUSH2 0x25F9 JUMP JUMPDEST POP POP POP POP POP POP JUMP JUMPDEST CALLER PUSH0 SWAP1 DUP2 MSTORE PUSH1 0x5 PUSH1 0x20 SWAP1 DUP2 MSTORE PUSH1 0x40 DUP1 DUP4 KECCAK256 DUP2 MLOAD DUP1 DUP4 ADD SWAP1 SWAP3 MSTORE PUSH1 0x3 DUP3 MSTORE PUSH3 0x53616D PUSH1 0xE8 SHL SWAP3 DUP3 ADD SWAP3 SWAP1 SWAP3 MSTORE PUSH1 0x1 DUP3 ADD SWAP1 PUSH2 0xAF7 SWAP1 DUP3 PUSH2 0x253C JUMP JUMPDEST POP DUP1 SLOAD PUSH1 0x1 PUSH1 0x1 PUSH1 0xA0 SHL SUB NOT AND PUSH20 0xCBD38ADA2D31C7071E041FC8F8C1DA9DF9C76DD4 OR DUP2 SSTORE PUSH1 0xA PUSH1 0x2 DUP3 ADD DUP2 SWAP1 SSTORE PUSH3 0xF4240 PUSH1 0x3 SWAP1 SWAP3 ADD SWAP2 SWAP1 SWAP2 SSTORE SWAP2 SWAP1 POP JUMP JUMPDEST PUSH0 DUP1 DUP1 PUSH2 0xB45 DUP5 PUSH1 0x5 PUSH2 0x2610 JUMP JUMPDEST PUSH2 0xB51 SWAP1 PUSH2 0x3E8 PUSH2 0x2627 JUMP JUMPDEST SWAP1 POP PUSH0 PUSH2 0xB60 DUP3 PUSH2 0x3E8 PUSH2 0x24A5 JUMP JUMPDEST SWAP1 POP PUSH0 MLOAD PUSH1 0x20 PUSH2 0x3A8F PUSH0 CODECOPY PUSH0 MLOAD SWAP1 PUSH0 MSTORE PUSH2 0xB7C DUP4 PUSH2 0x7D0 PUSH2 0x2492 JUMP JUMPDEST PUSH1 0x40 MLOAD PUSH2 0xBD1 SWAP2 SWAP1 PUSH1 0x40 DUP1 DUP3 MSTORE PUSH1 0x25 SWAP1 DUP3 ADD MSTORE PUSH32 0x5468652070726F706F6E656E742068617320746F20706179206120746F74616C PUSH1 0x60 DUP3 ADD MSTORE PUSH5 0x1037B31D1 PUSH1 0xDD SHL PUSH1 0x80 DUP3 ADD MSTORE PUSH1 0x20 DUP2 ADD SWAP2 SWAP1 SWAP2 MSTORE PUSH1 0xA0 ADD SWAP1 JUMP JUMPDEST PUSH1 0x40 MLOAD DUP1 SWAP2 SUB SWAP1 LOG1 PUSH1 0x40 DUP1 MLOAD DUP2 DUP2 MSTORE PUSH1 0x1C DUP2 DUP4 ADD MSTORE PUSH32 0x56657272612068617320746F20706179206120746F74616C206F663A00000000 PUSH1 0x60 DUP3 ADD MSTORE PUSH1 0x20 DUP2 ADD DUP4 SWAP1 MSTORE SWAP1 MLOAD PUSH0 MLOAD PUSH1 0x20 PUSH2 0x3A8F PUSH0 CODECOPY PUSH0 MLOAD SWAP1 PUSH0 MSTORE SWAP2 DUP2 SWAP1 SUB PUSH1 0x80 ADD SWAP1 LOG1 SWAP1 SWAP5 SWAP1 SWAP4 POP SWAP2 POP POP JUMP JUMPDEST CALLER PUSH0 SWAP1 DUP2 MSTORE PUSH1 0x4 PUSH1 0x20 DUP2 SWAP1 MSTORE PUSH1 0x40 SWAP1 SWAP2 KECCAK256 PUSH1 0xB ADD DUP1 SLOAD DUP4 SWAP3 PUSH1 0xFF NOT SWAP1 SWAP2 AND SWAP1 PUSH1 0x1 SWAP1 DUP5 SWAP1 DUP2 GT ISZERO PUSH2 0xC69 JUMPI PUSH2 0xC69 PUSH2 0x1ED8 JUMP JUMPDEST MUL OR SWAP1 SSTORE POP PUSH1 0x3 DUP2 PUSH1 0x4 DUP2 GT ISZERO PUSH2 0xC82 JUMPI PUSH2 0xC82 PUSH2 0x1ED8 JUMP JUMPDEST EQ DUP1 PUSH2 0xC9F JUMPI POP PUSH1 0x4 DUP2 PUSH1 0x4 DUP2 GT ISZERO PUSH2 0xC9D JUMPI PUSH2 0xC9D PUSH2 0x1ED8 JUMP JUMPDEST EQ JUMPDEST ISZERO PUSH2 0x3A2 JUMPI PUSH1 0x4 SELFBALANCE LT PUSH2 0x1383 JUMPI PUSH0 PUSH0 SWAP1 SLOAD SWAP1 PUSH2 0x100 EXP SWAP1 DIV PUSH1 0x1 PUSH1 0x1 PUSH1 0xA0 SHL SUB AND PUSH1 0x1 PUSH1 0x1 PUSH1 0xA0 SHL SUB AND PUSH4 0xC618A1E4 PUSH1 0x40 MLOAD DUP2 PUSH4 0xFFFFFFFF AND PUSH1 0xE0 SHL DUP2 MSTORE PUSH1 0x4 ADD PUSH1 0x20 PUSH1 0x40 MLOAD DUP1 DUP4 SUB DUP2 DUP7 GAS STATICCALL ISZERO DUP1 ISZERO PUSH2 0xCFB JUMPI RETURNDATASIZE PUSH0 PUSH0 RETURNDATACOPY RETURNDATASIZE PUSH0 REVERT JUMPDEST POP POP POP POP PUSH1 0x40 MLOAD RETURNDATASIZE PUSH1 0x1F NOT PUSH1 0x1F DUP3 ADD AND DUP3 ADD DUP1 PUSH1 0x40 MSTORE POP DUP2 ADD SWAP1 PUSH2 0xD1F SWAP2 SWAP1 PUSH2 0x25F9 JUMP JUMPDEST PUSH1 0x1 SWAP1 DUP2 SSTORE PUSH0 DUP1 SLOAD PUSH1 0x40 MLOAD PUSH4 0xAB6E78F PUSH1 0xE2 SHL DUP2 MSTORE SWAP2 SWAP3 PUSH1 0x1 PUSH1 0x1 PUSH1 0xA0 SHL SUB SWAP1 SWAP2 AND SWAP2 PUSH4 0x2ADB9E3C SWAP2 PUSH2 0xD58 SWAP2 PUSH1 0x4 ADD SWAP1 DUP2 MSTORE PUSH1 0x20 ADD SWAP1 JUMP JUMPDEST PUSH1 0x20 PUSH1 0x40 MLOAD DUP1 DUP4 SUB DUP2 PUSH0 DUP8 GAS CALL ISZERO DUP1 ISZERO PUSH2 0xD74 JUMPI RETURNDATASIZE PUSH0 PUSH0 RETURNDATACOPY RETURNDATASIZE PUSH0 REVERT JUMPDEST POP POP POP POP PUSH1 0x40 MLOAD RETURNDATASIZE PUSH1 0x1F NOT PUSH1 0x1F DUP3 ADD AND DUP3 ADD DUP1 PUSH1 0x40 MSTORE POP DUP2 ADD SWAP1 PUSH2 0xD98 SWAP2 SWAP1 PUSH2 0x25F9 JUMP JUMPDEST CALLER PUSH0 SWAP1 DUP2 MSTORE PUSH1 0x4 PUSH1 0x20 SWAP1 DUP2 MSTORE PUSH1 0x40 SWAP2 DUP3 SWAP1 KECCAK256 DUP3 MLOAD PUSH2 0x1A0 DUP2 ADD DUP5 MSTORE DUP2 SLOAD DUP2 MSTORE PUSH1 0x1 DUP3 ADD SLOAD PUSH1 0x1 PUSH1 0x1 PUSH1 0xA0 SHL SUB AND SWAP3 DUP2 ADD SWAP3 SWAP1 SWAP3 MSTORE PUSH1 0x2 DUP2 ADD DUP1 SLOAD SWAP5 SWAP6 POP PUSH2 0x137F SWAP5 SWAP3 SWAP4 SWAP2 SWAP3 SWAP2 DUP5 ADD SWAP2 PUSH2 0xDEA SWAP1 PUSH2 0x24B8 JUMP JUMPDEST DUP1 PUSH1 0x1F ADD PUSH1 0x20 DUP1 SWAP2 DIV MUL PUSH1 0x20 ADD PUSH1 0x40 MLOAD SWAP1 DUP2 ADD PUSH1 0x40 MSTORE DUP1 SWAP3 SWAP2 SWAP1 DUP2 DUP2 MSTORE PUSH1 0x20 ADD DUP3 DUP1 SLOAD PUSH2 0xE16 SWAP1 PUSH2 0x24B8 JUMP JUMPDEST DUP1 ISZERO PUSH2 0xE61 JUMPI DUP1 PUSH1 0x1F LT PUSH2 0xE38 JUMPI PUSH2 0x100 DUP1 DUP4 SLOAD DIV MUL DUP4 MSTORE SWAP2 PUSH1 0x20 ADD SWAP2 PUSH2 0xE61 JUMP JUMPDEST DUP3 ADD SWAP2 SWAP1 PUSH0 MSTORE PUSH1 0x20 PUSH0 KECCAK256 SWAP1 JUMPDEST DUP2 SLOAD DUP2 MSTORE SWAP1 PUSH1 0x1 ADD SWAP1 PUSH1 0x20 ADD DUP1 DUP4 GT PUSH2 0xE44 JUMPI DUP3 SWAP1 SUB PUSH1 0x1F AND DUP3 ADD SWAP2 JUMPDEST POP POP POP POP POP DUP2 MSTORE PUSH1 0x20 ADD PUSH1 0x3 DUP3 ADD SLOAD DUP2 MSTORE PUSH1 0x20 ADD PUSH1 0x4 DUP3 ADD SLOAD DUP2 MSTORE PUSH1 0x20 ADD PUSH1 0x5 DUP3 ADD DUP1 SLOAD PUSH2 0xE8E SWAP1 PUSH2 0x24B8 JUMP JUMPDEST DUP1 PUSH1 0x1F ADD PUSH1 0x20 DUP1 SWAP2 DIV MUL PUSH1 0x20 ADD PUSH1 0x40 MLOAD SWAP1 DUP2 ADD PUSH1 0x40 MSTORE DUP1 SWAP3 SWAP2 SWAP1 DUP2 DUP2 MSTORE PUSH1 0x20 ADD DUP3 DUP1 SLOAD PUSH2 0xEBA SWAP1 PUSH2 0x24B8 JUMP JUMPDEST DUP1 ISZERO PUSH2 0xF05 JUMPI DUP1 PUSH1 0x1F LT PUSH2 0xEDC JUMPI PUSH2 0x100 DUP1 DUP4 SLOAD DIV MUL DUP4 MSTORE SWAP2 PUSH1 0x20 ADD SWAP2 PUSH2 0xF05 JUMP JUMPDEST DUP3 ADD SWAP2 SWAP1 PUSH0 MSTORE PUSH1 0x20 PUSH0 KECCAK256 SWAP1 JUMPDEST DUP2 SLOAD DUP2 MSTORE SWAP1 PUSH1 0x1 ADD SWAP1 PUSH1 0x20 ADD DUP1 DUP4 GT PUSH2 0xEE8 JUMPI DUP3 SWAP1 SUB PUSH1 0x1F AND DUP3 ADD SWAP2 JUMPDEST POP POP POP POP POP DUP2 MSTORE PUSH1 0x20 ADD PUSH1 0x6 DUP3 ADD SLOAD DUP2 MSTORE PUSH1 0x20 ADD PUSH1 0x7 DUP3 ADD DUP1 SLOAD PUSH2 0xF28 SWAP1 PUSH2 0x24B8 JUMP JUMPDEST DUP1 PUSH1 0x1F ADD PUSH1 0x20 DUP1 SWAP2 DIV MUL PUSH1 0x20 ADD PUSH1 0x40 MLOAD SWAP1 DUP2 ADD PUSH1 0x40 MSTORE DUP1 SWAP3 SWAP2 SWAP1 DUP2 DUP2 MSTORE PUSH1 0x20 ADD DUP3 DUP1 SLOAD PUSH2 0xF54 SWAP1 PUSH2 0x24B8 JUMP JUMPDEST DUP1 ISZERO PUSH2 0xF9F JUMPI DUP1 PUSH1 0x1F LT PUSH2 0xF76 JUMPI PUSH2 0x100 DUP1 DUP4 SLOAD DIV MUL DUP4 MSTORE SWAP2 PUSH1 0x20 ADD SWAP2 PUSH2 0xF9F JUMP JUMPDEST DUP3 ADD SWAP2 SWAP1 PUSH0 MSTORE PUSH1 0x20 PUSH0 KECCAK256 SWAP1 JUMPDEST DUP2 SLOAD DUP2 MSTORE SWAP1 PUSH1 0x1 ADD SWAP1 PUSH1 0x20 ADD DUP1 DUP4 GT PUSH2 0xF82 JUMPI DUP3 SWAP1 SUB PUSH1 0x1F AND DUP3 ADD SWAP2 JUMPDEST POP POP POP POP POP DUP2 MSTORE PUSH1 0x20 ADD PUSH1 0x8 DUP3 ADD DUP1 SLOAD PUSH2 0xFB8 SWAP1 PUSH2 0x24B8 JUMP JUMPDEST DUP1 PUSH1 0x1F ADD PUSH1 0x20 DUP1 SWAP2 DIV MUL PUSH1 0x20 ADD PUSH1 0x40 MLOAD SWAP1 DUP2 ADD PUSH1 0x40 MSTORE DUP1 SWAP3 SWAP2 SWAP1 DUP2 DUP2 MSTORE PUSH1 0x20 ADD DUP3 DUP1 SLOAD PUSH2 0xFE4 SWAP1 PUSH2 0x24B8 JUMP JUMPDEST DUP1 ISZERO PUSH2 0x102F JUMPI DUP1 PUSH1 0x1F LT PUSH2 0x1006 JUMPI PUSH2 0x100 DUP1 DUP4 SLOAD DIV MUL DUP4 MSTORE SWAP2 PUSH1 0x20 ADD SWAP2 PUSH2 0x102F JUMP JUMPDEST DUP3 ADD SWAP2 SWAP1 PUSH0 MSTORE PUSH1 0x20 PUSH0 KECCAK256 SWAP1 JUMPDEST DUP2 SLOAD DUP2 MSTORE SWAP1 PUSH1 0x1 ADD SWAP1 PUSH1 0x20 ADD DUP1 DUP4 GT PUSH2 0x1012 JUMPI DUP3 SWAP1 SUB PUSH1 0x1F AND DUP3 ADD SWAP2 JUMPDEST POP POP POP POP POP DUP2 MSTORE PUSH1 0x20 ADD PUSH1 0x9 DUP3 ADD DUP1 SLOAD DUP1 PUSH1 0x20 MUL PUSH1 0x20 ADD PUSH1 0x40 MLOAD SWAP1 DUP2 ADD PUSH1 0x40 MSTORE DUP1 SWAP3 SWAP2 SWAP1 DUP2 DUP2 MSTORE PUSH1 0x20 ADD PUSH0 SWAP1 JUMPDEST DUP3 DUP3 LT ISZERO PUSH2 0x1145 JUMPI PUSH0 DUP5 DUP2 MSTORE PUSH1 0x20 SWAP1 DUP2 SWAP1 KECCAK256 PUSH1 0x40 DUP1 MLOAD PUSH1 0x60 DUP2 ADD DUP3 MSTORE PUSH1 0x2 DUP7 MUL SWAP1 SWAP3 ADD DUP1 SLOAD PUSH1 0x1 PUSH1 0x1 PUSH1 0xA0 SHL SUB DUP2 AND DUP5 MSTORE PUSH1 0x1 PUSH1 0xA0 SHL SWAP1 DIV PUSH1 0xFF AND ISZERO ISZERO SWAP4 DUP4 ADD SWAP4 SWAP1 SWAP4 MSTORE PUSH1 0x1 DUP4 ADD DUP1 SLOAD SWAP3 SWAP4 SWAP3 SWAP2 DUP5 ADD SWAP2 PUSH2 0x10B6 SWAP1 PUSH2 0x24B8 JUMP JUMPDEST DUP1 PUSH1 0x1F ADD PUSH1 0x20 DUP1 SWAP2 DIV MUL PUSH1 0x20 ADD PUSH1 0x40 MLOAD SWAP1 DUP2 ADD PUSH1 0x40 MSTORE DUP1 SWAP3 SWAP2 SWAP1 DUP2 DUP2 MSTORE PUSH1 0x20 ADD DUP3 DUP1 SLOAD PUSH2 0x10E2 SWAP1 PUSH2 0x24B8 JUMP JUMPDEST DUP1 ISZERO PUSH2 0x112D JUMPI DUP1 PUSH1 0x1F LT PUSH2 0x1104 JUMPI PUSH2 0x100 DUP1 DUP4 SLOAD DIV MUL DUP4 MSTORE SWAP2 PUSH1 0x20 ADD SWAP2 PUSH2 0x112D JUMP JUMPDEST DUP3 ADD SWAP2 SWAP1 PUSH0 MSTORE PUSH1 0x20 PUSH0 KECCAK256 SWAP1 JUMPDEST DUP2 SLOAD DUP2 MSTORE SWAP1 PUSH1 0x1 ADD SWAP1 PUSH1 0x20 ADD DUP1 DUP4 GT PUSH2 0x1110 JUMPI DUP3 SWAP1 SUB PUSH1 0x1F AND DUP3 ADD SWAP2 JUMPDEST POP POP POP POP POP DUP2 MSTORE POP POP DUP2 MSTORE PUSH1 0x20 ADD SWAP1 PUSH1 0x1 ADD SWAP1 PUSH2 0x105C JUMP JUMPDEST POP POP POP POP DUP2 MSTORE PUSH1 0x20 ADD PUSH1 0xA DUP3 ADD DUP1 SLOAD DUP1 PUSH1 0x20 MUL PUSH1 0x20 ADD PUSH1 0x40 MLOAD SWAP1 DUP2 ADD PUSH1 0x40 MSTORE DUP1 SWAP3 SWAP2 SWAP1 DUP2 DUP2 MSTORE PUSH1 0x20 ADD PUSH0 SWAP1 JUMPDEST DUP3 DUP3 LT ISZERO PUSH2 0x125A JUMPI PUSH0 DUP5 DUP2 MSTORE PUSH1 0x20 SWAP1 DUP2 SWAP1 KECCAK256 PUSH1 0x40 DUP1 MLOAD PUSH1 0x60 DUP2 ADD DUP3 MSTORE PUSH1 0x2 DUP7 MUL SWAP1 SWAP3 ADD DUP1 SLOAD PUSH1 0x1 PUSH1 0x1 PUSH1 0xA0 SHL SUB DUP2 AND DUP5 MSTORE PUSH1 0x1 PUSH1 0xA0 SHL SWAP1 DIV PUSH1 0xFF AND ISZERO ISZERO SWAP4 DUP4 ADD SWAP4 SWAP1 SWAP4 MSTORE PUSH1 0x1 DUP4 ADD DUP1 SLOAD SWAP3 SWAP4 SWAP3 SWAP2 DUP5 ADD SWAP2 PUSH2 0x11CB SWAP1 PUSH2 0x24B8 JUMP JUMPDEST DUP1 PUSH1 0x1F ADD PUSH1 0x20 DUP1 SWAP2 DIV MUL PUSH1 0x20 ADD PUSH1 0x40 MLOAD SWAP1 DUP2 ADD PUSH1 0x40 MSTORE DUP1 SWAP3 SWAP2 SWAP1 DUP2 DUP2 MSTORE PUSH1 0x20 ADD DUP3 DUP1 SLOAD PUSH2 0x11F7 SWAP1 PUSH2 0x24B8 JUMP JUMPDEST DUP1 ISZERO PUSH2 0x1242 JUMPI DUP1 PUSH1 0x1F LT PUSH2 0x1219 JUMPI PUSH2 0x100 DUP1 DUP4 SLOAD DIV MUL DUP4 MSTORE SWAP2 PUSH1 0x20 ADD SWAP2 PUSH2 0x1242 JUMP JUMPDEST DUP3 ADD SWAP2 SWAP1 PUSH0 MSTORE PUSH1 0x20 PUSH0 KECCAK256 SWAP1 JUMPDEST DUP2 SLOAD DUP2 MSTORE SWAP1 PUSH1 0x1 ADD SWAP1 PUSH1 0x20 ADD DUP1 DUP4 GT PUSH2 0x1225 JUMPI DUP3 SWAP1 SUB PUSH1 0x1F AND DUP3 ADD SWAP2 JUMPDEST POP POP POP POP POP DUP2 MSTORE POP POP DUP2 MSTORE PUSH1 0x20 ADD SWAP1 PUSH1 0x1 ADD SWAP1 PUSH2 0x1171 JUMP JUMPDEST POP POP POP SWAP1 DUP3 MSTORE POP PUSH1 0xB DUP3 ADD SLOAD PUSH1 0x20 SWAP1 SWAP2 ADD SWAP1 PUSH1 0xFF AND PUSH1 0x4 DUP2 GT ISZERO PUSH2 0x1280 JUMPI PUSH2 0x1280 PUSH2 0x1ED8 JUMP JUMPDEST PUSH1 0x4 DUP2 GT ISZERO PUSH2 0x1291 JUMPI PUSH2 0x1291 PUSH2 0x1ED8 JUMP JUMPDEST DUP2 MSTORE PUSH1 0xB SWAP2 SWAP1 SWAP2 ADD SLOAD PUSH2 0x100 SWAP1 DIV PUSH1 0xFF AND ISZERO ISZERO PUSH1 0x20 SWAP2 DUP3 ADD MSTORE CALLER PUSH0 SWAP1 DUP2 MSTORE PUSH1 0x5 DUP3 MSTORE PUSH1 0x40 SWAP1 DUP2 SWAP1 KECCAK256 DUP2 MLOAD PUSH1 0x80 DUP2 ADD SWAP1 SWAP3 MSTORE DUP1 SLOAD PUSH1 0x1 PUSH1 0x1 PUSH1 0xA0 SHL SUB AND DUP3 MSTORE PUSH1 0x1 DUP2 ADD DUP1 SLOAD SWAP3 SWAP4 SWAP2 SWAP3 SWAP2 DUP5 ADD SWAP2 PUSH2 0x12E6 SWAP1 PUSH2 0x24B8 JUMP JUMPDEST DUP1 PUSH1 0x1F ADD PUSH1 0x20 DUP1 SWAP2 DIV MUL PUSH1 0x20 ADD PUSH1 0x40 MLOAD SWAP1 DUP2 ADD PUSH1 0x40 MSTORE DUP1 SWAP3 SWAP2 SWAP1 DUP2 DUP2 MSTORE PUSH1 0x20 ADD DUP3 DUP1 SLOAD PUSH2 0x1312 SWAP1 PUSH2 0x24B8 JUMP JUMPDEST DUP1 ISZERO PUSH2 0x135D JUMPI DUP1 PUSH1 0x1F LT PUSH2 0x1334 JUMPI PUSH2 0x100 DUP1 DUP4 SLOAD DIV MUL DUP4 MSTORE SWAP2 PUSH1 0x20 ADD SWAP2 PUSH2 0x135D JUMP JUMPDEST DUP3 ADD SWAP2 SWAP1 PUSH0 MSTORE PUSH1 0x20 PUSH0 KECCAK256 SWAP1 JUMPDEST DUP2 SLOAD DUP2 MSTORE SWAP1 PUSH1 0x1 ADD SWAP1 PUSH1 0x20 ADD DUP1 DUP4 GT PUSH2 0x1340 JUMPI DUP3 SWAP1 SUB PUSH1 0x1F AND DUP3 ADD SWAP2 JUMPDEST POP POP POP POP POP DUP2 MSTORE PUSH1 0x20 ADD PUSH1 0x2 DUP3 ADD SLOAD DUP2 MSTORE PUSH1 0x20 ADD PUSH1 0x3 DUP3 ADD SLOAD DUP2 MSTORE POP POP PUSH2 0x186C JUMP JUMPDEST POP POP JUMP JUMPDEST PUSH32 0xDB42F09D5A5CB193EA3EAE569C8CE2E3A5C8D8B68AADBE1A637F44D07F67BC17 PUSH1 0x40 MLOAD PUSH2 0x13D9 SWAP1 PUSH1 0x20 DUP1 DUP3 MSTORE PUSH1 0x14 SWAP1 DUP3 ADD MSTORE PUSH20 0x139BDD08115B9BDD59DA0811195C1BDCDA5D1959 PUSH1 0x62 SHL PUSH1 0x40 DUP3 ADD MSTORE PUSH1 0x60 ADD SWAP1 JUMP JUMPDEST PUSH1 0x40 MLOAD DUP1 SWAP2 SUB SWAP1 LOG1 POP JUMP JUMPDEST PUSH1 0x40 MLOAD PUSH2 0x13F0 SWAP1 PUSH2 0x1D77 JUMP JUMPDEST PUSH1 0x40 MLOAD DUP1 SWAP2 SUB SWAP1 PUSH0 CREATE DUP1 ISZERO DUP1 ISZERO PUSH2 0x1409 JUMPI RETURNDATASIZE PUSH0 PUSH0 RETURNDATACOPY RETURNDATASIZE PUSH0 REVERT JUMPDEST POP PUSH0 DUP1 SLOAD PUSH1 0x1 PUSH1 0x1 PUSH1 0xA0 SHL SUB NOT AND PUSH1 0x1 PUSH1 0x1 PUSH1 0xA0 SHL SUB SWAP3 SWAP1 SWAP3 AND SWAP2 SWAP1 SWAP2 OR SWAP1 SSTORE JUMP JUMPDEST PUSH1 0x4 PUSH1 0x20 MSTORE PUSH0 SWAP1 DUP2 MSTORE PUSH1 0x40 SWAP1 KECCAK256 DUP1 SLOAD PUSH1 0x1 DUP3 ADD SLOAD PUSH1 0x2 DUP4 ADD DUP1 SLOAD SWAP3 SWAP4 PUSH1 0x1 PUSH1 0x1 PUSH1 0xA0 SHL SUB SWAP1 SWAP3 AND SWAP3 PUSH2 0x145C SWAP1 PUSH2 0x24B8 JUMP JUMPDEST DUP1 PUSH1 0x1F ADD PUSH1 0x20 DUP1 SWAP2 DIV MUL PUSH1 0x20 ADD PUSH1 0x40 MLOAD SWAP1 DUP2 ADD PUSH1 0x40 MSTORE DUP1 SWAP3 SWAP2 SWAP1 DUP2 DUP2 MSTORE PUSH1 0x20 ADD DUP3 DUP1 SLOAD PUSH2 0x1488 SWAP1 PUSH2 0x24B8 JUMP JUMPDEST DUP1 ISZERO PUSH2 0x14D3 JUMPI DUP1 PUSH1 0x1F LT PUSH2 0x14AA JUMPI PUSH2 0x100 DUP1 DUP4 SLOAD DIV MUL DUP4 MSTORE SWAP2 PUSH1 0x20 ADD SWAP2 PUSH2 0x14D3 JUMP JUMPDEST DUP3 ADD SWAP2 SWAP1 PUSH0 MSTORE PUSH1 0x20 PUSH0 KECCAK256 SWAP1 JUMPDEST DUP2 SLOAD DUP2 MSTORE SWAP1 PUSH1 0x1 ADD SWAP1 PUSH1 0x20 ADD DUP1 DUP4 GT PUSH2 0x14B6 JUMPI DUP3 SWAP1 SUB PUSH1 0x1F AND DUP3 ADD SWAP2 JUMPDEST POP POP POP POP POP SWAP1 DUP1 PUSH1 0x3 ADD SLOAD SWAP1 DUP1 PUSH1 0x4 ADD SLOAD SWAP1 DUP1 PUSH1 0x5 ADD DUP1 SLOAD PUSH2 0x14F4 SWAP1 PUSH2 0x24B8 JUMP JUMPDEST DUP1 PUSH1 0x1F ADD PUSH1 0x20 DUP1 SWAP2 DIV MUL PUSH1 0x20 ADD PUSH1 0x40 MLOAD SWAP1 DUP2 ADD PUSH1 0x40 MSTORE DUP1 SWAP3 SWAP2 SWAP1 DUP2 DUP2 MSTORE PUSH1 0x20 ADD DUP3 DUP1 SLOAD PUSH2 0x1520 SWAP1 PUSH2 0x24B8 JUMP JUMPDEST DUP1 ISZERO PUSH2 0x156B JUMPI DUP1 PUSH1 0x1F LT PUSH2 0x1542 JUMPI PUSH2 0x100 DUP1 DUP4 SLOAD DIV MUL DUP4 MSTORE SWAP2 PUSH1 0x20 ADD SWAP2 PUSH2 0x156B JUMP JUMPDEST DUP3 ADD SWAP2 SWAP1 PUSH0 MSTORE PUSH1 0x20 PUSH0 KECCAK256 SWAP1 JUMPDEST DUP2 SLOAD DUP2 MSTORE SWAP1 PUSH1 0x1 ADD SWAP1 PUSH1 0x20 ADD DUP1 DUP4 GT PUSH2 0x154E JUMPI DUP3 SWAP1 SUB PUSH1 0x1F AND DUP3 ADD SWAP2 JUMPDEST POP POP POP POP POP SWAP1 DUP1 PUSH1 0x6 ADD SLOAD SWAP1 DUP1 PUSH1 0x7 ADD DUP1 SLOAD PUSH2 0x1586 SWAP1 PUSH2 0x24B8 JUMP JUMPDEST DUP1 PUSH1 0x1F ADD PUSH1 0x20 DUP1 SWAP2 DIV MUL PUSH1 0x20 ADD PUSH1 0x40 MLOAD SWAP1 DUP2 ADD PUSH1 0x40 MSTORE DUP1 SWAP3 SWAP2 SWAP1 DUP2 DUP2 MSTORE PUSH1 0x20 ADD DUP3 DUP1 SLOAD PUSH2 0x15B2 SWAP1 PUSH2 0x24B8 JUMP JUMPDEST DUP1 ISZERO PUSH2 0x15FD JUMPI DUP1 PUSH1 0x1F LT PUSH2 0x15D4 JUMPI PUSH2 0x100 DUP1 DUP4 SLOAD DIV MUL DUP4 MSTORE SWAP2 PUSH1 0x20 ADD SWAP2 PUSH2 0x15FD JUMP JUMPDEST DUP3 ADD SWAP2 SWAP1 PUSH0 MSTORE PUSH1 0x20 PUSH0 KECCAK256 SWAP1 JUMPDEST DUP2 SLOAD DUP2 MSTORE SWAP1 PUSH1 0x1 ADD SWAP1 PUSH1 0x20 ADD DUP1 DUP4 GT PUSH2 0x15E0 JUMPI DUP3 SWAP1 SUB PUSH1 0x1F AND DUP3 ADD SWAP2 JUMPDEST POP POP POP POP POP SWAP1 DUP1 PUSH1 0x8 ADD DUP1 SLOAD PUSH2 0x1612 SWAP1 PUSH2 0x24B8 JUMP JUMPDEST DUP1 PUSH1 0x1F ADD PUSH1 0x20 DUP1 SWAP2 DIV MUL PUSH1 0x20 ADD PUSH1 0x40 MLOAD SWAP1 DUP2 ADD PUSH1 0x40 MSTORE DUP1 SWAP3 SWAP2 SWAP1 DUP2 DUP2 MSTORE PUSH1 0x20 ADD DUP3 DUP1 SLOAD PUSH2 0x163E SWAP1 PUSH2 0x24B8 JUMP JUMPDEST DUP1 ISZERO PUSH2 0x1689 JUMPI DUP1 PUSH1 0x1F LT PUSH2 0x1660 JUMPI PUSH2 0x100 DUP1 DUP4 SLOAD DIV MUL DUP4 MSTORE SWAP2 PUSH1 0x20 ADD SWAP2 PUSH2 0x1689 JUMP JUMPDEST DUP3 ADD SWAP2 SWAP1 PUSH0 MSTORE PUSH1 0x20 PUSH0 KECCAK256 SWAP1 JUMPDEST DUP2 SLOAD DUP2 MSTORE SWAP1 PUSH1 0x1 ADD SWAP1 PUSH1 0x20 ADD DUP1 DUP4 GT PUSH2 0x166C JUMPI DUP3 SWAP1 SUB PUSH1 0x1F AND DUP3 ADD SWAP2 JUMPDEST POP POP POP PUSH1 0xB SWAP1 SWAP4 ADD SLOAD SWAP2 SWAP3 POP POP PUSH1 0xFF DUP1 DUP3 AND SWAP2 PUSH2 0x100 SWAP1 DIV AND DUP12 JUMP JUMPDEST PUSH1 0x3 DUP2 DUP2 SLOAD DUP2 LT PUSH2 0x3B4 JUMPI PUSH0 DUP1 REVERT JUMPDEST PUSH0 PUSH0 DUP4 PUSH1 0x1 PUSH1 0x1 PUSH1 0xA0 SHL SUB AND DUP4 PUSH1 0x40 MLOAD PUSH0 PUSH1 0x40 MLOAD DUP1 DUP4 SUB DUP2 DUP6 DUP8 GAS CALL SWAP3 POP POP POP RETURNDATASIZE DUP1 PUSH0 DUP2 EQ PUSH2 0x16FE JUMPI PUSH1 0x40 MLOAD SWAP2 POP PUSH1 0x1F NOT PUSH1 0x3F RETURNDATASIZE ADD AND DUP3 ADD PUSH1 0x40 MSTORE RETURNDATASIZE DUP3 MSTORE RETURNDATASIZE PUSH0 PUSH1 0x20 DUP5 ADD RETURNDATACOPY PUSH2 0x1703 JUMP JUMPDEST PUSH1 0x60 SWAP2 POP JUMPDEST POP SWAP2 POP SWAP2 POP DUP2 PUSH2 0x1761 JUMPI PUSH1 0x40 MLOAD PUSH3 0x461BCD PUSH1 0xE5 SHL DUP2 MSTORE PUSH1 0x20 PUSH1 0x4 DUP3 ADD MSTORE PUSH1 0x23 PUSH1 0x24 DUP3 ADD MSTORE PUSH32 0x4661696C656420746F2073656E64206465706F73697420746F2070726F706F6E PUSH1 0x44 DUP3 ADD MSTORE PUSH3 0x195B9D PUSH1 0xEA SHL PUSH1 0x64 DUP3 ADD MSTORE PUSH1 0x84 ADD PUSH2 0x4C1 JUMP JUMPDEST POP POP POP POP JUMP JUMPDEST PUSH1 0x5 PUSH1 0x20 MSTORE PUSH0 SWAP1 DUP2 MSTORE PUSH1 0x40 SWAP1 KECCAK256 DUP1 SLOAD PUSH1 0x1 DUP3 ADD DUP1 SLOAD PUSH1 0x1 PUSH1 0x1 PUSH1 0xA0 SHL SUB SWAP1 SWAP3 AND SWAP3 SWAP2 PUSH2 0x1792 SWAP1 PUSH2 0x24B8 JUMP JUMPDEST DUP1 PUSH1 0x1F ADD PUSH1 0x20 DUP1 SWAP2 DIV MUL PUSH1 0x20 ADD PUSH1 0x40 MLOAD SWAP1 DUP2 ADD PUSH1 0x40 MSTORE DUP1 SWAP3 SWAP2 SWAP1 DUP2 DUP2 MSTORE PUSH1 0x20 ADD DUP3 DUP1 SLOAD PUSH2 0x17BE SWAP1 PUSH2 0x24B8 JUMP JUMPDEST DUP1 ISZERO PUSH2 0x1809 JUMPI DUP1 PUSH1 0x1F LT PUSH2 0x17E0 JUMPI PUSH2 0x100 DUP1 DUP4 SLOAD DIV MUL DUP4 MSTORE SWAP2 PUSH1 0x20 ADD SWAP2 PUSH2 0x1809 JUMP JUMPDEST DUP3 ADD SWAP2 SWAP1 PUSH0 MSTORE PUSH1 0x20 PUSH0 KECCAK256 SWAP1 JUMPDEST DUP2 SLOAD DUP2 MSTORE SWAP1 PUSH1 0x1 ADD SWAP1 PUSH1 0x20 ADD DUP1 DUP4 GT PUSH2 0x17EC JUMPI DUP3 SWAP1 SUB PUSH1 0x1F AND DUP3 ADD SWAP2 JUMPDEST POP POP POP POP POP SWAP1 DUP1 PUSH1 0x2 ADD SLOAD SWAP1 DUP1 PUSH1 0x3 ADD SLOAD SWAP1 POP DUP5 JUMP JUMPDEST PUSH0 DUP2 PUSH1 0x4 SUB PUSH2 0x1830 JUMPI POP PUSH1 0x3 SWAP2 SWAP1 POP JUMP JUMPDEST DUP2 PUSH1 0x5 SUB PUSH2 0x1840 JUMPI POP PUSH1 0x4 SWAP2 SWAP1 POP JUMP JUMPDEST DUP2 PUSH1 0x3 SUB PUSH2 0x1850 JUMPI POP PUSH1 0x2 SWAP2 SWAP1 POP JUMP JUMPDEST DUP2 PUSH1 0x2 SUB PUSH2 0x1860 JUMPI POP PUSH1 0x1 SWAP2 SWAP1 POP JUMP JUMPDEST POP PUSH0 SWAP2 SWAP1 POP JUMP JUMPDEST SWAP2 SWAP1 POP JUMP JUMPDEST PUSH0 PUSH0 PUSH2 0x187B DUP4 PUSH1 0x40 ADD MLOAD PUSH2 0xB37 JUMP JUMPDEST SWAP2 POP SWAP2 POP PUSH0 PUSH0 PUSH0 SWAP1 SLOAD SWAP1 PUSH2 0x100 EXP SWAP1 DIV PUSH1 0x1 PUSH1 0x1 PUSH1 0xA0 SHL SUB AND PUSH1 0x1 PUSH1 0x1 PUSH1 0xA0 SHL SUB AND PUSH4 0xC618A1E4 PUSH1 0x40 MLOAD DUP2 PUSH4 0xFFFFFFFF AND PUSH1 0xE0 SHL DUP2 MSTORE PUSH1 0x4 ADD PUSH1 0x20 PUSH1 0x40 MLOAD DUP1 DUP4 SUB DUP2 DUP7 GAS STATICCALL ISZERO DUP1 ISZERO PUSH2 0x18CF JUMPI RETURNDATASIZE PUSH0 PUSH0 RETURNDATACOPY RETURNDATASIZE PUSH0 REVERT JUMPDEST POP POP POP POP PUSH1 0x40 MLOAD RETURNDATASIZE PUSH1 0x1F NOT PUSH1 0x1F DUP3 ADD AND DUP3 ADD DUP1 PUSH1 0x40 MSTORE POP DUP2 ADD SWAP1 PUSH2 0x18F3 SWAP2 SWAP1 PUSH2 0x25F9 JUMP JUMPDEST SWAP1 POP PUSH1 0x3 DUP6 PUSH2 0x160 ADD MLOAD PUSH1 0x4 DUP2 GT ISZERO PUSH2 0x190E JUMPI PUSH2 0x190E PUSH2 0x1ED8 JUMP JUMPDEST SUB PUSH2 0x1B2E JUMPI PUSH1 0x40 DUP1 MLOAD DUP2 DUP2 MSTORE PUSH1 0xD DUP2 DUP4 ADD MSTORE PUSH13 0x1A5B9D1BC8185C1C1C9BDD9959 PUSH1 0x9A SHL PUSH1 0x60 DUP3 ADD MSTORE PUSH1 0x1 PUSH1 0x20 DUP3 ADD MSTORE SWAP1 MLOAD PUSH0 MLOAD PUSH1 0x20 PUSH2 0x3A8F PUSH0 CODECOPY PUSH0 MLOAD SWAP1 PUSH0 MSTORE SWAP2 DUP2 SWAP1 SUB PUSH1 0x80 ADD SWAP1 LOG1 PUSH2 0x1974 PUSH20 0xCBD38ADA2D31C7071E041FC8F8C1DA9DF9C76DD4 DUP5 PUSH2 0x16B4 JUMP JUMPDEST PUSH2 0x19A0 DUP6 PUSH2 0x140 ADD MLOAD PUSH0 DUP2 MLOAD DUP2 LT PUSH2 0x198E JUMPI PUSH2 0x198E PUSH2 0x2646 JUMP JUMPDEST PUSH1 0x20 MUL PUSH1 0x20 ADD ADD MLOAD PUSH0 ADD MLOAD PUSH1 0x1 PUSH2 0x16B4 JUMP JUMPDEST PUSH2 0x19BB DUP6 PUSH2 0x140 ADD MLOAD PUSH1 0x1 DUP2 MLOAD DUP2 LT PUSH2 0x198E JUMPI PUSH2 0x198E PUSH2 0x2646 JUMP JUMPDEST PUSH2 0x19D6 DUP6 PUSH2 0x140 ADD MLOAD PUSH1 0x2 DUP2 MLOAD DUP2 LT PUSH2 0x198E JUMPI PUSH2 0x198E PUSH2 0x2646 JUMP JUMPDEST PUSH2 0x19F0 DUP6 PUSH2 0x120 ADD MLOAD PUSH0 DUP2 MLOAD DUP2 LT PUSH2 0x198E JUMPI PUSH2 0x198E PUSH2 0x2646 JUMP JUMPDEST PUSH2 0x1A0B DUP6 PUSH2 0x120 ADD MLOAD PUSH1 0x1 DUP2 MLOAD DUP2 LT PUSH2 0x198E JUMPI PUSH2 0x198E PUSH2 0x2646 JUMP JUMPDEST PUSH2 0x1A26 DUP6 PUSH2 0x120 ADD MLOAD PUSH1 0x2 DUP2 MLOAD DUP2 LT PUSH2 0x198E JUMPI PUSH2 0x198E PUSH2 0x2646 JUMP JUMPDEST PUSH1 0x1 DUP5 PUSH1 0x40 ADD DUP2 DUP2 MLOAD PUSH2 0x1A39 SWAP2 SWAP1 PUSH2 0x2492 JUMP JUMPDEST SWAP1 MSTORE POP PUSH1 0x1 SLOAD DUP2 SWAP1 SUB PUSH2 0x1B29 JUMPI PUSH2 0x1A64 PUSH20 0xCBD38ADA2D31C7071E041FC8F8C1DA9DF9C76DD4 DUP5 PUSH2 0x16B4 JUMP JUMPDEST PUSH2 0x1AA3 DUP6 PUSH2 0x140 ADD MLOAD PUSH0 DUP2 MLOAD DUP2 LT PUSH2 0x1A7E JUMPI PUSH2 0x1A7E PUSH2 0x2646 JUMP JUMPDEST PUSH1 0x20 MUL PUSH1 0x20 ADD ADD MLOAD PUSH0 ADD MLOAD PUSH1 0x3 DUP5 PUSH2 0x7D0 PUSH2 0x1A99 SWAP2 SWAP1 PUSH2 0x2492 JUMP JUMPDEST PUSH2 0x285 SWAP2 SWAP1 PUSH2 0x2627 JUMP JUMPDEST PUSH2 0x1ABE DUP6 PUSH2 0x140 ADD MLOAD PUSH1 0x1 DUP2 MLOAD DUP2 LT PUSH2 0x1A7E JUMPI PUSH2 0x1A7E PUSH2 0x2646 JUMP JUMPDEST PUSH2 0x1AD9 DUP6 PUSH2 0x140 ADD MLOAD PUSH1 0x2 DUP2 MLOAD DUP2 LT PUSH2 0x1A7E JUMPI PUSH2 0x1A7E PUSH2 0x2646 JUMP JUMPDEST PUSH2 0x1AF3 DUP6 PUSH2 0x120 ADD MLOAD PUSH0 DUP2 MLOAD DUP2 LT PUSH2 0x1A7E JUMPI PUSH2 0x1A7E PUSH2 0x2646 JUMP JUMPDEST PUSH2 0x1B0E DUP6 PUSH2 0x120 ADD MLOAD PUSH1 0x1 DUP2 MLOAD DUP2 LT PUSH2 0x1A7E JUMPI PUSH2 0x1A7E PUSH2 0x2646 JUMP JUMPDEST PUSH2 0x1B29 DUP6 PUSH2 0x120 ADD MLOAD PUSH1 0x2 DUP2 MLOAD DUP2 LT PUSH2 0x1A7E JUMPI PUSH2 0x1A7E PUSH2 0x2646 JUMP JUMPDEST PUSH2 0x1C0C JUMP JUMPDEST PUSH1 0x4 DUP6 PUSH2 0x160 ADD MLOAD PUSH1 0x4 DUP2 GT ISZERO PUSH2 0x1B47 JUMPI PUSH2 0x1B47 PUSH2 0x1ED8 JUMP JUMPDEST SUB PUSH2 0x1C0C JUMPI DUP1 PUSH1 0x1 SLOAD SUB PUSH2 0x1BF5 JUMPI PUSH2 0x1B6F DUP6 PUSH2 0x140 ADD MLOAD PUSH0 DUP2 MLOAD DUP2 LT PUSH2 0x1A7E JUMPI PUSH2 0x1A7E PUSH2 0x2646 JUMP JUMPDEST PUSH2 0x1B8A DUP6 PUSH2 0x140 ADD MLOAD PUSH1 0x1 DUP2 MLOAD DUP2 LT PUSH2 0x1A7E JUMPI PUSH2 0x1A7E PUSH2 0x2646 JUMP JUMPDEST PUSH2 0x1BA5 DUP6 PUSH2 0x140 ADD MLOAD PUSH1 0x2 DUP2 MLOAD DUP2 LT PUSH2 0x1A7E JUMPI PUSH2 0x1A7E PUSH2 0x2646 JUMP JUMPDEST PUSH2 0x1BBF DUP6 PUSH2 0x120 ADD MLOAD PUSH0 DUP2 MLOAD DUP2 LT PUSH2 0x1A7E JUMPI PUSH2 0x1A7E PUSH2 0x2646 JUMP JUMPDEST PUSH2 0x1BDA DUP6 PUSH2 0x120 ADD MLOAD PUSH1 0x1 DUP2 MLOAD DUP2 LT PUSH2 0x1A7E JUMPI PUSH2 0x1A7E PUSH2 0x2646 JUMP JUMPDEST PUSH2 0x1BF5 DUP6 PUSH2 0x120 ADD MLOAD PUSH1 0x2 DUP2 MLOAD DUP2 LT PUSH2 0x1A7E JUMPI PUSH2 0x1A7E PUSH2 0x2646 JUMP JUMPDEST PUSH1 0x1 DUP5 PUSH1 0x40 ADD DUP2 DUP2 MLOAD PUSH2 0x1C08 SWAP2 SWAP1 PUSH2 0x24A5 JUMP JUMPDEST SWAP1 MSTORE POP JUMPDEST DUP4 MLOAD PUSH2 0x1C17 SWAP1 PUSH2 0x2F8 JUMP JUMPDEST PUSH2 0x1C35 PUSH20 0xCBD38ADA2D31C7071E041FC8F8C1DA9DF9C76DD4 SELFBALANCE PUSH2 0x16B4 JUMP JUMPDEST PUSH0 MLOAD PUSH1 0x20 PUSH2 0x3A8F PUSH0 CODECOPY PUSH0 MLOAD SWAP1 PUSH0 MSTORE DUP5 PUSH1 0x60 ADD MLOAD PUSH1 0x40 MLOAD PUSH2 0x1C7A SWAP2 SWAP1 PUSH1 0x40 DUP1 DUP3 MSTORE PUSH1 0x8 SWAP1 DUP3 ADD MSTORE PUSH8 0x72657053636F7265 PUSH1 0xC0 SHL PUSH1 0x60 DUP3 ADD MSTORE PUSH1 0x20 DUP2 ADD SWAP2 SWAP1 SWAP2 MSTORE PUSH1 0x80 ADD SWAP1 JUMP JUMPDEST PUSH1 0x40 MLOAD DUP1 SWAP2 SUB SWAP1 LOG1 PUSH1 0x40 DUP1 MLOAD DUP2 DUP2 MSTORE PUSH1 0x12 DUP2 DUP4 ADD MSTORE PUSH18 0x6D73672E73656E6465722042616C616E6365 PUSH1 0x70 SHL PUSH1 0x60 DUP3 ADD MSTORE CALLER BALANCE PUSH1 0x20 DUP3 ADD MSTORE SWAP1 MLOAD PUSH0 MLOAD PUSH1 0x20 PUSH2 0x3A8F PUSH0 CODECOPY PUSH0 MLOAD SWAP1 PUSH0 MSTORE SWAP2 DUP2 SWAP1 SUB PUSH1 0x80 ADD SWAP1 LOG1 POP POP POP POP POP JUMP JUMPDEST DUP3 DUP1 SLOAD DUP3 DUP3 SSTORE SWAP1 PUSH0 MSTORE PUSH1 0x20 PUSH0 KECCAK256 SWAP1 PUSH1 0x2 MUL DUP2 ADD SWAP3 DUP3 ISZERO PUSH2 0x1D67 JUMPI PUSH0 MSTORE PUSH1 0x20 PUSH0 KECCAK256 SWAP2 PUSH1 0x2 MUL DUP3 ADD JUMPDEST DUP3 DUP2 GT ISZERO PUSH2 0x1D67 JUMPI DUP3 SLOAD DUP3 SLOAD PUSH1 0x1 PUSH1 0x1 PUSH1 0xA0 SHL SUB SWAP1 SWAP2 AND PUSH1 0x1 PUSH1 0x1 PUSH1 0xA0 SHL SUB NOT DUP3 AND DUP2 OR DUP5 SSTORE DUP5 SLOAD PUSH1 0x1 PUSH1 0x1 PUSH1 0xA8 SHL SUB NOT SWAP1 SWAP3 AND OR PUSH1 0x1 PUSH1 0xA0 SHL SWAP2 DUP3 SWAP1 DIV PUSH1 0xFF AND ISZERO ISZERO SWAP1 SWAP2 MUL OR DUP3 SSTORE DUP3 DUP3 PUSH1 0x1 DUP1 DUP3 ADD SWAP1 PUSH2 0x1D55 SWAP1 DUP5 ADD DUP3 PUSH2 0x265A JUMP JUMPDEST POP POP POP SWAP2 PUSH1 0x2 ADD SWAP2 SWAP1 PUSH1 0x2 ADD SWAP1 PUSH2 0x1CF8 JUMP JUMPDEST POP PUSH2 0x1D73 SWAP3 SWAP2 POP PUSH2 0x1D84 JUMP JUMPDEST POP SWAP1 JUMP JUMPDEST PUSH2 0x1368 DUP1 PUSH2 0x2727 DUP4 CODECOPY ADD SWAP1 JUMP JUMPDEST DUP1 DUP3 GT ISZERO PUSH2 0x1D73 JUMPI DUP1 SLOAD PUSH1 0x1 PUSH1 0x1 PUSH1 0xA8 SHL SUB NOT AND DUP2 SSTORE PUSH0 PUSH2 0x1DA8 PUSH1 0x1 DUP4 ADD DUP3 PUSH2 0x1DB1 JUMP JUMPDEST POP PUSH1 0x2 ADD PUSH2 0x1D84 JUMP JUMPDEST POP DUP1 SLOAD PUSH2 0x1DBD SWAP1 PUSH2 0x24B8 JUMP JUMPDEST PUSH0 DUP3 SSTORE DUP1 PUSH1 0x1F LT PUSH2 0x1DCC JUMPI POP POP JUMP JUMPDEST PUSH1 0x1F ADD PUSH1 0x20 SWAP1 DIV SWAP1 PUSH0 MSTORE PUSH1 0x20 PUSH0 KECCAK256 SWAP1 DUP2 ADD SWAP1 PUSH2 0x3A2 SWAP2 SWAP1 JUMPDEST DUP1 DUP3 GT ISZERO PUSH2 0x1D73 JUMPI PUSH0 DUP2 SSTORE PUSH1 0x1 ADD PUSH2 0x1DE4 JUMP JUMPDEST PUSH1 0x1 PUSH1 0x1 PUSH1 0xA0 SHL SUB DUP2 AND DUP2 EQ PUSH2 0x3A2 JUMPI PUSH0 PUSH0 REVERT JUMPDEST DUP1 CALLDATALOAD PUSH2 0x1867 DUP2 PUSH2 0x1DF7 JUMP JUMPDEST PUSH0 PUSH1 0x20 DUP3 DUP5 SUB SLT ISZERO PUSH2 0x1E26 JUMPI PUSH0 PUSH0 REVERT JUMPDEST DUP2 CALLDATALOAD PUSH2 0x1E31 DUP2 PUSH2 0x1DF7 JUMP JUMPDEST SWAP4 SWAP3 POP POP POP JUMP JUMPDEST PUSH0 PUSH1 0x20 DUP3 DUP5 SUB SLT ISZERO PUSH2 0x1E48 JUMPI PUSH0 PUSH0 REVERT JUMPDEST POP CALLDATALOAD SWAP2 SWAP1 POP JUMP JUMPDEST PUSH0 DUP2 MLOAD DUP1 DUP5 MSTORE DUP1 PUSH1 0x20 DUP5 ADD PUSH1 0x20 DUP7 ADD MCOPY PUSH0 PUSH1 0x20 DUP3 DUP7 ADD ADD MSTORE PUSH1 0x20 PUSH1 0x1F NOT PUSH1 0x1F DUP4 ADD AND DUP6 ADD ADD SWAP2 POP POP SWAP3 SWAP2 POP POP JUMP JUMPDEST PUSH1 0x1 PUSH1 0x1 PUSH1 0xA0 SHL SUB DUP5 AND DUP2 MSTORE DUP3 ISZERO ISZERO PUSH1 0x20 DUP3 ADD MSTORE PUSH1 0x60 PUSH1 0x40 DUP3 ADD DUP2 SWAP1 MSTORE PUSH0 SWAP1 PUSH2 0x1EA8 SWAP1 DUP4 ADD DUP5 PUSH2 0x1E4F JUMP JUMPDEST SWAP6 SWAP5 POP POP POP POP POP JUMP JUMPDEST DUP1 CALLDATALOAD PUSH1 0x5 DUP2 LT PUSH2 0x1867 JUMPI PUSH0 PUSH0 REVERT JUMPDEST PUSH0 PUSH1 0x20 DUP3 DUP5 SUB SLT ISZERO PUSH2 0x1ECF JUMPI PUSH0 PUSH0 REVERT JUMPDEST PUSH2 0x1E31 DUP3 PUSH2 0x1EB1 JUMP JUMPDEST PUSH4 0x4E487B71 PUSH1 0xE0 SHL PUSH0 MSTORE PUSH1 0x21 PUSH1 0x4 MSTORE PUSH1 0x24 PUSH0 REVERT JUMPDEST PUSH1 0x5 DUP2 LT PUSH2 0x1F08 JUMPI PUSH4 0x4E487B71 PUSH1 0xE0 SHL PUSH0 MSTORE PUSH1 0x21 PUSH1 0x4 MSTORE PUSH1 0x24 PUSH0 REVERT JUMPDEST SWAP1 MSTORE JUMP JUMPDEST DUP12 DUP2 MSTORE PUSH1 0x1 PUSH1 0x1 PUSH1 0xA0 SHL SUB DUP12 AND PUSH1 0x20 DUP3 ADD MSTORE PUSH2 0x160 PUSH1 0x40 DUP3 ADD DUP2 SWAP1 MSTORE PUSH0 SWAP1 PUSH2 0x1F36 SWAP1 DUP4 ADD DUP13 PUSH2 0x1E4F JUMP JUMPDEST DUP11 PUSH1 0x60 DUP5 ADD MSTORE DUP10 PUSH1 0x80 DUP5 ADD MSTORE DUP3 DUP2 SUB PUSH1 0xA0 DUP5 ADD MSTORE PUSH2 0x1F54 DUP2 DUP11 PUSH2 0x1E4F JUMP JUMPDEST SWAP1 POP DUP8 PUSH1 0xC0 DUP5 ADD MSTORE DUP3 DUP2 SUB PUSH1 0xE0 DUP5 ADD MSTORE PUSH2 0x1F6E DUP2 DUP9 PUSH2 0x1E4F JUMP JUMPDEST SWAP1 POP DUP3 DUP2 SUB PUSH2 0x100 DUP5 ADD MSTORE PUSH2 0x1F83 DUP2 DUP8 PUSH2 0x1E4F JUMP JUMPDEST SWAP2 POP POP PUSH2 0x1F94 PUSH2 0x120 DUP4 ADD DUP6 PUSH2 0x1EEC JUMP JUMPDEST DUP3 ISZERO ISZERO PUSH2 0x140 DUP4 ADD MSTORE SWAP13 SWAP12 POP POP POP POP POP POP POP POP POP POP POP POP JUMP JUMPDEST PUSH0 PUSH0 PUSH1 0x40 DUP4 DUP6 SUB SLT ISZERO PUSH2 0x1FBE JUMPI PUSH0 PUSH0 REVERT JUMPDEST DUP3 CALLDATALOAD PUSH2 0x1FC9 DUP2 PUSH2 0x1DF7 JUMP JUMPDEST SWAP5 PUSH1 0x20 SWAP4 SWAP1 SWAP4 ADD CALLDATALOAD SWAP4 POP POP POP JUMP JUMPDEST PUSH1 0x1 PUSH1 0x1 PUSH1 0xA0 SHL SUB DUP6 AND DUP2 MSTORE PUSH1 0x80 PUSH1 0x20 DUP3 ADD DUP2 SWAP1 MSTORE PUSH0 SWAP1 PUSH2 0x1FFA SWAP1 DUP4 ADD DUP7 PUSH2 0x1E4F JUMP JUMPDEST PUSH1 0x40 DUP4 ADD SWAP5 SWAP1 SWAP5 MSTORE POP PUSH1 0x60 ADD MSTORE SWAP3 SWAP2 POP POP JUMP JUMPDEST PUSH1 0x20 DUP2 ADD PUSH2 0x201B DUP3 DUP5 PUSH2 0x1EEC JUMP JUMPDEST SWAP3 SWAP2 POP POP JUMP JUMPDEST PUSH4 0x4E487B71 PUSH1 0xE0 SHL PUSH0 MSTORE PUSH1 0x41 PUSH1 0x4 MSTORE PUSH1 0x24 PUSH0 REVERT JUMPDEST PUSH1 0x40 MLOAD PUSH1 0x60 DUP2 ADD PUSH1 0x1 PUSH1 0x1 PUSH1 0x40 SHL SUB DUP2 GT DUP3 DUP3 LT OR ISZERO PUSH2 0x2057 JUMPI PUSH2 0x2057 PUSH2 0x2021 JUMP JUMPDEST PUSH1 0x40 MSTORE SWAP1 JUMP JUMPDEST PUSH1 0x40 MLOAD PUSH2 0x1A0 DUP2 ADD PUSH1 0x1 PUSH1 0x1 PUSH1 0x40 SHL SUB DUP2 GT DUP3 DUP3 LT OR ISZERO PUSH2 0x2057 JUMPI PUSH2 0x2057 PUSH2 0x2021 JUMP JUMPDEST PUSH1 0x40 MLOAD PUSH1 0x1F DUP3 ADD PUSH1 0x1F NOT AND DUP2 ADD PUSH1 0x1 PUSH1 0x1 PUSH1 0x40 SHL SUB DUP2 GT DUP3 DUP3 LT OR ISZERO PUSH2 0x20A8 JUMPI PUSH2 0x20A8 PUSH2 0x2021 JUMP JUMPDEST PUSH1 0x40 MSTORE SWAP2 SWAP1 POP JUMP JUMPDEST PUSH0 DUP3 PUSH1 0x1F DUP4 ADD SLT PUSH2 0x20BF JUMPI PUSH0 PUSH0 REVERT JUMPDEST DUP2 CALLDATALOAD PUSH1 0x1 PUSH1 0x1 PUSH1 0x40 SHL SUB DUP2 GT ISZERO PUSH2 0x20D8 JUMPI PUSH2 0x20D8 PUSH2 0x2021 JUMP JUMPDEST PUSH2 0x20EB PUSH1 0x1F DUP3 ADD PUSH1 0x1F NOT AND PUSH1 0x20 ADD PUSH2 0x2080 JUMP JUMPDEST DUP2 DUP2 MSTORE DUP5 PUSH1 0x20 DUP4 DUP7 ADD ADD GT ISZERO PUSH2 0x20FF JUMPI PUSH0 PUSH0 REVERT JUMPDEST DUP2 PUSH1 0x20 DUP6 ADD PUSH1 0x20 DUP4 ADD CALLDATACOPY PUSH0 SWAP2 DUP2 ADD PUSH1 0x20 ADD SWAP2 SWAP1 SWAP2 MSTORE SWAP4 SWAP3 POP POP POP JUMP JUMPDEST DUP1 CALLDATALOAD DUP1 ISZERO ISZERO DUP2 EQ PUSH2 0x1867 JUMPI PUSH0 PUSH0 REVERT JUMPDEST PUSH0 DUP3 PUSH1 0x1F DUP4 ADD SLT PUSH2 0x2139 JUMPI PUSH0 PUSH0 REVERT JUMPDEST DUP2 CALLDATALOAD PUSH1 0x1 PUSH1 0x1 PUSH1 0x40 SHL SUB DUP2 GT ISZERO PUSH2 0x2152 JUMPI PUSH2 0x2152 PUSH2 0x2021 JUMP JUMPDEST DUP1 PUSH1 0x5 SHL PUSH2 0x2162 PUSH1 0x20 DUP3 ADD PUSH2 0x2080 JUMP JUMPDEST SWAP2 DUP3 MSTORE PUSH1 0x20 DUP2 DUP6 ADD DUP2 ADD SWAP3 SWAP1 DUP2 ADD SWAP1 DUP7 DUP5 GT ISZERO PUSH2 0x217D JUMPI PUSH0 PUSH0 REVERT JUMPDEST PUSH1 0x20 DUP7 ADD SWAP3 POP JUMPDEST DUP4 DUP4 LT ISZERO PUSH2 0x221E JUMPI DUP3 CALLDATALOAD PUSH1 0x1 PUSH1 0x1 PUSH1 0x40 SHL SUB DUP2 GT ISZERO PUSH2 0x21A1 JUMPI PUSH0 PUSH0 REVERT JUMPDEST DUP7 ADD PUSH1 0x60 DUP2 DUP10 SUB PUSH1 0x1F NOT ADD SLT ISZERO PUSH2 0x21B6 JUMPI PUSH0 PUSH0 REVERT JUMPDEST PUSH2 0x21BE PUSH2 0x2035 JUMP JUMPDEST PUSH1 0x20 DUP3 ADD CALLDATALOAD PUSH2 0x21CC DUP2 PUSH2 0x1DF7 JUMP JUMPDEST DUP2 MSTORE PUSH2 0x21DA PUSH1 0x40 DUP4 ADD PUSH2 0x211B JUMP JUMPDEST PUSH1 0x20 DUP3 ADD MSTORE PUSH1 0x60 DUP3 ADD CALLDATALOAD PUSH1 0x1 PUSH1 0x1 PUSH1 0x40 SHL SUB DUP2 GT ISZERO PUSH2 0x21F7 JUMPI PUSH0 PUSH0 REVERT JUMPDEST PUSH2 0x2206 DUP11 PUSH1 0x20 DUP4 DUP7 ADD ADD PUSH2 0x20B0 JUMP JUMPDEST PUSH1 0x40 DUP4 ADD MSTORE POP DUP4 MSTORE POP PUSH1 0x20 SWAP3 DUP4 ADD SWAP3 SWAP1 SWAP2 ADD SWAP1 PUSH2 0x2184 JUMP JUMPDEST SWAP7 SWAP6 POP POP POP POP POP POP JUMP JUMPDEST PUSH0 PUSH1 0x80 DUP3 DUP5 SUB SLT ISZERO PUSH2 0x2238 JUMPI PUSH0 PUSH0 REVERT JUMPDEST PUSH1 0x40 MLOAD PUSH1 0x80 DUP2 ADD PUSH1 0x1 PUSH1 0x1 PUSH1 0x40 SHL SUB DUP2 GT DUP3 DUP3 LT OR ISZERO PUSH2 0x225A JUMPI PUSH2 0x225A PUSH2 0x2021 JUMP JUMPDEST PUSH1 0x40 MSTORE SWAP1 POP DUP1 DUP3 CALLDATALOAD PUSH2 0x226B DUP2 PUSH2 0x1DF7 JUMP JUMPDEST DUP2 MSTORE PUSH1 0x20 DUP4 ADD CALLDATALOAD PUSH1 0x1 PUSH1 0x1 PUSH1 0x40 SHL SUB DUP2 GT ISZERO PUSH2 0x2285 JUMPI PUSH0 PUSH0 REVERT JUMPDEST PUSH2 0x2291 DUP6 DUP3 DUP7 ADD PUSH2 0x20B0 JUMP JUMPDEST PUSH1 0x20 DUP4 ADD MSTORE POP PUSH1 0x40 DUP4 DUP2 ADD CALLDATALOAD SWAP1 DUP3 ADD MSTORE PUSH1 0x60 SWAP3 DUP4 ADD CALLDATALOAD SWAP3 ADD SWAP2 SWAP1 SWAP2 MSTORE SWAP2 SWAP1 POP JUMP JUMPDEST PUSH0 PUSH0 PUSH1 0x40 DUP4 DUP6 SUB SLT ISZERO PUSH2 0x22C3 JUMPI PUSH0 PUSH0 REVERT JUMPDEST DUP3 CALLDATALOAD PUSH1 0x1 PUSH1 0x1 PUSH1 0x40 SHL SUB DUP2 GT ISZERO PUSH2 0x22D8 JUMPI PUSH0 PUSH0 REVERT JUMPDEST DUP4 ADD PUSH2 0x1A0 DUP2 DUP7 SUB SLT ISZERO PUSH2 0x22EA JUMPI PUSH0 PUSH0 REVERT JUMPDEST PUSH2 0x22F2 PUSH2 0x205D JUMP JUMPDEST DUP2 CALLDATALOAD DUP2 MSTORE PUSH2 0x2302 PUSH1 0x20 DUP4 ADD PUSH2 0x1E0B JUMP JUMPDEST PUSH1 0x20 DUP3 ADD MSTORE PUSH1 0x40 DUP3 ADD CALLDATALOAD PUSH1 0x1 PUSH1 0x1 PUSH1 0x40 SHL SUB DUP2 GT ISZERO PUSH2 0x231F JUMPI PUSH0 PUSH0 REVERT JUMPDEST PUSH2 0x232B DUP8 DUP3 DUP6 ADD PUSH2 0x20B0 JUMP JUMPDEST PUSH1 0x40 DUP4 ADD MSTORE POP PUSH1 0x60 DUP3 DUP2 ADD CALLDATALOAD SWAP1 DUP3 ADD MSTORE PUSH1 0x80 DUP1 DUP4 ADD CALLDATALOAD SWAP1 DUP3 ADD MSTORE PUSH1 0xA0 DUP3 ADD CALLDATALOAD PUSH1 0x1 PUSH1 0x1 PUSH1 0x40 SHL SUB DUP2 GT ISZERO PUSH2 0x235D JUMPI PUSH0 PUSH0 REVERT JUMPDEST PUSH2 0x2369 DUP8 DUP3 DUP6 ADD PUSH2 0x20B0 JUMP JUMPDEST PUSH1 0xA0 DUP4 ADD MSTORE POP PUSH1 0xC0 DUP3 DUP2 ADD CALLDATALOAD SWAP1 DUP3 ADD MSTORE PUSH1 0xE0 DUP3 ADD CALLDATALOAD PUSH1 0x1 PUSH1 0x1 PUSH1 0x40 SHL SUB DUP2 GT ISZERO PUSH2 0x2391 JUMPI PUSH0 PUSH0 REVERT JUMPDEST PUSH2 0x239D DUP8 DUP3 DUP6 ADD PUSH2 0x20B0 JUMP JUMPDEST PUSH1 0xE0 DUP4 ADD MSTORE POP PUSH2 0x100 DUP3 ADD CALLDATALOAD PUSH1 0x1 PUSH1 0x1 PUSH1 0x40 SHL SUB DUP2 GT ISZERO PUSH2 0x23BC JUMPI PUSH0 PUSH0 REVERT JUMPDEST PUSH2 0x23C8 DUP8 DUP3 DUP6 ADD PUSH2 0x20B0 JUMP JUMPDEST PUSH2 0x100 DUP4 ADD MSTORE POP PUSH2 0x120 DUP3 ADD CALLDATALOAD PUSH1 0x1 PUSH1 0x1 PUSH1 0x40 SHL SUB DUP2 GT ISZERO PUSH2 0x23E8 JUMPI PUSH0 PUSH0 REVERT JUMPDEST PUSH2 0x23F4 DUP8 DUP3 DUP6 ADD PUSH2 0x212A JUMP JUMPDEST PUSH2 0x120 DUP4 ADD MSTORE POP PUSH2 0x140 DUP3 ADD CALLDATALOAD PUSH1 0x1 PUSH1 0x1 PUSH1 0x40 SHL SUB DUP2 GT ISZERO PUSH2 0x2414 JUMPI PUSH0 PUSH0 REVERT JUMPDEST PUSH2 0x2420 DUP8 DUP3 DUP6 ADD PUSH2 0x212A JUMP JUMPDEST PUSH2 0x140 DUP4 ADD MSTORE POP PUSH2 0x2434 PUSH2 0x160 DUP4 ADD PUSH2 0x1EB1 JUMP JUMPDEST PUSH2 0x160 DUP3 ADD MSTORE PUSH2 0x2447 PUSH2 0x180 DUP4 ADD PUSH2 0x211B JUMP JUMPDEST PUSH2 0x180 DUP3 ADD MSTORE SWAP3 POP POP PUSH1 0x20 DUP4 ADD CALLDATALOAD PUSH1 0x1 PUSH1 0x1 PUSH1 0x40 SHL SUB DUP2 GT ISZERO PUSH2 0x2468 JUMPI PUSH0 PUSH0 REVERT JUMPDEST PUSH2 0x2474 DUP6 DUP3 DUP7 ADD PUSH2 0x2228 JUMP JUMPDEST SWAP2 POP POP SWAP3 POP SWAP3 SWAP1 POP JUMP JUMPDEST PUSH4 0x4E487B71 PUSH1 0xE0 SHL PUSH0 MSTORE PUSH1 0x11 PUSH1 0x4 MSTORE PUSH1 0x24 PUSH0 REVERT JUMPDEST DUP1 DUP3 ADD DUP1 DUP3 GT ISZERO PUSH2 0x201B JUMPI PUSH2 0x201B PUSH2 0x247E JUMP JUMPDEST DUP2 DUP2 SUB DUP2 DUP2 GT ISZERO PUSH2 0x201B JUMPI PUSH2 0x201B PUSH2 0x247E JUMP JUMPDEST PUSH1 0x1 DUP2 DUP2 SHR SWAP1 DUP3 AND DUP1 PUSH2 0x24CC JUMPI PUSH1 0x7F DUP3 AND SWAP2 POP JUMPDEST PUSH1 0x20 DUP3 LT DUP2 SUB PUSH2 0x24EA JUMPI PUSH4 0x4E487B71 PUSH1 0xE0 SHL PUSH0 MSTORE PUSH1 0x22 PUSH1 0x4 MSTORE PUSH1 0x24 PUSH0 REVERT JUMPDEST POP SWAP2 SWAP1 POP JUMP JUMPDEST PUSH1 0x1F DUP3 GT ISZERO PUSH2 0x2537 JUMPI DUP1 PUSH0 MSTORE PUSH1 0x20 PUSH0 KECCAK256 PUSH1 0x1F DUP5 ADD PUSH1 0x5 SHR DUP2 ADD PUSH1 0x20 DUP6 LT ISZERO PUSH2 0x2515 JUMPI POP DUP1 JUMPDEST PUSH1 0x1F DUP5 ADD PUSH1 0x5 SHR DUP3 ADD SWAP2 POP JUMPDEST DUP2 DUP2 LT ISZERO PUSH2 0x2534 JUMPI PUSH0 DUP2 SSTORE PUSH1 0x1 ADD PUSH2 0x2521 JUMP JUMPDEST POP POP JUMPDEST POP POP POP JUMP JUMPDEST DUP2 MLOAD PUSH1 0x1 PUSH1 0x1 PUSH1 0x40 SHL SUB DUP2 GT ISZERO PUSH2 0x2555 JUMPI PUSH2 0x2555 PUSH2 0x2021 JUMP JUMPDEST PUSH2 0x2569 DUP2 PUSH2 0x2563 DUP5 SLOAD PUSH2 0x24B8 JUMP JUMPDEST DUP5 PUSH2 0x24F0 JUMP JUMPDEST PUSH1 0x20 PUSH1 0x1F DUP3 GT PUSH1 0x1 DUP2 EQ PUSH2 0x259E JUMPI PUSH0 DUP4 ISZERO PUSH2 0x2584 JUMPI POP DUP5 DUP3 ADD MLOAD JUMPDEST PUSH1 0x1 DUP5 SWAP1 SHL PUSH0 NOT PUSH1 0x3 DUP7 SWAP1 SHL SHR NOT DUP3 AND OR JUMPDEST DUP6 SSTORE POP PUSH2 0x2534 JUMP JUMPDEST PUSH0 DUP5 DUP2 MSTORE PUSH1 0x20 DUP2 KECCAK256 PUSH1 0x1F NOT DUP6 AND SWAP2 JUMPDEST DUP3 DUP2 LT ISZERO PUSH2 0x25CD JUMPI DUP8 DUP6 ADD MLOAD DUP3 SSTORE PUSH1 0x20 SWAP5 DUP6 ADD SWAP5 PUSH1 0x1 SWAP1 SWAP3 ADD SWAP2 ADD PUSH2 0x25AD JUMP JUMPDEST POP DUP5 DUP3 LT ISZERO PUSH2 0x25EA JUMPI DUP7 DUP5 ADD MLOAD PUSH0 NOT PUSH1 0x3 DUP8 SWAP1 SHL PUSH1 0xF8 AND SHR NOT AND DUP2 SSTORE JUMPDEST POP POP POP POP PUSH1 0x1 SWAP1 DUP2 SHL ADD SWAP1 SSTORE POP JUMP JUMPDEST PUSH0 PUSH1 0x20 DUP3 DUP5 SUB SLT ISZERO PUSH2 0x2609 JUMPI PUSH0 PUSH0 REVERT JUMPDEST POP MLOAD SWAP2 SWAP1 POP JUMP JUMPDEST DUP1 DUP3 MUL DUP2 ISZERO DUP3 DUP3 DIV DUP5 EQ OR PUSH2 0x201B JUMPI PUSH2 0x201B PUSH2 0x247E JUMP JUMPDEST PUSH0 DUP3 PUSH2 0x2641 JUMPI PUSH4 0x4E487B71 PUSH1 0xE0 SHL PUSH0 MSTORE PUSH1 0x12 PUSH1 0x4 MSTORE PUSH1 0x24 PUSH0 REVERT JUMPDEST POP DIV SWAP1 JUMP JUMPDEST PUSH4 0x4E487B71 PUSH1 0xE0 SHL PUSH0 MSTORE PUSH1 0x32 PUSH1 0x4 MSTORE PUSH1 0x24 PUSH0 REVERT JUMPDEST DUP2 DUP2 SUB PUSH2 0x2665 JUMPI POP POP JUMP JUMPDEST PUSH2 0x266F DUP3 SLOAD PUSH2 0x24B8 JUMP JUMPDEST PUSH1 0x1 PUSH1 0x1 PUSH1 0x40 SHL SUB DUP2 GT ISZERO PUSH2 0x2686 JUMPI PUSH2 0x2686 PUSH2 0x2021 JUMP JUMPDEST PUSH2 0x2694 DUP2 PUSH2 0x2563 DUP5 SLOAD PUSH2 0x24B8 JUMP JUMPDEST PUSH0 PUSH1 0x1F DUP3 GT PUSH1 0x1 DUP2 EQ PUSH2 0x26C3 JUMPI PUSH0 DUP4 ISZERO PUSH2 0x2584 JUMPI POP DUP2 DUP6 ADD SLOAD PUSH1 0x1 DUP5 SWAP1 SHL PUSH0 NOT PUSH1 0x3 DUP7 SWAP1 SHL SHR NOT DUP3 AND OR PUSH2 0x2596 JUMP JUMPDEST PUSH0 DUP6 DUP2 MSTORE PUSH1 0x20 DUP1 DUP3 KECCAK256 DUP7 DUP4 MSTORE SWAP1 DUP3 KECCAK256 PUSH1 0x1F NOT DUP7 AND SWAP3 JUMPDEST DUP4 DUP2 LT ISZERO PUSH2 0x26F9 JUMPI DUP3 DUP7 ADD SLOAD DUP3 SSTORE PUSH1 0x1 SWAP6 DUP7 ADD SWAP6 SWAP1 SWAP2 ADD SWAP1 PUSH1 0x20 ADD PUSH2 0x26D9 JUMP JUMPDEST POP DUP6 DUP4 LT ISZERO PUSH2 0x2716 JUMPI DUP2 DUP6 ADD SLOAD PUSH0 NOT PUSH1 0x3 DUP9 SWAP1 SHL PUSH1 0xF8 AND SHR NOT AND DUP2 SSTORE JUMPDEST POP POP POP POP POP PUSH1 0x1 SWAP1 DUP2 SHL ADD SWAP1 SSTORE POP JUMP INVALID PUSH1 0x80 PUSH1 0x40 MSTORE PUSH1 0x1 PUSH1 0x4 SSTORE CALLVALUE DUP1 ISZERO PUSH2 0x14 JUMPI PUSH0 PUSH0 REVERT JUMPDEST POP CALLER DUP1 PUSH0 DUP2 PUSH2 0x6A JUMPI PUSH1 0x40 MLOAD PUSH3 0x461BCD PUSH1 0xE5 SHL DUP2 MSTORE PUSH1 0x20 PUSH1 0x4 DUP3 ADD MSTORE PUSH1 0x18 PUSH1 0x24 DUP3 ADD MSTORE PUSH32 0x43616E6E6F7420736574206F776E657220746F207A65726F0000000000000000 PUSH1 0x44 DUP3 ADD MSTORE PUSH1 0x64 ADD JUMPDEST PUSH1 0x40 MLOAD DUP1 SWAP2 SUB SWAP1 REVERT JUMPDEST PUSH1 0x6 DUP1 SLOAD PUSH1 0x1 PUSH1 0x1 PUSH1 0xA0 SHL SUB NOT AND PUSH1 0x1 PUSH1 0x1 PUSH1 0xA0 SHL SUB DUP5 DUP2 AND SWAP2 SWAP1 SWAP2 OR SWAP1 SWAP2 SSTORE DUP2 AND ISZERO PUSH2 0x9A JUMPI PUSH2 0x9A DUP2 PUSH2 0x131 JUMP JUMPDEST POP POP POP PUSH2 0xC0 PUSH20 0x779877A7B0D9E8603169DDBD7836E478B4624789 PUSH2 0x1DA PUSH1 0x20 SHL PUSH1 0x20 SHR JUMP JUMPDEST PUSH1 0x3 DUP1 SLOAD PUSH1 0x1 PUSH1 0x1 PUSH1 0xA0 SHL SUB NOT AND PUSH20 0x6090149792DAAEE9D1D568C9F9A6F6B46AA29EFD OR SWAP1 SSTORE PUSH32 0x6361393833363663633733313439353762386330313263373266303561656562 PUSH1 0x9 SSTORE PUSH1 0xA PUSH2 0x11F PUSH8 0xDE0B6B3A7640000 PUSH1 0x1 PUSH2 0x1FC JUMP JUMPDEST PUSH2 0x129 SWAP2 SWAP1 PUSH2 0x225 JUMP JUMPDEST PUSH1 0xA SSTORE PUSH2 0x244 JUMP JUMPDEST CALLER PUSH1 0x1 PUSH1 0x1 PUSH1 0xA0 SHL SUB DUP3 AND SUB PUSH2 0x189 JUMPI PUSH1 0x40 MLOAD PUSH3 0x461BCD PUSH1 0xE5 SHL DUP2 MSTORE PUSH1 0x20 PUSH1 0x4 DUP3 ADD MSTORE PUSH1 0x17 PUSH1 0x24 DUP3 ADD MSTORE PUSH32 0x43616E6E6F74207472616E7366657220746F2073656C66000000000000000000 PUSH1 0x44 DUP3 ADD MSTORE PUSH1 0x64 ADD PUSH2 0x61 JUMP JUMPDEST PUSH1 0x7 DUP1 SLOAD PUSH1 0x1 PUSH1 0x1 PUSH1 0xA0 SHL SUB NOT AND PUSH1 0x1 PUSH1 0x1 PUSH1 0xA0 SHL SUB DUP4 DUP2 AND SWAP2 DUP3 OR SWAP1 SWAP3 SSTORE PUSH1 0x6 SLOAD PUSH1 0x40 MLOAD SWAP2 SWAP3 AND SWAP1 PUSH32 0xED8889F560326EB138920D842192F0EB3DD22B4F139C87A2C57538E05BAE1278 SWAP1 PUSH0 SWAP1 LOG3 POP JUMP JUMPDEST PUSH1 0x2 DUP1 SLOAD PUSH1 0x1 PUSH1 0x1 PUSH1 0xA0 SHL SUB NOT AND PUSH1 0x1 PUSH1 0x1 PUSH1 0xA0 SHL SUB SWAP3 SWAP1 SWAP3 AND SWAP2 SWAP1 SWAP2 OR SWAP1 SSTORE JUMP JUMPDEST DUP1 DUP3 MUL DUP2 ISZERO DUP3 DUP3 DIV DUP5 EQ OR PUSH2 0x21F JUMPI PUSH4 0x4E487B71 PUSH1 0xE0 SHL PUSH0 MSTORE PUSH1 0x11 PUSH1 0x4 MSTORE PUSH1 0x24 PUSH0 REVERT JUMPDEST SWAP3 SWAP2 POP POP JUMP JUMPDEST PUSH0 DUP3 PUSH2 0x23F JUMPI PUSH4 0x4E487B71 PUSH1 0xE0 SHL PUSH0 MSTORE PUSH1 0x12 PUSH1 0x4 MSTORE PUSH1 0x24 PUSH0 REVERT JUMPDEST POP DIV SWAP1 JUMP JUMPDEST PUSH2 0x1117 DUP1 PUSH2 0x251 PUSH0 CODECOPY PUSH0 RETURN INVALID PUSH1 0x80 PUSH1 0x40 MSTORE CALLVALUE DUP1 ISZERO PUSH2 0xF JUMPI PUSH0 PUSH0 REVERT JUMPDEST POP PUSH1 0x4 CALLDATASIZE LT PUSH2 0x7A JUMPI PUSH0 CALLDATALOAD PUSH1 0xE0 SHR DUP1 PUSH4 0x8DA5CB5B GT PUSH2 0x58 JUMPI DUP1 PUSH4 0x8DA5CB5B EQ PUSH2 0xC1 JUMPI DUP1 PUSH4 0x8DC654A2 EQ PUSH2 0xDC JUMPI DUP1 PUSH4 0xC618A1E4 EQ PUSH2 0xE4 JUMPI DUP1 PUSH4 0xF2FDE38B EQ PUSH2 0xED JUMPI PUSH0 PUSH0 REVERT JUMPDEST DUP1 PUSH4 0x2ADB9E3C EQ PUSH2 0x7E JUMPI DUP1 PUSH4 0x4357855E EQ PUSH2 0xA4 JUMPI DUP1 PUSH4 0x79BA5097 EQ PUSH2 0xB9 JUMPI JUMPDEST PUSH0 PUSH0 REVERT JUMPDEST PUSH2 0x91 PUSH2 0x8C CALLDATASIZE PUSH1 0x4 PUSH2 0xDDC JUMP JUMPDEST PUSH2 0x100 JUMP JUMPDEST PUSH1 0x40 MLOAD SWAP1 DUP2 MSTORE PUSH1 0x20 ADD JUMPDEST PUSH1 0x40 MLOAD DUP1 SWAP2 SUB SWAP1 RETURN JUMPDEST PUSH2 0xB7 PUSH2 0xB2 CALLDATASIZE PUSH1 0x4 PUSH2 0xDF3 JUMP JUMPDEST PUSH2 0x240 JUMP JUMPDEST STOP JUMPDEST PUSH2 0xB7 PUSH2 0x340 JUMP JUMPDEST PUSH1 0x6 SLOAD PUSH1 0x40 MLOAD PUSH1 0x1 PUSH1 0x1 PUSH1 0xA0 SHL SUB SWAP1 SWAP2 AND DUP2 MSTORE PUSH1 0x20 ADD PUSH2 0x9B JUMP JUMPDEST PUSH2 0xB7 PUSH2 0x3ED JUMP JUMPDEST PUSH2 0x91 PUSH1 0x8 SLOAD DUP2 JUMP JUMPDEST PUSH2 0xB7 PUSH2 0xFB CALLDATASIZE PUSH1 0x4 PUSH2 0xE13 JUMP JUMPDEST PUSH2 0x52B JUMP JUMPDEST PUSH0 PUSH0 PUSH2 0x116 PUSH1 0x9 SLOAD ADDRESS PUSH4 0x4357855E PUSH1 0xE0 SHL PUSH2 0x53C JUMP JUMPDEST SWAP1 POP PUSH2 0x158 PUSH1 0x40 MLOAD DUP1 PUSH1 0x40 ADD PUSH1 0x40 MSTORE DUP1 PUSH1 0x3 DUP2 MSTORE PUSH1 0x20 ADD PUSH3 0x19D95D PUSH1 0xEA SHL DUP2 MSTORE POP PUSH1 0x40 MLOAD DUP1 PUSH1 0x60 ADD PUSH1 0x40 MSTORE DUP1 PUSH1 0x2D DUP2 MSTORE PUSH1 0x20 ADD PUSH2 0x10B5 PUSH1 0x2D SWAP2 CODECOPY DUP4 SWAP2 SWAP1 PUSH2 0x561 JUMP JUMPDEST PUSH2 0x1A4 PUSH1 0x40 MLOAD DUP1 PUSH1 0x40 ADD PUSH1 0x40 MSTORE DUP1 PUSH1 0x4 DUP2 MSTORE PUSH1 0x20 ADD PUSH4 0xE0C2E8D PUSH1 0xE3 SHL DUP2 MSTORE POP PUSH1 0x40 MLOAD DUP1 PUSH1 0x40 ADD PUSH1 0x40 MSTORE DUP1 PUSH1 0x3 DUP2 MSTORE PUSH1 0x20 ADD PUSH3 0x6E756D PUSH1 0xE8 SHL DUP2 MSTORE POP DUP4 PUSH2 0x561 SWAP1 SWAP3 SWAP2 SWAP1 PUSH4 0xFFFFFFFF AND JUMP JUMPDEST PUSH1 0x40 DUP1 MLOAD DUP1 DUP3 ADD SWAP1 SWAP2 MSTORE PUSH1 0x5 DUP2 MSTORE PUSH5 0x74696D6573 PUSH1 0xD8 SHL PUSH1 0x20 DUP3 ADD MSTORE PUSH1 0x1 SWAP1 PUSH2 0x1CF SWAP1 DUP4 SWAP1 DUP4 PUSH2 0x584 JUMP JUMPDEST PUSH1 0x40 DUP1 MLOAD DUP2 DUP2 MSTORE PUSH1 0x14 DUP2 DUP4 ADD MSTORE PUSH20 0x13585919481D1A194819D95D081C995C5D595CDD PUSH1 0x62 SHL PUSH1 0x60 DUP3 ADD MSTORE PUSH1 0x20 DUP2 ADD DUP7 SWAP1 MSTORE SWAP1 MLOAD PUSH32 0x4953E1E253D3404572E66D2BE3E7889846DB195DFC203305A4810D16100DFD11 SWAP2 DUP2 SWAP1 SUB PUSH1 0x80 ADD SWAP1 LOG1 PUSH2 0x238 DUP3 PUSH1 0xA SLOAD PUSH2 0x5A2 JUMP JUMPDEST SWAP5 SWAP4 POP POP POP POP JUMP JUMPDEST PUSH0 DUP3 DUP2 MSTORE PUSH1 0x5 PUSH1 0x20 MSTORE PUSH1 0x40 SWAP1 KECCAK256 SLOAD DUP3 SWAP1 PUSH1 0x1 PUSH1 0x1 PUSH1 0xA0 SHL SUB AND CALLER EQ PUSH2 0x2BD JUMPI PUSH1 0x40 MLOAD PUSH3 0x461BCD PUSH1 0xE5 SHL DUP2 MSTORE PUSH1 0x20 PUSH1 0x4 DUP3 ADD MSTORE PUSH1 0x28 PUSH1 0x24 DUP3 ADD MSTORE PUSH32 0x536F75726365206D75737420626520746865206F7261636C65206F6620746865 PUSH1 0x44 DUP3 ADD MSTORE PUSH8 0x81C995C5D595CDD PUSH1 0xC2 SHL PUSH1 0x64 DUP3 ADD MSTORE PUSH1 0x84 ADD JUMPDEST PUSH1 0x40 MLOAD DUP1 SWAP2 SUB SWAP1 REVERT JUMPDEST PUSH0 DUP2 DUP2 MSTORE PUSH1 0x5 PUSH1 0x20 MSTORE PUSH1 0x40 DUP1 DUP3 KECCAK256 DUP1 SLOAD PUSH1 0x1 PUSH1 0x1 PUSH1 0xA0 SHL SUB NOT AND SWAP1 SSTORE MLOAD DUP3 SWAP2 PUSH32 0x7CC135E0CEBB02C3480AE5D74D377283180A2601F8F644EDF7987B009316C63A SWAP2 LOG2 DUP3 PUSH32 0x673B38182859A514D734BDFCB49D3A05C4A641DEC9311D9894C9717BCB79AF76 DUP4 PUSH1 0x40 MLOAD PUSH2 0x331 SWAP2 DUP2 MSTORE PUSH1 0x20 ADD SWAP1 JUMP JUMPDEST PUSH1 0x40 MLOAD DUP1 SWAP2 SUB SWAP1 LOG2 POP PUSH1 0x8 SSTORE POP JUMP JUMPDEST PUSH1 0x7 SLOAD PUSH1 0x1 PUSH1 0x1 PUSH1 0xA0 SHL SUB AND CALLER EQ PUSH2 0x393 JUMPI PUSH1 0x40 MLOAD PUSH3 0x461BCD PUSH1 0xE5 SHL DUP2 MSTORE PUSH1 0x20 PUSH1 0x4 DUP3 ADD MSTORE PUSH1 0x16 PUSH1 0x24 DUP3 ADD MSTORE PUSH22 0x26BAB9BA10313290383937B837B9B2B21037BBB732B9 PUSH1 0x51 SHL PUSH1 0x44 DUP3 ADD MSTORE PUSH1 0x64 ADD PUSH2 0x2B4 JUMP JUMPDEST PUSH1 0x6 DUP1 SLOAD PUSH1 0x1 PUSH1 0x1 PUSH1 0xA0 SHL SUB NOT DUP1 DUP3 AND CALLER SWAP1 DUP2 OR SWAP1 SWAP4 SSTORE PUSH1 0x7 DUP1 SLOAD SWAP1 SWAP2 AND SWAP1 SSTORE PUSH1 0x40 MLOAD PUSH1 0x1 PUSH1 0x1 PUSH1 0xA0 SHL SUB SWAP1 SWAP2 AND SWAP2 SWAP1 DUP3 SWAP1 PUSH32 0x8BE0079C531659141344CD1FD0A4F28419497F9722A3DAAFE3B4186F6B6457E0 SWAP1 PUSH0 SWAP1 LOG3 POP JUMP JUMPDEST PUSH2 0x3F5 PUSH2 0x5C4 JUMP JUMPDEST PUSH0 PUSH2 0x408 PUSH1 0x2 SLOAD PUSH1 0x1 PUSH1 0x1 PUSH1 0xA0 SHL SUB AND SWAP1 JUMP JUMPDEST PUSH1 0x40 MLOAD PUSH4 0x70A08231 PUSH1 0xE0 SHL DUP2 MSTORE ADDRESS PUSH1 0x4 DUP3 ADD MSTORE SWAP1 SWAP2 POP PUSH1 0x1 PUSH1 0x1 PUSH1 0xA0 SHL SUB DUP3 AND SWAP1 PUSH4 0xA9059CBB SWAP1 CALLER SWAP1 DUP4 SWAP1 PUSH4 0x70A08231 SWAP1 PUSH1 0x24 ADD PUSH1 0x20 PUSH1 0x40 MLOAD DUP1 DUP4 SUB DUP2 DUP7 GAS STATICCALL ISZERO DUP1 ISZERO PUSH2 0x457 JUMPI RETURNDATASIZE PUSH0 PUSH0 RETURNDATACOPY RETURNDATASIZE PUSH0 REVERT JUMPDEST POP POP POP POP PUSH1 0x40 MLOAD RETURNDATASIZE PUSH1 0x1F NOT PUSH1 0x1F DUP3 ADD AND DUP3 ADD DUP1 PUSH1 0x40 MSTORE POP DUP2 ADD SWAP1 PUSH2 0x47B SWAP2 SWAP1 PUSH2 0xE40 JUMP JUMPDEST PUSH1 0x40 MLOAD PUSH1 0x1 PUSH1 0x1 PUSH1 0xE0 SHL SUB NOT PUSH1 0xE0 DUP6 SWAP1 SHL AND DUP2 MSTORE PUSH1 0x1 PUSH1 0x1 PUSH1 0xA0 SHL SUB SWAP1 SWAP3 AND PUSH1 0x4 DUP4 ADD MSTORE PUSH1 0x24 DUP3 ADD MSTORE PUSH1 0x44 ADD PUSH1 0x20 PUSH1 0x40 MLOAD DUP1 DUP4 SUB DUP2 PUSH0 DUP8 GAS CALL ISZERO DUP1 ISZERO PUSH2 0x4C3 JUMPI RETURNDATASIZE PUSH0 PUSH0 RETURNDATACOPY RETURNDATASIZE PUSH0 REVERT JUMPDEST POP POP POP POP PUSH1 0x40 MLOAD RETURNDATASIZE PUSH1 0x1F NOT PUSH1 0x1F DUP3 ADD AND DUP3 ADD DUP1 PUSH1 0x40 MSTORE POP DUP2 ADD SWAP1 PUSH2 0x4E7 SWAP2 SWAP1 PUSH2 0xE57 JUMP JUMPDEST PUSH2 0x528 JUMPI PUSH1 0x40 MLOAD PUSH3 0x461BCD PUSH1 0xE5 SHL DUP2 MSTORE PUSH1 0x20 PUSH1 0x4 DUP3 ADD MSTORE PUSH1 0x12 PUSH1 0x24 DUP3 ADD MSTORE PUSH18 0x2AB730B13632903A37903A3930B739B332B9 PUSH1 0x71 SHL PUSH1 0x44 DUP3 ADD MSTORE PUSH1 0x64 ADD PUSH2 0x2B4 JUMP JUMPDEST POP JUMP JUMPDEST PUSH2 0x533 PUSH2 0x5C4 JUMP JUMPDEST PUSH2 0x528 DUP2 PUSH2 0x619 JUMP JUMPDEST PUSH2 0x544 PUSH2 0xDA2 JUMP JUMPDEST PUSH2 0x54C PUSH2 0xDA2 JUMP JUMPDEST PUSH2 0x558 DUP2 DUP7 DUP7 DUP7 PUSH2 0x6C2 JUMP JUMPDEST SWAP6 SWAP5 POP POP POP POP POP JUMP JUMPDEST PUSH1 0x80 DUP4 ADD MLOAD PUSH2 0x570 SWAP1 DUP4 PUSH2 0x6FF JUMP JUMPDEST PUSH1 0x80 DUP4 ADD MLOAD PUSH2 0x57F SWAP1 DUP3 PUSH2 0x6FF JUMP JUMPDEST POP POP POP JUMP JUMPDEST PUSH1 0x80 DUP4 ADD MLOAD PUSH2 0x593 SWAP1 DUP4 PUSH2 0x6FF JUMP JUMPDEST PUSH1 0x80 DUP4 ADD MLOAD PUSH2 0x57F SWAP1 DUP3 PUSH2 0x716 JUMP JUMPDEST PUSH1 0x3 SLOAD PUSH0 SWAP1 PUSH2 0x5BB SWAP1 PUSH1 0x1 PUSH1 0x1 PUSH1 0xA0 SHL SUB AND DUP5 DUP5 PUSH2 0x777 JUMP JUMPDEST SWAP1 POP JUMPDEST SWAP3 SWAP2 POP POP JUMP JUMPDEST PUSH1 0x6 SLOAD PUSH1 0x1 PUSH1 0x1 PUSH1 0xA0 SHL SUB AND CALLER EQ PUSH2 0x617 JUMPI PUSH1 0x40 MLOAD PUSH3 0x461BCD PUSH1 0xE5 SHL DUP2 MSTORE PUSH1 0x20 PUSH1 0x4 DUP3 ADD MSTORE PUSH1 0x16 PUSH1 0x24 DUP3 ADD MSTORE PUSH22 0x27B7363C9031B0B63630B1363290313C9037BBB732B9 PUSH1 0x51 SHL PUSH1 0x44 DUP3 ADD MSTORE PUSH1 0x64 ADD PUSH2 0x2B4 JUMP JUMPDEST JUMP JUMPDEST CALLER PUSH1 0x1 PUSH1 0x1 PUSH1 0xA0 SHL SUB DUP3 AND SUB PUSH2 0x671 JUMPI PUSH1 0x40 MLOAD PUSH3 0x461BCD PUSH1 0xE5 SHL DUP2 MSTORE PUSH1 0x20 PUSH1 0x4 DUP3 ADD MSTORE PUSH1 0x17 PUSH1 0x24 DUP3 ADD MSTORE PUSH32 0x43616E6E6F74207472616E7366657220746F2073656C66000000000000000000 PUSH1 0x44 DUP3 ADD MSTORE PUSH1 0x64 ADD PUSH2 0x2B4 JUMP JUMPDEST PUSH1 0x7 DUP1 SLOAD PUSH1 0x1 PUSH1 0x1 PUSH1 0xA0 SHL SUB NOT AND PUSH1 0x1 PUSH1 0x1 PUSH1 0xA0 SHL SUB DUP4 DUP2 AND SWAP2 DUP3 OR SWAP1 SWAP3 SSTORE PUSH1 0x6 SLOAD PUSH1 0x40 MLOAD SWAP2 SWAP3 AND SWAP1 PUSH32 0xED8889F560326EB138920D842192F0EB3DD22B4F139C87A2C57538E05BAE1278 SWAP1 PUSH0 SWAP1 LOG3 POP JUMP JUMPDEST PUSH2 0x6CA PUSH2 0xDA2 JUMP JUMPDEST PUSH2 0x6DA DUP6 PUSH1 0x80 ADD MLOAD PUSH2 0x100 PUSH2 0x808 JUMP JUMPDEST POP POP SWAP2 DUP4 MSTORE PUSH1 0x1 PUSH1 0x1 PUSH1 0xA0 SHL SUB AND PUSH1 0x20 DUP4 ADD MSTORE PUSH1 0x1 PUSH1 0x1 PUSH1 0xE0 SHL SUB NOT AND PUSH1 0x40 DUP3 ADD MSTORE SWAP1 JUMP JUMPDEST PUSH2 0x70C DUP3 PUSH1 0x3 DUP4 MLOAD PUSH2 0x86B JUMP JUMPDEST PUSH2 0x57F DUP3 DUP3 PUSH2 0x980 JUMP JUMPDEST PUSH8 0xFFFFFFFFFFFFFFFF NOT DUP2 SLT ISZERO PUSH2 0x735 JUMPI PUSH2 0x731 DUP3 DUP3 PUSH2 0x9A5 JUMP JUMPDEST POP POP JUMP JUMPDEST PUSH8 0xFFFFFFFFFFFFFFFF DUP2 SGT ISZERO PUSH2 0x74F JUMPI PUSH2 0x731 DUP3 DUP3 PUSH2 0x9E6 JUMP JUMPDEST PUSH0 DUP2 SLT PUSH2 0x761 JUMPI PUSH2 0x731 DUP3 PUSH0 DUP4 PUSH2 0x86B JUMP JUMPDEST PUSH2 0x731 DUP3 PUSH1 0x1 PUSH2 0x772 DUP5 PUSH0 NOT PUSH2 0xE8A JUMP JUMPDEST PUSH2 0x86B JUMP JUMPDEST PUSH1 0x4 SLOAD PUSH0 SWAP1 PUSH2 0x787 DUP2 PUSH1 0x1 PUSH2 0xEB0 JUMP JUMPDEST PUSH1 0x4 SSTORE DUP4 MLOAD PUSH1 0x40 DUP1 DUP7 ADD MLOAD PUSH1 0x80 DUP8 ADD MLOAD MLOAD SWAP2 MLOAD PUSH0 SWAP4 PUSH4 0x20214CA3 PUSH1 0xE1 SHL SWAP4 PUSH2 0x7BE SWAP4 DUP7 SWAP4 DUP5 SWAP4 SWAP3 ADDRESS SWAP3 SWAP2 DUP11 SWAP2 PUSH1 0x1 SWAP2 PUSH1 0x24 ADD PUSH2 0xEF1 JUMP JUMPDEST PUSH1 0x40 DUP1 MLOAD PUSH1 0x1F NOT DUP2 DUP5 SUB ADD DUP2 MSTORE SWAP2 SWAP1 MSTORE PUSH1 0x20 DUP2 ADD DUP1 MLOAD PUSH1 0x1 PUSH1 0x1 PUSH1 0xE0 SHL SUB AND PUSH1 0x1 PUSH1 0x1 PUSH1 0xE0 SHL SUB NOT SWAP1 SWAP4 AND SWAP3 SWAP1 SWAP3 OR SWAP1 SWAP2 MSTORE SWAP1 POP PUSH2 0x7FE DUP7 DUP4 DUP7 DUP5 PUSH2 0xA09 JUMP JUMPDEST SWAP7 SWAP6 POP POP POP POP POP POP JUMP JUMPDEST PUSH1 0x40 DUP1 MLOAD DUP1 DUP3 ADD SWAP1 SWAP2 MSTORE PUSH1 0x60 DUP2 MSTORE PUSH0 PUSH1 0x20 DUP3 ADD MSTORE PUSH2 0x827 PUSH1 0x20 DUP4 PUSH2 0xF57 JUMP JUMPDEST ISZERO PUSH2 0x84F JUMPI PUSH2 0x837 PUSH1 0x20 DUP4 PUSH2 0xF57 JUMP JUMPDEST PUSH2 0x842 SWAP1 PUSH1 0x20 PUSH2 0xF76 JUMP JUMPDEST PUSH2 0x84C SWAP1 DUP4 PUSH2 0xEB0 JUMP JUMPDEST SWAP2 POP JUMPDEST POP PUSH1 0x20 DUP3 DUP2 ADD DUP3 SWAP1 MSTORE PUSH1 0x40 DUP1 MLOAD DUP1 DUP6 MSTORE PUSH0 DUP2 MSTORE SWAP1 SWAP3 ADD ADD SWAP1 MSTORE SWAP1 JUMP JUMPDEST PUSH1 0x17 DUP2 PUSH8 0xFFFFFFFFFFFFFFFF AND GT PUSH2 0x896 JUMPI PUSH2 0x890 DUP4 PUSH1 0xE0 PUSH1 0x5 DUP6 SWAP1 SHL AND DUP4 OR PUSH2 0xB62 JUMP JUMPDEST POP POP POP POP JUMP JUMPDEST PUSH1 0xFF DUP2 PUSH8 0xFFFFFFFFFFFFFFFF AND GT PUSH2 0x8D4 JUMPI PUSH2 0x8BD DUP4 PUSH1 0x18 PUSH2 0x1FE0 PUSH1 0x5 DUP7 SWAP1 SHL AND OR PUSH2 0xB62 JUMP JUMPDEST POP PUSH2 0x890 DUP4 PUSH8 0xFFFFFFFFFFFFFFFF DUP4 AND PUSH1 0x1 PUSH2 0xB85 JUMP JUMPDEST PUSH2 0xFFFF DUP2 PUSH8 0xFFFFFFFFFFFFFFFF AND GT PUSH2 0x913 JUMPI PUSH2 0x8FC DUP4 PUSH1 0x19 PUSH2 0x1FE0 PUSH1 0x5 DUP7 SWAP1 SHL AND OR PUSH2 0xB62 JUMP JUMPDEST POP PUSH2 0x890 DUP4 PUSH8 0xFFFFFFFFFFFFFFFF DUP4 AND PUSH1 0x2 PUSH2 0xB85 JUMP JUMPDEST PUSH4 0xFFFFFFFF DUP2 PUSH8 0xFFFFFFFFFFFFFFFF AND GT PUSH2 0x954 JUMPI PUSH2 0x93D DUP4 PUSH1 0x1A PUSH2 0x1FE0 PUSH1 0x5 DUP7 SWAP1 SHL AND OR PUSH2 0xB62 JUMP JUMPDEST POP PUSH2 0x890 DUP4 PUSH8 0xFFFFFFFFFFFFFFFF DUP4 AND PUSH1 0x4 PUSH2 0xB85 JUMP JUMPDEST PUSH2 0x969 DUP4 PUSH1 0x1B PUSH2 0x1FE0 PUSH1 0x5 DUP7 SWAP1 SHL AND OR PUSH2 0xB62 JUMP JUMPDEST POP PUSH2 0x890 DUP4 PUSH8 0xFFFFFFFFFFFFFFFF DUP4 AND PUSH1 0x8 PUSH2 0xB85 JUMP JUMPDEST PUSH1 0x40 DUP1 MLOAD DUP1 DUP3 ADD SWAP1 SWAP2 MSTORE PUSH1 0x60 DUP2 MSTORE PUSH0 PUSH1 0x20 DUP3 ADD MSTORE PUSH2 0x5BB DUP4 DUP5 PUSH0 ADD MLOAD MLOAD DUP5 DUP6 MLOAD PUSH2 0xBA9 JUMP JUMPDEST PUSH2 0x9B0 DUP3 PUSH1 0xC3 PUSH2 0xB62 JUMP JUMPDEST POP PUSH2 0x731 DUP3 PUSH2 0x9C0 DUP4 PUSH0 NOT PUSH2 0xE8A JUMP JUMPDEST PUSH1 0x40 MLOAD PUSH1 0x20 ADD PUSH2 0x9D2 SWAP2 DUP2 MSTORE PUSH1 0x20 ADD SWAP1 JUMP JUMPDEST PUSH1 0x40 MLOAD PUSH1 0x20 DUP2 DUP4 SUB SUB DUP2 MSTORE SWAP1 PUSH1 0x40 MSTORE PUSH2 0xC8F JUMP JUMPDEST PUSH2 0x9F1 DUP3 PUSH1 0xC2 PUSH2 0xB62 JUMP JUMPDEST POP PUSH2 0x731 DUP3 DUP3 PUSH1 0x40 MLOAD PUSH1 0x20 ADD PUSH2 0x9D2 SWAP2 DUP2 MSTORE PUSH1 0x20 ADD SWAP1 JUMP JUMPDEST PUSH1 0x40 MLOAD PUSH12 0xFFFFFFFFFFFFFFFFFFFFFFFF NOT ADDRESS PUSH1 0x60 SHL AND PUSH1 0x20 DUP3 ADD MSTORE PUSH1 0x34 DUP2 ADD DUP5 SWAP1 MSTORE PUSH0 SWAP1 PUSH1 0x54 ADD PUSH1 0x40 DUP1 MLOAD DUP1 DUP4 SUB PUSH1 0x1F NOT ADD DUP2 MSTORE DUP3 DUP3 MSTORE DUP1 MLOAD PUSH1 0x20 SWAP2 DUP3 ADD KECCAK256 PUSH0 DUP2 DUP2 MSTORE PUSH1 0x5 SWAP1 SWAP3 MSTORE SWAP2 DUP2 KECCAK256 DUP1 SLOAD PUSH1 0x1 PUSH1 0x1 PUSH1 0xA0 SHL SUB NOT AND PUSH1 0x1 PUSH1 0x1 PUSH1 0xA0 SHL SUB DUP11 AND OR SWAP1 SSTORE SWAP1 SWAP3 POP DUP3 SWAP2 PUSH32 0xB5E6E01E79F91267DC17B4E6314D5D4D03593D2CEEE0FBB452B750BD70EA5AF9 SWAP2 SWAP1 LOG2 PUSH1 0x2 SLOAD PUSH1 0x40 MLOAD PUSH4 0x2000575 PUSH1 0xE5 SHL DUP2 MSTORE PUSH1 0x1 PUSH1 0x1 PUSH1 0xA0 SHL SUB SWAP1 SWAP2 AND SWAP1 PUSH4 0x4000AEA0 SWAP1 PUSH2 0xACA SWAP1 DUP9 SWAP1 DUP8 SWAP1 DUP8 SWAP1 PUSH1 0x4 ADD PUSH2 0xF89 JUMP JUMPDEST PUSH1 0x20 PUSH1 0x40 MLOAD DUP1 DUP4 SUB DUP2 PUSH0 DUP8 GAS CALL ISZERO DUP1 ISZERO PUSH2 0xAE6 JUMPI RETURNDATASIZE PUSH0 PUSH0 RETURNDATACOPY RETURNDATASIZE PUSH0 REVERT JUMPDEST POP POP POP POP PUSH1 0x40 MLOAD RETURNDATASIZE PUSH1 0x1F NOT PUSH1 0x1F DUP3 ADD AND DUP3 ADD DUP1 PUSH1 0x40 MSTORE POP DUP2 ADD SWAP1 PUSH2 0xB0A SWAP2 SWAP1 PUSH2 0xE57 JUMP JUMPDEST PUSH2 0x238 JUMPI PUSH1 0x40 MLOAD PUSH3 0x461BCD PUSH1 0xE5 SHL DUP2 MSTORE PUSH1 0x20 PUSH1 0x4 DUP3 ADD MSTORE PUSH1 0x23 PUSH1 0x24 DUP3 ADD MSTORE PUSH32 0x756E61626C6520746F207472616E73666572416E6443616C6C20746F206F7261 PUSH1 0x44 DUP3 ADD MSTORE PUSH3 0x636C65 PUSH1 0xE8 SHL PUSH1 0x64 DUP3 ADD MSTORE PUSH1 0x84 ADD PUSH2 0x2B4 JUMP JUMPDEST PUSH1 0x40 DUP1 MLOAD DUP1 DUP3 ADD SWAP1 SWAP2 MSTORE PUSH1 0x60 DUP2 MSTORE PUSH0 PUSH1 0x20 DUP3 ADD MSTORE PUSH2 0x5BB DUP4 DUP5 PUSH0 ADD MLOAD MLOAD DUP5 PUSH2 0xC9C JUMP JUMPDEST PUSH1 0x40 DUP1 MLOAD DUP1 DUP3 ADD SWAP1 SWAP2 MSTORE PUSH1 0x60 DUP2 MSTORE PUSH0 PUSH1 0x20 DUP3 ADD MSTORE PUSH2 0x238 DUP5 DUP6 PUSH0 ADD MLOAD MLOAD DUP6 DUP6 PUSH2 0xCF6 JUMP JUMPDEST PUSH1 0x40 DUP1 MLOAD DUP1 DUP3 ADD SWAP1 SWAP2 MSTORE PUSH1 0x60 DUP2 MSTORE PUSH0 PUSH1 0x20 DUP3 ADD MSTORE DUP3 MLOAD DUP3 GT ISZERO PUSH2 0xBCA JUMPI PUSH0 PUSH0 REVERT JUMPDEST PUSH1 0x20 DUP6 ADD MLOAD PUSH2 0xBD9 DUP4 DUP7 PUSH2 0xEB0 JUMP JUMPDEST GT ISZERO PUSH2 0xC0C JUMPI PUSH2 0xC0C DUP6 PUSH2 0xBFC DUP8 PUSH1 0x20 ADD MLOAD DUP8 DUP7 PUSH2 0xBF7 SWAP2 SWAP1 PUSH2 0xEB0 JUMP JUMPDEST PUSH2 0xD75 JUMP JUMPDEST PUSH2 0xC07 SWAP1 PUSH1 0x2 PUSH2 0xFAF JUMP JUMPDEST PUSH2 0xD8B JUMP JUMPDEST PUSH0 PUSH0 DUP7 MLOAD DUP1 MLOAD DUP8 PUSH1 0x20 DUP4 ADD ADD SWAP4 POP DUP1 DUP9 DUP8 ADD GT ISZERO PUSH2 0xC2A JUMPI DUP8 DUP7 ADD DUP3 MSTORE JUMPDEST POP POP POP PUSH1 0x20 DUP5 ADD JUMPDEST PUSH1 0x20 DUP5 LT PUSH2 0xC6A JUMPI DUP1 MLOAD DUP3 MSTORE PUSH2 0xC49 PUSH1 0x20 DUP4 PUSH2 0xEB0 JUMP JUMPDEST SWAP2 POP PUSH2 0xC56 PUSH1 0x20 DUP3 PUSH2 0xEB0 JUMP JUMPDEST SWAP1 POP PUSH2 0xC63 PUSH1 0x20 DUP6 PUSH2 0xF76 JUMP JUMPDEST SWAP4 POP PUSH2 0xC32 JUMP JUMPDEST MLOAD DUP2 MLOAD PUSH0 NOT PUSH1 0x20 DUP7 SWAP1 SUB PUSH2 0x100 EXP ADD SWAP1 DUP2 AND SWAP1 NOT SWAP2 SWAP1 SWAP2 AND OR SWAP1 MSTORE POP DUP4 SWAP5 SWAP4 POP POP POP POP JUMP JUMPDEST PUSH2 0x70C DUP3 PUSH1 0x2 DUP4 MLOAD PUSH2 0x86B JUMP JUMPDEST PUSH1 0x40 DUP1 MLOAD DUP1 DUP3 ADD SWAP1 SWAP2 MSTORE PUSH1 0x60 DUP2 MSTORE PUSH0 PUSH1 0x20 DUP3 ADD MSTORE DUP4 PUSH1 0x20 ADD MLOAD DUP4 LT PUSH2 0xCD0 JUMPI PUSH2 0xCD0 DUP5 DUP6 PUSH1 0x20 ADD MLOAD PUSH1 0x2 PUSH2 0xC07 SWAP2 SWAP1 PUSH2 0xFAF JUMP JUMPDEST DUP4 MLOAD DUP1 MLOAD PUSH1 0x20 DUP6 DUP4 ADD ADD DUP5 DUP2 MSTORE8 POP DUP1 DUP6 SUB PUSH2 0xCEC JUMPI PUSH1 0x1 DUP2 ADD DUP3 MSTORE JUMPDEST POP SWAP4 SWAP5 SWAP4 POP POP POP POP JUMP JUMPDEST PUSH1 0x40 DUP1 MLOAD DUP1 DUP3 ADD SWAP1 SWAP2 MSTORE PUSH1 0x60 DUP2 MSTORE PUSH0 PUSH1 0x20 DUP3 ADD MSTORE PUSH1 0x20 DUP6 ADD MLOAD PUSH2 0xD19 DUP6 DUP5 PUSH2 0xEB0 JUMP JUMPDEST GT ISZERO PUSH2 0xD2D JUMPI PUSH2 0xD2D DUP6 PUSH2 0xBFC DUP7 DUP6 PUSH2 0xEB0 JUMP JUMPDEST PUSH0 PUSH1 0x1 PUSH2 0xD3C DUP5 PUSH2 0x100 PUSH2 0x10A9 JUMP JUMPDEST PUSH2 0xD46 SWAP2 SWAP1 PUSH2 0xF76 JUMP JUMPDEST SWAP1 POP DUP6 MLOAD DUP4 DUP7 DUP3 ADD ADD DUP6 DUP4 NOT DUP3 MLOAD AND OR DUP2 MSTORE POP DUP1 MLOAD DUP5 DUP8 ADD GT ISZERO PUSH2 0xD6A JUMPI DUP4 DUP7 ADD DUP2 MSTORE JUMPDEST POP SWAP5 SWAP6 SWAP5 POP POP POP POP POP JUMP JUMPDEST PUSH0 DUP2 DUP4 GT ISZERO PUSH2 0xD85 JUMPI POP DUP2 PUSH2 0x5BE JUMP JUMPDEST POP SWAP2 SWAP1 POP JUMP JUMPDEST DUP2 MLOAD PUSH2 0xD97 DUP4 DUP4 PUSH2 0x808 JUMP JUMPDEST POP PUSH2 0x890 DUP4 DUP3 PUSH2 0x980 JUMP JUMPDEST PUSH1 0x40 DUP1 MLOAD PUSH1 0xA0 DUP2 ADD DUP3 MSTORE PUSH0 DUP1 DUP3 MSTORE PUSH1 0x20 DUP1 DUP4 ADD DUP3 SWAP1 MSTORE DUP3 DUP5 ADD DUP3 SWAP1 MSTORE PUSH1 0x60 DUP1 DUP5 ADD DUP4 SWAP1 MSTORE DUP5 MLOAD DUP1 DUP7 ADD SWAP1 SWAP6 MSTORE DUP5 MSTORE DUP4 ADD MSTORE SWAP1 PUSH1 0x80 DUP3 ADD MSTORE SWAP1 JUMP JUMPDEST PUSH0 PUSH1 0x20 DUP3 DUP5 SUB SLT ISZERO PUSH2 0xDEC JUMPI PUSH0 PUSH0 REVERT JUMPDEST POP CALLDATALOAD SWAP2 SWAP1 POP JUMP JUMPDEST PUSH0 PUSH0 PUSH1 0x40 DUP4 DUP6 SUB SLT ISZERO PUSH2 0xE04 JUMPI PUSH0 PUSH0 REVERT JUMPDEST POP POP DUP1 CALLDATALOAD SWAP3 PUSH1 0x20 SWAP1 SWAP2 ADD CALLDATALOAD SWAP2 POP JUMP JUMPDEST PUSH0 PUSH1 0x20 DUP3 DUP5 SUB SLT ISZERO PUSH2 0xE23 JUMPI PUSH0 PUSH0 REVERT JUMPDEST DUP2 CALLDATALOAD PUSH1 0x1 PUSH1 0x1 PUSH1 0xA0 SHL SUB DUP2 AND DUP2 EQ PUSH2 0xE39 JUMPI PUSH0 PUSH0 REVERT JUMPDEST SWAP4 SWAP3 POP POP POP JUMP JUMPDEST PUSH0 PUSH1 0x20 DUP3 DUP5 SUB SLT ISZERO PUSH2 0xE50 JUMPI PUSH0 PUSH0 REVERT JUMPDEST POP MLOAD SWAP2 SWAP1 POP JUMP JUMPDEST PUSH0 PUSH1 0x20 DUP3 DUP5 SUB SLT ISZERO PUSH2 0xE67 JUMPI PUSH0 PUSH0 REVERT JUMPDEST DUP2 MLOAD DUP1 ISZERO ISZERO DUP2 EQ PUSH2 0xE39 JUMPI PUSH0 PUSH0 REVERT JUMPDEST PUSH4 0x4E487B71 PUSH1 0xE0 SHL PUSH0 MSTORE PUSH1 0x11 PUSH1 0x4 MSTORE PUSH1 0x24 PUSH0 REVERT JUMPDEST DUP2 DUP2 SUB PUSH0 DUP4 SLT DUP1 ISZERO DUP4 DUP4 SGT AND DUP4 DUP4 SLT DUP3 AND OR ISZERO PUSH2 0xEA9 JUMPI PUSH2 0xEA9 PUSH2 0xE76 JUMP JUMPDEST POP SWAP3 SWAP2 POP POP JUMP JUMPDEST DUP1 DUP3 ADD DUP1 DUP3 GT ISZERO PUSH2 0x5BE JUMPI PUSH2 0x5BE PUSH2 0xE76 JUMP JUMPDEST PUSH0 DUP2 MLOAD DUP1 DUP5 MSTORE DUP1 PUSH1 0x20 DUP5 ADD PUSH1 0x20 DUP7 ADD MCOPY PUSH0 PUSH1 0x20 DUP3 DUP7 ADD ADD MSTORE PUSH1 0x20 PUSH1 0x1F NOT PUSH1 0x1F DUP4 ADD AND DUP6 ADD ADD SWAP2 POP POP SWAP3 SWAP2 POP POP JUMP JUMPDEST PUSH1 0x1 PUSH1 0x1 PUSH1 0xA0 SHL SUB DUP10 DUP2 AND DUP3 MSTORE PUSH1 0x20 DUP3 ADD DUP10 SWAP1 MSTORE PUSH1 0x40 DUP3 ADD DUP9 SWAP1 MSTORE DUP7 AND PUSH1 0x60 DUP3 ADD MSTORE PUSH1 0x1 PUSH1 0x1 PUSH1 0xE0 SHL SUB NOT DUP6 AND PUSH1 0x80 DUP3 ADD MSTORE PUSH1 0xA0 DUP2 ADD DUP5 SWAP1 MSTORE PUSH1 0xC0 DUP2 ADD DUP4 SWAP1 MSTORE PUSH2 0x100 PUSH1 0xE0 DUP3 ADD DUP2 SWAP1 MSTORE PUSH0 SWAP1 PUSH2 0xF49 SWAP1 DUP4 ADD DUP5 PUSH2 0xEC3 JUMP JUMPDEST SWAP11 SWAP10 POP POP POP POP POP POP POP POP POP POP JUMP JUMPDEST PUSH0 DUP3 PUSH2 0xF71 JUMPI PUSH4 0x4E487B71 PUSH1 0xE0 SHL PUSH0 MSTORE PUSH1 0x12 PUSH1 0x4 MSTORE PUSH1 0x24 PUSH0 REVERT JUMPDEST POP MOD SWAP1 JUMP JUMPDEST DUP2 DUP2 SUB DUP2 DUP2 GT ISZERO PUSH2 0x5BE JUMPI PUSH2 0x5BE PUSH2 0xE76 JUMP JUMPDEST PUSH1 0x1 DUP1 PUSH1 0xA0 SHL SUB DUP5 AND DUP2 MSTORE DUP3 PUSH1 0x20 DUP3 ADD MSTORE PUSH1 0x60 PUSH1 0x40 DUP3 ADD MSTORE PUSH0 PUSH2 0x558 PUSH1 0x60 DUP4 ADD DUP5 PUSH2 0xEC3 JUMP JUMPDEST DUP1 DUP3 MUL DUP2 ISZERO DUP3 DUP3 DIV DUP5 EQ OR PUSH2 0x5BE JUMPI PUSH2 0x5BE PUSH2 0xE76 JUMP JUMPDEST PUSH1 0x1 DUP2 JUMPDEST PUSH1 0x1 DUP5 GT ISZERO PUSH2 0x1001 JUMPI DUP1 DUP6 DIV DUP2 GT ISZERO PUSH2 0xFE5 JUMPI PUSH2 0xFE5 PUSH2 0xE76 JUMP JUMPDEST PUSH1 0x1 DUP5 AND ISZERO PUSH2 0xFF3 JUMPI SWAP1 DUP2 MUL SWAP1 JUMPDEST PUSH1 0x1 SWAP4 SWAP1 SWAP4 SHR SWAP3 DUP1 MUL PUSH2 0xFCA JUMP JUMPDEST SWAP4 POP SWAP4 SWAP2 POP POP JUMP JUMPDEST PUSH0 DUP3 PUSH2 0x1017 JUMPI POP PUSH1 0x1 PUSH2 0x5BE JUMP JUMPDEST DUP2 PUSH2 0x1023 JUMPI POP PUSH0 PUSH2 0x5BE JUMP JUMPDEST DUP2 PUSH1 0x1 DUP2 EQ PUSH2 0x1039 JUMPI PUSH1 0x2 DUP2 EQ PUSH2 0x1043 JUMPI PUSH2 0x105F JUMP JUMPDEST PUSH1 0x1 SWAP2 POP POP PUSH2 0x5BE JUMP JUMPDEST PUSH1 0xFF DUP5 GT ISZERO PUSH2 0x1054 JUMPI PUSH2 0x1054 PUSH2 0xE76 JUMP JUMPDEST POP POP PUSH1 0x1 DUP3 SHL PUSH2 0x5BE JUMP JUMPDEST POP PUSH1 0x20 DUP4 LT PUSH2 0x133 DUP4 LT AND PUSH1 0x4E DUP5 LT PUSH1 0xB DUP5 LT AND OR ISZERO PUSH2 0x1082 JUMPI POP DUP2 DUP2 EXP PUSH2 0x5BE JUMP JUMPDEST PUSH2 0x108E PUSH0 NOT DUP5 DUP5 PUSH2 0xFC6 JUMP JUMPDEST DUP1 PUSH0 NOT DIV DUP3 GT ISZERO PUSH2 0x10A1 JUMPI PUSH2 0x10A1 PUSH2 0xE76 JUMP JUMPDEST MUL SWAP4 SWAP3 POP POP POP JUMP JUMPDEST PUSH0 PUSH2 0x5BB DUP4 DUP4 PUSH2 0x1009 JUMP INVALID PUSH9 0x747470733A2F2F3038 CALLDATALOAD CALLER 0x2D BALANCE CALLVALUE 0x2D ORIGIN ADDRESS ADDRESS 0x2D CALLDATACOPY CALLDATALOAD 0x2D CALLDATALOAD CALLVALUE 0x2E PUSH15 0x67726F6B2D667265652E6170702F64 PUSH2 0x7461 LOG2 PUSH5 0x6970667358 0x22 SLT KECCAK256 SWAP12 RETF LOG3 0xB2 0xA6 0x2A DUP10 MLOAD JUMPF 0xF1A9 0xF7 0xB0 DUP5 0xF PUSH7 0x8676E2650C64A7 MCOPY 0xEA 0x4F 0xCC LT PUSH26 0x600D3F64736F6C634300081D0033135290006F1871309577D248 0xCF STOP PUSH2 0x9459 0xA7 SWAP12 BLOBBASEFEE PUSH20 0x5638108A2BB080319C90D6A26469706673582212 KECCAK256 EXTCODECOPY 0xAA CODESIZE DUP9 0xA6 PUSH19 0xA2C7D11CA139E68208544F698AF349ACCFF246 PUSH25 0x7343EBA434C864736F6C634300081D00330000000000000000 "
		},
		"gasEstimates": {
			"creation": {
				"codeDepositCost": "3015200",
				"executionCost": "3316",
				"totalCost": "3018516"
			},
			"external": {
				"addProponent()": "infinite",
				"apiConsumer()": "2348",
				"calculateDeposit(uint256)": "infinite",
				"changeProjectState(uint8)": "infinite",
				"checkRepScore(address)": "infinite",
				"dataBefore()": "2383",
				"deploy()": "infinite",
				"distributePay((uint256,address,string,uint256,uint256,string,uint256,string,string,(address,bool,string)[],(address,bool,string)[],uint8,bool),(address,string,uint256,uint256))": "infinite",
				"getProjectState(uint256)": "529",
				"newProject()": "infinite",
				"projects(address)": "infinite",
				"proponents(address)": "infinite",
				"returnDeposit(address,uint256)": "infinite",
				"validators(uint256)": "infinite",
				"verifiers(uint256)": "infinite"
			}
		},
		"methodIdentifiers": {
			"addProponent()": "43de681d",
			"apiConsumer()": "242ab021",
			"calculateDeposit(uint256)": "4ec508f9",
			"changeProjectState(uint8)": "5699fadc",
			"checkRepScore(address)": "2e3803c6",
			"dataBefore()": "b43a57a9",
			"deploy()": "775c300c",
			"distributePay((uint256,address,string,uint256,uint256,string,uint256,string,string,(address,bool,string)[],(address,bool,string)[],uint8,bool),(address,string,uint256,uint256))": "ff085ca0",
			"getProjectState(uint256)": "e0155714",
			"newProject()": "3bb060db",
			"projects(address)": "840e78fd",
			"proponents(address)": "ddfc5cfe",
			"returnDeposit(address,uint256)": "d29709fb",
			"validators(uint256)": "35aa2e44",
			"verifiers(uint256)": "ac1eff68"
		}
	},
	"abi": [
		{
			"anonymous": false,
			"inputs": [
				{
					"indexed": false,
					"internalType": "string",
					"name": "",
					"type": "string"
				}
			],
			"name": "Balance",
			"type": "event"
		},
		{
			"anonymous": false,
			"inputs": [
				{
					"indexed": false,
					"internalType": "address",
					"name": "",
					"type": "address"
				},
				{
					"indexed": false,
					"internalType": "string",
					"name": "",
					"type": "string"
				}
			],
			"name": "CheckAddr",
			"type": "event"
		},
		{
			"anonymous": false,
			"inputs": [
				{
					"indexed": false,
					"internalType": "string",
					"name": "",
					"type": "string"
				},
				{
					"indexed": false,
					"internalType": "uint256",
					"name": "amount",
					"type": "uint256"
				}
			],
			"name": "Deposit",
			"type": "event"
		},
		{
			"inputs": [],
			"name": "addProponent",
			"outputs": [
				{
					"internalType": "uint256",
					"name": "",
					"type": "uint256"
				}
			],
			"stateMutability": "nonpayable",
			"type": "function"
		},
		{
			"inputs": [],
			"name": "apiConsumer",
			"outputs": [
				{
					"internalType": "contract APIConsumer",
					"name": "",
					"type": "address"
				}
			],
			"stateMutability": "view",
			"type": "function"
		},
		{
			"inputs": [
				{
					"internalType": "uint256",
					"name": "_repScore",
					"type": "uint256"
				}
			],
			"name": "calculateDeposit",
			"outputs": [
				{
					"internalType": "uint256",
					"name": "",
					"type": "uint256"
				},
				{
					"internalType": "uint256",
					"name": "",
					"type": "uint256"
				}
			],
			"stateMutability": "nonpayable",
			"type": "function"
		},
		{
			"inputs": [
				{
					"internalType": "enum Lock.projectState",
					"name": "_proState",
					"type": "uint8"
				}
			],
			"name": "changeProjectState",
			"outputs": [],
			"stateMutability": "nonpayable",
			"type": "function"
		},
		{
			"inputs": [
				{
					"internalType": "address payable",
					"name": "prop",
					"type": "address"
				}
			],
			"name": "checkRepScore",
			"outputs": [],
			"stateMutability": "payable",
			"type": "function"
		},
		{
			"inputs": [],
			"name": "dataBefore",
			"outputs": [
				{
					"internalType": "uint256",
					"name": "",
					"type": "uint256"
				}
			],
			"stateMutability": "view",
			"type": "function"
		},
		{
			"inputs": [],
			"name": "deploy",
			"outputs": [],
			"stateMutability": "nonpayable",
			"type": "function"
		},
		{
			"inputs": [
				{
					"components": [
						{
							"internalType": "uint256",
							"name": "projectId",
							"type": "uint256"
						},
						{
							"internalType": "address payable",
							"name": "proponent",
							"type": "address"
						},
						{
							"internalType": "string",
							"name": "projectDocs",
							"type": "string"
						},
						{
							"internalType": "uint256",
							"name": "startDate",
							"type": "uint256"
						},
						{
							"internalType": "uint256",
							"name": "creditingPeriod",
							"type": "uint256"
						},
						{
							"internalType": "string",
							"name": "location",
							"type": "string"
						},
						{
							"internalType": "uint256",
							"name": "removalGHG",
							"type": "uint256"
						},
						{
							"internalType": "string",
							"name": "projectType",
							"type": "string"
						},
						{
							"internalType": "string",
							"name": "methodology",
							"type": "string"
						},
						{
							"components": [
								{
									"internalType": "address payable",
									"name": "verifier",
									"type": "address"
								},
								{
									"internalType": "bool",
									"name": "response",
									"type": "bool"
								},
								{
									"internalType": "string",
									"name": "reason",
									"type": "string"
								}
							],
							"internalType": "struct Lock.Response[]",
							"name": "validateResponse",
							"type": "tuple[]"
						},
						{
							"components": [
								{
									"internalType": "address payable",
									"name": "verifier",
									"type": "address"
								},
								{
									"internalType": "bool",
									"name": "response",
									"type": "bool"
								},
								{
									"internalType": "string",
									"name": "reason",
									"type": "string"
								}
							],
							"internalType": "struct Lock.Response[]",
							"name": "verifyResponse",
							"type": "tuple[]"
						},
						{
							"internalType": "enum Lock.projectState",
							"name": "proState",
							"type": "uint8"
						},
						{
							"internalType": "bool",
							"name": "issueCredit",
							"type": "bool"
						}
					],
					"internalType": "struct Lock.Project",
					"name": "proj",
					"type": "tuple"
				},
				{
					"components": [
						{
							"internalType": "address payable",
							"name": "propAddr",
							"type": "address"
						},
						{
							"internalType": "string",
							"name": "name",
							"type": "string"
						},
						{
							"internalType": "uint256",
							"name": "repScore",
							"type": "uint256"
						},
						{
							"internalType": "uint256",
							"name": "balance",
							"type": "uint256"
						}
					],
					"internalType": "struct Lock.Proponents",
					"name": "prop",
					"type": "tuple"
				}
			],
			"name": "distributePay",
			"outputs": [],
			"stateMutability": "payable",
			"type": "function"
		},
		{
			"inputs": [
				{
					"internalType": "uint256",
					"name": "val",
					"type": "uint256"
				}
			],
			"name": "getProjectState",
			"outputs": [
				{
					"internalType": "enum Lock.projectState",
					"name": "",
					"type": "uint8"
				}
			],
			"stateMutability": "pure",
			"type": "function"
		},
		{
			"inputs": [],
			"name": "newProject",
			"outputs": [],
			"stateMutability": "nonpayable",
			"type": "function"
		},
		{
			"inputs": [
				{
					"internalType": "address",
					"name": "",
					"type": "address"
				}
			],
			"name": "projects",
			"outputs": [
				{
					"internalType": "uint256",
					"name": "projectId",
					"type": "uint256"
				},
				{
					"internalType": "address payable",
					"name": "proponent",
					"type": "address"
				},
				{
					"internalType": "string",
					"name": "projectDocs",
					"type": "string"
				},
				{
					"internalType": "uint256",
					"name": "startDate",
					"type": "uint256"
				},
				{
					"internalType": "uint256",
					"name": "creditingPeriod",
					"type": "uint256"
				},
				{
					"internalType": "string",
					"name": "location",
					"type": "string"
				},
				{
					"internalType": "uint256",
					"name": "removalGHG",
					"type": "uint256"
				},
				{
					"internalType": "string",
					"name": "projectType",
					"type": "string"
				},
				{
					"internalType": "string",
					"name": "methodology",
					"type": "string"
				},
				{
					"internalType": "enum Lock.projectState",
					"name": "proState",
					"type": "uint8"
				},
				{
					"internalType": "bool",
					"name": "issueCredit",
					"type": "bool"
				}
			],
			"stateMutability": "view",
			"type": "function"
		},
		{
			"inputs": [
				{
					"internalType": "address",
					"name": "",
					"type": "address"
				}
			],
			"name": "proponents",
			"outputs": [
				{
					"internalType": "address payable",
					"name": "propAddr",
					"type": "address"
				},
				{
					"internalType": "string",
					"name": "name",
					"type": "string"
				},
				{
					"internalType": "uint256",
					"name": "repScore",
					"type": "uint256"
				},
				{
					"internalType": "uint256",
					"name": "balance",
					"type": "uint256"
				}
			],
			"stateMutability": "view",
			"type": "function"
		},
		{
			"inputs": [
				{
					"internalType": "address payable",
					"name": "addr",
					"type": "address"
				},
				{
					"internalType": "uint256",
					"name": "deposit",
					"type": "uint256"
				}
			],
			"name": "returnDeposit",
			"outputs": [],
			"stateMutability": "payable",
			"type": "function"
		},
		{
			"inputs": [
				{
					"internalType": "uint256",
					"name": "",
					"type": "uint256"
				}
			],
			"name": "validators",
			"outputs": [
				{
					"internalType": "address payable",
					"name": "verifier",
					"type": "address"
				},
				{
					"internalType": "bool",
					"name": "response",
					"type": "bool"
				},
				{
					"internalType": "string",
					"name": "reason",
					"type": "string"
				}
			],
			"stateMutability": "view",
			"type": "function"
		},
		{
			"inputs": [
				{
					"internalType": "uint256",
					"name": "",
					"type": "uint256"
				}
			],
			"name": "verifiers",
			"outputs": [
				{
					"internalType": "address payable",
					"name": "verifier",
					"type": "address"
				},
				{
					"internalType": "bool",
					"name": "response",
					"type": "bool"
				},
				{
					"internalType": "string",
					"name": "reason",
					"type": "string"
				}
			],
			"stateMutability": "view",
			"type": "function"
		},
		{
			"stateMutability": "payable",
			"type": "receive"
		}
	]
}