{
	"data": {
		"bytecode": {
			"linkReferences": {},
			"object": "6080604052348015600e575f80fd5b506101a28061001c5f395ff3fe608060405234801561000f575f80fd5b5060043610610029575f3560e01c80638db66f451461002d575b5f80fd5b610035610037565b005b7f40647b61d22f07a3c517927d18305e5febee59c56e1471273e3f5ba6055227e3336040516100669190610140565b60405180910390a17f40647b61d22f07a3c517927d18305e5febee59c56e1471273e3f5ba6055227e33360405161009d9190610140565b60405180910390a1565b5f73ffffffffffffffffffffffffffffffffffffffff82169050919050565b5f6100d0826100a7565b9050919050565b6100e0816100c6565b82525050565b5f82825260208201905092915050565b7f7465737420616c657274000000000000000000000000000000000000000000005f82015250565b5f61012a600a836100e6565b9150610135826100f6565b602082019050919050565b5f6040820190506101535f8301846100d7565b81810360208301526101648161011e565b90509291505056fea2646970667358221220c5633e37a66d2a3ec128e1fc9201251285b4b513569a573408eacbb7d579b52c64736f6c634300081a0033",
			"opcodes": "PUSH1 0x80 PUSH1 0x40 MSTORE CALLVALUE DUP1 ISZERO PUSH1 0xE JUMPI PUSH0 DUP1 REVERT JUMPDEST POP PUSH2 0x1A2 DUP1 PUSH2 0x1C PUSH0 CODECOPY PUSH0 RETURN INVALID PUSH1 0x80 PUSH1 0x40 MSTORE CALLVALUE DUP1 ISZERO PUSH2 0xF JUMPI PUSH0 DUP1 REVERT JUMPDEST POP PUSH1 0x4 CALLDATASIZE LT PUSH2 0x29 JUMPI PUSH0 CALLDATALOAD PUSH1 0xE0 SHR DUP1 PUSH4 0x8DB66F45 EQ PUSH2 0x2D JUMPI JUMPDEST PUSH0 DUP1 REVERT JUMPDEST PUSH2 0x35 PUSH2 0x37 JUMP JUMPDEST STOP JUMPDEST PUSH32 0x40647B61D22F07A3C517927D18305E5FEBEE59C56E1471273E3F5BA6055227E3 CALLER PUSH1 0x40 MLOAD PUSH2 0x66 SWAP2 SWAP1 PUSH2 0x140 JUMP JUMPDEST PUSH1 0x40 MLOAD DUP1 SWAP2 SUB SWAP1 LOG1 PUSH32 0x40647B61D22F07A3C517927D18305E5FEBEE59C56E1471273E3F5BA6055227E3 CALLER PUSH1 0x40 MLOAD PUSH2 0x9D SWAP2 SWAP1 PUSH2 0x140 JUMP JUMPDEST PUSH1 0x40 MLOAD DUP1 SWAP2 SUB SWAP1 LOG1 JUMP JUMPDEST PUSH0 PUSH20 0xFFFFFFFFFFFFFFFFFFFFFFFFFFFFFFFFFFFFFFFF DUP3 AND SWAP1 POP SWAP2 SWAP1 POP JUMP JUMPDEST PUSH0 PUSH2 0xD0 DUP3 PUSH2 0xA7 JUMP JUMPDEST SWAP1 POP SWAP2 SWAP1 POP JUMP JUMPDEST PUSH2 0xE0 DUP2 PUSH2 0xC6 JUMP JUMPDEST DUP3 MSTORE POP POP JUMP JUMPDEST PUSH0 DUP3 DUP3 MSTORE PUSH1 0x20 DUP3 ADD SWAP1 POP SWAP3 SWAP2 POP POP JUMP JUMPDEST PUSH32 0x7465737420616C65727400000000000000000000000000000000000000000000 PUSH0 DUP3 ADD MSTORE POP JUMP JUMPDEST PUSH0 PUSH2 0x12A PUSH1 0xA DUP4 PUSH2 0xE6 JUMP JUMPDEST SWAP2 POP PUSH2 0x135 DUP3 PUSH2 0xF6 JUMP JUMPDEST PUSH1 0x20 DUP3 ADD SWAP1 POP SWAP2 SWAP1 POP JUMP JUMPDEST PUSH0 PUSH1 0x40 DUP3 ADD SWAP1 POP PUSH2 0x153 PUSH0 DUP4 ADD DUP5 PUSH2 0xD7 JUMP JUMPDEST DUP2 DUP2 SUB PUSH1 0x20 DUP4 ADD MSTORE PUSH2 0x164 DUP2 PUSH2 0x11E JUMP JUMPDEST SWAP1 POP SWAP3 SWAP2 POP POP JUMP INVALID LOG2 PUSH5 0x6970667358 0x22 SLT KECCAK256 0xC5 PUSH4 0x3E37A66D 0x2A RETURNDATACOPY 0xC1 0x28 0xE1 0xFC SWAP3 ADD 0x25 SLT DUP6 0xB4 0xB5 SGT JUMP SWAP11 JUMPI CALLVALUE ADDMOD 0xEA 0xCB 0xB7 0xD5 PUSH26 0xB52C64736F6C634300081A003300000000000000000000000000 "
		},
		"gasEstimates": {
			"creation": {
				"codeDepositCost": "83600",
				"executionCost": "133",
				"totalCost": "83733"
			},
			"external": {
				"sendAlert()": "infinite"
			}
		},
		"methodIdentifiers": {
			"sendAlert()": "8db66f45"
		}
	},
	"abi": [
		{
			"anonymous": false,
			"inputs": [
				{
					"indexed": false,
					"internalType": "address",
					"name": "addr",
					"type": "address"
				},
				{
					"indexed": false,
					"internalType": "string",
					"name": "message",
					"type": "string"
				}
			],
			"name": "Alert",
			"type": "event"
		},
		{
			"inputs": [],
			"name": "sendAlert",
			"outputs": [],
			"stateMutability": "nonpayable",
			"type": "function"
		}
	]
}