{
	"data": {
		"bytecode": {
			"linkReferences": {},
			"object": "60806040526001600455348015610014575f5ffd5b5033805f8161006a5760405162461bcd60e51b815260206004820152601860248201527f43616e6e6f7420736574206f776e657220746f207a65726f000000000000000060448201526064015b60405180910390fd5b600680546001600160a01b0319166001600160a01b038481169190911790915581161561009a5761009a816100c5565b5050506100c073779877a7b0d9e8603169ddbd7836e478b462478961016e60201b60201c565b610190565b336001600160a01b0382160361011d5760405162461bcd60e51b815260206004820152601760248201527f43616e6e6f74207472616e7366657220746f2073656c660000000000000000006044820152606401610061565b600780546001600160a01b0319166001600160a01b03838116918217909255600654604051919216907fed8889f560326eb138920d842192f0eb3dd22b4f139c87a2c57538e05bae1278905f90a350565b600280546001600160a01b0319166001600160a01b0392909216919091179055565b6117fd8061019d5f395ff3fe608060405234801561000f575f5ffd5b5060043610610085575f3560e01c8063b86f58fe11610058578063b86f58fe146100df578063d65e005e146100e7578063f0ba8440146100fa578063f2fde38b1461010d575f5ffd5b806309bd5a60146100895780633e9db5e5146100a757806379ba5097146100bc5780638da5cb5b146100c4575b5f5ffd5b610091610120565b60405161009e9190611205565b60405180910390f35b6100ba6100b53660046112b4565b6101ac565b005b6100ba6102c2565b6006546040516001600160a01b03909116815260200161009e565b61009161036f565b6100ba6100f53660046113a2565b61037c565b6100916101083660046113c8565b610a05565b6100ba61011b3660046113a2565b610a2c565b6009805461012d906113df565b80601f0160208091040260200160405190810160405280929190818152602001828054610159906113df565b80156101a45780601f1061017b576101008083540402835291602001916101a4565b820191905f5260205f20905b81548152906001019060200180831161018757829003601f168201915b505050505081565b5f8a8152600560205260409020548a906001600160a01b031633146102295760405162461bcd60e51b815260206004820152602860248201527f536f75726365206d75737420626520746865206f7261636c65206f6620746865604482015267081c995c5d595cdd60c21b60648201526084015b60405180910390fd5b5f8181526005602052604080822080546001600160a01b03191690555182917f7cc135e0cebb02c3480ae5d74d377283180a2601f8f644edf7987b009316c63a91a26009610277898261145c565b50898988888888888860405160200161029798979695949392919061152d565b604051602081830303815290604052600a90816102b4919061145c565b505050505050505050505050565b6007546001600160a01b031633146103155760405162461bcd60e51b815260206004820152601660248201527526bab9ba10313290383937b837b9b2b21037bbb732b960511b6044820152606401610220565b600680546001600160a01b0319808216339081179093556007805490911690556040516001600160a01b03909116919082907f8be0079c531659141344cd1fd0a4f28419497f9722a3daafe3b4186f6b6457e0905f90a350565b600a805461012d906113df565b610384610a40565b5f6103b77f323065373966643063386362346232643966626364393036393531646161633730633e9db5e560e01b610a95565b90506104046040518060400160405280600e81526020016d75726c50726f6a6563744e616d6560901b8152506040518060600160405280602f8152602001611799602f9139839190610aba565b6104636040518060400160405280600f81526020016e7061746850726f6a6563744e616d6560881b8152506040518060400160405280600b81526020016a70726f6a6563744e616d6560a81b81525083610aba9092919063ffffffff16565b6104ab6040518060400160405280600b81526020016a3ab9362637b1b0ba34b7b760a91b8152506040518060600160405280602f8152602001611799602f9139839190610aba565b6105046040518060400160405280600c81526020016b3830ba342637b1b0ba34b7b760a11b815250604051806040016040528060088152602001673637b1b0ba34b7b760c11b81525083610aba9092919063ffffffff16565b610548604051806040016040528060078152602001660eae4d890c2e6d60cb1b8152506040518060600160405280602f8152602001611799602f9139839190610aba565b610599604051806040016040528060088152602001670e0c2e8d090c2e6d60c31b815250604051806040016040528060048152602001630d0c2e6d60e31b81525083610aba9092919063ffffffff16565b6105eb6040518060400160405280601581526020017475726c4578706563746564526564756374696f6e7360581b8152506040518060600160405280602f8152602001611799602f9139839190610aba565b61065860405180604001604052806016815260200175706174684578706563746564526564756374696f6e7360501b815250604051806040016040528060128152602001716578706563746564526564756374696f6e7360701b81525083610aba9092919063ffffffff16565b6106a36040518060400160405280600e81526020016d75726c4d6574686f646f6c6f677960901b8152506040518060600160405280602f8152602001611799602f9139839190610aba565b6107026040518060400160405280600f81526020016e706174684d6574686f646f6c6f677960881b8152506040518060400160405280600b81526020016a6d6574686f646f6c6f677960a81b81525083610aba9092919063ffffffff16565b6107526040518060400160405280601381526020017275726c50726f6a65637453746172744461746560681b8152506040518060600160405280602f8152602001611799602f9139839190610aba565b6107bb604051806040016040528060148152602001737061746850726f6a65637453746172744461746560601b8152506040518060400160405280601081526020016f70726f6a65637453746172744461746560801b81525083610aba9092919063ffffffff16565b6108096040518060400160405280601181526020017075726c56616c69646174696f6e4461746560781b8152506040518060600160405280602f8152602001611799602f9139839190610aba565b61086e604051806040016040528060128152602001717061746856616c69646174696f6e4461746560701b8152506040518060400160405280600e81526020016d76616c69646174696f6e4461746560901b81525083610aba9092919063ffffffff16565b6108be6040518060400160405280601381526020017275726c566572696669636174696f6e4461746560681b8152506040518060600160405280602f8152602001611799602f9139839190610aba565b6109276040518060400160405280601481526020017370617468566572696669636174696f6e4461746560601b8152506040518060400160405280601081526020016f766572696669636174696f6e4461746560801b81525083610aba9092919063ffffffff16565b6109746040518060400160405280601081526020016f75726c4973737565644372656469747360801b8152506040518060600160405280602f8152602001611799602f9139839190610aba565b6109d760405180604001604052806011815260200170706174684973737565644372656469747360781b8152506040518060400160405280600d81526020016c6973737565644372656469747360981b81525083610aba9092919063ffffffff16565b610a008282600a6109f1670de0b6b3a76400006001611588565b6109fb91906115b3565b610ad8565b505050565b60088181548110610a14575f80fd5b905f5260205f20015f91509050805461012d906113df565b610a34610a40565b610a3d81610b69565b50565b6006546001600160a01b03163314610a935760405162461bcd60e51b815260206004820152601660248201527527b7363c9031b0b63630b1363290313c9037bbb732b960511b6044820152606401610220565b565b610a9d61119d565b610aa561119d565b610ab181868686610c12565b95945050505050565b6080830151610ac99083610c58565b6080830151610a009082610c58565b6004545f90610ae88160016115c6565b600455835160408086015160808701515191515f936320214ca360e11b93610b1f9386938493923092918a916001916024016115d9565b60408051601f198184030181529190526020810180516001600160e01b03166001600160e01b0319909316929092179091529050610b5f86838684610c6f565b9695505050505050565b336001600160a01b03821603610bc15760405162461bcd60e51b815260206004820152601760248201527f43616e6e6f74207472616e7366657220746f2073656c660000000000000000006044820152606401610220565b600780546001600160a01b0319166001600160a01b03838116918217909255600654604051919216907fed8889f560326eb138920d842192f0eb3dd22b4f139c87a2c57538e05bae1278905f90a350565b610c1a61119d565b610c2a8560800151610100610dc8565b50508284526001600160a01b03821660208501526001600160e01b031981166040850152835b949350505050565b610c658260038351610e31565b610a008282610f3e565b6040516bffffffffffffffffffffffff193060601b166020820152603481018490525f9060540160408051808303601f1901815282825280516020918201205f818152600590925291812080546001600160a01b0319166001600160a01b038a1617905590925082917fb5e6e01e79f91267dc17b4e6314d5d4d03593d2ceee0fbb452b750bd70ea5af99190a2600254604051630200057560e51b81526001600160a01b0390911690634000aea090610d309088908790879060040161163f565b6020604051808303815f875af1158015610d4c573d5f5f3e3d5ffd5b505050506040513d601f19601f82011682018060405250810190610d709190611665565b610c505760405162461bcd60e51b815260206004820152602360248201527f756e61626c6520746f207472616e73666572416e6443616c6c20746f206f7261604482015262636c6560e81b6064820152608401610220565b60408051808201909152606081525f6020820152610de7602083611684565b15610e0f57610df7602083611684565b610e02906020611697565b610e0c90836115c6565b91505b506020808301829052604080518085525f815283019091019052815b92915050565b6017816001600160401b031611610e5b57610e558360e0600585901b168317610f6a565b50505050565b60ff816001600160401b031611610e9757610e81836018611fe0600586901b1617610f6a565b50610e55836001600160401b0383166001610f8d565b61ffff816001600160401b031611610ed457610ebe836019611fe0600586901b1617610f6a565b50610e55836001600160401b0383166002610f8d565b63ffffffff816001600160401b031611610f1357610efd83601a611fe0600586901b1617610f6a565b50610e55836001600160401b0383166004610f8d565b610f2883601b611fe0600586901b1617610f6a565b50610e55836001600160401b0383166008610f8d565b60408051808201909152606081525f6020820152610f6383845f015151848551610fb1565b9392505050565b60408051808201909152606081525f6020820152610f6383845f01515184611097565b60408051808201909152606081525f6020820152610c5084855f01515185856110f1565b60408051808201909152606081525f60208201528251821115610fd2575f5ffd5b6020850151610fe183866115c6565b1115611014576110148561100487602001518786610fff91906115c6565b611170565b61100f906002611588565b611186565b5f5f8651805187602083010193508088870111156110325787860182525b505050602084015b6020841061107257805182526110516020836115c6565b915061105e6020826115c6565b905061106b602085611697565b935061103a565b5181515f1960208690036101000a019081169019919091161790525083949350505050565b60408051808201909152606081525f6020820152836020015183106110cb576110cb848560200151600261100f9190611588565b83518051602085830101848153508085036110e7576001810182525b5093949350505050565b60408051808201909152606081525f6020820152602085015161111485846115c6565b1115611128576111288561100486856115c6565b5f60016111378461010061178d565b6111419190611697565b90508551838682010185831982511617815250805184870111156111655783860181525b509495945050505050565b5f81831115611180575081610e2b565b50919050565b81516111928383610dc8565b50610e558382610f3e565b6040805160a0810182525f808252602080830182905282840182905260608084018390528451808601909552845283015290608082015290565b5f81518084528060208401602086015e5f602082860101526020601f19601f83011685010191505092915050565b602081525f610f6360208301846111d7565b634e487b7160e01b5f52604160045260245ffd5b5f82601f83011261123a575f5ffd5b81356001600160401b0381111561125357611253611217565b604051601f8201601f19908116603f011681016001600160401b038111828210171561128157611281611217565b604052818152838201602001851015611298575f5ffd5b816020850160208301375f918101602001919091529392505050565b5f5f5f5f5f5f5f5f5f5f6101408b8d0312156112ce575f5ffd5b8a35995060208b01356001600160401b038111156112ea575f5ffd5b6112f68d828e0161122b565b99505060408b01356001600160401b03811115611311575f5ffd5b61131d8d828e0161122b565b98505060608b01356001600160401b03811115611338575f5ffd5b6113448d828e0161122b565b97505060808b0135955060a08b01356001600160401b03811115611366575f5ffd5b6113728d828e0161122b565b9a9d999c50979a9699959895975050505060c08401359360e0810135936101008201359350610120909101359150565b5f602082840312156113b2575f5ffd5b81356001600160a01b0381168114610f63575f5ffd5b5f602082840312156113d8575f5ffd5b5035919050565b600181811c908216806113f357607f821691505b60208210810361118057634e487b7160e01b5f52602260045260245ffd5b601f821115610a0057805f5260205f20601f840160051c810160208510156114365750805b601f840160051c820191505b81811015611455575f8155600101611442565b5050505050565b81516001600160401b0381111561147557611475611217565b6114898161148384546113df565b84611411565b6020601f8211600181146114bb575f83156114a45750848201515b5f19600385901b1c1916600184901b178455611455565b5f84815260208120601f198516915b828110156114ea57878501518255602094850194600190920191016114ca565b508482101561150757868401515f19600387901b60f8161c191681555b50505050600190811b01905550565b5f81518060208401855e5f93019283525090919050565b5f61154161153b838c611516565b8a611516565b8881526115516020820189611516565b968752505050602084019290925260408301526060820152608001949350505050565b634e487b7160e01b5f52601160045260245ffd5b8082028115828204841417610e2b57610e2b611574565b634e487b7160e01b5f52601260045260245ffd5b5f826115c1576115c161159f565b500490565b80820180821115610e2b57610e2b611574565b6001600160a01b0389811682526020820189905260408201889052861660608201526001600160e01b03198516608082015260a0810184905260c0810183905261010060e082018190525f90611631908301846111d7565b9a9950505050505050505050565b60018060a01b0384168152826020820152606060408201525f610ab160608301846111d7565b5f60208284031215611675575f5ffd5b81518015158114610f63575f5ffd5b5f826116925761169261159f565b500690565b81810381811115610e2b57610e2b611574565b6001815b60018411156116e5578085048111156116c9576116c9611574565b60018416156116d757908102905b60019390931c9280026116ae565b935093915050565b5f826116fb57506001610e2b565b8161170757505f610e2b565b816001811461171d576002811461172757611743565b6001915050610e2b565b60ff84111561173857611738611574565b50506001821b610e2b565b5060208310610133831016604e8410600b8410161715611766575081810a610e2b565b6117725f1984846116aa565b805f190482111561178557611785611574565b029392505050565b5f610f6383836116ed56fe68747470733a2f2f346661342d31342d3230312d3133392d3135392e6e67726f6b2d667265652e6170702f64617461a264697066735822122021fc0f2819d42ad20079e0212e2a3d9563b79271c5fb06c32c178d725f8d41ce64736f6c634300081d0033",
			"opcodes": "PUSH1 0x80 PUSH1 0x40 MSTORE PUSH1 0x1 PUSH1 0x4 SSTORE CALLVALUE DUP1 ISZERO PUSH2 0x14 JUMPI PUSH0 PUSH0 REVERT JUMPDEST POP CALLER DUP1 PUSH0 DUP2 PUSH2 0x6A JUMPI PUSH1 0x40 MLOAD PUSH3 0x461BCD PUSH1 0xE5 SHL DUP2 MSTORE PUSH1 0x20 PUSH1 0x4 DUP3 ADD MSTORE PUSH1 0x18 PUSH1 0x24 DUP3 ADD MSTORE PUSH32 0x43616E6E6F7420736574206F776E657220746F207A65726F0000000000000000 PUSH1 0x44 DUP3 ADD MSTORE PUSH1 0x64 ADD JUMPDEST PUSH1 0x40 MLOAD DUP1 SWAP2 SUB SWAP1 REVERT JUMPDEST PUSH1 0x6 DUP1 SLOAD PUSH1 0x1 PUSH1 0x1 PUSH1 0xA0 SHL SUB NOT AND PUSH1 0x1 PUSH1 0x1 PUSH1 0xA0 SHL SUB DUP5 DUP2 AND SWAP2 SWAP1 SWAP2 OR SWAP1 SWAP2 SSTORE DUP2 AND ISZERO PUSH2 0x9A JUMPI PUSH2 0x9A DUP2 PUSH2 0xC5 JUMP JUMPDEST POP POP POP PUSH2 0xC0 PUSH20 0x779877A7B0D9E8603169DDBD7836E478B4624789 PUSH2 0x16E PUSH1 0x20 SHL PUSH1 0x20 SHR JUMP JUMPDEST PUSH2 0x190 JUMP JUMPDEST CALLER PUSH1 0x1 PUSH1 0x1 PUSH1 0xA0 SHL SUB DUP3 AND SUB PUSH2 0x11D JUMPI PUSH1 0x40 MLOAD PUSH3 0x461BCD PUSH1 0xE5 SHL DUP2 MSTORE PUSH1 0x20 PUSH1 0x4 DUP3 ADD MSTORE PUSH1 0x17 PUSH1 0x24 DUP3 ADD MSTORE PUSH32 0x43616E6E6F74207472616E7366657220746F2073656C66000000000000000000 PUSH1 0x44 DUP3 ADD MSTORE PUSH1 0x64 ADD PUSH2 0x61 JUMP JUMPDEST PUSH1 0x7 DUP1 SLOAD PUSH1 0x1 PUSH1 0x1 PUSH1 0xA0 SHL SUB NOT AND PUSH1 0x1 PUSH1 0x1 PUSH1 0xA0 SHL SUB DUP4 DUP2 AND SWAP2 DUP3 OR SWAP1 SWAP3 SSTORE PUSH1 0x6 SLOAD PUSH1 0x40 MLOAD SWAP2 SWAP3 AND SWAP1 PUSH32 0xED8889F560326EB138920D842192F0EB3DD22B4F139C87A2C57538E05BAE1278 SWAP1 PUSH0 SWAP1 LOG3 POP JUMP JUMPDEST PUSH1 0x2 DUP1 SLOAD PUSH1 0x1 PUSH1 0x1 PUSH1 0xA0 SHL SUB NOT AND PUSH1 0x1 PUSH1 0x1 PUSH1 0xA0 SHL SUB SWAP3 SWAP1 SWAP3 AND SWAP2 SWAP1 SWAP2 OR SWAP1 SSTORE JUMP JUMPDEST PUSH2 0x17FD DUP1 PUSH2 0x19D PUSH0 CODECOPY PUSH0 RETURN INVALID PUSH1 0x80 PUSH1 0x40 MSTORE CALLVALUE DUP1 ISZERO PUSH2 0xF JUMPI PUSH0 PUSH0 REVERT JUMPDEST POP PUSH1 0x4 CALLDATASIZE LT PUSH2 0x85 JUMPI PUSH0 CALLDATALOAD PUSH1 0xE0 SHR DUP1 PUSH4 0xB86F58FE GT PUSH2 0x58 JUMPI DUP1 PUSH4 0xB86F58FE EQ PUSH2 0xDF JUMPI DUP1 PUSH4 0xD65E005E EQ PUSH2 0xE7 JUMPI DUP1 PUSH4 0xF0BA8440 EQ PUSH2 0xFA JUMPI DUP1 PUSH4 0xF2FDE38B EQ PUSH2 0x10D JUMPI PUSH0 PUSH0 REVERT JUMPDEST DUP1 PUSH4 0x9BD5A60 EQ PUSH2 0x89 JUMPI DUP1 PUSH4 0x3E9DB5E5 EQ PUSH2 0xA7 JUMPI DUP1 PUSH4 0x79BA5097 EQ PUSH2 0xBC JUMPI DUP1 PUSH4 0x8DA5CB5B EQ PUSH2 0xC4 JUMPI JUMPDEST PUSH0 PUSH0 REVERT JUMPDEST PUSH2 0x91 PUSH2 0x120 JUMP JUMPDEST PUSH1 0x40 MLOAD PUSH2 0x9E SWAP2 SWAP1 PUSH2 0x1205 JUMP JUMPDEST PUSH1 0x40 MLOAD DUP1 SWAP2 SUB SWAP1 RETURN JUMPDEST PUSH2 0xBA PUSH2 0xB5 CALLDATASIZE PUSH1 0x4 PUSH2 0x12B4 JUMP JUMPDEST PUSH2 0x1AC JUMP JUMPDEST STOP JUMPDEST PUSH2 0xBA PUSH2 0x2C2 JUMP JUMPDEST PUSH1 0x6 SLOAD PUSH1 0x40 MLOAD PUSH1 0x1 PUSH1 0x1 PUSH1 0xA0 SHL SUB SWAP1 SWAP2 AND DUP2 MSTORE PUSH1 0x20 ADD PUSH2 0x9E JUMP JUMPDEST PUSH2 0x91 PUSH2 0x36F JUMP JUMPDEST PUSH2 0xBA PUSH2 0xF5 CALLDATASIZE PUSH1 0x4 PUSH2 0x13A2 JUMP JUMPDEST PUSH2 0x37C JUMP JUMPDEST PUSH2 0x91 PUSH2 0x108 CALLDATASIZE PUSH1 0x4 PUSH2 0x13C8 JUMP JUMPDEST PUSH2 0xA05 JUMP JUMPDEST PUSH2 0xBA PUSH2 0x11B CALLDATASIZE PUSH1 0x4 PUSH2 0x13A2 JUMP JUMPDEST PUSH2 0xA2C JUMP JUMPDEST PUSH1 0x9 DUP1 SLOAD PUSH2 0x12D SWAP1 PUSH2 0x13DF JUMP JUMPDEST DUP1 PUSH1 0x1F ADD PUSH1 0x20 DUP1 SWAP2 DIV MUL PUSH1 0x20 ADD PUSH1 0x40 MLOAD SWAP1 DUP2 ADD PUSH1 0x40 MSTORE DUP1 SWAP3 SWAP2 SWAP1 DUP2 DUP2 MSTORE PUSH1 0x20 ADD DUP3 DUP1 SLOAD PUSH2 0x159 SWAP1 PUSH2 0x13DF JUMP JUMPDEST DUP1 ISZERO PUSH2 0x1A4 JUMPI DUP1 PUSH1 0x1F LT PUSH2 0x17B JUMPI PUSH2 0x100 DUP1 DUP4 SLOAD DIV MUL DUP4 MSTORE SWAP2 PUSH1 0x20 ADD SWAP2 PUSH2 0x1A4 JUMP JUMPDEST DUP3 ADD SWAP2 SWAP1 PUSH0 MSTORE PUSH1 0x20 PUSH0 KECCAK256 SWAP1 JUMPDEST DUP2 SLOAD DUP2 MSTORE SWAP1 PUSH1 0x1 ADD SWAP1 PUSH1 0x20 ADD DUP1 DUP4 GT PUSH2 0x187 JUMPI DUP3 SWAP1 SUB PUSH1 0x1F AND DUP3 ADD SWAP2 JUMPDEST POP POP POP POP POP DUP2 JUMP JUMPDEST PUSH0 DUP11 DUP2 MSTORE PUSH1 0x5 PUSH1 0x20 MSTORE PUSH1 0x40 SWAP1 KECCAK256 SLOAD DUP11 SWAP1 PUSH1 0x1 PUSH1 0x1 PUSH1 0xA0 SHL SUB AND CALLER EQ PUSH2 0x229 JUMPI PUSH1 0x40 MLOAD PUSH3 0x461BCD PUSH1 0xE5 SHL DUP2 MSTORE PUSH1 0x20 PUSH1 0x4 DUP3 ADD MSTORE PUSH1 0x28 PUSH1 0x24 DUP3 ADD MSTORE PUSH32 0x536F75726365206D75737420626520746865206F7261636C65206F6620746865 PUSH1 0x44 DUP3 ADD MSTORE PUSH8 0x81C995C5D595CDD PUSH1 0xC2 SHL PUSH1 0x64 DUP3 ADD MSTORE PUSH1 0x84 ADD JUMPDEST PUSH1 0x40 MLOAD DUP1 SWAP2 SUB SWAP1 REVERT JUMPDEST PUSH0 DUP2 DUP2 MSTORE PUSH1 0x5 PUSH1 0x20 MSTORE PUSH1 0x40 DUP1 DUP3 KECCAK256 DUP1 SLOAD PUSH1 0x1 PUSH1 0x1 PUSH1 0xA0 SHL SUB NOT AND SWAP1 SSTORE MLOAD DUP3 SWAP2 PUSH32 0x7CC135E0CEBB02C3480AE5D74D377283180A2601F8F644EDF7987B009316C63A SWAP2 LOG2 PUSH1 0x9 PUSH2 0x277 DUP10 DUP3 PUSH2 0x145C JUMP JUMPDEST POP DUP10 DUP10 DUP9 DUP9 DUP9 DUP9 DUP9 DUP9 PUSH1 0x40 MLOAD PUSH1 0x20 ADD PUSH2 0x297 SWAP9 SWAP8 SWAP7 SWAP6 SWAP5 SWAP4 SWAP3 SWAP2 SWAP1 PUSH2 0x152D JUMP JUMPDEST PUSH1 0x40 MLOAD PUSH1 0x20 DUP2 DUP4 SUB SUB DUP2 MSTORE SWAP1 PUSH1 0x40 MSTORE PUSH1 0xA SWAP1 DUP2 PUSH2 0x2B4 SWAP2 SWAP1 PUSH2 0x145C JUMP JUMPDEST POP POP POP POP POP POP POP POP POP POP POP POP JUMP JUMPDEST PUSH1 0x7 SLOAD PUSH1 0x1 PUSH1 0x1 PUSH1 0xA0 SHL SUB AND CALLER EQ PUSH2 0x315 JUMPI PUSH1 0x40 MLOAD PUSH3 0x461BCD PUSH1 0xE5 SHL DUP2 MSTORE PUSH1 0x20 PUSH1 0x4 DUP3 ADD MSTORE PUSH1 0x16 PUSH1 0x24 DUP3 ADD MSTORE PUSH22 0x26BAB9BA10313290383937B837B9B2B21037BBB732B9 PUSH1 0x51 SHL PUSH1 0x44 DUP3 ADD MSTORE PUSH1 0x64 ADD PUSH2 0x220 JUMP JUMPDEST PUSH1 0x6 DUP1 SLOAD PUSH1 0x1 PUSH1 0x1 PUSH1 0xA0 SHL SUB NOT DUP1 DUP3 AND CALLER SWAP1 DUP2 OR SWAP1 SWAP4 SSTORE PUSH1 0x7 DUP1 SLOAD SWAP1 SWAP2 AND SWAP1 SSTORE PUSH1 0x40 MLOAD PUSH1 0x1 PUSH1 0x1 PUSH1 0xA0 SHL SUB SWAP1 SWAP2 AND SWAP2 SWAP1 DUP3 SWAP1 PUSH32 0x8BE0079C531659141344CD1FD0A4F28419497F9722A3DAAFE3B4186F6B6457E0 SWAP1 PUSH0 SWAP1 LOG3 POP JUMP JUMPDEST PUSH1 0xA DUP1 SLOAD PUSH2 0x12D SWAP1 PUSH2 0x13DF JUMP JUMPDEST PUSH2 0x384 PUSH2 0xA40 JUMP JUMPDEST PUSH0 PUSH2 0x3B7 PUSH32 0x3230653739666430633863623462326439666263643930363935316461616337 ADDRESS PUSH4 0x3E9DB5E5 PUSH1 0xE0 SHL PUSH2 0xA95 JUMP JUMPDEST SWAP1 POP PUSH2 0x404 PUSH1 0x40 MLOAD DUP1 PUSH1 0x40 ADD PUSH1 0x40 MSTORE DUP1 PUSH1 0xE DUP2 MSTORE PUSH1 0x20 ADD PUSH14 0x75726C50726F6A6563744E616D65 PUSH1 0x90 SHL DUP2 MSTORE POP PUSH1 0x40 MLOAD DUP1 PUSH1 0x60 ADD PUSH1 0x40 MSTORE DUP1 PUSH1 0x2F DUP2 MSTORE PUSH1 0x20 ADD PUSH2 0x1799 PUSH1 0x2F SWAP2 CODECOPY DUP4 SWAP2 SWAP1 PUSH2 0xABA JUMP JUMPDEST PUSH2 0x463 PUSH1 0x40 MLOAD DUP1 PUSH1 0x40 ADD PUSH1 0x40 MSTORE DUP1 PUSH1 0xF DUP2 MSTORE PUSH1 0x20 ADD PUSH15 0x7061746850726F6A6563744E616D65 PUSH1 0x88 SHL DUP2 MSTORE POP PUSH1 0x40 MLOAD DUP1 PUSH1 0x40 ADD PUSH1 0x40 MSTORE DUP1 PUSH1 0xB DUP2 MSTORE PUSH1 0x20 ADD PUSH11 0x70726F6A6563744E616D65 PUSH1 0xA8 SHL DUP2 MSTORE POP DUP4 PUSH2 0xABA SWAP1 SWAP3 SWAP2 SWAP1 PUSH4 0xFFFFFFFF AND JUMP JUMPDEST PUSH2 0x4AB PUSH1 0x40 MLOAD DUP1 PUSH1 0x40 ADD PUSH1 0x40 MSTORE DUP1 PUSH1 0xB DUP2 MSTORE PUSH1 0x20 ADD PUSH11 0x3AB9362637B1B0BA34B7B7 PUSH1 0xA9 SHL DUP2 MSTORE POP PUSH1 0x40 MLOAD DUP1 PUSH1 0x60 ADD PUSH1 0x40 MSTORE DUP1 PUSH1 0x2F DUP2 MSTORE PUSH1 0x20 ADD PUSH2 0x1799 PUSH1 0x2F SWAP2 CODECOPY DUP4 SWAP2 SWAP1 PUSH2 0xABA JUMP JUMPDEST PUSH2 0x504 PUSH1 0x40 MLOAD DUP1 PUSH1 0x40 ADD PUSH1 0x40 MSTORE DUP1 PUSH1 0xC DUP2 MSTORE PUSH1 0x20 ADD PUSH12 0x3830BA342637B1B0BA34B7B7 PUSH1 0xA1 SHL DUP2 MSTORE POP PUSH1 0x40 MLOAD DUP1 PUSH1 0x40 ADD PUSH1 0x40 MSTORE DUP1 PUSH1 0x8 DUP2 MSTORE PUSH1 0x20 ADD PUSH8 0x3637B1B0BA34B7B7 PUSH1 0xC1 SHL DUP2 MSTORE POP DUP4 PUSH2 0xABA SWAP1 SWAP3 SWAP2 SWAP1 PUSH4 0xFFFFFFFF AND JUMP JUMPDEST PUSH2 0x548 PUSH1 0x40 MLOAD DUP1 PUSH1 0x40 ADD PUSH1 0x40 MSTORE DUP1 PUSH1 0x7 DUP2 MSTORE PUSH1 0x20 ADD PUSH7 0xEAE4D890C2E6D PUSH1 0xCB SHL DUP2 MSTORE POP PUSH1 0x40 MLOAD DUP1 PUSH1 0x60 ADD PUSH1 0x40 MSTORE DUP1 PUSH1 0x2F DUP2 MSTORE PUSH1 0x20 ADD PUSH2 0x1799 PUSH1 0x2F SWAP2 CODECOPY DUP4 SWAP2 SWAP1 PUSH2 0xABA JUMP JUMPDEST PUSH2 0x599 PUSH1 0x40 MLOAD DUP1 PUSH1 0x40 ADD PUSH1 0x40 MSTORE DUP1 PUSH1 0x8 DUP2 MSTORE PUSH1 0x20 ADD PUSH8 0xE0C2E8D090C2E6D PUSH1 0xC3 SHL DUP2 MSTORE POP PUSH1 0x40 MLOAD DUP1 PUSH1 0x40 ADD PUSH1 0x40 MSTORE DUP1 PUSH1 0x4 DUP2 MSTORE PUSH1 0x20 ADD PUSH4 0xD0C2E6D PUSH1 0xE3 SHL DUP2 MSTORE POP DUP4 PUSH2 0xABA SWAP1 SWAP3 SWAP2 SWAP1 PUSH4 0xFFFFFFFF AND JUMP JUMPDEST PUSH2 0x5EB PUSH1 0x40 MLOAD DUP1 PUSH1 0x40 ADD PUSH1 0x40 MSTORE DUP1 PUSH1 0x15 DUP2 MSTORE PUSH1 0x20 ADD PUSH21 0x75726C4578706563746564526564756374696F6E73 PUSH1 0x58 SHL DUP2 MSTORE POP PUSH1 0x40 MLOAD DUP1 PUSH1 0x60 ADD PUSH1 0x40 MSTORE DUP1 PUSH1 0x2F DUP2 MSTORE PUSH1 0x20 ADD PUSH2 0x1799 PUSH1 0x2F SWAP2 CODECOPY DUP4 SWAP2 SWAP1 PUSH2 0xABA JUMP JUMPDEST PUSH2 0x658 PUSH1 0x40 MLOAD DUP1 PUSH1 0x40 ADD PUSH1 0x40 MSTORE DUP1 PUSH1 0x16 DUP2 MSTORE PUSH1 0x20 ADD PUSH22 0x706174684578706563746564526564756374696F6E73 PUSH1 0x50 SHL DUP2 MSTORE POP PUSH1 0x40 MLOAD DUP1 PUSH1 0x40 ADD PUSH1 0x40 MSTORE DUP1 PUSH1 0x12 DUP2 MSTORE PUSH1 0x20 ADD PUSH18 0x6578706563746564526564756374696F6E73 PUSH1 0x70 SHL DUP2 MSTORE POP DUP4 PUSH2 0xABA SWAP1 SWAP3 SWAP2 SWAP1 PUSH4 0xFFFFFFFF AND JUMP JUMPDEST PUSH2 0x6A3 PUSH1 0x40 MLOAD DUP1 PUSH1 0x40 ADD PUSH1 0x40 MSTORE DUP1 PUSH1 0xE DUP2 MSTORE PUSH1 0x20 ADD PUSH14 0x75726C4D6574686F646F6C6F6779 PUSH1 0x90 SHL DUP2 MSTORE POP PUSH1 0x40 MLOAD DUP1 PUSH1 0x60 ADD PUSH1 0x40 MSTORE DUP1 PUSH1 0x2F DUP2 MSTORE PUSH1 0x20 ADD PUSH2 0x1799 PUSH1 0x2F SWAP2 CODECOPY DUP4 SWAP2 SWAP1 PUSH2 0xABA JUMP JUMPDEST PUSH2 0x702 PUSH1 0x40 MLOAD DUP1 PUSH1 0x40 ADD PUSH1 0x40 MSTORE DUP1 PUSH1 0xF DUP2 MSTORE PUSH1 0x20 ADD PUSH15 0x706174684D6574686F646F6C6F6779 PUSH1 0x88 SHL DUP2 MSTORE POP PUSH1 0x40 MLOAD DUP1 PUSH1 0x40 ADD PUSH1 0x40 MSTORE DUP1 PUSH1 0xB DUP2 MSTORE PUSH1 0x20 ADD PUSH11 0x6D6574686F646F6C6F6779 PUSH1 0xA8 SHL DUP2 MSTORE POP DUP4 PUSH2 0xABA SWAP1 SWAP3 SWAP2 SWAP1 PUSH4 0xFFFFFFFF AND JUMP JUMPDEST PUSH2 0x752 PUSH1 0x40 MLOAD DUP1 PUSH1 0x40 ADD PUSH1 0x40 MSTORE DUP1 PUSH1 0x13 DUP2 MSTORE PUSH1 0x20 ADD PUSH19 0x75726C50726F6A656374537461727444617465 PUSH1 0x68 SHL DUP2 MSTORE POP PUSH1 0x40 MLOAD DUP1 PUSH1 0x60 ADD PUSH1 0x40 MSTORE DUP1 PUSH1 0x2F DUP2 MSTORE PUSH1 0x20 ADD PUSH2 0x1799 PUSH1 0x2F SWAP2 CODECOPY DUP4 SWAP2 SWAP1 PUSH2 0xABA JUMP JUMPDEST PUSH2 0x7BB PUSH1 0x40 MLOAD DUP1 PUSH1 0x40 ADD PUSH1 0x40 MSTORE DUP1 PUSH1 0x14 DUP2 MSTORE PUSH1 0x20 ADD PUSH20 0x7061746850726F6A656374537461727444617465 PUSH1 0x60 SHL DUP2 MSTORE POP PUSH1 0x40 MLOAD DUP1 PUSH1 0x40 ADD PUSH1 0x40 MSTORE DUP1 PUSH1 0x10 DUP2 MSTORE PUSH1 0x20 ADD PUSH16 0x70726F6A656374537461727444617465 PUSH1 0x80 SHL DUP2 MSTORE POP DUP4 PUSH2 0xABA SWAP1 SWAP3 SWAP2 SWAP1 PUSH4 0xFFFFFFFF AND JUMP JUMPDEST PUSH2 0x809 PUSH1 0x40 MLOAD DUP1 PUSH1 0x40 ADD PUSH1 0x40 MSTORE DUP1 PUSH1 0x11 DUP2 MSTORE PUSH1 0x20 ADD PUSH17 0x75726C56616C69646174696F6E44617465 PUSH1 0x78 SHL DUP2 MSTORE POP PUSH1 0x40 MLOAD DUP1 PUSH1 0x60 ADD PUSH1 0x40 MSTORE DUP1 PUSH1 0x2F DUP2 MSTORE PUSH1 0x20 ADD PUSH2 0x1799 PUSH1 0x2F SWAP2 CODECOPY DUP4 SWAP2 SWAP1 PUSH2 0xABA JUMP JUMPDEST PUSH2 0x86E PUSH1 0x40 MLOAD DUP1 PUSH1 0x40 ADD PUSH1 0x40 MSTORE DUP1 PUSH1 0x12 DUP2 MSTORE PUSH1 0x20 ADD PUSH18 0x7061746856616C69646174696F6E44617465 PUSH1 0x70 SHL DUP2 MSTORE POP PUSH1 0x40 MLOAD DUP1 PUSH1 0x40 ADD PUSH1 0x40 MSTORE DUP1 PUSH1 0xE DUP2 MSTORE PUSH1 0x20 ADD PUSH14 0x76616C69646174696F6E44617465 PUSH1 0x90 SHL DUP2 MSTORE POP DUP4 PUSH2 0xABA SWAP1 SWAP3 SWAP2 SWAP1 PUSH4 0xFFFFFFFF AND JUMP JUMPDEST PUSH2 0x8BE PUSH1 0x40 MLOAD DUP1 PUSH1 0x40 ADD PUSH1 0x40 MSTORE DUP1 PUSH1 0x13 DUP2 MSTORE PUSH1 0x20 ADD PUSH19 0x75726C566572696669636174696F6E44617465 PUSH1 0x68 SHL DUP2 MSTORE POP PUSH1 0x40 MLOAD DUP1 PUSH1 0x60 ADD PUSH1 0x40 MSTORE DUP1 PUSH1 0x2F DUP2 MSTORE PUSH1 0x20 ADD PUSH2 0x1799 PUSH1 0x2F SWAP2 CODECOPY DUP4 SWAP2 SWAP1 PUSH2 0xABA JUMP JUMPDEST PUSH2 0x927 PUSH1 0x40 MLOAD DUP1 PUSH1 0x40 ADD PUSH1 0x40 MSTORE DUP1 PUSH1 0x14 DUP2 MSTORE PUSH1 0x20 ADD PUSH20 0x70617468566572696669636174696F6E44617465 PUSH1 0x60 SHL DUP2 MSTORE POP PUSH1 0x40 MLOAD DUP1 PUSH1 0x40 ADD PUSH1 0x40 MSTORE DUP1 PUSH1 0x10 DUP2 MSTORE PUSH1 0x20 ADD PUSH16 0x766572696669636174696F6E44617465 PUSH1 0x80 SHL DUP2 MSTORE POP DUP4 PUSH2 0xABA SWAP1 SWAP3 SWAP2 SWAP1 PUSH4 0xFFFFFFFF AND JUMP JUMPDEST PUSH2 0x974 PUSH1 0x40 MLOAD DUP1 PUSH1 0x40 ADD PUSH1 0x40 MSTORE DUP1 PUSH1 0x10 DUP2 MSTORE PUSH1 0x20 ADD PUSH16 0x75726C49737375656443726564697473 PUSH1 0x80 SHL DUP2 MSTORE POP PUSH1 0x40 MLOAD DUP1 PUSH1 0x60 ADD PUSH1 0x40 MSTORE DUP1 PUSH1 0x2F DUP2 MSTORE PUSH1 0x20 ADD PUSH2 0x1799 PUSH1 0x2F SWAP2 CODECOPY DUP4 SWAP2 SWAP1 PUSH2 0xABA JUMP JUMPDEST PUSH2 0x9D7 PUSH1 0x40 MLOAD DUP1 PUSH1 0x40 ADD PUSH1 0x40 MSTORE DUP1 PUSH1 0x11 DUP2 MSTORE PUSH1 0x20 ADD PUSH17 0x7061746849737375656443726564697473 PUSH1 0x78 SHL DUP2 MSTORE POP PUSH1 0x40 MLOAD DUP1 PUSH1 0x40 ADD PUSH1 0x40 MSTORE DUP1 PUSH1 0xD DUP2 MSTORE PUSH1 0x20 ADD PUSH13 0x69737375656443726564697473 PUSH1 0x98 SHL DUP2 MSTORE POP DUP4 PUSH2 0xABA SWAP1 SWAP3 SWAP2 SWAP1 PUSH4 0xFFFFFFFF AND JUMP JUMPDEST PUSH2 0xA00 DUP3 DUP3 PUSH1 0xA PUSH2 0x9F1 PUSH8 0xDE0B6B3A7640000 PUSH1 0x1 PUSH2 0x1588 JUMP JUMPDEST PUSH2 0x9FB SWAP2 SWAP1 PUSH2 0x15B3 JUMP JUMPDEST PUSH2 0xAD8 JUMP JUMPDEST POP POP POP JUMP JUMPDEST PUSH1 0x8 DUP2 DUP2 SLOAD DUP2 LT PUSH2 0xA14 JUMPI PUSH0 DUP1 REVERT JUMPDEST SWAP1 PUSH0 MSTORE PUSH1 0x20 PUSH0 KECCAK256 ADD PUSH0 SWAP2 POP SWAP1 POP DUP1 SLOAD PUSH2 0x12D SWAP1 PUSH2 0x13DF JUMP JUMPDEST PUSH2 0xA34 PUSH2 0xA40 JUMP JUMPDEST PUSH2 0xA3D DUP2 PUSH2 0xB69 JUMP JUMPDEST POP JUMP JUMPDEST PUSH1 0x6 SLOAD PUSH1 0x1 PUSH1 0x1 PUSH1 0xA0 SHL SUB AND CALLER EQ PUSH2 0xA93 JUMPI PUSH1 0x40 MLOAD PUSH3 0x461BCD PUSH1 0xE5 SHL DUP2 MSTORE PUSH1 0x20 PUSH1 0x4 DUP3 ADD MSTORE PUSH1 0x16 PUSH1 0x24 DUP3 ADD MSTORE PUSH22 0x27B7363C9031B0B63630B1363290313C9037BBB732B9 PUSH1 0x51 SHL PUSH1 0x44 DUP3 ADD MSTORE PUSH1 0x64 ADD PUSH2 0x220 JUMP JUMPDEST JUMP JUMPDEST PUSH2 0xA9D PUSH2 0x119D JUMP JUMPDEST PUSH2 0xAA5 PUSH2 0x119D JUMP JUMPDEST PUSH2 0xAB1 DUP2 DUP7 DUP7 DUP7 PUSH2 0xC12 JUMP JUMPDEST SWAP6 SWAP5 POP POP POP POP POP JUMP JUMPDEST PUSH1 0x80 DUP4 ADD MLOAD PUSH2 0xAC9 SWAP1 DUP4 PUSH2 0xC58 JUMP JUMPDEST PUSH1 0x80 DUP4 ADD MLOAD PUSH2 0xA00 SWAP1 DUP3 PUSH2 0xC58 JUMP JUMPDEST PUSH1 0x4 SLOAD PUSH0 SWAP1 PUSH2 0xAE8 DUP2 PUSH1 0x1 PUSH2 0x15C6 JUMP JUMPDEST PUSH1 0x4 SSTORE DUP4 MLOAD PUSH1 0x40 DUP1 DUP7 ADD MLOAD PUSH1 0x80 DUP8 ADD MLOAD MLOAD SWAP2 MLOAD PUSH0 SWAP4 PUSH4 0x20214CA3 PUSH1 0xE1 SHL SWAP4 PUSH2 0xB1F SWAP4 DUP7 SWAP4 DUP5 SWAP4 SWAP3 ADDRESS SWAP3 SWAP2 DUP11 SWAP2 PUSH1 0x1 SWAP2 PUSH1 0x24 ADD PUSH2 0x15D9 JUMP JUMPDEST PUSH1 0x40 DUP1 MLOAD PUSH1 0x1F NOT DUP2 DUP5 SUB ADD DUP2 MSTORE SWAP2 SWAP1 MSTORE PUSH1 0x20 DUP2 ADD DUP1 MLOAD PUSH1 0x1 PUSH1 0x1 PUSH1 0xE0 SHL SUB AND PUSH1 0x1 PUSH1 0x1 PUSH1 0xE0 SHL SUB NOT SWAP1 SWAP4 AND SWAP3 SWAP1 SWAP3 OR SWAP1 SWAP2 MSTORE SWAP1 POP PUSH2 0xB5F DUP7 DUP4 DUP7 DUP5 PUSH2 0xC6F JUMP JUMPDEST SWAP7 SWAP6 POP POP POP POP POP POP JUMP JUMPDEST CALLER PUSH1 0x1 PUSH1 0x1 PUSH1 0xA0 SHL SUB DUP3 AND SUB PUSH2 0xBC1 JUMPI PUSH1 0x40 MLOAD PUSH3 0x461BCD PUSH1 0xE5 SHL DUP2 MSTORE PUSH1 0x20 PUSH1 0x4 DUP3 ADD MSTORE PUSH1 0x17 PUSH1 0x24 DUP3 ADD MSTORE PUSH32 0x43616E6E6F74207472616E7366657220746F2073656C66000000000000000000 PUSH1 0x44 DUP3 ADD MSTORE PUSH1 0x64 ADD PUSH2 0x220 JUMP JUMPDEST PUSH1 0x7 DUP1 SLOAD PUSH1 0x1 PUSH1 0x1 PUSH1 0xA0 SHL SUB NOT AND PUSH1 0x1 PUSH1 0x1 PUSH1 0xA0 SHL SUB DUP4 DUP2 AND SWAP2 DUP3 OR SWAP1 SWAP3 SSTORE PUSH1 0x6 SLOAD PUSH1 0x40 MLOAD SWAP2 SWAP3 AND SWAP1 PUSH32 0xED8889F560326EB138920D842192F0EB3DD22B4F139C87A2C57538E05BAE1278 SWAP1 PUSH0 SWAP1 LOG3 POP JUMP JUMPDEST PUSH2 0xC1A PUSH2 0x119D JUMP JUMPDEST PUSH2 0xC2A DUP6 PUSH1 0x80 ADD MLOAD PUSH2 0x100 PUSH2 0xDC8 JUMP JUMPDEST POP POP DUP3 DUP5 MSTORE PUSH1 0x1 PUSH1 0x1 PUSH1 0xA0 SHL SUB DUP3 AND PUSH1 0x20 DUP6 ADD MSTORE PUSH1 0x1 PUSH1 0x1 PUSH1 0xE0 SHL SUB NOT DUP2 AND PUSH1 0x40 DUP6 ADD MSTORE DUP4 JUMPDEST SWAP5 SWAP4 POP POP POP POP JUMP JUMPDEST PUSH2 0xC65 DUP3 PUSH1 0x3 DUP4 MLOAD PUSH2 0xE31 JUMP JUMPDEST PUSH2 0xA00 DUP3 DUP3 PUSH2 0xF3E JUMP JUMPDEST PUSH1 0x40 MLOAD PUSH12 0xFFFFFFFFFFFFFFFFFFFFFFFF NOT ADDRESS PUSH1 0x60 SHL AND PUSH1 0x20 DUP3 ADD MSTORE PUSH1 0x34 DUP2 ADD DUP5 SWAP1 MSTORE PUSH0 SWAP1 PUSH1 0x54 ADD PUSH1 0x40 DUP1 MLOAD DUP1 DUP4 SUB PUSH1 0x1F NOT ADD DUP2 MSTORE DUP3 DUP3 MSTORE DUP1 MLOAD PUSH1 0x20 SWAP2 DUP3 ADD KECCAK256 PUSH0 DUP2 DUP2 MSTORE PUSH1 0x5 SWAP1 SWAP3 MSTORE SWAP2 DUP2 KECCAK256 DUP1 SLOAD PUSH1 0x1 PUSH1 0x1 PUSH1 0xA0 SHL SUB NOT AND PUSH1 0x1 PUSH1 0x1 PUSH1 0xA0 SHL SUB DUP11 AND OR SWAP1 SSTORE SWAP1 SWAP3 POP DUP3 SWAP2 PUSH32 0xB5E6E01E79F91267DC17B4E6314D5D4D03593D2CEEE0FBB452B750BD70EA5AF9 SWAP2 SWAP1 LOG2 PUSH1 0x2 SLOAD PUSH1 0x40 MLOAD PUSH4 0x2000575 PUSH1 0xE5 SHL DUP2 MSTORE PUSH1 0x1 PUSH1 0x1 PUSH1 0xA0 SHL SUB SWAP1 SWAP2 AND SWAP1 PUSH4 0x4000AEA0 SWAP1 PUSH2 0xD30 SWAP1 DUP9 SWAP1 DUP8 SWAP1 DUP8 SWAP1 PUSH1 0x4 ADD PUSH2 0x163F JUMP JUMPDEST PUSH1 0x20 PUSH1 0x40 MLOAD DUP1 DUP4 SUB DUP2 PUSH0 DUP8 GAS CALL ISZERO DUP1 ISZERO PUSH2 0xD4C JUMPI RETURNDATASIZE PUSH0 PUSH0 RETURNDATACOPY RETURNDATASIZE PUSH0 REVERT JUMPDEST POP POP POP POP PUSH1 0x40 MLOAD RETURNDATASIZE PUSH1 0x1F NOT PUSH1 0x1F DUP3 ADD AND DUP3 ADD DUP1 PUSH1 0x40 MSTORE POP DUP2 ADD SWAP1 PUSH2 0xD70 SWAP2 SWAP1 PUSH2 0x1665 JUMP JUMPDEST PUSH2 0xC50 JUMPI PUSH1 0x40 MLOAD PUSH3 0x461BCD PUSH1 0xE5 SHL DUP2 MSTORE PUSH1 0x20 PUSH1 0x4 DUP3 ADD MSTORE PUSH1 0x23 PUSH1 0x24 DUP3 ADD MSTORE PUSH32 0x756E61626C6520746F207472616E73666572416E6443616C6C20746F206F7261 PUSH1 0x44 DUP3 ADD MSTORE PUSH3 0x636C65 PUSH1 0xE8 SHL PUSH1 0x64 DUP3 ADD MSTORE PUSH1 0x84 ADD PUSH2 0x220 JUMP JUMPDEST PUSH1 0x40 DUP1 MLOAD DUP1 DUP3 ADD SWAP1 SWAP2 MSTORE PUSH1 0x60 DUP2 MSTORE PUSH0 PUSH1 0x20 DUP3 ADD MSTORE PUSH2 0xDE7 PUSH1 0x20 DUP4 PUSH2 0x1684 JUMP JUMPDEST ISZERO PUSH2 0xE0F JUMPI PUSH2 0xDF7 PUSH1 0x20 DUP4 PUSH2 0x1684 JUMP JUMPDEST PUSH2 0xE02 SWAP1 PUSH1 0x20 PUSH2 0x1697 JUMP JUMPDEST PUSH2 0xE0C SWAP1 DUP4 PUSH2 0x15C6 JUMP JUMPDEST SWAP2 POP JUMPDEST POP PUSH1 0x20 DUP1 DUP4 ADD DUP3 SWAP1 MSTORE PUSH1 0x40 DUP1 MLOAD DUP1 DUP6 MSTORE PUSH0 DUP2 MSTORE DUP4 ADD SWAP1 SWAP2 ADD SWAP1 MSTORE DUP2 JUMPDEST SWAP3 SWAP2 POP POP JUMP JUMPDEST PUSH1 0x17 DUP2 PUSH1 0x1 PUSH1 0x1 PUSH1 0x40 SHL SUB AND GT PUSH2 0xE5B JUMPI PUSH2 0xE55 DUP4 PUSH1 0xE0 PUSH1 0x5 DUP6 SWAP1 SHL AND DUP4 OR PUSH2 0xF6A JUMP JUMPDEST POP POP POP POP JUMP JUMPDEST PUSH1 0xFF DUP2 PUSH1 0x1 PUSH1 0x1 PUSH1 0x40 SHL SUB AND GT PUSH2 0xE97 JUMPI PUSH2 0xE81 DUP4 PUSH1 0x18 PUSH2 0x1FE0 PUSH1 0x5 DUP7 SWAP1 SHL AND OR PUSH2 0xF6A JUMP JUMPDEST POP PUSH2 0xE55 DUP4 PUSH1 0x1 PUSH1 0x1 PUSH1 0x40 SHL SUB DUP4 AND PUSH1 0x1 PUSH2 0xF8D JUMP JUMPDEST PUSH2 0xFFFF DUP2 PUSH1 0x1 PUSH1 0x1 PUSH1 0x40 SHL SUB AND GT PUSH2 0xED4 JUMPI PUSH2 0xEBE DUP4 PUSH1 0x19 PUSH2 0x1FE0 PUSH1 0x5 DUP7 SWAP1 SHL AND OR PUSH2 0xF6A JUMP JUMPDEST POP PUSH2 0xE55 DUP4 PUSH1 0x1 PUSH1 0x1 PUSH1 0x40 SHL SUB DUP4 AND PUSH1 0x2 PUSH2 0xF8D JUMP JUMPDEST PUSH4 0xFFFFFFFF DUP2 PUSH1 0x1 PUSH1 0x1 PUSH1 0x40 SHL SUB AND GT PUSH2 0xF13 JUMPI PUSH2 0xEFD DUP4 PUSH1 0x1A PUSH2 0x1FE0 PUSH1 0x5 DUP7 SWAP1 SHL AND OR PUSH2 0xF6A JUMP JUMPDEST POP PUSH2 0xE55 DUP4 PUSH1 0x1 PUSH1 0x1 PUSH1 0x40 SHL SUB DUP4 AND PUSH1 0x4 PUSH2 0xF8D JUMP JUMPDEST PUSH2 0xF28 DUP4 PUSH1 0x1B PUSH2 0x1FE0 PUSH1 0x5 DUP7 SWAP1 SHL AND OR PUSH2 0xF6A JUMP JUMPDEST POP PUSH2 0xE55 DUP4 PUSH1 0x1 PUSH1 0x1 PUSH1 0x40 SHL SUB DUP4 AND PUSH1 0x8 PUSH2 0xF8D JUMP JUMPDEST PUSH1 0x40 DUP1 MLOAD DUP1 DUP3 ADD SWAP1 SWAP2 MSTORE PUSH1 0x60 DUP2 MSTORE PUSH0 PUSH1 0x20 DUP3 ADD MSTORE PUSH2 0xF63 DUP4 DUP5 PUSH0 ADD MLOAD MLOAD DUP5 DUP6 MLOAD PUSH2 0xFB1 JUMP JUMPDEST SWAP4 SWAP3 POP POP POP JUMP JUMPDEST PUSH1 0x40 DUP1 MLOAD DUP1 DUP3 ADD SWAP1 SWAP2 MSTORE PUSH1 0x60 DUP2 MSTORE PUSH0 PUSH1 0x20 DUP3 ADD MSTORE PUSH2 0xF63 DUP4 DUP5 PUSH0 ADD MLOAD MLOAD DUP5 PUSH2 0x1097 JUMP JUMPDEST PUSH1 0x40 DUP1 MLOAD DUP1 DUP3 ADD SWAP1 SWAP2 MSTORE PUSH1 0x60 DUP2 MSTORE PUSH0 PUSH1 0x20 DUP3 ADD MSTORE PUSH2 0xC50 DUP5 DUP6 PUSH0 ADD MLOAD MLOAD DUP6 DUP6 PUSH2 0x10F1 JUMP JUMPDEST PUSH1 0x40 DUP1 MLOAD DUP1 DUP3 ADD SWAP1 SWAP2 MSTORE PUSH1 0x60 DUP2 MSTORE PUSH0 PUSH1 0x20 DUP3 ADD MSTORE DUP3 MLOAD DUP3 GT ISZERO PUSH2 0xFD2 JUMPI PUSH0 PUSH0 REVERT JUMPDEST PUSH1 0x20 DUP6 ADD MLOAD PUSH2 0xFE1 DUP4 DUP7 PUSH2 0x15C6 JUMP JUMPDEST GT ISZERO PUSH2 0x1014 JUMPI PUSH2 0x1014 DUP6 PUSH2 0x1004 DUP8 PUSH1 0x20 ADD MLOAD DUP8 DUP7 PUSH2 0xFFF SWAP2 SWAP1 PUSH2 0x15C6 JUMP JUMPDEST PUSH2 0x1170 JUMP JUMPDEST PUSH2 0x100F SWAP1 PUSH1 0x2 PUSH2 0x1588 JUMP JUMPDEST PUSH2 0x1186 JUMP JUMPDEST PUSH0 PUSH0 DUP7 MLOAD DUP1 MLOAD DUP8 PUSH1 0x20 DUP4 ADD ADD SWAP4 POP DUP1 DUP9 DUP8 ADD GT ISZERO PUSH2 0x1032 JUMPI DUP8 DUP7 ADD DUP3 MSTORE JUMPDEST POP POP POP PUSH1 0x20 DUP5 ADD JUMPDEST PUSH1 0x20 DUP5 LT PUSH2 0x1072 JUMPI DUP1 MLOAD DUP3 MSTORE PUSH2 0x1051 PUSH1 0x20 DUP4 PUSH2 0x15C6 JUMP JUMPDEST SWAP2 POP PUSH2 0x105E PUSH1 0x20 DUP3 PUSH2 0x15C6 JUMP JUMPDEST SWAP1 POP PUSH2 0x106B PUSH1 0x20 DUP6 PUSH2 0x1697 JUMP JUMPDEST SWAP4 POP PUSH2 0x103A JUMP JUMPDEST MLOAD DUP2 MLOAD PUSH0 NOT PUSH1 0x20 DUP7 SWAP1 SUB PUSH2 0x100 EXP ADD SWAP1 DUP2 AND SWAP1 NOT SWAP2 SWAP1 SWAP2 AND OR SWAP1 MSTORE POP DUP4 SWAP5 SWAP4 POP POP POP POP JUMP JUMPDEST PUSH1 0x40 DUP1 MLOAD DUP1 DUP3 ADD SWAP1 SWAP2 MSTORE PUSH1 0x60 DUP2 MSTORE PUSH0 PUSH1 0x20 DUP3 ADD MSTORE DUP4 PUSH1 0x20 ADD MLOAD DUP4 LT PUSH2 0x10CB JUMPI PUSH2 0x10CB DUP5 DUP6 PUSH1 0x20 ADD MLOAD PUSH1 0x2 PUSH2 0x100F SWAP2 SWAP1 PUSH2 0x1588 JUMP JUMPDEST DUP4 MLOAD DUP1 MLOAD PUSH1 0x20 DUP6 DUP4 ADD ADD DUP5 DUP2 MSTORE8 POP DUP1 DUP6 SUB PUSH2 0x10E7 JUMPI PUSH1 0x1 DUP2 ADD DUP3 MSTORE JUMPDEST POP SWAP4 SWAP5 SWAP4 POP POP POP POP JUMP JUMPDEST PUSH1 0x40 DUP1 MLOAD DUP1 DUP3 ADD SWAP1 SWAP2 MSTORE PUSH1 0x60 DUP2 MSTORE PUSH0 PUSH1 0x20 DUP3 ADD MSTORE PUSH1 0x20 DUP6 ADD MLOAD PUSH2 0x1114 DUP6 DUP5 PUSH2 0x15C6 JUMP JUMPDEST GT ISZERO PUSH2 0x1128 JUMPI PUSH2 0x1128 DUP6 PUSH2 0x1004 DUP7 DUP6 PUSH2 0x15C6 JUMP JUMPDEST PUSH0 PUSH1 0x1 PUSH2 0x1137 DUP5 PUSH2 0x100 PUSH2 0x178D JUMP JUMPDEST PUSH2 0x1141 SWAP2 SWAP1 PUSH2 0x1697 JUMP JUMPDEST SWAP1 POP DUP6 MLOAD DUP4 DUP7 DUP3 ADD ADD DUP6 DUP4 NOT DUP3 MLOAD AND OR DUP2 MSTORE POP DUP1 MLOAD DUP5 DUP8 ADD GT ISZERO PUSH2 0x1165 JUMPI DUP4 DUP7 ADD DUP2 MSTORE JUMPDEST POP SWAP5 SWAP6 SWAP5 POP POP POP POP POP JUMP JUMPDEST PUSH0 DUP2 DUP4 GT ISZERO PUSH2 0x1180 JUMPI POP DUP2 PUSH2 0xE2B JUMP JUMPDEST POP SWAP2 SWAP1 POP JUMP JUMPDEST DUP2 MLOAD PUSH2 0x1192 DUP4 DUP4 PUSH2 0xDC8 JUMP JUMPDEST POP PUSH2 0xE55 DUP4 DUP3 PUSH2 0xF3E JUMP JUMPDEST PUSH1 0x40 DUP1 MLOAD PUSH1 0xA0 DUP2 ADD DUP3 MSTORE PUSH0 DUP1 DUP3 MSTORE PUSH1 0x20 DUP1 DUP4 ADD DUP3 SWAP1 MSTORE DUP3 DUP5 ADD DUP3 SWAP1 MSTORE PUSH1 0x60 DUP1 DUP5 ADD DUP4 SWAP1 MSTORE DUP5 MLOAD DUP1 DUP7 ADD SWAP1 SWAP6 MSTORE DUP5 MSTORE DUP4 ADD MSTORE SWAP1 PUSH1 0x80 DUP3 ADD MSTORE SWAP1 JUMP JUMPDEST PUSH0 DUP2 MLOAD DUP1 DUP5 MSTORE DUP1 PUSH1 0x20 DUP5 ADD PUSH1 0x20 DUP7 ADD MCOPY PUSH0 PUSH1 0x20 DUP3 DUP7 ADD ADD MSTORE PUSH1 0x20 PUSH1 0x1F NOT PUSH1 0x1F DUP4 ADD AND DUP6 ADD ADD SWAP2 POP POP SWAP3 SWAP2 POP POP JUMP JUMPDEST PUSH1 0x20 DUP2 MSTORE PUSH0 PUSH2 0xF63 PUSH1 0x20 DUP4 ADD DUP5 PUSH2 0x11D7 JUMP JUMPDEST PUSH4 0x4E487B71 PUSH1 0xE0 SHL PUSH0 MSTORE PUSH1 0x41 PUSH1 0x4 MSTORE PUSH1 0x24 PUSH0 REVERT JUMPDEST PUSH0 DUP3 PUSH1 0x1F DUP4 ADD SLT PUSH2 0x123A JUMPI PUSH0 PUSH0 REVERT JUMPDEST DUP2 CALLDATALOAD PUSH1 0x1 PUSH1 0x1 PUSH1 0x40 SHL SUB DUP2 GT ISZERO PUSH2 0x1253 JUMPI PUSH2 0x1253 PUSH2 0x1217 JUMP JUMPDEST PUSH1 0x40 MLOAD PUSH1 0x1F DUP3 ADD PUSH1 0x1F NOT SWAP1 DUP2 AND PUSH1 0x3F ADD AND DUP2 ADD PUSH1 0x1 PUSH1 0x1 PUSH1 0x40 SHL SUB DUP2 GT DUP3 DUP3 LT OR ISZERO PUSH2 0x1281 JUMPI PUSH2 0x1281 PUSH2 0x1217 JUMP JUMPDEST PUSH1 0x40 MSTORE DUP2 DUP2 MSTORE DUP4 DUP3 ADD PUSH1 0x20 ADD DUP6 LT ISZERO PUSH2 0x1298 JUMPI PUSH0 PUSH0 REVERT JUMPDEST DUP2 PUSH1 0x20 DUP6 ADD PUSH1 0x20 DUP4 ADD CALLDATACOPY PUSH0 SWAP2 DUP2 ADD PUSH1 0x20 ADD SWAP2 SWAP1 SWAP2 MSTORE SWAP4 SWAP3 POP POP POP JUMP JUMPDEST PUSH0 PUSH0 PUSH0 PUSH0 PUSH0 PUSH0 PUSH0 PUSH0 PUSH0 PUSH0 PUSH2 0x140 DUP12 DUP14 SUB SLT ISZERO PUSH2 0x12CE JUMPI PUSH0 PUSH0 REVERT JUMPDEST DUP11 CALLDATALOAD SWAP10 POP PUSH1 0x20 DUP12 ADD CALLDATALOAD PUSH1 0x1 PUSH1 0x1 PUSH1 0x40 SHL SUB DUP2 GT ISZERO PUSH2 0x12EA JUMPI PUSH0 PUSH0 REVERT JUMPDEST PUSH2 0x12F6 DUP14 DUP3 DUP15 ADD PUSH2 0x122B JUMP JUMPDEST SWAP10 POP POP PUSH1 0x40 DUP12 ADD CALLDATALOAD PUSH1 0x1 PUSH1 0x1 PUSH1 0x40 SHL SUB DUP2 GT ISZERO PUSH2 0x1311 JUMPI PUSH0 PUSH0 REVERT JUMPDEST PUSH2 0x131D DUP14 DUP3 DUP15 ADD PUSH2 0x122B JUMP JUMPDEST SWAP9 POP POP PUSH1 0x60 DUP12 ADD CALLDATALOAD PUSH1 0x1 PUSH1 0x1 PUSH1 0x40 SHL SUB DUP2 GT ISZERO PUSH2 0x1338 JUMPI PUSH0 PUSH0 REVERT JUMPDEST PUSH2 0x1344 DUP14 DUP3 DUP15 ADD PUSH2 0x122B JUMP JUMPDEST SWAP8 POP POP PUSH1 0x80 DUP12 ADD CALLDATALOAD SWAP6 POP PUSH1 0xA0 DUP12 ADD CALLDATALOAD PUSH1 0x1 PUSH1 0x1 PUSH1 0x40 SHL SUB DUP2 GT ISZERO PUSH2 0x1366 JUMPI PUSH0 PUSH0 REVERT JUMPDEST PUSH2 0x1372 DUP14 DUP3 DUP15 ADD PUSH2 0x122B JUMP JUMPDEST SWAP11 SWAP14 SWAP10 SWAP13 POP SWAP8 SWAP11 SWAP7 SWAP10 SWAP6 SWAP9 SWAP6 SWAP8 POP POP POP POP PUSH1 0xC0 DUP5 ADD CALLDATALOAD SWAP4 PUSH1 0xE0 DUP2 ADD CALLDATALOAD SWAP4 PUSH2 0x100 DUP3 ADD CALLDATALOAD SWAP4 POP PUSH2 0x120 SWAP1 SWAP2 ADD CALLDATALOAD SWAP2 POP JUMP JUMPDEST PUSH0 PUSH1 0x20 DUP3 DUP5 SUB SLT ISZERO PUSH2 0x13B2 JUMPI PUSH0 PUSH0 REVERT JUMPDEST DUP2 CALLDATALOAD PUSH1 0x1 PUSH1 0x1 PUSH1 0xA0 SHL SUB DUP2 AND DUP2 EQ PUSH2 0xF63 JUMPI PUSH0 PUSH0 REVERT JUMPDEST PUSH0 PUSH1 0x20 DUP3 DUP5 SUB SLT ISZERO PUSH2 0x13D8 JUMPI PUSH0 PUSH0 REVERT JUMPDEST POP CALLDATALOAD SWAP2 SWAP1 POP JUMP JUMPDEST PUSH1 0x1 DUP2 DUP2 SHR SWAP1 DUP3 AND DUP1 PUSH2 0x13F3 JUMPI PUSH1 0x7F DUP3 AND SWAP2 POP JUMPDEST PUSH1 0x20 DUP3 LT DUP2 SUB PUSH2 0x1180 JUMPI PUSH4 0x4E487B71 PUSH1 0xE0 SHL PUSH0 MSTORE PUSH1 0x22 PUSH1 0x4 MSTORE PUSH1 0x24 PUSH0 REVERT JUMPDEST PUSH1 0x1F DUP3 GT ISZERO PUSH2 0xA00 JUMPI DUP1 PUSH0 MSTORE PUSH1 0x20 PUSH0 KECCAK256 PUSH1 0x1F DUP5 ADD PUSH1 0x5 SHR DUP2 ADD PUSH1 0x20 DUP6 LT ISZERO PUSH2 0x1436 JUMPI POP DUP1 JUMPDEST PUSH1 0x1F DUP5 ADD PUSH1 0x5 SHR DUP3 ADD SWAP2 POP JUMPDEST DUP2 DUP2 LT ISZERO PUSH2 0x1455 JUMPI PUSH0 DUP2 SSTORE PUSH1 0x1 ADD PUSH2 0x1442 JUMP JUMPDEST POP POP POP POP POP JUMP JUMPDEST DUP2 MLOAD PUSH1 0x1 PUSH1 0x1 PUSH1 0x40 SHL SUB DUP2 GT ISZERO PUSH2 0x1475 JUMPI PUSH2 0x1475 PUSH2 0x1217 JUMP JUMPDEST PUSH2 0x1489 DUP2 PUSH2 0x1483 DUP5 SLOAD PUSH2 0x13DF JUMP JUMPDEST DUP5 PUSH2 0x1411 JUMP JUMPDEST PUSH1 0x20 PUSH1 0x1F DUP3 GT PUSH1 0x1 DUP2 EQ PUSH2 0x14BB JUMPI PUSH0 DUP4 ISZERO PUSH2 0x14A4 JUMPI POP DUP5 DUP3 ADD MLOAD JUMPDEST PUSH0 NOT PUSH1 0x3 DUP6 SWAP1 SHL SHR NOT AND PUSH1 0x1 DUP5 SWAP1 SHL OR DUP5 SSTORE PUSH2 0x1455 JUMP JUMPDEST PUSH0 DUP5 DUP2 MSTORE PUSH1 0x20 DUP2 KECCAK256 PUSH1 0x1F NOT DUP6 AND SWAP2 JUMPDEST DUP3 DUP2 LT ISZERO PUSH2 0x14EA JUMPI DUP8 DUP6 ADD MLOAD DUP3 SSTORE PUSH1 0x20 SWAP5 DUP6 ADD SWAP5 PUSH1 0x1 SWAP1 SWAP3 ADD SWAP2 ADD PUSH2 0x14CA JUMP JUMPDEST POP DUP5 DUP3 LT ISZERO PUSH2 0x1507 JUMPI DUP7 DUP5 ADD MLOAD PUSH0 NOT PUSH1 0x3 DUP8 SWAP1 SHL PUSH1 0xF8 AND SHR NOT AND DUP2 SSTORE JUMPDEST POP POP POP POP PUSH1 0x1 SWAP1 DUP2 SHL ADD SWAP1 SSTORE POP JUMP JUMPDEST PUSH0 DUP2 MLOAD DUP1 PUSH1 0x20 DUP5 ADD DUP6 MCOPY PUSH0 SWAP4 ADD SWAP3 DUP4 MSTORE POP SWAP1 SWAP2 SWAP1 POP JUMP JUMPDEST PUSH0 PUSH2 0x1541 PUSH2 0x153B DUP4 DUP13 PUSH2 0x1516 JUMP JUMPDEST DUP11 PUSH2 0x1516 JUMP JUMPDEST DUP9 DUP2 MSTORE PUSH2 0x1551 PUSH1 0x20 DUP3 ADD DUP10 PUSH2 0x1516 JUMP JUMPDEST SWAP7 DUP8 MSTORE POP POP POP PUSH1 0x20 DUP5 ADD SWAP3 SWAP1 SWAP3 MSTORE PUSH1 0x40 DUP4 ADD MSTORE PUSH1 0x60 DUP3 ADD MSTORE PUSH1 0x80 ADD SWAP5 SWAP4 POP POP POP POP JUMP JUMPDEST PUSH4 0x4E487B71 PUSH1 0xE0 SHL PUSH0 MSTORE PUSH1 0x11 PUSH1 0x4 MSTORE PUSH1 0x24 PUSH0 REVERT JUMPDEST DUP1 DUP3 MUL DUP2 ISZERO DUP3 DUP3 DIV DUP5 EQ OR PUSH2 0xE2B JUMPI PUSH2 0xE2B PUSH2 0x1574 JUMP JUMPDEST PUSH4 0x4E487B71 PUSH1 0xE0 SHL PUSH0 MSTORE PUSH1 0x12 PUSH1 0x4 MSTORE PUSH1 0x24 PUSH0 REVERT JUMPDEST PUSH0 DUP3 PUSH2 0x15C1 JUMPI PUSH2 0x15C1 PUSH2 0x159F JUMP JUMPDEST POP DIV SWAP1 JUMP JUMPDEST DUP1 DUP3 ADD DUP1 DUP3 GT ISZERO PUSH2 0xE2B JUMPI PUSH2 0xE2B PUSH2 0x1574 JUMP JUMPDEST PUSH1 0x1 PUSH1 0x1 PUSH1 0xA0 SHL SUB DUP10 DUP2 AND DUP3 MSTORE PUSH1 0x20 DUP3 ADD DUP10 SWAP1 MSTORE PUSH1 0x40 DUP3 ADD DUP9 SWAP1 MSTORE DUP7 AND PUSH1 0x60 DUP3 ADD MSTORE PUSH1 0x1 PUSH1 0x1 PUSH1 0xE0 SHL SUB NOT DUP6 AND PUSH1 0x80 DUP3 ADD MSTORE PUSH1 0xA0 DUP2 ADD DUP5 SWAP1 MSTORE PUSH1 0xC0 DUP2 ADD DUP4 SWAP1 MSTORE PUSH2 0x100 PUSH1 0xE0 DUP3 ADD DUP2 SWAP1 MSTORE PUSH0 SWAP1 PUSH2 0x1631 SWAP1 DUP4 ADD DUP5 PUSH2 0x11D7 JUMP JUMPDEST SWAP11 SWAP10 POP POP POP POP POP POP POP POP POP POP JUMP JUMPDEST PUSH1 0x1 DUP1 PUSH1 0xA0 SHL SUB DUP5 AND DUP2 MSTORE DUP3 PUSH1 0x20 DUP3 ADD MSTORE PUSH1 0x60 PUSH1 0x40 DUP3 ADD MSTORE PUSH0 PUSH2 0xAB1 PUSH1 0x60 DUP4 ADD DUP5 PUSH2 0x11D7 JUMP JUMPDEST PUSH0 PUSH1 0x20 DUP3 DUP5 SUB SLT ISZERO PUSH2 0x1675 JUMPI PUSH0 PUSH0 REVERT JUMPDEST DUP2 MLOAD DUP1 ISZERO ISZERO DUP2 EQ PUSH2 0xF63 JUMPI PUSH0 PUSH0 REVERT JUMPDEST PUSH0 DUP3 PUSH2 0x1692 JUMPI PUSH2 0x1692 PUSH2 0x159F JUMP JUMPDEST POP MOD SWAP1 JUMP JUMPDEST DUP2 DUP2 SUB DUP2 DUP2 GT ISZERO PUSH2 0xE2B JUMPI PUSH2 0xE2B PUSH2 0x1574 JUMP JUMPDEST PUSH1 0x1 DUP2 JUMPDEST PUSH1 0x1 DUP5 GT ISZERO PUSH2 0x16E5 JUMPI DUP1 DUP6 DIV DUP2 GT ISZERO PUSH2 0x16C9 JUMPI PUSH2 0x16C9 PUSH2 0x1574 JUMP JUMPDEST PUSH1 0x1 DUP5 AND ISZERO PUSH2 0x16D7 JUMPI SWAP1 DUP2 MUL SWAP1 JUMPDEST PUSH1 0x1 SWAP4 SWAP1 SWAP4 SHR SWAP3 DUP1 MUL PUSH2 0x16AE JUMP JUMPDEST SWAP4 POP SWAP4 SWAP2 POP POP JUMP JUMPDEST PUSH0 DUP3 PUSH2 0x16FB JUMPI POP PUSH1 0x1 PUSH2 0xE2B JUMP JUMPDEST DUP2 PUSH2 0x1707 JUMPI POP PUSH0 PUSH2 0xE2B JUMP JUMPDEST DUP2 PUSH1 0x1 DUP2 EQ PUSH2 0x171D JUMPI PUSH1 0x2 DUP2 EQ PUSH2 0x1727 JUMPI PUSH2 0x1743 JUMP JUMPDEST PUSH1 0x1 SWAP2 POP POP PUSH2 0xE2B JUMP JUMPDEST PUSH1 0xFF DUP5 GT ISZERO PUSH2 0x1738 JUMPI PUSH2 0x1738 PUSH2 0x1574 JUMP JUMPDEST POP POP PUSH1 0x1 DUP3 SHL PUSH2 0xE2B JUMP JUMPDEST POP PUSH1 0x20 DUP4 LT PUSH2 0x133 DUP4 LT AND PUSH1 0x4E DUP5 LT PUSH1 0xB DUP5 LT AND OR ISZERO PUSH2 0x1766 JUMPI POP DUP2 DUP2 EXP PUSH2 0xE2B JUMP JUMPDEST PUSH2 0x1772 PUSH0 NOT DUP5 DUP5 PUSH2 0x16AA JUMP JUMPDEST DUP1 PUSH0 NOT DIV DUP3 GT ISZERO PUSH2 0x1785 JUMPI PUSH2 0x1785 PUSH2 0x1574 JUMP JUMPDEST MUL SWAP4 SWAP3 POP POP POP JUMP JUMPDEST PUSH0 PUSH2 0xF63 DUP4 DUP4 PUSH2 0x16ED JUMP INVALID PUSH9 0x747470733A2F2F3466 PUSH2 0x342D BALANCE CALLVALUE 0x2D ORIGIN ADDRESS BALANCE 0x2D BALANCE CALLER CODECOPY 0x2D BALANCE CALLDATALOAD CODECOPY 0x2E PUSH15 0x67726F6B2D667265652E6170702F64 PUSH2 0x7461 LOG2 PUSH5 0x6970667358 0x22 SLT KECCAK256 0x21 0xFC 0xF 0x28 NOT 0xD4 0x2A 0xD2 STOP PUSH26 0xE0212E2A3D9563B79271C5FB06C32C178D725F8D41CE64736F6C PUSH4 0x4300081D STOP CALLER "
		},
		"gasEstimates": {
			"creation": {
				"codeDepositCost": "1228200",
				"executionCost": "infinite",
				"totalCost": "infinite"
			},
			"external": {
				"acceptOwnership()": "52351",
				"data(uint256)": "infinite",
				"fulfillEthereumPrice(bytes32,string,string,string,uint256,string,uint256,uint256,uint256,uint256)": "infinite",
				"full()": "infinite",
				"hash()": "infinite",
				"owner()": "2367",
				"requestEthereumPrice(address)": "infinite",
				"transferOwnership(address)": "30464"
			}
		},
		"methodIdentifiers": {
			"acceptOwnership()": "79ba5097",
			"data(uint256)": "f0ba8440",
			"fulfillEthereumPrice(bytes32,string,string,string,uint256,string,uint256,uint256,uint256,uint256)": "3e9db5e5",
			"full()": "b86f58fe",
			"hash()": "09bd5a60",
			"owner()": "8da5cb5b",
			"requestEthereumPrice(address)": "d65e005e",
			"transferOwnership(address)": "f2fde38b"
		}
	},
	"abi": [
		{
			"inputs": [],
			"stateMutability": "nonpayable",
			"type": "constructor"
		},
		{
			"anonymous": false,
			"inputs": [
				{
					"indexed": true,
					"internalType": "bytes32",
					"name": "id",
					"type": "bytes32"
				}
			],
			"name": "ChainlinkCancelled",
			"type": "event"
		},
		{
			"anonymous": false,
			"inputs": [
				{
					"indexed": true,
					"internalType": "bytes32",
					"name": "id",
					"type": "bytes32"
				}
			],
			"name": "ChainlinkFulfilled",
			"type": "event"
		},
		{
			"anonymous": false,
			"inputs": [
				{
					"indexed": true,
					"internalType": "bytes32",
					"name": "id",
					"type": "bytes32"
				}
			],
			"name": "ChainlinkRequested",
			"type": "event"
		},
		{
			"anonymous": false,
			"inputs": [
				{
					"indexed": true,
					"internalType": "address",
					"name": "from",
					"type": "address"
				},
				{
					"indexed": true,
					"internalType": "address",
					"name": "to",
					"type": "address"
				}
			],
			"name": "OwnershipTransferRequested",
			"type": "event"
		},
		{
			"anonymous": false,
			"inputs": [
				{
					"indexed": true,
					"internalType": "address",
					"name": "from",
					"type": "address"
				},
				{
					"indexed": true,
					"internalType": "address",
					"name": "to",
					"type": "address"
				}
			],
			"name": "OwnershipTransferred",
			"type": "event"
		},
		{
			"inputs": [],
			"name": "acceptOwnership",
			"outputs": [],
			"stateMutability": "nonpayable",
			"type": "function"
		},
		{
			"inputs": [
				{
					"internalType": "uint256",
					"name": "",
					"type": "uint256"
				}
			],
			"name": "data",
			"outputs": [
				{
					"internalType": "string",
					"name": "",
					"type": "string"
				}
			],
			"stateMutability": "view",
			"type": "function"
		},
		{
			"inputs": [
				{
					"internalType": "bytes32",
					"name": "_requestId",
					"type": "bytes32"
				},
				{
					"internalType": "string",
					"name": "_projectName",
					"type": "string"
				},
				{
					"internalType": "string",
					"name": "_location",
					"type": "string"
				},
				{
					"internalType": "string",
					"name": "_hash",
					"type": "string"
				},
				{
					"internalType": "uint256",
					"name": "_expectedReductions",
					"type": "uint256"
				},
				{
					"internalType": "string",
					"name": "_methodology",
					"type": "string"
				},
				{
					"internalType": "uint256",
					"name": "_projectStartDate",
					"type": "uint256"
				},
				{
					"internalType": "uint256",
					"name": "_validationDate",
					"type": "uint256"
				},
				{
					"internalType": "uint256",
					"name": "_verificationDate",
					"type": "uint256"
				},
				{
					"internalType": "uint256",
					"name": "_issuedCredits",
					"type": "uint256"
				}
			],
			"name": "fulfillEthereumPrice",
			"outputs": [],
			"stateMutability": "nonpayable",
			"type": "function"
		},
		{
			"inputs": [],
			"name": "full",
			"outputs": [
				{
					"internalType": "string",
					"name": "",
					"type": "string"
				}
			],
			"stateMutability": "view",
			"type": "function"
		},
		{
			"inputs": [],
			"name": "hash",
			"outputs": [
				{
					"internalType": "string",
					"name": "",
					"type": "string"
				}
			],
			"stateMutability": "view",
			"type": "function"
		},
		{
			"inputs": [],
			"name": "owner",
			"outputs": [
				{
					"internalType": "address",
					"name": "",
					"type": "address"
				}
			],
			"stateMutability": "view",
			"type": "function"
		},
		{
			"inputs": [
				{
					"internalType": "address",
					"name": "_oracle",
					"type": "address"
				}
			],
			"name": "requestEthereumPrice",
			"outputs": [],
			"stateMutability": "nonpayable",
			"type": "function"
		},
		{
			"inputs": [
				{
					"internalType": "address",
					"name": "to",
					"type": "address"
				}
			],
			"name": "transferOwnership",
			"outputs": [],
			"stateMutability": "nonpayable",
			"type": "function"
		}
	]
}