{
	"data": {
		"bytecode": {
			"linkReferences": {},
			"object": "60a06040526001600655348015610014575f5ffd5b50604051614bea380380614bea833981810160405281019061003691906102f2565b80805f5f73ffffffffffffffffffffffffffffffffffffffff168273ffffffffffffffffffffffffffffffffffffffff16036100a7576040517f08c379a000000000000000000000000000000000000000000000000000000000815260040161009e9061038a565b60405180910390fd5b8160025f6101000a81548173ffffffffffffffffffffffffffffffffffffffff021916908373ffffffffffffffffffffffffffffffffffffffff1602179055505f73ffffffffffffffffffffffffffffffffffffffff168173ffffffffffffffffffffffffffffffffffffffff161461012a576101298161016860201b60201c565b5b5050508173ffffffffffffffffffffffffffffffffffffffff1660808173ffffffffffffffffffffffffffffffffffffffff16815250505050610410565b3373ffffffffffffffffffffffffffffffffffffffff168173ffffffffffffffffffffffffffffffffffffffff16036101d6576040517f08c379a00000000000000000000000000000000000000000000000000000000081526004016101cd906103f2565b60405180910390fd5b8060035f6101000a81548173ffffffffffffffffffffffffffffffffffffffff021916908373ffffffffffffffffffffffffffffffffffffffff1602179055508073ffffffffffffffffffffffffffffffffffffffff1660025f9054906101000a900473ffffffffffffffffffffffffffffffffffffffff1673ffffffffffffffffffffffffffffffffffffffff167fed8889f560326eb138920d842192f0eb3dd22b4f139c87a2c57538e05bae127860405160405180910390a350565b5f5ffd5b5f73ffffffffffffffffffffffffffffffffffffffff82169050919050565b5f6102c182610298565b9050919050565b6102d1816102b7565b81146102db575f5ffd5b50565b5f815190506102ec816102c8565b92915050565b5f5f6040838503121561030857610307610294565b5b5f610315858286016102de565b9250506020610326858286016102de565b9150509250929050565b5f82825260208201905092915050565b7f43616e6e6f7420736574206f776e657220746f207a65726f00000000000000005f82015250565b5f610374601883610330565b915061037f82610340565b602082019050919050565b5f6020820190508181035f8301526103a181610368565b9050919050565b7f43616e6e6f74207472616e7366657220746f2073656c660000000000000000005f82015250565b5f6103dc601783610330565b91506103e7826103a8565b602082019050919050565b5f6020820190508181035f830152610409816103d0565b9050919050565b6080516147986104525f395f818161076901528181610902015281816115780152818161182801528181611d90015281816120a5015261245101526147985ff3fe608060405260043610610165575f3560e01c80636ae0bc76116100d0578063a4c0ed3611610089578063f2fde38b11610063578063f2fde38b146104db578063f3fef3a314610503578063fa00763a1461052b578063fc4a03ed1461056757610165565b8063a4c0ed3614610463578063eb007d991461048b578063ee56997b146104b357610165565b80636ae0bc76146103675780636bd59ec0146103a35780636ee4d553146103bf57806379ba5097146103e75780638da5cb5b146103fd578063902fc3701461042757610165565b80633ec5bc14116101225780633ec5bc141461025f57806340429946146102875780634ab0d190146102af57806350188301146102eb57806352043783146103155780635ffa62881461033f57610165565b806301994b9914610169578063033f49f714610191578063165d35e1146101b9578063181f5a77146101e35780632408afaa1461020d5780633c6d41b914610237575b5f5ffd5b348015610174575f5ffd5b5061018f600480360381019061018a919061290f565b61058f565b005b34801561019c575f5ffd5b506101b760048036038101906101b29190612a09565b61075e565b005b3480156101c4575f5ffd5b506101cd6108ff565b6040516101da9190612a75565b60405180910390f35b3480156101ee575f5ffd5b506101f7610926565b6040516102049190612afe565b60405180910390f35b348015610218575f5ffd5b5061022161095f565b60405161022e9190612bd5565b60405180910390f35b348015610242575f5ffd5b5061025d60048036038101906102589190612cb0565b6109ea565b005b34801561026a575f5ffd5b5061028560048036038101906102809190612d6d565b610ac7565b005b348015610292575f5ffd5b506102ad60048036038101906102a89190612dca565b610bf8565b005b3480156102ba575f5ffd5b506102d560048036038101906102d09190612e9a565b610cd6565b6040516102e29190612f3d565b60405180910390f35b3480156102f6575f5ffd5b506102ff610f3d565b60405161030c9190612f65565b60405180910390f35b348015610320575f5ffd5b50610329610f4b565b6040516103369190612f65565b60405180910390f35b34801561034a575f5ffd5b5061036560048036038101906103609190612f7e565b610f51565b005b348015610372575f5ffd5b5061038d60048036038101906103889190612ffc565b610fb4565b60405161039a9190612f3d565b60405180910390f35b6103bd60048036038101906103b89190613150565b611264565b005b3480156103ca575f5ffd5b506103e560048036038101906103e091906131ce565b61141f565b005b3480156103f2575f5ffd5b506103fb611619565b005b348015610408575f5ffd5b506104116117aa565b60405161041e9190612a75565b60405180910390f35b348015610432575f5ffd5b5061044d60048036038101906104489190613232565b6117d2565b60405161045a9190612f3d565b60405180910390f35b34801561046e575f5ffd5b50610489600480360381019061048491906133cb565b6118d0565b005b348015610496575f5ffd5b506104b160048036038101906104ac9190613437565b611a13565b005b3480156104be575f5ffd5b506104d960048036038101906104d4919061290f565b611a4d565b005b3480156104e6575f5ffd5b5061050160048036038101906104fc919061349b565b611d27565b005b34801561050e575f5ffd5b50610529600480360381019061052491906134c6565b611d3b565b005b348015610536575f5ffd5b50610551600480360381019061054c919061349b565b611e3b565b60405161055e9190612f3d565b60405180910390f35b348015610572575f5ffd5b5061058d60048036038101906105889190612f7e565b611e8c565b005b610597611fc3565b6105d6576040517f08c379a00000000000000000000000000000000000000000000000000000000081526004016105cd9061354e565b60405180910390fd5b5f5f90505b8282905081101561075957600160055f8585858181106105fe576105fd61356c565b5b9050602002016020810190610613919061349b565b73ffffffffffffffffffffffffffffffffffffffff1673ffffffffffffffffffffffffffffffffffffffff1681526020019081526020015f205f6101000a81548160ff0219169083151502179055508282828181106106755761067461356c565b5b905060200201602081019061068a919061349b565b73ffffffffffffffffffffffffffffffffffffffff167f615a0c1cb00a60d4acd77ec67acf2f17f223ef0932d591052fabc33643fe7e8260405160405180910390a28282828181106106df576106de61356c565b5b90506020020160208101906106f4919061349b565b73ffffffffffffffffffffffffffffffffffffffff166379ba50976040518163ffffffff1660e01b81526004015f604051808303815f87803b158015610738575f5ffd5b505af115801561074a573d5f5f3e3d5ffd5b505050508060010190506105db565b505050565b61076661200f565b827f000000000000000000000000000000000000000000000000000000000000000073ffffffffffffffffffffffffffffffffffffffff168173ffffffffffffffffffffffffffffffffffffffff16036107f5576040517f08c379a00000000000000000000000000000000000000000000000000000000081526004016107ec906135e3565b60405180910390fd5b5f8473ffffffffffffffffffffffffffffffffffffffff163b0361084e576040517f08c379a00000000000000000000000000000000000000000000000000000000081526004016108459061364b565b60405180910390fd5b5f8473ffffffffffffffffffffffffffffffffffffffff168484604051610876929190613697565b5f604051808303815f865af19150503d805f81146108af576040519150601f19603f3d011682016040523d82523d5f602084013e6108b4565b606091505b50509050806108f8576040517f08c379a00000000000000000000000000000000000000000000000000000000081526004016108ef906136f9565b60405180910390fd5b5050505050565b5f7f0000000000000000000000000000000000000000000000000000000000000000905090565b6040518060400160405280600e81526020017f4f70657261746f7220312e302e3000000000000000000000000000000000000081525081565b606060018054806020026020016040519081016040528092919081815260200182805480156109e057602002820191905f5260205f20905b815f9054906101000a900473ffffffffffffffffffffffffffffffffffffffff1673ffffffffffffffffffffffffffffffffffffffff1681526020019060010190808311610997575b5050505050905090565b6109f26108ff565b73ffffffffffffffffffffffffffffffffffffffff163373ffffffffffffffffffffffffffffffffffffffff1614610a5f576040517f08c379a0000000000000000000000000000000000000000000000000000000008152600401610a5690613761565b60405180910390fd5b5f5f610a6f8a8a8c8a8a8a6120a0565b91509150877fd8d7ecc4800d25fa53ce0372f13a416d98907a7ef3d8d3bdd79cf4fe75529c658b848c8e8c878c8c8c604051610ab3999897969594939291906137d9565b60405180910390a250505050505050505050565b610acf61200f565b5f5f90505b83839050811015610bf2575f60055f868685818110610af657610af561356c565b5b9050602002016020810190610b0b919061349b565b73ffffffffffffffffffffffffffffffffffffffff1673ffffffffffffffffffffffffffffffffffffffff1681526020019081526020015f205f6101000a81548160ff021916908315150217905550838382818110610b6d57610b6c61356c565b5b9050602002016020810190610b82919061349b565b73ffffffffffffffffffffffffffffffffffffffff1663f2fde38b836040518263ffffffff1660e01b8152600401610bba9190612a75565b5f604051808303815f87803b158015610bd1575f5ffd5b505af1158015610be3573d5f5f3e3d5ffd5b50505050806001019050610ad4565b50505050565b610c006108ff565b73ffffffffffffffffffffffffffffffffffffffff163373ffffffffffffffffffffffffffffffffffffffff1614610c6d576040517f08c379a0000000000000000000000000000000000000000000000000000000008152600401610c6490613761565b60405180910390fd5b5f5f610c7d8b8b8a8a8a8a6120a0565b91509150887fd8d7ecc4800d25fa53ce0372f13a416d98907a7ef3d8d3bdd79cf4fe75529c658c848d8f8c878c8c8c604051610cc1999897969594939291906137d9565b60405180910390a25050505050505050505050565b5f610cdf612298565b865f60081b60045f8381526020019081526020015f205f015f9054906101000a900460081b60ff191603610d48576040517f08c379a0000000000000000000000000000000000000000000000000000000008152600401610d3f906138a8565b60405180910390fd5b8560055f8273ffffffffffffffffffffffffffffffffffffffff1673ffffffffffffffffffffffffffffffffffffffff1681526020019081526020015f205f9054906101000a900460ff1615610dd3576040517f08c379a0000000000000000000000000000000000000000000000000000000008152600401610dca90613910565b60405180910390fd5b610de2898989898960016122e2565b887f9e9bc7616d42c2835d05ae617e508454e63b30b934be8aa932ebc125e0e58a6460405160405180910390a262061a805a1015610e55576040517f08c379a0000000000000000000000000000000000000000000000000000000008152600401610e4c90613978565b60405180910390fd5b5f8773ffffffffffffffffffffffffffffffffffffffff16878b87604051602401610e81929190613996565b604051602081830303815290604052907bffffffffffffffffffffffffffffffffffffffffffffffffffffffff19166020820180517bffffffffffffffffffffffffffffffffffffffffffffffffffffffff8381831617835250505050604051610eeb91906139f7565b5f604051808303815f865af19150503d805f8114610f24576040519150601f19603f3d011682016040523d82523d5f602084013e610f29565b606091505b505090508093505050509695505050505050565b5f610f4661243f565b905090565b61012c81565b610f59611fc3565b610f98576040517f08c379a0000000000000000000000000000000000000000000000000000000008152600401610f8f9061354e565b60405180910390fd5b610fa2848461058f565b610fae84848484611e8c565b50505050565b5f610fbd612298565b875f60081b60045f8381526020019081526020015f205f015f9054906101000a900460081b60ff191603611026576040517f08c379a000000000000000000000000000000000000000000000000000000000815260040161101d906138a8565b60405180910390fd5b8660055f8273ffffffffffffffffffffffffffffffffffffffff1673ffffffffffffffffffffffffffffffffffffffff1681526020019081526020015f205f9054906101000a900460ff16156110b1576040517f08c379a00000000000000000000000000000000000000000000000000000000081526004016110a890613910565b60405180910390fd5b89858560208282905010156110fb576040517f08c379a00000000000000000000000000000000000000000000000000000000081526004016110f290613a57565b60405180910390fd5b5f82359050808414611142576040517f08c379a000000000000000000000000000000000000000000000000000000000815260040161113990613abf565b60405180910390fd5b6111518e8e8e8e8e60026122e2565b8d7f9e9bc7616d42c2835d05ae617e508454e63b30b934be8aa932ebc125e0e58a6460405160405180910390a262061a805a10156111c4576040517f08c379a00000000000000000000000000000000000000000000000000000000081526004016111bb90613978565b60405180910390fd5b5f8c73ffffffffffffffffffffffffffffffffffffffff168c8b8b6040516020016111f193929190613afd565b60405160208183030381529060405260405161120d91906139f7565b5f604051808303815f865af19150503d805f8114611246576040519150601f19603f3d011682016040523d82523d5f602084013e61124b565b606091505b5050905080975050505050505050979650505050505050565b5f8484905011801561127b57508181905084849050145b6112ba576040517f08c379a00000000000000000000000000000000000000000000000000000000081526004016112b190613b70565b60405180910390fd5b5f3490505f5f90505b858590508110156113d5575f8484838181106112e2576112e161356c565b5b90506020020135905080836112f79190613bbb565b92505f87878481811061130d5761130c61356c565b5b90506020020160208101906113229190613c29565b73ffffffffffffffffffffffffffffffffffffffff168260405161134590613c77565b5f6040518083038185875af1925050503d805f811461137f576040519150601f19603f3d011682016040523d82523d5f602084013e611384565b606091505b50509050806113c8576040517f08c379a00000000000000000000000000000000000000000000000000000000081526004016113bf90613cfb565b60405180910390fd5b50508060010190506112c3565b505f8114611418576040517f08c379a000000000000000000000000000000000000000000000000000000000815260040161140f90613d63565b60405180910390fd5b5050505050565b5f61142c843385856124f6565b90508060ff191660045f8781526020019081526020015f205f015f9054906101000a900460081b60ff191614611497576040517f08c379a000000000000000000000000000000000000000000000000000000000815260040161148e90613dcb565b60405180910390fd5b428211156114da576040517f08c379a00000000000000000000000000000000000000000000000000000000081526004016114d190613e33565b60405180910390fd5b60045f8681526020019081526020015f205f5f82015f6101000a8154907effffffffffffffffffffffffffffffffffffffffffffffffffffffffffffff02191690555f8201601f6101000a81549060ff02191690555050847fa7842b9ec549398102c0d91b1b9919b2f20558aefdadf57528a95c6cd3292e9360405160405180910390a28360065f82825461156f9190613bbb565b925050819055507f000000000000000000000000000000000000000000000000000000000000000073ffffffffffffffffffffffffffffffffffffffff1663a9059cbb33866040518363ffffffff1660e01b81526004016115d1929190613e51565b6020604051808303815f875af11580156115ed573d5f5f3e3d5ffd5b505050506040513d601f19601f820116820180604052508101906116119190613ea2565b505050505050565b60035f9054906101000a900473ffffffffffffffffffffffffffffffffffffffff1673ffffffffffffffffffffffffffffffffffffffff163373ffffffffffffffffffffffffffffffffffffffff16146116a8576040517f08c379a000000000000000000000000000000000000000000000000000000000815260040161169f90613f17565b60405180910390fd5b5f60025f9054906101000a900473ffffffffffffffffffffffffffffffffffffffff1690503360025f6101000a81548173ffffffffffffffffffffffffffffffffffffffff021916908373ffffffffffffffffffffffffffffffffffffffff1602179055505f60035f6101000a81548173ffffffffffffffffffffffffffffffffffffffff021916908373ffffffffffffffffffffffffffffffffffffffff1602179055503373ffffffffffffffffffffffffffffffffffffffff168173ffffffffffffffffffffffffffffffffffffffff167f8be0079c531659141344cd1fd0a4f28419497f9722a3daafe3b4186f6b6457e060405160405180910390a350565b5f60025f9054906101000a900473ffffffffffffffffffffffffffffffffffffffff16905090565b5f6117db61200f565b83806117e561243f565b1015611826576040517f08c379a000000000000000000000000000000000000000000000000000000000815260040161181d90613fa5565b60405180910390fd5b7f000000000000000000000000000000000000000000000000000000000000000073ffffffffffffffffffffffffffffffffffffffff16634000aea0878787876040518563ffffffff1660e01b81526004016118859493929190613fc3565b6020604051808303815f875af11580156118a1573d5f5f3e3d5ffd5b505050506040513d601f19601f820116820180604052508101906118c59190613ea2565b915050949350505050565b6118d86108ff565b73ffffffffffffffffffffffffffffffffffffffff163373ffffffffffffffffffffffffffffffffffffffff1614611945576040517f08c379a000000000000000000000000000000000000000000000000000000000815260040161193c90613761565b60405180910390fd5b805f60208201519050611958818361252e565b8460248401528360448401525f3073ffffffffffffffffffffffffffffffffffffffff168460405161198a91906139f7565b5f60405180830381855af49150503d805f81146119c2576040519150601f19603f3d011682016040523d82523d5f602084013e6119c7565b606091505b5050905080611a0b576040517f08c379a0000000000000000000000000000000000000000000000000000000008152600401611a029061404b565b60405180910390fd5b505050505050565b611a473385604051602001611a299291906140ce565b6040516020818303038152906040528051906020012084848461141f565b50505050565b611a55611fc3565b611a94576040517f08c379a0000000000000000000000000000000000000000000000000000000008152600401611a8b9061354e565b60405180910390fd5b5f8282905011611ad9576040517f08c379a0000000000000000000000000000000000000000000000000000000008152600401611ad090614143565b60405180910390fd5b5f60018054905090505f5f90505b81811015611b88575f5f5f60018481548110611b0657611b0561356c565b5b905f5260205f20015f9054906101000a900473ffffffffffffffffffffffffffffffffffffffff1673ffffffffffffffffffffffffffffffffffffffff1673ffffffffffffffffffffffffffffffffffffffff1681526020019081526020015f205f6101000a81548160ff021916908315150217905550806001019050611ae7565b505f5f90505b83839050811015611cd4575f15155f5f868685818110611bb157611bb061356c565b5b9050602002016020810190611bc6919061349b565b73ffffffffffffffffffffffffffffffffffffffff1673ffffffffffffffffffffffffffffffffffffffff1681526020019081526020015f205f9054906101000a900460ff16151514611c4e576040517f08c379a0000000000000000000000000000000000000000000000000000000008152600401611c45906141ab565b60405180910390fd5b60015f5f868685818110611c6557611c6461356c565b5b9050602002016020810190611c7a919061349b565b73ffffffffffffffffffffffffffffffffffffffff1673ffffffffffffffffffffffffffffffffffffffff1681526020019081526020015f205f6101000a81548160ff021916908315150217905550806001019050611b8e565b50828260019190611ce69291906127e5565b507ff263cfb3e4298332e776194610cf9fdc09ccb3ada8b9aa39764d882e11fbf0a0838333604051611d1a9392919061424f565b60405180910390a1505050565b611d2f61200f565b611d3881612665565b50565b611d4361200f565b8080611d4d61243f565b1015611d8e576040517f08c379a0000000000000000000000000000000000000000000000000000000008152600401611d8590613fa5565b60405180910390fd5b7f000000000000000000000000000000000000000000000000000000000000000073ffffffffffffffffffffffffffffffffffffffff1663a9059cbb84846040518363ffffffff1660e01b8152600401611de9929190613e51565b6020604051808303815f875af1158015611e05573d5f5f3e3d5ffd5b505050506040513d601f19601f82011682018060405250810190611e299190613ea2565b611e3657611e3561427f565b5b505050565b5f5f5f8373ffffffffffffffffffffffffffffffffffffffff1673ffffffffffffffffffffffffffffffffffffffff1681526020019081526020015f205f9054906101000a900460ff169050919050565b611e94611fc3565b611ed3576040517f08c379a0000000000000000000000000000000000000000000000000000000008152600401611eca9061354e565b60405180910390fd5b7f1bb185903e2cb2f1b303523128b60e314dea81df4f8d9b7351cadd344f6e77278484848433604051611f0a9594939291906142ac565b60405180910390a15f5f90505b84849050811015611fbc57848482818110611f3557611f3461356c565b5b9050602002016020810190611f4a919061349b565b73ffffffffffffffffffffffffffffffffffffffff1663ee56997b84846040518363ffffffff1660e01b8152600401611f849291906142f3565b5f604051808303815f87803b158015611f9b575f5ffd5b505af1158015611fad573d5f5f3e3d5ffd5b50505050806001019050611f17565b5050505050565b5f611fcd33611e3b565b8061200a57503373ffffffffffffffffffffffffffffffffffffffff16611ff26117aa565b73ffffffffffffffffffffffffffffffffffffffff16145b905090565b60025f9054906101000a900473ffffffffffffffffffffffffffffffffffffffff1673ffffffffffffffffffffffffffffffffffffffff163373ffffffffffffffffffffffffffffffffffffffff161461209e576040517f08c379a00000000000000000000000000000000000000000000000000000000081526004016120959061435f565b60405180910390fd5b565b5f5f857f000000000000000000000000000000000000000000000000000000000000000073ffffffffffffffffffffffffffffffffffffffff168173ffffffffffffffffffffffffffffffffffffffff1603612131576040517f08c379a0000000000000000000000000000000000000000000000000000000008152600401612128906135e3565b60405180910390fd5b88856040516020016121449291906140ce565b6040516020818303038152906040528051906020012092505f60081b60045f8581526020019081526020015f205f015f9054906101000a900460081b60ff1916146121c4576040517f08c379a00000000000000000000000000000000000000000000000000000000081526004016121bb906143c7565b60405180910390fd5b61012c426121d291906143e5565b91505f6121e1898989866124f6565b905060405180604001604052808260ff1916815260200161220187612791565b60ff1681525060045f8681526020019081526020015f205f820151815f015f6101000a8154817effffffffffffffffffffffffffffffffffffffffffffffffffffffffffffff021916908360081c02179055506020820151815f01601f6101000a81548160ff021916908360ff1602179055509050508860065461228591906143e5565b6006819055505050965096945050505050565b6122a133611e3b565b6122e0576040517f08c379a00000000000000000000000000000000000000000000000000000000081526004016122d790614462565b60405180910390fd5b565b5f6122ef868686866124f6565b90508060ff191660045f8981526020019081526020015f205f015f9054906101000a900460081b60ff19161461235a576040517f08c379a000000000000000000000000000000000000000000000000000000000815260040161235190613dcb565b60405180910390fd5b61236382612791565b60ff1660045f8981526020019081526020015f205f01601f9054906101000a900460ff1660ff1611156123cb576040517f08c379a00000000000000000000000000000000000000000000000000000000081526004016123c2906144ca565b60405180910390fd5b856006546123d99190613bbb565b60068190555060045f8881526020019081526020015f205f5f82015f6101000a8154907effffffffffffffffffffffffffffffffffffffffffffffffffffffffffffff02191690555f8201601f6101000a81549060ff0219169055505050505050505050565b5f600160065461244f9190613bbb565b7f000000000000000000000000000000000000000000000000000000000000000073ffffffffffffffffffffffffffffffffffffffff166370a08231306040518263ffffffff1660e01b81526004016124a89190612a75565b602060405180830381865afa1580156124c3573d5f5f3e3d5ffd5b505050506040513d601f19601f820116820180604052508101906124e791906144fc565b6124f19190613bbb565b905090565b5f8484848460405160200161250e9493929190614527565b604051602081830303815290604052805190602001209050949350505050565b6002602061253c9190614574565b600461254891906143e5565b8151101561258b576040517f08c379a0000000000000000000000000000000000000000000000000000000008152600401612582906145ff565b60405180910390fd5b633c6d41b960e01b7bffffffffffffffffffffffffffffffffffffffffffffffffffffffff1916827bffffffffffffffffffffffffffffffffffffffffffffffffffffffff191614806126225750634042994660e01b7bffffffffffffffffffffffffffffffffffffffffffffffffffffffff1916827bffffffffffffffffffffffffffffffffffffffffffffffffffffffff1916145b612661576040517f08c379a000000000000000000000000000000000000000000000000000000000815260040161265890614667565b60405180910390fd5b5050565b3373ffffffffffffffffffffffffffffffffffffffff168173ffffffffffffffffffffffffffffffffffffffff16036126d3576040517f08c379a00000000000000000000000000000000000000000000000000000000081526004016126ca906146cf565b60405180910390fd5b8060035f6101000a81548173ffffffffffffffffffffffffffffffffffffffff021916908373ffffffffffffffffffffffffffffffffffffffff1602179055508073ffffffffffffffffffffffffffffffffffffffff1660025f9054906101000a900473ffffffffffffffffffffffffffffffffffffffff1673ffffffffffffffffffffffffffffffffffffffff167fed8889f560326eb138920d842192f0eb3dd22b4f139c87a2c57538e05bae127860405160405180910390a350565b5f60ff80168211156127dd576008826040517f6dfcc6500000000000000000000000000000000000000000000000000000000081526004016127d492919061473b565b60405180910390fd5b819050919050565b828054828255905f5260205f20908101928215612871579160200282015b8281111561287057823573ffffffffffffffffffffffffffffffffffffffff16825f6101000a81548173ffffffffffffffffffffffffffffffffffffffff021916908373ffffffffffffffffffffffffffffffffffffffff16021790555091602001919060010190612803565b5b50905061287e9190612882565b5090565b5b80821115612899575f815f905550600101612883565b5090565b5f604051905090565b5f5ffd5b5f5ffd5b5f5ffd5b5f5ffd5b5f5ffd5b5f5f83601f8401126128cf576128ce6128ae565b5b8235905067ffffffffffffffff8111156128ec576128eb6128b2565b5b602083019150836020820283011115612908576129076128b6565b5b9250929050565b5f5f60208385031215612925576129246128a6565b5b5f83013567ffffffffffffffff811115612942576129416128aa565b5b61294e858286016128ba565b92509250509250929050565b5f73ffffffffffffffffffffffffffffffffffffffff82169050919050565b5f6129838261295a565b9050919050565b61299381612979565b811461299d575f5ffd5b50565b5f813590506129ae8161298a565b92915050565b5f5f83601f8401126129c9576129c86128ae565b5b8235905067ffffffffffffffff8111156129e6576129e56128b2565b5b602083019150836001820283011115612a0257612a016128b6565b5b9250929050565b5f5f5f60408486031215612a2057612a1f6128a6565b5b5f612a2d868287016129a0565b935050602084013567ffffffffffffffff811115612a4e57612a4d6128aa565b5b612a5a868287016129b4565b92509250509250925092565b612a6f81612979565b82525050565b5f602082019050612a885f830184612a66565b92915050565b5f81519050919050565b5f82825260208201905092915050565b8281835e5f83830152505050565b5f601f19601f8301169050919050565b5f612ad082612a8e565b612ada8185612a98565b9350612aea818560208601612aa8565b612af381612ab6565b840191505092915050565b5f6020820190508181035f830152612b168184612ac6565b905092915050565b5f81519050919050565b5f82825260208201905092915050565b5f819050602082019050919050565b612b5081612979565b82525050565b5f612b618383612b47565b60208301905092915050565b5f602082019050919050565b5f612b8382612b1e565b612b8d8185612b28565b9350612b9883612b38565b805f5b83811015612bc8578151612baf8882612b56565b9750612bba83612b6d565b925050600181019050612b9b565b5085935050505092915050565b5f6020820190508181035f830152612bed8184612b79565b905092915050565b5f819050919050565b612c0781612bf5565b8114612c11575f5ffd5b50565b5f81359050612c2281612bfe565b92915050565b5f819050919050565b612c3a81612c28565b8114612c44575f5ffd5b50565b5f81359050612c5581612c31565b92915050565b5f7fffffffff0000000000000000000000000000000000000000000000000000000082169050919050565b612c8f81612c5b565b8114612c99575f5ffd5b50565b5f81359050612caa81612c86565b92915050565b5f5f5f5f5f5f5f5f60e0898b031215612ccc57612ccb6128a6565b5b5f612cd98b828c016129a0565b9850506020612cea8b828c01612c14565b9750506040612cfb8b828c01612c47565b9650506060612d0c8b828c01612c9c565b9550506080612d1d8b828c01612c14565b94505060a0612d2e8b828c01612c14565b93505060c089013567ffffffffffffffff811115612d4f57612d4e6128aa565b5b612d5b8b828c016129b4565b92509250509295985092959890939650565b5f5f5f60408486031215612d8457612d836128a6565b5b5f84013567ffffffffffffffff811115612da157612da06128aa565b5b612dad868287016128ba565b93509350506020612dc0868287016129a0565b9150509250925092565b5f5f5f5f5f5f5f5f5f6101008a8c031215612de857612de76128a6565b5b5f612df58c828d016129a0565b9950506020612e068c828d01612c14565b9850506040612e178c828d01612c47565b9750506060612e288c828d016129a0565b9650506080612e398c828d01612c9c565b95505060a0612e4a8c828d01612c14565b94505060c0612e5b8c828d01612c14565b93505060e08a013567ffffffffffffffff811115612e7c57612e7b6128aa565b5b612e888c828d016129b4565b92509250509295985092959850929598565b5f5f5f5f5f5f60c08789031215612eb457612eb36128a6565b5b5f612ec189828a01612c47565b9650506020612ed289828a01612c14565b9550506040612ee389828a016129a0565b9450506060612ef489828a01612c9c565b9350506080612f0589828a01612c14565b92505060a0612f1689828a01612c47565b9150509295509295509295565b5f8115159050919050565b612f3781612f23565b82525050565b5f602082019050612f505f830184612f2e565b92915050565b612f5f81612bf5565b82525050565b5f602082019050612f785f830184612f56565b92915050565b5f5f5f5f60408587031215612f9657612f956128a6565b5b5f85013567ffffffffffffffff811115612fb357612fb26128aa565b5b612fbf878288016128ba565b9450945050602085013567ffffffffffffffff811115612fe257612fe16128aa565b5b612fee878288016128ba565b925092505092959194509250565b5f5f5f5f5f5f5f60c0888a031215613017576130166128a6565b5b5f6130248a828b01612c47565b97505060206130358a828b01612c14565b96505060406130468a828b016129a0565b95505060606130578a828b01612c9c565b94505060806130688a828b01612c14565b93505060a088013567ffffffffffffffff811115613089576130886128aa565b5b6130958a828b016129b4565b925092505092959891949750929550565b5f5f83601f8401126130bb576130ba6128ae565b5b8235905067ffffffffffffffff8111156130d8576130d76128b2565b5b6020830191508360208202830111156130f4576130f36128b6565b5b9250929050565b5f5f83601f8401126131105761310f6128ae565b5b8235905067ffffffffffffffff81111561312d5761312c6128b2565b5b602083019150836020820283011115613149576131486128b6565b5b9250929050565b5f5f5f5f60408587031215613168576131676128a6565b5b5f85013567ffffffffffffffff811115613185576131846128aa565b5b613191878288016130a6565b9450945050602085013567ffffffffffffffff8111156131b4576131b36128aa565b5b6131c0878288016130fb565b925092505092959194509250565b5f5f5f5f608085870312156131e6576131e56128a6565b5b5f6131f387828801612c47565b945050602061320487828801612c14565b935050604061321587828801612c9c565b925050606061322687828801612c14565b91505092959194509250565b5f5f5f5f6060858703121561324a576132496128a6565b5b5f613257878288016129a0565b945050602061326887828801612c14565b935050604085013567ffffffffffffffff811115613289576132886128aa565b5b613295878288016129b4565b925092505092959194509250565b5f5ffd5b7f4e487b71000000000000000000000000000000000000000000000000000000005f52604160045260245ffd5b6132dd82612ab6565b810181811067ffffffffffffffff821117156132fc576132fb6132a7565b5b80604052505050565b5f61330e61289d565b905061331a82826132d4565b919050565b5f67ffffffffffffffff821115613339576133386132a7565b5b61334282612ab6565b9050602081019050919050565b828183375f83830152505050565b5f61336f61336a8461331f565b613305565b90508281526020810184848401111561338b5761338a6132a3565b5b61339684828561334f565b509392505050565b5f82601f8301126133b2576133b16128ae565b5b81356133c284826020860161335d565b91505092915050565b5f5f5f606084860312156133e2576133e16128a6565b5b5f6133ef868287016129a0565b935050602061340086828701612c14565b925050604084013567ffffffffffffffff811115613421576134206128aa565b5b61342d8682870161339e565b9150509250925092565b5f5f5f5f6080858703121561344f5761344e6128a6565b5b5f61345c87828801612c14565b945050602061346d87828801612c14565b935050604061347e87828801612c9c565b925050606061348f87828801612c14565b91505092959194509250565b5f602082840312156134b0576134af6128a6565b5b5f6134bd848285016129a0565b91505092915050565b5f5f604083850312156134dc576134db6128a6565b5b5f6134e9858286016129a0565b92505060206134fa85828601612c14565b9150509250929050565b7f43616e6e6f742073657420617574686f72697a65642073656e646572730000005f82015250565b5f613538601d83612a98565b915061354382613504565b602082019050919050565b5f6020820190508181035f8301526135658161352c565b9050919050565b7f4e487b71000000000000000000000000000000000000000000000000000000005f52603260045260245ffd5b7f43616e6e6f742063616c6c20746f204c494e4b000000000000000000000000005f82015250565b5f6135cd601383612a98565b91506135d882613599565b602082019050919050565b5f6020820190508181035f8301526135fa816135c1565b9050919050565b7f4d75737420666f727761726420746f206120636f6e74726163740000000000005f82015250565b5f613635601a83612a98565b915061364082613601565b602082019050919050565b5f6020820190508181035f83015261366281613629565b9050919050565b5f81905092915050565b5f61367e8385613669565b935061368b83858461334f565b82840190509392505050565b5f6136a3828486613673565b91508190509392505050565b7f466f727761726465642063616c6c206661696c656400000000000000000000005f82015250565b5f6136e3601583612a98565b91506136ee826136af565b602082019050919050565b5f6020820190508181035f830152613710816136d7565b9050919050565b7f4d75737420757365204c494e4b20746f6b656e000000000000000000000000005f82015250565b5f61374b601383612a98565b915061375682613717565b602082019050919050565b5f6020820190508181035f8301526137788161373f565b9050919050565b61378881612c28565b82525050565b61379781612c5b565b82525050565b5f82825260208201905092915050565b5f6137b8838561379d565b93506137c583858461334f565b6137ce83612ab6565b840190509392505050565b5f610100820190506137ed5f83018c612a66565b6137fa602083018b61377f565b613807604083018a612f56565b6138146060830189612a66565b613821608083018861378e565b61382e60a0830187612f56565b61383b60c0830186612f56565b81810360e083015261384e8184866137ad565b90509a9950505050505050505050565b7f4d757374206861766520612076616c69642072657175657374496400000000005f82015250565b5f613892601b83612a98565b915061389d8261385e565b602082019050919050565b5f6020820190508181035f8301526138bf81613886565b9050919050565b7f43616e6e6f742063616c6c206f776e656420636f6e74726163740000000000005f82015250565b5f6138fa601a83612a98565b9150613905826138c6565b602082019050919050565b5f6020820190508181035f830152613927816138ee565b9050919050565b7f4d7573742070726f7669646520636f6e73756d657220656e6f756768206761735f82015250565b5f613962602083612a98565b915061396d8261392e565b602082019050919050565b5f6020820190508181035f83015261398f81613956565b9050919050565b5f6040820190506139a95f83018561377f565b6139b6602083018461377f565b9392505050565b5f81519050919050565b5f6139d1826139bd565b6139db8185613669565b93506139eb818560208601612aa8565b80840191505092915050565b5f613a0282846139c7565b915081905092915050565b7f526573706f6e7365206d757374206265203e20333220627974657300000000005f82015250565b5f613a41601b83612a98565b9150613a4c82613a0d565b602082019050919050565b5f6020820190508181035f830152613a6e81613a35565b9050919050565b7f466972737420776f7264206d75737420626520726571756573744964000000005f82015250565b5f613aa9601c83612a98565b9150613ab482613a75565b602082019050919050565b5f6020820190508181035f830152613ad681613a9d565b9050919050565b5f819050919050565b613af7613af282612c5b565b613add565b82525050565b5f613b088286613ae6565b600482019150613b19828486613673565b9150819050949350505050565b7f496e76616c6964206172726179206c656e6774682873290000000000000000005f82015250565b5f613b5a601783612a98565b9150613b6582613b26565b602082019050919050565b5f6020820190508181035f830152613b8781613b4e565b9050919050565b7f4e487b71000000000000000000000000000000000000000000000000000000005f52601160045260245ffd5b5f613bc582612bf5565b9150613bd083612bf5565b9250828203905081811115613be857613be7613b8e565b5b92915050565b5f613bf88261295a565b9050919050565b613c0881613bee565b8114613c12575f5ffd5b50565b5f81359050613c2381613bff565b92915050565b5f60208284031215613c3e57613c3d6128a6565b5b5f613c4b84828501613c15565b91505092915050565b50565b5f613c625f83613669565b9150613c6d82613c54565b5f82019050919050565b5f613c8182613c57565b9150819050919050565b7f416464726573733a20756e61626c6520746f2073656e642076616c75652c20725f8201527f6563697069656e74206d61792068617665207265766572746564000000000000602082015250565b5f613ce5603a83612a98565b9150613cf082613c8b565b604082019050919050565b5f6020820190508181035f830152613d1281613cd9565b9050919050565b7f546f6f206d756368204554482073656e740000000000000000000000000000005f82015250565b5f613d4d601183612a98565b9150613d5882613d19565b602082019050919050565b5f6020820190508181035f830152613d7a81613d41565b9050919050565b7f506172616d7320646f206e6f74206d61746368207265717565737420494400005f82015250565b5f613db5601e83612a98565b9150613dc082613d81565b602082019050919050565b5f6020820190508181035f830152613de281613da9565b9050919050565b7f52657175657374206973206e6f742065787069726564000000000000000000005f82015250565b5f613e1d601683612a98565b9150613e2882613de9565b602082019050919050565b5f6020820190508181035f830152613e4a81613e11565b9050919050565b5f604082019050613e645f830185612a66565b613e716020830184612f56565b9392505050565b613e8181612f23565b8114613e8b575f5ffd5b50565b5f81519050613e9c81613e78565b92915050565b5f60208284031215613eb757613eb66128a6565b5b5f613ec484828501613e8e565b91505092915050565b7f4d7573742062652070726f706f736564206f776e6572000000000000000000005f82015250565b5f613f01601683612a98565b9150613f0c82613ecd565b602082019050919050565b5f6020820190508181035f830152613f2e81613ef5565b9050919050565b7f416d6f756e74207265717565737465642069732067726561746572207468616e5f8201527f20776974686472617761626c652062616c616e63650000000000000000000000602082015250565b5f613f8f603583612a98565b9150613f9a82613f35565b604082019050919050565b5f6020820190508181035f830152613fbc81613f83565b9050919050565b5f606082019050613fd65f830187612a66565b613fe36020830186612f56565b8181036040830152613ff68184866137ad565b905095945050505050565b7f556e61626c6520746f20637265617465207265717565737400000000000000005f82015250565b5f614035601883612a98565b915061404082614001565b602082019050919050565b5f6020820190508181035f83015261406281614029565b9050919050565b5f8160601b9050919050565b5f61407f82614069565b9050919050565b5f61409082614075565b9050919050565b6140a86140a382612979565b614086565b82525050565b5f819050919050565b6140c86140c382612bf5565b6140ae565b82525050565b5f6140d98285614097565b6014820191506140e982846140b7565b6020820191508190509392505050565b7f4d7573742068617665206174206c6561737420312073656e64657200000000005f82015250565b5f61412d601b83612a98565b9150614138826140f9565b602082019050919050565b5f6020820190508181035f83015261415a81614121565b9050919050565b7f4d757374206e6f742068617665206475706c69636174652073656e64657273005f82015250565b5f614195601f83612a98565b91506141a082614161565b602082019050919050565b5f6020820190508181035f8301526141c281614189565b9050919050565b5f819050919050565b5f6141e060208401846129a0565b905092915050565b5f602082019050919050565b5f6141ff8385612b28565b935061420a826141c9565b805f5b858110156142425761421f82846141d2565b6142298882612b56565b9750614234836141e8565b92505060018101905061420d565b5085925050509392505050565b5f6040820190508181035f8301526142688185876141f4565b90506142776020830184612a66565b949350505050565b7f4e487b71000000000000000000000000000000000000000000000000000000005f52600160045260245ffd5b5f6060820190508181035f8301526142c58187896141f4565b905081810360208301526142da8185876141f4565b90506142e96040830184612a66565b9695505050505050565b5f6020820190508181035f83015261430c8184866141f4565b90509392505050565b7f4f6e6c792063616c6c61626c65206279206f776e6572000000000000000000005f82015250565b5f614349601683612a98565b915061435482614315565b602082019050919050565b5f6020820190508181035f8301526143768161433d565b9050919050565b7f4d75737420757365206120756e697175652049440000000000000000000000005f82015250565b5f6143b1601483612a98565b91506143bc8261437d565b602082019050919050565b5f6020820190508181035f8301526143de816143a5565b9050919050565b5f6143ef82612bf5565b91506143fa83612bf5565b925082820190508082111561441257614411613b8e565b5b92915050565b7f4e6f7420617574686f72697a65642073656e64657200000000000000000000005f82015250565b5f61444c601583612a98565b915061445782614418565b602082019050919050565b5f6020820190508181035f83015261447981614440565b9050919050565b7f446174612076657273696f6e73206d757374206d6174636800000000000000005f82015250565b5f6144b4601883612a98565b91506144bf82614480565b602082019050919050565b5f6020820190508181035f8301526144e1816144a8565b9050919050565b5f815190506144f681612bfe565b92915050565b5f60208284031215614511576145106128a6565b5b5f61451e848285016144e8565b91505092915050565b5f61453282876140b7565b6020820191506145428286614097565b6014820191506145528285613ae6565b60048201915061456282846140b7565b60208201915081905095945050505050565b5f61457e82612bf5565b915061458983612bf5565b925082820261459781612bf5565b915082820484148315176145ae576145ad613b8e565b5b5092915050565b7f496e76616c69642072657175657374206c656e677468000000000000000000005f82015250565b5f6145e9601683612a98565b91506145f4826145b5565b602082019050919050565b5f6020820190508181035f830152614616816145dd565b9050919050565b7f4d757374207573652077686974656c69737465642066756e6374696f6e7300005f82015250565b5f614651601e83612a98565b915061465c8261461d565b602082019050919050565b5f6020820190508181035f83015261467e81614645565b9050919050565b7f43616e6e6f74207472616e7366657220746f2073656c660000000000000000005f82015250565b5f6146b9601783612a98565b91506146c482614685565b602082019050919050565b5f6020820190508181035f8301526146e6816146ad565b9050919050565b5f819050919050565b5f60ff82169050919050565b5f819050919050565b5f61472561472061471b846146ed565b614702565b6146f6565b9050919050565b6147358161470b565b82525050565b5f60408201905061474e5f83018561472c565b61475b6020830184612f56565b939250505056fea26469706673582212205c377bf165f7152492a88b1956bd298b793afa62fd5188a4c0684f6a93caf40a64736f6c634300081d0033",
			"opcodes": "PUSH1 0xA0 PUSH1 0x40 MSTORE PUSH1 0x1 PUSH1 0x6 SSTORE CALLVALUE DUP1 ISZERO PUSH2 0x14 JUMPI PUSH0 PUSH0 REVERT JUMPDEST POP PUSH1 0x40 MLOAD PUSH2 0x4BEA CODESIZE SUB DUP1 PUSH2 0x4BEA DUP4 CODECOPY DUP2 DUP2 ADD PUSH1 0x40 MSTORE DUP2 ADD SWAP1 PUSH2 0x36 SWAP2 SWAP1 PUSH2 0x2F2 JUMP JUMPDEST DUP1 DUP1 PUSH0 PUSH0 PUSH20 0xFFFFFFFFFFFFFFFFFFFFFFFFFFFFFFFFFFFFFFFF AND DUP3 PUSH20 0xFFFFFFFFFFFFFFFFFFFFFFFFFFFFFFFFFFFFFFFF AND SUB PUSH2 0xA7 JUMPI PUSH1 0x40 MLOAD PUSH32 0x8C379A000000000000000000000000000000000000000000000000000000000 DUP2 MSTORE PUSH1 0x4 ADD PUSH2 0x9E SWAP1 PUSH2 0x38A JUMP JUMPDEST PUSH1 0x40 MLOAD DUP1 SWAP2 SUB SWAP1 REVERT JUMPDEST DUP2 PUSH1 0x2 PUSH0 PUSH2 0x100 EXP DUP2 SLOAD DUP2 PUSH20 0xFFFFFFFFFFFFFFFFFFFFFFFFFFFFFFFFFFFFFFFF MUL NOT AND SWAP1 DUP4 PUSH20 0xFFFFFFFFFFFFFFFFFFFFFFFFFFFFFFFFFFFFFFFF AND MUL OR SWAP1 SSTORE POP PUSH0 PUSH20 0xFFFFFFFFFFFFFFFFFFFFFFFFFFFFFFFFFFFFFFFF AND DUP2 PUSH20 0xFFFFFFFFFFFFFFFFFFFFFFFFFFFFFFFFFFFFFFFF AND EQ PUSH2 0x12A JUMPI PUSH2 0x129 DUP2 PUSH2 0x168 PUSH1 0x20 SHL PUSH1 0x20 SHR JUMP JUMPDEST JUMPDEST POP POP POP DUP2 PUSH20 0xFFFFFFFFFFFFFFFFFFFFFFFFFFFFFFFFFFFFFFFF AND PUSH1 0x80 DUP2 PUSH20 0xFFFFFFFFFFFFFFFFFFFFFFFFFFFFFFFFFFFFFFFF AND DUP2 MSTORE POP POP POP POP PUSH2 0x410 JUMP JUMPDEST CALLER PUSH20 0xFFFFFFFFFFFFFFFFFFFFFFFFFFFFFFFFFFFFFFFF AND DUP2 PUSH20 0xFFFFFFFFFFFFFFFFFFFFFFFFFFFFFFFFFFFFFFFF AND SUB PUSH2 0x1D6 JUMPI PUSH1 0x40 MLOAD PUSH32 0x8C379A000000000000000000000000000000000000000000000000000000000 DUP2 MSTORE PUSH1 0x4 ADD PUSH2 0x1CD SWAP1 PUSH2 0x3F2 JUMP JUMPDEST PUSH1 0x40 MLOAD DUP1 SWAP2 SUB SWAP1 REVERT JUMPDEST DUP1 PUSH1 0x3 PUSH0 PUSH2 0x100 EXP DUP2 SLOAD DUP2 PUSH20 0xFFFFFFFFFFFFFFFFFFFFFFFFFFFFFFFFFFFFFFFF MUL NOT AND SWAP1 DUP4 PUSH20 0xFFFFFFFFFFFFFFFFFFFFFFFFFFFFFFFFFFFFFFFF AND MUL OR SWAP1 SSTORE POP DUP1 PUSH20 0xFFFFFFFFFFFFFFFFFFFFFFFFFFFFFFFFFFFFFFFF AND PUSH1 0x2 PUSH0 SWAP1 SLOAD SWAP1 PUSH2 0x100 EXP SWAP1 DIV PUSH20 0xFFFFFFFFFFFFFFFFFFFFFFFFFFFFFFFFFFFFFFFF AND PUSH20 0xFFFFFFFFFFFFFFFFFFFFFFFFFFFFFFFFFFFFFFFF AND PUSH32 0xED8889F560326EB138920D842192F0EB3DD22B4F139C87A2C57538E05BAE1278 PUSH1 0x40 MLOAD PUSH1 0x40 MLOAD DUP1 SWAP2 SUB SWAP1 LOG3 POP JUMP JUMPDEST PUSH0 PUSH0 REVERT JUMPDEST PUSH0 PUSH20 0xFFFFFFFFFFFFFFFFFFFFFFFFFFFFFFFFFFFFFFFF DUP3 AND SWAP1 POP SWAP2 SWAP1 POP JUMP JUMPDEST PUSH0 PUSH2 0x2C1 DUP3 PUSH2 0x298 JUMP JUMPDEST SWAP1 POP SWAP2 SWAP1 POP JUMP JUMPDEST PUSH2 0x2D1 DUP2 PUSH2 0x2B7 JUMP JUMPDEST DUP2 EQ PUSH2 0x2DB JUMPI PUSH0 PUSH0 REVERT JUMPDEST POP JUMP JUMPDEST PUSH0 DUP2 MLOAD SWAP1 POP PUSH2 0x2EC DUP2 PUSH2 0x2C8 JUMP JUMPDEST SWAP3 SWAP2 POP POP JUMP JUMPDEST PUSH0 PUSH0 PUSH1 0x40 DUP4 DUP6 SUB SLT ISZERO PUSH2 0x308 JUMPI PUSH2 0x307 PUSH2 0x294 JUMP JUMPDEST JUMPDEST PUSH0 PUSH2 0x315 DUP6 DUP3 DUP7 ADD PUSH2 0x2DE JUMP JUMPDEST SWAP3 POP POP PUSH1 0x20 PUSH2 0x326 DUP6 DUP3 DUP7 ADD PUSH2 0x2DE JUMP JUMPDEST SWAP2 POP POP SWAP3 POP SWAP3 SWAP1 POP JUMP JUMPDEST PUSH0 DUP3 DUP3 MSTORE PUSH1 0x20 DUP3 ADD SWAP1 POP SWAP3 SWAP2 POP POP JUMP JUMPDEST PUSH32 0x43616E6E6F7420736574206F776E657220746F207A65726F0000000000000000 PUSH0 DUP3 ADD MSTORE POP JUMP JUMPDEST PUSH0 PUSH2 0x374 PUSH1 0x18 DUP4 PUSH2 0x330 JUMP JUMPDEST SWAP2 POP PUSH2 0x37F DUP3 PUSH2 0x340 JUMP JUMPDEST PUSH1 0x20 DUP3 ADD SWAP1 POP SWAP2 SWAP1 POP JUMP JUMPDEST PUSH0 PUSH1 0x20 DUP3 ADD SWAP1 POP DUP2 DUP2 SUB PUSH0 DUP4 ADD MSTORE PUSH2 0x3A1 DUP2 PUSH2 0x368 JUMP JUMPDEST SWAP1 POP SWAP2 SWAP1 POP JUMP JUMPDEST PUSH32 0x43616E6E6F74207472616E7366657220746F2073656C66000000000000000000 PUSH0 DUP3 ADD MSTORE POP JUMP JUMPDEST PUSH0 PUSH2 0x3DC PUSH1 0x17 DUP4 PUSH2 0x330 JUMP JUMPDEST SWAP2 POP PUSH2 0x3E7 DUP3 PUSH2 0x3A8 JUMP JUMPDEST PUSH1 0x20 DUP3 ADD SWAP1 POP SWAP2 SWAP1 POP JUMP JUMPDEST PUSH0 PUSH1 0x20 DUP3 ADD SWAP1 POP DUP2 DUP2 SUB PUSH0 DUP4 ADD MSTORE PUSH2 0x409 DUP2 PUSH2 0x3D0 JUMP JUMPDEST SWAP1 POP SWAP2 SWAP1 POP JUMP JUMPDEST PUSH1 0x80 MLOAD PUSH2 0x4798 PUSH2 0x452 PUSH0 CODECOPY PUSH0 DUP2 DUP2 PUSH2 0x769 ADD MSTORE DUP2 DUP2 PUSH2 0x902 ADD MSTORE DUP2 DUP2 PUSH2 0x1578 ADD MSTORE DUP2 DUP2 PUSH2 0x1828 ADD MSTORE DUP2 DUP2 PUSH2 0x1D90 ADD MSTORE DUP2 DUP2 PUSH2 0x20A5 ADD MSTORE PUSH2 0x2451 ADD MSTORE PUSH2 0x4798 PUSH0 RETURN INVALID PUSH1 0x80 PUSH1 0x40 MSTORE PUSH1 0x4 CALLDATASIZE LT PUSH2 0x165 JUMPI PUSH0 CALLDATALOAD PUSH1 0xE0 SHR DUP1 PUSH4 0x6AE0BC76 GT PUSH2 0xD0 JUMPI DUP1 PUSH4 0xA4C0ED36 GT PUSH2 0x89 JUMPI DUP1 PUSH4 0xF2FDE38B GT PUSH2 0x63 JUMPI DUP1 PUSH4 0xF2FDE38B EQ PUSH2 0x4DB JUMPI DUP1 PUSH4 0xF3FEF3A3 EQ PUSH2 0x503 JUMPI DUP1 PUSH4 0xFA00763A EQ PUSH2 0x52B JUMPI DUP1 PUSH4 0xFC4A03ED EQ PUSH2 0x567 JUMPI PUSH2 0x165 JUMP JUMPDEST DUP1 PUSH4 0xA4C0ED36 EQ PUSH2 0x463 JUMPI DUP1 PUSH4 0xEB007D99 EQ PUSH2 0x48B JUMPI DUP1 PUSH4 0xEE56997B EQ PUSH2 0x4B3 JUMPI PUSH2 0x165 JUMP JUMPDEST DUP1 PUSH4 0x6AE0BC76 EQ PUSH2 0x367 JUMPI DUP1 PUSH4 0x6BD59EC0 EQ PUSH2 0x3A3 JUMPI DUP1 PUSH4 0x6EE4D553 EQ PUSH2 0x3BF JUMPI DUP1 PUSH4 0x79BA5097 EQ PUSH2 0x3E7 JUMPI DUP1 PUSH4 0x8DA5CB5B EQ PUSH2 0x3FD JUMPI DUP1 PUSH4 0x902FC370 EQ PUSH2 0x427 JUMPI PUSH2 0x165 JUMP JUMPDEST DUP1 PUSH4 0x3EC5BC14 GT PUSH2 0x122 JUMPI DUP1 PUSH4 0x3EC5BC14 EQ PUSH2 0x25F JUMPI DUP1 PUSH4 0x40429946 EQ PUSH2 0x287 JUMPI DUP1 PUSH4 0x4AB0D190 EQ PUSH2 0x2AF JUMPI DUP1 PUSH4 0x50188301 EQ PUSH2 0x2EB JUMPI DUP1 PUSH4 0x52043783 EQ PUSH2 0x315 JUMPI DUP1 PUSH4 0x5FFA6288 EQ PUSH2 0x33F JUMPI PUSH2 0x165 JUMP JUMPDEST DUP1 PUSH4 0x1994B99 EQ PUSH2 0x169 JUMPI DUP1 PUSH4 0x33F49F7 EQ PUSH2 0x191 JUMPI DUP1 PUSH4 0x165D35E1 EQ PUSH2 0x1B9 JUMPI DUP1 PUSH4 0x181F5A77 EQ PUSH2 0x1E3 JUMPI DUP1 PUSH4 0x2408AFAA EQ PUSH2 0x20D JUMPI DUP1 PUSH4 0x3C6D41B9 EQ PUSH2 0x237 JUMPI JUMPDEST PUSH0 PUSH0 REVERT JUMPDEST CALLVALUE DUP1 ISZERO PUSH2 0x174 JUMPI PUSH0 PUSH0 REVERT JUMPDEST POP PUSH2 0x18F PUSH1 0x4 DUP1 CALLDATASIZE SUB DUP2 ADD SWAP1 PUSH2 0x18A SWAP2 SWAP1 PUSH2 0x290F JUMP JUMPDEST PUSH2 0x58F JUMP JUMPDEST STOP JUMPDEST CALLVALUE DUP1 ISZERO PUSH2 0x19C JUMPI PUSH0 PUSH0 REVERT JUMPDEST POP PUSH2 0x1B7 PUSH1 0x4 DUP1 CALLDATASIZE SUB DUP2 ADD SWAP1 PUSH2 0x1B2 SWAP2 SWAP1 PUSH2 0x2A09 JUMP JUMPDEST PUSH2 0x75E JUMP JUMPDEST STOP JUMPDEST CALLVALUE DUP1 ISZERO PUSH2 0x1C4 JUMPI PUSH0 PUSH0 REVERT JUMPDEST POP PUSH2 0x1CD PUSH2 0x8FF JUMP JUMPDEST PUSH1 0x40 MLOAD PUSH2 0x1DA SWAP2 SWAP1 PUSH2 0x2A75 JUMP JUMPDEST PUSH1 0x40 MLOAD DUP1 SWAP2 SUB SWAP1 RETURN JUMPDEST CALLVALUE DUP1 ISZERO PUSH2 0x1EE JUMPI PUSH0 PUSH0 REVERT JUMPDEST POP PUSH2 0x1F7 PUSH2 0x926 JUMP JUMPDEST PUSH1 0x40 MLOAD PUSH2 0x204 SWAP2 SWAP1 PUSH2 0x2AFE JUMP JUMPDEST PUSH1 0x40 MLOAD DUP1 SWAP2 SUB SWAP1 RETURN JUMPDEST CALLVALUE DUP1 ISZERO PUSH2 0x218 JUMPI PUSH0 PUSH0 REVERT JUMPDEST POP PUSH2 0x221 PUSH2 0x95F JUMP JUMPDEST PUSH1 0x40 MLOAD PUSH2 0x22E SWAP2 SWAP1 PUSH2 0x2BD5 JUMP JUMPDEST PUSH1 0x40 MLOAD DUP1 SWAP2 SUB SWAP1 RETURN JUMPDEST CALLVALUE DUP1 ISZERO PUSH2 0x242 JUMPI PUSH0 PUSH0 REVERT JUMPDEST POP PUSH2 0x25D PUSH1 0x4 DUP1 CALLDATASIZE SUB DUP2 ADD SWAP1 PUSH2 0x258 SWAP2 SWAP1 PUSH2 0x2CB0 JUMP JUMPDEST PUSH2 0x9EA JUMP JUMPDEST STOP JUMPDEST CALLVALUE DUP1 ISZERO PUSH2 0x26A JUMPI PUSH0 PUSH0 REVERT JUMPDEST POP PUSH2 0x285 PUSH1 0x4 DUP1 CALLDATASIZE SUB DUP2 ADD SWAP1 PUSH2 0x280 SWAP2 SWAP1 PUSH2 0x2D6D JUMP JUMPDEST PUSH2 0xAC7 JUMP JUMPDEST STOP JUMPDEST CALLVALUE DUP1 ISZERO PUSH2 0x292 JUMPI PUSH0 PUSH0 REVERT JUMPDEST POP PUSH2 0x2AD PUSH1 0x4 DUP1 CALLDATASIZE SUB DUP2 ADD SWAP1 PUSH2 0x2A8 SWAP2 SWAP1 PUSH2 0x2DCA JUMP JUMPDEST PUSH2 0xBF8 JUMP JUMPDEST STOP JUMPDEST CALLVALUE DUP1 ISZERO PUSH2 0x2BA JUMPI PUSH0 PUSH0 REVERT JUMPDEST POP PUSH2 0x2D5 PUSH1 0x4 DUP1 CALLDATASIZE SUB DUP2 ADD SWAP1 PUSH2 0x2D0 SWAP2 SWAP1 PUSH2 0x2E9A JUMP JUMPDEST PUSH2 0xCD6 JUMP JUMPDEST PUSH1 0x40 MLOAD PUSH2 0x2E2 SWAP2 SWAP1 PUSH2 0x2F3D JUMP JUMPDEST PUSH1 0x40 MLOAD DUP1 SWAP2 SUB SWAP1 RETURN JUMPDEST CALLVALUE DUP1 ISZERO PUSH2 0x2F6 JUMPI PUSH0 PUSH0 REVERT JUMPDEST POP PUSH2 0x2FF PUSH2 0xF3D JUMP JUMPDEST PUSH1 0x40 MLOAD PUSH2 0x30C SWAP2 SWAP1 PUSH2 0x2F65 JUMP JUMPDEST PUSH1 0x40 MLOAD DUP1 SWAP2 SUB SWAP1 RETURN JUMPDEST CALLVALUE DUP1 ISZERO PUSH2 0x320 JUMPI PUSH0 PUSH0 REVERT JUMPDEST POP PUSH2 0x329 PUSH2 0xF4B JUMP JUMPDEST PUSH1 0x40 MLOAD PUSH2 0x336 SWAP2 SWAP1 PUSH2 0x2F65 JUMP JUMPDEST PUSH1 0x40 MLOAD DUP1 SWAP2 SUB SWAP1 RETURN JUMPDEST CALLVALUE DUP1 ISZERO PUSH2 0x34A JUMPI PUSH0 PUSH0 REVERT JUMPDEST POP PUSH2 0x365 PUSH1 0x4 DUP1 CALLDATASIZE SUB DUP2 ADD SWAP1 PUSH2 0x360 SWAP2 SWAP1 PUSH2 0x2F7E JUMP JUMPDEST PUSH2 0xF51 JUMP JUMPDEST STOP JUMPDEST CALLVALUE DUP1 ISZERO PUSH2 0x372 JUMPI PUSH0 PUSH0 REVERT JUMPDEST POP PUSH2 0x38D PUSH1 0x4 DUP1 CALLDATASIZE SUB DUP2 ADD SWAP1 PUSH2 0x388 SWAP2 SWAP1 PUSH2 0x2FFC JUMP JUMPDEST PUSH2 0xFB4 JUMP JUMPDEST PUSH1 0x40 MLOAD PUSH2 0x39A SWAP2 SWAP1 PUSH2 0x2F3D JUMP JUMPDEST PUSH1 0x40 MLOAD DUP1 SWAP2 SUB SWAP1 RETURN JUMPDEST PUSH2 0x3BD PUSH1 0x4 DUP1 CALLDATASIZE SUB DUP2 ADD SWAP1 PUSH2 0x3B8 SWAP2 SWAP1 PUSH2 0x3150 JUMP JUMPDEST PUSH2 0x1264 JUMP JUMPDEST STOP JUMPDEST CALLVALUE DUP1 ISZERO PUSH2 0x3CA JUMPI PUSH0 PUSH0 REVERT JUMPDEST POP PUSH2 0x3E5 PUSH1 0x4 DUP1 CALLDATASIZE SUB DUP2 ADD SWAP1 PUSH2 0x3E0 SWAP2 SWAP1 PUSH2 0x31CE JUMP JUMPDEST PUSH2 0x141F JUMP JUMPDEST STOP JUMPDEST CALLVALUE DUP1 ISZERO PUSH2 0x3F2 JUMPI PUSH0 PUSH0 REVERT JUMPDEST POP PUSH2 0x3FB PUSH2 0x1619 JUMP JUMPDEST STOP JUMPDEST CALLVALUE DUP1 ISZERO PUSH2 0x408 JUMPI PUSH0 PUSH0 REVERT JUMPDEST POP PUSH2 0x411 PUSH2 0x17AA JUMP JUMPDEST PUSH1 0x40 MLOAD PUSH2 0x41E SWAP2 SWAP1 PUSH2 0x2A75 JUMP JUMPDEST PUSH1 0x40 MLOAD DUP1 SWAP2 SUB SWAP1 RETURN JUMPDEST CALLVALUE DUP1 ISZERO PUSH2 0x432 JUMPI PUSH0 PUSH0 REVERT JUMPDEST POP PUSH2 0x44D PUSH1 0x4 DUP1 CALLDATASIZE SUB DUP2 ADD SWAP1 PUSH2 0x448 SWAP2 SWAP1 PUSH2 0x3232 JUMP JUMPDEST PUSH2 0x17D2 JUMP JUMPDEST PUSH1 0x40 MLOAD PUSH2 0x45A SWAP2 SWAP1 PUSH2 0x2F3D JUMP JUMPDEST PUSH1 0x40 MLOAD DUP1 SWAP2 SUB SWAP1 RETURN JUMPDEST CALLVALUE DUP1 ISZERO PUSH2 0x46E JUMPI PUSH0 PUSH0 REVERT JUMPDEST POP PUSH2 0x489 PUSH1 0x4 DUP1 CALLDATASIZE SUB DUP2 ADD SWAP1 PUSH2 0x484 SWAP2 SWAP1 PUSH2 0x33CB JUMP JUMPDEST PUSH2 0x18D0 JUMP JUMPDEST STOP JUMPDEST CALLVALUE DUP1 ISZERO PUSH2 0x496 JUMPI PUSH0 PUSH0 REVERT JUMPDEST POP PUSH2 0x4B1 PUSH1 0x4 DUP1 CALLDATASIZE SUB DUP2 ADD SWAP1 PUSH2 0x4AC SWAP2 SWAP1 PUSH2 0x3437 JUMP JUMPDEST PUSH2 0x1A13 JUMP JUMPDEST STOP JUMPDEST CALLVALUE DUP1 ISZERO PUSH2 0x4BE JUMPI PUSH0 PUSH0 REVERT JUMPDEST POP PUSH2 0x4D9 PUSH1 0x4 DUP1 CALLDATASIZE SUB DUP2 ADD SWAP1 PUSH2 0x4D4 SWAP2 SWAP1 PUSH2 0x290F JUMP JUMPDEST PUSH2 0x1A4D JUMP JUMPDEST STOP JUMPDEST CALLVALUE DUP1 ISZERO PUSH2 0x4E6 JUMPI PUSH0 PUSH0 REVERT JUMPDEST POP PUSH2 0x501 PUSH1 0x4 DUP1 CALLDATASIZE SUB DUP2 ADD SWAP1 PUSH2 0x4FC SWAP2 SWAP1 PUSH2 0x349B JUMP JUMPDEST PUSH2 0x1D27 JUMP JUMPDEST STOP JUMPDEST CALLVALUE DUP1 ISZERO PUSH2 0x50E JUMPI PUSH0 PUSH0 REVERT JUMPDEST POP PUSH2 0x529 PUSH1 0x4 DUP1 CALLDATASIZE SUB DUP2 ADD SWAP1 PUSH2 0x524 SWAP2 SWAP1 PUSH2 0x34C6 JUMP JUMPDEST PUSH2 0x1D3B JUMP JUMPDEST STOP JUMPDEST CALLVALUE DUP1 ISZERO PUSH2 0x536 JUMPI PUSH0 PUSH0 REVERT JUMPDEST POP PUSH2 0x551 PUSH1 0x4 DUP1 CALLDATASIZE SUB DUP2 ADD SWAP1 PUSH2 0x54C SWAP2 SWAP1 PUSH2 0x349B JUMP JUMPDEST PUSH2 0x1E3B JUMP JUMPDEST PUSH1 0x40 MLOAD PUSH2 0x55E SWAP2 SWAP1 PUSH2 0x2F3D JUMP JUMPDEST PUSH1 0x40 MLOAD DUP1 SWAP2 SUB SWAP1 RETURN JUMPDEST CALLVALUE DUP1 ISZERO PUSH2 0x572 JUMPI PUSH0 PUSH0 REVERT JUMPDEST POP PUSH2 0x58D PUSH1 0x4 DUP1 CALLDATASIZE SUB DUP2 ADD SWAP1 PUSH2 0x588 SWAP2 SWAP1 PUSH2 0x2F7E JUMP JUMPDEST PUSH2 0x1E8C JUMP JUMPDEST STOP JUMPDEST PUSH2 0x597 PUSH2 0x1FC3 JUMP JUMPDEST PUSH2 0x5D6 JUMPI PUSH1 0x40 MLOAD PUSH32 0x8C379A000000000000000000000000000000000000000000000000000000000 DUP2 MSTORE PUSH1 0x4 ADD PUSH2 0x5CD SWAP1 PUSH2 0x354E JUMP JUMPDEST PUSH1 0x40 MLOAD DUP1 SWAP2 SUB SWAP1 REVERT JUMPDEST PUSH0 PUSH0 SWAP1 POP JUMPDEST DUP3 DUP3 SWAP1 POP DUP2 LT ISZERO PUSH2 0x759 JUMPI PUSH1 0x1 PUSH1 0x5 PUSH0 DUP6 DUP6 DUP6 DUP2 DUP2 LT PUSH2 0x5FE JUMPI PUSH2 0x5FD PUSH2 0x356C JUMP JUMPDEST JUMPDEST SWAP1 POP PUSH1 0x20 MUL ADD PUSH1 0x20 DUP2 ADD SWAP1 PUSH2 0x613 SWAP2 SWAP1 PUSH2 0x349B JUMP JUMPDEST PUSH20 0xFFFFFFFFFFFFFFFFFFFFFFFFFFFFFFFFFFFFFFFF AND PUSH20 0xFFFFFFFFFFFFFFFFFFFFFFFFFFFFFFFFFFFFFFFF AND DUP2 MSTORE PUSH1 0x20 ADD SWAP1 DUP2 MSTORE PUSH1 0x20 ADD PUSH0 KECCAK256 PUSH0 PUSH2 0x100 EXP DUP2 SLOAD DUP2 PUSH1 0xFF MUL NOT AND SWAP1 DUP4 ISZERO ISZERO MUL OR SWAP1 SSTORE POP DUP3 DUP3 DUP3 DUP2 DUP2 LT PUSH2 0x675 JUMPI PUSH2 0x674 PUSH2 0x356C JUMP JUMPDEST JUMPDEST SWAP1 POP PUSH1 0x20 MUL ADD PUSH1 0x20 DUP2 ADD SWAP1 PUSH2 0x68A SWAP2 SWAP1 PUSH2 0x349B JUMP JUMPDEST PUSH20 0xFFFFFFFFFFFFFFFFFFFFFFFFFFFFFFFFFFFFFFFF AND PUSH32 0x615A0C1CB00A60D4ACD77EC67ACF2F17F223EF0932D591052FABC33643FE7E82 PUSH1 0x40 MLOAD PUSH1 0x40 MLOAD DUP1 SWAP2 SUB SWAP1 LOG2 DUP3 DUP3 DUP3 DUP2 DUP2 LT PUSH2 0x6DF JUMPI PUSH2 0x6DE PUSH2 0x356C JUMP JUMPDEST JUMPDEST SWAP1 POP PUSH1 0x20 MUL ADD PUSH1 0x20 DUP2 ADD SWAP1 PUSH2 0x6F4 SWAP2 SWAP1 PUSH2 0x349B JUMP JUMPDEST PUSH20 0xFFFFFFFFFFFFFFFFFFFFFFFFFFFFFFFFFFFFFFFF AND PUSH4 0x79BA5097 PUSH1 0x40 MLOAD DUP2 PUSH4 0xFFFFFFFF AND PUSH1 0xE0 SHL DUP2 MSTORE PUSH1 0x4 ADD PUSH0 PUSH1 0x40 MLOAD DUP1 DUP4 SUB DUP2 PUSH0 DUP8 DUP1 EXTCODESIZE ISZERO DUP1 ISZERO PUSH2 0x738 JUMPI PUSH0 PUSH0 REVERT JUMPDEST POP GAS CALL ISZERO DUP1 ISZERO PUSH2 0x74A JUMPI RETURNDATASIZE PUSH0 PUSH0 RETURNDATACOPY RETURNDATASIZE PUSH0 REVERT JUMPDEST POP POP POP POP DUP1 PUSH1 0x1 ADD SWAP1 POP PUSH2 0x5DB JUMP JUMPDEST POP POP POP JUMP JUMPDEST PUSH2 0x766 PUSH2 0x200F JUMP JUMPDEST DUP3 PUSH32 0x0 PUSH20 0xFFFFFFFFFFFFFFFFFFFFFFFFFFFFFFFFFFFFFFFF AND DUP2 PUSH20 0xFFFFFFFFFFFFFFFFFFFFFFFFFFFFFFFFFFFFFFFF AND SUB PUSH2 0x7F5 JUMPI PUSH1 0x40 MLOAD PUSH32 0x8C379A000000000000000000000000000000000000000000000000000000000 DUP2 MSTORE PUSH1 0x4 ADD PUSH2 0x7EC SWAP1 PUSH2 0x35E3 JUMP JUMPDEST PUSH1 0x40 MLOAD DUP1 SWAP2 SUB SWAP1 REVERT JUMPDEST PUSH0 DUP5 PUSH20 0xFFFFFFFFFFFFFFFFFFFFFFFFFFFFFFFFFFFFFFFF AND EXTCODESIZE SUB PUSH2 0x84E JUMPI PUSH1 0x40 MLOAD PUSH32 0x8C379A000000000000000000000000000000000000000000000000000000000 DUP2 MSTORE PUSH1 0x4 ADD PUSH2 0x845 SWAP1 PUSH2 0x364B JUMP JUMPDEST PUSH1 0x40 MLOAD DUP1 SWAP2 SUB SWAP1 REVERT JUMPDEST PUSH0 DUP5 PUSH20 0xFFFFFFFFFFFFFFFFFFFFFFFFFFFFFFFFFFFFFFFF AND DUP5 DUP5 PUSH1 0x40 MLOAD PUSH2 0x876 SWAP3 SWAP2 SWAP1 PUSH2 0x3697 JUMP JUMPDEST PUSH0 PUSH1 0x40 MLOAD DUP1 DUP4 SUB DUP2 PUSH0 DUP7 GAS CALL SWAP2 POP POP RETURNDATASIZE DUP1 PUSH0 DUP2 EQ PUSH2 0x8AF JUMPI PUSH1 0x40 MLOAD SWAP2 POP PUSH1 0x1F NOT PUSH1 0x3F RETURNDATASIZE ADD AND DUP3 ADD PUSH1 0x40 MSTORE RETURNDATASIZE DUP3 MSTORE RETURNDATASIZE PUSH0 PUSH1 0x20 DUP5 ADD RETURNDATACOPY PUSH2 0x8B4 JUMP JUMPDEST PUSH1 0x60 SWAP2 POP JUMPDEST POP POP SWAP1 POP DUP1 PUSH2 0x8F8 JUMPI PUSH1 0x40 MLOAD PUSH32 0x8C379A000000000000000000000000000000000000000000000000000000000 DUP2 MSTORE PUSH1 0x4 ADD PUSH2 0x8EF SWAP1 PUSH2 0x36F9 JUMP JUMPDEST PUSH1 0x40 MLOAD DUP1 SWAP2 SUB SWAP1 REVERT JUMPDEST POP POP POP POP POP JUMP JUMPDEST PUSH0 PUSH32 0x0 SWAP1 POP SWAP1 JUMP JUMPDEST PUSH1 0x40 MLOAD DUP1 PUSH1 0x40 ADD PUSH1 0x40 MSTORE DUP1 PUSH1 0xE DUP2 MSTORE PUSH1 0x20 ADD PUSH32 0x4F70657261746F7220312E302E30000000000000000000000000000000000000 DUP2 MSTORE POP DUP2 JUMP JUMPDEST PUSH1 0x60 PUSH1 0x1 DUP1 SLOAD DUP1 PUSH1 0x20 MUL PUSH1 0x20 ADD PUSH1 0x40 MLOAD SWAP1 DUP2 ADD PUSH1 0x40 MSTORE DUP1 SWAP3 SWAP2 SWAP1 DUP2 DUP2 MSTORE PUSH1 0x20 ADD DUP3 DUP1 SLOAD DUP1 ISZERO PUSH2 0x9E0 JUMPI PUSH1 0x20 MUL DUP3 ADD SWAP2 SWAP1 PUSH0 MSTORE PUSH1 0x20 PUSH0 KECCAK256 SWAP1 JUMPDEST DUP2 PUSH0 SWAP1 SLOAD SWAP1 PUSH2 0x100 EXP SWAP1 DIV PUSH20 0xFFFFFFFFFFFFFFFFFFFFFFFFFFFFFFFFFFFFFFFF AND PUSH20 0xFFFFFFFFFFFFFFFFFFFFFFFFFFFFFFFFFFFFFFFF AND DUP2 MSTORE PUSH1 0x20 ADD SWAP1 PUSH1 0x1 ADD SWAP1 DUP1 DUP4 GT PUSH2 0x997 JUMPI JUMPDEST POP POP POP POP POP SWAP1 POP SWAP1 JUMP JUMPDEST PUSH2 0x9F2 PUSH2 0x8FF JUMP JUMPDEST PUSH20 0xFFFFFFFFFFFFFFFFFFFFFFFFFFFFFFFFFFFFFFFF AND CALLER PUSH20 0xFFFFFFFFFFFFFFFFFFFFFFFFFFFFFFFFFFFFFFFF AND EQ PUSH2 0xA5F JUMPI PUSH1 0x40 MLOAD PUSH32 0x8C379A000000000000000000000000000000000000000000000000000000000 DUP2 MSTORE PUSH1 0x4 ADD PUSH2 0xA56 SWAP1 PUSH2 0x3761 JUMP JUMPDEST PUSH1 0x40 MLOAD DUP1 SWAP2 SUB SWAP1 REVERT JUMPDEST PUSH0 PUSH0 PUSH2 0xA6F DUP11 DUP11 DUP13 DUP11 DUP11 DUP11 PUSH2 0x20A0 JUMP JUMPDEST SWAP2 POP SWAP2 POP DUP8 PUSH32 0xD8D7ECC4800D25FA53CE0372F13A416D98907A7EF3D8D3BDD79CF4FE75529C65 DUP12 DUP5 DUP13 DUP15 DUP13 DUP8 DUP13 DUP13 DUP13 PUSH1 0x40 MLOAD PUSH2 0xAB3 SWAP10 SWAP9 SWAP8 SWAP7 SWAP6 SWAP5 SWAP4 SWAP3 SWAP2 SWAP1 PUSH2 0x37D9 JUMP JUMPDEST PUSH1 0x40 MLOAD DUP1 SWAP2 SUB SWAP1 LOG2 POP POP POP POP POP POP POP POP POP POP JUMP JUMPDEST PUSH2 0xACF PUSH2 0x200F JUMP JUMPDEST PUSH0 PUSH0 SWAP1 POP JUMPDEST DUP4 DUP4 SWAP1 POP DUP2 LT ISZERO PUSH2 0xBF2 JUMPI PUSH0 PUSH1 0x5 PUSH0 DUP7 DUP7 DUP6 DUP2 DUP2 LT PUSH2 0xAF6 JUMPI PUSH2 0xAF5 PUSH2 0x356C JUMP JUMPDEST JUMPDEST SWAP1 POP PUSH1 0x20 MUL ADD PUSH1 0x20 DUP2 ADD SWAP1 PUSH2 0xB0B SWAP2 SWAP1 PUSH2 0x349B JUMP JUMPDEST PUSH20 0xFFFFFFFFFFFFFFFFFFFFFFFFFFFFFFFFFFFFFFFF AND PUSH20 0xFFFFFFFFFFFFFFFFFFFFFFFFFFFFFFFFFFFFFFFF AND DUP2 MSTORE PUSH1 0x20 ADD SWAP1 DUP2 MSTORE PUSH1 0x20 ADD PUSH0 KECCAK256 PUSH0 PUSH2 0x100 EXP DUP2 SLOAD DUP2 PUSH1 0xFF MUL NOT AND SWAP1 DUP4 ISZERO ISZERO MUL OR SWAP1 SSTORE POP DUP4 DUP4 DUP3 DUP2 DUP2 LT PUSH2 0xB6D JUMPI PUSH2 0xB6C PUSH2 0x356C JUMP JUMPDEST JUMPDEST SWAP1 POP PUSH1 0x20 MUL ADD PUSH1 0x20 DUP2 ADD SWAP1 PUSH2 0xB82 SWAP2 SWAP1 PUSH2 0x349B JUMP JUMPDEST PUSH20 0xFFFFFFFFFFFFFFFFFFFFFFFFFFFFFFFFFFFFFFFF AND PUSH4 0xF2FDE38B DUP4 PUSH1 0x40 MLOAD DUP3 PUSH4 0xFFFFFFFF AND PUSH1 0xE0 SHL DUP2 MSTORE PUSH1 0x4 ADD PUSH2 0xBBA SWAP2 SWAP1 PUSH2 0x2A75 JUMP JUMPDEST PUSH0 PUSH1 0x40 MLOAD DUP1 DUP4 SUB DUP2 PUSH0 DUP8 DUP1 EXTCODESIZE ISZERO DUP1 ISZERO PUSH2 0xBD1 JUMPI PUSH0 PUSH0 REVERT JUMPDEST POP GAS CALL ISZERO DUP1 ISZERO PUSH2 0xBE3 JUMPI RETURNDATASIZE PUSH0 PUSH0 RETURNDATACOPY RETURNDATASIZE PUSH0 REVERT JUMPDEST POP POP POP POP DUP1 PUSH1 0x1 ADD SWAP1 POP PUSH2 0xAD4 JUMP JUMPDEST POP POP POP POP JUMP JUMPDEST PUSH2 0xC00 PUSH2 0x8FF JUMP JUMPDEST PUSH20 0xFFFFFFFFFFFFFFFFFFFFFFFFFFFFFFFFFFFFFFFF AND CALLER PUSH20 0xFFFFFFFFFFFFFFFFFFFFFFFFFFFFFFFFFFFFFFFF AND EQ PUSH2 0xC6D JUMPI PUSH1 0x40 MLOAD PUSH32 0x8C379A000000000000000000000000000000000000000000000000000000000 DUP2 MSTORE PUSH1 0x4 ADD PUSH2 0xC64 SWAP1 PUSH2 0x3761 JUMP JUMPDEST PUSH1 0x40 MLOAD DUP1 SWAP2 SUB SWAP1 REVERT JUMPDEST PUSH0 PUSH0 PUSH2 0xC7D DUP12 DUP12 DUP11 DUP11 DUP11 DUP11 PUSH2 0x20A0 JUMP JUMPDEST SWAP2 POP SWAP2 POP DUP9 PUSH32 0xD8D7ECC4800D25FA53CE0372F13A416D98907A7EF3D8D3BDD79CF4FE75529C65 DUP13 DUP5 DUP14 DUP16 DUP13 DUP8 DUP13 DUP13 DUP13 PUSH1 0x40 MLOAD PUSH2 0xCC1 SWAP10 SWAP9 SWAP8 SWAP7 SWAP6 SWAP5 SWAP4 SWAP3 SWAP2 SWAP1 PUSH2 0x37D9 JUMP JUMPDEST PUSH1 0x40 MLOAD DUP1 SWAP2 SUB SWAP1 LOG2 POP POP POP POP POP POP POP POP POP POP POP JUMP JUMPDEST PUSH0 PUSH2 0xCDF PUSH2 0x2298 JUMP JUMPDEST DUP7 PUSH0 PUSH1 0x8 SHL PUSH1 0x4 PUSH0 DUP4 DUP2 MSTORE PUSH1 0x20 ADD SWAP1 DUP2 MSTORE PUSH1 0x20 ADD PUSH0 KECCAK256 PUSH0 ADD PUSH0 SWAP1 SLOAD SWAP1 PUSH2 0x100 EXP SWAP1 DIV PUSH1 0x8 SHL PUSH1 0xFF NOT AND SUB PUSH2 0xD48 JUMPI PUSH1 0x40 MLOAD PUSH32 0x8C379A000000000000000000000000000000000000000000000000000000000 DUP2 MSTORE PUSH1 0x4 ADD PUSH2 0xD3F SWAP1 PUSH2 0x38A8 JUMP JUMPDEST PUSH1 0x40 MLOAD DUP1 SWAP2 SUB SWAP1 REVERT JUMPDEST DUP6 PUSH1 0x5 PUSH0 DUP3 PUSH20 0xFFFFFFFFFFFFFFFFFFFFFFFFFFFFFFFFFFFFFFFF AND PUSH20 0xFFFFFFFFFFFFFFFFFFFFFFFFFFFFFFFFFFFFFFFF AND DUP2 MSTORE PUSH1 0x20 ADD SWAP1 DUP2 MSTORE PUSH1 0x20 ADD PUSH0 KECCAK256 PUSH0 SWAP1 SLOAD SWAP1 PUSH2 0x100 EXP SWAP1 DIV PUSH1 0xFF AND ISZERO PUSH2 0xDD3 JUMPI PUSH1 0x40 MLOAD PUSH32 0x8C379A000000000000000000000000000000000000000000000000000000000 DUP2 MSTORE PUSH1 0x4 ADD PUSH2 0xDCA SWAP1 PUSH2 0x3910 JUMP JUMPDEST PUSH1 0x40 MLOAD DUP1 SWAP2 SUB SWAP1 REVERT JUMPDEST PUSH2 0xDE2 DUP10 DUP10 DUP10 DUP10 DUP10 PUSH1 0x1 PUSH2 0x22E2 JUMP JUMPDEST DUP9 PUSH32 0x9E9BC7616D42C2835D05AE617E508454E63B30B934BE8AA932EBC125E0E58A64 PUSH1 0x40 MLOAD PUSH1 0x40 MLOAD DUP1 SWAP2 SUB SWAP1 LOG2 PUSH3 0x61A80 GAS LT ISZERO PUSH2 0xE55 JUMPI PUSH1 0x40 MLOAD PUSH32 0x8C379A000000000000000000000000000000000000000000000000000000000 DUP2 MSTORE PUSH1 0x4 ADD PUSH2 0xE4C SWAP1 PUSH2 0x3978 JUMP JUMPDEST PUSH1 0x40 MLOAD DUP1 SWAP2 SUB SWAP1 REVERT JUMPDEST PUSH0 DUP8 PUSH20 0xFFFFFFFFFFFFFFFFFFFFFFFFFFFFFFFFFFFFFFFF AND DUP8 DUP12 DUP8 PUSH1 0x40 MLOAD PUSH1 0x24 ADD PUSH2 0xE81 SWAP3 SWAP2 SWAP1 PUSH2 0x3996 JUMP JUMPDEST PUSH1 0x40 MLOAD PUSH1 0x20 DUP2 DUP4 SUB SUB DUP2 MSTORE SWAP1 PUSH1 0x40 MSTORE SWAP1 PUSH28 0xFFFFFFFFFFFFFFFFFFFFFFFFFFFFFFFFFFFFFFFFFFFFFFFFFFFFFFFF NOT AND PUSH1 0x20 DUP3 ADD DUP1 MLOAD PUSH28 0xFFFFFFFFFFFFFFFFFFFFFFFFFFFFFFFFFFFFFFFFFFFFFFFFFFFFFFFF DUP4 DUP2 DUP4 AND OR DUP4 MSTORE POP POP POP POP PUSH1 0x40 MLOAD PUSH2 0xEEB SWAP2 SWAP1 PUSH2 0x39F7 JUMP JUMPDEST PUSH0 PUSH1 0x40 MLOAD DUP1 DUP4 SUB DUP2 PUSH0 DUP7 GAS CALL SWAP2 POP POP RETURNDATASIZE DUP1 PUSH0 DUP2 EQ PUSH2 0xF24 JUMPI PUSH1 0x40 MLOAD SWAP2 POP PUSH1 0x1F NOT PUSH1 0x3F RETURNDATASIZE ADD AND DUP3 ADD PUSH1 0x40 MSTORE RETURNDATASIZE DUP3 MSTORE RETURNDATASIZE PUSH0 PUSH1 0x20 DUP5 ADD RETURNDATACOPY PUSH2 0xF29 JUMP JUMPDEST PUSH1 0x60 SWAP2 POP JUMPDEST POP POP SWAP1 POP DUP1 SWAP4 POP POP POP POP SWAP7 SWAP6 POP POP POP POP POP POP JUMP JUMPDEST PUSH0 PUSH2 0xF46 PUSH2 0x243F JUMP JUMPDEST SWAP1 POP SWAP1 JUMP JUMPDEST PUSH2 0x12C DUP2 JUMP JUMPDEST PUSH2 0xF59 PUSH2 0x1FC3 JUMP JUMPDEST PUSH2 0xF98 JUMPI PUSH1 0x40 MLOAD PUSH32 0x8C379A000000000000000000000000000000000000000000000000000000000 DUP2 MSTORE PUSH1 0x4 ADD PUSH2 0xF8F SWAP1 PUSH2 0x354E JUMP JUMPDEST PUSH1 0x40 MLOAD DUP1 SWAP2 SUB SWAP1 REVERT JUMPDEST PUSH2 0xFA2 DUP5 DUP5 PUSH2 0x58F JUMP JUMPDEST PUSH2 0xFAE DUP5 DUP5 DUP5 DUP5 PUSH2 0x1E8C JUMP JUMPDEST POP POP POP POP JUMP JUMPDEST PUSH0 PUSH2 0xFBD PUSH2 0x2298 JUMP JUMPDEST DUP8 PUSH0 PUSH1 0x8 SHL PUSH1 0x4 PUSH0 DUP4 DUP2 MSTORE PUSH1 0x20 ADD SWAP1 DUP2 MSTORE PUSH1 0x20 ADD PUSH0 KECCAK256 PUSH0 ADD PUSH0 SWAP1 SLOAD SWAP1 PUSH2 0x100 EXP SWAP1 DIV PUSH1 0x8 SHL PUSH1 0xFF NOT AND SUB PUSH2 0x1026 JUMPI PUSH1 0x40 MLOAD PUSH32 0x8C379A000000000000000000000000000000000000000000000000000000000 DUP2 MSTORE PUSH1 0x4 ADD PUSH2 0x101D SWAP1 PUSH2 0x38A8 JUMP JUMPDEST PUSH1 0x40 MLOAD DUP1 SWAP2 SUB SWAP1 REVERT JUMPDEST DUP7 PUSH1 0x5 PUSH0 DUP3 PUSH20 0xFFFFFFFFFFFFFFFFFFFFFFFFFFFFFFFFFFFFFFFF AND PUSH20 0xFFFFFFFFFFFFFFFFFFFFFFFFFFFFFFFFFFFFFFFF AND DUP2 MSTORE PUSH1 0x20 ADD SWAP1 DUP2 MSTORE PUSH1 0x20 ADD PUSH0 KECCAK256 PUSH0 SWAP1 SLOAD SWAP1 PUSH2 0x100 EXP SWAP1 DIV PUSH1 0xFF AND ISZERO PUSH2 0x10B1 JUMPI PUSH1 0x40 MLOAD PUSH32 0x8C379A000000000000000000000000000000000000000000000000000000000 DUP2 MSTORE PUSH1 0x4 ADD PUSH2 0x10A8 SWAP1 PUSH2 0x3910 JUMP JUMPDEST PUSH1 0x40 MLOAD DUP1 SWAP2 SUB SWAP1 REVERT JUMPDEST DUP10 DUP6 DUP6 PUSH1 0x20 DUP3 DUP3 SWAP1 POP LT ISZERO PUSH2 0x10FB JUMPI PUSH1 0x40 MLOAD PUSH32 0x8C379A000000000000000000000000000000000000000000000000000000000 DUP2 MSTORE PUSH1 0x4 ADD PUSH2 0x10F2 SWAP1 PUSH2 0x3A57 JUMP JUMPDEST PUSH1 0x40 MLOAD DUP1 SWAP2 SUB SWAP1 REVERT JUMPDEST PUSH0 DUP3 CALLDATALOAD SWAP1 POP DUP1 DUP5 EQ PUSH2 0x1142 JUMPI PUSH1 0x40 MLOAD PUSH32 0x8C379A000000000000000000000000000000000000000000000000000000000 DUP2 MSTORE PUSH1 0x4 ADD PUSH2 0x1139 SWAP1 PUSH2 0x3ABF JUMP JUMPDEST PUSH1 0x40 MLOAD DUP1 SWAP2 SUB SWAP1 REVERT JUMPDEST PUSH2 0x1151 DUP15 DUP15 DUP15 DUP15 DUP15 PUSH1 0x2 PUSH2 0x22E2 JUMP JUMPDEST DUP14 PUSH32 0x9E9BC7616D42C2835D05AE617E508454E63B30B934BE8AA932EBC125E0E58A64 PUSH1 0x40 MLOAD PUSH1 0x40 MLOAD DUP1 SWAP2 SUB SWAP1 LOG2 PUSH3 0x61A80 GAS LT ISZERO PUSH2 0x11C4 JUMPI PUSH1 0x40 MLOAD PUSH32 0x8C379A000000000000000000000000000000000000000000000000000000000 DUP2 MSTORE PUSH1 0x4 ADD PUSH2 0x11BB SWAP1 PUSH2 0x3978 JUMP JUMPDEST PUSH1 0x40 MLOAD DUP1 SWAP2 SUB SWAP1 REVERT JUMPDEST PUSH0 DUP13 PUSH20 0xFFFFFFFFFFFFFFFFFFFFFFFFFFFFFFFFFFFFFFFF AND DUP13 DUP12 DUP12 PUSH1 0x40 MLOAD PUSH1 0x20 ADD PUSH2 0x11F1 SWAP4 SWAP3 SWAP2 SWAP1 PUSH2 0x3AFD JUMP JUMPDEST PUSH1 0x40 MLOAD PUSH1 0x20 DUP2 DUP4 SUB SUB DUP2 MSTORE SWAP1 PUSH1 0x40 MSTORE PUSH1 0x40 MLOAD PUSH2 0x120D SWAP2 SWAP1 PUSH2 0x39F7 JUMP JUMPDEST PUSH0 PUSH1 0x40 MLOAD DUP1 DUP4 SUB DUP2 PUSH0 DUP7 GAS CALL SWAP2 POP POP RETURNDATASIZE DUP1 PUSH0 DUP2 EQ PUSH2 0x1246 JUMPI PUSH1 0x40 MLOAD SWAP2 POP PUSH1 0x1F NOT PUSH1 0x3F RETURNDATASIZE ADD AND DUP3 ADD PUSH1 0x40 MSTORE RETURNDATASIZE DUP3 MSTORE RETURNDATASIZE PUSH0 PUSH1 0x20 DUP5 ADD RETURNDATACOPY PUSH2 0x124B JUMP JUMPDEST PUSH1 0x60 SWAP2 POP JUMPDEST POP POP SWAP1 POP DUP1 SWAP8 POP POP POP POP POP POP POP POP SWAP8 SWAP7 POP POP POP POP POP POP POP JUMP JUMPDEST PUSH0 DUP5 DUP5 SWAP1 POP GT DUP1 ISZERO PUSH2 0x127B JUMPI POP DUP2 DUP2 SWAP1 POP DUP5 DUP5 SWAP1 POP EQ JUMPDEST PUSH2 0x12BA JUMPI PUSH1 0x40 MLOAD PUSH32 0x8C379A000000000000000000000000000000000000000000000000000000000 DUP2 MSTORE PUSH1 0x4 ADD PUSH2 0x12B1 SWAP1 PUSH2 0x3B70 JUMP JUMPDEST PUSH1 0x40 MLOAD DUP1 SWAP2 SUB SWAP1 REVERT JUMPDEST PUSH0 CALLVALUE SWAP1 POP PUSH0 PUSH0 SWAP1 POP JUMPDEST DUP6 DUP6 SWAP1 POP DUP2 LT ISZERO PUSH2 0x13D5 JUMPI PUSH0 DUP5 DUP5 DUP4 DUP2 DUP2 LT PUSH2 0x12E2 JUMPI PUSH2 0x12E1 PUSH2 0x356C JUMP JUMPDEST JUMPDEST SWAP1 POP PUSH1 0x20 MUL ADD CALLDATALOAD SWAP1 POP DUP1 DUP4 PUSH2 0x12F7 SWAP2 SWAP1 PUSH2 0x3BBB JUMP JUMPDEST SWAP3 POP PUSH0 DUP8 DUP8 DUP5 DUP2 DUP2 LT PUSH2 0x130D JUMPI PUSH2 0x130C PUSH2 0x356C JUMP JUMPDEST JUMPDEST SWAP1 POP PUSH1 0x20 MUL ADD PUSH1 0x20 DUP2 ADD SWAP1 PUSH2 0x1322 SWAP2 SWAP1 PUSH2 0x3C29 JUMP JUMPDEST PUSH20 0xFFFFFFFFFFFFFFFFFFFFFFFFFFFFFFFFFFFFFFFF AND DUP3 PUSH1 0x40 MLOAD PUSH2 0x1345 SWAP1 PUSH2 0x3C77 JUMP JUMPDEST PUSH0 PUSH1 0x40 MLOAD DUP1 DUP4 SUB DUP2 DUP6 DUP8 GAS CALL SWAP3 POP POP POP RETURNDATASIZE DUP1 PUSH0 DUP2 EQ PUSH2 0x137F JUMPI PUSH1 0x40 MLOAD SWAP2 POP PUSH1 0x1F NOT PUSH1 0x3F RETURNDATASIZE ADD AND DUP3 ADD PUSH1 0x40 MSTORE RETURNDATASIZE DUP3 MSTORE RETURNDATASIZE PUSH0 PUSH1 0x20 DUP5 ADD RETURNDATACOPY PUSH2 0x1384 JUMP JUMPDEST PUSH1 0x60 SWAP2 POP JUMPDEST POP POP SWAP1 POP DUP1 PUSH2 0x13C8 JUMPI PUSH1 0x40 MLOAD PUSH32 0x8C379A000000000000000000000000000000000000000000000000000000000 DUP2 MSTORE PUSH1 0x4 ADD PUSH2 0x13BF SWAP1 PUSH2 0x3CFB JUMP JUMPDEST PUSH1 0x40 MLOAD DUP1 SWAP2 SUB SWAP1 REVERT JUMPDEST POP POP DUP1 PUSH1 0x1 ADD SWAP1 POP PUSH2 0x12C3 JUMP JUMPDEST POP PUSH0 DUP2 EQ PUSH2 0x1418 JUMPI PUSH1 0x40 MLOAD PUSH32 0x8C379A000000000000000000000000000000000000000000000000000000000 DUP2 MSTORE PUSH1 0x4 ADD PUSH2 0x140F SWAP1 PUSH2 0x3D63 JUMP JUMPDEST PUSH1 0x40 MLOAD DUP1 SWAP2 SUB SWAP1 REVERT JUMPDEST POP POP POP POP POP JUMP JUMPDEST PUSH0 PUSH2 0x142C DUP5 CALLER DUP6 DUP6 PUSH2 0x24F6 JUMP JUMPDEST SWAP1 POP DUP1 PUSH1 0xFF NOT AND PUSH1 0x4 PUSH0 DUP8 DUP2 MSTORE PUSH1 0x20 ADD SWAP1 DUP2 MSTORE PUSH1 0x20 ADD PUSH0 KECCAK256 PUSH0 ADD PUSH0 SWAP1 SLOAD SWAP1 PUSH2 0x100 EXP SWAP1 DIV PUSH1 0x8 SHL PUSH1 0xFF NOT AND EQ PUSH2 0x1497 JUMPI PUSH1 0x40 MLOAD PUSH32 0x8C379A000000000000000000000000000000000000000000000000000000000 DUP2 MSTORE PUSH1 0x4 ADD PUSH2 0x148E SWAP1 PUSH2 0x3DCB JUMP JUMPDEST PUSH1 0x40 MLOAD DUP1 SWAP2 SUB SWAP1 REVERT JUMPDEST TIMESTAMP DUP3 GT ISZERO PUSH2 0x14DA JUMPI PUSH1 0x40 MLOAD PUSH32 0x8C379A000000000000000000000000000000000000000000000000000000000 DUP2 MSTORE PUSH1 0x4 ADD PUSH2 0x14D1 SWAP1 PUSH2 0x3E33 JUMP JUMPDEST PUSH1 0x40 MLOAD DUP1 SWAP2 SUB SWAP1 REVERT JUMPDEST PUSH1 0x4 PUSH0 DUP7 DUP2 MSTORE PUSH1 0x20 ADD SWAP1 DUP2 MSTORE PUSH1 0x20 ADD PUSH0 KECCAK256 PUSH0 PUSH0 DUP3 ADD PUSH0 PUSH2 0x100 EXP DUP2 SLOAD SWAP1 PUSH31 0xFFFFFFFFFFFFFFFFFFFFFFFFFFFFFFFFFFFFFFFFFFFFFFFFFFFFFFFFFFFFFF MUL NOT AND SWAP1 SSTORE PUSH0 DUP3 ADD PUSH1 0x1F PUSH2 0x100 EXP DUP2 SLOAD SWAP1 PUSH1 0xFF MUL NOT AND SWAP1 SSTORE POP POP DUP5 PUSH32 0xA7842B9EC549398102C0D91B1B9919B2F20558AEFDADF57528A95C6CD3292E93 PUSH1 0x40 MLOAD PUSH1 0x40 MLOAD DUP1 SWAP2 SUB SWAP1 LOG2 DUP4 PUSH1 0x6 PUSH0 DUP3 DUP3 SLOAD PUSH2 0x156F SWAP2 SWAP1 PUSH2 0x3BBB JUMP JUMPDEST SWAP3 POP POP DUP2 SWAP1 SSTORE POP PUSH32 0x0 PUSH20 0xFFFFFFFFFFFFFFFFFFFFFFFFFFFFFFFFFFFFFFFF AND PUSH4 0xA9059CBB CALLER DUP7 PUSH1 0x40 MLOAD DUP4 PUSH4 0xFFFFFFFF AND PUSH1 0xE0 SHL DUP2 MSTORE PUSH1 0x4 ADD PUSH2 0x15D1 SWAP3 SWAP2 SWAP1 PUSH2 0x3E51 JUMP JUMPDEST PUSH1 0x20 PUSH1 0x40 MLOAD DUP1 DUP4 SUB DUP2 PUSH0 DUP8 GAS CALL ISZERO DUP1 ISZERO PUSH2 0x15ED JUMPI RETURNDATASIZE PUSH0 PUSH0 RETURNDATACOPY RETURNDATASIZE PUSH0 REVERT JUMPDEST POP POP POP POP PUSH1 0x40 MLOAD RETURNDATASIZE PUSH1 0x1F NOT PUSH1 0x1F DUP3 ADD AND DUP3 ADD DUP1 PUSH1 0x40 MSTORE POP DUP2 ADD SWAP1 PUSH2 0x1611 SWAP2 SWAP1 PUSH2 0x3EA2 JUMP JUMPDEST POP POP POP POP POP POP JUMP JUMPDEST PUSH1 0x3 PUSH0 SWAP1 SLOAD SWAP1 PUSH2 0x100 EXP SWAP1 DIV PUSH20 0xFFFFFFFFFFFFFFFFFFFFFFFFFFFFFFFFFFFFFFFF AND PUSH20 0xFFFFFFFFFFFFFFFFFFFFFFFFFFFFFFFFFFFFFFFF AND CALLER PUSH20 0xFFFFFFFFFFFFFFFFFFFFFFFFFFFFFFFFFFFFFFFF AND EQ PUSH2 0x16A8 JUMPI PUSH1 0x40 MLOAD PUSH32 0x8C379A000000000000000000000000000000000000000000000000000000000 DUP2 MSTORE PUSH1 0x4 ADD PUSH2 0x169F SWAP1 PUSH2 0x3F17 JUMP JUMPDEST PUSH1 0x40 MLOAD DUP1 SWAP2 SUB SWAP1 REVERT JUMPDEST PUSH0 PUSH1 0x2 PUSH0 SWAP1 SLOAD SWAP1 PUSH2 0x100 EXP SWAP1 DIV PUSH20 0xFFFFFFFFFFFFFFFFFFFFFFFFFFFFFFFFFFFFFFFF AND SWAP1 POP CALLER PUSH1 0x2 PUSH0 PUSH2 0x100 EXP DUP2 SLOAD DUP2 PUSH20 0xFFFFFFFFFFFFFFFFFFFFFFFFFFFFFFFFFFFFFFFF MUL NOT AND SWAP1 DUP4 PUSH20 0xFFFFFFFFFFFFFFFFFFFFFFFFFFFFFFFFFFFFFFFF AND MUL OR SWAP1 SSTORE POP PUSH0 PUSH1 0x3 PUSH0 PUSH2 0x100 EXP DUP2 SLOAD DUP2 PUSH20 0xFFFFFFFFFFFFFFFFFFFFFFFFFFFFFFFFFFFFFFFF MUL NOT AND SWAP1 DUP4 PUSH20 0xFFFFFFFFFFFFFFFFFFFFFFFFFFFFFFFFFFFFFFFF AND MUL OR SWAP1 SSTORE POP CALLER PUSH20 0xFFFFFFFFFFFFFFFFFFFFFFFFFFFFFFFFFFFFFFFF AND DUP2 PUSH20 0xFFFFFFFFFFFFFFFFFFFFFFFFFFFFFFFFFFFFFFFF AND PUSH32 0x8BE0079C531659141344CD1FD0A4F28419497F9722A3DAAFE3B4186F6B6457E0 PUSH1 0x40 MLOAD PUSH1 0x40 MLOAD DUP1 SWAP2 SUB SWAP1 LOG3 POP JUMP JUMPDEST PUSH0 PUSH1 0x2 PUSH0 SWAP1 SLOAD SWAP1 PUSH2 0x100 EXP SWAP1 DIV PUSH20 0xFFFFFFFFFFFFFFFFFFFFFFFFFFFFFFFFFFFFFFFF AND SWAP1 POP SWAP1 JUMP JUMPDEST PUSH0 PUSH2 0x17DB PUSH2 0x200F JUMP JUMPDEST DUP4 DUP1 PUSH2 0x17E5 PUSH2 0x243F JUMP JUMPDEST LT ISZERO PUSH2 0x1826 JUMPI PUSH1 0x40 MLOAD PUSH32 0x8C379A000000000000000000000000000000000000000000000000000000000 DUP2 MSTORE PUSH1 0x4 ADD PUSH2 0x181D SWAP1 PUSH2 0x3FA5 JUMP JUMPDEST PUSH1 0x40 MLOAD DUP1 SWAP2 SUB SWAP1 REVERT JUMPDEST PUSH32 0x0 PUSH20 0xFFFFFFFFFFFFFFFFFFFFFFFFFFFFFFFFFFFFFFFF AND PUSH4 0x4000AEA0 DUP8 DUP8 DUP8 DUP8 PUSH1 0x40 MLOAD DUP6 PUSH4 0xFFFFFFFF AND PUSH1 0xE0 SHL DUP2 MSTORE PUSH1 0x4 ADD PUSH2 0x1885 SWAP5 SWAP4 SWAP3 SWAP2 SWAP1 PUSH2 0x3FC3 JUMP JUMPDEST PUSH1 0x20 PUSH1 0x40 MLOAD DUP1 DUP4 SUB DUP2 PUSH0 DUP8 GAS CALL ISZERO DUP1 ISZERO PUSH2 0x18A1 JUMPI RETURNDATASIZE PUSH0 PUSH0 RETURNDATACOPY RETURNDATASIZE PUSH0 REVERT JUMPDEST POP POP POP POP PUSH1 0x40 MLOAD RETURNDATASIZE PUSH1 0x1F NOT PUSH1 0x1F DUP3 ADD AND DUP3 ADD DUP1 PUSH1 0x40 MSTORE POP DUP2 ADD SWAP1 PUSH2 0x18C5 SWAP2 SWAP1 PUSH2 0x3EA2 JUMP JUMPDEST SWAP2 POP POP SWAP5 SWAP4 POP POP POP POP JUMP JUMPDEST PUSH2 0x18D8 PUSH2 0x8FF JUMP JUMPDEST PUSH20 0xFFFFFFFFFFFFFFFFFFFFFFFFFFFFFFFFFFFFFFFF AND CALLER PUSH20 0xFFFFFFFFFFFFFFFFFFFFFFFFFFFFFFFFFFFFFFFF AND EQ PUSH2 0x1945 JUMPI PUSH1 0x40 MLOAD PUSH32 0x8C379A000000000000000000000000000000000000000000000000000000000 DUP2 MSTORE PUSH1 0x4 ADD PUSH2 0x193C SWAP1 PUSH2 0x3761 JUMP JUMPDEST PUSH1 0x40 MLOAD DUP1 SWAP2 SUB SWAP1 REVERT JUMPDEST DUP1 PUSH0 PUSH1 0x20 DUP3 ADD MLOAD SWAP1 POP PUSH2 0x1958 DUP2 DUP4 PUSH2 0x252E JUMP JUMPDEST DUP5 PUSH1 0x24 DUP5 ADD MSTORE DUP4 PUSH1 0x44 DUP5 ADD MSTORE PUSH0 ADDRESS PUSH20 0xFFFFFFFFFFFFFFFFFFFFFFFFFFFFFFFFFFFFFFFF AND DUP5 PUSH1 0x40 MLOAD PUSH2 0x198A SWAP2 SWAP1 PUSH2 0x39F7 JUMP JUMPDEST PUSH0 PUSH1 0x40 MLOAD DUP1 DUP4 SUB DUP2 DUP6 GAS DELEGATECALL SWAP2 POP POP RETURNDATASIZE DUP1 PUSH0 DUP2 EQ PUSH2 0x19C2 JUMPI PUSH1 0x40 MLOAD SWAP2 POP PUSH1 0x1F NOT PUSH1 0x3F RETURNDATASIZE ADD AND DUP3 ADD PUSH1 0x40 MSTORE RETURNDATASIZE DUP3 MSTORE RETURNDATASIZE PUSH0 PUSH1 0x20 DUP5 ADD RETURNDATACOPY PUSH2 0x19C7 JUMP JUMPDEST PUSH1 0x60 SWAP2 POP JUMPDEST POP POP SWAP1 POP DUP1 PUSH2 0x1A0B JUMPI PUSH1 0x40 MLOAD PUSH32 0x8C379A000000000000000000000000000000000000000000000000000000000 DUP2 MSTORE PUSH1 0x4 ADD PUSH2 0x1A02 SWAP1 PUSH2 0x404B JUMP JUMPDEST PUSH1 0x40 MLOAD DUP1 SWAP2 SUB SWAP1 REVERT JUMPDEST POP POP POP POP POP POP JUMP JUMPDEST PUSH2 0x1A47 CALLER DUP6 PUSH1 0x40 MLOAD PUSH1 0x20 ADD PUSH2 0x1A29 SWAP3 SWAP2 SWAP1 PUSH2 0x40CE JUMP JUMPDEST PUSH1 0x40 MLOAD PUSH1 0x20 DUP2 DUP4 SUB SUB DUP2 MSTORE SWAP1 PUSH1 0x40 MSTORE DUP1 MLOAD SWAP1 PUSH1 0x20 ADD KECCAK256 DUP5 DUP5 DUP5 PUSH2 0x141F JUMP JUMPDEST POP POP POP POP JUMP JUMPDEST PUSH2 0x1A55 PUSH2 0x1FC3 JUMP JUMPDEST PUSH2 0x1A94 JUMPI PUSH1 0x40 MLOAD PUSH32 0x8C379A000000000000000000000000000000000000000000000000000000000 DUP2 MSTORE PUSH1 0x4 ADD PUSH2 0x1A8B SWAP1 PUSH2 0x354E JUMP JUMPDEST PUSH1 0x40 MLOAD DUP1 SWAP2 SUB SWAP1 REVERT JUMPDEST PUSH0 DUP3 DUP3 SWAP1 POP GT PUSH2 0x1AD9 JUMPI PUSH1 0x40 MLOAD PUSH32 0x8C379A000000000000000000000000000000000000000000000000000000000 DUP2 MSTORE PUSH1 0x4 ADD PUSH2 0x1AD0 SWAP1 PUSH2 0x4143 JUMP JUMPDEST PUSH1 0x40 MLOAD DUP1 SWAP2 SUB SWAP1 REVERT JUMPDEST PUSH0 PUSH1 0x1 DUP1 SLOAD SWAP1 POP SWAP1 POP PUSH0 PUSH0 SWAP1 POP JUMPDEST DUP2 DUP2 LT ISZERO PUSH2 0x1B88 JUMPI PUSH0 PUSH0 PUSH0 PUSH1 0x1 DUP5 DUP2 SLOAD DUP2 LT PUSH2 0x1B06 JUMPI PUSH2 0x1B05 PUSH2 0x356C JUMP JUMPDEST JUMPDEST SWAP1 PUSH0 MSTORE PUSH1 0x20 PUSH0 KECCAK256 ADD PUSH0 SWAP1 SLOAD SWAP1 PUSH2 0x100 EXP SWAP1 DIV PUSH20 0xFFFFFFFFFFFFFFFFFFFFFFFFFFFFFFFFFFFFFFFF AND PUSH20 0xFFFFFFFFFFFFFFFFFFFFFFFFFFFFFFFFFFFFFFFF AND PUSH20 0xFFFFFFFFFFFFFFFFFFFFFFFFFFFFFFFFFFFFFFFF AND DUP2 MSTORE PUSH1 0x20 ADD SWAP1 DUP2 MSTORE PUSH1 0x20 ADD PUSH0 KECCAK256 PUSH0 PUSH2 0x100 EXP DUP2 SLOAD DUP2 PUSH1 0xFF MUL NOT AND SWAP1 DUP4 ISZERO ISZERO MUL OR SWAP1 SSTORE POP DUP1 PUSH1 0x1 ADD SWAP1 POP PUSH2 0x1AE7 JUMP JUMPDEST POP PUSH0 PUSH0 SWAP1 POP JUMPDEST DUP4 DUP4 SWAP1 POP DUP2 LT ISZERO PUSH2 0x1CD4 JUMPI PUSH0 ISZERO ISZERO PUSH0 PUSH0 DUP7 DUP7 DUP6 DUP2 DUP2 LT PUSH2 0x1BB1 JUMPI PUSH2 0x1BB0 PUSH2 0x356C JUMP JUMPDEST JUMPDEST SWAP1 POP PUSH1 0x20 MUL ADD PUSH1 0x20 DUP2 ADD SWAP1 PUSH2 0x1BC6 SWAP2 SWAP1 PUSH2 0x349B JUMP JUMPDEST PUSH20 0xFFFFFFFFFFFFFFFFFFFFFFFFFFFFFFFFFFFFFFFF AND PUSH20 0xFFFFFFFFFFFFFFFFFFFFFFFFFFFFFFFFFFFFFFFF AND DUP2 MSTORE PUSH1 0x20 ADD SWAP1 DUP2 MSTORE PUSH1 0x20 ADD PUSH0 KECCAK256 PUSH0 SWAP1 SLOAD SWAP1 PUSH2 0x100 EXP SWAP1 DIV PUSH1 0xFF AND ISZERO ISZERO EQ PUSH2 0x1C4E JUMPI PUSH1 0x40 MLOAD PUSH32 0x8C379A000000000000000000000000000000000000000000000000000000000 DUP2 MSTORE PUSH1 0x4 ADD PUSH2 0x1C45 SWAP1 PUSH2 0x41AB JUMP JUMPDEST PUSH1 0x40 MLOAD DUP1 SWAP2 SUB SWAP1 REVERT JUMPDEST PUSH1 0x1 PUSH0 PUSH0 DUP7 DUP7 DUP6 DUP2 DUP2 LT PUSH2 0x1C65 JUMPI PUSH2 0x1C64 PUSH2 0x356C JUMP JUMPDEST JUMPDEST SWAP1 POP PUSH1 0x20 MUL ADD PUSH1 0x20 DUP2 ADD SWAP1 PUSH2 0x1C7A SWAP2 SWAP1 PUSH2 0x349B JUMP JUMPDEST PUSH20 0xFFFFFFFFFFFFFFFFFFFFFFFFFFFFFFFFFFFFFFFF AND PUSH20 0xFFFFFFFFFFFFFFFFFFFFFFFFFFFFFFFFFFFFFFFF AND DUP2 MSTORE PUSH1 0x20 ADD SWAP1 DUP2 MSTORE PUSH1 0x20 ADD PUSH0 KECCAK256 PUSH0 PUSH2 0x100 EXP DUP2 SLOAD DUP2 PUSH1 0xFF MUL NOT AND SWAP1 DUP4 ISZERO ISZERO MUL OR SWAP1 SSTORE POP DUP1 PUSH1 0x1 ADD SWAP1 POP PUSH2 0x1B8E JUMP JUMPDEST POP DUP3 DUP3 PUSH1 0x1 SWAP2 SWAP1 PUSH2 0x1CE6 SWAP3 SWAP2 SWAP1 PUSH2 0x27E5 JUMP JUMPDEST POP PUSH32 0xF263CFB3E4298332E776194610CF9FDC09CCB3ADA8B9AA39764D882E11FBF0A0 DUP4 DUP4 CALLER PUSH1 0x40 MLOAD PUSH2 0x1D1A SWAP4 SWAP3 SWAP2 SWAP1 PUSH2 0x424F JUMP JUMPDEST PUSH1 0x40 MLOAD DUP1 SWAP2 SUB SWAP1 LOG1 POP POP POP JUMP JUMPDEST PUSH2 0x1D2F PUSH2 0x200F JUMP JUMPDEST PUSH2 0x1D38 DUP2 PUSH2 0x2665 JUMP JUMPDEST POP JUMP JUMPDEST PUSH2 0x1D43 PUSH2 0x200F JUMP JUMPDEST DUP1 DUP1 PUSH2 0x1D4D PUSH2 0x243F JUMP JUMPDEST LT ISZERO PUSH2 0x1D8E JUMPI PUSH1 0x40 MLOAD PUSH32 0x8C379A000000000000000000000000000000000000000000000000000000000 DUP2 MSTORE PUSH1 0x4 ADD PUSH2 0x1D85 SWAP1 PUSH2 0x3FA5 JUMP JUMPDEST PUSH1 0x40 MLOAD DUP1 SWAP2 SUB SWAP1 REVERT JUMPDEST PUSH32 0x0 PUSH20 0xFFFFFFFFFFFFFFFFFFFFFFFFFFFFFFFFFFFFFFFF AND PUSH4 0xA9059CBB DUP5 DUP5 PUSH1 0x40 MLOAD DUP4 PUSH4 0xFFFFFFFF AND PUSH1 0xE0 SHL DUP2 MSTORE PUSH1 0x4 ADD PUSH2 0x1DE9 SWAP3 SWAP2 SWAP1 PUSH2 0x3E51 JUMP JUMPDEST PUSH1 0x20 PUSH1 0x40 MLOAD DUP1 DUP4 SUB DUP2 PUSH0 DUP8 GAS CALL ISZERO DUP1 ISZERO PUSH2 0x1E05 JUMPI RETURNDATASIZE PUSH0 PUSH0 RETURNDATACOPY RETURNDATASIZE PUSH0 REVERT JUMPDEST POP POP POP POP PUSH1 0x40 MLOAD RETURNDATASIZE PUSH1 0x1F NOT PUSH1 0x1F DUP3 ADD AND DUP3 ADD DUP1 PUSH1 0x40 MSTORE POP DUP2 ADD SWAP1 PUSH2 0x1E29 SWAP2 SWAP1 PUSH2 0x3EA2 JUMP JUMPDEST PUSH2 0x1E36 JUMPI PUSH2 0x1E35 PUSH2 0x427F JUMP JUMPDEST JUMPDEST POP POP POP JUMP JUMPDEST PUSH0 PUSH0 PUSH0 DUP4 PUSH20 0xFFFFFFFFFFFFFFFFFFFFFFFFFFFFFFFFFFFFFFFF AND PUSH20 0xFFFFFFFFFFFFFFFFFFFFFFFFFFFFFFFFFFFFFFFF AND DUP2 MSTORE PUSH1 0x20 ADD SWAP1 DUP2 MSTORE PUSH1 0x20 ADD PUSH0 KECCAK256 PUSH0 SWAP1 SLOAD SWAP1 PUSH2 0x100 EXP SWAP1 DIV PUSH1 0xFF AND SWAP1 POP SWAP2 SWAP1 POP JUMP JUMPDEST PUSH2 0x1E94 PUSH2 0x1FC3 JUMP JUMPDEST PUSH2 0x1ED3 JUMPI PUSH1 0x40 MLOAD PUSH32 0x8C379A000000000000000000000000000000000000000000000000000000000 DUP2 MSTORE PUSH1 0x4 ADD PUSH2 0x1ECA SWAP1 PUSH2 0x354E JUMP JUMPDEST PUSH1 0x40 MLOAD DUP1 SWAP2 SUB SWAP1 REVERT JUMPDEST PUSH32 0x1BB185903E2CB2F1B303523128B60E314DEA81DF4F8D9B7351CADD344F6E7727 DUP5 DUP5 DUP5 DUP5 CALLER PUSH1 0x40 MLOAD PUSH2 0x1F0A SWAP6 SWAP5 SWAP4 SWAP3 SWAP2 SWAP1 PUSH2 0x42AC JUMP JUMPDEST PUSH1 0x40 MLOAD DUP1 SWAP2 SUB SWAP1 LOG1 PUSH0 PUSH0 SWAP1 POP JUMPDEST DUP5 DUP5 SWAP1 POP DUP2 LT ISZERO PUSH2 0x1FBC JUMPI DUP5 DUP5 DUP3 DUP2 DUP2 LT PUSH2 0x1F35 JUMPI PUSH2 0x1F34 PUSH2 0x356C JUMP JUMPDEST JUMPDEST SWAP1 POP PUSH1 0x20 MUL ADD PUSH1 0x20 DUP2 ADD SWAP1 PUSH2 0x1F4A SWAP2 SWAP1 PUSH2 0x349B JUMP JUMPDEST PUSH20 0xFFFFFFFFFFFFFFFFFFFFFFFFFFFFFFFFFFFFFFFF AND PUSH4 0xEE56997B DUP5 DUP5 PUSH1 0x40 MLOAD DUP4 PUSH4 0xFFFFFFFF AND PUSH1 0xE0 SHL DUP2 MSTORE PUSH1 0x4 ADD PUSH2 0x1F84 SWAP3 SWAP2 SWAP1 PUSH2 0x42F3 JUMP JUMPDEST PUSH0 PUSH1 0x40 MLOAD DUP1 DUP4 SUB DUP2 PUSH0 DUP8 DUP1 EXTCODESIZE ISZERO DUP1 ISZERO PUSH2 0x1F9B JUMPI PUSH0 PUSH0 REVERT JUMPDEST POP GAS CALL ISZERO DUP1 ISZERO PUSH2 0x1FAD JUMPI RETURNDATASIZE PUSH0 PUSH0 RETURNDATACOPY RETURNDATASIZE PUSH0 REVERT JUMPDEST POP POP POP POP DUP1 PUSH1 0x1 ADD SWAP1 POP PUSH2 0x1F17 JUMP JUMPDEST POP POP POP POP POP JUMP JUMPDEST PUSH0 PUSH2 0x1FCD CALLER PUSH2 0x1E3B JUMP JUMPDEST DUP1 PUSH2 0x200A JUMPI POP CALLER PUSH20 0xFFFFFFFFFFFFFFFFFFFFFFFFFFFFFFFFFFFFFFFF AND PUSH2 0x1FF2 PUSH2 0x17AA JUMP JUMPDEST PUSH20 0xFFFFFFFFFFFFFFFFFFFFFFFFFFFFFFFFFFFFFFFF AND EQ JUMPDEST SWAP1 POP SWAP1 JUMP JUMPDEST PUSH1 0x2 PUSH0 SWAP1 SLOAD SWAP1 PUSH2 0x100 EXP SWAP1 DIV PUSH20 0xFFFFFFFFFFFFFFFFFFFFFFFFFFFFFFFFFFFFFFFF AND PUSH20 0xFFFFFFFFFFFFFFFFFFFFFFFFFFFFFFFFFFFFFFFF AND CALLER PUSH20 0xFFFFFFFFFFFFFFFFFFFFFFFFFFFFFFFFFFFFFFFF AND EQ PUSH2 0x209E JUMPI PUSH1 0x40 MLOAD PUSH32 0x8C379A000000000000000000000000000000000000000000000000000000000 DUP2 MSTORE PUSH1 0x4 ADD PUSH2 0x2095 SWAP1 PUSH2 0x435F JUMP JUMPDEST PUSH1 0x40 MLOAD DUP1 SWAP2 SUB SWAP1 REVERT JUMPDEST JUMP JUMPDEST PUSH0 PUSH0 DUP6 PUSH32 0x0 PUSH20 0xFFFFFFFFFFFFFFFFFFFFFFFFFFFFFFFFFFFFFFFF AND DUP2 PUSH20 0xFFFFFFFFFFFFFFFFFFFFFFFFFFFFFFFFFFFFFFFF AND SUB PUSH2 0x2131 JUMPI PUSH1 0x40 MLOAD PUSH32 0x8C379A000000000000000000000000000000000000000000000000000000000 DUP2 MSTORE PUSH1 0x4 ADD PUSH2 0x2128 SWAP1 PUSH2 0x35E3 JUMP JUMPDEST PUSH1 0x40 MLOAD DUP1 SWAP2 SUB SWAP1 REVERT JUMPDEST DUP9 DUP6 PUSH1 0x40 MLOAD PUSH1 0x20 ADD PUSH2 0x2144 SWAP3 SWAP2 SWAP1 PUSH2 0x40CE JUMP JUMPDEST PUSH1 0x40 MLOAD PUSH1 0x20 DUP2 DUP4 SUB SUB DUP2 MSTORE SWAP1 PUSH1 0x40 MSTORE DUP1 MLOAD SWAP1 PUSH1 0x20 ADD KECCAK256 SWAP3 POP PUSH0 PUSH1 0x8 SHL PUSH1 0x4 PUSH0 DUP6 DUP2 MSTORE PUSH1 0x20 ADD SWAP1 DUP2 MSTORE PUSH1 0x20 ADD PUSH0 KECCAK256 PUSH0 ADD PUSH0 SWAP1 SLOAD SWAP1 PUSH2 0x100 EXP SWAP1 DIV PUSH1 0x8 SHL PUSH1 0xFF NOT AND EQ PUSH2 0x21C4 JUMPI PUSH1 0x40 MLOAD PUSH32 0x8C379A000000000000000000000000000000000000000000000000000000000 DUP2 MSTORE PUSH1 0x4 ADD PUSH2 0x21BB SWAP1 PUSH2 0x43C7 JUMP JUMPDEST PUSH1 0x40 MLOAD DUP1 SWAP2 SUB SWAP1 REVERT JUMPDEST PUSH2 0x12C TIMESTAMP PUSH2 0x21D2 SWAP2 SWAP1 PUSH2 0x43E5 JUMP JUMPDEST SWAP2 POP PUSH0 PUSH2 0x21E1 DUP10 DUP10 DUP10 DUP7 PUSH2 0x24F6 JUMP JUMPDEST SWAP1 POP PUSH1 0x40 MLOAD DUP1 PUSH1 0x40 ADD PUSH1 0x40 MSTORE DUP1 DUP3 PUSH1 0xFF NOT AND DUP2 MSTORE PUSH1 0x20 ADD PUSH2 0x2201 DUP8 PUSH2 0x2791 JUMP JUMPDEST PUSH1 0xFF AND DUP2 MSTORE POP PUSH1 0x4 PUSH0 DUP7 DUP2 MSTORE PUSH1 0x20 ADD SWAP1 DUP2 MSTORE PUSH1 0x20 ADD PUSH0 KECCAK256 PUSH0 DUP3 ADD MLOAD DUP2 PUSH0 ADD PUSH0 PUSH2 0x100 EXP DUP2 SLOAD DUP2 PUSH31 0xFFFFFFFFFFFFFFFFFFFFFFFFFFFFFFFFFFFFFFFFFFFFFFFFFFFFFFFFFFFFFF MUL NOT AND SWAP1 DUP4 PUSH1 0x8 SHR MUL OR SWAP1 SSTORE POP PUSH1 0x20 DUP3 ADD MLOAD DUP2 PUSH0 ADD PUSH1 0x1F PUSH2 0x100 EXP DUP2 SLOAD DUP2 PUSH1 0xFF MUL NOT AND SWAP1 DUP4 PUSH1 0xFF AND MUL OR SWAP1 SSTORE POP SWAP1 POP POP DUP9 PUSH1 0x6 SLOAD PUSH2 0x2285 SWAP2 SWAP1 PUSH2 0x43E5 JUMP JUMPDEST PUSH1 0x6 DUP2 SWAP1 SSTORE POP POP POP SWAP7 POP SWAP7 SWAP5 POP POP POP POP POP JUMP JUMPDEST PUSH2 0x22A1 CALLER PUSH2 0x1E3B JUMP JUMPDEST PUSH2 0x22E0 JUMPI PUSH1 0x40 MLOAD PUSH32 0x8C379A000000000000000000000000000000000000000000000000000000000 DUP2 MSTORE PUSH1 0x4 ADD PUSH2 0x22D7 SWAP1 PUSH2 0x4462 JUMP JUMPDEST PUSH1 0x40 MLOAD DUP1 SWAP2 SUB SWAP1 REVERT JUMPDEST JUMP JUMPDEST PUSH0 PUSH2 0x22EF DUP7 DUP7 DUP7 DUP7 PUSH2 0x24F6 JUMP JUMPDEST SWAP1 POP DUP1 PUSH1 0xFF NOT AND PUSH1 0x4 PUSH0 DUP10 DUP2 MSTORE PUSH1 0x20 ADD SWAP1 DUP2 MSTORE PUSH1 0x20 ADD PUSH0 KECCAK256 PUSH0 ADD PUSH0 SWAP1 SLOAD SWAP1 PUSH2 0x100 EXP SWAP1 DIV PUSH1 0x8 SHL PUSH1 0xFF NOT AND EQ PUSH2 0x235A JUMPI PUSH1 0x40 MLOAD PUSH32 0x8C379A000000000000000000000000000000000000000000000000000000000 DUP2 MSTORE PUSH1 0x4 ADD PUSH2 0x2351 SWAP1 PUSH2 0x3DCB JUMP JUMPDEST PUSH1 0x40 MLOAD DUP1 SWAP2 SUB SWAP1 REVERT JUMPDEST PUSH2 0x2363 DUP3 PUSH2 0x2791 JUMP JUMPDEST PUSH1 0xFF AND PUSH1 0x4 PUSH0 DUP10 DUP2 MSTORE PUSH1 0x20 ADD SWAP1 DUP2 MSTORE PUSH1 0x20 ADD PUSH0 KECCAK256 PUSH0 ADD PUSH1 0x1F SWAP1 SLOAD SWAP1 PUSH2 0x100 EXP SWAP1 DIV PUSH1 0xFF AND PUSH1 0xFF AND GT ISZERO PUSH2 0x23CB JUMPI PUSH1 0x40 MLOAD PUSH32 0x8C379A000000000000000000000000000000000000000000000000000000000 DUP2 MSTORE PUSH1 0x4 ADD PUSH2 0x23C2 SWAP1 PUSH2 0x44CA JUMP JUMPDEST PUSH1 0x40 MLOAD DUP1 SWAP2 SUB SWAP1 REVERT JUMPDEST DUP6 PUSH1 0x6 SLOAD PUSH2 0x23D9 SWAP2 SWAP1 PUSH2 0x3BBB JUMP JUMPDEST PUSH1 0x6 DUP2 SWAP1 SSTORE POP PUSH1 0x4 PUSH0 DUP9 DUP2 MSTORE PUSH1 0x20 ADD SWAP1 DUP2 MSTORE PUSH1 0x20 ADD PUSH0 KECCAK256 PUSH0 PUSH0 DUP3 ADD PUSH0 PUSH2 0x100 EXP DUP2 SLOAD SWAP1 PUSH31 0xFFFFFFFFFFFFFFFFFFFFFFFFFFFFFFFFFFFFFFFFFFFFFFFFFFFFFFFFFFFFFF MUL NOT AND SWAP1 SSTORE PUSH0 DUP3 ADD PUSH1 0x1F PUSH2 0x100 EXP DUP2 SLOAD SWAP1 PUSH1 0xFF MUL NOT AND SWAP1 SSTORE POP POP POP POP POP POP POP POP POP JUMP JUMPDEST PUSH0 PUSH1 0x1 PUSH1 0x6 SLOAD PUSH2 0x244F SWAP2 SWAP1 PUSH2 0x3BBB JUMP JUMPDEST PUSH32 0x0 PUSH20 0xFFFFFFFFFFFFFFFFFFFFFFFFFFFFFFFFFFFFFFFF AND PUSH4 0x70A08231 ADDRESS PUSH1 0x40 MLOAD DUP3 PUSH4 0xFFFFFFFF AND PUSH1 0xE0 SHL DUP2 MSTORE PUSH1 0x4 ADD PUSH2 0x24A8 SWAP2 SWAP1 PUSH2 0x2A75 JUMP JUMPDEST PUSH1 0x20 PUSH1 0x40 MLOAD DUP1 DUP4 SUB DUP2 DUP7 GAS STATICCALL ISZERO DUP1 ISZERO PUSH2 0x24C3 JUMPI RETURNDATASIZE PUSH0 PUSH0 RETURNDATACOPY RETURNDATASIZE PUSH0 REVERT JUMPDEST POP POP POP POP PUSH1 0x40 MLOAD RETURNDATASIZE PUSH1 0x1F NOT PUSH1 0x1F DUP3 ADD AND DUP3 ADD DUP1 PUSH1 0x40 MSTORE POP DUP2 ADD SWAP1 PUSH2 0x24E7 SWAP2 SWAP1 PUSH2 0x44FC JUMP JUMPDEST PUSH2 0x24F1 SWAP2 SWAP1 PUSH2 0x3BBB JUMP JUMPDEST SWAP1 POP SWAP1 JUMP JUMPDEST PUSH0 DUP5 DUP5 DUP5 DUP5 PUSH1 0x40 MLOAD PUSH1 0x20 ADD PUSH2 0x250E SWAP5 SWAP4 SWAP3 SWAP2 SWAP1 PUSH2 0x4527 JUMP JUMPDEST PUSH1 0x40 MLOAD PUSH1 0x20 DUP2 DUP4 SUB SUB DUP2 MSTORE SWAP1 PUSH1 0x40 MSTORE DUP1 MLOAD SWAP1 PUSH1 0x20 ADD KECCAK256 SWAP1 POP SWAP5 SWAP4 POP POP POP POP JUMP JUMPDEST PUSH1 0x2 PUSH1 0x20 PUSH2 0x253C SWAP2 SWAP1 PUSH2 0x4574 JUMP JUMPDEST PUSH1 0x4 PUSH2 0x2548 SWAP2 SWAP1 PUSH2 0x43E5 JUMP JUMPDEST DUP2 MLOAD LT ISZERO PUSH2 0x258B JUMPI PUSH1 0x40 MLOAD PUSH32 0x8C379A000000000000000000000000000000000000000000000000000000000 DUP2 MSTORE PUSH1 0x4 ADD PUSH2 0x2582 SWAP1 PUSH2 0x45FF JUMP JUMPDEST PUSH1 0x40 MLOAD DUP1 SWAP2 SUB SWAP1 REVERT JUMPDEST PUSH4 0x3C6D41B9 PUSH1 0xE0 SHL PUSH28 0xFFFFFFFFFFFFFFFFFFFFFFFFFFFFFFFFFFFFFFFFFFFFFFFFFFFFFFFF NOT AND DUP3 PUSH28 0xFFFFFFFFFFFFFFFFFFFFFFFFFFFFFFFFFFFFFFFFFFFFFFFFFFFFFFFF NOT AND EQ DUP1 PUSH2 0x2622 JUMPI POP PUSH4 0x40429946 PUSH1 0xE0 SHL PUSH28 0xFFFFFFFFFFFFFFFFFFFFFFFFFFFFFFFFFFFFFFFFFFFFFFFFFFFFFFFF NOT AND DUP3 PUSH28 0xFFFFFFFFFFFFFFFFFFFFFFFFFFFFFFFFFFFFFFFFFFFFFFFFFFFFFFFF NOT AND EQ JUMPDEST PUSH2 0x2661 JUMPI PUSH1 0x40 MLOAD PUSH32 0x8C379A000000000000000000000000000000000000000000000000000000000 DUP2 MSTORE PUSH1 0x4 ADD PUSH2 0x2658 SWAP1 PUSH2 0x4667 JUMP JUMPDEST PUSH1 0x40 MLOAD DUP1 SWAP2 SUB SWAP1 REVERT JUMPDEST POP POP JUMP JUMPDEST CALLER PUSH20 0xFFFFFFFFFFFFFFFFFFFFFFFFFFFFFFFFFFFFFFFF AND DUP2 PUSH20 0xFFFFFFFFFFFFFFFFFFFFFFFFFFFFFFFFFFFFFFFF AND SUB PUSH2 0x26D3 JUMPI PUSH1 0x40 MLOAD PUSH32 0x8C379A000000000000000000000000000000000000000000000000000000000 DUP2 MSTORE PUSH1 0x4 ADD PUSH2 0x26CA SWAP1 PUSH2 0x46CF JUMP JUMPDEST PUSH1 0x40 MLOAD DUP1 SWAP2 SUB SWAP1 REVERT JUMPDEST DUP1 PUSH1 0x3 PUSH0 PUSH2 0x100 EXP DUP2 SLOAD DUP2 PUSH20 0xFFFFFFFFFFFFFFFFFFFFFFFFFFFFFFFFFFFFFFFF MUL NOT AND SWAP1 DUP4 PUSH20 0xFFFFFFFFFFFFFFFFFFFFFFFFFFFFFFFFFFFFFFFF AND MUL OR SWAP1 SSTORE POP DUP1 PUSH20 0xFFFFFFFFFFFFFFFFFFFFFFFFFFFFFFFFFFFFFFFF AND PUSH1 0x2 PUSH0 SWAP1 SLOAD SWAP1 PUSH2 0x100 EXP SWAP1 DIV PUSH20 0xFFFFFFFFFFFFFFFFFFFFFFFFFFFFFFFFFFFFFFFF AND PUSH20 0xFFFFFFFFFFFFFFFFFFFFFFFFFFFFFFFFFFFFFFFF AND PUSH32 0xED8889F560326EB138920D842192F0EB3DD22B4F139C87A2C57538E05BAE1278 PUSH1 0x40 MLOAD PUSH1 0x40 MLOAD DUP1 SWAP2 SUB SWAP1 LOG3 POP JUMP JUMPDEST PUSH0 PUSH1 0xFF DUP1 AND DUP3 GT ISZERO PUSH2 0x27DD JUMPI PUSH1 0x8 DUP3 PUSH1 0x40 MLOAD PUSH32 0x6DFCC65000000000000000000000000000000000000000000000000000000000 DUP2 MSTORE PUSH1 0x4 ADD PUSH2 0x27D4 SWAP3 SWAP2 SWAP1 PUSH2 0x473B JUMP JUMPDEST PUSH1 0x40 MLOAD DUP1 SWAP2 SUB SWAP1 REVERT JUMPDEST DUP2 SWAP1 POP SWAP2 SWAP1 POP JUMP JUMPDEST DUP3 DUP1 SLOAD DUP3 DUP3 SSTORE SWAP1 PUSH0 MSTORE PUSH1 0x20 PUSH0 KECCAK256 SWAP1 DUP2 ADD SWAP3 DUP3 ISZERO PUSH2 0x2871 JUMPI SWAP2 PUSH1 0x20 MUL DUP3 ADD JUMPDEST DUP3 DUP2 GT ISZERO PUSH2 0x2870 JUMPI DUP3 CALLDATALOAD PUSH20 0xFFFFFFFFFFFFFFFFFFFFFFFFFFFFFFFFFFFFFFFF AND DUP3 PUSH0 PUSH2 0x100 EXP DUP2 SLOAD DUP2 PUSH20 0xFFFFFFFFFFFFFFFFFFFFFFFFFFFFFFFFFFFFFFFF MUL NOT AND SWAP1 DUP4 PUSH20 0xFFFFFFFFFFFFFFFFFFFFFFFFFFFFFFFFFFFFFFFF AND MUL OR SWAP1 SSTORE POP SWAP2 PUSH1 0x20 ADD SWAP2 SWAP1 PUSH1 0x1 ADD SWAP1 PUSH2 0x2803 JUMP JUMPDEST JUMPDEST POP SWAP1 POP PUSH2 0x287E SWAP2 SWAP1 PUSH2 0x2882 JUMP JUMPDEST POP SWAP1 JUMP JUMPDEST JUMPDEST DUP1 DUP3 GT ISZERO PUSH2 0x2899 JUMPI PUSH0 DUP2 PUSH0 SWAP1 SSTORE POP PUSH1 0x1 ADD PUSH2 0x2883 JUMP JUMPDEST POP SWAP1 JUMP JUMPDEST PUSH0 PUSH1 0x40 MLOAD SWAP1 POP SWAP1 JUMP JUMPDEST PUSH0 PUSH0 REVERT JUMPDEST PUSH0 PUSH0 REVERT JUMPDEST PUSH0 PUSH0 REVERT JUMPDEST PUSH0 PUSH0 REVERT JUMPDEST PUSH0 PUSH0 REVERT JUMPDEST PUSH0 PUSH0 DUP4 PUSH1 0x1F DUP5 ADD SLT PUSH2 0x28CF JUMPI PUSH2 0x28CE PUSH2 0x28AE JUMP JUMPDEST JUMPDEST DUP3 CALLDATALOAD SWAP1 POP PUSH8 0xFFFFFFFFFFFFFFFF DUP2 GT ISZERO PUSH2 0x28EC JUMPI PUSH2 0x28EB PUSH2 0x28B2 JUMP JUMPDEST JUMPDEST PUSH1 0x20 DUP4 ADD SWAP2 POP DUP4 PUSH1 0x20 DUP3 MUL DUP4 ADD GT ISZERO PUSH2 0x2908 JUMPI PUSH2 0x2907 PUSH2 0x28B6 JUMP JUMPDEST JUMPDEST SWAP3 POP SWAP3 SWAP1 POP JUMP JUMPDEST PUSH0 PUSH0 PUSH1 0x20 DUP4 DUP6 SUB SLT ISZERO PUSH2 0x2925 JUMPI PUSH2 0x2924 PUSH2 0x28A6 JUMP JUMPDEST JUMPDEST PUSH0 DUP4 ADD CALLDATALOAD PUSH8 0xFFFFFFFFFFFFFFFF DUP2 GT ISZERO PUSH2 0x2942 JUMPI PUSH2 0x2941 PUSH2 0x28AA JUMP JUMPDEST JUMPDEST PUSH2 0x294E DUP6 DUP3 DUP7 ADD PUSH2 0x28BA JUMP JUMPDEST SWAP3 POP SWAP3 POP POP SWAP3 POP SWAP3 SWAP1 POP JUMP JUMPDEST PUSH0 PUSH20 0xFFFFFFFFFFFFFFFFFFFFFFFFFFFFFFFFFFFFFFFF DUP3 AND SWAP1 POP SWAP2 SWAP1 POP JUMP JUMPDEST PUSH0 PUSH2 0x2983 DUP3 PUSH2 0x295A JUMP JUMPDEST SWAP1 POP SWAP2 SWAP1 POP JUMP JUMPDEST PUSH2 0x2993 DUP2 PUSH2 0x2979 JUMP JUMPDEST DUP2 EQ PUSH2 0x299D JUMPI PUSH0 PUSH0 REVERT JUMPDEST POP JUMP JUMPDEST PUSH0 DUP2 CALLDATALOAD SWAP1 POP PUSH2 0x29AE DUP2 PUSH2 0x298A JUMP JUMPDEST SWAP3 SWAP2 POP POP JUMP JUMPDEST PUSH0 PUSH0 DUP4 PUSH1 0x1F DUP5 ADD SLT PUSH2 0x29C9 JUMPI PUSH2 0x29C8 PUSH2 0x28AE JUMP JUMPDEST JUMPDEST DUP3 CALLDATALOAD SWAP1 POP PUSH8 0xFFFFFFFFFFFFFFFF DUP2 GT ISZERO PUSH2 0x29E6 JUMPI PUSH2 0x29E5 PUSH2 0x28B2 JUMP JUMPDEST JUMPDEST PUSH1 0x20 DUP4 ADD SWAP2 POP DUP4 PUSH1 0x1 DUP3 MUL DUP4 ADD GT ISZERO PUSH2 0x2A02 JUMPI PUSH2 0x2A01 PUSH2 0x28B6 JUMP JUMPDEST JUMPDEST SWAP3 POP SWAP3 SWAP1 POP JUMP JUMPDEST PUSH0 PUSH0 PUSH0 PUSH1 0x40 DUP5 DUP7 SUB SLT ISZERO PUSH2 0x2A20 JUMPI PUSH2 0x2A1F PUSH2 0x28A6 JUMP JUMPDEST JUMPDEST PUSH0 PUSH2 0x2A2D DUP7 DUP3 DUP8 ADD PUSH2 0x29A0 JUMP JUMPDEST SWAP4 POP POP PUSH1 0x20 DUP5 ADD CALLDATALOAD PUSH8 0xFFFFFFFFFFFFFFFF DUP2 GT ISZERO PUSH2 0x2A4E JUMPI PUSH2 0x2A4D PUSH2 0x28AA JUMP JUMPDEST JUMPDEST PUSH2 0x2A5A DUP7 DUP3 DUP8 ADD PUSH2 0x29B4 JUMP JUMPDEST SWAP3 POP SWAP3 POP POP SWAP3 POP SWAP3 POP SWAP3 JUMP JUMPDEST PUSH2 0x2A6F DUP2 PUSH2 0x2979 JUMP JUMPDEST DUP3 MSTORE POP POP JUMP JUMPDEST PUSH0 PUSH1 0x20 DUP3 ADD SWAP1 POP PUSH2 0x2A88 PUSH0 DUP4 ADD DUP5 PUSH2 0x2A66 JUMP JUMPDEST SWAP3 SWAP2 POP POP JUMP JUMPDEST PUSH0 DUP2 MLOAD SWAP1 POP SWAP2 SWAP1 POP JUMP JUMPDEST PUSH0 DUP3 DUP3 MSTORE PUSH1 0x20 DUP3 ADD SWAP1 POP SWAP3 SWAP2 POP POP JUMP JUMPDEST DUP3 DUP2 DUP4 MCOPY PUSH0 DUP4 DUP4 ADD MSTORE POP POP POP JUMP JUMPDEST PUSH0 PUSH1 0x1F NOT PUSH1 0x1F DUP4 ADD AND SWAP1 POP SWAP2 SWAP1 POP JUMP JUMPDEST PUSH0 PUSH2 0x2AD0 DUP3 PUSH2 0x2A8E JUMP JUMPDEST PUSH2 0x2ADA DUP2 DUP6 PUSH2 0x2A98 JUMP JUMPDEST SWAP4 POP PUSH2 0x2AEA DUP2 DUP6 PUSH1 0x20 DUP7 ADD PUSH2 0x2AA8 JUMP JUMPDEST PUSH2 0x2AF3 DUP2 PUSH2 0x2AB6 JUMP JUMPDEST DUP5 ADD SWAP2 POP POP SWAP3 SWAP2 POP POP JUMP JUMPDEST PUSH0 PUSH1 0x20 DUP3 ADD SWAP1 POP DUP2 DUP2 SUB PUSH0 DUP4 ADD MSTORE PUSH2 0x2B16 DUP2 DUP5 PUSH2 0x2AC6 JUMP JUMPDEST SWAP1 POP SWAP3 SWAP2 POP POP JUMP JUMPDEST PUSH0 DUP2 MLOAD SWAP1 POP SWAP2 SWAP1 POP JUMP JUMPDEST PUSH0 DUP3 DUP3 MSTORE PUSH1 0x20 DUP3 ADD SWAP1 POP SWAP3 SWAP2 POP POP JUMP JUMPDEST PUSH0 DUP2 SWAP1 POP PUSH1 0x20 DUP3 ADD SWAP1 POP SWAP2 SWAP1 POP JUMP JUMPDEST PUSH2 0x2B50 DUP2 PUSH2 0x2979 JUMP JUMPDEST DUP3 MSTORE POP POP JUMP JUMPDEST PUSH0 PUSH2 0x2B61 DUP4 DUP4 PUSH2 0x2B47 JUMP JUMPDEST PUSH1 0x20 DUP4 ADD SWAP1 POP SWAP3 SWAP2 POP POP JUMP JUMPDEST PUSH0 PUSH1 0x20 DUP3 ADD SWAP1 POP SWAP2 SWAP1 POP JUMP JUMPDEST PUSH0 PUSH2 0x2B83 DUP3 PUSH2 0x2B1E JUMP JUMPDEST PUSH2 0x2B8D DUP2 DUP6 PUSH2 0x2B28 JUMP JUMPDEST SWAP4 POP PUSH2 0x2B98 DUP4 PUSH2 0x2B38 JUMP JUMPDEST DUP1 PUSH0 JUMPDEST DUP4 DUP2 LT ISZERO PUSH2 0x2BC8 JUMPI DUP2 MLOAD PUSH2 0x2BAF DUP9 DUP3 PUSH2 0x2B56 JUMP JUMPDEST SWAP8 POP PUSH2 0x2BBA DUP4 PUSH2 0x2B6D JUMP JUMPDEST SWAP3 POP POP PUSH1 0x1 DUP2 ADD SWAP1 POP PUSH2 0x2B9B JUMP JUMPDEST POP DUP6 SWAP4 POP POP POP POP SWAP3 SWAP2 POP POP JUMP JUMPDEST PUSH0 PUSH1 0x20 DUP3 ADD SWAP1 POP DUP2 DUP2 SUB PUSH0 DUP4 ADD MSTORE PUSH2 0x2BED DUP2 DUP5 PUSH2 0x2B79 JUMP JUMPDEST SWAP1 POP SWAP3 SWAP2 POP POP JUMP JUMPDEST PUSH0 DUP2 SWAP1 POP SWAP2 SWAP1 POP JUMP JUMPDEST PUSH2 0x2C07 DUP2 PUSH2 0x2BF5 JUMP JUMPDEST DUP2 EQ PUSH2 0x2C11 JUMPI PUSH0 PUSH0 REVERT JUMPDEST POP JUMP JUMPDEST PUSH0 DUP2 CALLDATALOAD SWAP1 POP PUSH2 0x2C22 DUP2 PUSH2 0x2BFE JUMP JUMPDEST SWAP3 SWAP2 POP POP JUMP JUMPDEST PUSH0 DUP2 SWAP1 POP SWAP2 SWAP1 POP JUMP JUMPDEST PUSH2 0x2C3A DUP2 PUSH2 0x2C28 JUMP JUMPDEST DUP2 EQ PUSH2 0x2C44 JUMPI PUSH0 PUSH0 REVERT JUMPDEST POP JUMP JUMPDEST PUSH0 DUP2 CALLDATALOAD SWAP1 POP PUSH2 0x2C55 DUP2 PUSH2 0x2C31 JUMP JUMPDEST SWAP3 SWAP2 POP POP JUMP JUMPDEST PUSH0 PUSH32 0xFFFFFFFF00000000000000000000000000000000000000000000000000000000 DUP3 AND SWAP1 POP SWAP2 SWAP1 POP JUMP JUMPDEST PUSH2 0x2C8F DUP2 PUSH2 0x2C5B JUMP JUMPDEST DUP2 EQ PUSH2 0x2C99 JUMPI PUSH0 PUSH0 REVERT JUMPDEST POP JUMP JUMPDEST PUSH0 DUP2 CALLDATALOAD SWAP1 POP PUSH2 0x2CAA DUP2 PUSH2 0x2C86 JUMP JUMPDEST SWAP3 SWAP2 POP POP JUMP JUMPDEST PUSH0 PUSH0 PUSH0 PUSH0 PUSH0 PUSH0 PUSH0 PUSH0 PUSH1 0xE0 DUP10 DUP12 SUB SLT ISZERO PUSH2 0x2CCC JUMPI PUSH2 0x2CCB PUSH2 0x28A6 JUMP JUMPDEST JUMPDEST PUSH0 PUSH2 0x2CD9 DUP12 DUP3 DUP13 ADD PUSH2 0x29A0 JUMP JUMPDEST SWAP9 POP POP PUSH1 0x20 PUSH2 0x2CEA DUP12 DUP3 DUP13 ADD PUSH2 0x2C14 JUMP JUMPDEST SWAP8 POP POP PUSH1 0x40 PUSH2 0x2CFB DUP12 DUP3 DUP13 ADD PUSH2 0x2C47 JUMP JUMPDEST SWAP7 POP POP PUSH1 0x60 PUSH2 0x2D0C DUP12 DUP3 DUP13 ADD PUSH2 0x2C9C JUMP JUMPDEST SWAP6 POP POP PUSH1 0x80 PUSH2 0x2D1D DUP12 DUP3 DUP13 ADD PUSH2 0x2C14 JUMP JUMPDEST SWAP5 POP POP PUSH1 0xA0 PUSH2 0x2D2E DUP12 DUP3 DUP13 ADD PUSH2 0x2C14 JUMP JUMPDEST SWAP4 POP POP PUSH1 0xC0 DUP10 ADD CALLDATALOAD PUSH8 0xFFFFFFFFFFFFFFFF DUP2 GT ISZERO PUSH2 0x2D4F JUMPI PUSH2 0x2D4E PUSH2 0x28AA JUMP JUMPDEST JUMPDEST PUSH2 0x2D5B DUP12 DUP3 DUP13 ADD PUSH2 0x29B4 JUMP JUMPDEST SWAP3 POP SWAP3 POP POP SWAP3 SWAP6 SWAP9 POP SWAP3 SWAP6 SWAP9 SWAP1 SWAP4 SWAP7 POP JUMP JUMPDEST PUSH0 PUSH0 PUSH0 PUSH1 0x40 DUP5 DUP7 SUB SLT ISZERO PUSH2 0x2D84 JUMPI PUSH2 0x2D83 PUSH2 0x28A6 JUMP JUMPDEST JUMPDEST PUSH0 DUP5 ADD CALLDATALOAD PUSH8 0xFFFFFFFFFFFFFFFF DUP2 GT ISZERO PUSH2 0x2DA1 JUMPI PUSH2 0x2DA0 PUSH2 0x28AA JUMP JUMPDEST JUMPDEST PUSH2 0x2DAD DUP7 DUP3 DUP8 ADD PUSH2 0x28BA JUMP JUMPDEST SWAP4 POP SWAP4 POP POP PUSH1 0x20 PUSH2 0x2DC0 DUP7 DUP3 DUP8 ADD PUSH2 0x29A0 JUMP JUMPDEST SWAP2 POP POP SWAP3 POP SWAP3 POP SWAP3 JUMP JUMPDEST PUSH0 PUSH0 PUSH0 PUSH0 PUSH0 PUSH0 PUSH0 PUSH0 PUSH0 PUSH2 0x100 DUP11 DUP13 SUB SLT ISZERO PUSH2 0x2DE8 JUMPI PUSH2 0x2DE7 PUSH2 0x28A6 JUMP JUMPDEST JUMPDEST PUSH0 PUSH2 0x2DF5 DUP13 DUP3 DUP14 ADD PUSH2 0x29A0 JUMP JUMPDEST SWAP10 POP POP PUSH1 0x20 PUSH2 0x2E06 DUP13 DUP3 DUP14 ADD PUSH2 0x2C14 JUMP JUMPDEST SWAP9 POP POP PUSH1 0x40 PUSH2 0x2E17 DUP13 DUP3 DUP14 ADD PUSH2 0x2C47 JUMP JUMPDEST SWAP8 POP POP PUSH1 0x60 PUSH2 0x2E28 DUP13 DUP3 DUP14 ADD PUSH2 0x29A0 JUMP JUMPDEST SWAP7 POP POP PUSH1 0x80 PUSH2 0x2E39 DUP13 DUP3 DUP14 ADD PUSH2 0x2C9C JUMP JUMPDEST SWAP6 POP POP PUSH1 0xA0 PUSH2 0x2E4A DUP13 DUP3 DUP14 ADD PUSH2 0x2C14 JUMP JUMPDEST SWAP5 POP POP PUSH1 0xC0 PUSH2 0x2E5B DUP13 DUP3 DUP14 ADD PUSH2 0x2C14 JUMP JUMPDEST SWAP4 POP POP PUSH1 0xE0 DUP11 ADD CALLDATALOAD PUSH8 0xFFFFFFFFFFFFFFFF DUP2 GT ISZERO PUSH2 0x2E7C JUMPI PUSH2 0x2E7B PUSH2 0x28AA JUMP JUMPDEST JUMPDEST PUSH2 0x2E88 DUP13 DUP3 DUP14 ADD PUSH2 0x29B4 JUMP JUMPDEST SWAP3 POP SWAP3 POP POP SWAP3 SWAP6 SWAP9 POP SWAP3 SWAP6 SWAP9 POP SWAP3 SWAP6 SWAP9 JUMP JUMPDEST PUSH0 PUSH0 PUSH0 PUSH0 PUSH0 PUSH0 PUSH1 0xC0 DUP8 DUP10 SUB SLT ISZERO PUSH2 0x2EB4 JUMPI PUSH2 0x2EB3 PUSH2 0x28A6 JUMP JUMPDEST JUMPDEST PUSH0 PUSH2 0x2EC1 DUP10 DUP3 DUP11 ADD PUSH2 0x2C47 JUMP JUMPDEST SWAP7 POP POP PUSH1 0x20 PUSH2 0x2ED2 DUP10 DUP3 DUP11 ADD PUSH2 0x2C14 JUMP JUMPDEST SWAP6 POP POP PUSH1 0x40 PUSH2 0x2EE3 DUP10 DUP3 DUP11 ADD PUSH2 0x29A0 JUMP JUMPDEST SWAP5 POP POP PUSH1 0x60 PUSH2 0x2EF4 DUP10 DUP3 DUP11 ADD PUSH2 0x2C9C JUMP JUMPDEST SWAP4 POP POP PUSH1 0x80 PUSH2 0x2F05 DUP10 DUP3 DUP11 ADD PUSH2 0x2C14 JUMP JUMPDEST SWAP3 POP POP PUSH1 0xA0 PUSH2 0x2F16 DUP10 DUP3 DUP11 ADD PUSH2 0x2C47 JUMP JUMPDEST SWAP2 POP POP SWAP3 SWAP6 POP SWAP3 SWAP6 POP SWAP3 SWAP6 JUMP JUMPDEST PUSH0 DUP2 ISZERO ISZERO SWAP1 POP SWAP2 SWAP1 POP JUMP JUMPDEST PUSH2 0x2F37 DUP2 PUSH2 0x2F23 JUMP JUMPDEST DUP3 MSTORE POP POP JUMP JUMPDEST PUSH0 PUSH1 0x20 DUP3 ADD SWAP1 POP PUSH2 0x2F50 PUSH0 DUP4 ADD DUP5 PUSH2 0x2F2E JUMP JUMPDEST SWAP3 SWAP2 POP POP JUMP JUMPDEST PUSH2 0x2F5F DUP2 PUSH2 0x2BF5 JUMP JUMPDEST DUP3 MSTORE POP POP JUMP JUMPDEST PUSH0 PUSH1 0x20 DUP3 ADD SWAP1 POP PUSH2 0x2F78 PUSH0 DUP4 ADD DUP5 PUSH2 0x2F56 JUMP JUMPDEST SWAP3 SWAP2 POP POP JUMP JUMPDEST PUSH0 PUSH0 PUSH0 PUSH0 PUSH1 0x40 DUP6 DUP8 SUB SLT ISZERO PUSH2 0x2F96 JUMPI PUSH2 0x2F95 PUSH2 0x28A6 JUMP JUMPDEST JUMPDEST PUSH0 DUP6 ADD CALLDATALOAD PUSH8 0xFFFFFFFFFFFFFFFF DUP2 GT ISZERO PUSH2 0x2FB3 JUMPI PUSH2 0x2FB2 PUSH2 0x28AA JUMP JUMPDEST JUMPDEST PUSH2 0x2FBF DUP8 DUP3 DUP9 ADD PUSH2 0x28BA JUMP JUMPDEST SWAP5 POP SWAP5 POP POP PUSH1 0x20 DUP6 ADD CALLDATALOAD PUSH8 0xFFFFFFFFFFFFFFFF DUP2 GT ISZERO PUSH2 0x2FE2 JUMPI PUSH2 0x2FE1 PUSH2 0x28AA JUMP JUMPDEST JUMPDEST PUSH2 0x2FEE DUP8 DUP3 DUP9 ADD PUSH2 0x28BA JUMP JUMPDEST SWAP3 POP SWAP3 POP POP SWAP3 SWAP6 SWAP2 SWAP5 POP SWAP3 POP JUMP JUMPDEST PUSH0 PUSH0 PUSH0 PUSH0 PUSH0 PUSH0 PUSH0 PUSH1 0xC0 DUP9 DUP11 SUB SLT ISZERO PUSH2 0x3017 JUMPI PUSH2 0x3016 PUSH2 0x28A6 JUMP JUMPDEST JUMPDEST PUSH0 PUSH2 0x3024 DUP11 DUP3 DUP12 ADD PUSH2 0x2C47 JUMP JUMPDEST SWAP8 POP POP PUSH1 0x20 PUSH2 0x3035 DUP11 DUP3 DUP12 ADD PUSH2 0x2C14 JUMP JUMPDEST SWAP7 POP POP PUSH1 0x40 PUSH2 0x3046 DUP11 DUP3 DUP12 ADD PUSH2 0x29A0 JUMP JUMPDEST SWAP6 POP POP PUSH1 0x60 PUSH2 0x3057 DUP11 DUP3 DUP12 ADD PUSH2 0x2C9C JUMP JUMPDEST SWAP5 POP POP PUSH1 0x80 PUSH2 0x3068 DUP11 DUP3 DUP12 ADD PUSH2 0x2C14 JUMP JUMPDEST SWAP4 POP POP PUSH1 0xA0 DUP9 ADD CALLDATALOAD PUSH8 0xFFFFFFFFFFFFFFFF DUP2 GT ISZERO PUSH2 0x3089 JUMPI PUSH2 0x3088 PUSH2 0x28AA JUMP JUMPDEST JUMPDEST PUSH2 0x3095 DUP11 DUP3 DUP12 ADD PUSH2 0x29B4 JUMP JUMPDEST SWAP3 POP SWAP3 POP POP SWAP3 SWAP6 SWAP9 SWAP2 SWAP5 SWAP8 POP SWAP3 SWAP6 POP JUMP JUMPDEST PUSH0 PUSH0 DUP4 PUSH1 0x1F DUP5 ADD SLT PUSH2 0x30BB JUMPI PUSH2 0x30BA PUSH2 0x28AE JUMP JUMPDEST JUMPDEST DUP3 CALLDATALOAD SWAP1 POP PUSH8 0xFFFFFFFFFFFFFFFF DUP2 GT ISZERO PUSH2 0x30D8 JUMPI PUSH2 0x30D7 PUSH2 0x28B2 JUMP JUMPDEST JUMPDEST PUSH1 0x20 DUP4 ADD SWAP2 POP DUP4 PUSH1 0x20 DUP3 MUL DUP4 ADD GT ISZERO PUSH2 0x30F4 JUMPI PUSH2 0x30F3 PUSH2 0x28B6 JUMP JUMPDEST JUMPDEST SWAP3 POP SWAP3 SWAP1 POP JUMP JUMPDEST PUSH0 PUSH0 DUP4 PUSH1 0x1F DUP5 ADD SLT PUSH2 0x3110 JUMPI PUSH2 0x310F PUSH2 0x28AE JUMP JUMPDEST JUMPDEST DUP3 CALLDATALOAD SWAP1 POP PUSH8 0xFFFFFFFFFFFFFFFF DUP2 GT ISZERO PUSH2 0x312D JUMPI PUSH2 0x312C PUSH2 0x28B2 JUMP JUMPDEST JUMPDEST PUSH1 0x20 DUP4 ADD SWAP2 POP DUP4 PUSH1 0x20 DUP3 MUL DUP4 ADD GT ISZERO PUSH2 0x3149 JUMPI PUSH2 0x3148 PUSH2 0x28B6 JUMP JUMPDEST JUMPDEST SWAP3 POP SWAP3 SWAP1 POP JUMP JUMPDEST PUSH0 PUSH0 PUSH0 PUSH0 PUSH1 0x40 DUP6 DUP8 SUB SLT ISZERO PUSH2 0x3168 JUMPI PUSH2 0x3167 PUSH2 0x28A6 JUMP JUMPDEST JUMPDEST PUSH0 DUP6 ADD CALLDATALOAD PUSH8 0xFFFFFFFFFFFFFFFF DUP2 GT ISZERO PUSH2 0x3185 JUMPI PUSH2 0x3184 PUSH2 0x28AA JUMP JUMPDEST JUMPDEST PUSH2 0x3191 DUP8 DUP3 DUP9 ADD PUSH2 0x30A6 JUMP JUMPDEST SWAP5 POP SWAP5 POP POP PUSH1 0x20 DUP6 ADD CALLDATALOAD PUSH8 0xFFFFFFFFFFFFFFFF DUP2 GT ISZERO PUSH2 0x31B4 JUMPI PUSH2 0x31B3 PUSH2 0x28AA JUMP JUMPDEST JUMPDEST PUSH2 0x31C0 DUP8 DUP3 DUP9 ADD PUSH2 0x30FB JUMP JUMPDEST SWAP3 POP SWAP3 POP POP SWAP3 SWAP6 SWAP2 SWAP5 POP SWAP3 POP JUMP JUMPDEST PUSH0 PUSH0 PUSH0 PUSH0 PUSH1 0x80 DUP6 DUP8 SUB SLT ISZERO PUSH2 0x31E6 JUMPI PUSH2 0x31E5 PUSH2 0x28A6 JUMP JUMPDEST JUMPDEST PUSH0 PUSH2 0x31F3 DUP8 DUP3 DUP9 ADD PUSH2 0x2C47 JUMP JUMPDEST SWAP5 POP POP PUSH1 0x20 PUSH2 0x3204 DUP8 DUP3 DUP9 ADD PUSH2 0x2C14 JUMP JUMPDEST SWAP4 POP POP PUSH1 0x40 PUSH2 0x3215 DUP8 DUP3 DUP9 ADD PUSH2 0x2C9C JUMP JUMPDEST SWAP3 POP POP PUSH1 0x60 PUSH2 0x3226 DUP8 DUP3 DUP9 ADD PUSH2 0x2C14 JUMP JUMPDEST SWAP2 POP POP SWAP3 SWAP6 SWAP2 SWAP5 POP SWAP3 POP JUMP JUMPDEST PUSH0 PUSH0 PUSH0 PUSH0 PUSH1 0x60 DUP6 DUP8 SUB SLT ISZERO PUSH2 0x324A JUMPI PUSH2 0x3249 PUSH2 0x28A6 JUMP JUMPDEST JUMPDEST PUSH0 PUSH2 0x3257 DUP8 DUP3 DUP9 ADD PUSH2 0x29A0 JUMP JUMPDEST SWAP5 POP POP PUSH1 0x20 PUSH2 0x3268 DUP8 DUP3 DUP9 ADD PUSH2 0x2C14 JUMP JUMPDEST SWAP4 POP POP PUSH1 0x40 DUP6 ADD CALLDATALOAD PUSH8 0xFFFFFFFFFFFFFFFF DUP2 GT ISZERO PUSH2 0x3289 JUMPI PUSH2 0x3288 PUSH2 0x28AA JUMP JUMPDEST JUMPDEST PUSH2 0x3295 DUP8 DUP3 DUP9 ADD PUSH2 0x29B4 JUMP JUMPDEST SWAP3 POP SWAP3 POP POP SWAP3 SWAP6 SWAP2 SWAP5 POP SWAP3 POP JUMP JUMPDEST PUSH0 PUSH0 REVERT JUMPDEST PUSH32 0x4E487B7100000000000000000000000000000000000000000000000000000000 PUSH0 MSTORE PUSH1 0x41 PUSH1 0x4 MSTORE PUSH1 0x24 PUSH0 REVERT JUMPDEST PUSH2 0x32DD DUP3 PUSH2 0x2AB6 JUMP JUMPDEST DUP2 ADD DUP2 DUP2 LT PUSH8 0xFFFFFFFFFFFFFFFF DUP3 GT OR ISZERO PUSH2 0x32FC JUMPI PUSH2 0x32FB PUSH2 0x32A7 JUMP JUMPDEST JUMPDEST DUP1 PUSH1 0x40 MSTORE POP POP POP JUMP JUMPDEST PUSH0 PUSH2 0x330E PUSH2 0x289D JUMP JUMPDEST SWAP1 POP PUSH2 0x331A DUP3 DUP3 PUSH2 0x32D4 JUMP JUMPDEST SWAP2 SWAP1 POP JUMP JUMPDEST PUSH0 PUSH8 0xFFFFFFFFFFFFFFFF DUP3 GT ISZERO PUSH2 0x3339 JUMPI PUSH2 0x3338 PUSH2 0x32A7 JUMP JUMPDEST JUMPDEST PUSH2 0x3342 DUP3 PUSH2 0x2AB6 JUMP JUMPDEST SWAP1 POP PUSH1 0x20 DUP2 ADD SWAP1 POP SWAP2 SWAP1 POP JUMP JUMPDEST DUP3 DUP2 DUP4 CALLDATACOPY PUSH0 DUP4 DUP4 ADD MSTORE POP POP POP JUMP JUMPDEST PUSH0 PUSH2 0x336F PUSH2 0x336A DUP5 PUSH2 0x331F JUMP JUMPDEST PUSH2 0x3305 JUMP JUMPDEST SWAP1 POP DUP3 DUP2 MSTORE PUSH1 0x20 DUP2 ADD DUP5 DUP5 DUP5 ADD GT ISZERO PUSH2 0x338B JUMPI PUSH2 0x338A PUSH2 0x32A3 JUMP JUMPDEST JUMPDEST PUSH2 0x3396 DUP5 DUP3 DUP6 PUSH2 0x334F JUMP JUMPDEST POP SWAP4 SWAP3 POP POP POP JUMP JUMPDEST PUSH0 DUP3 PUSH1 0x1F DUP4 ADD SLT PUSH2 0x33B2 JUMPI PUSH2 0x33B1 PUSH2 0x28AE JUMP JUMPDEST JUMPDEST DUP2 CALLDATALOAD PUSH2 0x33C2 DUP5 DUP3 PUSH1 0x20 DUP7 ADD PUSH2 0x335D JUMP JUMPDEST SWAP2 POP POP SWAP3 SWAP2 POP POP JUMP JUMPDEST PUSH0 PUSH0 PUSH0 PUSH1 0x60 DUP5 DUP7 SUB SLT ISZERO PUSH2 0x33E2 JUMPI PUSH2 0x33E1 PUSH2 0x28A6 JUMP JUMPDEST JUMPDEST PUSH0 PUSH2 0x33EF DUP7 DUP3 DUP8 ADD PUSH2 0x29A0 JUMP JUMPDEST SWAP4 POP POP PUSH1 0x20 PUSH2 0x3400 DUP7 DUP3 DUP8 ADD PUSH2 0x2C14 JUMP JUMPDEST SWAP3 POP POP PUSH1 0x40 DUP5 ADD CALLDATALOAD PUSH8 0xFFFFFFFFFFFFFFFF DUP2 GT ISZERO PUSH2 0x3421 JUMPI PUSH2 0x3420 PUSH2 0x28AA JUMP JUMPDEST JUMPDEST PUSH2 0x342D DUP7 DUP3 DUP8 ADD PUSH2 0x339E JUMP JUMPDEST SWAP2 POP POP SWAP3 POP SWAP3 POP SWAP3 JUMP JUMPDEST PUSH0 PUSH0 PUSH0 PUSH0 PUSH1 0x80 DUP6 DUP8 SUB SLT ISZERO PUSH2 0x344F JUMPI PUSH2 0x344E PUSH2 0x28A6 JUMP JUMPDEST JUMPDEST PUSH0 PUSH2 0x345C DUP8 DUP3 DUP9 ADD PUSH2 0x2C14 JUMP JUMPDEST SWAP5 POP POP PUSH1 0x20 PUSH2 0x346D DUP8 DUP3 DUP9 ADD PUSH2 0x2C14 JUMP JUMPDEST SWAP4 POP POP PUSH1 0x40 PUSH2 0x347E DUP8 DUP3 DUP9 ADD PUSH2 0x2C9C JUMP JUMPDEST SWAP3 POP POP PUSH1 0x60 PUSH2 0x348F DUP8 DUP3 DUP9 ADD PUSH2 0x2C14 JUMP JUMPDEST SWAP2 POP POP SWAP3 SWAP6 SWAP2 SWAP5 POP SWAP3 POP JUMP JUMPDEST PUSH0 PUSH1 0x20 DUP3 DUP5 SUB SLT ISZERO PUSH2 0x34B0 JUMPI PUSH2 0x34AF PUSH2 0x28A6 JUMP JUMPDEST JUMPDEST PUSH0 PUSH2 0x34BD DUP5 DUP3 DUP6 ADD PUSH2 0x29A0 JUMP JUMPDEST SWAP2 POP POP SWAP3 SWAP2 POP POP JUMP JUMPDEST PUSH0 PUSH0 PUSH1 0x40 DUP4 DUP6 SUB SLT ISZERO PUSH2 0x34DC JUMPI PUSH2 0x34DB PUSH2 0x28A6 JUMP JUMPDEST JUMPDEST PUSH0 PUSH2 0x34E9 DUP6 DUP3 DUP7 ADD PUSH2 0x29A0 JUMP JUMPDEST SWAP3 POP POP PUSH1 0x20 PUSH2 0x34FA DUP6 DUP3 DUP7 ADD PUSH2 0x2C14 JUMP JUMPDEST SWAP2 POP POP SWAP3 POP SWAP3 SWAP1 POP JUMP JUMPDEST PUSH32 0x43616E6E6F742073657420617574686F72697A65642073656E64657273000000 PUSH0 DUP3 ADD MSTORE POP JUMP JUMPDEST PUSH0 PUSH2 0x3538 PUSH1 0x1D DUP4 PUSH2 0x2A98 JUMP JUMPDEST SWAP2 POP PUSH2 0x3543 DUP3 PUSH2 0x3504 JUMP JUMPDEST PUSH1 0x20 DUP3 ADD SWAP1 POP SWAP2 SWAP1 POP JUMP JUMPDEST PUSH0 PUSH1 0x20 DUP3 ADD SWAP1 POP DUP2 DUP2 SUB PUSH0 DUP4 ADD MSTORE PUSH2 0x3565 DUP2 PUSH2 0x352C JUMP JUMPDEST SWAP1 POP SWAP2 SWAP1 POP JUMP JUMPDEST PUSH32 0x4E487B7100000000000000000000000000000000000000000000000000000000 PUSH0 MSTORE PUSH1 0x32 PUSH1 0x4 MSTORE PUSH1 0x24 PUSH0 REVERT JUMPDEST PUSH32 0x43616E6E6F742063616C6C20746F204C494E4B00000000000000000000000000 PUSH0 DUP3 ADD MSTORE POP JUMP JUMPDEST PUSH0 PUSH2 0x35CD PUSH1 0x13 DUP4 PUSH2 0x2A98 JUMP JUMPDEST SWAP2 POP PUSH2 0x35D8 DUP3 PUSH2 0x3599 JUMP JUMPDEST PUSH1 0x20 DUP3 ADD SWAP1 POP SWAP2 SWAP1 POP JUMP JUMPDEST PUSH0 PUSH1 0x20 DUP3 ADD SWAP1 POP DUP2 DUP2 SUB PUSH0 DUP4 ADD MSTORE PUSH2 0x35FA DUP2 PUSH2 0x35C1 JUMP JUMPDEST SWAP1 POP SWAP2 SWAP1 POP JUMP JUMPDEST PUSH32 0x4D75737420666F727761726420746F206120636F6E7472616374000000000000 PUSH0 DUP3 ADD MSTORE POP JUMP JUMPDEST PUSH0 PUSH2 0x3635 PUSH1 0x1A DUP4 PUSH2 0x2A98 JUMP JUMPDEST SWAP2 POP PUSH2 0x3640 DUP3 PUSH2 0x3601 JUMP JUMPDEST PUSH1 0x20 DUP3 ADD SWAP1 POP SWAP2 SWAP1 POP JUMP JUMPDEST PUSH0 PUSH1 0x20 DUP3 ADD SWAP1 POP DUP2 DUP2 SUB PUSH0 DUP4 ADD MSTORE PUSH2 0x3662 DUP2 PUSH2 0x3629 JUMP JUMPDEST SWAP1 POP SWAP2 SWAP1 POP JUMP JUMPDEST PUSH0 DUP2 SWAP1 POP SWAP3 SWAP2 POP POP JUMP JUMPDEST PUSH0 PUSH2 0x367E DUP4 DUP6 PUSH2 0x3669 JUMP JUMPDEST SWAP4 POP PUSH2 0x368B DUP4 DUP6 DUP5 PUSH2 0x334F JUMP JUMPDEST DUP3 DUP5 ADD SWAP1 POP SWAP4 SWAP3 POP POP POP JUMP JUMPDEST PUSH0 PUSH2 0x36A3 DUP3 DUP5 DUP7 PUSH2 0x3673 JUMP JUMPDEST SWAP2 POP DUP2 SWAP1 POP SWAP4 SWAP3 POP POP POP JUMP JUMPDEST PUSH32 0x466F727761726465642063616C6C206661696C65640000000000000000000000 PUSH0 DUP3 ADD MSTORE POP JUMP JUMPDEST PUSH0 PUSH2 0x36E3 PUSH1 0x15 DUP4 PUSH2 0x2A98 JUMP JUMPDEST SWAP2 POP PUSH2 0x36EE DUP3 PUSH2 0x36AF JUMP JUMPDEST PUSH1 0x20 DUP3 ADD SWAP1 POP SWAP2 SWAP1 POP JUMP JUMPDEST PUSH0 PUSH1 0x20 DUP3 ADD SWAP1 POP DUP2 DUP2 SUB PUSH0 DUP4 ADD MSTORE PUSH2 0x3710 DUP2 PUSH2 0x36D7 JUMP JUMPDEST SWAP1 POP SWAP2 SWAP1 POP JUMP JUMPDEST PUSH32 0x4D75737420757365204C494E4B20746F6B656E00000000000000000000000000 PUSH0 DUP3 ADD MSTORE POP JUMP JUMPDEST PUSH0 PUSH2 0x374B PUSH1 0x13 DUP4 PUSH2 0x2A98 JUMP JUMPDEST SWAP2 POP PUSH2 0x3756 DUP3 PUSH2 0x3717 JUMP JUMPDEST PUSH1 0x20 DUP3 ADD SWAP1 POP SWAP2 SWAP1 POP JUMP JUMPDEST PUSH0 PUSH1 0x20 DUP3 ADD SWAP1 POP DUP2 DUP2 SUB PUSH0 DUP4 ADD MSTORE PUSH2 0x3778 DUP2 PUSH2 0x373F JUMP JUMPDEST SWAP1 POP SWAP2 SWAP1 POP JUMP JUMPDEST PUSH2 0x3788 DUP2 PUSH2 0x2C28 JUMP JUMPDEST DUP3 MSTORE POP POP JUMP JUMPDEST PUSH2 0x3797 DUP2 PUSH2 0x2C5B JUMP JUMPDEST DUP3 MSTORE POP POP JUMP JUMPDEST PUSH0 DUP3 DUP3 MSTORE PUSH1 0x20 DUP3 ADD SWAP1 POP SWAP3 SWAP2 POP POP JUMP JUMPDEST PUSH0 PUSH2 0x37B8 DUP4 DUP6 PUSH2 0x379D JUMP JUMPDEST SWAP4 POP PUSH2 0x37C5 DUP4 DUP6 DUP5 PUSH2 0x334F JUMP JUMPDEST PUSH2 0x37CE DUP4 PUSH2 0x2AB6 JUMP JUMPDEST DUP5 ADD SWAP1 POP SWAP4 SWAP3 POP POP POP JUMP JUMPDEST PUSH0 PUSH2 0x100 DUP3 ADD SWAP1 POP PUSH2 0x37ED PUSH0 DUP4 ADD DUP13 PUSH2 0x2A66 JUMP JUMPDEST PUSH2 0x37FA PUSH1 0x20 DUP4 ADD DUP12 PUSH2 0x377F JUMP JUMPDEST PUSH2 0x3807 PUSH1 0x40 DUP4 ADD DUP11 PUSH2 0x2F56 JUMP JUMPDEST PUSH2 0x3814 PUSH1 0x60 DUP4 ADD DUP10 PUSH2 0x2A66 JUMP JUMPDEST PUSH2 0x3821 PUSH1 0x80 DUP4 ADD DUP9 PUSH2 0x378E JUMP JUMPDEST PUSH2 0x382E PUSH1 0xA0 DUP4 ADD DUP8 PUSH2 0x2F56 JUMP JUMPDEST PUSH2 0x383B PUSH1 0xC0 DUP4 ADD DUP7 PUSH2 0x2F56 JUMP JUMPDEST DUP2 DUP2 SUB PUSH1 0xE0 DUP4 ADD MSTORE PUSH2 0x384E DUP2 DUP5 DUP7 PUSH2 0x37AD JUMP JUMPDEST SWAP1 POP SWAP11 SWAP10 POP POP POP POP POP POP POP POP POP POP JUMP JUMPDEST PUSH32 0x4D757374206861766520612076616C6964207265717565737449640000000000 PUSH0 DUP3 ADD MSTORE POP JUMP JUMPDEST PUSH0 PUSH2 0x3892 PUSH1 0x1B DUP4 PUSH2 0x2A98 JUMP JUMPDEST SWAP2 POP PUSH2 0x389D DUP3 PUSH2 0x385E JUMP JUMPDEST PUSH1 0x20 DUP3 ADD SWAP1 POP SWAP2 SWAP1 POP JUMP JUMPDEST PUSH0 PUSH1 0x20 DUP3 ADD SWAP1 POP DUP2 DUP2 SUB PUSH0 DUP4 ADD MSTORE PUSH2 0x38BF DUP2 PUSH2 0x3886 JUMP JUMPDEST SWAP1 POP SWAP2 SWAP1 POP JUMP JUMPDEST PUSH32 0x43616E6E6F742063616C6C206F776E656420636F6E7472616374000000000000 PUSH0 DUP3 ADD MSTORE POP JUMP JUMPDEST PUSH0 PUSH2 0x38FA PUSH1 0x1A DUP4 PUSH2 0x2A98 JUMP JUMPDEST SWAP2 POP PUSH2 0x3905 DUP3 PUSH2 0x38C6 JUMP JUMPDEST PUSH1 0x20 DUP3 ADD SWAP1 POP SWAP2 SWAP1 POP JUMP JUMPDEST PUSH0 PUSH1 0x20 DUP3 ADD SWAP1 POP DUP2 DUP2 SUB PUSH0 DUP4 ADD MSTORE PUSH2 0x3927 DUP2 PUSH2 0x38EE JUMP JUMPDEST SWAP1 POP SWAP2 SWAP1 POP JUMP JUMPDEST PUSH32 0x4D7573742070726F7669646520636F6E73756D657220656E6F75676820676173 PUSH0 DUP3 ADD MSTORE POP JUMP JUMPDEST PUSH0 PUSH2 0x3962 PUSH1 0x20 DUP4 PUSH2 0x2A98 JUMP JUMPDEST SWAP2 POP PUSH2 0x396D DUP3 PUSH2 0x392E JUMP JUMPDEST PUSH1 0x20 DUP3 ADD SWAP1 POP SWAP2 SWAP1 POP JUMP JUMPDEST PUSH0 PUSH1 0x20 DUP3 ADD SWAP1 POP DUP2 DUP2 SUB PUSH0 DUP4 ADD MSTORE PUSH2 0x398F DUP2 PUSH2 0x3956 JUMP JUMPDEST SWAP1 POP SWAP2 SWAP1 POP JUMP JUMPDEST PUSH0 PUSH1 0x40 DUP3 ADD SWAP1 POP PUSH2 0x39A9 PUSH0 DUP4 ADD DUP6 PUSH2 0x377F JUMP JUMPDEST PUSH2 0x39B6 PUSH1 0x20 DUP4 ADD DUP5 PUSH2 0x377F JUMP JUMPDEST SWAP4 SWAP3 POP POP POP JUMP JUMPDEST PUSH0 DUP2 MLOAD SWAP1 POP SWAP2 SWAP1 POP JUMP JUMPDEST PUSH0 PUSH2 0x39D1 DUP3 PUSH2 0x39BD JUMP JUMPDEST PUSH2 0x39DB DUP2 DUP6 PUSH2 0x3669 JUMP JUMPDEST SWAP4 POP PUSH2 0x39EB DUP2 DUP6 PUSH1 0x20 DUP7 ADD PUSH2 0x2AA8 JUMP JUMPDEST DUP1 DUP5 ADD SWAP2 POP POP SWAP3 SWAP2 POP POP JUMP JUMPDEST PUSH0 PUSH2 0x3A02 DUP3 DUP5 PUSH2 0x39C7 JUMP JUMPDEST SWAP2 POP DUP2 SWAP1 POP SWAP3 SWAP2 POP POP JUMP JUMPDEST PUSH32 0x526573706F6E7365206D757374206265203E2033322062797465730000000000 PUSH0 DUP3 ADD MSTORE POP JUMP JUMPDEST PUSH0 PUSH2 0x3A41 PUSH1 0x1B DUP4 PUSH2 0x2A98 JUMP JUMPDEST SWAP2 POP PUSH2 0x3A4C DUP3 PUSH2 0x3A0D JUMP JUMPDEST PUSH1 0x20 DUP3 ADD SWAP1 POP SWAP2 SWAP1 POP JUMP JUMPDEST PUSH0 PUSH1 0x20 DUP3 ADD SWAP1 POP DUP2 DUP2 SUB PUSH0 DUP4 ADD MSTORE PUSH2 0x3A6E DUP2 PUSH2 0x3A35 JUMP JUMPDEST SWAP1 POP SWAP2 SWAP1 POP JUMP JUMPDEST PUSH32 0x466972737420776F7264206D7573742062652072657175657374496400000000 PUSH0 DUP3 ADD MSTORE POP JUMP JUMPDEST PUSH0 PUSH2 0x3AA9 PUSH1 0x1C DUP4 PUSH2 0x2A98 JUMP JUMPDEST SWAP2 POP PUSH2 0x3AB4 DUP3 PUSH2 0x3A75 JUMP JUMPDEST PUSH1 0x20 DUP3 ADD SWAP1 POP SWAP2 SWAP1 POP JUMP JUMPDEST PUSH0 PUSH1 0x20 DUP3 ADD SWAP1 POP DUP2 DUP2 SUB PUSH0 DUP4 ADD MSTORE PUSH2 0x3AD6 DUP2 PUSH2 0x3A9D JUMP JUMPDEST SWAP1 POP SWAP2 SWAP1 POP JUMP JUMPDEST PUSH0 DUP2 SWAP1 POP SWAP2 SWAP1 POP JUMP JUMPDEST PUSH2 0x3AF7 PUSH2 0x3AF2 DUP3 PUSH2 0x2C5B JUMP JUMPDEST PUSH2 0x3ADD JUMP JUMPDEST DUP3 MSTORE POP POP JUMP JUMPDEST PUSH0 PUSH2 0x3B08 DUP3 DUP7 PUSH2 0x3AE6 JUMP JUMPDEST PUSH1 0x4 DUP3 ADD SWAP2 POP PUSH2 0x3B19 DUP3 DUP5 DUP7 PUSH2 0x3673 JUMP JUMPDEST SWAP2 POP DUP2 SWAP1 POP SWAP5 SWAP4 POP POP POP POP JUMP JUMPDEST PUSH32 0x496E76616C6964206172726179206C656E677468287329000000000000000000 PUSH0 DUP3 ADD MSTORE POP JUMP JUMPDEST PUSH0 PUSH2 0x3B5A PUSH1 0x17 DUP4 PUSH2 0x2A98 JUMP JUMPDEST SWAP2 POP PUSH2 0x3B65 DUP3 PUSH2 0x3B26 JUMP JUMPDEST PUSH1 0x20 DUP3 ADD SWAP1 POP SWAP2 SWAP1 POP JUMP JUMPDEST PUSH0 PUSH1 0x20 DUP3 ADD SWAP1 POP DUP2 DUP2 SUB PUSH0 DUP4 ADD MSTORE PUSH2 0x3B87 DUP2 PUSH2 0x3B4E JUMP JUMPDEST SWAP1 POP SWAP2 SWAP1 POP JUMP JUMPDEST PUSH32 0x4E487B7100000000000000000000000000000000000000000000000000000000 PUSH0 MSTORE PUSH1 0x11 PUSH1 0x4 MSTORE PUSH1 0x24 PUSH0 REVERT JUMPDEST PUSH0 PUSH2 0x3BC5 DUP3 PUSH2 0x2BF5 JUMP JUMPDEST SWAP2 POP PUSH2 0x3BD0 DUP4 PUSH2 0x2BF5 JUMP JUMPDEST SWAP3 POP DUP3 DUP3 SUB SWAP1 POP DUP2 DUP2 GT ISZERO PUSH2 0x3BE8 JUMPI PUSH2 0x3BE7 PUSH2 0x3B8E JUMP JUMPDEST JUMPDEST SWAP3 SWAP2 POP POP JUMP JUMPDEST PUSH0 PUSH2 0x3BF8 DUP3 PUSH2 0x295A JUMP JUMPDEST SWAP1 POP SWAP2 SWAP1 POP JUMP JUMPDEST PUSH2 0x3C08 DUP2 PUSH2 0x3BEE JUMP JUMPDEST DUP2 EQ PUSH2 0x3C12 JUMPI PUSH0 PUSH0 REVERT JUMPDEST POP JUMP JUMPDEST PUSH0 DUP2 CALLDATALOAD SWAP1 POP PUSH2 0x3C23 DUP2 PUSH2 0x3BFF JUMP JUMPDEST SWAP3 SWAP2 POP POP JUMP JUMPDEST PUSH0 PUSH1 0x20 DUP3 DUP5 SUB SLT ISZERO PUSH2 0x3C3E JUMPI PUSH2 0x3C3D PUSH2 0x28A6 JUMP JUMPDEST JUMPDEST PUSH0 PUSH2 0x3C4B DUP5 DUP3 DUP6 ADD PUSH2 0x3C15 JUMP JUMPDEST SWAP2 POP POP SWAP3 SWAP2 POP POP JUMP JUMPDEST POP JUMP JUMPDEST PUSH0 PUSH2 0x3C62 PUSH0 DUP4 PUSH2 0x3669 JUMP JUMPDEST SWAP2 POP PUSH2 0x3C6D DUP3 PUSH2 0x3C54 JUMP JUMPDEST PUSH0 DUP3 ADD SWAP1 POP SWAP2 SWAP1 POP JUMP JUMPDEST PUSH0 PUSH2 0x3C81 DUP3 PUSH2 0x3C57 JUMP JUMPDEST SWAP2 POP DUP2 SWAP1 POP SWAP2 SWAP1 POP JUMP JUMPDEST PUSH32 0x416464726573733A20756E61626C6520746F2073656E642076616C75652C2072 PUSH0 DUP3 ADD MSTORE PUSH32 0x6563697069656E74206D61792068617665207265766572746564000000000000 PUSH1 0x20 DUP3 ADD MSTORE POP JUMP JUMPDEST PUSH0 PUSH2 0x3CE5 PUSH1 0x3A DUP4 PUSH2 0x2A98 JUMP JUMPDEST SWAP2 POP PUSH2 0x3CF0 DUP3 PUSH2 0x3C8B JUMP JUMPDEST PUSH1 0x40 DUP3 ADD SWAP1 POP SWAP2 SWAP1 POP JUMP JUMPDEST PUSH0 PUSH1 0x20 DUP3 ADD SWAP1 POP DUP2 DUP2 SUB PUSH0 DUP4 ADD MSTORE PUSH2 0x3D12 DUP2 PUSH2 0x3CD9 JUMP JUMPDEST SWAP1 POP SWAP2 SWAP1 POP JUMP JUMPDEST PUSH32 0x546F6F206D756368204554482073656E74000000000000000000000000000000 PUSH0 DUP3 ADD MSTORE POP JUMP JUMPDEST PUSH0 PUSH2 0x3D4D PUSH1 0x11 DUP4 PUSH2 0x2A98 JUMP JUMPDEST SWAP2 POP PUSH2 0x3D58 DUP3 PUSH2 0x3D19 JUMP JUMPDEST PUSH1 0x20 DUP3 ADD SWAP1 POP SWAP2 SWAP1 POP JUMP JUMPDEST PUSH0 PUSH1 0x20 DUP3 ADD SWAP1 POP DUP2 DUP2 SUB PUSH0 DUP4 ADD MSTORE PUSH2 0x3D7A DUP2 PUSH2 0x3D41 JUMP JUMPDEST SWAP1 POP SWAP2 SWAP1 POP JUMP JUMPDEST PUSH32 0x506172616D7320646F206E6F74206D6174636820726571756573742049440000 PUSH0 DUP3 ADD MSTORE POP JUMP JUMPDEST PUSH0 PUSH2 0x3DB5 PUSH1 0x1E DUP4 PUSH2 0x2A98 JUMP JUMPDEST SWAP2 POP PUSH2 0x3DC0 DUP3 PUSH2 0x3D81 JUMP JUMPDEST PUSH1 0x20 DUP3 ADD SWAP1 POP SWAP2 SWAP1 POP JUMP JUMPDEST PUSH0 PUSH1 0x20 DUP3 ADD SWAP1 POP DUP2 DUP2 SUB PUSH0 DUP4 ADD MSTORE PUSH2 0x3DE2 DUP2 PUSH2 0x3DA9 JUMP JUMPDEST SWAP1 POP SWAP2 SWAP1 POP JUMP JUMPDEST PUSH32 0x52657175657374206973206E6F74206578706972656400000000000000000000 PUSH0 DUP3 ADD MSTORE POP JUMP JUMPDEST PUSH0 PUSH2 0x3E1D PUSH1 0x16 DUP4 PUSH2 0x2A98 JUMP JUMPDEST SWAP2 POP PUSH2 0x3E28 DUP3 PUSH2 0x3DE9 JUMP JUMPDEST PUSH1 0x20 DUP3 ADD SWAP1 POP SWAP2 SWAP1 POP JUMP JUMPDEST PUSH0 PUSH1 0x20 DUP3 ADD SWAP1 POP DUP2 DUP2 SUB PUSH0 DUP4 ADD MSTORE PUSH2 0x3E4A DUP2 PUSH2 0x3E11 JUMP JUMPDEST SWAP1 POP SWAP2 SWAP1 POP JUMP JUMPDEST PUSH0 PUSH1 0x40 DUP3 ADD SWAP1 POP PUSH2 0x3E64 PUSH0 DUP4 ADD DUP6 PUSH2 0x2A66 JUMP JUMPDEST PUSH2 0x3E71 PUSH1 0x20 DUP4 ADD DUP5 PUSH2 0x2F56 JUMP JUMPDEST SWAP4 SWAP3 POP POP POP JUMP JUMPDEST PUSH2 0x3E81 DUP2 PUSH2 0x2F23 JUMP JUMPDEST DUP2 EQ PUSH2 0x3E8B JUMPI PUSH0 PUSH0 REVERT JUMPDEST POP JUMP JUMPDEST PUSH0 DUP2 MLOAD SWAP1 POP PUSH2 0x3E9C DUP2 PUSH2 0x3E78 JUMP JUMPDEST SWAP3 SWAP2 POP POP JUMP JUMPDEST PUSH0 PUSH1 0x20 DUP3 DUP5 SUB SLT ISZERO PUSH2 0x3EB7 JUMPI PUSH2 0x3EB6 PUSH2 0x28A6 JUMP JUMPDEST JUMPDEST PUSH0 PUSH2 0x3EC4 DUP5 DUP3 DUP6 ADD PUSH2 0x3E8E JUMP JUMPDEST SWAP2 POP POP SWAP3 SWAP2 POP POP JUMP JUMPDEST PUSH32 0x4D7573742062652070726F706F736564206F776E657200000000000000000000 PUSH0 DUP3 ADD MSTORE POP JUMP JUMPDEST PUSH0 PUSH2 0x3F01 PUSH1 0x16 DUP4 PUSH2 0x2A98 JUMP JUMPDEST SWAP2 POP PUSH2 0x3F0C DUP3 PUSH2 0x3ECD JUMP JUMPDEST PUSH1 0x20 DUP3 ADD SWAP1 POP SWAP2 SWAP1 POP JUMP JUMPDEST PUSH0 PUSH1 0x20 DUP3 ADD SWAP1 POP DUP2 DUP2 SUB PUSH0 DUP4 ADD MSTORE PUSH2 0x3F2E DUP2 PUSH2 0x3EF5 JUMP JUMPDEST SWAP1 POP SWAP2 SWAP1 POP JUMP JUMPDEST PUSH32 0x416D6F756E74207265717565737465642069732067726561746572207468616E PUSH0 DUP3 ADD MSTORE PUSH32 0x20776974686472617761626C652062616C616E63650000000000000000000000 PUSH1 0x20 DUP3 ADD MSTORE POP JUMP JUMPDEST PUSH0 PUSH2 0x3F8F PUSH1 0x35 DUP4 PUSH2 0x2A98 JUMP JUMPDEST SWAP2 POP PUSH2 0x3F9A DUP3 PUSH2 0x3F35 JUMP JUMPDEST PUSH1 0x40 DUP3 ADD SWAP1 POP SWAP2 SWAP1 POP JUMP JUMPDEST PUSH0 PUSH1 0x20 DUP3 ADD SWAP1 POP DUP2 DUP2 SUB PUSH0 DUP4 ADD MSTORE PUSH2 0x3FBC DUP2 PUSH2 0x3F83 JUMP JUMPDEST SWAP1 POP SWAP2 SWAP1 POP JUMP JUMPDEST PUSH0 PUSH1 0x60 DUP3 ADD SWAP1 POP PUSH2 0x3FD6 PUSH0 DUP4 ADD DUP8 PUSH2 0x2A66 JUMP JUMPDEST PUSH2 0x3FE3 PUSH1 0x20 DUP4 ADD DUP7 PUSH2 0x2F56 JUMP JUMPDEST DUP2 DUP2 SUB PUSH1 0x40 DUP4 ADD MSTORE PUSH2 0x3FF6 DUP2 DUP5 DUP7 PUSH2 0x37AD JUMP JUMPDEST SWAP1 POP SWAP6 SWAP5 POP POP POP POP POP JUMP JUMPDEST PUSH32 0x556E61626C6520746F2063726561746520726571756573740000000000000000 PUSH0 DUP3 ADD MSTORE POP JUMP JUMPDEST PUSH0 PUSH2 0x4035 PUSH1 0x18 DUP4 PUSH2 0x2A98 JUMP JUMPDEST SWAP2 POP PUSH2 0x4040 DUP3 PUSH2 0x4001 JUMP JUMPDEST PUSH1 0x20 DUP3 ADD SWAP1 POP SWAP2 SWAP1 POP JUMP JUMPDEST PUSH0 PUSH1 0x20 DUP3 ADD SWAP1 POP DUP2 DUP2 SUB PUSH0 DUP4 ADD MSTORE PUSH2 0x4062 DUP2 PUSH2 0x4029 JUMP JUMPDEST SWAP1 POP SWAP2 SWAP1 POP JUMP JUMPDEST PUSH0 DUP2 PUSH1 0x60 SHL SWAP1 POP SWAP2 SWAP1 POP JUMP JUMPDEST PUSH0 PUSH2 0x407F DUP3 PUSH2 0x4069 JUMP JUMPDEST SWAP1 POP SWAP2 SWAP1 POP JUMP JUMPDEST PUSH0 PUSH2 0x4090 DUP3 PUSH2 0x4075 JUMP JUMPDEST SWAP1 POP SWAP2 SWAP1 POP JUMP JUMPDEST PUSH2 0x40A8 PUSH2 0x40A3 DUP3 PUSH2 0x2979 JUMP JUMPDEST PUSH2 0x4086 JUMP JUMPDEST DUP3 MSTORE POP POP JUMP JUMPDEST PUSH0 DUP2 SWAP1 POP SWAP2 SWAP1 POP JUMP JUMPDEST PUSH2 0x40C8 PUSH2 0x40C3 DUP3 PUSH2 0x2BF5 JUMP JUMPDEST PUSH2 0x40AE JUMP JUMPDEST DUP3 MSTORE POP POP JUMP JUMPDEST PUSH0 PUSH2 0x40D9 DUP3 DUP6 PUSH2 0x4097 JUMP JUMPDEST PUSH1 0x14 DUP3 ADD SWAP2 POP PUSH2 0x40E9 DUP3 DUP5 PUSH2 0x40B7 JUMP JUMPDEST PUSH1 0x20 DUP3 ADD SWAP2 POP DUP2 SWAP1 POP SWAP4 SWAP3 POP POP POP JUMP JUMPDEST PUSH32 0x4D7573742068617665206174206C6561737420312073656E6465720000000000 PUSH0 DUP3 ADD MSTORE POP JUMP JUMPDEST PUSH0 PUSH2 0x412D PUSH1 0x1B DUP4 PUSH2 0x2A98 JUMP JUMPDEST SWAP2 POP PUSH2 0x4138 DUP3 PUSH2 0x40F9 JUMP JUMPDEST PUSH1 0x20 DUP3 ADD SWAP1 POP SWAP2 SWAP1 POP JUMP JUMPDEST PUSH0 PUSH1 0x20 DUP3 ADD SWAP1 POP DUP2 DUP2 SUB PUSH0 DUP4 ADD MSTORE PUSH2 0x415A DUP2 PUSH2 0x4121 JUMP JUMPDEST SWAP1 POP SWAP2 SWAP1 POP JUMP JUMPDEST PUSH32 0x4D757374206E6F742068617665206475706C69636174652073656E6465727300 PUSH0 DUP3 ADD MSTORE POP JUMP JUMPDEST PUSH0 PUSH2 0x4195 PUSH1 0x1F DUP4 PUSH2 0x2A98 JUMP JUMPDEST SWAP2 POP PUSH2 0x41A0 DUP3 PUSH2 0x4161 JUMP JUMPDEST PUSH1 0x20 DUP3 ADD SWAP1 POP SWAP2 SWAP1 POP JUMP JUMPDEST PUSH0 PUSH1 0x20 DUP3 ADD SWAP1 POP DUP2 DUP2 SUB PUSH0 DUP4 ADD MSTORE PUSH2 0x41C2 DUP2 PUSH2 0x4189 JUMP JUMPDEST SWAP1 POP SWAP2 SWAP1 POP JUMP JUMPDEST PUSH0 DUP2 SWAP1 POP SWAP2 SWAP1 POP JUMP JUMPDEST PUSH0 PUSH2 0x41E0 PUSH1 0x20 DUP5 ADD DUP5 PUSH2 0x29A0 JUMP JUMPDEST SWAP1 POP SWAP3 SWAP2 POP POP JUMP JUMPDEST PUSH0 PUSH1 0x20 DUP3 ADD SWAP1 POP SWAP2 SWAP1 POP JUMP JUMPDEST PUSH0 PUSH2 0x41FF DUP4 DUP6 PUSH2 0x2B28 JUMP JUMPDEST SWAP4 POP PUSH2 0x420A DUP3 PUSH2 0x41C9 JUMP JUMPDEST DUP1 PUSH0 JUMPDEST DUP6 DUP2 LT ISZERO PUSH2 0x4242 JUMPI PUSH2 0x421F DUP3 DUP5 PUSH2 0x41D2 JUMP JUMPDEST PUSH2 0x4229 DUP9 DUP3 PUSH2 0x2B56 JUMP JUMPDEST SWAP8 POP PUSH2 0x4234 DUP4 PUSH2 0x41E8 JUMP JUMPDEST SWAP3 POP POP PUSH1 0x1 DUP2 ADD SWAP1 POP PUSH2 0x420D JUMP JUMPDEST POP DUP6 SWAP3 POP POP POP SWAP4 SWAP3 POP POP POP JUMP JUMPDEST PUSH0 PUSH1 0x40 DUP3 ADD SWAP1 POP DUP2 DUP2 SUB PUSH0 DUP4 ADD MSTORE PUSH2 0x4268 DUP2 DUP6 DUP8 PUSH2 0x41F4 JUMP JUMPDEST SWAP1 POP PUSH2 0x4277 PUSH1 0x20 DUP4 ADD DUP5 PUSH2 0x2A66 JUMP JUMPDEST SWAP5 SWAP4 POP POP POP POP JUMP JUMPDEST PUSH32 0x4E487B7100000000000000000000000000000000000000000000000000000000 PUSH0 MSTORE PUSH1 0x1 PUSH1 0x4 MSTORE PUSH1 0x24 PUSH0 REVERT JUMPDEST PUSH0 PUSH1 0x60 DUP3 ADD SWAP1 POP DUP2 DUP2 SUB PUSH0 DUP4 ADD MSTORE PUSH2 0x42C5 DUP2 DUP8 DUP10 PUSH2 0x41F4 JUMP JUMPDEST SWAP1 POP DUP2 DUP2 SUB PUSH1 0x20 DUP4 ADD MSTORE PUSH2 0x42DA DUP2 DUP6 DUP8 PUSH2 0x41F4 JUMP JUMPDEST SWAP1 POP PUSH2 0x42E9 PUSH1 0x40 DUP4 ADD DUP5 PUSH2 0x2A66 JUMP JUMPDEST SWAP7 SWAP6 POP POP POP POP POP POP JUMP JUMPDEST PUSH0 PUSH1 0x20 DUP3 ADD SWAP1 POP DUP2 DUP2 SUB PUSH0 DUP4 ADD MSTORE PUSH2 0x430C DUP2 DUP5 DUP7 PUSH2 0x41F4 JUMP JUMPDEST SWAP1 POP SWAP4 SWAP3 POP POP POP JUMP JUMPDEST PUSH32 0x4F6E6C792063616C6C61626C65206279206F776E657200000000000000000000 PUSH0 DUP3 ADD MSTORE POP JUMP JUMPDEST PUSH0 PUSH2 0x4349 PUSH1 0x16 DUP4 PUSH2 0x2A98 JUMP JUMPDEST SWAP2 POP PUSH2 0x4354 DUP3 PUSH2 0x4315 JUMP JUMPDEST PUSH1 0x20 DUP3 ADD SWAP1 POP SWAP2 SWAP1 POP JUMP JUMPDEST PUSH0 PUSH1 0x20 DUP3 ADD SWAP1 POP DUP2 DUP2 SUB PUSH0 DUP4 ADD MSTORE PUSH2 0x4376 DUP2 PUSH2 0x433D JUMP JUMPDEST SWAP1 POP SWAP2 SWAP1 POP JUMP JUMPDEST PUSH32 0x4D75737420757365206120756E69717565204944000000000000000000000000 PUSH0 DUP3 ADD MSTORE POP JUMP JUMPDEST PUSH0 PUSH2 0x43B1 PUSH1 0x14 DUP4 PUSH2 0x2A98 JUMP JUMPDEST SWAP2 POP PUSH2 0x43BC DUP3 PUSH2 0x437D JUMP JUMPDEST PUSH1 0x20 DUP3 ADD SWAP1 POP SWAP2 SWAP1 POP JUMP JUMPDEST PUSH0 PUSH1 0x20 DUP3 ADD SWAP1 POP DUP2 DUP2 SUB PUSH0 DUP4 ADD MSTORE PUSH2 0x43DE DUP2 PUSH2 0x43A5 JUMP JUMPDEST SWAP1 POP SWAP2 SWAP1 POP JUMP JUMPDEST PUSH0 PUSH2 0x43EF DUP3 PUSH2 0x2BF5 JUMP JUMPDEST SWAP2 POP PUSH2 0x43FA DUP4 PUSH2 0x2BF5 JUMP JUMPDEST SWAP3 POP DUP3 DUP3 ADD SWAP1 POP DUP1 DUP3 GT ISZERO PUSH2 0x4412 JUMPI PUSH2 0x4411 PUSH2 0x3B8E JUMP JUMPDEST JUMPDEST SWAP3 SWAP2 POP POP JUMP JUMPDEST PUSH32 0x4E6F7420617574686F72697A65642073656E6465720000000000000000000000 PUSH0 DUP3 ADD MSTORE POP JUMP JUMPDEST PUSH0 PUSH2 0x444C PUSH1 0x15 DUP4 PUSH2 0x2A98 JUMP JUMPDEST SWAP2 POP PUSH2 0x4457 DUP3 PUSH2 0x4418 JUMP JUMPDEST PUSH1 0x20 DUP3 ADD SWAP1 POP SWAP2 SWAP1 POP JUMP JUMPDEST PUSH0 PUSH1 0x20 DUP3 ADD SWAP1 POP DUP2 DUP2 SUB PUSH0 DUP4 ADD MSTORE PUSH2 0x4479 DUP2 PUSH2 0x4440 JUMP JUMPDEST SWAP1 POP SWAP2 SWAP1 POP JUMP JUMPDEST PUSH32 0x446174612076657273696F6E73206D757374206D617463680000000000000000 PUSH0 DUP3 ADD MSTORE POP JUMP JUMPDEST PUSH0 PUSH2 0x44B4 PUSH1 0x18 DUP4 PUSH2 0x2A98 JUMP JUMPDEST SWAP2 POP PUSH2 0x44BF DUP3 PUSH2 0x4480 JUMP JUMPDEST PUSH1 0x20 DUP3 ADD SWAP1 POP SWAP2 SWAP1 POP JUMP JUMPDEST PUSH0 PUSH1 0x20 DUP3 ADD SWAP1 POP DUP2 DUP2 SUB PUSH0 DUP4 ADD MSTORE PUSH2 0x44E1 DUP2 PUSH2 0x44A8 JUMP JUMPDEST SWAP1 POP SWAP2 SWAP1 POP JUMP JUMPDEST PUSH0 DUP2 MLOAD SWAP1 POP PUSH2 0x44F6 DUP2 PUSH2 0x2BFE JUMP JUMPDEST SWAP3 SWAP2 POP POP JUMP JUMPDEST PUSH0 PUSH1 0x20 DUP3 DUP5 SUB SLT ISZERO PUSH2 0x4511 JUMPI PUSH2 0x4510 PUSH2 0x28A6 JUMP JUMPDEST JUMPDEST PUSH0 PUSH2 0x451E DUP5 DUP3 DUP6 ADD PUSH2 0x44E8 JUMP JUMPDEST SWAP2 POP POP SWAP3 SWAP2 POP POP JUMP JUMPDEST PUSH0 PUSH2 0x4532 DUP3 DUP8 PUSH2 0x40B7 JUMP JUMPDEST PUSH1 0x20 DUP3 ADD SWAP2 POP PUSH2 0x4542 DUP3 DUP7 PUSH2 0x4097 JUMP JUMPDEST PUSH1 0x14 DUP3 ADD SWAP2 POP PUSH2 0x4552 DUP3 DUP6 PUSH2 0x3AE6 JUMP JUMPDEST PUSH1 0x4 DUP3 ADD SWAP2 POP PUSH2 0x4562 DUP3 DUP5 PUSH2 0x40B7 JUMP JUMPDEST PUSH1 0x20 DUP3 ADD SWAP2 POP DUP2 SWAP1 POP SWAP6 SWAP5 POP POP POP POP POP JUMP JUMPDEST PUSH0 PUSH2 0x457E DUP3 PUSH2 0x2BF5 JUMP JUMPDEST SWAP2 POP PUSH2 0x4589 DUP4 PUSH2 0x2BF5 JUMP JUMPDEST SWAP3 POP DUP3 DUP3 MUL PUSH2 0x4597 DUP2 PUSH2 0x2BF5 JUMP JUMPDEST SWAP2 POP DUP3 DUP3 DIV DUP5 EQ DUP4 ISZERO OR PUSH2 0x45AE JUMPI PUSH2 0x45AD PUSH2 0x3B8E JUMP JUMPDEST JUMPDEST POP SWAP3 SWAP2 POP POP JUMP JUMPDEST PUSH32 0x496E76616C69642072657175657374206C656E67746800000000000000000000 PUSH0 DUP3 ADD MSTORE POP JUMP JUMPDEST PUSH0 PUSH2 0x45E9 PUSH1 0x16 DUP4 PUSH2 0x2A98 JUMP JUMPDEST SWAP2 POP PUSH2 0x45F4 DUP3 PUSH2 0x45B5 JUMP JUMPDEST PUSH1 0x20 DUP3 ADD SWAP1 POP SWAP2 SWAP1 POP JUMP JUMPDEST PUSH0 PUSH1 0x20 DUP3 ADD SWAP1 POP DUP2 DUP2 SUB PUSH0 DUP4 ADD MSTORE PUSH2 0x4616 DUP2 PUSH2 0x45DD JUMP JUMPDEST SWAP1 POP SWAP2 SWAP1 POP JUMP JUMPDEST PUSH32 0x4D757374207573652077686974656C69737465642066756E6374696F6E730000 PUSH0 DUP3 ADD MSTORE POP JUMP JUMPDEST PUSH0 PUSH2 0x4651 PUSH1 0x1E DUP4 PUSH2 0x2A98 JUMP JUMPDEST SWAP2 POP PUSH2 0x465C DUP3 PUSH2 0x461D JUMP JUMPDEST PUSH1 0x20 DUP3 ADD SWAP1 POP SWAP2 SWAP1 POP JUMP JUMPDEST PUSH0 PUSH1 0x20 DUP3 ADD SWAP1 POP DUP2 DUP2 SUB PUSH0 DUP4 ADD MSTORE PUSH2 0x467E DUP2 PUSH2 0x4645 JUMP JUMPDEST SWAP1 POP SWAP2 SWAP1 POP JUMP JUMPDEST PUSH32 0x43616E6E6F74207472616E7366657220746F2073656C66000000000000000000 PUSH0 DUP3 ADD MSTORE POP JUMP JUMPDEST PUSH0 PUSH2 0x46B9 PUSH1 0x17 DUP4 PUSH2 0x2A98 JUMP JUMPDEST SWAP2 POP PUSH2 0x46C4 DUP3 PUSH2 0x4685 JUMP JUMPDEST PUSH1 0x20 DUP3 ADD SWAP1 POP SWAP2 SWAP1 POP JUMP JUMPDEST PUSH0 PUSH1 0x20 DUP3 ADD SWAP1 POP DUP2 DUP2 SUB PUSH0 DUP4 ADD MSTORE PUSH2 0x46E6 DUP2 PUSH2 0x46AD JUMP JUMPDEST SWAP1 POP SWAP2 SWAP1 POP JUMP JUMPDEST PUSH0 DUP2 SWAP1 POP SWAP2 SWAP1 POP JUMP JUMPDEST PUSH0 PUSH1 0xFF DUP3 AND SWAP1 POP SWAP2 SWAP1 POP JUMP JUMPDEST PUSH0 DUP2 SWAP1 POP SWAP2 SWAP1 POP JUMP JUMPDEST PUSH0 PUSH2 0x4725 PUSH2 0x4720 PUSH2 0x471B DUP5 PUSH2 0x46ED JUMP JUMPDEST PUSH2 0x4702 JUMP JUMPDEST PUSH2 0x46F6 JUMP JUMPDEST SWAP1 POP SWAP2 SWAP1 POP JUMP JUMPDEST PUSH2 0x4735 DUP2 PUSH2 0x470B JUMP JUMPDEST DUP3 MSTORE POP POP JUMP JUMPDEST PUSH0 PUSH1 0x40 DUP3 ADD SWAP1 POP PUSH2 0x474E PUSH0 DUP4 ADD DUP6 PUSH2 0x472C JUMP JUMPDEST PUSH2 0x475B PUSH1 0x20 DUP4 ADD DUP5 PUSH2 0x2F56 JUMP JUMPDEST SWAP4 SWAP3 POP POP POP JUMP INVALID LOG2 PUSH5 0x6970667358 0x22 SLT KECCAK256 TLOAD CALLDATACOPY PUSH28 0xF165F7152492A88B1956BD298B793AFA62FD5188A4C0684F6A93CAF4 EXP PUSH5 0x736F6C6343 STOP ADDMOD SAR STOP CALLER "
		},
		"gasEstimates": {
			"creation": {
				"codeDepositCost": "3665600",
				"executionCost": "infinite",
				"totalCost": "infinite"
			},
			"external": {
				"EXPIRYTIME()": "436",
				"acceptAuthorizedReceivers(address[],address[])": "infinite",
				"acceptOwnableContracts(address[])": "infinite",
				"acceptOwnership()": "54622",
				"cancelOracleRequest(bytes32,uint256,bytes4,uint256)": "infinite",
				"cancelOracleRequestByRequester(uint256,uint256,bytes4,uint256)": "infinite",
				"distributeFunds(address[],uint256[])": "infinite",
				"fulfillOracleRequest(bytes32,uint256,address,bytes4,uint256,bytes32)": "infinite",
				"fulfillOracleRequest2(bytes32,uint256,address,bytes4,uint256,bytes)": "infinite",
				"getAuthorizedSenders()": "infinite",
				"getChainlinkToken()": "infinite",
				"isAuthorizedSender(address)": "2957",
				"onTokenTransfer(address,uint256,bytes)": "infinite",
				"operatorRequest(address,uint256,bytes32,bytes4,uint256,uint256,bytes)": "infinite",
				"oracleRequest(address,uint256,bytes32,address,bytes4,uint256,uint256,bytes)": "infinite",
				"owner()": "2626",
				"ownerForward(address,bytes)": "infinite",
				"ownerTransferAndCall(address,uint256,bytes)": "infinite",
				"setAuthorizedSenders(address[])": "infinite",
				"setAuthorizedSendersOn(address[],address[])": "infinite",
				"transferOwnableContracts(address[],address)": "infinite",
				"transferOwnership(address)": "30695",
				"typeAndVersion()": "infinite",
				"withdraw(address,uint256)": "infinite",
				"withdrawable()": "infinite"
			},
			"internal": {
				"_buildParamsHash(uint256,address,bytes4,uint256)": "infinite",
				"_canSetAuthorizedSenders()": "4499",
				"_fundsAvailable()": "infinite",
				"_validateTokenTransferAction(bytes4,bytes memory)": "infinite",
				"_verifyAndProcessOracleRequest(address,uint256,address,bytes4,uint256,uint256)": "infinite",
				"_verifyOracleRequestAndProcessPayment(bytes32,uint256,address,bytes4,uint256,uint256)": "infinite"
			}
		},
		"methodIdentifiers": {
			"EXPIRYTIME()": "52043783",
			"acceptAuthorizedReceivers(address[],address[])": "5ffa6288",
			"acceptOwnableContracts(address[])": "01994b99",
			"acceptOwnership()": "79ba5097",
			"cancelOracleRequest(bytes32,uint256,bytes4,uint256)": "6ee4d553",
			"cancelOracleRequestByRequester(uint256,uint256,bytes4,uint256)": "eb007d99",
			"distributeFunds(address[],uint256[])": "6bd59ec0",
			"fulfillOracleRequest(bytes32,uint256,address,bytes4,uint256,bytes32)": "4ab0d190",
			"fulfillOracleRequest2(bytes32,uint256,address,bytes4,uint256,bytes)": "6ae0bc76",
			"getAuthorizedSenders()": "2408afaa",
			"getChainlinkToken()": "165d35e1",
			"isAuthorizedSender(address)": "fa00763a",
			"onTokenTransfer(address,uint256,bytes)": "a4c0ed36",
			"operatorRequest(address,uint256,bytes32,bytes4,uint256,uint256,bytes)": "3c6d41b9",
			"oracleRequest(address,uint256,bytes32,address,bytes4,uint256,uint256,bytes)": "40429946",
			"owner()": "8da5cb5b",
			"ownerForward(address,bytes)": "033f49f7",
			"ownerTransferAndCall(address,uint256,bytes)": "902fc370",
			"setAuthorizedSenders(address[])": "ee56997b",
			"setAuthorizedSendersOn(address[],address[])": "fc4a03ed",
			"transferOwnableContracts(address[],address)": "3ec5bc14",
			"transferOwnership(address)": "f2fde38b",
			"typeAndVersion()": "181f5a77",
			"withdraw(address,uint256)": "f3fef3a3",
			"withdrawable()": "50188301"
		}
	},
	"abi": [
		{
			"inputs": [
				{
					"internalType": "address",
					"name": "link",
					"type": "address"
				},
				{
					"internalType": "address",
					"name": "owner",
					"type": "address"
				}
			],
			"stateMutability": "nonpayable",
			"type": "constructor"
		},
		{
			"inputs": [
				{
					"internalType": "uint8",
					"name": "bits",
					"type": "uint8"
				},
				{
					"internalType": "uint256",
					"name": "value",
					"type": "uint256"
				}
			],
			"name": "SafeCastOverflowedUintDowncast",
			"type": "error"
		},
		{
			"anonymous": false,
			"inputs": [
				{
					"indexed": false,
					"internalType": "address[]",
					"name": "senders",
					"type": "address[]"
				},
				{
					"indexed": false,
					"internalType": "address",
					"name": "changedBy",
					"type": "address"
				}
			],
			"name": "AuthorizedSendersChanged",
			"type": "event"
		},
		{
			"anonymous": false,
			"inputs": [
				{
					"indexed": true,
					"internalType": "bytes32",
					"name": "requestId",
					"type": "bytes32"
				}
			],
			"name": "CancelOracleRequest",
			"type": "event"
		},
		{
			"anonymous": false,
			"inputs": [
				{
					"indexed": true,
					"internalType": "bytes32",
					"name": "specId",
					"type": "bytes32"
				},
				{
					"indexed": false,
					"internalType": "address",
					"name": "requester",
					"type": "address"
				},
				{
					"indexed": false,
					"internalType": "bytes32",
					"name": "requestId",
					"type": "bytes32"
				},
				{
					"indexed": false,
					"internalType": "uint256",
					"name": "payment",
					"type": "uint256"
				},
				{
					"indexed": false,
					"internalType": "address",
					"name": "callbackAddr",
					"type": "address"
				},
				{
					"indexed": false,
					"internalType": "bytes4",
					"name": "callbackFunctionId",
					"type": "bytes4"
				},
				{
					"indexed": false,
					"internalType": "uint256",
					"name": "cancelExpiration",
					"type": "uint256"
				},
				{
					"indexed": false,
					"internalType": "uint256",
					"name": "dataVersion",
					"type": "uint256"
				},
				{
					"indexed": false,
					"internalType": "bytes",
					"name": "data",
					"type": "bytes"
				}
			],
			"name": "OracleRequest",
			"type": "event"
		},
		{
			"anonymous": false,
			"inputs": [
				{
					"indexed": true,
					"internalType": "bytes32",
					"name": "requestId",
					"type": "bytes32"
				}
			],
			"name": "OracleResponse",
			"type": "event"
		},
		{
			"anonymous": false,
			"inputs": [
				{
					"indexed": true,
					"internalType": "address",
					"name": "acceptedContract",
					"type": "address"
				}
			],
			"name": "OwnableContractAccepted",
			"type": "event"
		},
		{
			"anonymous": false,
			"inputs": [
				{
					"indexed": true,
					"internalType": "address",
					"name": "from",
					"type": "address"
				},
				{
					"indexed": true,
					"internalType": "address",
					"name": "to",
					"type": "address"
				}
			],
			"name": "OwnershipTransferRequested",
			"type": "event"
		},
		{
			"anonymous": false,
			"inputs": [
				{
					"indexed": true,
					"internalType": "address",
					"name": "from",
					"type": "address"
				},
				{
					"indexed": true,
					"internalType": "address",
					"name": "to",
					"type": "address"
				}
			],
			"name": "OwnershipTransferred",
			"type": "event"
		},
		{
			"anonymous": false,
			"inputs": [
				{
					"indexed": false,
					"internalType": "address[]",
					"name": "targets",
					"type": "address[]"
				},
				{
					"indexed": false,
					"internalType": "address[]",
					"name": "senders",
					"type": "address[]"
				},
				{
					"indexed": false,
					"internalType": "address",
					"name": "changedBy",
					"type": "address"
				}
			],
			"name": "TargetsUpdatedAuthorizedSenders",
			"type": "event"
		},
		{
			"inputs": [],
			"name": "EXPIRYTIME",
			"outputs": [
				{
					"internalType": "uint256",
					"name": "",
					"type": "uint256"
				}
			],
			"stateMutability": "view",
			"type": "function"
		},
		{
			"inputs": [
				{
					"internalType": "address[]",
					"name": "targets",
					"type": "address[]"
				},
				{
					"internalType": "address[]",
					"name": "senders",
					"type": "address[]"
				}
			],
			"name": "acceptAuthorizedReceivers",
			"outputs": [],
			"stateMutability": "nonpayable",
			"type": "function"
		},
		{
			"inputs": [
				{
					"internalType": "address[]",
					"name": "ownable",
					"type": "address[]"
				}
			],
			"name": "acceptOwnableContracts",
			"outputs": [],
			"stateMutability": "nonpayable",
			"type": "function"
		},
		{
			"inputs": [],
			"name": "acceptOwnership",
			"outputs": [],
			"stateMutability": "nonpayable",
			"type": "function"
		},
		{
			"inputs": [
				{
					"internalType": "bytes32",
					"name": "requestId",
					"type": "bytes32"
				},
				{
					"internalType": "uint256",
					"name": "payment",
					"type": "uint256"
				},
				{
					"internalType": "bytes4",
					"name": "callbackFunc",
					"type": "bytes4"
				},
				{
					"internalType": "uint256",
					"name": "expiration",
					"type": "uint256"
				}
			],
			"name": "cancelOracleRequest",
			"outputs": [],
			"stateMutability": "nonpayable",
			"type": "function"
		},
		{
			"inputs": [
				{
					"internalType": "uint256",
					"name": "nonce",
					"type": "uint256"
				},
				{
					"internalType": "uint256",
					"name": "payment",
					"type": "uint256"
				},
				{
					"internalType": "bytes4",
					"name": "callbackFunc",
					"type": "bytes4"
				},
				{
					"internalType": "uint256",
					"name": "expiration",
					"type": "uint256"
				}
			],
			"name": "cancelOracleRequestByRequester",
			"outputs": [],
			"stateMutability": "nonpayable",
			"type": "function"
		},
		{
			"inputs": [
				{
					"internalType": "address payable[]",
					"name": "receivers",
					"type": "address[]"
				},
				{
					"internalType": "uint256[]",
					"name": "amounts",
					"type": "uint256[]"
				}
			],
			"name": "distributeFunds",
			"outputs": [],
			"stateMutability": "payable",
			"type": "function"
		},
		{
			"inputs": [
				{
					"internalType": "bytes32",
					"name": "requestId",
					"type": "bytes32"
				},
				{
					"internalType": "uint256",
					"name": "payment",
					"type": "uint256"
				},
				{
					"internalType": "address",
					"name": "callbackAddress",
					"type": "address"
				},
				{
					"internalType": "bytes4",
					"name": "callbackFunctionId",
					"type": "bytes4"
				},
				{
					"internalType": "uint256",
					"name": "expiration",
					"type": "uint256"
				},
				{
					"internalType": "bytes32",
					"name": "data",
					"type": "bytes32"
				}
			],
			"name": "fulfillOracleRequest",
			"outputs": [
				{
					"internalType": "bool",
					"name": "",
					"type": "bool"
				}
			],
			"stateMutability": "nonpayable",
			"type": "function"
		},
		{
			"inputs": [
				{
					"internalType": "bytes32",
					"name": "requestId",
					"type": "bytes32"
				},
				{
					"internalType": "uint256",
					"name": "payment",
					"type": "uint256"
				},
				{
					"internalType": "address",
					"name": "callbackAddress",
					"type": "address"
				},
				{
					"internalType": "bytes4",
					"name": "callbackFunctionId",
					"type": "bytes4"
				},
				{
					"internalType": "uint256",
					"name": "expiration",
					"type": "uint256"
				},
				{
					"internalType": "bytes",
					"name": "data",
					"type": "bytes"
				}
			],
			"name": "fulfillOracleRequest2",
			"outputs": [
				{
					"internalType": "bool",
					"name": "",
					"type": "bool"
				}
			],
			"stateMutability": "nonpayable",
			"type": "function"
		},
		{
			"inputs": [],
			"name": "getAuthorizedSenders",
			"outputs": [
				{
					"internalType": "address[]",
					"name": "",
					"type": "address[]"
				}
			],
			"stateMutability": "view",
			"type": "function"
		},
		{
			"inputs": [],
			"name": "getChainlinkToken",
			"outputs": [
				{
					"internalType": "address",
					"name": "",
					"type": "address"
				}
			],
			"stateMutability": "view",
			"type": "function"
		},
		{
			"inputs": [
				{
					"internalType": "address",
					"name": "sender",
					"type": "address"
				}
			],
			"name": "isAuthorizedSender",
			"outputs": [
				{
					"internalType": "bool",
					"name": "",
					"type": "bool"
				}
			],
			"stateMutability": "view",
			"type": "function"
		},
		{
			"inputs": [
				{
					"internalType": "address",
					"name": "sender",
					"type": "address"
				},
				{
					"internalType": "uint256",
					"name": "amount",
					"type": "uint256"
				},
				{
					"internalType": "bytes",
					"name": "data",
					"type": "bytes"
				}
			],
			"name": "onTokenTransfer",
			"outputs": [],
			"stateMutability": "nonpayable",
			"type": "function"
		},
		{
			"inputs": [
				{
					"internalType": "address",
					"name": "sender",
					"type": "address"
				},
				{
					"internalType": "uint256",
					"name": "payment",
					"type": "uint256"
				},
				{
					"internalType": "bytes32",
					"name": "specId",
					"type": "bytes32"
				},
				{
					"internalType": "bytes4",
					"name": "callbackFunctionId",
					"type": "bytes4"
				},
				{
					"internalType": "uint256",
					"name": "nonce",
					"type": "uint256"
				},
				{
					"internalType": "uint256",
					"name": "dataVersion",
					"type": "uint256"
				},
				{
					"internalType": "bytes",
					"name": "data",
					"type": "bytes"
				}
			],
			"name": "operatorRequest",
			"outputs": [],
			"stateMutability": "nonpayable",
			"type": "function"
		},
		{
			"inputs": [
				{
					"internalType": "address",
					"name": "sender",
					"type": "address"
				},
				{
					"internalType": "uint256",
					"name": "payment",
					"type": "uint256"
				},
				{
					"internalType": "bytes32",
					"name": "specId",
					"type": "bytes32"
				},
				{
					"internalType": "address",
					"name": "callbackAddress",
					"type": "address"
				},
				{
					"internalType": "bytes4",
					"name": "callbackFunctionId",
					"type": "bytes4"
				},
				{
					"internalType": "uint256",
					"name": "nonce",
					"type": "uint256"
				},
				{
					"internalType": "uint256",
					"name": "dataVersion",
					"type": "uint256"
				},
				{
					"internalType": "bytes",
					"name": "data",
					"type": "bytes"
				}
			],
			"name": "oracleRequest",
			"outputs": [],
			"stateMutability": "nonpayable",
			"type": "function"
		},
		{
			"inputs": [],
			"name": "owner",
			"outputs": [
				{
					"internalType": "address",
					"name": "",
					"type": "address"
				}
			],
			"stateMutability": "view",
			"type": "function"
		},
		{
			"inputs": [
				{
					"internalType": "address",
					"name": "to",
					"type": "address"
				},
				{
					"internalType": "bytes",
					"name": "data",
					"type": "bytes"
				}
			],
			"name": "ownerForward",
			"outputs": [],
			"stateMutability": "nonpayable",
			"type": "function"
		},
		{
			"inputs": [
				{
					"internalType": "address",
					"name": "to",
					"type": "address"
				},
				{
					"internalType": "uint256",
					"name": "value",
					"type": "uint256"
				},
				{
					"internalType": "bytes",
					"name": "data",
					"type": "bytes"
				}
			],
			"name": "ownerTransferAndCall",
			"outputs": [
				{
					"internalType": "bool",
					"name": "success",
					"type": "bool"
				}
			],
			"stateMutability": "nonpayable",
			"type": "function"
		},
		{
			"inputs": [
				{
					"internalType": "address[]",
					"name": "senders",
					"type": "address[]"
				}
			],
			"name": "setAuthorizedSenders",
			"outputs": [],
			"stateMutability": "nonpayable",
			"type": "function"
		},
		{
			"inputs": [
				{
					"internalType": "address[]",
					"name": "targets",
					"type": "address[]"
				},
				{
					"internalType": "address[]",
					"name": "senders",
					"type": "address[]"
				}
			],
			"name": "setAuthorizedSendersOn",
			"outputs": [],
			"stateMutability": "nonpayable",
			"type": "function"
		},
		{
			"inputs": [
				{
					"internalType": "address[]",
					"name": "ownable",
					"type": "address[]"
				},
				{
					"internalType": "address",
					"name": "newOwner",
					"type": "address"
				}
			],
			"name": "transferOwnableContracts",
			"outputs": [],
			"stateMutability": "nonpayable",
			"type": "function"
		},
		{
			"inputs": [
				{
					"internalType": "address",
					"name": "to",
					"type": "address"
				}
			],
			"name": "transferOwnership",
			"outputs": [],
			"stateMutability": "nonpayable",
			"type": "function"
		},
		{
			"inputs": [],
			"name": "typeAndVersion",
			"outputs": [
				{
					"internalType": "string",
					"name": "",
					"type": "string"
				}
			],
			"stateMutability": "view",
			"type": "function"
		},
		{
			"inputs": [
				{
					"internalType": "address",
					"name": "recipient",
					"type": "address"
				},
				{
					"internalType": "uint256",
					"name": "amount",
					"type": "uint256"
				}
			],
			"name": "withdraw",
			"outputs": [],
			"stateMutability": "nonpayable",
			"type": "function"
		},
		{
			"inputs": [],
			"name": "withdrawable",
			"outputs": [
				{
					"internalType": "uint256",
					"name": "",
					"type": "uint256"
				}
			],
			"stateMutability": "view",
			"type": "function"
		}
	]
}