{
	"data": {
		"bytecode": {
			"linkReferences": {},
			"object": "6080604052348015600e575f5ffd5b50614ad28061001c5f395ff3fe608060405234801561000f575f5ffd5b506004361061007a575f3560e01c806351d3c99b1161005857806351d3c99b146100cf578063570ca735146100d7578063d21b3553146100ea578063d93e86ac146100f2575f5ffd5b806305995f381461007e57806309bd5a60146100ad57806317190f52146100c5575b5f5ffd5b5f54610090906001600160a01b031681565b6040516001600160a01b0390911681526020015b60405180910390f35b6100b5610104565b60405190151581526020016100a4565b6100cd6101f8565b005b6100cd61031d565b600154610090906001600160a01b031681565b6100cd610364565b6100b56101003660046103ae565b1490565b5f5f5f9054906101000a90046001600160a01b03166001600160a01b03166309bd5a606040518163ffffffff1660e01b81526004015f60405180830381865afa158015610153573d5f5f3e3d5ffd5b505050506040513d5f823e601f3d908101601f1916820160405261017a91908101906103e2565b80516020909101205f805460408051635c37ac7f60e11b815290516001600160a01b039092169263b86f58fe926004808401938290030181865afa1580156101c4573d5f5f3e3d5ffd5b505050506040513d5f823e601f3d908101601f191682016040526101eb91908101906103e2565b8051906020012014905090565b73779877a7b0d9e8603169ddbd7836e478b462478973cbd38ada2d31c7071e041fc8f8c1da9df9c76dd460405161022e90610394565b6001600160a01b03928316815291166020820152604001604051809103905ff08015801561025e573d5f5f3e3d5ffd5b50600180546001600160a01b039283166001600160a01b03199182161782556002805480840182555f8290527f405787fa12a823e0f2b7631cc41b3ba8828b3321ca811111fa75cd3aa3bb5ace0180549092167348104c06a5195f196a4fff0d485bed476c165a5517909155905460405163ee56997b60e01b815292169163ee56997b916102ee91600401610495565b5f604051808303815f87803b158015610305575f5ffd5b505af1158015610317573d5f5f3e3d5ffd5b50505050565b604051610329906103a1565b604051809103905ff080158015610342573d5f5f3e3d5ffd5b505f80546001600160a01b0319166001600160a01b0392909216919091179055565b5f54604051636b2f002f60e11b81526001600160a01b03909116600482018190529063d65e005e906024016102ee565b612c1f806104e483390190565b61199a8061310383390190565b5f5f604083850312156103bf575f5ffd5b50508035926020909101359150565b634e487b7160e01b5f52604160045260245ffd5b5f602082840312156103f2575f5ffd5b815167ffffffffffffffff811115610408575f5ffd5b8201601f81018413610418575f5ffd5b805167ffffffffffffffff811115610432576104326103ce565b604051601f8201601f19908116603f0116810167ffffffffffffffff81118282101715610461576104616103ce565b604052818152828201602001861015610478575f5ffd5b8160208401602083015e5f91810160200191909152949350505050565b602080825282548282018190525f848152918220906040840190835b818110156104d85783546001600160a01b03168352600193840193602090930192016104b1565b50909594505050505056fe60a06040526001600655348015610014575f5ffd5b50604051612c1f380380612c1f8339810160408190526100339161019a565b80805f6001600160a01b0382166100915760405162461bcd60e51b815260206004820152601860248201527f43616e6e6f7420736574206f776e657220746f207a65726f000000000000000060448201526064015b60405180910390fd5b600280546001600160a01b0319166001600160a01b03848116919091179091558116156100c1576100c1816100d6565b505050506001600160a01b03166080526101cb565b336001600160a01b0382160361012e5760405162461bcd60e51b815260206004820152601760248201527f43616e6e6f74207472616e7366657220746f2073656c660000000000000000006044820152606401610088565b600380546001600160a01b0319166001600160a01b03838116918217909255600254604051919216907fed8889f560326eb138920d842192f0eb3dd22b4f139c87a2c57538e05bae1278905f90a350565b80516001600160a01b0381168114610195575f5ffd5b919050565b5f5f604083850312156101ab575f5ffd5b6101b48361017f565b91506101c26020840161017f565b90509250929050565b6080516129fd6102225f395f81816101b30152818161064001528181610822015281816109c60152818161125b015281816113ca0152818161145a0152818161181b01528181611a1e0152611d4101526129fd5ff3fe608060405260043610610161575f3560e01c80636ae0bc76116100cd578063a4c0ed3611610087578063f2fde38b11610062578063f2fde38b14610437578063f3fef3a314610456578063fa00763a14610475578063fc4a03ed146104ac575f5ffd5b8063a4c0ed36146103da578063eb007d99146103f9578063ee56997b14610418575f5ffd5b80636ae0bc76146103395780636bd59ec0146103585780636ee4d5531461036b57806379ba50971461038a5780638da5cb5b1461039e578063902fc370146103bb575f5ffd5b80633ec5bc141161011e5780633ec5bc141461027657806340429946146102955780634ab0d190146102b457806350188301146102e357806352043783146103055780635ffa62881461031a575f5ffd5b806301994b9914610165578063033f49f714610186578063165d35e1146101a5578063181f5a77146101f05780632408afaa146102365780633c6d41b914610257575b5f5ffd5b348015610170575f5ffd5b5061018461017f3660046120b0565b6104cb565b005b348015610191575f5ffd5b506101846101a036600461213f565b610635565b3480156101b0575f5ffd5b507f00000000000000000000000000000000000000000000000000000000000000005b6040516001600160a01b0390911681526020015b60405180910390f35b3480156101fb575f5ffd5b506102296040518060400160405280600e81526020016d04f70657261746f7220312e302e360941b81525081565b6040516101e7919061218f565b348015610241575f5ffd5b5061024a6107b7565b6040516101e791906121c4565b348015610262575f5ffd5b5061018461027136600461222b565b610817565b348015610281575f5ffd5b506101846102903660046122b1565b6108c7565b3480156102a0575f5ffd5b506101846102af366004612303565b6109bb565b3480156102bf575f5ffd5b506102d36102ce36600461239e565b610a6c565b60405190151581526020016101e7565b3480156102ee575f5ffd5b506102f7610c88565b6040519081526020016101e7565b348015610310575f5ffd5b506102f761012c81565b348015610325575f5ffd5b506101846103343660046123f4565b610c96565b348015610344575f5ffd5b506102d361035336600461245e565b610cd0565b6101846103663660046123f4565b610f6b565b348015610376575f5ffd5b506101846103853660046124db565b611132565b348015610395575f5ffd5b506101846112d5565b3480156103a9575f5ffd5b506002546001600160a01b03166101d3565b3480156103c6575f5ffd5b506102d36103d5366004612515565b611382565b3480156103e5575f5ffd5b506101846103f4366004612574565b61144f565b348015610404575f5ffd5b506101846104133660046124db565b61155b565b348015610423575f5ffd5b506101846104323660046120b0565b61159d565b348015610442575f5ffd5b5061018461045136600461263f565b6117b1565b348015610461575f5ffd5b50610184610470366004612661565b6117c5565b348015610480575f5ffd5b506102d361048f36600461263f565b6001600160a01b03165f9081526020819052604090205460ff1690565b3480156104b7575f5ffd5b506101846104c63660046123f4565b611891565b6104d361198a565b6104f85760405162461bcd60e51b81526004016104ef9061268b565b60405180910390fd5b5f5b8181101561063057600160055f858585818110610519576105196126c2565b905060200201602081019061052e919061263f565b6001600160a01b0316815260208101919091526040015f20805460ff1916911515919091179055828282818110610567576105676126c2565b905060200201602081019061057c919061263f565b6001600160a01b03167f615a0c1cb00a60d4acd77ec67acf2f17f223ef0932d591052fabc33643fe7e8260405160405180910390a28282828181106105c3576105c36126c2565b90506020020160208101906105d8919061263f565b6001600160a01b03166379ba50976040518163ffffffff1660e01b81526004015f604051808303815f87803b15801561060f575f5ffd5b505af1158015610621573d5f5f3e3d5ffd5b505050508060010190506104fa565b505050565b61063d6119c4565b827f00000000000000000000000000000000000000000000000000000000000000006001600160a01b0316816001600160a01b0316036106b55760405162461bcd60e51b815260206004820152601360248201527243616e6e6f742063616c6c20746f204c494e4b60681b60448201526064016104ef565b836001600160a01b03163b5f0361070e5760405162461bcd60e51b815260206004820152601a60248201527f4d75737420666f727761726420746f206120636f6e747261637400000000000060448201526064016104ef565b5f846001600160a01b031684846040516107299291906126d6565b5f604051808303815f865af19150503d805f8114610762576040519150601f19603f3d011682016040523d82523d5f602084013e610767565b606091505b50509050806107b05760405162461bcd60e51b8152602060048201526015602482015274119bdc9dd85c9919590818d85b1b0819985a5b1959605a1b60448201526064016104ef565b5050505050565b6060600180548060200260200160405190810160405280929190818152602001828054801561080d57602002820191905f5260205f20905b81546001600160a01b031681526001909101906020018083116107ef575b5050505050905090565b336001600160a01b037f0000000000000000000000000000000000000000000000000000000000000000161461085f5760405162461bcd60e51b81526004016104ef906126e5565b5f5f61086f8a8a8c8a8a8a611a19565b91509150877fd8d7ecc4800d25fa53ce0372f13a416d98907a7ef3d8d3bdd79cf4fe75529c658b848c8e8c878c8c8c6040516108b39998979695949392919061273a565b60405180910390a250505050505050505050565b6108cf6119c4565b5f5b828110156109b5575f60055f8686858181106108ef576108ef6126c2565b9050602002016020810190610904919061263f565b6001600160a01b0316815260208101919091526040015f20805460ff191691151591909117905583838281811061093d5761093d6126c2565b9050602002016020810190610952919061263f565b60405163f2fde38b60e01b81526001600160a01b038481166004830152919091169063f2fde38b906024015f604051808303815f87803b158015610994575f5ffd5b505af11580156109a6573d5f5f3e3d5ffd5b505050508060010190506108d1565b50505050565b336001600160a01b037f00000000000000000000000000000000000000000000000000000000000000001614610a035760405162461bcd60e51b81526004016104ef906126e5565b5f5f610a138b8b8a8a8a8a611a19565b91509150887fd8d7ecc4800d25fa53ce0372f13a416d98907a7ef3d8d3bdd79cf4fe75529c658c848d8f8c878c8c8c604051610a579998979695949392919061273a565b60405180910390a25050505050505050505050565b5f610a75611bb3565b5f87815260046020526040812054889160089190911b60ff19169003610add5760405162461bcd60e51b815260206004820152601b60248201527f4d757374206861766520612076616c696420726571756573744964000000000060448201526064016104ef565b6001600160a01b0386165f90815260056020526040902054869060ff1615610b475760405162461bcd60e51b815260206004820152601a60248201527f43616e6e6f742063616c6c206f776e656420636f6e747261637400000000000060448201526064016104ef565b610b5689898989896001611c09565b60405189907f9e9bc7616d42c2835d05ae617e508454e63b30b934be8aa932ebc125e0e58a64905f90a262061a805a1015610bd35760405162461bcd60e51b815260206004820181905260248201527f4d7573742070726f7669646520636f6e73756d657220656e6f7567682067617360448201526064016104ef565b5f876001600160a01b0316878b87604051602401610bfb929190918252602082015260400190565b60408051601f198184030181529181526020820180516001600160e01b03166001600160e01b0319909416939093179092529051610c3991906127a2565b5f604051808303815f865af19150503d805f8114610c72576040519150601f19603f3d011682016040523d82523d5f602084013e610c77565b606091505b50909b9a5050505050505050505050565b5f610c91611d1c565b905090565b610c9e61198a565b610cba5760405162461bcd60e51b81526004016104ef9061268b565b610cc484846104cb565b6109b584848484611891565b5f610cd9611bb3565b5f88815260046020526040812054899160089190911b60ff19169003610d415760405162461bcd60e51b815260206004820152601b60248201527f4d757374206861766520612076616c696420726571756573744964000000000060448201526064016104ef565b6001600160a01b0387165f90815260056020526040902054879060ff1615610dab5760405162461bcd60e51b815260206004820152601a60248201527f43616e6e6f742063616c6c206f776e656420636f6e747261637400000000000060448201526064016104ef565b8985856020811015610dff5760405162461bcd60e51b815260206004820152601b60248201527f526573706f6e7365206d757374206265203e203332206279746573000000000060448201526064016104ef565b8135838114610e505760405162461bcd60e51b815260206004820152601c60248201527f466972737420776f7264206d757374206265207265717565737449640000000060448201526064016104ef565b610e5f8e8e8e8e8e6002611c09565b6040518e907f9e9bc7616d42c2835d05ae617e508454e63b30b934be8aa932ebc125e0e58a64905f90a262061a805a1015610edc5760405162461bcd60e51b815260206004820181905260248201527f4d7573742070726f7669646520636f6e73756d657220656e6f7567682067617360448201526064016104ef565b5f8c6001600160a01b03168c8b8b604051602001610efc939291906127b8565b60408051601f1981840301815290829052610f16916127a2565b5f604051808303815f865af19150503d805f8114610f4f576040519150601f19603f3d011682016040523d82523d5f602084013e610f54565b606091505b509098505050505050505050979650505050505050565b8215801590610f7957508281145b610fc55760405162461bcd60e51b815260206004820152601760248201527f496e76616c6964206172726179206c656e67746828732900000000000000000060448201526064016104ef565b345f5b848110156110ef575f848483818110610fe357610fe36126c2565b9050602002013590508083610ff891906127ef565b92505f87878481811061100d5761100d6126c2565b9050602002016020810190611022919061263f565b6001600160a01b0316826040515f6040518083038185875af1925050503d805f8114611069576040519150601f19603f3d011682016040523d82523d5f602084013e61106e565b606091505b50509050806110e55760405162461bcd60e51b815260206004820152603a60248201527f416464726573733a20756e61626c6520746f2073656e642076616c75652c207260448201527f6563697069656e74206d6179206861766520726576657274656400000000000060648201526084016104ef565b5050600101610fc8565b5080156107b05760405162461bcd60e51b8152602060048201526011602482015270151bdbc81b5d58da08115512081cd95b9d607a1b60448201526064016104ef565b5f61113f84338585611dbc565b5f8681526004602052604090205490915060081b60ff19908116908216146111a95760405162461bcd60e51b815260206004820152601e60248201527f506172616d7320646f206e6f74206d617463682072657175657374204944000060448201526064016104ef565b428211156111f25760405162461bcd60e51b815260206004820152601660248201527514995c5d595cdd081a5cc81b9bdd08195e1c1a5c995960521b60448201526064016104ef565b5f858152600460205260408082208290555186917fa7842b9ec549398102c0d91b1b9919b2f20558aefdadf57528a95c6cd3292e9391a28360065f82825461123a91906127ef565b909155505060405163a9059cbb60e01b8152336004820152602481018590527f00000000000000000000000000000000000000000000000000000000000000006001600160a01b03169063a9059cbb906044016020604051808303815f875af11580156112a9573d5f5f3e3d5ffd5b505050506040513d601f19601f820116820180604052508101906112cd9190612808565b505050505050565b6003546001600160a01b031633146113285760405162461bcd60e51b815260206004820152601660248201527526bab9ba10313290383937b837b9b2b21037bbb732b960511b60448201526064016104ef565b600280546001600160a01b0319808216339081179093556003805490911690556040516001600160a01b03909116919082907f8be0079c531659141344cd1fd0a4f28419497f9722a3daafe3b4186f6b6457e0905f90a350565b5f61138b6119c4565b8380611395611d1c565b10156113b35760405162461bcd60e51b81526004016104ef90612827565b604051630200057560e51b81526001600160a01b037f00000000000000000000000000000000000000000000000000000000000000001690634000aea09061140590899089908990899060040161287c565b6020604051808303815f875af1158015611421573d5f5f3e3d5ffd5b505050506040513d601f19601f820116820180604052508101906114459190612808565b9695505050505050565b336001600160a01b037f000000000000000000000000000000000000000000000000000000000000000016146114975760405162461bcd60e51b81526004016104ef906126e5565b602081015181906114a88183611e11565b8460248401528360448401525f306001600160a01b0316846040516114cd91906127a2565b5f60405180830381855af49150503d805f8114611505576040519150601f19603f3d011682016040523d82523d5f602084013e61150a565b606091505b50509050806112cd5760405162461bcd60e51b815260206004820152601860248201527f556e61626c6520746f206372656174652072657175657374000000000000000060448201526064016104ef565b6040516001600160601b03193360601b166020820152603481018590526109b59060540160405160208183030381529060405280519060200120848484611132565b6115a561198a565b6115c15760405162461bcd60e51b81526004016104ef9061268b565b8061160e5760405162461bcd60e51b815260206004820152601b60248201527f4d7573742068617665206174206c6561737420312073656e646572000000000060448201526064016104ef565b6001545f5b8181101561166c575f5f5f60018481548110611631576116316126c2565b5f918252602080832091909101546001600160a01b031683528201929092526040019020805460ff1916911515919091179055600101611613565b505f5b82811015611763575f5f85858481811061168b5761168b6126c2565b90506020020160208101906116a0919061263f565b6001600160a01b0316815260208101919091526040015f205460ff16156117095760405162461bcd60e51b815260206004820152601f60248201527f4d757374206e6f742068617665206475706c69636174652073656e646572730060448201526064016104ef565b60015f5f86868581811061171f5761171f6126c2565b9050602002016020810190611734919061263f565b6001600160a01b0316815260208101919091526040015f20805460ff191691151591909117905560010161166f565b5061177060018484611ffd565b507ff263cfb3e4298332e776194610cf9fdc09ccb3ada8b9aa39764d882e11fbf0a08383336040516117a4939291906128eb565b60405180910390a1505050565b6117b96119c4565b6117c281611ef0565b50565b6117cd6119c4565b80806117d7611d1c565b10156117f55760405162461bcd60e51b81526004016104ef90612827565b60405163a9059cbb60e01b81526001600160a01b038481166004830152602482018490527f0000000000000000000000000000000000000000000000000000000000000000169063a9059cbb906044016020604051808303815f875af1158015611861573d5f5f3e3d5ffd5b505050506040513d601f19601f820116820180604052508101906118859190612808565b61063057610630612916565b61189961198a565b6118b55760405162461bcd60e51b81526004016104ef9061268b565b7f1bb185903e2cb2f1b303523128b60e314dea81df4f8d9b7351cadd344f6e772784848484336040516118ec95949392919061292a565b60405180910390a15f5b838110156107b057848482818110611910576119106126c2565b9050602002016020810190611925919061263f565b6001600160a01b031663ee56997b84846040518363ffffffff1660e01b815260040161195292919061296b565b5f604051808303815f87803b158015611969575f5ffd5b505af115801561197b573d5f5f3e3d5ffd5b505050508060010190506118f6565b335f9081526020819052604081205460ff1680610c915750336119b56002546001600160a01b031690565b6001600160a01b031614905090565b6002546001600160a01b03163314611a175760405162461bcd60e51b815260206004820152601660248201527527b7363c9031b0b63630b1363290313c9037bbb732b960511b60448201526064016104ef565b565b5f5f857f00000000000000000000000000000000000000000000000000000000000000006001600160a01b0316816001600160a01b031603611a935760405162461bcd60e51b815260206004820152601360248201527243616e6e6f742063616c6c20746f204c494e4b60681b60448201526064016104ef565b6040516001600160601b031960608b901b1660208201526034810186905260540160408051808303601f1901815291815281516020928301205f818152600490935291205490935060081b60ff191615611b265760405162461bcd60e51b8152602060048201526014602482015273135d5cdd081d5cd94818481d5b9a5c5d5948125160621b60448201526064016104ef565b611b3261012c42612986565b91505f611b4189898986611dbc565b905060405180604001604052808260ff19168152602001611b6187611f99565b60ff9081169091525f86815260046020908152604090912083519390910151909116600160f81b0260089290921c919091179055600654611ba3908a90612986565b6006555050965096945050505050565b335f9081526020819052604090205460ff16611a175760405162461bcd60e51b81526020600482015260156024820152742737ba1030baba3437b934bd32b21039b2b73232b960591b60448201526064016104ef565b5f611c1686868686611dbc565b5f8881526004602052604090205490915060081b60ff1990811690821614611c805760405162461bcd60e51b815260206004820152601e60248201527f506172616d7320646f206e6f74206d617463682072657175657374204944000060448201526064016104ef565b611c8982611f99565b5f8881526004602052604090205460ff918216600160f81b9091049091161115611cf55760405162461bcd60e51b815260206004820152601860248201527f446174612076657273696f6e73206d757374206d61746368000000000000000060448201526064016104ef565b85600654611d0391906127ef565b6006555050505f93845250506004602052506040812055565b5f6001600654611d2c91906127ef565b6040516370a0823160e01b81523060048201527f00000000000000000000000000000000000000000000000000000000000000006001600160a01b0316906370a0823190602401602060405180830381865afa158015611d8e573d5f5f3e3d5ffd5b505050506040513d601f19601f82011682018060405250810190611db29190612999565b610c9191906127ef565b6040805160208082019690965260609490941b6001600160601b031916848201526001600160e01b03199290921660548401526058808401919091528151808403909101815260789092019052805191012090565b611e1d600260206129b0565b611e28906004612986565b81511015611e715760405162461bcd60e51b8152602060048201526016602482015275092dcecc2d8d2c840e4cae2eacae6e840d8cadccee8d60531b60448201526064016104ef565b6001600160e01b03198216633c6d41b960e01b1480611ea057506001600160e01b031982166320214ca360e11b145b611eec5760405162461bcd60e51b815260206004820152601e60248201527f4d757374207573652077686974656c69737465642066756e6374696f6e73000060448201526064016104ef565b5050565b336001600160a01b03821603611f485760405162461bcd60e51b815260206004820152601760248201527f43616e6e6f74207472616e7366657220746f2073656c6600000000000000000060448201526064016104ef565b600380546001600160a01b0319166001600160a01b03838116918217909255600254604051919216907fed8889f560326eb138920d842192f0eb3dd22b4f139c87a2c57538e05bae1278905f90a350565b5f60ff821115611ff95760405162461bcd60e51b815260206004820152602560248201527f53616665436173743a2076616c756520646f65736e27742066697420696e2038604482015264206269747360d81b60648201526084016104ef565b5090565b828054828255905f5260205f2090810192821561204e579160200282015b8281111561204e5781546001600160a01b0319166001600160a01b0384351617825560209092019160019091019061201b565b50611ff99291505b80821115611ff9575f8155600101612056565b5f5f83601f840112612079575f5ffd5b5081356001600160401b0381111561208f575f5ffd5b6020830191508360208260051b85010111156120a9575f5ffd5b9250929050565b5f5f602083850312156120c1575f5ffd5b82356001600160401b038111156120d6575f5ffd5b6120e285828601612069565b90969095509350505050565b6001600160a01b03811681146117c2575f5ffd5b5f5f83601f840112612112575f5ffd5b5081356001600160401b03811115612128575f5ffd5b6020830191508360208285010111156120a9575f5ffd5b5f5f5f60408486031215612151575f5ffd5b833561215c816120ee565b925060208401356001600160401b03811115612176575f5ffd5b61218286828701612102565b9497909650939450505050565b602081525f82518060208401528060208501604085015e5f604082850101526040601f19601f83011684010191505092915050565b602080825282518282018190525f918401906040840190835b818110156122045783516001600160a01b03168352602093840193909201916001016121dd565b509095945050505050565b80356001600160e01b031981168114612226575f5ffd5b919050565b5f5f5f5f5f5f5f5f60e0898b031215612242575f5ffd5b883561224d816120ee565b9750602089013596506040890135955061226960608a0161220f565b94506080890135935060a0890135925060c08901356001600160401b03811115612291575f5ffd5b61229d8b828c01612102565b999c989b5096995094979396929594505050565b5f5f5f604084860312156122c3575f5ffd5b83356001600160401b038111156122d8575f5ffd5b6122e486828701612069565b90945092505060208401356122f8816120ee565b809150509250925092565b5f5f5f5f5f5f5f5f5f6101008a8c03121561231c575f5ffd5b8935612327816120ee565b985060208a0135975060408a0135965060608a0135612345816120ee565b955061235360808b0161220f565b945060a08a0135935060c08a0135925060e08a01356001600160401b0381111561237b575f5ffd5b6123878c828d01612102565b915080935050809150509295985092959850929598565b5f5f5f5f5f5f60c087890312156123b3575f5ffd5b863595506020870135945060408701356123cc816120ee565b93506123da6060880161220f565b9598949750929560808101359460a0909101359350915050565b5f5f5f5f60408587031215612407575f5ffd5b84356001600160401b0381111561241c575f5ffd5b61242887828801612069565b90955093505060208501356001600160401b03811115612446575f5ffd5b61245287828801612069565b95989497509550505050565b5f5f5f5f5f5f5f60c0888a031215612474575f5ffd5b8735965060208801359550604088013561248d816120ee565b945061249b6060890161220f565b93506080880135925060a08801356001600160401b038111156124bc575f5ffd5b6124c88a828b01612102565b989b979a50959850939692959293505050565b5f5f5f5f608085870312156124ee575f5ffd5b84359350602085013592506125056040860161220f565b9396929550929360600135925050565b5f5f5f5f60608587031215612528575f5ffd5b8435612533816120ee565b93506020850135925060408501356001600160401b03811115612554575f5ffd5b61245287828801612102565b634e487b7160e01b5f52604160045260245ffd5b5f5f5f60608486031215612586575f5ffd5b8335612591816120ee565b92506020840135915060408401356001600160401b038111156125b2575f5ffd5b8401601f810186136125c2575f5ffd5b80356001600160401b038111156125db576125db612560565b604051601f8201601f19908116603f011681016001600160401b038111828210171561260957612609612560565b604052818152828201602001881015612620575f5ffd5b816020840160208301375f602083830101528093505050509250925092565b5f6020828403121561264f575f5ffd5b813561265a816120ee565b9392505050565b5f5f60408385031215612672575f5ffd5b823561267d816120ee565b946020939093013593505050565b6020808252601d908201527f43616e6e6f742073657420617574686f72697a65642073656e64657273000000604082015260600190565b634e487b7160e01b5f52603260045260245ffd5b818382375f9101908152919050565b60208082526013908201527226bab9ba103ab9b2902624a725903a37b5b2b760691b604082015260600190565b81835281816020850137505f828201602090810191909152601f909101601f19169091010190565b6001600160a01b038a81168252602082018a905260408201899052871660608201526001600160e01b03198616608082015260a0810185905260c0810184905261010060e082018190525f906127939083018486612712565b9b9a5050505050505050505050565b5f82518060208501845e5f920191825250919050565b6001600160e01b031984168152818360048301375f910160040190815292915050565b634e487b7160e01b5f52601160045260245ffd5b81810381811115612802576128026127db565b92915050565b5f60208284031215612818575f5ffd5b8151801515811461265a575f5ffd5b60208082526035908201527f416d6f756e74207265717565737465642069732067726561746572207468616e60408201527420776974686472617761626c652062616c616e636560581b606082015260800190565b60018060a01b0385168152836020820152606060408201525f611445606083018486612712565b8183526020830192505f815f5b848110156128e15781356128c3816120ee565b6001600160a01b0316865260209586019591909101906001016128b0565b5093949350505050565b604081525f6128fe6040830185876128a3565b905060018060a01b0383166020830152949350505050565b634e487b7160e01b5f52600160045260245ffd5b606081525f61293d6060830187896128a3565b82810360208401526129508186886128a3565b91505060018060a01b03831660408301529695505050505050565b602081525f61297e6020830184866128a3565b949350505050565b80820180821115612802576128026127db565b5f602082840312156129a9575f5ffd5b5051919050565b8082028115828204841417612802576128026127db56fea2646970667358221220aebb4f0b8308450884571f795c7313c591a10c245ddbfaeda9fc6de97f6adbe964736f6c634300081d003360806040526001600455348015610014575f5ffd5b5033805f8161006a5760405162461bcd60e51b815260206004820152601860248201527f43616e6e6f7420736574206f776e657220746f207a65726f000000000000000060448201526064015b60405180910390fd5b600680546001600160a01b0319166001600160a01b038481169190911790915581161561009a5761009a816100c5565b5050506100c073779877a7b0d9e8603169ddbd7836e478b462478961016e60201b60201c565b610190565b336001600160a01b0382160361011d5760405162461bcd60e51b815260206004820152601760248201527f43616e6e6f74207472616e7366657220746f2073656c660000000000000000006044820152606401610061565b600780546001600160a01b0319166001600160a01b03838116918217909255600654604051919216907fed8889f560326eb138920d842192f0eb3dd22b4f139c87a2c57538e05bae1278905f90a350565b600280546001600160a01b0319166001600160a01b0392909216919091179055565b6117fd8061019d5f395ff3fe608060405234801561000f575f5ffd5b5060043610610085575f3560e01c8063b86f58fe11610058578063b86f58fe146100df578063d65e005e146100e7578063f0ba8440146100fa578063f2fde38b1461010d575f5ffd5b806309bd5a60146100895780633e9db5e5146100a757806379ba5097146100bc5780638da5cb5b146100c4575b5f5ffd5b610091610120565b60405161009e9190611205565b60405180910390f35b6100ba6100b53660046112b4565b6101ac565b005b6100ba6102c2565b6006546040516001600160a01b03909116815260200161009e565b61009161036f565b6100ba6100f53660046113a2565b61037c565b6100916101083660046113c8565b610a05565b6100ba61011b3660046113a2565b610a2c565b6009805461012d906113df565b80601f0160208091040260200160405190810160405280929190818152602001828054610159906113df565b80156101a45780601f1061017b576101008083540402835291602001916101a4565b820191905f5260205f20905b81548152906001019060200180831161018757829003601f168201915b505050505081565b5f8a8152600560205260409020548a906001600160a01b031633146102295760405162461bcd60e51b815260206004820152602860248201527f536f75726365206d75737420626520746865206f7261636c65206f6620746865604482015267081c995c5d595cdd60c21b60648201526084015b60405180910390fd5b5f8181526005602052604080822080546001600160a01b03191690555182917f7cc135e0cebb02c3480ae5d74d377283180a2601f8f644edf7987b009316c63a91a26009610277898261145c565b50898988888888888860405160200161029798979695949392919061152d565b604051602081830303815290604052600a90816102b4919061145c565b505050505050505050505050565b6007546001600160a01b031633146103155760405162461bcd60e51b815260206004820152601660248201527526bab9ba10313290383937b837b9b2b21037bbb732b960511b6044820152606401610220565b600680546001600160a01b0319808216339081179093556007805490911690556040516001600160a01b03909116919082907f8be0079c531659141344cd1fd0a4f28419497f9722a3daafe3b4186f6b6457e0905f90a350565b600a805461012d906113df565b610384610a40565b5f6103b77f323065373966643063386362346232643966626364393036393531646161633730633e9db5e560e01b610a95565b90506104046040518060400160405280600e81526020016d75726c50726f6a6563744e616d6560901b8152506040518060600160405280602f8152602001611799602f9139839190610aba565b6104636040518060400160405280600f81526020016e7061746850726f6a6563744e616d6560881b8152506040518060400160405280600b81526020016a70726f6a6563744e616d6560a81b81525083610aba9092919063ffffffff16565b6104ab6040518060400160405280600b81526020016a3ab9362637b1b0ba34b7b760a91b8152506040518060600160405280602f8152602001611799602f9139839190610aba565b6105046040518060400160405280600c81526020016b3830ba342637b1b0ba34b7b760a11b815250604051806040016040528060088152602001673637b1b0ba34b7b760c11b81525083610aba9092919063ffffffff16565b610548604051806040016040528060078152602001660eae4d890c2e6d60cb1b8152506040518060600160405280602f8152602001611799602f9139839190610aba565b610599604051806040016040528060088152602001670e0c2e8d090c2e6d60c31b815250604051806040016040528060048152602001630d0c2e6d60e31b81525083610aba9092919063ffffffff16565b6105eb6040518060400160405280601581526020017475726c4578706563746564526564756374696f6e7360581b8152506040518060600160405280602f8152602001611799602f9139839190610aba565b61065860405180604001604052806016815260200175706174684578706563746564526564756374696f6e7360501b815250604051806040016040528060128152602001716578706563746564526564756374696f6e7360701b81525083610aba9092919063ffffffff16565b6106a36040518060400160405280600e81526020016d75726c4d6574686f646f6c6f677960901b8152506040518060600160405280602f8152602001611799602f9139839190610aba565b6107026040518060400160405280600f81526020016e706174684d6574686f646f6c6f677960881b8152506040518060400160405280600b81526020016a6d6574686f646f6c6f677960a81b81525083610aba9092919063ffffffff16565b6107526040518060400160405280601381526020017275726c50726f6a65637453746172744461746560681b8152506040518060600160405280602f8152602001611799602f9139839190610aba565b6107bb604051806040016040528060148152602001737061746850726f6a65637453746172744461746560601b8152506040518060400160405280601081526020016f70726f6a65637453746172744461746560801b81525083610aba9092919063ffffffff16565b6108096040518060400160405280601181526020017075726c56616c69646174696f6e4461746560781b8152506040518060600160405280602f8152602001611799602f9139839190610aba565b61086e604051806040016040528060128152602001717061746856616c69646174696f6e4461746560701b8152506040518060400160405280600e81526020016d76616c69646174696f6e4461746560901b81525083610aba9092919063ffffffff16565b6108be6040518060400160405280601381526020017275726c566572696669636174696f6e4461746560681b8152506040518060600160405280602f8152602001611799602f9139839190610aba565b6109276040518060400160405280601481526020017370617468566572696669636174696f6e4461746560601b8152506040518060400160405280601081526020016f766572696669636174696f6e4461746560801b81525083610aba9092919063ffffffff16565b6109746040518060400160405280601081526020016f75726c4973737565644372656469747360801b8152506040518060600160405280602f8152602001611799602f9139839190610aba565b6109d760405180604001604052806011815260200170706174684973737565644372656469747360781b8152506040518060400160405280600d81526020016c6973737565644372656469747360981b81525083610aba9092919063ffffffff16565b610a008282600a6109f1670de0b6b3a76400006001611588565b6109fb91906115b3565b610ad8565b505050565b60088181548110610a14575f80fd5b905f5260205f20015f91509050805461012d906113df565b610a34610a40565b610a3d81610b69565b50565b6006546001600160a01b03163314610a935760405162461bcd60e51b815260206004820152601660248201527527b7363c9031b0b63630b1363290313c9037bbb732b960511b6044820152606401610220565b565b610a9d61119d565b610aa561119d565b610ab181868686610c12565b95945050505050565b6080830151610ac99083610c58565b6080830151610a009082610c58565b6004545f90610ae88160016115c6565b600455835160408086015160808701515191515f936320214ca360e11b93610b1f9386938493923092918a916001916024016115d9565b60408051601f198184030181529190526020810180516001600160e01b03166001600160e01b0319909316929092179091529050610b5f86838684610c6f565b9695505050505050565b336001600160a01b03821603610bc15760405162461bcd60e51b815260206004820152601760248201527f43616e6e6f74207472616e7366657220746f2073656c660000000000000000006044820152606401610220565b600780546001600160a01b0319166001600160a01b03838116918217909255600654604051919216907fed8889f560326eb138920d842192f0eb3dd22b4f139c87a2c57538e05bae1278905f90a350565b610c1a61119d565b610c2a8560800151610100610dc8565b50508284526001600160a01b03821660208501526001600160e01b031981166040850152835b949350505050565b610c658260038351610e31565b610a008282610f3e565b6040516bffffffffffffffffffffffff193060601b166020820152603481018490525f9060540160408051808303601f1901815282825280516020918201205f818152600590925291812080546001600160a01b0319166001600160a01b038a1617905590925082917fb5e6e01e79f91267dc17b4e6314d5d4d03593d2ceee0fbb452b750bd70ea5af99190a2600254604051630200057560e51b81526001600160a01b0390911690634000aea090610d309088908790879060040161163f565b6020604051808303815f875af1158015610d4c573d5f5f3e3d5ffd5b505050506040513d601f19601f82011682018060405250810190610d709190611665565b610c505760405162461bcd60e51b815260206004820152602360248201527f756e61626c6520746f207472616e73666572416e6443616c6c20746f206f7261604482015262636c6560e81b6064820152608401610220565b60408051808201909152606081525f6020820152610de7602083611684565b15610e0f57610df7602083611684565b610e02906020611697565b610e0c90836115c6565b91505b506020808301829052604080518085525f815283019091019052815b92915050565b6017816001600160401b031611610e5b57610e558360e0600585901b168317610f6a565b50505050565b60ff816001600160401b031611610e9757610e81836018611fe0600586901b1617610f6a565b50610e55836001600160401b0383166001610f8d565b61ffff816001600160401b031611610ed457610ebe836019611fe0600586901b1617610f6a565b50610e55836001600160401b0383166002610f8d565b63ffffffff816001600160401b031611610f1357610efd83601a611fe0600586901b1617610f6a565b50610e55836001600160401b0383166004610f8d565b610f2883601b611fe0600586901b1617610f6a565b50610e55836001600160401b0383166008610f8d565b60408051808201909152606081525f6020820152610f6383845f015151848551610fb1565b9392505050565b60408051808201909152606081525f6020820152610f6383845f01515184611097565b60408051808201909152606081525f6020820152610c5084855f01515185856110f1565b60408051808201909152606081525f60208201528251821115610fd2575f5ffd5b6020850151610fe183866115c6565b1115611014576110148561100487602001518786610fff91906115c6565b611170565b61100f906002611588565b611186565b5f5f8651805187602083010193508088870111156110325787860182525b505050602084015b6020841061107257805182526110516020836115c6565b915061105e6020826115c6565b905061106b602085611697565b935061103a565b5181515f1960208690036101000a019081169019919091161790525083949350505050565b60408051808201909152606081525f6020820152836020015183106110cb576110cb848560200151600261100f9190611588565b83518051602085830101848153508085036110e7576001810182525b5093949350505050565b60408051808201909152606081525f6020820152602085015161111485846115c6565b1115611128576111288561100486856115c6565b5f60016111378461010061178d565b6111419190611697565b90508551838682010185831982511617815250805184870111156111655783860181525b509495945050505050565b5f81831115611180575081610e2b565b50919050565b81516111928383610dc8565b50610e558382610f3e565b6040805160a0810182525f808252602080830182905282840182905260608084018390528451808601909552845283015290608082015290565b5f81518084528060208401602086015e5f602082860101526020601f19601f83011685010191505092915050565b602081525f610f6360208301846111d7565b634e487b7160e01b5f52604160045260245ffd5b5f82601f83011261123a575f5ffd5b81356001600160401b0381111561125357611253611217565b604051601f8201601f19908116603f011681016001600160401b038111828210171561128157611281611217565b604052818152838201602001851015611298575f5ffd5b816020850160208301375f918101602001919091529392505050565b5f5f5f5f5f5f5f5f5f5f6101408b8d0312156112ce575f5ffd5b8a35995060208b01356001600160401b038111156112ea575f5ffd5b6112f68d828e0161122b565b99505060408b01356001600160401b03811115611311575f5ffd5b61131d8d828e0161122b565b98505060608b01356001600160401b03811115611338575f5ffd5b6113448d828e0161122b565b97505060808b0135955060a08b01356001600160401b03811115611366575f5ffd5b6113728d828e0161122b565b9a9d999c50979a9699959895975050505060c08401359360e0810135936101008201359350610120909101359150565b5f602082840312156113b2575f5ffd5b81356001600160a01b0381168114610f63575f5ffd5b5f602082840312156113d8575f5ffd5b5035919050565b600181811c908216806113f357607f821691505b60208210810361118057634e487b7160e01b5f52602260045260245ffd5b601f821115610a0057805f5260205f20601f840160051c810160208510156114365750805b601f840160051c820191505b81811015611455575f8155600101611442565b5050505050565b81516001600160401b0381111561147557611475611217565b6114898161148384546113df565b84611411565b6020601f8211600181146114bb575f83156114a45750848201515b5f19600385901b1c1916600184901b178455611455565b5f84815260208120601f198516915b828110156114ea57878501518255602094850194600190920191016114ca565b508482101561150757868401515f19600387901b60f8161c191681555b50505050600190811b01905550565b5f81518060208401855e5f93019283525090919050565b5f61154161153b838c611516565b8a611516565b8881526115516020820189611516565b968752505050602084019290925260408301526060820152608001949350505050565b634e487b7160e01b5f52601160045260245ffd5b8082028115828204841417610e2b57610e2b611574565b634e487b7160e01b5f52601260045260245ffd5b5f826115c1576115c161159f565b500490565b80820180821115610e2b57610e2b611574565b6001600160a01b0389811682526020820189905260408201889052861660608201526001600160e01b03198516608082015260a0810184905260c0810183905261010060e082018190525f90611631908301846111d7565b9a9950505050505050505050565b60018060a01b0384168152826020820152606060408201525f610ab160608301846111d7565b5f60208284031215611675575f5ffd5b81518015158114610f63575f5ffd5b5f826116925761169261159f565b500690565b81810381811115610e2b57610e2b611574565b6001815b60018411156116e5578085048111156116c9576116c9611574565b60018416156116d757908102905b60019390931c9280026116ae565b935093915050565b5f826116fb57506001610e2b565b8161170757505f610e2b565b816001811461171d576002811461172757611743565b6001915050610e2b565b60ff84111561173857611738611574565b50506001821b610e2b565b5060208310610133831016604e8410600b8410161715611766575081810a610e2b565b6117725f1984846116aa565b805f190482111561178557611785611574565b029392505050565b5f610f6383836116ed56fe68747470733a2f2f346661342d31342d3230312d3133392d3135392e6e67726f6b2d667265652e6170702f64617461a264697066735822122021fc0f2819d42ad20079e0212e2a3d9563b79271c5fb06c32c178d725f8d41ce64736f6c634300081d0033a26469706673582212201ebc897f2be7fd7cae58bc573e13bc0618b87ca22cae1d47fe8c12d469d6cbb464736f6c634300081d0033",
			"opcodes": "PUSH1 0x80 PUSH1 0x40 MSTORE CALLVALUE DUP1 ISZERO PUSH1 0xE JUMPI PUSH0 PUSH0 REVERT JUMPDEST POP PUSH2 0x4AD2 DUP1 PUSH2 0x1C PUSH0 CODECOPY PUSH0 RETURN INVALID PUSH1 0x80 PUSH1 0x40 MSTORE CALLVALUE DUP1 ISZERO PUSH2 0xF JUMPI PUSH0 PUSH0 REVERT JUMPDEST POP PUSH1 0x4 CALLDATASIZE LT PUSH2 0x7A JUMPI PUSH0 CALLDATALOAD PUSH1 0xE0 SHR DUP1 PUSH4 0x51D3C99B GT PUSH2 0x58 JUMPI DUP1 PUSH4 0x51D3C99B EQ PUSH2 0xCF JUMPI DUP1 PUSH4 0x570CA735 EQ PUSH2 0xD7 JUMPI DUP1 PUSH4 0xD21B3553 EQ PUSH2 0xEA JUMPI DUP1 PUSH4 0xD93E86AC EQ PUSH2 0xF2 JUMPI PUSH0 PUSH0 REVERT JUMPDEST DUP1 PUSH4 0x5995F38 EQ PUSH2 0x7E JUMPI DUP1 PUSH4 0x9BD5A60 EQ PUSH2 0xAD JUMPI DUP1 PUSH4 0x17190F52 EQ PUSH2 0xC5 JUMPI JUMPDEST PUSH0 PUSH0 REVERT JUMPDEST PUSH0 SLOAD PUSH2 0x90 SWAP1 PUSH1 0x1 PUSH1 0x1 PUSH1 0xA0 SHL SUB AND DUP2 JUMP JUMPDEST PUSH1 0x40 MLOAD PUSH1 0x1 PUSH1 0x1 PUSH1 0xA0 SHL SUB SWAP1 SWAP2 AND DUP2 MSTORE PUSH1 0x20 ADD JUMPDEST PUSH1 0x40 MLOAD DUP1 SWAP2 SUB SWAP1 RETURN JUMPDEST PUSH2 0xB5 PUSH2 0x104 JUMP JUMPDEST PUSH1 0x40 MLOAD SWAP1 ISZERO ISZERO DUP2 MSTORE PUSH1 0x20 ADD PUSH2 0xA4 JUMP JUMPDEST PUSH2 0xCD PUSH2 0x1F8 JUMP JUMPDEST STOP JUMPDEST PUSH2 0xCD PUSH2 0x31D JUMP JUMPDEST PUSH1 0x1 SLOAD PUSH2 0x90 SWAP1 PUSH1 0x1 PUSH1 0x1 PUSH1 0xA0 SHL SUB AND DUP2 JUMP JUMPDEST PUSH2 0xCD PUSH2 0x364 JUMP JUMPDEST PUSH2 0xB5 PUSH2 0x100 CALLDATASIZE PUSH1 0x4 PUSH2 0x3AE JUMP JUMPDEST EQ SWAP1 JUMP JUMPDEST PUSH0 PUSH0 PUSH0 SWAP1 SLOAD SWAP1 PUSH2 0x100 EXP SWAP1 DIV PUSH1 0x1 PUSH1 0x1 PUSH1 0xA0 SHL SUB AND PUSH1 0x1 PUSH1 0x1 PUSH1 0xA0 SHL SUB AND PUSH4 0x9BD5A60 PUSH1 0x40 MLOAD DUP2 PUSH4 0xFFFFFFFF AND PUSH1 0xE0 SHL DUP2 MSTORE PUSH1 0x4 ADD PUSH0 PUSH1 0x40 MLOAD DUP1 DUP4 SUB DUP2 DUP7 GAS STATICCALL ISZERO DUP1 ISZERO PUSH2 0x153 JUMPI RETURNDATASIZE PUSH0 PUSH0 RETURNDATACOPY RETURNDATASIZE PUSH0 REVERT JUMPDEST POP POP POP POP PUSH1 0x40 MLOAD RETURNDATASIZE PUSH0 DUP3 RETURNDATACOPY PUSH1 0x1F RETURNDATASIZE SWAP1 DUP2 ADD PUSH1 0x1F NOT AND DUP3 ADD PUSH1 0x40 MSTORE PUSH2 0x17A SWAP2 SWAP1 DUP2 ADD SWAP1 PUSH2 0x3E2 JUMP JUMPDEST DUP1 MLOAD PUSH1 0x20 SWAP1 SWAP2 ADD KECCAK256 PUSH0 DUP1 SLOAD PUSH1 0x40 DUP1 MLOAD PUSH4 0x5C37AC7F PUSH1 0xE1 SHL DUP2 MSTORE SWAP1 MLOAD PUSH1 0x1 PUSH1 0x1 PUSH1 0xA0 SHL SUB SWAP1 SWAP3 AND SWAP3 PUSH4 0xB86F58FE SWAP3 PUSH1 0x4 DUP1 DUP5 ADD SWAP4 DUP3 SWAP1 SUB ADD DUP2 DUP7 GAS STATICCALL ISZERO DUP1 ISZERO PUSH2 0x1C4 JUMPI RETURNDATASIZE PUSH0 PUSH0 RETURNDATACOPY RETURNDATASIZE PUSH0 REVERT JUMPDEST POP POP POP POP PUSH1 0x40 MLOAD RETURNDATASIZE PUSH0 DUP3 RETURNDATACOPY PUSH1 0x1F RETURNDATASIZE SWAP1 DUP2 ADD PUSH1 0x1F NOT AND DUP3 ADD PUSH1 0x40 MSTORE PUSH2 0x1EB SWAP2 SWAP1 DUP2 ADD SWAP1 PUSH2 0x3E2 JUMP JUMPDEST DUP1 MLOAD SWAP1 PUSH1 0x20 ADD KECCAK256 EQ SWAP1 POP SWAP1 JUMP JUMPDEST PUSH20 0x779877A7B0D9E8603169DDBD7836E478B4624789 PUSH20 0xCBD38ADA2D31C7071E041FC8F8C1DA9DF9C76DD4 PUSH1 0x40 MLOAD PUSH2 0x22E SWAP1 PUSH2 0x394 JUMP JUMPDEST PUSH1 0x1 PUSH1 0x1 PUSH1 0xA0 SHL SUB SWAP3 DUP4 AND DUP2 MSTORE SWAP2 AND PUSH1 0x20 DUP3 ADD MSTORE PUSH1 0x40 ADD PUSH1 0x40 MLOAD DUP1 SWAP2 SUB SWAP1 PUSH0 CREATE DUP1 ISZERO DUP1 ISZERO PUSH2 0x25E JUMPI RETURNDATASIZE PUSH0 PUSH0 RETURNDATACOPY RETURNDATASIZE PUSH0 REVERT JUMPDEST POP PUSH1 0x1 DUP1 SLOAD PUSH1 0x1 PUSH1 0x1 PUSH1 0xA0 SHL SUB SWAP3 DUP4 AND PUSH1 0x1 PUSH1 0x1 PUSH1 0xA0 SHL SUB NOT SWAP2 DUP3 AND OR DUP3 SSTORE PUSH1 0x2 DUP1 SLOAD DUP1 DUP5 ADD DUP3 SSTORE PUSH0 DUP3 SWAP1 MSTORE PUSH32 0x405787FA12A823E0F2B7631CC41B3BA8828B3321CA811111FA75CD3AA3BB5ACE ADD DUP1 SLOAD SWAP1 SWAP3 AND PUSH20 0x48104C06A5195F196A4FFF0D485BED476C165A55 OR SWAP1 SWAP2 SSTORE SWAP1 SLOAD PUSH1 0x40 MLOAD PUSH4 0xEE56997B PUSH1 0xE0 SHL DUP2 MSTORE SWAP3 AND SWAP2 PUSH4 0xEE56997B SWAP2 PUSH2 0x2EE SWAP2 PUSH1 0x4 ADD PUSH2 0x495 JUMP JUMPDEST PUSH0 PUSH1 0x40 MLOAD DUP1 DUP4 SUB DUP2 PUSH0 DUP8 DUP1 EXTCODESIZE ISZERO DUP1 ISZERO PUSH2 0x305 JUMPI PUSH0 PUSH0 REVERT JUMPDEST POP GAS CALL ISZERO DUP1 ISZERO PUSH2 0x317 JUMPI RETURNDATASIZE PUSH0 PUSH0 RETURNDATACOPY RETURNDATASIZE PUSH0 REVERT JUMPDEST POP POP POP POP JUMP JUMPDEST PUSH1 0x40 MLOAD PUSH2 0x329 SWAP1 PUSH2 0x3A1 JUMP JUMPDEST PUSH1 0x40 MLOAD DUP1 SWAP2 SUB SWAP1 PUSH0 CREATE DUP1 ISZERO DUP1 ISZERO PUSH2 0x342 JUMPI RETURNDATASIZE PUSH0 PUSH0 RETURNDATACOPY RETURNDATASIZE PUSH0 REVERT JUMPDEST POP PUSH0 DUP1 SLOAD PUSH1 0x1 PUSH1 0x1 PUSH1 0xA0 SHL SUB NOT AND PUSH1 0x1 PUSH1 0x1 PUSH1 0xA0 SHL SUB SWAP3 SWAP1 SWAP3 AND SWAP2 SWAP1 SWAP2 OR SWAP1 SSTORE JUMP JUMPDEST PUSH0 SLOAD PUSH1 0x40 MLOAD PUSH4 0x6B2F002F PUSH1 0xE1 SHL DUP2 MSTORE PUSH1 0x1 PUSH1 0x1 PUSH1 0xA0 SHL SUB SWAP1 SWAP2 AND PUSH1 0x4 DUP3 ADD DUP2 SWAP1 MSTORE SWAP1 PUSH4 0xD65E005E SWAP1 PUSH1 0x24 ADD PUSH2 0x2EE JUMP JUMPDEST PUSH2 0x2C1F DUP1 PUSH2 0x4E4 DUP4 CODECOPY ADD SWAP1 JUMP JUMPDEST PUSH2 0x199A DUP1 PUSH2 0x3103 DUP4 CODECOPY ADD SWAP1 JUMP JUMPDEST PUSH0 PUSH0 PUSH1 0x40 DUP4 DUP6 SUB SLT ISZERO PUSH2 0x3BF JUMPI PUSH0 PUSH0 REVERT JUMPDEST POP POP DUP1 CALLDATALOAD SWAP3 PUSH1 0x20 SWAP1 SWAP2 ADD CALLDATALOAD SWAP2 POP JUMP JUMPDEST PUSH4 0x4E487B71 PUSH1 0xE0 SHL PUSH0 MSTORE PUSH1 0x41 PUSH1 0x4 MSTORE PUSH1 0x24 PUSH0 REVERT JUMPDEST PUSH0 PUSH1 0x20 DUP3 DUP5 SUB SLT ISZERO PUSH2 0x3F2 JUMPI PUSH0 PUSH0 REVERT JUMPDEST DUP2 MLOAD PUSH8 0xFFFFFFFFFFFFFFFF DUP2 GT ISZERO PUSH2 0x408 JUMPI PUSH0 PUSH0 REVERT JUMPDEST DUP3 ADD PUSH1 0x1F DUP2 ADD DUP5 SGT PUSH2 0x418 JUMPI PUSH0 PUSH0 REVERT JUMPDEST DUP1 MLOAD PUSH8 0xFFFFFFFFFFFFFFFF DUP2 GT ISZERO PUSH2 0x432 JUMPI PUSH2 0x432 PUSH2 0x3CE JUMP JUMPDEST PUSH1 0x40 MLOAD PUSH1 0x1F DUP3 ADD PUSH1 0x1F NOT SWAP1 DUP2 AND PUSH1 0x3F ADD AND DUP2 ADD PUSH8 0xFFFFFFFFFFFFFFFF DUP2 GT DUP3 DUP3 LT OR ISZERO PUSH2 0x461 JUMPI PUSH2 0x461 PUSH2 0x3CE JUMP JUMPDEST PUSH1 0x40 MSTORE DUP2 DUP2 MSTORE DUP3 DUP3 ADD PUSH1 0x20 ADD DUP7 LT ISZERO PUSH2 0x478 JUMPI PUSH0 PUSH0 REVERT JUMPDEST DUP2 PUSH1 0x20 DUP5 ADD PUSH1 0x20 DUP4 ADD MCOPY PUSH0 SWAP2 DUP2 ADD PUSH1 0x20 ADD SWAP2 SWAP1 SWAP2 MSTORE SWAP5 SWAP4 POP POP POP POP JUMP JUMPDEST PUSH1 0x20 DUP1 DUP3 MSTORE DUP3 SLOAD DUP3 DUP3 ADD DUP2 SWAP1 MSTORE PUSH0 DUP5 DUP2 MSTORE SWAP2 DUP3 KECCAK256 SWAP1 PUSH1 0x40 DUP5 ADD SWAP1 DUP4 JUMPDEST DUP2 DUP2 LT ISZERO PUSH2 0x4D8 JUMPI DUP4 SLOAD PUSH1 0x1 PUSH1 0x1 PUSH1 0xA0 SHL SUB AND DUP4 MSTORE PUSH1 0x1 SWAP4 DUP5 ADD SWAP4 PUSH1 0x20 SWAP1 SWAP4 ADD SWAP3 ADD PUSH2 0x4B1 JUMP JUMPDEST POP SWAP1 SWAP6 SWAP5 POP POP POP POP POP JUMP INVALID PUSH1 0xA0 PUSH1 0x40 MSTORE PUSH1 0x1 PUSH1 0x6 SSTORE CALLVALUE DUP1 ISZERO PUSH2 0x14 JUMPI PUSH0 PUSH0 REVERT JUMPDEST POP PUSH1 0x40 MLOAD PUSH2 0x2C1F CODESIZE SUB DUP1 PUSH2 0x2C1F DUP4 CODECOPY DUP2 ADD PUSH1 0x40 DUP2 SWAP1 MSTORE PUSH2 0x33 SWAP2 PUSH2 0x19A JUMP JUMPDEST DUP1 DUP1 PUSH0 PUSH1 0x1 PUSH1 0x1 PUSH1 0xA0 SHL SUB DUP3 AND PUSH2 0x91 JUMPI PUSH1 0x40 MLOAD PUSH3 0x461BCD PUSH1 0xE5 SHL DUP2 MSTORE PUSH1 0x20 PUSH1 0x4 DUP3 ADD MSTORE PUSH1 0x18 PUSH1 0x24 DUP3 ADD MSTORE PUSH32 0x43616E6E6F7420736574206F776E657220746F207A65726F0000000000000000 PUSH1 0x44 DUP3 ADD MSTORE PUSH1 0x64 ADD JUMPDEST PUSH1 0x40 MLOAD DUP1 SWAP2 SUB SWAP1 REVERT JUMPDEST PUSH1 0x2 DUP1 SLOAD PUSH1 0x1 PUSH1 0x1 PUSH1 0xA0 SHL SUB NOT AND PUSH1 0x1 PUSH1 0x1 PUSH1 0xA0 SHL SUB DUP5 DUP2 AND SWAP2 SWAP1 SWAP2 OR SWAP1 SWAP2 SSTORE DUP2 AND ISZERO PUSH2 0xC1 JUMPI PUSH2 0xC1 DUP2 PUSH2 0xD6 JUMP JUMPDEST POP POP POP POP PUSH1 0x1 PUSH1 0x1 PUSH1 0xA0 SHL SUB AND PUSH1 0x80 MSTORE PUSH2 0x1CB JUMP JUMPDEST CALLER PUSH1 0x1 PUSH1 0x1 PUSH1 0xA0 SHL SUB DUP3 AND SUB PUSH2 0x12E JUMPI PUSH1 0x40 MLOAD PUSH3 0x461BCD PUSH1 0xE5 SHL DUP2 MSTORE PUSH1 0x20 PUSH1 0x4 DUP3 ADD MSTORE PUSH1 0x17 PUSH1 0x24 DUP3 ADD MSTORE PUSH32 0x43616E6E6F74207472616E7366657220746F2073656C66000000000000000000 PUSH1 0x44 DUP3 ADD MSTORE PUSH1 0x64 ADD PUSH2 0x88 JUMP JUMPDEST PUSH1 0x3 DUP1 SLOAD PUSH1 0x1 PUSH1 0x1 PUSH1 0xA0 SHL SUB NOT AND PUSH1 0x1 PUSH1 0x1 PUSH1 0xA0 SHL SUB DUP4 DUP2 AND SWAP2 DUP3 OR SWAP1 SWAP3 SSTORE PUSH1 0x2 SLOAD PUSH1 0x40 MLOAD SWAP2 SWAP3 AND SWAP1 PUSH32 0xED8889F560326EB138920D842192F0EB3DD22B4F139C87A2C57538E05BAE1278 SWAP1 PUSH0 SWAP1 LOG3 POP JUMP JUMPDEST DUP1 MLOAD PUSH1 0x1 PUSH1 0x1 PUSH1 0xA0 SHL SUB DUP2 AND DUP2 EQ PUSH2 0x195 JUMPI PUSH0 PUSH0 REVERT JUMPDEST SWAP2 SWAP1 POP JUMP JUMPDEST PUSH0 PUSH0 PUSH1 0x40 DUP4 DUP6 SUB SLT ISZERO PUSH2 0x1AB JUMPI PUSH0 PUSH0 REVERT JUMPDEST PUSH2 0x1B4 DUP4 PUSH2 0x17F JUMP JUMPDEST SWAP2 POP PUSH2 0x1C2 PUSH1 0x20 DUP5 ADD PUSH2 0x17F JUMP JUMPDEST SWAP1 POP SWAP3 POP SWAP3 SWAP1 POP JUMP JUMPDEST PUSH1 0x80 MLOAD PUSH2 0x29FD PUSH2 0x222 PUSH0 CODECOPY PUSH0 DUP2 DUP2 PUSH2 0x1B3 ADD MSTORE DUP2 DUP2 PUSH2 0x640 ADD MSTORE DUP2 DUP2 PUSH2 0x822 ADD MSTORE DUP2 DUP2 PUSH2 0x9C6 ADD MSTORE DUP2 DUP2 PUSH2 0x125B ADD MSTORE DUP2 DUP2 PUSH2 0x13CA ADD MSTORE DUP2 DUP2 PUSH2 0x145A ADD MSTORE DUP2 DUP2 PUSH2 0x181B ADD MSTORE DUP2 DUP2 PUSH2 0x1A1E ADD MSTORE PUSH2 0x1D41 ADD MSTORE PUSH2 0x29FD PUSH0 RETURN INVALID PUSH1 0x80 PUSH1 0x40 MSTORE PUSH1 0x4 CALLDATASIZE LT PUSH2 0x161 JUMPI PUSH0 CALLDATALOAD PUSH1 0xE0 SHR DUP1 PUSH4 0x6AE0BC76 GT PUSH2 0xCD JUMPI DUP1 PUSH4 0xA4C0ED36 GT PUSH2 0x87 JUMPI DUP1 PUSH4 0xF2FDE38B GT PUSH2 0x62 JUMPI DUP1 PUSH4 0xF2FDE38B EQ PUSH2 0x437 JUMPI DUP1 PUSH4 0xF3FEF3A3 EQ PUSH2 0x456 JUMPI DUP1 PUSH4 0xFA00763A EQ PUSH2 0x475 JUMPI DUP1 PUSH4 0xFC4A03ED EQ PUSH2 0x4AC JUMPI PUSH0 PUSH0 REVERT JUMPDEST DUP1 PUSH4 0xA4C0ED36 EQ PUSH2 0x3DA JUMPI DUP1 PUSH4 0xEB007D99 EQ PUSH2 0x3F9 JUMPI DUP1 PUSH4 0xEE56997B EQ PUSH2 0x418 JUMPI PUSH0 PUSH0 REVERT JUMPDEST DUP1 PUSH4 0x6AE0BC76 EQ PUSH2 0x339 JUMPI DUP1 PUSH4 0x6BD59EC0 EQ PUSH2 0x358 JUMPI DUP1 PUSH4 0x6EE4D553 EQ PUSH2 0x36B JUMPI DUP1 PUSH4 0x79BA5097 EQ PUSH2 0x38A JUMPI DUP1 PUSH4 0x8DA5CB5B EQ PUSH2 0x39E JUMPI DUP1 PUSH4 0x902FC370 EQ PUSH2 0x3BB JUMPI PUSH0 PUSH0 REVERT JUMPDEST DUP1 PUSH4 0x3EC5BC14 GT PUSH2 0x11E JUMPI DUP1 PUSH4 0x3EC5BC14 EQ PUSH2 0x276 JUMPI DUP1 PUSH4 0x40429946 EQ PUSH2 0x295 JUMPI DUP1 PUSH4 0x4AB0D190 EQ PUSH2 0x2B4 JUMPI DUP1 PUSH4 0x50188301 EQ PUSH2 0x2E3 JUMPI DUP1 PUSH4 0x52043783 EQ PUSH2 0x305 JUMPI DUP1 PUSH4 0x5FFA6288 EQ PUSH2 0x31A JUMPI PUSH0 PUSH0 REVERT JUMPDEST DUP1 PUSH4 0x1994B99 EQ PUSH2 0x165 JUMPI DUP1 PUSH4 0x33F49F7 EQ PUSH2 0x186 JUMPI DUP1 PUSH4 0x165D35E1 EQ PUSH2 0x1A5 JUMPI DUP1 PUSH4 0x181F5A77 EQ PUSH2 0x1F0 JUMPI DUP1 PUSH4 0x2408AFAA EQ PUSH2 0x236 JUMPI DUP1 PUSH4 0x3C6D41B9 EQ PUSH2 0x257 JUMPI JUMPDEST PUSH0 PUSH0 REVERT JUMPDEST CALLVALUE DUP1 ISZERO PUSH2 0x170 JUMPI PUSH0 PUSH0 REVERT JUMPDEST POP PUSH2 0x184 PUSH2 0x17F CALLDATASIZE PUSH1 0x4 PUSH2 0x20B0 JUMP JUMPDEST PUSH2 0x4CB JUMP JUMPDEST STOP JUMPDEST CALLVALUE DUP1 ISZERO PUSH2 0x191 JUMPI PUSH0 PUSH0 REVERT JUMPDEST POP PUSH2 0x184 PUSH2 0x1A0 CALLDATASIZE PUSH1 0x4 PUSH2 0x213F JUMP JUMPDEST PUSH2 0x635 JUMP JUMPDEST CALLVALUE DUP1 ISZERO PUSH2 0x1B0 JUMPI PUSH0 PUSH0 REVERT JUMPDEST POP PUSH32 0x0 JUMPDEST PUSH1 0x40 MLOAD PUSH1 0x1 PUSH1 0x1 PUSH1 0xA0 SHL SUB SWAP1 SWAP2 AND DUP2 MSTORE PUSH1 0x20 ADD JUMPDEST PUSH1 0x40 MLOAD DUP1 SWAP2 SUB SWAP1 RETURN JUMPDEST CALLVALUE DUP1 ISZERO PUSH2 0x1FB JUMPI PUSH0 PUSH0 REVERT JUMPDEST POP PUSH2 0x229 PUSH1 0x40 MLOAD DUP1 PUSH1 0x40 ADD PUSH1 0x40 MSTORE DUP1 PUSH1 0xE DUP2 MSTORE PUSH1 0x20 ADD PUSH14 0x4F70657261746F7220312E302E3 PUSH1 0x94 SHL DUP2 MSTORE POP DUP2 JUMP JUMPDEST PUSH1 0x40 MLOAD PUSH2 0x1E7 SWAP2 SWAP1 PUSH2 0x218F JUMP JUMPDEST CALLVALUE DUP1 ISZERO PUSH2 0x241 JUMPI PUSH0 PUSH0 REVERT JUMPDEST POP PUSH2 0x24A PUSH2 0x7B7 JUMP JUMPDEST PUSH1 0x40 MLOAD PUSH2 0x1E7 SWAP2 SWAP1 PUSH2 0x21C4 JUMP JUMPDEST CALLVALUE DUP1 ISZERO PUSH2 0x262 JUMPI PUSH0 PUSH0 REVERT JUMPDEST POP PUSH2 0x184 PUSH2 0x271 CALLDATASIZE PUSH1 0x4 PUSH2 0x222B JUMP JUMPDEST PUSH2 0x817 JUMP JUMPDEST CALLVALUE DUP1 ISZERO PUSH2 0x281 JUMPI PUSH0 PUSH0 REVERT JUMPDEST POP PUSH2 0x184 PUSH2 0x290 CALLDATASIZE PUSH1 0x4 PUSH2 0x22B1 JUMP JUMPDEST PUSH2 0x8C7 JUMP JUMPDEST CALLVALUE DUP1 ISZERO PUSH2 0x2A0 JUMPI PUSH0 PUSH0 REVERT JUMPDEST POP PUSH2 0x184 PUSH2 0x2AF CALLDATASIZE PUSH1 0x4 PUSH2 0x2303 JUMP JUMPDEST PUSH2 0x9BB JUMP JUMPDEST CALLVALUE DUP1 ISZERO PUSH2 0x2BF JUMPI PUSH0 PUSH0 REVERT JUMPDEST POP PUSH2 0x2D3 PUSH2 0x2CE CALLDATASIZE PUSH1 0x4 PUSH2 0x239E JUMP JUMPDEST PUSH2 0xA6C JUMP JUMPDEST PUSH1 0x40 MLOAD SWAP1 ISZERO ISZERO DUP2 MSTORE PUSH1 0x20 ADD PUSH2 0x1E7 JUMP JUMPDEST CALLVALUE DUP1 ISZERO PUSH2 0x2EE JUMPI PUSH0 PUSH0 REVERT JUMPDEST POP PUSH2 0x2F7 PUSH2 0xC88 JUMP JUMPDEST PUSH1 0x40 MLOAD SWAP1 DUP2 MSTORE PUSH1 0x20 ADD PUSH2 0x1E7 JUMP JUMPDEST CALLVALUE DUP1 ISZERO PUSH2 0x310 JUMPI PUSH0 PUSH0 REVERT JUMPDEST POP PUSH2 0x2F7 PUSH2 0x12C DUP2 JUMP JUMPDEST CALLVALUE DUP1 ISZERO PUSH2 0x325 JUMPI PUSH0 PUSH0 REVERT JUMPDEST POP PUSH2 0x184 PUSH2 0x334 CALLDATASIZE PUSH1 0x4 PUSH2 0x23F4 JUMP JUMPDEST PUSH2 0xC96 JUMP JUMPDEST CALLVALUE DUP1 ISZERO PUSH2 0x344 JUMPI PUSH0 PUSH0 REVERT JUMPDEST POP PUSH2 0x2D3 PUSH2 0x353 CALLDATASIZE PUSH1 0x4 PUSH2 0x245E JUMP JUMPDEST PUSH2 0xCD0 JUMP JUMPDEST PUSH2 0x184 PUSH2 0x366 CALLDATASIZE PUSH1 0x4 PUSH2 0x23F4 JUMP JUMPDEST PUSH2 0xF6B JUMP JUMPDEST CALLVALUE DUP1 ISZERO PUSH2 0x376 JUMPI PUSH0 PUSH0 REVERT JUMPDEST POP PUSH2 0x184 PUSH2 0x385 CALLDATASIZE PUSH1 0x4 PUSH2 0x24DB JUMP JUMPDEST PUSH2 0x1132 JUMP JUMPDEST CALLVALUE DUP1 ISZERO PUSH2 0x395 JUMPI PUSH0 PUSH0 REVERT JUMPDEST POP PUSH2 0x184 PUSH2 0x12D5 JUMP JUMPDEST CALLVALUE DUP1 ISZERO PUSH2 0x3A9 JUMPI PUSH0 PUSH0 REVERT JUMPDEST POP PUSH1 0x2 SLOAD PUSH1 0x1 PUSH1 0x1 PUSH1 0xA0 SHL SUB AND PUSH2 0x1D3 JUMP JUMPDEST CALLVALUE DUP1 ISZERO PUSH2 0x3C6 JUMPI PUSH0 PUSH0 REVERT JUMPDEST POP PUSH2 0x2D3 PUSH2 0x3D5 CALLDATASIZE PUSH1 0x4 PUSH2 0x2515 JUMP JUMPDEST PUSH2 0x1382 JUMP JUMPDEST CALLVALUE DUP1 ISZERO PUSH2 0x3E5 JUMPI PUSH0 PUSH0 REVERT JUMPDEST POP PUSH2 0x184 PUSH2 0x3F4 CALLDATASIZE PUSH1 0x4 PUSH2 0x2574 JUMP JUMPDEST PUSH2 0x144F JUMP JUMPDEST CALLVALUE DUP1 ISZERO PUSH2 0x404 JUMPI PUSH0 PUSH0 REVERT JUMPDEST POP PUSH2 0x184 PUSH2 0x413 CALLDATASIZE PUSH1 0x4 PUSH2 0x24DB JUMP JUMPDEST PUSH2 0x155B JUMP JUMPDEST CALLVALUE DUP1 ISZERO PUSH2 0x423 JUMPI PUSH0 PUSH0 REVERT JUMPDEST POP PUSH2 0x184 PUSH2 0x432 CALLDATASIZE PUSH1 0x4 PUSH2 0x20B0 JUMP JUMPDEST PUSH2 0x159D JUMP JUMPDEST CALLVALUE DUP1 ISZERO PUSH2 0x442 JUMPI PUSH0 PUSH0 REVERT JUMPDEST POP PUSH2 0x184 PUSH2 0x451 CALLDATASIZE PUSH1 0x4 PUSH2 0x263F JUMP JUMPDEST PUSH2 0x17B1 JUMP JUMPDEST CALLVALUE DUP1 ISZERO PUSH2 0x461 JUMPI PUSH0 PUSH0 REVERT JUMPDEST POP PUSH2 0x184 PUSH2 0x470 CALLDATASIZE PUSH1 0x4 PUSH2 0x2661 JUMP JUMPDEST PUSH2 0x17C5 JUMP JUMPDEST CALLVALUE DUP1 ISZERO PUSH2 0x480 JUMPI PUSH0 PUSH0 REVERT JUMPDEST POP PUSH2 0x2D3 PUSH2 0x48F CALLDATASIZE PUSH1 0x4 PUSH2 0x263F JUMP JUMPDEST PUSH1 0x1 PUSH1 0x1 PUSH1 0xA0 SHL SUB AND PUSH0 SWAP1 DUP2 MSTORE PUSH1 0x20 DUP2 SWAP1 MSTORE PUSH1 0x40 SWAP1 KECCAK256 SLOAD PUSH1 0xFF AND SWAP1 JUMP JUMPDEST CALLVALUE DUP1 ISZERO PUSH2 0x4B7 JUMPI PUSH0 PUSH0 REVERT JUMPDEST POP PUSH2 0x184 PUSH2 0x4C6 CALLDATASIZE PUSH1 0x4 PUSH2 0x23F4 JUMP JUMPDEST PUSH2 0x1891 JUMP JUMPDEST PUSH2 0x4D3 PUSH2 0x198A JUMP JUMPDEST PUSH2 0x4F8 JUMPI PUSH1 0x40 MLOAD PUSH3 0x461BCD PUSH1 0xE5 SHL DUP2 MSTORE PUSH1 0x4 ADD PUSH2 0x4EF SWAP1 PUSH2 0x268B JUMP JUMPDEST PUSH1 0x40 MLOAD DUP1 SWAP2 SUB SWAP1 REVERT JUMPDEST PUSH0 JUMPDEST DUP2 DUP2 LT ISZERO PUSH2 0x630 JUMPI PUSH1 0x1 PUSH1 0x5 PUSH0 DUP6 DUP6 DUP6 DUP2 DUP2 LT PUSH2 0x519 JUMPI PUSH2 0x519 PUSH2 0x26C2 JUMP JUMPDEST SWAP1 POP PUSH1 0x20 MUL ADD PUSH1 0x20 DUP2 ADD SWAP1 PUSH2 0x52E SWAP2 SWAP1 PUSH2 0x263F JUMP JUMPDEST PUSH1 0x1 PUSH1 0x1 PUSH1 0xA0 SHL SUB AND DUP2 MSTORE PUSH1 0x20 DUP2 ADD SWAP2 SWAP1 SWAP2 MSTORE PUSH1 0x40 ADD PUSH0 KECCAK256 DUP1 SLOAD PUSH1 0xFF NOT AND SWAP2 ISZERO ISZERO SWAP2 SWAP1 SWAP2 OR SWAP1 SSTORE DUP3 DUP3 DUP3 DUP2 DUP2 LT PUSH2 0x567 JUMPI PUSH2 0x567 PUSH2 0x26C2 JUMP JUMPDEST SWAP1 POP PUSH1 0x20 MUL ADD PUSH1 0x20 DUP2 ADD SWAP1 PUSH2 0x57C SWAP2 SWAP1 PUSH2 0x263F JUMP JUMPDEST PUSH1 0x1 PUSH1 0x1 PUSH1 0xA0 SHL SUB AND PUSH32 0x615A0C1CB00A60D4ACD77EC67ACF2F17F223EF0932D591052FABC33643FE7E82 PUSH1 0x40 MLOAD PUSH1 0x40 MLOAD DUP1 SWAP2 SUB SWAP1 LOG2 DUP3 DUP3 DUP3 DUP2 DUP2 LT PUSH2 0x5C3 JUMPI PUSH2 0x5C3 PUSH2 0x26C2 JUMP JUMPDEST SWAP1 POP PUSH1 0x20 MUL ADD PUSH1 0x20 DUP2 ADD SWAP1 PUSH2 0x5D8 SWAP2 SWAP1 PUSH2 0x263F JUMP JUMPDEST PUSH1 0x1 PUSH1 0x1 PUSH1 0xA0 SHL SUB AND PUSH4 0x79BA5097 PUSH1 0x40 MLOAD DUP2 PUSH4 0xFFFFFFFF AND PUSH1 0xE0 SHL DUP2 MSTORE PUSH1 0x4 ADD PUSH0 PUSH1 0x40 MLOAD DUP1 DUP4 SUB DUP2 PUSH0 DUP8 DUP1 EXTCODESIZE ISZERO DUP1 ISZERO PUSH2 0x60F JUMPI PUSH0 PUSH0 REVERT JUMPDEST POP GAS CALL ISZERO DUP1 ISZERO PUSH2 0x621 JUMPI RETURNDATASIZE PUSH0 PUSH0 RETURNDATACOPY RETURNDATASIZE PUSH0 REVERT JUMPDEST POP POP POP POP DUP1 PUSH1 0x1 ADD SWAP1 POP PUSH2 0x4FA JUMP JUMPDEST POP POP POP JUMP JUMPDEST PUSH2 0x63D PUSH2 0x19C4 JUMP JUMPDEST DUP3 PUSH32 0x0 PUSH1 0x1 PUSH1 0x1 PUSH1 0xA0 SHL SUB AND DUP2 PUSH1 0x1 PUSH1 0x1 PUSH1 0xA0 SHL SUB AND SUB PUSH2 0x6B5 JUMPI PUSH1 0x40 MLOAD PUSH3 0x461BCD PUSH1 0xE5 SHL DUP2 MSTORE PUSH1 0x20 PUSH1 0x4 DUP3 ADD MSTORE PUSH1 0x13 PUSH1 0x24 DUP3 ADD MSTORE PUSH19 0x43616E6E6F742063616C6C20746F204C494E4B PUSH1 0x68 SHL PUSH1 0x44 DUP3 ADD MSTORE PUSH1 0x64 ADD PUSH2 0x4EF JUMP JUMPDEST DUP4 PUSH1 0x1 PUSH1 0x1 PUSH1 0xA0 SHL SUB AND EXTCODESIZE PUSH0 SUB PUSH2 0x70E JUMPI PUSH1 0x40 MLOAD PUSH3 0x461BCD PUSH1 0xE5 SHL DUP2 MSTORE PUSH1 0x20 PUSH1 0x4 DUP3 ADD MSTORE PUSH1 0x1A PUSH1 0x24 DUP3 ADD MSTORE PUSH32 0x4D75737420666F727761726420746F206120636F6E7472616374000000000000 PUSH1 0x44 DUP3 ADD MSTORE PUSH1 0x64 ADD PUSH2 0x4EF JUMP JUMPDEST PUSH0 DUP5 PUSH1 0x1 PUSH1 0x1 PUSH1 0xA0 SHL SUB AND DUP5 DUP5 PUSH1 0x40 MLOAD PUSH2 0x729 SWAP3 SWAP2 SWAP1 PUSH2 0x26D6 JUMP JUMPDEST PUSH0 PUSH1 0x40 MLOAD DUP1 DUP4 SUB DUP2 PUSH0 DUP7 GAS CALL SWAP2 POP POP RETURNDATASIZE DUP1 PUSH0 DUP2 EQ PUSH2 0x762 JUMPI PUSH1 0x40 MLOAD SWAP2 POP PUSH1 0x1F NOT PUSH1 0x3F RETURNDATASIZE ADD AND DUP3 ADD PUSH1 0x40 MSTORE RETURNDATASIZE DUP3 MSTORE RETURNDATASIZE PUSH0 PUSH1 0x20 DUP5 ADD RETURNDATACOPY PUSH2 0x767 JUMP JUMPDEST PUSH1 0x60 SWAP2 POP JUMPDEST POP POP SWAP1 POP DUP1 PUSH2 0x7B0 JUMPI PUSH1 0x40 MLOAD PUSH3 0x461BCD PUSH1 0xE5 SHL DUP2 MSTORE PUSH1 0x20 PUSH1 0x4 DUP3 ADD MSTORE PUSH1 0x15 PUSH1 0x24 DUP3 ADD MSTORE PUSH21 0x119BDC9DD85C9919590818D85B1B0819985A5B1959 PUSH1 0x5A SHL PUSH1 0x44 DUP3 ADD MSTORE PUSH1 0x64 ADD PUSH2 0x4EF JUMP JUMPDEST POP POP POP POP POP JUMP JUMPDEST PUSH1 0x60 PUSH1 0x1 DUP1 SLOAD DUP1 PUSH1 0x20 MUL PUSH1 0x20 ADD PUSH1 0x40 MLOAD SWAP1 DUP2 ADD PUSH1 0x40 MSTORE DUP1 SWAP3 SWAP2 SWAP1 DUP2 DUP2 MSTORE PUSH1 0x20 ADD DUP3 DUP1 SLOAD DUP1 ISZERO PUSH2 0x80D JUMPI PUSH1 0x20 MUL DUP3 ADD SWAP2 SWAP1 PUSH0 MSTORE PUSH1 0x20 PUSH0 KECCAK256 SWAP1 JUMPDEST DUP2 SLOAD PUSH1 0x1 PUSH1 0x1 PUSH1 0xA0 SHL SUB AND DUP2 MSTORE PUSH1 0x1 SWAP1 SWAP2 ADD SWAP1 PUSH1 0x20 ADD DUP1 DUP4 GT PUSH2 0x7EF JUMPI JUMPDEST POP POP POP POP POP SWAP1 POP SWAP1 JUMP JUMPDEST CALLER PUSH1 0x1 PUSH1 0x1 PUSH1 0xA0 SHL SUB PUSH32 0x0 AND EQ PUSH2 0x85F JUMPI PUSH1 0x40 MLOAD PUSH3 0x461BCD PUSH1 0xE5 SHL DUP2 MSTORE PUSH1 0x4 ADD PUSH2 0x4EF SWAP1 PUSH2 0x26E5 JUMP JUMPDEST PUSH0 PUSH0 PUSH2 0x86F DUP11 DUP11 DUP13 DUP11 DUP11 DUP11 PUSH2 0x1A19 JUMP JUMPDEST SWAP2 POP SWAP2 POP DUP8 PUSH32 0xD8D7ECC4800D25FA53CE0372F13A416D98907A7EF3D8D3BDD79CF4FE75529C65 DUP12 DUP5 DUP13 DUP15 DUP13 DUP8 DUP13 DUP13 DUP13 PUSH1 0x40 MLOAD PUSH2 0x8B3 SWAP10 SWAP9 SWAP8 SWAP7 SWAP6 SWAP5 SWAP4 SWAP3 SWAP2 SWAP1 PUSH2 0x273A JUMP JUMPDEST PUSH1 0x40 MLOAD DUP1 SWAP2 SUB SWAP1 LOG2 POP POP POP POP POP POP POP POP POP POP JUMP JUMPDEST PUSH2 0x8CF PUSH2 0x19C4 JUMP JUMPDEST PUSH0 JUMPDEST DUP3 DUP2 LT ISZERO PUSH2 0x9B5 JUMPI PUSH0 PUSH1 0x5 PUSH0 DUP7 DUP7 DUP6 DUP2 DUP2 LT PUSH2 0x8EF JUMPI PUSH2 0x8EF PUSH2 0x26C2 JUMP JUMPDEST SWAP1 POP PUSH1 0x20 MUL ADD PUSH1 0x20 DUP2 ADD SWAP1 PUSH2 0x904 SWAP2 SWAP1 PUSH2 0x263F JUMP JUMPDEST PUSH1 0x1 PUSH1 0x1 PUSH1 0xA0 SHL SUB AND DUP2 MSTORE PUSH1 0x20 DUP2 ADD SWAP2 SWAP1 SWAP2 MSTORE PUSH1 0x40 ADD PUSH0 KECCAK256 DUP1 SLOAD PUSH1 0xFF NOT AND SWAP2 ISZERO ISZERO SWAP2 SWAP1 SWAP2 OR SWAP1 SSTORE DUP4 DUP4 DUP3 DUP2 DUP2 LT PUSH2 0x93D JUMPI PUSH2 0x93D PUSH2 0x26C2 JUMP JUMPDEST SWAP1 POP PUSH1 0x20 MUL ADD PUSH1 0x20 DUP2 ADD SWAP1 PUSH2 0x952 SWAP2 SWAP1 PUSH2 0x263F JUMP JUMPDEST PUSH1 0x40 MLOAD PUSH4 0xF2FDE38B PUSH1 0xE0 SHL DUP2 MSTORE PUSH1 0x1 PUSH1 0x1 PUSH1 0xA0 SHL SUB DUP5 DUP2 AND PUSH1 0x4 DUP4 ADD MSTORE SWAP2 SWAP1 SWAP2 AND SWAP1 PUSH4 0xF2FDE38B SWAP1 PUSH1 0x24 ADD PUSH0 PUSH1 0x40 MLOAD DUP1 DUP4 SUB DUP2 PUSH0 DUP8 DUP1 EXTCODESIZE ISZERO DUP1 ISZERO PUSH2 0x994 JUMPI PUSH0 PUSH0 REVERT JUMPDEST POP GAS CALL ISZERO DUP1 ISZERO PUSH2 0x9A6 JUMPI RETURNDATASIZE PUSH0 PUSH0 RETURNDATACOPY RETURNDATASIZE PUSH0 REVERT JUMPDEST POP POP POP POP DUP1 PUSH1 0x1 ADD SWAP1 POP PUSH2 0x8D1 JUMP JUMPDEST POP POP POP POP JUMP JUMPDEST CALLER PUSH1 0x1 PUSH1 0x1 PUSH1 0xA0 SHL SUB PUSH32 0x0 AND EQ PUSH2 0xA03 JUMPI PUSH1 0x40 MLOAD PUSH3 0x461BCD PUSH1 0xE5 SHL DUP2 MSTORE PUSH1 0x4 ADD PUSH2 0x4EF SWAP1 PUSH2 0x26E5 JUMP JUMPDEST PUSH0 PUSH0 PUSH2 0xA13 DUP12 DUP12 DUP11 DUP11 DUP11 DUP11 PUSH2 0x1A19 JUMP JUMPDEST SWAP2 POP SWAP2 POP DUP9 PUSH32 0xD8D7ECC4800D25FA53CE0372F13A416D98907A7EF3D8D3BDD79CF4FE75529C65 DUP13 DUP5 DUP14 DUP16 DUP13 DUP8 DUP13 DUP13 DUP13 PUSH1 0x40 MLOAD PUSH2 0xA57 SWAP10 SWAP9 SWAP8 SWAP7 SWAP6 SWAP5 SWAP4 SWAP3 SWAP2 SWAP1 PUSH2 0x273A JUMP JUMPDEST PUSH1 0x40 MLOAD DUP1 SWAP2 SUB SWAP1 LOG2 POP POP POP POP POP POP POP POP POP POP POP JUMP JUMPDEST PUSH0 PUSH2 0xA75 PUSH2 0x1BB3 JUMP JUMPDEST PUSH0 DUP8 DUP2 MSTORE PUSH1 0x4 PUSH1 0x20 MSTORE PUSH1 0x40 DUP2 KECCAK256 SLOAD DUP9 SWAP2 PUSH1 0x8 SWAP2 SWAP1 SWAP2 SHL PUSH1 0xFF NOT AND SWAP1 SUB PUSH2 0xADD JUMPI PUSH1 0x40 MLOAD PUSH3 0x461BCD PUSH1 0xE5 SHL DUP2 MSTORE PUSH1 0x20 PUSH1 0x4 DUP3 ADD MSTORE PUSH1 0x1B PUSH1 0x24 DUP3 ADD MSTORE PUSH32 0x4D757374206861766520612076616C6964207265717565737449640000000000 PUSH1 0x44 DUP3 ADD MSTORE PUSH1 0x64 ADD PUSH2 0x4EF JUMP JUMPDEST PUSH1 0x1 PUSH1 0x1 PUSH1 0xA0 SHL SUB DUP7 AND PUSH0 SWAP1 DUP2 MSTORE PUSH1 0x5 PUSH1 0x20 MSTORE PUSH1 0x40 SWAP1 KECCAK256 SLOAD DUP7 SWAP1 PUSH1 0xFF AND ISZERO PUSH2 0xB47 JUMPI PUSH1 0x40 MLOAD PUSH3 0x461BCD PUSH1 0xE5 SHL DUP2 MSTORE PUSH1 0x20 PUSH1 0x4 DUP3 ADD MSTORE PUSH1 0x1A PUSH1 0x24 DUP3 ADD MSTORE PUSH32 0x43616E6E6F742063616C6C206F776E656420636F6E7472616374000000000000 PUSH1 0x44 DUP3 ADD MSTORE PUSH1 0x64 ADD PUSH2 0x4EF JUMP JUMPDEST PUSH2 0xB56 DUP10 DUP10 DUP10 DUP10 DUP10 PUSH1 0x1 PUSH2 0x1C09 JUMP JUMPDEST PUSH1 0x40 MLOAD DUP10 SWAP1 PUSH32 0x9E9BC7616D42C2835D05AE617E508454E63B30B934BE8AA932EBC125E0E58A64 SWAP1 PUSH0 SWAP1 LOG2 PUSH3 0x61A80 GAS LT ISZERO PUSH2 0xBD3 JUMPI PUSH1 0x40 MLOAD PUSH3 0x461BCD PUSH1 0xE5 SHL DUP2 MSTORE PUSH1 0x20 PUSH1 0x4 DUP3 ADD DUP2 SWAP1 MSTORE PUSH1 0x24 DUP3 ADD MSTORE PUSH32 0x4D7573742070726F7669646520636F6E73756D657220656E6F75676820676173 PUSH1 0x44 DUP3 ADD MSTORE PUSH1 0x64 ADD PUSH2 0x4EF JUMP JUMPDEST PUSH0 DUP8 PUSH1 0x1 PUSH1 0x1 PUSH1 0xA0 SHL SUB AND DUP8 DUP12 DUP8 PUSH1 0x40 MLOAD PUSH1 0x24 ADD PUSH2 0xBFB SWAP3 SWAP2 SWAP1 SWAP2 DUP3 MSTORE PUSH1 0x20 DUP3 ADD MSTORE PUSH1 0x40 ADD SWAP1 JUMP JUMPDEST PUSH1 0x40 DUP1 MLOAD PUSH1 0x1F NOT DUP2 DUP5 SUB ADD DUP2 MSTORE SWAP2 DUP2 MSTORE PUSH1 0x20 DUP3 ADD DUP1 MLOAD PUSH1 0x1 PUSH1 0x1 PUSH1 0xE0 SHL SUB AND PUSH1 0x1 PUSH1 0x1 PUSH1 0xE0 SHL SUB NOT SWAP1 SWAP5 AND SWAP4 SWAP1 SWAP4 OR SWAP1 SWAP3 MSTORE SWAP1 MLOAD PUSH2 0xC39 SWAP2 SWAP1 PUSH2 0x27A2 JUMP JUMPDEST PUSH0 PUSH1 0x40 MLOAD DUP1 DUP4 SUB DUP2 PUSH0 DUP7 GAS CALL SWAP2 POP POP RETURNDATASIZE DUP1 PUSH0 DUP2 EQ PUSH2 0xC72 JUMPI PUSH1 0x40 MLOAD SWAP2 POP PUSH1 0x1F NOT PUSH1 0x3F RETURNDATASIZE ADD AND DUP3 ADD PUSH1 0x40 MSTORE RETURNDATASIZE DUP3 MSTORE RETURNDATASIZE PUSH0 PUSH1 0x20 DUP5 ADD RETURNDATACOPY PUSH2 0xC77 JUMP JUMPDEST PUSH1 0x60 SWAP2 POP JUMPDEST POP SWAP1 SWAP12 SWAP11 POP POP POP POP POP POP POP POP POP POP POP JUMP JUMPDEST PUSH0 PUSH2 0xC91 PUSH2 0x1D1C JUMP JUMPDEST SWAP1 POP SWAP1 JUMP JUMPDEST PUSH2 0xC9E PUSH2 0x198A JUMP JUMPDEST PUSH2 0xCBA JUMPI PUSH1 0x40 MLOAD PUSH3 0x461BCD PUSH1 0xE5 SHL DUP2 MSTORE PUSH1 0x4 ADD PUSH2 0x4EF SWAP1 PUSH2 0x268B JUMP JUMPDEST PUSH2 0xCC4 DUP5 DUP5 PUSH2 0x4CB JUMP JUMPDEST PUSH2 0x9B5 DUP5 DUP5 DUP5 DUP5 PUSH2 0x1891 JUMP JUMPDEST PUSH0 PUSH2 0xCD9 PUSH2 0x1BB3 JUMP JUMPDEST PUSH0 DUP9 DUP2 MSTORE PUSH1 0x4 PUSH1 0x20 MSTORE PUSH1 0x40 DUP2 KECCAK256 SLOAD DUP10 SWAP2 PUSH1 0x8 SWAP2 SWAP1 SWAP2 SHL PUSH1 0xFF NOT AND SWAP1 SUB PUSH2 0xD41 JUMPI PUSH1 0x40 MLOAD PUSH3 0x461BCD PUSH1 0xE5 SHL DUP2 MSTORE PUSH1 0x20 PUSH1 0x4 DUP3 ADD MSTORE PUSH1 0x1B PUSH1 0x24 DUP3 ADD MSTORE PUSH32 0x4D757374206861766520612076616C6964207265717565737449640000000000 PUSH1 0x44 DUP3 ADD MSTORE PUSH1 0x64 ADD PUSH2 0x4EF JUMP JUMPDEST PUSH1 0x1 PUSH1 0x1 PUSH1 0xA0 SHL SUB DUP8 AND PUSH0 SWAP1 DUP2 MSTORE PUSH1 0x5 PUSH1 0x20 MSTORE PUSH1 0x40 SWAP1 KECCAK256 SLOAD DUP8 SWAP1 PUSH1 0xFF AND ISZERO PUSH2 0xDAB JUMPI PUSH1 0x40 MLOAD PUSH3 0x461BCD PUSH1 0xE5 SHL DUP2 MSTORE PUSH1 0x20 PUSH1 0x4 DUP3 ADD MSTORE PUSH1 0x1A PUSH1 0x24 DUP3 ADD MSTORE PUSH32 0x43616E6E6F742063616C6C206F776E656420636F6E7472616374000000000000 PUSH1 0x44 DUP3 ADD MSTORE PUSH1 0x64 ADD PUSH2 0x4EF JUMP JUMPDEST DUP10 DUP6 DUP6 PUSH1 0x20 DUP2 LT ISZERO PUSH2 0xDFF JUMPI PUSH1 0x40 MLOAD PUSH3 0x461BCD PUSH1 0xE5 SHL DUP2 MSTORE PUSH1 0x20 PUSH1 0x4 DUP3 ADD MSTORE PUSH1 0x1B PUSH1 0x24 DUP3 ADD MSTORE PUSH32 0x526573706F6E7365206D757374206265203E2033322062797465730000000000 PUSH1 0x44 DUP3 ADD MSTORE PUSH1 0x64 ADD PUSH2 0x4EF JUMP JUMPDEST DUP2 CALLDATALOAD DUP4 DUP2 EQ PUSH2 0xE50 JUMPI PUSH1 0x40 MLOAD PUSH3 0x461BCD PUSH1 0xE5 SHL DUP2 MSTORE PUSH1 0x20 PUSH1 0x4 DUP3 ADD MSTORE PUSH1 0x1C PUSH1 0x24 DUP3 ADD MSTORE PUSH32 0x466972737420776F7264206D7573742062652072657175657374496400000000 PUSH1 0x44 DUP3 ADD MSTORE PUSH1 0x64 ADD PUSH2 0x4EF JUMP JUMPDEST PUSH2 0xE5F DUP15 DUP15 DUP15 DUP15 DUP15 PUSH1 0x2 PUSH2 0x1C09 JUMP JUMPDEST PUSH1 0x40 MLOAD DUP15 SWAP1 PUSH32 0x9E9BC7616D42C2835D05AE617E508454E63B30B934BE8AA932EBC125E0E58A64 SWAP1 PUSH0 SWAP1 LOG2 PUSH3 0x61A80 GAS LT ISZERO PUSH2 0xEDC JUMPI PUSH1 0x40 MLOAD PUSH3 0x461BCD PUSH1 0xE5 SHL DUP2 MSTORE PUSH1 0x20 PUSH1 0x4 DUP3 ADD DUP2 SWAP1 MSTORE PUSH1 0x24 DUP3 ADD MSTORE PUSH32 0x4D7573742070726F7669646520636F6E73756D657220656E6F75676820676173 PUSH1 0x44 DUP3 ADD MSTORE PUSH1 0x64 ADD PUSH2 0x4EF JUMP JUMPDEST PUSH0 DUP13 PUSH1 0x1 PUSH1 0x1 PUSH1 0xA0 SHL SUB AND DUP13 DUP12 DUP12 PUSH1 0x40 MLOAD PUSH1 0x20 ADD PUSH2 0xEFC SWAP4 SWAP3 SWAP2 SWAP1 PUSH2 0x27B8 JUMP JUMPDEST PUSH1 0x40 DUP1 MLOAD PUSH1 0x1F NOT DUP2 DUP5 SUB ADD DUP2 MSTORE SWAP1 DUP3 SWAP1 MSTORE PUSH2 0xF16 SWAP2 PUSH2 0x27A2 JUMP JUMPDEST PUSH0 PUSH1 0x40 MLOAD DUP1 DUP4 SUB DUP2 PUSH0 DUP7 GAS CALL SWAP2 POP POP RETURNDATASIZE DUP1 PUSH0 DUP2 EQ PUSH2 0xF4F JUMPI PUSH1 0x40 MLOAD SWAP2 POP PUSH1 0x1F NOT PUSH1 0x3F RETURNDATASIZE ADD AND DUP3 ADD PUSH1 0x40 MSTORE RETURNDATASIZE DUP3 MSTORE RETURNDATASIZE PUSH0 PUSH1 0x20 DUP5 ADD RETURNDATACOPY PUSH2 0xF54 JUMP JUMPDEST PUSH1 0x60 SWAP2 POP JUMPDEST POP SWAP1 SWAP9 POP POP POP POP POP POP POP POP POP SWAP8 SWAP7 POP POP POP POP POP POP POP JUMP JUMPDEST DUP3 ISZERO DUP1 ISZERO SWAP1 PUSH2 0xF79 JUMPI POP DUP3 DUP2 EQ JUMPDEST PUSH2 0xFC5 JUMPI PUSH1 0x40 MLOAD PUSH3 0x461BCD PUSH1 0xE5 SHL DUP2 MSTORE PUSH1 0x20 PUSH1 0x4 DUP3 ADD MSTORE PUSH1 0x17 PUSH1 0x24 DUP3 ADD MSTORE PUSH32 0x496E76616C6964206172726179206C656E677468287329000000000000000000 PUSH1 0x44 DUP3 ADD MSTORE PUSH1 0x64 ADD PUSH2 0x4EF JUMP JUMPDEST CALLVALUE PUSH0 JUMPDEST DUP5 DUP2 LT ISZERO PUSH2 0x10EF JUMPI PUSH0 DUP5 DUP5 DUP4 DUP2 DUP2 LT PUSH2 0xFE3 JUMPI PUSH2 0xFE3 PUSH2 0x26C2 JUMP JUMPDEST SWAP1 POP PUSH1 0x20 MUL ADD CALLDATALOAD SWAP1 POP DUP1 DUP4 PUSH2 0xFF8 SWAP2 SWAP1 PUSH2 0x27EF JUMP JUMPDEST SWAP3 POP PUSH0 DUP8 DUP8 DUP5 DUP2 DUP2 LT PUSH2 0x100D JUMPI PUSH2 0x100D PUSH2 0x26C2 JUMP JUMPDEST SWAP1 POP PUSH1 0x20 MUL ADD PUSH1 0x20 DUP2 ADD SWAP1 PUSH2 0x1022 SWAP2 SWAP1 PUSH2 0x263F JUMP JUMPDEST PUSH1 0x1 PUSH1 0x1 PUSH1 0xA0 SHL SUB AND DUP3 PUSH1 0x40 MLOAD PUSH0 PUSH1 0x40 MLOAD DUP1 DUP4 SUB DUP2 DUP6 DUP8 GAS CALL SWAP3 POP POP POP RETURNDATASIZE DUP1 PUSH0 DUP2 EQ PUSH2 0x1069 JUMPI PUSH1 0x40 MLOAD SWAP2 POP PUSH1 0x1F NOT PUSH1 0x3F RETURNDATASIZE ADD AND DUP3 ADD PUSH1 0x40 MSTORE RETURNDATASIZE DUP3 MSTORE RETURNDATASIZE PUSH0 PUSH1 0x20 DUP5 ADD RETURNDATACOPY PUSH2 0x106E JUMP JUMPDEST PUSH1 0x60 SWAP2 POP JUMPDEST POP POP SWAP1 POP DUP1 PUSH2 0x10E5 JUMPI PUSH1 0x40 MLOAD PUSH3 0x461BCD PUSH1 0xE5 SHL DUP2 MSTORE PUSH1 0x20 PUSH1 0x4 DUP3 ADD MSTORE PUSH1 0x3A PUSH1 0x24 DUP3 ADD MSTORE PUSH32 0x416464726573733A20756E61626C6520746F2073656E642076616C75652C2072 PUSH1 0x44 DUP3 ADD MSTORE PUSH32 0x6563697069656E74206D61792068617665207265766572746564000000000000 PUSH1 0x64 DUP3 ADD MSTORE PUSH1 0x84 ADD PUSH2 0x4EF JUMP JUMPDEST POP POP PUSH1 0x1 ADD PUSH2 0xFC8 JUMP JUMPDEST POP DUP1 ISZERO PUSH2 0x7B0 JUMPI PUSH1 0x40 MLOAD PUSH3 0x461BCD PUSH1 0xE5 SHL DUP2 MSTORE PUSH1 0x20 PUSH1 0x4 DUP3 ADD MSTORE PUSH1 0x11 PUSH1 0x24 DUP3 ADD MSTORE PUSH17 0x151BDBC81B5D58DA08115512081CD95B9D PUSH1 0x7A SHL PUSH1 0x44 DUP3 ADD MSTORE PUSH1 0x64 ADD PUSH2 0x4EF JUMP JUMPDEST PUSH0 PUSH2 0x113F DUP5 CALLER DUP6 DUP6 PUSH2 0x1DBC JUMP JUMPDEST PUSH0 DUP7 DUP2 MSTORE PUSH1 0x4 PUSH1 0x20 MSTORE PUSH1 0x40 SWAP1 KECCAK256 SLOAD SWAP1 SWAP2 POP PUSH1 0x8 SHL PUSH1 0xFF NOT SWAP1 DUP2 AND SWAP1 DUP3 AND EQ PUSH2 0x11A9 JUMPI PUSH1 0x40 MLOAD PUSH3 0x461BCD PUSH1 0xE5 SHL DUP2 MSTORE PUSH1 0x20 PUSH1 0x4 DUP3 ADD MSTORE PUSH1 0x1E PUSH1 0x24 DUP3 ADD MSTORE PUSH32 0x506172616D7320646F206E6F74206D6174636820726571756573742049440000 PUSH1 0x44 DUP3 ADD MSTORE PUSH1 0x64 ADD PUSH2 0x4EF JUMP JUMPDEST TIMESTAMP DUP3 GT ISZERO PUSH2 0x11F2 JUMPI PUSH1 0x40 MLOAD PUSH3 0x461BCD PUSH1 0xE5 SHL DUP2 MSTORE PUSH1 0x20 PUSH1 0x4 DUP3 ADD MSTORE PUSH1 0x16 PUSH1 0x24 DUP3 ADD MSTORE PUSH22 0x14995C5D595CDD081A5CC81B9BDD08195E1C1A5C9959 PUSH1 0x52 SHL PUSH1 0x44 DUP3 ADD MSTORE PUSH1 0x64 ADD PUSH2 0x4EF JUMP JUMPDEST PUSH0 DUP6 DUP2 MSTORE PUSH1 0x4 PUSH1 0x20 MSTORE PUSH1 0x40 DUP1 DUP3 KECCAK256 DUP3 SWAP1 SSTORE MLOAD DUP7 SWAP2 PUSH32 0xA7842B9EC549398102C0D91B1B9919B2F20558AEFDADF57528A95C6CD3292E93 SWAP2 LOG2 DUP4 PUSH1 0x6 PUSH0 DUP3 DUP3 SLOAD PUSH2 0x123A SWAP2 SWAP1 PUSH2 0x27EF JUMP JUMPDEST SWAP1 SWAP2 SSTORE POP POP PUSH1 0x40 MLOAD PUSH4 0xA9059CBB PUSH1 0xE0 SHL DUP2 MSTORE CALLER PUSH1 0x4 DUP3 ADD MSTORE PUSH1 0x24 DUP2 ADD DUP6 SWAP1 MSTORE PUSH32 0x0 PUSH1 0x1 PUSH1 0x1 PUSH1 0xA0 SHL SUB AND SWAP1 PUSH4 0xA9059CBB SWAP1 PUSH1 0x44 ADD PUSH1 0x20 PUSH1 0x40 MLOAD DUP1 DUP4 SUB DUP2 PUSH0 DUP8 GAS CALL ISZERO DUP1 ISZERO PUSH2 0x12A9 JUMPI RETURNDATASIZE PUSH0 PUSH0 RETURNDATACOPY RETURNDATASIZE PUSH0 REVERT JUMPDEST POP POP POP POP PUSH1 0x40 MLOAD RETURNDATASIZE PUSH1 0x1F NOT PUSH1 0x1F DUP3 ADD AND DUP3 ADD DUP1 PUSH1 0x40 MSTORE POP DUP2 ADD SWAP1 PUSH2 0x12CD SWAP2 SWAP1 PUSH2 0x2808 JUMP JUMPDEST POP POP POP POP POP POP JUMP JUMPDEST PUSH1 0x3 SLOAD PUSH1 0x1 PUSH1 0x1 PUSH1 0xA0 SHL SUB AND CALLER EQ PUSH2 0x1328 JUMPI PUSH1 0x40 MLOAD PUSH3 0x461BCD PUSH1 0xE5 SHL DUP2 MSTORE PUSH1 0x20 PUSH1 0x4 DUP3 ADD MSTORE PUSH1 0x16 PUSH1 0x24 DUP3 ADD MSTORE PUSH22 0x26BAB9BA10313290383937B837B9B2B21037BBB732B9 PUSH1 0x51 SHL PUSH1 0x44 DUP3 ADD MSTORE PUSH1 0x64 ADD PUSH2 0x4EF JUMP JUMPDEST PUSH1 0x2 DUP1 SLOAD PUSH1 0x1 PUSH1 0x1 PUSH1 0xA0 SHL SUB NOT DUP1 DUP3 AND CALLER SWAP1 DUP2 OR SWAP1 SWAP4 SSTORE PUSH1 0x3 DUP1 SLOAD SWAP1 SWAP2 AND SWAP1 SSTORE PUSH1 0x40 MLOAD PUSH1 0x1 PUSH1 0x1 PUSH1 0xA0 SHL SUB SWAP1 SWAP2 AND SWAP2 SWAP1 DUP3 SWAP1 PUSH32 0x8BE0079C531659141344CD1FD0A4F28419497F9722A3DAAFE3B4186F6B6457E0 SWAP1 PUSH0 SWAP1 LOG3 POP JUMP JUMPDEST PUSH0 PUSH2 0x138B PUSH2 0x19C4 JUMP JUMPDEST DUP4 DUP1 PUSH2 0x1395 PUSH2 0x1D1C JUMP JUMPDEST LT ISZERO PUSH2 0x13B3 JUMPI PUSH1 0x40 MLOAD PUSH3 0x461BCD PUSH1 0xE5 SHL DUP2 MSTORE PUSH1 0x4 ADD PUSH2 0x4EF SWAP1 PUSH2 0x2827 JUMP JUMPDEST PUSH1 0x40 MLOAD PUSH4 0x2000575 PUSH1 0xE5 SHL DUP2 MSTORE PUSH1 0x1 PUSH1 0x1 PUSH1 0xA0 SHL SUB PUSH32 0x0 AND SWAP1 PUSH4 0x4000AEA0 SWAP1 PUSH2 0x1405 SWAP1 DUP10 SWAP1 DUP10 SWAP1 DUP10 SWAP1 DUP10 SWAP1 PUSH1 0x4 ADD PUSH2 0x287C JUMP JUMPDEST PUSH1 0x20 PUSH1 0x40 MLOAD DUP1 DUP4 SUB DUP2 PUSH0 DUP8 GAS CALL ISZERO DUP1 ISZERO PUSH2 0x1421 JUMPI RETURNDATASIZE PUSH0 PUSH0 RETURNDATACOPY RETURNDATASIZE PUSH0 REVERT JUMPDEST POP POP POP POP PUSH1 0x40 MLOAD RETURNDATASIZE PUSH1 0x1F NOT PUSH1 0x1F DUP3 ADD AND DUP3 ADD DUP1 PUSH1 0x40 MSTORE POP DUP2 ADD SWAP1 PUSH2 0x1445 SWAP2 SWAP1 PUSH2 0x2808 JUMP JUMPDEST SWAP7 SWAP6 POP POP POP POP POP POP JUMP JUMPDEST CALLER PUSH1 0x1 PUSH1 0x1 PUSH1 0xA0 SHL SUB PUSH32 0x0 AND EQ PUSH2 0x1497 JUMPI PUSH1 0x40 MLOAD PUSH3 0x461BCD PUSH1 0xE5 SHL DUP2 MSTORE PUSH1 0x4 ADD PUSH2 0x4EF SWAP1 PUSH2 0x26E5 JUMP JUMPDEST PUSH1 0x20 DUP2 ADD MLOAD DUP2 SWAP1 PUSH2 0x14A8 DUP2 DUP4 PUSH2 0x1E11 JUMP JUMPDEST DUP5 PUSH1 0x24 DUP5 ADD MSTORE DUP4 PUSH1 0x44 DUP5 ADD MSTORE PUSH0 ADDRESS PUSH1 0x1 PUSH1 0x1 PUSH1 0xA0 SHL SUB AND DUP5 PUSH1 0x40 MLOAD PUSH2 0x14CD SWAP2 SWAP1 PUSH2 0x27A2 JUMP JUMPDEST PUSH0 PUSH1 0x40 MLOAD DUP1 DUP4 SUB DUP2 DUP6 GAS DELEGATECALL SWAP2 POP POP RETURNDATASIZE DUP1 PUSH0 DUP2 EQ PUSH2 0x1505 JUMPI PUSH1 0x40 MLOAD SWAP2 POP PUSH1 0x1F NOT PUSH1 0x3F RETURNDATASIZE ADD AND DUP3 ADD PUSH1 0x40 MSTORE RETURNDATASIZE DUP3 MSTORE RETURNDATASIZE PUSH0 PUSH1 0x20 DUP5 ADD RETURNDATACOPY PUSH2 0x150A JUMP JUMPDEST PUSH1 0x60 SWAP2 POP JUMPDEST POP POP SWAP1 POP DUP1 PUSH2 0x12CD JUMPI PUSH1 0x40 MLOAD PUSH3 0x461BCD PUSH1 0xE5 SHL DUP2 MSTORE PUSH1 0x20 PUSH1 0x4 DUP3 ADD MSTORE PUSH1 0x18 PUSH1 0x24 DUP3 ADD MSTORE PUSH32 0x556E61626C6520746F2063726561746520726571756573740000000000000000 PUSH1 0x44 DUP3 ADD MSTORE PUSH1 0x64 ADD PUSH2 0x4EF JUMP JUMPDEST PUSH1 0x40 MLOAD PUSH1 0x1 PUSH1 0x1 PUSH1 0x60 SHL SUB NOT CALLER PUSH1 0x60 SHL AND PUSH1 0x20 DUP3 ADD MSTORE PUSH1 0x34 DUP2 ADD DUP6 SWAP1 MSTORE PUSH2 0x9B5 SWAP1 PUSH1 0x54 ADD PUSH1 0x40 MLOAD PUSH1 0x20 DUP2 DUP4 SUB SUB DUP2 MSTORE SWAP1 PUSH1 0x40 MSTORE DUP1 MLOAD SWAP1 PUSH1 0x20 ADD KECCAK256 DUP5 DUP5 DUP5 PUSH2 0x1132 JUMP JUMPDEST PUSH2 0x15A5 PUSH2 0x198A JUMP JUMPDEST PUSH2 0x15C1 JUMPI PUSH1 0x40 MLOAD PUSH3 0x461BCD PUSH1 0xE5 SHL DUP2 MSTORE PUSH1 0x4 ADD PUSH2 0x4EF SWAP1 PUSH2 0x268B JUMP JUMPDEST DUP1 PUSH2 0x160E JUMPI PUSH1 0x40 MLOAD PUSH3 0x461BCD PUSH1 0xE5 SHL DUP2 MSTORE PUSH1 0x20 PUSH1 0x4 DUP3 ADD MSTORE PUSH1 0x1B PUSH1 0x24 DUP3 ADD MSTORE PUSH32 0x4D7573742068617665206174206C6561737420312073656E6465720000000000 PUSH1 0x44 DUP3 ADD MSTORE PUSH1 0x64 ADD PUSH2 0x4EF JUMP JUMPDEST PUSH1 0x1 SLOAD PUSH0 JUMPDEST DUP2 DUP2 LT ISZERO PUSH2 0x166C JUMPI PUSH0 PUSH0 PUSH0 PUSH1 0x1 DUP5 DUP2 SLOAD DUP2 LT PUSH2 0x1631 JUMPI PUSH2 0x1631 PUSH2 0x26C2 JUMP JUMPDEST PUSH0 SWAP2 DUP3 MSTORE PUSH1 0x20 DUP1 DUP4 KECCAK256 SWAP2 SWAP1 SWAP2 ADD SLOAD PUSH1 0x1 PUSH1 0x1 PUSH1 0xA0 SHL SUB AND DUP4 MSTORE DUP3 ADD SWAP3 SWAP1 SWAP3 MSTORE PUSH1 0x40 ADD SWAP1 KECCAK256 DUP1 SLOAD PUSH1 0xFF NOT AND SWAP2 ISZERO ISZERO SWAP2 SWAP1 SWAP2 OR SWAP1 SSTORE PUSH1 0x1 ADD PUSH2 0x1613 JUMP JUMPDEST POP PUSH0 JUMPDEST DUP3 DUP2 LT ISZERO PUSH2 0x1763 JUMPI PUSH0 PUSH0 DUP6 DUP6 DUP5 DUP2 DUP2 LT PUSH2 0x168B JUMPI PUSH2 0x168B PUSH2 0x26C2 JUMP JUMPDEST SWAP1 POP PUSH1 0x20 MUL ADD PUSH1 0x20 DUP2 ADD SWAP1 PUSH2 0x16A0 SWAP2 SWAP1 PUSH2 0x263F JUMP JUMPDEST PUSH1 0x1 PUSH1 0x1 PUSH1 0xA0 SHL SUB AND DUP2 MSTORE PUSH1 0x20 DUP2 ADD SWAP2 SWAP1 SWAP2 MSTORE PUSH1 0x40 ADD PUSH0 KECCAK256 SLOAD PUSH1 0xFF AND ISZERO PUSH2 0x1709 JUMPI PUSH1 0x40 MLOAD PUSH3 0x461BCD PUSH1 0xE5 SHL DUP2 MSTORE PUSH1 0x20 PUSH1 0x4 DUP3 ADD MSTORE PUSH1 0x1F PUSH1 0x24 DUP3 ADD MSTORE PUSH32 0x4D757374206E6F742068617665206475706C69636174652073656E6465727300 PUSH1 0x44 DUP3 ADD MSTORE PUSH1 0x64 ADD PUSH2 0x4EF JUMP JUMPDEST PUSH1 0x1 PUSH0 PUSH0 DUP7 DUP7 DUP6 DUP2 DUP2 LT PUSH2 0x171F JUMPI PUSH2 0x171F PUSH2 0x26C2 JUMP JUMPDEST SWAP1 POP PUSH1 0x20 MUL ADD PUSH1 0x20 DUP2 ADD SWAP1 PUSH2 0x1734 SWAP2 SWAP1 PUSH2 0x263F JUMP JUMPDEST PUSH1 0x1 PUSH1 0x1 PUSH1 0xA0 SHL SUB AND DUP2 MSTORE PUSH1 0x20 DUP2 ADD SWAP2 SWAP1 SWAP2 MSTORE PUSH1 0x40 ADD PUSH0 KECCAK256 DUP1 SLOAD PUSH1 0xFF NOT AND SWAP2 ISZERO ISZERO SWAP2 SWAP1 SWAP2 OR SWAP1 SSTORE PUSH1 0x1 ADD PUSH2 0x166F JUMP JUMPDEST POP PUSH2 0x1770 PUSH1 0x1 DUP5 DUP5 PUSH2 0x1FFD JUMP JUMPDEST POP PUSH32 0xF263CFB3E4298332E776194610CF9FDC09CCB3ADA8B9AA39764D882E11FBF0A0 DUP4 DUP4 CALLER PUSH1 0x40 MLOAD PUSH2 0x17A4 SWAP4 SWAP3 SWAP2 SWAP1 PUSH2 0x28EB JUMP JUMPDEST PUSH1 0x40 MLOAD DUP1 SWAP2 SUB SWAP1 LOG1 POP POP POP JUMP JUMPDEST PUSH2 0x17B9 PUSH2 0x19C4 JUMP JUMPDEST PUSH2 0x17C2 DUP2 PUSH2 0x1EF0 JUMP JUMPDEST POP JUMP JUMPDEST PUSH2 0x17CD PUSH2 0x19C4 JUMP JUMPDEST DUP1 DUP1 PUSH2 0x17D7 PUSH2 0x1D1C JUMP JUMPDEST LT ISZERO PUSH2 0x17F5 JUMPI PUSH1 0x40 MLOAD PUSH3 0x461BCD PUSH1 0xE5 SHL DUP2 MSTORE PUSH1 0x4 ADD PUSH2 0x4EF SWAP1 PUSH2 0x2827 JUMP JUMPDEST PUSH1 0x40 MLOAD PUSH4 0xA9059CBB PUSH1 0xE0 SHL DUP2 MSTORE PUSH1 0x1 PUSH1 0x1 PUSH1 0xA0 SHL SUB DUP5 DUP2 AND PUSH1 0x4 DUP4 ADD MSTORE PUSH1 0x24 DUP3 ADD DUP5 SWAP1 MSTORE PUSH32 0x0 AND SWAP1 PUSH4 0xA9059CBB SWAP1 PUSH1 0x44 ADD PUSH1 0x20 PUSH1 0x40 MLOAD DUP1 DUP4 SUB DUP2 PUSH0 DUP8 GAS CALL ISZERO DUP1 ISZERO PUSH2 0x1861 JUMPI RETURNDATASIZE PUSH0 PUSH0 RETURNDATACOPY RETURNDATASIZE PUSH0 REVERT JUMPDEST POP POP POP POP PUSH1 0x40 MLOAD RETURNDATASIZE PUSH1 0x1F NOT PUSH1 0x1F DUP3 ADD AND DUP3 ADD DUP1 PUSH1 0x40 MSTORE POP DUP2 ADD SWAP1 PUSH2 0x1885 SWAP2 SWAP1 PUSH2 0x2808 JUMP JUMPDEST PUSH2 0x630 JUMPI PUSH2 0x630 PUSH2 0x2916 JUMP JUMPDEST PUSH2 0x1899 PUSH2 0x198A JUMP JUMPDEST PUSH2 0x18B5 JUMPI PUSH1 0x40 MLOAD PUSH3 0x461BCD PUSH1 0xE5 SHL DUP2 MSTORE PUSH1 0x4 ADD PUSH2 0x4EF SWAP1 PUSH2 0x268B JUMP JUMPDEST PUSH32 0x1BB185903E2CB2F1B303523128B60E314DEA81DF4F8D9B7351CADD344F6E7727 DUP5 DUP5 DUP5 DUP5 CALLER PUSH1 0x40 MLOAD PUSH2 0x18EC SWAP6 SWAP5 SWAP4 SWAP3 SWAP2 SWAP1 PUSH2 0x292A JUMP JUMPDEST PUSH1 0x40 MLOAD DUP1 SWAP2 SUB SWAP1 LOG1 PUSH0 JUMPDEST DUP4 DUP2 LT ISZERO PUSH2 0x7B0 JUMPI DUP5 DUP5 DUP3 DUP2 DUP2 LT PUSH2 0x1910 JUMPI PUSH2 0x1910 PUSH2 0x26C2 JUMP JUMPDEST SWAP1 POP PUSH1 0x20 MUL ADD PUSH1 0x20 DUP2 ADD SWAP1 PUSH2 0x1925 SWAP2 SWAP1 PUSH2 0x263F JUMP JUMPDEST PUSH1 0x1 PUSH1 0x1 PUSH1 0xA0 SHL SUB AND PUSH4 0xEE56997B DUP5 DUP5 PUSH1 0x40 MLOAD DUP4 PUSH4 0xFFFFFFFF AND PUSH1 0xE0 SHL DUP2 MSTORE PUSH1 0x4 ADD PUSH2 0x1952 SWAP3 SWAP2 SWAP1 PUSH2 0x296B JUMP JUMPDEST PUSH0 PUSH1 0x40 MLOAD DUP1 DUP4 SUB DUP2 PUSH0 DUP8 DUP1 EXTCODESIZE ISZERO DUP1 ISZERO PUSH2 0x1969 JUMPI PUSH0 PUSH0 REVERT JUMPDEST POP GAS CALL ISZERO DUP1 ISZERO PUSH2 0x197B JUMPI RETURNDATASIZE PUSH0 PUSH0 RETURNDATACOPY RETURNDATASIZE PUSH0 REVERT JUMPDEST POP POP POP POP DUP1 PUSH1 0x1 ADD SWAP1 POP PUSH2 0x18F6 JUMP JUMPDEST CALLER PUSH0 SWAP1 DUP2 MSTORE PUSH1 0x20 DUP2 SWAP1 MSTORE PUSH1 0x40 DUP2 KECCAK256 SLOAD PUSH1 0xFF AND DUP1 PUSH2 0xC91 JUMPI POP CALLER PUSH2 0x19B5 PUSH1 0x2 SLOAD PUSH1 0x1 PUSH1 0x1 PUSH1 0xA0 SHL SUB AND SWAP1 JUMP JUMPDEST PUSH1 0x1 PUSH1 0x1 PUSH1 0xA0 SHL SUB AND EQ SWAP1 POP SWAP1 JUMP JUMPDEST PUSH1 0x2 SLOAD PUSH1 0x1 PUSH1 0x1 PUSH1 0xA0 SHL SUB AND CALLER EQ PUSH2 0x1A17 JUMPI PUSH1 0x40 MLOAD PUSH3 0x461BCD PUSH1 0xE5 SHL DUP2 MSTORE PUSH1 0x20 PUSH1 0x4 DUP3 ADD MSTORE PUSH1 0x16 PUSH1 0x24 DUP3 ADD MSTORE PUSH22 0x27B7363C9031B0B63630B1363290313C9037BBB732B9 PUSH1 0x51 SHL PUSH1 0x44 DUP3 ADD MSTORE PUSH1 0x64 ADD PUSH2 0x4EF JUMP JUMPDEST JUMP JUMPDEST PUSH0 PUSH0 DUP6 PUSH32 0x0 PUSH1 0x1 PUSH1 0x1 PUSH1 0xA0 SHL SUB AND DUP2 PUSH1 0x1 PUSH1 0x1 PUSH1 0xA0 SHL SUB AND SUB PUSH2 0x1A93 JUMPI PUSH1 0x40 MLOAD PUSH3 0x461BCD PUSH1 0xE5 SHL DUP2 MSTORE PUSH1 0x20 PUSH1 0x4 DUP3 ADD MSTORE PUSH1 0x13 PUSH1 0x24 DUP3 ADD MSTORE PUSH19 0x43616E6E6F742063616C6C20746F204C494E4B PUSH1 0x68 SHL PUSH1 0x44 DUP3 ADD MSTORE PUSH1 0x64 ADD PUSH2 0x4EF JUMP JUMPDEST PUSH1 0x40 MLOAD PUSH1 0x1 PUSH1 0x1 PUSH1 0x60 SHL SUB NOT PUSH1 0x60 DUP12 SWAP1 SHL AND PUSH1 0x20 DUP3 ADD MSTORE PUSH1 0x34 DUP2 ADD DUP7 SWAP1 MSTORE PUSH1 0x54 ADD PUSH1 0x40 DUP1 MLOAD DUP1 DUP4 SUB PUSH1 0x1F NOT ADD DUP2 MSTORE SWAP2 DUP2 MSTORE DUP2 MLOAD PUSH1 0x20 SWAP3 DUP4 ADD KECCAK256 PUSH0 DUP2 DUP2 MSTORE PUSH1 0x4 SWAP1 SWAP4 MSTORE SWAP2 KECCAK256 SLOAD SWAP1 SWAP4 POP PUSH1 0x8 SHL PUSH1 0xFF NOT AND ISZERO PUSH2 0x1B26 JUMPI PUSH1 0x40 MLOAD PUSH3 0x461BCD PUSH1 0xE5 SHL DUP2 MSTORE PUSH1 0x20 PUSH1 0x4 DUP3 ADD MSTORE PUSH1 0x14 PUSH1 0x24 DUP3 ADD MSTORE PUSH20 0x135D5CDD081D5CD94818481D5B9A5C5D59481251 PUSH1 0x62 SHL PUSH1 0x44 DUP3 ADD MSTORE PUSH1 0x64 ADD PUSH2 0x4EF JUMP JUMPDEST PUSH2 0x1B32 PUSH2 0x12C TIMESTAMP PUSH2 0x2986 JUMP JUMPDEST SWAP2 POP PUSH0 PUSH2 0x1B41 DUP10 DUP10 DUP10 DUP7 PUSH2 0x1DBC JUMP JUMPDEST SWAP1 POP PUSH1 0x40 MLOAD DUP1 PUSH1 0x40 ADD PUSH1 0x40 MSTORE DUP1 DUP3 PUSH1 0xFF NOT AND DUP2 MSTORE PUSH1 0x20 ADD PUSH2 0x1B61 DUP8 PUSH2 0x1F99 JUMP JUMPDEST PUSH1 0xFF SWAP1 DUP2 AND SWAP1 SWAP2 MSTORE PUSH0 DUP7 DUP2 MSTORE PUSH1 0x4 PUSH1 0x20 SWAP1 DUP2 MSTORE PUSH1 0x40 SWAP1 SWAP2 KECCAK256 DUP4 MLOAD SWAP4 SWAP1 SWAP2 ADD MLOAD SWAP1 SWAP2 AND PUSH1 0x1 PUSH1 0xF8 SHL MUL PUSH1 0x8 SWAP3 SWAP1 SWAP3 SHR SWAP2 SWAP1 SWAP2 OR SWAP1 SSTORE PUSH1 0x6 SLOAD PUSH2 0x1BA3 SWAP1 DUP11 SWAP1 PUSH2 0x2986 JUMP JUMPDEST PUSH1 0x6 SSTORE POP POP SWAP7 POP SWAP7 SWAP5 POP POP POP POP POP JUMP JUMPDEST CALLER PUSH0 SWAP1 DUP2 MSTORE PUSH1 0x20 DUP2 SWAP1 MSTORE PUSH1 0x40 SWAP1 KECCAK256 SLOAD PUSH1 0xFF AND PUSH2 0x1A17 JUMPI PUSH1 0x40 MLOAD PUSH3 0x461BCD PUSH1 0xE5 SHL DUP2 MSTORE PUSH1 0x20 PUSH1 0x4 DUP3 ADD MSTORE PUSH1 0x15 PUSH1 0x24 DUP3 ADD MSTORE PUSH21 0x2737BA1030BABA3437B934BD32B21039B2B73232B9 PUSH1 0x59 SHL PUSH1 0x44 DUP3 ADD MSTORE PUSH1 0x64 ADD PUSH2 0x4EF JUMP JUMPDEST PUSH0 PUSH2 0x1C16 DUP7 DUP7 DUP7 DUP7 PUSH2 0x1DBC JUMP JUMPDEST PUSH0 DUP9 DUP2 MSTORE PUSH1 0x4 PUSH1 0x20 MSTORE PUSH1 0x40 SWAP1 KECCAK256 SLOAD SWAP1 SWAP2 POP PUSH1 0x8 SHL PUSH1 0xFF NOT SWAP1 DUP2 AND SWAP1 DUP3 AND EQ PUSH2 0x1C80 JUMPI PUSH1 0x40 MLOAD PUSH3 0x461BCD PUSH1 0xE5 SHL DUP2 MSTORE PUSH1 0x20 PUSH1 0x4 DUP3 ADD MSTORE PUSH1 0x1E PUSH1 0x24 DUP3 ADD MSTORE PUSH32 0x506172616D7320646F206E6F74206D6174636820726571756573742049440000 PUSH1 0x44 DUP3 ADD MSTORE PUSH1 0x64 ADD PUSH2 0x4EF JUMP JUMPDEST PUSH2 0x1C89 DUP3 PUSH2 0x1F99 JUMP JUMPDEST PUSH0 DUP9 DUP2 MSTORE PUSH1 0x4 PUSH1 0x20 MSTORE PUSH1 0x40 SWAP1 KECCAK256 SLOAD PUSH1 0xFF SWAP2 DUP3 AND PUSH1 0x1 PUSH1 0xF8 SHL SWAP1 SWAP2 DIV SWAP1 SWAP2 AND GT ISZERO PUSH2 0x1CF5 JUMPI PUSH1 0x40 MLOAD PUSH3 0x461BCD PUSH1 0xE5 SHL DUP2 MSTORE PUSH1 0x20 PUSH1 0x4 DUP3 ADD MSTORE PUSH1 0x18 PUSH1 0x24 DUP3 ADD MSTORE PUSH32 0x446174612076657273696F6E73206D757374206D617463680000000000000000 PUSH1 0x44 DUP3 ADD MSTORE PUSH1 0x64 ADD PUSH2 0x4EF JUMP JUMPDEST DUP6 PUSH1 0x6 SLOAD PUSH2 0x1D03 SWAP2 SWAP1 PUSH2 0x27EF JUMP JUMPDEST PUSH1 0x6 SSTORE POP POP POP PUSH0 SWAP4 DUP5 MSTORE POP POP PUSH1 0x4 PUSH1 0x20 MSTORE POP PUSH1 0x40 DUP2 KECCAK256 SSTORE JUMP JUMPDEST PUSH0 PUSH1 0x1 PUSH1 0x6 SLOAD PUSH2 0x1D2C SWAP2 SWAP1 PUSH2 0x27EF JUMP JUMPDEST PUSH1 0x40 MLOAD PUSH4 0x70A08231 PUSH1 0xE0 SHL DUP2 MSTORE ADDRESS PUSH1 0x4 DUP3 ADD MSTORE PUSH32 0x0 PUSH1 0x1 PUSH1 0x1 PUSH1 0xA0 SHL SUB AND SWAP1 PUSH4 0x70A08231 SWAP1 PUSH1 0x24 ADD PUSH1 0x20 PUSH1 0x40 MLOAD DUP1 DUP4 SUB DUP2 DUP7 GAS STATICCALL ISZERO DUP1 ISZERO PUSH2 0x1D8E JUMPI RETURNDATASIZE PUSH0 PUSH0 RETURNDATACOPY RETURNDATASIZE PUSH0 REVERT JUMPDEST POP POP POP POP PUSH1 0x40 MLOAD RETURNDATASIZE PUSH1 0x1F NOT PUSH1 0x1F DUP3 ADD AND DUP3 ADD DUP1 PUSH1 0x40 MSTORE POP DUP2 ADD SWAP1 PUSH2 0x1DB2 SWAP2 SWAP1 PUSH2 0x2999 JUMP JUMPDEST PUSH2 0xC91 SWAP2 SWAP1 PUSH2 0x27EF JUMP JUMPDEST PUSH1 0x40 DUP1 MLOAD PUSH1 0x20 DUP1 DUP3 ADD SWAP7 SWAP1 SWAP7 MSTORE PUSH1 0x60 SWAP5 SWAP1 SWAP5 SHL PUSH1 0x1 PUSH1 0x1 PUSH1 0x60 SHL SUB NOT AND DUP5 DUP3 ADD MSTORE PUSH1 0x1 PUSH1 0x1 PUSH1 0xE0 SHL SUB NOT SWAP3 SWAP1 SWAP3 AND PUSH1 0x54 DUP5 ADD MSTORE PUSH1 0x58 DUP1 DUP5 ADD SWAP2 SWAP1 SWAP2 MSTORE DUP2 MLOAD DUP1 DUP5 SUB SWAP1 SWAP2 ADD DUP2 MSTORE PUSH1 0x78 SWAP1 SWAP3 ADD SWAP1 MSTORE DUP1 MLOAD SWAP2 ADD KECCAK256 SWAP1 JUMP JUMPDEST PUSH2 0x1E1D PUSH1 0x2 PUSH1 0x20 PUSH2 0x29B0 JUMP JUMPDEST PUSH2 0x1E28 SWAP1 PUSH1 0x4 PUSH2 0x2986 JUMP JUMPDEST DUP2 MLOAD LT ISZERO PUSH2 0x1E71 JUMPI PUSH1 0x40 MLOAD PUSH3 0x461BCD PUSH1 0xE5 SHL DUP2 MSTORE PUSH1 0x20 PUSH1 0x4 DUP3 ADD MSTORE PUSH1 0x16 PUSH1 0x24 DUP3 ADD MSTORE PUSH22 0x92DCECC2D8D2C840E4CAE2EACAE6E840D8CADCCEE8D PUSH1 0x53 SHL PUSH1 0x44 DUP3 ADD MSTORE PUSH1 0x64 ADD PUSH2 0x4EF JUMP JUMPDEST PUSH1 0x1 PUSH1 0x1 PUSH1 0xE0 SHL SUB NOT DUP3 AND PUSH4 0x3C6D41B9 PUSH1 0xE0 SHL EQ DUP1 PUSH2 0x1EA0 JUMPI POP PUSH1 0x1 PUSH1 0x1 PUSH1 0xE0 SHL SUB NOT DUP3 AND PUSH4 0x20214CA3 PUSH1 0xE1 SHL EQ JUMPDEST PUSH2 0x1EEC JUMPI PUSH1 0x40 MLOAD PUSH3 0x461BCD PUSH1 0xE5 SHL DUP2 MSTORE PUSH1 0x20 PUSH1 0x4 DUP3 ADD MSTORE PUSH1 0x1E PUSH1 0x24 DUP3 ADD MSTORE PUSH32 0x4D757374207573652077686974656C69737465642066756E6374696F6E730000 PUSH1 0x44 DUP3 ADD MSTORE PUSH1 0x64 ADD PUSH2 0x4EF JUMP JUMPDEST POP POP JUMP JUMPDEST CALLER PUSH1 0x1 PUSH1 0x1 PUSH1 0xA0 SHL SUB DUP3 AND SUB PUSH2 0x1F48 JUMPI PUSH1 0x40 MLOAD PUSH3 0x461BCD PUSH1 0xE5 SHL DUP2 MSTORE PUSH1 0x20 PUSH1 0x4 DUP3 ADD MSTORE PUSH1 0x17 PUSH1 0x24 DUP3 ADD MSTORE PUSH32 0x43616E6E6F74207472616E7366657220746F2073656C66000000000000000000 PUSH1 0x44 DUP3 ADD MSTORE PUSH1 0x64 ADD PUSH2 0x4EF JUMP JUMPDEST PUSH1 0x3 DUP1 SLOAD PUSH1 0x1 PUSH1 0x1 PUSH1 0xA0 SHL SUB NOT AND PUSH1 0x1 PUSH1 0x1 PUSH1 0xA0 SHL SUB DUP4 DUP2 AND SWAP2 DUP3 OR SWAP1 SWAP3 SSTORE PUSH1 0x2 SLOAD PUSH1 0x40 MLOAD SWAP2 SWAP3 AND SWAP1 PUSH32 0xED8889F560326EB138920D842192F0EB3DD22B4F139C87A2C57538E05BAE1278 SWAP1 PUSH0 SWAP1 LOG3 POP JUMP JUMPDEST PUSH0 PUSH1 0xFF DUP3 GT ISZERO PUSH2 0x1FF9 JUMPI PUSH1 0x40 MLOAD PUSH3 0x461BCD PUSH1 0xE5 SHL DUP2 MSTORE PUSH1 0x20 PUSH1 0x4 DUP3 ADD MSTORE PUSH1 0x25 PUSH1 0x24 DUP3 ADD MSTORE PUSH32 0x53616665436173743A2076616C756520646F65736E27742066697420696E2038 PUSH1 0x44 DUP3 ADD MSTORE PUSH5 0x2062697473 PUSH1 0xD8 SHL PUSH1 0x64 DUP3 ADD MSTORE PUSH1 0x84 ADD PUSH2 0x4EF JUMP JUMPDEST POP SWAP1 JUMP JUMPDEST DUP3 DUP1 SLOAD DUP3 DUP3 SSTORE SWAP1 PUSH0 MSTORE PUSH1 0x20 PUSH0 KECCAK256 SWAP1 DUP2 ADD SWAP3 DUP3 ISZERO PUSH2 0x204E JUMPI SWAP2 PUSH1 0x20 MUL DUP3 ADD JUMPDEST DUP3 DUP2 GT ISZERO PUSH2 0x204E JUMPI DUP2 SLOAD PUSH1 0x1 PUSH1 0x1 PUSH1 0xA0 SHL SUB NOT AND PUSH1 0x1 PUSH1 0x1 PUSH1 0xA0 SHL SUB DUP5 CALLDATALOAD AND OR DUP3 SSTORE PUSH1 0x20 SWAP1 SWAP3 ADD SWAP2 PUSH1 0x1 SWAP1 SWAP2 ADD SWAP1 PUSH2 0x201B JUMP JUMPDEST POP PUSH2 0x1FF9 SWAP3 SWAP2 POP JUMPDEST DUP1 DUP3 GT ISZERO PUSH2 0x1FF9 JUMPI PUSH0 DUP2 SSTORE PUSH1 0x1 ADD PUSH2 0x2056 JUMP JUMPDEST PUSH0 PUSH0 DUP4 PUSH1 0x1F DUP5 ADD SLT PUSH2 0x2079 JUMPI PUSH0 PUSH0 REVERT JUMPDEST POP DUP2 CALLDATALOAD PUSH1 0x1 PUSH1 0x1 PUSH1 0x40 SHL SUB DUP2 GT ISZERO PUSH2 0x208F JUMPI PUSH0 PUSH0 REVERT JUMPDEST PUSH1 0x20 DUP4 ADD SWAP2 POP DUP4 PUSH1 0x20 DUP3 PUSH1 0x5 SHL DUP6 ADD ADD GT ISZERO PUSH2 0x20A9 JUMPI PUSH0 PUSH0 REVERT JUMPDEST SWAP3 POP SWAP3 SWAP1 POP JUMP JUMPDEST PUSH0 PUSH0 PUSH1 0x20 DUP4 DUP6 SUB SLT ISZERO PUSH2 0x20C1 JUMPI PUSH0 PUSH0 REVERT JUMPDEST DUP3 CALLDATALOAD PUSH1 0x1 PUSH1 0x1 PUSH1 0x40 SHL SUB DUP2 GT ISZERO PUSH2 0x20D6 JUMPI PUSH0 PUSH0 REVERT JUMPDEST PUSH2 0x20E2 DUP6 DUP3 DUP7 ADD PUSH2 0x2069 JUMP JUMPDEST SWAP1 SWAP7 SWAP1 SWAP6 POP SWAP4 POP POP POP POP JUMP JUMPDEST PUSH1 0x1 PUSH1 0x1 PUSH1 0xA0 SHL SUB DUP2 AND DUP2 EQ PUSH2 0x17C2 JUMPI PUSH0 PUSH0 REVERT JUMPDEST PUSH0 PUSH0 DUP4 PUSH1 0x1F DUP5 ADD SLT PUSH2 0x2112 JUMPI PUSH0 PUSH0 REVERT JUMPDEST POP DUP2 CALLDATALOAD PUSH1 0x1 PUSH1 0x1 PUSH1 0x40 SHL SUB DUP2 GT ISZERO PUSH2 0x2128 JUMPI PUSH0 PUSH0 REVERT JUMPDEST PUSH1 0x20 DUP4 ADD SWAP2 POP DUP4 PUSH1 0x20 DUP3 DUP6 ADD ADD GT ISZERO PUSH2 0x20A9 JUMPI PUSH0 PUSH0 REVERT JUMPDEST PUSH0 PUSH0 PUSH0 PUSH1 0x40 DUP5 DUP7 SUB SLT ISZERO PUSH2 0x2151 JUMPI PUSH0 PUSH0 REVERT JUMPDEST DUP4 CALLDATALOAD PUSH2 0x215C DUP2 PUSH2 0x20EE JUMP JUMPDEST SWAP3 POP PUSH1 0x20 DUP5 ADD CALLDATALOAD PUSH1 0x1 PUSH1 0x1 PUSH1 0x40 SHL SUB DUP2 GT ISZERO PUSH2 0x2176 JUMPI PUSH0 PUSH0 REVERT JUMPDEST PUSH2 0x2182 DUP7 DUP3 DUP8 ADD PUSH2 0x2102 JUMP JUMPDEST SWAP5 SWAP8 SWAP1 SWAP7 POP SWAP4 SWAP5 POP POP POP POP JUMP JUMPDEST PUSH1 0x20 DUP2 MSTORE PUSH0 DUP3 MLOAD DUP1 PUSH1 0x20 DUP5 ADD MSTORE DUP1 PUSH1 0x20 DUP6 ADD PUSH1 0x40 DUP6 ADD MCOPY PUSH0 PUSH1 0x40 DUP3 DUP6 ADD ADD MSTORE PUSH1 0x40 PUSH1 0x1F NOT PUSH1 0x1F DUP4 ADD AND DUP5 ADD ADD SWAP2 POP POP SWAP3 SWAP2 POP POP JUMP JUMPDEST PUSH1 0x20 DUP1 DUP3 MSTORE DUP3 MLOAD DUP3 DUP3 ADD DUP2 SWAP1 MSTORE PUSH0 SWAP2 DUP5 ADD SWAP1 PUSH1 0x40 DUP5 ADD SWAP1 DUP4 JUMPDEST DUP2 DUP2 LT ISZERO PUSH2 0x2204 JUMPI DUP4 MLOAD PUSH1 0x1 PUSH1 0x1 PUSH1 0xA0 SHL SUB AND DUP4 MSTORE PUSH1 0x20 SWAP4 DUP5 ADD SWAP4 SWAP1 SWAP3 ADD SWAP2 PUSH1 0x1 ADD PUSH2 0x21DD JUMP JUMPDEST POP SWAP1 SWAP6 SWAP5 POP POP POP POP POP JUMP JUMPDEST DUP1 CALLDATALOAD PUSH1 0x1 PUSH1 0x1 PUSH1 0xE0 SHL SUB NOT DUP2 AND DUP2 EQ PUSH2 0x2226 JUMPI PUSH0 PUSH0 REVERT JUMPDEST SWAP2 SWAP1 POP JUMP JUMPDEST PUSH0 PUSH0 PUSH0 PUSH0 PUSH0 PUSH0 PUSH0 PUSH0 PUSH1 0xE0 DUP10 DUP12 SUB SLT ISZERO PUSH2 0x2242 JUMPI PUSH0 PUSH0 REVERT JUMPDEST DUP9 CALLDATALOAD PUSH2 0x224D DUP2 PUSH2 0x20EE JUMP JUMPDEST SWAP8 POP PUSH1 0x20 DUP10 ADD CALLDATALOAD SWAP7 POP PUSH1 0x40 DUP10 ADD CALLDATALOAD SWAP6 POP PUSH2 0x2269 PUSH1 0x60 DUP11 ADD PUSH2 0x220F JUMP JUMPDEST SWAP5 POP PUSH1 0x80 DUP10 ADD CALLDATALOAD SWAP4 POP PUSH1 0xA0 DUP10 ADD CALLDATALOAD SWAP3 POP PUSH1 0xC0 DUP10 ADD CALLDATALOAD PUSH1 0x1 PUSH1 0x1 PUSH1 0x40 SHL SUB DUP2 GT ISZERO PUSH2 0x2291 JUMPI PUSH0 PUSH0 REVERT JUMPDEST PUSH2 0x229D DUP12 DUP3 DUP13 ADD PUSH2 0x2102 JUMP JUMPDEST SWAP10 SWAP13 SWAP9 SWAP12 POP SWAP7 SWAP10 POP SWAP5 SWAP8 SWAP4 SWAP7 SWAP3 SWAP6 SWAP5 POP POP POP JUMP JUMPDEST PUSH0 PUSH0 PUSH0 PUSH1 0x40 DUP5 DUP7 SUB SLT ISZERO PUSH2 0x22C3 JUMPI PUSH0 PUSH0 REVERT JUMPDEST DUP4 CALLDATALOAD PUSH1 0x1 PUSH1 0x1 PUSH1 0x40 SHL SUB DUP2 GT ISZERO PUSH2 0x22D8 JUMPI PUSH0 PUSH0 REVERT JUMPDEST PUSH2 0x22E4 DUP7 DUP3 DUP8 ADD PUSH2 0x2069 JUMP JUMPDEST SWAP1 SWAP5 POP SWAP3 POP POP PUSH1 0x20 DUP5 ADD CALLDATALOAD PUSH2 0x22F8 DUP2 PUSH2 0x20EE JUMP JUMPDEST DUP1 SWAP2 POP POP SWAP3 POP SWAP3 POP SWAP3 JUMP JUMPDEST PUSH0 PUSH0 PUSH0 PUSH0 PUSH0 PUSH0 PUSH0 PUSH0 PUSH0 PUSH2 0x100 DUP11 DUP13 SUB SLT ISZERO PUSH2 0x231C JUMPI PUSH0 PUSH0 REVERT JUMPDEST DUP10 CALLDATALOAD PUSH2 0x2327 DUP2 PUSH2 0x20EE JUMP JUMPDEST SWAP9 POP PUSH1 0x20 DUP11 ADD CALLDATALOAD SWAP8 POP PUSH1 0x40 DUP11 ADD CALLDATALOAD SWAP7 POP PUSH1 0x60 DUP11 ADD CALLDATALOAD PUSH2 0x2345 DUP2 PUSH2 0x20EE JUMP JUMPDEST SWAP6 POP PUSH2 0x2353 PUSH1 0x80 DUP12 ADD PUSH2 0x220F JUMP JUMPDEST SWAP5 POP PUSH1 0xA0 DUP11 ADD CALLDATALOAD SWAP4 POP PUSH1 0xC0 DUP11 ADD CALLDATALOAD SWAP3 POP PUSH1 0xE0 DUP11 ADD CALLDATALOAD PUSH1 0x1 PUSH1 0x1 PUSH1 0x40 SHL SUB DUP2 GT ISZERO PUSH2 0x237B JUMPI PUSH0 PUSH0 REVERT JUMPDEST PUSH2 0x2387 DUP13 DUP3 DUP14 ADD PUSH2 0x2102 JUMP JUMPDEST SWAP2 POP DUP1 SWAP4 POP POP DUP1 SWAP2 POP POP SWAP3 SWAP6 SWAP9 POP SWAP3 SWAP6 SWAP9 POP SWAP3 SWAP6 SWAP9 JUMP JUMPDEST PUSH0 PUSH0 PUSH0 PUSH0 PUSH0 PUSH0 PUSH1 0xC0 DUP8 DUP10 SUB SLT ISZERO PUSH2 0x23B3 JUMPI PUSH0 PUSH0 REVERT JUMPDEST DUP7 CALLDATALOAD SWAP6 POP PUSH1 0x20 DUP8 ADD CALLDATALOAD SWAP5 POP PUSH1 0x40 DUP8 ADD CALLDATALOAD PUSH2 0x23CC DUP2 PUSH2 0x20EE JUMP JUMPDEST SWAP4 POP PUSH2 0x23DA PUSH1 0x60 DUP9 ADD PUSH2 0x220F JUMP JUMPDEST SWAP6 SWAP9 SWAP5 SWAP8 POP SWAP3 SWAP6 PUSH1 0x80 DUP2 ADD CALLDATALOAD SWAP5 PUSH1 0xA0 SWAP1 SWAP2 ADD CALLDATALOAD SWAP4 POP SWAP2 POP POP JUMP JUMPDEST PUSH0 PUSH0 PUSH0 PUSH0 PUSH1 0x40 DUP6 DUP8 SUB SLT ISZERO PUSH2 0x2407 JUMPI PUSH0 PUSH0 REVERT JUMPDEST DUP5 CALLDATALOAD PUSH1 0x1 PUSH1 0x1 PUSH1 0x40 SHL SUB DUP2 GT ISZERO PUSH2 0x241C JUMPI PUSH0 PUSH0 REVERT JUMPDEST PUSH2 0x2428 DUP8 DUP3 DUP9 ADD PUSH2 0x2069 JUMP JUMPDEST SWAP1 SWAP6 POP SWAP4 POP POP PUSH1 0x20 DUP6 ADD CALLDATALOAD PUSH1 0x1 PUSH1 0x1 PUSH1 0x40 SHL SUB DUP2 GT ISZERO PUSH2 0x2446 JUMPI PUSH0 PUSH0 REVERT JUMPDEST PUSH2 0x2452 DUP8 DUP3 DUP9 ADD PUSH2 0x2069 JUMP JUMPDEST SWAP6 SWAP9 SWAP5 SWAP8 POP SWAP6 POP POP POP POP JUMP JUMPDEST PUSH0 PUSH0 PUSH0 PUSH0 PUSH0 PUSH0 PUSH0 PUSH1 0xC0 DUP9 DUP11 SUB SLT ISZERO PUSH2 0x2474 JUMPI PUSH0 PUSH0 REVERT JUMPDEST DUP8 CALLDATALOAD SWAP7 POP PUSH1 0x20 DUP9 ADD CALLDATALOAD SWAP6 POP PUSH1 0x40 DUP9 ADD CALLDATALOAD PUSH2 0x248D DUP2 PUSH2 0x20EE JUMP JUMPDEST SWAP5 POP PUSH2 0x249B PUSH1 0x60 DUP10 ADD PUSH2 0x220F JUMP JUMPDEST SWAP4 POP PUSH1 0x80 DUP9 ADD CALLDATALOAD SWAP3 POP PUSH1 0xA0 DUP9 ADD CALLDATALOAD PUSH1 0x1 PUSH1 0x1 PUSH1 0x40 SHL SUB DUP2 GT ISZERO PUSH2 0x24BC JUMPI PUSH0 PUSH0 REVERT JUMPDEST PUSH2 0x24C8 DUP11 DUP3 DUP12 ADD PUSH2 0x2102 JUMP JUMPDEST SWAP9 SWAP12 SWAP8 SWAP11 POP SWAP6 SWAP9 POP SWAP4 SWAP7 SWAP3 SWAP6 SWAP3 SWAP4 POP POP POP JUMP JUMPDEST PUSH0 PUSH0 PUSH0 PUSH0 PUSH1 0x80 DUP6 DUP8 SUB SLT ISZERO PUSH2 0x24EE JUMPI PUSH0 PUSH0 REVERT JUMPDEST DUP5 CALLDATALOAD SWAP4 POP PUSH1 0x20 DUP6 ADD CALLDATALOAD SWAP3 POP PUSH2 0x2505 PUSH1 0x40 DUP7 ADD PUSH2 0x220F JUMP JUMPDEST SWAP4 SWAP7 SWAP3 SWAP6 POP SWAP3 SWAP4 PUSH1 0x60 ADD CALLDATALOAD SWAP3 POP POP JUMP JUMPDEST PUSH0 PUSH0 PUSH0 PUSH0 PUSH1 0x60 DUP6 DUP8 SUB SLT ISZERO PUSH2 0x2528 JUMPI PUSH0 PUSH0 REVERT JUMPDEST DUP5 CALLDATALOAD PUSH2 0x2533 DUP2 PUSH2 0x20EE JUMP JUMPDEST SWAP4 POP PUSH1 0x20 DUP6 ADD CALLDATALOAD SWAP3 POP PUSH1 0x40 DUP6 ADD CALLDATALOAD PUSH1 0x1 PUSH1 0x1 PUSH1 0x40 SHL SUB DUP2 GT ISZERO PUSH2 0x2554 JUMPI PUSH0 PUSH0 REVERT JUMPDEST PUSH2 0x2452 DUP8 DUP3 DUP9 ADD PUSH2 0x2102 JUMP JUMPDEST PUSH4 0x4E487B71 PUSH1 0xE0 SHL PUSH0 MSTORE PUSH1 0x41 PUSH1 0x4 MSTORE PUSH1 0x24 PUSH0 REVERT JUMPDEST PUSH0 PUSH0 PUSH0 PUSH1 0x60 DUP5 DUP7 SUB SLT ISZERO PUSH2 0x2586 JUMPI PUSH0 PUSH0 REVERT JUMPDEST DUP4 CALLDATALOAD PUSH2 0x2591 DUP2 PUSH2 0x20EE JUMP JUMPDEST SWAP3 POP PUSH1 0x20 DUP5 ADD CALLDATALOAD SWAP2 POP PUSH1 0x40 DUP5 ADD CALLDATALOAD PUSH1 0x1 PUSH1 0x1 PUSH1 0x40 SHL SUB DUP2 GT ISZERO PUSH2 0x25B2 JUMPI PUSH0 PUSH0 REVERT JUMPDEST DUP5 ADD PUSH1 0x1F DUP2 ADD DUP7 SGT PUSH2 0x25C2 JUMPI PUSH0 PUSH0 REVERT JUMPDEST DUP1 CALLDATALOAD PUSH1 0x1 PUSH1 0x1 PUSH1 0x40 SHL SUB DUP2 GT ISZERO PUSH2 0x25DB JUMPI PUSH2 0x25DB PUSH2 0x2560 JUMP JUMPDEST PUSH1 0x40 MLOAD PUSH1 0x1F DUP3 ADD PUSH1 0x1F NOT SWAP1 DUP2 AND PUSH1 0x3F ADD AND DUP2 ADD PUSH1 0x1 PUSH1 0x1 PUSH1 0x40 SHL SUB DUP2 GT DUP3 DUP3 LT OR ISZERO PUSH2 0x2609 JUMPI PUSH2 0x2609 PUSH2 0x2560 JUMP JUMPDEST PUSH1 0x40 MSTORE DUP2 DUP2 MSTORE DUP3 DUP3 ADD PUSH1 0x20 ADD DUP9 LT ISZERO PUSH2 0x2620 JUMPI PUSH0 PUSH0 REVERT JUMPDEST DUP2 PUSH1 0x20 DUP5 ADD PUSH1 0x20 DUP4 ADD CALLDATACOPY PUSH0 PUSH1 0x20 DUP4 DUP4 ADD ADD MSTORE DUP1 SWAP4 POP POP POP POP SWAP3 POP SWAP3 POP SWAP3 JUMP JUMPDEST PUSH0 PUSH1 0x20 DUP3 DUP5 SUB SLT ISZERO PUSH2 0x264F JUMPI PUSH0 PUSH0 REVERT JUMPDEST DUP2 CALLDATALOAD PUSH2 0x265A DUP2 PUSH2 0x20EE JUMP JUMPDEST SWAP4 SWAP3 POP POP POP JUMP JUMPDEST PUSH0 PUSH0 PUSH1 0x40 DUP4 DUP6 SUB SLT ISZERO PUSH2 0x2672 JUMPI PUSH0 PUSH0 REVERT JUMPDEST DUP3 CALLDATALOAD PUSH2 0x267D DUP2 PUSH2 0x20EE JUMP JUMPDEST SWAP5 PUSH1 0x20 SWAP4 SWAP1 SWAP4 ADD CALLDATALOAD SWAP4 POP POP POP JUMP JUMPDEST PUSH1 0x20 DUP1 DUP3 MSTORE PUSH1 0x1D SWAP1 DUP3 ADD MSTORE PUSH32 0x43616E6E6F742073657420617574686F72697A65642073656E64657273000000 PUSH1 0x40 DUP3 ADD MSTORE PUSH1 0x60 ADD SWAP1 JUMP JUMPDEST PUSH4 0x4E487B71 PUSH1 0xE0 SHL PUSH0 MSTORE PUSH1 0x32 PUSH1 0x4 MSTORE PUSH1 0x24 PUSH0 REVERT JUMPDEST DUP2 DUP4 DUP3 CALLDATACOPY PUSH0 SWAP2 ADD SWAP1 DUP2 MSTORE SWAP2 SWAP1 POP JUMP JUMPDEST PUSH1 0x20 DUP1 DUP3 MSTORE PUSH1 0x13 SWAP1 DUP3 ADD MSTORE PUSH19 0x26BAB9BA103AB9B2902624A725903A37B5B2B7 PUSH1 0x69 SHL PUSH1 0x40 DUP3 ADD MSTORE PUSH1 0x60 ADD SWAP1 JUMP JUMPDEST DUP2 DUP4 MSTORE DUP2 DUP2 PUSH1 0x20 DUP6 ADD CALLDATACOPY POP PUSH0 DUP3 DUP3 ADD PUSH1 0x20 SWAP1 DUP2 ADD SWAP2 SWAP1 SWAP2 MSTORE PUSH1 0x1F SWAP1 SWAP2 ADD PUSH1 0x1F NOT AND SWAP1 SWAP2 ADD ADD SWAP1 JUMP JUMPDEST PUSH1 0x1 PUSH1 0x1 PUSH1 0xA0 SHL SUB DUP11 DUP2 AND DUP3 MSTORE PUSH1 0x20 DUP3 ADD DUP11 SWAP1 MSTORE PUSH1 0x40 DUP3 ADD DUP10 SWAP1 MSTORE DUP8 AND PUSH1 0x60 DUP3 ADD MSTORE PUSH1 0x1 PUSH1 0x1 PUSH1 0xE0 SHL SUB NOT DUP7 AND PUSH1 0x80 DUP3 ADD MSTORE PUSH1 0xA0 DUP2 ADD DUP6 SWAP1 MSTORE PUSH1 0xC0 DUP2 ADD DUP5 SWAP1 MSTORE PUSH2 0x100 PUSH1 0xE0 DUP3 ADD DUP2 SWAP1 MSTORE PUSH0 SWAP1 PUSH2 0x2793 SWAP1 DUP4 ADD DUP5 DUP7 PUSH2 0x2712 JUMP JUMPDEST SWAP12 SWAP11 POP POP POP POP POP POP POP POP POP POP POP JUMP JUMPDEST PUSH0 DUP3 MLOAD DUP1 PUSH1 0x20 DUP6 ADD DUP5 MCOPY PUSH0 SWAP3 ADD SWAP2 DUP3 MSTORE POP SWAP2 SWAP1 POP JUMP JUMPDEST PUSH1 0x1 PUSH1 0x1 PUSH1 0xE0 SHL SUB NOT DUP5 AND DUP2 MSTORE DUP2 DUP4 PUSH1 0x4 DUP4 ADD CALLDATACOPY PUSH0 SWAP2 ADD PUSH1 0x4 ADD SWAP1 DUP2 MSTORE SWAP3 SWAP2 POP POP JUMP JUMPDEST PUSH4 0x4E487B71 PUSH1 0xE0 SHL PUSH0 MSTORE PUSH1 0x11 PUSH1 0x4 MSTORE PUSH1 0x24 PUSH0 REVERT JUMPDEST DUP2 DUP2 SUB DUP2 DUP2 GT ISZERO PUSH2 0x2802 JUMPI PUSH2 0x2802 PUSH2 0x27DB JUMP JUMPDEST SWAP3 SWAP2 POP POP JUMP JUMPDEST PUSH0 PUSH1 0x20 DUP3 DUP5 SUB SLT ISZERO PUSH2 0x2818 JUMPI PUSH0 PUSH0 REVERT JUMPDEST DUP2 MLOAD DUP1 ISZERO ISZERO DUP2 EQ PUSH2 0x265A JUMPI PUSH0 PUSH0 REVERT JUMPDEST PUSH1 0x20 DUP1 DUP3 MSTORE PUSH1 0x35 SWAP1 DUP3 ADD MSTORE PUSH32 0x416D6F756E74207265717565737465642069732067726561746572207468616E PUSH1 0x40 DUP3 ADD MSTORE PUSH21 0x20776974686472617761626C652062616C616E6365 PUSH1 0x58 SHL PUSH1 0x60 DUP3 ADD MSTORE PUSH1 0x80 ADD SWAP1 JUMP JUMPDEST PUSH1 0x1 DUP1 PUSH1 0xA0 SHL SUB DUP6 AND DUP2 MSTORE DUP4 PUSH1 0x20 DUP3 ADD MSTORE PUSH1 0x60 PUSH1 0x40 DUP3 ADD MSTORE PUSH0 PUSH2 0x1445 PUSH1 0x60 DUP4 ADD DUP5 DUP7 PUSH2 0x2712 JUMP JUMPDEST DUP2 DUP4 MSTORE PUSH1 0x20 DUP4 ADD SWAP3 POP PUSH0 DUP2 PUSH0 JUMPDEST DUP5 DUP2 LT ISZERO PUSH2 0x28E1 JUMPI DUP2 CALLDATALOAD PUSH2 0x28C3 DUP2 PUSH2 0x20EE JUMP JUMPDEST PUSH1 0x1 PUSH1 0x1 PUSH1 0xA0 SHL SUB AND DUP7 MSTORE PUSH1 0x20 SWAP6 DUP7 ADD SWAP6 SWAP2 SWAP1 SWAP2 ADD SWAP1 PUSH1 0x1 ADD PUSH2 0x28B0 JUMP JUMPDEST POP SWAP4 SWAP5 SWAP4 POP POP POP POP JUMP JUMPDEST PUSH1 0x40 DUP2 MSTORE PUSH0 PUSH2 0x28FE PUSH1 0x40 DUP4 ADD DUP6 DUP8 PUSH2 0x28A3 JUMP JUMPDEST SWAP1 POP PUSH1 0x1 DUP1 PUSH1 0xA0 SHL SUB DUP4 AND PUSH1 0x20 DUP4 ADD MSTORE SWAP5 SWAP4 POP POP POP POP JUMP JUMPDEST PUSH4 0x4E487B71 PUSH1 0xE0 SHL PUSH0 MSTORE PUSH1 0x1 PUSH1 0x4 MSTORE PUSH1 0x24 PUSH0 REVERT JUMPDEST PUSH1 0x60 DUP2 MSTORE PUSH0 PUSH2 0x293D PUSH1 0x60 DUP4 ADD DUP8 DUP10 PUSH2 0x28A3 JUMP JUMPDEST DUP3 DUP2 SUB PUSH1 0x20 DUP5 ADD MSTORE PUSH2 0x2950 DUP2 DUP7 DUP9 PUSH2 0x28A3 JUMP JUMPDEST SWAP2 POP POP PUSH1 0x1 DUP1 PUSH1 0xA0 SHL SUB DUP4 AND PUSH1 0x40 DUP4 ADD MSTORE SWAP7 SWAP6 POP POP POP POP POP POP JUMP JUMPDEST PUSH1 0x20 DUP2 MSTORE PUSH0 PUSH2 0x297E PUSH1 0x20 DUP4 ADD DUP5 DUP7 PUSH2 0x28A3 JUMP JUMPDEST SWAP5 SWAP4 POP POP POP POP JUMP JUMPDEST DUP1 DUP3 ADD DUP1 DUP3 GT ISZERO PUSH2 0x2802 JUMPI PUSH2 0x2802 PUSH2 0x27DB JUMP JUMPDEST PUSH0 PUSH1 0x20 DUP3 DUP5 SUB SLT ISZERO PUSH2 0x29A9 JUMPI PUSH0 PUSH0 REVERT JUMPDEST POP MLOAD SWAP2 SWAP1 POP JUMP JUMPDEST DUP1 DUP3 MUL DUP2 ISZERO DUP3 DUP3 DIV DUP5 EQ OR PUSH2 0x2802 JUMPI PUSH2 0x2802 PUSH2 0x27DB JUMP INVALID LOG2 PUSH5 0x6970667358 0x22 SLT KECCAK256 0xAE 0xBB 0x4F SIGNEXTEND DUP4 ADDMOD GASLIMIT ADDMOD DUP5 JUMPI 0x1F PUSH26 0x5C7313C591A10C245DDBFAEDA9FC6DE97F6ADBE964736F6C6343 STOP ADDMOD SAR STOP CALLER PUSH1 0x80 PUSH1 0x40 MSTORE PUSH1 0x1 PUSH1 0x4 SSTORE CALLVALUE DUP1 ISZERO PUSH2 0x14 JUMPI PUSH0 PUSH0 REVERT JUMPDEST POP CALLER DUP1 PUSH0 DUP2 PUSH2 0x6A JUMPI PUSH1 0x40 MLOAD PUSH3 0x461BCD PUSH1 0xE5 SHL DUP2 MSTORE PUSH1 0x20 PUSH1 0x4 DUP3 ADD MSTORE PUSH1 0x18 PUSH1 0x24 DUP3 ADD MSTORE PUSH32 0x43616E6E6F7420736574206F776E657220746F207A65726F0000000000000000 PUSH1 0x44 DUP3 ADD MSTORE PUSH1 0x64 ADD JUMPDEST PUSH1 0x40 MLOAD DUP1 SWAP2 SUB SWAP1 REVERT JUMPDEST PUSH1 0x6 DUP1 SLOAD PUSH1 0x1 PUSH1 0x1 PUSH1 0xA0 SHL SUB NOT AND PUSH1 0x1 PUSH1 0x1 PUSH1 0xA0 SHL SUB DUP5 DUP2 AND SWAP2 SWAP1 SWAP2 OR SWAP1 SWAP2 SSTORE DUP2 AND ISZERO PUSH2 0x9A JUMPI PUSH2 0x9A DUP2 PUSH2 0xC5 JUMP JUMPDEST POP POP POP PUSH2 0xC0 PUSH20 0x779877A7B0D9E8603169DDBD7836E478B4624789 PUSH2 0x16E PUSH1 0x20 SHL PUSH1 0x20 SHR JUMP JUMPDEST PUSH2 0x190 JUMP JUMPDEST CALLER PUSH1 0x1 PUSH1 0x1 PUSH1 0xA0 SHL SUB DUP3 AND SUB PUSH2 0x11D JUMPI PUSH1 0x40 MLOAD PUSH3 0x461BCD PUSH1 0xE5 SHL DUP2 MSTORE PUSH1 0x20 PUSH1 0x4 DUP3 ADD MSTORE PUSH1 0x17 PUSH1 0x24 DUP3 ADD MSTORE PUSH32 0x43616E6E6F74207472616E7366657220746F2073656C66000000000000000000 PUSH1 0x44 DUP3 ADD MSTORE PUSH1 0x64 ADD PUSH2 0x61 JUMP JUMPDEST PUSH1 0x7 DUP1 SLOAD PUSH1 0x1 PUSH1 0x1 PUSH1 0xA0 SHL SUB NOT AND PUSH1 0x1 PUSH1 0x1 PUSH1 0xA0 SHL SUB DUP4 DUP2 AND SWAP2 DUP3 OR SWAP1 SWAP3 SSTORE PUSH1 0x6 SLOAD PUSH1 0x40 MLOAD SWAP2 SWAP3 AND SWAP1 PUSH32 0xED8889F560326EB138920D842192F0EB3DD22B4F139C87A2C57538E05BAE1278 SWAP1 PUSH0 SWAP1 LOG3 POP JUMP JUMPDEST PUSH1 0x2 DUP1 SLOAD PUSH1 0x1 PUSH1 0x1 PUSH1 0xA0 SHL SUB NOT AND PUSH1 0x1 PUSH1 0x1 PUSH1 0xA0 SHL SUB SWAP3 SWAP1 SWAP3 AND SWAP2 SWAP1 SWAP2 OR SWAP1 SSTORE JUMP JUMPDEST PUSH2 0x17FD DUP1 PUSH2 0x19D PUSH0 CODECOPY PUSH0 RETURN INVALID PUSH1 0x80 PUSH1 0x40 MSTORE CALLVALUE DUP1 ISZERO PUSH2 0xF JUMPI PUSH0 PUSH0 REVERT JUMPDEST POP PUSH1 0x4 CALLDATASIZE LT PUSH2 0x85 JUMPI PUSH0 CALLDATALOAD PUSH1 0xE0 SHR DUP1 PUSH4 0xB86F58FE GT PUSH2 0x58 JUMPI DUP1 PUSH4 0xB86F58FE EQ PUSH2 0xDF JUMPI DUP1 PUSH4 0xD65E005E EQ PUSH2 0xE7 JUMPI DUP1 PUSH4 0xF0BA8440 EQ PUSH2 0xFA JUMPI DUP1 PUSH4 0xF2FDE38B EQ PUSH2 0x10D JUMPI PUSH0 PUSH0 REVERT JUMPDEST DUP1 PUSH4 0x9BD5A60 EQ PUSH2 0x89 JUMPI DUP1 PUSH4 0x3E9DB5E5 EQ PUSH2 0xA7 JUMPI DUP1 PUSH4 0x79BA5097 EQ PUSH2 0xBC JUMPI DUP1 PUSH4 0x8DA5CB5B EQ PUSH2 0xC4 JUMPI JUMPDEST PUSH0 PUSH0 REVERT JUMPDEST PUSH2 0x91 PUSH2 0x120 JUMP JUMPDEST PUSH1 0x40 MLOAD PUSH2 0x9E SWAP2 SWAP1 PUSH2 0x1205 JUMP JUMPDEST PUSH1 0x40 MLOAD DUP1 SWAP2 SUB SWAP1 RETURN JUMPDEST PUSH2 0xBA PUSH2 0xB5 CALLDATASIZE PUSH1 0x4 PUSH2 0x12B4 JUMP JUMPDEST PUSH2 0x1AC JUMP JUMPDEST STOP JUMPDEST PUSH2 0xBA PUSH2 0x2C2 JUMP JUMPDEST PUSH1 0x6 SLOAD PUSH1 0x40 MLOAD PUSH1 0x1 PUSH1 0x1 PUSH1 0xA0 SHL SUB SWAP1 SWAP2 AND DUP2 MSTORE PUSH1 0x20 ADD PUSH2 0x9E JUMP JUMPDEST PUSH2 0x91 PUSH2 0x36F JUMP JUMPDEST PUSH2 0xBA PUSH2 0xF5 CALLDATASIZE PUSH1 0x4 PUSH2 0x13A2 JUMP JUMPDEST PUSH2 0x37C JUMP JUMPDEST PUSH2 0x91 PUSH2 0x108 CALLDATASIZE PUSH1 0x4 PUSH2 0x13C8 JUMP JUMPDEST PUSH2 0xA05 JUMP JUMPDEST PUSH2 0xBA PUSH2 0x11B CALLDATASIZE PUSH1 0x4 PUSH2 0x13A2 JUMP JUMPDEST PUSH2 0xA2C JUMP JUMPDEST PUSH1 0x9 DUP1 SLOAD PUSH2 0x12D SWAP1 PUSH2 0x13DF JUMP JUMPDEST DUP1 PUSH1 0x1F ADD PUSH1 0x20 DUP1 SWAP2 DIV MUL PUSH1 0x20 ADD PUSH1 0x40 MLOAD SWAP1 DUP2 ADD PUSH1 0x40 MSTORE DUP1 SWAP3 SWAP2 SWAP1 DUP2 DUP2 MSTORE PUSH1 0x20 ADD DUP3 DUP1 SLOAD PUSH2 0x159 SWAP1 PUSH2 0x13DF JUMP JUMPDEST DUP1 ISZERO PUSH2 0x1A4 JUMPI DUP1 PUSH1 0x1F LT PUSH2 0x17B JUMPI PUSH2 0x100 DUP1 DUP4 SLOAD DIV MUL DUP4 MSTORE SWAP2 PUSH1 0x20 ADD SWAP2 PUSH2 0x1A4 JUMP JUMPDEST DUP3 ADD SWAP2 SWAP1 PUSH0 MSTORE PUSH1 0x20 PUSH0 KECCAK256 SWAP1 JUMPDEST DUP2 SLOAD DUP2 MSTORE SWAP1 PUSH1 0x1 ADD SWAP1 PUSH1 0x20 ADD DUP1 DUP4 GT PUSH2 0x187 JUMPI DUP3 SWAP1 SUB PUSH1 0x1F AND DUP3 ADD SWAP2 JUMPDEST POP POP POP POP POP DUP2 JUMP JUMPDEST PUSH0 DUP11 DUP2 MSTORE PUSH1 0x5 PUSH1 0x20 MSTORE PUSH1 0x40 SWAP1 KECCAK256 SLOAD DUP11 SWAP1 PUSH1 0x1 PUSH1 0x1 PUSH1 0xA0 SHL SUB AND CALLER EQ PUSH2 0x229 JUMPI PUSH1 0x40 MLOAD PUSH3 0x461BCD PUSH1 0xE5 SHL DUP2 MSTORE PUSH1 0x20 PUSH1 0x4 DUP3 ADD MSTORE PUSH1 0x28 PUSH1 0x24 DUP3 ADD MSTORE PUSH32 0x536F75726365206D75737420626520746865206F7261636C65206F6620746865 PUSH1 0x44 DUP3 ADD MSTORE PUSH8 0x81C995C5D595CDD PUSH1 0xC2 SHL PUSH1 0x64 DUP3 ADD MSTORE PUSH1 0x84 ADD JUMPDEST PUSH1 0x40 MLOAD DUP1 SWAP2 SUB SWAP1 REVERT JUMPDEST PUSH0 DUP2 DUP2 MSTORE PUSH1 0x5 PUSH1 0x20 MSTORE PUSH1 0x40 DUP1 DUP3 KECCAK256 DUP1 SLOAD PUSH1 0x1 PUSH1 0x1 PUSH1 0xA0 SHL SUB NOT AND SWAP1 SSTORE MLOAD DUP3 SWAP2 PUSH32 0x7CC135E0CEBB02C3480AE5D74D377283180A2601F8F644EDF7987B009316C63A SWAP2 LOG2 PUSH1 0x9 PUSH2 0x277 DUP10 DUP3 PUSH2 0x145C JUMP JUMPDEST POP DUP10 DUP10 DUP9 DUP9 DUP9 DUP9 DUP9 DUP9 PUSH1 0x40 MLOAD PUSH1 0x20 ADD PUSH2 0x297 SWAP9 SWAP8 SWAP7 SWAP6 SWAP5 SWAP4 SWAP3 SWAP2 SWAP1 PUSH2 0x152D JUMP JUMPDEST PUSH1 0x40 MLOAD PUSH1 0x20 DUP2 DUP4 SUB SUB DUP2 MSTORE SWAP1 PUSH1 0x40 MSTORE PUSH1 0xA SWAP1 DUP2 PUSH2 0x2B4 SWAP2 SWAP1 PUSH2 0x145C JUMP JUMPDEST POP POP POP POP POP POP POP POP POP POP POP POP JUMP JUMPDEST PUSH1 0x7 SLOAD PUSH1 0x1 PUSH1 0x1 PUSH1 0xA0 SHL SUB AND CALLER EQ PUSH2 0x315 JUMPI PUSH1 0x40 MLOAD PUSH3 0x461BCD PUSH1 0xE5 SHL DUP2 MSTORE PUSH1 0x20 PUSH1 0x4 DUP3 ADD MSTORE PUSH1 0x16 PUSH1 0x24 DUP3 ADD MSTORE PUSH22 0x26BAB9BA10313290383937B837B9B2B21037BBB732B9 PUSH1 0x51 SHL PUSH1 0x44 DUP3 ADD MSTORE PUSH1 0x64 ADD PUSH2 0x220 JUMP JUMPDEST PUSH1 0x6 DUP1 SLOAD PUSH1 0x1 PUSH1 0x1 PUSH1 0xA0 SHL SUB NOT DUP1 DUP3 AND CALLER SWAP1 DUP2 OR SWAP1 SWAP4 SSTORE PUSH1 0x7 DUP1 SLOAD SWAP1 SWAP2 AND SWAP1 SSTORE PUSH1 0x40 MLOAD PUSH1 0x1 PUSH1 0x1 PUSH1 0xA0 SHL SUB SWAP1 SWAP2 AND SWAP2 SWAP1 DUP3 SWAP1 PUSH32 0x8BE0079C531659141344CD1FD0A4F28419497F9722A3DAAFE3B4186F6B6457E0 SWAP1 PUSH0 SWAP1 LOG3 POP JUMP JUMPDEST PUSH1 0xA DUP1 SLOAD PUSH2 0x12D SWAP1 PUSH2 0x13DF JUMP JUMPDEST PUSH2 0x384 PUSH2 0xA40 JUMP JUMPDEST PUSH0 PUSH2 0x3B7 PUSH32 0x3230653739666430633863623462326439666263643930363935316461616337 ADDRESS PUSH4 0x3E9DB5E5 PUSH1 0xE0 SHL PUSH2 0xA95 JUMP JUMPDEST SWAP1 POP PUSH2 0x404 PUSH1 0x40 MLOAD DUP1 PUSH1 0x40 ADD PUSH1 0x40 MSTORE DUP1 PUSH1 0xE DUP2 MSTORE PUSH1 0x20 ADD PUSH14 0x75726C50726F6A6563744E616D65 PUSH1 0x90 SHL DUP2 MSTORE POP PUSH1 0x40 MLOAD DUP1 PUSH1 0x60 ADD PUSH1 0x40 MSTORE DUP1 PUSH1 0x2F DUP2 MSTORE PUSH1 0x20 ADD PUSH2 0x1799 PUSH1 0x2F SWAP2 CODECOPY DUP4 SWAP2 SWAP1 PUSH2 0xABA JUMP JUMPDEST PUSH2 0x463 PUSH1 0x40 MLOAD DUP1 PUSH1 0x40 ADD PUSH1 0x40 MSTORE DUP1 PUSH1 0xF DUP2 MSTORE PUSH1 0x20 ADD PUSH15 0x7061746850726F6A6563744E616D65 PUSH1 0x88 SHL DUP2 MSTORE POP PUSH1 0x40 MLOAD DUP1 PUSH1 0x40 ADD PUSH1 0x40 MSTORE DUP1 PUSH1 0xB DUP2 MSTORE PUSH1 0x20 ADD PUSH11 0x70726F6A6563744E616D65 PUSH1 0xA8 SHL DUP2 MSTORE POP DUP4 PUSH2 0xABA SWAP1 SWAP3 SWAP2 SWAP1 PUSH4 0xFFFFFFFF AND JUMP JUMPDEST PUSH2 0x4AB PUSH1 0x40 MLOAD DUP1 PUSH1 0x40 ADD PUSH1 0x40 MSTORE DUP1 PUSH1 0xB DUP2 MSTORE PUSH1 0x20 ADD PUSH11 0x3AB9362637B1B0BA34B7B7 PUSH1 0xA9 SHL DUP2 MSTORE POP PUSH1 0x40 MLOAD DUP1 PUSH1 0x60 ADD PUSH1 0x40 MSTORE DUP1 PUSH1 0x2F DUP2 MSTORE PUSH1 0x20 ADD PUSH2 0x1799 PUSH1 0x2F SWAP2 CODECOPY DUP4 SWAP2 SWAP1 PUSH2 0xABA JUMP JUMPDEST PUSH2 0x504 PUSH1 0x40 MLOAD DUP1 PUSH1 0x40 ADD PUSH1 0x40 MSTORE DUP1 PUSH1 0xC DUP2 MSTORE PUSH1 0x20 ADD PUSH12 0x3830BA342637B1B0BA34B7B7 PUSH1 0xA1 SHL DUP2 MSTORE POP PUSH1 0x40 MLOAD DUP1 PUSH1 0x40 ADD PUSH1 0x40 MSTORE DUP1 PUSH1 0x8 DUP2 MSTORE PUSH1 0x20 ADD PUSH8 0x3637B1B0BA34B7B7 PUSH1 0xC1 SHL DUP2 MSTORE POP DUP4 PUSH2 0xABA SWAP1 SWAP3 SWAP2 SWAP1 PUSH4 0xFFFFFFFF AND JUMP JUMPDEST PUSH2 0x548 PUSH1 0x40 MLOAD DUP1 PUSH1 0x40 ADD PUSH1 0x40 MSTORE DUP1 PUSH1 0x7 DUP2 MSTORE PUSH1 0x20 ADD PUSH7 0xEAE4D890C2E6D PUSH1 0xCB SHL DUP2 MSTORE POP PUSH1 0x40 MLOAD DUP1 PUSH1 0x60 ADD PUSH1 0x40 MSTORE DUP1 PUSH1 0x2F DUP2 MSTORE PUSH1 0x20 ADD PUSH2 0x1799 PUSH1 0x2F SWAP2 CODECOPY DUP4 SWAP2 SWAP1 PUSH2 0xABA JUMP JUMPDEST PUSH2 0x599 PUSH1 0x40 MLOAD DUP1 PUSH1 0x40 ADD PUSH1 0x40 MSTORE DUP1 PUSH1 0x8 DUP2 MSTORE PUSH1 0x20 ADD PUSH8 0xE0C2E8D090C2E6D PUSH1 0xC3 SHL DUP2 MSTORE POP PUSH1 0x40 MLOAD DUP1 PUSH1 0x40 ADD PUSH1 0x40 MSTORE DUP1 PUSH1 0x4 DUP2 MSTORE PUSH1 0x20 ADD PUSH4 0xD0C2E6D PUSH1 0xE3 SHL DUP2 MSTORE POP DUP4 PUSH2 0xABA SWAP1 SWAP3 SWAP2 SWAP1 PUSH4 0xFFFFFFFF AND JUMP JUMPDEST PUSH2 0x5EB PUSH1 0x40 MLOAD DUP1 PUSH1 0x40 ADD PUSH1 0x40 MSTORE DUP1 PUSH1 0x15 DUP2 MSTORE PUSH1 0x20 ADD PUSH21 0x75726C4578706563746564526564756374696F6E73 PUSH1 0x58 SHL DUP2 MSTORE POP PUSH1 0x40 MLOAD DUP1 PUSH1 0x60 ADD PUSH1 0x40 MSTORE DUP1 PUSH1 0x2F DUP2 MSTORE PUSH1 0x20 ADD PUSH2 0x1799 PUSH1 0x2F SWAP2 CODECOPY DUP4 SWAP2 SWAP1 PUSH2 0xABA JUMP JUMPDEST PUSH2 0x658 PUSH1 0x40 MLOAD DUP1 PUSH1 0x40 ADD PUSH1 0x40 MSTORE DUP1 PUSH1 0x16 DUP2 MSTORE PUSH1 0x20 ADD PUSH22 0x706174684578706563746564526564756374696F6E73 PUSH1 0x50 SHL DUP2 MSTORE POP PUSH1 0x40 MLOAD DUP1 PUSH1 0x40 ADD PUSH1 0x40 MSTORE DUP1 PUSH1 0x12 DUP2 MSTORE PUSH1 0x20 ADD PUSH18 0x6578706563746564526564756374696F6E73 PUSH1 0x70 SHL DUP2 MSTORE POP DUP4 PUSH2 0xABA SWAP1 SWAP3 SWAP2 SWAP1 PUSH4 0xFFFFFFFF AND JUMP JUMPDEST PUSH2 0x6A3 PUSH1 0x40 MLOAD DUP1 PUSH1 0x40 ADD PUSH1 0x40 MSTORE DUP1 PUSH1 0xE DUP2 MSTORE PUSH1 0x20 ADD PUSH14 0x75726C4D6574686F646F6C6F6779 PUSH1 0x90 SHL DUP2 MSTORE POP PUSH1 0x40 MLOAD DUP1 PUSH1 0x60 ADD PUSH1 0x40 MSTORE DUP1 PUSH1 0x2F DUP2 MSTORE PUSH1 0x20 ADD PUSH2 0x1799 PUSH1 0x2F SWAP2 CODECOPY DUP4 SWAP2 SWAP1 PUSH2 0xABA JUMP JUMPDEST PUSH2 0x702 PUSH1 0x40 MLOAD DUP1 PUSH1 0x40 ADD PUSH1 0x40 MSTORE DUP1 PUSH1 0xF DUP2 MSTORE PUSH1 0x20 ADD PUSH15 0x706174684D6574686F646F6C6F6779 PUSH1 0x88 SHL DUP2 MSTORE POP PUSH1 0x40 MLOAD DUP1 PUSH1 0x40 ADD PUSH1 0x40 MSTORE DUP1 PUSH1 0xB DUP2 MSTORE PUSH1 0x20 ADD PUSH11 0x6D6574686F646F6C6F6779 PUSH1 0xA8 SHL DUP2 MSTORE POP DUP4 PUSH2 0xABA SWAP1 SWAP3 SWAP2 SWAP1 PUSH4 0xFFFFFFFF AND JUMP JUMPDEST PUSH2 0x752 PUSH1 0x40 MLOAD DUP1 PUSH1 0x40 ADD PUSH1 0x40 MSTORE DUP1 PUSH1 0x13 DUP2 MSTORE PUSH1 0x20 ADD PUSH19 0x75726C50726F6A656374537461727444617465 PUSH1 0x68 SHL DUP2 MSTORE POP PUSH1 0x40 MLOAD DUP1 PUSH1 0x60 ADD PUSH1 0x40 MSTORE DUP1 PUSH1 0x2F DUP2 MSTORE PUSH1 0x20 ADD PUSH2 0x1799 PUSH1 0x2F SWAP2 CODECOPY DUP4 SWAP2 SWAP1 PUSH2 0xABA JUMP JUMPDEST PUSH2 0x7BB PUSH1 0x40 MLOAD DUP1 PUSH1 0x40 ADD PUSH1 0x40 MSTORE DUP1 PUSH1 0x14 DUP2 MSTORE PUSH1 0x20 ADD PUSH20 0x7061746850726F6A656374537461727444617465 PUSH1 0x60 SHL DUP2 MSTORE POP PUSH1 0x40 MLOAD DUP1 PUSH1 0x40 ADD PUSH1 0x40 MSTORE DUP1 PUSH1 0x10 DUP2 MSTORE PUSH1 0x20 ADD PUSH16 0x70726F6A656374537461727444617465 PUSH1 0x80 SHL DUP2 MSTORE POP DUP4 PUSH2 0xABA SWAP1 SWAP3 SWAP2 SWAP1 PUSH4 0xFFFFFFFF AND JUMP JUMPDEST PUSH2 0x809 PUSH1 0x40 MLOAD DUP1 PUSH1 0x40 ADD PUSH1 0x40 MSTORE DUP1 PUSH1 0x11 DUP2 MSTORE PUSH1 0x20 ADD PUSH17 0x75726C56616C69646174696F6E44617465 PUSH1 0x78 SHL DUP2 MSTORE POP PUSH1 0x40 MLOAD DUP1 PUSH1 0x60 ADD PUSH1 0x40 MSTORE DUP1 PUSH1 0x2F DUP2 MSTORE PUSH1 0x20 ADD PUSH2 0x1799 PUSH1 0x2F SWAP2 CODECOPY DUP4 SWAP2 SWAP1 PUSH2 0xABA JUMP JUMPDEST PUSH2 0x86E PUSH1 0x40 MLOAD DUP1 PUSH1 0x40 ADD PUSH1 0x40 MSTORE DUP1 PUSH1 0x12 DUP2 MSTORE PUSH1 0x20 ADD PUSH18 0x7061746856616C69646174696F6E44617465 PUSH1 0x70 SHL DUP2 MSTORE POP PUSH1 0x40 MLOAD DUP1 PUSH1 0x40 ADD PUSH1 0x40 MSTORE DUP1 PUSH1 0xE DUP2 MSTORE PUSH1 0x20 ADD PUSH14 0x76616C69646174696F6E44617465 PUSH1 0x90 SHL DUP2 MSTORE POP DUP4 PUSH2 0xABA SWAP1 SWAP3 SWAP2 SWAP1 PUSH4 0xFFFFFFFF AND JUMP JUMPDEST PUSH2 0x8BE PUSH1 0x40 MLOAD DUP1 PUSH1 0x40 ADD PUSH1 0x40 MSTORE DUP1 PUSH1 0x13 DUP2 MSTORE PUSH1 0x20 ADD PUSH19 0x75726C566572696669636174696F6E44617465 PUSH1 0x68 SHL DUP2 MSTORE POP PUSH1 0x40 MLOAD DUP1 PUSH1 0x60 ADD PUSH1 0x40 MSTORE DUP1 PUSH1 0x2F DUP2 MSTORE PUSH1 0x20 ADD PUSH2 0x1799 PUSH1 0x2F SWAP2 CODECOPY DUP4 SWAP2 SWAP1 PUSH2 0xABA JUMP JUMPDEST PUSH2 0x927 PUSH1 0x40 MLOAD DUP1 PUSH1 0x40 ADD PUSH1 0x40 MSTORE DUP1 PUSH1 0x14 DUP2 MSTORE PUSH1 0x20 ADD PUSH20 0x70617468566572696669636174696F6E44617465 PUSH1 0x60 SHL DUP2 MSTORE POP PUSH1 0x40 MLOAD DUP1 PUSH1 0x40 ADD PUSH1 0x40 MSTORE DUP1 PUSH1 0x10 DUP2 MSTORE PUSH1 0x20 ADD PUSH16 0x766572696669636174696F6E44617465 PUSH1 0x80 SHL DUP2 MSTORE POP DUP4 PUSH2 0xABA SWAP1 SWAP3 SWAP2 SWAP1 PUSH4 0xFFFFFFFF AND JUMP JUMPDEST PUSH2 0x974 PUSH1 0x40 MLOAD DUP1 PUSH1 0x40 ADD PUSH1 0x40 MSTORE DUP1 PUSH1 0x10 DUP2 MSTORE PUSH1 0x20 ADD PUSH16 0x75726C49737375656443726564697473 PUSH1 0x80 SHL DUP2 MSTORE POP PUSH1 0x40 MLOAD DUP1 PUSH1 0x60 ADD PUSH1 0x40 MSTORE DUP1 PUSH1 0x2F DUP2 MSTORE PUSH1 0x20 ADD PUSH2 0x1799 PUSH1 0x2F SWAP2 CODECOPY DUP4 SWAP2 SWAP1 PUSH2 0xABA JUMP JUMPDEST PUSH2 0x9D7 PUSH1 0x40 MLOAD DUP1 PUSH1 0x40 ADD PUSH1 0x40 MSTORE DUP1 PUSH1 0x11 DUP2 MSTORE PUSH1 0x20 ADD PUSH17 0x7061746849737375656443726564697473 PUSH1 0x78 SHL DUP2 MSTORE POP PUSH1 0x40 MLOAD DUP1 PUSH1 0x40 ADD PUSH1 0x40 MSTORE DUP1 PUSH1 0xD DUP2 MSTORE PUSH1 0x20 ADD PUSH13 0x69737375656443726564697473 PUSH1 0x98 SHL DUP2 MSTORE POP DUP4 PUSH2 0xABA SWAP1 SWAP3 SWAP2 SWAP1 PUSH4 0xFFFFFFFF AND JUMP JUMPDEST PUSH2 0xA00 DUP3 DUP3 PUSH1 0xA PUSH2 0x9F1 PUSH8 0xDE0B6B3A7640000 PUSH1 0x1 PUSH2 0x1588 JUMP JUMPDEST PUSH2 0x9FB SWAP2 SWAP1 PUSH2 0x15B3 JUMP JUMPDEST PUSH2 0xAD8 JUMP JUMPDEST POP POP POP JUMP JUMPDEST PUSH1 0x8 DUP2 DUP2 SLOAD DUP2 LT PUSH2 0xA14 JUMPI PUSH0 DUP1 REVERT JUMPDEST SWAP1 PUSH0 MSTORE PUSH1 0x20 PUSH0 KECCAK256 ADD PUSH0 SWAP2 POP SWAP1 POP DUP1 SLOAD PUSH2 0x12D SWAP1 PUSH2 0x13DF JUMP JUMPDEST PUSH2 0xA34 PUSH2 0xA40 JUMP JUMPDEST PUSH2 0xA3D DUP2 PUSH2 0xB69 JUMP JUMPDEST POP JUMP JUMPDEST PUSH1 0x6 SLOAD PUSH1 0x1 PUSH1 0x1 PUSH1 0xA0 SHL SUB AND CALLER EQ PUSH2 0xA93 JUMPI PUSH1 0x40 MLOAD PUSH3 0x461BCD PUSH1 0xE5 SHL DUP2 MSTORE PUSH1 0x20 PUSH1 0x4 DUP3 ADD MSTORE PUSH1 0x16 PUSH1 0x24 DUP3 ADD MSTORE PUSH22 0x27B7363C9031B0B63630B1363290313C9037BBB732B9 PUSH1 0x51 SHL PUSH1 0x44 DUP3 ADD MSTORE PUSH1 0x64 ADD PUSH2 0x220 JUMP JUMPDEST JUMP JUMPDEST PUSH2 0xA9D PUSH2 0x119D JUMP JUMPDEST PUSH2 0xAA5 PUSH2 0x119D JUMP JUMPDEST PUSH2 0xAB1 DUP2 DUP7 DUP7 DUP7 PUSH2 0xC12 JUMP JUMPDEST SWAP6 SWAP5 POP POP POP POP POP JUMP JUMPDEST PUSH1 0x80 DUP4 ADD MLOAD PUSH2 0xAC9 SWAP1 DUP4 PUSH2 0xC58 JUMP JUMPDEST PUSH1 0x80 DUP4 ADD MLOAD PUSH2 0xA00 SWAP1 DUP3 PUSH2 0xC58 JUMP JUMPDEST PUSH1 0x4 SLOAD PUSH0 SWAP1 PUSH2 0xAE8 DUP2 PUSH1 0x1 PUSH2 0x15C6 JUMP JUMPDEST PUSH1 0x4 SSTORE DUP4 MLOAD PUSH1 0x40 DUP1 DUP7 ADD MLOAD PUSH1 0x80 DUP8 ADD MLOAD MLOAD SWAP2 MLOAD PUSH0 SWAP4 PUSH4 0x20214CA3 PUSH1 0xE1 SHL SWAP4 PUSH2 0xB1F SWAP4 DUP7 SWAP4 DUP5 SWAP4 SWAP3 ADDRESS SWAP3 SWAP2 DUP11 SWAP2 PUSH1 0x1 SWAP2 PUSH1 0x24 ADD PUSH2 0x15D9 JUMP JUMPDEST PUSH1 0x40 DUP1 MLOAD PUSH1 0x1F NOT DUP2 DUP5 SUB ADD DUP2 MSTORE SWAP2 SWAP1 MSTORE PUSH1 0x20 DUP2 ADD DUP1 MLOAD PUSH1 0x1 PUSH1 0x1 PUSH1 0xE0 SHL SUB AND PUSH1 0x1 PUSH1 0x1 PUSH1 0xE0 SHL SUB NOT SWAP1 SWAP4 AND SWAP3 SWAP1 SWAP3 OR SWAP1 SWAP2 MSTORE SWAP1 POP PUSH2 0xB5F DUP7 DUP4 DUP7 DUP5 PUSH2 0xC6F JUMP JUMPDEST SWAP7 SWAP6 POP POP POP POP POP POP JUMP JUMPDEST CALLER PUSH1 0x1 PUSH1 0x1 PUSH1 0xA0 SHL SUB DUP3 AND SUB PUSH2 0xBC1 JUMPI PUSH1 0x40 MLOAD PUSH3 0x461BCD PUSH1 0xE5 SHL DUP2 MSTORE PUSH1 0x20 PUSH1 0x4 DUP3 ADD MSTORE PUSH1 0x17 PUSH1 0x24 DUP3 ADD MSTORE PUSH32 0x43616E6E6F74207472616E7366657220746F2073656C66000000000000000000 PUSH1 0x44 DUP3 ADD MSTORE PUSH1 0x64 ADD PUSH2 0x220 JUMP JUMPDEST PUSH1 0x7 DUP1 SLOAD PUSH1 0x1 PUSH1 0x1 PUSH1 0xA0 SHL SUB NOT AND PUSH1 0x1 PUSH1 0x1 PUSH1 0xA0 SHL SUB DUP4 DUP2 AND SWAP2 DUP3 OR SWAP1 SWAP3 SSTORE PUSH1 0x6 SLOAD PUSH1 0x40 MLOAD SWAP2 SWAP3 AND SWAP1 PUSH32 0xED8889F560326EB138920D842192F0EB3DD22B4F139C87A2C57538E05BAE1278 SWAP1 PUSH0 SWAP1 LOG3 POP JUMP JUMPDEST PUSH2 0xC1A PUSH2 0x119D JUMP JUMPDEST PUSH2 0xC2A DUP6 PUSH1 0x80 ADD MLOAD PUSH2 0x100 PUSH2 0xDC8 JUMP JUMPDEST POP POP DUP3 DUP5 MSTORE PUSH1 0x1 PUSH1 0x1 PUSH1 0xA0 SHL SUB DUP3 AND PUSH1 0x20 DUP6 ADD MSTORE PUSH1 0x1 PUSH1 0x1 PUSH1 0xE0 SHL SUB NOT DUP2 AND PUSH1 0x40 DUP6 ADD MSTORE DUP4 JUMPDEST SWAP5 SWAP4 POP POP POP POP JUMP JUMPDEST PUSH2 0xC65 DUP3 PUSH1 0x3 DUP4 MLOAD PUSH2 0xE31 JUMP JUMPDEST PUSH2 0xA00 DUP3 DUP3 PUSH2 0xF3E JUMP JUMPDEST PUSH1 0x40 MLOAD PUSH12 0xFFFFFFFFFFFFFFFFFFFFFFFF NOT ADDRESS PUSH1 0x60 SHL AND PUSH1 0x20 DUP3 ADD MSTORE PUSH1 0x34 DUP2 ADD DUP5 SWAP1 MSTORE PUSH0 SWAP1 PUSH1 0x54 ADD PUSH1 0x40 DUP1 MLOAD DUP1 DUP4 SUB PUSH1 0x1F NOT ADD DUP2 MSTORE DUP3 DUP3 MSTORE DUP1 MLOAD PUSH1 0x20 SWAP2 DUP3 ADD KECCAK256 PUSH0 DUP2 DUP2 MSTORE PUSH1 0x5 SWAP1 SWAP3 MSTORE SWAP2 DUP2 KECCAK256 DUP1 SLOAD PUSH1 0x1 PUSH1 0x1 PUSH1 0xA0 SHL SUB NOT AND PUSH1 0x1 PUSH1 0x1 PUSH1 0xA0 SHL SUB DUP11 AND OR SWAP1 SSTORE SWAP1 SWAP3 POP DUP3 SWAP2 PUSH32 0xB5E6E01E79F91267DC17B4E6314D5D4D03593D2CEEE0FBB452B750BD70EA5AF9 SWAP2 SWAP1 LOG2 PUSH1 0x2 SLOAD PUSH1 0x40 MLOAD PUSH4 0x2000575 PUSH1 0xE5 SHL DUP2 MSTORE PUSH1 0x1 PUSH1 0x1 PUSH1 0xA0 SHL SUB SWAP1 SWAP2 AND SWAP1 PUSH4 0x4000AEA0 SWAP1 PUSH2 0xD30 SWAP1 DUP9 SWAP1 DUP8 SWAP1 DUP8 SWAP1 PUSH1 0x4 ADD PUSH2 0x163F JUMP JUMPDEST PUSH1 0x20 PUSH1 0x40 MLOAD DUP1 DUP4 SUB DUP2 PUSH0 DUP8 GAS CALL ISZERO DUP1 ISZERO PUSH2 0xD4C JUMPI RETURNDATASIZE PUSH0 PUSH0 RETURNDATACOPY RETURNDATASIZE PUSH0 REVERT JUMPDEST POP POP POP POP PUSH1 0x40 MLOAD RETURNDATASIZE PUSH1 0x1F NOT PUSH1 0x1F DUP3 ADD AND DUP3 ADD DUP1 PUSH1 0x40 MSTORE POP DUP2 ADD SWAP1 PUSH2 0xD70 SWAP2 SWAP1 PUSH2 0x1665 JUMP JUMPDEST PUSH2 0xC50 JUMPI PUSH1 0x40 MLOAD PUSH3 0x461BCD PUSH1 0xE5 SHL DUP2 MSTORE PUSH1 0x20 PUSH1 0x4 DUP3 ADD MSTORE PUSH1 0x23 PUSH1 0x24 DUP3 ADD MSTORE PUSH32 0x756E61626C6520746F207472616E73666572416E6443616C6C20746F206F7261 PUSH1 0x44 DUP3 ADD MSTORE PUSH3 0x636C65 PUSH1 0xE8 SHL PUSH1 0x64 DUP3 ADD MSTORE PUSH1 0x84 ADD PUSH2 0x220 JUMP JUMPDEST PUSH1 0x40 DUP1 MLOAD DUP1 DUP3 ADD SWAP1 SWAP2 MSTORE PUSH1 0x60 DUP2 MSTORE PUSH0 PUSH1 0x20 DUP3 ADD MSTORE PUSH2 0xDE7 PUSH1 0x20 DUP4 PUSH2 0x1684 JUMP JUMPDEST ISZERO PUSH2 0xE0F JUMPI PUSH2 0xDF7 PUSH1 0x20 DUP4 PUSH2 0x1684 JUMP JUMPDEST PUSH2 0xE02 SWAP1 PUSH1 0x20 PUSH2 0x1697 JUMP JUMPDEST PUSH2 0xE0C SWAP1 DUP4 PUSH2 0x15C6 JUMP JUMPDEST SWAP2 POP JUMPDEST POP PUSH1 0x20 DUP1 DUP4 ADD DUP3 SWAP1 MSTORE PUSH1 0x40 DUP1 MLOAD DUP1 DUP6 MSTORE PUSH0 DUP2 MSTORE DUP4 ADD SWAP1 SWAP2 ADD SWAP1 MSTORE DUP2 JUMPDEST SWAP3 SWAP2 POP POP JUMP JUMPDEST PUSH1 0x17 DUP2 PUSH1 0x1 PUSH1 0x1 PUSH1 0x40 SHL SUB AND GT PUSH2 0xE5B JUMPI PUSH2 0xE55 DUP4 PUSH1 0xE0 PUSH1 0x5 DUP6 SWAP1 SHL AND DUP4 OR PUSH2 0xF6A JUMP JUMPDEST POP POP POP POP JUMP JUMPDEST PUSH1 0xFF DUP2 PUSH1 0x1 PUSH1 0x1 PUSH1 0x40 SHL SUB AND GT PUSH2 0xE97 JUMPI PUSH2 0xE81 DUP4 PUSH1 0x18 PUSH2 0x1FE0 PUSH1 0x5 DUP7 SWAP1 SHL AND OR PUSH2 0xF6A JUMP JUMPDEST POP PUSH2 0xE55 DUP4 PUSH1 0x1 PUSH1 0x1 PUSH1 0x40 SHL SUB DUP4 AND PUSH1 0x1 PUSH2 0xF8D JUMP JUMPDEST PUSH2 0xFFFF DUP2 PUSH1 0x1 PUSH1 0x1 PUSH1 0x40 SHL SUB AND GT PUSH2 0xED4 JUMPI PUSH2 0xEBE DUP4 PUSH1 0x19 PUSH2 0x1FE0 PUSH1 0x5 DUP7 SWAP1 SHL AND OR PUSH2 0xF6A JUMP JUMPDEST POP PUSH2 0xE55 DUP4 PUSH1 0x1 PUSH1 0x1 PUSH1 0x40 SHL SUB DUP4 AND PUSH1 0x2 PUSH2 0xF8D JUMP JUMPDEST PUSH4 0xFFFFFFFF DUP2 PUSH1 0x1 PUSH1 0x1 PUSH1 0x40 SHL SUB AND GT PUSH2 0xF13 JUMPI PUSH2 0xEFD DUP4 PUSH1 0x1A PUSH2 0x1FE0 PUSH1 0x5 DUP7 SWAP1 SHL AND OR PUSH2 0xF6A JUMP JUMPDEST POP PUSH2 0xE55 DUP4 PUSH1 0x1 PUSH1 0x1 PUSH1 0x40 SHL SUB DUP4 AND PUSH1 0x4 PUSH2 0xF8D JUMP JUMPDEST PUSH2 0xF28 DUP4 PUSH1 0x1B PUSH2 0x1FE0 PUSH1 0x5 DUP7 SWAP1 SHL AND OR PUSH2 0xF6A JUMP JUMPDEST POP PUSH2 0xE55 DUP4 PUSH1 0x1 PUSH1 0x1 PUSH1 0x40 SHL SUB DUP4 AND PUSH1 0x8 PUSH2 0xF8D JUMP JUMPDEST PUSH1 0x40 DUP1 MLOAD DUP1 DUP3 ADD SWAP1 SWAP2 MSTORE PUSH1 0x60 DUP2 MSTORE PUSH0 PUSH1 0x20 DUP3 ADD MSTORE PUSH2 0xF63 DUP4 DUP5 PUSH0 ADD MLOAD MLOAD DUP5 DUP6 MLOAD PUSH2 0xFB1 JUMP JUMPDEST SWAP4 SWAP3 POP POP POP JUMP JUMPDEST PUSH1 0x40 DUP1 MLOAD DUP1 DUP3 ADD SWAP1 SWAP2 MSTORE PUSH1 0x60 DUP2 MSTORE PUSH0 PUSH1 0x20 DUP3 ADD MSTORE PUSH2 0xF63 DUP4 DUP5 PUSH0 ADD MLOAD MLOAD DUP5 PUSH2 0x1097 JUMP JUMPDEST PUSH1 0x40 DUP1 MLOAD DUP1 DUP3 ADD SWAP1 SWAP2 MSTORE PUSH1 0x60 DUP2 MSTORE PUSH0 PUSH1 0x20 DUP3 ADD MSTORE PUSH2 0xC50 DUP5 DUP6 PUSH0 ADD MLOAD MLOAD DUP6 DUP6 PUSH2 0x10F1 JUMP JUMPDEST PUSH1 0x40 DUP1 MLOAD DUP1 DUP3 ADD SWAP1 SWAP2 MSTORE PUSH1 0x60 DUP2 MSTORE PUSH0 PUSH1 0x20 DUP3 ADD MSTORE DUP3 MLOAD DUP3 GT ISZERO PUSH2 0xFD2 JUMPI PUSH0 PUSH0 REVERT JUMPDEST PUSH1 0x20 DUP6 ADD MLOAD PUSH2 0xFE1 DUP4 DUP7 PUSH2 0x15C6 JUMP JUMPDEST GT ISZERO PUSH2 0x1014 JUMPI PUSH2 0x1014 DUP6 PUSH2 0x1004 DUP8 PUSH1 0x20 ADD MLOAD DUP8 DUP7 PUSH2 0xFFF SWAP2 SWAP1 PUSH2 0x15C6 JUMP JUMPDEST PUSH2 0x1170 JUMP JUMPDEST PUSH2 0x100F SWAP1 PUSH1 0x2 PUSH2 0x1588 JUMP JUMPDEST PUSH2 0x1186 JUMP JUMPDEST PUSH0 PUSH0 DUP7 MLOAD DUP1 MLOAD DUP8 PUSH1 0x20 DUP4 ADD ADD SWAP4 POP DUP1 DUP9 DUP8 ADD GT ISZERO PUSH2 0x1032 JUMPI DUP8 DUP7 ADD DUP3 MSTORE JUMPDEST POP POP POP PUSH1 0x20 DUP5 ADD JUMPDEST PUSH1 0x20 DUP5 LT PUSH2 0x1072 JUMPI DUP1 MLOAD DUP3 MSTORE PUSH2 0x1051 PUSH1 0x20 DUP4 PUSH2 0x15C6 JUMP JUMPDEST SWAP2 POP PUSH2 0x105E PUSH1 0x20 DUP3 PUSH2 0x15C6 JUMP JUMPDEST SWAP1 POP PUSH2 0x106B PUSH1 0x20 DUP6 PUSH2 0x1697 JUMP JUMPDEST SWAP4 POP PUSH2 0x103A JUMP JUMPDEST MLOAD DUP2 MLOAD PUSH0 NOT PUSH1 0x20 DUP7 SWAP1 SUB PUSH2 0x100 EXP ADD SWAP1 DUP2 AND SWAP1 NOT SWAP2 SWAP1 SWAP2 AND OR SWAP1 MSTORE POP DUP4 SWAP5 SWAP4 POP POP POP POP JUMP JUMPDEST PUSH1 0x40 DUP1 MLOAD DUP1 DUP3 ADD SWAP1 SWAP2 MSTORE PUSH1 0x60 DUP2 MSTORE PUSH0 PUSH1 0x20 DUP3 ADD MSTORE DUP4 PUSH1 0x20 ADD MLOAD DUP4 LT PUSH2 0x10CB JUMPI PUSH2 0x10CB DUP5 DUP6 PUSH1 0x20 ADD MLOAD PUSH1 0x2 PUSH2 0x100F SWAP2 SWAP1 PUSH2 0x1588 JUMP JUMPDEST DUP4 MLOAD DUP1 MLOAD PUSH1 0x20 DUP6 DUP4 ADD ADD DUP5 DUP2 MSTORE8 POP DUP1 DUP6 SUB PUSH2 0x10E7 JUMPI PUSH1 0x1 DUP2 ADD DUP3 MSTORE JUMPDEST POP SWAP4 SWAP5 SWAP4 POP POP POP POP JUMP JUMPDEST PUSH1 0x40 DUP1 MLOAD DUP1 DUP3 ADD SWAP1 SWAP2 MSTORE PUSH1 0x60 DUP2 MSTORE PUSH0 PUSH1 0x20 DUP3 ADD MSTORE PUSH1 0x20 DUP6 ADD MLOAD PUSH2 0x1114 DUP6 DUP5 PUSH2 0x15C6 JUMP JUMPDEST GT ISZERO PUSH2 0x1128 JUMPI PUSH2 0x1128 DUP6 PUSH2 0x1004 DUP7 DUP6 PUSH2 0x15C6 JUMP JUMPDEST PUSH0 PUSH1 0x1 PUSH2 0x1137 DUP5 PUSH2 0x100 PUSH2 0x178D JUMP JUMPDEST PUSH2 0x1141 SWAP2 SWAP1 PUSH2 0x1697 JUMP JUMPDEST SWAP1 POP DUP6 MLOAD DUP4 DUP7 DUP3 ADD ADD DUP6 DUP4 NOT DUP3 MLOAD AND OR DUP2 MSTORE POP DUP1 MLOAD DUP5 DUP8 ADD GT ISZERO PUSH2 0x1165 JUMPI DUP4 DUP7 ADD DUP2 MSTORE JUMPDEST POP SWAP5 SWAP6 SWAP5 POP POP POP POP POP JUMP JUMPDEST PUSH0 DUP2 DUP4 GT ISZERO PUSH2 0x1180 JUMPI POP DUP2 PUSH2 0xE2B JUMP JUMPDEST POP SWAP2 SWAP1 POP JUMP JUMPDEST DUP2 MLOAD PUSH2 0x1192 DUP4 DUP4 PUSH2 0xDC8 JUMP JUMPDEST POP PUSH2 0xE55 DUP4 DUP3 PUSH2 0xF3E JUMP JUMPDEST PUSH1 0x40 DUP1 MLOAD PUSH1 0xA0 DUP2 ADD DUP3 MSTORE PUSH0 DUP1 DUP3 MSTORE PUSH1 0x20 DUP1 DUP4 ADD DUP3 SWAP1 MSTORE DUP3 DUP5 ADD DUP3 SWAP1 MSTORE PUSH1 0x60 DUP1 DUP5 ADD DUP4 SWAP1 MSTORE DUP5 MLOAD DUP1 DUP7 ADD SWAP1 SWAP6 MSTORE DUP5 MSTORE DUP4 ADD MSTORE SWAP1 PUSH1 0x80 DUP3 ADD MSTORE SWAP1 JUMP JUMPDEST PUSH0 DUP2 MLOAD DUP1 DUP5 MSTORE DUP1 PUSH1 0x20 DUP5 ADD PUSH1 0x20 DUP7 ADD MCOPY PUSH0 PUSH1 0x20 DUP3 DUP7 ADD ADD MSTORE PUSH1 0x20 PUSH1 0x1F NOT PUSH1 0x1F DUP4 ADD AND DUP6 ADD ADD SWAP2 POP POP SWAP3 SWAP2 POP POP JUMP JUMPDEST PUSH1 0x20 DUP2 MSTORE PUSH0 PUSH2 0xF63 PUSH1 0x20 DUP4 ADD DUP5 PUSH2 0x11D7 JUMP JUMPDEST PUSH4 0x4E487B71 PUSH1 0xE0 SHL PUSH0 MSTORE PUSH1 0x41 PUSH1 0x4 MSTORE PUSH1 0x24 PUSH0 REVERT JUMPDEST PUSH0 DUP3 PUSH1 0x1F DUP4 ADD SLT PUSH2 0x123A JUMPI PUSH0 PUSH0 REVERT JUMPDEST DUP2 CALLDATALOAD PUSH1 0x1 PUSH1 0x1 PUSH1 0x40 SHL SUB DUP2 GT ISZERO PUSH2 0x1253 JUMPI PUSH2 0x1253 PUSH2 0x1217 JUMP JUMPDEST PUSH1 0x40 MLOAD PUSH1 0x1F DUP3 ADD PUSH1 0x1F NOT SWAP1 DUP2 AND PUSH1 0x3F ADD AND DUP2 ADD PUSH1 0x1 PUSH1 0x1 PUSH1 0x40 SHL SUB DUP2 GT DUP3 DUP3 LT OR ISZERO PUSH2 0x1281 JUMPI PUSH2 0x1281 PUSH2 0x1217 JUMP JUMPDEST PUSH1 0x40 MSTORE DUP2 DUP2 MSTORE DUP4 DUP3 ADD PUSH1 0x20 ADD DUP6 LT ISZERO PUSH2 0x1298 JUMPI PUSH0 PUSH0 REVERT JUMPDEST DUP2 PUSH1 0x20 DUP6 ADD PUSH1 0x20 DUP4 ADD CALLDATACOPY PUSH0 SWAP2 DUP2 ADD PUSH1 0x20 ADD SWAP2 SWAP1 SWAP2 MSTORE SWAP4 SWAP3 POP POP POP JUMP JUMPDEST PUSH0 PUSH0 PUSH0 PUSH0 PUSH0 PUSH0 PUSH0 PUSH0 PUSH0 PUSH0 PUSH2 0x140 DUP12 DUP14 SUB SLT ISZERO PUSH2 0x12CE JUMPI PUSH0 PUSH0 REVERT JUMPDEST DUP11 CALLDATALOAD SWAP10 POP PUSH1 0x20 DUP12 ADD CALLDATALOAD PUSH1 0x1 PUSH1 0x1 PUSH1 0x40 SHL SUB DUP2 GT ISZERO PUSH2 0x12EA JUMPI PUSH0 PUSH0 REVERT JUMPDEST PUSH2 0x12F6 DUP14 DUP3 DUP15 ADD PUSH2 0x122B JUMP JUMPDEST SWAP10 POP POP PUSH1 0x40 DUP12 ADD CALLDATALOAD PUSH1 0x1 PUSH1 0x1 PUSH1 0x40 SHL SUB DUP2 GT ISZERO PUSH2 0x1311 JUMPI PUSH0 PUSH0 REVERT JUMPDEST PUSH2 0x131D DUP14 DUP3 DUP15 ADD PUSH2 0x122B JUMP JUMPDEST SWAP9 POP POP PUSH1 0x60 DUP12 ADD CALLDATALOAD PUSH1 0x1 PUSH1 0x1 PUSH1 0x40 SHL SUB DUP2 GT ISZERO PUSH2 0x1338 JUMPI PUSH0 PUSH0 REVERT JUMPDEST PUSH2 0x1344 DUP14 DUP3 DUP15 ADD PUSH2 0x122B JUMP JUMPDEST SWAP8 POP POP PUSH1 0x80 DUP12 ADD CALLDATALOAD SWAP6 POP PUSH1 0xA0 DUP12 ADD CALLDATALOAD PUSH1 0x1 PUSH1 0x1 PUSH1 0x40 SHL SUB DUP2 GT ISZERO PUSH2 0x1366 JUMPI PUSH0 PUSH0 REVERT JUMPDEST PUSH2 0x1372 DUP14 DUP3 DUP15 ADD PUSH2 0x122B JUMP JUMPDEST SWAP11 SWAP14 SWAP10 SWAP13 POP SWAP8 SWAP11 SWAP7 SWAP10 SWAP6 SWAP9 SWAP6 SWAP8 POP POP POP POP PUSH1 0xC0 DUP5 ADD CALLDATALOAD SWAP4 PUSH1 0xE0 DUP2 ADD CALLDATALOAD SWAP4 PUSH2 0x100 DUP3 ADD CALLDATALOAD SWAP4 POP PUSH2 0x120 SWAP1 SWAP2 ADD CALLDATALOAD SWAP2 POP JUMP JUMPDEST PUSH0 PUSH1 0x20 DUP3 DUP5 SUB SLT ISZERO PUSH2 0x13B2 JUMPI PUSH0 PUSH0 REVERT JUMPDEST DUP2 CALLDATALOAD PUSH1 0x1 PUSH1 0x1 PUSH1 0xA0 SHL SUB DUP2 AND DUP2 EQ PUSH2 0xF63 JUMPI PUSH0 PUSH0 REVERT JUMPDEST PUSH0 PUSH1 0x20 DUP3 DUP5 SUB SLT ISZERO PUSH2 0x13D8 JUMPI PUSH0 PUSH0 REVERT JUMPDEST POP CALLDATALOAD SWAP2 SWAP1 POP JUMP JUMPDEST PUSH1 0x1 DUP2 DUP2 SHR SWAP1 DUP3 AND DUP1 PUSH2 0x13F3 JUMPI PUSH1 0x7F DUP3 AND SWAP2 POP JUMPDEST PUSH1 0x20 DUP3 LT DUP2 SUB PUSH2 0x1180 JUMPI PUSH4 0x4E487B71 PUSH1 0xE0 SHL PUSH0 MSTORE PUSH1 0x22 PUSH1 0x4 MSTORE PUSH1 0x24 PUSH0 REVERT JUMPDEST PUSH1 0x1F DUP3 GT ISZERO PUSH2 0xA00 JUMPI DUP1 PUSH0 MSTORE PUSH1 0x20 PUSH0 KECCAK256 PUSH1 0x1F DUP5 ADD PUSH1 0x5 SHR DUP2 ADD PUSH1 0x20 DUP6 LT ISZERO PUSH2 0x1436 JUMPI POP DUP1 JUMPDEST PUSH1 0x1F DUP5 ADD PUSH1 0x5 SHR DUP3 ADD SWAP2 POP JUMPDEST DUP2 DUP2 LT ISZERO PUSH2 0x1455 JUMPI PUSH0 DUP2 SSTORE PUSH1 0x1 ADD PUSH2 0x1442 JUMP JUMPDEST POP POP POP POP POP JUMP JUMPDEST DUP2 MLOAD PUSH1 0x1 PUSH1 0x1 PUSH1 0x40 SHL SUB DUP2 GT ISZERO PUSH2 0x1475 JUMPI PUSH2 0x1475 PUSH2 0x1217 JUMP JUMPDEST PUSH2 0x1489 DUP2 PUSH2 0x1483 DUP5 SLOAD PUSH2 0x13DF JUMP JUMPDEST DUP5 PUSH2 0x1411 JUMP JUMPDEST PUSH1 0x20 PUSH1 0x1F DUP3 GT PUSH1 0x1 DUP2 EQ PUSH2 0x14BB JUMPI PUSH0 DUP4 ISZERO PUSH2 0x14A4 JUMPI POP DUP5 DUP3 ADD MLOAD JUMPDEST PUSH0 NOT PUSH1 0x3 DUP6 SWAP1 SHL SHR NOT AND PUSH1 0x1 DUP5 SWAP1 SHL OR DUP5 SSTORE PUSH2 0x1455 JUMP JUMPDEST PUSH0 DUP5 DUP2 MSTORE PUSH1 0x20 DUP2 KECCAK256 PUSH1 0x1F NOT DUP6 AND SWAP2 JUMPDEST DUP3 DUP2 LT ISZERO PUSH2 0x14EA JUMPI DUP8 DUP6 ADD MLOAD DUP3 SSTORE PUSH1 0x20 SWAP5 DUP6 ADD SWAP5 PUSH1 0x1 SWAP1 SWAP3 ADD SWAP2 ADD PUSH2 0x14CA JUMP JUMPDEST POP DUP5 DUP3 LT ISZERO PUSH2 0x1507 JUMPI DUP7 DUP5 ADD MLOAD PUSH0 NOT PUSH1 0x3 DUP8 SWAP1 SHL PUSH1 0xF8 AND SHR NOT AND DUP2 SSTORE JUMPDEST POP POP POP POP PUSH1 0x1 SWAP1 DUP2 SHL ADD SWAP1 SSTORE POP JUMP JUMPDEST PUSH0 DUP2 MLOAD DUP1 PUSH1 0x20 DUP5 ADD DUP6 MCOPY PUSH0 SWAP4 ADD SWAP3 DUP4 MSTORE POP SWAP1 SWAP2 SWAP1 POP JUMP JUMPDEST PUSH0 PUSH2 0x1541 PUSH2 0x153B DUP4 DUP13 PUSH2 0x1516 JUMP JUMPDEST DUP11 PUSH2 0x1516 JUMP JUMPDEST DUP9 DUP2 MSTORE PUSH2 0x1551 PUSH1 0x20 DUP3 ADD DUP10 PUSH2 0x1516 JUMP JUMPDEST SWAP7 DUP8 MSTORE POP POP POP PUSH1 0x20 DUP5 ADD SWAP3 SWAP1 SWAP3 MSTORE PUSH1 0x40 DUP4 ADD MSTORE PUSH1 0x60 DUP3 ADD MSTORE PUSH1 0x80 ADD SWAP5 SWAP4 POP POP POP POP JUMP JUMPDEST PUSH4 0x4E487B71 PUSH1 0xE0 SHL PUSH0 MSTORE PUSH1 0x11 PUSH1 0x4 MSTORE PUSH1 0x24 PUSH0 REVERT JUMPDEST DUP1 DUP3 MUL DUP2 ISZERO DUP3 DUP3 DIV DUP5 EQ OR PUSH2 0xE2B JUMPI PUSH2 0xE2B PUSH2 0x1574 JUMP JUMPDEST PUSH4 0x4E487B71 PUSH1 0xE0 SHL PUSH0 MSTORE PUSH1 0x12 PUSH1 0x4 MSTORE PUSH1 0x24 PUSH0 REVERT JUMPDEST PUSH0 DUP3 PUSH2 0x15C1 JUMPI PUSH2 0x15C1 PUSH2 0x159F JUMP JUMPDEST POP DIV SWAP1 JUMP JUMPDEST DUP1 DUP3 ADD DUP1 DUP3 GT ISZERO PUSH2 0xE2B JUMPI PUSH2 0xE2B PUSH2 0x1574 JUMP JUMPDEST PUSH1 0x1 PUSH1 0x1 PUSH1 0xA0 SHL SUB DUP10 DUP2 AND DUP3 MSTORE PUSH1 0x20 DUP3 ADD DUP10 SWAP1 MSTORE PUSH1 0x40 DUP3 ADD DUP9 SWAP1 MSTORE DUP7 AND PUSH1 0x60 DUP3 ADD MSTORE PUSH1 0x1 PUSH1 0x1 PUSH1 0xE0 SHL SUB NOT DUP6 AND PUSH1 0x80 DUP3 ADD MSTORE PUSH1 0xA0 DUP2 ADD DUP5 SWAP1 MSTORE PUSH1 0xC0 DUP2 ADD DUP4 SWAP1 MSTORE PUSH2 0x100 PUSH1 0xE0 DUP3 ADD DUP2 SWAP1 MSTORE PUSH0 SWAP1 PUSH2 0x1631 SWAP1 DUP4 ADD DUP5 PUSH2 0x11D7 JUMP JUMPDEST SWAP11 SWAP10 POP POP POP POP POP POP POP POP POP POP JUMP JUMPDEST PUSH1 0x1 DUP1 PUSH1 0xA0 SHL SUB DUP5 AND DUP2 MSTORE DUP3 PUSH1 0x20 DUP3 ADD MSTORE PUSH1 0x60 PUSH1 0x40 DUP3 ADD MSTORE PUSH0 PUSH2 0xAB1 PUSH1 0x60 DUP4 ADD DUP5 PUSH2 0x11D7 JUMP JUMPDEST PUSH0 PUSH1 0x20 DUP3 DUP5 SUB SLT ISZERO PUSH2 0x1675 JUMPI PUSH0 PUSH0 REVERT JUMPDEST DUP2 MLOAD DUP1 ISZERO ISZERO DUP2 EQ PUSH2 0xF63 JUMPI PUSH0 PUSH0 REVERT JUMPDEST PUSH0 DUP3 PUSH2 0x1692 JUMPI PUSH2 0x1692 PUSH2 0x159F JUMP JUMPDEST POP MOD SWAP1 JUMP JUMPDEST DUP2 DUP2 SUB DUP2 DUP2 GT ISZERO PUSH2 0xE2B JUMPI PUSH2 0xE2B PUSH2 0x1574 JUMP JUMPDEST PUSH1 0x1 DUP2 JUMPDEST PUSH1 0x1 DUP5 GT ISZERO PUSH2 0x16E5 JUMPI DUP1 DUP6 DIV DUP2 GT ISZERO PUSH2 0x16C9 JUMPI PUSH2 0x16C9 PUSH2 0x1574 JUMP JUMPDEST PUSH1 0x1 DUP5 AND ISZERO PUSH2 0x16D7 JUMPI SWAP1 DUP2 MUL SWAP1 JUMPDEST PUSH1 0x1 SWAP4 SWAP1 SWAP4 SHR SWAP3 DUP1 MUL PUSH2 0x16AE JUMP JUMPDEST SWAP4 POP SWAP4 SWAP2 POP POP JUMP JUMPDEST PUSH0 DUP3 PUSH2 0x16FB JUMPI POP PUSH1 0x1 PUSH2 0xE2B JUMP JUMPDEST DUP2 PUSH2 0x1707 JUMPI POP PUSH0 PUSH2 0xE2B JUMP JUMPDEST DUP2 PUSH1 0x1 DUP2 EQ PUSH2 0x171D JUMPI PUSH1 0x2 DUP2 EQ PUSH2 0x1727 JUMPI PUSH2 0x1743 JUMP JUMPDEST PUSH1 0x1 SWAP2 POP POP PUSH2 0xE2B JUMP JUMPDEST PUSH1 0xFF DUP5 GT ISZERO PUSH2 0x1738 JUMPI PUSH2 0x1738 PUSH2 0x1574 JUMP JUMPDEST POP POP PUSH1 0x1 DUP3 SHL PUSH2 0xE2B JUMP JUMPDEST POP PUSH1 0x20 DUP4 LT PUSH2 0x133 DUP4 LT AND PUSH1 0x4E DUP5 LT PUSH1 0xB DUP5 LT AND OR ISZERO PUSH2 0x1766 JUMPI POP DUP2 DUP2 EXP PUSH2 0xE2B JUMP JUMPDEST PUSH2 0x1772 PUSH0 NOT DUP5 DUP5 PUSH2 0x16AA JUMP JUMPDEST DUP1 PUSH0 NOT DIV DUP3 GT ISZERO PUSH2 0x1785 JUMPI PUSH2 0x1785 PUSH2 0x1574 JUMP JUMPDEST MUL SWAP4 SWAP3 POP POP POP JUMP JUMPDEST PUSH0 PUSH2 0xF63 DUP4 DUP4 PUSH2 0x16ED JUMP INVALID PUSH9 0x747470733A2F2F3466 PUSH2 0x342D BALANCE CALLVALUE 0x2D ORIGIN ADDRESS BALANCE 0x2D BALANCE CALLER CODECOPY 0x2D BALANCE CALLDATALOAD CODECOPY 0x2E PUSH15 0x67726F6B2D667265652E6170702F64 PUSH2 0x7461 LOG2 PUSH5 0x6970667358 0x22 SLT KECCAK256 0x21 0xFC 0xF 0x28 NOT 0xD4 0x2A 0xD2 STOP PUSH26 0xE0212E2A3D9563B79271C5FB06C32C178D725F8D41CE64736F6C PUSH4 0x4300081D STOP CALLER LOG2 PUSH5 0x6970667358 0x22 SLT KECCAK256 0x1E 0xBC DUP10 PUSH32 0x2BE7FD7CAE58BC573E13BC0618B87CA22CAE1D47FE8C12D469D6CBB464736F6C PUSH4 0x4300081D STOP CALLER "
		},
		"gasEstimates": {
			"creation": {
				"codeDepositCost": "3830800",
				"executionCost": "4343",
				"totalCost": "3835143"
			},
			"external": {
				"checkWorking(uint256,uint256)": "364",
				"deployAPI()": "infinite",
				"deployOperator()": "infinite",
				"getProjDetails()": "infinite",
				"hash()": "infinite",
				"opConsumer()": "2325",
				"operator()": "2347"
			}
		},
		"methodIdentifiers": {
			"checkWorking(uint256,uint256)": "d93e86ac",
			"deployAPI()": "51d3c99b",
			"deployOperator()": "17190f52",
			"getProjDetails()": "d21b3553",
			"hash()": "09bd5a60",
			"opConsumer()": "05995f38",
			"operator()": "570ca735"
		}
	},
	"abi": [
		{
			"inputs": [
				{
					"internalType": "uint256",
					"name": "x",
					"type": "uint256"
				},
				{
					"internalType": "uint256",
					"name": "y",
					"type": "uint256"
				}
			],
			"name": "checkWorking",
			"outputs": [
				{
					"internalType": "bool",
					"name": "",
					"type": "bool"
				}
			],
			"stateMutability": "pure",
			"type": "function"
		},
		{
			"inputs": [],
			"name": "deployAPI",
			"outputs": [],
			"stateMutability": "nonpayable",
			"type": "function"
		},
		{
			"inputs": [],
			"name": "deployOperator",
			"outputs": [],
			"stateMutability": "nonpayable",
			"type": "function"
		},
		{
			"inputs": [],
			"name": "getProjDetails",
			"outputs": [],
			"stateMutability": "nonpayable",
			"type": "function"
		},
		{
			"inputs": [],
			"name": "hash",
			"outputs": [
				{
					"internalType": "bool",
					"name": "",
					"type": "bool"
				}
			],
			"stateMutability": "view",
			"type": "function"
		},
		{
			"inputs": [],
			"name": "opConsumer",
			"outputs": [
				{
					"internalType": "contract OperatorConsumer",
					"name": "",
					"type": "address"
				}
			],
			"stateMutability": "view",
			"type": "function"
		},
		{
			"inputs": [],
			"name": "operator",
			"outputs": [
				{
					"internalType": "contract Operator",
					"name": "",
					"type": "address"
				}
			],
			"stateMutability": "view",
			"type": "function"
		}
	]
}