{
	"data": {
		"bytecode": {
			"linkReferences": {},
			"object": "6080604052348015600e575f5ffd5b5060d980601a5f395ff3fe608060405260043610601e575f3560e01c8063e13a771614602e575f5ffd5b36602a576028603c565b005b5f5ffd5b3480156038575f5ffd5b5060285b604080518181526017818301527f546573742072657475726e206973206578656375746564000000000000000000606082015230602082015290517f621c2a96b16dc51dae36a7ae446927d28335201191a953da6606a3019f3c7afb9181900360800190a156fea264697066735822122034cb05155aa0bab1347ab73a24dede31ca68203e5abdc617c6bb08483a8e93cf64736f6c634300081d0033",
			"opcodes": "PUSH1 0x80 PUSH1 0x40 MSTORE CALLVALUE DUP1 ISZERO PUSH1 0xE JUMPI PUSH0 PUSH0 REVERT JUMPDEST POP PUSH1 0xD9 DUP1 PUSH1 0x1A PUSH0 CODECOPY PUSH0 RETURN INVALID PUSH1 0x80 PUSH1 0x40 MSTORE PUSH1 0x4 CALLDATASIZE LT PUSH1 0x1E JUMPI PUSH0 CALLDATALOAD PUSH1 0xE0 SHR DUP1 PUSH4 0xE13A7716 EQ PUSH1 0x2E JUMPI PUSH0 PUSH0 REVERT JUMPDEST CALLDATASIZE PUSH1 0x2A JUMPI PUSH1 0x28 PUSH1 0x3C JUMP JUMPDEST STOP JUMPDEST PUSH0 PUSH0 REVERT JUMPDEST CALLVALUE DUP1 ISZERO PUSH1 0x38 JUMPI PUSH0 PUSH0 REVERT JUMPDEST POP PUSH1 0x28 JUMPDEST PUSH1 0x40 DUP1 MLOAD DUP2 DUP2 MSTORE PUSH1 0x17 DUP2 DUP4 ADD MSTORE PUSH32 0x546573742072657475726E206973206578656375746564000000000000000000 PUSH1 0x60 DUP3 ADD MSTORE ADDRESS PUSH1 0x20 DUP3 ADD MSTORE SWAP1 MLOAD PUSH32 0x621C2A96B16DC51DAE36A7AE446927D28335201191A953DA6606A3019F3C7AFB SWAP2 DUP2 SWAP1 SUB PUSH1 0x80 ADD SWAP1 LOG1 JUMP INVALID LOG2 PUSH5 0x6970667358 0x22 SLT KECCAK256 CALLVALUE 0xCB SDIV ISZERO GAS LOG0 0xBA 0xB1 CALLVALUE PUSH27 0xB73A24DEDE31CA68203E5ABDC617C6BB08483A8E93CF64736F6C63 NUMBER STOP ADDMOD SAR STOP CALLER "
		},
		"gasEstimates": {
			"creation": {
				"codeDepositCost": "43400",
				"executionCost": "91",
				"totalCost": "43491"
			},
			"external": {
				"testReturn()": "1991"
			}
		},
		"methodIdentifiers": {
			"testReturn()": "e13a7716"
		}
	},
	"abi": [
		{
			"anonymous": false,
			"inputs": [
				{
					"indexed": false,
					"internalType": "string",
					"name": "message",
					"type": "string"
				},
				{
					"indexed": false,
					"internalType": "address",
					"name": "addr",
					"type": "address"
				}
			],
			"name": "LogMessage",
			"type": "event"
		},
		{
			"inputs": [],
			"name": "testReturn",
			"outputs": [],
			"stateMutability": "nonpayable",
			"type": "function"
		},
		{
			"stateMutability": "payable",
			"type": "receive"
		}
	]
}