{
	"data": {
		"bytecode": {
			"linkReferences": {},
			"object": "6080604052670de0b6b3a76400005f553480156019575f80fd5b50610279806100275f395ff3fe608060405260043610610021575f3560e01c80638a7644a81461002c57610028565b3661002857005b5f80fd5b348015610037575f80fd5b50610052600480360381019061004d919061015f565b610054565b005b5f8173ffffffffffffffffffffffffffffffffffffffff165f5460405161007a906101b7565b5f6040518083038185875af1925050503d805f81146100b4576040519150601f19603f3d011682016040523d82523d5f602084013e6100b9565b606091505b50509050806100fd576040517f08c379a00000000000000000000000000000000000000000000000000000000081526004016100f490610225565b60405180910390fd5b5050565b5f80fd5b5f73ffffffffffffffffffffffffffffffffffffffff82169050919050565b5f61012e82610105565b9050919050565b61013e81610124565b8114610148575f80fd5b50565b5f8135905061015981610135565b92915050565b5f6020828403121561017457610173610101565b5b5f6101818482850161014b565b91505092915050565b5f81905092915050565b50565b5f6101a25f8361018a565b91506101ad82610194565b5f82019050919050565b5f6101c182610197565b9150819050919050565b5f82825260208201905092915050565b7f5061796d656e74206661696c65642e00000000000000000000000000000000005f82015250565b5f61020f600f836101cb565b915061021a826101db565b602082019050919050565b5f6020820190508181035f83015261023c81610203565b905091905056fea264697066735822122051d1cae42ccd59ed929a71ccb035ca552cb5d0cd88d59e9bea55a2516e5e86f264736f6c634300081a0033",
			"opcodes": "PUSH1 0x80 PUSH1 0x40 MSTORE PUSH8 0xDE0B6B3A7640000 PUSH0 SSTORE CALLVALUE DUP1 ISZERO PUSH1 0x19 JUMPI PUSH0 DUP1 REVERT JUMPDEST POP PUSH2 0x279 DUP1 PUSH2 0x27 PUSH0 CODECOPY PUSH0 RETURN INVALID PUSH1 0x80 PUSH1 0x40 MSTORE PUSH1 0x4 CALLDATASIZE LT PUSH2 0x21 JUMPI PUSH0 CALLDATALOAD PUSH1 0xE0 SHR DUP1 PUSH4 0x8A7644A8 EQ PUSH2 0x2C JUMPI PUSH2 0x28 JUMP JUMPDEST CALLDATASIZE PUSH2 0x28 JUMPI STOP JUMPDEST PUSH0 DUP1 REVERT JUMPDEST CALLVALUE DUP1 ISZERO PUSH2 0x37 JUMPI PUSH0 DUP1 REVERT JUMPDEST POP PUSH2 0x52 PUSH1 0x4 DUP1 CALLDATASIZE SUB DUP2 ADD SWAP1 PUSH2 0x4D SWAP2 SWAP1 PUSH2 0x15F JUMP JUMPDEST PUSH2 0x54 JUMP JUMPDEST STOP JUMPDEST PUSH0 DUP2 PUSH20 0xFFFFFFFFFFFFFFFFFFFFFFFFFFFFFFFFFFFFFFFF AND PUSH0 SLOAD PUSH1 0x40 MLOAD PUSH2 0x7A SWAP1 PUSH2 0x1B7 JUMP JUMPDEST PUSH0 PUSH1 0x40 MLOAD DUP1 DUP4 SUB DUP2 DUP6 DUP8 GAS CALL SWAP3 POP POP POP RETURNDATASIZE DUP1 PUSH0 DUP2 EQ PUSH2 0xB4 JUMPI PUSH1 0x40 MLOAD SWAP2 POP PUSH1 0x1F NOT PUSH1 0x3F RETURNDATASIZE ADD AND DUP3 ADD PUSH1 0x40 MSTORE RETURNDATASIZE DUP3 MSTORE RETURNDATASIZE PUSH0 PUSH1 0x20 DUP5 ADD RETURNDATACOPY PUSH2 0xB9 JUMP JUMPDEST PUSH1 0x60 SWAP2 POP JUMPDEST POP POP SWAP1 POP DUP1 PUSH2 0xFD JUMPI PUSH1 0x40 MLOAD PUSH32 0x8C379A000000000000000000000000000000000000000000000000000000000 DUP2 MSTORE PUSH1 0x4 ADD PUSH2 0xF4 SWAP1 PUSH2 0x225 JUMP JUMPDEST PUSH1 0x40 MLOAD DUP1 SWAP2 SUB SWAP1 REVERT JUMPDEST POP POP JUMP JUMPDEST PUSH0 DUP1 REVERT JUMPDEST PUSH0 PUSH20 0xFFFFFFFFFFFFFFFFFFFFFFFFFFFFFFFFFFFFFFFF DUP3 AND SWAP1 POP SWAP2 SWAP1 POP JUMP JUMPDEST PUSH0 PUSH2 0x12E DUP3 PUSH2 0x105 JUMP JUMPDEST SWAP1 POP SWAP2 SWAP1 POP JUMP JUMPDEST PUSH2 0x13E DUP2 PUSH2 0x124 JUMP JUMPDEST DUP2 EQ PUSH2 0x148 JUMPI PUSH0 DUP1 REVERT JUMPDEST POP JUMP JUMPDEST PUSH0 DUP2 CALLDATALOAD SWAP1 POP PUSH2 0x159 DUP2 PUSH2 0x135 JUMP JUMPDEST SWAP3 SWAP2 POP POP JUMP JUMPDEST PUSH0 PUSH1 0x20 DUP3 DUP5 SUB SLT ISZERO PUSH2 0x174 JUMPI PUSH2 0x173 PUSH2 0x101 JUMP JUMPDEST JUMPDEST PUSH0 PUSH2 0x181 DUP5 DUP3 DUP6 ADD PUSH2 0x14B JUMP JUMPDEST SWAP2 POP POP SWAP3 SWAP2 POP POP JUMP JUMPDEST PUSH0 DUP2 SWAP1 POP SWAP3 SWAP2 POP POP JUMP JUMPDEST POP JUMP JUMPDEST PUSH0 PUSH2 0x1A2 PUSH0 DUP4 PUSH2 0x18A JUMP JUMPDEST SWAP2 POP PUSH2 0x1AD DUP3 PUSH2 0x194 JUMP JUMPDEST PUSH0 DUP3 ADD SWAP1 POP SWAP2 SWAP1 POP JUMP JUMPDEST PUSH0 PUSH2 0x1C1 DUP3 PUSH2 0x197 JUMP JUMPDEST SWAP2 POP DUP2 SWAP1 POP SWAP2 SWAP1 POP JUMP JUMPDEST PUSH0 DUP3 DUP3 MSTORE PUSH1 0x20 DUP3 ADD SWAP1 POP SWAP3 SWAP2 POP POP JUMP JUMPDEST PUSH32 0x5061796D656E74206661696C65642E0000000000000000000000000000000000 PUSH0 DUP3 ADD MSTORE POP JUMP JUMPDEST PUSH0 PUSH2 0x20F PUSH1 0xF DUP4 PUSH2 0x1CB JUMP JUMPDEST SWAP2 POP PUSH2 0x21A DUP3 PUSH2 0x1DB JUMP JUMPDEST PUSH1 0x20 DUP3 ADD SWAP1 POP SWAP2 SWAP1 POP JUMP JUMPDEST PUSH0 PUSH1 0x20 DUP3 ADD SWAP1 POP DUP2 DUP2 SUB PUSH0 DUP4 ADD MSTORE PUSH2 0x23C DUP2 PUSH2 0x203 JUMP JUMPDEST SWAP1 POP SWAP2 SWAP1 POP JUMP INVALID LOG2 PUSH5 0x6970667358 0x22 SLT KECCAK256 MLOAD 0xD1 0xCA 0xE4 0x2C 0xCD MSIZE 0xED SWAP3 SWAP11 PUSH18 0xCCB035CA552CB5D0CD88D59E9BEA55A2516E MCOPY DUP7 CALLCODE PUSH5 0x736F6C6343 STOP ADDMOD BYTE STOP CALLER "
		},
		"gasEstimates": {
			"creation": {
				"codeDepositCost": "126600",
				"executionCost": "22274",
				"totalCost": "148874"
			},
			"external": {
				"sendPayment(address)": "infinite"
			}
		},
		"methodIdentifiers": {
			"sendPayment(address)": "8a7644a8"
		}
	},
	"abi": [
		{
			"inputs": [
				{
					"internalType": "address payable",
					"name": "recipient",
					"type": "address"
				}
			],
			"name": "sendPayment",
			"outputs": [],
			"stateMutability": "nonpayable",
			"type": "function"
		},
		{
			"stateMutability": "payable",
			"type": "receive"
		}
	]
}