{
	"data": {
		"bytecode": {
			"linkReferences": {},
			"object": "6080604052348015600e575f5ffd5b506103648061001c5f395ff3fe60806040526004361061002c575f3560e01c806348c981e21461003f578063e13a77161461005b5761003b565b3661003b57610039610071565b005b5f5ffd5b610059600480360381019061005491906101b4565b6100aa565b005b348015610066575f5ffd5b5061006f610071565b005b7f621c2a96b16dc51dae36a7ae446927d28335201191a953da6606a3019f3c7afb306040516100a09190610259565b60405180910390a1565b5f8173ffffffffffffffffffffffffffffffffffffffff16346040516100cf906102b2565b5f6040518083038185875af1925050503d805f8114610109576040519150601f19603f3d011682016040523d82523d5f602084013e61010e565b606091505b5050905080610152576040517f08c379a000000000000000000000000000000000000000000000000000000000815260040161014990610310565b60405180910390fd5b5050565b5f5ffd5b5f73ffffffffffffffffffffffffffffffffffffffff82169050919050565b5f6101838261015a565b9050919050565b61019381610179565b811461019d575f5ffd5b50565b5f813590506101ae8161018a565b92915050565b5f602082840312156101c9576101c8610156565b5b5f6101d6848285016101a0565b91505092915050565b5f82825260208201905092915050565b7f53656e646572207265636569766564206d6f6e6579206261636b0000000000005f82015250565b5f610223601a836101df565b915061022e826101ef565b602082019050919050565b5f6102438261015a565b9050919050565b61025381610239565b82525050565b5f6040820190508181035f83015261027081610217565b905061027f602083018461024a565b92915050565b5f81905092915050565b50565b5f61029d5f83610285565b91506102a88261028f565b5f82019050919050565b5f6102bc82610292565b9150819050919050565b7f5472616e73666572206661696c65642e000000000000000000000000000000005f82015250565b5f6102fa6010836101df565b9150610305826102c6565b602082019050919050565b5f6020820190508181035f830152610327816102ee565b905091905056fea26469706673582212209bdc11e06293b833fee81664204b50626056509e39c4c82950365547098a5c3464736f6c634300081d0033",
			"opcodes": "PUSH1 0x80 PUSH1 0x40 MSTORE CALLVALUE DUP1 ISZERO PUSH1 0xE JUMPI PUSH0 PUSH0 REVERT JUMPDEST POP PUSH2 0x364 DUP1 PUSH2 0x1C PUSH0 CODECOPY PUSH0 RETURN INVALID PUSH1 0x80 PUSH1 0x40 MSTORE PUSH1 0x4 CALLDATASIZE LT PUSH2 0x2C JUMPI PUSH0 CALLDATALOAD PUSH1 0xE0 SHR DUP1 PUSH4 0x48C981E2 EQ PUSH2 0x3F JUMPI DUP1 PUSH4 0xE13A7716 EQ PUSH2 0x5B JUMPI PUSH2 0x3B JUMP JUMPDEST CALLDATASIZE PUSH2 0x3B JUMPI PUSH2 0x39 PUSH2 0x71 JUMP JUMPDEST STOP JUMPDEST PUSH0 PUSH0 REVERT JUMPDEST PUSH2 0x59 PUSH1 0x4 DUP1 CALLDATASIZE SUB DUP2 ADD SWAP1 PUSH2 0x54 SWAP2 SWAP1 PUSH2 0x1B4 JUMP JUMPDEST PUSH2 0xAA JUMP JUMPDEST STOP JUMPDEST CALLVALUE DUP1 ISZERO PUSH2 0x66 JUMPI PUSH0 PUSH0 REVERT JUMPDEST POP PUSH2 0x6F PUSH2 0x71 JUMP JUMPDEST STOP JUMPDEST PUSH32 0x621C2A96B16DC51DAE36A7AE446927D28335201191A953DA6606A3019F3C7AFB ADDRESS PUSH1 0x40 MLOAD PUSH2 0xA0 SWAP2 SWAP1 PUSH2 0x259 JUMP JUMPDEST PUSH1 0x40 MLOAD DUP1 SWAP2 SUB SWAP1 LOG1 JUMP JUMPDEST PUSH0 DUP2 PUSH20 0xFFFFFFFFFFFFFFFFFFFFFFFFFFFFFFFFFFFFFFFF AND CALLVALUE PUSH1 0x40 MLOAD PUSH2 0xCF SWAP1 PUSH2 0x2B2 JUMP JUMPDEST PUSH0 PUSH1 0x40 MLOAD DUP1 DUP4 SUB DUP2 DUP6 DUP8 GAS CALL SWAP3 POP POP POP RETURNDATASIZE DUP1 PUSH0 DUP2 EQ PUSH2 0x109 JUMPI PUSH1 0x40 MLOAD SWAP2 POP PUSH1 0x1F NOT PUSH1 0x3F RETURNDATASIZE ADD AND DUP3 ADD PUSH1 0x40 MSTORE RETURNDATASIZE DUP3 MSTORE RETURNDATASIZE PUSH0 PUSH1 0x20 DUP5 ADD RETURNDATACOPY PUSH2 0x10E JUMP JUMPDEST PUSH1 0x60 SWAP2 POP JUMPDEST POP POP SWAP1 POP DUP1 PUSH2 0x152 JUMPI PUSH1 0x40 MLOAD PUSH32 0x8C379A000000000000000000000000000000000000000000000000000000000 DUP2 MSTORE PUSH1 0x4 ADD PUSH2 0x149 SWAP1 PUSH2 0x310 JUMP JUMPDEST PUSH1 0x40 MLOAD DUP1 SWAP2 SUB SWAP1 REVERT JUMPDEST POP POP JUMP JUMPDEST PUSH0 PUSH0 REVERT JUMPDEST PUSH0 PUSH20 0xFFFFFFFFFFFFFFFFFFFFFFFFFFFFFFFFFFFFFFFF DUP3 AND SWAP1 POP SWAP2 SWAP1 POP JUMP JUMPDEST PUSH0 PUSH2 0x183 DUP3 PUSH2 0x15A JUMP JUMPDEST SWAP1 POP SWAP2 SWAP1 POP JUMP JUMPDEST PUSH2 0x193 DUP2 PUSH2 0x179 JUMP JUMPDEST DUP2 EQ PUSH2 0x19D JUMPI PUSH0 PUSH0 REVERT JUMPDEST POP JUMP JUMPDEST PUSH0 DUP2 CALLDATALOAD SWAP1 POP PUSH2 0x1AE DUP2 PUSH2 0x18A JUMP JUMPDEST SWAP3 SWAP2 POP POP JUMP JUMPDEST PUSH0 PUSH1 0x20 DUP3 DUP5 SUB SLT ISZERO PUSH2 0x1C9 JUMPI PUSH2 0x1C8 PUSH2 0x156 JUMP JUMPDEST JUMPDEST PUSH0 PUSH2 0x1D6 DUP5 DUP3 DUP6 ADD PUSH2 0x1A0 JUMP JUMPDEST SWAP2 POP POP SWAP3 SWAP2 POP POP JUMP JUMPDEST PUSH0 DUP3 DUP3 MSTORE PUSH1 0x20 DUP3 ADD SWAP1 POP SWAP3 SWAP2 POP POP JUMP JUMPDEST PUSH32 0x53656E646572207265636569766564206D6F6E6579206261636B000000000000 PUSH0 DUP3 ADD MSTORE POP JUMP JUMPDEST PUSH0 PUSH2 0x223 PUSH1 0x1A DUP4 PUSH2 0x1DF JUMP JUMPDEST SWAP2 POP PUSH2 0x22E DUP3 PUSH2 0x1EF JUMP JUMPDEST PUSH1 0x20 DUP3 ADD SWAP1 POP SWAP2 SWAP1 POP JUMP JUMPDEST PUSH0 PUSH2 0x243 DUP3 PUSH2 0x15A JUMP JUMPDEST SWAP1 POP SWAP2 SWAP1 POP JUMP JUMPDEST PUSH2 0x253 DUP2 PUSH2 0x239 JUMP JUMPDEST DUP3 MSTORE POP POP JUMP JUMPDEST PUSH0 PUSH1 0x40 DUP3 ADD SWAP1 POP DUP2 DUP2 SUB PUSH0 DUP4 ADD MSTORE PUSH2 0x270 DUP2 PUSH2 0x217 JUMP JUMPDEST SWAP1 POP PUSH2 0x27F PUSH1 0x20 DUP4 ADD DUP5 PUSH2 0x24A JUMP JUMPDEST SWAP3 SWAP2 POP POP JUMP JUMPDEST PUSH0 DUP2 SWAP1 POP SWAP3 SWAP2 POP POP JUMP JUMPDEST POP JUMP JUMPDEST PUSH0 PUSH2 0x29D PUSH0 DUP4 PUSH2 0x285 JUMP JUMPDEST SWAP2 POP PUSH2 0x2A8 DUP3 PUSH2 0x28F JUMP JUMPDEST PUSH0 DUP3 ADD SWAP1 POP SWAP2 SWAP1 POP JUMP JUMPDEST PUSH0 PUSH2 0x2BC DUP3 PUSH2 0x292 JUMP JUMPDEST SWAP2 POP DUP2 SWAP1 POP SWAP2 SWAP1 POP JUMP JUMPDEST PUSH32 0x5472616E73666572206661696C65642E00000000000000000000000000000000 PUSH0 DUP3 ADD MSTORE POP JUMP JUMPDEST PUSH0 PUSH2 0x2FA PUSH1 0x10 DUP4 PUSH2 0x1DF JUMP JUMPDEST SWAP2 POP PUSH2 0x305 DUP3 PUSH2 0x2C6 JUMP JUMPDEST PUSH1 0x20 DUP3 ADD SWAP1 POP SWAP2 SWAP1 POP JUMP JUMPDEST PUSH0 PUSH1 0x20 DUP3 ADD SWAP1 POP DUP2 DUP2 SUB PUSH0 DUP4 ADD MSTORE PUSH2 0x327 DUP2 PUSH2 0x2EE JUMP JUMPDEST SWAP1 POP SWAP2 SWAP1 POP JUMP INVALID LOG2 PUSH5 0x6970667358 0x22 SLT KECCAK256 SWAP12 0xDC GT RJUMP 0x6293 0xB8 CALLER INVALID 0xE8 AND PUSH5 0x204B506260 JUMP POP SWAP15 CODECOPY 0xC4 0xC8 0x29 POP CALLDATASIZE SSTORE SELFBALANCE MULMOD DUP11 TLOAD CALLVALUE PUSH5 0x736F6C6343 STOP ADDMOD SAR STOP CALLER "
		},
		"gasEstimates": {
			"creation": {
				"codeDepositCost": "173600",
				"executionCost": "218",
				"totalCost": "173818"
			},
			"external": {
				"sendEther(address)": "infinite",
				"testReturn()": "2345"
			}
		},
		"methodIdentifiers": {
			"sendEther(address)": "48c981e2",
			"testReturn()": "e13a7716"
		}
	},
	"abi": [
		{
			"anonymous": false,
			"inputs": [
				{
					"indexed": false,
					"internalType": "string",
					"name": "",
					"type": "string"
				},
				{
					"indexed": false,
					"internalType": "address",
					"name": "",
					"type": "address"
				}
			],
			"name": "LogMessage",
			"type": "event"
		},
		{
			"inputs": [
				{
					"internalType": "address payable",
					"name": "receiverAddress",
					"type": "address"
				}
			],
			"name": "sendEther",
			"outputs": [],
			"stateMutability": "payable",
			"type": "function"
		},
		{
			"inputs": [],
			"name": "testReturn",
			"outputs": [],
			"stateMutability": "nonpayable",
			"type": "function"
		},
		{
			"stateMutability": "payable",
			"type": "receive"
		}
	]
}