{
	"data": {
		"bytecode": {
			"linkReferences": {},
			"object": "6080604052348015600e575f80fd5b50610bfc8061001c5f395ff3fe608060405260043610610049575f3560e01c80634ec508f91461004d57806355a78e2b1461008a578063d29709fb146100c6578063ddfc5cfe146100e2578063f056ac0c14610121575b5f80fd5b348015610058575f80fd5b50610073600480360381019061006e9190610638565b61015d565b604051610081929190610672565b60405180910390f35b348015610095575f80fd5b506100b060048036038101906100ab9190610728565b61019a565b6040516100bd91906107e8565b60405180910390f35b6100e060048036038101906100db9190610808565b6102f6565b005b3480156100ed575f80fd5b5061010860048036038101906101039190610881565b6103a6565b60405161011894939291906108bb565b60405180910390f35b34801561012c575f80fd5b5061014760048036038101906101429190610905565b610476565b60405161015491906107e8565b60405180910390f35b5f805f60058461016d9190610996565b6103e861017a9190610a04565b90505f816103e861018b9190610a34565b90508181935093505050915091565b60605f806101e65f808873ffffffffffffffffffffffffffffffffffffffff1673ffffffffffffffffffffffffffffffffffffffff1681526020019081526020015f206002015461015d565b915091508480156101f45750835b1561025e5761020386836102f6565b60015f808873ffffffffffffffffffffffffffffffffffffffff1673ffffffffffffffffffffffffffffffffffffffff1681526020019081526020015f206002015f8282546102529190610a67565b925050819055506102b5565b60015f808873ffffffffffffffffffffffffffffffffffffffff1673ffffffffffffffffffffffffffffffffffffffff1681526020019081526020015f206002015f8282546102ad9190610a34565b925050819055505b6040518060400160405280600781526020017f7375636365737300000000000000000000000000000000000000000000000000815250925050509392505050565b5f808373ffffffffffffffffffffffffffffffffffffffff168360405161031c90610ac7565b5f6040518083038185875af1925050503d805f8114610356576040519150601f19603f3d011682016040523d82523d5f602084013e61035b565b606091505b5091509150816103a0576040517f08c379a000000000000000000000000000000000000000000000000000000000815260040161039790610b4b565b60405180910390fd5b50505050565b5f602052805f5260405f205f91509050805f015f9054906101000a900473ffffffffffffffffffffffffffffffffffffffff16908060010180546103e990610b96565b80601f016020809104026020016040519081016040528092919081815260200182805461041590610b96565b80156104605780601f1061043757610100808354040283529160200191610460565b820191905f5260205f20905b81548152906001019060200180831161044357829003601f168201915b5050505050908060020154908060030154905084565b60605f806104c25f808973ffffffffffffffffffffffffffffffffffffffff1673ffffffffffffffffffffffffffffffffffffffff1681526020019081526020015f206002015461015d565b915091508580156104d05750845b15610551576104df87836102f6565b6104f6846107d0836104f19190610a67565b6102f6565b60015f808973ffffffffffffffffffffffffffffffffffffffff1673ffffffffffffffffffffffffffffffffffffffff1681526020019081526020015f206002015f8282546105459190610a67565b925050819055506105bf565b610568846107d0836105639190610a67565b6102f6565b60015f808973ffffffffffffffffffffffffffffffffffffffff1673ffffffffffffffffffffffffffffffffffffffff1681526020019081526020015f206002015f8282546105b79190610a34565b925050819055505b6040518060400160405280600781526020017f737563636573730000000000000000000000000000000000000000000000000081525092505050949350505050565b5f80fd5b5f819050919050565b61061781610605565b8114610621575f80fd5b50565b5f813590506106328161060e565b92915050565b5f6020828403121561064d5761064c610601565b5b5f61065a84828501610624565b91505092915050565b61066c81610605565b82525050565b5f6040820190506106855f830185610663565b6106926020830184610663565b9392505050565b5f73ffffffffffffffffffffffffffffffffffffffff82169050919050565b5f6106c282610699565b9050919050565b6106d2816106b8565b81146106dc575f80fd5b50565b5f813590506106ed816106c9565b92915050565b5f8115159050919050565b610707816106f3565b8114610711575f80fd5b50565b5f81359050610722816106fe565b92915050565b5f805f6060848603121561073f5761073e610601565b5b5f61074c868287016106df565b935050602061075d86828701610714565b925050604061076e86828701610714565b9150509250925092565b5f81519050919050565b5f82825260208201905092915050565b8281835e5f83830152505050565b5f601f19601f8301169050919050565b5f6107ba82610778565b6107c48185610782565b93506107d4818560208601610792565b6107dd816107a0565b840191505092915050565b5f6020820190508181035f83015261080081846107b0565b905092915050565b5f806040838503121561081e5761081d610601565b5b5f61082b858286016106df565b925050602061083c85828601610624565b9150509250929050565b5f61085082610699565b9050919050565b61086081610846565b811461086a575f80fd5b50565b5f8135905061087b81610857565b92915050565b5f6020828403121561089657610895610601565b5b5f6108a38482850161086d565b91505092915050565b6108b5816106b8565b82525050565b5f6080820190506108ce5f8301876108ac565b81810360208301526108e081866107b0565b90506108ef6040830185610663565b6108fc6060830184610663565b95945050505050565b5f805f806080858703121561091d5761091c610601565b5b5f61092a878288016106df565b945050602061093b87828801610714565b935050604061094c87828801610714565b925050606061095d878288016106df565b91505092959194509250565b7f4e487b71000000000000000000000000000000000000000000000000000000005f52601160045260245ffd5b5f6109a082610605565b91506109ab83610605565b92508282026109b981610605565b915082820484148315176109d0576109cf610969565b5b5092915050565b7f4e487b71000000000000000000000000000000000000000000000000000000005f52601260045260245ffd5b5f610a0e82610605565b9150610a1983610605565b925082610a2957610a286109d7565b5b828204905092915050565b5f610a3e82610605565b9150610a4983610605565b9250828203905081811115610a6157610a60610969565b5b92915050565b5f610a7182610605565b9150610a7c83610605565b9250828201905080821115610a9457610a93610969565b5b92915050565b5f81905092915050565b50565b5f610ab25f83610a9a565b9150610abd82610aa4565b5f82019050919050565b5f610ad182610aa7565b9150819050919050565b7f4661696c656420746f2073656e64206465706f73697420746f2070726f706f6e5f8201527f656e740000000000000000000000000000000000000000000000000000000000602082015250565b5f610b35602383610782565b9150610b4082610adb565b604082019050919050565b5f6020820190508181035f830152610b6281610b29565b9050919050565b7f4e487b71000000000000000000000000000000000000000000000000000000005f52602260045260245ffd5b5f6002820490506001821680610bad57607f821691505b602082108103610bc057610bbf610b69565b5b5091905056fea26469706673582212202462a2137ad6d8760701938bbc42513bb0ea21b830d9287f09e03674fde9051a64736f6c634300081a0033",
			"opcodes": "PUSH1 0x80 PUSH1 0x40 MSTORE CALLVALUE DUP1 ISZERO PUSH1 0xE JUMPI PUSH0 DUP1 REVERT JUMPDEST POP PUSH2 0xBFC DUP1 PUSH2 0x1C PUSH0 CODECOPY PUSH0 RETURN INVALID PUSH1 0x80 PUSH1 0x40 MSTORE PUSH1 0x4 CALLDATASIZE LT PUSH2 0x49 JUMPI PUSH0 CALLDATALOAD PUSH1 0xE0 SHR DUP1 PUSH4 0x4EC508F9 EQ PUSH2 0x4D JUMPI DUP1 PUSH4 0x55A78E2B EQ PUSH2 0x8A JUMPI DUP1 PUSH4 0xD29709FB EQ PUSH2 0xC6 JUMPI DUP1 PUSH4 0xDDFC5CFE EQ PUSH2 0xE2 JUMPI DUP1 PUSH4 0xF056AC0C EQ PUSH2 0x121 JUMPI JUMPDEST PUSH0 DUP1 REVERT JUMPDEST CALLVALUE DUP1 ISZERO PUSH2 0x58 JUMPI PUSH0 DUP1 REVERT JUMPDEST POP PUSH2 0x73 PUSH1 0x4 DUP1 CALLDATASIZE SUB DUP2 ADD SWAP1 PUSH2 0x6E SWAP2 SWAP1 PUSH2 0x638 JUMP JUMPDEST PUSH2 0x15D JUMP JUMPDEST PUSH1 0x40 MLOAD PUSH2 0x81 SWAP3 SWAP2 SWAP1 PUSH2 0x672 JUMP JUMPDEST PUSH1 0x40 MLOAD DUP1 SWAP2 SUB SWAP1 RETURN JUMPDEST CALLVALUE DUP1 ISZERO PUSH2 0x95 JUMPI PUSH0 DUP1 REVERT JUMPDEST POP PUSH2 0xB0 PUSH1 0x4 DUP1 CALLDATASIZE SUB DUP2 ADD SWAP1 PUSH2 0xAB SWAP2 SWAP1 PUSH2 0x728 JUMP JUMPDEST PUSH2 0x19A JUMP JUMPDEST PUSH1 0x40 MLOAD PUSH2 0xBD SWAP2 SWAP1 PUSH2 0x7E8 JUMP JUMPDEST PUSH1 0x40 MLOAD DUP1 SWAP2 SUB SWAP1 RETURN JUMPDEST PUSH2 0xE0 PUSH1 0x4 DUP1 CALLDATASIZE SUB DUP2 ADD SWAP1 PUSH2 0xDB SWAP2 SWAP1 PUSH2 0x808 JUMP JUMPDEST PUSH2 0x2F6 JUMP JUMPDEST STOP JUMPDEST CALLVALUE DUP1 ISZERO PUSH2 0xED JUMPI PUSH0 DUP1 REVERT JUMPDEST POP PUSH2 0x108 PUSH1 0x4 DUP1 CALLDATASIZE SUB DUP2 ADD SWAP1 PUSH2 0x103 SWAP2 SWAP1 PUSH2 0x881 JUMP JUMPDEST PUSH2 0x3A6 JUMP JUMPDEST PUSH1 0x40 MLOAD PUSH2 0x118 SWAP5 SWAP4 SWAP3 SWAP2 SWAP1 PUSH2 0x8BB JUMP JUMPDEST PUSH1 0x40 MLOAD DUP1 SWAP2 SUB SWAP1 RETURN JUMPDEST CALLVALUE DUP1 ISZERO PUSH2 0x12C JUMPI PUSH0 DUP1 REVERT JUMPDEST POP PUSH2 0x147 PUSH1 0x4 DUP1 CALLDATASIZE SUB DUP2 ADD SWAP1 PUSH2 0x142 SWAP2 SWAP1 PUSH2 0x905 JUMP JUMPDEST PUSH2 0x476 JUMP JUMPDEST PUSH1 0x40 MLOAD PUSH2 0x154 SWAP2 SWAP1 PUSH2 0x7E8 JUMP JUMPDEST PUSH1 0x40 MLOAD DUP1 SWAP2 SUB SWAP1 RETURN JUMPDEST PUSH0 DUP1 PUSH0 PUSH1 0x5 DUP5 PUSH2 0x16D SWAP2 SWAP1 PUSH2 0x996 JUMP JUMPDEST PUSH2 0x3E8 PUSH2 0x17A SWAP2 SWAP1 PUSH2 0xA04 JUMP JUMPDEST SWAP1 POP PUSH0 DUP2 PUSH2 0x3E8 PUSH2 0x18B SWAP2 SWAP1 PUSH2 0xA34 JUMP JUMPDEST SWAP1 POP DUP2 DUP2 SWAP4 POP SWAP4 POP POP POP SWAP2 POP SWAP2 JUMP JUMPDEST PUSH1 0x60 PUSH0 DUP1 PUSH2 0x1E6 PUSH0 DUP1 DUP9 PUSH20 0xFFFFFFFFFFFFFFFFFFFFFFFFFFFFFFFFFFFFFFFF AND PUSH20 0xFFFFFFFFFFFFFFFFFFFFFFFFFFFFFFFFFFFFFFFF AND DUP2 MSTORE PUSH1 0x20 ADD SWAP1 DUP2 MSTORE PUSH1 0x20 ADD PUSH0 KECCAK256 PUSH1 0x2 ADD SLOAD PUSH2 0x15D JUMP JUMPDEST SWAP2 POP SWAP2 POP DUP5 DUP1 ISZERO PUSH2 0x1F4 JUMPI POP DUP4 JUMPDEST ISZERO PUSH2 0x25E JUMPI PUSH2 0x203 DUP7 DUP4 PUSH2 0x2F6 JUMP JUMPDEST PUSH1 0x1 PUSH0 DUP1 DUP9 PUSH20 0xFFFFFFFFFFFFFFFFFFFFFFFFFFFFFFFFFFFFFFFF AND PUSH20 0xFFFFFFFFFFFFFFFFFFFFFFFFFFFFFFFFFFFFFFFF AND DUP2 MSTORE PUSH1 0x20 ADD SWAP1 DUP2 MSTORE PUSH1 0x20 ADD PUSH0 KECCAK256 PUSH1 0x2 ADD PUSH0 DUP3 DUP3 SLOAD PUSH2 0x252 SWAP2 SWAP1 PUSH2 0xA67 JUMP JUMPDEST SWAP3 POP POP DUP2 SWAP1 SSTORE POP PUSH2 0x2B5 JUMP JUMPDEST PUSH1 0x1 PUSH0 DUP1 DUP9 PUSH20 0xFFFFFFFFFFFFFFFFFFFFFFFFFFFFFFFFFFFFFFFF AND PUSH20 0xFFFFFFFFFFFFFFFFFFFFFFFFFFFFFFFFFFFFFFFF AND DUP2 MSTORE PUSH1 0x20 ADD SWAP1 DUP2 MSTORE PUSH1 0x20 ADD PUSH0 KECCAK256 PUSH1 0x2 ADD PUSH0 DUP3 DUP3 SLOAD PUSH2 0x2AD SWAP2 SWAP1 PUSH2 0xA34 JUMP JUMPDEST SWAP3 POP POP DUP2 SWAP1 SSTORE POP JUMPDEST PUSH1 0x40 MLOAD DUP1 PUSH1 0x40 ADD PUSH1 0x40 MSTORE DUP1 PUSH1 0x7 DUP2 MSTORE PUSH1 0x20 ADD PUSH32 0x7375636365737300000000000000000000000000000000000000000000000000 DUP2 MSTORE POP SWAP3 POP POP POP SWAP4 SWAP3 POP POP POP JUMP JUMPDEST PUSH0 DUP1 DUP4 PUSH20 0xFFFFFFFFFFFFFFFFFFFFFFFFFFFFFFFFFFFFFFFF AND DUP4 PUSH1 0x40 MLOAD PUSH2 0x31C SWAP1 PUSH2 0xAC7 JUMP JUMPDEST PUSH0 PUSH1 0x40 MLOAD DUP1 DUP4 SUB DUP2 DUP6 DUP8 GAS CALL SWAP3 POP POP POP RETURNDATASIZE DUP1 PUSH0 DUP2 EQ PUSH2 0x356 JUMPI PUSH1 0x40 MLOAD SWAP2 POP PUSH1 0x1F NOT PUSH1 0x3F RETURNDATASIZE ADD AND DUP3 ADD PUSH1 0x40 MSTORE RETURNDATASIZE DUP3 MSTORE RETURNDATASIZE PUSH0 PUSH1 0x20 DUP5 ADD RETURNDATACOPY PUSH2 0x35B JUMP JUMPDEST PUSH1 0x60 SWAP2 POP JUMPDEST POP SWAP2 POP SWAP2 POP DUP2 PUSH2 0x3A0 JUMPI PUSH1 0x40 MLOAD PUSH32 0x8C379A000000000000000000000000000000000000000000000000000000000 DUP2 MSTORE PUSH1 0x4 ADD PUSH2 0x397 SWAP1 PUSH2 0xB4B JUMP JUMPDEST PUSH1 0x40 MLOAD DUP1 SWAP2 SUB SWAP1 REVERT JUMPDEST POP POP POP POP JUMP JUMPDEST PUSH0 PUSH1 0x20 MSTORE DUP1 PUSH0 MSTORE PUSH1 0x40 PUSH0 KECCAK256 PUSH0 SWAP2 POP SWAP1 POP DUP1 PUSH0 ADD PUSH0 SWAP1 SLOAD SWAP1 PUSH2 0x100 EXP SWAP1 DIV PUSH20 0xFFFFFFFFFFFFFFFFFFFFFFFFFFFFFFFFFFFFFFFF AND SWAP1 DUP1 PUSH1 0x1 ADD DUP1 SLOAD PUSH2 0x3E9 SWAP1 PUSH2 0xB96 JUMP JUMPDEST DUP1 PUSH1 0x1F ADD PUSH1 0x20 DUP1 SWAP2 DIV MUL PUSH1 0x20 ADD PUSH1 0x40 MLOAD SWAP1 DUP2 ADD PUSH1 0x40 MSTORE DUP1 SWAP3 SWAP2 SWAP1 DUP2 DUP2 MSTORE PUSH1 0x20 ADD DUP3 DUP1 SLOAD PUSH2 0x415 SWAP1 PUSH2 0xB96 JUMP JUMPDEST DUP1 ISZERO PUSH2 0x460 JUMPI DUP1 PUSH1 0x1F LT PUSH2 0x437 JUMPI PUSH2 0x100 DUP1 DUP4 SLOAD DIV MUL DUP4 MSTORE SWAP2 PUSH1 0x20 ADD SWAP2 PUSH2 0x460 JUMP JUMPDEST DUP3 ADD SWAP2 SWAP1 PUSH0 MSTORE PUSH1 0x20 PUSH0 KECCAK256 SWAP1 JUMPDEST DUP2 SLOAD DUP2 MSTORE SWAP1 PUSH1 0x1 ADD SWAP1 PUSH1 0x20 ADD DUP1 DUP4 GT PUSH2 0x443 JUMPI DUP3 SWAP1 SUB PUSH1 0x1F AND DUP3 ADD SWAP2 JUMPDEST POP POP POP POP POP SWAP1 DUP1 PUSH1 0x2 ADD SLOAD SWAP1 DUP1 PUSH1 0x3 ADD SLOAD SWAP1 POP DUP5 JUMP JUMPDEST PUSH1 0x60 PUSH0 DUP1 PUSH2 0x4C2 PUSH0 DUP1 DUP10 PUSH20 0xFFFFFFFFFFFFFFFFFFFFFFFFFFFFFFFFFFFFFFFF AND PUSH20 0xFFFFFFFFFFFFFFFFFFFFFFFFFFFFFFFFFFFFFFFF AND DUP2 MSTORE PUSH1 0x20 ADD SWAP1 DUP2 MSTORE PUSH1 0x20 ADD PUSH0 KECCAK256 PUSH1 0x2 ADD SLOAD PUSH2 0x15D JUMP JUMPDEST SWAP2 POP SWAP2 POP DUP6 DUP1 ISZERO PUSH2 0x4D0 JUMPI POP DUP5 JUMPDEST ISZERO PUSH2 0x551 JUMPI PUSH2 0x4DF DUP8 DUP4 PUSH2 0x2F6 JUMP JUMPDEST PUSH2 0x4F6 DUP5 PUSH2 0x7D0 DUP4 PUSH2 0x4F1 SWAP2 SWAP1 PUSH2 0xA67 JUMP JUMPDEST PUSH2 0x2F6 JUMP JUMPDEST PUSH1 0x1 PUSH0 DUP1 DUP10 PUSH20 0xFFFFFFFFFFFFFFFFFFFFFFFFFFFFFFFFFFFFFFFF AND PUSH20 0xFFFFFFFFFFFFFFFFFFFFFFFFFFFFFFFFFFFFFFFF AND DUP2 MSTORE PUSH1 0x20 ADD SWAP1 DUP2 MSTORE PUSH1 0x20 ADD PUSH0 KECCAK256 PUSH1 0x2 ADD PUSH0 DUP3 DUP3 SLOAD PUSH2 0x545 SWAP2 SWAP1 PUSH2 0xA67 JUMP JUMPDEST SWAP3 POP POP DUP2 SWAP1 SSTORE POP PUSH2 0x5BF JUMP JUMPDEST PUSH2 0x568 DUP5 PUSH2 0x7D0 DUP4 PUSH2 0x563 SWAP2 SWAP1 PUSH2 0xA67 JUMP JUMPDEST PUSH2 0x2F6 JUMP JUMPDEST PUSH1 0x1 PUSH0 DUP1 DUP10 PUSH20 0xFFFFFFFFFFFFFFFFFFFFFFFFFFFFFFFFFFFFFFFF AND PUSH20 0xFFFFFFFFFFFFFFFFFFFFFFFFFFFFFFFFFFFFFFFF AND DUP2 MSTORE PUSH1 0x20 ADD SWAP1 DUP2 MSTORE PUSH1 0x20 ADD PUSH0 KECCAK256 PUSH1 0x2 ADD PUSH0 DUP3 DUP3 SLOAD PUSH2 0x5B7 SWAP2 SWAP1 PUSH2 0xA34 JUMP JUMPDEST SWAP3 POP POP DUP2 SWAP1 SSTORE POP JUMPDEST PUSH1 0x40 MLOAD DUP1 PUSH1 0x40 ADD PUSH1 0x40 MSTORE DUP1 PUSH1 0x7 DUP2 MSTORE PUSH1 0x20 ADD PUSH32 0x7375636365737300000000000000000000000000000000000000000000000000 DUP2 MSTORE POP SWAP3 POP POP POP SWAP5 SWAP4 POP POP POP POP JUMP JUMPDEST PUSH0 DUP1 REVERT JUMPDEST PUSH0 DUP2 SWAP1 POP SWAP2 SWAP1 POP JUMP JUMPDEST PUSH2 0x617 DUP2 PUSH2 0x605 JUMP JUMPDEST DUP2 EQ PUSH2 0x621 JUMPI PUSH0 DUP1 REVERT JUMPDEST POP JUMP JUMPDEST PUSH0 DUP2 CALLDATALOAD SWAP1 POP PUSH2 0x632 DUP2 PUSH2 0x60E JUMP JUMPDEST SWAP3 SWAP2 POP POP JUMP JUMPDEST PUSH0 PUSH1 0x20 DUP3 DUP5 SUB SLT ISZERO PUSH2 0x64D JUMPI PUSH2 0x64C PUSH2 0x601 JUMP JUMPDEST JUMPDEST PUSH0 PUSH2 0x65A DUP5 DUP3 DUP6 ADD PUSH2 0x624 JUMP JUMPDEST SWAP2 POP POP SWAP3 SWAP2 POP POP JUMP JUMPDEST PUSH2 0x66C DUP2 PUSH2 0x605 JUMP JUMPDEST DUP3 MSTORE POP POP JUMP JUMPDEST PUSH0 PUSH1 0x40 DUP3 ADD SWAP1 POP PUSH2 0x685 PUSH0 DUP4 ADD DUP6 PUSH2 0x663 JUMP JUMPDEST PUSH2 0x692 PUSH1 0x20 DUP4 ADD DUP5 PUSH2 0x663 JUMP JUMPDEST SWAP4 SWAP3 POP POP POP JUMP JUMPDEST PUSH0 PUSH20 0xFFFFFFFFFFFFFFFFFFFFFFFFFFFFFFFFFFFFFFFF DUP3 AND SWAP1 POP SWAP2 SWAP1 POP JUMP JUMPDEST PUSH0 PUSH2 0x6C2 DUP3 PUSH2 0x699 JUMP JUMPDEST SWAP1 POP SWAP2 SWAP1 POP JUMP JUMPDEST PUSH2 0x6D2 DUP2 PUSH2 0x6B8 JUMP JUMPDEST DUP2 EQ PUSH2 0x6DC JUMPI PUSH0 DUP1 REVERT JUMPDEST POP JUMP JUMPDEST PUSH0 DUP2 CALLDATALOAD SWAP1 POP PUSH2 0x6ED DUP2 PUSH2 0x6C9 JUMP JUMPDEST SWAP3 SWAP2 POP POP JUMP JUMPDEST PUSH0 DUP2 ISZERO ISZERO SWAP1 POP SWAP2 SWAP1 POP JUMP JUMPDEST PUSH2 0x707 DUP2 PUSH2 0x6F3 JUMP JUMPDEST DUP2 EQ PUSH2 0x711 JUMPI PUSH0 DUP1 REVERT JUMPDEST POP JUMP JUMPDEST PUSH0 DUP2 CALLDATALOAD SWAP1 POP PUSH2 0x722 DUP2 PUSH2 0x6FE JUMP JUMPDEST SWAP3 SWAP2 POP POP JUMP JUMPDEST PUSH0 DUP1 PUSH0 PUSH1 0x60 DUP5 DUP7 SUB SLT ISZERO PUSH2 0x73F JUMPI PUSH2 0x73E PUSH2 0x601 JUMP JUMPDEST JUMPDEST PUSH0 PUSH2 0x74C DUP7 DUP3 DUP8 ADD PUSH2 0x6DF JUMP JUMPDEST SWAP4 POP POP PUSH1 0x20 PUSH2 0x75D DUP7 DUP3 DUP8 ADD PUSH2 0x714 JUMP JUMPDEST SWAP3 POP POP PUSH1 0x40 PUSH2 0x76E DUP7 DUP3 DUP8 ADD PUSH2 0x714 JUMP JUMPDEST SWAP2 POP POP SWAP3 POP SWAP3 POP SWAP3 JUMP JUMPDEST PUSH0 DUP2 MLOAD SWAP1 POP SWAP2 SWAP1 POP JUMP JUMPDEST PUSH0 DUP3 DUP3 MSTORE PUSH1 0x20 DUP3 ADD SWAP1 POP SWAP3 SWAP2 POP POP JUMP JUMPDEST DUP3 DUP2 DUP4 MCOPY PUSH0 DUP4 DUP4 ADD MSTORE POP POP POP JUMP JUMPDEST PUSH0 PUSH1 0x1F NOT PUSH1 0x1F DUP4 ADD AND SWAP1 POP SWAP2 SWAP1 POP JUMP JUMPDEST PUSH0 PUSH2 0x7BA DUP3 PUSH2 0x778 JUMP JUMPDEST PUSH2 0x7C4 DUP2 DUP6 PUSH2 0x782 JUMP JUMPDEST SWAP4 POP PUSH2 0x7D4 DUP2 DUP6 PUSH1 0x20 DUP7 ADD PUSH2 0x792 JUMP JUMPDEST PUSH2 0x7DD DUP2 PUSH2 0x7A0 JUMP JUMPDEST DUP5 ADD SWAP2 POP POP SWAP3 SWAP2 POP POP JUMP JUMPDEST PUSH0 PUSH1 0x20 DUP3 ADD SWAP1 POP DUP2 DUP2 SUB PUSH0 DUP4 ADD MSTORE PUSH2 0x800 DUP2 DUP5 PUSH2 0x7B0 JUMP JUMPDEST SWAP1 POP SWAP3 SWAP2 POP POP JUMP JUMPDEST PUSH0 DUP1 PUSH1 0x40 DUP4 DUP6 SUB SLT ISZERO PUSH2 0x81E JUMPI PUSH2 0x81D PUSH2 0x601 JUMP JUMPDEST JUMPDEST PUSH0 PUSH2 0x82B DUP6 DUP3 DUP7 ADD PUSH2 0x6DF JUMP JUMPDEST SWAP3 POP POP PUSH1 0x20 PUSH2 0x83C DUP6 DUP3 DUP7 ADD PUSH2 0x624 JUMP JUMPDEST SWAP2 POP POP SWAP3 POP SWAP3 SWAP1 POP JUMP JUMPDEST PUSH0 PUSH2 0x850 DUP3 PUSH2 0x699 JUMP JUMPDEST SWAP1 POP SWAP2 SWAP1 POP JUMP JUMPDEST PUSH2 0x860 DUP2 PUSH2 0x846 JUMP JUMPDEST DUP2 EQ PUSH2 0x86A JUMPI PUSH0 DUP1 REVERT JUMPDEST POP JUMP JUMPDEST PUSH0 DUP2 CALLDATALOAD SWAP1 POP PUSH2 0x87B DUP2 PUSH2 0x857 JUMP JUMPDEST SWAP3 SWAP2 POP POP JUMP JUMPDEST PUSH0 PUSH1 0x20 DUP3 DUP5 SUB SLT ISZERO PUSH2 0x896 JUMPI PUSH2 0x895 PUSH2 0x601 JUMP JUMPDEST JUMPDEST PUSH0 PUSH2 0x8A3 DUP5 DUP3 DUP6 ADD PUSH2 0x86D JUMP JUMPDEST SWAP2 POP POP SWAP3 SWAP2 POP POP JUMP JUMPDEST PUSH2 0x8B5 DUP2 PUSH2 0x6B8 JUMP JUMPDEST DUP3 MSTORE POP POP JUMP JUMPDEST PUSH0 PUSH1 0x80 DUP3 ADD SWAP1 POP PUSH2 0x8CE PUSH0 DUP4 ADD DUP8 PUSH2 0x8AC JUMP JUMPDEST DUP2 DUP2 SUB PUSH1 0x20 DUP4 ADD MSTORE PUSH2 0x8E0 DUP2 DUP7 PUSH2 0x7B0 JUMP JUMPDEST SWAP1 POP PUSH2 0x8EF PUSH1 0x40 DUP4 ADD DUP6 PUSH2 0x663 JUMP JUMPDEST PUSH2 0x8FC PUSH1 0x60 DUP4 ADD DUP5 PUSH2 0x663 JUMP JUMPDEST SWAP6 SWAP5 POP POP POP POP POP JUMP JUMPDEST PUSH0 DUP1 PUSH0 DUP1 PUSH1 0x80 DUP6 DUP8 SUB SLT ISZERO PUSH2 0x91D JUMPI PUSH2 0x91C PUSH2 0x601 JUMP JUMPDEST JUMPDEST PUSH0 PUSH2 0x92A DUP8 DUP3 DUP9 ADD PUSH2 0x6DF JUMP JUMPDEST SWAP5 POP POP PUSH1 0x20 PUSH2 0x93B DUP8 DUP3 DUP9 ADD PUSH2 0x714 JUMP JUMPDEST SWAP4 POP POP PUSH1 0x40 PUSH2 0x94C DUP8 DUP3 DUP9 ADD PUSH2 0x714 JUMP JUMPDEST SWAP3 POP POP PUSH1 0x60 PUSH2 0x95D DUP8 DUP3 DUP9 ADD PUSH2 0x6DF JUMP JUMPDEST SWAP2 POP POP SWAP3 SWAP6 SWAP2 SWAP5 POP SWAP3 POP JUMP JUMPDEST PUSH32 0x4E487B7100000000000000000000000000000000000000000000000000000000 PUSH0 MSTORE PUSH1 0x11 PUSH1 0x4 MSTORE PUSH1 0x24 PUSH0 REVERT JUMPDEST PUSH0 PUSH2 0x9A0 DUP3 PUSH2 0x605 JUMP JUMPDEST SWAP2 POP PUSH2 0x9AB DUP4 PUSH2 0x605 JUMP JUMPDEST SWAP3 POP DUP3 DUP3 MUL PUSH2 0x9B9 DUP2 PUSH2 0x605 JUMP JUMPDEST SWAP2 POP DUP3 DUP3 DIV DUP5 EQ DUP4 ISZERO OR PUSH2 0x9D0 JUMPI PUSH2 0x9CF PUSH2 0x969 JUMP JUMPDEST JUMPDEST POP SWAP3 SWAP2 POP POP JUMP JUMPDEST PUSH32 0x4E487B7100000000000000000000000000000000000000000000000000000000 PUSH0 MSTORE PUSH1 0x12 PUSH1 0x4 MSTORE PUSH1 0x24 PUSH0 REVERT JUMPDEST PUSH0 PUSH2 0xA0E DUP3 PUSH2 0x605 JUMP JUMPDEST SWAP2 POP PUSH2 0xA19 DUP4 PUSH2 0x605 JUMP JUMPDEST SWAP3 POP DUP3 PUSH2 0xA29 JUMPI PUSH2 0xA28 PUSH2 0x9D7 JUMP JUMPDEST JUMPDEST DUP3 DUP3 DIV SWAP1 POP SWAP3 SWAP2 POP POP JUMP JUMPDEST PUSH0 PUSH2 0xA3E DUP3 PUSH2 0x605 JUMP JUMPDEST SWAP2 POP PUSH2 0xA49 DUP4 PUSH2 0x605 JUMP JUMPDEST SWAP3 POP DUP3 DUP3 SUB SWAP1 POP DUP2 DUP2 GT ISZERO PUSH2 0xA61 JUMPI PUSH2 0xA60 PUSH2 0x969 JUMP JUMPDEST JUMPDEST SWAP3 SWAP2 POP POP JUMP JUMPDEST PUSH0 PUSH2 0xA71 DUP3 PUSH2 0x605 JUMP JUMPDEST SWAP2 POP PUSH2 0xA7C DUP4 PUSH2 0x605 JUMP JUMPDEST SWAP3 POP DUP3 DUP3 ADD SWAP1 POP DUP1 DUP3 GT ISZERO PUSH2 0xA94 JUMPI PUSH2 0xA93 PUSH2 0x969 JUMP JUMPDEST JUMPDEST SWAP3 SWAP2 POP POP JUMP JUMPDEST PUSH0 DUP2 SWAP1 POP SWAP3 SWAP2 POP POP JUMP JUMPDEST POP JUMP JUMPDEST PUSH0 PUSH2 0xAB2 PUSH0 DUP4 PUSH2 0xA9A JUMP JUMPDEST SWAP2 POP PUSH2 0xABD DUP3 PUSH2 0xAA4 JUMP JUMPDEST PUSH0 DUP3 ADD SWAP1 POP SWAP2 SWAP1 POP JUMP JUMPDEST PUSH0 PUSH2 0xAD1 DUP3 PUSH2 0xAA7 JUMP JUMPDEST SWAP2 POP DUP2 SWAP1 POP SWAP2 SWAP1 POP JUMP JUMPDEST PUSH32 0x4661696C656420746F2073656E64206465706F73697420746F2070726F706F6E PUSH0 DUP3 ADD MSTORE PUSH32 0x656E740000000000000000000000000000000000000000000000000000000000 PUSH1 0x20 DUP3 ADD MSTORE POP JUMP JUMPDEST PUSH0 PUSH2 0xB35 PUSH1 0x23 DUP4 PUSH2 0x782 JUMP JUMPDEST SWAP2 POP PUSH2 0xB40 DUP3 PUSH2 0xADB JUMP JUMPDEST PUSH1 0x40 DUP3 ADD SWAP1 POP SWAP2 SWAP1 POP JUMP JUMPDEST PUSH0 PUSH1 0x20 DUP3 ADD SWAP1 POP DUP2 DUP2 SUB PUSH0 DUP4 ADD MSTORE PUSH2 0xB62 DUP2 PUSH2 0xB29 JUMP JUMPDEST SWAP1 POP SWAP2 SWAP1 POP JUMP JUMPDEST PUSH32 0x4E487B7100000000000000000000000000000000000000000000000000000000 PUSH0 MSTORE PUSH1 0x22 PUSH1 0x4 MSTORE PUSH1 0x24 PUSH0 REVERT JUMPDEST PUSH0 PUSH1 0x2 DUP3 DIV SWAP1 POP PUSH1 0x1 DUP3 AND DUP1 PUSH2 0xBAD JUMPI PUSH1 0x7F DUP3 AND SWAP2 POP JUMPDEST PUSH1 0x20 DUP3 LT DUP2 SUB PUSH2 0xBC0 JUMPI PUSH2 0xBBF PUSH2 0xB69 JUMP JUMPDEST JUMPDEST POP SWAP2 SWAP1 POP JUMP INVALID LOG2 PUSH5 0x6970667358 0x22 SLT KECCAK256 0x24 PUSH3 0xA2137A 0xD6 0xD8 PUSH23 0x701938BBC42513BB0EA21B830D9287F09E03674FDE905 BYTE PUSH5 0x736F6C6343 STOP ADDMOD BYTE STOP CALLER "
		},
		"gasEstimates": {
			"creation": {
				"codeDepositCost": "613600",
				"executionCost": "643",
				"totalCost": "614243"
			},
			"external": {
				"calculateDeposit(uint256)": "infinite",
				"proponents(address)": "infinite",
				"returnDeposit(address,uint256)": "infinite",
				"sendResult(address,bool,bool,address)": "infinite",
				"sendResulttest(address,bool,bool)": "infinite"
			}
		},
		"methodIdentifiers": {
			"calculateDeposit(uint256)": "4ec508f9",
			"proponents(address)": "ddfc5cfe",
			"returnDeposit(address,uint256)": "d29709fb",
			"sendResult(address,bool,bool,address)": "f056ac0c",
			"sendResulttest(address,bool,bool)": "55a78e2b"
		}
	},
	"abi": [
		{
			"anonymous": false,
			"inputs": [
				{
					"indexed": false,
					"internalType": "uint256",
					"name": "amount",
					"type": "uint256"
				}
			],
			"name": "Bal",
			"type": "event"
		},
		{
			"inputs": [
				{
					"internalType": "uint256",
					"name": "_repScore",
					"type": "uint256"
				}
			],
			"name": "calculateDeposit",
			"outputs": [
				{
					"internalType": "uint256",
					"name": "",
					"type": "uint256"
				},
				{
					"internalType": "uint256",
					"name": "",
					"type": "uint256"
				}
			],
			"stateMutability": "pure",
			"type": "function"
		},
		{
			"inputs": [
				{
					"internalType": "address",
					"name": "",
					"type": "address"
				}
			],
			"name": "proponents",
			"outputs": [
				{
					"internalType": "address payable",
					"name": "propAddr",
					"type": "address"
				},
				{
					"internalType": "string",
					"name": "name",
					"type": "string"
				},
				{
					"internalType": "uint256",
					"name": "repScore",
					"type": "uint256"
				},
				{
					"internalType": "uint256",
					"name": "balance",
					"type": "uint256"
				}
			],
			"stateMutability": "view",
			"type": "function"
		},
		{
			"inputs": [
				{
					"internalType": "address payable",
					"name": "addr",
					"type": "address"
				},
				{
					"internalType": "uint256",
					"name": "deposit",
					"type": "uint256"
				}
			],
			"name": "returnDeposit",
			"outputs": [],
			"stateMutability": "payable",
			"type": "function"
		},
		{
			"inputs": [
				{
					"internalType": "address payable",
					"name": "proponent",
					"type": "address"
				},
				{
					"internalType": "bool",
					"name": "valResult",
					"type": "bool"
				},
				{
					"internalType": "bool",
					"name": "verResult",
					"type": "bool"
				},
				{
					"internalType": "address payable",
					"name": "verra",
					"type": "address"
				}
			],
			"name": "sendResult",
			"outputs": [
				{
					"internalType": "string",
					"name": "",
					"type": "string"
				}
			],
			"stateMutability": "nonpayable",
			"type": "function"
		},
		{
			"inputs": [
				{
					"internalType": "address payable",
					"name": "proponent",
					"type": "address"
				},
				{
					"internalType": "bool",
					"name": "valResult",
					"type": "bool"
				},
				{
					"internalType": "bool",
					"name": "verResult",
					"type": "bool"
				}
			],
			"name": "sendResulttest",
			"outputs": [
				{
					"internalType": "string",
					"name": "",
					"type": "string"
				}
			],
			"stateMutability": "nonpayable",
			"type": "function"
		}
	]
}