{
	"data": {
		"bytecode": {
			"linkReferences": {},
			"object": "6080604052348015600e575f5ffd5b50612dbb8061001c5f395ff3fe608060405234801561000f575f5ffd5b5060043610610034575f3560e01c806351d3c99b14610038578063570ca73514610042575b5f5ffd5b61004061006a565b005b5f54610054906001600160a01b031681565b604051610061919061022b565b60405180910390f35b73779877a7b0d9e8603169ddbd7836e478b46247893060405161008c9061021e565b6001600160a01b03928316815291166020820152604001604051809103905ff0801580156100bc573d5f5f3e3d5ffd5b505f80546001600160a01b039283166001600160a01b03199182161782556001805480820182559083527fb10e2d527612073b26eecdfd717e6a320cf44b4afac2b0732d9fcbe2b7fa0cf60180549091167348104c06a5195f196a4fff0d485bed476c165a551790555460408051638da5cb5b60e01b815290517fab73c391089e383e9d265583b8b7d9e7f6844f123d63699c5409b1a23a705212939290921691638da5cb5b916004808201926020929091908290030181865afa158015610186573d5f5f3e3d5ffd5b505050506040513d601f19601f820116820180604052508101906101aa919061023f565b6040516101b7919061022b565b60405180910390a15f5460405163ee56997b60e01b81526001600160a01b039091169063ee56997b906101ef9060019060040161026c565b5f604051808303815f87803b158015610206575f5ffd5b505af1158015610218573d5f5f3e3d5ffd5b50505050565b612acb806102bb83390190565b6001600160a01b0391909116815260200190565b5f6020828403121561024f575f5ffd5b81516001600160a01b0381168114610265575f5ffd5b9392505050565b602080825282548282018190525f848152918220906040840190835b818110156102af5783546001600160a01b0316835260019384019360209093019201610288565b50909594505050505056fe60a06040526001600655348015610014575f5ffd5b50604051612acb380380612acb8339810160408190526100339161019a565b80805f6001600160a01b0382166100915760405162461bcd60e51b815260206004820152601860248201527f43616e6e6f7420736574206f776e657220746f207a65726f000000000000000060448201526064015b60405180910390fd5b600280546001600160a01b0319166001600160a01b03848116919091179091558116156100c1576100c1816100d6565b505050506001600160a01b03166080526101cb565b336001600160a01b0382160361012e5760405162461bcd60e51b815260206004820152601760248201527f43616e6e6f74207472616e7366657220746f2073656c660000000000000000006044820152606401610088565b600380546001600160a01b0319166001600160a01b03838116918217909255600254604051919216907fed8889f560326eb138920d842192f0eb3dd22b4f139c87a2c57538e05bae1278905f90a350565b80516001600160a01b0381168114610195575f5ffd5b919050565b5f5f604083850312156101ab575f5ffd5b6101b48361017f565b91506101c26020840161017f565b90509250929050565b6080516128be61020d5f395f81816105c2015281816107120152818161100b0152818161118e015281816115ab015281816117c60152611a7901526128be5ff3fe608060405260043610610125575f3560e01c806301994b9914610129578063033f49f71461014a578063165d35e114610169578063181f5a77146101935780632408afaa146101d95780633c6d41b9146101fa5780633ec5bc141461021957806340429946146102385780634ab0d19014610257578063501883011461028657806352043783146102a85780635ffa6288146102bd5780636ae0bc76146102dc5780636bd59ec0146102fb5780636ee4d5531461030e57806379ba50971461032d5780638da5cb5b14610341578063902fc37014610355578063a4c0ed3614610374578063eb007d9914610393578063ee56997b146103b2578063f2fde38b146103d1578063f3fef3a3146103f0578063fa00763a1461040f578063fc4a03ed1461042e575b5f5ffd5b348015610134575f5ffd5b50610148610143366004611de5565b61044d565b005b348015610155575f5ffd5b50610148610164366004611e74565b6105b7565b348015610174575f5ffd5b5061017d610710565b60405161018a9190611ec4565b60405180910390f35b34801561019e575f5ffd5b506101cc6040518060400160405280600e81526020016d04f70657261746f7220312e302e360941b81525081565b60405161018a9190611ed8565b3480156101e4575f5ffd5b506101ed610734565b60405161018a9190611f0d565b348015610205575f5ffd5b50610148610214366004611f74565b610794565b348015610224575f5ffd5b50610148610233366004611ffa565b610821565b348015610243575f5ffd5b5061014861025236600461204c565b610915565b348015610262575f5ffd5b506102766102713660046120e7565b6109a3565b604051901515815260200161018a565b348015610291575f5ffd5b5061029a610b1c565b60405190815260200161018a565b3480156102b3575f5ffd5b5061029a61012c81565b3480156102c8575f5ffd5b506101486102d736600461213d565b610b2a565b3480156102e7575f5ffd5b506102766102f63660046121a7565b610b64565b61014861030936600461213d565b610d59565b348015610319575f5ffd5b50610148610328366004612224565b610f17565b348015610338575f5ffd5b5061014861108a565b34801561034c575f5ffd5b5061017d611137565b348015610360575f5ffd5b5061027661036f36600461225e565b611146565b34801561037f575f5ffd5b5061014861038e3660046122bd565b611213565b34801561039e575f5ffd5b506101486103ad366004612224565b61130a565b3480156103bd575f5ffd5b506101486103cc366004611de5565b61133e565b3480156103dc575f5ffd5b506101486103eb366004612388565b611550565b3480156103fb575f5ffd5b5061014861040a3660046123aa565b611564565b34801561041a575f5ffd5b50610276610429366004612388565b61162e565b348015610439575f5ffd5b5061014861044836600461213d565b61164b565b610455611744565b61047a5760405162461bcd60e51b8152600401610471906123d4565b60405180910390fd5b5f5b818110156105b257600160055f85858581811061049b5761049b61240b565b90506020020160208101906104b09190612388565b6001600160a01b0316815260208101919091526040015f20805460ff19169115159190911790558282828181106104e9576104e961240b565b90506020020160208101906104fe9190612388565b6001600160a01b03167f615a0c1cb00a60d4acd77ec67acf2f17f223ef0932d591052fabc33643fe7e8260405160405180910390a28282828181106105455761054561240b565b905060200201602081019061055a9190612388565b6001600160a01b03166379ba50976040518163ffffffff1660e01b81526004015f604051808303815f87803b158015610591575f5ffd5b505af11580156105a3573d5f5f3e3d5ffd5b5050505080600101905061047c565b505050565b6105bf61176c565b827f00000000000000000000000000000000000000000000000000000000000000006001600160a01b0316816001600160a01b0316036106115760405162461bcd60e51b81526004016104719061241f565b836001600160a01b03163b5f036106675760405162461bcd60e51b815260206004820152601a602482015279135d5cdd08199bdc9dd85c99081d1bc8184818dbdb9d1c9858dd60321b6044820152606401610471565b5f846001600160a01b0316848460405161068292919061244c565b5f604051808303815f865af19150503d805f81146106bb576040519150601f19603f3d011682016040523d82523d5f602084013e6106c0565b606091505b50509050806107095760405162461bcd60e51b8152602060048201526015602482015274119bdc9dd85c9919590818d85b1b0819985a5b1959605a1b6044820152606401610471565b5050505050565b7f000000000000000000000000000000000000000000000000000000000000000090565b6060600180548060200260200160405190810160405280929190818152602001828054801561078a57602002820191905f5260205f20905b81546001600160a01b0316815260019091019060200180831161076c575b5050505050905090565b61079c610710565b6001600160a01b0316336001600160a01b0316146107cc5760405162461bcd60e51b81526004016104719061245b565b5f5f6107dc8a8a8c8a8a8a6117c1565b91509150875f5160206128695f395f51905f528b848c8e8c878c8c8c60405161080d999897969594939291906124b0565b60405180910390a250505050505050505050565b61082961176c565b5f5b8281101561090f575f60055f8686858181106108495761084961240b565b905060200201602081019061085e9190612388565b6001600160a01b0316815260208101919091526040015f20805460ff19169115159190911790558383828181106108975761089761240b565b90506020020160208101906108ac9190612388565b6001600160a01b031663f2fde38b836040518263ffffffff1660e01b81526004016108d79190611ec4565b5f604051808303815f87803b1580156108ee575f5ffd5b505af1158015610900573d5f5f3e3d5ffd5b5050505080600101905061082b565b50505050565b61091d610710565b6001600160a01b0316336001600160a01b03161461094d5760405162461bcd60e51b81526004016104719061245b565b5f5f61095d8b8b8a8a8a8a6117c1565b91509150885f5160206128695f395f51905f528c848d8f8c878c8c8c60405161098e999897969594939291906124b0565b60405180910390a25050505050505050505050565b5f6109ac611927565b5f87815260046020526040812054889160089190911b60ff191690036109e45760405162461bcd60e51b815260040161047190612518565b6001600160a01b0386165f90815260056020526040902054869060ff1615610a1e5760405162461bcd60e51b81526004016104719061254d565b610a2d89898989896001611974565b60405189905f5160206128495f395f51905f52905f90a262061a805a1015610a675760405162461bcd60e51b815260040161047190612581565b5f876001600160a01b0316878b87604051602401610a8f929190918252602082015260400190565b60408051601f198184030181529181526020820180516001600160e01b03166001600160e01b0319909416939093179092529051610acd91906125b6565b5f604051808303815f865af19150503d805f8114610b06576040519150601f19603f3d011682016040523d82523d5f602084013e610b0b565b606091505b50909b9a5050505050505050505050565b5f610b25611a52565b905090565b610b32611744565b610b4e5760405162461bcd60e51b8152600401610471906123d4565b610b58848461044d565b61090f8484848461164b565b5f610b6d611927565b5f88815260046020526040812054899160089190911b60ff19169003610ba55760405162461bcd60e51b815260040161047190612518565b6001600160a01b0387165f90815260056020526040902054879060ff1615610bdf5760405162461bcd60e51b81526004016104719061254d565b8985856020811015610c315760405162461bcd60e51b815260206004820152601b60248201527a526573706f6e7365206d757374206265203e20333220627974657360281b6044820152606401610471565b8135838114610c815760405162461bcd60e51b815260206004820152601c60248201527b119a5c9cdd081ddbdc99081b5d5cdd081899481c995c5d595cdd125960221b6044820152606401610471565b610c908e8e8e8e8e6002611974565b6040518e905f5160206128495f395f51905f52905f90a262061a805a1015610cca5760405162461bcd60e51b815260040161047190612581565b5f8c6001600160a01b03168c8b8b604051602001610cea939291906125cc565b60408051601f1981840301815290829052610d04916125b6565b5f604051808303815f865af19150503d805f8114610d3d576040519150601f19603f3d011682016040523d82523d5f602084013e610d42565b606091505b509098505050505050505050979650505050505050565b8215801590610d6757508281145b610dad5760405162461bcd60e51b8152602060048201526017602482015276496e76616c6964206172726179206c656e67746828732960481b6044820152606401610471565b345f5b84811015610ed4575f848483818110610dcb57610dcb61240b565b9050602002013590508083610de09190612603565b92505f878784818110610df557610df561240b565b9050602002016020810190610e0a9190612388565b6001600160a01b0316826040515f6040518083038185875af1925050503d805f8114610e51576040519150601f19603f3d011682016040523d82523d5f602084013e610e56565b606091505b5050905080610eca5760405162461bcd60e51b815260206004820152603a60248201527f416464726573733a20756e61626c6520746f2073656e642076616c75652c20726044820152791958da5c1a595b9d081b585e481a185d99481c995d995c9d195960321b6064820152608401610471565b5050600101610db0565b5080156107095760405162461bcd60e51b8152602060048201526011602482015270151bdbc81b5d58da08115512081cd95b9d607a1b6044820152606401610471565b5f610f2484338585611af7565b5f8681526004602052604090205490915060081b60ff1990811690821614610f5e5760405162461bcd60e51b81526004016104719061261c565b42821115610fa75760405162461bcd60e51b815260206004820152601660248201527514995c5d595cdd081a5cc81b9bdd08195e1c1a5c995960521b6044820152606401610471565b5f858152600460205260408082208290555186917fa7842b9ec549398102c0d91b1b9919b2f20558aefdadf57528a95c6cd3292e9391a28360065f828254610fef9190612603565b909155505060405163a9059cbb60e01b81526001600160a01b037f0000000000000000000000000000000000000000000000000000000000000000169063a9059cbb906110429033908890600401612653565b6020604051808303815f875af115801561105e573d5f5f3e3d5ffd5b505050506040513d601f19601f82011682018060405250810190611082919061266c565b505050505050565b6003546001600160a01b031633146110dd5760405162461bcd60e51b815260206004820152601660248201527526bab9ba10313290383937b837b9b2b21037bbb732b960511b6044820152606401610471565b600280546001600160a01b0319808216339081179093556003805490911690556040516001600160a01b03909116919082907f8be0079c531659141344cd1fd0a4f28419497f9722a3daafe3b4186f6b6457e0905f90a350565b6002546001600160a01b031690565b5f61114f61176c565b8380611159611a52565b10156111775760405162461bcd60e51b81526004016104719061268b565b604051630200057560e51b81526001600160a01b037f00000000000000000000000000000000000000000000000000000000000000001690634000aea0906111c99089908990899089906004016126e0565b6020604051808303815f875af11580156111e5573d5f5f3e3d5ffd5b505050506040513d601f19601f82011682018060405250810190611209919061266c565b9695505050505050565b61121b610710565b6001600160a01b0316336001600160a01b03161461124b5760405162461bcd60e51b81526004016104719061245b565b6020810151819061125c8183611b4c565b8460248401528360448401525f306001600160a01b03168460405161128191906125b6565b5f60405180830381855af49150503d805f81146112b9576040519150601f19603f3d011682016040523d82523d5f602084013e6112be565b606091505b50509050806110825760405162461bcd60e51b8152602060048201526018602482015277155b98589b19481d1bc818dc99585d19481c995c5d595cdd60421b6044820152606401610471565b61090f3385604051602001611320929190612707565b60405160208183030381529060405280519060200120848484610f17565b611346611744565b6113625760405162461bcd60e51b8152600401610471906123d4565b806113ad5760405162461bcd60e51b815260206004820152601b60248201527a26bab9ba103430bb329030ba103632b0b9ba10189039b2b73232b960291b6044820152606401610471565b6001545f5b8181101561140b575f5f5f600184815481106113d0576113d061240b565b5f918252602080832091909101546001600160a01b031683528201929092526040019020805460ff19169115159190911790556001016113b2565b505f5b82811015611502575f5f85858481811061142a5761142a61240b565b905060200201602081019061143f9190612388565b6001600160a01b0316815260208101919091526040015f205460ff16156114a85760405162461bcd60e51b815260206004820152601f60248201527f4d757374206e6f742068617665206475706c69636174652073656e64657273006044820152606401610471565b60015f5f8686858181106114be576114be61240b565b90506020020160208101906114d39190612388565b6001600160a01b0316815260208101919091526040015f20805460ff191691151591909117905560010161140e565b5061150f60018484611d32565b507ff263cfb3e4298332e776194610cf9fdc09ccb3ada8b9aa39764d882e11fbf0a08383336040516115439392919061276c565b60405180910390a1505050565b61155861176c565b61156181611c2b565b50565b61156c61176c565b8080611576611a52565b10156115945760405162461bcd60e51b81526004016104719061268b565b60405163a9059cbb60e01b81526001600160a01b037f0000000000000000000000000000000000000000000000000000000000000000169063a9059cbb906115e29086908690600401612653565b6020604051808303815f875af11580156115fe573d5f5f3e3d5ffd5b505050506040513d601f19601f82011682018060405250810190611622919061266c565b6105b2576105b2612797565b6001600160a01b03165f9081526020819052604090205460ff1690565b611653611744565b61166f5760405162461bcd60e51b8152600401610471906123d4565b7f1bb185903e2cb2f1b303523128b60e314dea81df4f8d9b7351cadd344f6e772784848484336040516116a69594939291906127ab565b60405180910390a15f5b83811015610709578484828181106116ca576116ca61240b565b90506020020160208101906116df9190612388565b6001600160a01b031663ee56997b84846040518363ffffffff1660e01b815260040161170c9291906127ec565b5f604051808303815f87803b158015611723575f5ffd5b505af1158015611735573d5f5f3e3d5ffd5b505050508060010190506116b0565b5f61174e3361162e565b80610b2557503361175d611137565b6001600160a01b031614905090565b6002546001600160a01b031633146117bf5760405162461bcd60e51b815260206004820152601660248201527527b7363c9031b0b63630b1363290313c9037bbb732b960511b6044820152606401610471565b565b5f5f857f00000000000000000000000000000000000000000000000000000000000000006001600160a01b0316816001600160a01b0316036118155760405162461bcd60e51b81526004016104719061241f565b8885604051602001611828929190612707565b60408051808303601f1901815291815281516020928301205f818152600490935291205490935060081b60ff19161561189a5760405162461bcd60e51b8152602060048201526014602482015273135d5cdd081d5cd94818481d5b9a5c5d5948125160621b6044820152606401610471565b6118a661012c42612807565b91505f6118b589898986611af7565b905060405180604001604052808260ff191681526020016118d587611cce565b60ff9081169091525f86815260046020908152604090912083519390910151909116600160f81b0260089290921c919091179055600654611917908a90612807565b6006555050965096945050505050565b6119303361162e565b6117bf5760405162461bcd60e51b81526020600482015260156024820152742737ba1030baba3437b934bd32b21039b2b73232b960591b6044820152606401610471565b5f61198186868686611af7565b5f8881526004602052604090205490915060081b60ff19908116908216146119bb5760405162461bcd60e51b81526004016104719061261c565b6119c482611cce565b5f8881526004602052604090205460ff918216600160f81b9091049091161115611a2b5760405162461bcd60e51b8152602060048201526018602482015277088c2e8c240eccae4e6d2dedce640daeae6e840dac2e8c6d60431b6044820152606401610471565b85600654611a399190612603565b6006555050505f93845250506004602052506040812055565b5f6001600654611a629190612603565b6040516370a0823160e01b81526001600160a01b037f000000000000000000000000000000000000000000000000000000000000000016906370a0823190611aae903090600401611ec4565b602060405180830381865afa158015611ac9573d5f5f3e3d5ffd5b505050506040513d601f19601f82011682018060405250810190611aed919061281a565b610b259190612603565b6040805160208082019690965260609490941b6001600160601b031916848201526001600160e01b03199290921660548401526058808401919091528151808403909101815260789092019052805191012090565b611b5860026020612831565b611b63906004612807565b81511015611bac5760405162461bcd60e51b8152602060048201526016602482015275092dcecc2d8d2c840e4cae2eacae6e840d8cadccee8d60531b6044820152606401610471565b6001600160e01b03198216633c6d41b960e01b1480611bdb57506001600160e01b031982166320214ca360e11b145b611c275760405162461bcd60e51b815260206004820152601e60248201527f4d757374207573652077686974656c69737465642066756e6374696f6e7300006044820152606401610471565b5050565b336001600160a01b03821603611c7d5760405162461bcd60e51b815260206004820152601760248201527621b0b73737ba103a3930b739b332b9103a379039b2b63360491b6044820152606401610471565b600380546001600160a01b0319166001600160a01b03838116918217909255600254604051919216907fed8889f560326eb138920d842192f0eb3dd22b4f139c87a2c57538e05bae1278905f90a350565b5f60ff821115611d2e5760405162461bcd60e51b815260206004820152602560248201527f53616665436173743a2076616c756520646f65736e27742066697420696e2038604482015264206269747360d81b6064820152608401610471565b5090565b828054828255905f5260205f20908101928215611d83579160200282015b82811115611d835781546001600160a01b0319166001600160a01b03843516178255602090920191600190910190611d50565b50611d2e9291505b80821115611d2e575f8155600101611d8b565b5f5f83601f840112611dae575f5ffd5b5081356001600160401b03811115611dc4575f5ffd5b6020830191508360208260051b8501011115611dde575f5ffd5b9250929050565b5f5f60208385031215611df6575f5ffd5b82356001600160401b03811115611e0b575f5ffd5b611e1785828601611d9e565b90969095509350505050565b6001600160a01b0381168114611561575f5ffd5b5f5f83601f840112611e47575f5ffd5b5081356001600160401b03811115611e5d575f5ffd5b602083019150836020828501011115611dde575f5ffd5b5f5f5f60408486031215611e86575f5ffd5b8335611e9181611e23565b925060208401356001600160401b03811115611eab575f5ffd5b611eb786828701611e37565b9497909650939450505050565b6001600160a01b0391909116815260200190565b602081525f82518060208401528060208501604085015e5f604082850101526040601f19601f83011684010191505092915050565b602080825282518282018190525f918401906040840190835b81811015611f4d5783516001600160a01b0316835260209384019390920191600101611f26565b509095945050505050565b80356001600160e01b031981168114611f6f575f5ffd5b919050565b5f5f5f5f5f5f5f5f60e0898b031215611f8b575f5ffd5b8835611f9681611e23565b97506020890135965060408901359550611fb260608a01611f58565b94506080890135935060a0890135925060c08901356001600160401b03811115611fda575f5ffd5b611fe68b828c01611e37565b999c989b5096995094979396929594505050565b5f5f5f6040848603121561200c575f5ffd5b83356001600160401b03811115612021575f5ffd5b61202d86828701611d9e565b909450925050602084013561204181611e23565b809150509250925092565b5f5f5f5f5f5f5f5f5f6101008a8c031215612065575f5ffd5b893561207081611e23565b985060208a0135975060408a0135965060608a013561208e81611e23565b955061209c60808b01611f58565b945060a08a0135935060c08a0135925060e08a01356001600160401b038111156120c4575f5ffd5b6120d08c828d01611e37565b915080935050809150509295985092959850929598565b5f5f5f5f5f5f60c087890312156120fc575f5ffd5b8635955060208701359450604087013561211581611e23565b935061212360608801611f58565b9598949750929560808101359460a0909101359350915050565b5f5f5f5f60408587031215612150575f5ffd5b84356001600160401b03811115612165575f5ffd5b61217187828801611d9e565b90955093505060208501356001600160401b0381111561218f575f5ffd5b61219b87828801611d9e565b95989497509550505050565b5f5f5f5f5f5f5f60c0888a0312156121bd575f5ffd5b873596506020880135955060408801356121d681611e23565b94506121e460608901611f58565b93506080880135925060a08801356001600160401b03811115612205575f5ffd5b6122118a828b01611e37565b989b979a50959850939692959293505050565b5f5f5f5f60808587031215612237575f5ffd5b843593506020850135925061224e60408601611f58565b9396929550929360600135925050565b5f5f5f5f60608587031215612271575f5ffd5b843561227c81611e23565b93506020850135925060408501356001600160401b0381111561229d575f5ffd5b61219b87828801611e37565b634e487b7160e01b5f52604160045260245ffd5b5f5f5f606084860312156122cf575f5ffd5b83356122da81611e23565b92506020840135915060408401356001600160401b038111156122fb575f5ffd5b8401601f8101861361230b575f5ffd5b80356001600160401b03811115612324576123246122a9565b604051601f8201601f19908116603f011681016001600160401b0381118282101715612352576123526122a9565b604052818152828201602001881015612369575f5ffd5b816020840160208301375f602083830101528093505050509250925092565b5f60208284031215612398575f5ffd5b81356123a381611e23565b9392505050565b5f5f604083850312156123bb575f5ffd5b82356123c681611e23565b946020939093013593505050565b6020808252601d908201527f43616e6e6f742073657420617574686f72697a65642073656e64657273000000604082015260600190565b634e487b7160e01b5f52603260045260245ffd5b60208082526013908201527243616e6e6f742063616c6c20746f204c494e4b60681b604082015260600190565b818382375f9101908152919050565b60208082526013908201527226bab9ba103ab9b2902624a725903a37b5b2b760691b604082015260600190565b81835281816020850137505f828201602090810191909152601f909101601f19169091010190565b6001600160a01b038a81168252602082018a905260408201899052871660608201526001600160e01b03198616608082015260a0810185905260c0810184905261010060e082018190525f906125099083018486612488565b9b9a5050505050505050505050565b6020808252601b908201527a135d5cdd081a185d994818481d985b1a59081c995c5d595cdd1259602a1b604082015260600190565b6020808252601a908201527910d85b9b9bdd0818d85b1b081bdddb99590818dbdb9d1c9858dd60321b604082015260600190565b6020808252818101527f4d7573742070726f7669646520636f6e73756d657220656e6f75676820676173604082015260600190565b5f82518060208501845e5f920191825250919050565b6001600160e01b031984168152818360048301375f910160040190815292915050565b634e487b7160e01b5f52601160045260245ffd5b81810381811115612616576126166125ef565b92915050565b6020808252601e908201527f506172616d7320646f206e6f74206d6174636820726571756573742049440000604082015260600190565b6001600160a01b03929092168252602082015260400190565b5f6020828403121561267c575f5ffd5b815180151581146123a3575f5ffd5b60208082526035908201527f416d6f756e74207265717565737465642069732067726561746572207468616e60408201527420776974686472617761626c652062616c616e636560581b606082015260800190565b60018060a01b0385168152836020820152606060408201525f611209606083018486612488565b60609290921b6001600160601b0319168252601482015260340190565b8183526020830192505f815f5b8481101561276257813561274481611e23565b6001600160a01b031686526020958601959190910190600101612731565b5093949350505050565b604081525f61277f604083018587612724565b905060018060a01b0383166020830152949350505050565b634e487b7160e01b5f52600160045260245ffd5b606081525f6127be606083018789612724565b82810360208401526127d1818688612724565b91505060018060a01b03831660408301529695505050505050565b602081525f6127ff602083018486612724565b949350505050565b80820180821115612616576126166125ef565b5f6020828403121561282a575f5ffd5b5051919050565b8082028115828204841417612616576126166125ef56fe9e9bc7616d42c2835d05ae617e508454e63b30b934be8aa932ebc125e0e58a64d8d7ecc4800d25fa53ce0372f13a416d98907a7ef3d8d3bdd79cf4fe75529c65a264697066735822122000faa685745185d45553e8772e605e1a519b9153d02c4720bcf4382050ff964764736f6c634300081d0033a26469706673582212209c2665baf3d4be08b843e05d0e0397d382cc3588b232ed1c85a2317d1a9c266064736f6c634300081d0033",
			"opcodes": "PUSH1 0x80 PUSH1 0x40 MSTORE CALLVALUE DUP1 ISZERO PUSH1 0xE JUMPI PUSH0 PUSH0 REVERT JUMPDEST POP PUSH2 0x2DBB DUP1 PUSH2 0x1C PUSH0 CODECOPY PUSH0 RETURN INVALID PUSH1 0x80 PUSH1 0x40 MSTORE CALLVALUE DUP1 ISZERO PUSH2 0xF JUMPI PUSH0 PUSH0 REVERT JUMPDEST POP PUSH1 0x4 CALLDATASIZE LT PUSH2 0x34 JUMPI PUSH0 CALLDATALOAD PUSH1 0xE0 SHR DUP1 PUSH4 0x51D3C99B EQ PUSH2 0x38 JUMPI DUP1 PUSH4 0x570CA735 EQ PUSH2 0x42 JUMPI JUMPDEST PUSH0 PUSH0 REVERT JUMPDEST PUSH2 0x40 PUSH2 0x6A JUMP JUMPDEST STOP JUMPDEST PUSH0 SLOAD PUSH2 0x54 SWAP1 PUSH1 0x1 PUSH1 0x1 PUSH1 0xA0 SHL SUB AND DUP2 JUMP JUMPDEST PUSH1 0x40 MLOAD PUSH2 0x61 SWAP2 SWAP1 PUSH2 0x22B JUMP JUMPDEST PUSH1 0x40 MLOAD DUP1 SWAP2 SUB SWAP1 RETURN JUMPDEST PUSH20 0x779877A7B0D9E8603169DDBD7836E478B4624789 ADDRESS PUSH1 0x40 MLOAD PUSH2 0x8C SWAP1 PUSH2 0x21E JUMP JUMPDEST PUSH1 0x1 PUSH1 0x1 PUSH1 0xA0 SHL SUB SWAP3 DUP4 AND DUP2 MSTORE SWAP2 AND PUSH1 0x20 DUP3 ADD MSTORE PUSH1 0x40 ADD PUSH1 0x40 MLOAD DUP1 SWAP2 SUB SWAP1 PUSH0 CREATE DUP1 ISZERO DUP1 ISZERO PUSH2 0xBC JUMPI RETURNDATASIZE PUSH0 PUSH0 RETURNDATACOPY RETURNDATASIZE PUSH0 REVERT JUMPDEST POP PUSH0 DUP1 SLOAD PUSH1 0x1 PUSH1 0x1 PUSH1 0xA0 SHL SUB SWAP3 DUP4 AND PUSH1 0x1 PUSH1 0x1 PUSH1 0xA0 SHL SUB NOT SWAP2 DUP3 AND OR DUP3 SSTORE PUSH1 0x1 DUP1 SLOAD DUP1 DUP3 ADD DUP3 SSTORE SWAP1 DUP4 MSTORE PUSH32 0xB10E2D527612073B26EECDFD717E6A320CF44B4AFAC2B0732D9FCBE2B7FA0CF6 ADD DUP1 SLOAD SWAP1 SWAP2 AND PUSH20 0x48104C06A5195F196A4FFF0D485BED476C165A55 OR SWAP1 SSTORE SLOAD PUSH1 0x40 DUP1 MLOAD PUSH4 0x8DA5CB5B PUSH1 0xE0 SHL DUP2 MSTORE SWAP1 MLOAD PUSH32 0xAB73C391089E383E9D265583B8B7D9E7F6844F123D63699C5409B1A23A705212 SWAP4 SWAP3 SWAP1 SWAP3 AND SWAP2 PUSH4 0x8DA5CB5B SWAP2 PUSH1 0x4 DUP1 DUP3 ADD SWAP3 PUSH1 0x20 SWAP3 SWAP1 SWAP2 SWAP1 DUP3 SWAP1 SUB ADD DUP2 DUP7 GAS STATICCALL ISZERO DUP1 ISZERO PUSH2 0x186 JUMPI RETURNDATASIZE PUSH0 PUSH0 RETURNDATACOPY RETURNDATASIZE PUSH0 REVERT JUMPDEST POP POP POP POP PUSH1 0x40 MLOAD RETURNDATASIZE PUSH1 0x1F NOT PUSH1 0x1F DUP3 ADD AND DUP3 ADD DUP1 PUSH1 0x40 MSTORE POP DUP2 ADD SWAP1 PUSH2 0x1AA SWAP2 SWAP1 PUSH2 0x23F JUMP JUMPDEST PUSH1 0x40 MLOAD PUSH2 0x1B7 SWAP2 SWAP1 PUSH2 0x22B JUMP JUMPDEST PUSH1 0x40 MLOAD DUP1 SWAP2 SUB SWAP1 LOG1 PUSH0 SLOAD PUSH1 0x40 MLOAD PUSH4 0xEE56997B PUSH1 0xE0 SHL DUP2 MSTORE PUSH1 0x1 PUSH1 0x1 PUSH1 0xA0 SHL SUB SWAP1 SWAP2 AND SWAP1 PUSH4 0xEE56997B SWAP1 PUSH2 0x1EF SWAP1 PUSH1 0x1 SWAP1 PUSH1 0x4 ADD PUSH2 0x26C JUMP JUMPDEST PUSH0 PUSH1 0x40 MLOAD DUP1 DUP4 SUB DUP2 PUSH0 DUP8 DUP1 EXTCODESIZE ISZERO DUP1 ISZERO PUSH2 0x206 JUMPI PUSH0 PUSH0 REVERT JUMPDEST POP GAS CALL ISZERO DUP1 ISZERO PUSH2 0x218 JUMPI RETURNDATASIZE PUSH0 PUSH0 RETURNDATACOPY RETURNDATASIZE PUSH0 REVERT JUMPDEST POP POP POP POP JUMP JUMPDEST PUSH2 0x2ACB DUP1 PUSH2 0x2BB DUP4 CODECOPY ADD SWAP1 JUMP JUMPDEST PUSH1 0x1 PUSH1 0x1 PUSH1 0xA0 SHL SUB SWAP2 SWAP1 SWAP2 AND DUP2 MSTORE PUSH1 0x20 ADD SWAP1 JUMP JUMPDEST PUSH0 PUSH1 0x20 DUP3 DUP5 SUB SLT ISZERO PUSH2 0x24F JUMPI PUSH0 PUSH0 REVERT JUMPDEST DUP2 MLOAD PUSH1 0x1 PUSH1 0x1 PUSH1 0xA0 SHL SUB DUP2 AND DUP2 EQ PUSH2 0x265 JUMPI PUSH0 PUSH0 REVERT JUMPDEST SWAP4 SWAP3 POP POP POP JUMP JUMPDEST PUSH1 0x20 DUP1 DUP3 MSTORE DUP3 SLOAD DUP3 DUP3 ADD DUP2 SWAP1 MSTORE PUSH0 DUP5 DUP2 MSTORE SWAP2 DUP3 KECCAK256 SWAP1 PUSH1 0x40 DUP5 ADD SWAP1 DUP4 JUMPDEST DUP2 DUP2 LT ISZERO PUSH2 0x2AF JUMPI DUP4 SLOAD PUSH1 0x1 PUSH1 0x1 PUSH1 0xA0 SHL SUB AND DUP4 MSTORE PUSH1 0x1 SWAP4 DUP5 ADD SWAP4 PUSH1 0x20 SWAP1 SWAP4 ADD SWAP3 ADD PUSH2 0x288 JUMP JUMPDEST POP SWAP1 SWAP6 SWAP5 POP POP POP POP POP JUMP INVALID PUSH1 0xA0 PUSH1 0x40 MSTORE PUSH1 0x1 PUSH1 0x6 SSTORE CALLVALUE DUP1 ISZERO PUSH2 0x14 JUMPI PUSH0 PUSH0 REVERT JUMPDEST POP PUSH1 0x40 MLOAD PUSH2 0x2ACB CODESIZE SUB DUP1 PUSH2 0x2ACB DUP4 CODECOPY DUP2 ADD PUSH1 0x40 DUP2 SWAP1 MSTORE PUSH2 0x33 SWAP2 PUSH2 0x19A JUMP JUMPDEST DUP1 DUP1 PUSH0 PUSH1 0x1 PUSH1 0x1 PUSH1 0xA0 SHL SUB DUP3 AND PUSH2 0x91 JUMPI PUSH1 0x40 MLOAD PUSH3 0x461BCD PUSH1 0xE5 SHL DUP2 MSTORE PUSH1 0x20 PUSH1 0x4 DUP3 ADD MSTORE PUSH1 0x18 PUSH1 0x24 DUP3 ADD MSTORE PUSH32 0x43616E6E6F7420736574206F776E657220746F207A65726F0000000000000000 PUSH1 0x44 DUP3 ADD MSTORE PUSH1 0x64 ADD JUMPDEST PUSH1 0x40 MLOAD DUP1 SWAP2 SUB SWAP1 REVERT JUMPDEST PUSH1 0x2 DUP1 SLOAD PUSH1 0x1 PUSH1 0x1 PUSH1 0xA0 SHL SUB NOT AND PUSH1 0x1 PUSH1 0x1 PUSH1 0xA0 SHL SUB DUP5 DUP2 AND SWAP2 SWAP1 SWAP2 OR SWAP1 SWAP2 SSTORE DUP2 AND ISZERO PUSH2 0xC1 JUMPI PUSH2 0xC1 DUP2 PUSH2 0xD6 JUMP JUMPDEST POP POP POP POP PUSH1 0x1 PUSH1 0x1 PUSH1 0xA0 SHL SUB AND PUSH1 0x80 MSTORE PUSH2 0x1CB JUMP JUMPDEST CALLER PUSH1 0x1 PUSH1 0x1 PUSH1 0xA0 SHL SUB DUP3 AND SUB PUSH2 0x12E JUMPI PUSH1 0x40 MLOAD PUSH3 0x461BCD PUSH1 0xE5 SHL DUP2 MSTORE PUSH1 0x20 PUSH1 0x4 DUP3 ADD MSTORE PUSH1 0x17 PUSH1 0x24 DUP3 ADD MSTORE PUSH32 0x43616E6E6F74207472616E7366657220746F2073656C66000000000000000000 PUSH1 0x44 DUP3 ADD MSTORE PUSH1 0x64 ADD PUSH2 0x88 JUMP JUMPDEST PUSH1 0x3 DUP1 SLOAD PUSH1 0x1 PUSH1 0x1 PUSH1 0xA0 SHL SUB NOT AND PUSH1 0x1 PUSH1 0x1 PUSH1 0xA0 SHL SUB DUP4 DUP2 AND SWAP2 DUP3 OR SWAP1 SWAP3 SSTORE PUSH1 0x2 SLOAD PUSH1 0x40 MLOAD SWAP2 SWAP3 AND SWAP1 PUSH32 0xED8889F560326EB138920D842192F0EB3DD22B4F139C87A2C57538E05BAE1278 SWAP1 PUSH0 SWAP1 LOG3 POP JUMP JUMPDEST DUP1 MLOAD PUSH1 0x1 PUSH1 0x1 PUSH1 0xA0 SHL SUB DUP2 AND DUP2 EQ PUSH2 0x195 JUMPI PUSH0 PUSH0 REVERT JUMPDEST SWAP2 SWAP1 POP JUMP JUMPDEST PUSH0 PUSH0 PUSH1 0x40 DUP4 DUP6 SUB SLT ISZERO PUSH2 0x1AB JUMPI PUSH0 PUSH0 REVERT JUMPDEST PUSH2 0x1B4 DUP4 PUSH2 0x17F JUMP JUMPDEST SWAP2 POP PUSH2 0x1C2 PUSH1 0x20 DUP5 ADD PUSH2 0x17F JUMP JUMPDEST SWAP1 POP SWAP3 POP SWAP3 SWAP1 POP JUMP JUMPDEST PUSH1 0x80 MLOAD PUSH2 0x28BE PUSH2 0x20D PUSH0 CODECOPY PUSH0 DUP2 DUP2 PUSH2 0x5C2 ADD MSTORE DUP2 DUP2 PUSH2 0x712 ADD MSTORE DUP2 DUP2 PUSH2 0x100B ADD MSTORE DUP2 DUP2 PUSH2 0x118E ADD MSTORE DUP2 DUP2 PUSH2 0x15AB ADD MSTORE DUP2 DUP2 PUSH2 0x17C6 ADD MSTORE PUSH2 0x1A79 ADD MSTORE PUSH2 0x28BE PUSH0 RETURN INVALID PUSH1 0x80 PUSH1 0x40 MSTORE PUSH1 0x4 CALLDATASIZE LT PUSH2 0x125 JUMPI PUSH0 CALLDATALOAD PUSH1 0xE0 SHR DUP1 PUSH4 0x1994B99 EQ PUSH2 0x129 JUMPI DUP1 PUSH4 0x33F49F7 EQ PUSH2 0x14A JUMPI DUP1 PUSH4 0x165D35E1 EQ PUSH2 0x169 JUMPI DUP1 PUSH4 0x181F5A77 EQ PUSH2 0x193 JUMPI DUP1 PUSH4 0x2408AFAA EQ PUSH2 0x1D9 JUMPI DUP1 PUSH4 0x3C6D41B9 EQ PUSH2 0x1FA JUMPI DUP1 PUSH4 0x3EC5BC14 EQ PUSH2 0x219 JUMPI DUP1 PUSH4 0x40429946 EQ PUSH2 0x238 JUMPI DUP1 PUSH4 0x4AB0D190 EQ PUSH2 0x257 JUMPI DUP1 PUSH4 0x50188301 EQ PUSH2 0x286 JUMPI DUP1 PUSH4 0x52043783 EQ PUSH2 0x2A8 JUMPI DUP1 PUSH4 0x5FFA6288 EQ PUSH2 0x2BD JUMPI DUP1 PUSH4 0x6AE0BC76 EQ PUSH2 0x2DC JUMPI DUP1 PUSH4 0x6BD59EC0 EQ PUSH2 0x2FB JUMPI DUP1 PUSH4 0x6EE4D553 EQ PUSH2 0x30E JUMPI DUP1 PUSH4 0x79BA5097 EQ PUSH2 0x32D JUMPI DUP1 PUSH4 0x8DA5CB5B EQ PUSH2 0x341 JUMPI DUP1 PUSH4 0x902FC370 EQ PUSH2 0x355 JUMPI DUP1 PUSH4 0xA4C0ED36 EQ PUSH2 0x374 JUMPI DUP1 PUSH4 0xEB007D99 EQ PUSH2 0x393 JUMPI DUP1 PUSH4 0xEE56997B EQ PUSH2 0x3B2 JUMPI DUP1 PUSH4 0xF2FDE38B EQ PUSH2 0x3D1 JUMPI DUP1 PUSH4 0xF3FEF3A3 EQ PUSH2 0x3F0 JUMPI DUP1 PUSH4 0xFA00763A EQ PUSH2 0x40F JUMPI DUP1 PUSH4 0xFC4A03ED EQ PUSH2 0x42E JUMPI JUMPDEST PUSH0 PUSH0 REVERT JUMPDEST CALLVALUE DUP1 ISZERO PUSH2 0x134 JUMPI PUSH0 PUSH0 REVERT JUMPDEST POP PUSH2 0x148 PUSH2 0x143 CALLDATASIZE PUSH1 0x4 PUSH2 0x1DE5 JUMP JUMPDEST PUSH2 0x44D JUMP JUMPDEST STOP JUMPDEST CALLVALUE DUP1 ISZERO PUSH2 0x155 JUMPI PUSH0 PUSH0 REVERT JUMPDEST POP PUSH2 0x148 PUSH2 0x164 CALLDATASIZE PUSH1 0x4 PUSH2 0x1E74 JUMP JUMPDEST PUSH2 0x5B7 JUMP JUMPDEST CALLVALUE DUP1 ISZERO PUSH2 0x174 JUMPI PUSH0 PUSH0 REVERT JUMPDEST POP PUSH2 0x17D PUSH2 0x710 JUMP JUMPDEST PUSH1 0x40 MLOAD PUSH2 0x18A SWAP2 SWAP1 PUSH2 0x1EC4 JUMP JUMPDEST PUSH1 0x40 MLOAD DUP1 SWAP2 SUB SWAP1 RETURN JUMPDEST CALLVALUE DUP1 ISZERO PUSH2 0x19E JUMPI PUSH0 PUSH0 REVERT JUMPDEST POP PUSH2 0x1CC PUSH1 0x40 MLOAD DUP1 PUSH1 0x40 ADD PUSH1 0x40 MSTORE DUP1 PUSH1 0xE DUP2 MSTORE PUSH1 0x20 ADD PUSH14 0x4F70657261746F7220312E302E3 PUSH1 0x94 SHL DUP2 MSTORE POP DUP2 JUMP JUMPDEST PUSH1 0x40 MLOAD PUSH2 0x18A SWAP2 SWAP1 PUSH2 0x1ED8 JUMP JUMPDEST CALLVALUE DUP1 ISZERO PUSH2 0x1E4 JUMPI PUSH0 PUSH0 REVERT JUMPDEST POP PUSH2 0x1ED PUSH2 0x734 JUMP JUMPDEST PUSH1 0x40 MLOAD PUSH2 0x18A SWAP2 SWAP1 PUSH2 0x1F0D JUMP JUMPDEST CALLVALUE DUP1 ISZERO PUSH2 0x205 JUMPI PUSH0 PUSH0 REVERT JUMPDEST POP PUSH2 0x148 PUSH2 0x214 CALLDATASIZE PUSH1 0x4 PUSH2 0x1F74 JUMP JUMPDEST PUSH2 0x794 JUMP JUMPDEST CALLVALUE DUP1 ISZERO PUSH2 0x224 JUMPI PUSH0 PUSH0 REVERT JUMPDEST POP PUSH2 0x148 PUSH2 0x233 CALLDATASIZE PUSH1 0x4 PUSH2 0x1FFA JUMP JUMPDEST PUSH2 0x821 JUMP JUMPDEST CALLVALUE DUP1 ISZERO PUSH2 0x243 JUMPI PUSH0 PUSH0 REVERT JUMPDEST POP PUSH2 0x148 PUSH2 0x252 CALLDATASIZE PUSH1 0x4 PUSH2 0x204C JUMP JUMPDEST PUSH2 0x915 JUMP JUMPDEST CALLVALUE DUP1 ISZERO PUSH2 0x262 JUMPI PUSH0 PUSH0 REVERT JUMPDEST POP PUSH2 0x276 PUSH2 0x271 CALLDATASIZE PUSH1 0x4 PUSH2 0x20E7 JUMP JUMPDEST PUSH2 0x9A3 JUMP JUMPDEST PUSH1 0x40 MLOAD SWAP1 ISZERO ISZERO DUP2 MSTORE PUSH1 0x20 ADD PUSH2 0x18A JUMP JUMPDEST CALLVALUE DUP1 ISZERO PUSH2 0x291 JUMPI PUSH0 PUSH0 REVERT JUMPDEST POP PUSH2 0x29A PUSH2 0xB1C JUMP JUMPDEST PUSH1 0x40 MLOAD SWAP1 DUP2 MSTORE PUSH1 0x20 ADD PUSH2 0x18A JUMP JUMPDEST CALLVALUE DUP1 ISZERO PUSH2 0x2B3 JUMPI PUSH0 PUSH0 REVERT JUMPDEST POP PUSH2 0x29A PUSH2 0x12C DUP2 JUMP JUMPDEST CALLVALUE DUP1 ISZERO PUSH2 0x2C8 JUMPI PUSH0 PUSH0 REVERT JUMPDEST POP PUSH2 0x148 PUSH2 0x2D7 CALLDATASIZE PUSH1 0x4 PUSH2 0x213D JUMP JUMPDEST PUSH2 0xB2A JUMP JUMPDEST CALLVALUE DUP1 ISZERO PUSH2 0x2E7 JUMPI PUSH0 PUSH0 REVERT JUMPDEST POP PUSH2 0x276 PUSH2 0x2F6 CALLDATASIZE PUSH1 0x4 PUSH2 0x21A7 JUMP JUMPDEST PUSH2 0xB64 JUMP JUMPDEST PUSH2 0x148 PUSH2 0x309 CALLDATASIZE PUSH1 0x4 PUSH2 0x213D JUMP JUMPDEST PUSH2 0xD59 JUMP JUMPDEST CALLVALUE DUP1 ISZERO PUSH2 0x319 JUMPI PUSH0 PUSH0 REVERT JUMPDEST POP PUSH2 0x148 PUSH2 0x328 CALLDATASIZE PUSH1 0x4 PUSH2 0x2224 JUMP JUMPDEST PUSH2 0xF17 JUMP JUMPDEST CALLVALUE DUP1 ISZERO PUSH2 0x338 JUMPI PUSH0 PUSH0 REVERT JUMPDEST POP PUSH2 0x148 PUSH2 0x108A JUMP JUMPDEST CALLVALUE DUP1 ISZERO PUSH2 0x34C JUMPI PUSH0 PUSH0 REVERT JUMPDEST POP PUSH2 0x17D PUSH2 0x1137 JUMP JUMPDEST CALLVALUE DUP1 ISZERO PUSH2 0x360 JUMPI PUSH0 PUSH0 REVERT JUMPDEST POP PUSH2 0x276 PUSH2 0x36F CALLDATASIZE PUSH1 0x4 PUSH2 0x225E JUMP JUMPDEST PUSH2 0x1146 JUMP JUMPDEST CALLVALUE DUP1 ISZERO PUSH2 0x37F JUMPI PUSH0 PUSH0 REVERT JUMPDEST POP PUSH2 0x148 PUSH2 0x38E CALLDATASIZE PUSH1 0x4 PUSH2 0x22BD JUMP JUMPDEST PUSH2 0x1213 JUMP JUMPDEST CALLVALUE DUP1 ISZERO PUSH2 0x39E JUMPI PUSH0 PUSH0 REVERT JUMPDEST POP PUSH2 0x148 PUSH2 0x3AD CALLDATASIZE PUSH1 0x4 PUSH2 0x2224 JUMP JUMPDEST PUSH2 0x130A JUMP JUMPDEST CALLVALUE DUP1 ISZERO PUSH2 0x3BD JUMPI PUSH0 PUSH0 REVERT JUMPDEST POP PUSH2 0x148 PUSH2 0x3CC CALLDATASIZE PUSH1 0x4 PUSH2 0x1DE5 JUMP JUMPDEST PUSH2 0x133E JUMP JUMPDEST CALLVALUE DUP1 ISZERO PUSH2 0x3DC JUMPI PUSH0 PUSH0 REVERT JUMPDEST POP PUSH2 0x148 PUSH2 0x3EB CALLDATASIZE PUSH1 0x4 PUSH2 0x2388 JUMP JUMPDEST PUSH2 0x1550 JUMP JUMPDEST CALLVALUE DUP1 ISZERO PUSH2 0x3FB JUMPI PUSH0 PUSH0 REVERT JUMPDEST POP PUSH2 0x148 PUSH2 0x40A CALLDATASIZE PUSH1 0x4 PUSH2 0x23AA JUMP JUMPDEST PUSH2 0x1564 JUMP JUMPDEST CALLVALUE DUP1 ISZERO PUSH2 0x41A JUMPI PUSH0 PUSH0 REVERT JUMPDEST POP PUSH2 0x276 PUSH2 0x429 CALLDATASIZE PUSH1 0x4 PUSH2 0x2388 JUMP JUMPDEST PUSH2 0x162E JUMP JUMPDEST CALLVALUE DUP1 ISZERO PUSH2 0x439 JUMPI PUSH0 PUSH0 REVERT JUMPDEST POP PUSH2 0x148 PUSH2 0x448 CALLDATASIZE PUSH1 0x4 PUSH2 0x213D JUMP JUMPDEST PUSH2 0x164B JUMP JUMPDEST PUSH2 0x455 PUSH2 0x1744 JUMP JUMPDEST PUSH2 0x47A JUMPI PUSH1 0x40 MLOAD PUSH3 0x461BCD PUSH1 0xE5 SHL DUP2 MSTORE PUSH1 0x4 ADD PUSH2 0x471 SWAP1 PUSH2 0x23D4 JUMP JUMPDEST PUSH1 0x40 MLOAD DUP1 SWAP2 SUB SWAP1 REVERT JUMPDEST PUSH0 JUMPDEST DUP2 DUP2 LT ISZERO PUSH2 0x5B2 JUMPI PUSH1 0x1 PUSH1 0x5 PUSH0 DUP6 DUP6 DUP6 DUP2 DUP2 LT PUSH2 0x49B JUMPI PUSH2 0x49B PUSH2 0x240B JUMP JUMPDEST SWAP1 POP PUSH1 0x20 MUL ADD PUSH1 0x20 DUP2 ADD SWAP1 PUSH2 0x4B0 SWAP2 SWAP1 PUSH2 0x2388 JUMP JUMPDEST PUSH1 0x1 PUSH1 0x1 PUSH1 0xA0 SHL SUB AND DUP2 MSTORE PUSH1 0x20 DUP2 ADD SWAP2 SWAP1 SWAP2 MSTORE PUSH1 0x40 ADD PUSH0 KECCAK256 DUP1 SLOAD PUSH1 0xFF NOT AND SWAP2 ISZERO ISZERO SWAP2 SWAP1 SWAP2 OR SWAP1 SSTORE DUP3 DUP3 DUP3 DUP2 DUP2 LT PUSH2 0x4E9 JUMPI PUSH2 0x4E9 PUSH2 0x240B JUMP JUMPDEST SWAP1 POP PUSH1 0x20 MUL ADD PUSH1 0x20 DUP2 ADD SWAP1 PUSH2 0x4FE SWAP2 SWAP1 PUSH2 0x2388 JUMP JUMPDEST PUSH1 0x1 PUSH1 0x1 PUSH1 0xA0 SHL SUB AND PUSH32 0x615A0C1CB00A60D4ACD77EC67ACF2F17F223EF0932D591052FABC33643FE7E82 PUSH1 0x40 MLOAD PUSH1 0x40 MLOAD DUP1 SWAP2 SUB SWAP1 LOG2 DUP3 DUP3 DUP3 DUP2 DUP2 LT PUSH2 0x545 JUMPI PUSH2 0x545 PUSH2 0x240B JUMP JUMPDEST SWAP1 POP PUSH1 0x20 MUL ADD PUSH1 0x20 DUP2 ADD SWAP1 PUSH2 0x55A SWAP2 SWAP1 PUSH2 0x2388 JUMP JUMPDEST PUSH1 0x1 PUSH1 0x1 PUSH1 0xA0 SHL SUB AND PUSH4 0x79BA5097 PUSH1 0x40 MLOAD DUP2 PUSH4 0xFFFFFFFF AND PUSH1 0xE0 SHL DUP2 MSTORE PUSH1 0x4 ADD PUSH0 PUSH1 0x40 MLOAD DUP1 DUP4 SUB DUP2 PUSH0 DUP8 DUP1 EXTCODESIZE ISZERO DUP1 ISZERO PUSH2 0x591 JUMPI PUSH0 PUSH0 REVERT JUMPDEST POP GAS CALL ISZERO DUP1 ISZERO PUSH2 0x5A3 JUMPI RETURNDATASIZE PUSH0 PUSH0 RETURNDATACOPY RETURNDATASIZE PUSH0 REVERT JUMPDEST POP POP POP POP DUP1 PUSH1 0x1 ADD SWAP1 POP PUSH2 0x47C JUMP JUMPDEST POP POP POP JUMP JUMPDEST PUSH2 0x5BF PUSH2 0x176C JUMP JUMPDEST DUP3 PUSH32 0x0 PUSH1 0x1 PUSH1 0x1 PUSH1 0xA0 SHL SUB AND DUP2 PUSH1 0x1 PUSH1 0x1 PUSH1 0xA0 SHL SUB AND SUB PUSH2 0x611 JUMPI PUSH1 0x40 MLOAD PUSH3 0x461BCD PUSH1 0xE5 SHL DUP2 MSTORE PUSH1 0x4 ADD PUSH2 0x471 SWAP1 PUSH2 0x241F JUMP JUMPDEST DUP4 PUSH1 0x1 PUSH1 0x1 PUSH1 0xA0 SHL SUB AND EXTCODESIZE PUSH0 SUB PUSH2 0x667 JUMPI PUSH1 0x40 MLOAD PUSH3 0x461BCD PUSH1 0xE5 SHL DUP2 MSTORE PUSH1 0x20 PUSH1 0x4 DUP3 ADD MSTORE PUSH1 0x1A PUSH1 0x24 DUP3 ADD MSTORE PUSH26 0x135D5CDD08199BDC9DD85C99081D1BC8184818DBDB9D1C9858DD PUSH1 0x32 SHL PUSH1 0x44 DUP3 ADD MSTORE PUSH1 0x64 ADD PUSH2 0x471 JUMP JUMPDEST PUSH0 DUP5 PUSH1 0x1 PUSH1 0x1 PUSH1 0xA0 SHL SUB AND DUP5 DUP5 PUSH1 0x40 MLOAD PUSH2 0x682 SWAP3 SWAP2 SWAP1 PUSH2 0x244C JUMP JUMPDEST PUSH0 PUSH1 0x40 MLOAD DUP1 DUP4 SUB DUP2 PUSH0 DUP7 GAS CALL SWAP2 POP POP RETURNDATASIZE DUP1 PUSH0 DUP2 EQ PUSH2 0x6BB JUMPI PUSH1 0x40 MLOAD SWAP2 POP PUSH1 0x1F NOT PUSH1 0x3F RETURNDATASIZE ADD AND DUP3 ADD PUSH1 0x40 MSTORE RETURNDATASIZE DUP3 MSTORE RETURNDATASIZE PUSH0 PUSH1 0x20 DUP5 ADD RETURNDATACOPY PUSH2 0x6C0 JUMP JUMPDEST PUSH1 0x60 SWAP2 POP JUMPDEST POP POP SWAP1 POP DUP1 PUSH2 0x709 JUMPI PUSH1 0x40 MLOAD PUSH3 0x461BCD PUSH1 0xE5 SHL DUP2 MSTORE PUSH1 0x20 PUSH1 0x4 DUP3 ADD MSTORE PUSH1 0x15 PUSH1 0x24 DUP3 ADD MSTORE PUSH21 0x119BDC9DD85C9919590818D85B1B0819985A5B1959 PUSH1 0x5A SHL PUSH1 0x44 DUP3 ADD MSTORE PUSH1 0x64 ADD PUSH2 0x471 JUMP JUMPDEST POP POP POP POP POP JUMP JUMPDEST PUSH32 0x0 SWAP1 JUMP JUMPDEST PUSH1 0x60 PUSH1 0x1 DUP1 SLOAD DUP1 PUSH1 0x20 MUL PUSH1 0x20 ADD PUSH1 0x40 MLOAD SWAP1 DUP2 ADD PUSH1 0x40 MSTORE DUP1 SWAP3 SWAP2 SWAP1 DUP2 DUP2 MSTORE PUSH1 0x20 ADD DUP3 DUP1 SLOAD DUP1 ISZERO PUSH2 0x78A JUMPI PUSH1 0x20 MUL DUP3 ADD SWAP2 SWAP1 PUSH0 MSTORE PUSH1 0x20 PUSH0 KECCAK256 SWAP1 JUMPDEST DUP2 SLOAD PUSH1 0x1 PUSH1 0x1 PUSH1 0xA0 SHL SUB AND DUP2 MSTORE PUSH1 0x1 SWAP1 SWAP2 ADD SWAP1 PUSH1 0x20 ADD DUP1 DUP4 GT PUSH2 0x76C JUMPI JUMPDEST POP POP POP POP POP SWAP1 POP SWAP1 JUMP JUMPDEST PUSH2 0x79C PUSH2 0x710 JUMP JUMPDEST PUSH1 0x1 PUSH1 0x1 PUSH1 0xA0 SHL SUB AND CALLER PUSH1 0x1 PUSH1 0x1 PUSH1 0xA0 SHL SUB AND EQ PUSH2 0x7CC JUMPI PUSH1 0x40 MLOAD PUSH3 0x461BCD PUSH1 0xE5 SHL DUP2 MSTORE PUSH1 0x4 ADD PUSH2 0x471 SWAP1 PUSH2 0x245B JUMP JUMPDEST PUSH0 PUSH0 PUSH2 0x7DC DUP11 DUP11 DUP13 DUP11 DUP11 DUP11 PUSH2 0x17C1 JUMP JUMPDEST SWAP2 POP SWAP2 POP DUP8 PUSH0 MLOAD PUSH1 0x20 PUSH2 0x2869 PUSH0 CODECOPY PUSH0 MLOAD SWAP1 PUSH0 MSTORE DUP12 DUP5 DUP13 DUP15 DUP13 DUP8 DUP13 DUP13 DUP13 PUSH1 0x40 MLOAD PUSH2 0x80D SWAP10 SWAP9 SWAP8 SWAP7 SWAP6 SWAP5 SWAP4 SWAP3 SWAP2 SWAP1 PUSH2 0x24B0 JUMP JUMPDEST PUSH1 0x40 MLOAD DUP1 SWAP2 SUB SWAP1 LOG2 POP POP POP POP POP POP POP POP POP POP JUMP JUMPDEST PUSH2 0x829 PUSH2 0x176C JUMP JUMPDEST PUSH0 JUMPDEST DUP3 DUP2 LT ISZERO PUSH2 0x90F JUMPI PUSH0 PUSH1 0x5 PUSH0 DUP7 DUP7 DUP6 DUP2 DUP2 LT PUSH2 0x849 JUMPI PUSH2 0x849 PUSH2 0x240B JUMP JUMPDEST SWAP1 POP PUSH1 0x20 MUL ADD PUSH1 0x20 DUP2 ADD SWAP1 PUSH2 0x85E SWAP2 SWAP1 PUSH2 0x2388 JUMP JUMPDEST PUSH1 0x1 PUSH1 0x1 PUSH1 0xA0 SHL SUB AND DUP2 MSTORE PUSH1 0x20 DUP2 ADD SWAP2 SWAP1 SWAP2 MSTORE PUSH1 0x40 ADD PUSH0 KECCAK256 DUP1 SLOAD PUSH1 0xFF NOT AND SWAP2 ISZERO ISZERO SWAP2 SWAP1 SWAP2 OR SWAP1 SSTORE DUP4 DUP4 DUP3 DUP2 DUP2 LT PUSH2 0x897 JUMPI PUSH2 0x897 PUSH2 0x240B JUMP JUMPDEST SWAP1 POP PUSH1 0x20 MUL ADD PUSH1 0x20 DUP2 ADD SWAP1 PUSH2 0x8AC SWAP2 SWAP1 PUSH2 0x2388 JUMP JUMPDEST PUSH1 0x1 PUSH1 0x1 PUSH1 0xA0 SHL SUB AND PUSH4 0xF2FDE38B DUP4 PUSH1 0x40 MLOAD DUP3 PUSH4 0xFFFFFFFF AND PUSH1 0xE0 SHL DUP2 MSTORE PUSH1 0x4 ADD PUSH2 0x8D7 SWAP2 SWAP1 PUSH2 0x1EC4 JUMP JUMPDEST PUSH0 PUSH1 0x40 MLOAD DUP1 DUP4 SUB DUP2 PUSH0 DUP8 DUP1 EXTCODESIZE ISZERO DUP1 ISZERO PUSH2 0x8EE JUMPI PUSH0 PUSH0 REVERT JUMPDEST POP GAS CALL ISZERO DUP1 ISZERO PUSH2 0x900 JUMPI RETURNDATASIZE PUSH0 PUSH0 RETURNDATACOPY RETURNDATASIZE PUSH0 REVERT JUMPDEST POP POP POP POP DUP1 PUSH1 0x1 ADD SWAP1 POP PUSH2 0x82B JUMP JUMPDEST POP POP POP POP JUMP JUMPDEST PUSH2 0x91D PUSH2 0x710 JUMP JUMPDEST PUSH1 0x1 PUSH1 0x1 PUSH1 0xA0 SHL SUB AND CALLER PUSH1 0x1 PUSH1 0x1 PUSH1 0xA0 SHL SUB AND EQ PUSH2 0x94D JUMPI PUSH1 0x40 MLOAD PUSH3 0x461BCD PUSH1 0xE5 SHL DUP2 MSTORE PUSH1 0x4 ADD PUSH2 0x471 SWAP1 PUSH2 0x245B JUMP JUMPDEST PUSH0 PUSH0 PUSH2 0x95D DUP12 DUP12 DUP11 DUP11 DUP11 DUP11 PUSH2 0x17C1 JUMP JUMPDEST SWAP2 POP SWAP2 POP DUP9 PUSH0 MLOAD PUSH1 0x20 PUSH2 0x2869 PUSH0 CODECOPY PUSH0 MLOAD SWAP1 PUSH0 MSTORE DUP13 DUP5 DUP14 DUP16 DUP13 DUP8 DUP13 DUP13 DUP13 PUSH1 0x40 MLOAD PUSH2 0x98E SWAP10 SWAP9 SWAP8 SWAP7 SWAP6 SWAP5 SWAP4 SWAP3 SWAP2 SWAP1 PUSH2 0x24B0 JUMP JUMPDEST PUSH1 0x40 MLOAD DUP1 SWAP2 SUB SWAP1 LOG2 POP POP POP POP POP POP POP POP POP POP POP JUMP JUMPDEST PUSH0 PUSH2 0x9AC PUSH2 0x1927 JUMP JUMPDEST PUSH0 DUP8 DUP2 MSTORE PUSH1 0x4 PUSH1 0x20 MSTORE PUSH1 0x40 DUP2 KECCAK256 SLOAD DUP9 SWAP2 PUSH1 0x8 SWAP2 SWAP1 SWAP2 SHL PUSH1 0xFF NOT AND SWAP1 SUB PUSH2 0x9E4 JUMPI PUSH1 0x40 MLOAD PUSH3 0x461BCD PUSH1 0xE5 SHL DUP2 MSTORE PUSH1 0x4 ADD PUSH2 0x471 SWAP1 PUSH2 0x2518 JUMP JUMPDEST PUSH1 0x1 PUSH1 0x1 PUSH1 0xA0 SHL SUB DUP7 AND PUSH0 SWAP1 DUP2 MSTORE PUSH1 0x5 PUSH1 0x20 MSTORE PUSH1 0x40 SWAP1 KECCAK256 SLOAD DUP7 SWAP1 PUSH1 0xFF AND ISZERO PUSH2 0xA1E JUMPI PUSH1 0x40 MLOAD PUSH3 0x461BCD PUSH1 0xE5 SHL DUP2 MSTORE PUSH1 0x4 ADD PUSH2 0x471 SWAP1 PUSH2 0x254D JUMP JUMPDEST PUSH2 0xA2D DUP10 DUP10 DUP10 DUP10 DUP10 PUSH1 0x1 PUSH2 0x1974 JUMP JUMPDEST PUSH1 0x40 MLOAD DUP10 SWAP1 PUSH0 MLOAD PUSH1 0x20 PUSH2 0x2849 PUSH0 CODECOPY PUSH0 MLOAD SWAP1 PUSH0 MSTORE SWAP1 PUSH0 SWAP1 LOG2 PUSH3 0x61A80 GAS LT ISZERO PUSH2 0xA67 JUMPI PUSH1 0x40 MLOAD PUSH3 0x461BCD PUSH1 0xE5 SHL DUP2 MSTORE PUSH1 0x4 ADD PUSH2 0x471 SWAP1 PUSH2 0x2581 JUMP JUMPDEST PUSH0 DUP8 PUSH1 0x1 PUSH1 0x1 PUSH1 0xA0 SHL SUB AND DUP8 DUP12 DUP8 PUSH1 0x40 MLOAD PUSH1 0x24 ADD PUSH2 0xA8F SWAP3 SWAP2 SWAP1 SWAP2 DUP3 MSTORE PUSH1 0x20 DUP3 ADD MSTORE PUSH1 0x40 ADD SWAP1 JUMP JUMPDEST PUSH1 0x40 DUP1 MLOAD PUSH1 0x1F NOT DUP2 DUP5 SUB ADD DUP2 MSTORE SWAP2 DUP2 MSTORE PUSH1 0x20 DUP3 ADD DUP1 MLOAD PUSH1 0x1 PUSH1 0x1 PUSH1 0xE0 SHL SUB AND PUSH1 0x1 PUSH1 0x1 PUSH1 0xE0 SHL SUB NOT SWAP1 SWAP5 AND SWAP4 SWAP1 SWAP4 OR SWAP1 SWAP3 MSTORE SWAP1 MLOAD PUSH2 0xACD SWAP2 SWAP1 PUSH2 0x25B6 JUMP JUMPDEST PUSH0 PUSH1 0x40 MLOAD DUP1 DUP4 SUB DUP2 PUSH0 DUP7 GAS CALL SWAP2 POP POP RETURNDATASIZE DUP1 PUSH0 DUP2 EQ PUSH2 0xB06 JUMPI PUSH1 0x40 MLOAD SWAP2 POP PUSH1 0x1F NOT PUSH1 0x3F RETURNDATASIZE ADD AND DUP3 ADD PUSH1 0x40 MSTORE RETURNDATASIZE DUP3 MSTORE RETURNDATASIZE PUSH0 PUSH1 0x20 DUP5 ADD RETURNDATACOPY PUSH2 0xB0B JUMP JUMPDEST PUSH1 0x60 SWAP2 POP JUMPDEST POP SWAP1 SWAP12 SWAP11 POP POP POP POP POP POP POP POP POP POP POP JUMP JUMPDEST PUSH0 PUSH2 0xB25 PUSH2 0x1A52 JUMP JUMPDEST SWAP1 POP SWAP1 JUMP JUMPDEST PUSH2 0xB32 PUSH2 0x1744 JUMP JUMPDEST PUSH2 0xB4E JUMPI PUSH1 0x40 MLOAD PUSH3 0x461BCD PUSH1 0xE5 SHL DUP2 MSTORE PUSH1 0x4 ADD PUSH2 0x471 SWAP1 PUSH2 0x23D4 JUMP JUMPDEST PUSH2 0xB58 DUP5 DUP5 PUSH2 0x44D JUMP JUMPDEST PUSH2 0x90F DUP5 DUP5 DUP5 DUP5 PUSH2 0x164B JUMP JUMPDEST PUSH0 PUSH2 0xB6D PUSH2 0x1927 JUMP JUMPDEST PUSH0 DUP9 DUP2 MSTORE PUSH1 0x4 PUSH1 0x20 MSTORE PUSH1 0x40 DUP2 KECCAK256 SLOAD DUP10 SWAP2 PUSH1 0x8 SWAP2 SWAP1 SWAP2 SHL PUSH1 0xFF NOT AND SWAP1 SUB PUSH2 0xBA5 JUMPI PUSH1 0x40 MLOAD PUSH3 0x461BCD PUSH1 0xE5 SHL DUP2 MSTORE PUSH1 0x4 ADD PUSH2 0x471 SWAP1 PUSH2 0x2518 JUMP JUMPDEST PUSH1 0x1 PUSH1 0x1 PUSH1 0xA0 SHL SUB DUP8 AND PUSH0 SWAP1 DUP2 MSTORE PUSH1 0x5 PUSH1 0x20 MSTORE PUSH1 0x40 SWAP1 KECCAK256 SLOAD DUP8 SWAP1 PUSH1 0xFF AND ISZERO PUSH2 0xBDF JUMPI PUSH1 0x40 MLOAD PUSH3 0x461BCD PUSH1 0xE5 SHL DUP2 MSTORE PUSH1 0x4 ADD PUSH2 0x471 SWAP1 PUSH2 0x254D JUMP JUMPDEST DUP10 DUP6 DUP6 PUSH1 0x20 DUP2 LT ISZERO PUSH2 0xC31 JUMPI PUSH1 0x40 MLOAD PUSH3 0x461BCD PUSH1 0xE5 SHL DUP2 MSTORE PUSH1 0x20 PUSH1 0x4 DUP3 ADD MSTORE PUSH1 0x1B PUSH1 0x24 DUP3 ADD MSTORE PUSH27 0x526573706F6E7365206D757374206265203E203332206279746573 PUSH1 0x28 SHL PUSH1 0x44 DUP3 ADD MSTORE PUSH1 0x64 ADD PUSH2 0x471 JUMP JUMPDEST DUP2 CALLDATALOAD DUP4 DUP2 EQ PUSH2 0xC81 JUMPI PUSH1 0x40 MLOAD PUSH3 0x461BCD PUSH1 0xE5 SHL DUP2 MSTORE PUSH1 0x20 PUSH1 0x4 DUP3 ADD MSTORE PUSH1 0x1C PUSH1 0x24 DUP3 ADD MSTORE PUSH28 0x119A5C9CDD081DDBDC99081B5D5CDD081899481C995C5D595CDD1259 PUSH1 0x22 SHL PUSH1 0x44 DUP3 ADD MSTORE PUSH1 0x64 ADD PUSH2 0x471 JUMP JUMPDEST PUSH2 0xC90 DUP15 DUP15 DUP15 DUP15 DUP15 PUSH1 0x2 PUSH2 0x1974 JUMP JUMPDEST PUSH1 0x40 MLOAD DUP15 SWAP1 PUSH0 MLOAD PUSH1 0x20 PUSH2 0x2849 PUSH0 CODECOPY PUSH0 MLOAD SWAP1 PUSH0 MSTORE SWAP1 PUSH0 SWAP1 LOG2 PUSH3 0x61A80 GAS LT ISZERO PUSH2 0xCCA JUMPI PUSH1 0x40 MLOAD PUSH3 0x461BCD PUSH1 0xE5 SHL DUP2 MSTORE PUSH1 0x4 ADD PUSH2 0x471 SWAP1 PUSH2 0x2581 JUMP JUMPDEST PUSH0 DUP13 PUSH1 0x1 PUSH1 0x1 PUSH1 0xA0 SHL SUB AND DUP13 DUP12 DUP12 PUSH1 0x40 MLOAD PUSH1 0x20 ADD PUSH2 0xCEA SWAP4 SWAP3 SWAP2 SWAP1 PUSH2 0x25CC JUMP JUMPDEST PUSH1 0x40 DUP1 MLOAD PUSH1 0x1F NOT DUP2 DUP5 SUB ADD DUP2 MSTORE SWAP1 DUP3 SWAP1 MSTORE PUSH2 0xD04 SWAP2 PUSH2 0x25B6 JUMP JUMPDEST PUSH0 PUSH1 0x40 MLOAD DUP1 DUP4 SUB DUP2 PUSH0 DUP7 GAS CALL SWAP2 POP POP RETURNDATASIZE DUP1 PUSH0 DUP2 EQ PUSH2 0xD3D JUMPI PUSH1 0x40 MLOAD SWAP2 POP PUSH1 0x1F NOT PUSH1 0x3F RETURNDATASIZE ADD AND DUP3 ADD PUSH1 0x40 MSTORE RETURNDATASIZE DUP3 MSTORE RETURNDATASIZE PUSH0 PUSH1 0x20 DUP5 ADD RETURNDATACOPY PUSH2 0xD42 JUMP JUMPDEST PUSH1 0x60 SWAP2 POP JUMPDEST POP SWAP1 SWAP9 POP POP POP POP POP POP POP POP POP SWAP8 SWAP7 POP POP POP POP POP POP POP JUMP JUMPDEST DUP3 ISZERO DUP1 ISZERO SWAP1 PUSH2 0xD67 JUMPI POP DUP3 DUP2 EQ JUMPDEST PUSH2 0xDAD JUMPI PUSH1 0x40 MLOAD PUSH3 0x461BCD PUSH1 0xE5 SHL DUP2 MSTORE PUSH1 0x20 PUSH1 0x4 DUP3 ADD MSTORE PUSH1 0x17 PUSH1 0x24 DUP3 ADD MSTORE PUSH23 0x496E76616C6964206172726179206C656E677468287329 PUSH1 0x48 SHL PUSH1 0x44 DUP3 ADD MSTORE PUSH1 0x64 ADD PUSH2 0x471 JUMP JUMPDEST CALLVALUE PUSH0 JUMPDEST DUP5 DUP2 LT ISZERO PUSH2 0xED4 JUMPI PUSH0 DUP5 DUP5 DUP4 DUP2 DUP2 LT PUSH2 0xDCB JUMPI PUSH2 0xDCB PUSH2 0x240B JUMP JUMPDEST SWAP1 POP PUSH1 0x20 MUL ADD CALLDATALOAD SWAP1 POP DUP1 DUP4 PUSH2 0xDE0 SWAP2 SWAP1 PUSH2 0x2603 JUMP JUMPDEST SWAP3 POP PUSH0 DUP8 DUP8 DUP5 DUP2 DUP2 LT PUSH2 0xDF5 JUMPI PUSH2 0xDF5 PUSH2 0x240B JUMP JUMPDEST SWAP1 POP PUSH1 0x20 MUL ADD PUSH1 0x20 DUP2 ADD SWAP1 PUSH2 0xE0A SWAP2 SWAP1 PUSH2 0x2388 JUMP JUMPDEST PUSH1 0x1 PUSH1 0x1 PUSH1 0xA0 SHL SUB AND DUP3 PUSH1 0x40 MLOAD PUSH0 PUSH1 0x40 MLOAD DUP1 DUP4 SUB DUP2 DUP6 DUP8 GAS CALL SWAP3 POP POP POP RETURNDATASIZE DUP1 PUSH0 DUP2 EQ PUSH2 0xE51 JUMPI PUSH1 0x40 MLOAD SWAP2 POP PUSH1 0x1F NOT PUSH1 0x3F RETURNDATASIZE ADD AND DUP3 ADD PUSH1 0x40 MSTORE RETURNDATASIZE DUP3 MSTORE RETURNDATASIZE PUSH0 PUSH1 0x20 DUP5 ADD RETURNDATACOPY PUSH2 0xE56 JUMP JUMPDEST PUSH1 0x60 SWAP2 POP JUMPDEST POP POP SWAP1 POP DUP1 PUSH2 0xECA JUMPI PUSH1 0x40 MLOAD PUSH3 0x461BCD PUSH1 0xE5 SHL DUP2 MSTORE PUSH1 0x20 PUSH1 0x4 DUP3 ADD MSTORE PUSH1 0x3A PUSH1 0x24 DUP3 ADD MSTORE PUSH32 0x416464726573733A20756E61626C6520746F2073656E642076616C75652C2072 PUSH1 0x44 DUP3 ADD MSTORE PUSH26 0x1958DA5C1A595B9D081B585E481A185D99481C995D995C9D1959 PUSH1 0x32 SHL PUSH1 0x64 DUP3 ADD MSTORE PUSH1 0x84 ADD PUSH2 0x471 JUMP JUMPDEST POP POP PUSH1 0x1 ADD PUSH2 0xDB0 JUMP JUMPDEST POP DUP1 ISZERO PUSH2 0x709 JUMPI PUSH1 0x40 MLOAD PUSH3 0x461BCD PUSH1 0xE5 SHL DUP2 MSTORE PUSH1 0x20 PUSH1 0x4 DUP3 ADD MSTORE PUSH1 0x11 PUSH1 0x24 DUP3 ADD MSTORE PUSH17 0x151BDBC81B5D58DA08115512081CD95B9D PUSH1 0x7A SHL PUSH1 0x44 DUP3 ADD MSTORE PUSH1 0x64 ADD PUSH2 0x471 JUMP JUMPDEST PUSH0 PUSH2 0xF24 DUP5 CALLER DUP6 DUP6 PUSH2 0x1AF7 JUMP JUMPDEST PUSH0 DUP7 DUP2 MSTORE PUSH1 0x4 PUSH1 0x20 MSTORE PUSH1 0x40 SWAP1 KECCAK256 SLOAD SWAP1 SWAP2 POP PUSH1 0x8 SHL PUSH1 0xFF NOT SWAP1 DUP2 AND SWAP1 DUP3 AND EQ PUSH2 0xF5E JUMPI PUSH1 0x40 MLOAD PUSH3 0x461BCD PUSH1 0xE5 SHL DUP2 MSTORE PUSH1 0x4 ADD PUSH2 0x471 SWAP1 PUSH2 0x261C JUMP JUMPDEST TIMESTAMP DUP3 GT ISZERO PUSH2 0xFA7 JUMPI PUSH1 0x40 MLOAD PUSH3 0x461BCD PUSH1 0xE5 SHL DUP2 MSTORE PUSH1 0x20 PUSH1 0x4 DUP3 ADD MSTORE PUSH1 0x16 PUSH1 0x24 DUP3 ADD MSTORE PUSH22 0x14995C5D595CDD081A5CC81B9BDD08195E1C1A5C9959 PUSH1 0x52 SHL PUSH1 0x44 DUP3 ADD MSTORE PUSH1 0x64 ADD PUSH2 0x471 JUMP JUMPDEST PUSH0 DUP6 DUP2 MSTORE PUSH1 0x4 PUSH1 0x20 MSTORE PUSH1 0x40 DUP1 DUP3 KECCAK256 DUP3 SWAP1 SSTORE MLOAD DUP7 SWAP2 PUSH32 0xA7842B9EC549398102C0D91B1B9919B2F20558AEFDADF57528A95C6CD3292E93 SWAP2 LOG2 DUP4 PUSH1 0x6 PUSH0 DUP3 DUP3 SLOAD PUSH2 0xFEF SWAP2 SWAP1 PUSH2 0x2603 JUMP JUMPDEST SWAP1 SWAP2 SSTORE POP POP PUSH1 0x40 MLOAD PUSH4 0xA9059CBB PUSH1 0xE0 SHL DUP2 MSTORE PUSH1 0x1 PUSH1 0x1 PUSH1 0xA0 SHL SUB PUSH32 0x0 AND SWAP1 PUSH4 0xA9059CBB SWAP1 PUSH2 0x1042 SWAP1 CALLER SWAP1 DUP9 SWAP1 PUSH1 0x4 ADD PUSH2 0x2653 JUMP JUMPDEST PUSH1 0x20 PUSH1 0x40 MLOAD DUP1 DUP4 SUB DUP2 PUSH0 DUP8 GAS CALL ISZERO DUP1 ISZERO PUSH2 0x105E JUMPI RETURNDATASIZE PUSH0 PUSH0 RETURNDATACOPY RETURNDATASIZE PUSH0 REVERT JUMPDEST POP POP POP POP PUSH1 0x40 MLOAD RETURNDATASIZE PUSH1 0x1F NOT PUSH1 0x1F DUP3 ADD AND DUP3 ADD DUP1 PUSH1 0x40 MSTORE POP DUP2 ADD SWAP1 PUSH2 0x1082 SWAP2 SWAP1 PUSH2 0x266C JUMP JUMPDEST POP POP POP POP POP POP JUMP JUMPDEST PUSH1 0x3 SLOAD PUSH1 0x1 PUSH1 0x1 PUSH1 0xA0 SHL SUB AND CALLER EQ PUSH2 0x10DD JUMPI PUSH1 0x40 MLOAD PUSH3 0x461BCD PUSH1 0xE5 SHL DUP2 MSTORE PUSH1 0x20 PUSH1 0x4 DUP3 ADD MSTORE PUSH1 0x16 PUSH1 0x24 DUP3 ADD MSTORE PUSH22 0x26BAB9BA10313290383937B837B9B2B21037BBB732B9 PUSH1 0x51 SHL PUSH1 0x44 DUP3 ADD MSTORE PUSH1 0x64 ADD PUSH2 0x471 JUMP JUMPDEST PUSH1 0x2 DUP1 SLOAD PUSH1 0x1 PUSH1 0x1 PUSH1 0xA0 SHL SUB NOT DUP1 DUP3 AND CALLER SWAP1 DUP2 OR SWAP1 SWAP4 SSTORE PUSH1 0x3 DUP1 SLOAD SWAP1 SWAP2 AND SWAP1 SSTORE PUSH1 0x40 MLOAD PUSH1 0x1 PUSH1 0x1 PUSH1 0xA0 SHL SUB SWAP1 SWAP2 AND SWAP2 SWAP1 DUP3 SWAP1 PUSH32 0x8BE0079C531659141344CD1FD0A4F28419497F9722A3DAAFE3B4186F6B6457E0 SWAP1 PUSH0 SWAP1 LOG3 POP JUMP JUMPDEST PUSH1 0x2 SLOAD PUSH1 0x1 PUSH1 0x1 PUSH1 0xA0 SHL SUB AND SWAP1 JUMP JUMPDEST PUSH0 PUSH2 0x114F PUSH2 0x176C JUMP JUMPDEST DUP4 DUP1 PUSH2 0x1159 PUSH2 0x1A52 JUMP JUMPDEST LT ISZERO PUSH2 0x1177 JUMPI PUSH1 0x40 MLOAD PUSH3 0x461BCD PUSH1 0xE5 SHL DUP2 MSTORE PUSH1 0x4 ADD PUSH2 0x471 SWAP1 PUSH2 0x268B JUMP JUMPDEST PUSH1 0x40 MLOAD PUSH4 0x2000575 PUSH1 0xE5 SHL DUP2 MSTORE PUSH1 0x1 PUSH1 0x1 PUSH1 0xA0 SHL SUB PUSH32 0x0 AND SWAP1 PUSH4 0x4000AEA0 SWAP1 PUSH2 0x11C9 SWAP1 DUP10 SWAP1 DUP10 SWAP1 DUP10 SWAP1 DUP10 SWAP1 PUSH1 0x4 ADD PUSH2 0x26E0 JUMP JUMPDEST PUSH1 0x20 PUSH1 0x40 MLOAD DUP1 DUP4 SUB DUP2 PUSH0 DUP8 GAS CALL ISZERO DUP1 ISZERO PUSH2 0x11E5 JUMPI RETURNDATASIZE PUSH0 PUSH0 RETURNDATACOPY RETURNDATASIZE PUSH0 REVERT JUMPDEST POP POP POP POP PUSH1 0x40 MLOAD RETURNDATASIZE PUSH1 0x1F NOT PUSH1 0x1F DUP3 ADD AND DUP3 ADD DUP1 PUSH1 0x40 MSTORE POP DUP2 ADD SWAP1 PUSH2 0x1209 SWAP2 SWAP1 PUSH2 0x266C JUMP JUMPDEST SWAP7 SWAP6 POP POP POP POP POP POP JUMP JUMPDEST PUSH2 0x121B PUSH2 0x710 JUMP JUMPDEST PUSH1 0x1 PUSH1 0x1 PUSH1 0xA0 SHL SUB AND CALLER PUSH1 0x1 PUSH1 0x1 PUSH1 0xA0 SHL SUB AND EQ PUSH2 0x124B JUMPI PUSH1 0x40 MLOAD PUSH3 0x461BCD PUSH1 0xE5 SHL DUP2 MSTORE PUSH1 0x4 ADD PUSH2 0x471 SWAP1 PUSH2 0x245B JUMP JUMPDEST PUSH1 0x20 DUP2 ADD MLOAD DUP2 SWAP1 PUSH2 0x125C DUP2 DUP4 PUSH2 0x1B4C JUMP JUMPDEST DUP5 PUSH1 0x24 DUP5 ADD MSTORE DUP4 PUSH1 0x44 DUP5 ADD MSTORE PUSH0 ADDRESS PUSH1 0x1 PUSH1 0x1 PUSH1 0xA0 SHL SUB AND DUP5 PUSH1 0x40 MLOAD PUSH2 0x1281 SWAP2 SWAP1 PUSH2 0x25B6 JUMP JUMPDEST PUSH0 PUSH1 0x40 MLOAD DUP1 DUP4 SUB DUP2 DUP6 GAS DELEGATECALL SWAP2 POP POP RETURNDATASIZE DUP1 PUSH0 DUP2 EQ PUSH2 0x12B9 JUMPI PUSH1 0x40 MLOAD SWAP2 POP PUSH1 0x1F NOT PUSH1 0x3F RETURNDATASIZE ADD AND DUP3 ADD PUSH1 0x40 MSTORE RETURNDATASIZE DUP3 MSTORE RETURNDATASIZE PUSH0 PUSH1 0x20 DUP5 ADD RETURNDATACOPY PUSH2 0x12BE JUMP JUMPDEST PUSH1 0x60 SWAP2 POP JUMPDEST POP POP SWAP1 POP DUP1 PUSH2 0x1082 JUMPI PUSH1 0x40 MLOAD PUSH3 0x461BCD PUSH1 0xE5 SHL DUP2 MSTORE PUSH1 0x20 PUSH1 0x4 DUP3 ADD MSTORE PUSH1 0x18 PUSH1 0x24 DUP3 ADD MSTORE PUSH24 0x155B98589B19481D1BC818DC99585D19481C995C5D595CDD PUSH1 0x42 SHL PUSH1 0x44 DUP3 ADD MSTORE PUSH1 0x64 ADD PUSH2 0x471 JUMP JUMPDEST PUSH2 0x90F CALLER DUP6 PUSH1 0x40 MLOAD PUSH1 0x20 ADD PUSH2 0x1320 SWAP3 SWAP2 SWAP1 PUSH2 0x2707 JUMP JUMPDEST PUSH1 0x40 MLOAD PUSH1 0x20 DUP2 DUP4 SUB SUB DUP2 MSTORE SWAP1 PUSH1 0x40 MSTORE DUP1 MLOAD SWAP1 PUSH1 0x20 ADD KECCAK256 DUP5 DUP5 DUP5 PUSH2 0xF17 JUMP JUMPDEST PUSH2 0x1346 PUSH2 0x1744 JUMP JUMPDEST PUSH2 0x1362 JUMPI PUSH1 0x40 MLOAD PUSH3 0x461BCD PUSH1 0xE5 SHL DUP2 MSTORE PUSH1 0x4 ADD PUSH2 0x471 SWAP1 PUSH2 0x23D4 JUMP JUMPDEST DUP1 PUSH2 0x13AD JUMPI PUSH1 0x40 MLOAD PUSH3 0x461BCD PUSH1 0xE5 SHL DUP2 MSTORE PUSH1 0x20 PUSH1 0x4 DUP3 ADD MSTORE PUSH1 0x1B PUSH1 0x24 DUP3 ADD MSTORE PUSH27 0x26BAB9BA103430BB329030BA103632B0B9BA10189039B2B73232B9 PUSH1 0x29 SHL PUSH1 0x44 DUP3 ADD MSTORE PUSH1 0x64 ADD PUSH2 0x471 JUMP JUMPDEST PUSH1 0x1 SLOAD PUSH0 JUMPDEST DUP2 DUP2 LT ISZERO PUSH2 0x140B JUMPI PUSH0 PUSH0 PUSH0 PUSH1 0x1 DUP5 DUP2 SLOAD DUP2 LT PUSH2 0x13D0 JUMPI PUSH2 0x13D0 PUSH2 0x240B JUMP JUMPDEST PUSH0 SWAP2 DUP3 MSTORE PUSH1 0x20 DUP1 DUP4 KECCAK256 SWAP2 SWAP1 SWAP2 ADD SLOAD PUSH1 0x1 PUSH1 0x1 PUSH1 0xA0 SHL SUB AND DUP4 MSTORE DUP3 ADD SWAP3 SWAP1 SWAP3 MSTORE PUSH1 0x40 ADD SWAP1 KECCAK256 DUP1 SLOAD PUSH1 0xFF NOT AND SWAP2 ISZERO ISZERO SWAP2 SWAP1 SWAP2 OR SWAP1 SSTORE PUSH1 0x1 ADD PUSH2 0x13B2 JUMP JUMPDEST POP PUSH0 JUMPDEST DUP3 DUP2 LT ISZERO PUSH2 0x1502 JUMPI PUSH0 PUSH0 DUP6 DUP6 DUP5 DUP2 DUP2 LT PUSH2 0x142A JUMPI PUSH2 0x142A PUSH2 0x240B JUMP JUMPDEST SWAP1 POP PUSH1 0x20 MUL ADD PUSH1 0x20 DUP2 ADD SWAP1 PUSH2 0x143F SWAP2 SWAP1 PUSH2 0x2388 JUMP JUMPDEST PUSH1 0x1 PUSH1 0x1 PUSH1 0xA0 SHL SUB AND DUP2 MSTORE PUSH1 0x20 DUP2 ADD SWAP2 SWAP1 SWAP2 MSTORE PUSH1 0x40 ADD PUSH0 KECCAK256 SLOAD PUSH1 0xFF AND ISZERO PUSH2 0x14A8 JUMPI PUSH1 0x40 MLOAD PUSH3 0x461BCD PUSH1 0xE5 SHL DUP2 MSTORE PUSH1 0x20 PUSH1 0x4 DUP3 ADD MSTORE PUSH1 0x1F PUSH1 0x24 DUP3 ADD MSTORE PUSH32 0x4D757374206E6F742068617665206475706C69636174652073656E6465727300 PUSH1 0x44 DUP3 ADD MSTORE PUSH1 0x64 ADD PUSH2 0x471 JUMP JUMPDEST PUSH1 0x1 PUSH0 PUSH0 DUP7 DUP7 DUP6 DUP2 DUP2 LT PUSH2 0x14BE JUMPI PUSH2 0x14BE PUSH2 0x240B JUMP JUMPDEST SWAP1 POP PUSH1 0x20 MUL ADD PUSH1 0x20 DUP2 ADD SWAP1 PUSH2 0x14D3 SWAP2 SWAP1 PUSH2 0x2388 JUMP JUMPDEST PUSH1 0x1 PUSH1 0x1 PUSH1 0xA0 SHL SUB AND DUP2 MSTORE PUSH1 0x20 DUP2 ADD SWAP2 SWAP1 SWAP2 MSTORE PUSH1 0x40 ADD PUSH0 KECCAK256 DUP1 SLOAD PUSH1 0xFF NOT AND SWAP2 ISZERO ISZERO SWAP2 SWAP1 SWAP2 OR SWAP1 SSTORE PUSH1 0x1 ADD PUSH2 0x140E JUMP JUMPDEST POP PUSH2 0x150F PUSH1 0x1 DUP5 DUP5 PUSH2 0x1D32 JUMP JUMPDEST POP PUSH32 0xF263CFB3E4298332E776194610CF9FDC09CCB3ADA8B9AA39764D882E11FBF0A0 DUP4 DUP4 CALLER PUSH1 0x40 MLOAD PUSH2 0x1543 SWAP4 SWAP3 SWAP2 SWAP1 PUSH2 0x276C JUMP JUMPDEST PUSH1 0x40 MLOAD DUP1 SWAP2 SUB SWAP1 LOG1 POP POP POP JUMP JUMPDEST PUSH2 0x1558 PUSH2 0x176C JUMP JUMPDEST PUSH2 0x1561 DUP2 PUSH2 0x1C2B JUMP JUMPDEST POP JUMP JUMPDEST PUSH2 0x156C PUSH2 0x176C JUMP JUMPDEST DUP1 DUP1 PUSH2 0x1576 PUSH2 0x1A52 JUMP JUMPDEST LT ISZERO PUSH2 0x1594 JUMPI PUSH1 0x40 MLOAD PUSH3 0x461BCD PUSH1 0xE5 SHL DUP2 MSTORE PUSH1 0x4 ADD PUSH2 0x471 SWAP1 PUSH2 0x268B JUMP JUMPDEST PUSH1 0x40 MLOAD PUSH4 0xA9059CBB PUSH1 0xE0 SHL DUP2 MSTORE PUSH1 0x1 PUSH1 0x1 PUSH1 0xA0 SHL SUB PUSH32 0x0 AND SWAP1 PUSH4 0xA9059CBB SWAP1 PUSH2 0x15E2 SWAP1 DUP7 SWAP1 DUP7 SWAP1 PUSH1 0x4 ADD PUSH2 0x2653 JUMP JUMPDEST PUSH1 0x20 PUSH1 0x40 MLOAD DUP1 DUP4 SUB DUP2 PUSH0 DUP8 GAS CALL ISZERO DUP1 ISZERO PUSH2 0x15FE JUMPI RETURNDATASIZE PUSH0 PUSH0 RETURNDATACOPY RETURNDATASIZE PUSH0 REVERT JUMPDEST POP POP POP POP PUSH1 0x40 MLOAD RETURNDATASIZE PUSH1 0x1F NOT PUSH1 0x1F DUP3 ADD AND DUP3 ADD DUP1 PUSH1 0x40 MSTORE POP DUP2 ADD SWAP1 PUSH2 0x1622 SWAP2 SWAP1 PUSH2 0x266C JUMP JUMPDEST PUSH2 0x5B2 JUMPI PUSH2 0x5B2 PUSH2 0x2797 JUMP JUMPDEST PUSH1 0x1 PUSH1 0x1 PUSH1 0xA0 SHL SUB AND PUSH0 SWAP1 DUP2 MSTORE PUSH1 0x20 DUP2 SWAP1 MSTORE PUSH1 0x40 SWAP1 KECCAK256 SLOAD PUSH1 0xFF AND SWAP1 JUMP JUMPDEST PUSH2 0x1653 PUSH2 0x1744 JUMP JUMPDEST PUSH2 0x166F JUMPI PUSH1 0x40 MLOAD PUSH3 0x461BCD PUSH1 0xE5 SHL DUP2 MSTORE PUSH1 0x4 ADD PUSH2 0x471 SWAP1 PUSH2 0x23D4 JUMP JUMPDEST PUSH32 0x1BB185903E2CB2F1B303523128B60E314DEA81DF4F8D9B7351CADD344F6E7727 DUP5 DUP5 DUP5 DUP5 CALLER PUSH1 0x40 MLOAD PUSH2 0x16A6 SWAP6 SWAP5 SWAP4 SWAP3 SWAP2 SWAP1 PUSH2 0x27AB JUMP JUMPDEST PUSH1 0x40 MLOAD DUP1 SWAP2 SUB SWAP1 LOG1 PUSH0 JUMPDEST DUP4 DUP2 LT ISZERO PUSH2 0x709 JUMPI DUP5 DUP5 DUP3 DUP2 DUP2 LT PUSH2 0x16CA JUMPI PUSH2 0x16CA PUSH2 0x240B JUMP JUMPDEST SWAP1 POP PUSH1 0x20 MUL ADD PUSH1 0x20 DUP2 ADD SWAP1 PUSH2 0x16DF SWAP2 SWAP1 PUSH2 0x2388 JUMP JUMPDEST PUSH1 0x1 PUSH1 0x1 PUSH1 0xA0 SHL SUB AND PUSH4 0xEE56997B DUP5 DUP5 PUSH1 0x40 MLOAD DUP4 PUSH4 0xFFFFFFFF AND PUSH1 0xE0 SHL DUP2 MSTORE PUSH1 0x4 ADD PUSH2 0x170C SWAP3 SWAP2 SWAP1 PUSH2 0x27EC JUMP JUMPDEST PUSH0 PUSH1 0x40 MLOAD DUP1 DUP4 SUB DUP2 PUSH0 DUP8 DUP1 EXTCODESIZE ISZERO DUP1 ISZERO PUSH2 0x1723 JUMPI PUSH0 PUSH0 REVERT JUMPDEST POP GAS CALL ISZERO DUP1 ISZERO PUSH2 0x1735 JUMPI RETURNDATASIZE PUSH0 PUSH0 RETURNDATACOPY RETURNDATASIZE PUSH0 REVERT JUMPDEST POP POP POP POP DUP1 PUSH1 0x1 ADD SWAP1 POP PUSH2 0x16B0 JUMP JUMPDEST PUSH0 PUSH2 0x174E CALLER PUSH2 0x162E JUMP JUMPDEST DUP1 PUSH2 0xB25 JUMPI POP CALLER PUSH2 0x175D PUSH2 0x1137 JUMP JUMPDEST PUSH1 0x1 PUSH1 0x1 PUSH1 0xA0 SHL SUB AND EQ SWAP1 POP SWAP1 JUMP JUMPDEST PUSH1 0x2 SLOAD PUSH1 0x1 PUSH1 0x1 PUSH1 0xA0 SHL SUB AND CALLER EQ PUSH2 0x17BF JUMPI PUSH1 0x40 MLOAD PUSH3 0x461BCD PUSH1 0xE5 SHL DUP2 MSTORE PUSH1 0x20 PUSH1 0x4 DUP3 ADD MSTORE PUSH1 0x16 PUSH1 0x24 DUP3 ADD MSTORE PUSH22 0x27B7363C9031B0B63630B1363290313C9037BBB732B9 PUSH1 0x51 SHL PUSH1 0x44 DUP3 ADD MSTORE PUSH1 0x64 ADD PUSH2 0x471 JUMP JUMPDEST JUMP JUMPDEST PUSH0 PUSH0 DUP6 PUSH32 0x0 PUSH1 0x1 PUSH1 0x1 PUSH1 0xA0 SHL SUB AND DUP2 PUSH1 0x1 PUSH1 0x1 PUSH1 0xA0 SHL SUB AND SUB PUSH2 0x1815 JUMPI PUSH1 0x40 MLOAD PUSH3 0x461BCD PUSH1 0xE5 SHL DUP2 MSTORE PUSH1 0x4 ADD PUSH2 0x471 SWAP1 PUSH2 0x241F JUMP JUMPDEST DUP9 DUP6 PUSH1 0x40 MLOAD PUSH1 0x20 ADD PUSH2 0x1828 SWAP3 SWAP2 SWAP1 PUSH2 0x2707 JUMP JUMPDEST PUSH1 0x40 DUP1 MLOAD DUP1 DUP4 SUB PUSH1 0x1F NOT ADD DUP2 MSTORE SWAP2 DUP2 MSTORE DUP2 MLOAD PUSH1 0x20 SWAP3 DUP4 ADD KECCAK256 PUSH0 DUP2 DUP2 MSTORE PUSH1 0x4 SWAP1 SWAP4 MSTORE SWAP2 KECCAK256 SLOAD SWAP1 SWAP4 POP PUSH1 0x8 SHL PUSH1 0xFF NOT AND ISZERO PUSH2 0x189A JUMPI PUSH1 0x40 MLOAD PUSH3 0x461BCD PUSH1 0xE5 SHL DUP2 MSTORE PUSH1 0x20 PUSH1 0x4 DUP3 ADD MSTORE PUSH1 0x14 PUSH1 0x24 DUP3 ADD MSTORE PUSH20 0x135D5CDD081D5CD94818481D5B9A5C5D59481251 PUSH1 0x62 SHL PUSH1 0x44 DUP3 ADD MSTORE PUSH1 0x64 ADD PUSH2 0x471 JUMP JUMPDEST PUSH2 0x18A6 PUSH2 0x12C TIMESTAMP PUSH2 0x2807 JUMP JUMPDEST SWAP2 POP PUSH0 PUSH2 0x18B5 DUP10 DUP10 DUP10 DUP7 PUSH2 0x1AF7 JUMP JUMPDEST SWAP1 POP PUSH1 0x40 MLOAD DUP1 PUSH1 0x40 ADD PUSH1 0x40 MSTORE DUP1 DUP3 PUSH1 0xFF NOT AND DUP2 MSTORE PUSH1 0x20 ADD PUSH2 0x18D5 DUP8 PUSH2 0x1CCE JUMP JUMPDEST PUSH1 0xFF SWAP1 DUP2 AND SWAP1 SWAP2 MSTORE PUSH0 DUP7 DUP2 MSTORE PUSH1 0x4 PUSH1 0x20 SWAP1 DUP2 MSTORE PUSH1 0x40 SWAP1 SWAP2 KECCAK256 DUP4 MLOAD SWAP4 SWAP1 SWAP2 ADD MLOAD SWAP1 SWAP2 AND PUSH1 0x1 PUSH1 0xF8 SHL MUL PUSH1 0x8 SWAP3 SWAP1 SWAP3 SHR SWAP2 SWAP1 SWAP2 OR SWAP1 SSTORE PUSH1 0x6 SLOAD PUSH2 0x1917 SWAP1 DUP11 SWAP1 PUSH2 0x2807 JUMP JUMPDEST PUSH1 0x6 SSTORE POP POP SWAP7 POP SWAP7 SWAP5 POP POP POP POP POP JUMP JUMPDEST PUSH2 0x1930 CALLER PUSH2 0x162E JUMP JUMPDEST PUSH2 0x17BF JUMPI PUSH1 0x40 MLOAD PUSH3 0x461BCD PUSH1 0xE5 SHL DUP2 MSTORE PUSH1 0x20 PUSH1 0x4 DUP3 ADD MSTORE PUSH1 0x15 PUSH1 0x24 DUP3 ADD MSTORE PUSH21 0x2737BA1030BABA3437B934BD32B21039B2B73232B9 PUSH1 0x59 SHL PUSH1 0x44 DUP3 ADD MSTORE PUSH1 0x64 ADD PUSH2 0x471 JUMP JUMPDEST PUSH0 PUSH2 0x1981 DUP7 DUP7 DUP7 DUP7 PUSH2 0x1AF7 JUMP JUMPDEST PUSH0 DUP9 DUP2 MSTORE PUSH1 0x4 PUSH1 0x20 MSTORE PUSH1 0x40 SWAP1 KECCAK256 SLOAD SWAP1 SWAP2 POP PUSH1 0x8 SHL PUSH1 0xFF NOT SWAP1 DUP2 AND SWAP1 DUP3 AND EQ PUSH2 0x19BB JUMPI PUSH1 0x40 MLOAD PUSH3 0x461BCD PUSH1 0xE5 SHL DUP2 MSTORE PUSH1 0x4 ADD PUSH2 0x471 SWAP1 PUSH2 0x261C JUMP JUMPDEST PUSH2 0x19C4 DUP3 PUSH2 0x1CCE JUMP JUMPDEST PUSH0 DUP9 DUP2 MSTORE PUSH1 0x4 PUSH1 0x20 MSTORE PUSH1 0x40 SWAP1 KECCAK256 SLOAD PUSH1 0xFF SWAP2 DUP3 AND PUSH1 0x1 PUSH1 0xF8 SHL SWAP1 SWAP2 DIV SWAP1 SWAP2 AND GT ISZERO PUSH2 0x1A2B JUMPI PUSH1 0x40 MLOAD PUSH3 0x461BCD PUSH1 0xE5 SHL DUP2 MSTORE PUSH1 0x20 PUSH1 0x4 DUP3 ADD MSTORE PUSH1 0x18 PUSH1 0x24 DUP3 ADD MSTORE PUSH24 0x88C2E8C240ECCAE4E6D2DEDCE640DAEAE6E840DAC2E8C6D PUSH1 0x43 SHL PUSH1 0x44 DUP3 ADD MSTORE PUSH1 0x64 ADD PUSH2 0x471 JUMP JUMPDEST DUP6 PUSH1 0x6 SLOAD PUSH2 0x1A39 SWAP2 SWAP1 PUSH2 0x2603 JUMP JUMPDEST PUSH1 0x6 SSTORE POP POP POP PUSH0 SWAP4 DUP5 MSTORE POP POP PUSH1 0x4 PUSH1 0x20 MSTORE POP PUSH1 0x40 DUP2 KECCAK256 SSTORE JUMP JUMPDEST PUSH0 PUSH1 0x1 PUSH1 0x6 SLOAD PUSH2 0x1A62 SWAP2 SWAP1 PUSH2 0x2603 JUMP JUMPDEST PUSH1 0x40 MLOAD PUSH4 0x70A08231 PUSH1 0xE0 SHL DUP2 MSTORE PUSH1 0x1 PUSH1 0x1 PUSH1 0xA0 SHL SUB PUSH32 0x0 AND SWAP1 PUSH4 0x70A08231 SWAP1 PUSH2 0x1AAE SWAP1 ADDRESS SWAP1 PUSH1 0x4 ADD PUSH2 0x1EC4 JUMP JUMPDEST PUSH1 0x20 PUSH1 0x40 MLOAD DUP1 DUP4 SUB DUP2 DUP7 GAS STATICCALL ISZERO DUP1 ISZERO PUSH2 0x1AC9 JUMPI RETURNDATASIZE PUSH0 PUSH0 RETURNDATACOPY RETURNDATASIZE PUSH0 REVERT JUMPDEST POP POP POP POP PUSH1 0x40 MLOAD RETURNDATASIZE PUSH1 0x1F NOT PUSH1 0x1F DUP3 ADD AND DUP3 ADD DUP1 PUSH1 0x40 MSTORE POP DUP2 ADD SWAP1 PUSH2 0x1AED SWAP2 SWAP1 PUSH2 0x281A JUMP JUMPDEST PUSH2 0xB25 SWAP2 SWAP1 PUSH2 0x2603 JUMP JUMPDEST PUSH1 0x40 DUP1 MLOAD PUSH1 0x20 DUP1 DUP3 ADD SWAP7 SWAP1 SWAP7 MSTORE PUSH1 0x60 SWAP5 SWAP1 SWAP5 SHL PUSH1 0x1 PUSH1 0x1 PUSH1 0x60 SHL SUB NOT AND DUP5 DUP3 ADD MSTORE PUSH1 0x1 PUSH1 0x1 PUSH1 0xE0 SHL SUB NOT SWAP3 SWAP1 SWAP3 AND PUSH1 0x54 DUP5 ADD MSTORE PUSH1 0x58 DUP1 DUP5 ADD SWAP2 SWAP1 SWAP2 MSTORE DUP2 MLOAD DUP1 DUP5 SUB SWAP1 SWAP2 ADD DUP2 MSTORE PUSH1 0x78 SWAP1 SWAP3 ADD SWAP1 MSTORE DUP1 MLOAD SWAP2 ADD KECCAK256 SWAP1 JUMP JUMPDEST PUSH2 0x1B58 PUSH1 0x2 PUSH1 0x20 PUSH2 0x2831 JUMP JUMPDEST PUSH2 0x1B63 SWAP1 PUSH1 0x4 PUSH2 0x2807 JUMP JUMPDEST DUP2 MLOAD LT ISZERO PUSH2 0x1BAC JUMPI PUSH1 0x40 MLOAD PUSH3 0x461BCD PUSH1 0xE5 SHL DUP2 MSTORE PUSH1 0x20 PUSH1 0x4 DUP3 ADD MSTORE PUSH1 0x16 PUSH1 0x24 DUP3 ADD MSTORE PUSH22 0x92DCECC2D8D2C840E4CAE2EACAE6E840D8CADCCEE8D PUSH1 0x53 SHL PUSH1 0x44 DUP3 ADD MSTORE PUSH1 0x64 ADD PUSH2 0x471 JUMP JUMPDEST PUSH1 0x1 PUSH1 0x1 PUSH1 0xE0 SHL SUB NOT DUP3 AND PUSH4 0x3C6D41B9 PUSH1 0xE0 SHL EQ DUP1 PUSH2 0x1BDB JUMPI POP PUSH1 0x1 PUSH1 0x1 PUSH1 0xE0 SHL SUB NOT DUP3 AND PUSH4 0x20214CA3 PUSH1 0xE1 SHL EQ JUMPDEST PUSH2 0x1C27 JUMPI PUSH1 0x40 MLOAD PUSH3 0x461BCD PUSH1 0xE5 SHL DUP2 MSTORE PUSH1 0x20 PUSH1 0x4 DUP3 ADD MSTORE PUSH1 0x1E PUSH1 0x24 DUP3 ADD MSTORE PUSH32 0x4D757374207573652077686974656C69737465642066756E6374696F6E730000 PUSH1 0x44 DUP3 ADD MSTORE PUSH1 0x64 ADD PUSH2 0x471 JUMP JUMPDEST POP POP JUMP JUMPDEST CALLER PUSH1 0x1 PUSH1 0x1 PUSH1 0xA0 SHL SUB DUP3 AND SUB PUSH2 0x1C7D JUMPI PUSH1 0x40 MLOAD PUSH3 0x461BCD PUSH1 0xE5 SHL DUP2 MSTORE PUSH1 0x20 PUSH1 0x4 DUP3 ADD MSTORE PUSH1 0x17 PUSH1 0x24 DUP3 ADD MSTORE PUSH23 0x21B0B73737BA103A3930B739B332B9103A379039B2B633 PUSH1 0x49 SHL PUSH1 0x44 DUP3 ADD MSTORE PUSH1 0x64 ADD PUSH2 0x471 JUMP JUMPDEST PUSH1 0x3 DUP1 SLOAD PUSH1 0x1 PUSH1 0x1 PUSH1 0xA0 SHL SUB NOT AND PUSH1 0x1 PUSH1 0x1 PUSH1 0xA0 SHL SUB DUP4 DUP2 AND SWAP2 DUP3 OR SWAP1 SWAP3 SSTORE PUSH1 0x2 SLOAD PUSH1 0x40 MLOAD SWAP2 SWAP3 AND SWAP1 PUSH32 0xED8889F560326EB138920D842192F0EB3DD22B4F139C87A2C57538E05BAE1278 SWAP1 PUSH0 SWAP1 LOG3 POP JUMP JUMPDEST PUSH0 PUSH1 0xFF DUP3 GT ISZERO PUSH2 0x1D2E JUMPI PUSH1 0x40 MLOAD PUSH3 0x461BCD PUSH1 0xE5 SHL DUP2 MSTORE PUSH1 0x20 PUSH1 0x4 DUP3 ADD MSTORE PUSH1 0x25 PUSH1 0x24 DUP3 ADD MSTORE PUSH32 0x53616665436173743A2076616C756520646F65736E27742066697420696E2038 PUSH1 0x44 DUP3 ADD MSTORE PUSH5 0x2062697473 PUSH1 0xD8 SHL PUSH1 0x64 DUP3 ADD MSTORE PUSH1 0x84 ADD PUSH2 0x471 JUMP JUMPDEST POP SWAP1 JUMP JUMPDEST DUP3 DUP1 SLOAD DUP3 DUP3 SSTORE SWAP1 PUSH0 MSTORE PUSH1 0x20 PUSH0 KECCAK256 SWAP1 DUP2 ADD SWAP3 DUP3 ISZERO PUSH2 0x1D83 JUMPI SWAP2 PUSH1 0x20 MUL DUP3 ADD JUMPDEST DUP3 DUP2 GT ISZERO PUSH2 0x1D83 JUMPI DUP2 SLOAD PUSH1 0x1 PUSH1 0x1 PUSH1 0xA0 SHL SUB NOT AND PUSH1 0x1 PUSH1 0x1 PUSH1 0xA0 SHL SUB DUP5 CALLDATALOAD AND OR DUP3 SSTORE PUSH1 0x20 SWAP1 SWAP3 ADD SWAP2 PUSH1 0x1 SWAP1 SWAP2 ADD SWAP1 PUSH2 0x1D50 JUMP JUMPDEST POP PUSH2 0x1D2E SWAP3 SWAP2 POP JUMPDEST DUP1 DUP3 GT ISZERO PUSH2 0x1D2E JUMPI PUSH0 DUP2 SSTORE PUSH1 0x1 ADD PUSH2 0x1D8B JUMP JUMPDEST PUSH0 PUSH0 DUP4 PUSH1 0x1F DUP5 ADD SLT PUSH2 0x1DAE JUMPI PUSH0 PUSH0 REVERT JUMPDEST POP DUP2 CALLDATALOAD PUSH1 0x1 PUSH1 0x1 PUSH1 0x40 SHL SUB DUP2 GT ISZERO PUSH2 0x1DC4 JUMPI PUSH0 PUSH0 REVERT JUMPDEST PUSH1 0x20 DUP4 ADD SWAP2 POP DUP4 PUSH1 0x20 DUP3 PUSH1 0x5 SHL DUP6 ADD ADD GT ISZERO PUSH2 0x1DDE JUMPI PUSH0 PUSH0 REVERT JUMPDEST SWAP3 POP SWAP3 SWAP1 POP JUMP JUMPDEST PUSH0 PUSH0 PUSH1 0x20 DUP4 DUP6 SUB SLT ISZERO PUSH2 0x1DF6 JUMPI PUSH0 PUSH0 REVERT JUMPDEST DUP3 CALLDATALOAD PUSH1 0x1 PUSH1 0x1 PUSH1 0x40 SHL SUB DUP2 GT ISZERO PUSH2 0x1E0B JUMPI PUSH0 PUSH0 REVERT JUMPDEST PUSH2 0x1E17 DUP6 DUP3 DUP7 ADD PUSH2 0x1D9E JUMP JUMPDEST SWAP1 SWAP7 SWAP1 SWAP6 POP SWAP4 POP POP POP POP JUMP JUMPDEST PUSH1 0x1 PUSH1 0x1 PUSH1 0xA0 SHL SUB DUP2 AND DUP2 EQ PUSH2 0x1561 JUMPI PUSH0 PUSH0 REVERT JUMPDEST PUSH0 PUSH0 DUP4 PUSH1 0x1F DUP5 ADD SLT PUSH2 0x1E47 JUMPI PUSH0 PUSH0 REVERT JUMPDEST POP DUP2 CALLDATALOAD PUSH1 0x1 PUSH1 0x1 PUSH1 0x40 SHL SUB DUP2 GT ISZERO PUSH2 0x1E5D JUMPI PUSH0 PUSH0 REVERT JUMPDEST PUSH1 0x20 DUP4 ADD SWAP2 POP DUP4 PUSH1 0x20 DUP3 DUP6 ADD ADD GT ISZERO PUSH2 0x1DDE JUMPI PUSH0 PUSH0 REVERT JUMPDEST PUSH0 PUSH0 PUSH0 PUSH1 0x40 DUP5 DUP7 SUB SLT ISZERO PUSH2 0x1E86 JUMPI PUSH0 PUSH0 REVERT JUMPDEST DUP4 CALLDATALOAD PUSH2 0x1E91 DUP2 PUSH2 0x1E23 JUMP JUMPDEST SWAP3 POP PUSH1 0x20 DUP5 ADD CALLDATALOAD PUSH1 0x1 PUSH1 0x1 PUSH1 0x40 SHL SUB DUP2 GT ISZERO PUSH2 0x1EAB JUMPI PUSH0 PUSH0 REVERT JUMPDEST PUSH2 0x1EB7 DUP7 DUP3 DUP8 ADD PUSH2 0x1E37 JUMP JUMPDEST SWAP5 SWAP8 SWAP1 SWAP7 POP SWAP4 SWAP5 POP POP POP POP JUMP JUMPDEST PUSH1 0x1 PUSH1 0x1 PUSH1 0xA0 SHL SUB SWAP2 SWAP1 SWAP2 AND DUP2 MSTORE PUSH1 0x20 ADD SWAP1 JUMP JUMPDEST PUSH1 0x20 DUP2 MSTORE PUSH0 DUP3 MLOAD DUP1 PUSH1 0x20 DUP5 ADD MSTORE DUP1 PUSH1 0x20 DUP6 ADD PUSH1 0x40 DUP6 ADD MCOPY PUSH0 PUSH1 0x40 DUP3 DUP6 ADD ADD MSTORE PUSH1 0x40 PUSH1 0x1F NOT PUSH1 0x1F DUP4 ADD AND DUP5 ADD ADD SWAP2 POP POP SWAP3 SWAP2 POP POP JUMP JUMPDEST PUSH1 0x20 DUP1 DUP3 MSTORE DUP3 MLOAD DUP3 DUP3 ADD DUP2 SWAP1 MSTORE PUSH0 SWAP2 DUP5 ADD SWAP1 PUSH1 0x40 DUP5 ADD SWAP1 DUP4 JUMPDEST DUP2 DUP2 LT ISZERO PUSH2 0x1F4D JUMPI DUP4 MLOAD PUSH1 0x1 PUSH1 0x1 PUSH1 0xA0 SHL SUB AND DUP4 MSTORE PUSH1 0x20 SWAP4 DUP5 ADD SWAP4 SWAP1 SWAP3 ADD SWAP2 PUSH1 0x1 ADD PUSH2 0x1F26 JUMP JUMPDEST POP SWAP1 SWAP6 SWAP5 POP POP POP POP POP JUMP JUMPDEST DUP1 CALLDATALOAD PUSH1 0x1 PUSH1 0x1 PUSH1 0xE0 SHL SUB NOT DUP2 AND DUP2 EQ PUSH2 0x1F6F JUMPI PUSH0 PUSH0 REVERT JUMPDEST SWAP2 SWAP1 POP JUMP JUMPDEST PUSH0 PUSH0 PUSH0 PUSH0 PUSH0 PUSH0 PUSH0 PUSH0 PUSH1 0xE0 DUP10 DUP12 SUB SLT ISZERO PUSH2 0x1F8B JUMPI PUSH0 PUSH0 REVERT JUMPDEST DUP9 CALLDATALOAD PUSH2 0x1F96 DUP2 PUSH2 0x1E23 JUMP JUMPDEST SWAP8 POP PUSH1 0x20 DUP10 ADD CALLDATALOAD SWAP7 POP PUSH1 0x40 DUP10 ADD CALLDATALOAD SWAP6 POP PUSH2 0x1FB2 PUSH1 0x60 DUP11 ADD PUSH2 0x1F58 JUMP JUMPDEST SWAP5 POP PUSH1 0x80 DUP10 ADD CALLDATALOAD SWAP4 POP PUSH1 0xA0 DUP10 ADD CALLDATALOAD SWAP3 POP PUSH1 0xC0 DUP10 ADD CALLDATALOAD PUSH1 0x1 PUSH1 0x1 PUSH1 0x40 SHL SUB DUP2 GT ISZERO PUSH2 0x1FDA JUMPI PUSH0 PUSH0 REVERT JUMPDEST PUSH2 0x1FE6 DUP12 DUP3 DUP13 ADD PUSH2 0x1E37 JUMP JUMPDEST SWAP10 SWAP13 SWAP9 SWAP12 POP SWAP7 SWAP10 POP SWAP5 SWAP8 SWAP4 SWAP7 SWAP3 SWAP6 SWAP5 POP POP POP JUMP JUMPDEST PUSH0 PUSH0 PUSH0 PUSH1 0x40 DUP5 DUP7 SUB SLT ISZERO PUSH2 0x200C JUMPI PUSH0 PUSH0 REVERT JUMPDEST DUP4 CALLDATALOAD PUSH1 0x1 PUSH1 0x1 PUSH1 0x40 SHL SUB DUP2 GT ISZERO PUSH2 0x2021 JUMPI PUSH0 PUSH0 REVERT JUMPDEST PUSH2 0x202D DUP7 DUP3 DUP8 ADD PUSH2 0x1D9E JUMP JUMPDEST SWAP1 SWAP5 POP SWAP3 POP POP PUSH1 0x20 DUP5 ADD CALLDATALOAD PUSH2 0x2041 DUP2 PUSH2 0x1E23 JUMP JUMPDEST DUP1 SWAP2 POP POP SWAP3 POP SWAP3 POP SWAP3 JUMP JUMPDEST PUSH0 PUSH0 PUSH0 PUSH0 PUSH0 PUSH0 PUSH0 PUSH0 PUSH0 PUSH2 0x100 DUP11 DUP13 SUB SLT ISZERO PUSH2 0x2065 JUMPI PUSH0 PUSH0 REVERT JUMPDEST DUP10 CALLDATALOAD PUSH2 0x2070 DUP2 PUSH2 0x1E23 JUMP JUMPDEST SWAP9 POP PUSH1 0x20 DUP11 ADD CALLDATALOAD SWAP8 POP PUSH1 0x40 DUP11 ADD CALLDATALOAD SWAP7 POP PUSH1 0x60 DUP11 ADD CALLDATALOAD PUSH2 0x208E DUP2 PUSH2 0x1E23 JUMP JUMPDEST SWAP6 POP PUSH2 0x209C PUSH1 0x80 DUP12 ADD PUSH2 0x1F58 JUMP JUMPDEST SWAP5 POP PUSH1 0xA0 DUP11 ADD CALLDATALOAD SWAP4 POP PUSH1 0xC0 DUP11 ADD CALLDATALOAD SWAP3 POP PUSH1 0xE0 DUP11 ADD CALLDATALOAD PUSH1 0x1 PUSH1 0x1 PUSH1 0x40 SHL SUB DUP2 GT ISZERO PUSH2 0x20C4 JUMPI PUSH0 PUSH0 REVERT JUMPDEST PUSH2 0x20D0 DUP13 DUP3 DUP14 ADD PUSH2 0x1E37 JUMP JUMPDEST SWAP2 POP DUP1 SWAP4 POP POP DUP1 SWAP2 POP POP SWAP3 SWAP6 SWAP9 POP SWAP3 SWAP6 SWAP9 POP SWAP3 SWAP6 SWAP9 JUMP JUMPDEST PUSH0 PUSH0 PUSH0 PUSH0 PUSH0 PUSH0 PUSH1 0xC0 DUP8 DUP10 SUB SLT ISZERO PUSH2 0x20FC JUMPI PUSH0 PUSH0 REVERT JUMPDEST DUP7 CALLDATALOAD SWAP6 POP PUSH1 0x20 DUP8 ADD CALLDATALOAD SWAP5 POP PUSH1 0x40 DUP8 ADD CALLDATALOAD PUSH2 0x2115 DUP2 PUSH2 0x1E23 JUMP JUMPDEST SWAP4 POP PUSH2 0x2123 PUSH1 0x60 DUP9 ADD PUSH2 0x1F58 JUMP JUMPDEST SWAP6 SWAP9 SWAP5 SWAP8 POP SWAP3 SWAP6 PUSH1 0x80 DUP2 ADD CALLDATALOAD SWAP5 PUSH1 0xA0 SWAP1 SWAP2 ADD CALLDATALOAD SWAP4 POP SWAP2 POP POP JUMP JUMPDEST PUSH0 PUSH0 PUSH0 PUSH0 PUSH1 0x40 DUP6 DUP8 SUB SLT ISZERO PUSH2 0x2150 JUMPI PUSH0 PUSH0 REVERT JUMPDEST DUP5 CALLDATALOAD PUSH1 0x1 PUSH1 0x1 PUSH1 0x40 SHL SUB DUP2 GT ISZERO PUSH2 0x2165 JUMPI PUSH0 PUSH0 REVERT JUMPDEST PUSH2 0x2171 DUP8 DUP3 DUP9 ADD PUSH2 0x1D9E JUMP JUMPDEST SWAP1 SWAP6 POP SWAP4 POP POP PUSH1 0x20 DUP6 ADD CALLDATALOAD PUSH1 0x1 PUSH1 0x1 PUSH1 0x40 SHL SUB DUP2 GT ISZERO PUSH2 0x218F JUMPI PUSH0 PUSH0 REVERT JUMPDEST PUSH2 0x219B DUP8 DUP3 DUP9 ADD PUSH2 0x1D9E JUMP JUMPDEST SWAP6 SWAP9 SWAP5 SWAP8 POP SWAP6 POP POP POP POP JUMP JUMPDEST PUSH0 PUSH0 PUSH0 PUSH0 PUSH0 PUSH0 PUSH0 PUSH1 0xC0 DUP9 DUP11 SUB SLT ISZERO PUSH2 0x21BD JUMPI PUSH0 PUSH0 REVERT JUMPDEST DUP8 CALLDATALOAD SWAP7 POP PUSH1 0x20 DUP9 ADD CALLDATALOAD SWAP6 POP PUSH1 0x40 DUP9 ADD CALLDATALOAD PUSH2 0x21D6 DUP2 PUSH2 0x1E23 JUMP JUMPDEST SWAP5 POP PUSH2 0x21E4 PUSH1 0x60 DUP10 ADD PUSH2 0x1F58 JUMP JUMPDEST SWAP4 POP PUSH1 0x80 DUP9 ADD CALLDATALOAD SWAP3 POP PUSH1 0xA0 DUP9 ADD CALLDATALOAD PUSH1 0x1 PUSH1 0x1 PUSH1 0x40 SHL SUB DUP2 GT ISZERO PUSH2 0x2205 JUMPI PUSH0 PUSH0 REVERT JUMPDEST PUSH2 0x2211 DUP11 DUP3 DUP12 ADD PUSH2 0x1E37 JUMP JUMPDEST SWAP9 SWAP12 SWAP8 SWAP11 POP SWAP6 SWAP9 POP SWAP4 SWAP7 SWAP3 SWAP6 SWAP3 SWAP4 POP POP POP JUMP JUMPDEST PUSH0 PUSH0 PUSH0 PUSH0 PUSH1 0x80 DUP6 DUP8 SUB SLT ISZERO PUSH2 0x2237 JUMPI PUSH0 PUSH0 REVERT JUMPDEST DUP5 CALLDATALOAD SWAP4 POP PUSH1 0x20 DUP6 ADD CALLDATALOAD SWAP3 POP PUSH2 0x224E PUSH1 0x40 DUP7 ADD PUSH2 0x1F58 JUMP JUMPDEST SWAP4 SWAP7 SWAP3 SWAP6 POP SWAP3 SWAP4 PUSH1 0x60 ADD CALLDATALOAD SWAP3 POP POP JUMP JUMPDEST PUSH0 PUSH0 PUSH0 PUSH0 PUSH1 0x60 DUP6 DUP8 SUB SLT ISZERO PUSH2 0x2271 JUMPI PUSH0 PUSH0 REVERT JUMPDEST DUP5 CALLDATALOAD PUSH2 0x227C DUP2 PUSH2 0x1E23 JUMP JUMPDEST SWAP4 POP PUSH1 0x20 DUP6 ADD CALLDATALOAD SWAP3 POP PUSH1 0x40 DUP6 ADD CALLDATALOAD PUSH1 0x1 PUSH1 0x1 PUSH1 0x40 SHL SUB DUP2 GT ISZERO PUSH2 0x229D JUMPI PUSH0 PUSH0 REVERT JUMPDEST PUSH2 0x219B DUP8 DUP3 DUP9 ADD PUSH2 0x1E37 JUMP JUMPDEST PUSH4 0x4E487B71 PUSH1 0xE0 SHL PUSH0 MSTORE PUSH1 0x41 PUSH1 0x4 MSTORE PUSH1 0x24 PUSH0 REVERT JUMPDEST PUSH0 PUSH0 PUSH0 PUSH1 0x60 DUP5 DUP7 SUB SLT ISZERO PUSH2 0x22CF JUMPI PUSH0 PUSH0 REVERT JUMPDEST DUP4 CALLDATALOAD PUSH2 0x22DA DUP2 PUSH2 0x1E23 JUMP JUMPDEST SWAP3 POP PUSH1 0x20 DUP5 ADD CALLDATALOAD SWAP2 POP PUSH1 0x40 DUP5 ADD CALLDATALOAD PUSH1 0x1 PUSH1 0x1 PUSH1 0x40 SHL SUB DUP2 GT ISZERO PUSH2 0x22FB JUMPI PUSH0 PUSH0 REVERT JUMPDEST DUP5 ADD PUSH1 0x1F DUP2 ADD DUP7 SGT PUSH2 0x230B JUMPI PUSH0 PUSH0 REVERT JUMPDEST DUP1 CALLDATALOAD PUSH1 0x1 PUSH1 0x1 PUSH1 0x40 SHL SUB DUP2 GT ISZERO PUSH2 0x2324 JUMPI PUSH2 0x2324 PUSH2 0x22A9 JUMP JUMPDEST PUSH1 0x40 MLOAD PUSH1 0x1F DUP3 ADD PUSH1 0x1F NOT SWAP1 DUP2 AND PUSH1 0x3F ADD AND DUP2 ADD PUSH1 0x1 PUSH1 0x1 PUSH1 0x40 SHL SUB DUP2 GT DUP3 DUP3 LT OR ISZERO PUSH2 0x2352 JUMPI PUSH2 0x2352 PUSH2 0x22A9 JUMP JUMPDEST PUSH1 0x40 MSTORE DUP2 DUP2 MSTORE DUP3 DUP3 ADD PUSH1 0x20 ADD DUP9 LT ISZERO PUSH2 0x2369 JUMPI PUSH0 PUSH0 REVERT JUMPDEST DUP2 PUSH1 0x20 DUP5 ADD PUSH1 0x20 DUP4 ADD CALLDATACOPY PUSH0 PUSH1 0x20 DUP4 DUP4 ADD ADD MSTORE DUP1 SWAP4 POP POP POP POP SWAP3 POP SWAP3 POP SWAP3 JUMP JUMPDEST PUSH0 PUSH1 0x20 DUP3 DUP5 SUB SLT ISZERO PUSH2 0x2398 JUMPI PUSH0 PUSH0 REVERT JUMPDEST DUP2 CALLDATALOAD PUSH2 0x23A3 DUP2 PUSH2 0x1E23 JUMP JUMPDEST SWAP4 SWAP3 POP POP POP JUMP JUMPDEST PUSH0 PUSH0 PUSH1 0x40 DUP4 DUP6 SUB SLT ISZERO PUSH2 0x23BB JUMPI PUSH0 PUSH0 REVERT JUMPDEST DUP3 CALLDATALOAD PUSH2 0x23C6 DUP2 PUSH2 0x1E23 JUMP JUMPDEST SWAP5 PUSH1 0x20 SWAP4 SWAP1 SWAP4 ADD CALLDATALOAD SWAP4 POP POP POP JUMP JUMPDEST PUSH1 0x20 DUP1 DUP3 MSTORE PUSH1 0x1D SWAP1 DUP3 ADD MSTORE PUSH32 0x43616E6E6F742073657420617574686F72697A65642073656E64657273000000 PUSH1 0x40 DUP3 ADD MSTORE PUSH1 0x60 ADD SWAP1 JUMP JUMPDEST PUSH4 0x4E487B71 PUSH1 0xE0 SHL PUSH0 MSTORE PUSH1 0x32 PUSH1 0x4 MSTORE PUSH1 0x24 PUSH0 REVERT JUMPDEST PUSH1 0x20 DUP1 DUP3 MSTORE PUSH1 0x13 SWAP1 DUP3 ADD MSTORE PUSH19 0x43616E6E6F742063616C6C20746F204C494E4B PUSH1 0x68 SHL PUSH1 0x40 DUP3 ADD MSTORE PUSH1 0x60 ADD SWAP1 JUMP JUMPDEST DUP2 DUP4 DUP3 CALLDATACOPY PUSH0 SWAP2 ADD SWAP1 DUP2 MSTORE SWAP2 SWAP1 POP JUMP JUMPDEST PUSH1 0x20 DUP1 DUP3 MSTORE PUSH1 0x13 SWAP1 DUP3 ADD MSTORE PUSH19 0x26BAB9BA103AB9B2902624A725903A37B5B2B7 PUSH1 0x69 SHL PUSH1 0x40 DUP3 ADD MSTORE PUSH1 0x60 ADD SWAP1 JUMP JUMPDEST DUP2 DUP4 MSTORE DUP2 DUP2 PUSH1 0x20 DUP6 ADD CALLDATACOPY POP PUSH0 DUP3 DUP3 ADD PUSH1 0x20 SWAP1 DUP2 ADD SWAP2 SWAP1 SWAP2 MSTORE PUSH1 0x1F SWAP1 SWAP2 ADD PUSH1 0x1F NOT AND SWAP1 SWAP2 ADD ADD SWAP1 JUMP JUMPDEST PUSH1 0x1 PUSH1 0x1 PUSH1 0xA0 SHL SUB DUP11 DUP2 AND DUP3 MSTORE PUSH1 0x20 DUP3 ADD DUP11 SWAP1 MSTORE PUSH1 0x40 DUP3 ADD DUP10 SWAP1 MSTORE DUP8 AND PUSH1 0x60 DUP3 ADD MSTORE PUSH1 0x1 PUSH1 0x1 PUSH1 0xE0 SHL SUB NOT DUP7 AND PUSH1 0x80 DUP3 ADD MSTORE PUSH1 0xA0 DUP2 ADD DUP6 SWAP1 MSTORE PUSH1 0xC0 DUP2 ADD DUP5 SWAP1 MSTORE PUSH2 0x100 PUSH1 0xE0 DUP3 ADD DUP2 SWAP1 MSTORE PUSH0 SWAP1 PUSH2 0x2509 SWAP1 DUP4 ADD DUP5 DUP7 PUSH2 0x2488 JUMP JUMPDEST SWAP12 SWAP11 POP POP POP POP POP POP POP POP POP POP POP JUMP JUMPDEST PUSH1 0x20 DUP1 DUP3 MSTORE PUSH1 0x1B SWAP1 DUP3 ADD MSTORE PUSH27 0x135D5CDD081A185D994818481D985B1A59081C995C5D595CDD1259 PUSH1 0x2A SHL PUSH1 0x40 DUP3 ADD MSTORE PUSH1 0x60 ADD SWAP1 JUMP JUMPDEST PUSH1 0x20 DUP1 DUP3 MSTORE PUSH1 0x1A SWAP1 DUP3 ADD MSTORE PUSH26 0x10D85B9B9BDD0818D85B1B081BDDDB99590818DBDB9D1C9858DD PUSH1 0x32 SHL PUSH1 0x40 DUP3 ADD MSTORE PUSH1 0x60 ADD SWAP1 JUMP JUMPDEST PUSH1 0x20 DUP1 DUP3 MSTORE DUP2 DUP2 ADD MSTORE PUSH32 0x4D7573742070726F7669646520636F6E73756D657220656E6F75676820676173 PUSH1 0x40 DUP3 ADD MSTORE PUSH1 0x60 ADD SWAP1 JUMP JUMPDEST PUSH0 DUP3 MLOAD DUP1 PUSH1 0x20 DUP6 ADD DUP5 MCOPY PUSH0 SWAP3 ADD SWAP2 DUP3 MSTORE POP SWAP2 SWAP1 POP JUMP JUMPDEST PUSH1 0x1 PUSH1 0x1 PUSH1 0xE0 SHL SUB NOT DUP5 AND DUP2 MSTORE DUP2 DUP4 PUSH1 0x4 DUP4 ADD CALLDATACOPY PUSH0 SWAP2 ADD PUSH1 0x4 ADD SWAP1 DUP2 MSTORE SWAP3 SWAP2 POP POP JUMP JUMPDEST PUSH4 0x4E487B71 PUSH1 0xE0 SHL PUSH0 MSTORE PUSH1 0x11 PUSH1 0x4 MSTORE PUSH1 0x24 PUSH0 REVERT JUMPDEST DUP2 DUP2 SUB DUP2 DUP2 GT ISZERO PUSH2 0x2616 JUMPI PUSH2 0x2616 PUSH2 0x25EF JUMP JUMPDEST SWAP3 SWAP2 POP POP JUMP JUMPDEST PUSH1 0x20 DUP1 DUP3 MSTORE PUSH1 0x1E SWAP1 DUP3 ADD MSTORE PUSH32 0x506172616D7320646F206E6F74206D6174636820726571756573742049440000 PUSH1 0x40 DUP3 ADD MSTORE PUSH1 0x60 ADD SWAP1 JUMP JUMPDEST PUSH1 0x1 PUSH1 0x1 PUSH1 0xA0 SHL SUB SWAP3 SWAP1 SWAP3 AND DUP3 MSTORE PUSH1 0x20 DUP3 ADD MSTORE PUSH1 0x40 ADD SWAP1 JUMP JUMPDEST PUSH0 PUSH1 0x20 DUP3 DUP5 SUB SLT ISZERO PUSH2 0x267C JUMPI PUSH0 PUSH0 REVERT JUMPDEST DUP2 MLOAD DUP1 ISZERO ISZERO DUP2 EQ PUSH2 0x23A3 JUMPI PUSH0 PUSH0 REVERT JUMPDEST PUSH1 0x20 DUP1 DUP3 MSTORE PUSH1 0x35 SWAP1 DUP3 ADD MSTORE PUSH32 0x416D6F756E74207265717565737465642069732067726561746572207468616E PUSH1 0x40 DUP3 ADD MSTORE PUSH21 0x20776974686472617761626C652062616C616E6365 PUSH1 0x58 SHL PUSH1 0x60 DUP3 ADD MSTORE PUSH1 0x80 ADD SWAP1 JUMP JUMPDEST PUSH1 0x1 DUP1 PUSH1 0xA0 SHL SUB DUP6 AND DUP2 MSTORE DUP4 PUSH1 0x20 DUP3 ADD MSTORE PUSH1 0x60 PUSH1 0x40 DUP3 ADD MSTORE PUSH0 PUSH2 0x1209 PUSH1 0x60 DUP4 ADD DUP5 DUP7 PUSH2 0x2488 JUMP JUMPDEST PUSH1 0x60 SWAP3 SWAP1 SWAP3 SHL PUSH1 0x1 PUSH1 0x1 PUSH1 0x60 SHL SUB NOT AND DUP3 MSTORE PUSH1 0x14 DUP3 ADD MSTORE PUSH1 0x34 ADD SWAP1 JUMP JUMPDEST DUP2 DUP4 MSTORE PUSH1 0x20 DUP4 ADD SWAP3 POP PUSH0 DUP2 PUSH0 JUMPDEST DUP5 DUP2 LT ISZERO PUSH2 0x2762 JUMPI DUP2 CALLDATALOAD PUSH2 0x2744 DUP2 PUSH2 0x1E23 JUMP JUMPDEST PUSH1 0x1 PUSH1 0x1 PUSH1 0xA0 SHL SUB AND DUP7 MSTORE PUSH1 0x20 SWAP6 DUP7 ADD SWAP6 SWAP2 SWAP1 SWAP2 ADD SWAP1 PUSH1 0x1 ADD PUSH2 0x2731 JUMP JUMPDEST POP SWAP4 SWAP5 SWAP4 POP POP POP POP JUMP JUMPDEST PUSH1 0x40 DUP2 MSTORE PUSH0 PUSH2 0x277F PUSH1 0x40 DUP4 ADD DUP6 DUP8 PUSH2 0x2724 JUMP JUMPDEST SWAP1 POP PUSH1 0x1 DUP1 PUSH1 0xA0 SHL SUB DUP4 AND PUSH1 0x20 DUP4 ADD MSTORE SWAP5 SWAP4 POP POP POP POP JUMP JUMPDEST PUSH4 0x4E487B71 PUSH1 0xE0 SHL PUSH0 MSTORE PUSH1 0x1 PUSH1 0x4 MSTORE PUSH1 0x24 PUSH0 REVERT JUMPDEST PUSH1 0x60 DUP2 MSTORE PUSH0 PUSH2 0x27BE PUSH1 0x60 DUP4 ADD DUP8 DUP10 PUSH2 0x2724 JUMP JUMPDEST DUP3 DUP2 SUB PUSH1 0x20 DUP5 ADD MSTORE PUSH2 0x27D1 DUP2 DUP7 DUP9 PUSH2 0x2724 JUMP JUMPDEST SWAP2 POP POP PUSH1 0x1 DUP1 PUSH1 0xA0 SHL SUB DUP4 AND PUSH1 0x40 DUP4 ADD MSTORE SWAP7 SWAP6 POP POP POP POP POP POP JUMP JUMPDEST PUSH1 0x20 DUP2 MSTORE PUSH0 PUSH2 0x27FF PUSH1 0x20 DUP4 ADD DUP5 DUP7 PUSH2 0x2724 JUMP JUMPDEST SWAP5 SWAP4 POP POP POP POP JUMP JUMPDEST DUP1 DUP3 ADD DUP1 DUP3 GT ISZERO PUSH2 0x2616 JUMPI PUSH2 0x2616 PUSH2 0x25EF JUMP JUMPDEST PUSH0 PUSH1 0x20 DUP3 DUP5 SUB SLT ISZERO PUSH2 0x282A JUMPI PUSH0 PUSH0 REVERT JUMPDEST POP MLOAD SWAP2 SWAP1 POP JUMP JUMPDEST DUP1 DUP3 MUL DUP2 ISZERO DUP3 DUP3 DIV DUP5 EQ OR PUSH2 0x2616 JUMPI PUSH2 0x2616 PUSH2 0x25EF JUMP INVALID SWAP15 SWAP12 0xC7 PUSH2 0x6D42 0xC2 DUP4 TSTORE SDIV 0xAE PUSH2 0x7E50 DUP5 SLOAD DUPN 0x3B ADDRESS 0xB9 CALLVALUE 0xBE DUP11 0xA9 ORIGIN 0xEB 0xC1 0x25 RJUMP 0xE58A PUSH5 0xD8D7ECC480 0xD 0x25 STATICCALL MSTORE8 0xCE SUB PUSH19 0xF13A416D98907A7EF3D8D3BDD79CF4FE75529C PUSH6 0xA26469706673 PC 0x22 SLT KECCAK256 STOP STATICCALL 0xA6 DUP6 PUSH21 0x5185D45553E8772E605E1A519B9153D02C4720BCF4 CODESIZE KECCAK256 POP SELFDESTRUCT SWAP7 SELFBALANCE PUSH5 0x736F6C6343 STOP ADDMOD SAR STOP CALLER LOG2 PUSH5 0x6970667358 0x22 SLT KECCAK256 SWAP13 0x26 PUSH6 0xBAF3D4BE08B8 NUMBER RJUMP 0x5D0E SUB SWAP8 0xD3 DUP3 0xCC CALLDATALOAD DUP9 0xB2 ORIGIN 0xED SHR DUP6 LOG2 BALANCE PUSH30 0x1A9C266064736F6C634300081D0033000000000000000000000000000000 "
		},
		"gasEstimates": {
			"creation": {
				"codeDepositCost": "2341400",
				"executionCost": "2506",
				"totalCost": "2343906"
			},
			"external": {
				"deployAPI()": "infinite",
				"operator()": "2359"
			}
		},
		"methodIdentifiers": {
			"deployAPI()": "51d3c99b",
			"operator()": "570ca735"
		}
	},
	"abi": [
		{
			"anonymous": false,
			"inputs": [
				{
					"indexed": false,
					"internalType": "address",
					"name": "",
					"type": "address"
				}
			],
			"name": "Data",
			"type": "event"
		},
		{
			"anonymous": false,
			"inputs": [
				{
					"indexed": false,
					"internalType": "string",
					"name": "",
					"type": "string"
				}
			],
			"name": "Test",
			"type": "event"
		},
		{
			"inputs": [],
			"name": "deployAPI",
			"outputs": [],
			"stateMutability": "nonpayable",
			"type": "function"
		},
		{
			"inputs": [],
			"name": "operator",
			"outputs": [
				{
					"internalType": "contract Operator",
					"name": "",
					"type": "address"
				}
			],
			"stateMutability": "view",
			"type": "function"
		}
	]
}