{
	"data": {
		"bytecode": {
			"linkReferences": {},
			"object": "6080604052348015600e575f5ffd5b506155618061001c5f395ff3fe60806040526004361061011c575f3560e01c8062dcbc18146101275780630c949043146101485780631db6cec714610184578063242ab021146101a35780632e3803c6146101c15780633bb060db146101d45780633f36cdea146101e8578063486fb1611461020b5780634ec508f91461022a5780635699fadc1461025e5780635d16ad151461027157806367e0badb14610295578063775c300c146102a9578063840e78fd146102bd578063961b461e146102f3578063a4635a1a14610307578063a935e7661461031a578063aaf38e8b1461033b578063ac1eff681461035c578063b43a57a91461038a578063b9c6d8b11461039e578063d29709fb146103b2578063ddfc5cfe146103c5578063e0155714146103f4575f5ffd5b3661012357005b5f5ffd5b348015610132575f5ffd5b50610146610141366004612336565b610420565b005b348015610153575f5ffd5b50600154610167906001600160a01b031681565b6040516001600160a01b0390911681526020015b60405180910390f35b34801561018f575f5ffd5b5061014661019e366004612391565b6109a4565b3480156101ae575f5ffd5b505f54610167906001600160a01b031681565b6101466101cf366004612391565b610a42565b3480156101df575f5ffd5b50610146610aef565b3480156101f3575f5ffd5b506101fd60045481565b60405190815260200161017b565b348015610216575f5ffd5b50610146610225366004612391565b610d04565b348015610235575f5ffd5b506102496102443660046123be565b610fa4565b6040805192835260208301919091520161017b565b61014661026c3660046123e3565b6110a2565b34801561027c575f5ffd5b5061028561168f565b604051901515815260200161017b565b3480156102a0575f5ffd5b5061014661170d565b3480156102b4575f5ffd5b5061014661177c565b3480156102c8575f5ffd5b506102dc6102d7366004612391565b611831565b60405161017b9b9a9998979695949392919061245e565b3480156102fe575f5ffd5b50610146611aab565b610146610315366004612687565b611b16565b348015610325575f5ffd5b5061032e611d7c565b60405161017b9190612827565b348015610346575f5ffd5b5061034f611e9f565b60405161017b91906128b6565b348015610367575f5ffd5b5061037b6103763660046123be565b611f2b565b60405161017b939291906128c8565b348015610395575f5ffd5b5061034f611ff4565b3480156103a9575f5ffd5b50610146612001565b6101466103c03660046128fc565b612095565b3480156103d0575f5ffd5b506103e46103df366004612391565b6120ed565b60405161017b9493929190612926565b3480156103ff575f5ffd5b5061041361040e3660046123be565b6121a5565b60405161017b919061295c565b604080516060810182526001600160a01b03808616825284151560208301908152928201848152600680546001810182555f91909152835160029091025f5160206154ec5f395f51905f528101805496511515600160a01b026001600160a81b0319909716929094169190911794909417825551919283925f51602061548c5f395f51905f52909101906104b49082612a05565b5050604080516060810182525f5160206154ac5f395f51905f5281525f60208083018281528451808601865260088152676e756d626572203160c01b92810192909252938301908152600680546001810182559252825160029092025f5160206154ec5f395f51905f528101805495511515600160a01b026001600160a81b03199096166001600160a01b03949094169390931794909417825551919350839290915f51602061548c5f395f51905f52909101906105729082612a05565b5050604080516060810182525f5160206154ac5f395f51905f52815260016020808301828152845180860186526008815267373ab6b132b9101960c11b928101929092529383019081526006805492830181555f52825160029092025f5160206154ec5f395f51905f528101805495511515600160a01b026001600160a81b03199096166001600160a01b03949094169390931794909417825551919350839290915f51602061548c5f395f51905f52909101906106309082612a05565b5050604080516060810182525f5160206154ac5f395f51905f528152600160208083018281528451808601865260088152676e756d626572203360c01b928101929092529383019081526006805492830181555f52825160029092025f5160206154ec5f395f51905f528101805495511515600160a01b026001600160a81b03199096166001600160a01b03949094169390931794909417825551919350839290915f51602061548c5f395f51905f52909101906106ee9082612a05565b5050604080516060810182525f5160206154ac5f395f51905f5281525f60208083018281528451808601865260088152671b9d5b58995c880d60c21b92810192909252938301908152600680546001810182559252825160029092025f5160206154ec5f395f51905f528101805495511515600160a01b026001600160a81b03199096166001600160a01b03949094169390931794909417825551919350839290915f51602061548c5f395f51905f52909101906107ac9082612a05565b5050604080516060810182525f5160206154ac5f395f51905f528152600160208083018281528451808601865260088152676e756d626572203560c01b928101929092529383019081526006805492830181555f52825160029092025f5160206154ec5f395f51905f528101805495511515600160a01b026001600160a81b03199096166001600160a01b03949094169390931794909417825551919350839290915f51602061548c5f395f51905f529091019061086a9082612a05565b5050604080516060810182525f5160206154ac5f395f51905f52815260016020808301828152845180860186526008815267373ab6b132b9101b60c11b928101929092529383019081526006805492830181555f52825160029092025f5160206154ec5f395f51905f528101805495511515600160a01b026001600160a81b03199096166001600160a01b03949094169390931794909417825551919350839290915f51602061548c5f395f51905f52909101906109289082612a05565b505060015460408051630da9f75560e41b815290516001600160a01b03909216925063da9f755091600480830192602092919082900301815f875af1158015610973573d5f5f3e3d5ffd5b505050506040513d601f19601f820116820180604052508101906109979190612aba565b5050505050505050505050565b6005805460ff191660011790555f5460408051630ab643c160e41b81526001600160a01b0384811660048301526024820192909252602060448201527f3935656466633265653237323465316462366462306565636637346432363639606482015291169063ab643c10906084015f604051808303815f87803b158015610a29575f5ffd5b505af1158015610a3b573d5f5f3e3d5ffd5b5050505050565b6001600160a01b0381165f908152600860205260408120600201549003610a99576001600160a01b0381165f908152600860205260408120600201805460019290610a8e908490612ae5565b90915550610aec9050565b6001600160a01b0381165f90815260086020526040902060020154600a03610aec576001600160a01b0381165f908152600860205260408120600201805460019290610ae6908490612af8565b90915550505b50565b5f546001600160a01b0316610b465760405162461bcd60e51b81526020600482015260196024820152784465706c6f7920415049436f6e73756d65722066697273742160381b604482015260640160405180910390fd5b600154604051631edd5ff960e31b81525f60048201526001600160a01b039091169063f6eaffc890602401602060405180830381865afa158015610b8c573d5f5f3e3d5ffd5b505050506040513d601f19601f82011682018060405250810190610bb09190612aba565b50335f9081526007602090815260408083208381556001810180546001600160a01b0319165f5160206154ac5f395f51905f5217905581519283019091529181526002820190610c009082612a05565b50600160038201556206978060048201556040805180820190915260088152673637b1b0ba34b7b760c11b60208201526005820190610c3f9082612a05565b50612223600682015560408051602081019091525f81526007820190610c659082612a05565b5060408051602081019091525f81526008820190610c839082612a05565b50610c8d33610d04565b600a8101805461ffff1916610101179055604051673637b1b0ba34b7b760c11b6020820152633837333960e01b60288201526a6d6574686f646f6c6f677960a81b602c820152637472756560e01b6037820152603b0160405160208183030381529060405260029081610d009190612a05565b5050565b6001600160a01b0381165f90815260076020526040902060068054600454600990930192610d329190612b1f565b81548110610d4257610d42612b32565b5f918252602080832084546001818101875595855291909320600292830290930180549190920290920180546001600160a01b031981166001600160a01b039094169384178255825460ff600160a01b91829004161515026001600160a81b03199091169093179290921782559181810190610dc090840182612b46565b5050506001600160a01b0381165f90815260076020526040902060068054600454600990930192610df390600290612c06565b610dfd9190612b1f565b81548110610e0d57610e0d612b32565b5f918252602080832084546001818101875595855291909320600292830290930180549190920290920180546001600160a01b031981166001600160a01b039094169384178255825460ff600160a01b91829004161515026001600160a81b03199091169093179290921782559181810190610e8b90840182612b46565b5050506001600160a01b0381165f90815260076020526040902060068054600454600990930192610ebd906002612c19565b610ec79190612b1f565b81548110610ed757610ed7612b32565b5f918252602080832084546001818101875595855291909320600292830290930180549190920290920180546001600160a01b031981166001600160a01b039094169384178255825460ff600160a01b91829004161515026001600160a81b03199091169093179290921782559181810190610f5590840182612b46565b5050335f908152600760205260409081902090517ffa063c0d91d11cd07031f9e7d11fba9abc774f3abba76b10cadb78aa5f19e9669250610f999160090190612c30565b60405180910390a150565b5f8080610fb2846005612c19565b610fbe906103e8612c06565b90505f610fcd826103e8612af8565b90505f5160206154cc5f395f51905f52610fe9836107d0612ae5565b60405161103e919060408082526025908201527f5468652070726f706f6e656e742068617320746f20706179206120746f74616c60608201526401037b31d160dd1b6080820152602081019190915260a00190565b60405180910390a160408051818152601c818301527b2b32b93930903430b9903a37903830bc9030903a37ba30b61037b31d60211b60608201526020810183905290515f5160206154cc5f395f51905f529181900360800190a19094909350915050565b335f908152600760205260409020600a01805482919060ff191660018360048111156110d0576110d061242a565b021790555060038160048111156110e9576110e961242a565b1480611106575060048160048111156111045761110461242a565b145b15610aec57610bb8471061164c5761111c61168f565b15156001036115f057335f908152600760209081526040918290208251610180810184528154815260018201546001600160a01b031692810192909252600281018054610aec948401919061117090612970565b80601f016020809104026020016040519081016040528092919081815260200182805461119c90612970565b80156111e75780601f106111be576101008083540402835291602001916111e7565b820191905f5260205f20905b8154815290600101906020018083116111ca57829003601f168201915b50505050508152602001600382015481526020016004820154815260200160058201805461121490612970565b80601f016020809104026020016040519081016040528092919081815260200182805461124090612970565b801561128b5780601f106112625761010080835404028352916020019161128b565b820191905f5260205f20905b81548152906001019060200180831161126e57829003601f168201915b50505050508152602001600682015481526020016007820180546112ae90612970565b80601f01602080910402602001604051908101604052809291908181526020018280546112da90612970565b80156113255780601f106112fc57610100808354040283529160200191611325565b820191905f5260205f20905b81548152906001019060200180831161130857829003601f168201915b5050505050815260200160088201805461133e90612970565b80601f016020809104026020016040519081016040528092919081815260200182805461136a90612970565b80156113b55780601f1061138c576101008083540402835291602001916113b5565b820191905f5260205f20905b81548152906001019060200180831161139857829003601f168201915b5050505050815260200160098201805480602002602001604051908101604052809291908181526020015f905b828210156114cb575f848152602090819020604080516060810182526002860290920180546001600160a01b0381168452600160a01b900460ff161515938301939093526001830180549293929184019161143c90612970565b80601f016020809104026020016040519081016040528092919081815260200182805461146890612970565b80156114b35780601f1061148a576101008083540402835291602001916114b3565b820191905f5260205f20905b81548152906001019060200180831161149657829003601f168201915b505050505081525050815260200190600101906113e2565b50505090825250600a82015460209091019060ff1660048111156114f1576114f161242a565b60048111156115025761150261242a565b8152600a9190910154610100900460ff161515602091820152335f9081526008825260409081902081516080810190925280546001600160a01b03168252600181018054929391929184019161155790612970565b80601f016020809104026020016040519081016040528092919081815260200182805461158390612970565b80156115ce5780601f106115a5576101008083540402835291602001916115ce565b820191905f5260205f20905b8154815290600101906020018083116115b157829003601f168201915b5050505050815260200160028201548152602001600382015481525050611b16565b5f51602061550c5f395f51905f52604051610f999060208082526027908201527f4469646e277420706173732076616c69646174696f6e20616e6420766572696660408201526634b1b0ba34b7b760c91b606082015260800190565b5f51602061550c5f395f51905f52604051610f9990602080825260149082015273139bdd08115b9bdd59da0811195c1bdcda5d195960621b604082015260600190565b5f80805b60038110156116f457335f9081526007602052604090206009018054829081106116bf576116bf612b32565b5f918252602090912060029091020154600160a01b900460ff16156116ec576116e9600183612ae5565b91505b600101611693565b50600181111561170657600191505090565b5f91505090565b600154604051631edd5ff960e31b81525f60048201526001600160a01b039091169063f6eaffc890602401602060405180830381865afa158015611753573d5f5f3e3d5ffd5b505050506040513d601f19601f820116820180604052508101906117779190612aba565b600455565b604051611788906121f2565b604051809103905ff0801580156117a1573d5f5f3e3d5ffd5b505f80546001600160a01b0319166001600160a01b03929092169190911790556040517fa875277a12e63893e1833186ce951b68d5efdc34e7de005cf0d484d352e33d4a906117ef906121ff565b908152602001604051809103905ff08015801561180e573d5f5f3e3d5ffd5b50600180546001600160a01b0319166001600160a01b0392909216919091179055565b60076020525f908152604090208054600182015460028301805492936001600160a01b039092169261186290612970565b80601f016020809104026020016040519081016040528092919081815260200182805461188e90612970565b80156118d95780601f106118b0576101008083540402835291602001916118d9565b820191905f5260205f20905b8154815290600101906020018083116118bc57829003601f168201915b5050505050908060030154908060040154908060050180546118fa90612970565b80601f016020809104026020016040519081016040528092919081815260200182805461192690612970565b80156119715780601f1061194857610100808354040283529160200191611971565b820191905f5260205f20905b81548152906001019060200180831161195457829003601f168201915b50505050509080600601549080600701805461198c90612970565b80601f01602080910402602001604051908101604052809291908181526020018280546119b890612970565b8015611a035780601f106119da57610100808354040283529160200191611a03565b820191905f5260205f20905b8154815290600101906020018083116119e657829003601f168201915b505050505090806008018054611a1890612970565b80601f0160208091040260200160405190810160405280929190818152602001828054611a4490612970565b8015611a8f5780601f10611a6657610100808354040283529160200191611a8f565b820191905f5260205f20905b815481529060010190602001808311611a7257829003601f168201915b505050600a909301549192505060ff808216916101009004168b565b335f908152600860209081526040918290208251808401909352600383526253616d60e81b91830191909152906001820190611ae79082612a05565b5080546001600160a01b0319165f5160206154ac5f395f51905f52178155600760028201556001600390910155565b5f5f611b258360400151610fa4565b91509150611b31612001565b60038461014001516004811115611b4a57611b4a61242a565b03611bb95760408051818152600d818301526c1a5b9d1bc8185c1c1c9bdd9959609a1b60608201526001602082015290515f5160206154cc5f395f51905f529181900360800190a18251611b9e9083612095565b600183604001818151611bb19190612ae5565b905250611bee565b60048461014001516004811115611bd257611bd261242a565b03611bee57600183604001818151611bea9190612af8565b9052505b6002604051602001611c009190612d5c565b604051602081830303815290604052805190602001206003604051602001611c289190612d5c565b6040516020818303038152906040528051906020012003611cb857611c828461012001515f81518110611c5d57611c5d612b32565b60200260200101515f01516003836107d0611c789190612ae5565b6103c09190612c06565b611c9d846101200151600181518110611c5d57611c5d612b32565b611cb8846101200151600281518110611c5d57611c5d612b32565b8251611cc390610a42565b611ce1735b38da6a701c568545dcfcb03fcb875f56beddc447612095565b5f5160206154cc5f395f51905f528360600151604051611d26919060408082526008908201526772657053636f726560c01b6060820152602081019190915260800190565b60405180910390a160408051818152601281830152716d73672e73656e6465722042616c616e636560701b60608201523331602082015290515f5160206154cc5f395f51905f529181900360800190a150505050565b335f908152600760209081526040808320600901805482518185028101850190935280835260609492939192909184015b82821015611e96575f848152602090819020604080516060810182526002860290920180546001600160a01b0381168452600160a01b900460ff1615159383019390935260018301805492939291840191611e0790612970565b80601f0160208091040260200160405190810160405280929190818152602001828054611e3390612970565b8015611e7e5780601f10611e5557610100808354040283529160200191611e7e565b820191905f5260205f20905b815481529060010190602001808311611e6157829003601f168201915b50505050508152505081526020019060010190611dad565b50505050905090565b60038054611eac90612970565b80601f0160208091040260200160405190810160405280929190818152602001828054611ed890612970565b8015611f235780601f10611efa57610100808354040283529160200191611f23565b820191905f5260205f20905b815481529060010190602001808311611f0657829003601f168201915b505050505081565b60068181548110611f3a575f80fd5b5f918252602090912060029091020180546001820180546001600160a01b0383169450600160a01b90920460ff169291611f7390612970565b80601f0160208091040260200160405190810160405280929190818152602001828054611f9f90612970565b8015611fea5780601f10611fc157610100808354040283529160200191611fea565b820191905f5260205f20905b815481529060010190602001808311611fcd57829003601f168201915b5050505050905083565b60028054611eac90612970565b60055460ff161515600103612088575f805460408051635c37ac7f60e11b815290516001600160a01b039092169263b86f58fe926004808401938290030181865afa158015612052573d5f5f3e3d5ffd5b505050506040513d5f823e601f3d908101601f191682016040526120799190810190612dcd565b6002906120869082612a05565b505b6003610aec600282612b46565b5f5f836001600160a01b0316836040515f6040518083038185875af1925050503d805f81146120df576040519150601f19603f3d011682016040523d82523d5f602084013e6120e4565b606091505b50505050505050565b60086020525f9081526040902080546001820180546001600160a01b03909216929161211890612970565b80601f016020809104026020016040519081016040528092919081815260200182805461214490612970565b801561218f5780601f106121665761010080835404028352916020019161218f565b820191905f5260205f20905b81548152906001019060200180831161217257829003601f168201915b5050505050908060020154908060030154905084565b5f816004036121b657506003919050565b816003036121c657506004919050565b816002036121d657506002919050565b816001036121e657506001919050565b505f919050565b919050565b611b9b80612e4283390190565b610aaf806149dd83390190565b6001600160a01b0381168114610aec575f5ffd5b803580151581146121ed575f5ffd5b634e487b7160e01b5f52604160045260245ffd5b604051606081016001600160401b03811182821017156122655761226561222f565b60405290565b60405161018081016001600160401b03811182821017156122655761226561222f565b604051601f8201601f191681016001600160401b03811182821017156122b6576122b661222f565b604052919050565b5f6001600160401b038211156122d6576122d661222f565b50601f01601f191660200190565b5f82601f8301126122f3575f5ffd5b8135612306612301826122be565b61228e565b81815284602083860101111561231a575f5ffd5b816020850160208301375f918101602001919091529392505050565b5f5f5f60608486031215612348575f5ffd5b83356123538161220c565b925061236160208501612220565b915060408401356001600160401b0381111561237b575f5ffd5b612387868287016122e4565b9150509250925092565b5f602082840312156123a1575f5ffd5b81356123ac8161220c565b9392505050565b80356121ed8161220c565b5f602082840312156123ce575f5ffd5b5035919050565b8035600581106121ed575f5ffd5b5f602082840312156123f3575f5ffd5b6123ac826123d5565b5f81518084528060208401602086015e5f602082860101526020601f19601f83011685010191505092915050565b634e487b7160e01b5f52602160045260245ffd5b6005811061245a57634e487b7160e01b5f52602160045260245ffd5b9052565b8b81526001600160a01b038b166020820152610160604082018190525f906124889083018c6123fc565b8a606084015289608084015282810360a08401526124a6818a6123fc565b90508760c084015282810360e08401526124c081886123fc565b90508281036101008401526124d581876123fc565b9150506124e661012083018561243e565b8215156101408301529c9b505050505050505050505050565b5f82601f83011261250e575f5ffd5b81356001600160401b038111156125275761252761222f565b8060051b6125376020820161228e565b91825260208185018101929081019086841115612552575f5ffd5b6020860192505b838310156125f35782356001600160401b03811115612576575f5ffd5b86016060818903601f1901121561258b575f5ffd5b612593612243565b60208201356125a18161220c565b81526125af60408301612220565b602082015260608201356001600160401b038111156125cc575f5ffd5b6125db8a6020838601016122e4565b60408301525083525060209283019290910190612559565b9695505050505050565b5f6080828403121561260d575f5ffd5b604051608081016001600160401b038111828210171561262f5761262f61222f565b60405290508082356126408161220c565b815260208301356001600160401b0381111561265a575f5ffd5b612666858286016122e4565b60208301525060408381013590820152606092830135920191909152919050565b5f5f60408385031215612698575f5ffd5b82356001600160401b038111156126ad575f5ffd5b830161018081860312156126bf575f5ffd5b6126c761226b565b813581526126d7602083016123b3565b602082015260408201356001600160401b038111156126f4575f5ffd5b612700878285016122e4565b604083015250606082810135908201526080808301359082015260a08201356001600160401b03811115612732575f5ffd5b61273e878285016122e4565b60a08301525060c0828101359082015260e08201356001600160401b03811115612766575f5ffd5b612772878285016122e4565b60e0830152506101008201356001600160401b03811115612791575f5ffd5b61279d878285016122e4565b610100830152506101208201356001600160401b038111156127bd575f5ffd5b6127c9878285016124ff565b610120830152506127dd61014083016123d5565b6101408201526127f06101608301612220565b61016082015292505060208301356001600160401b03811115612811575f5ffd5b61281d858286016125fd565b9150509250929050565b5f602082016020835280845180835260408501915060408160051b8601019250602086015f5b828110156128aa57868503603f19018452815180516001600160a01b03168652602080820151151590870152604090810151606091870182905290612894908701826123fc565b955050602093840193919091019060010161284d565b50929695505050505050565b602081525f6123ac60208301846123fc565b6001600160a01b038416815282151560208201526060604082018190525f906128f3908301846123fc565b95945050505050565b5f5f6040838503121561290d575f5ffd5b82356129188161220c565b946020939093013593505050565b6001600160a01b03851681526080602082018190525f90612949908301866123fc565b6040830194909452506060015292915050565b6020810161296a828461243e565b92915050565b600181811c9082168061298457607f821691505b6020821081036129a257634e487b7160e01b5f52602260045260245ffd5b50919050565b601f8211156129ec57805f5260205f20601f840160051c810160208510156129cd5750805b601f840160051c820191505b81811015610a3b575f81556001016129d9565b505050565b5f19600383901b1c191660019190911b1790565b81516001600160401b03811115612a1e57612a1e61222f565b612a3281612a2c8454612970565b846129a8565b6020601f821160018114612a5f575f8315612a4d5750848201515b612a5784826129f1565b855550610a3b565b5f84815260208120601f198516915b82811015612a8e5787850151825560209485019460019092019101612a6e565b5084821015612aab57868401515f19600387901b60f8161c191681555b50505050600190811b01905550565b5f60208284031215612aca575f5ffd5b5051919050565b634e487b7160e01b5f52601160045260245ffd5b8082018082111561296a5761296a612ad1565b8181038181111561296a5761296a612ad1565b634e487b7160e01b5f52601260045260245ffd5b5f82612b2d57612b2d612b0b565b500690565b634e487b7160e01b5f52603260045260245ffd5b818103612b51575050565b612b5b8254612970565b6001600160401b03811115612b7257612b7261222f565b612b8081612a2c8454612970565b5f601f821160018114612ba3575f8315612a4d575084820154612a5784826129f1565b5f8581526020808220868352908220601f198616925b83811015612bd95782860154825560019586019590910190602001612bb9565b5085831015612bf657818501545f19600388901b60f8161c191681555b5050505050600190811b01905550565b5f82612c1457612c14612b0b565b500490565b808202811582820484141761296a5761296a612ad1565b5f604082016040835280845480835260608501915060608160051b8601019250855f5260205f205f5b82811015612d2557868503605f1901845281546001600160a01b038116865260a01c60ff1615156020860152606060408601526001820180545f90612c9d81612970565b8060608a0152600182165f8114612cbb5760018114612cd757612d08565b60ff19831660808b0152608082151560051b8b01019350612d08565b845f5260205f205f5b83811015612cff5781548c820160800152600190910190602001612ce0565b8b016080019450505b509197505050602094909401935060029190910190600101612c59565b505050508281036020840152612d5481600c81526b199c9bdb481c1c9bda9958dd60a21b602082015260400190565b949350505050565b5f5f8354612d6981612970565b600182168015612d805760018114612d9557612dc2565b60ff1983168652811515820286019350612dc2565b865f5260205f205f5b83811015612dba57815488820152600190910190602001612d9e565b505081860193505b509195945050505050565b5f60208284031215612ddd575f5ffd5b81516001600160401b03811115612df2575f5ffd5b8201601f81018413612e02575f5ffd5b8051612e10612301826122be565b818152856020838501011115612e24575f5ffd5b8160208401602083015e5f9181016020019190915294935050505056fe60806040526001600455348015610014575f5ffd5b5033805f8161006a5760405162461bcd60e51b815260206004820152601860248201527f43616e6e6f7420736574206f776e657220746f207a65726f000000000000000060448201526064015b60405180910390fd5b600680546001600160a01b0319166001600160a01b038481169190911790915581161561009a5761009a816100c5565b5050506100c073779877a7b0d9e8603169ddbd7836e478b462478961016e60201b60201c565b610190565b336001600160a01b0382160361011d5760405162461bcd60e51b815260206004820152601760248201527f43616e6e6f74207472616e7366657220746f2073656c660000000000000000006044820152606401610061565b600780546001600160a01b0319166001600160a01b03838116918217909255600654604051919216907fed8889f560326eb138920d842192f0eb3dd22b4f139c87a2c57538e05bae1278905f90a350565b600280546001600160a01b0319166001600160a01b0392909216919091179055565b6119fe8061019d5f395ff3fe608060405234801561000f575f5ffd5b506004361061006b575f3560e01c806309bd5a601461006f5780633e9db5e51461008d57806379ba5097146100a25780638da5cb5b146100aa578063ab643c10146100c5578063b86f58fe146100d8578063f2fde38b146100e0575b5f5ffd5b6100776100f3565b6040516100849190611330565b60405180910390f35b6100a061009b3660046113df565b61017f565b005b6100a06102ed565b6006546040516001600160a01b039091168152602001610084565b6100a06100d33660046114e8565b61039a565b610077610a0c565b6100a06100ee366004611532565b610a19565b600880546101009061154b565b80601f016020809104026020016040519081016040528092919081815260200182805461012c9061154b565b80156101775780601f1061014e57610100808354040283529160200191610177565b820191905f5260205f20905b81548152906001019060200180831161015a57829003601f168201915b505050505081565b5f8a8152600560205260409020548a906001600160a01b031633146101fc5760405162461bcd60e51b815260206004820152602860248201527f536f75726365206d75737420626520746865206f7261636c65206f6620746865604482015267081c995c5d595cdd60c21b60648201526084015b60405180910390fd5b5f8181526005602052604080822080546001600160a01b03191690555182917f7cc135e0cebb02c3480ae5d74d377283180a2601f8f644edf7987b009316c63a91a2600861024a89826115c8565b50898961025689610a2d565b8860405160200161026a9493929190611699565b6040516020818303038152906040526009908161028791906115c8565b50600961029386610a2d565b61029c86610a2d565b6102a586610a2d565b6102ae86610a2d565b6040516020016102c29594939291906116bf565b604051602081830303815290604052600990816102df91906115c8565b505050505050505050505050565b6007546001600160a01b031633146103405760405162461bcd60e51b815260206004820152601660248201527526bab9ba10313290383937b837b9b2b21037bbb732b960511b60448201526064016101f3565b600680546001600160a01b0319808216339081179093556007805490911690556040516001600160a01b03909116919082907f8be0079c531659141344cd1fd0a4f28419497f9722a3daafe3b4186f6b6457e0905f90a350565b6103a2610abc565b5f6103bd6103af83610b11565b30633e9db5e560e01b610b2e565b905061040a6040518060400160405280600e81526020016d75726c50726f6a6563744e616d6560901b8152506040518060800160405280604b815260200161197e604b9139839190610b53565b6104696040518060400160405280600f81526020016e7061746850726f6a6563744e616d6560881b8152506040518060400160405280600b81526020016a70726f6a6563744e616d6560a81b81525083610b539092919063ffffffff16565b6104b16040518060400160405280600b81526020016a3ab9362637b1b0ba34b7b760a91b8152506040518060800160405280604b815260200161197e604b9139839190610b53565b61050a6040518060400160405280600c81526020016b3830ba342637b1b0ba34b7b760a11b815250604051806040016040528060088152602001673637b1b0ba34b7b760c11b81525083610b539092919063ffffffff16565b61054e604051806040016040528060078152602001660eae4d890c2e6d60cb1b8152506040518060800160405280604b815260200161197e604b9139839190610b53565b61059f604051806040016040528060088152602001670e0c2e8d090c2e6d60c31b815250604051806040016040528060048152602001630d0c2e6d60e31b81525083610b539092919063ffffffff16565b6105f16040518060400160405280601581526020017475726c4578706563746564526564756374696f6e7360581b8152506040518060800160405280604b815260200161197e604b9139839190610b53565b61065e60405180604001604052806016815260200175706174684578706563746564526564756374696f6e7360501b815250604051806040016040528060128152602001716578706563746564526564756374696f6e7360701b81525083610b539092919063ffffffff16565b6106a96040518060400160405280600e81526020016d75726c4d6574686f646f6c6f677960901b8152506040518060800160405280604b815260200161197e604b9139839190610b53565b6107086040518060400160405280600f81526020016e706174684d6574686f646f6c6f677960881b8152506040518060400160405280600b81526020016a6d6574686f646f6c6f677960a81b81525083610b539092919063ffffffff16565b6107586040518060400160405280601381526020017275726c50726f6a65637453746172744461746560681b8152506040518060800160405280604b815260200161197e604b9139839190610b53565b6107c1604051806040016040528060148152602001737061746850726f6a65637453746172744461746560601b8152506040518060400160405280601081526020016f70726f6a65637453746172744461746560801b81525083610b539092919063ffffffff16565b61080f6040518060400160405280601181526020017075726c56616c69646174696f6e4461746560781b8152506040518060800160405280604b815260200161197e604b9139839190610b53565b610874604051806040016040528060128152602001717061746856616c69646174696f6e4461746560701b8152506040518060400160405280600e81526020016d76616c69646174696f6e4461746560901b81525083610b539092919063ffffffff16565b6108c46040518060400160405280601381526020017275726c566572696669636174696f6e4461746560681b8152506040518060800160405280604b815260200161197e604b9139839190610b53565b61092d6040518060400160405280601481526020017370617468566572696669636174696f6e4461746560601b8152506040518060400160405280601081526020016f766572696669636174696f6e4461746560801b81525083610b539092919063ffffffff16565b61097a6040518060400160405280601081526020016f75726c4973737565644372656469747360801b8152506040518060800160405280604b815260200161197e604b9139839190610b53565b6109dd60405180604001604052806011815260200170706174684973737565644372656469747360781b8152506040518060400160405280600d81526020016c6973737565644372656469747360981b81525083610b539092919063ffffffff16565b610a068382600a6109f7670de0b6b3a7640000600161176d565b610a019190611798565b610b76565b50505050565b600980546101009061154b565b610a21610abc565b610a2a81610c07565b50565b60605f610a3983610caa565b60010190505f816001600160401b03811115610a5757610a57611342565b6040519080825280601f01601f191660200182016040528015610a81576020820181803683370190505b5090508181016020015b5f19016f181899199a1a9b1b9c1cb0b131b232b360811b600a86061a8153600a8504945084610a8b57509392505050565b6006546001600160a01b03163314610b0f5760405162461bcd60e51b815260206004820152601660248201527527b7363c9031b0b63630b1363290313c9037bbb732b960511b60448201526064016101f3565b565b80515f9082908203610b2557505f92915050565b50506020015190565b610b366112a6565b610b3e6112a6565b610b4a81868686610d80565b95945050505050565b6080830151610b629083610dc6565b6080830151610b719082610dc6565b505050565b6004545f90610b868160016117ab565b600455835160408086015160808701515191515f936320214ca360e11b93610bbd9386938493923092918a916001916024016117be565b60408051601f198184030181529190526020810180516001600160e01b03166001600160e01b0319909316929092179091529050610bfd86838684610ddd565b9695505050505050565b336001600160a01b03821603610c595760405162461bcd60e51b815260206004820152601760248201527621b0b73737ba103a3930b739b332b9103a379039b2b63360491b60448201526064016101f3565b600780546001600160a01b0319166001600160a01b03838116918217909255600654604051919216907fed8889f560326eb138920d842192f0eb3dd22b4f139c87a2c57538e05bae1278905f90a350565b5f8072184f03e93ff9f4daa797ed6e38ed64bf6a1f0160401b8310610ce85772184f03e93ff9f4daa797ed6e38ed64bf6a1f0160401b830492506040015b6904ee2d6d415b85acef8160201b8310610d12576904ee2d6d415b85acef8160201b830492506020015b662386f26fc100008310610d3057662386f26fc10000830492506010015b6305f5e1008310610d48576305f5e100830492506008015b6127108310610d5c57612710830492506004015b60648310610d6e576064830492506002015b600a8310610d7a576001015b92915050565b610d886112a6565b610d988560800151610100610f31565b50508284526001600160a01b03821660208501526001600160e01b031981166040850152835b949350505050565b610dd38260038351610f88565b610b71828261108f565b6040516001600160601b03193060601b166020820152603481018490525f9060540160408051808303601f1901815282825280516020918201205f818152600590925291812080546001600160a01b0319166001600160a01b038a1617905590925082917fb5e6e01e79f91267dc17b4e6314d5d4d03593d2ceee0fbb452b750bd70ea5af99190a2600254604051630200057560e51b81526001600160a01b0390911690634000aea090610e9990889087908790600401611824565b6020604051808303815f875af1158015610eb5573d5f5f3e3d5ffd5b505050506040513d601f19601f82011682018060405250810190610ed9919061184a565b610dbe5760405162461bcd60e51b815260206004820152602360248201527f756e61626c6520746f207472616e73666572416e6443616c6c20746f206f7261604482015262636c6560e81b60648201526084016101f3565b610f396112e9565b610f44602083611869565b15610f6c57610f54602083611869565b610f5f90602061187c565b610f6990836117ab565b91505b506020828101829052604080518085525f815290920101905290565b6017816001600160401b031611610fac57610a068360e0600585901b1683176110af565b60ff816001600160401b031611610fe857610fd2836018611fe0600586901b16176110af565b50610a06836001600160401b03831660016110c6565b61ffff816001600160401b0316116110255761100f836019611fe0600586901b16176110af565b50610a06836001600160401b03831660026110c6565b63ffffffff816001600160401b0316116110645761104e83601a611fe0600586901b16176110af565b50610a06836001600160401b03831660046110c6565b61107983601b611fe0600586901b16176110af565b50610a06836001600160401b03831660086110c6565b6110976112e9565b6110a883845f0151518485516110de565b9392505050565b6110b76112e9565b6110a883845f015151846111b8565b6110ce6112e9565b610dbe84855f0151518585611206565b6110e66112e9565b82518211156110f3575f5ffd5b602085015161110283866117ab565b111561113557611135856111258760200151878661112091906117ab565b611279565b61113090600261176d565b61128f565b5f5f8651805187602083010193508088870111156111535787860182525b505050602084015b6020841061119357805182526111726020836117ab565b915061117f6020826117ab565b905061118c60208561187c565b935061115b565b5181515f1960208690036101000a019081169019919091161790525083949350505050565b6111c06112e9565b836020015183106111e0576111e08485602001516002611130919061176d565b83518051602085830101848153508085036111fc576001810182525b5093949350505050565b61120e6112e9565b602085015161121d85846117ab565b1115611231576112318561112586856117ab565b5f600161124084610100611972565b61124a919061187c565b905085518386820101858319825116178152508051848701111561126e5783860181525b509495945050505050565b5f81831115611289575081610d7a565b50919050565b815161129b8383610f31565b50610a06838261108f565b6040518060a001604052805f81526020015f6001600160a01b031681526020015f6001600160e01b03191681526020015f81526020016112e46112e9565b905290565b6040518060400160405280606081526020015f81525090565b5f81518084528060208401602086015e5f602082860101526020601f19601f83011685010191505092915050565b602081525f6110a86020830184611302565b634e487b7160e01b5f52604160045260245ffd5b5f82601f830112611365575f5ffd5b81356001600160401b0381111561137e5761137e611342565b604051601f8201601f19908116603f011681016001600160401b03811182821017156113ac576113ac611342565b6040528181528382016020018510156113c3575f5ffd5b816020850160208301375f918101602001919091529392505050565b5f5f5f5f5f5f5f5f5f5f6101408b8d0312156113f9575f5ffd5b8a35995060208b01356001600160401b03811115611415575f5ffd5b6114218d828e01611356565b99505060408b01356001600160401b0381111561143c575f5ffd5b6114488d828e01611356565b98505060608b01356001600160401b03811115611463575f5ffd5b61146f8d828e01611356565b97505060808b0135955060a08b01356001600160401b03811115611491575f5ffd5b61149d8d828e01611356565b9a9d999c50979a9699959895975050505060c08401359360e0810135936101008201359350610120909101359150565b80356001600160a01b03811681146114e3575f5ffd5b919050565b5f5f604083850312156114f9575f5ffd5b611502836114cd565b915060208301356001600160401b0381111561151c575f5ffd5b61152885828601611356565b9150509250929050565b5f60208284031215611542575f5ffd5b6110a8826114cd565b600181811c9082168061155f57607f821691505b60208210810361128957634e487b7160e01b5f52602260045260245ffd5b601f821115610b7157805f5260205f20601f840160051c810160208510156115a25750805b601f840160051c820191505b818110156115c1575f81556001016115ae565b5050505050565b81516001600160401b038111156115e1576115e1611342565b6115f5816115ef845461154b565b8461157d565b6020601f821160018114611627575f83156116105750848201515b5f19600385901b1c1916600184901b1784556115c1565b5f84815260208120601f198516915b828110156116565787850151825560209485019460019092019101611636565b508482101561167357868401515f19600387901b60f8161c191681555b50505050600190811b01905550565b5f81518060208401855e5f93019283525090919050565b5f610bfd6116b96116b36116ad858a611682565b88611682565b86611682565b84611682565b5f5f87546116cc8161154b565b6001821680156116e357600181146116f857611725565b60ff1983168652811515820286019350611725565b8a5f5260205f205f5b8381101561171d57815488820152600190910190602001611701565b505081860193505b50505061174d61174761174161173b848b611682565b89611682565b87611682565b85611682565b98975050505050505050565b634e487b7160e01b5f52601160045260245ffd5b8082028115828204841417610d7a57610d7a611759565b634e487b7160e01b5f52601260045260245ffd5b5f826117a6576117a6611784565b500490565b80820180821115610d7a57610d7a611759565b6001600160a01b0389811682526020820189905260408201889052861660608201526001600160e01b03198516608082015260a0810184905260c0810183905261010060e082018190525f9061181690830184611302565b9a9950505050505050505050565b60018060a01b0384168152826020820152606060408201525f610b4a6060830184611302565b5f6020828403121561185a575f5ffd5b815180151581146110a8575f5ffd5b5f8261187757611877611784565b500690565b81810381811115610d7a57610d7a611759565b6001815b60018411156118ca578085048111156118ae576118ae611759565b60018416156118bc57908102905b60019390931c928002611893565b935093915050565b5f826118e057506001610d7a565b816118ec57505f610d7a565b8160018114611902576002811461190c57611928565b6001915050610d7a565b60ff84111561191d5761191d611759565b50506001821b610d7a565b5060208310610133831016604e8410600b841016171561194b575081810a610d7a565b6119575f19848461188f565b805f190482111561196a5761196a611759565b029392505050565b5f6110a883836118d256fe68747470733a2f2f746e79776b6876616b332e657865637574652d6170692e61702d736f757468656173742d322e616d617a6f6e6177732e636f6d2f64656661756c742f686f6e6f757273a26469706673582212209acc71f70c4c2d087abeb406581ebdd0ad3492714550c74429446633a42ea4cb64736f6c634300081d00336080604052600480546001600160a01b031916739ddfaca8183c41ad55329bdeed9f6a8d53168b1b1790557f787d74caea10b2b357790d5b5247c2f63d1d91572a9846f780606e4d953677ae6005556007805466010003000186a06001600160501b0319909116179055348015610074575f5ffd5b50604051610aaf380380610aaf8339810160408190526100939161021d565b6004546001600160a01b031633805f816100f45760405162461bcd60e51b815260206004820152601860248201527f43616e6e6f7420736574206f776e657220746f207a65726f000000000000000060448201526064015b60405180910390fd5b5f80546001600160a01b0319166001600160a01b03848116919091179091558116156101235761012381610175565b5050506001600160a01b03811661014d5760405163d92e233d60e01b815260040160405180910390fd5b600280546001600160a01b0319166001600160a01b0392909216919091179055600355610234565b336001600160a01b038216036101cd5760405162461bcd60e51b815260206004820152601760248201527f43616e6e6f74207472616e7366657220746f2073656c6600000000000000000060448201526064016100eb565b600180546001600160a01b0319166001600160a01b038381169182179092555f8054604051929316917fed8889f560326eb138920d842192f0eb3dd22b4f139c87a2c57538e05bae12789190a350565b5f6020828403121561022d575f5ffd5b5051919050565b61086e806102415f395ff3fe608060405234801561000f575f5ffd5b50600436106100b8575f3560e01c80631fe543e3146100bc57806324f74697146100d157806345bb327b146100fb57806379ba5097146101125780637ccfd7fc1461011a5780638ac00021146101315780638da5cb5b1461013a5780638ea981171461014f5780639eccacf614610162578063a3e56fa814610175578063b0fb162f14610188578063da9f7550146101b0578063f2fde38b146101b8578063f6eaffc8146101cb575b5f5ffd5b6100cf6100ca3660046106ce565b6101de565b005b6007546100e19063ffffffff1681565b60405163ffffffff90911681526020015b60405180910390f35b61010460055481565b6040519081526020016100f2565b6100cf610233565b6007546100e190600160301b900463ffffffff1681565b61010460035481565b6101426102dc565b6040516100f29190610746565b6100cf61015d36600461075a565b6102ea565b600254610142906001600160a01b031681565b600454610142906001600160a01b031681565b60075461019d90600160201b900461ffff1681565b60405161ffff90911681526020016100f2565b6101046103e2565b6100cf6101c636600461075a565b6104c5565b6101046101d9366004610787565b6104d9565b6002546001600160a01b031633146102235760025460405163073e64fd60e21b81523360048201526001600160a01b0390911660248201526044015b60405180910390fd5b61022e8383836104f8565b505050565b6001546001600160a01b031633146102865760405162461bcd60e51b815260206004820152601660248201527526bab9ba10313290383937b837b9b2b21037bbb732b960511b604482015260640161021a565b5f8054336001600160a01b0319808316821784556001805490911690556040516001600160a01b0390921692909183917f8be0079c531659141344cd1fd0a4f28419497f9722a3daafe3b4186f6b6457e091a350565b5f546001600160a01b031690565b6102f26102dc565b6001600160a01b0316336001600160a01b03161415801561031e57506002546001600160a01b03163314155b15610365573361032c6102dc565b60025460405163061db9c160e01b81526001600160a01b039384166004820152918316602483015291909116604482015260640161021a565b6001600160a01b03811661038c5760405163d92e233d60e01b815260040160405180910390fd5b600280546001600160a01b0319166001600160a01b0383161790556040517fd1a6a14209a385a964d036e404cb5cfb71f4000cdb03c9366292430787261be6906103d7908390610746565b60405180910390a150565b5f6103eb61050a565b6002546040805160c081018252600554815260035460208083019190915260075461ffff600160201b8204168385015263ffffffff8082166060850152600160301b90910416608083015282519081019092525f82526001600160a01b0390921691639b1c385e9160a08201906104619061055e565b8152506040518263ffffffff1660e01b8152600401610480919061079e565b6020604051808303815f875af115801561049c573d5f5f3e3d5ffd5b505050506040513d601f19601f820116820180604052508101906104c09190610821565b905090565b6104cd61050a565b6104d6816105cf565b50565b600681815481106104e8575f80fd5b5f91825260209091200154905081565b61050460068383610671565b50505050565b5f546001600160a01b0316331461055c5760405162461bcd60e51b815260206004820152601660248201527527b7363c9031b0b63630b1363290313c9037bbb732b960511b604482015260640161021a565b565b60607f92fd13387c7fe7befbc38d303d6468778fb9731bc4583f17d92989c6fcfdeaaa8260405160240161059791511515815260200190565b60408051601f198184030181529190526020810180516001600160e01b03166001600160e01b03199093169290921790915292915050565b336001600160a01b038216036106215760405162461bcd60e51b815260206004820152601760248201527621b0b73737ba103a3930b739b332b9103a379039b2b63360491b604482015260640161021a565b600180546001600160a01b0319166001600160a01b038381169182179092555f8054604051929316917fed8889f560326eb138920d842192f0eb3dd22b4f139c87a2c57538e05bae12789190a350565b828054828255905f5260205f209081019282156106aa579160200282015b828111156106aa57823582559160200191906001019061068f565b506106b69291506106ba565b5090565b5b808211156106b6575f81556001016106bb565b5f5f5f604084860312156106e0575f5ffd5b8335925060208401356001600160401b038111156106fc575f5ffd5b8401601f8101861361070c575f5ffd5b80356001600160401b03811115610721575f5ffd5b8660208260051b8401011115610735575f5ffd5b939660209190910195509293505050565b6001600160a01b0391909116815260200190565b5f6020828403121561076a575f5ffd5b81356001600160a01b0381168114610780575f5ffd5b9392505050565b5f60208284031215610797575f5ffd5b5035919050565b60208152815160208201526020820151604082015261ffff604083015116606082015263ffffffff606083015116608082015263ffffffff60808301511660a08201525f60a083015160c08084015280518060e0850152806020830161010086015e5f6101008286010152610100601f19601f8301168501019250505092915050565b5f60208284031215610831575f5ffd5b505191905056fea264697066735822122066e57aeac6b0b19a6f322f93445d77c1c4d219b54942bc0f3a7de6a0fa8ac67964736f6c634300081d0033f652222313e28459528d920b65115c16c04f3efc82aaedc97be59f3f377c0d40000000000000000000000000cbd38ada2d31c7071e041fc8f8c1da9df9c76dd4135290006f1871309577d248cf00619459a79b4a735638108a2bb080319c90d6f652222313e28459528d920b65115c16c04f3efc82aaedc97be59f3f377c0d3fdb42f09d5a5cb193ea3eae569c8ce2e3a5c8d8b68aadbe1a637f44d07f67bc17a2646970667358221220e9bb24f51150b77714b0a385fda7e24c13387362d3b8b02bca68bfd9edde71cb64736f6c634300081d0033",
			"opcodes": "PUSH1 0x80 PUSH1 0x40 MSTORE CALLVALUE DUP1 ISZERO PUSH1 0xE JUMPI PUSH0 PUSH0 REVERT JUMPDEST POP PUSH2 0x5561 DUP1 PUSH2 0x1C PUSH0 CODECOPY PUSH0 RETURN INVALID PUSH1 0x80 PUSH1 0x40 MSTORE PUSH1 0x4 CALLDATASIZE LT PUSH2 0x11C JUMPI PUSH0 CALLDATALOAD PUSH1 0xE0 SHR DUP1 PUSH3 0xDCBC18 EQ PUSH2 0x127 JUMPI DUP1 PUSH4 0xC949043 EQ PUSH2 0x148 JUMPI DUP1 PUSH4 0x1DB6CEC7 EQ PUSH2 0x184 JUMPI DUP1 PUSH4 0x242AB021 EQ PUSH2 0x1A3 JUMPI DUP1 PUSH4 0x2E3803C6 EQ PUSH2 0x1C1 JUMPI DUP1 PUSH4 0x3BB060DB EQ PUSH2 0x1D4 JUMPI DUP1 PUSH4 0x3F36CDEA EQ PUSH2 0x1E8 JUMPI DUP1 PUSH4 0x486FB161 EQ PUSH2 0x20B JUMPI DUP1 PUSH4 0x4EC508F9 EQ PUSH2 0x22A JUMPI DUP1 PUSH4 0x5699FADC EQ PUSH2 0x25E JUMPI DUP1 PUSH4 0x5D16AD15 EQ PUSH2 0x271 JUMPI DUP1 PUSH4 0x67E0BADB EQ PUSH2 0x295 JUMPI DUP1 PUSH4 0x775C300C EQ PUSH2 0x2A9 JUMPI DUP1 PUSH4 0x840E78FD EQ PUSH2 0x2BD JUMPI DUP1 PUSH4 0x961B461E EQ PUSH2 0x2F3 JUMPI DUP1 PUSH4 0xA4635A1A EQ PUSH2 0x307 JUMPI DUP1 PUSH4 0xA935E766 EQ PUSH2 0x31A JUMPI DUP1 PUSH4 0xAAF38E8B EQ PUSH2 0x33B JUMPI DUP1 PUSH4 0xAC1EFF68 EQ PUSH2 0x35C JUMPI DUP1 PUSH4 0xB43A57A9 EQ PUSH2 0x38A JUMPI DUP1 PUSH4 0xB9C6D8B1 EQ PUSH2 0x39E JUMPI DUP1 PUSH4 0xD29709FB EQ PUSH2 0x3B2 JUMPI DUP1 PUSH4 0xDDFC5CFE EQ PUSH2 0x3C5 JUMPI DUP1 PUSH4 0xE0155714 EQ PUSH2 0x3F4 JUMPI PUSH0 PUSH0 REVERT JUMPDEST CALLDATASIZE PUSH2 0x123 JUMPI STOP JUMPDEST PUSH0 PUSH0 REVERT JUMPDEST CALLVALUE DUP1 ISZERO PUSH2 0x132 JUMPI PUSH0 PUSH0 REVERT JUMPDEST POP PUSH2 0x146 PUSH2 0x141 CALLDATASIZE PUSH1 0x4 PUSH2 0x2336 JUMP JUMPDEST PUSH2 0x420 JUMP JUMPDEST STOP JUMPDEST CALLVALUE DUP1 ISZERO PUSH2 0x153 JUMPI PUSH0 PUSH0 REVERT JUMPDEST POP PUSH1 0x1 SLOAD PUSH2 0x167 SWAP1 PUSH1 0x1 PUSH1 0x1 PUSH1 0xA0 SHL SUB AND DUP2 JUMP JUMPDEST PUSH1 0x40 MLOAD PUSH1 0x1 PUSH1 0x1 PUSH1 0xA0 SHL SUB SWAP1 SWAP2 AND DUP2 MSTORE PUSH1 0x20 ADD JUMPDEST PUSH1 0x40 MLOAD DUP1 SWAP2 SUB SWAP1 RETURN JUMPDEST CALLVALUE DUP1 ISZERO PUSH2 0x18F JUMPI PUSH0 PUSH0 REVERT JUMPDEST POP PUSH2 0x146 PUSH2 0x19E CALLDATASIZE PUSH1 0x4 PUSH2 0x2391 JUMP JUMPDEST PUSH2 0x9A4 JUMP JUMPDEST CALLVALUE DUP1 ISZERO PUSH2 0x1AE JUMPI PUSH0 PUSH0 REVERT JUMPDEST POP PUSH0 SLOAD PUSH2 0x167 SWAP1 PUSH1 0x1 PUSH1 0x1 PUSH1 0xA0 SHL SUB AND DUP2 JUMP JUMPDEST PUSH2 0x146 PUSH2 0x1CF CALLDATASIZE PUSH1 0x4 PUSH2 0x2391 JUMP JUMPDEST PUSH2 0xA42 JUMP JUMPDEST CALLVALUE DUP1 ISZERO PUSH2 0x1DF JUMPI PUSH0 PUSH0 REVERT JUMPDEST POP PUSH2 0x146 PUSH2 0xAEF JUMP JUMPDEST CALLVALUE DUP1 ISZERO PUSH2 0x1F3 JUMPI PUSH0 PUSH0 REVERT JUMPDEST POP PUSH2 0x1FD PUSH1 0x4 SLOAD DUP2 JUMP JUMPDEST PUSH1 0x40 MLOAD SWAP1 DUP2 MSTORE PUSH1 0x20 ADD PUSH2 0x17B JUMP JUMPDEST CALLVALUE DUP1 ISZERO PUSH2 0x216 JUMPI PUSH0 PUSH0 REVERT JUMPDEST POP PUSH2 0x146 PUSH2 0x225 CALLDATASIZE PUSH1 0x4 PUSH2 0x2391 JUMP JUMPDEST PUSH2 0xD04 JUMP JUMPDEST CALLVALUE DUP1 ISZERO PUSH2 0x235 JUMPI PUSH0 PUSH0 REVERT JUMPDEST POP PUSH2 0x249 PUSH2 0x244 CALLDATASIZE PUSH1 0x4 PUSH2 0x23BE JUMP JUMPDEST PUSH2 0xFA4 JUMP JUMPDEST PUSH1 0x40 DUP1 MLOAD SWAP3 DUP4 MSTORE PUSH1 0x20 DUP4 ADD SWAP2 SWAP1 SWAP2 MSTORE ADD PUSH2 0x17B JUMP JUMPDEST PUSH2 0x146 PUSH2 0x26C CALLDATASIZE PUSH1 0x4 PUSH2 0x23E3 JUMP JUMPDEST PUSH2 0x10A2 JUMP JUMPDEST CALLVALUE DUP1 ISZERO PUSH2 0x27C JUMPI PUSH0 PUSH0 REVERT JUMPDEST POP PUSH2 0x285 PUSH2 0x168F JUMP JUMPDEST PUSH1 0x40 MLOAD SWAP1 ISZERO ISZERO DUP2 MSTORE PUSH1 0x20 ADD PUSH2 0x17B JUMP JUMPDEST CALLVALUE DUP1 ISZERO PUSH2 0x2A0 JUMPI PUSH0 PUSH0 REVERT JUMPDEST POP PUSH2 0x146 PUSH2 0x170D JUMP JUMPDEST CALLVALUE DUP1 ISZERO PUSH2 0x2B4 JUMPI PUSH0 PUSH0 REVERT JUMPDEST POP PUSH2 0x146 PUSH2 0x177C JUMP JUMPDEST CALLVALUE DUP1 ISZERO PUSH2 0x2C8 JUMPI PUSH0 PUSH0 REVERT JUMPDEST POP PUSH2 0x2DC PUSH2 0x2D7 CALLDATASIZE PUSH1 0x4 PUSH2 0x2391 JUMP JUMPDEST PUSH2 0x1831 JUMP JUMPDEST PUSH1 0x40 MLOAD PUSH2 0x17B SWAP12 SWAP11 SWAP10 SWAP9 SWAP8 SWAP7 SWAP6 SWAP5 SWAP4 SWAP3 SWAP2 SWAP1 PUSH2 0x245E JUMP JUMPDEST CALLVALUE DUP1 ISZERO PUSH2 0x2FE JUMPI PUSH0 PUSH0 REVERT JUMPDEST POP PUSH2 0x146 PUSH2 0x1AAB JUMP JUMPDEST PUSH2 0x146 PUSH2 0x315 CALLDATASIZE PUSH1 0x4 PUSH2 0x2687 JUMP JUMPDEST PUSH2 0x1B16 JUMP JUMPDEST CALLVALUE DUP1 ISZERO PUSH2 0x325 JUMPI PUSH0 PUSH0 REVERT JUMPDEST POP PUSH2 0x32E PUSH2 0x1D7C JUMP JUMPDEST PUSH1 0x40 MLOAD PUSH2 0x17B SWAP2 SWAP1 PUSH2 0x2827 JUMP JUMPDEST CALLVALUE DUP1 ISZERO PUSH2 0x346 JUMPI PUSH0 PUSH0 REVERT JUMPDEST POP PUSH2 0x34F PUSH2 0x1E9F JUMP JUMPDEST PUSH1 0x40 MLOAD PUSH2 0x17B SWAP2 SWAP1 PUSH2 0x28B6 JUMP JUMPDEST CALLVALUE DUP1 ISZERO PUSH2 0x367 JUMPI PUSH0 PUSH0 REVERT JUMPDEST POP PUSH2 0x37B PUSH2 0x376 CALLDATASIZE PUSH1 0x4 PUSH2 0x23BE JUMP JUMPDEST PUSH2 0x1F2B JUMP JUMPDEST PUSH1 0x40 MLOAD PUSH2 0x17B SWAP4 SWAP3 SWAP2 SWAP1 PUSH2 0x28C8 JUMP JUMPDEST CALLVALUE DUP1 ISZERO PUSH2 0x395 JUMPI PUSH0 PUSH0 REVERT JUMPDEST POP PUSH2 0x34F PUSH2 0x1FF4 JUMP JUMPDEST CALLVALUE DUP1 ISZERO PUSH2 0x3A9 JUMPI PUSH0 PUSH0 REVERT JUMPDEST POP PUSH2 0x146 PUSH2 0x2001 JUMP JUMPDEST PUSH2 0x146 PUSH2 0x3C0 CALLDATASIZE PUSH1 0x4 PUSH2 0x28FC JUMP JUMPDEST PUSH2 0x2095 JUMP JUMPDEST CALLVALUE DUP1 ISZERO PUSH2 0x3D0 JUMPI PUSH0 PUSH0 REVERT JUMPDEST POP PUSH2 0x3E4 PUSH2 0x3DF CALLDATASIZE PUSH1 0x4 PUSH2 0x2391 JUMP JUMPDEST PUSH2 0x20ED JUMP JUMPDEST PUSH1 0x40 MLOAD PUSH2 0x17B SWAP5 SWAP4 SWAP3 SWAP2 SWAP1 PUSH2 0x2926 JUMP JUMPDEST CALLVALUE DUP1 ISZERO PUSH2 0x3FF JUMPI PUSH0 PUSH0 REVERT JUMPDEST POP PUSH2 0x413 PUSH2 0x40E CALLDATASIZE PUSH1 0x4 PUSH2 0x23BE JUMP JUMPDEST PUSH2 0x21A5 JUMP JUMPDEST PUSH1 0x40 MLOAD PUSH2 0x17B SWAP2 SWAP1 PUSH2 0x295C JUMP JUMPDEST PUSH1 0x40 DUP1 MLOAD PUSH1 0x60 DUP2 ADD DUP3 MSTORE PUSH1 0x1 PUSH1 0x1 PUSH1 0xA0 SHL SUB DUP1 DUP7 AND DUP3 MSTORE DUP5 ISZERO ISZERO PUSH1 0x20 DUP4 ADD SWAP1 DUP2 MSTORE SWAP3 DUP3 ADD DUP5 DUP2 MSTORE PUSH1 0x6 DUP1 SLOAD PUSH1 0x1 DUP2 ADD DUP3 SSTORE PUSH0 SWAP2 SWAP1 SWAP2 MSTORE DUP4 MLOAD PUSH1 0x2 SWAP1 SWAP2 MUL PUSH0 MLOAD PUSH1 0x20 PUSH2 0x54EC PUSH0 CODECOPY PUSH0 MLOAD SWAP1 PUSH0 MSTORE DUP2 ADD DUP1 SLOAD SWAP7 MLOAD ISZERO ISZERO PUSH1 0x1 PUSH1 0xA0 SHL MUL PUSH1 0x1 PUSH1 0x1 PUSH1 0xA8 SHL SUB NOT SWAP1 SWAP8 AND SWAP3 SWAP1 SWAP5 AND SWAP2 SWAP1 SWAP2 OR SWAP5 SWAP1 SWAP5 OR DUP3 SSTORE MLOAD SWAP2 SWAP3 DUP4 SWAP3 PUSH0 MLOAD PUSH1 0x20 PUSH2 0x548C PUSH0 CODECOPY PUSH0 MLOAD SWAP1 PUSH0 MSTORE SWAP1 SWAP2 ADD SWAP1 PUSH2 0x4B4 SWAP1 DUP3 PUSH2 0x2A05 JUMP JUMPDEST POP POP PUSH1 0x40 DUP1 MLOAD PUSH1 0x60 DUP2 ADD DUP3 MSTORE PUSH0 MLOAD PUSH1 0x20 PUSH2 0x54AC PUSH0 CODECOPY PUSH0 MLOAD SWAP1 PUSH0 MSTORE DUP2 MSTORE PUSH0 PUSH1 0x20 DUP1 DUP4 ADD DUP3 DUP2 MSTORE DUP5 MLOAD DUP1 DUP7 ADD DUP7 MSTORE PUSH1 0x8 DUP2 MSTORE PUSH8 0x6E756D6265722031 PUSH1 0xC0 SHL SWAP3 DUP2 ADD SWAP3 SWAP1 SWAP3 MSTORE SWAP4 DUP4 ADD SWAP1 DUP2 MSTORE PUSH1 0x6 DUP1 SLOAD PUSH1 0x1 DUP2 ADD DUP3 SSTORE SWAP3 MSTORE DUP3 MLOAD PUSH1 0x2 SWAP1 SWAP3 MUL PUSH0 MLOAD PUSH1 0x20 PUSH2 0x54EC PUSH0 CODECOPY PUSH0 MLOAD SWAP1 PUSH0 MSTORE DUP2 ADD DUP1 SLOAD SWAP6 MLOAD ISZERO ISZERO PUSH1 0x1 PUSH1 0xA0 SHL MUL PUSH1 0x1 PUSH1 0x1 PUSH1 0xA8 SHL SUB NOT SWAP1 SWAP7 AND PUSH1 0x1 PUSH1 0x1 PUSH1 0xA0 SHL SUB SWAP5 SWAP1 SWAP5 AND SWAP4 SWAP1 SWAP4 OR SWAP5 SWAP1 SWAP5 OR DUP3 SSTORE MLOAD SWAP2 SWAP4 POP DUP4 SWAP3 SWAP1 SWAP2 PUSH0 MLOAD PUSH1 0x20 PUSH2 0x548C PUSH0 CODECOPY PUSH0 MLOAD SWAP1 PUSH0 MSTORE SWAP1 SWAP2 ADD SWAP1 PUSH2 0x572 SWAP1 DUP3 PUSH2 0x2A05 JUMP JUMPDEST POP POP PUSH1 0x40 DUP1 MLOAD PUSH1 0x60 DUP2 ADD DUP3 MSTORE PUSH0 MLOAD PUSH1 0x20 PUSH2 0x54AC PUSH0 CODECOPY PUSH0 MLOAD SWAP1 PUSH0 MSTORE DUP2 MSTORE PUSH1 0x1 PUSH1 0x20 DUP1 DUP4 ADD DUP3 DUP2 MSTORE DUP5 MLOAD DUP1 DUP7 ADD DUP7 MSTORE PUSH1 0x8 DUP2 MSTORE PUSH8 0x373AB6B132B91019 PUSH1 0xC1 SHL SWAP3 DUP2 ADD SWAP3 SWAP1 SWAP3 MSTORE SWAP4 DUP4 ADD SWAP1 DUP2 MSTORE PUSH1 0x6 DUP1 SLOAD SWAP3 DUP4 ADD DUP2 SSTORE PUSH0 MSTORE DUP3 MLOAD PUSH1 0x2 SWAP1 SWAP3 MUL PUSH0 MLOAD PUSH1 0x20 PUSH2 0x54EC PUSH0 CODECOPY PUSH0 MLOAD SWAP1 PUSH0 MSTORE DUP2 ADD DUP1 SLOAD SWAP6 MLOAD ISZERO ISZERO PUSH1 0x1 PUSH1 0xA0 SHL MUL PUSH1 0x1 PUSH1 0x1 PUSH1 0xA8 SHL SUB NOT SWAP1 SWAP7 AND PUSH1 0x1 PUSH1 0x1 PUSH1 0xA0 SHL SUB SWAP5 SWAP1 SWAP5 AND SWAP4 SWAP1 SWAP4 OR SWAP5 SWAP1 SWAP5 OR DUP3 SSTORE MLOAD SWAP2 SWAP4 POP DUP4 SWAP3 SWAP1 SWAP2 PUSH0 MLOAD PUSH1 0x20 PUSH2 0x548C PUSH0 CODECOPY PUSH0 MLOAD SWAP1 PUSH0 MSTORE SWAP1 SWAP2 ADD SWAP1 PUSH2 0x630 SWAP1 DUP3 PUSH2 0x2A05 JUMP JUMPDEST POP POP PUSH1 0x40 DUP1 MLOAD PUSH1 0x60 DUP2 ADD DUP3 MSTORE PUSH0 MLOAD PUSH1 0x20 PUSH2 0x54AC PUSH0 CODECOPY PUSH0 MLOAD SWAP1 PUSH0 MSTORE DUP2 MSTORE PUSH1 0x1 PUSH1 0x20 DUP1 DUP4 ADD DUP3 DUP2 MSTORE DUP5 MLOAD DUP1 DUP7 ADD DUP7 MSTORE PUSH1 0x8 DUP2 MSTORE PUSH8 0x6E756D6265722033 PUSH1 0xC0 SHL SWAP3 DUP2 ADD SWAP3 SWAP1 SWAP3 MSTORE SWAP4 DUP4 ADD SWAP1 DUP2 MSTORE PUSH1 0x6 DUP1 SLOAD SWAP3 DUP4 ADD DUP2 SSTORE PUSH0 MSTORE DUP3 MLOAD PUSH1 0x2 SWAP1 SWAP3 MUL PUSH0 MLOAD PUSH1 0x20 PUSH2 0x54EC PUSH0 CODECOPY PUSH0 MLOAD SWAP1 PUSH0 MSTORE DUP2 ADD DUP1 SLOAD SWAP6 MLOAD ISZERO ISZERO PUSH1 0x1 PUSH1 0xA0 SHL MUL PUSH1 0x1 PUSH1 0x1 PUSH1 0xA8 SHL SUB NOT SWAP1 SWAP7 AND PUSH1 0x1 PUSH1 0x1 PUSH1 0xA0 SHL SUB SWAP5 SWAP1 SWAP5 AND SWAP4 SWAP1 SWAP4 OR SWAP5 SWAP1 SWAP5 OR DUP3 SSTORE MLOAD SWAP2 SWAP4 POP DUP4 SWAP3 SWAP1 SWAP2 PUSH0 MLOAD PUSH1 0x20 PUSH2 0x548C PUSH0 CODECOPY PUSH0 MLOAD SWAP1 PUSH0 MSTORE SWAP1 SWAP2 ADD SWAP1 PUSH2 0x6EE SWAP1 DUP3 PUSH2 0x2A05 JUMP JUMPDEST POP POP PUSH1 0x40 DUP1 MLOAD PUSH1 0x60 DUP2 ADD DUP3 MSTORE PUSH0 MLOAD PUSH1 0x20 PUSH2 0x54AC PUSH0 CODECOPY PUSH0 MLOAD SWAP1 PUSH0 MSTORE DUP2 MSTORE PUSH0 PUSH1 0x20 DUP1 DUP4 ADD DUP3 DUP2 MSTORE DUP5 MLOAD DUP1 DUP7 ADD DUP7 MSTORE PUSH1 0x8 DUP2 MSTORE PUSH8 0x1B9D5B58995C880D PUSH1 0xC2 SHL SWAP3 DUP2 ADD SWAP3 SWAP1 SWAP3 MSTORE SWAP4 DUP4 ADD SWAP1 DUP2 MSTORE PUSH1 0x6 DUP1 SLOAD PUSH1 0x1 DUP2 ADD DUP3 SSTORE SWAP3 MSTORE DUP3 MLOAD PUSH1 0x2 SWAP1 SWAP3 MUL PUSH0 MLOAD PUSH1 0x20 PUSH2 0x54EC PUSH0 CODECOPY PUSH0 MLOAD SWAP1 PUSH0 MSTORE DUP2 ADD DUP1 SLOAD SWAP6 MLOAD ISZERO ISZERO PUSH1 0x1 PUSH1 0xA0 SHL MUL PUSH1 0x1 PUSH1 0x1 PUSH1 0xA8 SHL SUB NOT SWAP1 SWAP7 AND PUSH1 0x1 PUSH1 0x1 PUSH1 0xA0 SHL SUB SWAP5 SWAP1 SWAP5 AND SWAP4 SWAP1 SWAP4 OR SWAP5 SWAP1 SWAP5 OR DUP3 SSTORE MLOAD SWAP2 SWAP4 POP DUP4 SWAP3 SWAP1 SWAP2 PUSH0 MLOAD PUSH1 0x20 PUSH2 0x548C PUSH0 CODECOPY PUSH0 MLOAD SWAP1 PUSH0 MSTORE SWAP1 SWAP2 ADD SWAP1 PUSH2 0x7AC SWAP1 DUP3 PUSH2 0x2A05 JUMP JUMPDEST POP POP PUSH1 0x40 DUP1 MLOAD PUSH1 0x60 DUP2 ADD DUP3 MSTORE PUSH0 MLOAD PUSH1 0x20 PUSH2 0x54AC PUSH0 CODECOPY PUSH0 MLOAD SWAP1 PUSH0 MSTORE DUP2 MSTORE PUSH1 0x1 PUSH1 0x20 DUP1 DUP4 ADD DUP3 DUP2 MSTORE DUP5 MLOAD DUP1 DUP7 ADD DUP7 MSTORE PUSH1 0x8 DUP2 MSTORE PUSH8 0x6E756D6265722035 PUSH1 0xC0 SHL SWAP3 DUP2 ADD SWAP3 SWAP1 SWAP3 MSTORE SWAP4 DUP4 ADD SWAP1 DUP2 MSTORE PUSH1 0x6 DUP1 SLOAD SWAP3 DUP4 ADD DUP2 SSTORE PUSH0 MSTORE DUP3 MLOAD PUSH1 0x2 SWAP1 SWAP3 MUL PUSH0 MLOAD PUSH1 0x20 PUSH2 0x54EC PUSH0 CODECOPY PUSH0 MLOAD SWAP1 PUSH0 MSTORE DUP2 ADD DUP1 SLOAD SWAP6 MLOAD ISZERO ISZERO PUSH1 0x1 PUSH1 0xA0 SHL MUL PUSH1 0x1 PUSH1 0x1 PUSH1 0xA8 SHL SUB NOT SWAP1 SWAP7 AND PUSH1 0x1 PUSH1 0x1 PUSH1 0xA0 SHL SUB SWAP5 SWAP1 SWAP5 AND SWAP4 SWAP1 SWAP4 OR SWAP5 SWAP1 SWAP5 OR DUP3 SSTORE MLOAD SWAP2 SWAP4 POP DUP4 SWAP3 SWAP1 SWAP2 PUSH0 MLOAD PUSH1 0x20 PUSH2 0x548C PUSH0 CODECOPY PUSH0 MLOAD SWAP1 PUSH0 MSTORE SWAP1 SWAP2 ADD SWAP1 PUSH2 0x86A SWAP1 DUP3 PUSH2 0x2A05 JUMP JUMPDEST POP POP PUSH1 0x40 DUP1 MLOAD PUSH1 0x60 DUP2 ADD DUP3 MSTORE PUSH0 MLOAD PUSH1 0x20 PUSH2 0x54AC PUSH0 CODECOPY PUSH0 MLOAD SWAP1 PUSH0 MSTORE DUP2 MSTORE PUSH1 0x1 PUSH1 0x20 DUP1 DUP4 ADD DUP3 DUP2 MSTORE DUP5 MLOAD DUP1 DUP7 ADD DUP7 MSTORE PUSH1 0x8 DUP2 MSTORE PUSH8 0x373AB6B132B9101B PUSH1 0xC1 SHL SWAP3 DUP2 ADD SWAP3 SWAP1 SWAP3 MSTORE SWAP4 DUP4 ADD SWAP1 DUP2 MSTORE PUSH1 0x6 DUP1 SLOAD SWAP3 DUP4 ADD DUP2 SSTORE PUSH0 MSTORE DUP3 MLOAD PUSH1 0x2 SWAP1 SWAP3 MUL PUSH0 MLOAD PUSH1 0x20 PUSH2 0x54EC PUSH0 CODECOPY PUSH0 MLOAD SWAP1 PUSH0 MSTORE DUP2 ADD DUP1 SLOAD SWAP6 MLOAD ISZERO ISZERO PUSH1 0x1 PUSH1 0xA0 SHL MUL PUSH1 0x1 PUSH1 0x1 PUSH1 0xA8 SHL SUB NOT SWAP1 SWAP7 AND PUSH1 0x1 PUSH1 0x1 PUSH1 0xA0 SHL SUB SWAP5 SWAP1 SWAP5 AND SWAP4 SWAP1 SWAP4 OR SWAP5 SWAP1 SWAP5 OR DUP3 SSTORE MLOAD SWAP2 SWAP4 POP DUP4 SWAP3 SWAP1 SWAP2 PUSH0 MLOAD PUSH1 0x20 PUSH2 0x548C PUSH0 CODECOPY PUSH0 MLOAD SWAP1 PUSH0 MSTORE SWAP1 SWAP2 ADD SWAP1 PUSH2 0x928 SWAP1 DUP3 PUSH2 0x2A05 JUMP JUMPDEST POP POP PUSH1 0x1 SLOAD PUSH1 0x40 DUP1 MLOAD PUSH4 0xDA9F755 PUSH1 0xE4 SHL DUP2 MSTORE SWAP1 MLOAD PUSH1 0x1 PUSH1 0x1 PUSH1 0xA0 SHL SUB SWAP1 SWAP3 AND SWAP3 POP PUSH4 0xDA9F7550 SWAP2 PUSH1 0x4 DUP1 DUP4 ADD SWAP3 PUSH1 0x20 SWAP3 SWAP2 SWAP1 DUP3 SWAP1 SUB ADD DUP2 PUSH0 DUP8 GAS CALL ISZERO DUP1 ISZERO PUSH2 0x973 JUMPI RETURNDATASIZE PUSH0 PUSH0 RETURNDATACOPY RETURNDATASIZE PUSH0 REVERT JUMPDEST POP POP POP POP PUSH1 0x40 MLOAD RETURNDATASIZE PUSH1 0x1F NOT PUSH1 0x1F DUP3 ADD AND DUP3 ADD DUP1 PUSH1 0x40 MSTORE POP DUP2 ADD SWAP1 PUSH2 0x997 SWAP2 SWAP1 PUSH2 0x2ABA JUMP JUMPDEST POP POP POP POP POP POP POP POP POP POP POP JUMP JUMPDEST PUSH1 0x5 DUP1 SLOAD PUSH1 0xFF NOT AND PUSH1 0x1 OR SWAP1 SSTORE PUSH0 SLOAD PUSH1 0x40 DUP1 MLOAD PUSH4 0xAB643C1 PUSH1 0xE4 SHL DUP2 MSTORE PUSH1 0x1 PUSH1 0x1 PUSH1 0xA0 SHL SUB DUP5 DUP2 AND PUSH1 0x4 DUP4 ADD MSTORE PUSH1 0x24 DUP3 ADD SWAP3 SWAP1 SWAP3 MSTORE PUSH1 0x20 PUSH1 0x44 DUP3 ADD MSTORE PUSH32 0x3935656466633265653237323465316462366462306565636637346432363639 PUSH1 0x64 DUP3 ADD MSTORE SWAP2 AND SWAP1 PUSH4 0xAB643C10 SWAP1 PUSH1 0x84 ADD PUSH0 PUSH1 0x40 MLOAD DUP1 DUP4 SUB DUP2 PUSH0 DUP8 DUP1 EXTCODESIZE ISZERO DUP1 ISZERO PUSH2 0xA29 JUMPI PUSH0 PUSH0 REVERT JUMPDEST POP GAS CALL ISZERO DUP1 ISZERO PUSH2 0xA3B JUMPI RETURNDATASIZE PUSH0 PUSH0 RETURNDATACOPY RETURNDATASIZE PUSH0 REVERT JUMPDEST POP POP POP POP POP JUMP JUMPDEST PUSH1 0x1 PUSH1 0x1 PUSH1 0xA0 SHL SUB DUP2 AND PUSH0 SWAP1 DUP2 MSTORE PUSH1 0x8 PUSH1 0x20 MSTORE PUSH1 0x40 DUP2 KECCAK256 PUSH1 0x2 ADD SLOAD SWAP1 SUB PUSH2 0xA99 JUMPI PUSH1 0x1 PUSH1 0x1 PUSH1 0xA0 SHL SUB DUP2 AND PUSH0 SWAP1 DUP2 MSTORE PUSH1 0x8 PUSH1 0x20 MSTORE PUSH1 0x40 DUP2 KECCAK256 PUSH1 0x2 ADD DUP1 SLOAD PUSH1 0x1 SWAP3 SWAP1 PUSH2 0xA8E SWAP1 DUP5 SWAP1 PUSH2 0x2AE5 JUMP JUMPDEST SWAP1 SWAP2 SSTORE POP PUSH2 0xAEC SWAP1 POP JUMP JUMPDEST PUSH1 0x1 PUSH1 0x1 PUSH1 0xA0 SHL SUB DUP2 AND PUSH0 SWAP1 DUP2 MSTORE PUSH1 0x8 PUSH1 0x20 MSTORE PUSH1 0x40 SWAP1 KECCAK256 PUSH1 0x2 ADD SLOAD PUSH1 0xA SUB PUSH2 0xAEC JUMPI PUSH1 0x1 PUSH1 0x1 PUSH1 0xA0 SHL SUB DUP2 AND PUSH0 SWAP1 DUP2 MSTORE PUSH1 0x8 PUSH1 0x20 MSTORE PUSH1 0x40 DUP2 KECCAK256 PUSH1 0x2 ADD DUP1 SLOAD PUSH1 0x1 SWAP3 SWAP1 PUSH2 0xAE6 SWAP1 DUP5 SWAP1 PUSH2 0x2AF8 JUMP JUMPDEST SWAP1 SWAP2 SSTORE POP POP JUMPDEST POP JUMP JUMPDEST PUSH0 SLOAD PUSH1 0x1 PUSH1 0x1 PUSH1 0xA0 SHL SUB AND PUSH2 0xB46 JUMPI PUSH1 0x40 MLOAD PUSH3 0x461BCD PUSH1 0xE5 SHL DUP2 MSTORE PUSH1 0x20 PUSH1 0x4 DUP3 ADD MSTORE PUSH1 0x19 PUSH1 0x24 DUP3 ADD MSTORE PUSH25 0x4465706C6F7920415049436F6E73756D657220666972737421 PUSH1 0x38 SHL PUSH1 0x44 DUP3 ADD MSTORE PUSH1 0x64 ADD PUSH1 0x40 MLOAD DUP1 SWAP2 SUB SWAP1 REVERT JUMPDEST PUSH1 0x1 SLOAD PUSH1 0x40 MLOAD PUSH4 0x1EDD5FF9 PUSH1 0xE3 SHL DUP2 MSTORE PUSH0 PUSH1 0x4 DUP3 ADD MSTORE PUSH1 0x1 PUSH1 0x1 PUSH1 0xA0 SHL SUB SWAP1 SWAP2 AND SWAP1 PUSH4 0xF6EAFFC8 SWAP1 PUSH1 0x24 ADD PUSH1 0x20 PUSH1 0x40 MLOAD DUP1 DUP4 SUB DUP2 DUP7 GAS STATICCALL ISZERO DUP1 ISZERO PUSH2 0xB8C JUMPI RETURNDATASIZE PUSH0 PUSH0 RETURNDATACOPY RETURNDATASIZE PUSH0 REVERT JUMPDEST POP POP POP POP PUSH1 0x40 MLOAD RETURNDATASIZE PUSH1 0x1F NOT PUSH1 0x1F DUP3 ADD AND DUP3 ADD DUP1 PUSH1 0x40 MSTORE POP DUP2 ADD SWAP1 PUSH2 0xBB0 SWAP2 SWAP1 PUSH2 0x2ABA JUMP JUMPDEST POP CALLER PUSH0 SWAP1 DUP2 MSTORE PUSH1 0x7 PUSH1 0x20 SWAP1 DUP2 MSTORE PUSH1 0x40 DUP1 DUP4 KECCAK256 DUP4 DUP2 SSTORE PUSH1 0x1 DUP2 ADD DUP1 SLOAD PUSH1 0x1 PUSH1 0x1 PUSH1 0xA0 SHL SUB NOT AND PUSH0 MLOAD PUSH1 0x20 PUSH2 0x54AC PUSH0 CODECOPY PUSH0 MLOAD SWAP1 PUSH0 MSTORE OR SWAP1 SSTORE DUP2 MLOAD SWAP3 DUP4 ADD SWAP1 SWAP2 MSTORE SWAP2 DUP2 MSTORE PUSH1 0x2 DUP3 ADD SWAP1 PUSH2 0xC00 SWAP1 DUP3 PUSH2 0x2A05 JUMP JUMPDEST POP PUSH1 0x1 PUSH1 0x3 DUP3 ADD SSTORE PUSH3 0x69780 PUSH1 0x4 DUP3 ADD SSTORE PUSH1 0x40 DUP1 MLOAD DUP1 DUP3 ADD SWAP1 SWAP2 MSTORE PUSH1 0x8 DUP2 MSTORE PUSH8 0x3637B1B0BA34B7B7 PUSH1 0xC1 SHL PUSH1 0x20 DUP3 ADD MSTORE PUSH1 0x5 DUP3 ADD SWAP1 PUSH2 0xC3F SWAP1 DUP3 PUSH2 0x2A05 JUMP JUMPDEST POP PUSH2 0x2223 PUSH1 0x6 DUP3 ADD SSTORE PUSH1 0x40 DUP1 MLOAD PUSH1 0x20 DUP2 ADD SWAP1 SWAP2 MSTORE PUSH0 DUP2 MSTORE PUSH1 0x7 DUP3 ADD SWAP1 PUSH2 0xC65 SWAP1 DUP3 PUSH2 0x2A05 JUMP JUMPDEST POP PUSH1 0x40 DUP1 MLOAD PUSH1 0x20 DUP2 ADD SWAP1 SWAP2 MSTORE PUSH0 DUP2 MSTORE PUSH1 0x8 DUP3 ADD SWAP1 PUSH2 0xC83 SWAP1 DUP3 PUSH2 0x2A05 JUMP JUMPDEST POP PUSH2 0xC8D CALLER PUSH2 0xD04 JUMP JUMPDEST PUSH1 0xA DUP2 ADD DUP1 SLOAD PUSH2 0xFFFF NOT AND PUSH2 0x101 OR SWAP1 SSTORE PUSH1 0x40 MLOAD PUSH8 0x3637B1B0BA34B7B7 PUSH1 0xC1 SHL PUSH1 0x20 DUP3 ADD MSTORE PUSH4 0x38373339 PUSH1 0xE0 SHL PUSH1 0x28 DUP3 ADD MSTORE PUSH11 0x6D6574686F646F6C6F6779 PUSH1 0xA8 SHL PUSH1 0x2C DUP3 ADD MSTORE PUSH4 0x74727565 PUSH1 0xE0 SHL PUSH1 0x37 DUP3 ADD MSTORE PUSH1 0x3B ADD PUSH1 0x40 MLOAD PUSH1 0x20 DUP2 DUP4 SUB SUB DUP2 MSTORE SWAP1 PUSH1 0x40 MSTORE PUSH1 0x2 SWAP1 DUP2 PUSH2 0xD00 SWAP2 SWAP1 PUSH2 0x2A05 JUMP JUMPDEST POP POP JUMP JUMPDEST PUSH1 0x1 PUSH1 0x1 PUSH1 0xA0 SHL SUB DUP2 AND PUSH0 SWAP1 DUP2 MSTORE PUSH1 0x7 PUSH1 0x20 MSTORE PUSH1 0x40 SWAP1 KECCAK256 PUSH1 0x6 DUP1 SLOAD PUSH1 0x4 SLOAD PUSH1 0x9 SWAP1 SWAP4 ADD SWAP3 PUSH2 0xD32 SWAP2 SWAP1 PUSH2 0x2B1F JUMP JUMPDEST DUP2 SLOAD DUP2 LT PUSH2 0xD42 JUMPI PUSH2 0xD42 PUSH2 0x2B32 JUMP JUMPDEST PUSH0 SWAP2 DUP3 MSTORE PUSH1 0x20 DUP1 DUP4 KECCAK256 DUP5 SLOAD PUSH1 0x1 DUP2 DUP2 ADD DUP8 SSTORE SWAP6 DUP6 MSTORE SWAP2 SWAP1 SWAP4 KECCAK256 PUSH1 0x2 SWAP3 DUP4 MUL SWAP1 SWAP4 ADD DUP1 SLOAD SWAP2 SWAP1 SWAP3 MUL SWAP1 SWAP3 ADD DUP1 SLOAD PUSH1 0x1 PUSH1 0x1 PUSH1 0xA0 SHL SUB NOT DUP2 AND PUSH1 0x1 PUSH1 0x1 PUSH1 0xA0 SHL SUB SWAP1 SWAP5 AND SWAP4 DUP5 OR DUP3 SSTORE DUP3 SLOAD PUSH1 0xFF PUSH1 0x1 PUSH1 0xA0 SHL SWAP2 DUP3 SWAP1 DIV AND ISZERO ISZERO MUL PUSH1 0x1 PUSH1 0x1 PUSH1 0xA8 SHL SUB NOT SWAP1 SWAP2 AND SWAP1 SWAP4 OR SWAP3 SWAP1 SWAP3 OR DUP3 SSTORE SWAP2 DUP2 DUP2 ADD SWAP1 PUSH2 0xDC0 SWAP1 DUP5 ADD DUP3 PUSH2 0x2B46 JUMP JUMPDEST POP POP POP PUSH1 0x1 PUSH1 0x1 PUSH1 0xA0 SHL SUB DUP2 AND PUSH0 SWAP1 DUP2 MSTORE PUSH1 0x7 PUSH1 0x20 MSTORE PUSH1 0x40 SWAP1 KECCAK256 PUSH1 0x6 DUP1 SLOAD PUSH1 0x4 SLOAD PUSH1 0x9 SWAP1 SWAP4 ADD SWAP3 PUSH2 0xDF3 SWAP1 PUSH1 0x2 SWAP1 PUSH2 0x2C06 JUMP JUMPDEST PUSH2 0xDFD SWAP2 SWAP1 PUSH2 0x2B1F JUMP JUMPDEST DUP2 SLOAD DUP2 LT PUSH2 0xE0D JUMPI PUSH2 0xE0D PUSH2 0x2B32 JUMP JUMPDEST PUSH0 SWAP2 DUP3 MSTORE PUSH1 0x20 DUP1 DUP4 KECCAK256 DUP5 SLOAD PUSH1 0x1 DUP2 DUP2 ADD DUP8 SSTORE SWAP6 DUP6 MSTORE SWAP2 SWAP1 SWAP4 KECCAK256 PUSH1 0x2 SWAP3 DUP4 MUL SWAP1 SWAP4 ADD DUP1 SLOAD SWAP2 SWAP1 SWAP3 MUL SWAP1 SWAP3 ADD DUP1 SLOAD PUSH1 0x1 PUSH1 0x1 PUSH1 0xA0 SHL SUB NOT DUP2 AND PUSH1 0x1 PUSH1 0x1 PUSH1 0xA0 SHL SUB SWAP1 SWAP5 AND SWAP4 DUP5 OR DUP3 SSTORE DUP3 SLOAD PUSH1 0xFF PUSH1 0x1 PUSH1 0xA0 SHL SWAP2 DUP3 SWAP1 DIV AND ISZERO ISZERO MUL PUSH1 0x1 PUSH1 0x1 PUSH1 0xA8 SHL SUB NOT SWAP1 SWAP2 AND SWAP1 SWAP4 OR SWAP3 SWAP1 SWAP3 OR DUP3 SSTORE SWAP2 DUP2 DUP2 ADD SWAP1 PUSH2 0xE8B SWAP1 DUP5 ADD DUP3 PUSH2 0x2B46 JUMP JUMPDEST POP POP POP PUSH1 0x1 PUSH1 0x1 PUSH1 0xA0 SHL SUB DUP2 AND PUSH0 SWAP1 DUP2 MSTORE PUSH1 0x7 PUSH1 0x20 MSTORE PUSH1 0x40 SWAP1 KECCAK256 PUSH1 0x6 DUP1 SLOAD PUSH1 0x4 SLOAD PUSH1 0x9 SWAP1 SWAP4 ADD SWAP3 PUSH2 0xEBD SWAP1 PUSH1 0x2 PUSH2 0x2C19 JUMP JUMPDEST PUSH2 0xEC7 SWAP2 SWAP1 PUSH2 0x2B1F JUMP JUMPDEST DUP2 SLOAD DUP2 LT PUSH2 0xED7 JUMPI PUSH2 0xED7 PUSH2 0x2B32 JUMP JUMPDEST PUSH0 SWAP2 DUP3 MSTORE PUSH1 0x20 DUP1 DUP4 KECCAK256 DUP5 SLOAD PUSH1 0x1 DUP2 DUP2 ADD DUP8 SSTORE SWAP6 DUP6 MSTORE SWAP2 SWAP1 SWAP4 KECCAK256 PUSH1 0x2 SWAP3 DUP4 MUL SWAP1 SWAP4 ADD DUP1 SLOAD SWAP2 SWAP1 SWAP3 MUL SWAP1 SWAP3 ADD DUP1 SLOAD PUSH1 0x1 PUSH1 0x1 PUSH1 0xA0 SHL SUB NOT DUP2 AND PUSH1 0x1 PUSH1 0x1 PUSH1 0xA0 SHL SUB SWAP1 SWAP5 AND SWAP4 DUP5 OR DUP3 SSTORE DUP3 SLOAD PUSH1 0xFF PUSH1 0x1 PUSH1 0xA0 SHL SWAP2 DUP3 SWAP1 DIV AND ISZERO ISZERO MUL PUSH1 0x1 PUSH1 0x1 PUSH1 0xA8 SHL SUB NOT SWAP1 SWAP2 AND SWAP1 SWAP4 OR SWAP3 SWAP1 SWAP3 OR DUP3 SSTORE SWAP2 DUP2 DUP2 ADD SWAP1 PUSH2 0xF55 SWAP1 DUP5 ADD DUP3 PUSH2 0x2B46 JUMP JUMPDEST POP POP CALLER PUSH0 SWAP1 DUP2 MSTORE PUSH1 0x7 PUSH1 0x20 MSTORE PUSH1 0x40 SWAP1 DUP2 SWAP1 KECCAK256 SWAP1 MLOAD PUSH32 0xFA063C0D91D11CD07031F9E7D11FBA9ABC774F3ABBA76B10CADB78AA5F19E966 SWAP3 POP PUSH2 0xF99 SWAP2 PUSH1 0x9 ADD SWAP1 PUSH2 0x2C30 JUMP JUMPDEST PUSH1 0x40 MLOAD DUP1 SWAP2 SUB SWAP1 LOG1 POP JUMP JUMPDEST PUSH0 DUP1 DUP1 PUSH2 0xFB2 DUP5 PUSH1 0x5 PUSH2 0x2C19 JUMP JUMPDEST PUSH2 0xFBE SWAP1 PUSH2 0x3E8 PUSH2 0x2C06 JUMP JUMPDEST SWAP1 POP PUSH0 PUSH2 0xFCD DUP3 PUSH2 0x3E8 PUSH2 0x2AF8 JUMP JUMPDEST SWAP1 POP PUSH0 MLOAD PUSH1 0x20 PUSH2 0x54CC PUSH0 CODECOPY PUSH0 MLOAD SWAP1 PUSH0 MSTORE PUSH2 0xFE9 DUP4 PUSH2 0x7D0 PUSH2 0x2AE5 JUMP JUMPDEST PUSH1 0x40 MLOAD PUSH2 0x103E SWAP2 SWAP1 PUSH1 0x40 DUP1 DUP3 MSTORE PUSH1 0x25 SWAP1 DUP3 ADD MSTORE PUSH32 0x5468652070726F706F6E656E742068617320746F20706179206120746F74616C PUSH1 0x60 DUP3 ADD MSTORE PUSH5 0x1037B31D1 PUSH1 0xDD SHL PUSH1 0x80 DUP3 ADD MSTORE PUSH1 0x20 DUP2 ADD SWAP2 SWAP1 SWAP2 MSTORE PUSH1 0xA0 ADD SWAP1 JUMP JUMPDEST PUSH1 0x40 MLOAD DUP1 SWAP2 SUB SWAP1 LOG1 PUSH1 0x40 DUP1 MLOAD DUP2 DUP2 MSTORE PUSH1 0x1C DUP2 DUP4 ADD MSTORE PUSH28 0x2B32B93930903430B9903A37903830BC9030903A37BA30B61037B31D PUSH1 0x21 SHL PUSH1 0x60 DUP3 ADD MSTORE PUSH1 0x20 DUP2 ADD DUP4 SWAP1 MSTORE SWAP1 MLOAD PUSH0 MLOAD PUSH1 0x20 PUSH2 0x54CC PUSH0 CODECOPY PUSH0 MLOAD SWAP1 PUSH0 MSTORE SWAP2 DUP2 SWAP1 SUB PUSH1 0x80 ADD SWAP1 LOG1 SWAP1 SWAP5 SWAP1 SWAP4 POP SWAP2 POP POP JUMP JUMPDEST CALLER PUSH0 SWAP1 DUP2 MSTORE PUSH1 0x7 PUSH1 0x20 MSTORE PUSH1 0x40 SWAP1 KECCAK256 PUSH1 0xA ADD DUP1 SLOAD DUP3 SWAP2 SWAP1 PUSH1 0xFF NOT AND PUSH1 0x1 DUP4 PUSH1 0x4 DUP2 GT ISZERO PUSH2 0x10D0 JUMPI PUSH2 0x10D0 PUSH2 0x242A JUMP JUMPDEST MUL OR SWAP1 SSTORE POP PUSH1 0x3 DUP2 PUSH1 0x4 DUP2 GT ISZERO PUSH2 0x10E9 JUMPI PUSH2 0x10E9 PUSH2 0x242A JUMP JUMPDEST EQ DUP1 PUSH2 0x1106 JUMPI POP PUSH1 0x4 DUP2 PUSH1 0x4 DUP2 GT ISZERO PUSH2 0x1104 JUMPI PUSH2 0x1104 PUSH2 0x242A JUMP JUMPDEST EQ JUMPDEST ISZERO PUSH2 0xAEC JUMPI PUSH2 0xBB8 SELFBALANCE LT PUSH2 0x164C JUMPI PUSH2 0x111C PUSH2 0x168F JUMP JUMPDEST ISZERO ISZERO PUSH1 0x1 SUB PUSH2 0x15F0 JUMPI CALLER PUSH0 SWAP1 DUP2 MSTORE PUSH1 0x7 PUSH1 0x20 SWAP1 DUP2 MSTORE PUSH1 0x40 SWAP2 DUP3 SWAP1 KECCAK256 DUP3 MLOAD PUSH2 0x180 DUP2 ADD DUP5 MSTORE DUP2 SLOAD DUP2 MSTORE PUSH1 0x1 DUP3 ADD SLOAD PUSH1 0x1 PUSH1 0x1 PUSH1 0xA0 SHL SUB AND SWAP3 DUP2 ADD SWAP3 SWAP1 SWAP3 MSTORE PUSH1 0x2 DUP2 ADD DUP1 SLOAD PUSH2 0xAEC SWAP5 DUP5 ADD SWAP2 SWAP1 PUSH2 0x1170 SWAP1 PUSH2 0x2970 JUMP JUMPDEST DUP1 PUSH1 0x1F ADD PUSH1 0x20 DUP1 SWAP2 DIV MUL PUSH1 0x20 ADD PUSH1 0x40 MLOAD SWAP1 DUP2 ADD PUSH1 0x40 MSTORE DUP1 SWAP3 SWAP2 SWAP1 DUP2 DUP2 MSTORE PUSH1 0x20 ADD DUP3 DUP1 SLOAD PUSH2 0x119C SWAP1 PUSH2 0x2970 JUMP JUMPDEST DUP1 ISZERO PUSH2 0x11E7 JUMPI DUP1 PUSH1 0x1F LT PUSH2 0x11BE JUMPI PUSH2 0x100 DUP1 DUP4 SLOAD DIV MUL DUP4 MSTORE SWAP2 PUSH1 0x20 ADD SWAP2 PUSH2 0x11E7 JUMP JUMPDEST DUP3 ADD SWAP2 SWAP1 PUSH0 MSTORE PUSH1 0x20 PUSH0 KECCAK256 SWAP1 JUMPDEST DUP2 SLOAD DUP2 MSTORE SWAP1 PUSH1 0x1 ADD SWAP1 PUSH1 0x20 ADD DUP1 DUP4 GT PUSH2 0x11CA JUMPI DUP3 SWAP1 SUB PUSH1 0x1F AND DUP3 ADD SWAP2 JUMPDEST POP POP POP POP POP DUP2 MSTORE PUSH1 0x20 ADD PUSH1 0x3 DUP3 ADD SLOAD DUP2 MSTORE PUSH1 0x20 ADD PUSH1 0x4 DUP3 ADD SLOAD DUP2 MSTORE PUSH1 0x20 ADD PUSH1 0x5 DUP3 ADD DUP1 SLOAD PUSH2 0x1214 SWAP1 PUSH2 0x2970 JUMP JUMPDEST DUP1 PUSH1 0x1F ADD PUSH1 0x20 DUP1 SWAP2 DIV MUL PUSH1 0x20 ADD PUSH1 0x40 MLOAD SWAP1 DUP2 ADD PUSH1 0x40 MSTORE DUP1 SWAP3 SWAP2 SWAP1 DUP2 DUP2 MSTORE PUSH1 0x20 ADD DUP3 DUP1 SLOAD PUSH2 0x1240 SWAP1 PUSH2 0x2970 JUMP JUMPDEST DUP1 ISZERO PUSH2 0x128B JUMPI DUP1 PUSH1 0x1F LT PUSH2 0x1262 JUMPI PUSH2 0x100 DUP1 DUP4 SLOAD DIV MUL DUP4 MSTORE SWAP2 PUSH1 0x20 ADD SWAP2 PUSH2 0x128B JUMP JUMPDEST DUP3 ADD SWAP2 SWAP1 PUSH0 MSTORE PUSH1 0x20 PUSH0 KECCAK256 SWAP1 JUMPDEST DUP2 SLOAD DUP2 MSTORE SWAP1 PUSH1 0x1 ADD SWAP1 PUSH1 0x20 ADD DUP1 DUP4 GT PUSH2 0x126E JUMPI DUP3 SWAP1 SUB PUSH1 0x1F AND DUP3 ADD SWAP2 JUMPDEST POP POP POP POP POP DUP2 MSTORE PUSH1 0x20 ADD PUSH1 0x6 DUP3 ADD SLOAD DUP2 MSTORE PUSH1 0x20 ADD PUSH1 0x7 DUP3 ADD DUP1 SLOAD PUSH2 0x12AE SWAP1 PUSH2 0x2970 JUMP JUMPDEST DUP1 PUSH1 0x1F ADD PUSH1 0x20 DUP1 SWAP2 DIV MUL PUSH1 0x20 ADD PUSH1 0x40 MLOAD SWAP1 DUP2 ADD PUSH1 0x40 MSTORE DUP1 SWAP3 SWAP2 SWAP1 DUP2 DUP2 MSTORE PUSH1 0x20 ADD DUP3 DUP1 SLOAD PUSH2 0x12DA SWAP1 PUSH2 0x2970 JUMP JUMPDEST DUP1 ISZERO PUSH2 0x1325 JUMPI DUP1 PUSH1 0x1F LT PUSH2 0x12FC JUMPI PUSH2 0x100 DUP1 DUP4 SLOAD DIV MUL DUP4 MSTORE SWAP2 PUSH1 0x20 ADD SWAP2 PUSH2 0x1325 JUMP JUMPDEST DUP3 ADD SWAP2 SWAP1 PUSH0 MSTORE PUSH1 0x20 PUSH0 KECCAK256 SWAP1 JUMPDEST DUP2 SLOAD DUP2 MSTORE SWAP1 PUSH1 0x1 ADD SWAP1 PUSH1 0x20 ADD DUP1 DUP4 GT PUSH2 0x1308 JUMPI DUP3 SWAP1 SUB PUSH1 0x1F AND DUP3 ADD SWAP2 JUMPDEST POP POP POP POP POP DUP2 MSTORE PUSH1 0x20 ADD PUSH1 0x8 DUP3 ADD DUP1 SLOAD PUSH2 0x133E SWAP1 PUSH2 0x2970 JUMP JUMPDEST DUP1 PUSH1 0x1F ADD PUSH1 0x20 DUP1 SWAP2 DIV MUL PUSH1 0x20 ADD PUSH1 0x40 MLOAD SWAP1 DUP2 ADD PUSH1 0x40 MSTORE DUP1 SWAP3 SWAP2 SWAP1 DUP2 DUP2 MSTORE PUSH1 0x20 ADD DUP3 DUP1 SLOAD PUSH2 0x136A SWAP1 PUSH2 0x2970 JUMP JUMPDEST DUP1 ISZERO PUSH2 0x13B5 JUMPI DUP1 PUSH1 0x1F LT PUSH2 0x138C JUMPI PUSH2 0x100 DUP1 DUP4 SLOAD DIV MUL DUP4 MSTORE SWAP2 PUSH1 0x20 ADD SWAP2 PUSH2 0x13B5 JUMP JUMPDEST DUP3 ADD SWAP2 SWAP1 PUSH0 MSTORE PUSH1 0x20 PUSH0 KECCAK256 SWAP1 JUMPDEST DUP2 SLOAD DUP2 MSTORE SWAP1 PUSH1 0x1 ADD SWAP1 PUSH1 0x20 ADD DUP1 DUP4 GT PUSH2 0x1398 JUMPI DUP3 SWAP1 SUB PUSH1 0x1F AND DUP3 ADD SWAP2 JUMPDEST POP POP POP POP POP DUP2 MSTORE PUSH1 0x20 ADD PUSH1 0x9 DUP3 ADD DUP1 SLOAD DUP1 PUSH1 0x20 MUL PUSH1 0x20 ADD PUSH1 0x40 MLOAD SWAP1 DUP2 ADD PUSH1 0x40 MSTORE DUP1 SWAP3 SWAP2 SWAP1 DUP2 DUP2 MSTORE PUSH1 0x20 ADD PUSH0 SWAP1 JUMPDEST DUP3 DUP3 LT ISZERO PUSH2 0x14CB JUMPI PUSH0 DUP5 DUP2 MSTORE PUSH1 0x20 SWAP1 DUP2 SWAP1 KECCAK256 PUSH1 0x40 DUP1 MLOAD PUSH1 0x60 DUP2 ADD DUP3 MSTORE PUSH1 0x2 DUP7 MUL SWAP1 SWAP3 ADD DUP1 SLOAD PUSH1 0x1 PUSH1 0x1 PUSH1 0xA0 SHL SUB DUP2 AND DUP5 MSTORE PUSH1 0x1 PUSH1 0xA0 SHL SWAP1 DIV PUSH1 0xFF AND ISZERO ISZERO SWAP4 DUP4 ADD SWAP4 SWAP1 SWAP4 MSTORE PUSH1 0x1 DUP4 ADD DUP1 SLOAD SWAP3 SWAP4 SWAP3 SWAP2 DUP5 ADD SWAP2 PUSH2 0x143C SWAP1 PUSH2 0x2970 JUMP JUMPDEST DUP1 PUSH1 0x1F ADD PUSH1 0x20 DUP1 SWAP2 DIV MUL PUSH1 0x20 ADD PUSH1 0x40 MLOAD SWAP1 DUP2 ADD PUSH1 0x40 MSTORE DUP1 SWAP3 SWAP2 SWAP1 DUP2 DUP2 MSTORE PUSH1 0x20 ADD DUP3 DUP1 SLOAD PUSH2 0x1468 SWAP1 PUSH2 0x2970 JUMP JUMPDEST DUP1 ISZERO PUSH2 0x14B3 JUMPI DUP1 PUSH1 0x1F LT PUSH2 0x148A JUMPI PUSH2 0x100 DUP1 DUP4 SLOAD DIV MUL DUP4 MSTORE SWAP2 PUSH1 0x20 ADD SWAP2 PUSH2 0x14B3 JUMP JUMPDEST DUP3 ADD SWAP2 SWAP1 PUSH0 MSTORE PUSH1 0x20 PUSH0 KECCAK256 SWAP1 JUMPDEST DUP2 SLOAD DUP2 MSTORE SWAP1 PUSH1 0x1 ADD SWAP1 PUSH1 0x20 ADD DUP1 DUP4 GT PUSH2 0x1496 JUMPI DUP3 SWAP1 SUB PUSH1 0x1F AND DUP3 ADD SWAP2 JUMPDEST POP POP POP POP POP DUP2 MSTORE POP POP DUP2 MSTORE PUSH1 0x20 ADD SWAP1 PUSH1 0x1 ADD SWAP1 PUSH2 0x13E2 JUMP JUMPDEST POP POP POP SWAP1 DUP3 MSTORE POP PUSH1 0xA DUP3 ADD SLOAD PUSH1 0x20 SWAP1 SWAP2 ADD SWAP1 PUSH1 0xFF AND PUSH1 0x4 DUP2 GT ISZERO PUSH2 0x14F1 JUMPI PUSH2 0x14F1 PUSH2 0x242A JUMP JUMPDEST PUSH1 0x4 DUP2 GT ISZERO PUSH2 0x1502 JUMPI PUSH2 0x1502 PUSH2 0x242A JUMP JUMPDEST DUP2 MSTORE PUSH1 0xA SWAP2 SWAP1 SWAP2 ADD SLOAD PUSH2 0x100 SWAP1 DIV PUSH1 0xFF AND ISZERO ISZERO PUSH1 0x20 SWAP2 DUP3 ADD MSTORE CALLER PUSH0 SWAP1 DUP2 MSTORE PUSH1 0x8 DUP3 MSTORE PUSH1 0x40 SWAP1 DUP2 SWAP1 KECCAK256 DUP2 MLOAD PUSH1 0x80 DUP2 ADD SWAP1 SWAP3 MSTORE DUP1 SLOAD PUSH1 0x1 PUSH1 0x1 PUSH1 0xA0 SHL SUB AND DUP3 MSTORE PUSH1 0x1 DUP2 ADD DUP1 SLOAD SWAP3 SWAP4 SWAP2 SWAP3 SWAP2 DUP5 ADD SWAP2 PUSH2 0x1557 SWAP1 PUSH2 0x2970 JUMP JUMPDEST DUP1 PUSH1 0x1F ADD PUSH1 0x20 DUP1 SWAP2 DIV MUL PUSH1 0x20 ADD PUSH1 0x40 MLOAD SWAP1 DUP2 ADD PUSH1 0x40 MSTORE DUP1 SWAP3 SWAP2 SWAP1 DUP2 DUP2 MSTORE PUSH1 0x20 ADD DUP3 DUP1 SLOAD PUSH2 0x1583 SWAP1 PUSH2 0x2970 JUMP JUMPDEST DUP1 ISZERO PUSH2 0x15CE JUMPI DUP1 PUSH1 0x1F LT PUSH2 0x15A5 JUMPI PUSH2 0x100 DUP1 DUP4 SLOAD DIV MUL DUP4 MSTORE SWAP2 PUSH1 0x20 ADD SWAP2 PUSH2 0x15CE JUMP JUMPDEST DUP3 ADD SWAP2 SWAP1 PUSH0 MSTORE PUSH1 0x20 PUSH0 KECCAK256 SWAP1 JUMPDEST DUP2 SLOAD DUP2 MSTORE SWAP1 PUSH1 0x1 ADD SWAP1 PUSH1 0x20 ADD DUP1 DUP4 GT PUSH2 0x15B1 JUMPI DUP3 SWAP1 SUB PUSH1 0x1F AND DUP3 ADD SWAP2 JUMPDEST POP POP POP POP POP DUP2 MSTORE PUSH1 0x20 ADD PUSH1 0x2 DUP3 ADD SLOAD DUP2 MSTORE PUSH1 0x20 ADD PUSH1 0x3 DUP3 ADD SLOAD DUP2 MSTORE POP POP PUSH2 0x1B16 JUMP JUMPDEST PUSH0 MLOAD PUSH1 0x20 PUSH2 0x550C PUSH0 CODECOPY PUSH0 MLOAD SWAP1 PUSH0 MSTORE PUSH1 0x40 MLOAD PUSH2 0xF99 SWAP1 PUSH1 0x20 DUP1 DUP3 MSTORE PUSH1 0x27 SWAP1 DUP3 ADD MSTORE PUSH32 0x4469646E277420706173732076616C69646174696F6E20616E64207665726966 PUSH1 0x40 DUP3 ADD MSTORE PUSH7 0x34B1B0BA34B7B7 PUSH1 0xC9 SHL PUSH1 0x60 DUP3 ADD MSTORE PUSH1 0x80 ADD SWAP1 JUMP JUMPDEST PUSH0 MLOAD PUSH1 0x20 PUSH2 0x550C PUSH0 CODECOPY PUSH0 MLOAD SWAP1 PUSH0 MSTORE PUSH1 0x40 MLOAD PUSH2 0xF99 SWAP1 PUSH1 0x20 DUP1 DUP3 MSTORE PUSH1 0x14 SWAP1 DUP3 ADD MSTORE PUSH20 0x139BDD08115B9BDD59DA0811195C1BDCDA5D1959 PUSH1 0x62 SHL PUSH1 0x40 DUP3 ADD MSTORE PUSH1 0x60 ADD SWAP1 JUMP JUMPDEST PUSH0 DUP1 DUP1 JUMPDEST PUSH1 0x3 DUP2 LT ISZERO PUSH2 0x16F4 JUMPI CALLER PUSH0 SWAP1 DUP2 MSTORE PUSH1 0x7 PUSH1 0x20 MSTORE PUSH1 0x40 SWAP1 KECCAK256 PUSH1 0x9 ADD DUP1 SLOAD DUP3 SWAP1 DUP2 LT PUSH2 0x16BF JUMPI PUSH2 0x16BF PUSH2 0x2B32 JUMP JUMPDEST PUSH0 SWAP2 DUP3 MSTORE PUSH1 0x20 SWAP1 SWAP2 KECCAK256 PUSH1 0x2 SWAP1 SWAP2 MUL ADD SLOAD PUSH1 0x1 PUSH1 0xA0 SHL SWAP1 DIV PUSH1 0xFF AND ISZERO PUSH2 0x16EC JUMPI PUSH2 0x16E9 PUSH1 0x1 DUP4 PUSH2 0x2AE5 JUMP JUMPDEST SWAP2 POP JUMPDEST PUSH1 0x1 ADD PUSH2 0x1693 JUMP JUMPDEST POP PUSH1 0x1 DUP2 GT ISZERO PUSH2 0x1706 JUMPI PUSH1 0x1 SWAP2 POP POP SWAP1 JUMP JUMPDEST PUSH0 SWAP2 POP POP SWAP1 JUMP JUMPDEST PUSH1 0x1 SLOAD PUSH1 0x40 MLOAD PUSH4 0x1EDD5FF9 PUSH1 0xE3 SHL DUP2 MSTORE PUSH0 PUSH1 0x4 DUP3 ADD MSTORE PUSH1 0x1 PUSH1 0x1 PUSH1 0xA0 SHL SUB SWAP1 SWAP2 AND SWAP1 PUSH4 0xF6EAFFC8 SWAP1 PUSH1 0x24 ADD PUSH1 0x20 PUSH1 0x40 MLOAD DUP1 DUP4 SUB DUP2 DUP7 GAS STATICCALL ISZERO DUP1 ISZERO PUSH2 0x1753 JUMPI RETURNDATASIZE PUSH0 PUSH0 RETURNDATACOPY RETURNDATASIZE PUSH0 REVERT JUMPDEST POP POP POP POP PUSH1 0x40 MLOAD RETURNDATASIZE PUSH1 0x1F NOT PUSH1 0x1F DUP3 ADD AND DUP3 ADD DUP1 PUSH1 0x40 MSTORE POP DUP2 ADD SWAP1 PUSH2 0x1777 SWAP2 SWAP1 PUSH2 0x2ABA JUMP JUMPDEST PUSH1 0x4 SSTORE JUMP JUMPDEST PUSH1 0x40 MLOAD PUSH2 0x1788 SWAP1 PUSH2 0x21F2 JUMP JUMPDEST PUSH1 0x40 MLOAD DUP1 SWAP2 SUB SWAP1 PUSH0 CREATE DUP1 ISZERO DUP1 ISZERO PUSH2 0x17A1 JUMPI RETURNDATASIZE PUSH0 PUSH0 RETURNDATACOPY RETURNDATASIZE PUSH0 REVERT JUMPDEST POP PUSH0 DUP1 SLOAD PUSH1 0x1 PUSH1 0x1 PUSH1 0xA0 SHL SUB NOT AND PUSH1 0x1 PUSH1 0x1 PUSH1 0xA0 SHL SUB SWAP3 SWAP1 SWAP3 AND SWAP2 SWAP1 SWAP2 OR SWAP1 SSTORE PUSH1 0x40 MLOAD PUSH32 0xA875277A12E63893E1833186CE951B68D5EFDC34E7DE005CF0D484D352E33D4A SWAP1 PUSH2 0x17EF SWAP1 PUSH2 0x21FF JUMP JUMPDEST SWAP1 DUP2 MSTORE PUSH1 0x20 ADD PUSH1 0x40 MLOAD DUP1 SWAP2 SUB SWAP1 PUSH0 CREATE DUP1 ISZERO DUP1 ISZERO PUSH2 0x180E JUMPI RETURNDATASIZE PUSH0 PUSH0 RETURNDATACOPY RETURNDATASIZE PUSH0 REVERT JUMPDEST POP PUSH1 0x1 DUP1 SLOAD PUSH1 0x1 PUSH1 0x1 PUSH1 0xA0 SHL SUB NOT AND PUSH1 0x1 PUSH1 0x1 PUSH1 0xA0 SHL SUB SWAP3 SWAP1 SWAP3 AND SWAP2 SWAP1 SWAP2 OR SWAP1 SSTORE JUMP JUMPDEST PUSH1 0x7 PUSH1 0x20 MSTORE PUSH0 SWAP1 DUP2 MSTORE PUSH1 0x40 SWAP1 KECCAK256 DUP1 SLOAD PUSH1 0x1 DUP3 ADD SLOAD PUSH1 0x2 DUP4 ADD DUP1 SLOAD SWAP3 SWAP4 PUSH1 0x1 PUSH1 0x1 PUSH1 0xA0 SHL SUB SWAP1 SWAP3 AND SWAP3 PUSH2 0x1862 SWAP1 PUSH2 0x2970 JUMP JUMPDEST DUP1 PUSH1 0x1F ADD PUSH1 0x20 DUP1 SWAP2 DIV MUL PUSH1 0x20 ADD PUSH1 0x40 MLOAD SWAP1 DUP2 ADD PUSH1 0x40 MSTORE DUP1 SWAP3 SWAP2 SWAP1 DUP2 DUP2 MSTORE PUSH1 0x20 ADD DUP3 DUP1 SLOAD PUSH2 0x188E SWAP1 PUSH2 0x2970 JUMP JUMPDEST DUP1 ISZERO PUSH2 0x18D9 JUMPI DUP1 PUSH1 0x1F LT PUSH2 0x18B0 JUMPI PUSH2 0x100 DUP1 DUP4 SLOAD DIV MUL DUP4 MSTORE SWAP2 PUSH1 0x20 ADD SWAP2 PUSH2 0x18D9 JUMP JUMPDEST DUP3 ADD SWAP2 SWAP1 PUSH0 MSTORE PUSH1 0x20 PUSH0 KECCAK256 SWAP1 JUMPDEST DUP2 SLOAD DUP2 MSTORE SWAP1 PUSH1 0x1 ADD SWAP1 PUSH1 0x20 ADD DUP1 DUP4 GT PUSH2 0x18BC JUMPI DUP3 SWAP1 SUB PUSH1 0x1F AND DUP3 ADD SWAP2 JUMPDEST POP POP POP POP POP SWAP1 DUP1 PUSH1 0x3 ADD SLOAD SWAP1 DUP1 PUSH1 0x4 ADD SLOAD SWAP1 DUP1 PUSH1 0x5 ADD DUP1 SLOAD PUSH2 0x18FA SWAP1 PUSH2 0x2970 JUMP JUMPDEST DUP1 PUSH1 0x1F ADD PUSH1 0x20 DUP1 SWAP2 DIV MUL PUSH1 0x20 ADD PUSH1 0x40 MLOAD SWAP1 DUP2 ADD PUSH1 0x40 MSTORE DUP1 SWAP3 SWAP2 SWAP1 DUP2 DUP2 MSTORE PUSH1 0x20 ADD DUP3 DUP1 SLOAD PUSH2 0x1926 SWAP1 PUSH2 0x2970 JUMP JUMPDEST DUP1 ISZERO PUSH2 0x1971 JUMPI DUP1 PUSH1 0x1F LT PUSH2 0x1948 JUMPI PUSH2 0x100 DUP1 DUP4 SLOAD DIV MUL DUP4 MSTORE SWAP2 PUSH1 0x20 ADD SWAP2 PUSH2 0x1971 JUMP JUMPDEST DUP3 ADD SWAP2 SWAP1 PUSH0 MSTORE PUSH1 0x20 PUSH0 KECCAK256 SWAP1 JUMPDEST DUP2 SLOAD DUP2 MSTORE SWAP1 PUSH1 0x1 ADD SWAP1 PUSH1 0x20 ADD DUP1 DUP4 GT PUSH2 0x1954 JUMPI DUP3 SWAP1 SUB PUSH1 0x1F AND DUP3 ADD SWAP2 JUMPDEST POP POP POP POP POP SWAP1 DUP1 PUSH1 0x6 ADD SLOAD SWAP1 DUP1 PUSH1 0x7 ADD DUP1 SLOAD PUSH2 0x198C SWAP1 PUSH2 0x2970 JUMP JUMPDEST DUP1 PUSH1 0x1F ADD PUSH1 0x20 DUP1 SWAP2 DIV MUL PUSH1 0x20 ADD PUSH1 0x40 MLOAD SWAP1 DUP2 ADD PUSH1 0x40 MSTORE DUP1 SWAP3 SWAP2 SWAP1 DUP2 DUP2 MSTORE PUSH1 0x20 ADD DUP3 DUP1 SLOAD PUSH2 0x19B8 SWAP1 PUSH2 0x2970 JUMP JUMPDEST DUP1 ISZERO PUSH2 0x1A03 JUMPI DUP1 PUSH1 0x1F LT PUSH2 0x19DA JUMPI PUSH2 0x100 DUP1 DUP4 SLOAD DIV MUL DUP4 MSTORE SWAP2 PUSH1 0x20 ADD SWAP2 PUSH2 0x1A03 JUMP JUMPDEST DUP3 ADD SWAP2 SWAP1 PUSH0 MSTORE PUSH1 0x20 PUSH0 KECCAK256 SWAP1 JUMPDEST DUP2 SLOAD DUP2 MSTORE SWAP1 PUSH1 0x1 ADD SWAP1 PUSH1 0x20 ADD DUP1 DUP4 GT PUSH2 0x19E6 JUMPI DUP3 SWAP1 SUB PUSH1 0x1F AND DUP3 ADD SWAP2 JUMPDEST POP POP POP POP POP SWAP1 DUP1 PUSH1 0x8 ADD DUP1 SLOAD PUSH2 0x1A18 SWAP1 PUSH2 0x2970 JUMP JUMPDEST DUP1 PUSH1 0x1F ADD PUSH1 0x20 DUP1 SWAP2 DIV MUL PUSH1 0x20 ADD PUSH1 0x40 MLOAD SWAP1 DUP2 ADD PUSH1 0x40 MSTORE DUP1 SWAP3 SWAP2 SWAP1 DUP2 DUP2 MSTORE PUSH1 0x20 ADD DUP3 DUP1 SLOAD PUSH2 0x1A44 SWAP1 PUSH2 0x2970 JUMP JUMPDEST DUP1 ISZERO PUSH2 0x1A8F JUMPI DUP1 PUSH1 0x1F LT PUSH2 0x1A66 JUMPI PUSH2 0x100 DUP1 DUP4 SLOAD DIV MUL DUP4 MSTORE SWAP2 PUSH1 0x20 ADD SWAP2 PUSH2 0x1A8F JUMP JUMPDEST DUP3 ADD SWAP2 SWAP1 PUSH0 MSTORE PUSH1 0x20 PUSH0 KECCAK256 SWAP1 JUMPDEST DUP2 SLOAD DUP2 MSTORE SWAP1 PUSH1 0x1 ADD SWAP1 PUSH1 0x20 ADD DUP1 DUP4 GT PUSH2 0x1A72 JUMPI DUP3 SWAP1 SUB PUSH1 0x1F AND DUP3 ADD SWAP2 JUMPDEST POP POP POP PUSH1 0xA SWAP1 SWAP4 ADD SLOAD SWAP2 SWAP3 POP POP PUSH1 0xFF DUP1 DUP3 AND SWAP2 PUSH2 0x100 SWAP1 DIV AND DUP12 JUMP JUMPDEST CALLER PUSH0 SWAP1 DUP2 MSTORE PUSH1 0x8 PUSH1 0x20 SWAP1 DUP2 MSTORE PUSH1 0x40 SWAP2 DUP3 SWAP1 KECCAK256 DUP3 MLOAD DUP1 DUP5 ADD SWAP1 SWAP4 MSTORE PUSH1 0x3 DUP4 MSTORE PUSH3 0x53616D PUSH1 0xE8 SHL SWAP2 DUP4 ADD SWAP2 SWAP1 SWAP2 MSTORE SWAP1 PUSH1 0x1 DUP3 ADD SWAP1 PUSH2 0x1AE7 SWAP1 DUP3 PUSH2 0x2A05 JUMP JUMPDEST POP DUP1 SLOAD PUSH1 0x1 PUSH1 0x1 PUSH1 0xA0 SHL SUB NOT AND PUSH0 MLOAD PUSH1 0x20 PUSH2 0x54AC PUSH0 CODECOPY PUSH0 MLOAD SWAP1 PUSH0 MSTORE OR DUP2 SSTORE PUSH1 0x7 PUSH1 0x2 DUP3 ADD SSTORE PUSH1 0x1 PUSH1 0x3 SWAP1 SWAP2 ADD SSTORE JUMP JUMPDEST PUSH0 PUSH0 PUSH2 0x1B25 DUP4 PUSH1 0x40 ADD MLOAD PUSH2 0xFA4 JUMP JUMPDEST SWAP2 POP SWAP2 POP PUSH2 0x1B31 PUSH2 0x2001 JUMP JUMPDEST PUSH1 0x3 DUP5 PUSH2 0x140 ADD MLOAD PUSH1 0x4 DUP2 GT ISZERO PUSH2 0x1B4A JUMPI PUSH2 0x1B4A PUSH2 0x242A JUMP JUMPDEST SUB PUSH2 0x1BB9 JUMPI PUSH1 0x40 DUP1 MLOAD DUP2 DUP2 MSTORE PUSH1 0xD DUP2 DUP4 ADD MSTORE PUSH13 0x1A5B9D1BC8185C1C1C9BDD9959 PUSH1 0x9A SHL PUSH1 0x60 DUP3 ADD MSTORE PUSH1 0x1 PUSH1 0x20 DUP3 ADD MSTORE SWAP1 MLOAD PUSH0 MLOAD PUSH1 0x20 PUSH2 0x54CC PUSH0 CODECOPY PUSH0 MLOAD SWAP1 PUSH0 MSTORE SWAP2 DUP2 SWAP1 SUB PUSH1 0x80 ADD SWAP1 LOG1 DUP3 MLOAD PUSH2 0x1B9E SWAP1 DUP4 PUSH2 0x2095 JUMP JUMPDEST PUSH1 0x1 DUP4 PUSH1 0x40 ADD DUP2 DUP2 MLOAD PUSH2 0x1BB1 SWAP2 SWAP1 PUSH2 0x2AE5 JUMP JUMPDEST SWAP1 MSTORE POP PUSH2 0x1BEE JUMP JUMPDEST PUSH1 0x4 DUP5 PUSH2 0x140 ADD MLOAD PUSH1 0x4 DUP2 GT ISZERO PUSH2 0x1BD2 JUMPI PUSH2 0x1BD2 PUSH2 0x242A JUMP JUMPDEST SUB PUSH2 0x1BEE JUMPI PUSH1 0x1 DUP4 PUSH1 0x40 ADD DUP2 DUP2 MLOAD PUSH2 0x1BEA SWAP2 SWAP1 PUSH2 0x2AF8 JUMP JUMPDEST SWAP1 MSTORE POP JUMPDEST PUSH1 0x2 PUSH1 0x40 MLOAD PUSH1 0x20 ADD PUSH2 0x1C00 SWAP2 SWAP1 PUSH2 0x2D5C JUMP JUMPDEST PUSH1 0x40 MLOAD PUSH1 0x20 DUP2 DUP4 SUB SUB DUP2 MSTORE SWAP1 PUSH1 0x40 MSTORE DUP1 MLOAD SWAP1 PUSH1 0x20 ADD KECCAK256 PUSH1 0x3 PUSH1 0x40 MLOAD PUSH1 0x20 ADD PUSH2 0x1C28 SWAP2 SWAP1 PUSH2 0x2D5C JUMP JUMPDEST PUSH1 0x40 MLOAD PUSH1 0x20 DUP2 DUP4 SUB SUB DUP2 MSTORE SWAP1 PUSH1 0x40 MSTORE DUP1 MLOAD SWAP1 PUSH1 0x20 ADD KECCAK256 SUB PUSH2 0x1CB8 JUMPI PUSH2 0x1C82 DUP5 PUSH2 0x120 ADD MLOAD PUSH0 DUP2 MLOAD DUP2 LT PUSH2 0x1C5D JUMPI PUSH2 0x1C5D PUSH2 0x2B32 JUMP JUMPDEST PUSH1 0x20 MUL PUSH1 0x20 ADD ADD MLOAD PUSH0 ADD MLOAD PUSH1 0x3 DUP4 PUSH2 0x7D0 PUSH2 0x1C78 SWAP2 SWAP1 PUSH2 0x2AE5 JUMP JUMPDEST PUSH2 0x3C0 SWAP2 SWAP1 PUSH2 0x2C06 JUMP JUMPDEST PUSH2 0x1C9D DUP5 PUSH2 0x120 ADD MLOAD PUSH1 0x1 DUP2 MLOAD DUP2 LT PUSH2 0x1C5D JUMPI PUSH2 0x1C5D PUSH2 0x2B32 JUMP JUMPDEST PUSH2 0x1CB8 DUP5 PUSH2 0x120 ADD MLOAD PUSH1 0x2 DUP2 MLOAD DUP2 LT PUSH2 0x1C5D JUMPI PUSH2 0x1C5D PUSH2 0x2B32 JUMP JUMPDEST DUP3 MLOAD PUSH2 0x1CC3 SWAP1 PUSH2 0xA42 JUMP JUMPDEST PUSH2 0x1CE1 PUSH20 0x5B38DA6A701C568545DCFCB03FCB875F56BEDDC4 SELFBALANCE PUSH2 0x2095 JUMP JUMPDEST PUSH0 MLOAD PUSH1 0x20 PUSH2 0x54CC PUSH0 CODECOPY PUSH0 MLOAD SWAP1 PUSH0 MSTORE DUP4 PUSH1 0x60 ADD MLOAD PUSH1 0x40 MLOAD PUSH2 0x1D26 SWAP2 SWAP1 PUSH1 0x40 DUP1 DUP3 MSTORE PUSH1 0x8 SWAP1 DUP3 ADD MSTORE PUSH8 0x72657053636F7265 PUSH1 0xC0 SHL PUSH1 0x60 DUP3 ADD MSTORE PUSH1 0x20 DUP2 ADD SWAP2 SWAP1 SWAP2 MSTORE PUSH1 0x80 ADD SWAP1 JUMP JUMPDEST PUSH1 0x40 MLOAD DUP1 SWAP2 SUB SWAP1 LOG1 PUSH1 0x40 DUP1 MLOAD DUP2 DUP2 MSTORE PUSH1 0x12 DUP2 DUP4 ADD MSTORE PUSH18 0x6D73672E73656E6465722042616C616E6365 PUSH1 0x70 SHL PUSH1 0x60 DUP3 ADD MSTORE CALLER BALANCE PUSH1 0x20 DUP3 ADD MSTORE SWAP1 MLOAD PUSH0 MLOAD PUSH1 0x20 PUSH2 0x54CC PUSH0 CODECOPY PUSH0 MLOAD SWAP1 PUSH0 MSTORE SWAP2 DUP2 SWAP1 SUB PUSH1 0x80 ADD SWAP1 LOG1 POP POP POP POP JUMP JUMPDEST CALLER PUSH0 SWAP1 DUP2 MSTORE PUSH1 0x7 PUSH1 0x20 SWAP1 DUP2 MSTORE PUSH1 0x40 DUP1 DUP4 KECCAK256 PUSH1 0x9 ADD DUP1 SLOAD DUP3 MLOAD DUP2 DUP6 MUL DUP2 ADD DUP6 ADD SWAP1 SWAP4 MSTORE DUP1 DUP4 MSTORE PUSH1 0x60 SWAP5 SWAP3 SWAP4 SWAP2 SWAP3 SWAP1 SWAP2 DUP5 ADD JUMPDEST DUP3 DUP3 LT ISZERO PUSH2 0x1E96 JUMPI PUSH0 DUP5 DUP2 MSTORE PUSH1 0x20 SWAP1 DUP2 SWAP1 KECCAK256 PUSH1 0x40 DUP1 MLOAD PUSH1 0x60 DUP2 ADD DUP3 MSTORE PUSH1 0x2 DUP7 MUL SWAP1 SWAP3 ADD DUP1 SLOAD PUSH1 0x1 PUSH1 0x1 PUSH1 0xA0 SHL SUB DUP2 AND DUP5 MSTORE PUSH1 0x1 PUSH1 0xA0 SHL SWAP1 DIV PUSH1 0xFF AND ISZERO ISZERO SWAP4 DUP4 ADD SWAP4 SWAP1 SWAP4 MSTORE PUSH1 0x1 DUP4 ADD DUP1 SLOAD SWAP3 SWAP4 SWAP3 SWAP2 DUP5 ADD SWAP2 PUSH2 0x1E07 SWAP1 PUSH2 0x2970 JUMP JUMPDEST DUP1 PUSH1 0x1F ADD PUSH1 0x20 DUP1 SWAP2 DIV MUL PUSH1 0x20 ADD PUSH1 0x40 MLOAD SWAP1 DUP2 ADD PUSH1 0x40 MSTORE DUP1 SWAP3 SWAP2 SWAP1 DUP2 DUP2 MSTORE PUSH1 0x20 ADD DUP3 DUP1 SLOAD PUSH2 0x1E33 SWAP1 PUSH2 0x2970 JUMP JUMPDEST DUP1 ISZERO PUSH2 0x1E7E JUMPI DUP1 PUSH1 0x1F LT PUSH2 0x1E55 JUMPI PUSH2 0x100 DUP1 DUP4 SLOAD DIV MUL DUP4 MSTORE SWAP2 PUSH1 0x20 ADD SWAP2 PUSH2 0x1E7E JUMP JUMPDEST DUP3 ADD SWAP2 SWAP1 PUSH0 MSTORE PUSH1 0x20 PUSH0 KECCAK256 SWAP1 JUMPDEST DUP2 SLOAD DUP2 MSTORE SWAP1 PUSH1 0x1 ADD SWAP1 PUSH1 0x20 ADD DUP1 DUP4 GT PUSH2 0x1E61 JUMPI DUP3 SWAP1 SUB PUSH1 0x1F AND DUP3 ADD SWAP2 JUMPDEST POP POP POP POP POP DUP2 MSTORE POP POP DUP2 MSTORE PUSH1 0x20 ADD SWAP1 PUSH1 0x1 ADD SWAP1 PUSH2 0x1DAD JUMP JUMPDEST POP POP POP POP SWAP1 POP SWAP1 JUMP JUMPDEST PUSH1 0x3 DUP1 SLOAD PUSH2 0x1EAC SWAP1 PUSH2 0x2970 JUMP JUMPDEST DUP1 PUSH1 0x1F ADD PUSH1 0x20 DUP1 SWAP2 DIV MUL PUSH1 0x20 ADD PUSH1 0x40 MLOAD SWAP1 DUP2 ADD PUSH1 0x40 MSTORE DUP1 SWAP3 SWAP2 SWAP1 DUP2 DUP2 MSTORE PUSH1 0x20 ADD DUP3 DUP1 SLOAD PUSH2 0x1ED8 SWAP1 PUSH2 0x2970 JUMP JUMPDEST DUP1 ISZERO PUSH2 0x1F23 JUMPI DUP1 PUSH1 0x1F LT PUSH2 0x1EFA JUMPI PUSH2 0x100 DUP1 DUP4 SLOAD DIV MUL DUP4 MSTORE SWAP2 PUSH1 0x20 ADD SWAP2 PUSH2 0x1F23 JUMP JUMPDEST DUP3 ADD SWAP2 SWAP1 PUSH0 MSTORE PUSH1 0x20 PUSH0 KECCAK256 SWAP1 JUMPDEST DUP2 SLOAD DUP2 MSTORE SWAP1 PUSH1 0x1 ADD SWAP1 PUSH1 0x20 ADD DUP1 DUP4 GT PUSH2 0x1F06 JUMPI DUP3 SWAP1 SUB PUSH1 0x1F AND DUP3 ADD SWAP2 JUMPDEST POP POP POP POP POP DUP2 JUMP JUMPDEST PUSH1 0x6 DUP2 DUP2 SLOAD DUP2 LT PUSH2 0x1F3A JUMPI PUSH0 DUP1 REVERT JUMPDEST PUSH0 SWAP2 DUP3 MSTORE PUSH1 0x20 SWAP1 SWAP2 KECCAK256 PUSH1 0x2 SWAP1 SWAP2 MUL ADD DUP1 SLOAD PUSH1 0x1 DUP3 ADD DUP1 SLOAD PUSH1 0x1 PUSH1 0x1 PUSH1 0xA0 SHL SUB DUP4 AND SWAP5 POP PUSH1 0x1 PUSH1 0xA0 SHL SWAP1 SWAP3 DIV PUSH1 0xFF AND SWAP3 SWAP2 PUSH2 0x1F73 SWAP1 PUSH2 0x2970 JUMP JUMPDEST DUP1 PUSH1 0x1F ADD PUSH1 0x20 DUP1 SWAP2 DIV MUL PUSH1 0x20 ADD PUSH1 0x40 MLOAD SWAP1 DUP2 ADD PUSH1 0x40 MSTORE DUP1 SWAP3 SWAP2 SWAP1 DUP2 DUP2 MSTORE PUSH1 0x20 ADD DUP3 DUP1 SLOAD PUSH2 0x1F9F SWAP1 PUSH2 0x2970 JUMP JUMPDEST DUP1 ISZERO PUSH2 0x1FEA JUMPI DUP1 PUSH1 0x1F LT PUSH2 0x1FC1 JUMPI PUSH2 0x100 DUP1 DUP4 SLOAD DIV MUL DUP4 MSTORE SWAP2 PUSH1 0x20 ADD SWAP2 PUSH2 0x1FEA JUMP JUMPDEST DUP3 ADD SWAP2 SWAP1 PUSH0 MSTORE PUSH1 0x20 PUSH0 KECCAK256 SWAP1 JUMPDEST DUP2 SLOAD DUP2 MSTORE SWAP1 PUSH1 0x1 ADD SWAP1 PUSH1 0x20 ADD DUP1 DUP4 GT PUSH2 0x1FCD JUMPI DUP3 SWAP1 SUB PUSH1 0x1F AND DUP3 ADD SWAP2 JUMPDEST POP POP POP POP POP SWAP1 POP DUP4 JUMP JUMPDEST PUSH1 0x2 DUP1 SLOAD PUSH2 0x1EAC SWAP1 PUSH2 0x2970 JUMP JUMPDEST PUSH1 0x5 SLOAD PUSH1 0xFF AND ISZERO ISZERO PUSH1 0x1 SUB PUSH2 0x2088 JUMPI PUSH0 DUP1 SLOAD PUSH1 0x40 DUP1 MLOAD PUSH4 0x5C37AC7F PUSH1 0xE1 SHL DUP2 MSTORE SWAP1 MLOAD PUSH1 0x1 PUSH1 0x1 PUSH1 0xA0 SHL SUB SWAP1 SWAP3 AND SWAP3 PUSH4 0xB86F58FE SWAP3 PUSH1 0x4 DUP1 DUP5 ADD SWAP4 DUP3 SWAP1 SUB ADD DUP2 DUP7 GAS STATICCALL ISZERO DUP1 ISZERO PUSH2 0x2052 JUMPI RETURNDATASIZE PUSH0 PUSH0 RETURNDATACOPY RETURNDATASIZE PUSH0 REVERT JUMPDEST POP POP POP POP PUSH1 0x40 MLOAD RETURNDATASIZE PUSH0 DUP3 RETURNDATACOPY PUSH1 0x1F RETURNDATASIZE SWAP1 DUP2 ADD PUSH1 0x1F NOT AND DUP3 ADD PUSH1 0x40 MSTORE PUSH2 0x2079 SWAP2 SWAP1 DUP2 ADD SWAP1 PUSH2 0x2DCD JUMP JUMPDEST PUSH1 0x2 SWAP1 PUSH2 0x2086 SWAP1 DUP3 PUSH2 0x2A05 JUMP JUMPDEST POP JUMPDEST PUSH1 0x3 PUSH2 0xAEC PUSH1 0x2 DUP3 PUSH2 0x2B46 JUMP JUMPDEST PUSH0 PUSH0 DUP4 PUSH1 0x1 PUSH1 0x1 PUSH1 0xA0 SHL SUB AND DUP4 PUSH1 0x40 MLOAD PUSH0 PUSH1 0x40 MLOAD DUP1 DUP4 SUB DUP2 DUP6 DUP8 GAS CALL SWAP3 POP POP POP RETURNDATASIZE DUP1 PUSH0 DUP2 EQ PUSH2 0x20DF JUMPI PUSH1 0x40 MLOAD SWAP2 POP PUSH1 0x1F NOT PUSH1 0x3F RETURNDATASIZE ADD AND DUP3 ADD PUSH1 0x40 MSTORE RETURNDATASIZE DUP3 MSTORE RETURNDATASIZE PUSH0 PUSH1 0x20 DUP5 ADD RETURNDATACOPY PUSH2 0x20E4 JUMP JUMPDEST PUSH1 0x60 SWAP2 POP JUMPDEST POP POP POP POP POP POP POP JUMP JUMPDEST PUSH1 0x8 PUSH1 0x20 MSTORE PUSH0 SWAP1 DUP2 MSTORE PUSH1 0x40 SWAP1 KECCAK256 DUP1 SLOAD PUSH1 0x1 DUP3 ADD DUP1 SLOAD PUSH1 0x1 PUSH1 0x1 PUSH1 0xA0 SHL SUB SWAP1 SWAP3 AND SWAP3 SWAP2 PUSH2 0x2118 SWAP1 PUSH2 0x2970 JUMP JUMPDEST DUP1 PUSH1 0x1F ADD PUSH1 0x20 DUP1 SWAP2 DIV MUL PUSH1 0x20 ADD PUSH1 0x40 MLOAD SWAP1 DUP2 ADD PUSH1 0x40 MSTORE DUP1 SWAP3 SWAP2 SWAP1 DUP2 DUP2 MSTORE PUSH1 0x20 ADD DUP3 DUP1 SLOAD PUSH2 0x2144 SWAP1 PUSH2 0x2970 JUMP JUMPDEST DUP1 ISZERO PUSH2 0x218F JUMPI DUP1 PUSH1 0x1F LT PUSH2 0x2166 JUMPI PUSH2 0x100 DUP1 DUP4 SLOAD DIV MUL DUP4 MSTORE SWAP2 PUSH1 0x20 ADD SWAP2 PUSH2 0x218F JUMP JUMPDEST DUP3 ADD SWAP2 SWAP1 PUSH0 MSTORE PUSH1 0x20 PUSH0 KECCAK256 SWAP1 JUMPDEST DUP2 SLOAD DUP2 MSTORE SWAP1 PUSH1 0x1 ADD SWAP1 PUSH1 0x20 ADD DUP1 DUP4 GT PUSH2 0x2172 JUMPI DUP3 SWAP1 SUB PUSH1 0x1F AND DUP3 ADD SWAP2 JUMPDEST POP POP POP POP POP SWAP1 DUP1 PUSH1 0x2 ADD SLOAD SWAP1 DUP1 PUSH1 0x3 ADD SLOAD SWAP1 POP DUP5 JUMP JUMPDEST PUSH0 DUP2 PUSH1 0x4 SUB PUSH2 0x21B6 JUMPI POP PUSH1 0x3 SWAP2 SWAP1 POP JUMP JUMPDEST DUP2 PUSH1 0x3 SUB PUSH2 0x21C6 JUMPI POP PUSH1 0x4 SWAP2 SWAP1 POP JUMP JUMPDEST DUP2 PUSH1 0x2 SUB PUSH2 0x21D6 JUMPI POP PUSH1 0x2 SWAP2 SWAP1 POP JUMP JUMPDEST DUP2 PUSH1 0x1 SUB PUSH2 0x21E6 JUMPI POP PUSH1 0x1 SWAP2 SWAP1 POP JUMP JUMPDEST POP PUSH0 SWAP2 SWAP1 POP JUMP JUMPDEST SWAP2 SWAP1 POP JUMP JUMPDEST PUSH2 0x1B9B DUP1 PUSH2 0x2E42 DUP4 CODECOPY ADD SWAP1 JUMP JUMPDEST PUSH2 0xAAF DUP1 PUSH2 0x49DD DUP4 CODECOPY ADD SWAP1 JUMP JUMPDEST PUSH1 0x1 PUSH1 0x1 PUSH1 0xA0 SHL SUB DUP2 AND DUP2 EQ PUSH2 0xAEC JUMPI PUSH0 PUSH0 REVERT JUMPDEST DUP1 CALLDATALOAD DUP1 ISZERO ISZERO DUP2 EQ PUSH2 0x21ED JUMPI PUSH0 PUSH0 REVERT JUMPDEST PUSH4 0x4E487B71 PUSH1 0xE0 SHL PUSH0 MSTORE PUSH1 0x41 PUSH1 0x4 MSTORE PUSH1 0x24 PUSH0 REVERT JUMPDEST PUSH1 0x40 MLOAD PUSH1 0x60 DUP2 ADD PUSH1 0x1 PUSH1 0x1 PUSH1 0x40 SHL SUB DUP2 GT DUP3 DUP3 LT OR ISZERO PUSH2 0x2265 JUMPI PUSH2 0x2265 PUSH2 0x222F JUMP JUMPDEST PUSH1 0x40 MSTORE SWAP1 JUMP JUMPDEST PUSH1 0x40 MLOAD PUSH2 0x180 DUP2 ADD PUSH1 0x1 PUSH1 0x1 PUSH1 0x40 SHL SUB DUP2 GT DUP3 DUP3 LT OR ISZERO PUSH2 0x2265 JUMPI PUSH2 0x2265 PUSH2 0x222F JUMP JUMPDEST PUSH1 0x40 MLOAD PUSH1 0x1F DUP3 ADD PUSH1 0x1F NOT AND DUP2 ADD PUSH1 0x1 PUSH1 0x1 PUSH1 0x40 SHL SUB DUP2 GT DUP3 DUP3 LT OR ISZERO PUSH2 0x22B6 JUMPI PUSH2 0x22B6 PUSH2 0x222F JUMP JUMPDEST PUSH1 0x40 MSTORE SWAP2 SWAP1 POP JUMP JUMPDEST PUSH0 PUSH1 0x1 PUSH1 0x1 PUSH1 0x40 SHL SUB DUP3 GT ISZERO PUSH2 0x22D6 JUMPI PUSH2 0x22D6 PUSH2 0x222F JUMP JUMPDEST POP PUSH1 0x1F ADD PUSH1 0x1F NOT AND PUSH1 0x20 ADD SWAP1 JUMP JUMPDEST PUSH0 DUP3 PUSH1 0x1F DUP4 ADD SLT PUSH2 0x22F3 JUMPI PUSH0 PUSH0 REVERT JUMPDEST DUP2 CALLDATALOAD PUSH2 0x2306 PUSH2 0x2301 DUP3 PUSH2 0x22BE JUMP JUMPDEST PUSH2 0x228E JUMP JUMPDEST DUP2 DUP2 MSTORE DUP5 PUSH1 0x20 DUP4 DUP7 ADD ADD GT ISZERO PUSH2 0x231A JUMPI PUSH0 PUSH0 REVERT JUMPDEST DUP2 PUSH1 0x20 DUP6 ADD PUSH1 0x20 DUP4 ADD CALLDATACOPY PUSH0 SWAP2 DUP2 ADD PUSH1 0x20 ADD SWAP2 SWAP1 SWAP2 MSTORE SWAP4 SWAP3 POP POP POP JUMP JUMPDEST PUSH0 PUSH0 PUSH0 PUSH1 0x60 DUP5 DUP7 SUB SLT ISZERO PUSH2 0x2348 JUMPI PUSH0 PUSH0 REVERT JUMPDEST DUP4 CALLDATALOAD PUSH2 0x2353 DUP2 PUSH2 0x220C JUMP JUMPDEST SWAP3 POP PUSH2 0x2361 PUSH1 0x20 DUP6 ADD PUSH2 0x2220 JUMP JUMPDEST SWAP2 POP PUSH1 0x40 DUP5 ADD CALLDATALOAD PUSH1 0x1 PUSH1 0x1 PUSH1 0x40 SHL SUB DUP2 GT ISZERO PUSH2 0x237B JUMPI PUSH0 PUSH0 REVERT JUMPDEST PUSH2 0x2387 DUP7 DUP3 DUP8 ADD PUSH2 0x22E4 JUMP JUMPDEST SWAP2 POP POP SWAP3 POP SWAP3 POP SWAP3 JUMP JUMPDEST PUSH0 PUSH1 0x20 DUP3 DUP5 SUB SLT ISZERO PUSH2 0x23A1 JUMPI PUSH0 PUSH0 REVERT JUMPDEST DUP2 CALLDATALOAD PUSH2 0x23AC DUP2 PUSH2 0x220C JUMP JUMPDEST SWAP4 SWAP3 POP POP POP JUMP JUMPDEST DUP1 CALLDATALOAD PUSH2 0x21ED DUP2 PUSH2 0x220C JUMP JUMPDEST PUSH0 PUSH1 0x20 DUP3 DUP5 SUB SLT ISZERO PUSH2 0x23CE JUMPI PUSH0 PUSH0 REVERT JUMPDEST POP CALLDATALOAD SWAP2 SWAP1 POP JUMP JUMPDEST DUP1 CALLDATALOAD PUSH1 0x5 DUP2 LT PUSH2 0x21ED JUMPI PUSH0 PUSH0 REVERT JUMPDEST PUSH0 PUSH1 0x20 DUP3 DUP5 SUB SLT ISZERO PUSH2 0x23F3 JUMPI PUSH0 PUSH0 REVERT JUMPDEST PUSH2 0x23AC DUP3 PUSH2 0x23D5 JUMP JUMPDEST PUSH0 DUP2 MLOAD DUP1 DUP5 MSTORE DUP1 PUSH1 0x20 DUP5 ADD PUSH1 0x20 DUP7 ADD MCOPY PUSH0 PUSH1 0x20 DUP3 DUP7 ADD ADD MSTORE PUSH1 0x20 PUSH1 0x1F NOT PUSH1 0x1F DUP4 ADD AND DUP6 ADD ADD SWAP2 POP POP SWAP3 SWAP2 POP POP JUMP JUMPDEST PUSH4 0x4E487B71 PUSH1 0xE0 SHL PUSH0 MSTORE PUSH1 0x21 PUSH1 0x4 MSTORE PUSH1 0x24 PUSH0 REVERT JUMPDEST PUSH1 0x5 DUP2 LT PUSH2 0x245A JUMPI PUSH4 0x4E487B71 PUSH1 0xE0 SHL PUSH0 MSTORE PUSH1 0x21 PUSH1 0x4 MSTORE PUSH1 0x24 PUSH0 REVERT JUMPDEST SWAP1 MSTORE JUMP JUMPDEST DUP12 DUP2 MSTORE PUSH1 0x1 PUSH1 0x1 PUSH1 0xA0 SHL SUB DUP12 AND PUSH1 0x20 DUP3 ADD MSTORE PUSH2 0x160 PUSH1 0x40 DUP3 ADD DUP2 SWAP1 MSTORE PUSH0 SWAP1 PUSH2 0x2488 SWAP1 DUP4 ADD DUP13 PUSH2 0x23FC JUMP JUMPDEST DUP11 PUSH1 0x60 DUP5 ADD MSTORE DUP10 PUSH1 0x80 DUP5 ADD MSTORE DUP3 DUP2 SUB PUSH1 0xA0 DUP5 ADD MSTORE PUSH2 0x24A6 DUP2 DUP11 PUSH2 0x23FC JUMP JUMPDEST SWAP1 POP DUP8 PUSH1 0xC0 DUP5 ADD MSTORE DUP3 DUP2 SUB PUSH1 0xE0 DUP5 ADD MSTORE PUSH2 0x24C0 DUP2 DUP9 PUSH2 0x23FC JUMP JUMPDEST SWAP1 POP DUP3 DUP2 SUB PUSH2 0x100 DUP5 ADD MSTORE PUSH2 0x24D5 DUP2 DUP8 PUSH2 0x23FC JUMP JUMPDEST SWAP2 POP POP PUSH2 0x24E6 PUSH2 0x120 DUP4 ADD DUP6 PUSH2 0x243E JUMP JUMPDEST DUP3 ISZERO ISZERO PUSH2 0x140 DUP4 ADD MSTORE SWAP13 SWAP12 POP POP POP POP POP POP POP POP POP POP POP POP JUMP JUMPDEST PUSH0 DUP3 PUSH1 0x1F DUP4 ADD SLT PUSH2 0x250E JUMPI PUSH0 PUSH0 REVERT JUMPDEST DUP2 CALLDATALOAD PUSH1 0x1 PUSH1 0x1 PUSH1 0x40 SHL SUB DUP2 GT ISZERO PUSH2 0x2527 JUMPI PUSH2 0x2527 PUSH2 0x222F JUMP JUMPDEST DUP1 PUSH1 0x5 SHL PUSH2 0x2537 PUSH1 0x20 DUP3 ADD PUSH2 0x228E JUMP JUMPDEST SWAP2 DUP3 MSTORE PUSH1 0x20 DUP2 DUP6 ADD DUP2 ADD SWAP3 SWAP1 DUP2 ADD SWAP1 DUP7 DUP5 GT ISZERO PUSH2 0x2552 JUMPI PUSH0 PUSH0 REVERT JUMPDEST PUSH1 0x20 DUP7 ADD SWAP3 POP JUMPDEST DUP4 DUP4 LT ISZERO PUSH2 0x25F3 JUMPI DUP3 CALLDATALOAD PUSH1 0x1 PUSH1 0x1 PUSH1 0x40 SHL SUB DUP2 GT ISZERO PUSH2 0x2576 JUMPI PUSH0 PUSH0 REVERT JUMPDEST DUP7 ADD PUSH1 0x60 DUP2 DUP10 SUB PUSH1 0x1F NOT ADD SLT ISZERO PUSH2 0x258B JUMPI PUSH0 PUSH0 REVERT JUMPDEST PUSH2 0x2593 PUSH2 0x2243 JUMP JUMPDEST PUSH1 0x20 DUP3 ADD CALLDATALOAD PUSH2 0x25A1 DUP2 PUSH2 0x220C JUMP JUMPDEST DUP2 MSTORE PUSH2 0x25AF PUSH1 0x40 DUP4 ADD PUSH2 0x2220 JUMP JUMPDEST PUSH1 0x20 DUP3 ADD MSTORE PUSH1 0x60 DUP3 ADD CALLDATALOAD PUSH1 0x1 PUSH1 0x1 PUSH1 0x40 SHL SUB DUP2 GT ISZERO PUSH2 0x25CC JUMPI PUSH0 PUSH0 REVERT JUMPDEST PUSH2 0x25DB DUP11 PUSH1 0x20 DUP4 DUP7 ADD ADD PUSH2 0x22E4 JUMP JUMPDEST PUSH1 0x40 DUP4 ADD MSTORE POP DUP4 MSTORE POP PUSH1 0x20 SWAP3 DUP4 ADD SWAP3 SWAP1 SWAP2 ADD SWAP1 PUSH2 0x2559 JUMP JUMPDEST SWAP7 SWAP6 POP POP POP POP POP POP JUMP JUMPDEST PUSH0 PUSH1 0x80 DUP3 DUP5 SUB SLT ISZERO PUSH2 0x260D JUMPI PUSH0 PUSH0 REVERT JUMPDEST PUSH1 0x40 MLOAD PUSH1 0x80 DUP2 ADD PUSH1 0x1 PUSH1 0x1 PUSH1 0x40 SHL SUB DUP2 GT DUP3 DUP3 LT OR ISZERO PUSH2 0x262F JUMPI PUSH2 0x262F PUSH2 0x222F JUMP JUMPDEST PUSH1 0x40 MSTORE SWAP1 POP DUP1 DUP3 CALLDATALOAD PUSH2 0x2640 DUP2 PUSH2 0x220C JUMP JUMPDEST DUP2 MSTORE PUSH1 0x20 DUP4 ADD CALLDATALOAD PUSH1 0x1 PUSH1 0x1 PUSH1 0x40 SHL SUB DUP2 GT ISZERO PUSH2 0x265A JUMPI PUSH0 PUSH0 REVERT JUMPDEST PUSH2 0x2666 DUP6 DUP3 DUP7 ADD PUSH2 0x22E4 JUMP JUMPDEST PUSH1 0x20 DUP4 ADD MSTORE POP PUSH1 0x40 DUP4 DUP2 ADD CALLDATALOAD SWAP1 DUP3 ADD MSTORE PUSH1 0x60 SWAP3 DUP4 ADD CALLDATALOAD SWAP3 ADD SWAP2 SWAP1 SWAP2 MSTORE SWAP2 SWAP1 POP JUMP JUMPDEST PUSH0 PUSH0 PUSH1 0x40 DUP4 DUP6 SUB SLT ISZERO PUSH2 0x2698 JUMPI PUSH0 PUSH0 REVERT JUMPDEST DUP3 CALLDATALOAD PUSH1 0x1 PUSH1 0x1 PUSH1 0x40 SHL SUB DUP2 GT ISZERO PUSH2 0x26AD JUMPI PUSH0 PUSH0 REVERT JUMPDEST DUP4 ADD PUSH2 0x180 DUP2 DUP7 SUB SLT ISZERO PUSH2 0x26BF JUMPI PUSH0 PUSH0 REVERT JUMPDEST PUSH2 0x26C7 PUSH2 0x226B JUMP JUMPDEST DUP2 CALLDATALOAD DUP2 MSTORE PUSH2 0x26D7 PUSH1 0x20 DUP4 ADD PUSH2 0x23B3 JUMP JUMPDEST PUSH1 0x20 DUP3 ADD MSTORE PUSH1 0x40 DUP3 ADD CALLDATALOAD PUSH1 0x1 PUSH1 0x1 PUSH1 0x40 SHL SUB DUP2 GT ISZERO PUSH2 0x26F4 JUMPI PUSH0 PUSH0 REVERT JUMPDEST PUSH2 0x2700 DUP8 DUP3 DUP6 ADD PUSH2 0x22E4 JUMP JUMPDEST PUSH1 0x40 DUP4 ADD MSTORE POP PUSH1 0x60 DUP3 DUP2 ADD CALLDATALOAD SWAP1 DUP3 ADD MSTORE PUSH1 0x80 DUP1 DUP4 ADD CALLDATALOAD SWAP1 DUP3 ADD MSTORE PUSH1 0xA0 DUP3 ADD CALLDATALOAD PUSH1 0x1 PUSH1 0x1 PUSH1 0x40 SHL SUB DUP2 GT ISZERO PUSH2 0x2732 JUMPI PUSH0 PUSH0 REVERT JUMPDEST PUSH2 0x273E DUP8 DUP3 DUP6 ADD PUSH2 0x22E4 JUMP JUMPDEST PUSH1 0xA0 DUP4 ADD MSTORE POP PUSH1 0xC0 DUP3 DUP2 ADD CALLDATALOAD SWAP1 DUP3 ADD MSTORE PUSH1 0xE0 DUP3 ADD CALLDATALOAD PUSH1 0x1 PUSH1 0x1 PUSH1 0x40 SHL SUB DUP2 GT ISZERO PUSH2 0x2766 JUMPI PUSH0 PUSH0 REVERT JUMPDEST PUSH2 0x2772 DUP8 DUP3 DUP6 ADD PUSH2 0x22E4 JUMP JUMPDEST PUSH1 0xE0 DUP4 ADD MSTORE POP PUSH2 0x100 DUP3 ADD CALLDATALOAD PUSH1 0x1 PUSH1 0x1 PUSH1 0x40 SHL SUB DUP2 GT ISZERO PUSH2 0x2791 JUMPI PUSH0 PUSH0 REVERT JUMPDEST PUSH2 0x279D DUP8 DUP3 DUP6 ADD PUSH2 0x22E4 JUMP JUMPDEST PUSH2 0x100 DUP4 ADD MSTORE POP PUSH2 0x120 DUP3 ADD CALLDATALOAD PUSH1 0x1 PUSH1 0x1 PUSH1 0x40 SHL SUB DUP2 GT ISZERO PUSH2 0x27BD JUMPI PUSH0 PUSH0 REVERT JUMPDEST PUSH2 0x27C9 DUP8 DUP3 DUP6 ADD PUSH2 0x24FF JUMP JUMPDEST PUSH2 0x120 DUP4 ADD MSTORE POP PUSH2 0x27DD PUSH2 0x140 DUP4 ADD PUSH2 0x23D5 JUMP JUMPDEST PUSH2 0x140 DUP3 ADD MSTORE PUSH2 0x27F0 PUSH2 0x160 DUP4 ADD PUSH2 0x2220 JUMP JUMPDEST PUSH2 0x160 DUP3 ADD MSTORE SWAP3 POP POP PUSH1 0x20 DUP4 ADD CALLDATALOAD PUSH1 0x1 PUSH1 0x1 PUSH1 0x40 SHL SUB DUP2 GT ISZERO PUSH2 0x2811 JUMPI PUSH0 PUSH0 REVERT JUMPDEST PUSH2 0x281D DUP6 DUP3 DUP7 ADD PUSH2 0x25FD JUMP JUMPDEST SWAP2 POP POP SWAP3 POP SWAP3 SWAP1 POP JUMP JUMPDEST PUSH0 PUSH1 0x20 DUP3 ADD PUSH1 0x20 DUP4 MSTORE DUP1 DUP5 MLOAD DUP1 DUP4 MSTORE PUSH1 0x40 DUP6 ADD SWAP2 POP PUSH1 0x40 DUP2 PUSH1 0x5 SHL DUP7 ADD ADD SWAP3 POP PUSH1 0x20 DUP7 ADD PUSH0 JUMPDEST DUP3 DUP2 LT ISZERO PUSH2 0x28AA JUMPI DUP7 DUP6 SUB PUSH1 0x3F NOT ADD DUP5 MSTORE DUP2 MLOAD DUP1 MLOAD PUSH1 0x1 PUSH1 0x1 PUSH1 0xA0 SHL SUB AND DUP7 MSTORE PUSH1 0x20 DUP1 DUP3 ADD MLOAD ISZERO ISZERO SWAP1 DUP8 ADD MSTORE PUSH1 0x40 SWAP1 DUP2 ADD MLOAD PUSH1 0x60 SWAP2 DUP8 ADD DUP3 SWAP1 MSTORE SWAP1 PUSH2 0x2894 SWAP1 DUP8 ADD DUP3 PUSH2 0x23FC JUMP JUMPDEST SWAP6 POP POP PUSH1 0x20 SWAP4 DUP5 ADD SWAP4 SWAP2 SWAP1 SWAP2 ADD SWAP1 PUSH1 0x1 ADD PUSH2 0x284D JUMP JUMPDEST POP SWAP3 SWAP7 SWAP6 POP POP POP POP POP POP JUMP JUMPDEST PUSH1 0x20 DUP2 MSTORE PUSH0 PUSH2 0x23AC PUSH1 0x20 DUP4 ADD DUP5 PUSH2 0x23FC JUMP JUMPDEST PUSH1 0x1 PUSH1 0x1 PUSH1 0xA0 SHL SUB DUP5 AND DUP2 MSTORE DUP3 ISZERO ISZERO PUSH1 0x20 DUP3 ADD MSTORE PUSH1 0x60 PUSH1 0x40 DUP3 ADD DUP2 SWAP1 MSTORE PUSH0 SWAP1 PUSH2 0x28F3 SWAP1 DUP4 ADD DUP5 PUSH2 0x23FC JUMP JUMPDEST SWAP6 SWAP5 POP POP POP POP POP JUMP JUMPDEST PUSH0 PUSH0 PUSH1 0x40 DUP4 DUP6 SUB SLT ISZERO PUSH2 0x290D JUMPI PUSH0 PUSH0 REVERT JUMPDEST DUP3 CALLDATALOAD PUSH2 0x2918 DUP2 PUSH2 0x220C JUMP JUMPDEST SWAP5 PUSH1 0x20 SWAP4 SWAP1 SWAP4 ADD CALLDATALOAD SWAP4 POP POP POP JUMP JUMPDEST PUSH1 0x1 PUSH1 0x1 PUSH1 0xA0 SHL SUB DUP6 AND DUP2 MSTORE PUSH1 0x80 PUSH1 0x20 DUP3 ADD DUP2 SWAP1 MSTORE PUSH0 SWAP1 PUSH2 0x2949 SWAP1 DUP4 ADD DUP7 PUSH2 0x23FC JUMP JUMPDEST PUSH1 0x40 DUP4 ADD SWAP5 SWAP1 SWAP5 MSTORE POP PUSH1 0x60 ADD MSTORE SWAP3 SWAP2 POP POP JUMP JUMPDEST PUSH1 0x20 DUP2 ADD PUSH2 0x296A DUP3 DUP5 PUSH2 0x243E JUMP JUMPDEST SWAP3 SWAP2 POP POP JUMP JUMPDEST PUSH1 0x1 DUP2 DUP2 SHR SWAP1 DUP3 AND DUP1 PUSH2 0x2984 JUMPI PUSH1 0x7F DUP3 AND SWAP2 POP JUMPDEST PUSH1 0x20 DUP3 LT DUP2 SUB PUSH2 0x29A2 JUMPI PUSH4 0x4E487B71 PUSH1 0xE0 SHL PUSH0 MSTORE PUSH1 0x22 PUSH1 0x4 MSTORE PUSH1 0x24 PUSH0 REVERT JUMPDEST POP SWAP2 SWAP1 POP JUMP JUMPDEST PUSH1 0x1F DUP3 GT ISZERO PUSH2 0x29EC JUMPI DUP1 PUSH0 MSTORE PUSH1 0x20 PUSH0 KECCAK256 PUSH1 0x1F DUP5 ADD PUSH1 0x5 SHR DUP2 ADD PUSH1 0x20 DUP6 LT ISZERO PUSH2 0x29CD JUMPI POP DUP1 JUMPDEST PUSH1 0x1F DUP5 ADD PUSH1 0x5 SHR DUP3 ADD SWAP2 POP JUMPDEST DUP2 DUP2 LT ISZERO PUSH2 0xA3B JUMPI PUSH0 DUP2 SSTORE PUSH1 0x1 ADD PUSH2 0x29D9 JUMP JUMPDEST POP POP POP JUMP JUMPDEST PUSH0 NOT PUSH1 0x3 DUP4 SWAP1 SHL SHR NOT AND PUSH1 0x1 SWAP2 SWAP1 SWAP2 SHL OR SWAP1 JUMP JUMPDEST DUP2 MLOAD PUSH1 0x1 PUSH1 0x1 PUSH1 0x40 SHL SUB DUP2 GT ISZERO PUSH2 0x2A1E JUMPI PUSH2 0x2A1E PUSH2 0x222F JUMP JUMPDEST PUSH2 0x2A32 DUP2 PUSH2 0x2A2C DUP5 SLOAD PUSH2 0x2970 JUMP JUMPDEST DUP5 PUSH2 0x29A8 JUMP JUMPDEST PUSH1 0x20 PUSH1 0x1F DUP3 GT PUSH1 0x1 DUP2 EQ PUSH2 0x2A5F JUMPI PUSH0 DUP4 ISZERO PUSH2 0x2A4D JUMPI POP DUP5 DUP3 ADD MLOAD JUMPDEST PUSH2 0x2A57 DUP5 DUP3 PUSH2 0x29F1 JUMP JUMPDEST DUP6 SSTORE POP PUSH2 0xA3B JUMP JUMPDEST PUSH0 DUP5 DUP2 MSTORE PUSH1 0x20 DUP2 KECCAK256 PUSH1 0x1F NOT DUP6 AND SWAP2 JUMPDEST DUP3 DUP2 LT ISZERO PUSH2 0x2A8E JUMPI DUP8 DUP6 ADD MLOAD DUP3 SSTORE PUSH1 0x20 SWAP5 DUP6 ADD SWAP5 PUSH1 0x1 SWAP1 SWAP3 ADD SWAP2 ADD PUSH2 0x2A6E JUMP JUMPDEST POP DUP5 DUP3 LT ISZERO PUSH2 0x2AAB JUMPI DUP7 DUP5 ADD MLOAD PUSH0 NOT PUSH1 0x3 DUP8 SWAP1 SHL PUSH1 0xF8 AND SHR NOT AND DUP2 SSTORE JUMPDEST POP POP POP POP PUSH1 0x1 SWAP1 DUP2 SHL ADD SWAP1 SSTORE POP JUMP JUMPDEST PUSH0 PUSH1 0x20 DUP3 DUP5 SUB SLT ISZERO PUSH2 0x2ACA JUMPI PUSH0 PUSH0 REVERT JUMPDEST POP MLOAD SWAP2 SWAP1 POP JUMP JUMPDEST PUSH4 0x4E487B71 PUSH1 0xE0 SHL PUSH0 MSTORE PUSH1 0x11 PUSH1 0x4 MSTORE PUSH1 0x24 PUSH0 REVERT JUMPDEST DUP1 DUP3 ADD DUP1 DUP3 GT ISZERO PUSH2 0x296A JUMPI PUSH2 0x296A PUSH2 0x2AD1 JUMP JUMPDEST DUP2 DUP2 SUB DUP2 DUP2 GT ISZERO PUSH2 0x296A JUMPI PUSH2 0x296A PUSH2 0x2AD1 JUMP JUMPDEST PUSH4 0x4E487B71 PUSH1 0xE0 SHL PUSH0 MSTORE PUSH1 0x12 PUSH1 0x4 MSTORE PUSH1 0x24 PUSH0 REVERT JUMPDEST PUSH0 DUP3 PUSH2 0x2B2D JUMPI PUSH2 0x2B2D PUSH2 0x2B0B JUMP JUMPDEST POP MOD SWAP1 JUMP JUMPDEST PUSH4 0x4E487B71 PUSH1 0xE0 SHL PUSH0 MSTORE PUSH1 0x32 PUSH1 0x4 MSTORE PUSH1 0x24 PUSH0 REVERT JUMPDEST DUP2 DUP2 SUB PUSH2 0x2B51 JUMPI POP POP JUMP JUMPDEST PUSH2 0x2B5B DUP3 SLOAD PUSH2 0x2970 JUMP JUMPDEST PUSH1 0x1 PUSH1 0x1 PUSH1 0x40 SHL SUB DUP2 GT ISZERO PUSH2 0x2B72 JUMPI PUSH2 0x2B72 PUSH2 0x222F JUMP JUMPDEST PUSH2 0x2B80 DUP2 PUSH2 0x2A2C DUP5 SLOAD PUSH2 0x2970 JUMP JUMPDEST PUSH0 PUSH1 0x1F DUP3 GT PUSH1 0x1 DUP2 EQ PUSH2 0x2BA3 JUMPI PUSH0 DUP4 ISZERO PUSH2 0x2A4D JUMPI POP DUP5 DUP3 ADD SLOAD PUSH2 0x2A57 DUP5 DUP3 PUSH2 0x29F1 JUMP JUMPDEST PUSH0 DUP6 DUP2 MSTORE PUSH1 0x20 DUP1 DUP3 KECCAK256 DUP7 DUP4 MSTORE SWAP1 DUP3 KECCAK256 PUSH1 0x1F NOT DUP7 AND SWAP3 JUMPDEST DUP4 DUP2 LT ISZERO PUSH2 0x2BD9 JUMPI DUP3 DUP7 ADD SLOAD DUP3 SSTORE PUSH1 0x1 SWAP6 DUP7 ADD SWAP6 SWAP1 SWAP2 ADD SWAP1 PUSH1 0x20 ADD PUSH2 0x2BB9 JUMP JUMPDEST POP DUP6 DUP4 LT ISZERO PUSH2 0x2BF6 JUMPI DUP2 DUP6 ADD SLOAD PUSH0 NOT PUSH1 0x3 DUP9 SWAP1 SHL PUSH1 0xF8 AND SHR NOT AND DUP2 SSTORE JUMPDEST POP POP POP POP POP PUSH1 0x1 SWAP1 DUP2 SHL ADD SWAP1 SSTORE POP JUMP JUMPDEST PUSH0 DUP3 PUSH2 0x2C14 JUMPI PUSH2 0x2C14 PUSH2 0x2B0B JUMP JUMPDEST POP DIV SWAP1 JUMP JUMPDEST DUP1 DUP3 MUL DUP2 ISZERO DUP3 DUP3 DIV DUP5 EQ OR PUSH2 0x296A JUMPI PUSH2 0x296A PUSH2 0x2AD1 JUMP JUMPDEST PUSH0 PUSH1 0x40 DUP3 ADD PUSH1 0x40 DUP4 MSTORE DUP1 DUP5 SLOAD DUP1 DUP4 MSTORE PUSH1 0x60 DUP6 ADD SWAP2 POP PUSH1 0x60 DUP2 PUSH1 0x5 SHL DUP7 ADD ADD SWAP3 POP DUP6 PUSH0 MSTORE PUSH1 0x20 PUSH0 KECCAK256 PUSH0 JUMPDEST DUP3 DUP2 LT ISZERO PUSH2 0x2D25 JUMPI DUP7 DUP6 SUB PUSH1 0x5F NOT ADD DUP5 MSTORE DUP2 SLOAD PUSH1 0x1 PUSH1 0x1 PUSH1 0xA0 SHL SUB DUP2 AND DUP7 MSTORE PUSH1 0xA0 SHR PUSH1 0xFF AND ISZERO ISZERO PUSH1 0x20 DUP7 ADD MSTORE PUSH1 0x60 PUSH1 0x40 DUP7 ADD MSTORE PUSH1 0x1 DUP3 ADD DUP1 SLOAD PUSH0 SWAP1 PUSH2 0x2C9D DUP2 PUSH2 0x2970 JUMP JUMPDEST DUP1 PUSH1 0x60 DUP11 ADD MSTORE PUSH1 0x1 DUP3 AND PUSH0 DUP2 EQ PUSH2 0x2CBB JUMPI PUSH1 0x1 DUP2 EQ PUSH2 0x2CD7 JUMPI PUSH2 0x2D08 JUMP JUMPDEST PUSH1 0xFF NOT DUP4 AND PUSH1 0x80 DUP12 ADD MSTORE PUSH1 0x80 DUP3 ISZERO ISZERO PUSH1 0x5 SHL DUP12 ADD ADD SWAP4 POP PUSH2 0x2D08 JUMP JUMPDEST DUP5 PUSH0 MSTORE PUSH1 0x20 PUSH0 KECCAK256 PUSH0 JUMPDEST DUP4 DUP2 LT ISZERO PUSH2 0x2CFF JUMPI DUP2 SLOAD DUP13 DUP3 ADD PUSH1 0x80 ADD MSTORE PUSH1 0x1 SWAP1 SWAP2 ADD SWAP1 PUSH1 0x20 ADD PUSH2 0x2CE0 JUMP JUMPDEST DUP12 ADD PUSH1 0x80 ADD SWAP5 POP POP JUMPDEST POP SWAP2 SWAP8 POP POP POP PUSH1 0x20 SWAP5 SWAP1 SWAP5 ADD SWAP4 POP PUSH1 0x2 SWAP2 SWAP1 SWAP2 ADD SWAP1 PUSH1 0x1 ADD PUSH2 0x2C59 JUMP JUMPDEST POP POP POP POP DUP3 DUP2 SUB PUSH1 0x20 DUP5 ADD MSTORE PUSH2 0x2D54 DUP2 PUSH1 0xC DUP2 MSTORE PUSH12 0x199C9BDB481C1C9BDA9958DD PUSH1 0xA2 SHL PUSH1 0x20 DUP3 ADD MSTORE PUSH1 0x40 ADD SWAP1 JUMP JUMPDEST SWAP5 SWAP4 POP POP POP POP JUMP JUMPDEST PUSH0 PUSH0 DUP4 SLOAD PUSH2 0x2D69 DUP2 PUSH2 0x2970 JUMP JUMPDEST PUSH1 0x1 DUP3 AND DUP1 ISZERO PUSH2 0x2D80 JUMPI PUSH1 0x1 DUP2 EQ PUSH2 0x2D95 JUMPI PUSH2 0x2DC2 JUMP JUMPDEST PUSH1 0xFF NOT DUP4 AND DUP7 MSTORE DUP2 ISZERO ISZERO DUP3 MUL DUP7 ADD SWAP4 POP PUSH2 0x2DC2 JUMP JUMPDEST DUP7 PUSH0 MSTORE PUSH1 0x20 PUSH0 KECCAK256 PUSH0 JUMPDEST DUP4 DUP2 LT ISZERO PUSH2 0x2DBA JUMPI DUP2 SLOAD DUP9 DUP3 ADD MSTORE PUSH1 0x1 SWAP1 SWAP2 ADD SWAP1 PUSH1 0x20 ADD PUSH2 0x2D9E JUMP JUMPDEST POP POP DUP2 DUP7 ADD SWAP4 POP JUMPDEST POP SWAP2 SWAP6 SWAP5 POP POP POP POP POP JUMP JUMPDEST PUSH0 PUSH1 0x20 DUP3 DUP5 SUB SLT ISZERO PUSH2 0x2DDD JUMPI PUSH0 PUSH0 REVERT JUMPDEST DUP2 MLOAD PUSH1 0x1 PUSH1 0x1 PUSH1 0x40 SHL SUB DUP2 GT ISZERO PUSH2 0x2DF2 JUMPI PUSH0 PUSH0 REVERT JUMPDEST DUP3 ADD PUSH1 0x1F DUP2 ADD DUP5 SGT PUSH2 0x2E02 JUMPI PUSH0 PUSH0 REVERT JUMPDEST DUP1 MLOAD PUSH2 0x2E10 PUSH2 0x2301 DUP3 PUSH2 0x22BE JUMP JUMPDEST DUP2 DUP2 MSTORE DUP6 PUSH1 0x20 DUP4 DUP6 ADD ADD GT ISZERO PUSH2 0x2E24 JUMPI PUSH0 PUSH0 REVERT JUMPDEST DUP2 PUSH1 0x20 DUP5 ADD PUSH1 0x20 DUP4 ADD MCOPY PUSH0 SWAP2 DUP2 ADD PUSH1 0x20 ADD SWAP2 SWAP1 SWAP2 MSTORE SWAP5 SWAP4 POP POP POP POP JUMP INVALID PUSH1 0x80 PUSH1 0x40 MSTORE PUSH1 0x1 PUSH1 0x4 SSTORE CALLVALUE DUP1 ISZERO PUSH2 0x14 JUMPI PUSH0 PUSH0 REVERT JUMPDEST POP CALLER DUP1 PUSH0 DUP2 PUSH2 0x6A JUMPI PUSH1 0x40 MLOAD PUSH3 0x461BCD PUSH1 0xE5 SHL DUP2 MSTORE PUSH1 0x20 PUSH1 0x4 DUP3 ADD MSTORE PUSH1 0x18 PUSH1 0x24 DUP3 ADD MSTORE PUSH32 0x43616E6E6F7420736574206F776E657220746F207A65726F0000000000000000 PUSH1 0x44 DUP3 ADD MSTORE PUSH1 0x64 ADD JUMPDEST PUSH1 0x40 MLOAD DUP1 SWAP2 SUB SWAP1 REVERT JUMPDEST PUSH1 0x6 DUP1 SLOAD PUSH1 0x1 PUSH1 0x1 PUSH1 0xA0 SHL SUB NOT AND PUSH1 0x1 PUSH1 0x1 PUSH1 0xA0 SHL SUB DUP5 DUP2 AND SWAP2 SWAP1 SWAP2 OR SWAP1 SWAP2 SSTORE DUP2 AND ISZERO PUSH2 0x9A JUMPI PUSH2 0x9A DUP2 PUSH2 0xC5 JUMP JUMPDEST POP POP POP PUSH2 0xC0 PUSH20 0x779877A7B0D9E8603169DDBD7836E478B4624789 PUSH2 0x16E PUSH1 0x20 SHL PUSH1 0x20 SHR JUMP JUMPDEST PUSH2 0x190 JUMP JUMPDEST CALLER PUSH1 0x1 PUSH1 0x1 PUSH1 0xA0 SHL SUB DUP3 AND SUB PUSH2 0x11D JUMPI PUSH1 0x40 MLOAD PUSH3 0x461BCD PUSH1 0xE5 SHL DUP2 MSTORE PUSH1 0x20 PUSH1 0x4 DUP3 ADD MSTORE PUSH1 0x17 PUSH1 0x24 DUP3 ADD MSTORE PUSH32 0x43616E6E6F74207472616E7366657220746F2073656C66000000000000000000 PUSH1 0x44 DUP3 ADD MSTORE PUSH1 0x64 ADD PUSH2 0x61 JUMP JUMPDEST PUSH1 0x7 DUP1 SLOAD PUSH1 0x1 PUSH1 0x1 PUSH1 0xA0 SHL SUB NOT AND PUSH1 0x1 PUSH1 0x1 PUSH1 0xA0 SHL SUB DUP4 DUP2 AND SWAP2 DUP3 OR SWAP1 SWAP3 SSTORE PUSH1 0x6 SLOAD PUSH1 0x40 MLOAD SWAP2 SWAP3 AND SWAP1 PUSH32 0xED8889F560326EB138920D842192F0EB3DD22B4F139C87A2C57538E05BAE1278 SWAP1 PUSH0 SWAP1 LOG3 POP JUMP JUMPDEST PUSH1 0x2 DUP1 SLOAD PUSH1 0x1 PUSH1 0x1 PUSH1 0xA0 SHL SUB NOT AND PUSH1 0x1 PUSH1 0x1 PUSH1 0xA0 SHL SUB SWAP3 SWAP1 SWAP3 AND SWAP2 SWAP1 SWAP2 OR SWAP1 SSTORE JUMP JUMPDEST PUSH2 0x19FE DUP1 PUSH2 0x19D PUSH0 CODECOPY PUSH0 RETURN INVALID PUSH1 0x80 PUSH1 0x40 MSTORE CALLVALUE DUP1 ISZERO PUSH2 0xF JUMPI PUSH0 PUSH0 REVERT JUMPDEST POP PUSH1 0x4 CALLDATASIZE LT PUSH2 0x6B JUMPI PUSH0 CALLDATALOAD PUSH1 0xE0 SHR DUP1 PUSH4 0x9BD5A60 EQ PUSH2 0x6F JUMPI DUP1 PUSH4 0x3E9DB5E5 EQ PUSH2 0x8D JUMPI DUP1 PUSH4 0x79BA5097 EQ PUSH2 0xA2 JUMPI DUP1 PUSH4 0x8DA5CB5B EQ PUSH2 0xAA JUMPI DUP1 PUSH4 0xAB643C10 EQ PUSH2 0xC5 JUMPI DUP1 PUSH4 0xB86F58FE EQ PUSH2 0xD8 JUMPI DUP1 PUSH4 0xF2FDE38B EQ PUSH2 0xE0 JUMPI JUMPDEST PUSH0 PUSH0 REVERT JUMPDEST PUSH2 0x77 PUSH2 0xF3 JUMP JUMPDEST PUSH1 0x40 MLOAD PUSH2 0x84 SWAP2 SWAP1 PUSH2 0x1330 JUMP JUMPDEST PUSH1 0x40 MLOAD DUP1 SWAP2 SUB SWAP1 RETURN JUMPDEST PUSH2 0xA0 PUSH2 0x9B CALLDATASIZE PUSH1 0x4 PUSH2 0x13DF JUMP JUMPDEST PUSH2 0x17F JUMP JUMPDEST STOP JUMPDEST PUSH2 0xA0 PUSH2 0x2ED JUMP JUMPDEST PUSH1 0x6 SLOAD PUSH1 0x40 MLOAD PUSH1 0x1 PUSH1 0x1 PUSH1 0xA0 SHL SUB SWAP1 SWAP2 AND DUP2 MSTORE PUSH1 0x20 ADD PUSH2 0x84 JUMP JUMPDEST PUSH2 0xA0 PUSH2 0xD3 CALLDATASIZE PUSH1 0x4 PUSH2 0x14E8 JUMP JUMPDEST PUSH2 0x39A JUMP JUMPDEST PUSH2 0x77 PUSH2 0xA0C JUMP JUMPDEST PUSH2 0xA0 PUSH2 0xEE CALLDATASIZE PUSH1 0x4 PUSH2 0x1532 JUMP JUMPDEST PUSH2 0xA19 JUMP JUMPDEST PUSH1 0x8 DUP1 SLOAD PUSH2 0x100 SWAP1 PUSH2 0x154B JUMP JUMPDEST DUP1 PUSH1 0x1F ADD PUSH1 0x20 DUP1 SWAP2 DIV MUL PUSH1 0x20 ADD PUSH1 0x40 MLOAD SWAP1 DUP2 ADD PUSH1 0x40 MSTORE DUP1 SWAP3 SWAP2 SWAP1 DUP2 DUP2 MSTORE PUSH1 0x20 ADD DUP3 DUP1 SLOAD PUSH2 0x12C SWAP1 PUSH2 0x154B JUMP JUMPDEST DUP1 ISZERO PUSH2 0x177 JUMPI DUP1 PUSH1 0x1F LT PUSH2 0x14E JUMPI PUSH2 0x100 DUP1 DUP4 SLOAD DIV MUL DUP4 MSTORE SWAP2 PUSH1 0x20 ADD SWAP2 PUSH2 0x177 JUMP JUMPDEST DUP3 ADD SWAP2 SWAP1 PUSH0 MSTORE PUSH1 0x20 PUSH0 KECCAK256 SWAP1 JUMPDEST DUP2 SLOAD DUP2 MSTORE SWAP1 PUSH1 0x1 ADD SWAP1 PUSH1 0x20 ADD DUP1 DUP4 GT PUSH2 0x15A JUMPI DUP3 SWAP1 SUB PUSH1 0x1F AND DUP3 ADD SWAP2 JUMPDEST POP POP POP POP POP DUP2 JUMP JUMPDEST PUSH0 DUP11 DUP2 MSTORE PUSH1 0x5 PUSH1 0x20 MSTORE PUSH1 0x40 SWAP1 KECCAK256 SLOAD DUP11 SWAP1 PUSH1 0x1 PUSH1 0x1 PUSH1 0xA0 SHL SUB AND CALLER EQ PUSH2 0x1FC JUMPI PUSH1 0x40 MLOAD PUSH3 0x461BCD PUSH1 0xE5 SHL DUP2 MSTORE PUSH1 0x20 PUSH1 0x4 DUP3 ADD MSTORE PUSH1 0x28 PUSH1 0x24 DUP3 ADD MSTORE PUSH32 0x536F75726365206D75737420626520746865206F7261636C65206F6620746865 PUSH1 0x44 DUP3 ADD MSTORE PUSH8 0x81C995C5D595CDD PUSH1 0xC2 SHL PUSH1 0x64 DUP3 ADD MSTORE PUSH1 0x84 ADD JUMPDEST PUSH1 0x40 MLOAD DUP1 SWAP2 SUB SWAP1 REVERT JUMPDEST PUSH0 DUP2 DUP2 MSTORE PUSH1 0x5 PUSH1 0x20 MSTORE PUSH1 0x40 DUP1 DUP3 KECCAK256 DUP1 SLOAD PUSH1 0x1 PUSH1 0x1 PUSH1 0xA0 SHL SUB NOT AND SWAP1 SSTORE MLOAD DUP3 SWAP2 PUSH32 0x7CC135E0CEBB02C3480AE5D74D377283180A2601F8F644EDF7987B009316C63A SWAP2 LOG2 PUSH1 0x8 PUSH2 0x24A DUP10 DUP3 PUSH2 0x15C8 JUMP JUMPDEST POP DUP10 DUP10 PUSH2 0x256 DUP10 PUSH2 0xA2D JUMP JUMPDEST DUP9 PUSH1 0x40 MLOAD PUSH1 0x20 ADD PUSH2 0x26A SWAP5 SWAP4 SWAP3 SWAP2 SWAP1 PUSH2 0x1699 JUMP JUMPDEST PUSH1 0x40 MLOAD PUSH1 0x20 DUP2 DUP4 SUB SUB DUP2 MSTORE SWAP1 PUSH1 0x40 MSTORE PUSH1 0x9 SWAP1 DUP2 PUSH2 0x287 SWAP2 SWAP1 PUSH2 0x15C8 JUMP JUMPDEST POP PUSH1 0x9 PUSH2 0x293 DUP7 PUSH2 0xA2D JUMP JUMPDEST PUSH2 0x29C DUP7 PUSH2 0xA2D JUMP JUMPDEST PUSH2 0x2A5 DUP7 PUSH2 0xA2D JUMP JUMPDEST PUSH2 0x2AE DUP7 PUSH2 0xA2D JUMP JUMPDEST PUSH1 0x40 MLOAD PUSH1 0x20 ADD PUSH2 0x2C2 SWAP6 SWAP5 SWAP4 SWAP3 SWAP2 SWAP1 PUSH2 0x16BF JUMP JUMPDEST PUSH1 0x40 MLOAD PUSH1 0x20 DUP2 DUP4 SUB SUB DUP2 MSTORE SWAP1 PUSH1 0x40 MSTORE PUSH1 0x9 SWAP1 DUP2 PUSH2 0x2DF SWAP2 SWAP1 PUSH2 0x15C8 JUMP JUMPDEST POP POP POP POP POP POP POP POP POP POP POP POP JUMP JUMPDEST PUSH1 0x7 SLOAD PUSH1 0x1 PUSH1 0x1 PUSH1 0xA0 SHL SUB AND CALLER EQ PUSH2 0x340 JUMPI PUSH1 0x40 MLOAD PUSH3 0x461BCD PUSH1 0xE5 SHL DUP2 MSTORE PUSH1 0x20 PUSH1 0x4 DUP3 ADD MSTORE PUSH1 0x16 PUSH1 0x24 DUP3 ADD MSTORE PUSH22 0x26BAB9BA10313290383937B837B9B2B21037BBB732B9 PUSH1 0x51 SHL PUSH1 0x44 DUP3 ADD MSTORE PUSH1 0x64 ADD PUSH2 0x1F3 JUMP JUMPDEST PUSH1 0x6 DUP1 SLOAD PUSH1 0x1 PUSH1 0x1 PUSH1 0xA0 SHL SUB NOT DUP1 DUP3 AND CALLER SWAP1 DUP2 OR SWAP1 SWAP4 SSTORE PUSH1 0x7 DUP1 SLOAD SWAP1 SWAP2 AND SWAP1 SSTORE PUSH1 0x40 MLOAD PUSH1 0x1 PUSH1 0x1 PUSH1 0xA0 SHL SUB SWAP1 SWAP2 AND SWAP2 SWAP1 DUP3 SWAP1 PUSH32 0x8BE0079C531659141344CD1FD0A4F28419497F9722A3DAAFE3B4186F6B6457E0 SWAP1 PUSH0 SWAP1 LOG3 POP JUMP JUMPDEST PUSH2 0x3A2 PUSH2 0xABC JUMP JUMPDEST PUSH0 PUSH2 0x3BD PUSH2 0x3AF DUP4 PUSH2 0xB11 JUMP JUMPDEST ADDRESS PUSH4 0x3E9DB5E5 PUSH1 0xE0 SHL PUSH2 0xB2E JUMP JUMPDEST SWAP1 POP PUSH2 0x40A PUSH1 0x40 MLOAD DUP1 PUSH1 0x40 ADD PUSH1 0x40 MSTORE DUP1 PUSH1 0xE DUP2 MSTORE PUSH1 0x20 ADD PUSH14 0x75726C50726F6A6563744E616D65 PUSH1 0x90 SHL DUP2 MSTORE POP PUSH1 0x40 MLOAD DUP1 PUSH1 0x80 ADD PUSH1 0x40 MSTORE DUP1 PUSH1 0x4B DUP2 MSTORE PUSH1 0x20 ADD PUSH2 0x197E PUSH1 0x4B SWAP2 CODECOPY DUP4 SWAP2 SWAP1 PUSH2 0xB53 JUMP JUMPDEST PUSH2 0x469 PUSH1 0x40 MLOAD DUP1 PUSH1 0x40 ADD PUSH1 0x40 MSTORE DUP1 PUSH1 0xF DUP2 MSTORE PUSH1 0x20 ADD PUSH15 0x7061746850726F6A6563744E616D65 PUSH1 0x88 SHL DUP2 MSTORE POP PUSH1 0x40 MLOAD DUP1 PUSH1 0x40 ADD PUSH1 0x40 MSTORE DUP1 PUSH1 0xB DUP2 MSTORE PUSH1 0x20 ADD PUSH11 0x70726F6A6563744E616D65 PUSH1 0xA8 SHL DUP2 MSTORE POP DUP4 PUSH2 0xB53 SWAP1 SWAP3 SWAP2 SWAP1 PUSH4 0xFFFFFFFF AND JUMP JUMPDEST PUSH2 0x4B1 PUSH1 0x40 MLOAD DUP1 PUSH1 0x40 ADD PUSH1 0x40 MSTORE DUP1 PUSH1 0xB DUP2 MSTORE PUSH1 0x20 ADD PUSH11 0x3AB9362637B1B0BA34B7B7 PUSH1 0xA9 SHL DUP2 MSTORE POP PUSH1 0x40 MLOAD DUP1 PUSH1 0x80 ADD PUSH1 0x40 MSTORE DUP1 PUSH1 0x4B DUP2 MSTORE PUSH1 0x20 ADD PUSH2 0x197E PUSH1 0x4B SWAP2 CODECOPY DUP4 SWAP2 SWAP1 PUSH2 0xB53 JUMP JUMPDEST PUSH2 0x50A PUSH1 0x40 MLOAD DUP1 PUSH1 0x40 ADD PUSH1 0x40 MSTORE DUP1 PUSH1 0xC DUP2 MSTORE PUSH1 0x20 ADD PUSH12 0x3830BA342637B1B0BA34B7B7 PUSH1 0xA1 SHL DUP2 MSTORE POP PUSH1 0x40 MLOAD DUP1 PUSH1 0x40 ADD PUSH1 0x40 MSTORE DUP1 PUSH1 0x8 DUP2 MSTORE PUSH1 0x20 ADD PUSH8 0x3637B1B0BA34B7B7 PUSH1 0xC1 SHL DUP2 MSTORE POP DUP4 PUSH2 0xB53 SWAP1 SWAP3 SWAP2 SWAP1 PUSH4 0xFFFFFFFF AND JUMP JUMPDEST PUSH2 0x54E PUSH1 0x40 MLOAD DUP1 PUSH1 0x40 ADD PUSH1 0x40 MSTORE DUP1 PUSH1 0x7 DUP2 MSTORE PUSH1 0x20 ADD PUSH7 0xEAE4D890C2E6D PUSH1 0xCB SHL DUP2 MSTORE POP PUSH1 0x40 MLOAD DUP1 PUSH1 0x80 ADD PUSH1 0x40 MSTORE DUP1 PUSH1 0x4B DUP2 MSTORE PUSH1 0x20 ADD PUSH2 0x197E PUSH1 0x4B SWAP2 CODECOPY DUP4 SWAP2 SWAP1 PUSH2 0xB53 JUMP JUMPDEST PUSH2 0x59F PUSH1 0x40 MLOAD DUP1 PUSH1 0x40 ADD PUSH1 0x40 MSTORE DUP1 PUSH1 0x8 DUP2 MSTORE PUSH1 0x20 ADD PUSH8 0xE0C2E8D090C2E6D PUSH1 0xC3 SHL DUP2 MSTORE POP PUSH1 0x40 MLOAD DUP1 PUSH1 0x40 ADD PUSH1 0x40 MSTORE DUP1 PUSH1 0x4 DUP2 MSTORE PUSH1 0x20 ADD PUSH4 0xD0C2E6D PUSH1 0xE3 SHL DUP2 MSTORE POP DUP4 PUSH2 0xB53 SWAP1 SWAP3 SWAP2 SWAP1 PUSH4 0xFFFFFFFF AND JUMP JUMPDEST PUSH2 0x5F1 PUSH1 0x40 MLOAD DUP1 PUSH1 0x40 ADD PUSH1 0x40 MSTORE DUP1 PUSH1 0x15 DUP2 MSTORE PUSH1 0x20 ADD PUSH21 0x75726C4578706563746564526564756374696F6E73 PUSH1 0x58 SHL DUP2 MSTORE POP PUSH1 0x40 MLOAD DUP1 PUSH1 0x80 ADD PUSH1 0x40 MSTORE DUP1 PUSH1 0x4B DUP2 MSTORE PUSH1 0x20 ADD PUSH2 0x197E PUSH1 0x4B SWAP2 CODECOPY DUP4 SWAP2 SWAP1 PUSH2 0xB53 JUMP JUMPDEST PUSH2 0x65E PUSH1 0x40 MLOAD DUP1 PUSH1 0x40 ADD PUSH1 0x40 MSTORE DUP1 PUSH1 0x16 DUP2 MSTORE PUSH1 0x20 ADD PUSH22 0x706174684578706563746564526564756374696F6E73 PUSH1 0x50 SHL DUP2 MSTORE POP PUSH1 0x40 MLOAD DUP1 PUSH1 0x40 ADD PUSH1 0x40 MSTORE DUP1 PUSH1 0x12 DUP2 MSTORE PUSH1 0x20 ADD PUSH18 0x6578706563746564526564756374696F6E73 PUSH1 0x70 SHL DUP2 MSTORE POP DUP4 PUSH2 0xB53 SWAP1 SWAP3 SWAP2 SWAP1 PUSH4 0xFFFFFFFF AND JUMP JUMPDEST PUSH2 0x6A9 PUSH1 0x40 MLOAD DUP1 PUSH1 0x40 ADD PUSH1 0x40 MSTORE DUP1 PUSH1 0xE DUP2 MSTORE PUSH1 0x20 ADD PUSH14 0x75726C4D6574686F646F6C6F6779 PUSH1 0x90 SHL DUP2 MSTORE POP PUSH1 0x40 MLOAD DUP1 PUSH1 0x80 ADD PUSH1 0x40 MSTORE DUP1 PUSH1 0x4B DUP2 MSTORE PUSH1 0x20 ADD PUSH2 0x197E PUSH1 0x4B SWAP2 CODECOPY DUP4 SWAP2 SWAP1 PUSH2 0xB53 JUMP JUMPDEST PUSH2 0x708 PUSH1 0x40 MLOAD DUP1 PUSH1 0x40 ADD PUSH1 0x40 MSTORE DUP1 PUSH1 0xF DUP2 MSTORE PUSH1 0x20 ADD PUSH15 0x706174684D6574686F646F6C6F6779 PUSH1 0x88 SHL DUP2 MSTORE POP PUSH1 0x40 MLOAD DUP1 PUSH1 0x40 ADD PUSH1 0x40 MSTORE DUP1 PUSH1 0xB DUP2 MSTORE PUSH1 0x20 ADD PUSH11 0x6D6574686F646F6C6F6779 PUSH1 0xA8 SHL DUP2 MSTORE POP DUP4 PUSH2 0xB53 SWAP1 SWAP3 SWAP2 SWAP1 PUSH4 0xFFFFFFFF AND JUMP JUMPDEST PUSH2 0x758 PUSH1 0x40 MLOAD DUP1 PUSH1 0x40 ADD PUSH1 0x40 MSTORE DUP1 PUSH1 0x13 DUP2 MSTORE PUSH1 0x20 ADD PUSH19 0x75726C50726F6A656374537461727444617465 PUSH1 0x68 SHL DUP2 MSTORE POP PUSH1 0x40 MLOAD DUP1 PUSH1 0x80 ADD PUSH1 0x40 MSTORE DUP1 PUSH1 0x4B DUP2 MSTORE PUSH1 0x20 ADD PUSH2 0x197E PUSH1 0x4B SWAP2 CODECOPY DUP4 SWAP2 SWAP1 PUSH2 0xB53 JUMP JUMPDEST PUSH2 0x7C1 PUSH1 0x40 MLOAD DUP1 PUSH1 0x40 ADD PUSH1 0x40 MSTORE DUP1 PUSH1 0x14 DUP2 MSTORE PUSH1 0x20 ADD PUSH20 0x7061746850726F6A656374537461727444617465 PUSH1 0x60 SHL DUP2 MSTORE POP PUSH1 0x40 MLOAD DUP1 PUSH1 0x40 ADD PUSH1 0x40 MSTORE DUP1 PUSH1 0x10 DUP2 MSTORE PUSH1 0x20 ADD PUSH16 0x70726F6A656374537461727444617465 PUSH1 0x80 SHL DUP2 MSTORE POP DUP4 PUSH2 0xB53 SWAP1 SWAP3 SWAP2 SWAP1 PUSH4 0xFFFFFFFF AND JUMP JUMPDEST PUSH2 0x80F PUSH1 0x40 MLOAD DUP1 PUSH1 0x40 ADD PUSH1 0x40 MSTORE DUP1 PUSH1 0x11 DUP2 MSTORE PUSH1 0x20 ADD PUSH17 0x75726C56616C69646174696F6E44617465 PUSH1 0x78 SHL DUP2 MSTORE POP PUSH1 0x40 MLOAD DUP1 PUSH1 0x80 ADD PUSH1 0x40 MSTORE DUP1 PUSH1 0x4B DUP2 MSTORE PUSH1 0x20 ADD PUSH2 0x197E PUSH1 0x4B SWAP2 CODECOPY DUP4 SWAP2 SWAP1 PUSH2 0xB53 JUMP JUMPDEST PUSH2 0x874 PUSH1 0x40 MLOAD DUP1 PUSH1 0x40 ADD PUSH1 0x40 MSTORE DUP1 PUSH1 0x12 DUP2 MSTORE PUSH1 0x20 ADD PUSH18 0x7061746856616C69646174696F6E44617465 PUSH1 0x70 SHL DUP2 MSTORE POP PUSH1 0x40 MLOAD DUP1 PUSH1 0x40 ADD PUSH1 0x40 MSTORE DUP1 PUSH1 0xE DUP2 MSTORE PUSH1 0x20 ADD PUSH14 0x76616C69646174696F6E44617465 PUSH1 0x90 SHL DUP2 MSTORE POP DUP4 PUSH2 0xB53 SWAP1 SWAP3 SWAP2 SWAP1 PUSH4 0xFFFFFFFF AND JUMP JUMPDEST PUSH2 0x8C4 PUSH1 0x40 MLOAD DUP1 PUSH1 0x40 ADD PUSH1 0x40 MSTORE DUP1 PUSH1 0x13 DUP2 MSTORE PUSH1 0x20 ADD PUSH19 0x75726C566572696669636174696F6E44617465 PUSH1 0x68 SHL DUP2 MSTORE POP PUSH1 0x40 MLOAD DUP1 PUSH1 0x80 ADD PUSH1 0x40 MSTORE DUP1 PUSH1 0x4B DUP2 MSTORE PUSH1 0x20 ADD PUSH2 0x197E PUSH1 0x4B SWAP2 CODECOPY DUP4 SWAP2 SWAP1 PUSH2 0xB53 JUMP JUMPDEST PUSH2 0x92D PUSH1 0x40 MLOAD DUP1 PUSH1 0x40 ADD PUSH1 0x40 MSTORE DUP1 PUSH1 0x14 DUP2 MSTORE PUSH1 0x20 ADD PUSH20 0x70617468566572696669636174696F6E44617465 PUSH1 0x60 SHL DUP2 MSTORE POP PUSH1 0x40 MLOAD DUP1 PUSH1 0x40 ADD PUSH1 0x40 MSTORE DUP1 PUSH1 0x10 DUP2 MSTORE PUSH1 0x20 ADD PUSH16 0x766572696669636174696F6E44617465 PUSH1 0x80 SHL DUP2 MSTORE POP DUP4 PUSH2 0xB53 SWAP1 SWAP3 SWAP2 SWAP1 PUSH4 0xFFFFFFFF AND JUMP JUMPDEST PUSH2 0x97A PUSH1 0x40 MLOAD DUP1 PUSH1 0x40 ADD PUSH1 0x40 MSTORE DUP1 PUSH1 0x10 DUP2 MSTORE PUSH1 0x20 ADD PUSH16 0x75726C49737375656443726564697473 PUSH1 0x80 SHL DUP2 MSTORE POP PUSH1 0x40 MLOAD DUP1 PUSH1 0x80 ADD PUSH1 0x40 MSTORE DUP1 PUSH1 0x4B DUP2 MSTORE PUSH1 0x20 ADD PUSH2 0x197E PUSH1 0x4B SWAP2 CODECOPY DUP4 SWAP2 SWAP1 PUSH2 0xB53 JUMP JUMPDEST PUSH2 0x9DD PUSH1 0x40 MLOAD DUP1 PUSH1 0x40 ADD PUSH1 0x40 MSTORE DUP1 PUSH1 0x11 DUP2 MSTORE PUSH1 0x20 ADD PUSH17 0x7061746849737375656443726564697473 PUSH1 0x78 SHL DUP2 MSTORE POP PUSH1 0x40 MLOAD DUP1 PUSH1 0x40 ADD PUSH1 0x40 MSTORE DUP1 PUSH1 0xD DUP2 MSTORE PUSH1 0x20 ADD PUSH13 0x69737375656443726564697473 PUSH1 0x98 SHL DUP2 MSTORE POP DUP4 PUSH2 0xB53 SWAP1 SWAP3 SWAP2 SWAP1 PUSH4 0xFFFFFFFF AND JUMP JUMPDEST PUSH2 0xA06 DUP4 DUP3 PUSH1 0xA PUSH2 0x9F7 PUSH8 0xDE0B6B3A7640000 PUSH1 0x1 PUSH2 0x176D JUMP JUMPDEST PUSH2 0xA01 SWAP2 SWAP1 PUSH2 0x1798 JUMP JUMPDEST PUSH2 0xB76 JUMP JUMPDEST POP POP POP POP JUMP JUMPDEST PUSH1 0x9 DUP1 SLOAD PUSH2 0x100 SWAP1 PUSH2 0x154B JUMP JUMPDEST PUSH2 0xA21 PUSH2 0xABC JUMP JUMPDEST PUSH2 0xA2A DUP2 PUSH2 0xC07 JUMP JUMPDEST POP JUMP JUMPDEST PUSH1 0x60 PUSH0 PUSH2 0xA39 DUP4 PUSH2 0xCAA JUMP JUMPDEST PUSH1 0x1 ADD SWAP1 POP PUSH0 DUP2 PUSH1 0x1 PUSH1 0x1 PUSH1 0x40 SHL SUB DUP2 GT ISZERO PUSH2 0xA57 JUMPI PUSH2 0xA57 PUSH2 0x1342 JUMP JUMPDEST PUSH1 0x40 MLOAD SWAP1 DUP1 DUP3 MSTORE DUP1 PUSH1 0x1F ADD PUSH1 0x1F NOT AND PUSH1 0x20 ADD DUP3 ADD PUSH1 0x40 MSTORE DUP1 ISZERO PUSH2 0xA81 JUMPI PUSH1 0x20 DUP3 ADD DUP2 DUP1 CALLDATASIZE DUP4 CALLDATACOPY ADD SWAP1 POP JUMPDEST POP SWAP1 POP DUP2 DUP2 ADD PUSH1 0x20 ADD JUMPDEST PUSH0 NOT ADD PUSH16 0x181899199A1A9B1B9C1CB0B131B232B3 PUSH1 0x81 SHL PUSH1 0xA DUP7 MOD BYTE DUP2 MSTORE8 PUSH1 0xA DUP6 DIV SWAP5 POP DUP5 PUSH2 0xA8B JUMPI POP SWAP4 SWAP3 POP POP POP JUMP JUMPDEST PUSH1 0x6 SLOAD PUSH1 0x1 PUSH1 0x1 PUSH1 0xA0 SHL SUB AND CALLER EQ PUSH2 0xB0F JUMPI PUSH1 0x40 MLOAD PUSH3 0x461BCD PUSH1 0xE5 SHL DUP2 MSTORE PUSH1 0x20 PUSH1 0x4 DUP3 ADD MSTORE PUSH1 0x16 PUSH1 0x24 DUP3 ADD MSTORE PUSH22 0x27B7363C9031B0B63630B1363290313C9037BBB732B9 PUSH1 0x51 SHL PUSH1 0x44 DUP3 ADD MSTORE PUSH1 0x64 ADD PUSH2 0x1F3 JUMP JUMPDEST JUMP JUMPDEST DUP1 MLOAD PUSH0 SWAP1 DUP3 SWAP1 DUP3 SUB PUSH2 0xB25 JUMPI POP PUSH0 SWAP3 SWAP2 POP POP JUMP JUMPDEST POP POP PUSH1 0x20 ADD MLOAD SWAP1 JUMP JUMPDEST PUSH2 0xB36 PUSH2 0x12A6 JUMP JUMPDEST PUSH2 0xB3E PUSH2 0x12A6 JUMP JUMPDEST PUSH2 0xB4A DUP2 DUP7 DUP7 DUP7 PUSH2 0xD80 JUMP JUMPDEST SWAP6 SWAP5 POP POP POP POP POP JUMP JUMPDEST PUSH1 0x80 DUP4 ADD MLOAD PUSH2 0xB62 SWAP1 DUP4 PUSH2 0xDC6 JUMP JUMPDEST PUSH1 0x80 DUP4 ADD MLOAD PUSH2 0xB71 SWAP1 DUP3 PUSH2 0xDC6 JUMP JUMPDEST POP POP POP JUMP JUMPDEST PUSH1 0x4 SLOAD PUSH0 SWAP1 PUSH2 0xB86 DUP2 PUSH1 0x1 PUSH2 0x17AB JUMP JUMPDEST PUSH1 0x4 SSTORE DUP4 MLOAD PUSH1 0x40 DUP1 DUP7 ADD MLOAD PUSH1 0x80 DUP8 ADD MLOAD MLOAD SWAP2 MLOAD PUSH0 SWAP4 PUSH4 0x20214CA3 PUSH1 0xE1 SHL SWAP4 PUSH2 0xBBD SWAP4 DUP7 SWAP4 DUP5 SWAP4 SWAP3 ADDRESS SWAP3 SWAP2 DUP11 SWAP2 PUSH1 0x1 SWAP2 PUSH1 0x24 ADD PUSH2 0x17BE JUMP JUMPDEST PUSH1 0x40 DUP1 MLOAD PUSH1 0x1F NOT DUP2 DUP5 SUB ADD DUP2 MSTORE SWAP2 SWAP1 MSTORE PUSH1 0x20 DUP2 ADD DUP1 MLOAD PUSH1 0x1 PUSH1 0x1 PUSH1 0xE0 SHL SUB AND PUSH1 0x1 PUSH1 0x1 PUSH1 0xE0 SHL SUB NOT SWAP1 SWAP4 AND SWAP3 SWAP1 SWAP3 OR SWAP1 SWAP2 MSTORE SWAP1 POP PUSH2 0xBFD DUP7 DUP4 DUP7 DUP5 PUSH2 0xDDD JUMP JUMPDEST SWAP7 SWAP6 POP POP POP POP POP POP JUMP JUMPDEST CALLER PUSH1 0x1 PUSH1 0x1 PUSH1 0xA0 SHL SUB DUP3 AND SUB PUSH2 0xC59 JUMPI PUSH1 0x40 MLOAD PUSH3 0x461BCD PUSH1 0xE5 SHL DUP2 MSTORE PUSH1 0x20 PUSH1 0x4 DUP3 ADD MSTORE PUSH1 0x17 PUSH1 0x24 DUP3 ADD MSTORE PUSH23 0x21B0B73737BA103A3930B739B332B9103A379039B2B633 PUSH1 0x49 SHL PUSH1 0x44 DUP3 ADD MSTORE PUSH1 0x64 ADD PUSH2 0x1F3 JUMP JUMPDEST PUSH1 0x7 DUP1 SLOAD PUSH1 0x1 PUSH1 0x1 PUSH1 0xA0 SHL SUB NOT AND PUSH1 0x1 PUSH1 0x1 PUSH1 0xA0 SHL SUB DUP4 DUP2 AND SWAP2 DUP3 OR SWAP1 SWAP3 SSTORE PUSH1 0x6 SLOAD PUSH1 0x40 MLOAD SWAP2 SWAP3 AND SWAP1 PUSH32 0xED8889F560326EB138920D842192F0EB3DD22B4F139C87A2C57538E05BAE1278 SWAP1 PUSH0 SWAP1 LOG3 POP JUMP JUMPDEST PUSH0 DUP1 PUSH19 0x184F03E93FF9F4DAA797ED6E38ED64BF6A1F01 PUSH1 0x40 SHL DUP4 LT PUSH2 0xCE8 JUMPI PUSH19 0x184F03E93FF9F4DAA797ED6E38ED64BF6A1F01 PUSH1 0x40 SHL DUP4 DIV SWAP3 POP PUSH1 0x40 ADD JUMPDEST PUSH10 0x4EE2D6D415B85ACEF81 PUSH1 0x20 SHL DUP4 LT PUSH2 0xD12 JUMPI PUSH10 0x4EE2D6D415B85ACEF81 PUSH1 0x20 SHL DUP4 DIV SWAP3 POP PUSH1 0x20 ADD JUMPDEST PUSH7 0x2386F26FC10000 DUP4 LT PUSH2 0xD30 JUMPI PUSH7 0x2386F26FC10000 DUP4 DIV SWAP3 POP PUSH1 0x10 ADD JUMPDEST PUSH4 0x5F5E100 DUP4 LT PUSH2 0xD48 JUMPI PUSH4 0x5F5E100 DUP4 DIV SWAP3 POP PUSH1 0x8 ADD JUMPDEST PUSH2 0x2710 DUP4 LT PUSH2 0xD5C JUMPI PUSH2 0x2710 DUP4 DIV SWAP3 POP PUSH1 0x4 ADD JUMPDEST PUSH1 0x64 DUP4 LT PUSH2 0xD6E JUMPI PUSH1 0x64 DUP4 DIV SWAP3 POP PUSH1 0x2 ADD JUMPDEST PUSH1 0xA DUP4 LT PUSH2 0xD7A JUMPI PUSH1 0x1 ADD JUMPDEST SWAP3 SWAP2 POP POP JUMP JUMPDEST PUSH2 0xD88 PUSH2 0x12A6 JUMP JUMPDEST PUSH2 0xD98 DUP6 PUSH1 0x80 ADD MLOAD PUSH2 0x100 PUSH2 0xF31 JUMP JUMPDEST POP POP DUP3 DUP5 MSTORE PUSH1 0x1 PUSH1 0x1 PUSH1 0xA0 SHL SUB DUP3 AND PUSH1 0x20 DUP6 ADD MSTORE PUSH1 0x1 PUSH1 0x1 PUSH1 0xE0 SHL SUB NOT DUP2 AND PUSH1 0x40 DUP6 ADD MSTORE DUP4 JUMPDEST SWAP5 SWAP4 POP POP POP POP JUMP JUMPDEST PUSH2 0xDD3 DUP3 PUSH1 0x3 DUP4 MLOAD PUSH2 0xF88 JUMP JUMPDEST PUSH2 0xB71 DUP3 DUP3 PUSH2 0x108F JUMP JUMPDEST PUSH1 0x40 MLOAD PUSH1 0x1 PUSH1 0x1 PUSH1 0x60 SHL SUB NOT ADDRESS PUSH1 0x60 SHL AND PUSH1 0x20 DUP3 ADD MSTORE PUSH1 0x34 DUP2 ADD DUP5 SWAP1 MSTORE PUSH0 SWAP1 PUSH1 0x54 ADD PUSH1 0x40 DUP1 MLOAD DUP1 DUP4 SUB PUSH1 0x1F NOT ADD DUP2 MSTORE DUP3 DUP3 MSTORE DUP1 MLOAD PUSH1 0x20 SWAP2 DUP3 ADD KECCAK256 PUSH0 DUP2 DUP2 MSTORE PUSH1 0x5 SWAP1 SWAP3 MSTORE SWAP2 DUP2 KECCAK256 DUP1 SLOAD PUSH1 0x1 PUSH1 0x1 PUSH1 0xA0 SHL SUB NOT AND PUSH1 0x1 PUSH1 0x1 PUSH1 0xA0 SHL SUB DUP11 AND OR SWAP1 SSTORE SWAP1 SWAP3 POP DUP3 SWAP2 PUSH32 0xB5E6E01E79F91267DC17B4E6314D5D4D03593D2CEEE0FBB452B750BD70EA5AF9 SWAP2 SWAP1 LOG2 PUSH1 0x2 SLOAD PUSH1 0x40 MLOAD PUSH4 0x2000575 PUSH1 0xE5 SHL DUP2 MSTORE PUSH1 0x1 PUSH1 0x1 PUSH1 0xA0 SHL SUB SWAP1 SWAP2 AND SWAP1 PUSH4 0x4000AEA0 SWAP1 PUSH2 0xE99 SWAP1 DUP9 SWAP1 DUP8 SWAP1 DUP8 SWAP1 PUSH1 0x4 ADD PUSH2 0x1824 JUMP JUMPDEST PUSH1 0x20 PUSH1 0x40 MLOAD DUP1 DUP4 SUB DUP2 PUSH0 DUP8 GAS CALL ISZERO DUP1 ISZERO PUSH2 0xEB5 JUMPI RETURNDATASIZE PUSH0 PUSH0 RETURNDATACOPY RETURNDATASIZE PUSH0 REVERT JUMPDEST POP POP POP POP PUSH1 0x40 MLOAD RETURNDATASIZE PUSH1 0x1F NOT PUSH1 0x1F DUP3 ADD AND DUP3 ADD DUP1 PUSH1 0x40 MSTORE POP DUP2 ADD SWAP1 PUSH2 0xED9 SWAP2 SWAP1 PUSH2 0x184A JUMP JUMPDEST PUSH2 0xDBE JUMPI PUSH1 0x40 MLOAD PUSH3 0x461BCD PUSH1 0xE5 SHL DUP2 MSTORE PUSH1 0x20 PUSH1 0x4 DUP3 ADD MSTORE PUSH1 0x23 PUSH1 0x24 DUP3 ADD MSTORE PUSH32 0x756E61626C6520746F207472616E73666572416E6443616C6C20746F206F7261 PUSH1 0x44 DUP3 ADD MSTORE PUSH3 0x636C65 PUSH1 0xE8 SHL PUSH1 0x64 DUP3 ADD MSTORE PUSH1 0x84 ADD PUSH2 0x1F3 JUMP JUMPDEST PUSH2 0xF39 PUSH2 0x12E9 JUMP JUMPDEST PUSH2 0xF44 PUSH1 0x20 DUP4 PUSH2 0x1869 JUMP JUMPDEST ISZERO PUSH2 0xF6C JUMPI PUSH2 0xF54 PUSH1 0x20 DUP4 PUSH2 0x1869 JUMP JUMPDEST PUSH2 0xF5F SWAP1 PUSH1 0x20 PUSH2 0x187C JUMP JUMPDEST PUSH2 0xF69 SWAP1 DUP4 PUSH2 0x17AB JUMP JUMPDEST SWAP2 POP JUMPDEST POP PUSH1 0x20 DUP3 DUP2 ADD DUP3 SWAP1 MSTORE PUSH1 0x40 DUP1 MLOAD DUP1 DUP6 MSTORE PUSH0 DUP2 MSTORE SWAP1 SWAP3 ADD ADD SWAP1 MSTORE SWAP1 JUMP JUMPDEST PUSH1 0x17 DUP2 PUSH1 0x1 PUSH1 0x1 PUSH1 0x40 SHL SUB AND GT PUSH2 0xFAC JUMPI PUSH2 0xA06 DUP4 PUSH1 0xE0 PUSH1 0x5 DUP6 SWAP1 SHL AND DUP4 OR PUSH2 0x10AF JUMP JUMPDEST PUSH1 0xFF DUP2 PUSH1 0x1 PUSH1 0x1 PUSH1 0x40 SHL SUB AND GT PUSH2 0xFE8 JUMPI PUSH2 0xFD2 DUP4 PUSH1 0x18 PUSH2 0x1FE0 PUSH1 0x5 DUP7 SWAP1 SHL AND OR PUSH2 0x10AF JUMP JUMPDEST POP PUSH2 0xA06 DUP4 PUSH1 0x1 PUSH1 0x1 PUSH1 0x40 SHL SUB DUP4 AND PUSH1 0x1 PUSH2 0x10C6 JUMP JUMPDEST PUSH2 0xFFFF DUP2 PUSH1 0x1 PUSH1 0x1 PUSH1 0x40 SHL SUB AND GT PUSH2 0x1025 JUMPI PUSH2 0x100F DUP4 PUSH1 0x19 PUSH2 0x1FE0 PUSH1 0x5 DUP7 SWAP1 SHL AND OR PUSH2 0x10AF JUMP JUMPDEST POP PUSH2 0xA06 DUP4 PUSH1 0x1 PUSH1 0x1 PUSH1 0x40 SHL SUB DUP4 AND PUSH1 0x2 PUSH2 0x10C6 JUMP JUMPDEST PUSH4 0xFFFFFFFF DUP2 PUSH1 0x1 PUSH1 0x1 PUSH1 0x40 SHL SUB AND GT PUSH2 0x1064 JUMPI PUSH2 0x104E DUP4 PUSH1 0x1A PUSH2 0x1FE0 PUSH1 0x5 DUP7 SWAP1 SHL AND OR PUSH2 0x10AF JUMP JUMPDEST POP PUSH2 0xA06 DUP4 PUSH1 0x1 PUSH1 0x1 PUSH1 0x40 SHL SUB DUP4 AND PUSH1 0x4 PUSH2 0x10C6 JUMP JUMPDEST PUSH2 0x1079 DUP4 PUSH1 0x1B PUSH2 0x1FE0 PUSH1 0x5 DUP7 SWAP1 SHL AND OR PUSH2 0x10AF JUMP JUMPDEST POP PUSH2 0xA06 DUP4 PUSH1 0x1 PUSH1 0x1 PUSH1 0x40 SHL SUB DUP4 AND PUSH1 0x8 PUSH2 0x10C6 JUMP JUMPDEST PUSH2 0x1097 PUSH2 0x12E9 JUMP JUMPDEST PUSH2 0x10A8 DUP4 DUP5 PUSH0 ADD MLOAD MLOAD DUP5 DUP6 MLOAD PUSH2 0x10DE JUMP JUMPDEST SWAP4 SWAP3 POP POP POP JUMP JUMPDEST PUSH2 0x10B7 PUSH2 0x12E9 JUMP JUMPDEST PUSH2 0x10A8 DUP4 DUP5 PUSH0 ADD MLOAD MLOAD DUP5 PUSH2 0x11B8 JUMP JUMPDEST PUSH2 0x10CE PUSH2 0x12E9 JUMP JUMPDEST PUSH2 0xDBE DUP5 DUP6 PUSH0 ADD MLOAD MLOAD DUP6 DUP6 PUSH2 0x1206 JUMP JUMPDEST PUSH2 0x10E6 PUSH2 0x12E9 JUMP JUMPDEST DUP3 MLOAD DUP3 GT ISZERO PUSH2 0x10F3 JUMPI PUSH0 PUSH0 REVERT JUMPDEST PUSH1 0x20 DUP6 ADD MLOAD PUSH2 0x1102 DUP4 DUP7 PUSH2 0x17AB JUMP JUMPDEST GT ISZERO PUSH2 0x1135 JUMPI PUSH2 0x1135 DUP6 PUSH2 0x1125 DUP8 PUSH1 0x20 ADD MLOAD DUP8 DUP7 PUSH2 0x1120 SWAP2 SWAP1 PUSH2 0x17AB JUMP JUMPDEST PUSH2 0x1279 JUMP JUMPDEST PUSH2 0x1130 SWAP1 PUSH1 0x2 PUSH2 0x176D JUMP JUMPDEST PUSH2 0x128F JUMP JUMPDEST PUSH0 PUSH0 DUP7 MLOAD DUP1 MLOAD DUP8 PUSH1 0x20 DUP4 ADD ADD SWAP4 POP DUP1 DUP9 DUP8 ADD GT ISZERO PUSH2 0x1153 JUMPI DUP8 DUP7 ADD DUP3 MSTORE JUMPDEST POP POP POP PUSH1 0x20 DUP5 ADD JUMPDEST PUSH1 0x20 DUP5 LT PUSH2 0x1193 JUMPI DUP1 MLOAD DUP3 MSTORE PUSH2 0x1172 PUSH1 0x20 DUP4 PUSH2 0x17AB JUMP JUMPDEST SWAP2 POP PUSH2 0x117F PUSH1 0x20 DUP3 PUSH2 0x17AB JUMP JUMPDEST SWAP1 POP PUSH2 0x118C PUSH1 0x20 DUP6 PUSH2 0x187C JUMP JUMPDEST SWAP4 POP PUSH2 0x115B JUMP JUMPDEST MLOAD DUP2 MLOAD PUSH0 NOT PUSH1 0x20 DUP7 SWAP1 SUB PUSH2 0x100 EXP ADD SWAP1 DUP2 AND SWAP1 NOT SWAP2 SWAP1 SWAP2 AND OR SWAP1 MSTORE POP DUP4 SWAP5 SWAP4 POP POP POP POP JUMP JUMPDEST PUSH2 0x11C0 PUSH2 0x12E9 JUMP JUMPDEST DUP4 PUSH1 0x20 ADD MLOAD DUP4 LT PUSH2 0x11E0 JUMPI PUSH2 0x11E0 DUP5 DUP6 PUSH1 0x20 ADD MLOAD PUSH1 0x2 PUSH2 0x1130 SWAP2 SWAP1 PUSH2 0x176D JUMP JUMPDEST DUP4 MLOAD DUP1 MLOAD PUSH1 0x20 DUP6 DUP4 ADD ADD DUP5 DUP2 MSTORE8 POP DUP1 DUP6 SUB PUSH2 0x11FC JUMPI PUSH1 0x1 DUP2 ADD DUP3 MSTORE JUMPDEST POP SWAP4 SWAP5 SWAP4 POP POP POP POP JUMP JUMPDEST PUSH2 0x120E PUSH2 0x12E9 JUMP JUMPDEST PUSH1 0x20 DUP6 ADD MLOAD PUSH2 0x121D DUP6 DUP5 PUSH2 0x17AB JUMP JUMPDEST GT ISZERO PUSH2 0x1231 JUMPI PUSH2 0x1231 DUP6 PUSH2 0x1125 DUP7 DUP6 PUSH2 0x17AB JUMP JUMPDEST PUSH0 PUSH1 0x1 PUSH2 0x1240 DUP5 PUSH2 0x100 PUSH2 0x1972 JUMP JUMPDEST PUSH2 0x124A SWAP2 SWAP1 PUSH2 0x187C JUMP JUMPDEST SWAP1 POP DUP6 MLOAD DUP4 DUP7 DUP3 ADD ADD DUP6 DUP4 NOT DUP3 MLOAD AND OR DUP2 MSTORE POP DUP1 MLOAD DUP5 DUP8 ADD GT ISZERO PUSH2 0x126E JUMPI DUP4 DUP7 ADD DUP2 MSTORE JUMPDEST POP SWAP5 SWAP6 SWAP5 POP POP POP POP POP JUMP JUMPDEST PUSH0 DUP2 DUP4 GT ISZERO PUSH2 0x1289 JUMPI POP DUP2 PUSH2 0xD7A JUMP JUMPDEST POP SWAP2 SWAP1 POP JUMP JUMPDEST DUP2 MLOAD PUSH2 0x129B DUP4 DUP4 PUSH2 0xF31 JUMP JUMPDEST POP PUSH2 0xA06 DUP4 DUP3 PUSH2 0x108F JUMP JUMPDEST PUSH1 0x40 MLOAD DUP1 PUSH1 0xA0 ADD PUSH1 0x40 MSTORE DUP1 PUSH0 DUP2 MSTORE PUSH1 0x20 ADD PUSH0 PUSH1 0x1 PUSH1 0x1 PUSH1 0xA0 SHL SUB AND DUP2 MSTORE PUSH1 0x20 ADD PUSH0 PUSH1 0x1 PUSH1 0x1 PUSH1 0xE0 SHL SUB NOT AND DUP2 MSTORE PUSH1 0x20 ADD PUSH0 DUP2 MSTORE PUSH1 0x20 ADD PUSH2 0x12E4 PUSH2 0x12E9 JUMP JUMPDEST SWAP1 MSTORE SWAP1 JUMP JUMPDEST PUSH1 0x40 MLOAD DUP1 PUSH1 0x40 ADD PUSH1 0x40 MSTORE DUP1 PUSH1 0x60 DUP2 MSTORE PUSH1 0x20 ADD PUSH0 DUP2 MSTORE POP SWAP1 JUMP JUMPDEST PUSH0 DUP2 MLOAD DUP1 DUP5 MSTORE DUP1 PUSH1 0x20 DUP5 ADD PUSH1 0x20 DUP7 ADD MCOPY PUSH0 PUSH1 0x20 DUP3 DUP7 ADD ADD MSTORE PUSH1 0x20 PUSH1 0x1F NOT PUSH1 0x1F DUP4 ADD AND DUP6 ADD ADD SWAP2 POP POP SWAP3 SWAP2 POP POP JUMP JUMPDEST PUSH1 0x20 DUP2 MSTORE PUSH0 PUSH2 0x10A8 PUSH1 0x20 DUP4 ADD DUP5 PUSH2 0x1302 JUMP JUMPDEST PUSH4 0x4E487B71 PUSH1 0xE0 SHL PUSH0 MSTORE PUSH1 0x41 PUSH1 0x4 MSTORE PUSH1 0x24 PUSH0 REVERT JUMPDEST PUSH0 DUP3 PUSH1 0x1F DUP4 ADD SLT PUSH2 0x1365 JUMPI PUSH0 PUSH0 REVERT JUMPDEST DUP2 CALLDATALOAD PUSH1 0x1 PUSH1 0x1 PUSH1 0x40 SHL SUB DUP2 GT ISZERO PUSH2 0x137E JUMPI PUSH2 0x137E PUSH2 0x1342 JUMP JUMPDEST PUSH1 0x40 MLOAD PUSH1 0x1F DUP3 ADD PUSH1 0x1F NOT SWAP1 DUP2 AND PUSH1 0x3F ADD AND DUP2 ADD PUSH1 0x1 PUSH1 0x1 PUSH1 0x40 SHL SUB DUP2 GT DUP3 DUP3 LT OR ISZERO PUSH2 0x13AC JUMPI PUSH2 0x13AC PUSH2 0x1342 JUMP JUMPDEST PUSH1 0x40 MSTORE DUP2 DUP2 MSTORE DUP4 DUP3 ADD PUSH1 0x20 ADD DUP6 LT ISZERO PUSH2 0x13C3 JUMPI PUSH0 PUSH0 REVERT JUMPDEST DUP2 PUSH1 0x20 DUP6 ADD PUSH1 0x20 DUP4 ADD CALLDATACOPY PUSH0 SWAP2 DUP2 ADD PUSH1 0x20 ADD SWAP2 SWAP1 SWAP2 MSTORE SWAP4 SWAP3 POP POP POP JUMP JUMPDEST PUSH0 PUSH0 PUSH0 PUSH0 PUSH0 PUSH0 PUSH0 PUSH0 PUSH0 PUSH0 PUSH2 0x140 DUP12 DUP14 SUB SLT ISZERO PUSH2 0x13F9 JUMPI PUSH0 PUSH0 REVERT JUMPDEST DUP11 CALLDATALOAD SWAP10 POP PUSH1 0x20 DUP12 ADD CALLDATALOAD PUSH1 0x1 PUSH1 0x1 PUSH1 0x40 SHL SUB DUP2 GT ISZERO PUSH2 0x1415 JUMPI PUSH0 PUSH0 REVERT JUMPDEST PUSH2 0x1421 DUP14 DUP3 DUP15 ADD PUSH2 0x1356 JUMP JUMPDEST SWAP10 POP POP PUSH1 0x40 DUP12 ADD CALLDATALOAD PUSH1 0x1 PUSH1 0x1 PUSH1 0x40 SHL SUB DUP2 GT ISZERO PUSH2 0x143C JUMPI PUSH0 PUSH0 REVERT JUMPDEST PUSH2 0x1448 DUP14 DUP3 DUP15 ADD PUSH2 0x1356 JUMP JUMPDEST SWAP9 POP POP PUSH1 0x60 DUP12 ADD CALLDATALOAD PUSH1 0x1 PUSH1 0x1 PUSH1 0x40 SHL SUB DUP2 GT ISZERO PUSH2 0x1463 JUMPI PUSH0 PUSH0 REVERT JUMPDEST PUSH2 0x146F DUP14 DUP3 DUP15 ADD PUSH2 0x1356 JUMP JUMPDEST SWAP8 POP POP PUSH1 0x80 DUP12 ADD CALLDATALOAD SWAP6 POP PUSH1 0xA0 DUP12 ADD CALLDATALOAD PUSH1 0x1 PUSH1 0x1 PUSH1 0x40 SHL SUB DUP2 GT ISZERO PUSH2 0x1491 JUMPI PUSH0 PUSH0 REVERT JUMPDEST PUSH2 0x149D DUP14 DUP3 DUP15 ADD PUSH2 0x1356 JUMP JUMPDEST SWAP11 SWAP14 SWAP10 SWAP13 POP SWAP8 SWAP11 SWAP7 SWAP10 SWAP6 SWAP9 SWAP6 SWAP8 POP POP POP POP PUSH1 0xC0 DUP5 ADD CALLDATALOAD SWAP4 PUSH1 0xE0 DUP2 ADD CALLDATALOAD SWAP4 PUSH2 0x100 DUP3 ADD CALLDATALOAD SWAP4 POP PUSH2 0x120 SWAP1 SWAP2 ADD CALLDATALOAD SWAP2 POP JUMP JUMPDEST DUP1 CALLDATALOAD PUSH1 0x1 PUSH1 0x1 PUSH1 0xA0 SHL SUB DUP2 AND DUP2 EQ PUSH2 0x14E3 JUMPI PUSH0 PUSH0 REVERT JUMPDEST SWAP2 SWAP1 POP JUMP JUMPDEST PUSH0 PUSH0 PUSH1 0x40 DUP4 DUP6 SUB SLT ISZERO PUSH2 0x14F9 JUMPI PUSH0 PUSH0 REVERT JUMPDEST PUSH2 0x1502 DUP4 PUSH2 0x14CD JUMP JUMPDEST SWAP2 POP PUSH1 0x20 DUP4 ADD CALLDATALOAD PUSH1 0x1 PUSH1 0x1 PUSH1 0x40 SHL SUB DUP2 GT ISZERO PUSH2 0x151C JUMPI PUSH0 PUSH0 REVERT JUMPDEST PUSH2 0x1528 DUP6 DUP3 DUP7 ADD PUSH2 0x1356 JUMP JUMPDEST SWAP2 POP POP SWAP3 POP SWAP3 SWAP1 POP JUMP JUMPDEST PUSH0 PUSH1 0x20 DUP3 DUP5 SUB SLT ISZERO PUSH2 0x1542 JUMPI PUSH0 PUSH0 REVERT JUMPDEST PUSH2 0x10A8 DUP3 PUSH2 0x14CD JUMP JUMPDEST PUSH1 0x1 DUP2 DUP2 SHR SWAP1 DUP3 AND DUP1 PUSH2 0x155F JUMPI PUSH1 0x7F DUP3 AND SWAP2 POP JUMPDEST PUSH1 0x20 DUP3 LT DUP2 SUB PUSH2 0x1289 JUMPI PUSH4 0x4E487B71 PUSH1 0xE0 SHL PUSH0 MSTORE PUSH1 0x22 PUSH1 0x4 MSTORE PUSH1 0x24 PUSH0 REVERT JUMPDEST PUSH1 0x1F DUP3 GT ISZERO PUSH2 0xB71 JUMPI DUP1 PUSH0 MSTORE PUSH1 0x20 PUSH0 KECCAK256 PUSH1 0x1F DUP5 ADD PUSH1 0x5 SHR DUP2 ADD PUSH1 0x20 DUP6 LT ISZERO PUSH2 0x15A2 JUMPI POP DUP1 JUMPDEST PUSH1 0x1F DUP5 ADD PUSH1 0x5 SHR DUP3 ADD SWAP2 POP JUMPDEST DUP2 DUP2 LT ISZERO PUSH2 0x15C1 JUMPI PUSH0 DUP2 SSTORE PUSH1 0x1 ADD PUSH2 0x15AE JUMP JUMPDEST POP POP POP POP POP JUMP JUMPDEST DUP2 MLOAD PUSH1 0x1 PUSH1 0x1 PUSH1 0x40 SHL SUB DUP2 GT ISZERO PUSH2 0x15E1 JUMPI PUSH2 0x15E1 PUSH2 0x1342 JUMP JUMPDEST PUSH2 0x15F5 DUP2 PUSH2 0x15EF DUP5 SLOAD PUSH2 0x154B JUMP JUMPDEST DUP5 PUSH2 0x157D JUMP JUMPDEST PUSH1 0x20 PUSH1 0x1F DUP3 GT PUSH1 0x1 DUP2 EQ PUSH2 0x1627 JUMPI PUSH0 DUP4 ISZERO PUSH2 0x1610 JUMPI POP DUP5 DUP3 ADD MLOAD JUMPDEST PUSH0 NOT PUSH1 0x3 DUP6 SWAP1 SHL SHR NOT AND PUSH1 0x1 DUP5 SWAP1 SHL OR DUP5 SSTORE PUSH2 0x15C1 JUMP JUMPDEST PUSH0 DUP5 DUP2 MSTORE PUSH1 0x20 DUP2 KECCAK256 PUSH1 0x1F NOT DUP6 AND SWAP2 JUMPDEST DUP3 DUP2 LT ISZERO PUSH2 0x1656 JUMPI DUP8 DUP6 ADD MLOAD DUP3 SSTORE PUSH1 0x20 SWAP5 DUP6 ADD SWAP5 PUSH1 0x1 SWAP1 SWAP3 ADD SWAP2 ADD PUSH2 0x1636 JUMP JUMPDEST POP DUP5 DUP3 LT ISZERO PUSH2 0x1673 JUMPI DUP7 DUP5 ADD MLOAD PUSH0 NOT PUSH1 0x3 DUP8 SWAP1 SHL PUSH1 0xF8 AND SHR NOT AND DUP2 SSTORE JUMPDEST POP POP POP POP PUSH1 0x1 SWAP1 DUP2 SHL ADD SWAP1 SSTORE POP JUMP JUMPDEST PUSH0 DUP2 MLOAD DUP1 PUSH1 0x20 DUP5 ADD DUP6 MCOPY PUSH0 SWAP4 ADD SWAP3 DUP4 MSTORE POP SWAP1 SWAP2 SWAP1 POP JUMP JUMPDEST PUSH0 PUSH2 0xBFD PUSH2 0x16B9 PUSH2 0x16B3 PUSH2 0x16AD DUP6 DUP11 PUSH2 0x1682 JUMP JUMPDEST DUP9 PUSH2 0x1682 JUMP JUMPDEST DUP7 PUSH2 0x1682 JUMP JUMPDEST DUP5 PUSH2 0x1682 JUMP JUMPDEST PUSH0 PUSH0 DUP8 SLOAD PUSH2 0x16CC DUP2 PUSH2 0x154B JUMP JUMPDEST PUSH1 0x1 DUP3 AND DUP1 ISZERO PUSH2 0x16E3 JUMPI PUSH1 0x1 DUP2 EQ PUSH2 0x16F8 JUMPI PUSH2 0x1725 JUMP JUMPDEST PUSH1 0xFF NOT DUP4 AND DUP7 MSTORE DUP2 ISZERO ISZERO DUP3 MUL DUP7 ADD SWAP4 POP PUSH2 0x1725 JUMP JUMPDEST DUP11 PUSH0 MSTORE PUSH1 0x20 PUSH0 KECCAK256 PUSH0 JUMPDEST DUP4 DUP2 LT ISZERO PUSH2 0x171D JUMPI DUP2 SLOAD DUP9 DUP3 ADD MSTORE PUSH1 0x1 SWAP1 SWAP2 ADD SWAP1 PUSH1 0x20 ADD PUSH2 0x1701 JUMP JUMPDEST POP POP DUP2 DUP7 ADD SWAP4 POP JUMPDEST POP POP POP PUSH2 0x174D PUSH2 0x1747 PUSH2 0x1741 PUSH2 0x173B DUP5 DUP12 PUSH2 0x1682 JUMP JUMPDEST DUP10 PUSH2 0x1682 JUMP JUMPDEST DUP8 PUSH2 0x1682 JUMP JUMPDEST DUP6 PUSH2 0x1682 JUMP JUMPDEST SWAP9 SWAP8 POP POP POP POP POP POP POP POP JUMP JUMPDEST PUSH4 0x4E487B71 PUSH1 0xE0 SHL PUSH0 MSTORE PUSH1 0x11 PUSH1 0x4 MSTORE PUSH1 0x24 PUSH0 REVERT JUMPDEST DUP1 DUP3 MUL DUP2 ISZERO DUP3 DUP3 DIV DUP5 EQ OR PUSH2 0xD7A JUMPI PUSH2 0xD7A PUSH2 0x1759 JUMP JUMPDEST PUSH4 0x4E487B71 PUSH1 0xE0 SHL PUSH0 MSTORE PUSH1 0x12 PUSH1 0x4 MSTORE PUSH1 0x24 PUSH0 REVERT JUMPDEST PUSH0 DUP3 PUSH2 0x17A6 JUMPI PUSH2 0x17A6 PUSH2 0x1784 JUMP JUMPDEST POP DIV SWAP1 JUMP JUMPDEST DUP1 DUP3 ADD DUP1 DUP3 GT ISZERO PUSH2 0xD7A JUMPI PUSH2 0xD7A PUSH2 0x1759 JUMP JUMPDEST PUSH1 0x1 PUSH1 0x1 PUSH1 0xA0 SHL SUB DUP10 DUP2 AND DUP3 MSTORE PUSH1 0x20 DUP3 ADD DUP10 SWAP1 MSTORE PUSH1 0x40 DUP3 ADD DUP9 SWAP1 MSTORE DUP7 AND PUSH1 0x60 DUP3 ADD MSTORE PUSH1 0x1 PUSH1 0x1 PUSH1 0xE0 SHL SUB NOT DUP6 AND PUSH1 0x80 DUP3 ADD MSTORE PUSH1 0xA0 DUP2 ADD DUP5 SWAP1 MSTORE PUSH1 0xC0 DUP2 ADD DUP4 SWAP1 MSTORE PUSH2 0x100 PUSH1 0xE0 DUP3 ADD DUP2 SWAP1 MSTORE PUSH0 SWAP1 PUSH2 0x1816 SWAP1 DUP4 ADD DUP5 PUSH2 0x1302 JUMP JUMPDEST SWAP11 SWAP10 POP POP POP POP POP POP POP POP POP POP JUMP JUMPDEST PUSH1 0x1 DUP1 PUSH1 0xA0 SHL SUB DUP5 AND DUP2 MSTORE DUP3 PUSH1 0x20 DUP3 ADD MSTORE PUSH1 0x60 PUSH1 0x40 DUP3 ADD MSTORE PUSH0 PUSH2 0xB4A PUSH1 0x60 DUP4 ADD DUP5 PUSH2 0x1302 JUMP JUMPDEST PUSH0 PUSH1 0x20 DUP3 DUP5 SUB SLT ISZERO PUSH2 0x185A JUMPI PUSH0 PUSH0 REVERT JUMPDEST DUP2 MLOAD DUP1 ISZERO ISZERO DUP2 EQ PUSH2 0x10A8 JUMPI PUSH0 PUSH0 REVERT JUMPDEST PUSH0 DUP3 PUSH2 0x1877 JUMPI PUSH2 0x1877 PUSH2 0x1784 JUMP JUMPDEST POP MOD SWAP1 JUMP JUMPDEST DUP2 DUP2 SUB DUP2 DUP2 GT ISZERO PUSH2 0xD7A JUMPI PUSH2 0xD7A PUSH2 0x1759 JUMP JUMPDEST PUSH1 0x1 DUP2 JUMPDEST PUSH1 0x1 DUP5 GT ISZERO PUSH2 0x18CA JUMPI DUP1 DUP6 DIV DUP2 GT ISZERO PUSH2 0x18AE JUMPI PUSH2 0x18AE PUSH2 0x1759 JUMP JUMPDEST PUSH1 0x1 DUP5 AND ISZERO PUSH2 0x18BC JUMPI SWAP1 DUP2 MUL SWAP1 JUMPDEST PUSH1 0x1 SWAP4 SWAP1 SWAP4 SHR SWAP3 DUP1 MUL PUSH2 0x1893 JUMP JUMPDEST SWAP4 POP SWAP4 SWAP2 POP POP JUMP JUMPDEST PUSH0 DUP3 PUSH2 0x18E0 JUMPI POP PUSH1 0x1 PUSH2 0xD7A JUMP JUMPDEST DUP2 PUSH2 0x18EC JUMPI POP PUSH0 PUSH2 0xD7A JUMP JUMPDEST DUP2 PUSH1 0x1 DUP2 EQ PUSH2 0x1902 JUMPI PUSH1 0x2 DUP2 EQ PUSH2 0x190C JUMPI PUSH2 0x1928 JUMP JUMPDEST PUSH1 0x1 SWAP2 POP POP PUSH2 0xD7A JUMP JUMPDEST PUSH1 0xFF DUP5 GT ISZERO PUSH2 0x191D JUMPI PUSH2 0x191D PUSH2 0x1759 JUMP JUMPDEST POP POP PUSH1 0x1 DUP3 SHL PUSH2 0xD7A JUMP JUMPDEST POP PUSH1 0x20 DUP4 LT PUSH2 0x133 DUP4 LT AND PUSH1 0x4E DUP5 LT PUSH1 0xB DUP5 LT AND OR ISZERO PUSH2 0x194B JUMPI POP DUP2 DUP2 EXP PUSH2 0xD7A JUMP JUMPDEST PUSH2 0x1957 PUSH0 NOT DUP5 DUP5 PUSH2 0x188F JUMP JUMPDEST DUP1 PUSH0 NOT DIV DUP3 GT ISZERO PUSH2 0x196A JUMPI PUSH2 0x196A PUSH2 0x1759 JUMP JUMPDEST MUL SWAP4 SWAP3 POP POP POP JUMP JUMPDEST PUSH0 PUSH2 0x10A8 DUP4 DUP4 PUSH2 0x18D2 JUMP INVALID PUSH9 0x747470733A2F2F746E PUSH26 0x776B6876616B332E657865637574652D6170692E61702D736F75 PUSH21 0x68656173742D322E616D617A6F6E6177732E636F6D 0x2F PUSH5 0x656661756C PUSH21 0x2F686F6E6F757273A26469706673582212209ACC71 0xF7 0xC 0x4C 0x2D ADDMOD PUSH27 0xBEB406581EBDD0AD3492714550C74429446633A42EA4CB64736F6C PUSH4 0x4300081D STOP CALLER PUSH1 0x80 PUSH1 0x40 MSTORE PUSH1 0x4 DUP1 SLOAD PUSH1 0x1 PUSH1 0x1 PUSH1 0xA0 SHL SUB NOT AND PUSH20 0x9DDFACA8183C41AD55329BDEED9F6A8D53168B1B OR SWAP1 SSTORE PUSH32 0x787D74CAEA10B2B357790D5B5247C2F63D1D91572A9846F780606E4D953677AE PUSH1 0x5 SSTORE PUSH1 0x7 DUP1 SLOAD PUSH7 0x10003000186A0 PUSH1 0x1 PUSH1 0x1 PUSH1 0x50 SHL SUB NOT SWAP1 SWAP2 AND OR SWAP1 SSTORE CALLVALUE DUP1 ISZERO PUSH2 0x74 JUMPI PUSH0 PUSH0 REVERT JUMPDEST POP PUSH1 0x40 MLOAD PUSH2 0xAAF CODESIZE SUB DUP1 PUSH2 0xAAF DUP4 CODECOPY DUP2 ADD PUSH1 0x40 DUP2 SWAP1 MSTORE PUSH2 0x93 SWAP2 PUSH2 0x21D JUMP JUMPDEST PUSH1 0x4 SLOAD PUSH1 0x1 PUSH1 0x1 PUSH1 0xA0 SHL SUB AND CALLER DUP1 PUSH0 DUP2 PUSH2 0xF4 JUMPI PUSH1 0x40 MLOAD PUSH3 0x461BCD PUSH1 0xE5 SHL DUP2 MSTORE PUSH1 0x20 PUSH1 0x4 DUP3 ADD MSTORE PUSH1 0x18 PUSH1 0x24 DUP3 ADD MSTORE PUSH32 0x43616E6E6F7420736574206F776E657220746F207A65726F0000000000000000 PUSH1 0x44 DUP3 ADD MSTORE PUSH1 0x64 ADD JUMPDEST PUSH1 0x40 MLOAD DUP1 SWAP2 SUB SWAP1 REVERT JUMPDEST PUSH0 DUP1 SLOAD PUSH1 0x1 PUSH1 0x1 PUSH1 0xA0 SHL SUB NOT AND PUSH1 0x1 PUSH1 0x1 PUSH1 0xA0 SHL SUB DUP5 DUP2 AND SWAP2 SWAP1 SWAP2 OR SWAP1 SWAP2 SSTORE DUP2 AND ISZERO PUSH2 0x123 JUMPI PUSH2 0x123 DUP2 PUSH2 0x175 JUMP JUMPDEST POP POP POP PUSH1 0x1 PUSH1 0x1 PUSH1 0xA0 SHL SUB DUP2 AND PUSH2 0x14D JUMPI PUSH1 0x40 MLOAD PUSH4 0xD92E233D PUSH1 0xE0 SHL DUP2 MSTORE PUSH1 0x4 ADD PUSH1 0x40 MLOAD DUP1 SWAP2 SUB SWAP1 REVERT JUMPDEST PUSH1 0x2 DUP1 SLOAD PUSH1 0x1 PUSH1 0x1 PUSH1 0xA0 SHL SUB NOT AND PUSH1 0x1 PUSH1 0x1 PUSH1 0xA0 SHL SUB SWAP3 SWAP1 SWAP3 AND SWAP2 SWAP1 SWAP2 OR SWAP1 SSTORE PUSH1 0x3 SSTORE PUSH2 0x234 JUMP JUMPDEST CALLER PUSH1 0x1 PUSH1 0x1 PUSH1 0xA0 SHL SUB DUP3 AND SUB PUSH2 0x1CD JUMPI PUSH1 0x40 MLOAD PUSH3 0x461BCD PUSH1 0xE5 SHL DUP2 MSTORE PUSH1 0x20 PUSH1 0x4 DUP3 ADD MSTORE PUSH1 0x17 PUSH1 0x24 DUP3 ADD MSTORE PUSH32 0x43616E6E6F74207472616E7366657220746F2073656C66000000000000000000 PUSH1 0x44 DUP3 ADD MSTORE PUSH1 0x64 ADD PUSH2 0xEB JUMP JUMPDEST PUSH1 0x1 DUP1 SLOAD PUSH1 0x1 PUSH1 0x1 PUSH1 0xA0 SHL SUB NOT AND PUSH1 0x1 PUSH1 0x1 PUSH1 0xA0 SHL SUB DUP4 DUP2 AND SWAP2 DUP3 OR SWAP1 SWAP3 SSTORE PUSH0 DUP1 SLOAD PUSH1 0x40 MLOAD SWAP3 SWAP4 AND SWAP2 PUSH32 0xED8889F560326EB138920D842192F0EB3DD22B4F139C87A2C57538E05BAE1278 SWAP2 SWAP1 LOG3 POP JUMP JUMPDEST PUSH0 PUSH1 0x20 DUP3 DUP5 SUB SLT ISZERO PUSH2 0x22D JUMPI PUSH0 PUSH0 REVERT JUMPDEST POP MLOAD SWAP2 SWAP1 POP JUMP JUMPDEST PUSH2 0x86E DUP1 PUSH2 0x241 PUSH0 CODECOPY PUSH0 RETURN INVALID PUSH1 0x80 PUSH1 0x40 MSTORE CALLVALUE DUP1 ISZERO PUSH2 0xF JUMPI PUSH0 PUSH0 REVERT JUMPDEST POP PUSH1 0x4 CALLDATASIZE LT PUSH2 0xB8 JUMPI PUSH0 CALLDATALOAD PUSH1 0xE0 SHR DUP1 PUSH4 0x1FE543E3 EQ PUSH2 0xBC JUMPI DUP1 PUSH4 0x24F74697 EQ PUSH2 0xD1 JUMPI DUP1 PUSH4 0x45BB327B EQ PUSH2 0xFB JUMPI DUP1 PUSH4 0x79BA5097 EQ PUSH2 0x112 JUMPI DUP1 PUSH4 0x7CCFD7FC EQ PUSH2 0x11A JUMPI DUP1 PUSH4 0x8AC00021 EQ PUSH2 0x131 JUMPI DUP1 PUSH4 0x8DA5CB5B EQ PUSH2 0x13A JUMPI DUP1 PUSH4 0x8EA98117 EQ PUSH2 0x14F JUMPI DUP1 PUSH4 0x9ECCACF6 EQ PUSH2 0x162 JUMPI DUP1 PUSH4 0xA3E56FA8 EQ PUSH2 0x175 JUMPI DUP1 PUSH4 0xB0FB162F EQ PUSH2 0x188 JUMPI DUP1 PUSH4 0xDA9F7550 EQ PUSH2 0x1B0 JUMPI DUP1 PUSH4 0xF2FDE38B EQ PUSH2 0x1B8 JUMPI DUP1 PUSH4 0xF6EAFFC8 EQ PUSH2 0x1CB JUMPI JUMPDEST PUSH0 PUSH0 REVERT JUMPDEST PUSH2 0xCF PUSH2 0xCA CALLDATASIZE PUSH1 0x4 PUSH2 0x6CE JUMP JUMPDEST PUSH2 0x1DE JUMP JUMPDEST STOP JUMPDEST PUSH1 0x7 SLOAD PUSH2 0xE1 SWAP1 PUSH4 0xFFFFFFFF AND DUP2 JUMP JUMPDEST PUSH1 0x40 MLOAD PUSH4 0xFFFFFFFF SWAP1 SWAP2 AND DUP2 MSTORE PUSH1 0x20 ADD JUMPDEST PUSH1 0x40 MLOAD DUP1 SWAP2 SUB SWAP1 RETURN JUMPDEST PUSH2 0x104 PUSH1 0x5 SLOAD DUP2 JUMP JUMPDEST PUSH1 0x40 MLOAD SWAP1 DUP2 MSTORE PUSH1 0x20 ADD PUSH2 0xF2 JUMP JUMPDEST PUSH2 0xCF PUSH2 0x233 JUMP JUMPDEST PUSH1 0x7 SLOAD PUSH2 0xE1 SWAP1 PUSH1 0x1 PUSH1 0x30 SHL SWAP1 DIV PUSH4 0xFFFFFFFF AND DUP2 JUMP JUMPDEST PUSH2 0x104 PUSH1 0x3 SLOAD DUP2 JUMP JUMPDEST PUSH2 0x142 PUSH2 0x2DC JUMP JUMPDEST PUSH1 0x40 MLOAD PUSH2 0xF2 SWAP2 SWAP1 PUSH2 0x746 JUMP JUMPDEST PUSH2 0xCF PUSH2 0x15D CALLDATASIZE PUSH1 0x4 PUSH2 0x75A JUMP JUMPDEST PUSH2 0x2EA JUMP JUMPDEST PUSH1 0x2 SLOAD PUSH2 0x142 SWAP1 PUSH1 0x1 PUSH1 0x1 PUSH1 0xA0 SHL SUB AND DUP2 JUMP JUMPDEST PUSH1 0x4 SLOAD PUSH2 0x142 SWAP1 PUSH1 0x1 PUSH1 0x1 PUSH1 0xA0 SHL SUB AND DUP2 JUMP JUMPDEST PUSH1 0x7 SLOAD PUSH2 0x19D SWAP1 PUSH1 0x1 PUSH1 0x20 SHL SWAP1 DIV PUSH2 0xFFFF AND DUP2 JUMP JUMPDEST PUSH1 0x40 MLOAD PUSH2 0xFFFF SWAP1 SWAP2 AND DUP2 MSTORE PUSH1 0x20 ADD PUSH2 0xF2 JUMP JUMPDEST PUSH2 0x104 PUSH2 0x3E2 JUMP JUMPDEST PUSH2 0xCF PUSH2 0x1C6 CALLDATASIZE PUSH1 0x4 PUSH2 0x75A JUMP JUMPDEST PUSH2 0x4C5 JUMP JUMPDEST PUSH2 0x104 PUSH2 0x1D9 CALLDATASIZE PUSH1 0x4 PUSH2 0x787 JUMP JUMPDEST PUSH2 0x4D9 JUMP JUMPDEST PUSH1 0x2 SLOAD PUSH1 0x1 PUSH1 0x1 PUSH1 0xA0 SHL SUB AND CALLER EQ PUSH2 0x223 JUMPI PUSH1 0x2 SLOAD PUSH1 0x40 MLOAD PUSH4 0x73E64FD PUSH1 0xE2 SHL DUP2 MSTORE CALLER PUSH1 0x4 DUP3 ADD MSTORE PUSH1 0x1 PUSH1 0x1 PUSH1 0xA0 SHL SUB SWAP1 SWAP2 AND PUSH1 0x24 DUP3 ADD MSTORE PUSH1 0x44 ADD JUMPDEST PUSH1 0x40 MLOAD DUP1 SWAP2 SUB SWAP1 REVERT JUMPDEST PUSH2 0x22E DUP4 DUP4 DUP4 PUSH2 0x4F8 JUMP JUMPDEST POP POP POP JUMP JUMPDEST PUSH1 0x1 SLOAD PUSH1 0x1 PUSH1 0x1 PUSH1 0xA0 SHL SUB AND CALLER EQ PUSH2 0x286 JUMPI PUSH1 0x40 MLOAD PUSH3 0x461BCD PUSH1 0xE5 SHL DUP2 MSTORE PUSH1 0x20 PUSH1 0x4 DUP3 ADD MSTORE PUSH1 0x16 PUSH1 0x24 DUP3 ADD MSTORE PUSH22 0x26BAB9BA10313290383937B837B9B2B21037BBB732B9 PUSH1 0x51 SHL PUSH1 0x44 DUP3 ADD MSTORE PUSH1 0x64 ADD PUSH2 0x21A JUMP JUMPDEST PUSH0 DUP1 SLOAD CALLER PUSH1 0x1 PUSH1 0x1 PUSH1 0xA0 SHL SUB NOT DUP1 DUP4 AND DUP3 OR DUP5 SSTORE PUSH1 0x1 DUP1 SLOAD SWAP1 SWAP2 AND SWAP1 SSTORE PUSH1 0x40 MLOAD PUSH1 0x1 PUSH1 0x1 PUSH1 0xA0 SHL SUB SWAP1 SWAP3 AND SWAP3 SWAP1 SWAP2 DUP4 SWAP2 PUSH32 0x8BE0079C531659141344CD1FD0A4F28419497F9722A3DAAFE3B4186F6B6457E0 SWAP2 LOG3 POP JUMP JUMPDEST PUSH0 SLOAD PUSH1 0x1 PUSH1 0x1 PUSH1 0xA0 SHL SUB AND SWAP1 JUMP JUMPDEST PUSH2 0x2F2 PUSH2 0x2DC JUMP JUMPDEST PUSH1 0x1 PUSH1 0x1 PUSH1 0xA0 SHL SUB AND CALLER PUSH1 0x1 PUSH1 0x1 PUSH1 0xA0 SHL SUB AND EQ ISZERO DUP1 ISZERO PUSH2 0x31E JUMPI POP PUSH1 0x2 SLOAD PUSH1 0x1 PUSH1 0x1 PUSH1 0xA0 SHL SUB AND CALLER EQ ISZERO JUMPDEST ISZERO PUSH2 0x365 JUMPI CALLER PUSH2 0x32C PUSH2 0x2DC JUMP JUMPDEST PUSH1 0x2 SLOAD PUSH1 0x40 MLOAD PUSH4 0x61DB9C1 PUSH1 0xE0 SHL DUP2 MSTORE PUSH1 0x1 PUSH1 0x1 PUSH1 0xA0 SHL SUB SWAP4 DUP5 AND PUSH1 0x4 DUP3 ADD MSTORE SWAP2 DUP4 AND PUSH1 0x24 DUP4 ADD MSTORE SWAP2 SWAP1 SWAP2 AND PUSH1 0x44 DUP3 ADD MSTORE PUSH1 0x64 ADD PUSH2 0x21A JUMP JUMPDEST PUSH1 0x1 PUSH1 0x1 PUSH1 0xA0 SHL SUB DUP2 AND PUSH2 0x38C JUMPI PUSH1 0x40 MLOAD PUSH4 0xD92E233D PUSH1 0xE0 SHL DUP2 MSTORE PUSH1 0x4 ADD PUSH1 0x40 MLOAD DUP1 SWAP2 SUB SWAP1 REVERT JUMPDEST PUSH1 0x2 DUP1 SLOAD PUSH1 0x1 PUSH1 0x1 PUSH1 0xA0 SHL SUB NOT AND PUSH1 0x1 PUSH1 0x1 PUSH1 0xA0 SHL SUB DUP4 AND OR SWAP1 SSTORE PUSH1 0x40 MLOAD PUSH32 0xD1A6A14209A385A964D036E404CB5CFB71F4000CDB03C9366292430787261BE6 SWAP1 PUSH2 0x3D7 SWAP1 DUP4 SWAP1 PUSH2 0x746 JUMP JUMPDEST PUSH1 0x40 MLOAD DUP1 SWAP2 SUB SWAP1 LOG1 POP JUMP JUMPDEST PUSH0 PUSH2 0x3EB PUSH2 0x50A JUMP JUMPDEST PUSH1 0x2 SLOAD PUSH1 0x40 DUP1 MLOAD PUSH1 0xC0 DUP2 ADD DUP3 MSTORE PUSH1 0x5 SLOAD DUP2 MSTORE PUSH1 0x3 SLOAD PUSH1 0x20 DUP1 DUP4 ADD SWAP2 SWAP1 SWAP2 MSTORE PUSH1 0x7 SLOAD PUSH2 0xFFFF PUSH1 0x1 PUSH1 0x20 SHL DUP3 DIV AND DUP4 DUP6 ADD MSTORE PUSH4 0xFFFFFFFF DUP1 DUP3 AND PUSH1 0x60 DUP6 ADD MSTORE PUSH1 0x1 PUSH1 0x30 SHL SWAP1 SWAP2 DIV AND PUSH1 0x80 DUP4 ADD MSTORE DUP3 MLOAD SWAP1 DUP2 ADD SWAP1 SWAP3 MSTORE PUSH0 DUP3 MSTORE PUSH1 0x1 PUSH1 0x1 PUSH1 0xA0 SHL SUB SWAP1 SWAP3 AND SWAP2 PUSH4 0x9B1C385E SWAP2 PUSH1 0xA0 DUP3 ADD SWAP1 PUSH2 0x461 SWAP1 PUSH2 0x55E JUMP JUMPDEST DUP2 MSTORE POP PUSH1 0x40 MLOAD DUP3 PUSH4 0xFFFFFFFF AND PUSH1 0xE0 SHL DUP2 MSTORE PUSH1 0x4 ADD PUSH2 0x480 SWAP2 SWAP1 PUSH2 0x79E JUMP JUMPDEST PUSH1 0x20 PUSH1 0x40 MLOAD DUP1 DUP4 SUB DUP2 PUSH0 DUP8 GAS CALL ISZERO DUP1 ISZERO PUSH2 0x49C JUMPI RETURNDATASIZE PUSH0 PUSH0 RETURNDATACOPY RETURNDATASIZE PUSH0 REVERT JUMPDEST POP POP POP POP PUSH1 0x40 MLOAD RETURNDATASIZE PUSH1 0x1F NOT PUSH1 0x1F DUP3 ADD AND DUP3 ADD DUP1 PUSH1 0x40 MSTORE POP DUP2 ADD SWAP1 PUSH2 0x4C0 SWAP2 SWAP1 PUSH2 0x821 JUMP JUMPDEST SWAP1 POP SWAP1 JUMP JUMPDEST PUSH2 0x4CD PUSH2 0x50A JUMP JUMPDEST PUSH2 0x4D6 DUP2 PUSH2 0x5CF JUMP JUMPDEST POP JUMP JUMPDEST PUSH1 0x6 DUP2 DUP2 SLOAD DUP2 LT PUSH2 0x4E8 JUMPI PUSH0 DUP1 REVERT JUMPDEST PUSH0 SWAP2 DUP3 MSTORE PUSH1 0x20 SWAP1 SWAP2 KECCAK256 ADD SLOAD SWAP1 POP DUP2 JUMP JUMPDEST PUSH2 0x504 PUSH1 0x6 DUP4 DUP4 PUSH2 0x671 JUMP JUMPDEST POP POP POP POP JUMP JUMPDEST PUSH0 SLOAD PUSH1 0x1 PUSH1 0x1 PUSH1 0xA0 SHL SUB AND CALLER EQ PUSH2 0x55C JUMPI PUSH1 0x40 MLOAD PUSH3 0x461BCD PUSH1 0xE5 SHL DUP2 MSTORE PUSH1 0x20 PUSH1 0x4 DUP3 ADD MSTORE PUSH1 0x16 PUSH1 0x24 DUP3 ADD MSTORE PUSH22 0x27B7363C9031B0B63630B1363290313C9037BBB732B9 PUSH1 0x51 SHL PUSH1 0x44 DUP3 ADD MSTORE PUSH1 0x64 ADD PUSH2 0x21A JUMP JUMPDEST JUMP JUMPDEST PUSH1 0x60 PUSH32 0x92FD13387C7FE7BEFBC38D303D6468778FB9731BC4583F17D92989C6FCFDEAAA DUP3 PUSH1 0x40 MLOAD PUSH1 0x24 ADD PUSH2 0x597 SWAP2 MLOAD ISZERO ISZERO DUP2 MSTORE PUSH1 0x20 ADD SWAP1 JUMP JUMPDEST PUSH1 0x40 DUP1 MLOAD PUSH1 0x1F NOT DUP2 DUP5 SUB ADD DUP2 MSTORE SWAP2 SWAP1 MSTORE PUSH1 0x20 DUP2 ADD DUP1 MLOAD PUSH1 0x1 PUSH1 0x1 PUSH1 0xE0 SHL SUB AND PUSH1 0x1 PUSH1 0x1 PUSH1 0xE0 SHL SUB NOT SWAP1 SWAP4 AND SWAP3 SWAP1 SWAP3 OR SWAP1 SWAP2 MSTORE SWAP3 SWAP2 POP POP JUMP JUMPDEST CALLER PUSH1 0x1 PUSH1 0x1 PUSH1 0xA0 SHL SUB DUP3 AND SUB PUSH2 0x621 JUMPI PUSH1 0x40 MLOAD PUSH3 0x461BCD PUSH1 0xE5 SHL DUP2 MSTORE PUSH1 0x20 PUSH1 0x4 DUP3 ADD MSTORE PUSH1 0x17 PUSH1 0x24 DUP3 ADD MSTORE PUSH23 0x21B0B73737BA103A3930B739B332B9103A379039B2B633 PUSH1 0x49 SHL PUSH1 0x44 DUP3 ADD MSTORE PUSH1 0x64 ADD PUSH2 0x21A JUMP JUMPDEST PUSH1 0x1 DUP1 SLOAD PUSH1 0x1 PUSH1 0x1 PUSH1 0xA0 SHL SUB NOT AND PUSH1 0x1 PUSH1 0x1 PUSH1 0xA0 SHL SUB DUP4 DUP2 AND SWAP2 DUP3 OR SWAP1 SWAP3 SSTORE PUSH0 DUP1 SLOAD PUSH1 0x40 MLOAD SWAP3 SWAP4 AND SWAP2 PUSH32 0xED8889F560326EB138920D842192F0EB3DD22B4F139C87A2C57538E05BAE1278 SWAP2 SWAP1 LOG3 POP JUMP JUMPDEST DUP3 DUP1 SLOAD DUP3 DUP3 SSTORE SWAP1 PUSH0 MSTORE PUSH1 0x20 PUSH0 KECCAK256 SWAP1 DUP2 ADD SWAP3 DUP3 ISZERO PUSH2 0x6AA JUMPI SWAP2 PUSH1 0x20 MUL DUP3 ADD JUMPDEST DUP3 DUP2 GT ISZERO PUSH2 0x6AA JUMPI DUP3 CALLDATALOAD DUP3 SSTORE SWAP2 PUSH1 0x20 ADD SWAP2 SWAP1 PUSH1 0x1 ADD SWAP1 PUSH2 0x68F JUMP JUMPDEST POP PUSH2 0x6B6 SWAP3 SWAP2 POP PUSH2 0x6BA JUMP JUMPDEST POP SWAP1 JUMP JUMPDEST JUMPDEST DUP1 DUP3 GT ISZERO PUSH2 0x6B6 JUMPI PUSH0 DUP2 SSTORE PUSH1 0x1 ADD PUSH2 0x6BB JUMP JUMPDEST PUSH0 PUSH0 PUSH0 PUSH1 0x40 DUP5 DUP7 SUB SLT ISZERO PUSH2 0x6E0 JUMPI PUSH0 PUSH0 REVERT JUMPDEST DUP4 CALLDATALOAD SWAP3 POP PUSH1 0x20 DUP5 ADD CALLDATALOAD PUSH1 0x1 PUSH1 0x1 PUSH1 0x40 SHL SUB DUP2 GT ISZERO PUSH2 0x6FC JUMPI PUSH0 PUSH0 REVERT JUMPDEST DUP5 ADD PUSH1 0x1F DUP2 ADD DUP7 SGT PUSH2 0x70C JUMPI PUSH0 PUSH0 REVERT JUMPDEST DUP1 CALLDATALOAD PUSH1 0x1 PUSH1 0x1 PUSH1 0x40 SHL SUB DUP2 GT ISZERO PUSH2 0x721 JUMPI PUSH0 PUSH0 REVERT JUMPDEST DUP7 PUSH1 0x20 DUP3 PUSH1 0x5 SHL DUP5 ADD ADD GT ISZERO PUSH2 0x735 JUMPI PUSH0 PUSH0 REVERT JUMPDEST SWAP4 SWAP7 PUSH1 0x20 SWAP2 SWAP1 SWAP2 ADD SWAP6 POP SWAP3 SWAP4 POP POP POP JUMP JUMPDEST PUSH1 0x1 PUSH1 0x1 PUSH1 0xA0 SHL SUB SWAP2 SWAP1 SWAP2 AND DUP2 MSTORE PUSH1 0x20 ADD SWAP1 JUMP JUMPDEST PUSH0 PUSH1 0x20 DUP3 DUP5 SUB SLT ISZERO PUSH2 0x76A JUMPI PUSH0 PUSH0 REVERT JUMPDEST DUP2 CALLDATALOAD PUSH1 0x1 PUSH1 0x1 PUSH1 0xA0 SHL SUB DUP2 AND DUP2 EQ PUSH2 0x780 JUMPI PUSH0 PUSH0 REVERT JUMPDEST SWAP4 SWAP3 POP POP POP JUMP JUMPDEST PUSH0 PUSH1 0x20 DUP3 DUP5 SUB SLT ISZERO PUSH2 0x797 JUMPI PUSH0 PUSH0 REVERT JUMPDEST POP CALLDATALOAD SWAP2 SWAP1 POP JUMP JUMPDEST PUSH1 0x20 DUP2 MSTORE DUP2 MLOAD PUSH1 0x20 DUP3 ADD MSTORE PUSH1 0x20 DUP3 ADD MLOAD PUSH1 0x40 DUP3 ADD MSTORE PUSH2 0xFFFF PUSH1 0x40 DUP4 ADD MLOAD AND PUSH1 0x60 DUP3 ADD MSTORE PUSH4 0xFFFFFFFF PUSH1 0x60 DUP4 ADD MLOAD AND PUSH1 0x80 DUP3 ADD MSTORE PUSH4 0xFFFFFFFF PUSH1 0x80 DUP4 ADD MLOAD AND PUSH1 0xA0 DUP3 ADD MSTORE PUSH0 PUSH1 0xA0 DUP4 ADD MLOAD PUSH1 0xC0 DUP1 DUP5 ADD MSTORE DUP1 MLOAD DUP1 PUSH1 0xE0 DUP6 ADD MSTORE DUP1 PUSH1 0x20 DUP4 ADD PUSH2 0x100 DUP7 ADD MCOPY PUSH0 PUSH2 0x100 DUP3 DUP7 ADD ADD MSTORE PUSH2 0x100 PUSH1 0x1F NOT PUSH1 0x1F DUP4 ADD AND DUP6 ADD ADD SWAP3 POP POP POP SWAP3 SWAP2 POP POP JUMP JUMPDEST PUSH0 PUSH1 0x20 DUP3 DUP5 SUB SLT ISZERO PUSH2 0x831 JUMPI PUSH0 PUSH0 REVERT JUMPDEST POP MLOAD SWAP2 SWAP1 POP JUMP INVALID LOG2 PUSH5 0x6970667358 0x22 SLT KECCAK256 PUSH7 0xE57AEAC6B0B19A PUSH16 0x322F93445D77C1C4D219B54942BC0F3A PUSH30 0xE6A0FA8AC67964736F6C634300081D0033F652222313E28459528D920B65 GT TLOAD AND 0xC0 0x4F RETURNDATACOPY 0xFC DUP3 0xAA 0xED 0xC9 PUSH28 0xE59F3F377C0D40000000000000000000000000CBD38ADA2D31C7071E DIV 0x1F 0xC8 EXTCALL 0xC1 0xDA SWAP14 EXTDELEGATECALL 0xC7 PUSH14 0xD4135290006F1871309577D248CF STOP PUSH2 0x9459 0xA7 SWAP12 BLOBBASEFEE PUSH20 0x5638108A2BB080319C90D6F652222313E2845952 DUP14 SWAP3 SIGNEXTEND PUSH6 0x115C16C04F3E 0xFC DUP3 0xAA 0xED 0xC9 PUSH28 0xE59F3F377C0D3FDB42F09D5A5CB193EA3EAE569C8CE2E3A5C8D8B68A 0xAD 0xBE BYTE PUSH4 0x7F44D07F PUSH8 0xBC17A26469706673 PC 0x22 SLT KECCAK256 0xE9 0xBB 0x24 CREATE2 GT POP 0xB7 PUSH24 0x14B0A385FDA7E24C13387362D3B8B02BCA68BFD9EDDE71CB PUSH5 0x736F6C6343 STOP ADDMOD SAR STOP CALLER "
		},
		"gasEstimates": {
			"creation": {
				"codeDepositCost": "4371400",
				"executionCost": "5066",
				"totalCost": "4376466"
			},
			"external": {
				"addVerifier(address,bool,string)": "infinite",
				"apiConsumer()": "2368",
				"calculateDeposit(uint256)": "infinite",
				"changeProjectState(uint8)": "infinite",
				"checkRepScore(address)": "infinite",
				"checkUnchangedData()": "infinite",
				"checkVerifiers()": "infinite",
				"dataAfter()": "infinite",
				"dataBefore()": "infinite",
				"deploy()": "infinite",
				"distributePay((uint256,address,string,uint256,uint256,string,uint256,string,string,(address,bool,string)[],uint8,bool),(address,string,uint256,uint256))": "infinite",
				"getNum()": "infinite",
				"getProjectState(uint256)": "947",
				"getVerifiers()": "infinite",
				"isMonitoring(address)": "infinite",
				"newProject()": "infinite",
				"newProp()": "infinite",
				"projects(address)": "infinite",
				"proponents(address)": "infinite",
				"randomiseVerifiers(address)": "infinite",
				"returnDeposit(address,uint256)": "infinite",
				"verifiers(uint256)": "infinite",
				"vrf()": "2325",
				"vrfNum()": "2404"
			}
		},
		"methodIdentifiers": {
			"addVerifier(address,bool,string)": "00dcbc18",
			"apiConsumer()": "242ab021",
			"calculateDeposit(uint256)": "4ec508f9",
			"changeProjectState(uint8)": "5699fadc",
			"checkRepScore(address)": "2e3803c6",
			"checkUnchangedData()": "b9c6d8b1",
			"checkVerifiers()": "5d16ad15",
			"dataAfter()": "aaf38e8b",
			"dataBefore()": "b43a57a9",
			"deploy()": "775c300c",
			"distributePay((uint256,address,string,uint256,uint256,string,uint256,string,string,(address,bool,string)[],uint8,bool),(address,string,uint256,uint256))": "a4635a1a",
			"getNum()": "67e0badb",
			"getProjectState(uint256)": "e0155714",
			"getVerifiers()": "a935e766",
			"isMonitoring(address)": "1db6cec7",
			"newProject()": "3bb060db",
			"newProp()": "961b461e",
			"projects(address)": "840e78fd",
			"proponents(address)": "ddfc5cfe",
			"randomiseVerifiers(address)": "486fb161",
			"returnDeposit(address,uint256)": "d29709fb",
			"verifiers(uint256)": "ac1eff68",
			"vrf()": "0c949043",
			"vrfNum()": "3f36cdea"
		}
	},
	"abi": [
		{
			"anonymous": false,
			"inputs": [
				{
					"indexed": false,
					"internalType": "string",
					"name": "",
					"type": "string"
				}
			],
			"name": "Balance",
			"type": "event"
		},
		{
			"anonymous": false,
			"inputs": [
				{
					"indexed": false,
					"internalType": "address",
					"name": "",
					"type": "address"
				},
				{
					"indexed": false,
					"internalType": "string",
					"name": "",
					"type": "string"
				}
			],
			"name": "CheckAddr",
			"type": "event"
		},
		{
			"anonymous": false,
			"inputs": [
				{
					"indexed": false,
					"internalType": "string",
					"name": "",
					"type": "string"
				},
				{
					"indexed": false,
					"internalType": "uint256",
					"name": "amount",
					"type": "uint256"
				}
			],
			"name": "Deposit",
			"type": "event"
		},
		{
			"anonymous": false,
			"inputs": [
				{
					"components": [
						{
							"internalType": "address payable",
							"name": "verifier",
							"type": "address"
						},
						{
							"internalType": "bool",
							"name": "response",
							"type": "bool"
						},
						{
							"internalType": "string",
							"name": "reason",
							"type": "string"
						}
					],
					"indexed": false,
					"internalType": "struct Lock.Response[]",
					"name": "",
					"type": "tuple[]"
				},
				{
					"indexed": false,
					"internalType": "string",
					"name": "",
					"type": "string"
				}
			],
			"name": "checkResp",
			"type": "event"
		},
		{
			"inputs": [
				{
					"internalType": "address",
					"name": "verifier",
					"type": "address"
				},
				{
					"internalType": "bool",
					"name": "resp",
					"type": "bool"
				},
				{
					"internalType": "string",
					"name": "message",
					"type": "string"
				}
			],
			"name": "addVerifier",
			"outputs": [],
			"stateMutability": "nonpayable",
			"type": "function"
		},
		{
			"inputs": [],
			"name": "apiConsumer",
			"outputs": [
				{
					"internalType": "contract APIConsumer",
					"name": "",
					"type": "address"
				}
			],
			"stateMutability": "view",
			"type": "function"
		},
		{
			"inputs": [
				{
					"internalType": "uint256",
					"name": "_repScore",
					"type": "uint256"
				}
			],
			"name": "calculateDeposit",
			"outputs": [
				{
					"internalType": "uint256",
					"name": "",
					"type": "uint256"
				},
				{
					"internalType": "uint256",
					"name": "",
					"type": "uint256"
				}
			],
			"stateMutability": "nonpayable",
			"type": "function"
		},
		{
			"inputs": [
				{
					"internalType": "enum Lock.projectState",
					"name": "_proState",
					"type": "uint8"
				}
			],
			"name": "changeProjectState",
			"outputs": [],
			"stateMutability": "payable",
			"type": "function"
		},
		{
			"inputs": [
				{
					"internalType": "address payable",
					"name": "prop",
					"type": "address"
				}
			],
			"name": "checkRepScore",
			"outputs": [],
			"stateMutability": "payable",
			"type": "function"
		},
		{
			"inputs": [],
			"name": "checkUnchangedData",
			"outputs": [],
			"stateMutability": "nonpayable",
			"type": "function"
		},
		{
			"inputs": [],
			"name": "checkVerifiers",
			"outputs": [
				{
					"internalType": "bool",
					"name": "",
					"type": "bool"
				}
			],
			"stateMutability": "view",
			"type": "function"
		},
		{
			"inputs": [],
			"name": "dataAfter",
			"outputs": [
				{
					"internalType": "string",
					"name": "",
					"type": "string"
				}
			],
			"stateMutability": "view",
			"type": "function"
		},
		{
			"inputs": [],
			"name": "dataBefore",
			"outputs": [
				{
					"internalType": "string",
					"name": "",
					"type": "string"
				}
			],
			"stateMutability": "view",
			"type": "function"
		},
		{
			"inputs": [],
			"name": "deploy",
			"outputs": [],
			"stateMutability": "nonpayable",
			"type": "function"
		},
		{
			"inputs": [
				{
					"components": [
						{
							"internalType": "uint256",
							"name": "projectId",
							"type": "uint256"
						},
						{
							"internalType": "address payable",
							"name": "proponent",
							"type": "address"
						},
						{
							"internalType": "string",
							"name": "projectDocs",
							"type": "string"
						},
						{
							"internalType": "uint256",
							"name": "startDate",
							"type": "uint256"
						},
						{
							"internalType": "uint256",
							"name": "creditingPeriod",
							"type": "uint256"
						},
						{
							"internalType": "string",
							"name": "location",
							"type": "string"
						},
						{
							"internalType": "uint256",
							"name": "removalGHG",
							"type": "uint256"
						},
						{
							"internalType": "string",
							"name": "projectType",
							"type": "string"
						},
						{
							"internalType": "string",
							"name": "methodology",
							"type": "string"
						},
						{
							"components": [
								{
									"internalType": "address payable",
									"name": "verifier",
									"type": "address"
								},
								{
									"internalType": "bool",
									"name": "response",
									"type": "bool"
								},
								{
									"internalType": "string",
									"name": "reason",
									"type": "string"
								}
							],
							"internalType": "struct Lock.Response[]",
							"name": "verifyResponse",
							"type": "tuple[]"
						},
						{
							"internalType": "enum Lock.projectState",
							"name": "proState",
							"type": "uint8"
						},
						{
							"internalType": "bool",
							"name": "issueCredit",
							"type": "bool"
						}
					],
					"internalType": "struct Lock.Project",
					"name": "proj",
					"type": "tuple"
				},
				{
					"components": [
						{
							"internalType": "address payable",
							"name": "propAddr",
							"type": "address"
						},
						{
							"internalType": "string",
							"name": "name",
							"type": "string"
						},
						{
							"internalType": "uint256",
							"name": "repScore",
							"type": "uint256"
						},
						{
							"internalType": "uint256",
							"name": "balance",
							"type": "uint256"
						}
					],
					"internalType": "struct Lock.Proponents",
					"name": "prop",
					"type": "tuple"
				}
			],
			"name": "distributePay",
			"outputs": [],
			"stateMutability": "payable",
			"type": "function"
		},
		{
			"inputs": [],
			"name": "getNum",
			"outputs": [],
			"stateMutability": "nonpayable",
			"type": "function"
		},
		{
			"inputs": [
				{
					"internalType": "uint256",
					"name": "val",
					"type": "uint256"
				}
			],
			"name": "getProjectState",
			"outputs": [
				{
					"internalType": "enum Lock.projectState",
					"name": "",
					"type": "uint8"
				}
			],
			"stateMutability": "pure",
			"type": "function"
		},
		{
			"inputs": [],
			"name": "getVerifiers",
			"outputs": [
				{
					"components": [
						{
							"internalType": "address payable",
							"name": "verifier",
							"type": "address"
						},
						{
							"internalType": "bool",
							"name": "response",
							"type": "bool"
						},
						{
							"internalType": "string",
							"name": "reason",
							"type": "string"
						}
					],
					"internalType": "struct Lock.Response[]",
					"name": "",
					"type": "tuple[]"
				}
			],
			"stateMutability": "view",
			"type": "function"
		},
		{
			"inputs": [
				{
					"internalType": "address",
					"name": "opNode",
					"type": "address"
				}
			],
			"name": "isMonitoring",
			"outputs": [],
			"stateMutability": "nonpayable",
			"type": "function"
		},
		{
			"inputs": [],
			"name": "newProject",
			"outputs": [],
			"stateMutability": "nonpayable",
			"type": "function"
		},
		{
			"inputs": [],
			"name": "newProp",
			"outputs": [],
			"stateMutability": "nonpayable",
			"type": "function"
		},
		{
			"inputs": [
				{
					"internalType": "address",
					"name": "",
					"type": "address"
				}
			],
			"name": "projects",
			"outputs": [
				{
					"internalType": "uint256",
					"name": "projectId",
					"type": "uint256"
				},
				{
					"internalType": "address payable",
					"name": "proponent",
					"type": "address"
				},
				{
					"internalType": "string",
					"name": "projectDocs",
					"type": "string"
				},
				{
					"internalType": "uint256",
					"name": "startDate",
					"type": "uint256"
				},
				{
					"internalType": "uint256",
					"name": "creditingPeriod",
					"type": "uint256"
				},
				{
					"internalType": "string",
					"name": "location",
					"type": "string"
				},
				{
					"internalType": "uint256",
					"name": "removalGHG",
					"type": "uint256"
				},
				{
					"internalType": "string",
					"name": "projectType",
					"type": "string"
				},
				{
					"internalType": "string",
					"name": "methodology",
					"type": "string"
				},
				{
					"internalType": "enum Lock.projectState",
					"name": "proState",
					"type": "uint8"
				},
				{
					"internalType": "bool",
					"name": "issueCredit",
					"type": "bool"
				}
			],
			"stateMutability": "view",
			"type": "function"
		},
		{
			"inputs": [
				{
					"internalType": "address",
					"name": "",
					"type": "address"
				}
			],
			"name": "proponents",
			"outputs": [
				{
					"internalType": "address payable",
					"name": "propAddr",
					"type": "address"
				},
				{
					"internalType": "string",
					"name": "name",
					"type": "string"
				},
				{
					"internalType": "uint256",
					"name": "repScore",
					"type": "uint256"
				},
				{
					"internalType": "uint256",
					"name": "balance",
					"type": "uint256"
				}
			],
			"stateMutability": "view",
			"type": "function"
		},
		{
			"inputs": [
				{
					"internalType": "address",
					"name": "projectOwner",
					"type": "address"
				}
			],
			"name": "randomiseVerifiers",
			"outputs": [],
			"stateMutability": "nonpayable",
			"type": "function"
		},
		{
			"inputs": [
				{
					"internalType": "address payable",
					"name": "addr",
					"type": "address"
				},
				{
					"internalType": "uint256",
					"name": "deposit",
					"type": "uint256"
				}
			],
			"name": "returnDeposit",
			"outputs": [],
			"stateMutability": "payable",
			"type": "function"
		},
		{
			"inputs": [
				{
					"internalType": "uint256",
					"name": "",
					"type": "uint256"
				}
			],
			"name": "verifiers",
			"outputs": [
				{
					"internalType": "address payable",
					"name": "verifier",
					"type": "address"
				},
				{
					"internalType": "bool",
					"name": "response",
					"type": "bool"
				},
				{
					"internalType": "string",
					"name": "reason",
					"type": "string"
				}
			],
			"stateMutability": "view",
			"type": "function"
		},
		{
			"inputs": [],
			"name": "vrf",
			"outputs": [
				{
					"internalType": "contract VRFD20",
					"name": "",
					"type": "address"
				}
			],
			"stateMutability": "view",
			"type": "function"
		},
		{
			"inputs": [],
			"name": "vrfNum",
			"outputs": [
				{
					"internalType": "uint256",
					"name": "",
					"type": "uint256"
				}
			],
			"stateMutability": "view",
			"type": "function"
		},
		{
			"stateMutability": "payable",
			"type": "receive"
		}
	]
}