{
	"data": {
		"bytecode": {
			"linkReferences": {},
			"object": "6080604052348015600e575f5ffd5b506101c28061001c5f395ff3fe60806040526004361061002b575f3560e01c806348c981e21461003e578063e13a771614610051575f5ffd5b3661003a57610038610061565b005b5f5ffd5b61003861004c36600461015f565b6100c5565b34801561005c575f5ffd5b506100385b60408051818152601a818301527953656e646572207265636569766564206d6f6e6579206261636b60301b606082015230602082015290517f621c2a96b16dc51dae36a7ae446927d28335201191a953da6606a3019f3c7afb9181900360800190a1565b5f816001600160a01b0316346040515f6040518083038185875af1925050503d805f811461010e576040519150601f19603f3d011682016040523d82523d5f602084013e610113565b606091505b505090508061015b5760405162461bcd60e51b815260206004820152601060248201526f2a3930b739b332b9103330b4b632b21760811b604482015260640160405180910390fd5b5050565b5f6020828403121561016f575f5ffd5b81356001600160a01b0381168114610185575f5ffd5b939250505056fea2646970667358221220fbbd988fdc9d17940b1cd9a55013761236bc87f413fb73b5de065d0d291becb564736f6c634300081d0033",
			"opcodes": "PUSH1 0x80 PUSH1 0x40 MSTORE CALLVALUE DUP1 ISZERO PUSH1 0xE JUMPI PUSH0 PUSH0 REVERT JUMPDEST POP PUSH2 0x1C2 DUP1 PUSH2 0x1C PUSH0 CODECOPY PUSH0 RETURN INVALID PUSH1 0x80 PUSH1 0x40 MSTORE PUSH1 0x4 CALLDATASIZE LT PUSH2 0x2B JUMPI PUSH0 CALLDATALOAD PUSH1 0xE0 SHR DUP1 PUSH4 0x48C981E2 EQ PUSH2 0x3E JUMPI DUP1 PUSH4 0xE13A7716 EQ PUSH2 0x51 JUMPI PUSH0 PUSH0 REVERT JUMPDEST CALLDATASIZE PUSH2 0x3A JUMPI PUSH2 0x38 PUSH2 0x61 JUMP JUMPDEST STOP JUMPDEST PUSH0 PUSH0 REVERT JUMPDEST PUSH2 0x38 PUSH2 0x4C CALLDATASIZE PUSH1 0x4 PUSH2 0x15F JUMP JUMPDEST PUSH2 0xC5 JUMP JUMPDEST CALLVALUE DUP1 ISZERO PUSH2 0x5C JUMPI PUSH0 PUSH0 REVERT JUMPDEST POP PUSH2 0x38 JUMPDEST PUSH1 0x40 DUP1 MLOAD DUP2 DUP2 MSTORE PUSH1 0x1A DUP2 DUP4 ADD MSTORE PUSH26 0x53656E646572207265636569766564206D6F6E6579206261636B PUSH1 0x30 SHL PUSH1 0x60 DUP3 ADD MSTORE ADDRESS PUSH1 0x20 DUP3 ADD MSTORE SWAP1 MLOAD PUSH32 0x621C2A96B16DC51DAE36A7AE446927D28335201191A953DA6606A3019F3C7AFB SWAP2 DUP2 SWAP1 SUB PUSH1 0x80 ADD SWAP1 LOG1 JUMP JUMPDEST PUSH0 DUP2 PUSH1 0x1 PUSH1 0x1 PUSH1 0xA0 SHL SUB AND CALLVALUE PUSH1 0x40 MLOAD PUSH0 PUSH1 0x40 MLOAD DUP1 DUP4 SUB DUP2 DUP6 DUP8 GAS CALL SWAP3 POP POP POP RETURNDATASIZE DUP1 PUSH0 DUP2 EQ PUSH2 0x10E JUMPI PUSH1 0x40 MLOAD SWAP2 POP PUSH1 0x1F NOT PUSH1 0x3F RETURNDATASIZE ADD AND DUP3 ADD PUSH1 0x40 MSTORE RETURNDATASIZE DUP3 MSTORE RETURNDATASIZE PUSH0 PUSH1 0x20 DUP5 ADD RETURNDATACOPY PUSH2 0x113 JUMP JUMPDEST PUSH1 0x60 SWAP2 POP JUMPDEST POP POP SWAP1 POP DUP1 PUSH2 0x15B JUMPI PUSH1 0x40 MLOAD PUSH3 0x461BCD PUSH1 0xE5 SHL DUP2 MSTORE PUSH1 0x20 PUSH1 0x4 DUP3 ADD MSTORE PUSH1 0x10 PUSH1 0x24 DUP3 ADD MSTORE PUSH16 0x2A3930B739B332B9103330B4B632B217 PUSH1 0x81 SHL PUSH1 0x44 DUP3 ADD MSTORE PUSH1 0x64 ADD PUSH1 0x40 MLOAD DUP1 SWAP2 SUB SWAP1 REVERT JUMPDEST POP POP JUMP JUMPDEST PUSH0 PUSH1 0x20 DUP3 DUP5 SUB SLT ISZERO PUSH2 0x16F JUMPI PUSH0 PUSH0 REVERT JUMPDEST DUP2 CALLDATALOAD PUSH1 0x1 PUSH1 0x1 PUSH1 0xA0 SHL SUB DUP2 AND DUP2 EQ PUSH2 0x185 JUMPI PUSH0 PUSH0 REVERT JUMPDEST SWAP4 SWAP3 POP POP POP JUMP INVALID LOG2 PUSH5 0x6970667358 0x22 SLT KECCAK256 EXTSTATICCALL 0xBD SWAP9 DUP16 0xDC SWAP14 OR SWAP5 SIGNEXTEND SHR 0xD9 0xA5 POP SGT PUSH23 0x1236BC87F413FB73B5DE065D0D291BECB564736F6C6343 STOP ADDMOD SAR STOP CALLER "
		},
		"gasEstimates": {
			"creation": {
				"codeDepositCost": "90000",
				"executionCost": "139",
				"totalCost": "90139"
			},
			"external": {
				"sendEther(address)": "infinite",
				"testReturn()": "2019"
			}
		},
		"methodIdentifiers": {
			"sendEther(address)": "48c981e2",
			"testReturn()": "e13a7716"
		}
	},
	"abi": [
		{
			"anonymous": false,
			"inputs": [
				{
					"indexed": false,
					"internalType": "string",
					"name": "",
					"type": "string"
				},
				{
					"indexed": false,
					"internalType": "address",
					"name": "",
					"type": "address"
				}
			],
			"name": "LogMessage",
			"type": "event"
		},
		{
			"inputs": [
				{
					"internalType": "address payable",
					"name": "receiverAddress",
					"type": "address"
				}
			],
			"name": "sendEther",
			"outputs": [],
			"stateMutability": "payable",
			"type": "function"
		},
		{
			"inputs": [],
			"name": "testReturn",
			"outputs": [],
			"stateMutability": "nonpayable",
			"type": "function"
		},
		{
			"stateMutability": "payable",
			"type": "receive"
		}
	]
}