{
	"data": {
		"bytecode": {
			"linkReferences": {},
			"object": "6080604052348015600e575f5ffd5b506103c18061001c5f395ff3fe608060405234801561000f575f5ffd5b5060043610610034575f3560e01c80632a3ab19b146100385780635306ecfe1461004d575b5f5ffd5b61004b610046366004610148565b610060565b005b61004b61005b36600461021f565b6100bb565b7f71e002ac0492796e005ec9d10394a54f844ddf6a141cf288bcf9aa82accd4f528c8c8c8c8c8c8c8c8c8c8c8c6040516100a59c9b9a999897969594939291906102d4565b60405180910390a1505050505050505050505050565b7f028fe115ec16e0a196d344db99ae991fb5c1a2643fd4835d5630357f4510b5d98686868686866040516100f49695949392919061034a565b60405180910390a1505050505050565b5f5f83601f840112610114575f5ffd5b5081356001600160401b0381111561012a575f5ffd5b602083019150836020828501011115610141575f5ffd5b9250929050565b5f5f5f5f5f5f5f5f5f5f5f5f6101208d8f031215610164575f5ffd5b8c359b506001600160401b0360208e0135111561017f575f5ffd5b61018f8e60208f01358f01610104565b909b5099506001600160401b0360408e013511156101ab575f5ffd5b6101bb8e60408f01358f01610104565b909950975060608d013596506001600160401b0360808e013511156101de575f5ffd5b6101ee8e60808f01358f01610104565b9c9f9b9e50999c989b979a96999860a08101359760c0820135975060e0820135965061010090910135945092505050565b5f5f5f5f5f5f60808789031215610234575f5ffd5b8635955060208701356001600160401b03811115610250575f5ffd5b61025c89828a01610104565b90965094505060408701358015158114610274575f5ffd5b925060608701356001600160401b0381111561028e575f5ffd5b61029a89828a01610104565b979a9699509497509295939492505050565b81835281816020850137505f828201602090810191909152601f909101601f19169091010190565b8c815261012060208201525f6102ef61012083018d8f6102ac565b8281036040840152610302818c8e6102ac565b9050896060840152828103608084015261031d81898b6102ac565b9150508560a08301528460c08301528360e0830152826101008301529d9c50505050505050505050505050565b868152608060208201525f6103636080830187896102ac565b8515156040840152828103606084015261037e8185876102ac565b999850505050505050505056fea2646970667358221220f00b7461d0869fc4b9be3b733836c09ca96904fad0990f40f973836196a2d7ed64736f6c634300081d0033",
			"opcodes": "PUSH1 0x80 PUSH1 0x40 MSTORE CALLVALUE DUP1 ISZERO PUSH1 0xE JUMPI PUSH0 PUSH0 REVERT JUMPDEST POP PUSH2 0x3C1 DUP1 PUSH2 0x1C PUSH0 CODECOPY PUSH0 RETURN INVALID PUSH1 0x80 PUSH1 0x40 MSTORE CALLVALUE DUP1 ISZERO PUSH2 0xF JUMPI PUSH0 PUSH0 REVERT JUMPDEST POP PUSH1 0x4 CALLDATASIZE LT PUSH2 0x34 JUMPI PUSH0 CALLDATALOAD PUSH1 0xE0 SHR DUP1 PUSH4 0x2A3AB19B EQ PUSH2 0x38 JUMPI DUP1 PUSH4 0x5306ECFE EQ PUSH2 0x4D JUMPI JUMPDEST PUSH0 PUSH0 REVERT JUMPDEST PUSH2 0x4B PUSH2 0x46 CALLDATASIZE PUSH1 0x4 PUSH2 0x148 JUMP JUMPDEST PUSH2 0x60 JUMP JUMPDEST STOP JUMPDEST PUSH2 0x4B PUSH2 0x5B CALLDATASIZE PUSH1 0x4 PUSH2 0x21F JUMP JUMPDEST PUSH2 0xBB JUMP JUMPDEST PUSH32 0x71E002AC0492796E005EC9D10394A54F844DDF6A141CF288BCF9AA82ACCD4F52 DUP13 DUP13 DUP13 DUP13 DUP13 DUP13 DUP13 DUP13 DUP13 DUP13 DUP13 DUP13 PUSH1 0x40 MLOAD PUSH2 0xA5 SWAP13 SWAP12 SWAP11 SWAP10 SWAP9 SWAP8 SWAP7 SWAP6 SWAP5 SWAP4 SWAP3 SWAP2 SWAP1 PUSH2 0x2D4 JUMP JUMPDEST PUSH1 0x40 MLOAD DUP1 SWAP2 SUB SWAP1 LOG1 POP POP POP POP POP POP POP POP POP POP POP POP JUMP JUMPDEST PUSH32 0x28FE115EC16E0A196D344DB99AE991FB5C1A2643FD4835D5630357F4510B5D9 DUP7 DUP7 DUP7 DUP7 DUP7 DUP7 PUSH1 0x40 MLOAD PUSH2 0xF4 SWAP7 SWAP6 SWAP5 SWAP4 SWAP3 SWAP2 SWAP1 PUSH2 0x34A JUMP JUMPDEST PUSH1 0x40 MLOAD DUP1 SWAP2 SUB SWAP1 LOG1 POP POP POP POP POP POP JUMP JUMPDEST PUSH0 PUSH0 DUP4 PUSH1 0x1F DUP5 ADD SLT PUSH2 0x114 JUMPI PUSH0 PUSH0 REVERT JUMPDEST POP DUP2 CALLDATALOAD PUSH1 0x1 PUSH1 0x1 PUSH1 0x40 SHL SUB DUP2 GT ISZERO PUSH2 0x12A JUMPI PUSH0 PUSH0 REVERT JUMPDEST PUSH1 0x20 DUP4 ADD SWAP2 POP DUP4 PUSH1 0x20 DUP3 DUP6 ADD ADD GT ISZERO PUSH2 0x141 JUMPI PUSH0 PUSH0 REVERT JUMPDEST SWAP3 POP SWAP3 SWAP1 POP JUMP JUMPDEST PUSH0 PUSH0 PUSH0 PUSH0 PUSH0 PUSH0 PUSH0 PUSH0 PUSH0 PUSH0 PUSH0 PUSH0 PUSH2 0x120 DUP14 DUP16 SUB SLT ISZERO PUSH2 0x164 JUMPI PUSH0 PUSH0 REVERT JUMPDEST DUP13 CALLDATALOAD SWAP12 POP PUSH1 0x1 PUSH1 0x1 PUSH1 0x40 SHL SUB PUSH1 0x20 DUP15 ADD CALLDATALOAD GT ISZERO PUSH2 0x17F JUMPI PUSH0 PUSH0 REVERT JUMPDEST PUSH2 0x18F DUP15 PUSH1 0x20 DUP16 ADD CALLDATALOAD DUP16 ADD PUSH2 0x104 JUMP JUMPDEST SWAP1 SWAP12 POP SWAP10 POP PUSH1 0x1 PUSH1 0x1 PUSH1 0x40 SHL SUB PUSH1 0x40 DUP15 ADD CALLDATALOAD GT ISZERO PUSH2 0x1AB JUMPI PUSH0 PUSH0 REVERT JUMPDEST PUSH2 0x1BB DUP15 PUSH1 0x40 DUP16 ADD CALLDATALOAD DUP16 ADD PUSH2 0x104 JUMP JUMPDEST SWAP1 SWAP10 POP SWAP8 POP PUSH1 0x60 DUP14 ADD CALLDATALOAD SWAP7 POP PUSH1 0x1 PUSH1 0x1 PUSH1 0x40 SHL SUB PUSH1 0x80 DUP15 ADD CALLDATALOAD GT ISZERO PUSH2 0x1DE JUMPI PUSH0 PUSH0 REVERT JUMPDEST PUSH2 0x1EE DUP15 PUSH1 0x80 DUP16 ADD CALLDATALOAD DUP16 ADD PUSH2 0x104 JUMP JUMPDEST SWAP13 SWAP16 SWAP12 SWAP15 POP SWAP10 SWAP13 SWAP9 SWAP12 SWAP8 SWAP11 SWAP7 SWAP10 SWAP9 PUSH1 0xA0 DUP2 ADD CALLDATALOAD SWAP8 PUSH1 0xC0 DUP3 ADD CALLDATALOAD SWAP8 POP PUSH1 0xE0 DUP3 ADD CALLDATALOAD SWAP7 POP PUSH2 0x100 SWAP1 SWAP2 ADD CALLDATALOAD SWAP5 POP SWAP3 POP POP POP JUMP JUMPDEST PUSH0 PUSH0 PUSH0 PUSH0 PUSH0 PUSH0 PUSH1 0x80 DUP8 DUP10 SUB SLT ISZERO PUSH2 0x234 JUMPI PUSH0 PUSH0 REVERT JUMPDEST DUP7 CALLDATALOAD SWAP6 POP PUSH1 0x20 DUP8 ADD CALLDATALOAD PUSH1 0x1 PUSH1 0x1 PUSH1 0x40 SHL SUB DUP2 GT ISZERO PUSH2 0x250 JUMPI PUSH0 PUSH0 REVERT JUMPDEST PUSH2 0x25C DUP10 DUP3 DUP11 ADD PUSH2 0x104 JUMP JUMPDEST SWAP1 SWAP7 POP SWAP5 POP POP PUSH1 0x40 DUP8 ADD CALLDATALOAD DUP1 ISZERO ISZERO DUP2 EQ PUSH2 0x274 JUMPI PUSH0 PUSH0 REVERT JUMPDEST SWAP3 POP PUSH1 0x60 DUP8 ADD CALLDATALOAD PUSH1 0x1 PUSH1 0x1 PUSH1 0x40 SHL SUB DUP2 GT ISZERO PUSH2 0x28E JUMPI PUSH0 PUSH0 REVERT JUMPDEST PUSH2 0x29A DUP10 DUP3 DUP11 ADD PUSH2 0x104 JUMP JUMPDEST SWAP8 SWAP11 SWAP7 SWAP10 POP SWAP5 SWAP8 POP SWAP3 SWAP6 SWAP4 SWAP5 SWAP3 POP POP POP JUMP JUMPDEST DUP2 DUP4 MSTORE DUP2 DUP2 PUSH1 0x20 DUP6 ADD CALLDATACOPY POP PUSH0 DUP3 DUP3 ADD PUSH1 0x20 SWAP1 DUP2 ADD SWAP2 SWAP1 SWAP2 MSTORE PUSH1 0x1F SWAP1 SWAP2 ADD PUSH1 0x1F NOT AND SWAP1 SWAP2 ADD ADD SWAP1 JUMP JUMPDEST DUP13 DUP2 MSTORE PUSH2 0x120 PUSH1 0x20 DUP3 ADD MSTORE PUSH0 PUSH2 0x2EF PUSH2 0x120 DUP4 ADD DUP14 DUP16 PUSH2 0x2AC JUMP JUMPDEST DUP3 DUP2 SUB PUSH1 0x40 DUP5 ADD MSTORE PUSH2 0x302 DUP2 DUP13 DUP15 PUSH2 0x2AC JUMP JUMPDEST SWAP1 POP DUP10 PUSH1 0x60 DUP5 ADD MSTORE DUP3 DUP2 SUB PUSH1 0x80 DUP5 ADD MSTORE PUSH2 0x31D DUP2 DUP10 DUP12 PUSH2 0x2AC JUMP JUMPDEST SWAP2 POP POP DUP6 PUSH1 0xA0 DUP4 ADD MSTORE DUP5 PUSH1 0xC0 DUP4 ADD MSTORE DUP4 PUSH1 0xE0 DUP4 ADD MSTORE DUP3 PUSH2 0x100 DUP4 ADD MSTORE SWAP14 SWAP13 POP POP POP POP POP POP POP POP POP POP POP POP POP JUMP JUMPDEST DUP7 DUP2 MSTORE PUSH1 0x80 PUSH1 0x20 DUP3 ADD MSTORE PUSH0 PUSH2 0x363 PUSH1 0x80 DUP4 ADD DUP8 DUP10 PUSH2 0x2AC JUMP JUMPDEST DUP6 ISZERO ISZERO PUSH1 0x40 DUP5 ADD MSTORE DUP3 DUP2 SUB PUSH1 0x60 DUP5 ADD MSTORE PUSH2 0x37E DUP2 DUP6 DUP8 PUSH2 0x2AC JUMP JUMPDEST SWAP10 SWAP9 POP POP POP POP POP POP POP POP POP JUMP INVALID LOG2 PUSH5 0x6970667358 0x22 SLT KECCAK256 CREATE SIGNEXTEND PUSH21 0x61D0869FC4B9BE3B733836C09CA96904FAD0990F40 EXTDELEGATECALL PUSH20 0x836196A2D7ED64736F6C634300081D0033000000 "
		},
		"gasEstimates": {
			"creation": {
				"codeDepositCost": "192200",
				"executionCost": "236",
				"totalCost": "192436"
			},
			"external": {
				"submitMonitoring(uint256,string,bool,string)": "infinite",
				"submitProjectInfo(uint256,string,string,uint256,string,uint256,uint256,uint256,uint256)": "infinite"
			}
		},
		"methodIdentifiers": {
			"submitMonitoring(uint256,string,bool,string)": "5306ecfe",
			"submitProjectInfo(uint256,string,string,uint256,string,uint256,uint256,uint256,uint256)": "2a3ab19b"
		}
	},
	"abi": [
		{
			"anonymous": false,
			"inputs": [
				{
					"indexed": false,
					"internalType": "uint256",
					"name": "proj_id",
					"type": "uint256"
				},
				{
					"indexed": false,
					"internalType": "string",
					"name": "methodology",
					"type": "string"
				},
				{
					"indexed": false,
					"internalType": "bool",
					"name": "passed",
					"type": "bool"
				},
				{
					"indexed": false,
					"internalType": "string",
					"name": "notes",
					"type": "string"
				}
			],
			"name": "MonitoringSubmitted",
			"type": "event"
		},
		{
			"anonymous": false,
			"inputs": [
				{
					"indexed": false,
					"internalType": "uint256",
					"name": "id",
					"type": "uint256"
				},
				{
					"indexed": false,
					"internalType": "string",
					"name": "name",
					"type": "string"
				},
				{
					"indexed": false,
					"internalType": "string",
					"name": "methodology",
					"type": "string"
				},
				{
					"indexed": false,
					"internalType": "uint256",
					"name": "expected_reductions",
					"type": "uint256"
				},
				{
					"indexed": false,
					"internalType": "string",
					"name": "location",
					"type": "string"
				},
				{
					"indexed": false,
					"internalType": "uint256",
					"name": "start_date",
					"type": "uint256"
				},
				{
					"indexed": false,
					"internalType": "uint256",
					"name": "verification_date",
					"type": "uint256"
				},
				{
					"indexed": false,
					"internalType": "uint256",
					"name": "validation_date",
					"type": "uint256"
				},
				{
					"indexed": false,
					"internalType": "uint256",
					"name": "issued_credits",
					"type": "uint256"
				}
			],
			"name": "ProjectInfoSubmitted",
			"type": "event"
		},
		{
			"inputs": [
				{
					"internalType": "uint256",
					"name": "proj_id",
					"type": "uint256"
				},
				{
					"internalType": "string",
					"name": "methodology",
					"type": "string"
				},
				{
					"internalType": "bool",
					"name": "passed",
					"type": "bool"
				},
				{
					"internalType": "string",
					"name": "notes",
					"type": "string"
				}
			],
			"name": "submitMonitoring",
			"outputs": [],
			"stateMutability": "nonpayable",
			"type": "function"
		},
		{
			"inputs": [
				{
					"internalType": "uint256",
					"name": "id",
					"type": "uint256"
				},
				{
					"internalType": "string",
					"name": "name",
					"type": "string"
				},
				{
					"internalType": "string",
					"name": "methodology",
					"type": "string"
				},
				{
					"internalType": "uint256",
					"name": "expected_reductions",
					"type": "uint256"
				},
				{
					"internalType": "string",
					"name": "location",
					"type": "string"
				},
				{
					"internalType": "uint256",
					"name": "start_date",
					"type": "uint256"
				},
				{
					"internalType": "uint256",
					"name": "verification_date",
					"type": "uint256"
				},
				{
					"internalType": "uint256",
					"name": "validation_date",
					"type": "uint256"
				},
				{
					"internalType": "uint256",
					"name": "issued_credits",
					"type": "uint256"
				}
			],
			"name": "submitProjectInfo",
			"outputs": [],
			"stateMutability": "nonpayable",
			"type": "function"
		}
	]
}